{
	"blockpedia.sol": {
		"Blockpedia": {
			"abi": [
				{
					"inputs": [],
					"stateMutability": "nonpayable",
					"type": "constructor"
				},
				{
					"stateMutability": "payable",
					"type": "fallback"
				},
				{
					"inputs": [
						{
							"internalType": "uint256",
							"name": "_index",
							"type": "uint256"
						},
						{
							"internalType": "string",
							"name": "_conteudo",
							"type": "string"
						}
					],
					"name": "adicionaNovaVercaoDesativadaAPaginaPorIndexPaginas",
					"outputs": [],
					"stateMutability": "nonpayable",
					"type": "function"
				},
				{
					"inputs": [
						{
							"internalType": "bool",
							"name": "_ativo",
							"type": "bool"
						}
					],
					"name": "ativaDesativaBlockpedia",
					"outputs": [],
					"stateMutability": "nonpayable",
					"type": "function"
				},
				{
					"inputs": [
						{
							"internalType": "uint256",
							"name": "_indexPagina",
							"type": "uint256"
						}
					],
					"name": "ativaPaginaPorIndexPaginas",
					"outputs": [],
					"stateMutability": "nonpayable",
					"type": "function"
				},
				{
					"inputs": [
						{
							"internalType": "uint256",
							"name": "_indexPagina",
							"type": "uint256"
						},
						{
							"internalType": "uint256",
							"name": "_indexVersoes",
							"type": "uint256"
						}
					],
					"name": "ativaVersaoPorIndexVersoesEIndexPaginas",
					"outputs": [],
					"stateMutability": "nonpayable",
					"type": "function"
				},
				{
					"inputs": [],
					"name": "ativo",
					"outputs": [
						{
							"internalType": "bool",
							"name": "",
							"type": "bool"
						}
					],
					"stateMutability": "view",
					"type": "function"
				},
				{
					"inputs": [],
					"name": "autor",
					"outputs": [
						{
							"internalType": "address",
							"name": "",
							"type": "address"
						}
					],
					"stateMutability": "view",
					"type": "function"
				},
				{
					"inputs": [
						{
							"internalType": "string",
							"name": "_titulo",
							"type": "string"
						},
						{
							"internalType": "string",
							"name": "_conteudo",
							"type": "string"
						}
					],
					"name": "criarPagina",
					"outputs": [],
					"stateMutability": "nonpayable",
					"type": "function"
				},
				{
					"inputs": [],
					"name": "dataCriacao",
					"outputs": [
						{
							"internalType": "uint256",
							"name": "",
							"type": "uint256"
						}
					],
					"stateMutability": "view",
					"type": "function"
				},
				{
					"inputs": [
						{
							"internalType": "uint256",
							"name": "_indexPagina",
							"type": "uint256"
						}
					],
					"name": "desativaPaginaPorIndexPaginas",
					"outputs": [],
					"stateMutability": "nonpayable",
					"type": "function"
				},
				{
					"inputs": [
						{
							"internalType": "uint256",
							"name": "_indice",
							"type": "uint256"
						}
					],
					"name": "getConteudoVersaoValidaPorIndexPaginas",
					"outputs": [
						{
							"internalType": "string",
							"name": "",
							"type": "string"
						}
					],
					"stateMutability": "view",
					"type": "function"
				},
				{
					"inputs": [
						{
							"internalType": "string",
							"name": "_titulo",
							"type": "string"
						}
					],
					"name": "getPaginasPorTitulo",
					"outputs": [
						{
							"internalType": "uint256[]",
							"name": "",
							"type": "uint256[]"
						}
					],
					"stateMutability": "view",
					"type": "function"
				},
				{
					"inputs": [
						{
							"internalType": "uint256",
							"name": "",
							"type": "uint256"
						}
					],
					"name": "paginas",
					"outputs": [
						{
							"internalType": "bool",
							"name": "ativo",
							"type": "bool"
						},
						{
							"internalType": "address",
							"name": "autor",
							"type": "address"
						},
						{
							"internalType": "uint256",
							"name": "dataCriacao",
							"type": "uint256"
						},
						{
							"internalType": "string",
							"name": "titulo",
							"type": "string"
						}
					],
					"stateMutability": "view",
					"type": "function"
				},
				{
					"stateMutability": "payable",
					"type": "receive"
				}
			],
			"devdoc": {
				"kind": "dev",
				"methods": {},
				"version": 1
			},
			"evm": {
				"assembly": "    /* \"blockpedia.sol\":61:6011  contract Blockpedia\r... */\n  mstore(0x40, 0xc0)\n    /* \"blockpedia.sol\":109:113  true */\n  0x01\n    /* \"blockpedia.sol\":89:113  bool public ativo = true */\n  0x00\n  dup1\n  0x0100\n  exp\n  dup2\n  sload\n  dup2\n  0xff\n  mul\n  not\n  and\n  swap1\n  dup4\n  iszero\n  iszero\n  mul\n  or\n  swap1\n  sstore\n  pop\n    /* \"blockpedia.sol\":533:717  constructor()\r... */\n  callvalue\n  dup1\n  iszero\n  tag_1\n  jumpi\n  0x00\n  dup1\n  revert\ntag_1:\n  pop\n    /* \"blockpedia.sol\":571:581  msg.sender */\n  caller\n    /* \"blockpedia.sol\":563:581  autor = msg.sender */\n  0xffffffffffffffffffffffffffffffffffffffff\n  and\n  0x80\n  dup2\n  0xffffffffffffffffffffffffffffffffffffffff\n  and\n  0x60\n  shl\n  dup2\n  mstore\n  pop\n  pop\n    /* \"blockpedia.sol\":606:621  block.timestamp */\n  timestamp\n    /* \"blockpedia.sol\":592:621  dataCriacao = block.timestamp */\n  0xa0\n  dup2\n  dup2\n  mstore\n  pop\n  pop\n    /* \"blockpedia.sol\":632:709  criarPagina(\"Inicio\", \"Bem vindo a Blockpeida, a enciclopedia na blockchain\") */\n  tag_4\n  mload(0x40)\n  dup1\n  0x40\n  add\n  0x40\n  mstore\n  dup1\n  0x06\n  dup2\n  mstore\n  0x20\n  add\n  0x496e6963696f0000000000000000000000000000000000000000000000000000\n  dup2\n  mstore\n  pop\n  mload(0x40)\n  dup1\n  0x60\n  add\n  0x40\n  mstore\n  dup1\n  0x34\n  dup2\n  mstore\n  0x20\n  add\n  data_9002fc6039152390109ec5f732c53c58176ebaeec30c137dc0bb00ed96b81159\n  0x34\n  swap2\n  codecopy\n    /* \"blockpedia.sol\":632:643  criarPagina */\n  shl(0x20, tag_5)\n    /* \"blockpedia.sol\":632:709  criarPagina(\"Inicio\", \"Bem vindo a Blockpeida, a enciclopedia na blockchain\") */\n  0x20\n  shr\n  jump\t// in\ntag_4:\n    /* \"blockpedia.sol\":61:6011  contract Blockpedia\r... */\n  jump(tag_6)\n    /* \"blockpedia.sol\":725:1225  function criarPagina(string memory _titulo, string memory _conteudo) public somenteSeAtivo \r... */\ntag_5:\n    /* \"blockpedia.sol\":5789:5794  ativo */\n  0x00\n  dup1\n  sload\n  swap1\n  0x0100\n  exp\n  swap1\n  div\n  0xff\n  and\n    /* \"blockpedia.sol\":5781:5851  require(ativo, \"A acao so e permitida quando a Blockpedia esta ativa\") */\n  tag_8\n  jumpi\n  mload(0x40)\n  0x08c379a000000000000000000000000000000000000000000000000000000000\n  dup2\n  mstore\n  0x04\n  add\n  tag_9\n  swap1\n  tag_10\n  jump\t// in\ntag_9:\n  mload(0x40)\n  dup1\n  swap2\n  sub\n  swap1\n  revert\ntag_8:\n    /* \"blockpedia.sol\":842:868  existeTituloAtivo(_titulo) */\n  tag_12\n    /* \"blockpedia.sol\":860:867  _titulo */\n  dup3\n    /* \"blockpedia.sol\":842:859  existeTituloAtivo */\n  shl(0x20, tag_13)\n    /* \"blockpedia.sol\":842:868  existeTituloAtivo(_titulo) */\n  0x20\n  shr\n  jump\t// in\ntag_12:\n    /* \"blockpedia.sol\":841:868  !existeTituloAtivo(_titulo) */\n  iszero\n    /* \"blockpedia.sol\":833:911  require(!existeTituloAtivo(_titulo), \"Ja existe pagina ativa com este titulo\") */\n  tag_14\n  jumpi\n  mload(0x40)\n  0x08c379a000000000000000000000000000000000000000000000000000000000\n  dup2\n  mstore\n  0x04\n  add\n  tag_15\n  swap1\n  tag_16\n  jump\t// in\ntag_15:\n  mload(0x40)\n  dup1\n  swap2\n  sub\n  swap1\n  revert\ntag_14:\n    /* \"blockpedia.sol\":924:949  Pagina storage novaPagina */\n  0x00\n    /* \"blockpedia.sol\":952:959  paginas */\n  0x01\n    /* \"blockpedia.sol\":952:966  paginas.push() */\n  dup1\n  dup2\n  0x01\n  dup2\n  sload\n  add\n  dup1\n  dup3\n  sstore\n  dup1\n  swap2\n  pop\n  pop\n  sub\n  swap1\n  0x00\n  mstore\n  keccak256(0x00, 0x20)\n  swap1\n  0x04\n  mul\n  add\n    /* \"blockpedia.sol\":924:966  Pagina storage novaPagina = paginas.push() */\n  swap1\n  pop\n    /* \"blockpedia.sol\":996:1000  true */\n  0x01\n    /* \"blockpedia.sol\":977:987  novaPagina */\n  dup2\n    /* \"blockpedia.sol\":977:993  novaPagina.ativo */\n  0x00\n  add\n  0x00\n    /* \"blockpedia.sol\":977:1000  novaPagina.ativo = true */\n  0x0100\n  exp\n  dup2\n  sload\n  dup2\n  0xff\n  mul\n  not\n  and\n  swap1\n  dup4\n  iszero\n  iszero\n  mul\n  or\n  swap1\n  sstore\n  pop\n    /* \"blockpedia.sol\":1030:1040  msg.sender */\n  caller\n    /* \"blockpedia.sol\":1011:1021  novaPagina */\n  dup2\n    /* \"blockpedia.sol\":1011:1027  novaPagina.autor */\n  0x00\n  add\n  0x01\n    /* \"blockpedia.sol\":1011:1040  novaPagina.autor = msg.sender */\n  0x0100\n  exp\n  dup2\n  sload\n  dup2\n  0xffffffffffffffffffffffffffffffffffffffff\n  mul\n  not\n  and\n  swap1\n  dup4\n  0xffffffffffffffffffffffffffffffffffffffff\n  and\n  mul\n  or\n  swap1\n  sstore\n  pop\n    /* \"blockpedia.sol\":1076:1091  block.timestamp */\n  timestamp\n    /* \"blockpedia.sol\":1051:1061  novaPagina */\n  dup2\n    /* \"blockpedia.sol\":1051:1073  novaPagina.dataCriacao */\n  0x01\n  add\n    /* \"blockpedia.sol\":1051:1091  novaPagina.dataCriacao = block.timestamp */\n  dup2\n  swap1\n  sstore\n  pop\n    /* \"blockpedia.sol\":1122:1129  _titulo */\n  dup3\n    /* \"blockpedia.sol\":1102:1112  novaPagina */\n  dup2\n    /* \"blockpedia.sol\":1102:1119  novaPagina.titulo */\n  0x02\n  add\n    /* \"blockpedia.sol\":1102:1129  novaPagina.titulo = _titulo */\n  swap1\n  dup1\n  mload\n  swap1\n  0x20\n  add\n  swap1\n  tag_18\n  swap3\n  swap2\n  swap1\n  tag_19\n  jump\t// in\ntag_18:\n  pop\n    /* \"blockpedia.sol\":1140:1150  novaPagina */\n  dup1\n    /* \"blockpedia.sol\":1140:1158  novaPagina.versoes */\n  0x03\n  add\n    /* \"blockpedia.sol\":1164:1216  Versao(true, msg.sender, block.timestamp, _conteudo) */\n  mload(0x40)\n  dup1\n  0x80\n  add\n  0x40\n  mstore\n  dup1\n    /* \"blockpedia.sol\":1171:1175  true */\n  0x01\n    /* \"blockpedia.sol\":1164:1216  Versao(true, msg.sender, block.timestamp, _conteudo) */\n  iszero\n  iszero\n  dup2\n  mstore\n  0x20\n  add\n    /* \"blockpedia.sol\":1177:1187  msg.sender */\n  caller\n    /* \"blockpedia.sol\":1164:1216  Versao(true, msg.sender, block.timestamp, _conteudo) */\n  0xffffffffffffffffffffffffffffffffffffffff\n  and\n  dup2\n  mstore\n  0x20\n  add\n    /* \"blockpedia.sol\":1189:1204  block.timestamp */\n  timestamp\n    /* \"blockpedia.sol\":1164:1216  Versao(true, msg.sender, block.timestamp, _conteudo) */\n  dup2\n  mstore\n  0x20\n  add\n    /* \"blockpedia.sol\":1206:1215  _conteudo */\n  dup5\n    /* \"blockpedia.sol\":1164:1216  Versao(true, msg.sender, block.timestamp, _conteudo) */\n  dup2\n  mstore\n  pop\n    /* \"blockpedia.sol\":1140:1217  novaPagina.versoes.push(Versao(true, msg.sender, block.timestamp, _conteudo)) */\n  swap1\n  dup1\n  0x01\n  dup2\n  sload\n  add\n  dup1\n  dup3\n  sstore\n  dup1\n  swap2\n  pop\n  pop\n  0x01\n  swap1\n  sub\n  swap1\n  0x00\n  mstore\n  keccak256(0x00, 0x20)\n  swap1\n  0x03\n  mul\n  add\n  0x00\n  swap1\n  swap2\n  swap1\n  swap2\n  swap1\n  swap2\n  pop\n  0x00\n  dup3\n  add\n  mload\n  dup2\n  0x00\n  add\n  exp(0x0100, 0x00)\n  dup2\n  sload\n  dup2\n  0xff\n  mul\n  not\n  and\n  swap1\n  dup4\n  iszero\n  iszero\n  mul\n  or\n  swap1\n  sstore\n  pop\n  0x20\n  dup3\n  add\n  mload\n  dup2\n  0x00\n  add\n  exp(0x0100, 0x01)\n  dup2\n  sload\n  dup2\n  0xffffffffffffffffffffffffffffffffffffffff\n  mul\n  not\n  and\n  swap1\n  dup4\n  0xffffffffffffffffffffffffffffffffffffffff\n  and\n  mul\n  or\n  swap1\n  sstore\n  pop\n  0x40\n  dup3\n  add\n  mload\n  dup2\n  0x01\n  add\n  sstore\n  0x60\n  dup3\n  add\n  mload\n  dup2\n  0x02\n  add\n  swap1\n  dup1\n  mload\n  swap1\n  0x20\n  add\n  swap1\n  tag_21\n  swap3\n  swap2\n  swap1\n  tag_19\n  jump\t// in\ntag_21:\n  pop\n  pop\n  pop\n    /* \"blockpedia.sol\":5862:5863  _ */\n  pop\n    /* \"blockpedia.sol\":725:1225  function criarPagina(string memory _titulo, string memory _conteudo) public somenteSeAtivo \r... */\n  pop\n  pop\n  jump\t// out\n    /* \"blockpedia.sol\":1435:1756  function existeTituloAtivo(string memory _titulo) internal view returns (bool)\r... */\ntag_13:\n    /* \"blockpedia.sol\":1508:1512  bool */\n  0x00\n    /* \"blockpedia.sol\":1535:1541  uint i */\n  dup1\n    /* \"blockpedia.sol\":1544:1545  0 */\n  0x00\n    /* \"blockpedia.sol\":1535:1545  uint i = 0 */\n  swap1\n  pop\n    /* \"blockpedia.sol\":1530:1726  for (uint i = 0; i < paginas.length; i++)\r... */\ntag_23:\n    /* \"blockpedia.sol\":1551:1558  paginas */\n  0x01\n    /* \"blockpedia.sol\":1551:1565  paginas.length */\n  dup1\n  sload\n  swap1\n  pop\n    /* \"blockpedia.sol\":1547:1548  i */\n  dup2\n    /* \"blockpedia.sol\":1547:1565  i < paginas.length */\n  lt\n    /* \"blockpedia.sol\":1530:1726  for (uint i = 0; i < paginas.length; i++)\r... */\n  iszero\n  tag_24\n  jumpi\n    /* \"blockpedia.sol\":1600:1607  paginas */\n  0x01\n    /* \"blockpedia.sol\":1608:1609  i */\n  dup2\n    /* \"blockpedia.sol\":1600:1610  paginas[i] */\n  dup2\n  sload\n  dup2\n  lt\n  tag_26\n  jumpi\n  mstore(0x00, 0x4e487b7100000000000000000000000000000000000000000000000000000000)\n  mstore(0x04, 0x32)\n  revert(0x00, 0x24)\ntag_26:\n  swap1\n  0x00\n  mstore\n  keccak256(0x00, 0x20)\n  swap1\n  0x04\n  mul\n  add\n    /* \"blockpedia.sol\":1600:1616  paginas[i].ativo */\n  0x00\n  add\n  0x00\n  swap1\n  sload\n  swap1\n  0x0100\n  exp\n  swap1\n  div\n  0xff\n  and\n    /* \"blockpedia.sol\":1596:1714  if (paginas[i].ativo)\r... */\n  iszero\n  tag_28\n  jumpi\n    /* \"blockpedia.sol\":1639:1680  comparaString(paginas[i].titulo, _titulo) */\n  tag_29\n    /* \"blockpedia.sol\":1653:1660  paginas */\n  0x01\n    /* \"blockpedia.sol\":1661:1662  i */\n  dup3\n    /* \"blockpedia.sol\":1653:1663  paginas[i] */\n  dup2\n  sload\n  dup2\n  lt\n  tag_30\n  jumpi\n  mstore(0x00, 0x4e487b7100000000000000000000000000000000000000000000000000000000)\n  mstore(0x04, 0x32)\n  revert(0x00, 0x24)\ntag_30:\n  swap1\n  0x00\n  mstore\n  keccak256(0x00, 0x20)\n  swap1\n  0x04\n  mul\n  add\n    /* \"blockpedia.sol\":1653:1670  paginas[i].titulo */\n  0x02\n  add\n    /* \"blockpedia.sol\":1639:1680  comparaString(paginas[i].titulo, _titulo) */\n  dup1\n  sload\n  tag_32\n  swap1\n  tag_33\n  jump\t// in\ntag_32:\n  dup1\n  0x1f\n  add\n  0x20\n  dup1\n  swap2\n  div\n  mul\n  0x20\n  add\n  mload(0x40)\n  swap1\n  dup2\n  add\n  0x40\n  mstore\n  dup1\n  swap3\n  swap2\n  swap1\n  dup2\n  dup2\n  mstore\n  0x20\n  add\n  dup3\n  dup1\n  sload\n  tag_34\n  swap1\n  tag_33\n  jump\t// in\ntag_34:\n  dup1\n  iszero\n  tag_35\n  jumpi\n  dup1\n  0x1f\n  lt\n  tag_36\n  jumpi\n  0x0100\n  dup1\n  dup4\n  sload\n  div\n  mul\n  dup4\n  mstore\n  swap2\n  0x20\n  add\n  swap2\n  jump(tag_35)\ntag_36:\n  dup3\n  add\n  swap2\n  swap1\n  0x00\n  mstore\n  keccak256(0x00, 0x20)\n  swap1\ntag_37:\n  dup2\n  sload\n  dup2\n  mstore\n  swap1\n  0x01\n  add\n  swap1\n  0x20\n  add\n  dup1\n  dup4\n  gt\n  tag_37\n  jumpi\n  dup3\n  swap1\n  sub\n  0x1f\n  and\n  dup3\n  add\n  swap2\ntag_35:\n  pop\n  pop\n  pop\n  pop\n  pop\n    /* \"blockpedia.sol\":1672:1679  _titulo */\n  dup5\n    /* \"blockpedia.sol\":1639:1652  comparaString */\n  shl(0x20, tag_38)\n    /* \"blockpedia.sol\":1639:1680  comparaString(paginas[i].titulo, _titulo) */\n  0x20\n  shr\n  jump\t// in\ntag_29:\n    /* \"blockpedia.sol\":1635:1714  if (comparaString(paginas[i].titulo, _titulo))\r... */\n  iszero\n  tag_39\n  jumpi\n    /* \"blockpedia.sol\":1710:1714  true */\n  0x01\n    /* \"blockpedia.sol\":1703:1714  return true */\n  swap2\n  pop\n  pop\n  jump(tag_22)\n    /* \"blockpedia.sol\":1635:1714  if (comparaString(paginas[i].titulo, _titulo))\r... */\ntag_39:\n    /* \"blockpedia.sol\":1596:1714  if (paginas[i].ativo)\r... */\ntag_28:\n    /* \"blockpedia.sol\":1567:1570  i++ */\n  dup1\n  dup1\n  tag_40\n  swap1\n  tag_41\n  jump\t// in\ntag_40:\n  swap2\n  pop\n  pop\n    /* \"blockpedia.sol\":1530:1726  for (uint i = 0; i < paginas.length; i++)\r... */\n  jump(tag_23)\ntag_24:\n  pop\n    /* \"blockpedia.sol\":1743:1748  false */\n  0x00\n    /* \"blockpedia.sol\":1736:1748  return false */\n  swap1\n  pop\n    /* \"blockpedia.sol\":1435:1756  function existeTituloAtivo(string memory _titulo) internal view returns (bool)\r... */\ntag_22:\n  swap2\n  swap1\n  pop\n  jump\t// out\n    /* \"blockpedia.sol\":5261:5733  function comparaString(string memory _primeiraString, string memory _segundaString)internal pure returns(bool)\r... */\ntag_38:\n    /* \"blockpedia.sol\":5366:5370  bool */\n  0x00\n    /* \"blockpedia.sol\":5695:5709  _segundaString */\n  dup2\n    /* \"blockpedia.sol\":5678:5710  abi.encodePacked(_segundaString) */\n  add(0x20, mload(0x40))\n  tag_43\n  swap2\n  swap1\n  tag_44\n  jump\t// in\ntag_43:\n  mload(0x40)\n  0x20\n  dup2\n  dup4\n  sub\n  sub\n  dup2\n  mstore\n  swap1\n  0x40\n  mstore\n    /* \"blockpedia.sol\":5668:5711  keccak256(abi.encodePacked(_segundaString)) */\n  dup1\n  mload\n  swap1\n  0x20\n  add\n  keccak256\n    /* \"blockpedia.sol\":5647:5662  _primeiraString */\n  dup4\n    /* \"blockpedia.sol\":5630:5663  abi.encodePacked(_primeiraString) */\n  add(0x20, mload(0x40))\n  tag_45\n  swap2\n  swap1\n  tag_44\n  jump\t// in\ntag_45:\n  mload(0x40)\n  0x20\n  dup2\n  dup4\n  sub\n  sub\n  dup2\n  mstore\n  swap1\n  0x40\n  mstore\n    /* \"blockpedia.sol\":5620:5664  keccak256(abi.encodePacked(_primeiraString)) */\n  dup1\n  mload\n  swap1\n  0x20\n  add\n  keccak256\n    /* \"blockpedia.sol\":5620:5711  keccak256(abi.encodePacked(_primeiraString)) == keccak256(abi.encodePacked(_segundaString)) */\n  eq\n    /* \"blockpedia.sol\":5619:5725  (keccak256(abi.encodePacked(_primeiraString)) == keccak256(abi.encodePacked(_segundaString))) ? true:false */\n  tag_46\n  jumpi\n    /* \"blockpedia.sol\":5720:5725  false */\n  0x00\n    /* \"blockpedia.sol\":5619:5725  (keccak256(abi.encodePacked(_primeiraString)) == keccak256(abi.encodePacked(_segundaString))) ? true:false */\n  jump(tag_47)\ntag_46:\n    /* \"blockpedia.sol\":5715:5719  true */\n  0x01\n    /* \"blockpedia.sol\":5619:5725  (keccak256(abi.encodePacked(_primeiraString)) == keccak256(abi.encodePacked(_segundaString))) ? true:false */\ntag_47:\n    /* \"blockpedia.sol\":5612:5725  return (keccak256(abi.encodePacked(_primeiraString)) == keccak256(abi.encodePacked(_segundaString))) ? true:false */\n  swap1\n  pop\n    /* \"blockpedia.sol\":5261:5733  function comparaString(string memory _primeiraString, string memory _segundaString)internal pure returns(bool)\r... */\n  swap3\n  swap2\n  pop\n  pop\n  jump\t// out\n    /* \"blockpedia.sol\":61:6011  contract Blockpedia\r... */\ntag_19:\n  dup3\n  dup1\n  sload\n  tag_48\n  swap1\n  tag_33\n  jump\t// in\ntag_48:\n  swap1\n  0x00\n  mstore\n  keccak256(0x00, 0x20)\n  swap1\n  0x1f\n  add\n  0x20\n  swap1\n  div\n  dup2\n  add\n  swap3\n  dup3\n  tag_50\n  jumpi\n  0x00\n  dup6\n  sstore\n  jump(tag_49)\ntag_50:\n  dup3\n  0x1f\n  lt\n  tag_51\n  jumpi\n  dup1\n  mload\n  not(0xff)\n  and\n  dup4\n  dup1\n  add\n  or\n  dup6\n  sstore\n  jump(tag_49)\ntag_51:\n  dup3\n  dup1\n  add\n  0x01\n  add\n  dup6\n  sstore\n  dup3\n  iszero\n  tag_49\n  jumpi\n  swap2\n  dup3\n  add\ntag_52:\n  dup3\n  dup2\n  gt\n  iszero\n  tag_53\n  jumpi\n  dup3\n  mload\n  dup3\n  sstore\n  swap2\n  0x20\n  add\n  swap2\n  swap1\n  0x01\n  add\n  swap1\n  jump(tag_52)\ntag_53:\ntag_49:\n  pop\n  swap1\n  pop\n  tag_54\n  swap2\n  swap1\n  tag_55\n  jump\t// in\ntag_54:\n  pop\n  swap1\n  jump\t// out\ntag_55:\ntag_56:\n  dup1\n  dup3\n  gt\n  iszero\n  tag_57\n  jumpi\n  0x00\n  dup2\n  0x00\n  swap1\n  sstore\n  pop\n  0x01\n  add\n  jump(tag_56)\ntag_57:\n  pop\n  swap1\n  jump\t// out\n    /* \"#utility.yul\":7:384   */\ntag_59:\n  0x00\n    /* \"#utility.yul\":141:180   */\n  tag_61\n    /* \"#utility.yul\":174:179   */\n  dup3\n    /* \"#utility.yul\":141:180   */\n  tag_62\n  jump\t// in\ntag_61:\n    /* \"#utility.yul\":196:285   */\n  tag_63\n    /* \"#utility.yul\":278:284   */\n  dup2\n    /* \"#utility.yul\":273:276   */\n  dup6\n    /* \"#utility.yul\":196:285   */\n  tag_64\n  jump\t// in\ntag_63:\n    /* \"#utility.yul\":189:285   */\n  swap4\n  pop\n    /* \"#utility.yul\":294:346   */\n  tag_65\n    /* \"#utility.yul\":339:345   */\n  dup2\n    /* \"#utility.yul\":334:337   */\n  dup6\n    /* \"#utility.yul\":327:331   */\n  0x20\n    /* \"#utility.yul\":320:325   */\n  dup7\n    /* \"#utility.yul\":316:332   */\n  add\n    /* \"#utility.yul\":294:346   */\n  tag_66\n  jump\t// in\ntag_65:\n    /* \"#utility.yul\":371:377   */\n  dup1\n    /* \"#utility.yul\":366:369   */\n  dup5\n    /* \"#utility.yul\":362:378   */\n  add\n    /* \"#utility.yul\":355:378   */\n  swap2\n  pop\n    /* \"#utility.yul\":117:384   */\n  pop\n  swap3\n  swap2\n  pop\n  pop\n  jump\t// out\n    /* \"#utility.yul\":390:774   */\ntag_67:\n  0x00\n    /* \"#utility.yul\":553:620   */\n  tag_69\n    /* \"#utility.yul\":617:619   */\n  0x34\n    /* \"#utility.yul\":612:615   */\n  dup4\n    /* \"#utility.yul\":553:620   */\n  tag_70\n  jump\t// in\ntag_69:\n    /* \"#utility.yul\":546:620   */\n  swap2\n  pop\n    /* \"#utility.yul\":650:684   */\n  0x41206163616f20736f2065207065726d6974696461207175616e646f20612042\n    /* \"#utility.yul\":646:647   */\n  0x00\n    /* \"#utility.yul\":641:644   */\n  dup4\n    /* \"#utility.yul\":637:648   */\n  add\n    /* \"#utility.yul\":630:685   */\n  mstore\n    /* \"#utility.yul\":716:738   */\n  0x6c6f636b70656469612065737461206174697661000000000000000000000000\n    /* \"#utility.yul\":711:713   */\n  0x20\n    /* \"#utility.yul\":706:709   */\n  dup4\n    /* \"#utility.yul\":702:714   */\n  add\n    /* \"#utility.yul\":695:739   */\n  mstore\n    /* \"#utility.yul\":765:767   */\n  0x40\n    /* \"#utility.yul\":760:763   */\n  dup3\n    /* \"#utility.yul\":756:768   */\n  add\n    /* \"#utility.yul\":749:768   */\n  swap1\n  pop\n    /* \"#utility.yul\":536:774   */\n  swap2\n  swap1\n  pop\n  jump\t// out\n    /* \"#utility.yul\":780:1150   */\ntag_71:\n  0x00\n    /* \"#utility.yul\":943:1010   */\n  tag_73\n    /* \"#utility.yul\":1007:1009   */\n  0x26\n    /* \"#utility.yul\":1002:1005   */\n  dup4\n    /* \"#utility.yul\":943:1010   */\n  tag_70\n  jump\t// in\ntag_73:\n    /* \"#utility.yul\":936:1010   */\n  swap2\n  pop\n    /* \"#utility.yul\":1040:1074   */\n  0x4a612065786973746520706167696e6120617469766120636f6d206573746520\n    /* \"#utility.yul\":1036:1037   */\n  0x00\n    /* \"#utility.yul\":1031:1034   */\n  dup4\n    /* \"#utility.yul\":1027:1038   */\n  add\n    /* \"#utility.yul\":1020:1075   */\n  mstore\n    /* \"#utility.yul\":1106:1114   */\n  0x746974756c6f0000000000000000000000000000000000000000000000000000\n    /* \"#utility.yul\":1101:1103   */\n  0x20\n    /* \"#utility.yul\":1096:1099   */\n  dup4\n    /* \"#utility.yul\":1092:1104   */\n  add\n    /* \"#utility.yul\":1085:1115   */\n  mstore\n    /* \"#utility.yul\":1141:1143   */\n  0x40\n    /* \"#utility.yul\":1136:1139   */\n  dup3\n    /* \"#utility.yul\":1132:1144   */\n  add\n    /* \"#utility.yul\":1125:1144   */\n  swap1\n  pop\n    /* \"#utility.yul\":926:1150   */\n  swap2\n  swap1\n  pop\n  jump\t// out\n    /* \"#utility.yul\":1156:1431   */\ntag_44:\n  0x00\n    /* \"#utility.yul\":1310:1405   */\n  tag_75\n    /* \"#utility.yul\":1401:1404   */\n  dup3\n    /* \"#utility.yul\":1392:1398   */\n  dup5\n    /* \"#utility.yul\":1310:1405   */\n  tag_59\n  jump\t// in\ntag_75:\n    /* \"#utility.yul\":1303:1405   */\n  swap2\n  pop\n    /* \"#utility.yul\":1422:1425   */\n  dup2\n    /* \"#utility.yul\":1415:1425   */\n  swap1\n  pop\n    /* \"#utility.yul\":1292:1431   */\n  swap3\n  swap2\n  pop\n  pop\n  jump\t// out\n    /* \"#utility.yul\":1437:1856   */\ntag_10:\n  0x00\n    /* \"#utility.yul\":1641:1643   */\n  0x20\n    /* \"#utility.yul\":1630:1639   */\n  dup3\n    /* \"#utility.yul\":1626:1644   */\n  add\n    /* \"#utility.yul\":1618:1644   */\n  swap1\n  pop\n    /* \"#utility.yul\":1690:1699   */\n  dup2\n    /* \"#utility.yul\":1684:1688   */\n  dup2\n    /* \"#utility.yul\":1680:1700   */\n  sub\n    /* \"#utility.yul\":1676:1677   */\n  0x00\n    /* \"#utility.yul\":1665:1674   */\n  dup4\n    /* \"#utility.yul\":1661:1678   */\n  add\n    /* \"#utility.yul\":1654:1701   */\n  mstore\n    /* \"#utility.yul\":1718:1849   */\n  tag_77\n    /* \"#utility.yul\":1844:1848   */\n  dup2\n    /* \"#utility.yul\":1718:1849   */\n  tag_67\n  jump\t// in\ntag_77:\n    /* \"#utility.yul\":1710:1849   */\n  swap1\n  pop\n    /* \"#utility.yul\":1608:1856   */\n  swap2\n  swap1\n  pop\n  jump\t// out\n    /* \"#utility.yul\":1862:2281   */\ntag_16:\n  0x00\n    /* \"#utility.yul\":2066:2068   */\n  0x20\n    /* \"#utility.yul\":2055:2064   */\n  dup3\n    /* \"#utility.yul\":2051:2069   */\n  add\n    /* \"#utility.yul\":2043:2069   */\n  swap1\n  pop\n    /* \"#utility.yul\":2115:2124   */\n  dup2\n    /* \"#utility.yul\":2109:2113   */\n  dup2\n    /* \"#utility.yul\":2105:2125   */\n  sub\n    /* \"#utility.yul\":2101:2102   */\n  0x00\n    /* \"#utility.yul\":2090:2099   */\n  dup4\n    /* \"#utility.yul\":2086:2103   */\n  add\n    /* \"#utility.yul\":2079:2126   */\n  mstore\n    /* \"#utility.yul\":2143:2274   */\n  tag_79\n    /* \"#utility.yul\":2269:2273   */\n  dup2\n    /* \"#utility.yul\":2143:2274   */\n  tag_71\n  jump\t// in\ntag_79:\n    /* \"#utility.yul\":2135:2274   */\n  swap1\n  pop\n    /* \"#utility.yul\":2033:2281   */\n  swap2\n  swap1\n  pop\n  jump\t// out\n    /* \"#utility.yul\":2287:2386   */\ntag_62:\n  0x00\n    /* \"#utility.yul\":2373:2378   */\n  dup2\n    /* \"#utility.yul\":2367:2379   */\n  mload\n    /* \"#utility.yul\":2357:2379   */\n  swap1\n  pop\n    /* \"#utility.yul\":2346:2386   */\n  swap2\n  swap1\n  pop\n  jump\t// out\n    /* \"#utility.yul\":2392:2561   */\ntag_70:\n  0x00\n    /* \"#utility.yul\":2510:2516   */\n  dup3\n    /* \"#utility.yul\":2505:2508   */\n  dup3\n    /* \"#utility.yul\":2498:2517   */\n  mstore\n    /* \"#utility.yul\":2550:2554   */\n  0x20\n    /* \"#utility.yul\":2545:2548   */\n  dup3\n    /* \"#utility.yul\":2541:2555   */\n  add\n    /* \"#utility.yul\":2526:2555   */\n  swap1\n  pop\n    /* \"#utility.yul\":2488:2561   */\n  swap3\n  swap2\n  pop\n  pop\n  jump\t// out\n    /* \"#utility.yul\":2567:2715   */\ntag_64:\n  0x00\n    /* \"#utility.yul\":2706:2709   */\n  dup2\n    /* \"#utility.yul\":2691:2709   */\n  swap1\n  pop\n    /* \"#utility.yul\":2681:2715   */\n  swap3\n  swap2\n  pop\n  pop\n  jump\t// out\n    /* \"#utility.yul\":2721:2798   */\ntag_83:\n  0x00\n    /* \"#utility.yul\":2787:2792   */\n  dup2\n    /* \"#utility.yul\":2776:2792   */\n  swap1\n  pop\n    /* \"#utility.yul\":2766:2798   */\n  swap2\n  swap1\n  pop\n  jump\t// out\n    /* \"#utility.yul\":2804:3111   */\ntag_66:\n    /* \"#utility.yul\":2872:2873   */\n  0x00\n    /* \"#utility.yul\":2882:2995   */\ntag_86:\n    /* \"#utility.yul\":2896:2902   */\n  dup4\n    /* \"#utility.yul\":2893:2894   */\n  dup2\n    /* \"#utility.yul\":2890:2903   */\n  lt\n    /* \"#utility.yul\":2882:2995   */\n  iszero\n  tag_88\n  jumpi\n    /* \"#utility.yul\":2981:2982   */\n  dup1\n    /* \"#utility.yul\":2976:2979   */\n  dup3\n    /* \"#utility.yul\":2972:2983   */\n  add\n    /* \"#utility.yul\":2966:2984   */\n  mload\n    /* \"#utility.yul\":2962:2963   */\n  dup2\n    /* \"#utility.yul\":2957:2960   */\n  dup5\n    /* \"#utility.yul\":2953:2964   */\n  add\n    /* \"#utility.yul\":2946:2985   */\n  mstore\n    /* \"#utility.yul\":2918:2920   */\n  0x20\n    /* \"#utility.yul\":2915:2916   */\n  dup2\n    /* \"#utility.yul\":2911:2921   */\n  add\n    /* \"#utility.yul\":2906:2921   */\n  swap1\n  pop\n    /* \"#utility.yul\":2882:2995   */\n  jump(tag_86)\ntag_88:\n    /* \"#utility.yul\":3013:3019   */\n  dup4\n    /* \"#utility.yul\":3010:3011   */\n  dup2\n    /* \"#utility.yul\":3007:3020   */\n  gt\n    /* \"#utility.yul\":3004:3006   */\n  iszero\n  tag_89\n  jumpi\n    /* \"#utility.yul\":3093:3094   */\n  0x00\n    /* \"#utility.yul\":3084:3090   */\n  dup5\n    /* \"#utility.yul\":3079:3082   */\n  dup5\n    /* \"#utility.yul\":3075:3091   */\n  add\n    /* \"#utility.yul\":3068:3095   */\n  mstore\n    /* \"#utility.yul\":3004:3006   */\ntag_89:\n    /* \"#utility.yul\":2853:3111   */\n  pop\n  pop\n  pop\n  pop\n  jump\t// out\n    /* \"#utility.yul\":3117:3437   */\ntag_33:\n  0x00\n    /* \"#utility.yul\":3198:3199   */\n  0x02\n    /* \"#utility.yul\":3192:3196   */\n  dup3\n    /* \"#utility.yul\":3188:3200   */\n  div\n    /* \"#utility.yul\":3178:3200   */\n  swap1\n  pop\n    /* \"#utility.yul\":3245:3246   */\n  0x01\n    /* \"#utility.yul\":3239:3243   */\n  dup3\n    /* \"#utility.yul\":3235:3247   */\n  and\n    /* \"#utility.yul\":3266:3284   */\n  dup1\n    /* \"#utility.yul\":3256:3258   */\n  tag_91\n  jumpi\n    /* \"#utility.yul\":3322:3326   */\n  0x7f\n    /* \"#utility.yul\":3314:3320   */\n  dup3\n    /* \"#utility.yul\":3310:3327   */\n  and\n    /* \"#utility.yul\":3300:3327   */\n  swap2\n  pop\n    /* \"#utility.yul\":3256:3258   */\ntag_91:\n    /* \"#utility.yul\":3384:3386   */\n  0x20\n    /* \"#utility.yul\":3376:3382   */\n  dup3\n    /* \"#utility.yul\":3373:3387   */\n  lt\n    /* \"#utility.yul\":3353:3371   */\n  dup2\n    /* \"#utility.yul\":3350:3388   */\n  eq\n    /* \"#utility.yul\":3347:3349   */\n  iszero\n  tag_92\n  jumpi\n    /* \"#utility.yul\":3403:3421   */\n  tag_93\n  tag_94\n  jump\t// in\ntag_93:\n    /* \"#utility.yul\":3347:3349   */\ntag_92:\n    /* \"#utility.yul\":3168:3437   */\n  pop\n  swap2\n  swap1\n  pop\n  jump\t// out\n    /* \"#utility.yul\":3443:3676   */\ntag_41:\n  0x00\n    /* \"#utility.yul\":3505:3529   */\n  tag_96\n    /* \"#utility.yul\":3523:3528   */\n  dup3\n    /* \"#utility.yul\":3505:3529   */\n  tag_83\n  jump\t// in\ntag_96:\n    /* \"#utility.yul\":3496:3529   */\n  swap2\n  pop\n    /* \"#utility.yul\":3551:3617   */\n  0xffffffffffffffffffffffffffffffffffffffffffffffffffffffffffffffff\n    /* \"#utility.yul\":3544:3549   */\n  dup3\n    /* \"#utility.yul\":3541:3618   */\n  eq\n    /* \"#utility.yul\":3538:3540   */\n  iszero\n  tag_97\n  jumpi\n    /* \"#utility.yul\":3621:3639   */\n  tag_98\n  tag_99\n  jump\t// in\ntag_98:\n    /* \"#utility.yul\":3538:3540   */\ntag_97:\n    /* \"#utility.yul\":3668:3669   */\n  0x01\n    /* \"#utility.yul\":3661:3666   */\n  dup3\n    /* \"#utility.yul\":3657:3670   */\n  add\n    /* \"#utility.yul\":3650:3670   */\n  swap1\n  pop\n    /* \"#utility.yul\":3486:3676   */\n  swap2\n  swap1\n  pop\n  jump\t// out\n    /* \"#utility.yul\":3682:3862   */\ntag_99:\n    /* \"#utility.yul\":3730:3807   */\n  0x4e487b7100000000000000000000000000000000000000000000000000000000\n    /* \"#utility.yul\":3727:3728   */\n  0x00\n    /* \"#utility.yul\":3720:3808   */\n  mstore\n    /* \"#utility.yul\":3827:3831   */\n  0x11\n    /* \"#utility.yul\":3824:3825   */\n  0x04\n    /* \"#utility.yul\":3817:3832   */\n  mstore\n    /* \"#utility.yul\":3851:3855   */\n  0x24\n    /* \"#utility.yul\":3848:3849   */\n  0x00\n    /* \"#utility.yul\":3841:3856   */\n  revert\n    /* \"#utility.yul\":3868:4048   */\ntag_94:\n    /* \"#utility.yul\":3916:3993   */\n  0x4e487b7100000000000000000000000000000000000000000000000000000000\n    /* \"#utility.yul\":3913:3914   */\n  0x00\n    /* \"#utility.yul\":3906:3994   */\n  mstore\n    /* \"#utility.yul\":4013:4017   */\n  0x22\n    /* \"#utility.yul\":4010:4011   */\n  0x04\n    /* \"#utility.yul\":4003:4018   */\n  mstore\n    /* \"#utility.yul\":4037:4041   */\n  0x24\n    /* \"#utility.yul\":4034:4035   */\n  0x00\n    /* \"#utility.yul\":4027:4042   */\n  revert\n    /* \"blockpedia.sol\":61:6011  contract Blockpedia\r... */\ntag_6:\n  shr(0x60, mload(0x80))\n  mload(0xa0)\n  codecopy(0x00, dataOffset(sub_0), dataSize(sub_0))\n  0x00\n  assignImmutable(\"0xe4b1702d9298fee62dfeccc57d322a463ad55ca201256d01f62b45b2e1c21c10\")\n  0x00\n  assignImmutable(\"0xe455bf8ea6e7463a1046a0b52804526e119b4bf5136279614e0b1e8e296a4e2d\")\n  return(0x00, dataSize(sub_0))\nstop\ndata_9002fc6039152390109ec5f732c53c58176ebaeec30c137dc0bb00ed96b81159 42656d2076696e646f206120426c6f636b70656964612c206120656e6369636c6f7065646961206e6120626c6f636b636861696e\n\nsub_0: assembly {\n        /* \"blockpedia.sol\":61:6011  contract Blockpedia\r... */\n      mstore(0x40, 0x80)\n      jumpi(tag_1, lt(calldatasize, 0x04))\n      shr(0xe0, calldataload(0x00))\n      dup1\n      0x95be551a\n      gt\n      tag_15\n      jumpi\n      dup1\n      0x95be551a\n      eq\n      tag_9\n      jumpi\n      dup1\n      0xa18cc13b\n      eq\n      tag_10\n      jumpi\n      dup1\n      0xaa83581f\n      eq\n      tag_11\n      jumpi\n      dup1\n      0xd4d23a6e\n      eq\n      tag_12\n      jumpi\n      dup1\n      0xd616c9f0\n      eq\n      tag_13\n      jumpi\n      dup1\n      0xe7d4296a\n      eq\n      tag_14\n      jumpi\n      jump(tag_2)\n    tag_15:\n      dup1\n      0x0694952d\n      eq\n      tag_3\n      jumpi\n      dup1\n      0x1509d30c\n      eq\n      tag_4\n      jumpi\n      dup1\n      0x1c18379a\n      eq\n      tag_5\n      jumpi\n      dup1\n      0x2e87ca2e\n      eq\n      tag_6\n      jumpi\n      dup1\n      0x4d7e6726\n      eq\n      tag_7\n      jumpi\n      dup1\n      0x6f70a52e\n      eq\n      tag_8\n      jumpi\n      jump(tag_2)\n    tag_1:\n      jumpi(tag_2, calldatasize)\n        /* \"blockpedia.sol\":5922:5930  revert() */\n      0x00\n      dup1\n      revert\n        /* \"blockpedia.sol\":61:6011  contract Blockpedia\r... */\n    tag_2:\n        /* \"blockpedia.sol\":5990:5998  revert() */\n      0x00\n      dup1\n      revert\n        /* \"blockpedia.sol\":121:151  address public immutable autor */\n    tag_3:\n      callvalue\n      dup1\n      iszero\n      tag_20\n      jumpi\n      0x00\n      dup1\n      revert\n    tag_20:\n      pop\n      tag_21\n      tag_22\n      jump\t// in\n    tag_21:\n      mload(0x40)\n      tag_23\n      swap2\n      swap1\n      tag_24\n      jump\t// in\n    tag_23:\n      mload(0x40)\n      dup1\n      swap2\n      sub\n      swap1\n      return\n        /* \"blockpedia.sol\":1233:1427  function ativaDesativaBlockpedia(bool _ativo) public\r... */\n    tag_4:\n      callvalue\n      dup1\n      iszero\n      tag_25\n      jumpi\n      0x00\n      dup1\n      revert\n    tag_25:\n      pop\n      tag_26\n      0x04\n      dup1\n      calldatasize\n      sub\n      dup2\n      add\n      swap1\n      tag_27\n      swap2\n      swap1\n      tag_28\n      jump\t// in\n    tag_27:\n      tag_29\n      jump\t// in\n    tag_26:\n      stop\n        /* \"blockpedia.sol\":725:1225  function criarPagina(string memory _titulo, string memory _conteudo) public somenteSeAtivo \r... */\n    tag_5:\n      callvalue\n      dup1\n      iszero\n      tag_30\n      jumpi\n      0x00\n      dup1\n      revert\n    tag_30:\n      pop\n      tag_31\n      0x04\n      dup1\n      calldatasize\n      sub\n      dup2\n      add\n      swap1\n      tag_32\n      swap2\n      swap1\n      tag_33\n      jump\t// in\n    tag_32:\n      tag_34\n      jump\t// in\n    tag_31:\n      stop\n        /* \"blockpedia.sol\":4540:5253  function getPaginasPorTitulo(string memory _titulo) public view returns (uint[] memory)\r... */\n    tag_6:\n      callvalue\n      dup1\n      iszero\n      tag_35\n      jumpi\n      0x00\n      dup1\n      revert\n    tag_35:\n      pop\n      tag_36\n      0x04\n      dup1\n      calldatasize\n      sub\n      dup2\n      add\n      swap1\n      tag_37\n      swap2\n      swap1\n      tag_38\n      jump\t// in\n    tag_37:\n      tag_39\n      jump\t// in\n    tag_36:\n      mload(0x40)\n      tag_40\n      swap2\n      swap1\n      tag_41\n      jump\t// in\n    tag_40:\n      mload(0x40)\n      dup1\n      swap2\n      sub\n      swap1\n      return\n        /* \"blockpedia.sol\":1764:2018  function getConteudoVersaoValidaPorIndexPaginas(uint _indice) public view returns (string memory)\r... */\n    tag_7:\n      callvalue\n      dup1\n      iszero\n      tag_42\n      jumpi\n      0x00\n      dup1\n      revert\n    tag_42:\n      pop\n      tag_43\n      0x04\n      dup1\n      calldatasize\n      sub\n      dup2\n      add\n      swap1\n      tag_44\n      swap2\n      swap1\n      tag_45\n      jump\t// in\n    tag_44:\n      tag_46\n      jump\t// in\n    tag_43:\n      mload(0x40)\n      tag_47\n      swap2\n      swap1\n      tag_48\n      jump\t// in\n    tag_47:\n      mload(0x40)\n      dup1\n      swap2\n      sub\n      swap1\n      return\n        /* \"blockpedia.sol\":159:195  uint256 public immutable dataCriacao */\n    tag_8:\n      callvalue\n      dup1\n      iszero\n      tag_49\n      jumpi\n      0x00\n      dup1\n      revert\n    tag_49:\n      pop\n      tag_50\n      tag_51\n      jump\t// in\n    tag_50:\n      mload(0x40)\n      tag_52\n      swap2\n      swap1\n      tag_53\n      jump\t// in\n    tag_52:\n      mload(0x40)\n      dup1\n      swap2\n      sub\n      swap1\n      return\n        /* \"blockpedia.sol\":2907:3823  function ativaVersaoPorIndexVersoesEIndexPaginas(uint _indexPagina, uint _indexVersoes) public somenteSeAtivo\r... */\n    tag_9:\n      callvalue\n      dup1\n      iszero\n      tag_54\n      jumpi\n      0x00\n      dup1\n      revert\n    tag_54:\n      pop\n      tag_55\n      0x04\n      dup1\n      calldatasize\n      sub\n      dup2\n      add\n      swap1\n      tag_56\n      swap2\n      swap1\n      tag_57\n      jump\t// in\n    tag_56:\n      tag_58\n      jump\t// in\n    tag_55:\n      stop\n        /* \"blockpedia.sol\":89:113  bool public ativo = true */\n    tag_10:\n      callvalue\n      dup1\n      iszero\n      tag_59\n      jumpi\n      0x00\n      dup1\n      revert\n    tag_59:\n      pop\n      tag_60\n      tag_61\n      jump\t// in\n    tag_60:\n      mload(0x40)\n      tag_62\n      swap2\n      swap1\n      tag_63\n      jump\t// in\n    tag_62:\n      mload(0x40)\n      dup1\n      swap2\n      sub\n      swap1\n      return\n        /* \"blockpedia.sol\":4127:4532  function ativaPaginaPorIndexPaginas(uint _indexPagina)public somenteSeAtivo\r... */\n    tag_11:\n      callvalue\n      dup1\n      iszero\n      tag_64\n      jumpi\n      0x00\n      dup1\n      revert\n    tag_64:\n      pop\n      tag_65\n      0x04\n      dup1\n      calldatasize\n      sub\n      dup2\n      add\n      swap1\n      tag_66\n      swap2\n      swap1\n      tag_45\n      jump\t// in\n    tag_66:\n      tag_67\n      jump\t// in\n    tag_65:\n      stop\n        /* \"blockpedia.sol\":2378:2899  function adicionaNovaVercaoDesativadaAPaginaPorIndexPaginas(uint _index, string memory _conteudo) public somenteSeAtivo\r... */\n    tag_12:\n      callvalue\n      dup1\n      iszero\n      tag_68\n      jumpi\n      0x00\n      dup1\n      revert\n    tag_68:\n      pop\n      tag_69\n      0x04\n      dup1\n      calldatasize\n      sub\n      dup2\n      add\n      swap1\n      tag_70\n      swap2\n      swap1\n      tag_71\n      jump\t// in\n    tag_70:\n      tag_72\n      jump\t// in\n    tag_69:\n      stop\n        /* \"blockpedia.sol\":3831:4119  function desativaPaginaPorIndexPaginas(uint _indexPagina)public somenteSeAtivo\r... */\n    tag_13:\n      callvalue\n      dup1\n      iszero\n      tag_73\n      jumpi\n      0x00\n      dup1\n      revert\n    tag_73:\n      pop\n      tag_74\n      0x04\n      dup1\n      calldatasize\n      sub\n      dup2\n      add\n      swap1\n      tag_75\n      swap2\n      swap1\n      tag_45\n      jump\t// in\n    tag_75:\n      tag_76\n      jump\t// in\n    tag_74:\n      stop\n        /* \"blockpedia.sol\":202:225  Pagina[] public paginas */\n    tag_14:\n      callvalue\n      dup1\n      iszero\n      tag_77\n      jumpi\n      0x00\n      dup1\n      revert\n    tag_77:\n      pop\n      tag_78\n      0x04\n      dup1\n      calldatasize\n      sub\n      dup2\n      add\n      swap1\n      tag_79\n      swap2\n      swap1\n      tag_45\n      jump\t// in\n    tag_79:\n      tag_80\n      jump\t// in\n    tag_78:\n      mload(0x40)\n      tag_81\n      swap5\n      swap4\n      swap3\n      swap2\n      swap1\n      tag_82\n      jump\t// in\n    tag_81:\n      mload(0x40)\n      dup1\n      swap2\n      sub\n      swap1\n      return\n        /* \"blockpedia.sol\":121:151  address public immutable autor */\n    tag_22:\n      immutable(\"0xe455bf8ea6e7463a1046a0b52804526e119b4bf5136279614e0b1e8e296a4e2d\")\n      dup2\n      jump\t// out\n        /* \"blockpedia.sol\":1233:1427  function ativaDesativaBlockpedia(bool _ativo) public\r... */\n    tag_29:\n        /* \"blockpedia.sol\":1324:1329  autor */\n      immutable(\"0xe455bf8ea6e7463a1046a0b52804526e119b4bf5136279614e0b1e8e296a4e2d\")\n        /* \"blockpedia.sol\":1310:1329  msg.sender == autor */\n      0xffffffffffffffffffffffffffffffffffffffff\n      and\n        /* \"blockpedia.sol\":1310:1320  msg.sender */\n      caller\n        /* \"blockpedia.sol\":1310:1329  msg.sender == autor */\n      0xffffffffffffffffffffffffffffffffffffffff\n      and\n      eq\n        /* \"blockpedia.sol\":1302:1394  require(msg.sender == autor,\"Somente o dono desta Blockpedia pode alterar o atributo ativo\") */\n      tag_84\n      jumpi\n      mload(0x40)\n      0x08c379a000000000000000000000000000000000000000000000000000000000\n      dup2\n      mstore\n      0x04\n      add\n      tag_85\n      swap1\n      tag_86\n      jump\t// in\n    tag_85:\n      mload(0x40)\n      dup1\n      swap2\n      sub\n      swap1\n      revert\n    tag_84:\n        /* \"blockpedia.sol\":1413:1419  _ativo */\n      dup1\n        /* \"blockpedia.sol\":1405:1410  ativo */\n      0x00\n      dup1\n        /* \"blockpedia.sol\":1405:1419  ativo = _ativo */\n      0x0100\n      exp\n      dup2\n      sload\n      dup2\n      0xff\n      mul\n      not\n      and\n      swap1\n      dup4\n      iszero\n      iszero\n      mul\n      or\n      swap1\n      sstore\n      pop\n        /* \"blockpedia.sol\":1233:1427  function ativaDesativaBlockpedia(bool _ativo) public\r... */\n      pop\n      jump\t// out\n        /* \"blockpedia.sol\":725:1225  function criarPagina(string memory _titulo, string memory _conteudo) public somenteSeAtivo \r... */\n    tag_34:\n        /* \"blockpedia.sol\":5789:5794  ativo */\n      0x00\n      dup1\n      sload\n      swap1\n      0x0100\n      exp\n      swap1\n      div\n      0xff\n      and\n        /* \"blockpedia.sol\":5781:5851  require(ativo, \"A acao so e permitida quando a Blockpedia esta ativa\") */\n      tag_88\n      jumpi\n      mload(0x40)\n      0x08c379a000000000000000000000000000000000000000000000000000000000\n      dup2\n      mstore\n      0x04\n      add\n      tag_89\n      swap1\n      tag_90\n      jump\t// in\n    tag_89:\n      mload(0x40)\n      dup1\n      swap2\n      sub\n      swap1\n      revert\n    tag_88:\n        /* \"blockpedia.sol\":842:868  existeTituloAtivo(_titulo) */\n      tag_92\n        /* \"blockpedia.sol\":860:867  _titulo */\n      dup3\n        /* \"blockpedia.sol\":842:859  existeTituloAtivo */\n      tag_93\n        /* \"blockpedia.sol\":842:868  existeTituloAtivo(_titulo) */\n      jump\t// in\n    tag_92:\n        /* \"blockpedia.sol\":841:868  !existeTituloAtivo(_titulo) */\n      iszero\n        /* \"blockpedia.sol\":833:911  require(!existeTituloAtivo(_titulo), \"Ja existe pagina ativa com este titulo\") */\n      tag_94\n      jumpi\n      mload(0x40)\n      0x08c379a000000000000000000000000000000000000000000000000000000000\n      dup2\n      mstore\n      0x04\n      add\n      tag_95\n      swap1\n      tag_96\n      jump\t// in\n    tag_95:\n      mload(0x40)\n      dup1\n      swap2\n      sub\n      swap1\n      revert\n    tag_94:\n        /* \"blockpedia.sol\":924:949  Pagina storage novaPagina */\n      0x00\n        /* \"blockpedia.sol\":952:959  paginas */\n      0x01\n        /* \"blockpedia.sol\":952:966  paginas.push() */\n      dup1\n      dup2\n      0x01\n      dup2\n      sload\n      add\n      dup1\n      dup3\n      sstore\n      dup1\n      swap2\n      pop\n      pop\n      sub\n      swap1\n      0x00\n      mstore\n      keccak256(0x00, 0x20)\n      swap1\n      0x04\n      mul\n      add\n        /* \"blockpedia.sol\":924:966  Pagina storage novaPagina = paginas.push() */\n      swap1\n      pop\n        /* \"blockpedia.sol\":996:1000  true */\n      0x01\n        /* \"blockpedia.sol\":977:987  novaPagina */\n      dup2\n        /* \"blockpedia.sol\":977:993  novaPagina.ativo */\n      0x00\n      add\n      0x00\n        /* \"blockpedia.sol\":977:1000  novaPagina.ativo = true */\n      0x0100\n      exp\n      dup2\n      sload\n      dup2\n      0xff\n      mul\n      not\n      and\n      swap1\n      dup4\n      iszero\n      iszero\n      mul\n      or\n      swap1\n      sstore\n      pop\n        /* \"blockpedia.sol\":1030:1040  msg.sender */\n      caller\n        /* \"blockpedia.sol\":1011:1021  novaPagina */\n      dup2\n        /* \"blockpedia.sol\":1011:1027  novaPagina.autor */\n      0x00\n      add\n      0x01\n        /* \"blockpedia.sol\":1011:1040  novaPagina.autor = msg.sender */\n      0x0100\n      exp\n      dup2\n      sload\n      dup2\n      0xffffffffffffffffffffffffffffffffffffffff\n      mul\n      not\n      and\n      swap1\n      dup4\n      0xffffffffffffffffffffffffffffffffffffffff\n      and\n      mul\n      or\n      swap1\n      sstore\n      pop\n        /* \"blockpedia.sol\":1076:1091  block.timestamp */\n      timestamp\n        /* \"blockpedia.sol\":1051:1061  novaPagina */\n      dup2\n        /* \"blockpedia.sol\":1051:1073  novaPagina.dataCriacao */\n      0x01\n      add\n        /* \"blockpedia.sol\":1051:1091  novaPagina.dataCriacao = block.timestamp */\n      dup2\n      swap1\n      sstore\n      pop\n        /* \"blockpedia.sol\":1122:1129  _titulo */\n      dup3\n        /* \"blockpedia.sol\":1102:1112  novaPagina */\n      dup2\n        /* \"blockpedia.sol\":1102:1119  novaPagina.titulo */\n      0x02\n      add\n        /* \"blockpedia.sol\":1102:1129  novaPagina.titulo = _titulo */\n      swap1\n      dup1\n      mload\n      swap1\n      0x20\n      add\n      swap1\n      tag_98\n      swap3\n      swap2\n      swap1\n      tag_99\n      jump\t// in\n    tag_98:\n      pop\n        /* \"blockpedia.sol\":1140:1150  novaPagina */\n      dup1\n        /* \"blockpedia.sol\":1140:1158  novaPagina.versoes */\n      0x03\n      add\n        /* \"blockpedia.sol\":1164:1216  Versao(true, msg.sender, block.timestamp, _conteudo) */\n      mload(0x40)\n      dup1\n      0x80\n      add\n      0x40\n      mstore\n      dup1\n        /* \"blockpedia.sol\":1171:1175  true */\n      0x01\n        /* \"blockpedia.sol\":1164:1216  Versao(true, msg.sender, block.timestamp, _conteudo) */\n      iszero\n      iszero\n      dup2\n      mstore\n      0x20\n      add\n        /* \"blockpedia.sol\":1177:1187  msg.sender */\n      caller\n        /* \"blockpedia.sol\":1164:1216  Versao(true, msg.sender, block.timestamp, _conteudo) */\n      0xffffffffffffffffffffffffffffffffffffffff\n      and\n      dup2\n      mstore\n      0x20\n      add\n        /* \"blockpedia.sol\":1189:1204  block.timestamp */\n      timestamp\n        /* \"blockpedia.sol\":1164:1216  Versao(true, msg.sender, block.timestamp, _conteudo) */\n      dup2\n      mstore\n      0x20\n      add\n        /* \"blockpedia.sol\":1206:1215  _conteudo */\n      dup5\n        /* \"blockpedia.sol\":1164:1216  Versao(true, msg.sender, block.timestamp, _conteudo) */\n      dup2\n      mstore\n      pop\n        /* \"blockpedia.sol\":1140:1217  novaPagina.versoes.push(Versao(true, msg.sender, block.timestamp, _conteudo)) */\n      swap1\n      dup1\n      0x01\n      dup2\n      sload\n      add\n      dup1\n      dup3\n      sstore\n      dup1\n      swap2\n      pop\n      pop\n      0x01\n      swap1\n      sub\n      swap1\n      0x00\n      mstore\n      keccak256(0x00, 0x20)\n      swap1\n      0x03\n      mul\n      add\n      0x00\n      swap1\n      swap2\n      swap1\n      swap2\n      swap1\n      swap2\n      pop\n      0x00\n      dup3\n      add\n      mload\n      dup2\n      0x00\n      add\n      exp(0x0100, 0x00)\n      dup2\n      sload\n      dup2\n      0xff\n      mul\n      not\n      and\n      swap1\n      dup4\n      iszero\n      iszero\n      mul\n      or\n      swap1\n      sstore\n      pop\n      0x20\n      dup3\n      add\n      mload\n      dup2\n      0x00\n      add\n      exp(0x0100, 0x01)\n      dup2\n      sload\n      dup2\n      0xffffffffffffffffffffffffffffffffffffffff\n      mul\n      not\n      and\n      swap1\n      dup4\n      0xffffffffffffffffffffffffffffffffffffffff\n      and\n      mul\n      or\n      swap1\n      sstore\n      pop\n      0x40\n      dup3\n      add\n      mload\n      dup2\n      0x01\n      add\n      sstore\n      0x60\n      dup3\n      add\n      mload\n      dup2\n      0x02\n      add\n      swap1\n      dup1\n      mload\n      swap1\n      0x20\n      add\n      swap1\n      tag_101\n      swap3\n      swap2\n      swap1\n      tag_99\n      jump\t// in\n    tag_101:\n      pop\n      pop\n      pop\n        /* \"blockpedia.sol\":5862:5863  _ */\n      pop\n        /* \"blockpedia.sol\":725:1225  function criarPagina(string memory _titulo, string memory _conteudo) public somenteSeAtivo \r... */\n      pop\n      pop\n      jump\t// out\n        /* \"blockpedia.sol\":4540:5253  function getPaginasPorTitulo(string memory _titulo) public view returns (uint[] memory)\r... */\n    tag_39:\n        /* \"blockpedia.sol\":4613:4626  uint[] memory */\n      0x60\n        /* \"blockpedia.sol\":4644:4681  uint[] memory indicesPaginasComTitulo */\n      0x00\n        /* \"blockpedia.sol\":4695:4702  paginas */\n      0x01\n        /* \"blockpedia.sol\":4695:4709  paginas.length */\n      dup1\n      sload\n      swap1\n      pop\n        /* \"blockpedia.sol\":4684:4710  new uint[](paginas.length) */\n      0xffffffffffffffff\n      dup2\n      gt\n      iszero\n      tag_103\n      jumpi\n      mstore(0x00, 0x4e487b7100000000000000000000000000000000000000000000000000000000)\n      mstore(0x04, 0x41)\n      revert(0x00, 0x24)\n    tag_103:\n      mload(0x40)\n      swap1\n      dup1\n      dup3\n      mstore\n      dup1\n      0x20\n      mul\n      0x20\n      add\n      dup3\n      add\n      0x40\n      mstore\n      dup1\n      iszero\n      tag_104\n      jumpi\n      dup2\n      0x20\n      add\n      0x20\n      dup3\n      mul\n      dup1\n      calldatasize\n      dup4\n      calldatacopy\n      dup1\n      dup3\n      add\n      swap2\n      pop\n      pop\n      swap1\n      pop\n    tag_104:\n      pop\n        /* \"blockpedia.sol\":4644:4710  uint[] memory indicesPaginasComTitulo = new uint[](paginas.length) */\n      swap1\n      pop\n        /* \"blockpedia.sol\":4721:4734  uint contador */\n      0x00\n        /* \"blockpedia.sol\":4756:4762  uint i */\n      dup1\n        /* \"blockpedia.sol\":4751:4989  for (uint i = 0; i < paginas.length; i++)\r... */\n    tag_105:\n        /* \"blockpedia.sol\":4772:4779  paginas */\n      0x01\n        /* \"blockpedia.sol\":4772:4786  paginas.length */\n      dup1\n      sload\n      swap1\n      pop\n        /* \"blockpedia.sol\":4768:4769  i */\n      dup2\n        /* \"blockpedia.sol\":4768:4786  i < paginas.length */\n      lt\n        /* \"blockpedia.sol\":4751:4989  for (uint i = 0; i < paginas.length; i++)\r... */\n      iszero\n      tag_106\n      jumpi\n        /* \"blockpedia.sol\":4821:4862  comparaString(paginas[i].titulo, _titulo) */\n      tag_108\n        /* \"blockpedia.sol\":4835:4842  paginas */\n      0x01\n        /* \"blockpedia.sol\":4843:4844  i */\n      dup3\n        /* \"blockpedia.sol\":4835:4845  paginas[i] */\n      dup2\n      sload\n      dup2\n      lt\n      tag_109\n      jumpi\n      mstore(0x00, 0x4e487b7100000000000000000000000000000000000000000000000000000000)\n      mstore(0x04, 0x32)\n      revert(0x00, 0x24)\n    tag_109:\n      swap1\n      0x00\n      mstore\n      keccak256(0x00, 0x20)\n      swap1\n      0x04\n      mul\n      add\n        /* \"blockpedia.sol\":4835:4852  paginas[i].titulo */\n      0x02\n      add\n        /* \"blockpedia.sol\":4821:4862  comparaString(paginas[i].titulo, _titulo) */\n      dup1\n      sload\n      tag_111\n      swap1\n      tag_112\n      jump\t// in\n    tag_111:\n      dup1\n      0x1f\n      add\n      0x20\n      dup1\n      swap2\n      div\n      mul\n      0x20\n      add\n      mload(0x40)\n      swap1\n      dup2\n      add\n      0x40\n      mstore\n      dup1\n      swap3\n      swap2\n      swap1\n      dup2\n      dup2\n      mstore\n      0x20\n      add\n      dup3\n      dup1\n      sload\n      tag_113\n      swap1\n      tag_112\n      jump\t// in\n    tag_113:\n      dup1\n      iszero\n      tag_114\n      jumpi\n      dup1\n      0x1f\n      lt\n      tag_115\n      jumpi\n      0x0100\n      dup1\n      dup4\n      sload\n      div\n      mul\n      dup4\n      mstore\n      swap2\n      0x20\n      add\n      swap2\n      jump(tag_114)\n    tag_115:\n      dup3\n      add\n      swap2\n      swap1\n      0x00\n      mstore\n      keccak256(0x00, 0x20)\n      swap1\n    tag_116:\n      dup2\n      sload\n      dup2\n      mstore\n      swap1\n      0x01\n      add\n      swap1\n      0x20\n      add\n      dup1\n      dup4\n      gt\n      tag_116\n      jumpi\n      dup3\n      swap1\n      sub\n      0x1f\n      and\n      dup3\n      add\n      swap2\n    tag_114:\n      pop\n      pop\n      pop\n      pop\n      pop\n        /* \"blockpedia.sol\":4854:4861  _titulo */\n      dup7\n        /* \"blockpedia.sol\":4821:4834  comparaString */\n      tag_117\n        /* \"blockpedia.sol\":4821:4862  comparaString(paginas[i].titulo, _titulo) */\n      jump\t// in\n    tag_108:\n        /* \"blockpedia.sol\":4817:4978  if (comparaString(paginas[i].titulo, _titulo))\r... */\n      iszero\n      tag_118\n      jumpi\n        /* \"blockpedia.sol\":4932:4933  i */\n      dup1\n        /* \"blockpedia.sol\":4896:4919  indicesPaginasComTitulo */\n      dup4\n        /* \"blockpedia.sol\":4920:4928  contador */\n      dup4\n        /* \"blockpedia.sol\":4896:4929  indicesPaginasComTitulo[contador] */\n      dup2\n      mload\n      dup2\n      lt\n      tag_119\n      jumpi\n      mstore(0x00, 0x4e487b7100000000000000000000000000000000000000000000000000000000)\n      mstore(0x04, 0x32)\n      revert(0x00, 0x24)\n    tag_119:\n      0x20\n      mul\n      0x20\n      add\n      add\n        /* \"blockpedia.sol\":4896:4933  indicesPaginasComTitulo[contador] = i */\n      dup2\n      dup2\n      mstore\n      pop\n      pop\n        /* \"blockpedia.sol\":4952:4962  contador++ */\n      dup2\n      dup1\n      tag_120\n      swap1\n      tag_121\n      jump\t// in\n    tag_120:\n      swap3\n      pop\n      pop\n        /* \"blockpedia.sol\":4817:4978  if (comparaString(paginas[i].titulo, _titulo))\r... */\n    tag_118:\n        /* \"blockpedia.sol\":4788:4791  i++ */\n      dup1\n      dup1\n      tag_122\n      swap1\n      tag_121\n      jump\t// in\n    tag_122:\n      swap2\n      pop\n      pop\n        /* \"blockpedia.sol\":4751:4989  for (uint i = 0; i < paginas.length; i++)\r... */\n      jump(tag_105)\n    tag_106:\n      pop\n        /* \"blockpedia.sol\":5053:5074  uint[] memory indices */\n      0x00\n        /* \"blockpedia.sol\":5088:5096  contador */\n      dup2\n        /* \"blockpedia.sol\":5077:5097  new uint[](contador) */\n      0xffffffffffffffff\n      dup2\n      gt\n      iszero\n      tag_123\n      jumpi\n      mstore(0x00, 0x4e487b7100000000000000000000000000000000000000000000000000000000)\n      mstore(0x04, 0x41)\n      revert(0x00, 0x24)\n    tag_123:\n      mload(0x40)\n      swap1\n      dup1\n      dup3\n      mstore\n      dup1\n      0x20\n      mul\n      0x20\n      add\n      dup3\n      add\n      0x40\n      mstore\n      dup1\n      iszero\n      tag_124\n      jumpi\n      dup2\n      0x20\n      add\n      0x20\n      dup3\n      mul\n      dup1\n      calldatasize\n      dup4\n      calldatacopy\n      dup1\n      dup3\n      add\n      swap2\n      pop\n      pop\n      swap1\n      pop\n    tag_124:\n      pop\n        /* \"blockpedia.sol\":5053:5097  uint[] memory indices = new uint[](contador) */\n      swap1\n      pop\n        /* \"blockpedia.sol\":5113:5119  uint j */\n      0x00\n        /* \"blockpedia.sol\":5108:5219  for (uint j = 0; j < contador; j++)\r... */\n    tag_125:\n        /* \"blockpedia.sol\":5129:5137  contador */\n      dup3\n        /* \"blockpedia.sol\":5125:5126  j */\n      dup2\n        /* \"blockpedia.sol\":5125:5137  j < contador */\n      lt\n        /* \"blockpedia.sol\":5108:5219  for (uint j = 0; j < contador; j++)\r... */\n      iszero\n      tag_126\n      jumpi\n        /* \"blockpedia.sol\":5181:5204  indicesPaginasComTitulo */\n      dup4\n        /* \"blockpedia.sol\":5205:5206  j */\n      dup2\n        /* \"blockpedia.sol\":5181:5207  indicesPaginasComTitulo[j] */\n      dup2\n      mload\n      dup2\n      lt\n      tag_128\n      jumpi\n      mstore(0x00, 0x4e487b7100000000000000000000000000000000000000000000000000000000)\n      mstore(0x04, 0x32)\n      revert(0x00, 0x24)\n    tag_128:\n      0x20\n      mul\n      0x20\n      add\n      add\n      mload\n        /* \"blockpedia.sol\":5168:5175  indices */\n      dup3\n        /* \"blockpedia.sol\":5176:5177  j */\n      dup3\n        /* \"blockpedia.sol\":5168:5178  indices[j] */\n      dup2\n      mload\n      dup2\n      lt\n      tag_129\n      jumpi\n      mstore(0x00, 0x4e487b7100000000000000000000000000000000000000000000000000000000)\n      mstore(0x04, 0x32)\n      revert(0x00, 0x24)\n    tag_129:\n      0x20\n      mul\n      0x20\n      add\n      add\n        /* \"blockpedia.sol\":5168:5207  indices[j] = indicesPaginasComTitulo[j] */\n      dup2\n      dup2\n      mstore\n      pop\n      pop\n        /* \"blockpedia.sol\":5139:5142  j++ */\n      dup1\n      dup1\n      tag_130\n      swap1\n      tag_121\n      jump\t// in\n    tag_130:\n      swap2\n      pop\n      pop\n        /* \"blockpedia.sol\":5108:5219  for (uint j = 0; j < contador; j++)\r... */\n      jump(tag_125)\n    tag_126:\n      pop\n        /* \"blockpedia.sol\":5238:5245  indices */\n      dup1\n        /* \"blockpedia.sol\":5231:5245  return indices */\n      swap4\n      pop\n      pop\n      pop\n      pop\n        /* \"blockpedia.sol\":4540:5253  function getPaginasPorTitulo(string memory _titulo) public view returns (uint[] memory)\r... */\n      swap2\n      swap1\n      pop\n      jump\t// out\n        /* \"blockpedia.sol\":1764:2018  function getConteudoVersaoValidaPorIndexPaginas(uint _indice) public view returns (string memory)\r... */\n    tag_46:\n        /* \"blockpedia.sol\":1847:1860  string memory */\n      0x60\n        /* \"blockpedia.sol\":1896:1903  paginas */\n      0x01\n        /* \"blockpedia.sol\":1896:1910  paginas.length */\n      dup1\n      sload\n      swap1\n      pop\n        /* \"blockpedia.sol\":1886:1893  _indice */\n      dup3\n        /* \"blockpedia.sol\":1886:1910  _indice < paginas.length */\n      lt\n        /* \"blockpedia.sol\":1878:1937  require(_indice < paginas.length, \"Indice fora do alcance\") */\n      tag_132\n      jumpi\n      mload(0x40)\n      0x08c379a000000000000000000000000000000000000000000000000000000000\n      dup2\n      mstore\n      0x04\n      add\n      tag_133\n      swap1\n      tag_134\n      jump\t// in\n    tag_133:\n      mload(0x40)\n      dup1\n      swap2\n      sub\n      swap1\n      revert\n    tag_132:\n        /* \"blockpedia.sol\":1957:2001  getVersaoValidaDeUmaPagina(paginas[_indice]) */\n      tag_135\n        /* \"blockpedia.sol\":1984:1991  paginas */\n      0x01\n        /* \"blockpedia.sol\":1992:1999  _indice */\n      dup4\n        /* \"blockpedia.sol\":1984:2000  paginas[_indice] */\n      dup2\n      sload\n      dup2\n      lt\n      tag_136\n      jumpi\n      mstore(0x00, 0x4e487b7100000000000000000000000000000000000000000000000000000000)\n      mstore(0x04, 0x32)\n      revert(0x00, 0x24)\n    tag_136:\n      swap1\n      0x00\n      mstore\n      keccak256(0x00, 0x20)\n      swap1\n      0x04\n      mul\n      add\n        /* \"blockpedia.sol\":1957:2001  getVersaoValidaDeUmaPagina(paginas[_indice]) */\n      mload(0x40)\n      dup1\n      0xa0\n      add\n      0x40\n      mstore\n      swap1\n      dup2\n      0x00\n      dup3\n      add\n      0x00\n      swap1\n      sload\n      swap1\n      0x0100\n      exp\n      swap1\n      div\n      0xff\n      and\n      iszero\n      iszero\n      iszero\n      iszero\n      dup2\n      mstore\n      0x20\n      add\n      0x00\n      dup3\n      add\n      0x01\n      swap1\n      sload\n      swap1\n      0x0100\n      exp\n      swap1\n      div\n      0xffffffffffffffffffffffffffffffffffffffff\n      and\n      0xffffffffffffffffffffffffffffffffffffffff\n      and\n      0xffffffffffffffffffffffffffffffffffffffff\n      and\n      dup2\n      mstore\n      0x20\n      add\n      0x01\n      dup3\n      add\n      sload\n      dup2\n      mstore\n      0x20\n      add\n      0x02\n      dup3\n      add\n      dup1\n      sload\n      tag_138\n      swap1\n      tag_112\n      jump\t// in\n    tag_138:\n      dup1\n      0x1f\n      add\n      0x20\n      dup1\n      swap2\n      div\n      mul\n      0x20\n      add\n      mload(0x40)\n      swap1\n      dup2\n      add\n      0x40\n      mstore\n      dup1\n      swap3\n      swap2\n      swap1\n      dup2\n      dup2\n      mstore\n      0x20\n      add\n      dup3\n      dup1\n      sload\n      tag_139\n      swap1\n      tag_112\n      jump\t// in\n    tag_139:\n      dup1\n      iszero\n      tag_140\n      jumpi\n      dup1\n      0x1f\n      lt\n      tag_141\n      jumpi\n      0x0100\n      dup1\n      dup4\n      sload\n      div\n      mul\n      dup4\n      mstore\n      swap2\n      0x20\n      add\n      swap2\n      jump(tag_140)\n    tag_141:\n      dup3\n      add\n      swap2\n      swap1\n      0x00\n      mstore\n      keccak256(0x00, 0x20)\n      swap1\n    tag_142:\n      dup2\n      sload\n      dup2\n      mstore\n      swap1\n      0x01\n      add\n      swap1\n      0x20\n      add\n      dup1\n      dup4\n      gt\n      tag_142\n      jumpi\n      dup3\n      swap1\n      sub\n      0x1f\n      and\n      dup3\n      add\n      swap2\n    tag_140:\n      pop\n      pop\n      pop\n      pop\n      pop\n      dup2\n      mstore\n      0x20\n      add\n      0x03\n      dup3\n      add\n      dup1\n      sload\n      dup1\n      0x20\n      mul\n      0x20\n      add\n      mload(0x40)\n      swap1\n      dup2\n      add\n      0x40\n      mstore\n      dup1\n      swap3\n      swap2\n      swap1\n      dup2\n      dup2\n      mstore\n      0x20\n      add\n      0x00\n      swap1\n    tag_143:\n      dup3\n      dup3\n      lt\n      iszero\n      tag_144\n      jumpi\n      dup4\n      dup3\n      swap1\n      0x00\n      mstore\n      keccak256(0x00, 0x20)\n      swap1\n      0x03\n      mul\n      add\n      mload(0x40)\n      dup1\n      0x80\n      add\n      0x40\n      mstore\n      swap1\n      dup2\n      0x00\n      dup3\n      add\n      0x00\n      swap1\n      sload\n      swap1\n      0x0100\n      exp\n      swap1\n      div\n      0xff\n      and\n      iszero\n      iszero\n      iszero\n      iszero\n      dup2\n      mstore\n      0x20\n      add\n      0x00\n      dup3\n      add\n      0x01\n      swap1\n      sload\n      swap1\n      0x0100\n      exp\n      swap1\n      div\n      0xffffffffffffffffffffffffffffffffffffffff\n      and\n      0xffffffffffffffffffffffffffffffffffffffff\n      and\n      0xffffffffffffffffffffffffffffffffffffffff\n      and\n      dup2\n      mstore\n      0x20\n      add\n      0x01\n      dup3\n      add\n      sload\n      dup2\n      mstore\n      0x20\n      add\n      0x02\n      dup3\n      add\n      dup1\n      sload\n      tag_146\n      swap1\n      tag_112\n      jump\t// in\n    tag_146:\n      dup1\n      0x1f\n      add\n      0x20\n      dup1\n      swap2\n      div\n      mul\n      0x20\n      add\n      mload(0x40)\n      swap1\n      dup2\n      add\n      0x40\n      mstore\n      dup1\n      swap3\n      swap2\n      swap1\n      dup2\n      dup2\n      mstore\n      0x20\n      add\n      dup3\n      dup1\n      sload\n      tag_147\n      swap1\n      tag_112\n      jump\t// in\n    tag_147:\n      dup1\n      iszero\n      tag_148\n      jumpi\n      dup1\n      0x1f\n      lt\n      tag_149\n      jumpi\n      0x0100\n      dup1\n      dup4\n      sload\n      div\n      mul\n      dup4\n      mstore\n      swap2\n      0x20\n      add\n      swap2\n      jump(tag_148)\n    tag_149:\n      dup3\n      add\n      swap2\n      swap1\n      0x00\n      mstore\n      keccak256(0x00, 0x20)\n      swap1\n    tag_150:\n      dup2\n      sload\n      dup2\n      mstore\n      swap1\n      0x01\n      add\n      swap1\n      0x20\n      add\n      dup1\n      dup4\n      gt\n      tag_150\n      jumpi\n      dup3\n      swap1\n      sub\n      0x1f\n      and\n      dup3\n      add\n      swap2\n    tag_148:\n      pop\n      pop\n      pop\n      pop\n      pop\n      dup2\n      mstore\n      pop\n      pop\n      dup2\n      mstore\n      0x20\n      add\n      swap1\n      0x01\n      add\n      swap1\n      jump(tag_143)\n    tag_144:\n      pop\n      pop\n      pop\n      pop\n      dup2\n      mstore\n      pop\n      pop\n        /* \"blockpedia.sol\":1957:1983  getVersaoValidaDeUmaPagina */\n      tag_151\n        /* \"blockpedia.sol\":1957:2001  getVersaoValidaDeUmaPagina(paginas[_indice]) */\n      jump\t// in\n    tag_135:\n        /* \"blockpedia.sol\":1957:2010  getVersaoValidaDeUmaPagina(paginas[_indice]).conteudo */\n      0x60\n      add\n      mload\n        /* \"blockpedia.sol\":1950:2010  return getVersaoValidaDeUmaPagina(paginas[_indice]).conteudo */\n      swap1\n      pop\n        /* \"blockpedia.sol\":1764:2018  function getConteudoVersaoValidaPorIndexPaginas(uint _indice) public view returns (string memory)\r... */\n      swap2\n      swap1\n      pop\n      jump\t// out\n        /* \"blockpedia.sol\":159:195  uint256 public immutable dataCriacao */\n    tag_51:\n      immutable(\"0xe4b1702d9298fee62dfeccc57d322a463ad55ca201256d01f62b45b2e1c21c10\")\n      dup2\n      jump\t// out\n        /* \"blockpedia.sol\":2907:3823  function ativaVersaoPorIndexVersoesEIndexPaginas(uint _indexPagina, uint _indexVersoes) public somenteSeAtivo\r... */\n    tag_58:\n        /* \"blockpedia.sol\":5789:5794  ativo */\n      0x00\n      dup1\n      sload\n      swap1\n      0x0100\n      exp\n      swap1\n      div\n      0xff\n      and\n        /* \"blockpedia.sol\":5781:5851  require(ativo, \"A acao so e permitida quando a Blockpedia esta ativa\") */\n      tag_153\n      jumpi\n      mload(0x40)\n      0x08c379a000000000000000000000000000000000000000000000000000000000\n      dup2\n      mstore\n      0x04\n      add\n      tag_154\n      swap1\n      tag_90\n      jump\t// in\n    tag_154:\n      mload(0x40)\n      dup1\n      swap2\n      sub\n      swap1\n      revert\n    tag_153:\n        /* \"blockpedia.sol\":3056:3063  paginas */\n      0x01\n        /* \"blockpedia.sol\":3056:3070  paginas.length */\n      dup1\n      sload\n      swap1\n      pop\n        /* \"blockpedia.sol\":3041:3053  _indexPagina */\n      dup3\n        /* \"blockpedia.sol\":3041:3070  _indexPagina < paginas.length */\n      lt\n        /* \"blockpedia.sol\":3033:3107  require(_indexPagina < paginas.length, \"Indice da pagina fora do alcance\") */\n      tag_156\n      jumpi\n      mload(0x40)\n      0x08c379a000000000000000000000000000000000000000000000000000000000\n      dup2\n      mstore\n      0x04\n      add\n      tag_157\n      swap1\n      tag_158\n      jump\t// in\n    tag_157:\n      mload(0x40)\n      dup1\n      swap2\n      sub\n      swap1\n      revert\n    tag_156:\n        /* \"blockpedia.sol\":3126:3133  paginas */\n      0x01\n        /* \"blockpedia.sol\":3134:3146  _indexPagina */\n      dup3\n        /* \"blockpedia.sol\":3126:3147  paginas[_indexPagina] */\n      dup2\n      sload\n      dup2\n      lt\n      tag_159\n      jumpi\n      mstore(0x00, 0x4e487b7100000000000000000000000000000000000000000000000000000000)\n      mstore(0x04, 0x32)\n      revert(0x00, 0x24)\n    tag_159:\n      swap1\n      0x00\n      mstore\n      keccak256(0x00, 0x20)\n      swap1\n      0x04\n      mul\n      add\n        /* \"blockpedia.sol\":3126:3153  paginas[_indexPagina].ativo */\n      0x00\n      add\n      0x00\n      swap1\n      sload\n      swap1\n      0x0100\n      exp\n      swap1\n      div\n      0xff\n      and\n        /* \"blockpedia.sol\":3118:3221  require(paginas[_indexPagina].ativo, \"A alteracao de versao so e permitida quando a pagina esta ativa\") */\n      tag_161\n      jumpi\n      mload(0x40)\n      0x08c379a000000000000000000000000000000000000000000000000000000000\n      dup2\n      mstore\n      0x04\n      add\n      tag_162\n      swap1\n      tag_163\n      jump\t// in\n    tag_162:\n      mload(0x40)\n      dup1\n      swap2\n      sub\n      swap1\n      revert\n    tag_161:\n        /* \"blockpedia.sol\":3256:3263  paginas */\n      0x01\n        /* \"blockpedia.sol\":3264:3276  _indexPagina */\n      dup3\n        /* \"blockpedia.sol\":3256:3277  paginas[_indexPagina] */\n      dup2\n      sload\n      dup2\n      lt\n      tag_164\n      jumpi\n      mstore(0x00, 0x4e487b7100000000000000000000000000000000000000000000000000000000)\n      mstore(0x04, 0x32)\n      revert(0x00, 0x24)\n    tag_164:\n      swap1\n      0x00\n      mstore\n      keccak256(0x00, 0x20)\n      swap1\n      0x04\n      mul\n      add\n        /* \"blockpedia.sol\":3256:3285  paginas[_indexPagina].versoes */\n      0x03\n      add\n        /* \"blockpedia.sol\":3256:3292  paginas[_indexPagina].versoes.length */\n      dup1\n      sload\n      swap1\n      pop\n        /* \"blockpedia.sol\":3240:3253  _indexVersoes */\n      dup2\n        /* \"blockpedia.sol\":3240:3292  _indexVersoes < paginas[_indexPagina].versoes.length */\n      lt\n        /* \"blockpedia.sol\":3232:3329  require(_indexVersoes < paginas[_indexPagina].versoes.length, \"Indice da versao fora do alcance\") */\n      tag_166\n      jumpi\n      mload(0x40)\n      0x08c379a000000000000000000000000000000000000000000000000000000000\n      dup2\n      mstore\n      0x04\n      add\n      tag_167\n      swap1\n      tag_168\n      jump\t// in\n    tag_167:\n      mload(0x40)\n      dup1\n      swap2\n      sub\n      swap1\n      revert\n    tag_166:\n        /* \"blockpedia.sol\":3345:3352  paginas */\n      0x01\n        /* \"blockpedia.sol\":3353:3365  _indexPagina */\n      dup3\n        /* \"blockpedia.sol\":3345:3366  paginas[_indexPagina] */\n      dup2\n      sload\n      dup2\n      lt\n      tag_169\n      jumpi\n      mstore(0x00, 0x4e487b7100000000000000000000000000000000000000000000000000000000)\n      mstore(0x04, 0x32)\n      revert(0x00, 0x24)\n    tag_169:\n      swap1\n      0x00\n      mstore\n      keccak256(0x00, 0x20)\n      swap1\n      0x04\n      mul\n      add\n        /* \"blockpedia.sol\":3345:3374  paginas[_indexPagina].versoes */\n      0x03\n      add\n        /* \"blockpedia.sol\":3375:3388  _indexVersoes */\n      dup2\n        /* \"blockpedia.sol\":3345:3389  paginas[_indexPagina].versoes[_indexVersoes] */\n      dup2\n      sload\n      dup2\n      lt\n      tag_171\n      jumpi\n      mstore(0x00, 0x4e487b7100000000000000000000000000000000000000000000000000000000)\n      mstore(0x04, 0x32)\n      revert(0x00, 0x24)\n    tag_171:\n      swap1\n      0x00\n      mstore\n      keccak256(0x00, 0x20)\n      swap1\n      0x03\n      mul\n      add\n        /* \"blockpedia.sol\":3345:3395  paginas[_indexPagina].versoes[_indexVersoes].ativo */\n      0x00\n      add\n      0x00\n      swap1\n      sload\n      swap1\n      0x0100\n      exp\n      swap1\n      div\n      0xff\n      and\n        /* \"blockpedia.sol\":3342:3417  if(paginas[_indexPagina].versoes[_indexVersoes].ativo)\r... */\n      iszero\n      tag_173\n      jumpi\n        /* \"blockpedia.sol\":3410:3417  return; */\n      jump(tag_155)\n        /* \"blockpedia.sol\":3342:3417  if(paginas[_indexPagina].versoes[_indexVersoes].ativo)\r... */\n    tag_173:\n        /* \"blockpedia.sol\":3434:3440  uint i */\n      0x00\n        /* \"blockpedia.sol\":3443:3450  paginas */\n      0x01\n        /* \"blockpedia.sol\":3451:3463  _indexPagina */\n      dup4\n        /* \"blockpedia.sol\":3443:3464  paginas[_indexPagina] */\n      dup2\n      sload\n      dup2\n      lt\n      tag_177\n      jumpi\n      mstore(0x00, 0x4e487b7100000000000000000000000000000000000000000000000000000000)\n      mstore(0x04, 0x32)\n      revert(0x00, 0x24)\n    tag_177:\n      swap1\n      0x00\n      mstore\n      keccak256(0x00, 0x20)\n      swap1\n      0x04\n      mul\n      add\n        /* \"blockpedia.sol\":3443:3472  paginas[_indexPagina].versoes */\n      0x03\n      add\n        /* \"blockpedia.sol\":3443:3479  paginas[_indexPagina].versoes.length */\n      dup1\n      sload\n      swap1\n      pop\n        /* \"blockpedia.sol\":3434:3479  uint i = paginas[_indexPagina].versoes.length */\n      swap1\n      pop\n        /* \"blockpedia.sol\":3429:3746  for (uint i = paginas[_indexPagina].versoes.length; i > 0; i--)\r... */\n    tag_174:\n        /* \"blockpedia.sol\":3485:3486  0 */\n      0x00\n        /* \"blockpedia.sol\":3481:3482  i */\n      dup2\n        /* \"blockpedia.sol\":3481:3486  i > 0 */\n      gt\n        /* \"blockpedia.sol\":3429:3746  for (uint i = paginas[_indexPagina].versoes.length; i > 0; i--)\r... */\n      iszero\n      tag_175\n      jumpi\n        /* \"blockpedia.sol\":3517:3532  uint indexAtual */\n      0x00\n        /* \"blockpedia.sol\":3539:3540  1 */\n      0x01\n        /* \"blockpedia.sol\":3535:3536  i */\n      dup3\n        /* \"blockpedia.sol\":3535:3540  i - 1 */\n      tag_179\n      swap2\n      swap1\n      tag_180\n      jump\t// in\n    tag_179:\n        /* \"blockpedia.sol\":3517:3540  uint indexAtual = i - 1 */\n      swap1\n      pop\n        /* \"blockpedia.sol\":3559:3566  paginas */\n      0x01\n        /* \"blockpedia.sol\":3567:3579  _indexPagina */\n      dup5\n        /* \"blockpedia.sol\":3559:3580  paginas[_indexPagina] */\n      dup2\n      sload\n      dup2\n      lt\n      tag_181\n      jumpi\n      mstore(0x00, 0x4e487b7100000000000000000000000000000000000000000000000000000000)\n      mstore(0x04, 0x32)\n      revert(0x00, 0x24)\n    tag_181:\n      swap1\n      0x00\n      mstore\n      keccak256(0x00, 0x20)\n      swap1\n      0x04\n      mul\n      add\n        /* \"blockpedia.sol\":3559:3588  paginas[_indexPagina].versoes */\n      0x03\n      add\n        /* \"blockpedia.sol\":3589:3599  indexAtual */\n      dup2\n        /* \"blockpedia.sol\":3559:3600  paginas[_indexPagina].versoes[indexAtual] */\n      dup2\n      sload\n      dup2\n      lt\n      tag_183\n      jumpi\n      mstore(0x00, 0x4e487b7100000000000000000000000000000000000000000000000000000000)\n      mstore(0x04, 0x32)\n      revert(0x00, 0x24)\n    tag_183:\n      swap1\n      0x00\n      mstore\n      keccak256(0x00, 0x20)\n      swap1\n      0x03\n      mul\n      add\n        /* \"blockpedia.sol\":3559:3606  paginas[_indexPagina].versoes[indexAtual].ativo */\n      0x00\n      add\n      0x00\n      swap1\n      sload\n      swap1\n      0x0100\n      exp\n      swap1\n      div\n      0xff\n      and\n        /* \"blockpedia.sol\":3555:3735  if (paginas[_indexPagina].versoes[indexAtual].ativo)\r... */\n      iszero\n      tag_185\n      jumpi\n        /* \"blockpedia.sol\":3690:3695  false */\n      0x00\n        /* \"blockpedia.sol\":3640:3647  paginas */\n      0x01\n        /* \"blockpedia.sol\":3648:3660  _indexPagina */\n      dup6\n        /* \"blockpedia.sol\":3640:3661  paginas[_indexPagina] */\n      dup2\n      sload\n      dup2\n      lt\n      tag_186\n      jumpi\n      mstore(0x00, 0x4e487b7100000000000000000000000000000000000000000000000000000000)\n      mstore(0x04, 0x32)\n      revert(0x00, 0x24)\n    tag_186:\n      swap1\n      0x00\n      mstore\n      keccak256(0x00, 0x20)\n      swap1\n      0x04\n      mul\n      add\n        /* \"blockpedia.sol\":3640:3669  paginas[_indexPagina].versoes */\n      0x03\n      add\n        /* \"blockpedia.sol\":3670:3680  indexAtual */\n      dup3\n        /* \"blockpedia.sol\":3640:3681  paginas[_indexPagina].versoes[indexAtual] */\n      dup2\n      sload\n      dup2\n      lt\n      tag_188\n      jumpi\n      mstore(0x00, 0x4e487b7100000000000000000000000000000000000000000000000000000000)\n      mstore(0x04, 0x32)\n      revert(0x00, 0x24)\n    tag_188:\n      swap1\n      0x00\n      mstore\n      keccak256(0x00, 0x20)\n      swap1\n      0x03\n      mul\n      add\n        /* \"blockpedia.sol\":3640:3687  paginas[_indexPagina].versoes[indexAtual].ativo */\n      0x00\n      add\n      0x00\n        /* \"blockpedia.sol\":3640:3695  paginas[_indexPagina].versoes[indexAtual].ativo = false */\n      0x0100\n      exp\n      dup2\n      sload\n      dup2\n      0xff\n      mul\n      not\n      and\n      swap1\n      dup4\n      iszero\n      iszero\n      mul\n      or\n      swap1\n      sstore\n      pop\n        /* \"blockpedia.sol\":3714:3719  break */\n      pop\n      jump(tag_175)\n        /* \"blockpedia.sol\":3555:3735  if (paginas[_indexPagina].versoes[indexAtual].ativo)\r... */\n    tag_185:\n        /* \"blockpedia.sol\":3429:3746  for (uint i = paginas[_indexPagina].versoes.length; i > 0; i--)\r... */\n      pop\n        /* \"blockpedia.sol\":3488:3491  i-- */\n      dup1\n      dup1\n      tag_190\n      swap1\n      tag_191\n      jump\t// in\n    tag_190:\n      swap2\n      pop\n      pop\n        /* \"blockpedia.sol\":3429:3746  for (uint i = paginas[_indexPagina].versoes.length; i > 0; i--)\r... */\n      jump(tag_174)\n    tag_175:\n      pop\n        /* \"blockpedia.sol\":3811:3815  true */\n      0x01\n        /* \"blockpedia.sol\":3758:3765  paginas */\n      dup1\n        /* \"blockpedia.sol\":3766:3778  _indexPagina */\n      dup4\n        /* \"blockpedia.sol\":3758:3779  paginas[_indexPagina] */\n      dup2\n      sload\n      dup2\n      lt\n      tag_192\n      jumpi\n      mstore(0x00, 0x4e487b7100000000000000000000000000000000000000000000000000000000)\n      mstore(0x04, 0x32)\n      revert(0x00, 0x24)\n    tag_192:\n      swap1\n      0x00\n      mstore\n      keccak256(0x00, 0x20)\n      swap1\n      0x04\n      mul\n      add\n        /* \"blockpedia.sol\":3758:3787  paginas[_indexPagina].versoes */\n      0x03\n      add\n        /* \"blockpedia.sol\":3788:3801  _indexVersoes */\n      dup3\n        /* \"blockpedia.sol\":3758:3802  paginas[_indexPagina].versoes[_indexVersoes] */\n      dup2\n      sload\n      dup2\n      lt\n      tag_194\n      jumpi\n      mstore(0x00, 0x4e487b7100000000000000000000000000000000000000000000000000000000)\n      mstore(0x04, 0x32)\n      revert(0x00, 0x24)\n    tag_194:\n      swap1\n      0x00\n      mstore\n      keccak256(0x00, 0x20)\n      swap1\n      0x03\n      mul\n      add\n        /* \"blockpedia.sol\":3758:3808  paginas[_indexPagina].versoes[_indexVersoes].ativo */\n      0x00\n      add\n      0x00\n        /* \"blockpedia.sol\":3758:3815  paginas[_indexPagina].versoes[_indexVersoes].ativo = true */\n      0x0100\n      exp\n      dup2\n      sload\n      dup2\n      0xff\n      mul\n      not\n      and\n      swap1\n      dup4\n      iszero\n      iszero\n      mul\n      or\n      swap1\n      sstore\n      pop\n        /* \"blockpedia.sol\":5862:5863  _ */\n    tag_155:\n        /* \"blockpedia.sol\":2907:3823  function ativaVersaoPorIndexVersoesEIndexPaginas(uint _indexPagina, uint _indexVersoes) public somenteSeAtivo\r... */\n      pop\n      pop\n      jump\t// out\n        /* \"blockpedia.sol\":89:113  bool public ativo = true */\n    tag_61:\n      0x00\n      dup1\n      sload\n      swap1\n      0x0100\n      exp\n      swap1\n      div\n      0xff\n      and\n      dup2\n      jump\t// out\n        /* \"blockpedia.sol\":4127:4532  function ativaPaginaPorIndexPaginas(uint _indexPagina)public somenteSeAtivo\r... */\n    tag_67:\n        /* \"blockpedia.sol\":5789:5794  ativo */\n      0x00\n      dup1\n      sload\n      swap1\n      0x0100\n      exp\n      swap1\n      div\n      0xff\n      and\n        /* \"blockpedia.sol\":5781:5851  require(ativo, \"A acao so e permitida quando a Blockpedia esta ativa\") */\n      tag_197\n      jumpi\n      mload(0x40)\n      0x08c379a000000000000000000000000000000000000000000000000000000000\n      dup2\n      mstore\n      0x04\n      add\n      tag_198\n      swap1\n      tag_90\n      jump\t// in\n    tag_198:\n      mload(0x40)\n      dup1\n      swap2\n      sub\n      swap1\n      revert\n    tag_197:\n        /* \"blockpedia.sol\":4242:4249  paginas */\n      0x01\n        /* \"blockpedia.sol\":4242:4256  paginas.length */\n      dup1\n      sload\n      swap1\n      pop\n        /* \"blockpedia.sol\":4227:4239  _indexPagina */\n      dup2\n        /* \"blockpedia.sol\":4227:4256  _indexPagina < paginas.length */\n      lt\n        /* \"blockpedia.sol\":4219:4293  require(_indexPagina < paginas.length, \"Indice da pagina fora do alcance\") */\n      tag_200\n      jumpi\n      mload(0x40)\n      0x08c379a000000000000000000000000000000000000000000000000000000000\n      dup2\n      mstore\n      0x04\n      add\n      tag_201\n      swap1\n      tag_158\n      jump\t// in\n    tag_201:\n      mload(0x40)\n      dup1\n      swap2\n      sub\n      swap1\n      revert\n    tag_200:\n        /* \"blockpedia.sol\":4313:4360  existeTituloAtivo(paginas[_indexPagina].titulo) */\n      tag_202\n        /* \"blockpedia.sol\":4331:4338  paginas */\n      0x01\n        /* \"blockpedia.sol\":4339:4351  _indexPagina */\n      dup3\n        /* \"blockpedia.sol\":4331:4352  paginas[_indexPagina] */\n      dup2\n      sload\n      dup2\n      lt\n      tag_203\n      jumpi\n      mstore(0x00, 0x4e487b7100000000000000000000000000000000000000000000000000000000)\n      mstore(0x04, 0x32)\n      revert(0x00, 0x24)\n    tag_203:\n      swap1\n      0x00\n      mstore\n      keccak256(0x00, 0x20)\n      swap1\n      0x04\n      mul\n      add\n        /* \"blockpedia.sol\":4331:4359  paginas[_indexPagina].titulo */\n      0x02\n      add\n        /* \"blockpedia.sol\":4313:4360  existeTituloAtivo(paginas[_indexPagina].titulo) */\n      dup1\n      sload\n      tag_205\n      swap1\n      tag_112\n      jump\t// in\n    tag_205:\n      dup1\n      0x1f\n      add\n      0x20\n      dup1\n      swap2\n      div\n      mul\n      0x20\n      add\n      mload(0x40)\n      swap1\n      dup2\n      add\n      0x40\n      mstore\n      dup1\n      swap3\n      swap2\n      swap1\n      dup2\n      dup2\n      mstore\n      0x20\n      add\n      dup3\n      dup1\n      sload\n      tag_206\n      swap1\n      tag_112\n      jump\t// in\n    tag_206:\n      dup1\n      iszero\n      tag_207\n      jumpi\n      dup1\n      0x1f\n      lt\n      tag_208\n      jumpi\n      0x0100\n      dup1\n      dup4\n      sload\n      div\n      mul\n      dup4\n      mstore\n      swap2\n      0x20\n      add\n      swap2\n      jump(tag_207)\n    tag_208:\n      dup3\n      add\n      swap2\n      swap1\n      0x00\n      mstore\n      keccak256(0x00, 0x20)\n      swap1\n    tag_209:\n      dup2\n      sload\n      dup2\n      mstore\n      swap1\n      0x01\n      add\n      swap1\n      0x20\n      add\n      dup1\n      dup4\n      gt\n      tag_209\n      jumpi\n      dup3\n      swap1\n      sub\n      0x1f\n      and\n      dup3\n      add\n      swap2\n    tag_207:\n      pop\n      pop\n      pop\n      pop\n      pop\n        /* \"blockpedia.sol\":4313:4330  existeTituloAtivo */\n      tag_93\n        /* \"blockpedia.sol\":4313:4360  existeTituloAtivo(paginas[_indexPagina].titulo) */\n      jump\t// in\n    tag_202:\n        /* \"blockpedia.sol\":4312:4360  !existeTituloAtivo(paginas[_indexPagina].titulo) */\n      iszero\n        /* \"blockpedia.sol\":4304:4403  require(!existeTituloAtivo(paginas[_indexPagina].titulo), \"Ja existe pagina ativa com este titulo\") */\n      tag_210\n      jumpi\n      mload(0x40)\n      0x08c379a000000000000000000000000000000000000000000000000000000000\n      dup2\n      mstore\n      0x04\n      add\n      tag_211\n      swap1\n      tag_96\n      jump\t// in\n    tag_211:\n      mload(0x40)\n      dup1\n      swap2\n      sub\n      swap1\n      revert\n    tag_210:\n        /* \"blockpedia.sol\":4419:4426  paginas */\n      0x01\n        /* \"blockpedia.sol\":4427:4439  _indexPagina */\n      dup2\n        /* \"blockpedia.sol\":4419:4440  paginas[_indexPagina] */\n      dup2\n      sload\n      dup2\n      lt\n      tag_212\n      jumpi\n      mstore(0x00, 0x4e487b7100000000000000000000000000000000000000000000000000000000)\n      mstore(0x04, 0x32)\n      revert(0x00, 0x24)\n    tag_212:\n      swap1\n      0x00\n      mstore\n      keccak256(0x00, 0x20)\n      swap1\n      0x04\n      mul\n      add\n        /* \"blockpedia.sol\":4419:4446  paginas[_indexPagina].ativo */\n      0x00\n      add\n      0x00\n      swap1\n      sload\n      swap1\n      0x0100\n      exp\n      swap1\n      div\n      0xff\n      and\n        /* \"blockpedia.sol\":4416:4468  if(paginas[_indexPagina].ativo)\r... */\n      iszero\n      tag_214\n      jumpi\n        /* \"blockpedia.sol\":4461:4468  return; */\n      jump(tag_199)\n        /* \"blockpedia.sol\":4416:4468  if(paginas[_indexPagina].ativo)\r... */\n    tag_214:\n        /* \"blockpedia.sol\":4520:4524  true */\n      0x01\n        /* \"blockpedia.sol\":4492:4499  paginas */\n      dup1\n        /* \"blockpedia.sol\":4500:4512  _indexPagina */\n      dup3\n        /* \"blockpedia.sol\":4492:4513  paginas[_indexPagina] */\n      dup2\n      sload\n      dup2\n      lt\n      tag_215\n      jumpi\n      mstore(0x00, 0x4e487b7100000000000000000000000000000000000000000000000000000000)\n      mstore(0x04, 0x32)\n      revert(0x00, 0x24)\n    tag_215:\n      swap1\n      0x00\n      mstore\n      keccak256(0x00, 0x20)\n      swap1\n      0x04\n      mul\n      add\n        /* \"blockpedia.sol\":4492:4519  paginas[_indexPagina].ativo */\n      0x00\n      add\n      0x00\n        /* \"blockpedia.sol\":4492:4524  paginas[_indexPagina].ativo=true */\n      0x0100\n      exp\n      dup2\n      sload\n      dup2\n      0xff\n      mul\n      not\n      and\n      swap1\n      dup4\n      iszero\n      iszero\n      mul\n      or\n      swap1\n      sstore\n      pop\n        /* \"blockpedia.sol\":5862:5863  _ */\n    tag_199:\n        /* \"blockpedia.sol\":4127:4532  function ativaPaginaPorIndexPaginas(uint _indexPagina)public somenteSeAtivo\r... */\n      pop\n      jump\t// out\n        /* \"blockpedia.sol\":2378:2899  function adicionaNovaVercaoDesativadaAPaginaPorIndexPaginas(uint _index, string memory _conteudo) public somenteSeAtivo\r... */\n    tag_72:\n        /* \"blockpedia.sol\":5789:5794  ativo */\n      0x00\n      dup1\n      sload\n      swap1\n      0x0100\n      exp\n      swap1\n      div\n      0xff\n      and\n        /* \"blockpedia.sol\":5781:5851  require(ativo, \"A acao so e permitida quando a Blockpedia esta ativa\") */\n      tag_218\n      jumpi\n      mload(0x40)\n      0x08c379a000000000000000000000000000000000000000000000000000000000\n      dup2\n      mstore\n      0x04\n      add\n      tag_219\n      swap1\n      tag_90\n      jump\t// in\n    tag_219:\n      mload(0x40)\n      dup1\n      swap2\n      sub\n      swap1\n      revert\n    tag_218:\n        /* \"blockpedia.sol\":2531:2538  paginas */\n      0x01\n        /* \"blockpedia.sol\":2531:2545  paginas.length */\n      dup1\n      sload\n      swap1\n      pop\n        /* \"blockpedia.sol\":2522:2528  _index */\n      dup3\n        /* \"blockpedia.sol\":2522:2545  _index < paginas.length */\n      lt\n        /* \"blockpedia.sol\":2514:2572  require(_index < paginas.length, \"Indice fora do alcance\") */\n      tag_221\n      jumpi\n      mload(0x40)\n      0x08c379a000000000000000000000000000000000000000000000000000000000\n      dup2\n      mstore\n      0x04\n      add\n      tag_222\n      swap1\n      tag_134\n      jump\t// in\n    tag_222:\n      mload(0x40)\n      dup1\n      swap2\n      sub\n      swap1\n      revert\n    tag_221:\n        /* \"blockpedia.sol\":2591:2598  paginas */\n      0x01\n        /* \"blockpedia.sol\":2599:2605  _index */\n      dup3\n        /* \"blockpedia.sol\":2591:2606  paginas[_index] */\n      dup2\n      sload\n      dup2\n      lt\n      tag_223\n      jumpi\n      mstore(0x00, 0x4e487b7100000000000000000000000000000000000000000000000000000000)\n      mstore(0x04, 0x32)\n      revert(0x00, 0x24)\n    tag_223:\n      swap1\n      0x00\n      mstore\n      keccak256(0x00, 0x20)\n      swap1\n      0x04\n      mul\n      add\n        /* \"blockpedia.sol\":2591:2612  paginas[_index].ativo */\n      0x00\n      add\n      0x00\n      swap1\n      sload\n      swap1\n      0x0100\n      exp\n      swap1\n      div\n      0xff\n      and\n        /* \"blockpedia.sol\":2583:2684  require(paginas[_index].ativo, \"A adicao de novas vercoes so e permitida quando a pagina esta ativa\") */\n      tag_225\n      jumpi\n      mload(0x40)\n      0x08c379a000000000000000000000000000000000000000000000000000000000\n      dup2\n      mstore\n      0x04\n      add\n      tag_226\n      swap1\n      tag_227\n      jump\t// in\n    tag_226:\n      mload(0x40)\n      dup1\n      swap2\n      sub\n      swap1\n      revert\n    tag_225:\n        /* \"blockpedia.sol\":2705:2712  paginas */\n      0x01\n        /* \"blockpedia.sol\":2713:2719  _index */\n      dup3\n        /* \"blockpedia.sol\":2705:2720  paginas[_index] */\n      dup2\n      sload\n      dup2\n      lt\n      tag_228\n      jumpi\n      mstore(0x00, 0x4e487b7100000000000000000000000000000000000000000000000000000000)\n      mstore(0x04, 0x32)\n      revert(0x00, 0x24)\n    tag_228:\n      swap1\n      0x00\n      mstore\n      keccak256(0x00, 0x20)\n      swap1\n      0x04\n      mul\n      add\n        /* \"blockpedia.sol\":2705:2728  paginas[_index].versoes */\n      0x03\n      add\n        /* \"blockpedia.sol\":2734:2890  Versao({\r... */\n      mload(0x40)\n      dup1\n      0x80\n      add\n      0x40\n      mstore\n      dup1\n        /* \"blockpedia.sol\":2763:2768  false */\n      0x00\n        /* \"blockpedia.sol\":2734:2890  Versao({\r... */\n      iszero\n      iszero\n      dup2\n      mstore\n      0x20\n      add\n        /* \"blockpedia.sol\":2790:2800  msg.sender */\n      caller\n        /* \"blockpedia.sol\":2734:2890  Versao({\r... */\n      0xffffffffffffffffffffffffffffffffffffffff\n      and\n      dup2\n      mstore\n      0x20\n      add\n        /* \"blockpedia.sol\":2829:2844  block.timestamp */\n      timestamp\n        /* \"blockpedia.sol\":2734:2890  Versao({\r... */\n      dup2\n      mstore\n      0x20\n      add\n        /* \"blockpedia.sol\":2869:2878  _conteudo */\n      dup4\n        /* \"blockpedia.sol\":2734:2890  Versao({\r... */\n      dup2\n      mstore\n      pop\n        /* \"blockpedia.sol\":2705:2891  paginas[_index].versoes.push(Versao({\r... */\n      swap1\n      dup1\n      0x01\n      dup2\n      sload\n      add\n      dup1\n      dup3\n      sstore\n      dup1\n      swap2\n      pop\n      pop\n      0x01\n      swap1\n      sub\n      swap1\n      0x00\n      mstore\n      keccak256(0x00, 0x20)\n      swap1\n      0x03\n      mul\n      add\n      0x00\n      swap1\n      swap2\n      swap1\n      swap2\n      swap1\n      swap2\n      pop\n      0x00\n      dup3\n      add\n      mload\n      dup2\n      0x00\n      add\n      exp(0x0100, 0x00)\n      dup2\n      sload\n      dup2\n      0xff\n      mul\n      not\n      and\n      swap1\n      dup4\n      iszero\n      iszero\n      mul\n      or\n      swap1\n      sstore\n      pop\n      0x20\n      dup3\n      add\n      mload\n      dup2\n      0x00\n      add\n      exp(0x0100, 0x01)\n      dup2\n      sload\n      dup2\n      0xffffffffffffffffffffffffffffffffffffffff\n      mul\n      not\n      and\n      swap1\n      dup4\n      0xffffffffffffffffffffffffffffffffffffffff\n      and\n      mul\n      or\n      swap1\n      sstore\n      pop\n      0x40\n      dup3\n      add\n      mload\n      dup2\n      0x01\n      add\n      sstore\n      0x60\n      dup3\n      add\n      mload\n      dup2\n      0x02\n      add\n      swap1\n      dup1\n      mload\n      swap1\n      0x20\n      add\n      swap1\n      tag_231\n      swap3\n      swap2\n      swap1\n      tag_99\n      jump\t// in\n    tag_231:\n      pop\n      pop\n      pop\n        /* \"blockpedia.sol\":2378:2899  function adicionaNovaVercaoDesativadaAPaginaPorIndexPaginas(uint _index, string memory _conteudo) public somenteSeAtivo\r... */\n      pop\n      pop\n      jump\t// out\n        /* \"blockpedia.sol\":3831:4119  function desativaPaginaPorIndexPaginas(uint _indexPagina)public somenteSeAtivo\r... */\n    tag_76:\n        /* \"blockpedia.sol\":5789:5794  ativo */\n      0x00\n      dup1\n      sload\n      swap1\n      0x0100\n      exp\n      swap1\n      div\n      0xff\n      and\n        /* \"blockpedia.sol\":5781:5851  require(ativo, \"A acao so e permitida quando a Blockpedia esta ativa\") */\n      tag_233\n      jumpi\n      mload(0x40)\n      0x08c379a000000000000000000000000000000000000000000000000000000000\n      dup2\n      mstore\n      0x04\n      add\n      tag_234\n      swap1\n      tag_90\n      jump\t// in\n    tag_234:\n      mload(0x40)\n      dup1\n      swap2\n      sub\n      swap1\n      revert\n    tag_233:\n        /* \"blockpedia.sol\":3949:3956  paginas */\n      0x01\n        /* \"blockpedia.sol\":3949:3963  paginas.length */\n      dup1\n      sload\n      swap1\n      pop\n        /* \"blockpedia.sol\":3934:3946  _indexPagina */\n      dup2\n        /* \"blockpedia.sol\":3934:3963  _indexPagina < paginas.length */\n      lt\n        /* \"blockpedia.sol\":3926:4000  require(_indexPagina < paginas.length, \"Indice da pagina fora do alcance\") */\n      tag_236\n      jumpi\n      mload(0x40)\n      0x08c379a000000000000000000000000000000000000000000000000000000000\n      dup2\n      mstore\n      0x04\n      add\n      tag_237\n      swap1\n      tag_158\n      jump\t// in\n    tag_237:\n      mload(0x40)\n      dup1\n      swap2\n      sub\n      swap1\n      revert\n    tag_236:\n        /* \"blockpedia.sol\":4017:4024  paginas */\n      0x01\n        /* \"blockpedia.sol\":4025:4037  _indexPagina */\n      dup2\n        /* \"blockpedia.sol\":4017:4038  paginas[_indexPagina] */\n      dup2\n      sload\n      dup2\n      lt\n      tag_238\n      jumpi\n      mstore(0x00, 0x4e487b7100000000000000000000000000000000000000000000000000000000)\n      mstore(0x04, 0x32)\n      revert(0x00, 0x24)\n    tag_238:\n      swap1\n      0x00\n      mstore\n      keccak256(0x00, 0x20)\n      swap1\n      0x04\n      mul\n      add\n        /* \"blockpedia.sol\":4017:4044  paginas[_indexPagina].ativo */\n      0x00\n      add\n      0x00\n      swap1\n      sload\n      swap1\n      0x0100\n      exp\n      swap1\n      div\n      0xff\n      and\n        /* \"blockpedia.sol\":4013:4066  if(!paginas[_indexPagina].ativo)\r... */\n      tag_240\n      jumpi\n        /* \"blockpedia.sol\":4059:4066  return; */\n      jump(tag_235)\n        /* \"blockpedia.sol\":4013:4066  if(!paginas[_indexPagina].ativo)\r... */\n    tag_240:\n        /* \"blockpedia.sol\":4106:4111  false */\n      0x00\n        /* \"blockpedia.sol\":4078:4085  paginas */\n      0x01\n        /* \"blockpedia.sol\":4086:4098  _indexPagina */\n      dup3\n        /* \"blockpedia.sol\":4078:4099  paginas[_indexPagina] */\n      dup2\n      sload\n      dup2\n      lt\n      tag_241\n      jumpi\n      mstore(0x00, 0x4e487b7100000000000000000000000000000000000000000000000000000000)\n      mstore(0x04, 0x32)\n      revert(0x00, 0x24)\n    tag_241:\n      swap1\n      0x00\n      mstore\n      keccak256(0x00, 0x20)\n      swap1\n      0x04\n      mul\n      add\n        /* \"blockpedia.sol\":4078:4105  paginas[_indexPagina].ativo */\n      0x00\n      add\n      0x00\n        /* \"blockpedia.sol\":4078:4111  paginas[_indexPagina].ativo=false */\n      0x0100\n      exp\n      dup2\n      sload\n      dup2\n      0xff\n      mul\n      not\n      and\n      swap1\n      dup4\n      iszero\n      iszero\n      mul\n      or\n      swap1\n      sstore\n      pop\n        /* \"blockpedia.sol\":5862:5863  _ */\n    tag_235:\n        /* \"blockpedia.sol\":3831:4119  function desativaPaginaPorIndexPaginas(uint _indexPagina)public somenteSeAtivo\r... */\n      pop\n      jump\t// out\n        /* \"blockpedia.sol\":202:225  Pagina[] public paginas */\n    tag_80:\n      0x01\n      dup2\n      dup2\n      sload\n      dup2\n      lt\n      tag_243\n      jumpi\n      0x00\n      dup1\n      revert\n    tag_243:\n      swap1\n      0x00\n      mstore\n      keccak256(0x00, 0x20)\n      swap1\n      0x04\n      mul\n      add\n      0x00\n      swap2\n      pop\n      swap1\n      pop\n      dup1\n      0x00\n      add\n      0x00\n      swap1\n      sload\n      swap1\n      0x0100\n      exp\n      swap1\n      div\n      0xff\n      and\n      swap1\n      dup1\n      0x00\n      add\n      0x01\n      swap1\n      sload\n      swap1\n      0x0100\n      exp\n      swap1\n      div\n      0xffffffffffffffffffffffffffffffffffffffff\n      and\n      swap1\n      dup1\n      0x01\n      add\n      sload\n      swap1\n      dup1\n      0x02\n      add\n      dup1\n      sload\n      tag_245\n      swap1\n      tag_112\n      jump\t// in\n    tag_245:\n      dup1\n      0x1f\n      add\n      0x20\n      dup1\n      swap2\n      div\n      mul\n      0x20\n      add\n      mload(0x40)\n      swap1\n      dup2\n      add\n      0x40\n      mstore\n      dup1\n      swap3\n      swap2\n      swap1\n      dup2\n      dup2\n      mstore\n      0x20\n      add\n      dup3\n      dup1\n      sload\n      tag_246\n      swap1\n      tag_112\n      jump\t// in\n    tag_246:\n      dup1\n      iszero\n      tag_247\n      jumpi\n      dup1\n      0x1f\n      lt\n      tag_248\n      jumpi\n      0x0100\n      dup1\n      dup4\n      sload\n      div\n      mul\n      dup4\n      mstore\n      swap2\n      0x20\n      add\n      swap2\n      jump(tag_247)\n    tag_248:\n      dup3\n      add\n      swap2\n      swap1\n      0x00\n      mstore\n      keccak256(0x00, 0x20)\n      swap1\n    tag_249:\n      dup2\n      sload\n      dup2\n      mstore\n      swap1\n      0x01\n      add\n      swap1\n      0x20\n      add\n      dup1\n      dup4\n      gt\n      tag_249\n      jumpi\n      dup3\n      swap1\n      sub\n      0x1f\n      and\n      dup3\n      add\n      swap2\n    tag_247:\n      pop\n      pop\n      pop\n      pop\n      pop\n      swap1\n      pop\n      dup5\n      jump\t// out\n        /* \"blockpedia.sol\":1435:1756  function existeTituloAtivo(string memory _titulo) internal view returns (bool)\r... */\n    tag_93:\n        /* \"blockpedia.sol\":1508:1512  bool */\n      0x00\n        /* \"blockpedia.sol\":1535:1541  uint i */\n      dup1\n        /* \"blockpedia.sol\":1544:1545  0 */\n      0x00\n        /* \"blockpedia.sol\":1535:1545  uint i = 0 */\n      swap1\n      pop\n        /* \"blockpedia.sol\":1530:1726  for (uint i = 0; i < paginas.length; i++)\r... */\n    tag_251:\n        /* \"blockpedia.sol\":1551:1558  paginas */\n      0x01\n        /* \"blockpedia.sol\":1551:1565  paginas.length */\n      dup1\n      sload\n      swap1\n      pop\n        /* \"blockpedia.sol\":1547:1548  i */\n      dup2\n        /* \"blockpedia.sol\":1547:1565  i < paginas.length */\n      lt\n        /* \"blockpedia.sol\":1530:1726  for (uint i = 0; i < paginas.length; i++)\r... */\n      iszero\n      tag_252\n      jumpi\n        /* \"blockpedia.sol\":1600:1607  paginas */\n      0x01\n        /* \"blockpedia.sol\":1608:1609  i */\n      dup2\n        /* \"blockpedia.sol\":1600:1610  paginas[i] */\n      dup2\n      sload\n      dup2\n      lt\n      tag_254\n      jumpi\n      mstore(0x00, 0x4e487b7100000000000000000000000000000000000000000000000000000000)\n      mstore(0x04, 0x32)\n      revert(0x00, 0x24)\n    tag_254:\n      swap1\n      0x00\n      mstore\n      keccak256(0x00, 0x20)\n      swap1\n      0x04\n      mul\n      add\n        /* \"blockpedia.sol\":1600:1616  paginas[i].ativo */\n      0x00\n      add\n      0x00\n      swap1\n      sload\n      swap1\n      0x0100\n      exp\n      swap1\n      div\n      0xff\n      and\n        /* \"blockpedia.sol\":1596:1714  if (paginas[i].ativo)\r... */\n      iszero\n      tag_256\n      jumpi\n        /* \"blockpedia.sol\":1639:1680  comparaString(paginas[i].titulo, _titulo) */\n      tag_257\n        /* \"blockpedia.sol\":1653:1660  paginas */\n      0x01\n        /* \"blockpedia.sol\":1661:1662  i */\n      dup3\n        /* \"blockpedia.sol\":1653:1663  paginas[i] */\n      dup2\n      sload\n      dup2\n      lt\n      tag_258\n      jumpi\n      mstore(0x00, 0x4e487b7100000000000000000000000000000000000000000000000000000000)\n      mstore(0x04, 0x32)\n      revert(0x00, 0x24)\n    tag_258:\n      swap1\n      0x00\n      mstore\n      keccak256(0x00, 0x20)\n      swap1\n      0x04\n      mul\n      add\n        /* \"blockpedia.sol\":1653:1670  paginas[i].titulo */\n      0x02\n      add\n        /* \"blockpedia.sol\":1639:1680  comparaString(paginas[i].titulo, _titulo) */\n      dup1\n      sload\n      tag_260\n      swap1\n      tag_112\n      jump\t// in\n    tag_260:\n      dup1\n      0x1f\n      add\n      0x20\n      dup1\n      swap2\n      div\n      mul\n      0x20\n      add\n      mload(0x40)\n      swap1\n      dup2\n      add\n      0x40\n      mstore\n      dup1\n      swap3\n      swap2\n      swap1\n      dup2\n      dup2\n      mstore\n      0x20\n      add\n      dup3\n      dup1\n      sload\n      tag_261\n      swap1\n      tag_112\n      jump\t// in\n    tag_261:\n      dup1\n      iszero\n      tag_262\n      jumpi\n      dup1\n      0x1f\n      lt\n      tag_263\n      jumpi\n      0x0100\n      dup1\n      dup4\n      sload\n      div\n      mul\n      dup4\n      mstore\n      swap2\n      0x20\n      add\n      swap2\n      jump(tag_262)\n    tag_263:\n      dup3\n      add\n      swap2\n      swap1\n      0x00\n      mstore\n      keccak256(0x00, 0x20)\n      swap1\n    tag_264:\n      dup2\n      sload\n      dup2\n      mstore\n      swap1\n      0x01\n      add\n      swap1\n      0x20\n      add\n      dup1\n      dup4\n      gt\n      tag_264\n      jumpi\n      dup3\n      swap1\n      sub\n      0x1f\n      and\n      dup3\n      add\n      swap2\n    tag_262:\n      pop\n      pop\n      pop\n      pop\n      pop\n        /* \"blockpedia.sol\":1672:1679  _titulo */\n      dup5\n        /* \"blockpedia.sol\":1639:1652  comparaString */\n      tag_117\n        /* \"blockpedia.sol\":1639:1680  comparaString(paginas[i].titulo, _titulo) */\n      jump\t// in\n    tag_257:\n        /* \"blockpedia.sol\":1635:1714  if (comparaString(paginas[i].titulo, _titulo))\r... */\n      iszero\n      tag_265\n      jumpi\n        /* \"blockpedia.sol\":1710:1714  true */\n      0x01\n        /* \"blockpedia.sol\":1703:1714  return true */\n      swap2\n      pop\n      pop\n      jump(tag_250)\n        /* \"blockpedia.sol\":1635:1714  if (comparaString(paginas[i].titulo, _titulo))\r... */\n    tag_265:\n        /* \"blockpedia.sol\":1596:1714  if (paginas[i].ativo)\r... */\n    tag_256:\n        /* \"blockpedia.sol\":1567:1570  i++ */\n      dup1\n      dup1\n      tag_266\n      swap1\n      tag_121\n      jump\t// in\n    tag_266:\n      swap2\n      pop\n      pop\n        /* \"blockpedia.sol\":1530:1726  for (uint i = 0; i < paginas.length; i++)\r... */\n      jump(tag_251)\n    tag_252:\n      pop\n        /* \"blockpedia.sol\":1743:1748  false */\n      0x00\n        /* \"blockpedia.sol\":1736:1748  return false */\n      swap1\n      pop\n        /* \"blockpedia.sol\":1435:1756  function existeTituloAtivo(string memory _titulo) internal view returns (bool)\r... */\n    tag_250:\n      swap2\n      swap1\n      pop\n      jump\t// out\n        /* \"blockpedia.sol\":5261:5733  function comparaString(string memory _primeiraString, string memory _segundaString)internal pure returns(bool)\r... */\n    tag_117:\n        /* \"blockpedia.sol\":5366:5370  bool */\n      0x00\n        /* \"blockpedia.sol\":5695:5709  _segundaString */\n      dup2\n        /* \"blockpedia.sol\":5678:5710  abi.encodePacked(_segundaString) */\n      add(0x20, mload(0x40))\n      tag_268\n      swap2\n      swap1\n      tag_269\n      jump\t// in\n    tag_268:\n      mload(0x40)\n      0x20\n      dup2\n      dup4\n      sub\n      sub\n      dup2\n      mstore\n      swap1\n      0x40\n      mstore\n        /* \"blockpedia.sol\":5668:5711  keccak256(abi.encodePacked(_segundaString)) */\n      dup1\n      mload\n      swap1\n      0x20\n      add\n      keccak256\n        /* \"blockpedia.sol\":5647:5662  _primeiraString */\n      dup4\n        /* \"blockpedia.sol\":5630:5663  abi.encodePacked(_primeiraString) */\n      add(0x20, mload(0x40))\n      tag_270\n      swap2\n      swap1\n      tag_269\n      jump\t// in\n    tag_270:\n      mload(0x40)\n      0x20\n      dup2\n      dup4\n      sub\n      sub\n      dup2\n      mstore\n      swap1\n      0x40\n      mstore\n        /* \"blockpedia.sol\":5620:5664  keccak256(abi.encodePacked(_primeiraString)) */\n      dup1\n      mload\n      swap1\n      0x20\n      add\n      keccak256\n        /* \"blockpedia.sol\":5620:5711  keccak256(abi.encodePacked(_primeiraString)) == keccak256(abi.encodePacked(_segundaString)) */\n      eq\n        /* \"blockpedia.sol\":5619:5725  (keccak256(abi.encodePacked(_primeiraString)) == keccak256(abi.encodePacked(_segundaString))) ? true:false */\n      tag_271\n      jumpi\n        /* \"blockpedia.sol\":5720:5725  false */\n      0x00\n        /* \"blockpedia.sol\":5619:5725  (keccak256(abi.encodePacked(_primeiraString)) == keccak256(abi.encodePacked(_segundaString))) ? true:false */\n      jump(tag_272)\n    tag_271:\n        /* \"blockpedia.sol\":5715:5719  true */\n      0x01\n        /* \"blockpedia.sol\":5619:5725  (keccak256(abi.encodePacked(_primeiraString)) == keccak256(abi.encodePacked(_segundaString))) ? true:false */\n    tag_272:\n        /* \"blockpedia.sol\":5612:5725  return (keccak256(abi.encodePacked(_primeiraString)) == keccak256(abi.encodePacked(_segundaString))) ? true:false */\n      swap1\n      pop\n        /* \"blockpedia.sol\":5261:5733  function comparaString(string memory _primeiraString, string memory _segundaString)internal pure returns(bool)\r... */\n      swap3\n      swap2\n      pop\n      pop\n      jump\t// out\n        /* \"blockpedia.sol\":2026:2370  function getVersaoValidaDeUmaPagina(Pagina memory _pagina)internal pure returns (Versao memory)\r... */\n    tag_151:\n        /* \"blockpedia.sol\":2107:2120  Versao memory */\n      tag_273\n      tag_274\n      jump\t// in\n    tag_273:\n        /* \"blockpedia.sol\":2142:2148  uint i */\n      0x00\n        /* \"blockpedia.sol\":2138:2294  for(uint i = 0; i < _pagina.versoes.length; i++)\r... */\n    tag_276:\n        /* \"blockpedia.sol\":2158:2165  _pagina */\n      dup3\n        /* \"blockpedia.sol\":2158:2173  _pagina.versoes */\n      0x80\n      add\n      mload\n        /* \"blockpedia.sol\":2158:2180  _pagina.versoes.length */\n      mload\n        /* \"blockpedia.sol\":2154:2155  i */\n      dup2\n        /* \"blockpedia.sol\":2154:2180  i < _pagina.versoes.length */\n      lt\n        /* \"blockpedia.sol\":2138:2294  for(uint i = 0; i < _pagina.versoes.length; i++)\r... */\n      iszero\n      tag_277\n      jumpi\n        /* \"blockpedia.sol\":2214:2221  _pagina */\n      dup3\n        /* \"blockpedia.sol\":2214:2229  _pagina.versoes */\n      0x80\n      add\n      mload\n        /* \"blockpedia.sol\":2230:2231  i */\n      dup2\n        /* \"blockpedia.sol\":2214:2232  _pagina.versoes[i] */\n      dup2\n      mload\n      dup2\n      lt\n      tag_279\n      jumpi\n      mstore(0x00, 0x4e487b7100000000000000000000000000000000000000000000000000000000)\n      mstore(0x04, 0x32)\n      revert(0x00, 0x24)\n    tag_279:\n      0x20\n      mul\n      0x20\n      add\n      add\n      mload\n        /* \"blockpedia.sol\":2214:2238  _pagina.versoes[i].ativo */\n      0x00\n      add\n      mload\n        /* \"blockpedia.sol\":2211:2282  if(_pagina.versoes[i].ativo)\r... */\n      iszero\n      tag_280\n      jumpi\n        /* \"blockpedia.sol\":2264:2271  _pagina */\n      dup3\n        /* \"blockpedia.sol\":2264:2279  _pagina.versoes */\n      0x80\n      add\n      mload\n        /* \"blockpedia.sol\":2280:2281  i */\n      dup2\n        /* \"blockpedia.sol\":2264:2282  _pagina.versoes[i] */\n      dup2\n      mload\n      dup2\n      lt\n      tag_281\n      jumpi\n      mstore(0x00, 0x4e487b7100000000000000000000000000000000000000000000000000000000)\n      mstore(0x04, 0x32)\n      revert(0x00, 0x24)\n    tag_281:\n      0x20\n      mul\n      0x20\n      add\n      add\n      mload\n        /* \"blockpedia.sol\":2257:2282  return _pagina.versoes[i] */\n      swap2\n      pop\n      pop\n      jump(tag_275)\n        /* \"blockpedia.sol\":2211:2282  if(_pagina.versoes[i].ativo)\r... */\n    tag_280:\n        /* \"blockpedia.sol\":2182:2185  i++ */\n      dup1\n      dup1\n      tag_282\n      swap1\n      tag_121\n      jump\t// in\n    tag_282:\n      swap2\n      pop\n      pop\n        /* \"blockpedia.sol\":2138:2294  for(uint i = 0; i < _pagina.versoes.length; i++)\r... */\n      jump(tag_276)\n    tag_277:\n      pop\n        /* \"blockpedia.sol\":2304:2362  revert(\"Nenhuma vercao ativa encontrada para esta pagina\") */\n      mload(0x40)\n      0x08c379a000000000000000000000000000000000000000000000000000000000\n      dup2\n      mstore\n      0x04\n      add\n      tag_283\n      swap1\n      tag_284\n      jump\t// in\n    tag_283:\n      mload(0x40)\n      dup1\n      swap2\n      sub\n      swap1\n      revert\n        /* \"blockpedia.sol\":2026:2370  function getVersaoValidaDeUmaPagina(Pagina memory _pagina)internal pure returns (Versao memory)\r... */\n    tag_275:\n      swap2\n      swap1\n      pop\n      jump\t// out\n    tag_99:\n      dup3\n      dup1\n      sload\n      tag_285\n      swap1\n      tag_112\n      jump\t// in\n    tag_285:\n      swap1\n      0x00\n      mstore\n      keccak256(0x00, 0x20)\n      swap1\n      0x1f\n      add\n      0x20\n      swap1\n      div\n      dup2\n      add\n      swap3\n      dup3\n      tag_287\n      jumpi\n      0x00\n      dup6\n      sstore\n      jump(tag_286)\n    tag_287:\n      dup3\n      0x1f\n      lt\n      tag_288\n      jumpi\n      dup1\n      mload\n      not(0xff)\n      and\n      dup4\n      dup1\n      add\n      or\n      dup6\n      sstore\n      jump(tag_286)\n    tag_288:\n      dup3\n      dup1\n      add\n      0x01\n      add\n      dup6\n      sstore\n      dup3\n      iszero\n      tag_286\n      jumpi\n      swap2\n      dup3\n      add\n    tag_289:\n      dup3\n      dup2\n      gt\n      iszero\n      tag_290\n      jumpi\n      dup3\n      mload\n      dup3\n      sstore\n      swap2\n      0x20\n      add\n      swap2\n      swap1\n      0x01\n      add\n      swap1\n      jump(tag_289)\n    tag_290:\n    tag_286:\n      pop\n      swap1\n      pop\n      tag_291\n      swap2\n      swap1\n      tag_292\n      jump\t// in\n    tag_291:\n      pop\n      swap1\n      jump\t// out\n    tag_274:\n      mload(0x40)\n      dup1\n      0x80\n      add\n      0x40\n      mstore\n      dup1\n      iszero(iszero(0x00))\n      dup2\n      mstore\n      0x20\n      add\n      and(0xffffffffffffffffffffffffffffffffffffffff, 0x00)\n      dup2\n      mstore\n      0x20\n      add\n      0x00\n      dup2\n      mstore\n      0x20\n      add\n      0x60\n      dup2\n      mstore\n      pop\n      swap1\n      jump\t// out\n    tag_292:\n    tag_293:\n      dup1\n      dup3\n      gt\n      iszero\n      tag_294\n      jumpi\n      0x00\n      dup2\n      0x00\n      swap1\n      sstore\n      pop\n      0x01\n      add\n      jump(tag_293)\n    tag_294:\n      pop\n      swap1\n      jump\t// out\n        /* \"#utility.yul\":7:351   */\n    tag_296:\n      0x00\n        /* \"#utility.yul\":110:175   */\n      tag_298\n        /* \"#utility.yul\":125:174   */\n      tag_299\n        /* \"#utility.yul\":167:173   */\n      dup5\n        /* \"#utility.yul\":125:174   */\n      tag_300\n      jump\t// in\n    tag_299:\n        /* \"#utility.yul\":110:175   */\n      tag_301\n      jump\t// in\n    tag_298:\n        /* \"#utility.yul\":101:175   */\n      swap1\n      pop\n        /* \"#utility.yul\":198:204   */\n      dup3\n        /* \"#utility.yul\":191:196   */\n      dup2\n        /* \"#utility.yul\":184:205   */\n      mstore\n        /* \"#utility.yul\":236:240   */\n      0x20\n        /* \"#utility.yul\":229:234   */\n      dup2\n        /* \"#utility.yul\":225:241   */\n      add\n        /* \"#utility.yul\":274:277   */\n      dup5\n        /* \"#utility.yul\":265:271   */\n      dup5\n        /* \"#utility.yul\":260:263   */\n      dup5\n        /* \"#utility.yul\":256:272   */\n      add\n        /* \"#utility.yul\":253:278   */\n      gt\n        /* \"#utility.yul\":250:252   */\n      iszero\n      tag_302\n      jumpi\n        /* \"#utility.yul\":291:292   */\n      0x00\n        /* \"#utility.yul\":288:289   */\n      dup1\n        /* \"#utility.yul\":281:293   */\n      revert\n        /* \"#utility.yul\":250:252   */\n    tag_302:\n        /* \"#utility.yul\":304:345   */\n      tag_303\n        /* \"#utility.yul\":338:344   */\n      dup5\n        /* \"#utility.yul\":333:336   */\n      dup3\n        /* \"#utility.yul\":328:331   */\n      dup6\n        /* \"#utility.yul\":304:345   */\n      tag_304\n      jump\t// in\n    tag_303:\n        /* \"#utility.yul\":91:351   */\n      pop\n      swap4\n      swap3\n      pop\n      pop\n      pop\n      jump\t// out\n        /* \"#utility.yul\":357:490   */\n    tag_305:\n      0x00\n        /* \"#utility.yul\":438:444   */\n      dup2\n        /* \"#utility.yul\":425:445   */\n      calldataload\n        /* \"#utility.yul\":416:445   */\n      swap1\n      pop\n        /* \"#utility.yul\":454:484   */\n      tag_307\n        /* \"#utility.yul\":478:483   */\n      dup2\n        /* \"#utility.yul\":454:484   */\n      tag_308\n      jump\t// in\n    tag_307:\n        /* \"#utility.yul\":406:490   */\n      swap3\n      swap2\n      pop\n      pop\n      jump\t// out\n        /* \"#utility.yul\":510:783   */\n    tag_309:\n      0x00\n        /* \"#utility.yul\":615:618   */\n      dup3\n        /* \"#utility.yul\":608:612   */\n      0x1f\n        /* \"#utility.yul\":600:606   */\n      dup4\n        /* \"#utility.yul\":596:613   */\n      add\n        /* \"#utility.yul\":592:619   */\n      slt\n        /* \"#utility.yul\":582:584   */\n      tag_311\n      jumpi\n        /* \"#utility.yul\":633:634   */\n      0x00\n        /* \"#utility.yul\":630:631   */\n      dup1\n        /* \"#utility.yul\":623:635   */\n      revert\n        /* \"#utility.yul\":582:584   */\n    tag_311:\n        /* \"#utility.yul\":673:679   */\n      dup2\n        /* \"#utility.yul\":660:680   */\n      calldataload\n        /* \"#utility.yul\":698:777   */\n      tag_312\n        /* \"#utility.yul\":773:776   */\n      dup5\n        /* \"#utility.yul\":765:771   */\n      dup3\n        /* \"#utility.yul\":758:762   */\n      0x20\n        /* \"#utility.yul\":750:756   */\n      dup7\n        /* \"#utility.yul\":746:763   */\n      add\n        /* \"#utility.yul\":698:777   */\n      tag_296\n      jump\t// in\n    tag_312:\n        /* \"#utility.yul\":689:777   */\n      swap2\n      pop\n        /* \"#utility.yul\":572:783   */\n      pop\n      swap3\n      swap2\n      pop\n      pop\n      jump\t// out\n        /* \"#utility.yul\":789:928   */\n    tag_313:\n      0x00\n        /* \"#utility.yul\":873:879   */\n      dup2\n        /* \"#utility.yul\":860:880   */\n      calldataload\n        /* \"#utility.yul\":851:880   */\n      swap1\n      pop\n        /* \"#utility.yul\":889:922   */\n      tag_315\n        /* \"#utility.yul\":916:921   */\n      dup2\n        /* \"#utility.yul\":889:922   */\n      tag_316\n      jump\t// in\n    tag_315:\n        /* \"#utility.yul\":841:928   */\n      swap3\n      swap2\n      pop\n      pop\n      jump\t// out\n        /* \"#utility.yul\":934:1190   */\n    tag_28:\n      0x00\n        /* \"#utility.yul\":1039:1041   */\n      0x20\n        /* \"#utility.yul\":1027:1036   */\n      dup3\n        /* \"#utility.yul\":1018:1025   */\n      dup5\n        /* \"#utility.yul\":1014:1037   */\n      sub\n        /* \"#utility.yul\":1010:1042   */\n      slt\n        /* \"#utility.yul\":1007:1009   */\n      iszero\n      tag_318\n      jumpi\n        /* \"#utility.yul\":1055:1056   */\n      0x00\n        /* \"#utility.yul\":1052:1053   */\n      dup1\n        /* \"#utility.yul\":1045:1057   */\n      revert\n        /* \"#utility.yul\":1007:1009   */\n    tag_318:\n        /* \"#utility.yul\":1098:1099   */\n      0x00\n        /* \"#utility.yul\":1123:1173   */\n      tag_319\n        /* \"#utility.yul\":1165:1172   */\n      dup5\n        /* \"#utility.yul\":1156:1162   */\n      dup3\n        /* \"#utility.yul\":1145:1154   */\n      dup6\n        /* \"#utility.yul\":1141:1163   */\n      add\n        /* \"#utility.yul\":1123:1173   */\n      tag_305\n      jump\t// in\n    tag_319:\n        /* \"#utility.yul\":1113:1173   */\n      swap2\n      pop\n        /* \"#utility.yul\":1069:1183   */\n      pop\n        /* \"#utility.yul\":997:1190   */\n      swap3\n      swap2\n      pop\n      pop\n      jump\t// out\n        /* \"#utility.yul\":1196:1571   */\n    tag_38:\n      0x00\n        /* \"#utility.yul\":1314:1316   */\n      0x20\n        /* \"#utility.yul\":1302:1311   */\n      dup3\n        /* \"#utility.yul\":1293:1300   */\n      dup5\n        /* \"#utility.yul\":1289:1312   */\n      sub\n        /* \"#utility.yul\":1285:1317   */\n      slt\n        /* \"#utility.yul\":1282:1284   */\n      iszero\n      tag_321\n      jumpi\n        /* \"#utility.yul\":1330:1331   */\n      0x00\n        /* \"#utility.yul\":1327:1328   */\n      dup1\n        /* \"#utility.yul\":1320:1332   */\n      revert\n        /* \"#utility.yul\":1282:1284   */\n    tag_321:\n        /* \"#utility.yul\":1401:1402   */\n      0x00\n        /* \"#utility.yul\":1390:1399   */\n      dup3\n        /* \"#utility.yul\":1386:1403   */\n      add\n        /* \"#utility.yul\":1373:1404   */\n      calldataload\n        /* \"#utility.yul\":1431:1449   */\n      0xffffffffffffffff\n        /* \"#utility.yul\":1423:1429   */\n      dup2\n        /* \"#utility.yul\":1420:1450   */\n      gt\n        /* \"#utility.yul\":1417:1419   */\n      iszero\n      tag_322\n      jumpi\n        /* \"#utility.yul\":1463:1464   */\n      0x00\n        /* \"#utility.yul\":1460:1461   */\n      dup1\n        /* \"#utility.yul\":1453:1465   */\n      revert\n        /* \"#utility.yul\":1417:1419   */\n    tag_322:\n        /* \"#utility.yul\":1491:1554   */\n      tag_323\n        /* \"#utility.yul\":1546:1553   */\n      dup5\n        /* \"#utility.yul\":1537:1543   */\n      dup3\n        /* \"#utility.yul\":1526:1535   */\n      dup6\n        /* \"#utility.yul\":1522:1544   */\n      add\n        /* \"#utility.yul\":1491:1554   */\n      tag_309\n      jump\t// in\n    tag_323:\n        /* \"#utility.yul\":1481:1554   */\n      swap2\n      pop\n        /* \"#utility.yul\":1344:1564   */\n      pop\n        /* \"#utility.yul\":1272:1571   */\n      swap3\n      swap2\n      pop\n      pop\n      jump\t// out\n        /* \"#utility.yul\":1577:2210   */\n    tag_33:\n      0x00\n      dup1\n        /* \"#utility.yul\":1722:1724   */\n      0x40\n        /* \"#utility.yul\":1710:1719   */\n      dup4\n        /* \"#utility.yul\":1701:1708   */\n      dup6\n        /* \"#utility.yul\":1697:1720   */\n      sub\n        /* \"#utility.yul\":1693:1725   */\n      slt\n        /* \"#utility.yul\":1690:1692   */\n      iszero\n      tag_325\n      jumpi\n        /* \"#utility.yul\":1738:1739   */\n      0x00\n        /* \"#utility.yul\":1735:1736   */\n      dup1\n        /* \"#utility.yul\":1728:1740   */\n      revert\n        /* \"#utility.yul\":1690:1692   */\n    tag_325:\n        /* \"#utility.yul\":1809:1810   */\n      0x00\n        /* \"#utility.yul\":1798:1807   */\n      dup4\n        /* \"#utility.yul\":1794:1811   */\n      add\n        /* \"#utility.yul\":1781:1812   */\n      calldataload\n        /* \"#utility.yul\":1839:1857   */\n      0xffffffffffffffff\n        /* \"#utility.yul\":1831:1837   */\n      dup2\n        /* \"#utility.yul\":1828:1858   */\n      gt\n        /* \"#utility.yul\":1825:1827   */\n      iszero\n      tag_326\n      jumpi\n        /* \"#utility.yul\":1871:1872   */\n      0x00\n        /* \"#utility.yul\":1868:1869   */\n      dup1\n        /* \"#utility.yul\":1861:1873   */\n      revert\n        /* \"#utility.yul\":1825:1827   */\n    tag_326:\n        /* \"#utility.yul\":1899:1962   */\n      tag_327\n        /* \"#utility.yul\":1954:1961   */\n      dup6\n        /* \"#utility.yul\":1945:1951   */\n      dup3\n        /* \"#utility.yul\":1934:1943   */\n      dup7\n        /* \"#utility.yul\":1930:1952   */\n      add\n        /* \"#utility.yul\":1899:1962   */\n      tag_309\n      jump\t// in\n    tag_327:\n        /* \"#utility.yul\":1889:1962   */\n      swap3\n      pop\n        /* \"#utility.yul\":1752:1972   */\n      pop\n        /* \"#utility.yul\":2039:2041   */\n      0x20\n        /* \"#utility.yul\":2028:2037   */\n      dup4\n        /* \"#utility.yul\":2024:2042   */\n      add\n        /* \"#utility.yul\":2011:2043   */\n      calldataload\n        /* \"#utility.yul\":2070:2088   */\n      0xffffffffffffffff\n        /* \"#utility.yul\":2062:2068   */\n      dup2\n        /* \"#utility.yul\":2059:2089   */\n      gt\n        /* \"#utility.yul\":2056:2058   */\n      iszero\n      tag_328\n      jumpi\n        /* \"#utility.yul\":2102:2103   */\n      0x00\n        /* \"#utility.yul\":2099:2100   */\n      dup1\n        /* \"#utility.yul\":2092:2104   */\n      revert\n        /* \"#utility.yul\":2056:2058   */\n    tag_328:\n        /* \"#utility.yul\":2130:2193   */\n      tag_329\n        /* \"#utility.yul\":2185:2192   */\n      dup6\n        /* \"#utility.yul\":2176:2182   */\n      dup3\n        /* \"#utility.yul\":2165:2174   */\n      dup7\n        /* \"#utility.yul\":2161:2183   */\n      add\n        /* \"#utility.yul\":2130:2193   */\n      tag_309\n      jump\t// in\n    tag_329:\n        /* \"#utility.yul\":2120:2193   */\n      swap2\n      pop\n        /* \"#utility.yul\":1982:2203   */\n      pop\n        /* \"#utility.yul\":1680:2210   */\n      swap3\n      pop\n      swap3\n      swap1\n      pop\n      jump\t// out\n        /* \"#utility.yul\":2216:2478   */\n    tag_45:\n      0x00\n        /* \"#utility.yul\":2324:2326   */\n      0x20\n        /* \"#utility.yul\":2312:2321   */\n      dup3\n        /* \"#utility.yul\":2303:2310   */\n      dup5\n        /* \"#utility.yul\":2299:2322   */\n      sub\n        /* \"#utility.yul\":2295:2327   */\n      slt\n        /* \"#utility.yul\":2292:2294   */\n      iszero\n      tag_331\n      jumpi\n        /* \"#utility.yul\":2340:2341   */\n      0x00\n        /* \"#utility.yul\":2337:2338   */\n      dup1\n        /* \"#utility.yul\":2330:2342   */\n      revert\n        /* \"#utility.yul\":2292:2294   */\n    tag_331:\n        /* \"#utility.yul\":2383:2384   */\n      0x00\n        /* \"#utility.yul\":2408:2461   */\n      tag_332\n        /* \"#utility.yul\":2453:2460   */\n      dup5\n        /* \"#utility.yul\":2444:2450   */\n      dup3\n        /* \"#utility.yul\":2433:2442   */\n      dup6\n        /* \"#utility.yul\":2429:2451   */\n      add\n        /* \"#utility.yul\":2408:2461   */\n      tag_313\n      jump\t// in\n    tag_332:\n        /* \"#utility.yul\":2398:2461   */\n      swap2\n      pop\n        /* \"#utility.yul\":2354:2471   */\n      pop\n        /* \"#utility.yul\":2282:2478   */\n      swap3\n      swap2\n      pop\n      pop\n      jump\t// out\n        /* \"#utility.yul\":2484:3004   */\n    tag_71:\n      0x00\n      dup1\n        /* \"#utility.yul\":2619:2621   */\n      0x40\n        /* \"#utility.yul\":2607:2616   */\n      dup4\n        /* \"#utility.yul\":2598:2605   */\n      dup6\n        /* \"#utility.yul\":2594:2617   */\n      sub\n        /* \"#utility.yul\":2590:2622   */\n      slt\n        /* \"#utility.yul\":2587:2589   */\n      iszero\n      tag_334\n      jumpi\n        /* \"#utility.yul\":2635:2636   */\n      0x00\n        /* \"#utility.yul\":2632:2633   */\n      dup1\n        /* \"#utility.yul\":2625:2637   */\n      revert\n        /* \"#utility.yul\":2587:2589   */\n    tag_334:\n        /* \"#utility.yul\":2678:2679   */\n      0x00\n        /* \"#utility.yul\":2703:2756   */\n      tag_335\n        /* \"#utility.yul\":2748:2755   */\n      dup6\n        /* \"#utility.yul\":2739:2745   */\n      dup3\n        /* \"#utility.yul\":2728:2737   */\n      dup7\n        /* \"#utility.yul\":2724:2746   */\n      add\n        /* \"#utility.yul\":2703:2756   */\n      tag_313\n      jump\t// in\n    tag_335:\n        /* \"#utility.yul\":2693:2756   */\n      swap3\n      pop\n        /* \"#utility.yul\":2649:2766   */\n      pop\n        /* \"#utility.yul\":2833:2835   */\n      0x20\n        /* \"#utility.yul\":2822:2831   */\n      dup4\n        /* \"#utility.yul\":2818:2836   */\n      add\n        /* \"#utility.yul\":2805:2837   */\n      calldataload\n        /* \"#utility.yul\":2864:2882   */\n      0xffffffffffffffff\n        /* \"#utility.yul\":2856:2862   */\n      dup2\n        /* \"#utility.yul\":2853:2883   */\n      gt\n        /* \"#utility.yul\":2850:2852   */\n      iszero\n      tag_336\n      jumpi\n        /* \"#utility.yul\":2896:2897   */\n      0x00\n        /* \"#utility.yul\":2893:2894   */\n      dup1\n        /* \"#utility.yul\":2886:2898   */\n      revert\n        /* \"#utility.yul\":2850:2852   */\n    tag_336:\n        /* \"#utility.yul\":2924:2987   */\n      tag_337\n        /* \"#utility.yul\":2979:2986   */\n      dup6\n        /* \"#utility.yul\":2970:2976   */\n      dup3\n        /* \"#utility.yul\":2959:2968   */\n      dup7\n        /* \"#utility.yul\":2955:2977   */\n      add\n        /* \"#utility.yul\":2924:2987   */\n      tag_309\n      jump\t// in\n    tag_337:\n        /* \"#utility.yul\":2914:2987   */\n      swap2\n      pop\n        /* \"#utility.yul\":2776:2997   */\n      pop\n        /* \"#utility.yul\":2577:3004   */\n      swap3\n      pop\n      swap3\n      swap1\n      pop\n      jump\t// out\n        /* \"#utility.yul\":3010:3417   */\n    tag_57:\n      0x00\n      dup1\n        /* \"#utility.yul\":3135:3137   */\n      0x40\n        /* \"#utility.yul\":3123:3132   */\n      dup4\n        /* \"#utility.yul\":3114:3121   */\n      dup6\n        /* \"#utility.yul\":3110:3133   */\n      sub\n        /* \"#utility.yul\":3106:3138   */\n      slt\n        /* \"#utility.yul\":3103:3105   */\n      iszero\n      tag_339\n      jumpi\n        /* \"#utility.yul\":3151:3152   */\n      0x00\n        /* \"#utility.yul\":3148:3149   */\n      dup1\n        /* \"#utility.yul\":3141:3153   */\n      revert\n        /* \"#utility.yul\":3103:3105   */\n    tag_339:\n        /* \"#utility.yul\":3194:3195   */\n      0x00\n        /* \"#utility.yul\":3219:3272   */\n      tag_340\n        /* \"#utility.yul\":3264:3271   */\n      dup6\n        /* \"#utility.yul\":3255:3261   */\n      dup3\n        /* \"#utility.yul\":3244:3253   */\n      dup7\n        /* \"#utility.yul\":3240:3262   */\n      add\n        /* \"#utility.yul\":3219:3272   */\n      tag_313\n      jump\t// in\n    tag_340:\n        /* \"#utility.yul\":3209:3272   */\n      swap3\n      pop\n        /* \"#utility.yul\":3165:3282   */\n      pop\n        /* \"#utility.yul\":3321:3323   */\n      0x20\n        /* \"#utility.yul\":3347:3400   */\n      tag_341\n        /* \"#utility.yul\":3392:3399   */\n      dup6\n        /* \"#utility.yul\":3383:3389   */\n      dup3\n        /* \"#utility.yul\":3372:3381   */\n      dup7\n        /* \"#utility.yul\":3368:3390   */\n      add\n        /* \"#utility.yul\":3347:3400   */\n      tag_313\n      jump\t// in\n    tag_341:\n        /* \"#utility.yul\":3337:3400   */\n      swap2\n      pop\n        /* \"#utility.yul\":3292:3410   */\n      pop\n        /* \"#utility.yul\":3093:3417   */\n      swap3\n      pop\n      swap3\n      swap1\n      pop\n      jump\t// out\n        /* \"#utility.yul\":3423:3602   */\n    tag_342:\n      0x00\n        /* \"#utility.yul\":3513:3559   */\n      tag_344\n        /* \"#utility.yul\":3555:3558   */\n      dup4\n        /* \"#utility.yul\":3547:3553   */\n      dup4\n        /* \"#utility.yul\":3513:3559   */\n      tag_345\n      jump\t// in\n    tag_344:\n        /* \"#utility.yul\":3591:3595   */\n      0x20\n        /* \"#utility.yul\":3586:3589   */\n      dup4\n        /* \"#utility.yul\":3582:3596   */\n      add\n        /* \"#utility.yul\":3568:3596   */\n      swap1\n      pop\n        /* \"#utility.yul\":3503:3602   */\n      swap3\n      swap2\n      pop\n      pop\n      jump\t// out\n        /* \"#utility.yul\":3608:3726   */\n    tag_346:\n        /* \"#utility.yul\":3695:3719   */\n      tag_348\n        /* \"#utility.yul\":3713:3718   */\n      dup2\n        /* \"#utility.yul\":3695:3719   */\n      tag_349\n      jump\t// in\n    tag_348:\n        /* \"#utility.yul\":3690:3693   */\n      dup3\n        /* \"#utility.yul\":3683:3720   */\n      mstore\n        /* \"#utility.yul\":3673:3726   */\n      pop\n      pop\n      jump\t// out\n        /* \"#utility.yul\":3762:4494   */\n    tag_350:\n      0x00\n        /* \"#utility.yul\":3910:3964   */\n      tag_352\n        /* \"#utility.yul\":3958:3963   */\n      dup3\n        /* \"#utility.yul\":3910:3964   */\n      tag_353\n      jump\t// in\n    tag_352:\n        /* \"#utility.yul\":3980:4066   */\n      tag_354\n        /* \"#utility.yul\":4059:4065   */\n      dup2\n        /* \"#utility.yul\":4054:4057   */\n      dup6\n        /* \"#utility.yul\":3980:4066   */\n      tag_355\n      jump\t// in\n    tag_354:\n        /* \"#utility.yul\":3973:4066   */\n      swap4\n      pop\n        /* \"#utility.yul\":4090:4146   */\n      tag_356\n        /* \"#utility.yul\":4140:4145   */\n      dup4\n        /* \"#utility.yul\":4090:4146   */\n      tag_357\n      jump\t// in\n    tag_356:\n        /* \"#utility.yul\":4169:4176   */\n      dup1\n        /* \"#utility.yul\":4200:4201   */\n      0x00\n        /* \"#utility.yul\":4185:4469   */\n    tag_358:\n        /* \"#utility.yul\":4210:4216   */\n      dup4\n        /* \"#utility.yul\":4207:4208   */\n      dup2\n        /* \"#utility.yul\":4204:4217   */\n      lt\n        /* \"#utility.yul\":4185:4469   */\n      iszero\n      tag_360\n      jumpi\n        /* \"#utility.yul\":4286:4292   */\n      dup2\n        /* \"#utility.yul\":4280:4293   */\n      mload\n        /* \"#utility.yul\":4313:4376   */\n      tag_361\n        /* \"#utility.yul\":4372:4375   */\n      dup9\n        /* \"#utility.yul\":4357:4370   */\n      dup3\n        /* \"#utility.yul\":4313:4376   */\n      tag_342\n      jump\t// in\n    tag_361:\n        /* \"#utility.yul\":4306:4376   */\n      swap8\n      pop\n        /* \"#utility.yul\":4399:4459   */\n      tag_362\n        /* \"#utility.yul\":4452:4458   */\n      dup4\n        /* \"#utility.yul\":4399:4459   */\n      tag_363\n      jump\t// in\n    tag_362:\n        /* \"#utility.yul\":4389:4459   */\n      swap3\n      pop\n        /* \"#utility.yul\":4245:4469   */\n      pop\n        /* \"#utility.yul\":4232:4233   */\n      0x01\n        /* \"#utility.yul\":4229:4230   */\n      dup2\n        /* \"#utility.yul\":4225:4234   */\n      add\n        /* \"#utility.yul\":4220:4234   */\n      swap1\n      pop\n        /* \"#utility.yul\":4185:4469   */\n      jump(tag_358)\n    tag_360:\n        /* \"#utility.yul\":4189:4203   */\n      pop\n        /* \"#utility.yul\":4485:4488   */\n      dup6\n        /* \"#utility.yul\":4478:4488   */\n      swap4\n      pop\n        /* \"#utility.yul\":3886:4494   */\n      pop\n      pop\n      pop\n      swap3\n      swap2\n      pop\n      pop\n      jump\t// out\n        /* \"#utility.yul\":4500:4609   */\n    tag_364:\n        /* \"#utility.yul\":4581:4602   */\n      tag_366\n        /* \"#utility.yul\":4596:4601   */\n      dup2\n        /* \"#utility.yul\":4581:4602   */\n      tag_367\n      jump\t// in\n    tag_366:\n        /* \"#utility.yul\":4576:4579   */\n      dup3\n        /* \"#utility.yul\":4569:4603   */\n      mstore\n        /* \"#utility.yul\":4559:4609   */\n      pop\n      pop\n      jump\t// out\n        /* \"#utility.yul\":4615:4979   */\n    tag_368:\n      0x00\n        /* \"#utility.yul\":4731:4770   */\n      tag_370\n        /* \"#utility.yul\":4764:4769   */\n      dup3\n        /* \"#utility.yul\":4731:4770   */\n      tag_371\n      jump\t// in\n    tag_370:\n        /* \"#utility.yul\":4786:4857   */\n      tag_372\n        /* \"#utility.yul\":4850:4856   */\n      dup2\n        /* \"#utility.yul\":4845:4848   */\n      dup6\n        /* \"#utility.yul\":4786:4857   */\n      tag_373\n      jump\t// in\n    tag_372:\n        /* \"#utility.yul\":4779:4857   */\n      swap4\n      pop\n        /* \"#utility.yul\":4866:4918   */\n      tag_374\n        /* \"#utility.yul\":4911:4917   */\n      dup2\n        /* \"#utility.yul\":4906:4909   */\n      dup6\n        /* \"#utility.yul\":4899:4903   */\n      0x20\n        /* \"#utility.yul\":4892:4897   */\n      dup7\n        /* \"#utility.yul\":4888:4904   */\n      add\n        /* \"#utility.yul\":4866:4918   */\n      tag_375\n      jump\t// in\n    tag_374:\n        /* \"#utility.yul\":4943:4972   */\n      tag_376\n        /* \"#utility.yul\":4965:4971   */\n      dup2\n        /* \"#utility.yul\":4943:4972   */\n      tag_377\n      jump\t// in\n    tag_376:\n        /* \"#utility.yul\":4938:4941   */\n      dup5\n        /* \"#utility.yul\":4934:4973   */\n      add\n        /* \"#utility.yul\":4927:4973   */\n      swap2\n      pop\n        /* \"#utility.yul\":4707:4979   */\n      pop\n      swap3\n      swap2\n      pop\n      pop\n      jump\t// out\n        /* \"#utility.yul\":4985:5362   */\n    tag_378:\n      0x00\n        /* \"#utility.yul\":5119:5158   */\n      tag_380\n        /* \"#utility.yul\":5152:5157   */\n      dup3\n        /* \"#utility.yul\":5119:5158   */\n      tag_371\n      jump\t// in\n    tag_380:\n        /* \"#utility.yul\":5174:5263   */\n      tag_381\n        /* \"#utility.yul\":5256:5262   */\n      dup2\n        /* \"#utility.yul\":5251:5254   */\n      dup6\n        /* \"#utility.yul\":5174:5263   */\n      tag_382\n      jump\t// in\n    tag_381:\n        /* \"#utility.yul\":5167:5263   */\n      swap4\n      pop\n        /* \"#utility.yul\":5272:5324   */\n      tag_383\n        /* \"#utility.yul\":5317:5323   */\n      dup2\n        /* \"#utility.yul\":5312:5315   */\n      dup6\n        /* \"#utility.yul\":5305:5309   */\n      0x20\n        /* \"#utility.yul\":5298:5303   */\n      dup7\n        /* \"#utility.yul\":5294:5310   */\n      add\n        /* \"#utility.yul\":5272:5324   */\n      tag_375\n      jump\t// in\n    tag_383:\n        /* \"#utility.yul\":5349:5355   */\n      dup1\n        /* \"#utility.yul\":5344:5347   */\n      dup5\n        /* \"#utility.yul\":5340:5356   */\n      add\n        /* \"#utility.yul\":5333:5356   */\n      swap2\n      pop\n        /* \"#utility.yul\":5095:5362   */\n      pop\n      swap3\n      swap2\n      pop\n      pop\n      jump\t// out\n        /* \"#utility.yul\":5368:5748   */\n    tag_384:\n      0x00\n        /* \"#utility.yul\":5531:5598   */\n      tag_386\n        /* \"#utility.yul\":5595:5597   */\n      0x30\n        /* \"#utility.yul\":5590:5593   */\n      dup4\n        /* \"#utility.yul\":5531:5598   */\n      tag_373\n      jump\t// in\n    tag_386:\n        /* \"#utility.yul\":5524:5598   */\n      swap2\n      pop\n        /* \"#utility.yul\":5628:5662   */\n      0x4e656e68756d612076657263616f20617469766120656e636f6e747261646120\n        /* \"#utility.yul\":5624:5625   */\n      0x00\n        /* \"#utility.yul\":5619:5622   */\n      dup4\n        /* \"#utility.yul\":5615:5626   */\n      add\n        /* \"#utility.yul\":5608:5663   */\n      mstore\n        /* \"#utility.yul\":5694:5712   */\n      0x70617261206573746120706167696e6100000000000000000000000000000000\n        /* \"#utility.yul\":5689:5691   */\n      0x20\n        /* \"#utility.yul\":5684:5687   */\n      dup4\n        /* \"#utility.yul\":5680:5692   */\n      add\n        /* \"#utility.yul\":5673:5713   */\n      mstore\n        /* \"#utility.yul\":5739:5741   */\n      0x40\n        /* \"#utility.yul\":5734:5737   */\n      dup3\n        /* \"#utility.yul\":5730:5742   */\n      add\n        /* \"#utility.yul\":5723:5742   */\n      swap1\n      pop\n        /* \"#utility.yul\":5514:5748   */\n      swap2\n      swap1\n      pop\n      jump\t// out\n        /* \"#utility.yul\":5754:6187   */\n    tag_387:\n      0x00\n        /* \"#utility.yul\":5917:5984   */\n      tag_389\n        /* \"#utility.yul\":5981:5983   */\n      0x43\n        /* \"#utility.yul\":5976:5979   */\n      dup4\n        /* \"#utility.yul\":5917:5984   */\n      tag_373\n      jump\t// in\n    tag_389:\n        /* \"#utility.yul\":5910:5984   */\n      swap2\n      pop\n        /* \"#utility.yul\":6014:6048   */\n      0x412061646963616f206465206e6f76617320766572636f657320736f20652070\n        /* \"#utility.yul\":6010:6011   */\n      0x00\n        /* \"#utility.yul\":6005:6008   */\n      dup4\n        /* \"#utility.yul\":6001:6012   */\n      add\n        /* \"#utility.yul\":5994:6049   */\n      mstore\n        /* \"#utility.yul\":6080:6114   */\n      0x65726d6974696461207175616e646f206120706167696e612065737461206174\n        /* \"#utility.yul\":6075:6077   */\n      0x20\n        /* \"#utility.yul\":6070:6073   */\n      dup4\n        /* \"#utility.yul\":6066:6078   */\n      add\n        /* \"#utility.yul\":6059:6115   */\n      mstore\n        /* \"#utility.yul\":6146:6151   */\n      0x6976610000000000000000000000000000000000000000000000000000000000\n        /* \"#utility.yul\":6141:6143   */\n      0x40\n        /* \"#utility.yul\":6136:6139   */\n      dup4\n        /* \"#utility.yul\":6132:6144   */\n      add\n        /* \"#utility.yul\":6125:6152   */\n      mstore\n        /* \"#utility.yul\":6178:6180   */\n      0x60\n        /* \"#utility.yul\":6173:6176   */\n      dup3\n        /* \"#utility.yul\":6169:6181   */\n      add\n        /* \"#utility.yul\":6162:6181   */\n      swap1\n      pop\n        /* \"#utility.yul\":5900:6187   */\n      swap2\n      swap1\n      pop\n      jump\t// out\n        /* \"#utility.yul\":6193:6588   */\n    tag_390:\n      0x00\n        /* \"#utility.yul\":6356:6423   */\n      tag_392\n        /* \"#utility.yul\":6420:6422   */\n      0x3f\n        /* \"#utility.yul\":6415:6418   */\n      dup4\n        /* \"#utility.yul\":6356:6423   */\n      tag_373\n      jump\t// in\n    tag_392:\n        /* \"#utility.yul\":6349:6423   */\n      swap2\n      pop\n        /* \"#utility.yul\":6453:6487   */\n      0x4120616c7465726163616f2064652076657273616f20736f2065207065726d69\n        /* \"#utility.yul\":6449:6450   */\n      0x00\n        /* \"#utility.yul\":6444:6447   */\n      dup4\n        /* \"#utility.yul\":6440:6451   */\n      add\n        /* \"#utility.yul\":6433:6488   */\n      mstore\n        /* \"#utility.yul\":6519:6552   */\n      0x74696461207175616e646f206120706167696e61206573746120617469766100\n        /* \"#utility.yul\":6514:6516   */\n      0x20\n        /* \"#utility.yul\":6509:6512   */\n      dup4\n        /* \"#utility.yul\":6505:6517   */\n      add\n        /* \"#utility.yul\":6498:6553   */\n      mstore\n        /* \"#utility.yul\":6579:6581   */\n      0x40\n        /* \"#utility.yul\":6574:6577   */\n      dup3\n        /* \"#utility.yul\":6570:6582   */\n      add\n        /* \"#utility.yul\":6563:6582   */\n      swap1\n      pop\n        /* \"#utility.yul\":6339:6588   */\n      swap2\n      swap1\n      pop\n      jump\t// out\n        /* \"#utility.yul\":6594:6914   */\n    tag_393:\n      0x00\n        /* \"#utility.yul\":6757:6824   */\n      tag_395\n        /* \"#utility.yul\":6821:6823   */\n      0x16\n        /* \"#utility.yul\":6816:6819   */\n      dup4\n        /* \"#utility.yul\":6757:6824   */\n      tag_373\n      jump\t// in\n    tag_395:\n        /* \"#utility.yul\":6750:6824   */\n      swap2\n      pop\n        /* \"#utility.yul\":6854:6878   */\n      0x496e6469636520666f726120646f20616c63616e636500000000000000000000\n        /* \"#utility.yul\":6850:6851   */\n      0x00\n        /* \"#utility.yul\":6845:6848   */\n      dup4\n        /* \"#utility.yul\":6841:6852   */\n      add\n        /* \"#utility.yul\":6834:6879   */\n      mstore\n        /* \"#utility.yul\":6905:6907   */\n      0x20\n        /* \"#utility.yul\":6900:6903   */\n      dup3\n        /* \"#utility.yul\":6896:6908   */\n      add\n        /* \"#utility.yul\":6889:6908   */\n      swap1\n      pop\n        /* \"#utility.yul\":6740:6914   */\n      swap2\n      swap1\n      pop\n      jump\t// out\n        /* \"#utility.yul\":6920:7250   */\n    tag_396:\n      0x00\n        /* \"#utility.yul\":7083:7150   */\n      tag_398\n        /* \"#utility.yul\":7147:7149   */\n      0x20\n        /* \"#utility.yul\":7142:7145   */\n      dup4\n        /* \"#utility.yul\":7083:7150   */\n      tag_373\n      jump\t// in\n    tag_398:\n        /* \"#utility.yul\":7076:7150   */\n      swap2\n      pop\n        /* \"#utility.yul\":7180:7214   */\n      0x496e646963652064612076657273616f20666f726120646f20616c63616e6365\n        /* \"#utility.yul\":7176:7177   */\n      0x00\n        /* \"#utility.yul\":7171:7174   */\n      dup4\n        /* \"#utility.yul\":7167:7178   */\n      add\n        /* \"#utility.yul\":7160:7215   */\n      mstore\n        /* \"#utility.yul\":7241:7243   */\n      0x20\n        /* \"#utility.yul\":7236:7239   */\n      dup3\n        /* \"#utility.yul\":7232:7244   */\n      add\n        /* \"#utility.yul\":7225:7244   */\n      swap1\n      pop\n        /* \"#utility.yul\":7066:7250   */\n      swap2\n      swap1\n      pop\n      jump\t// out\n        /* \"#utility.yul\":7256:7640   */\n    tag_399:\n      0x00\n        /* \"#utility.yul\":7419:7486   */\n      tag_401\n        /* \"#utility.yul\":7483:7485   */\n      0x34\n        /* \"#utility.yul\":7478:7481   */\n      dup4\n        /* \"#utility.yul\":7419:7486   */\n      tag_373\n      jump\t// in\n    tag_401:\n        /* \"#utility.yul\":7412:7486   */\n      swap2\n      pop\n        /* \"#utility.yul\":7516:7550   */\n      0x41206163616f20736f2065207065726d6974696461207175616e646f20612042\n        /* \"#utility.yul\":7512:7513   */\n      0x00\n        /* \"#utility.yul\":7507:7510   */\n      dup4\n        /* \"#utility.yul\":7503:7514   */\n      add\n        /* \"#utility.yul\":7496:7551   */\n      mstore\n        /* \"#utility.yul\":7582:7604   */\n      0x6c6f636b70656469612065737461206174697661000000000000000000000000\n        /* \"#utility.yul\":7577:7579   */\n      0x20\n        /* \"#utility.yul\":7572:7575   */\n      dup4\n        /* \"#utility.yul\":7568:7580   */\n      add\n        /* \"#utility.yul\":7561:7605   */\n      mstore\n        /* \"#utility.yul\":7631:7633   */\n      0x40\n        /* \"#utility.yul\":7626:7629   */\n      dup3\n        /* \"#utility.yul\":7622:7634   */\n      add\n        /* \"#utility.yul\":7615:7634   */\n      swap1\n      pop\n        /* \"#utility.yul\":7402:7640   */\n      swap2\n      swap1\n      pop\n      jump\t// out\n        /* \"#utility.yul\":7646:8016   */\n    tag_402:\n      0x00\n        /* \"#utility.yul\":7809:7876   */\n      tag_404\n        /* \"#utility.yul\":7873:7875   */\n      0x26\n        /* \"#utility.yul\":7868:7871   */\n      dup4\n        /* \"#utility.yul\":7809:7876   */\n      tag_373\n      jump\t// in\n    tag_404:\n        /* \"#utility.yul\":7802:7876   */\n      swap2\n      pop\n        /* \"#utility.yul\":7906:7940   */\n      0x4a612065786973746520706167696e6120617469766120636f6d206573746520\n        /* \"#utility.yul\":7902:7903   */\n      0x00\n        /* \"#utility.yul\":7897:7900   */\n      dup4\n        /* \"#utility.yul\":7893:7904   */\n      add\n        /* \"#utility.yul\":7886:7941   */\n      mstore\n        /* \"#utility.yul\":7972:7980   */\n      0x746974756c6f0000000000000000000000000000000000000000000000000000\n        /* \"#utility.yul\":7967:7969   */\n      0x20\n        /* \"#utility.yul\":7962:7965   */\n      dup4\n        /* \"#utility.yul\":7958:7970   */\n      add\n        /* \"#utility.yul\":7951:7981   */\n      mstore\n        /* \"#utility.yul\":8007:8009   */\n      0x40\n        /* \"#utility.yul\":8002:8005   */\n      dup3\n        /* \"#utility.yul\":7998:8010   */\n      add\n        /* \"#utility.yul\":7991:8010   */\n      swap1\n      pop\n        /* \"#utility.yul\":7792:8016   */\n      swap2\n      swap1\n      pop\n      jump\t// out\n        /* \"#utility.yul\":8022:8352   */\n    tag_405:\n      0x00\n        /* \"#utility.yul\":8185:8252   */\n      tag_407\n        /* \"#utility.yul\":8249:8251   */\n      0x20\n        /* \"#utility.yul\":8244:8247   */\n      dup4\n        /* \"#utility.yul\":8185:8252   */\n      tag_373\n      jump\t// in\n    tag_407:\n        /* \"#utility.yul\":8178:8252   */\n      swap2\n      pop\n        /* \"#utility.yul\":8282:8316   */\n      0x496e6469636520646120706167696e6120666f726120646f20616c63616e6365\n        /* \"#utility.yul\":8278:8279   */\n      0x00\n        /* \"#utility.yul\":8273:8276   */\n      dup4\n        /* \"#utility.yul\":8269:8280   */\n      add\n        /* \"#utility.yul\":8262:8317   */\n      mstore\n        /* \"#utility.yul\":8343:8345   */\n      0x20\n        /* \"#utility.yul\":8338:8341   */\n      dup3\n        /* \"#utility.yul\":8334:8346   */\n      add\n        /* \"#utility.yul\":8327:8346   */\n      swap1\n      pop\n        /* \"#utility.yul\":8168:8352   */\n      swap2\n      swap1\n      pop\n      jump\t// out\n        /* \"#utility.yul\":8358:8751   */\n    tag_408:\n      0x00\n        /* \"#utility.yul\":8521:8588   */\n      tag_410\n        /* \"#utility.yul\":8585:8587   */\n      0x3d\n        /* \"#utility.yul\":8580:8583   */\n      dup4\n        /* \"#utility.yul\":8521:8588   */\n      tag_373\n      jump\t// in\n    tag_410:\n        /* \"#utility.yul\":8514:8588   */\n      swap2\n      pop\n        /* \"#utility.yul\":8618:8652   */\n      0x536f6d656e7465206f20646f6e6f20646573746120426c6f636b706564696120\n        /* \"#utility.yul\":8614:8615   */\n      0x00\n        /* \"#utility.yul\":8609:8612   */\n      dup4\n        /* \"#utility.yul\":8605:8616   */\n      add\n        /* \"#utility.yul\":8598:8653   */\n      mstore\n        /* \"#utility.yul\":8684:8715   */\n      0x706f646520616c7465726172206f20617472696275746f20617469766f000000\n        /* \"#utility.yul\":8679:8681   */\n      0x20\n        /* \"#utility.yul\":8674:8677   */\n      dup4\n        /* \"#utility.yul\":8670:8682   */\n      add\n        /* \"#utility.yul\":8663:8716   */\n      mstore\n        /* \"#utility.yul\":8742:8744   */\n      0x40\n        /* \"#utility.yul\":8737:8740   */\n      dup3\n        /* \"#utility.yul\":8733:8745   */\n      add\n        /* \"#utility.yul\":8726:8745   */\n      swap1\n      pop\n        /* \"#utility.yul\":8504:8751   */\n      swap2\n      swap1\n      pop\n      jump\t// out\n        /* \"#utility.yul\":8757:8865   */\n    tag_345:\n        /* \"#utility.yul\":8834:8858   */\n      tag_412\n        /* \"#utility.yul\":8852:8857   */\n      dup2\n        /* \"#utility.yul\":8834:8858   */\n      tag_413\n      jump\t// in\n    tag_412:\n        /* \"#utility.yul\":8829:8832   */\n      dup3\n        /* \"#utility.yul\":8822:8859   */\n      mstore\n        /* \"#utility.yul\":8812:8865   */\n      pop\n      pop\n      jump\t// out\n        /* \"#utility.yul\":8871:8989   */\n    tag_414:\n        /* \"#utility.yul\":8958:8982   */\n      tag_416\n        /* \"#utility.yul\":8976:8981   */\n      dup2\n        /* \"#utility.yul\":8958:8982   */\n      tag_413\n      jump\t// in\n    tag_416:\n        /* \"#utility.yul\":8953:8956   */\n      dup3\n        /* \"#utility.yul\":8946:8983   */\n      mstore\n        /* \"#utility.yul\":8936:8989   */\n      pop\n      pop\n      jump\t// out\n        /* \"#utility.yul\":8995:9270   */\n    tag_269:\n      0x00\n        /* \"#utility.yul\":9149:9244   */\n      tag_418\n        /* \"#utility.yul\":9240:9243   */\n      dup3\n        /* \"#utility.yul\":9231:9237   */\n      dup5\n        /* \"#utility.yul\":9149:9244   */\n      tag_378\n      jump\t// in\n    tag_418:\n        /* \"#utility.yul\":9142:9244   */\n      swap2\n      pop\n        /* \"#utility.yul\":9261:9264   */\n      dup2\n        /* \"#utility.yul\":9254:9264   */\n      swap1\n      pop\n        /* \"#utility.yul\":9131:9270   */\n      swap3\n      swap2\n      pop\n      pop\n      jump\t// out\n        /* \"#utility.yul\":9276:9498   */\n    tag_24:\n      0x00\n        /* \"#utility.yul\":9407:9409   */\n      0x20\n        /* \"#utility.yul\":9396:9405   */\n      dup3\n        /* \"#utility.yul\":9392:9410   */\n      add\n        /* \"#utility.yul\":9384:9410   */\n      swap1\n      pop\n        /* \"#utility.yul\":9420:9491   */\n      tag_420\n        /* \"#utility.yul\":9488:9489   */\n      0x00\n        /* \"#utility.yul\":9477:9486   */\n      dup4\n        /* \"#utility.yul\":9473:9490   */\n      add\n        /* \"#utility.yul\":9464:9470   */\n      dup5\n        /* \"#utility.yul\":9420:9491   */\n      tag_346\n      jump\t// in\n    tag_420:\n        /* \"#utility.yul\":9374:9498   */\n      swap3\n      swap2\n      pop\n      pop\n      jump\t// out\n        /* \"#utility.yul\":9504:9877   */\n    tag_41:\n      0x00\n        /* \"#utility.yul\":9685:9687   */\n      0x20\n        /* \"#utility.yul\":9674:9683   */\n      dup3\n        /* \"#utility.yul\":9670:9688   */\n      add\n        /* \"#utility.yul\":9662:9688   */\n      swap1\n      pop\n        /* \"#utility.yul\":9734:9743   */\n      dup2\n        /* \"#utility.yul\":9728:9732   */\n      dup2\n        /* \"#utility.yul\":9724:9744   */\n      sub\n        /* \"#utility.yul\":9720:9721   */\n      0x00\n        /* \"#utility.yul\":9709:9718   */\n      dup4\n        /* \"#utility.yul\":9705:9722   */\n      add\n        /* \"#utility.yul\":9698:9745   */\n      mstore\n        /* \"#utility.yul\":9762:9870   */\n      tag_422\n        /* \"#utility.yul\":9865:9869   */\n      dup2\n        /* \"#utility.yul\":9856:9862   */\n      dup5\n        /* \"#utility.yul\":9762:9870   */\n      tag_350\n      jump\t// in\n    tag_422:\n        /* \"#utility.yul\":9754:9870   */\n      swap1\n      pop\n        /* \"#utility.yul\":9652:9877   */\n      swap3\n      swap2\n      pop\n      pop\n      jump\t// out\n        /* \"#utility.yul\":9883:10093   */\n    tag_63:\n      0x00\n        /* \"#utility.yul\":10008:10010   */\n      0x20\n        /* \"#utility.yul\":9997:10006   */\n      dup3\n        /* \"#utility.yul\":9993:10011   */\n      add\n        /* \"#utility.yul\":9985:10011   */\n      swap1\n      pop\n        /* \"#utility.yul\":10021:10086   */\n      tag_424\n        /* \"#utility.yul\":10083:10084   */\n      0x00\n        /* \"#utility.yul\":10072:10081   */\n      dup4\n        /* \"#utility.yul\":10068:10085   */\n      add\n        /* \"#utility.yul\":10059:10065   */\n      dup5\n        /* \"#utility.yul\":10021:10086   */\n      tag_364\n      jump\t// in\n    tag_424:\n        /* \"#utility.yul\":9975:10093   */\n      swap3\n      swap2\n      pop\n      pop\n      jump\t// out\n        /* \"#utility.yul\":10099:10731   */\n    tag_82:\n      0x00\n        /* \"#utility.yul\":10328:10331   */\n      0x80\n        /* \"#utility.yul\":10317:10326   */\n      dup3\n        /* \"#utility.yul\":10313:10332   */\n      add\n        /* \"#utility.yul\":10305:10332   */\n      swap1\n      pop\n        /* \"#utility.yul\":10342:10407   */\n      tag_426\n        /* \"#utility.yul\":10404:10405   */\n      0x00\n        /* \"#utility.yul\":10393:10402   */\n      dup4\n        /* \"#utility.yul\":10389:10406   */\n      add\n        /* \"#utility.yul\":10380:10386   */\n      dup8\n        /* \"#utility.yul\":10342:10407   */\n      tag_364\n      jump\t// in\n    tag_426:\n        /* \"#utility.yul\":10417:10489   */\n      tag_427\n        /* \"#utility.yul\":10485:10487   */\n      0x20\n        /* \"#utility.yul\":10474:10483   */\n      dup4\n        /* \"#utility.yul\":10470:10488   */\n      add\n        /* \"#utility.yul\":10461:10467   */\n      dup7\n        /* \"#utility.yul\":10417:10489   */\n      tag_346\n      jump\t// in\n    tag_427:\n        /* \"#utility.yul\":10499:10571   */\n      tag_428\n        /* \"#utility.yul\":10567:10569   */\n      0x40\n        /* \"#utility.yul\":10556:10565   */\n      dup4\n        /* \"#utility.yul\":10552:10570   */\n      add\n        /* \"#utility.yul\":10543:10549   */\n      dup6\n        /* \"#utility.yul\":10499:10571   */\n      tag_414\n      jump\t// in\n    tag_428:\n        /* \"#utility.yul\":10618:10627   */\n      dup2\n        /* \"#utility.yul\":10612:10616   */\n      dup2\n        /* \"#utility.yul\":10608:10628   */\n      sub\n        /* \"#utility.yul\":10603:10605   */\n      0x60\n        /* \"#utility.yul\":10592:10601   */\n      dup4\n        /* \"#utility.yul\":10588:10606   */\n      add\n        /* \"#utility.yul\":10581:10629   */\n      mstore\n        /* \"#utility.yul\":10646:10724   */\n      tag_429\n        /* \"#utility.yul\":10719:10723   */\n      dup2\n        /* \"#utility.yul\":10710:10716   */\n      dup5\n        /* \"#utility.yul\":10646:10724   */\n      tag_368\n      jump\t// in\n    tag_429:\n        /* \"#utility.yul\":10638:10724   */\n      swap1\n      pop\n        /* \"#utility.yul\":10295:10731   */\n      swap6\n      swap5\n      pop\n      pop\n      pop\n      pop\n      pop\n      jump\t// out\n        /* \"#utility.yul\":10737:11050   */\n    tag_48:\n      0x00\n        /* \"#utility.yul\":10888:10890   */\n      0x20\n        /* \"#utility.yul\":10877:10886   */\n      dup3\n        /* \"#utility.yul\":10873:10891   */\n      add\n        /* \"#utility.yul\":10865:10891   */\n      swap1\n      pop\n        /* \"#utility.yul\":10937:10946   */\n      dup2\n        /* \"#utility.yul\":10931:10935   */\n      dup2\n        /* \"#utility.yul\":10927:10947   */\n      sub\n        /* \"#utility.yul\":10923:10924   */\n      0x00\n        /* \"#utility.yul\":10912:10921   */\n      dup4\n        /* \"#utility.yul\":10908:10925   */\n      add\n        /* \"#utility.yul\":10901:10948   */\n      mstore\n        /* \"#utility.yul\":10965:11043   */\n      tag_431\n        /* \"#utility.yul\":11038:11042   */\n      dup2\n        /* \"#utility.yul\":11029:11035   */\n      dup5\n        /* \"#utility.yul\":10965:11043   */\n      tag_368\n      jump\t// in\n    tag_431:\n        /* \"#utility.yul\":10957:11043   */\n      swap1\n      pop\n        /* \"#utility.yul\":10855:11050   */\n      swap3\n      swap2\n      pop\n      pop\n      jump\t// out\n        /* \"#utility.yul\":11056:11475   */\n    tag_284:\n      0x00\n        /* \"#utility.yul\":11260:11262   */\n      0x20\n        /* \"#utility.yul\":11249:11258   */\n      dup3\n        /* \"#utility.yul\":11245:11263   */\n      add\n        /* \"#utility.yul\":11237:11263   */\n      swap1\n      pop\n        /* \"#utility.yul\":11309:11318   */\n      dup2\n        /* \"#utility.yul\":11303:11307   */\n      dup2\n        /* \"#utility.yul\":11299:11319   */\n      sub\n        /* \"#utility.yul\":11295:11296   */\n      0x00\n        /* \"#utility.yul\":11284:11293   */\n      dup4\n        /* \"#utility.yul\":11280:11297   */\n      add\n        /* \"#utility.yul\":11273:11320   */\n      mstore\n        /* \"#utility.yul\":11337:11468   */\n      tag_433\n        /* \"#utility.yul\":11463:11467   */\n      dup2\n        /* \"#utility.yul\":11337:11468   */\n      tag_384\n      jump\t// in\n    tag_433:\n        /* \"#utility.yul\":11329:11468   */\n      swap1\n      pop\n        /* \"#utility.yul\":11227:11475   */\n      swap2\n      swap1\n      pop\n      jump\t// out\n        /* \"#utility.yul\":11481:11900   */\n    tag_227:\n      0x00\n        /* \"#utility.yul\":11685:11687   */\n      0x20\n        /* \"#utility.yul\":11674:11683   */\n      dup3\n        /* \"#utility.yul\":11670:11688   */\n      add\n        /* \"#utility.yul\":11662:11688   */\n      swap1\n      pop\n        /* \"#utility.yul\":11734:11743   */\n      dup2\n        /* \"#utility.yul\":11728:11732   */\n      dup2\n        /* \"#utility.yul\":11724:11744   */\n      sub\n        /* \"#utility.yul\":11720:11721   */\n      0x00\n        /* \"#utility.yul\":11709:11718   */\n      dup4\n        /* \"#utility.yul\":11705:11722   */\n      add\n        /* \"#utility.yul\":11698:11745   */\n      mstore\n        /* \"#utility.yul\":11762:11893   */\n      tag_435\n        /* \"#utility.yul\":11888:11892   */\n      dup2\n        /* \"#utility.yul\":11762:11893   */\n      tag_387\n      jump\t// in\n    tag_435:\n        /* \"#utility.yul\":11754:11893   */\n      swap1\n      pop\n        /* \"#utility.yul\":11652:11900   */\n      swap2\n      swap1\n      pop\n      jump\t// out\n        /* \"#utility.yul\":11906:12325   */\n    tag_163:\n      0x00\n        /* \"#utility.yul\":12110:12112   */\n      0x20\n        /* \"#utility.yul\":12099:12108   */\n      dup3\n        /* \"#utility.yul\":12095:12113   */\n      add\n        /* \"#utility.yul\":12087:12113   */\n      swap1\n      pop\n        /* \"#utility.yul\":12159:12168   */\n      dup2\n        /* \"#utility.yul\":12153:12157   */\n      dup2\n        /* \"#utility.yul\":12149:12169   */\n      sub\n        /* \"#utility.yul\":12145:12146   */\n      0x00\n        /* \"#utility.yul\":12134:12143   */\n      dup4\n        /* \"#utility.yul\":12130:12147   */\n      add\n        /* \"#utility.yul\":12123:12170   */\n      mstore\n        /* \"#utility.yul\":12187:12318   */\n      tag_437\n        /* \"#utility.yul\":12313:12317   */\n      dup2\n        /* \"#utility.yul\":12187:12318   */\n      tag_390\n      jump\t// in\n    tag_437:\n        /* \"#utility.yul\":12179:12318   */\n      swap1\n      pop\n        /* \"#utility.yul\":12077:12325   */\n      swap2\n      swap1\n      pop\n      jump\t// out\n        /* \"#utility.yul\":12331:12750   */\n    tag_134:\n      0x00\n        /* \"#utility.yul\":12535:12537   */\n      0x20\n        /* \"#utility.yul\":12524:12533   */\n      dup3\n        /* \"#utility.yul\":12520:12538   */\n      add\n        /* \"#utility.yul\":12512:12538   */\n      swap1\n      pop\n        /* \"#utility.yul\":12584:12593   */\n      dup2\n        /* \"#utility.yul\":12578:12582   */\n      dup2\n        /* \"#utility.yul\":12574:12594   */\n      sub\n        /* \"#utility.yul\":12570:12571   */\n      0x00\n        /* \"#utility.yul\":12559:12568   */\n      dup4\n        /* \"#utility.yul\":12555:12572   */\n      add\n        /* \"#utility.yul\":12548:12595   */\n      mstore\n        /* \"#utility.yul\":12612:12743   */\n      tag_439\n        /* \"#utility.yul\":12738:12742   */\n      dup2\n        /* \"#utility.yul\":12612:12743   */\n      tag_393\n      jump\t// in\n    tag_439:\n        /* \"#utility.yul\":12604:12743   */\n      swap1\n      pop\n        /* \"#utility.yul\":12502:12750   */\n      swap2\n      swap1\n      pop\n      jump\t// out\n        /* \"#utility.yul\":12756:13175   */\n    tag_168:\n      0x00\n        /* \"#utility.yul\":12960:12962   */\n      0x20\n        /* \"#utility.yul\":12949:12958   */\n      dup3\n        /* \"#utility.yul\":12945:12963   */\n      add\n        /* \"#utility.yul\":12937:12963   */\n      swap1\n      pop\n        /* \"#utility.yul\":13009:13018   */\n      dup2\n        /* \"#utility.yul\":13003:13007   */\n      dup2\n        /* \"#utility.yul\":12999:13019   */\n      sub\n        /* \"#utility.yul\":12995:12996   */\n      0x00\n        /* \"#utility.yul\":12984:12993   */\n      dup4\n        /* \"#utility.yul\":12980:12997   */\n      add\n        /* \"#utility.yul\":12973:13020   */\n      mstore\n        /* \"#utility.yul\":13037:13168   */\n      tag_441\n        /* \"#utility.yul\":13163:13167   */\n      dup2\n        /* \"#utility.yul\":13037:13168   */\n      tag_396\n      jump\t// in\n    tag_441:\n        /* \"#utility.yul\":13029:13168   */\n      swap1\n      pop\n        /* \"#utility.yul\":12927:13175   */\n      swap2\n      swap1\n      pop\n      jump\t// out\n        /* \"#utility.yul\":13181:13600   */\n    tag_90:\n      0x00\n        /* \"#utility.yul\":13385:13387   */\n      0x20\n        /* \"#utility.yul\":13374:13383   */\n      dup3\n        /* \"#utility.yul\":13370:13388   */\n      add\n        /* \"#utility.yul\":13362:13388   */\n      swap1\n      pop\n        /* \"#utility.yul\":13434:13443   */\n      dup2\n        /* \"#utility.yul\":13428:13432   */\n      dup2\n        /* \"#utility.yul\":13424:13444   */\n      sub\n        /* \"#utility.yul\":13420:13421   */\n      0x00\n        /* \"#utility.yul\":13409:13418   */\n      dup4\n        /* \"#utility.yul\":13405:13422   */\n      add\n        /* \"#utility.yul\":13398:13445   */\n      mstore\n        /* \"#utility.yul\":13462:13593   */\n      tag_443\n        /* \"#utility.yul\":13588:13592   */\n      dup2\n        /* \"#utility.yul\":13462:13593   */\n      tag_399\n      jump\t// in\n    tag_443:\n        /* \"#utility.yul\":13454:13593   */\n      swap1\n      pop\n        /* \"#utility.yul\":13352:13600   */\n      swap2\n      swap1\n      pop\n      jump\t// out\n        /* \"#utility.yul\":13606:14025   */\n    tag_96:\n      0x00\n        /* \"#utility.yul\":13810:13812   */\n      0x20\n        /* \"#utility.yul\":13799:13808   */\n      dup3\n        /* \"#utility.yul\":13795:13813   */\n      add\n        /* \"#utility.yul\":13787:13813   */\n      swap1\n      pop\n        /* \"#utility.yul\":13859:13868   */\n      dup2\n        /* \"#utility.yul\":13853:13857   */\n      dup2\n        /* \"#utility.yul\":13849:13869   */\n      sub\n        /* \"#utility.yul\":13845:13846   */\n      0x00\n        /* \"#utility.yul\":13834:13843   */\n      dup4\n        /* \"#utility.yul\":13830:13847   */\n      add\n        /* \"#utility.yul\":13823:13870   */\n      mstore\n        /* \"#utility.yul\":13887:14018   */\n      tag_445\n        /* \"#utility.yul\":14013:14017   */\n      dup2\n        /* \"#utility.yul\":13887:14018   */\n      tag_402\n      jump\t// in\n    tag_445:\n        /* \"#utility.yul\":13879:14018   */\n      swap1\n      pop\n        /* \"#utility.yul\":13777:14025   */\n      swap2\n      swap1\n      pop\n      jump\t// out\n        /* \"#utility.yul\":14031:14450   */\n    tag_158:\n      0x00\n        /* \"#utility.yul\":14235:14237   */\n      0x20\n        /* \"#utility.yul\":14224:14233   */\n      dup3\n        /* \"#utility.yul\":14220:14238   */\n      add\n        /* \"#utility.yul\":14212:14238   */\n      swap1\n      pop\n        /* \"#utility.yul\":14284:14293   */\n      dup2\n        /* \"#utility.yul\":14278:14282   */\n      dup2\n        /* \"#utility.yul\":14274:14294   */\n      sub\n        /* \"#utility.yul\":14270:14271   */\n      0x00\n        /* \"#utility.yul\":14259:14268   */\n      dup4\n        /* \"#utility.yul\":14255:14272   */\n      add\n        /* \"#utility.yul\":14248:14295   */\n      mstore\n        /* \"#utility.yul\":14312:14443   */\n      tag_447\n        /* \"#utility.yul\":14438:14442   */\n      dup2\n        /* \"#utility.yul\":14312:14443   */\n      tag_405\n      jump\t// in\n    tag_447:\n        /* \"#utility.yul\":14304:14443   */\n      swap1\n      pop\n        /* \"#utility.yul\":14202:14450   */\n      swap2\n      swap1\n      pop\n      jump\t// out\n        /* \"#utility.yul\":14456:14875   */\n    tag_86:\n      0x00\n        /* \"#utility.yul\":14660:14662   */\n      0x20\n        /* \"#utility.yul\":14649:14658   */\n      dup3\n        /* \"#utility.yul\":14645:14663   */\n      add\n        /* \"#utility.yul\":14637:14663   */\n      swap1\n      pop\n        /* \"#utility.yul\":14709:14718   */\n      dup2\n        /* \"#utility.yul\":14703:14707   */\n      dup2\n        /* \"#utility.yul\":14699:14719   */\n      sub\n        /* \"#utility.yul\":14695:14696   */\n      0x00\n        /* \"#utility.yul\":14684:14693   */\n      dup4\n        /* \"#utility.yul\":14680:14697   */\n      add\n        /* \"#utility.yul\":14673:14720   */\n      mstore\n        /* \"#utility.yul\":14737:14868   */\n      tag_449\n        /* \"#utility.yul\":14863:14867   */\n      dup2\n        /* \"#utility.yul\":14737:14868   */\n      tag_408\n      jump\t// in\n    tag_449:\n        /* \"#utility.yul\":14729:14868   */\n      swap1\n      pop\n        /* \"#utility.yul\":14627:14875   */\n      swap2\n      swap1\n      pop\n      jump\t// out\n        /* \"#utility.yul\":14881:15103   */\n    tag_53:\n      0x00\n        /* \"#utility.yul\":15012:15014   */\n      0x20\n        /* \"#utility.yul\":15001:15010   */\n      dup3\n        /* \"#utility.yul\":14997:15015   */\n      add\n        /* \"#utility.yul\":14989:15015   */\n      swap1\n      pop\n        /* \"#utility.yul\":15025:15096   */\n      tag_451\n        /* \"#utility.yul\":15093:15094   */\n      0x00\n        /* \"#utility.yul\":15082:15091   */\n      dup4\n        /* \"#utility.yul\":15078:15095   */\n      add\n        /* \"#utility.yul\":15069:15075   */\n      dup5\n        /* \"#utility.yul\":15025:15096   */\n      tag_414\n      jump\t// in\n    tag_451:\n        /* \"#utility.yul\":14979:15103   */\n      swap3\n      swap2\n      pop\n      pop\n      jump\t// out\n        /* \"#utility.yul\":15109:15392   */\n    tag_301:\n      0x00\n        /* \"#utility.yul\":15175:15177   */\n      0x40\n        /* \"#utility.yul\":15169:15178   */\n      mload\n        /* \"#utility.yul\":15159:15178   */\n      swap1\n      pop\n        /* \"#utility.yul\":15217:15221   */\n      dup2\n        /* \"#utility.yul\":15209:15215   */\n      dup2\n        /* \"#utility.yul\":15205:15222   */\n      add\n        /* \"#utility.yul\":15324:15330   */\n      dup2\n        /* \"#utility.yul\":15312:15322   */\n      dup2\n        /* \"#utility.yul\":15309:15331   */\n      lt\n        /* \"#utility.yul\":15288:15306   */\n      0xffffffffffffffff\n        /* \"#utility.yul\":15276:15286   */\n      dup3\n        /* \"#utility.yul\":15273:15307   */\n      gt\n        /* \"#utility.yul\":15270:15332   */\n      or\n        /* \"#utility.yul\":15267:15269   */\n      iszero\n      tag_453\n      jumpi\n        /* \"#utility.yul\":15335:15353   */\n      tag_454\n      tag_455\n      jump\t// in\n    tag_454:\n        /* \"#utility.yul\":15267:15269   */\n    tag_453:\n        /* \"#utility.yul\":15375:15385   */\n      dup1\n        /* \"#utility.yul\":15371:15373   */\n      0x40\n        /* \"#utility.yul\":15364:15386   */\n      mstore\n        /* \"#utility.yul\":15149:15392   */\n      pop\n      swap2\n      swap1\n      pop\n      jump\t// out\n        /* \"#utility.yul\":15398:15730   */\n    tag_300:\n      0x00\n        /* \"#utility.yul\":15550:15568   */\n      0xffffffffffffffff\n        /* \"#utility.yul\":15542:15548   */\n      dup3\n        /* \"#utility.yul\":15539:15569   */\n      gt\n        /* \"#utility.yul\":15536:15538   */\n      iszero\n      tag_457\n      jumpi\n        /* \"#utility.yul\":15572:15590   */\n      tag_458\n      tag_455\n      jump\t// in\n    tag_458:\n        /* \"#utility.yul\":15536:15538   */\n    tag_457:\n        /* \"#utility.yul\":15657:15661   */\n      0x1f\n        /* \"#utility.yul\":15653:15662   */\n      not\n        /* \"#utility.yul\":15646:15650   */\n      0x1f\n        /* \"#utility.yul\":15638:15644   */\n      dup4\n        /* \"#utility.yul\":15634:15651   */\n      add\n        /* \"#utility.yul\":15630:15663   */\n      and\n        /* \"#utility.yul\":15622:15663   */\n      swap1\n      pop\n        /* \"#utility.yul\":15718:15722   */\n      0x20\n        /* \"#utility.yul\":15712:15716   */\n      dup2\n        /* \"#utility.yul\":15708:15723   */\n      add\n        /* \"#utility.yul\":15700:15723   */\n      swap1\n      pop\n        /* \"#utility.yul\":15465:15730   */\n      swap2\n      swap1\n      pop\n      jump\t// out\n        /* \"#utility.yul\":15736:15868   */\n    tag_357:\n      0x00\n        /* \"#utility.yul\":15826:15829   */\n      dup2\n        /* \"#utility.yul\":15818:15829   */\n      swap1\n      pop\n        /* \"#utility.yul\":15856:15860   */\n      0x20\n        /* \"#utility.yul\":15851:15854   */\n      dup3\n        /* \"#utility.yul\":15847:15861   */\n      add\n        /* \"#utility.yul\":15839:15861   */\n      swap1\n      pop\n        /* \"#utility.yul\":15808:15868   */\n      swap2\n      swap1\n      pop\n      jump\t// out\n        /* \"#utility.yul\":15874:15988   */\n    tag_353:\n      0x00\n        /* \"#utility.yul\":15975:15980   */\n      dup2\n        /* \"#utility.yul\":15969:15981   */\n      mload\n        /* \"#utility.yul\":15959:15981   */\n      swap1\n      pop\n        /* \"#utility.yul\":15948:15988   */\n      swap2\n      swap1\n      pop\n      jump\t// out\n        /* \"#utility.yul\":15994:16093   */\n    tag_371:\n      0x00\n        /* \"#utility.yul\":16080:16085   */\n      dup2\n        /* \"#utility.yul\":16074:16086   */\n      mload\n        /* \"#utility.yul\":16064:16086   */\n      swap1\n      pop\n        /* \"#utility.yul\":16053:16093   */\n      swap2\n      swap1\n      pop\n      jump\t// out\n        /* \"#utility.yul\":16099:16212   */\n    tag_363:\n      0x00\n        /* \"#utility.yul\":16201:16205   */\n      0x20\n        /* \"#utility.yul\":16196:16199   */\n      dup3\n        /* \"#utility.yul\":16192:16206   */\n      add\n        /* \"#utility.yul\":16184:16206   */\n      swap1\n      pop\n        /* \"#utility.yul\":16174:16212   */\n      swap2\n      swap1\n      pop\n      jump\t// out\n        /* \"#utility.yul\":16218:16402   */\n    tag_355:\n      0x00\n        /* \"#utility.yul\":16351:16357   */\n      dup3\n        /* \"#utility.yul\":16346:16349   */\n      dup3\n        /* \"#utility.yul\":16339:16358   */\n      mstore\n        /* \"#utility.yul\":16391:16395   */\n      0x20\n        /* \"#utility.yul\":16386:16389   */\n      dup3\n        /* \"#utility.yul\":16382:16396   */\n      add\n        /* \"#utility.yul\":16367:16396   */\n      swap1\n      pop\n        /* \"#utility.yul\":16329:16402   */\n      swap3\n      swap2\n      pop\n      pop\n      jump\t// out\n        /* \"#utility.yul\":16408:16577   */\n    tag_373:\n      0x00\n        /* \"#utility.yul\":16526:16532   */\n      dup3\n        /* \"#utility.yul\":16521:16524   */\n      dup3\n        /* \"#utility.yul\":16514:16533   */\n      mstore\n        /* \"#utility.yul\":16566:16570   */\n      0x20\n        /* \"#utility.yul\":16561:16564   */\n      dup3\n        /* \"#utility.yul\":16557:16571   */\n      add\n        /* \"#utility.yul\":16542:16571   */\n      swap1\n      pop\n        /* \"#utility.yul\":16504:16577   */\n      swap3\n      swap2\n      pop\n      pop\n      jump\t// out\n        /* \"#utility.yul\":16583:16731   */\n    tag_382:\n      0x00\n        /* \"#utility.yul\":16722:16725   */\n      dup2\n        /* \"#utility.yul\":16707:16725   */\n      swap1\n      pop\n        /* \"#utility.yul\":16697:16731   */\n      swap3\n      swap2\n      pop\n      pop\n      jump\t// out\n        /* \"#utility.yul\":16737:16928   */\n    tag_180:\n      0x00\n        /* \"#utility.yul\":16797:16817   */\n      tag_467\n        /* \"#utility.yul\":16815:16816   */\n      dup3\n        /* \"#utility.yul\":16797:16817   */\n      tag_413\n      jump\t// in\n    tag_467:\n        /* \"#utility.yul\":16792:16817   */\n      swap2\n      pop\n        /* \"#utility.yul\":16831:16851   */\n      tag_468\n        /* \"#utility.yul\":16849:16850   */\n      dup4\n        /* \"#utility.yul\":16831:16851   */\n      tag_413\n      jump\t// in\n    tag_468:\n        /* \"#utility.yul\":16826:16851   */\n      swap3\n      pop\n        /* \"#utility.yul\":16870:16871   */\n      dup3\n        /* \"#utility.yul\":16867:16868   */\n      dup3\n        /* \"#utility.yul\":16864:16872   */\n      lt\n        /* \"#utility.yul\":16861:16863   */\n      iszero\n      tag_469\n      jumpi\n        /* \"#utility.yul\":16875:16893   */\n      tag_470\n      tag_471\n      jump\t// in\n    tag_470:\n        /* \"#utility.yul\":16861:16863   */\n    tag_469:\n        /* \"#utility.yul\":16920:16921   */\n      dup3\n        /* \"#utility.yul\":16917:16918   */\n      dup3\n        /* \"#utility.yul\":16913:16922   */\n      sub\n        /* \"#utility.yul\":16905:16922   */\n      swap1\n      pop\n        /* \"#utility.yul\":16782:16928   */\n      swap3\n      swap2\n      pop\n      pop\n      jump\t// out\n        /* \"#utility.yul\":16934:17030   */\n    tag_349:\n      0x00\n        /* \"#utility.yul\":17000:17024   */\n      tag_473\n        /* \"#utility.yul\":17018:17023   */\n      dup3\n        /* \"#utility.yul\":17000:17024   */\n      tag_474\n      jump\t// in\n    tag_473:\n        /* \"#utility.yul\":16989:17024   */\n      swap1\n      pop\n        /* \"#utility.yul\":16979:17030   */\n      swap2\n      swap1\n      pop\n      jump\t// out\n        /* \"#utility.yul\":17036:17126   */\n    tag_367:\n      0x00\n        /* \"#utility.yul\":17113:17118   */\n      dup2\n        /* \"#utility.yul\":17106:17119   */\n      iszero\n        /* \"#utility.yul\":17099:17120   */\n      iszero\n        /* \"#utility.yul\":17088:17120   */\n      swap1\n      pop\n        /* \"#utility.yul\":17078:17126   */\n      swap2\n      swap1\n      pop\n      jump\t// out\n        /* \"#utility.yul\":17132:17258   */\n    tag_474:\n      0x00\n        /* \"#utility.yul\":17209:17251   */\n      0xffffffffffffffffffffffffffffffffffffffff\n        /* \"#utility.yul\":17202:17207   */\n      dup3\n        /* \"#utility.yul\":17198:17252   */\n      and\n        /* \"#utility.yul\":17187:17252   */\n      swap1\n      pop\n        /* \"#utility.yul\":17177:17258   */\n      swap2\n      swap1\n      pop\n      jump\t// out\n        /* \"#utility.yul\":17264:17341   */\n    tag_413:\n      0x00\n        /* \"#utility.yul\":17330:17335   */\n      dup2\n        /* \"#utility.yul\":17319:17335   */\n      swap1\n      pop\n        /* \"#utility.yul\":17309:17341   */\n      swap2\n      swap1\n      pop\n      jump\t// out\n        /* \"#utility.yul\":17347:17501   */\n    tag_304:\n        /* \"#utility.yul\":17431:17437   */\n      dup3\n        /* \"#utility.yul\":17426:17429   */\n      dup2\n        /* \"#utility.yul\":17421:17424   */\n      dup4\n        /* \"#utility.yul\":17408:17438   */\n      calldatacopy\n        /* \"#utility.yul\":17493:17494   */\n      0x00\n        /* \"#utility.yul\":17484:17490   */\n      dup4\n        /* \"#utility.yul\":17479:17482   */\n      dup4\n        /* \"#utility.yul\":17475:17491   */\n      add\n        /* \"#utility.yul\":17468:17495   */\n      mstore\n        /* \"#utility.yul\":17398:17501   */\n      pop\n      pop\n      pop\n      jump\t// out\n        /* \"#utility.yul\":17507:17814   */\n    tag_375:\n        /* \"#utility.yul\":17575:17576   */\n      0x00\n        /* \"#utility.yul\":17585:17698   */\n    tag_480:\n        /* \"#utility.yul\":17599:17605   */\n      dup4\n        /* \"#utility.yul\":17596:17597   */\n      dup2\n        /* \"#utility.yul\":17593:17606   */\n      lt\n        /* \"#utility.yul\":17585:17698   */\n      iszero\n      tag_482\n      jumpi\n        /* \"#utility.yul\":17684:17685   */\n      dup1\n        /* \"#utility.yul\":17679:17682   */\n      dup3\n        /* \"#utility.yul\":17675:17686   */\n      add\n        /* \"#utility.yul\":17669:17687   */\n      mload\n        /* \"#utility.yul\":17665:17666   */\n      dup2\n        /* \"#utility.yul\":17660:17663   */\n      dup5\n        /* \"#utility.yul\":17656:17667   */\n      add\n        /* \"#utility.yul\":17649:17688   */\n      mstore\n        /* \"#utility.yul\":17621:17623   */\n      0x20\n        /* \"#utility.yul\":17618:17619   */\n      dup2\n        /* \"#utility.yul\":17614:17624   */\n      add\n        /* \"#utility.yul\":17609:17624   */\n      swap1\n      pop\n        /* \"#utility.yul\":17585:17698   */\n      jump(tag_480)\n    tag_482:\n        /* \"#utility.yul\":17716:17722   */\n      dup4\n        /* \"#utility.yul\":17713:17714   */\n      dup2\n        /* \"#utility.yul\":17710:17723   */\n      gt\n        /* \"#utility.yul\":17707:17709   */\n      iszero\n      tag_483\n      jumpi\n        /* \"#utility.yul\":17796:17797   */\n      0x00\n        /* \"#utility.yul\":17787:17793   */\n      dup5\n        /* \"#utility.yul\":17782:17785   */\n      dup5\n        /* \"#utility.yul\":17778:17794   */\n      add\n        /* \"#utility.yul\":17771:17798   */\n      mstore\n        /* \"#utility.yul\":17707:17709   */\n    tag_483:\n        /* \"#utility.yul\":17556:17814   */\n      pop\n      pop\n      pop\n      pop\n      jump\t// out\n        /* \"#utility.yul\":17820:17991   */\n    tag_191:\n      0x00\n        /* \"#utility.yul\":17882:17906   */\n      tag_485\n        /* \"#utility.yul\":17900:17905   */\n      dup3\n        /* \"#utility.yul\":17882:17906   */\n      tag_413\n      jump\t// in\n    tag_485:\n        /* \"#utility.yul\":17873:17906   */\n      swap2\n      pop\n        /* \"#utility.yul\":17928:17932   */\n      0x00\n        /* \"#utility.yul\":17921:17926   */\n      dup3\n        /* \"#utility.yul\":17918:17933   */\n      eq\n        /* \"#utility.yul\":17915:17917   */\n      iszero\n      tag_486\n      jumpi\n        /* \"#utility.yul\":17936:17954   */\n      tag_487\n      tag_471\n      jump\t// in\n    tag_487:\n        /* \"#utility.yul\":17915:17917   */\n    tag_486:\n        /* \"#utility.yul\":17983:17984   */\n      0x01\n        /* \"#utility.yul\":17976:17981   */\n      dup3\n        /* \"#utility.yul\":17972:17985   */\n      sub\n        /* \"#utility.yul\":17965:17985   */\n      swap1\n      pop\n        /* \"#utility.yul\":17863:17991   */\n      swap2\n      swap1\n      pop\n      jump\t// out\n        /* \"#utility.yul\":17997:18317   */\n    tag_112:\n      0x00\n        /* \"#utility.yul\":18078:18079   */\n      0x02\n        /* \"#utility.yul\":18072:18076   */\n      dup3\n        /* \"#utility.yul\":18068:18080   */\n      div\n        /* \"#utility.yul\":18058:18080   */\n      swap1\n      pop\n        /* \"#utility.yul\":18125:18126   */\n      0x01\n        /* \"#utility.yul\":18119:18123   */\n      dup3\n        /* \"#utility.yul\":18115:18127   */\n      and\n        /* \"#utility.yul\":18146:18164   */\n      dup1\n        /* \"#utility.yul\":18136:18138   */\n      tag_489\n      jumpi\n        /* \"#utility.yul\":18202:18206   */\n      0x7f\n        /* \"#utility.yul\":18194:18200   */\n      dup3\n        /* \"#utility.yul\":18190:18207   */\n      and\n        /* \"#utility.yul\":18180:18207   */\n      swap2\n      pop\n        /* \"#utility.yul\":18136:18138   */\n    tag_489:\n        /* \"#utility.yul\":18264:18266   */\n      0x20\n        /* \"#utility.yul\":18256:18262   */\n      dup3\n        /* \"#utility.yul\":18253:18267   */\n      lt\n        /* \"#utility.yul\":18233:18251   */\n      dup2\n        /* \"#utility.yul\":18230:18268   */\n      eq\n        /* \"#utility.yul\":18227:18229   */\n      iszero\n      tag_490\n      jumpi\n        /* \"#utility.yul\":18283:18301   */\n      tag_491\n      tag_492\n      jump\t// in\n    tag_491:\n        /* \"#utility.yul\":18227:18229   */\n    tag_490:\n        /* \"#utility.yul\":18048:18317   */\n      pop\n      swap2\n      swap1\n      pop\n      jump\t// out\n        /* \"#utility.yul\":18323:18556   */\n    tag_121:\n      0x00\n        /* \"#utility.yul\":18385:18409   */\n      tag_494\n        /* \"#utility.yul\":18403:18408   */\n      dup3\n        /* \"#utility.yul\":18385:18409   */\n      tag_413\n      jump\t// in\n    tag_494:\n        /* \"#utility.yul\":18376:18409   */\n      swap2\n      pop\n        /* \"#utility.yul\":18431:18497   */\n      0xffffffffffffffffffffffffffffffffffffffffffffffffffffffffffffffff\n        /* \"#utility.yul\":18424:18429   */\n      dup3\n        /* \"#utility.yul\":18421:18498   */\n      eq\n        /* \"#utility.yul\":18418:18420   */\n      iszero\n      tag_495\n      jumpi\n        /* \"#utility.yul\":18501:18519   */\n      tag_496\n      tag_471\n      jump\t// in\n    tag_496:\n        /* \"#utility.yul\":18418:18420   */\n    tag_495:\n        /* \"#utility.yul\":18548:18549   */\n      0x01\n        /* \"#utility.yul\":18541:18546   */\n      dup3\n        /* \"#utility.yul\":18537:18550   */\n      add\n        /* \"#utility.yul\":18530:18550   */\n      swap1\n      pop\n        /* \"#utility.yul\":18366:18556   */\n      swap2\n      swap1\n      pop\n      jump\t// out\n        /* \"#utility.yul\":18562:18742   */\n    tag_471:\n        /* \"#utility.yul\":18610:18687   */\n      0x4e487b7100000000000000000000000000000000000000000000000000000000\n        /* \"#utility.yul\":18607:18608   */\n      0x00\n        /* \"#utility.yul\":18600:18688   */\n      mstore\n        /* \"#utility.yul\":18707:18711   */\n      0x11\n        /* \"#utility.yul\":18704:18705   */\n      0x04\n        /* \"#utility.yul\":18697:18712   */\n      mstore\n        /* \"#utility.yul\":18731:18735   */\n      0x24\n        /* \"#utility.yul\":18728:18729   */\n      0x00\n        /* \"#utility.yul\":18721:18736   */\n      revert\n        /* \"#utility.yul\":18748:18928   */\n    tag_492:\n        /* \"#utility.yul\":18796:18873   */\n      0x4e487b7100000000000000000000000000000000000000000000000000000000\n        /* \"#utility.yul\":18793:18794   */\n      0x00\n        /* \"#utility.yul\":18786:18874   */\n      mstore\n        /* \"#utility.yul\":18893:18897   */\n      0x22\n        /* \"#utility.yul\":18890:18891   */\n      0x04\n        /* \"#utility.yul\":18883:18898   */\n      mstore\n        /* \"#utility.yul\":18917:18921   */\n      0x24\n        /* \"#utility.yul\":18914:18915   */\n      0x00\n        /* \"#utility.yul\":18907:18922   */\n      revert\n        /* \"#utility.yul\":18934:19114   */\n    tag_455:\n        /* \"#utility.yul\":18982:19059   */\n      0x4e487b7100000000000000000000000000000000000000000000000000000000\n        /* \"#utility.yul\":18979:18980   */\n      0x00\n        /* \"#utility.yul\":18972:19060   */\n      mstore\n        /* \"#utility.yul\":19079:19083   */\n      0x41\n        /* \"#utility.yul\":19076:19077   */\n      0x04\n        /* \"#utility.yul\":19069:19084   */\n      mstore\n        /* \"#utility.yul\":19103:19107   */\n      0x24\n        /* \"#utility.yul\":19100:19101   */\n      0x00\n        /* \"#utility.yul\":19093:19108   */\n      revert\n        /* \"#utility.yul\":19120:19222   */\n    tag_377:\n      0x00\n        /* \"#utility.yul\":19212:19214   */\n      0x1f\n        /* \"#utility.yul\":19208:19215   */\n      not\n        /* \"#utility.yul\":19203:19205   */\n      0x1f\n        /* \"#utility.yul\":19196:19201   */\n      dup4\n        /* \"#utility.yul\":19192:19206   */\n      add\n        /* \"#utility.yul\":19188:19216   */\n      and\n        /* \"#utility.yul\":19178:19216   */\n      swap1\n      pop\n        /* \"#utility.yul\":19168:19222   */\n      swap2\n      swap1\n      pop\n      jump\t// out\n        /* \"#utility.yul\":19228:19344   */\n    tag_308:\n        /* \"#utility.yul\":19298:19319   */\n      tag_502\n        /* \"#utility.yul\":19313:19318   */\n      dup2\n        /* \"#utility.yul\":19298:19319   */\n      tag_367\n      jump\t// in\n    tag_502:\n        /* \"#utility.yul\":19291:19296   */\n      dup2\n        /* \"#utility.yul\":19288:19320   */\n      eq\n        /* \"#utility.yul\":19278:19280   */\n      tag_503\n      jumpi\n        /* \"#utility.yul\":19334:19335   */\n      0x00\n        /* \"#utility.yul\":19331:19332   */\n      dup1\n        /* \"#utility.yul\":19324:19336   */\n      revert\n        /* \"#utility.yul\":19278:19280   */\n    tag_503:\n        /* \"#utility.yul\":19268:19344   */\n      pop\n      jump\t// out\n        /* \"#utility.yul\":19350:19472   */\n    tag_316:\n        /* \"#utility.yul\":19423:19447   */\n      tag_505\n        /* \"#utility.yul\":19441:19446   */\n      dup2\n        /* \"#utility.yul\":19423:19447   */\n      tag_413\n      jump\t// in\n    tag_505:\n        /* \"#utility.yul\":19416:19421   */\n      dup2\n        /* \"#utility.yul\":19413:19448   */\n      eq\n        /* \"#utility.yul\":19403:19405   */\n      tag_506\n      jumpi\n        /* \"#utility.yul\":19462:19463   */\n      0x00\n        /* \"#utility.yul\":19459:19460   */\n      dup1\n        /* \"#utility.yul\":19452:19464   */\n      revert\n        /* \"#utility.yul\":19403:19405   */\n    tag_506:\n        /* \"#utility.yul\":19393:19472   */\n      pop\n      jump\t// out\n\n    auxdata: 0xa2646970667358221220ac58494a5af73350383d2b11aab4962dc8c9ee8890095826140b9970d6a6b94564736f6c63430008000033\n}\n",
				"bytecode": {
					"linkReferences": {},
					"object": "60c060405260016000806101000a81548160ff0219169083151502179055503480156200002b57600080fd5b503373ffffffffffffffffffffffffffffffffffffffff1660808173ffffffffffffffffffffffffffffffffffffffff1660601b815250504260a08181525050620000cb6040518060400160405280600681526020017f496e6963696f0000000000000000000000000000000000000000000000000000815250604051806060016040528060348152602001620030b660349139620000d160201b60201c565b6200087b565b60008054906101000a900460ff1662000121576040517f08c379a00000000000000000000000000000000000000000000000000000000081526004016200011890620006ee565b60405180910390fd5b62000132826200031a60201b60201c565b1562000175576040517f08c379a00000000000000000000000000000000000000000000000000000000081526004016200016c9062000710565b60405180910390fd5b600060018081600181540180825580915050039060005260206000209060040201905060018160000160006101000a81548160ff021916908315150217905550338160000160016101000a81548173ffffffffffffffffffffffffffffffffffffffff021916908373ffffffffffffffffffffffffffffffffffffffff160217905550428160010181905550828160020190805190602001906200021b9291906200051e565b508060030160405180608001604052806001151581526020013373ffffffffffffffffffffffffffffffffffffffff16815260200142815260200184815250908060018154018082558091505060019003906000526020600020906003020160009091909190915060008201518160000160006101000a81548160ff02191690831515021790555060208201518160000160016101000a81548173ffffffffffffffffffffffffffffffffffffffff021916908373ffffffffffffffffffffffffffffffffffffffff160217905550604082015181600101556060820151816002019080519060200190620003129291906200051e565b505050505050565b600080600090505b600180549050811015620004a657600181815481106200036b577f4e487b7100000000000000000000000000000000000000000000000000000000600052603260045260246000fd5b906000526020600020906004020160000160009054906101000a900460ff161562000490576200047e60018281548110620003cf577f4e487b7100000000000000000000000000000000000000000000000000000000600052603260045260246000fd5b90600052602060002090600402016002018054620003ed9062000799565b80601f01602080910402602001604051908101604052809291908181526020018280546200041b9062000799565b80156200046c5780601f1062000440576101008083540402835291602001916200046c565b820191906000526020600020905b8154815290600101906020018083116200044e57829003601f168201915b505050505084620004b160201b60201c565b156200048f576001915050620004ac565b5b80806200049d90620007cf565b91505062000322565b50600090505b919050565b600081604051602001620004c69190620006d5565b6040516020818303038152906040528051906020012083604051602001620004ef9190620006d5565b60405160208183030381529060405280519060200120146200051357600062000516565b60015b905092915050565b8280546200052c9062000799565b90600052602060002090601f0160209004810192826200055057600085556200059c565b82601f106200056b57805160ff19168380011785556200059c565b828001600101855582156200059c579182015b828111156200059b5782518255916020019190600101906200057e565b5b509050620005ab9190620005af565b5090565b5b80821115620005ca576000816000905550600101620005b0565b5090565b6000620005db8262000732565b620005e781856200074e565b9350620005f981856020860162000763565b80840191505092915050565b6000620006146034836200073d565b91507f41206163616f20736f2065207065726d6974696461207175616e646f2061204260008301527f6c6f636b706564696120657374612061746976610000000000000000000000006020830152604082019050919050565b60006200067c6026836200073d565b91507f4a612065786973746520706167696e6120617469766120636f6d20657374652060008301527f746974756c6f00000000000000000000000000000000000000000000000000006020830152604082019050919050565b6000620006e38284620005ce565b915081905092915050565b60006020820190508181036000830152620007098162000605565b9050919050565b600060208201905081810360008301526200072b816200066d565b9050919050565b600081519050919050565b600082825260208201905092915050565b600081905092915050565b6000819050919050565b60005b838110156200078357808201518184015260208101905062000766565b8381111562000793576000848401525b50505050565b60006002820490506001821680620007b257607f821691505b60208210811415620007c957620007c86200084c565b5b50919050565b6000620007dc8262000759565b91507fffffffffffffffffffffffffffffffffffffffffffffffffffffffffffffffff8214156200081257620008116200081d565b5b600182019050919050565b7f4e487b7100000000000000000000000000000000000000000000000000000000600052601160045260246000fd5b7f4e487b7100000000000000000000000000000000000000000000000000000000600052602260045260246000fd5b60805160601c60a05161280b620008ab6000396000610c130152600081816102ed0152610311015261280b6000f3fe6080604052600436106100ab5760003560e01c806395be551a1161006457806395be551a146101dc578063a18cc13b14610205578063aa83581f14610230578063d4d23a6e14610259578063d616c9f014610282578063e7d4296a146102ab576100b5565b80630694952d146100ba5780631509d30c146100e55780631c18379a1461010e5780632e87ca2e146101375780634d7e6726146101745780636f70a52e146101b1576100b5565b366100b557600080fd5b600080fd5b3480156100c657600080fd5b506100cf6102eb565b6040516100dc91906122e4565b60405180910390f35b3480156100f157600080fd5b5061010c60048036038101906101079190611cd8565b61030f565b005b34801561011a57600080fd5b5061013560048036038101906101309190611d42565b6103b9565b005b34801561014357600080fd5b5061015e60048036038101906101599190611d01565b6105f0565b60405161016b91906122ff565b60405180910390f35b34801561018057600080fd5b5061019b60048036038101906101969190611dae565b6108e9565b6040516101a89190612388565b60405180910390f35b3480156101bd57600080fd5b506101c6610c11565b6040516101d391906124ca565b60405180910390f35b3480156101e857600080fd5b5061020360048036038101906101fe9190611e2b565b610c35565b005b34801561021157600080fd5b5061021a61112b565b6040516102279190612321565b60405180910390f35b34801561023c57600080fd5b5061025760048036038101906102529190611dae565b61113c565b005b34801561026557600080fd5b50610280600480360381019061027b9190611dd7565b6113b6565b005b34801561028e57600080fd5b506102a960048036038101906102a49190611dae565b611624565b005b3480156102b757600080fd5b506102d260048036038101906102cd9190611dae565b611782565b6040516102e2949392919061233c565b60405180910390f35b7f000000000000000000000000000000000000000000000000000000000000000081565b7f000000000000000000000000000000000000000000000000000000000000000073ffffffffffffffffffffffffffffffffffffffff163373ffffffffffffffffffffffffffffffffffffffff161461039d576040517f08c379a0000000000000000000000000000000000000000000000000000000008152600401610394906124aa565b60405180910390fd5b806000806101000a81548160ff02191690831515021790555050565b60008054906101000a900460ff16610406576040517f08c379a00000000000000000000000000000000000000000000000000000000081526004016103fd9061244a565b60405180910390fd5b61040f82611877565b1561044f576040517f08c379a00000000000000000000000000000000000000000000000000000000081526004016104469061246a565b60405180910390fd5b600060018081600181540180825580915050039060005260206000209060040201905060018160000160006101000a81548160ff021916908315150217905550338160000160016101000a81548173ffffffffffffffffffffffffffffffffffffffff021916908373ffffffffffffffffffffffffffffffffffffffff160217905550428160010181905550828160020190805190602001906104f3929190611b63565b508060030160405180608001604052806001151581526020013373ffffffffffffffffffffffffffffffffffffffff16815260200142815260200184815250908060018154018082558091505060019003906000526020600020906003020160009091909190915060008201518160000160006101000a81548160ff02191690831515021790555060208201518160000160016101000a81548173ffffffffffffffffffffffffffffffffffffffff021916908373ffffffffffffffffffffffffffffffffffffffff1602179055506040820151816001015560608201518160020190805190602001906105e8929190611b63565b505050505050565b6060600060018054905067ffffffffffffffff811115610639577f4e487b7100000000000000000000000000000000000000000000000000000000600052604160045260246000fd5b6040519080825280602002602001820160405280156106675781602001602082028036833780820191505090505b5090506000805b6001805490508110156107c557610758600182815481106106b8577f4e487b7100000000000000000000000000000000000000000000000000000000600052603260045260246000fd5b906000526020600020906004020160020180546106d49061268e565b80601f01602080910402602001604051908101604052809291908181526020018280546107009061268e565b801561074d5780601f106107225761010080835404028352916020019161074d565b820191906000526020600020905b81548152906001019060200180831161073057829003601f168201915b5050505050866119f5565b156107b25780838381518110610797577f4e487b7100000000000000000000000000000000000000000000000000000000600052603260045260246000fd5b60200260200101818152505081806107ae906126c0565b9250505b80806107bd906126c0565b91505061066e565b5060008167ffffffffffffffff811115610808577f4e487b7100000000000000000000000000000000000000000000000000000000600052604160045260246000fd5b6040519080825280602002602001820160405280156108365781602001602082028036833780820191505090505b50905060005b828110156108dd5783818151811061087d577f4e487b7100000000000000000000000000000000000000000000000000000000600052603260045260246000fd5b60200260200101518282815181106108be577f4e487b7100000000000000000000000000000000000000000000000000000000600052603260045260246000fd5b60200260200101818152505080806108d5906126c0565b91505061083c565b50809350505050919050565b60606001805490508210610932576040517f08c379a00000000000000000000000000000000000000000000000000000000081526004016109299061240a565b60405180910390fd5b610c066001838154811061096f577f4e487b7100000000000000000000000000000000000000000000000000000000600052603260045260246000fd5b90600052602060002090600402016040518060a00160405290816000820160009054906101000a900460ff161515151581526020016000820160019054906101000a900473ffffffffffffffffffffffffffffffffffffffff1673ffffffffffffffffffffffffffffffffffffffff1673ffffffffffffffffffffffffffffffffffffffff16815260200160018201548152602001600282018054610a139061268e565b80601f0160208091040260200160405190810160405280929190818152602001828054610a3f9061268e565b8015610a8c5780601f10610a6157610100808354040283529160200191610a8c565b820191906000526020600020905b815481529060010190602001808311610a6f57829003601f168201915b5050505050815260200160038201805480602002602001604051908101604052809291908181526020016000905b82821015610bf957838290600052602060002090600302016040518060800160405290816000820160009054906101000a900460ff161515151581526020016000820160019054906101000a900473ffffffffffffffffffffffffffffffffffffffff1673ffffffffffffffffffffffffffffffffffffffff1673ffffffffffffffffffffffffffffffffffffffff16815260200160018201548152602001600282018054610b689061268e565b80601f0160208091040260200160405190810160405280929190818152602001828054610b949061268e565b8015610be15780601f10610bb657610100808354040283529160200191610be1565b820191906000526020600020905b815481529060010190602001808311610bc457829003601f168201915b50505050508152505081526020019060010190610aba565b5050505081525050611a5c565b606001519050919050565b7f000000000000000000000000000000000000000000000000000000000000000081565b60008054906101000a900460ff16610c82576040517f08c379a0000000000000000000000000000000000000000000000000000000008152600401610c799061244a565b60405180910390fd5b6001805490508210610cc9576040517f08c379a0000000000000000000000000000000000000000000000000000000008152600401610cc09061248a565b60405180910390fd5b60018281548110610d03577f4e487b7100000000000000000000000000000000000000000000000000000000600052603260045260246000fd5b906000526020600020906004020160000160009054906101000a900460ff16610d61576040517f08c379a0000000000000000000000000000000000000000000000000000000008152600401610d58906123ea565b60405180910390fd5b60018281548110610d9b577f4e487b7100000000000000000000000000000000000000000000000000000000600052603260045260246000fd5b9060005260206000209060040201600301805490508110610df1576040517f08c379a0000000000000000000000000000000000000000000000000000000008152600401610de89061242a565b60405180910390fd5b60018281548110610e2b577f4e487b7100000000000000000000000000000000000000000000000000000000600052603260045260246000fd5b90600052602060002090600402016003018181548110610e74577f4e487b7100000000000000000000000000000000000000000000000000000000600052603260045260246000fd5b906000526020600020906003020160000160009054906101000a900460ff1615610e9d57611127565b600060018381548110610ed9577f4e487b7100000000000000000000000000000000000000000000000000000000600052603260045260246000fd5b90600052602060002090600402016003018054905090505b6000811115611079576000600182610f0991906125a6565b905060018481548110610f45577f4e487b7100000000000000000000000000000000000000000000000000000000600052603260045260246000fd5b90600052602060002090600402016003018181548110610f8e577f4e487b7100000000000000000000000000000000000000000000000000000000600052603260045260246000fd5b906000526020600020906003020160000160009054906101000a900460ff161561106557600060018581548110610fee577f4e487b7100000000000000000000000000000000000000000000000000000000600052603260045260246000fd5b90600052602060002090600402016003018281548110611037577f4e487b7100000000000000000000000000000000000000000000000000000000600052603260045260246000fd5b906000526020600020906003020160000160006101000a81548160ff02191690831515021790555050611079565b50808061107190612664565b915050610ef1565b5060018083815481106110b5577f4e487b7100000000000000000000000000000000000000000000000000000000600052603260045260246000fd5b906000526020600020906004020160030182815481106110fe577f4e487b7100000000000000000000000000000000000000000000000000000000600052603260045260246000fd5b906000526020600020906003020160000160006101000a81548160ff0219169083151502179055505b5050565b60008054906101000a900460ff1681565b60008054906101000a900460ff16611189576040517f08c379a00000000000000000000000000000000000000000000000000000000081526004016111809061244a565b60405180910390fd5b60018054905081106111d0576040517f08c379a00000000000000000000000000000000000000000000000000000000081526004016111c79061248a565b60405180910390fd5b6112ac6001828154811061120d577f4e487b7100000000000000000000000000000000000000000000000000000000600052603260045260246000fd5b906000526020600020906004020160020180546112299061268e565b80601f01602080910402602001604051908101604052809291908181526020018280546112559061268e565b80156112a25780601f10611277576101008083540402835291602001916112a2565b820191906000526020600020905b81548152906001019060200180831161128557829003601f168201915b5050505050611877565b156112ec576040517f08c379a00000000000000000000000000000000000000000000000000000000081526004016112e39061246a565b60405180910390fd5b60018181548110611326577f4e487b7100000000000000000000000000000000000000000000000000000000600052603260045260246000fd5b906000526020600020906004020160000160009054906101000a900460ff161561134f576113b3565b600180828154811061138a577f4e487b7100000000000000000000000000000000000000000000000000000000600052603260045260246000fd5b906000526020600020906004020160000160006101000a81548160ff0219169083151502179055505b50565b60008054906101000a900460ff16611403576040517f08c379a00000000000000000000000000000000000000000000000000000000081526004016113fa9061244a565b60405180910390fd5b600180549050821061144a576040517f08c379a00000000000000000000000000000000000000000000000000000000081526004016114419061240a565b60405180910390fd5b60018281548110611484577f4e487b7100000000000000000000000000000000000000000000000000000000600052603260045260246000fd5b906000526020600020906004020160000160009054906101000a900460ff166114e2576040517f08c379a00000000000000000000000000000000000000000000000000000000081526004016114d9906123ca565b60405180910390fd5b6001828154811061151c577f4e487b7100000000000000000000000000000000000000000000000000000000600052603260045260246000fd5b906000526020600020906004020160030160405180608001604052806000151581526020013373ffffffffffffffffffffffffffffffffffffffff16815260200142815260200183815250908060018154018082558091505060019003906000526020600020906003020160009091909190915060008201518160000160006101000a81548160ff02191690831515021790555060208201518160000160016101000a81548173ffffffffffffffffffffffffffffffffffffffff021916908373ffffffffffffffffffffffffffffffffffffffff16021790555060408201518160010155606082015181600201908051906020019061161d929190611b63565b5050505050565b60008054906101000a900460ff16611671576040517f08c379a00000000000000000000000000000000000000000000000000000000081526004016116689061244a565b60405180910390fd5b60018054905081106116b8576040517f08c379a00000000000000000000000000000000000000000000000000000000081526004016116af9061248a565b60405180910390fd5b600181815481106116f2577f4e487b7100000000000000000000000000000000000000000000000000000000600052603260045260246000fd5b906000526020600020906004020160000160009054906101000a900460ff1661171a5761177f565b600060018281548110611756577f4e487b7100000000000000000000000000000000000000000000000000000000600052603260045260246000fd5b906000526020600020906004020160000160006101000a81548160ff0219169083151502179055505b50565b6001818154811061179257600080fd5b90600052602060002090600402016000915090508060000160009054906101000a900460ff16908060000160019054906101000a900473ffffffffffffffffffffffffffffffffffffffff16908060010154908060020180546117f49061268e565b80601f01602080910402602001604051908101604052809291908181526020018280546118209061268e565b801561186d5780601f106118425761010080835404028352916020019161186d565b820191906000526020600020905b81548152906001019060200180831161185057829003601f168201915b5050505050905084565b600080600090505b6001805490508110156119ea57600181815481106118c6577f4e487b7100000000000000000000000000000000000000000000000000000000600052603260045260246000fd5b906000526020600020906004020160000160009054906101000a900460ff16156119d7576119c760018281548110611927577f4e487b7100000000000000000000000000000000000000000000000000000000600052603260045260246000fd5b906000526020600020906004020160020180546119439061268e565b80601f016020809104026020016040519081016040528092919081815260200182805461196f9061268e565b80156119bc5780601f10611991576101008083540402835291602001916119bc565b820191906000526020600020905b81548152906001019060200180831161199f57829003601f168201915b5050505050846119f5565b156119d65760019150506119f0565b5b80806119e2906126c0565b91505061187f565b50600090505b919050565b600081604051602001611a0891906122cd565b6040516020818303038152906040528051906020012083604051602001611a2f91906122cd565b6040516020818303038152906040528051906020012014611a51576000611a54565b60015b905092915050565b611a64611be9565b60005b826080015151811015611b225782608001518181518110611ab1577f4e487b7100000000000000000000000000000000000000000000000000000000600052603260045260246000fd5b60200260200101516000015115611b0f5782608001518181518110611aff577f4e487b7100000000000000000000000000000000000000000000000000000000600052603260045260246000fd5b6020026020010151915050611b5e565b8080611b1a906126c0565b915050611a67565b506040517f08c379a0000000000000000000000000000000000000000000000000000000008152600401611b55906123aa565b60405180910390fd5b919050565b828054611b6f9061268e565b90600052602060002090601f016020900481019282611b915760008555611bd8565b82601f10611baa57805160ff1916838001178555611bd8565b82800160010185558215611bd8579182015b82811115611bd7578251825591602001919060010190611bbc565b5b509050611be59190611c29565b5090565b6040518060800160405280600015158152602001600073ffffffffffffffffffffffffffffffffffffffff16815260200160008152602001606081525090565b5b80821115611c42576000816000905550600101611c2a565b5090565b6000611c59611c5484612516565b6124e5565b905082815260208101848484011115611c7157600080fd5b611c7c848285612622565b509392505050565b600081359050611c93816127a7565b92915050565b600082601f830112611caa57600080fd5b8135611cba848260208601611c46565b91505092915050565b600081359050611cd2816127be565b92915050565b600060208284031215611cea57600080fd5b6000611cf884828501611c84565b91505092915050565b600060208284031215611d1357600080fd5b600082013567ffffffffffffffff811115611d2d57600080fd5b611d3984828501611c99565b91505092915050565b60008060408385031215611d5557600080fd5b600083013567ffffffffffffffff811115611d6f57600080fd5b611d7b85828601611c99565b925050602083013567ffffffffffffffff811115611d9857600080fd5b611da485828601611c99565b9150509250929050565b600060208284031215611dc057600080fd5b6000611dce84828501611cc3565b91505092915050565b60008060408385031215611dea57600080fd5b6000611df885828601611cc3565b925050602083013567ffffffffffffffff811115611e1557600080fd5b611e2185828601611c99565b9150509250929050565b60008060408385031215611e3e57600080fd5b6000611e4c85828601611cc3565b9250506020611e5d85828601611cc3565b9150509250929050565b6000611e7383836122af565b60208301905092915050565b611e88816125da565b82525050565b6000611e9982612556565b611ea38185612579565b9350611eae83612546565b8060005b83811015611edf578151611ec68882611e67565b9750611ed18361256c565b925050600181019050611eb2565b5085935050505092915050565b611ef5816125ec565b82525050565b6000611f0682612561565b611f10818561258a565b9350611f20818560208601612631565b611f2981612796565b840191505092915050565b6000611f3f82612561565b611f49818561259b565b9350611f59818560208601612631565b80840191505092915050565b6000611f7260308361258a565b91507f4e656e68756d612076657263616f20617469766120656e636f6e74726164612060008301527f70617261206573746120706167696e61000000000000000000000000000000006020830152604082019050919050565b6000611fd860438361258a565b91507f412061646963616f206465206e6f76617320766572636f657320736f2065207060008301527f65726d6974696461207175616e646f206120706167696e61206573746120617460208301527f69766100000000000000000000000000000000000000000000000000000000006040830152606082019050919050565b6000612064603f8361258a565b91507f4120616c7465726163616f2064652076657273616f20736f2065207065726d6960008301527f74696461207175616e646f206120706167696e612065737461206174697661006020830152604082019050919050565b60006120ca60168361258a565b91507f496e6469636520666f726120646f20616c63616e6365000000000000000000006000830152602082019050919050565b600061210a60208361258a565b91507f496e646963652064612076657273616f20666f726120646f20616c63616e63656000830152602082019050919050565b600061214a60348361258a565b91507f41206163616f20736f2065207065726d6974696461207175616e646f2061204260008301527f6c6f636b706564696120657374612061746976610000000000000000000000006020830152604082019050919050565b60006121b060268361258a565b91507f4a612065786973746520706167696e6120617469766120636f6d20657374652060008301527f746974756c6f00000000000000000000000000000000000000000000000000006020830152604082019050919050565b600061221660208361258a565b91507f496e6469636520646120706167696e6120666f726120646f20616c63616e63656000830152602082019050919050565b6000612256603d8361258a565b91507f536f6d656e7465206f20646f6e6f20646573746120426c6f636b70656469612060008301527f706f646520616c7465726172206f20617472696275746f20617469766f0000006020830152604082019050919050565b6122b881612618565b82525050565b6122c781612618565b82525050565b60006122d98284611f34565b915081905092915050565b60006020820190506122f96000830184611e7f565b92915050565b600060208201905081810360008301526123198184611e8e565b905092915050565b60006020820190506123366000830184611eec565b92915050565b60006080820190506123516000830187611eec565b61235e6020830186611e7f565b61236b60408301856122be565b818103606083015261237d8184611efb565b905095945050505050565b600060208201905081810360008301526123a28184611efb565b905092915050565b600060208201905081810360008301526123c381611f65565b9050919050565b600060208201905081810360008301526123e381611fcb565b9050919050565b6000602082019050818103600083015261240381612057565b9050919050565b60006020820190508181036000830152612423816120bd565b9050919050565b60006020820190508181036000830152612443816120fd565b9050919050565b600060208201905081810360008301526124638161213d565b9050919050565b60006020820190508181036000830152612483816121a3565b9050919050565b600060208201905081810360008301526124a381612209565b9050919050565b600060208201905081810360008301526124c381612249565b9050919050565b60006020820190506124df60008301846122be565b92915050565b6000604051905081810181811067ffffffffffffffff8211171561250c5761250b612767565b5b8060405250919050565b600067ffffffffffffffff82111561253157612530612767565b5b601f19601f8301169050602081019050919050565b6000819050602082019050919050565b600081519050919050565b600081519050919050565b6000602082019050919050565b600082825260208201905092915050565b600082825260208201905092915050565b600081905092915050565b60006125b182612618565b91506125bc83612618565b9250828210156125cf576125ce612709565b5b828203905092915050565b60006125e5826125f8565b9050919050565b60008115159050919050565b600073ffffffffffffffffffffffffffffffffffffffff82169050919050565b6000819050919050565b82818337600083830152505050565b60005b8381101561264f578082015181840152602081019050612634565b8381111561265e576000848401525b50505050565b600061266f82612618565b9150600082141561268357612682612709565b5b600182039050919050565b600060028204905060018216806126a657607f821691505b602082108114156126ba576126b9612738565b5b50919050565b60006126cb82612618565b91507fffffffffffffffffffffffffffffffffffffffffffffffffffffffffffffffff8214156126fe576126fd612709565b5b600182019050919050565b7f4e487b7100000000000000000000000000000000000000000000000000000000600052601160045260246000fd5b7f4e487b7100000000000000000000000000000000000000000000000000000000600052602260045260246000fd5b7f4e487b7100000000000000000000000000000000000000000000000000000000600052604160045260246000fd5b6000601f19601f8301169050919050565b6127b0816125ec565b81146127bb57600080fd5b50565b6127c781612618565b81146127d257600080fd5b5056fea2646970667358221220ac58494a5af73350383d2b11aab4962dc8c9ee8890095826140b9970d6a6b94564736f6c6343000800003342656d2076696e646f206120426c6f636b70656964612c206120656e6369636c6f7065646961206e6120626c6f636b636861696e",
					"opcodes": "PUSH1 0xC0 PUSH1 0x40 MSTORE PUSH1 0x1 PUSH1 0x0 DUP1 PUSH2 0x100 EXP DUP2 SLOAD DUP2 PUSH1 0xFF MUL NOT AND SWAP1 DUP4 ISZERO ISZERO MUL OR SWAP1 SSTORE POP CALLVALUE DUP1 ISZERO PUSH3 0x2B JUMPI PUSH1 0x0 DUP1 REVERT JUMPDEST POP CALLER PUSH20 0xFFFFFFFFFFFFFFFFFFFFFFFFFFFFFFFFFFFFFFFF AND PUSH1 0x80 DUP2 PUSH20 0xFFFFFFFFFFFFFFFFFFFFFFFFFFFFFFFFFFFFFFFF AND PUSH1 0x60 SHL DUP2 MSTORE POP POP TIMESTAMP PUSH1 0xA0 DUP2 DUP2 MSTORE POP POP PUSH3 0xCB PUSH1 0x40 MLOAD DUP1 PUSH1 0x40 ADD PUSH1 0x40 MSTORE DUP1 PUSH1 0x6 DUP2 MSTORE PUSH1 0x20 ADD PUSH32 0x496E6963696F0000000000000000000000000000000000000000000000000000 DUP2 MSTORE POP PUSH1 0x40 MLOAD DUP1 PUSH1 0x60 ADD PUSH1 0x40 MSTORE DUP1 PUSH1 0x34 DUP2 MSTORE PUSH1 0x20 ADD PUSH3 0x30B6 PUSH1 0x34 SWAP2 CODECOPY PUSH3 0xD1 PUSH1 0x20 SHL PUSH1 0x20 SHR JUMP JUMPDEST PUSH3 0x87B JUMP JUMPDEST PUSH1 0x0 DUP1 SLOAD SWAP1 PUSH2 0x100 EXP SWAP1 DIV PUSH1 0xFF AND PUSH3 0x121 JUMPI PUSH1 0x40 MLOAD PUSH32 0x8C379A000000000000000000000000000000000000000000000000000000000 DUP2 MSTORE PUSH1 0x4 ADD PUSH3 0x118 SWAP1 PUSH3 0x6EE JUMP JUMPDEST PUSH1 0x40 MLOAD DUP1 SWAP2 SUB SWAP1 REVERT JUMPDEST PUSH3 0x132 DUP3 PUSH3 0x31A PUSH1 0x20 SHL PUSH1 0x20 SHR JUMP JUMPDEST ISZERO PUSH3 0x175 JUMPI PUSH1 0x40 MLOAD PUSH32 0x8C379A000000000000000000000000000000000000000000000000000000000 DUP2 MSTORE PUSH1 0x4 ADD PUSH3 0x16C SWAP1 PUSH3 0x710 JUMP JUMPDEST PUSH1 0x40 MLOAD DUP1 SWAP2 SUB SWAP1 REVERT JUMPDEST PUSH1 0x0 PUSH1 0x1 DUP1 DUP2 PUSH1 0x1 DUP2 SLOAD ADD DUP1 DUP3 SSTORE DUP1 SWAP2 POP POP SUB SWAP1 PUSH1 0x0 MSTORE PUSH1 0x20 PUSH1 0x0 KECCAK256 SWAP1 PUSH1 0x4 MUL ADD SWAP1 POP PUSH1 0x1 DUP2 PUSH1 0x0 ADD PUSH1 0x0 PUSH2 0x100 EXP DUP2 SLOAD DUP2 PUSH1 0xFF MUL NOT AND SWAP1 DUP4 ISZERO ISZERO MUL OR SWAP1 SSTORE POP CALLER DUP2 PUSH1 0x0 ADD PUSH1 0x1 PUSH2 0x100 EXP DUP2 SLOAD DUP2 PUSH20 0xFFFFFFFFFFFFFFFFFFFFFFFFFFFFFFFFFFFFFFFF MUL NOT AND SWAP1 DUP4 PUSH20 0xFFFFFFFFFFFFFFFFFFFFFFFFFFFFFFFFFFFFFFFF AND MUL OR SWAP1 SSTORE POP TIMESTAMP DUP2 PUSH1 0x1 ADD DUP2 SWAP1 SSTORE POP DUP3 DUP2 PUSH1 0x2 ADD SWAP1 DUP1 MLOAD SWAP1 PUSH1 0x20 ADD SWAP1 PUSH3 0x21B SWAP3 SWAP2 SWAP1 PUSH3 0x51E JUMP JUMPDEST POP DUP1 PUSH1 0x3 ADD PUSH1 0x40 MLOAD DUP1 PUSH1 0x80 ADD PUSH1 0x40 MSTORE DUP1 PUSH1 0x1 ISZERO ISZERO DUP2 MSTORE PUSH1 0x20 ADD CALLER PUSH20 0xFFFFFFFFFFFFFFFFFFFFFFFFFFFFFFFFFFFFFFFF AND DUP2 MSTORE PUSH1 0x20 ADD TIMESTAMP DUP2 MSTORE PUSH1 0x20 ADD DUP5 DUP2 MSTORE POP SWAP1 DUP1 PUSH1 0x1 DUP2 SLOAD ADD DUP1 DUP3 SSTORE DUP1 SWAP2 POP POP PUSH1 0x1 SWAP1 SUB SWAP1 PUSH1 0x0 MSTORE PUSH1 0x20 PUSH1 0x0 KECCAK256 SWAP1 PUSH1 0x3 MUL ADD PUSH1 0x0 SWAP1 SWAP2 SWAP1 SWAP2 SWAP1 SWAP2 POP PUSH1 0x0 DUP3 ADD MLOAD DUP2 PUSH1 0x0 ADD PUSH1 0x0 PUSH2 0x100 EXP DUP2 SLOAD DUP2 PUSH1 0xFF MUL NOT AND SWAP1 DUP4 ISZERO ISZERO MUL OR SWAP1 SSTORE POP PUSH1 0x20 DUP3 ADD MLOAD DUP2 PUSH1 0x0 ADD PUSH1 0x1 PUSH2 0x100 EXP DUP2 SLOAD DUP2 PUSH20 0xFFFFFFFFFFFFFFFFFFFFFFFFFFFFFFFFFFFFFFFF MUL NOT AND SWAP1 DUP4 PUSH20 0xFFFFFFFFFFFFFFFFFFFFFFFFFFFFFFFFFFFFFFFF AND MUL OR SWAP1 SSTORE POP PUSH1 0x40 DUP3 ADD MLOAD DUP2 PUSH1 0x1 ADD SSTORE PUSH1 0x60 DUP3 ADD MLOAD DUP2 PUSH1 0x2 ADD SWAP1 DUP1 MLOAD SWAP1 PUSH1 0x20 ADD SWAP1 PUSH3 0x312 SWAP3 SWAP2 SWAP1 PUSH3 0x51E JUMP JUMPDEST POP POP POP POP POP POP JUMP JUMPDEST PUSH1 0x0 DUP1 PUSH1 0x0 SWAP1 POP JUMPDEST PUSH1 0x1 DUP1 SLOAD SWAP1 POP DUP2 LT ISZERO PUSH3 0x4A6 JUMPI PUSH1 0x1 DUP2 DUP2 SLOAD DUP2 LT PUSH3 0x36B JUMPI PUSH32 0x4E487B7100000000000000000000000000000000000000000000000000000000 PUSH1 0x0 MSTORE PUSH1 0x32 PUSH1 0x4 MSTORE PUSH1 0x24 PUSH1 0x0 REVERT JUMPDEST SWAP1 PUSH1 0x0 MSTORE PUSH1 0x20 PUSH1 0x0 KECCAK256 SWAP1 PUSH1 0x4 MUL ADD PUSH1 0x0 ADD PUSH1 0x0 SWAP1 SLOAD SWAP1 PUSH2 0x100 EXP SWAP1 DIV PUSH1 0xFF AND ISZERO PUSH3 0x490 JUMPI PUSH3 0x47E PUSH1 0x1 DUP3 DUP2 SLOAD DUP2 LT PUSH3 0x3CF JUMPI PUSH32 0x4E487B7100000000000000000000000000000000000000000000000000000000 PUSH1 0x0 MSTORE PUSH1 0x32 PUSH1 0x4 MSTORE PUSH1 0x24 PUSH1 0x0 REVERT JUMPDEST SWAP1 PUSH1 0x0 MSTORE PUSH1 0x20 PUSH1 0x0 KECCAK256 SWAP1 PUSH1 0x4 MUL ADD PUSH1 0x2 ADD DUP1 SLOAD PUSH3 0x3ED SWAP1 PUSH3 0x799 JUMP JUMPDEST DUP1 PUSH1 0x1F ADD PUSH1 0x20 DUP1 SWAP2 DIV MUL PUSH1 0x20 ADD PUSH1 0x40 MLOAD SWAP1 DUP2 ADD PUSH1 0x40 MSTORE DUP1 SWAP3 SWAP2 SWAP1 DUP2 DUP2 MSTORE PUSH1 0x20 ADD DUP3 DUP1 SLOAD PUSH3 0x41B SWAP1 PUSH3 0x799 JUMP JUMPDEST DUP1 ISZERO PUSH3 0x46C JUMPI DUP1 PUSH1 0x1F LT PUSH3 0x440 JUMPI PUSH2 0x100 DUP1 DUP4 SLOAD DIV MUL DUP4 MSTORE SWAP2 PUSH1 0x20 ADD SWAP2 PUSH3 0x46C JUMP JUMPDEST DUP3 ADD SWAP2 SWAP1 PUSH1 0x0 MSTORE PUSH1 0x20 PUSH1 0x0 KECCAK256 SWAP1 JUMPDEST DUP2 SLOAD DUP2 MSTORE SWAP1 PUSH1 0x1 ADD SWAP1 PUSH1 0x20 ADD DUP1 DUP4 GT PUSH3 0x44E JUMPI DUP3 SWAP1 SUB PUSH1 0x1F AND DUP3 ADD SWAP2 JUMPDEST POP POP POP POP POP DUP5 PUSH3 0x4B1 PUSH1 0x20 SHL PUSH1 0x20 SHR JUMP JUMPDEST ISZERO PUSH3 0x48F JUMPI PUSH1 0x1 SWAP2 POP POP PUSH3 0x4AC JUMP JUMPDEST JUMPDEST DUP1 DUP1 PUSH3 0x49D SWAP1 PUSH3 0x7CF JUMP JUMPDEST SWAP2 POP POP PUSH3 0x322 JUMP JUMPDEST POP PUSH1 0x0 SWAP1 POP JUMPDEST SWAP2 SWAP1 POP JUMP JUMPDEST PUSH1 0x0 DUP2 PUSH1 0x40 MLOAD PUSH1 0x20 ADD PUSH3 0x4C6 SWAP2 SWAP1 PUSH3 0x6D5 JUMP JUMPDEST PUSH1 0x40 MLOAD PUSH1 0x20 DUP2 DUP4 SUB SUB DUP2 MSTORE SWAP1 PUSH1 0x40 MSTORE DUP1 MLOAD SWAP1 PUSH1 0x20 ADD KECCAK256 DUP4 PUSH1 0x40 MLOAD PUSH1 0x20 ADD PUSH3 0x4EF SWAP2 SWAP1 PUSH3 0x6D5 JUMP JUMPDEST PUSH1 0x40 MLOAD PUSH1 0x20 DUP2 DUP4 SUB SUB DUP2 MSTORE SWAP1 PUSH1 0x40 MSTORE DUP1 MLOAD SWAP1 PUSH1 0x20 ADD KECCAK256 EQ PUSH3 0x513 JUMPI PUSH1 0x0 PUSH3 0x516 JUMP JUMPDEST PUSH1 0x1 JUMPDEST SWAP1 POP SWAP3 SWAP2 POP POP JUMP JUMPDEST DUP3 DUP1 SLOAD PUSH3 0x52C SWAP1 PUSH3 0x799 JUMP JUMPDEST SWAP1 PUSH1 0x0 MSTORE PUSH1 0x20 PUSH1 0x0 KECCAK256 SWAP1 PUSH1 0x1F ADD PUSH1 0x20 SWAP1 DIV DUP2 ADD SWAP3 DUP3 PUSH3 0x550 JUMPI PUSH1 0x0 DUP6 SSTORE PUSH3 0x59C JUMP JUMPDEST DUP3 PUSH1 0x1F LT PUSH3 0x56B JUMPI DUP1 MLOAD PUSH1 0xFF NOT AND DUP4 DUP1 ADD OR DUP6 SSTORE PUSH3 0x59C JUMP JUMPDEST DUP3 DUP1 ADD PUSH1 0x1 ADD DUP6 SSTORE DUP3 ISZERO PUSH3 0x59C JUMPI SWAP2 DUP3 ADD JUMPDEST DUP3 DUP2 GT ISZERO PUSH3 0x59B JUMPI DUP3 MLOAD DUP3 SSTORE SWAP2 PUSH1 0x20 ADD SWAP2 SWAP1 PUSH1 0x1 ADD SWAP1 PUSH3 0x57E JUMP JUMPDEST JUMPDEST POP SWAP1 POP PUSH3 0x5AB SWAP2 SWAP1 PUSH3 0x5AF JUMP JUMPDEST POP SWAP1 JUMP JUMPDEST JUMPDEST DUP1 DUP3 GT ISZERO PUSH3 0x5CA JUMPI PUSH1 0x0 DUP2 PUSH1 0x0 SWAP1 SSTORE POP PUSH1 0x1 ADD PUSH3 0x5B0 JUMP JUMPDEST POP SWAP1 JUMP JUMPDEST PUSH1 0x0 PUSH3 0x5DB DUP3 PUSH3 0x732 JUMP JUMPDEST PUSH3 0x5E7 DUP2 DUP6 PUSH3 0x74E JUMP JUMPDEST SWAP4 POP PUSH3 0x5F9 DUP2 DUP6 PUSH1 0x20 DUP7 ADD PUSH3 0x763 JUMP JUMPDEST DUP1 DUP5 ADD SWAP2 POP POP SWAP3 SWAP2 POP POP JUMP JUMPDEST PUSH1 0x0 PUSH3 0x614 PUSH1 0x34 DUP4 PUSH3 0x73D JUMP JUMPDEST SWAP2 POP PUSH32 0x41206163616F20736F2065207065726D6974696461207175616E646F20612042 PUSH1 0x0 DUP4 ADD MSTORE PUSH32 0x6C6F636B70656469612065737461206174697661000000000000000000000000 PUSH1 0x20 DUP4 ADD MSTORE PUSH1 0x40 DUP3 ADD SWAP1 POP SWAP2 SWAP1 POP JUMP JUMPDEST PUSH1 0x0 PUSH3 0x67C PUSH1 0x26 DUP4 PUSH3 0x73D JUMP JUMPDEST SWAP2 POP PUSH32 0x4A612065786973746520706167696E6120617469766120636F6D206573746520 PUSH1 0x0 DUP4 ADD MSTORE PUSH32 0x746974756C6F0000000000000000000000000000000000000000000000000000 PUSH1 0x20 DUP4 ADD MSTORE PUSH1 0x40 DUP3 ADD SWAP1 POP SWAP2 SWAP1 POP JUMP JUMPDEST PUSH1 0x0 PUSH3 0x6E3 DUP3 DUP5 PUSH3 0x5CE JUMP JUMPDEST SWAP2 POP DUP2 SWAP1 POP SWAP3 SWAP2 POP POP JUMP JUMPDEST PUSH1 0x0 PUSH1 0x20 DUP3 ADD SWAP1 POP DUP2 DUP2 SUB PUSH1 0x0 DUP4 ADD MSTORE PUSH3 0x709 DUP2 PUSH3 0x605 JUMP JUMPDEST SWAP1 POP SWAP2 SWAP1 POP JUMP JUMPDEST PUSH1 0x0 PUSH1 0x20 DUP3 ADD SWAP1 POP DUP2 DUP2 SUB PUSH1 0x0 DUP4 ADD MSTORE PUSH3 0x72B DUP2 PUSH3 0x66D JUMP JUMPDEST SWAP1 POP SWAP2 SWAP1 POP JUMP JUMPDEST PUSH1 0x0 DUP2 MLOAD SWAP1 POP SWAP2 SWAP1 POP JUMP JUMPDEST PUSH1 0x0 DUP3 DUP3 MSTORE PUSH1 0x20 DUP3 ADD SWAP1 POP SWAP3 SWAP2 POP POP JUMP JUMPDEST PUSH1 0x0 DUP2 SWAP1 POP SWAP3 SWAP2 POP POP JUMP JUMPDEST PUSH1 0x0 DUP2 SWAP1 POP SWAP2 SWAP1 POP JUMP JUMPDEST PUSH1 0x0 JUMPDEST DUP4 DUP2 LT ISZERO PUSH3 0x783 JUMPI DUP1 DUP3 ADD MLOAD DUP2 DUP5 ADD MSTORE PUSH1 0x20 DUP2 ADD SWAP1 POP PUSH3 0x766 JUMP JUMPDEST DUP4 DUP2 GT ISZERO PUSH3 0x793 JUMPI PUSH1 0x0 DUP5 DUP5 ADD MSTORE JUMPDEST POP POP POP POP JUMP JUMPDEST PUSH1 0x0 PUSH1 0x2 DUP3 DIV SWAP1 POP PUSH1 0x1 DUP3 AND DUP1 PUSH3 0x7B2 JUMPI PUSH1 0x7F DUP3 AND SWAP2 POP JUMPDEST PUSH1 0x20 DUP3 LT DUP2 EQ ISZERO PUSH3 0x7C9 JUMPI PUSH3 0x7C8 PUSH3 0x84C JUMP JUMPDEST JUMPDEST POP SWAP2 SWAP1 POP JUMP JUMPDEST PUSH1 0x0 PUSH3 0x7DC DUP3 PUSH3 0x759 JUMP JUMPDEST SWAP2 POP PUSH32 0xFFFFFFFFFFFFFFFFFFFFFFFFFFFFFFFFFFFFFFFFFFFFFFFFFFFFFFFFFFFFFFFF DUP3 EQ ISZERO PUSH3 0x812 JUMPI PUSH3 0x811 PUSH3 0x81D JUMP JUMPDEST JUMPDEST PUSH1 0x1 DUP3 ADD SWAP1 POP SWAP2 SWAP1 POP JUMP JUMPDEST PUSH32 0x4E487B7100000000000000000000000000000000000000000000000000000000 PUSH1 0x0 MSTORE PUSH1 0x11 PUSH1 0x4 MSTORE PUSH1 0x24 PUSH1 0x0 REVERT JUMPDEST PUSH32 0x4E487B7100000000000000000000000000000000000000000000000000000000 PUSH1 0x0 MSTORE PUSH1 0x22 PUSH1 0x4 MSTORE PUSH1 0x24 PUSH1 0x0 REVERT JUMPDEST PUSH1 0x80 MLOAD PUSH1 0x60 SHR PUSH1 0xA0 MLOAD PUSH2 0x280B PUSH3 0x8AB PUSH1 0x0 CODECOPY PUSH1 0x0 PUSH2 0xC13 ADD MSTORE PUSH1 0x0 DUP2 DUP2 PUSH2 0x2ED ADD MSTORE PUSH2 0x311 ADD MSTORE PUSH2 0x280B PUSH1 0x0 RETURN INVALID PUSH1 0x80 PUSH1 0x40 MSTORE PUSH1 0x4 CALLDATASIZE LT PUSH2 0xAB JUMPI PUSH1 0x0 CALLDATALOAD PUSH1 0xE0 SHR DUP1 PUSH4 0x95BE551A GT PUSH2 0x64 JUMPI DUP1 PUSH4 0x95BE551A EQ PUSH2 0x1DC JUMPI DUP1 PUSH4 0xA18CC13B EQ PUSH2 0x205 JUMPI DUP1 PUSH4 0xAA83581F EQ PUSH2 0x230 JUMPI DUP1 PUSH4 0xD4D23A6E EQ PUSH2 0x259 JUMPI DUP1 PUSH4 0xD616C9F0 EQ PUSH2 0x282 JUMPI DUP1 PUSH4 0xE7D4296A EQ PUSH2 0x2AB JUMPI PUSH2 0xB5 JUMP JUMPDEST DUP1 PUSH4 0x694952D EQ PUSH2 0xBA JUMPI DUP1 PUSH4 0x1509D30C EQ PUSH2 0xE5 JUMPI DUP1 PUSH4 0x1C18379A EQ PUSH2 0x10E JUMPI DUP1 PUSH4 0x2E87CA2E EQ PUSH2 0x137 JUMPI DUP1 PUSH4 0x4D7E6726 EQ PUSH2 0x174 JUMPI DUP1 PUSH4 0x6F70A52E EQ PUSH2 0x1B1 JUMPI PUSH2 0xB5 JUMP JUMPDEST CALLDATASIZE PUSH2 0xB5 JUMPI PUSH1 0x0 DUP1 REVERT JUMPDEST PUSH1 0x0 DUP1 REVERT JUMPDEST CALLVALUE DUP1 ISZERO PUSH2 0xC6 JUMPI PUSH1 0x0 DUP1 REVERT JUMPDEST POP PUSH2 0xCF PUSH2 0x2EB JUMP JUMPDEST PUSH1 0x40 MLOAD PUSH2 0xDC SWAP2 SWAP1 PUSH2 0x22E4 JUMP JUMPDEST PUSH1 0x40 MLOAD DUP1 SWAP2 SUB SWAP1 RETURN JUMPDEST CALLVALUE DUP1 ISZERO PUSH2 0xF1 JUMPI PUSH1 0x0 DUP1 REVERT JUMPDEST POP PUSH2 0x10C PUSH1 0x4 DUP1 CALLDATASIZE SUB DUP2 ADD SWAP1 PUSH2 0x107 SWAP2 SWAP1 PUSH2 0x1CD8 JUMP JUMPDEST PUSH2 0x30F JUMP JUMPDEST STOP JUMPDEST CALLVALUE DUP1 ISZERO PUSH2 0x11A JUMPI PUSH1 0x0 DUP1 REVERT JUMPDEST POP PUSH2 0x135 PUSH1 0x4 DUP1 CALLDATASIZE SUB DUP2 ADD SWAP1 PUSH2 0x130 SWAP2 SWAP1 PUSH2 0x1D42 JUMP JUMPDEST PUSH2 0x3B9 JUMP JUMPDEST STOP JUMPDEST CALLVALUE DUP1 ISZERO PUSH2 0x143 JUMPI PUSH1 0x0 DUP1 REVERT JUMPDEST POP PUSH2 0x15E PUSH1 0x4 DUP1 CALLDATASIZE SUB DUP2 ADD SWAP1 PUSH2 0x159 SWAP2 SWAP1 PUSH2 0x1D01 JUMP JUMPDEST PUSH2 0x5F0 JUMP JUMPDEST PUSH1 0x40 MLOAD PUSH2 0x16B SWAP2 SWAP1 PUSH2 0x22FF JUMP JUMPDEST PUSH1 0x40 MLOAD DUP1 SWAP2 SUB SWAP1 RETURN JUMPDEST CALLVALUE DUP1 ISZERO PUSH2 0x180 JUMPI PUSH1 0x0 DUP1 REVERT JUMPDEST POP PUSH2 0x19B PUSH1 0x4 DUP1 CALLDATASIZE SUB DUP2 ADD SWAP1 PUSH2 0x196 SWAP2 SWAP1 PUSH2 0x1DAE JUMP JUMPDEST PUSH2 0x8E9 JUMP JUMPDEST PUSH1 0x40 MLOAD PUSH2 0x1A8 SWAP2 SWAP1 PUSH2 0x2388 JUMP JUMPDEST PUSH1 0x40 MLOAD DUP1 SWAP2 SUB SWAP1 RETURN JUMPDEST CALLVALUE DUP1 ISZERO PUSH2 0x1BD JUMPI PUSH1 0x0 DUP1 REVERT JUMPDEST POP PUSH2 0x1C6 PUSH2 0xC11 JUMP JUMPDEST PUSH1 0x40 MLOAD PUSH2 0x1D3 SWAP2 SWAP1 PUSH2 0x24CA JUMP JUMPDEST PUSH1 0x40 MLOAD DUP1 SWAP2 SUB SWAP1 RETURN JUMPDEST CALLVALUE DUP1 ISZERO PUSH2 0x1E8 JUMPI PUSH1 0x0 DUP1 REVERT JUMPDEST POP PUSH2 0x203 PUSH1 0x4 DUP1 CALLDATASIZE SUB DUP2 ADD SWAP1 PUSH2 0x1FE SWAP2 SWAP1 PUSH2 0x1E2B JUMP JUMPDEST PUSH2 0xC35 JUMP JUMPDEST STOP JUMPDEST CALLVALUE DUP1 ISZERO PUSH2 0x211 JUMPI PUSH1 0x0 DUP1 REVERT JUMPDEST POP PUSH2 0x21A PUSH2 0x112B JUMP JUMPDEST PUSH1 0x40 MLOAD PUSH2 0x227 SWAP2 SWAP1 PUSH2 0x2321 JUMP JUMPDEST PUSH1 0x40 MLOAD DUP1 SWAP2 SUB SWAP1 RETURN JUMPDEST CALLVALUE DUP1 ISZERO PUSH2 0x23C JUMPI PUSH1 0x0 DUP1 REVERT JUMPDEST POP PUSH2 0x257 PUSH1 0x4 DUP1 CALLDATASIZE SUB DUP2 ADD SWAP1 PUSH2 0x252 SWAP2 SWAP1 PUSH2 0x1DAE JUMP JUMPDEST PUSH2 0x113C JUMP JUMPDEST STOP JUMPDEST CALLVALUE DUP1 ISZERO PUSH2 0x265 JUMPI PUSH1 0x0 DUP1 REVERT JUMPDEST POP PUSH2 0x280 PUSH1 0x4 DUP1 CALLDATASIZE SUB DUP2 ADD SWAP1 PUSH2 0x27B SWAP2 SWAP1 PUSH2 0x1DD7 JUMP JUMPDEST PUSH2 0x13B6 JUMP JUMPDEST STOP JUMPDEST CALLVALUE DUP1 ISZERO PUSH2 0x28E JUMPI PUSH1 0x0 DUP1 REVERT JUMPDEST POP PUSH2 0x2A9 PUSH1 0x4 DUP1 CALLDATASIZE SUB DUP2 ADD SWAP1 PUSH2 0x2A4 SWAP2 SWAP1 PUSH2 0x1DAE JUMP JUMPDEST PUSH2 0x1624 JUMP JUMPDEST STOP JUMPDEST CALLVALUE DUP1 ISZERO PUSH2 0x2B7 JUMPI PUSH1 0x0 DUP1 REVERT JUMPDEST POP PUSH2 0x2D2 PUSH1 0x4 DUP1 CALLDATASIZE SUB DUP2 ADD SWAP1 PUSH2 0x2CD SWAP2 SWAP1 PUSH2 0x1DAE JUMP JUMPDEST PUSH2 0x1782 JUMP JUMPDEST PUSH1 0x40 MLOAD PUSH2 0x2E2 SWAP5 SWAP4 SWAP3 SWAP2 SWAP1 PUSH2 0x233C JUMP JUMPDEST PUSH1 0x40 MLOAD DUP1 SWAP2 SUB SWAP1 RETURN JUMPDEST PUSH32 0x0 DUP2 JUMP JUMPDEST PUSH32 0x0 PUSH20 0xFFFFFFFFFFFFFFFFFFFFFFFFFFFFFFFFFFFFFFFF AND CALLER PUSH20 0xFFFFFFFFFFFFFFFFFFFFFFFFFFFFFFFFFFFFFFFF AND EQ PUSH2 0x39D JUMPI PUSH1 0x40 MLOAD PUSH32 0x8C379A000000000000000000000000000000000000000000000000000000000 DUP2 MSTORE PUSH1 0x4 ADD PUSH2 0x394 SWAP1 PUSH2 0x24AA JUMP JUMPDEST PUSH1 0x40 MLOAD DUP1 SWAP2 SUB SWAP1 REVERT JUMPDEST DUP1 PUSH1 0x0 DUP1 PUSH2 0x100 EXP DUP2 SLOAD DUP2 PUSH1 0xFF MUL NOT AND SWAP1 DUP4 ISZERO ISZERO MUL OR SWAP1 SSTORE POP POP JUMP JUMPDEST PUSH1 0x0 DUP1 SLOAD SWAP1 PUSH2 0x100 EXP SWAP1 DIV PUSH1 0xFF AND PUSH2 0x406 JUMPI PUSH1 0x40 MLOAD PUSH32 0x8C379A000000000000000000000000000000000000000000000000000000000 DUP2 MSTORE PUSH1 0x4 ADD PUSH2 0x3FD SWAP1 PUSH2 0x244A JUMP JUMPDEST PUSH1 0x40 MLOAD DUP1 SWAP2 SUB SWAP1 REVERT JUMPDEST PUSH2 0x40F DUP3 PUSH2 0x1877 JUMP JUMPDEST ISZERO PUSH2 0x44F JUMPI PUSH1 0x40 MLOAD PUSH32 0x8C379A000000000000000000000000000000000000000000000000000000000 DUP2 MSTORE PUSH1 0x4 ADD PUSH2 0x446 SWAP1 PUSH2 0x246A JUMP JUMPDEST PUSH1 0x40 MLOAD DUP1 SWAP2 SUB SWAP1 REVERT JUMPDEST PUSH1 0x0 PUSH1 0x1 DUP1 DUP2 PUSH1 0x1 DUP2 SLOAD ADD DUP1 DUP3 SSTORE DUP1 SWAP2 POP POP SUB SWAP1 PUSH1 0x0 MSTORE PUSH1 0x20 PUSH1 0x0 KECCAK256 SWAP1 PUSH1 0x4 MUL ADD SWAP1 POP PUSH1 0x1 DUP2 PUSH1 0x0 ADD PUSH1 0x0 PUSH2 0x100 EXP DUP2 SLOAD DUP2 PUSH1 0xFF MUL NOT AND SWAP1 DUP4 ISZERO ISZERO MUL OR SWAP1 SSTORE POP CALLER DUP2 PUSH1 0x0 ADD PUSH1 0x1 PUSH2 0x100 EXP DUP2 SLOAD DUP2 PUSH20 0xFFFFFFFFFFFFFFFFFFFFFFFFFFFFFFFFFFFFFFFF MUL NOT AND SWAP1 DUP4 PUSH20 0xFFFFFFFFFFFFFFFFFFFFFFFFFFFFFFFFFFFFFFFF AND MUL OR SWAP1 SSTORE POP TIMESTAMP DUP2 PUSH1 0x1 ADD DUP2 SWAP1 SSTORE POP DUP3 DUP2 PUSH1 0x2 ADD SWAP1 DUP1 MLOAD SWAP1 PUSH1 0x20 ADD SWAP1 PUSH2 0x4F3 SWAP3 SWAP2 SWAP1 PUSH2 0x1B63 JUMP JUMPDEST POP DUP1 PUSH1 0x3 ADD PUSH1 0x40 MLOAD DUP1 PUSH1 0x80 ADD PUSH1 0x40 MSTORE DUP1 PUSH1 0x1 ISZERO ISZERO DUP2 MSTORE PUSH1 0x20 ADD CALLER PUSH20 0xFFFFFFFFFFFFFFFFFFFFFFFFFFFFFFFFFFFFFFFF AND DUP2 MSTORE PUSH1 0x20 ADD TIMESTAMP DUP2 MSTORE PUSH1 0x20 ADD DUP5 DUP2 MSTORE POP SWAP1 DUP1 PUSH1 0x1 DUP2 SLOAD ADD DUP1 DUP3 SSTORE DUP1 SWAP2 POP POP PUSH1 0x1 SWAP1 SUB SWAP1 PUSH1 0x0 MSTORE PUSH1 0x20 PUSH1 0x0 KECCAK256 SWAP1 PUSH1 0x3 MUL ADD PUSH1 0x0 SWAP1 SWAP2 SWAP1 SWAP2 SWAP1 SWAP2 POP PUSH1 0x0 DUP3 ADD MLOAD DUP2 PUSH1 0x0 ADD PUSH1 0x0 PUSH2 0x100 EXP DUP2 SLOAD DUP2 PUSH1 0xFF MUL NOT AND SWAP1 DUP4 ISZERO ISZERO MUL OR SWAP1 SSTORE POP PUSH1 0x20 DUP3 ADD MLOAD DUP2 PUSH1 0x0 ADD PUSH1 0x1 PUSH2 0x100 EXP DUP2 SLOAD DUP2 PUSH20 0xFFFFFFFFFFFFFFFFFFFFFFFFFFFFFFFFFFFFFFFF MUL NOT AND SWAP1 DUP4 PUSH20 0xFFFFFFFFFFFFFFFFFFFFFFFFFFFFFFFFFFFFFFFF AND MUL OR SWAP1 SSTORE POP PUSH1 0x40 DUP3 ADD MLOAD DUP2 PUSH1 0x1 ADD SSTORE PUSH1 0x60 DUP3 ADD MLOAD DUP2 PUSH1 0x2 ADD SWAP1 DUP1 MLOAD SWAP1 PUSH1 0x20 ADD SWAP1 PUSH2 0x5E8 SWAP3 SWAP2 SWAP1 PUSH2 0x1B63 JUMP JUMPDEST POP POP POP POP POP POP JUMP JUMPDEST PUSH1 0x60 PUSH1 0x0 PUSH1 0x1 DUP1 SLOAD SWAP1 POP PUSH8 0xFFFFFFFFFFFFFFFF DUP2 GT ISZERO PUSH2 0x639 JUMPI PUSH32 0x4E487B7100000000000000000000000000000000000000000000000000000000 PUSH1 0x0 MSTORE PUSH1 0x41 PUSH1 0x4 MSTORE PUSH1 0x24 PUSH1 0x0 REVERT JUMPDEST PUSH1 0x40 MLOAD SWAP1 DUP1 DUP3 MSTORE DUP1 PUSH1 0x20 MUL PUSH1 0x20 ADD DUP3 ADD PUSH1 0x40 MSTORE DUP1 ISZERO PUSH2 0x667 JUMPI DUP2 PUSH1 0x20 ADD PUSH1 0x20 DUP3 MUL DUP1 CALLDATASIZE DUP4 CALLDATACOPY DUP1 DUP3 ADD SWAP2 POP POP SWAP1 POP JUMPDEST POP SWAP1 POP PUSH1 0x0 DUP1 JUMPDEST PUSH1 0x1 DUP1 SLOAD SWAP1 POP DUP2 LT ISZERO PUSH2 0x7C5 JUMPI PUSH2 0x758 PUSH1 0x1 DUP3 DUP2 SLOAD DUP2 LT PUSH2 0x6B8 JUMPI PUSH32 0x4E487B7100000000000000000000000000000000000000000000000000000000 PUSH1 0x0 MSTORE PUSH1 0x32 PUSH1 0x4 MSTORE PUSH1 0x24 PUSH1 0x0 REVERT JUMPDEST SWAP1 PUSH1 0x0 MSTORE PUSH1 0x20 PUSH1 0x0 KECCAK256 SWAP1 PUSH1 0x4 MUL ADD PUSH1 0x2 ADD DUP1 SLOAD PUSH2 0x6D4 SWAP1 PUSH2 0x268E JUMP JUMPDEST DUP1 PUSH1 0x1F ADD PUSH1 0x20 DUP1 SWAP2 DIV MUL PUSH1 0x20 ADD PUSH1 0x40 MLOAD SWAP1 DUP2 ADD PUSH1 0x40 MSTORE DUP1 SWAP3 SWAP2 SWAP1 DUP2 DUP2 MSTORE PUSH1 0x20 ADD DUP3 DUP1 SLOAD PUSH2 0x700 SWAP1 PUSH2 0x268E JUMP JUMPDEST DUP1 ISZERO PUSH2 0x74D JUMPI DUP1 PUSH1 0x1F LT PUSH2 0x722 JUMPI PUSH2 0x100 DUP1 DUP4 SLOAD DIV MUL DUP4 MSTORE SWAP2 PUSH1 0x20 ADD SWAP2 PUSH2 0x74D JUMP JUMPDEST DUP3 ADD SWAP2 SWAP1 PUSH1 0x0 MSTORE PUSH1 0x20 PUSH1 0x0 KECCAK256 SWAP1 JUMPDEST DUP2 SLOAD DUP2 MSTORE SWAP1 PUSH1 0x1 ADD SWAP1 PUSH1 0x20 ADD DUP1 DUP4 GT PUSH2 0x730 JUMPI DUP3 SWAP1 SUB PUSH1 0x1F AND DUP3 ADD SWAP2 JUMPDEST POP POP POP POP POP DUP7 PUSH2 0x19F5 JUMP JUMPDEST ISZERO PUSH2 0x7B2 JUMPI DUP1 DUP4 DUP4 DUP2 MLOAD DUP2 LT PUSH2 0x797 JUMPI PUSH32 0x4E487B7100000000000000000000000000000000000000000000000000000000 PUSH1 0x0 MSTORE PUSH1 0x32 PUSH1 0x4 MSTORE PUSH1 0x24 PUSH1 0x0 REVERT JUMPDEST PUSH1 0x20 MUL PUSH1 0x20 ADD ADD DUP2 DUP2 MSTORE POP POP DUP2 DUP1 PUSH2 0x7AE SWAP1 PUSH2 0x26C0 JUMP JUMPDEST SWAP3 POP POP JUMPDEST DUP1 DUP1 PUSH2 0x7BD SWAP1 PUSH2 0x26C0 JUMP JUMPDEST SWAP2 POP POP PUSH2 0x66E JUMP JUMPDEST POP PUSH1 0x0 DUP2 PUSH8 0xFFFFFFFFFFFFFFFF DUP2 GT ISZERO PUSH2 0x808 JUMPI PUSH32 0x4E487B7100000000000000000000000000000000000000000000000000000000 PUSH1 0x0 MSTORE PUSH1 0x41 PUSH1 0x4 MSTORE PUSH1 0x24 PUSH1 0x0 REVERT JUMPDEST PUSH1 0x40 MLOAD SWAP1 DUP1 DUP3 MSTORE DUP1 PUSH1 0x20 MUL PUSH1 0x20 ADD DUP3 ADD PUSH1 0x40 MSTORE DUP1 ISZERO PUSH2 0x836 JUMPI DUP2 PUSH1 0x20 ADD PUSH1 0x20 DUP3 MUL DUP1 CALLDATASIZE DUP4 CALLDATACOPY DUP1 DUP3 ADD SWAP2 POP POP SWAP1 POP JUMPDEST POP SWAP1 POP PUSH1 0x0 JUMPDEST DUP3 DUP2 LT ISZERO PUSH2 0x8DD JUMPI DUP4 DUP2 DUP2 MLOAD DUP2 LT PUSH2 0x87D JUMPI PUSH32 0x4E487B7100000000000000000000000000000000000000000000000000000000 PUSH1 0x0 MSTORE PUSH1 0x32 PUSH1 0x4 MSTORE PUSH1 0x24 PUSH1 0x0 REVERT JUMPDEST PUSH1 0x20 MUL PUSH1 0x20 ADD ADD MLOAD DUP3 DUP3 DUP2 MLOAD DUP2 LT PUSH2 0x8BE JUMPI PUSH32 0x4E487B7100000000000000000000000000000000000000000000000000000000 PUSH1 0x0 MSTORE PUSH1 0x32 PUSH1 0x4 MSTORE PUSH1 0x24 PUSH1 0x0 REVERT JUMPDEST PUSH1 0x20 MUL PUSH1 0x20 ADD ADD DUP2 DUP2 MSTORE POP POP DUP1 DUP1 PUSH2 0x8D5 SWAP1 PUSH2 0x26C0 JUMP JUMPDEST SWAP2 POP POP PUSH2 0x83C JUMP JUMPDEST POP DUP1 SWAP4 POP POP POP POP SWAP2 SWAP1 POP JUMP JUMPDEST PUSH1 0x60 PUSH1 0x1 DUP1 SLOAD SWAP1 POP DUP3 LT PUSH2 0x932 JUMPI PUSH1 0x40 MLOAD PUSH32 0x8C379A000000000000000000000000000000000000000000000000000000000 DUP2 MSTORE PUSH1 0x4 ADD PUSH2 0x929 SWAP1 PUSH2 0x240A JUMP JUMPDEST PUSH1 0x40 MLOAD DUP1 SWAP2 SUB SWAP1 REVERT JUMPDEST PUSH2 0xC06 PUSH1 0x1 DUP4 DUP2 SLOAD DUP2 LT PUSH2 0x96F JUMPI PUSH32 0x4E487B7100000000000000000000000000000000000000000000000000000000 PUSH1 0x0 MSTORE PUSH1 0x32 PUSH1 0x4 MSTORE PUSH1 0x24 PUSH1 0x0 REVERT JUMPDEST SWAP1 PUSH1 0x0 MSTORE PUSH1 0x20 PUSH1 0x0 KECCAK256 SWAP1 PUSH1 0x4 MUL ADD PUSH1 0x40 MLOAD DUP1 PUSH1 0xA0 ADD PUSH1 0x40 MSTORE SWAP1 DUP2 PUSH1 0x0 DUP3 ADD PUSH1 0x0 SWAP1 SLOAD SWAP1 PUSH2 0x100 EXP SWAP1 DIV PUSH1 0xFF AND ISZERO ISZERO ISZERO ISZERO DUP2 MSTORE PUSH1 0x20 ADD PUSH1 0x0 DUP3 ADD PUSH1 0x1 SWAP1 SLOAD SWAP1 PUSH2 0x100 EXP SWAP1 DIV PUSH20 0xFFFFFFFFFFFFFFFFFFFFFFFFFFFFFFFFFFFFFFFF AND PUSH20 0xFFFFFFFFFFFFFFFFFFFFFFFFFFFFFFFFFFFFFFFF AND PUSH20 0xFFFFFFFFFFFFFFFFFFFFFFFFFFFFFFFFFFFFFFFF AND DUP2 MSTORE PUSH1 0x20 ADD PUSH1 0x1 DUP3 ADD SLOAD DUP2 MSTORE PUSH1 0x20 ADD PUSH1 0x2 DUP3 ADD DUP1 SLOAD PUSH2 0xA13 SWAP1 PUSH2 0x268E JUMP JUMPDEST DUP1 PUSH1 0x1F ADD PUSH1 0x20 DUP1 SWAP2 DIV MUL PUSH1 0x20 ADD PUSH1 0x40 MLOAD SWAP1 DUP2 ADD PUSH1 0x40 MSTORE DUP1 SWAP3 SWAP2 SWAP1 DUP2 DUP2 MSTORE PUSH1 0x20 ADD DUP3 DUP1 SLOAD PUSH2 0xA3F SWAP1 PUSH2 0x268E JUMP JUMPDEST DUP1 ISZERO PUSH2 0xA8C JUMPI DUP1 PUSH1 0x1F LT PUSH2 0xA61 JUMPI PUSH2 0x100 DUP1 DUP4 SLOAD DIV MUL DUP4 MSTORE SWAP2 PUSH1 0x20 ADD SWAP2 PUSH2 0xA8C JUMP JUMPDEST DUP3 ADD SWAP2 SWAP1 PUSH1 0x0 MSTORE PUSH1 0x20 PUSH1 0x0 KECCAK256 SWAP1 JUMPDEST DUP2 SLOAD DUP2 MSTORE SWAP1 PUSH1 0x1 ADD SWAP1 PUSH1 0x20 ADD DUP1 DUP4 GT PUSH2 0xA6F JUMPI DUP3 SWAP1 SUB PUSH1 0x1F AND DUP3 ADD SWAP2 JUMPDEST POP POP POP POP POP DUP2 MSTORE PUSH1 0x20 ADD PUSH1 0x3 DUP3 ADD DUP1 SLOAD DUP1 PUSH1 0x20 MUL PUSH1 0x20 ADD PUSH1 0x40 MLOAD SWAP1 DUP2 ADD PUSH1 0x40 MSTORE DUP1 SWAP3 SWAP2 SWAP1 DUP2 DUP2 MSTORE PUSH1 0x20 ADD PUSH1 0x0 SWAP1 JUMPDEST DUP3 DUP3 LT ISZERO PUSH2 0xBF9 JUMPI DUP4 DUP3 SWAP1 PUSH1 0x0 MSTORE PUSH1 0x20 PUSH1 0x0 KECCAK256 SWAP1 PUSH1 0x3 MUL ADD PUSH1 0x40 MLOAD DUP1 PUSH1 0x80 ADD PUSH1 0x40 MSTORE SWAP1 DUP2 PUSH1 0x0 DUP3 ADD PUSH1 0x0 SWAP1 SLOAD SWAP1 PUSH2 0x100 EXP SWAP1 DIV PUSH1 0xFF AND ISZERO ISZERO ISZERO ISZERO DUP2 MSTORE PUSH1 0x20 ADD PUSH1 0x0 DUP3 ADD PUSH1 0x1 SWAP1 SLOAD SWAP1 PUSH2 0x100 EXP SWAP1 DIV PUSH20 0xFFFFFFFFFFFFFFFFFFFFFFFFFFFFFFFFFFFFFFFF AND PUSH20 0xFFFFFFFFFFFFFFFFFFFFFFFFFFFFFFFFFFFFFFFF AND PUSH20 0xFFFFFFFFFFFFFFFFFFFFFFFFFFFFFFFFFFFFFFFF AND DUP2 MSTORE PUSH1 0x20 ADD PUSH1 0x1 DUP3 ADD SLOAD DUP2 MSTORE PUSH1 0x20 ADD PUSH1 0x2 DUP3 ADD DUP1 SLOAD PUSH2 0xB68 SWAP1 PUSH2 0x268E JUMP JUMPDEST DUP1 PUSH1 0x1F ADD PUSH1 0x20 DUP1 SWAP2 DIV MUL PUSH1 0x20 ADD PUSH1 0x40 MLOAD SWAP1 DUP2 ADD PUSH1 0x40 MSTORE DUP1 SWAP3 SWAP2 SWAP1 DUP2 DUP2 MSTORE PUSH1 0x20 ADD DUP3 DUP1 SLOAD PUSH2 0xB94 SWAP1 PUSH2 0x268E JUMP JUMPDEST DUP1 ISZERO PUSH2 0xBE1 JUMPI DUP1 PUSH1 0x1F LT PUSH2 0xBB6 JUMPI PUSH2 0x100 DUP1 DUP4 SLOAD DIV MUL DUP4 MSTORE SWAP2 PUSH1 0x20 ADD SWAP2 PUSH2 0xBE1 JUMP JUMPDEST DUP3 ADD SWAP2 SWAP1 PUSH1 0x0 MSTORE PUSH1 0x20 PUSH1 0x0 KECCAK256 SWAP1 JUMPDEST DUP2 SLOAD DUP2 MSTORE SWAP1 PUSH1 0x1 ADD SWAP1 PUSH1 0x20 ADD DUP1 DUP4 GT PUSH2 0xBC4 JUMPI DUP3 SWAP1 SUB PUSH1 0x1F AND DUP3 ADD SWAP2 JUMPDEST POP POP POP POP POP DUP2 MSTORE POP POP DUP2 MSTORE PUSH1 0x20 ADD SWAP1 PUSH1 0x1 ADD SWAP1 PUSH2 0xABA JUMP JUMPDEST POP POP POP POP DUP2 MSTORE POP POP PUSH2 0x1A5C JUMP JUMPDEST PUSH1 0x60 ADD MLOAD SWAP1 POP SWAP2 SWAP1 POP JUMP JUMPDEST PUSH32 0x0 DUP2 JUMP JUMPDEST PUSH1 0x0 DUP1 SLOAD SWAP1 PUSH2 0x100 EXP SWAP1 DIV PUSH1 0xFF AND PUSH2 0xC82 JUMPI PUSH1 0x40 MLOAD PUSH32 0x8C379A000000000000000000000000000000000000000000000000000000000 DUP2 MSTORE PUSH1 0x4 ADD PUSH2 0xC79 SWAP1 PUSH2 0x244A JUMP JUMPDEST PUSH1 0x40 MLOAD DUP1 SWAP2 SUB SWAP1 REVERT JUMPDEST PUSH1 0x1 DUP1 SLOAD SWAP1 POP DUP3 LT PUSH2 0xCC9 JUMPI PUSH1 0x40 MLOAD PUSH32 0x8C379A000000000000000000000000000000000000000000000000000000000 DUP2 MSTORE PUSH1 0x4 ADD PUSH2 0xCC0 SWAP1 PUSH2 0x248A JUMP JUMPDEST PUSH1 0x40 MLOAD DUP1 SWAP2 SUB SWAP1 REVERT JUMPDEST PUSH1 0x1 DUP3 DUP2 SLOAD DUP2 LT PUSH2 0xD03 JUMPI PUSH32 0x4E487B7100000000000000000000000000000000000000000000000000000000 PUSH1 0x0 MSTORE PUSH1 0x32 PUSH1 0x4 MSTORE PUSH1 0x24 PUSH1 0x0 REVERT JUMPDEST SWAP1 PUSH1 0x0 MSTORE PUSH1 0x20 PUSH1 0x0 KECCAK256 SWAP1 PUSH1 0x4 MUL ADD PUSH1 0x0 ADD PUSH1 0x0 SWAP1 SLOAD SWAP1 PUSH2 0x100 EXP SWAP1 DIV PUSH1 0xFF AND PUSH2 0xD61 JUMPI PUSH1 0x40 MLOAD PUSH32 0x8C379A000000000000000000000000000000000000000000000000000000000 DUP2 MSTORE PUSH1 0x4 ADD PUSH2 0xD58 SWAP1 PUSH2 0x23EA JUMP JUMPDEST PUSH1 0x40 MLOAD DUP1 SWAP2 SUB SWAP1 REVERT JUMPDEST PUSH1 0x1 DUP3 DUP2 SLOAD DUP2 LT PUSH2 0xD9B JUMPI PUSH32 0x4E487B7100000000000000000000000000000000000000000000000000000000 PUSH1 0x0 MSTORE PUSH1 0x32 PUSH1 0x4 MSTORE PUSH1 0x24 PUSH1 0x0 REVERT JUMPDEST SWAP1 PUSH1 0x0 MSTORE PUSH1 0x20 PUSH1 0x0 KECCAK256 SWAP1 PUSH1 0x4 MUL ADD PUSH1 0x3 ADD DUP1 SLOAD SWAP1 POP DUP2 LT PUSH2 0xDF1 JUMPI PUSH1 0x40 MLOAD PUSH32 0x8C379A000000000000000000000000000000000000000000000000000000000 DUP2 MSTORE PUSH1 0x4 ADD PUSH2 0xDE8 SWAP1 PUSH2 0x242A JUMP JUMPDEST PUSH1 0x40 MLOAD DUP1 SWAP2 SUB SWAP1 REVERT JUMPDEST PUSH1 0x1 DUP3 DUP2 SLOAD DUP2 LT PUSH2 0xE2B JUMPI PUSH32 0x4E487B7100000000000000000000000000000000000000000000000000000000 PUSH1 0x0 MSTORE PUSH1 0x32 PUSH1 0x4 MSTORE PUSH1 0x24 PUSH1 0x0 REVERT JUMPDEST SWAP1 PUSH1 0x0 MSTORE PUSH1 0x20 PUSH1 0x0 KECCAK256 SWAP1 PUSH1 0x4 MUL ADD PUSH1 0x3 ADD DUP2 DUP2 SLOAD DUP2 LT PUSH2 0xE74 JUMPI PUSH32 0x4E487B7100000000000000000000000000000000000000000000000000000000 PUSH1 0x0 MSTORE PUSH1 0x32 PUSH1 0x4 MSTORE PUSH1 0x24 PUSH1 0x0 REVERT JUMPDEST SWAP1 PUSH1 0x0 MSTORE PUSH1 0x20 PUSH1 0x0 KECCAK256 SWAP1 PUSH1 0x3 MUL ADD PUSH1 0x0 ADD PUSH1 0x0 SWAP1 SLOAD SWAP1 PUSH2 0x100 EXP SWAP1 DIV PUSH1 0xFF AND ISZERO PUSH2 0xE9D JUMPI PUSH2 0x1127 JUMP JUMPDEST PUSH1 0x0 PUSH1 0x1 DUP4 DUP2 SLOAD DUP2 LT PUSH2 0xED9 JUMPI PUSH32 0x4E487B7100000000000000000000000000000000000000000000000000000000 PUSH1 0x0 MSTORE PUSH1 0x32 PUSH1 0x4 MSTORE PUSH1 0x24 PUSH1 0x0 REVERT JUMPDEST SWAP1 PUSH1 0x0 MSTORE PUSH1 0x20 PUSH1 0x0 KECCAK256 SWAP1 PUSH1 0x4 MUL ADD PUSH1 0x3 ADD DUP1 SLOAD SWAP1 POP SWAP1 POP JUMPDEST PUSH1 0x0 DUP2 GT ISZERO PUSH2 0x1079 JUMPI PUSH1 0x0 PUSH1 0x1 DUP3 PUSH2 0xF09 SWAP2 SWAP1 PUSH2 0x25A6 JUMP JUMPDEST SWAP1 POP PUSH1 0x1 DUP5 DUP2 SLOAD DUP2 LT PUSH2 0xF45 JUMPI PUSH32 0x4E487B7100000000000000000000000000000000000000000000000000000000 PUSH1 0x0 MSTORE PUSH1 0x32 PUSH1 0x4 MSTORE PUSH1 0x24 PUSH1 0x0 REVERT JUMPDEST SWAP1 PUSH1 0x0 MSTORE PUSH1 0x20 PUSH1 0x0 KECCAK256 SWAP1 PUSH1 0x4 MUL ADD PUSH1 0x3 ADD DUP2 DUP2 SLOAD DUP2 LT PUSH2 0xF8E JUMPI PUSH32 0x4E487B7100000000000000000000000000000000000000000000000000000000 PUSH1 0x0 MSTORE PUSH1 0x32 PUSH1 0x4 MSTORE PUSH1 0x24 PUSH1 0x0 REVERT JUMPDEST SWAP1 PUSH1 0x0 MSTORE PUSH1 0x20 PUSH1 0x0 KECCAK256 SWAP1 PUSH1 0x3 MUL ADD PUSH1 0x0 ADD PUSH1 0x0 SWAP1 SLOAD SWAP1 PUSH2 0x100 EXP SWAP1 DIV PUSH1 0xFF AND ISZERO PUSH2 0x1065 JUMPI PUSH1 0x0 PUSH1 0x1 DUP6 DUP2 SLOAD DUP2 LT PUSH2 0xFEE JUMPI PUSH32 0x4E487B7100000000000000000000000000000000000000000000000000000000 PUSH1 0x0 MSTORE PUSH1 0x32 PUSH1 0x4 MSTORE PUSH1 0x24 PUSH1 0x0 REVERT JUMPDEST SWAP1 PUSH1 0x0 MSTORE PUSH1 0x20 PUSH1 0x0 KECCAK256 SWAP1 PUSH1 0x4 MUL ADD PUSH1 0x3 ADD DUP3 DUP2 SLOAD DUP2 LT PUSH2 0x1037 JUMPI PUSH32 0x4E487B7100000000000000000000000000000000000000000000000000000000 PUSH1 0x0 MSTORE PUSH1 0x32 PUSH1 0x4 MSTORE PUSH1 0x24 PUSH1 0x0 REVERT JUMPDEST SWAP1 PUSH1 0x0 MSTORE PUSH1 0x20 PUSH1 0x0 KECCAK256 SWAP1 PUSH1 0x3 MUL ADD PUSH1 0x0 ADD PUSH1 0x0 PUSH2 0x100 EXP DUP2 SLOAD DUP2 PUSH1 0xFF MUL NOT AND SWAP1 DUP4 ISZERO ISZERO MUL OR SWAP1 SSTORE POP POP PUSH2 0x1079 JUMP JUMPDEST POP DUP1 DUP1 PUSH2 0x1071 SWAP1 PUSH2 0x2664 JUMP JUMPDEST SWAP2 POP POP PUSH2 0xEF1 JUMP JUMPDEST POP PUSH1 0x1 DUP1 DUP4 DUP2 SLOAD DUP2 LT PUSH2 0x10B5 JUMPI PUSH32 0x4E487B7100000000000000000000000000000000000000000000000000000000 PUSH1 0x0 MSTORE PUSH1 0x32 PUSH1 0x4 MSTORE PUSH1 0x24 PUSH1 0x0 REVERT JUMPDEST SWAP1 PUSH1 0x0 MSTORE PUSH1 0x20 PUSH1 0x0 KECCAK256 SWAP1 PUSH1 0x4 MUL ADD PUSH1 0x3 ADD DUP3 DUP2 SLOAD DUP2 LT PUSH2 0x10FE JUMPI PUSH32 0x4E487B7100000000000000000000000000000000000000000000000000000000 PUSH1 0x0 MSTORE PUSH1 0x32 PUSH1 0x4 MSTORE PUSH1 0x24 PUSH1 0x0 REVERT JUMPDEST SWAP1 PUSH1 0x0 MSTORE PUSH1 0x20 PUSH1 0x0 KECCAK256 SWAP1 PUSH1 0x3 MUL ADD PUSH1 0x0 ADD PUSH1 0x0 PUSH2 0x100 EXP DUP2 SLOAD DUP2 PUSH1 0xFF MUL NOT AND SWAP1 DUP4 ISZERO ISZERO MUL OR SWAP1 SSTORE POP JUMPDEST POP POP JUMP JUMPDEST PUSH1 0x0 DUP1 SLOAD SWAP1 PUSH2 0x100 EXP SWAP1 DIV PUSH1 0xFF AND DUP2 JUMP JUMPDEST PUSH1 0x0 DUP1 SLOAD SWAP1 PUSH2 0x100 EXP SWAP1 DIV PUSH1 0xFF AND PUSH2 0x1189 JUMPI PUSH1 0x40 MLOAD PUSH32 0x8C379A000000000000000000000000000000000000000000000000000000000 DUP2 MSTORE PUSH1 0x4 ADD PUSH2 0x1180 SWAP1 PUSH2 0x244A JUMP JUMPDEST PUSH1 0x40 MLOAD DUP1 SWAP2 SUB SWAP1 REVERT JUMPDEST PUSH1 0x1 DUP1 SLOAD SWAP1 POP DUP2 LT PUSH2 0x11D0 JUMPI PUSH1 0x40 MLOAD PUSH32 0x8C379A000000000000000000000000000000000000000000000000000000000 DUP2 MSTORE PUSH1 0x4 ADD PUSH2 0x11C7 SWAP1 PUSH2 0x248A JUMP JUMPDEST PUSH1 0x40 MLOAD DUP1 SWAP2 SUB SWAP1 REVERT JUMPDEST PUSH2 0x12AC PUSH1 0x1 DUP3 DUP2 SLOAD DUP2 LT PUSH2 0x120D JUMPI PUSH32 0x4E487B7100000000000000000000000000000000000000000000000000000000 PUSH1 0x0 MSTORE PUSH1 0x32 PUSH1 0x4 MSTORE PUSH1 0x24 PUSH1 0x0 REVERT JUMPDEST SWAP1 PUSH1 0x0 MSTORE PUSH1 0x20 PUSH1 0x0 KECCAK256 SWAP1 PUSH1 0x4 MUL ADD PUSH1 0x2 ADD DUP1 SLOAD PUSH2 0x1229 SWAP1 PUSH2 0x268E JUMP JUMPDEST DUP1 PUSH1 0x1F ADD PUSH1 0x20 DUP1 SWAP2 DIV MUL PUSH1 0x20 ADD PUSH1 0x40 MLOAD SWAP1 DUP2 ADD PUSH1 0x40 MSTORE DUP1 SWAP3 SWAP2 SWAP1 DUP2 DUP2 MSTORE PUSH1 0x20 ADD DUP3 DUP1 SLOAD PUSH2 0x1255 SWAP1 PUSH2 0x268E JUMP JUMPDEST DUP1 ISZERO PUSH2 0x12A2 JUMPI DUP1 PUSH1 0x1F LT PUSH2 0x1277 JUMPI PUSH2 0x100 DUP1 DUP4 SLOAD DIV MUL DUP4 MSTORE SWAP2 PUSH1 0x20 ADD SWAP2 PUSH2 0x12A2 JUMP JUMPDEST DUP3 ADD SWAP2 SWAP1 PUSH1 0x0 MSTORE PUSH1 0x20 PUSH1 0x0 KECCAK256 SWAP1 JUMPDEST DUP2 SLOAD DUP2 MSTORE SWAP1 PUSH1 0x1 ADD SWAP1 PUSH1 0x20 ADD DUP1 DUP4 GT PUSH2 0x1285 JUMPI DUP3 SWAP1 SUB PUSH1 0x1F AND DUP3 ADD SWAP2 JUMPDEST POP POP POP POP POP PUSH2 0x1877 JUMP JUMPDEST ISZERO PUSH2 0x12EC JUMPI PUSH1 0x40 MLOAD PUSH32 0x8C379A000000000000000000000000000000000000000000000000000000000 DUP2 MSTORE PUSH1 0x4 ADD PUSH2 0x12E3 SWAP1 PUSH2 0x246A JUMP JUMPDEST PUSH1 0x40 MLOAD DUP1 SWAP2 SUB SWAP1 REVERT JUMPDEST PUSH1 0x1 DUP2 DUP2 SLOAD DUP2 LT PUSH2 0x1326 JUMPI PUSH32 0x4E487B7100000000000000000000000000000000000000000000000000000000 PUSH1 0x0 MSTORE PUSH1 0x32 PUSH1 0x4 MSTORE PUSH1 0x24 PUSH1 0x0 REVERT JUMPDEST SWAP1 PUSH1 0x0 MSTORE PUSH1 0x20 PUSH1 0x0 KECCAK256 SWAP1 PUSH1 0x4 MUL ADD PUSH1 0x0 ADD PUSH1 0x0 SWAP1 SLOAD SWAP1 PUSH2 0x100 EXP SWAP1 DIV PUSH1 0xFF AND ISZERO PUSH2 0x134F JUMPI PUSH2 0x13B3 JUMP JUMPDEST PUSH1 0x1 DUP1 DUP3 DUP2 SLOAD DUP2 LT PUSH2 0x138A JUMPI PUSH32 0x4E487B7100000000000000000000000000000000000000000000000000000000 PUSH1 0x0 MSTORE PUSH1 0x32 PUSH1 0x4 MSTORE PUSH1 0x24 PUSH1 0x0 REVERT JUMPDEST SWAP1 PUSH1 0x0 MSTORE PUSH1 0x20 PUSH1 0x0 KECCAK256 SWAP1 PUSH1 0x4 MUL ADD PUSH1 0x0 ADD PUSH1 0x0 PUSH2 0x100 EXP DUP2 SLOAD DUP2 PUSH1 0xFF MUL NOT AND SWAP1 DUP4 ISZERO ISZERO MUL OR SWAP1 SSTORE POP JUMPDEST POP JUMP JUMPDEST PUSH1 0x0 DUP1 SLOAD SWAP1 PUSH2 0x100 EXP SWAP1 DIV PUSH1 0xFF AND PUSH2 0x1403 JUMPI PUSH1 0x40 MLOAD PUSH32 0x8C379A000000000000000000000000000000000000000000000000000000000 DUP2 MSTORE PUSH1 0x4 ADD PUSH2 0x13FA SWAP1 PUSH2 0x244A JUMP JUMPDEST PUSH1 0x40 MLOAD DUP1 SWAP2 SUB SWAP1 REVERT JUMPDEST PUSH1 0x1 DUP1 SLOAD SWAP1 POP DUP3 LT PUSH2 0x144A JUMPI PUSH1 0x40 MLOAD PUSH32 0x8C379A000000000000000000000000000000000000000000000000000000000 DUP2 MSTORE PUSH1 0x4 ADD PUSH2 0x1441 SWAP1 PUSH2 0x240A JUMP JUMPDEST PUSH1 0x40 MLOAD DUP1 SWAP2 SUB SWAP1 REVERT JUMPDEST PUSH1 0x1 DUP3 DUP2 SLOAD DUP2 LT PUSH2 0x1484 JUMPI PUSH32 0x4E487B7100000000000000000000000000000000000000000000000000000000 PUSH1 0x0 MSTORE PUSH1 0x32 PUSH1 0x4 MSTORE PUSH1 0x24 PUSH1 0x0 REVERT JUMPDEST SWAP1 PUSH1 0x0 MSTORE PUSH1 0x20 PUSH1 0x0 KECCAK256 SWAP1 PUSH1 0x4 MUL ADD PUSH1 0x0 ADD PUSH1 0x0 SWAP1 SLOAD SWAP1 PUSH2 0x100 EXP SWAP1 DIV PUSH1 0xFF AND PUSH2 0x14E2 JUMPI PUSH1 0x40 MLOAD PUSH32 0x8C379A000000000000000000000000000000000000000000000000000000000 DUP2 MSTORE PUSH1 0x4 ADD PUSH2 0x14D9 SWAP1 PUSH2 0x23CA JUMP JUMPDEST PUSH1 0x40 MLOAD DUP1 SWAP2 SUB SWAP1 REVERT JUMPDEST PUSH1 0x1 DUP3 DUP2 SLOAD DUP2 LT PUSH2 0x151C JUMPI PUSH32 0x4E487B7100000000000000000000000000000000000000000000000000000000 PUSH1 0x0 MSTORE PUSH1 0x32 PUSH1 0x4 MSTORE PUSH1 0x24 PUSH1 0x0 REVERT JUMPDEST SWAP1 PUSH1 0x0 MSTORE PUSH1 0x20 PUSH1 0x0 KECCAK256 SWAP1 PUSH1 0x4 MUL ADD PUSH1 0x3 ADD PUSH1 0x40 MLOAD DUP1 PUSH1 0x80 ADD PUSH1 0x40 MSTORE DUP1 PUSH1 0x0 ISZERO ISZERO DUP2 MSTORE PUSH1 0x20 ADD CALLER PUSH20 0xFFFFFFFFFFFFFFFFFFFFFFFFFFFFFFFFFFFFFFFF AND DUP2 MSTORE PUSH1 0x20 ADD TIMESTAMP DUP2 MSTORE PUSH1 0x20 ADD DUP4 DUP2 MSTORE POP SWAP1 DUP1 PUSH1 0x1 DUP2 SLOAD ADD DUP1 DUP3 SSTORE DUP1 SWAP2 POP POP PUSH1 0x1 SWAP1 SUB SWAP1 PUSH1 0x0 MSTORE PUSH1 0x20 PUSH1 0x0 KECCAK256 SWAP1 PUSH1 0x3 MUL ADD PUSH1 0x0 SWAP1 SWAP2 SWAP1 SWAP2 SWAP1 SWAP2 POP PUSH1 0x0 DUP3 ADD MLOAD DUP2 PUSH1 0x0 ADD PUSH1 0x0 PUSH2 0x100 EXP DUP2 SLOAD DUP2 PUSH1 0xFF MUL NOT AND SWAP1 DUP4 ISZERO ISZERO MUL OR SWAP1 SSTORE POP PUSH1 0x20 DUP3 ADD MLOAD DUP2 PUSH1 0x0 ADD PUSH1 0x1 PUSH2 0x100 EXP DUP2 SLOAD DUP2 PUSH20 0xFFFFFFFFFFFFFFFFFFFFFFFFFFFFFFFFFFFFFFFF MUL NOT AND SWAP1 DUP4 PUSH20 0xFFFFFFFFFFFFFFFFFFFFFFFFFFFFFFFFFFFFFFFF AND MUL OR SWAP1 SSTORE POP PUSH1 0x40 DUP3 ADD MLOAD DUP2 PUSH1 0x1 ADD SSTORE PUSH1 0x60 DUP3 ADD MLOAD DUP2 PUSH1 0x2 ADD SWAP1 DUP1 MLOAD SWAP1 PUSH1 0x20 ADD SWAP1 PUSH2 0x161D SWAP3 SWAP2 SWAP1 PUSH2 0x1B63 JUMP JUMPDEST POP POP POP POP POP JUMP JUMPDEST PUSH1 0x0 DUP1 SLOAD SWAP1 PUSH2 0x100 EXP SWAP1 DIV PUSH1 0xFF AND PUSH2 0x1671 JUMPI PUSH1 0x40 MLOAD PUSH32 0x8C379A000000000000000000000000000000000000000000000000000000000 DUP2 MSTORE PUSH1 0x4 ADD PUSH2 0x1668 SWAP1 PUSH2 0x244A JUMP JUMPDEST PUSH1 0x40 MLOAD DUP1 SWAP2 SUB SWAP1 REVERT JUMPDEST PUSH1 0x1 DUP1 SLOAD SWAP1 POP DUP2 LT PUSH2 0x16B8 JUMPI PUSH1 0x40 MLOAD PUSH32 0x8C379A000000000000000000000000000000000000000000000000000000000 DUP2 MSTORE PUSH1 0x4 ADD PUSH2 0x16AF SWAP1 PUSH2 0x248A JUMP JUMPDEST PUSH1 0x40 MLOAD DUP1 SWAP2 SUB SWAP1 REVERT JUMPDEST PUSH1 0x1 DUP2 DUP2 SLOAD DUP2 LT PUSH2 0x16F2 JUMPI PUSH32 0x4E487B7100000000000000000000000000000000000000000000000000000000 PUSH1 0x0 MSTORE PUSH1 0x32 PUSH1 0x4 MSTORE PUSH1 0x24 PUSH1 0x0 REVERT JUMPDEST SWAP1 PUSH1 0x0 MSTORE PUSH1 0x20 PUSH1 0x0 KECCAK256 SWAP1 PUSH1 0x4 MUL ADD PUSH1 0x0 ADD PUSH1 0x0 SWAP1 SLOAD SWAP1 PUSH2 0x100 EXP SWAP1 DIV PUSH1 0xFF AND PUSH2 0x171A JUMPI PUSH2 0x177F JUMP JUMPDEST PUSH1 0x0 PUSH1 0x1 DUP3 DUP2 SLOAD DUP2 LT PUSH2 0x1756 JUMPI PUSH32 0x4E487B7100000000000000000000000000000000000000000000000000000000 PUSH1 0x0 MSTORE PUSH1 0x32 PUSH1 0x4 MSTORE PUSH1 0x24 PUSH1 0x0 REVERT JUMPDEST SWAP1 PUSH1 0x0 MSTORE PUSH1 0x20 PUSH1 0x0 KECCAK256 SWAP1 PUSH1 0x4 MUL ADD PUSH1 0x0 ADD PUSH1 0x0 PUSH2 0x100 EXP DUP2 SLOAD DUP2 PUSH1 0xFF MUL NOT AND SWAP1 DUP4 ISZERO ISZERO MUL OR SWAP1 SSTORE POP JUMPDEST POP JUMP JUMPDEST PUSH1 0x1 DUP2 DUP2 SLOAD DUP2 LT PUSH2 0x1792 JUMPI PUSH1 0x0 DUP1 REVERT JUMPDEST SWAP1 PUSH1 0x0 MSTORE PUSH1 0x20 PUSH1 0x0 KECCAK256 SWAP1 PUSH1 0x4 MUL ADD PUSH1 0x0 SWAP2 POP SWAP1 POP DUP1 PUSH1 0x0 ADD PUSH1 0x0 SWAP1 SLOAD SWAP1 PUSH2 0x100 EXP SWAP1 DIV PUSH1 0xFF AND SWAP1 DUP1 PUSH1 0x0 ADD PUSH1 0x1 SWAP1 SLOAD SWAP1 PUSH2 0x100 EXP SWAP1 DIV PUSH20 0xFFFFFFFFFFFFFFFFFFFFFFFFFFFFFFFFFFFFFFFF AND SWAP1 DUP1 PUSH1 0x1 ADD SLOAD SWAP1 DUP1 PUSH1 0x2 ADD DUP1 SLOAD PUSH2 0x17F4 SWAP1 PUSH2 0x268E JUMP JUMPDEST DUP1 PUSH1 0x1F ADD PUSH1 0x20 DUP1 SWAP2 DIV MUL PUSH1 0x20 ADD PUSH1 0x40 MLOAD SWAP1 DUP2 ADD PUSH1 0x40 MSTORE DUP1 SWAP3 SWAP2 SWAP1 DUP2 DUP2 MSTORE PUSH1 0x20 ADD DUP3 DUP1 SLOAD PUSH2 0x1820 SWAP1 PUSH2 0x268E JUMP JUMPDEST DUP1 ISZERO PUSH2 0x186D JUMPI DUP1 PUSH1 0x1F LT PUSH2 0x1842 JUMPI PUSH2 0x100 DUP1 DUP4 SLOAD DIV MUL DUP4 MSTORE SWAP2 PUSH1 0x20 ADD SWAP2 PUSH2 0x186D JUMP JUMPDEST DUP3 ADD SWAP2 SWAP1 PUSH1 0x0 MSTORE PUSH1 0x20 PUSH1 0x0 KECCAK256 SWAP1 JUMPDEST DUP2 SLOAD DUP2 MSTORE SWAP1 PUSH1 0x1 ADD SWAP1 PUSH1 0x20 ADD DUP1 DUP4 GT PUSH2 0x1850 JUMPI DUP3 SWAP1 SUB PUSH1 0x1F AND DUP3 ADD SWAP2 JUMPDEST POP POP POP POP POP SWAP1 POP DUP5 JUMP JUMPDEST PUSH1 0x0 DUP1 PUSH1 0x0 SWAP1 POP JUMPDEST PUSH1 0x1 DUP1 SLOAD SWAP1 POP DUP2 LT ISZERO PUSH2 0x19EA JUMPI PUSH1 0x1 DUP2 DUP2 SLOAD DUP2 LT PUSH2 0x18C6 JUMPI PUSH32 0x4E487B7100000000000000000000000000000000000000000000000000000000 PUSH1 0x0 MSTORE PUSH1 0x32 PUSH1 0x4 MSTORE PUSH1 0x24 PUSH1 0x0 REVERT JUMPDEST SWAP1 PUSH1 0x0 MSTORE PUSH1 0x20 PUSH1 0x0 KECCAK256 SWAP1 PUSH1 0x4 MUL ADD PUSH1 0x0 ADD PUSH1 0x0 SWAP1 SLOAD SWAP1 PUSH2 0x100 EXP SWAP1 DIV PUSH1 0xFF AND ISZERO PUSH2 0x19D7 JUMPI PUSH2 0x19C7 PUSH1 0x1 DUP3 DUP2 SLOAD DUP2 LT PUSH2 0x1927 JUMPI PUSH32 0x4E487B7100000000000000000000000000000000000000000000000000000000 PUSH1 0x0 MSTORE PUSH1 0x32 PUSH1 0x4 MSTORE PUSH1 0x24 PUSH1 0x0 REVERT JUMPDEST SWAP1 PUSH1 0x0 MSTORE PUSH1 0x20 PUSH1 0x0 KECCAK256 SWAP1 PUSH1 0x4 MUL ADD PUSH1 0x2 ADD DUP1 SLOAD PUSH2 0x1943 SWAP1 PUSH2 0x268E JUMP JUMPDEST DUP1 PUSH1 0x1F ADD PUSH1 0x20 DUP1 SWAP2 DIV MUL PUSH1 0x20 ADD PUSH1 0x40 MLOAD SWAP1 DUP2 ADD PUSH1 0x40 MSTORE DUP1 SWAP3 SWAP2 SWAP1 DUP2 DUP2 MSTORE PUSH1 0x20 ADD DUP3 DUP1 SLOAD PUSH2 0x196F SWAP1 PUSH2 0x268E JUMP JUMPDEST DUP1 ISZERO PUSH2 0x19BC JUMPI DUP1 PUSH1 0x1F LT PUSH2 0x1991 JUMPI PUSH2 0x100 DUP1 DUP4 SLOAD DIV MUL DUP4 MSTORE SWAP2 PUSH1 0x20 ADD SWAP2 PUSH2 0x19BC JUMP JUMPDEST DUP3 ADD SWAP2 SWAP1 PUSH1 0x0 MSTORE PUSH1 0x20 PUSH1 0x0 KECCAK256 SWAP1 JUMPDEST DUP2 SLOAD DUP2 MSTORE SWAP1 PUSH1 0x1 ADD SWAP1 PUSH1 0x20 ADD DUP1 DUP4 GT PUSH2 0x199F JUMPI DUP3 SWAP1 SUB PUSH1 0x1F AND DUP3 ADD SWAP2 JUMPDEST POP POP POP POP POP DUP5 PUSH2 0x19F5 JUMP JUMPDEST ISZERO PUSH2 0x19D6 JUMPI PUSH1 0x1 SWAP2 POP POP PUSH2 0x19F0 JUMP JUMPDEST JUMPDEST DUP1 DUP1 PUSH2 0x19E2 SWAP1 PUSH2 0x26C0 JUMP JUMPDEST SWAP2 POP POP PUSH2 0x187F JUMP JUMPDEST POP PUSH1 0x0 SWAP1 POP JUMPDEST SWAP2 SWAP1 POP JUMP JUMPDEST PUSH1 0x0 DUP2 PUSH1 0x40 MLOAD PUSH1 0x20 ADD PUSH2 0x1A08 SWAP2 SWAP1 PUSH2 0x22CD JUMP JUMPDEST PUSH1 0x40 MLOAD PUSH1 0x20 DUP2 DUP4 SUB SUB DUP2 MSTORE SWAP1 PUSH1 0x40 MSTORE DUP1 MLOAD SWAP1 PUSH1 0x20 ADD KECCAK256 DUP4 PUSH1 0x40 MLOAD PUSH1 0x20 ADD PUSH2 0x1A2F SWAP2 SWAP1 PUSH2 0x22CD JUMP JUMPDEST PUSH1 0x40 MLOAD PUSH1 0x20 DUP2 DUP4 SUB SUB DUP2 MSTORE SWAP1 PUSH1 0x40 MSTORE DUP1 MLOAD SWAP1 PUSH1 0x20 ADD KECCAK256 EQ PUSH2 0x1A51 JUMPI PUSH1 0x0 PUSH2 0x1A54 JUMP JUMPDEST PUSH1 0x1 JUMPDEST SWAP1 POP SWAP3 SWAP2 POP POP JUMP JUMPDEST PUSH2 0x1A64 PUSH2 0x1BE9 JUMP JUMPDEST PUSH1 0x0 JUMPDEST DUP3 PUSH1 0x80 ADD MLOAD MLOAD DUP2 LT ISZERO PUSH2 0x1B22 JUMPI DUP3 PUSH1 0x80 ADD MLOAD DUP2 DUP2 MLOAD DUP2 LT PUSH2 0x1AB1 JUMPI PUSH32 0x4E487B7100000000000000000000000000000000000000000000000000000000 PUSH1 0x0 MSTORE PUSH1 0x32 PUSH1 0x4 MSTORE PUSH1 0x24 PUSH1 0x0 REVERT JUMPDEST PUSH1 0x20 MUL PUSH1 0x20 ADD ADD MLOAD PUSH1 0x0 ADD MLOAD ISZERO PUSH2 0x1B0F JUMPI DUP3 PUSH1 0x80 ADD MLOAD DUP2 DUP2 MLOAD DUP2 LT PUSH2 0x1AFF JUMPI PUSH32 0x4E487B7100000000000000000000000000000000000000000000000000000000 PUSH1 0x0 MSTORE PUSH1 0x32 PUSH1 0x4 MSTORE PUSH1 0x24 PUSH1 0x0 REVERT JUMPDEST PUSH1 0x20 MUL PUSH1 0x20 ADD ADD MLOAD SWAP2 POP POP PUSH2 0x1B5E JUMP JUMPDEST DUP1 DUP1 PUSH2 0x1B1A SWAP1 PUSH2 0x26C0 JUMP JUMPDEST SWAP2 POP POP PUSH2 0x1A67 JUMP JUMPDEST POP PUSH1 0x40 MLOAD PUSH32 0x8C379A000000000000000000000000000000000000000000000000000000000 DUP2 MSTORE PUSH1 0x4 ADD PUSH2 0x1B55 SWAP1 PUSH2 0x23AA JUMP JUMPDEST PUSH1 0x40 MLOAD DUP1 SWAP2 SUB SWAP1 REVERT JUMPDEST SWAP2 SWAP1 POP JUMP JUMPDEST DUP3 DUP1 SLOAD PUSH2 0x1B6F SWAP1 PUSH2 0x268E JUMP JUMPDEST SWAP1 PUSH1 0x0 MSTORE PUSH1 0x20 PUSH1 0x0 KECCAK256 SWAP1 PUSH1 0x1F ADD PUSH1 0x20 SWAP1 DIV DUP2 ADD SWAP3 DUP3 PUSH2 0x1B91 JUMPI PUSH1 0x0 DUP6 SSTORE PUSH2 0x1BD8 JUMP JUMPDEST DUP3 PUSH1 0x1F LT PUSH2 0x1BAA JUMPI DUP1 MLOAD PUSH1 0xFF NOT AND DUP4 DUP1 ADD OR DUP6 SSTORE PUSH2 0x1BD8 JUMP JUMPDEST DUP3 DUP1 ADD PUSH1 0x1 ADD DUP6 SSTORE DUP3 ISZERO PUSH2 0x1BD8 JUMPI SWAP2 DUP3 ADD JUMPDEST DUP3 DUP2 GT ISZERO PUSH2 0x1BD7 JUMPI DUP3 MLOAD DUP3 SSTORE SWAP2 PUSH1 0x20 ADD SWAP2 SWAP1 PUSH1 0x1 ADD SWAP1 PUSH2 0x1BBC JUMP JUMPDEST JUMPDEST POP SWAP1 POP PUSH2 0x1BE5 SWAP2 SWAP1 PUSH2 0x1C29 JUMP JUMPDEST POP SWAP1 JUMP JUMPDEST PUSH1 0x40 MLOAD DUP1 PUSH1 0x80 ADD PUSH1 0x40 MSTORE DUP1 PUSH1 0x0 ISZERO ISZERO DUP2 MSTORE PUSH1 0x20 ADD PUSH1 0x0 PUSH20 0xFFFFFFFFFFFFFFFFFFFFFFFFFFFFFFFFFFFFFFFF AND DUP2 MSTORE PUSH1 0x20 ADD PUSH1 0x0 DUP2 MSTORE PUSH1 0x20 ADD PUSH1 0x60 DUP2 MSTORE POP SWAP1 JUMP JUMPDEST JUMPDEST DUP1 DUP3 GT ISZERO PUSH2 0x1C42 JUMPI PUSH1 0x0 DUP2 PUSH1 0x0 SWAP1 SSTORE POP PUSH1 0x1 ADD PUSH2 0x1C2A JUMP JUMPDEST POP SWAP1 JUMP JUMPDEST PUSH1 0x0 PUSH2 0x1C59 PUSH2 0x1C54 DUP5 PUSH2 0x2516 JUMP JUMPDEST PUSH2 0x24E5 JUMP JUMPDEST SWAP1 POP DUP3 DUP2 MSTORE PUSH1 0x20 DUP2 ADD DUP5 DUP5 DUP5 ADD GT ISZERO PUSH2 0x1C71 JUMPI PUSH1 0x0 DUP1 REVERT JUMPDEST PUSH2 0x1C7C DUP5 DUP3 DUP6 PUSH2 0x2622 JUMP JUMPDEST POP SWAP4 SWAP3 POP POP POP JUMP JUMPDEST PUSH1 0x0 DUP2 CALLDATALOAD SWAP1 POP PUSH2 0x1C93 DUP2 PUSH2 0x27A7 JUMP JUMPDEST SWAP3 SWAP2 POP POP JUMP JUMPDEST PUSH1 0x0 DUP3 PUSH1 0x1F DUP4 ADD SLT PUSH2 0x1CAA JUMPI PUSH1 0x0 DUP1 REVERT JUMPDEST DUP2 CALLDATALOAD PUSH2 0x1CBA DUP5 DUP3 PUSH1 0x20 DUP7 ADD PUSH2 0x1C46 JUMP JUMPDEST SWAP2 POP POP SWAP3 SWAP2 POP POP JUMP JUMPDEST PUSH1 0x0 DUP2 CALLDATALOAD SWAP1 POP PUSH2 0x1CD2 DUP2 PUSH2 0x27BE JUMP JUMPDEST SWAP3 SWAP2 POP POP JUMP JUMPDEST PUSH1 0x0 PUSH1 0x20 DUP3 DUP5 SUB SLT ISZERO PUSH2 0x1CEA JUMPI PUSH1 0x0 DUP1 REVERT JUMPDEST PUSH1 0x0 PUSH2 0x1CF8 DUP5 DUP3 DUP6 ADD PUSH2 0x1C84 JUMP JUMPDEST SWAP2 POP POP SWAP3 SWAP2 POP POP JUMP JUMPDEST PUSH1 0x0 PUSH1 0x20 DUP3 DUP5 SUB SLT ISZERO PUSH2 0x1D13 JUMPI PUSH1 0x0 DUP1 REVERT JUMPDEST PUSH1 0x0 DUP3 ADD CALLDATALOAD PUSH8 0xFFFFFFFFFFFFFFFF DUP2 GT ISZERO PUSH2 0x1D2D JUMPI PUSH1 0x0 DUP1 REVERT JUMPDEST PUSH2 0x1D39 DUP5 DUP3 DUP6 ADD PUSH2 0x1C99 JUMP JUMPDEST SWAP2 POP POP SWAP3 SWAP2 POP POP JUMP JUMPDEST PUSH1 0x0 DUP1 PUSH1 0x40 DUP4 DUP6 SUB SLT ISZERO PUSH2 0x1D55 JUMPI PUSH1 0x0 DUP1 REVERT JUMPDEST PUSH1 0x0 DUP4 ADD CALLDATALOAD PUSH8 0xFFFFFFFFFFFFFFFF DUP2 GT ISZERO PUSH2 0x1D6F JUMPI PUSH1 0x0 DUP1 REVERT JUMPDEST PUSH2 0x1D7B DUP6 DUP3 DUP7 ADD PUSH2 0x1C99 JUMP JUMPDEST SWAP3 POP POP PUSH1 0x20 DUP4 ADD CALLDATALOAD PUSH8 0xFFFFFFFFFFFFFFFF DUP2 GT ISZERO PUSH2 0x1D98 JUMPI PUSH1 0x0 DUP1 REVERT JUMPDEST PUSH2 0x1DA4 DUP6 DUP3 DUP7 ADD PUSH2 0x1C99 JUMP JUMPDEST SWAP2 POP POP SWAP3 POP SWAP3 SWAP1 POP JUMP JUMPDEST PUSH1 0x0 PUSH1 0x20 DUP3 DUP5 SUB SLT ISZERO PUSH2 0x1DC0 JUMPI PUSH1 0x0 DUP1 REVERT JUMPDEST PUSH1 0x0 PUSH2 0x1DCE DUP5 DUP3 DUP6 ADD PUSH2 0x1CC3 JUMP JUMPDEST SWAP2 POP POP SWAP3 SWAP2 POP POP JUMP JUMPDEST PUSH1 0x0 DUP1 PUSH1 0x40 DUP4 DUP6 SUB SLT ISZERO PUSH2 0x1DEA JUMPI PUSH1 0x0 DUP1 REVERT JUMPDEST PUSH1 0x0 PUSH2 0x1DF8 DUP6 DUP3 DUP7 ADD PUSH2 0x1CC3 JUMP JUMPDEST SWAP3 POP POP PUSH1 0x20 DUP4 ADD CALLDATALOAD PUSH8 0xFFFFFFFFFFFFFFFF DUP2 GT ISZERO PUSH2 0x1E15 JUMPI PUSH1 0x0 DUP1 REVERT JUMPDEST PUSH2 0x1E21 DUP6 DUP3 DUP7 ADD PUSH2 0x1C99 JUMP JUMPDEST SWAP2 POP POP SWAP3 POP SWAP3 SWAP1 POP JUMP JUMPDEST PUSH1 0x0 DUP1 PUSH1 0x40 DUP4 DUP6 SUB SLT ISZERO PUSH2 0x1E3E JUMPI PUSH1 0x0 DUP1 REVERT JUMPDEST PUSH1 0x0 PUSH2 0x1E4C DUP6 DUP3 DUP7 ADD PUSH2 0x1CC3 JUMP JUMPDEST SWAP3 POP POP PUSH1 0x20 PUSH2 0x1E5D DUP6 DUP3 DUP7 ADD PUSH2 0x1CC3 JUMP JUMPDEST SWAP2 POP POP SWAP3 POP SWAP3 SWAP1 POP JUMP JUMPDEST PUSH1 0x0 PUSH2 0x1E73 DUP4 DUP4 PUSH2 0x22AF JUMP JUMPDEST PUSH1 0x20 DUP4 ADD SWAP1 POP SWAP3 SWAP2 POP POP JUMP JUMPDEST PUSH2 0x1E88 DUP2 PUSH2 0x25DA JUMP JUMPDEST DUP3 MSTORE POP POP JUMP JUMPDEST PUSH1 0x0 PUSH2 0x1E99 DUP3 PUSH2 0x2556 JUMP JUMPDEST PUSH2 0x1EA3 DUP2 DUP6 PUSH2 0x2579 JUMP JUMPDEST SWAP4 POP PUSH2 0x1EAE DUP4 PUSH2 0x2546 JUMP JUMPDEST DUP1 PUSH1 0x0 JUMPDEST DUP4 DUP2 LT ISZERO PUSH2 0x1EDF JUMPI DUP2 MLOAD PUSH2 0x1EC6 DUP9 DUP3 PUSH2 0x1E67 JUMP JUMPDEST SWAP8 POP PUSH2 0x1ED1 DUP4 PUSH2 0x256C JUMP JUMPDEST SWAP3 POP POP PUSH1 0x1 DUP2 ADD SWAP1 POP PUSH2 0x1EB2 JUMP JUMPDEST POP DUP6 SWAP4 POP POP POP POP SWAP3 SWAP2 POP POP JUMP JUMPDEST PUSH2 0x1EF5 DUP2 PUSH2 0x25EC JUMP JUMPDEST DUP3 MSTORE POP POP JUMP JUMPDEST PUSH1 0x0 PUSH2 0x1F06 DUP3 PUSH2 0x2561 JUMP JUMPDEST PUSH2 0x1F10 DUP2 DUP6 PUSH2 0x258A JUMP JUMPDEST SWAP4 POP PUSH2 0x1F20 DUP2 DUP6 PUSH1 0x20 DUP7 ADD PUSH2 0x2631 JUMP JUMPDEST PUSH2 0x1F29 DUP2 PUSH2 0x2796 JUMP JUMPDEST DUP5 ADD SWAP2 POP POP SWAP3 SWAP2 POP POP JUMP JUMPDEST PUSH1 0x0 PUSH2 0x1F3F DUP3 PUSH2 0x2561 JUMP JUMPDEST PUSH2 0x1F49 DUP2 DUP6 PUSH2 0x259B JUMP JUMPDEST SWAP4 POP PUSH2 0x1F59 DUP2 DUP6 PUSH1 0x20 DUP7 ADD PUSH2 0x2631 JUMP JUMPDEST DUP1 DUP5 ADD SWAP2 POP POP SWAP3 SWAP2 POP POP JUMP JUMPDEST PUSH1 0x0 PUSH2 0x1F72 PUSH1 0x30 DUP4 PUSH2 0x258A JUMP JUMPDEST SWAP2 POP PUSH32 0x4E656E68756D612076657263616F20617469766120656E636F6E747261646120 PUSH1 0x0 DUP4 ADD MSTORE PUSH32 0x70617261206573746120706167696E6100000000000000000000000000000000 PUSH1 0x20 DUP4 ADD MSTORE PUSH1 0x40 DUP3 ADD SWAP1 POP SWAP2 SWAP1 POP JUMP JUMPDEST PUSH1 0x0 PUSH2 0x1FD8 PUSH1 0x43 DUP4 PUSH2 0x258A JUMP JUMPDEST SWAP2 POP PUSH32 0x412061646963616F206465206E6F76617320766572636F657320736F20652070 PUSH1 0x0 DUP4 ADD MSTORE PUSH32 0x65726D6974696461207175616E646F206120706167696E612065737461206174 PUSH1 0x20 DUP4 ADD MSTORE PUSH32 0x6976610000000000000000000000000000000000000000000000000000000000 PUSH1 0x40 DUP4 ADD MSTORE PUSH1 0x60 DUP3 ADD SWAP1 POP SWAP2 SWAP1 POP JUMP JUMPDEST PUSH1 0x0 PUSH2 0x2064 PUSH1 0x3F DUP4 PUSH2 0x258A JUMP JUMPDEST SWAP2 POP PUSH32 0x4120616C7465726163616F2064652076657273616F20736F2065207065726D69 PUSH1 0x0 DUP4 ADD MSTORE PUSH32 0x74696461207175616E646F206120706167696E61206573746120617469766100 PUSH1 0x20 DUP4 ADD MSTORE PUSH1 0x40 DUP3 ADD SWAP1 POP SWAP2 SWAP1 POP JUMP JUMPDEST PUSH1 0x0 PUSH2 0x20CA PUSH1 0x16 DUP4 PUSH2 0x258A JUMP JUMPDEST SWAP2 POP PUSH32 0x496E6469636520666F726120646F20616C63616E636500000000000000000000 PUSH1 0x0 DUP4 ADD MSTORE PUSH1 0x20 DUP3 ADD SWAP1 POP SWAP2 SWAP1 POP JUMP JUMPDEST PUSH1 0x0 PUSH2 0x210A PUSH1 0x20 DUP4 PUSH2 0x258A JUMP JUMPDEST SWAP2 POP PUSH32 0x496E646963652064612076657273616F20666F726120646F20616C63616E6365 PUSH1 0x0 DUP4 ADD MSTORE PUSH1 0x20 DUP3 ADD SWAP1 POP SWAP2 SWAP1 POP JUMP JUMPDEST PUSH1 0x0 PUSH2 0x214A PUSH1 0x34 DUP4 PUSH2 0x258A JUMP JUMPDEST SWAP2 POP PUSH32 0x41206163616F20736F2065207065726D6974696461207175616E646F20612042 PUSH1 0x0 DUP4 ADD MSTORE PUSH32 0x6C6F636B70656469612065737461206174697661000000000000000000000000 PUSH1 0x20 DUP4 ADD MSTORE PUSH1 0x40 DUP3 ADD SWAP1 POP SWAP2 SWAP1 POP JUMP JUMPDEST PUSH1 0x0 PUSH2 0x21B0 PUSH1 0x26 DUP4 PUSH2 0x258A JUMP JUMPDEST SWAP2 POP PUSH32 0x4A612065786973746520706167696E6120617469766120636F6D206573746520 PUSH1 0x0 DUP4 ADD MSTORE PUSH32 0x746974756C6F0000000000000000000000000000000000000000000000000000 PUSH1 0x20 DUP4 ADD MSTORE PUSH1 0x40 DUP3 ADD SWAP1 POP SWAP2 SWAP1 POP JUMP JUMPDEST PUSH1 0x0 PUSH2 0x2216 PUSH1 0x20 DUP4 PUSH2 0x258A JUMP JUMPDEST SWAP2 POP PUSH32 0x496E6469636520646120706167696E6120666F726120646F20616C63616E6365 PUSH1 0x0 DUP4 ADD MSTORE PUSH1 0x20 DUP3 ADD SWAP1 POP SWAP2 SWAP1 POP JUMP JUMPDEST PUSH1 0x0 PUSH2 0x2256 PUSH1 0x3D DUP4 PUSH2 0x258A JUMP JUMPDEST SWAP2 POP PUSH32 0x536F6D656E7465206F20646F6E6F20646573746120426C6F636B706564696120 PUSH1 0x0 DUP4 ADD MSTORE PUSH32 0x706F646520616C7465726172206F20617472696275746F20617469766F000000 PUSH1 0x20 DUP4 ADD MSTORE PUSH1 0x40 DUP3 ADD SWAP1 POP SWAP2 SWAP1 POP JUMP JUMPDEST PUSH2 0x22B8 DUP2 PUSH2 0x2618 JUMP JUMPDEST DUP3 MSTORE POP POP JUMP JUMPDEST PUSH2 0x22C7 DUP2 PUSH2 0x2618 JUMP JUMPDEST DUP3 MSTORE POP POP JUMP JUMPDEST PUSH1 0x0 PUSH2 0x22D9 DUP3 DUP5 PUSH2 0x1F34 JUMP JUMPDEST SWAP2 POP DUP2 SWAP1 POP SWAP3 SWAP2 POP POP JUMP JUMPDEST PUSH1 0x0 PUSH1 0x20 DUP3 ADD SWAP1 POP PUSH2 0x22F9 PUSH1 0x0 DUP4 ADD DUP5 PUSH2 0x1E7F JUMP JUMPDEST SWAP3 SWAP2 POP POP JUMP JUMPDEST PUSH1 0x0 PUSH1 0x20 DUP3 ADD SWAP1 POP DUP2 DUP2 SUB PUSH1 0x0 DUP4 ADD MSTORE PUSH2 0x2319 DUP2 DUP5 PUSH2 0x1E8E JUMP JUMPDEST SWAP1 POP SWAP3 SWAP2 POP POP JUMP JUMPDEST PUSH1 0x0 PUSH1 0x20 DUP3 ADD SWAP1 POP PUSH2 0x2336 PUSH1 0x0 DUP4 ADD DUP5 PUSH2 0x1EEC JUMP JUMPDEST SWAP3 SWAP2 POP POP JUMP JUMPDEST PUSH1 0x0 PUSH1 0x80 DUP3 ADD SWAP1 POP PUSH2 0x2351 PUSH1 0x0 DUP4 ADD DUP8 PUSH2 0x1EEC JUMP JUMPDEST PUSH2 0x235E PUSH1 0x20 DUP4 ADD DUP7 PUSH2 0x1E7F JUMP JUMPDEST PUSH2 0x236B PUSH1 0x40 DUP4 ADD DUP6 PUSH2 0x22BE JUMP JUMPDEST DUP2 DUP2 SUB PUSH1 0x60 DUP4 ADD MSTORE PUSH2 0x237D DUP2 DUP5 PUSH2 0x1EFB JUMP JUMPDEST SWAP1 POP SWAP6 SWAP5 POP POP POP POP POP JUMP JUMPDEST PUSH1 0x0 PUSH1 0x20 DUP3 ADD SWAP1 POP DUP2 DUP2 SUB PUSH1 0x0 DUP4 ADD MSTORE PUSH2 0x23A2 DUP2 DUP5 PUSH2 0x1EFB JUMP JUMPDEST SWAP1 POP SWAP3 SWAP2 POP POP JUMP JUMPDEST PUSH1 0x0 PUSH1 0x20 DUP3 ADD SWAP1 POP DUP2 DUP2 SUB PUSH1 0x0 DUP4 ADD MSTORE PUSH2 0x23C3 DUP2 PUSH2 0x1F65 JUMP JUMPDEST SWAP1 POP SWAP2 SWAP1 POP JUMP JUMPDEST PUSH1 0x0 PUSH1 0x20 DUP3 ADD SWAP1 POP DUP2 DUP2 SUB PUSH1 0x0 DUP4 ADD MSTORE PUSH2 0x23E3 DUP2 PUSH2 0x1FCB JUMP JUMPDEST SWAP1 POP SWAP2 SWAP1 POP JUMP JUMPDEST PUSH1 0x0 PUSH1 0x20 DUP3 ADD SWAP1 POP DUP2 DUP2 SUB PUSH1 0x0 DUP4 ADD MSTORE PUSH2 0x2403 DUP2 PUSH2 0x2057 JUMP JUMPDEST SWAP1 POP SWAP2 SWAP1 POP JUMP JUMPDEST PUSH1 0x0 PUSH1 0x20 DUP3 ADD SWAP1 POP DUP2 DUP2 SUB PUSH1 0x0 DUP4 ADD MSTORE PUSH2 0x2423 DUP2 PUSH2 0x20BD JUMP JUMPDEST SWAP1 POP SWAP2 SWAP1 POP JUMP JUMPDEST PUSH1 0x0 PUSH1 0x20 DUP3 ADD SWAP1 POP DUP2 DUP2 SUB PUSH1 0x0 DUP4 ADD MSTORE PUSH2 0x2443 DUP2 PUSH2 0x20FD JUMP JUMPDEST SWAP1 POP SWAP2 SWAP1 POP JUMP JUMPDEST PUSH1 0x0 PUSH1 0x20 DUP3 ADD SWAP1 POP DUP2 DUP2 SUB PUSH1 0x0 DUP4 ADD MSTORE PUSH2 0x2463 DUP2 PUSH2 0x213D JUMP JUMPDEST SWAP1 POP SWAP2 SWAP1 POP JUMP JUMPDEST PUSH1 0x0 PUSH1 0x20 DUP3 ADD SWAP1 POP DUP2 DUP2 SUB PUSH1 0x0 DUP4 ADD MSTORE PUSH2 0x2483 DUP2 PUSH2 0x21A3 JUMP JUMPDEST SWAP1 POP SWAP2 SWAP1 POP JUMP JUMPDEST PUSH1 0x0 PUSH1 0x20 DUP3 ADD SWAP1 POP DUP2 DUP2 SUB PUSH1 0x0 DUP4 ADD MSTORE PUSH2 0x24A3 DUP2 PUSH2 0x2209 JUMP JUMPDEST SWAP1 POP SWAP2 SWAP1 POP JUMP JUMPDEST PUSH1 0x0 PUSH1 0x20 DUP3 ADD SWAP1 POP DUP2 DUP2 SUB PUSH1 0x0 DUP4 ADD MSTORE PUSH2 0x24C3 DUP2 PUSH2 0x2249 JUMP JUMPDEST SWAP1 POP SWAP2 SWAP1 POP JUMP JUMPDEST PUSH1 0x0 PUSH1 0x20 DUP3 ADD SWAP1 POP PUSH2 0x24DF PUSH1 0x0 DUP4 ADD DUP5 PUSH2 0x22BE JUMP JUMPDEST SWAP3 SWAP2 POP POP JUMP JUMPDEST PUSH1 0x0 PUSH1 0x40 MLOAD SWAP1 POP DUP2 DUP2 ADD DUP2 DUP2 LT PUSH8 0xFFFFFFFFFFFFFFFF DUP3 GT OR ISZERO PUSH2 0x250C JUMPI PUSH2 0x250B PUSH2 0x2767 JUMP JUMPDEST JUMPDEST DUP1 PUSH1 0x40 MSTORE POP SWAP2 SWAP1 POP JUMP JUMPDEST PUSH1 0x0 PUSH8 0xFFFFFFFFFFFFFFFF DUP3 GT ISZERO PUSH2 0x2531 JUMPI PUSH2 0x2530 PUSH2 0x2767 JUMP JUMPDEST JUMPDEST PUSH1 0x1F NOT PUSH1 0x1F DUP4 ADD AND SWAP1 POP PUSH1 0x20 DUP2 ADD SWAP1 POP SWAP2 SWAP1 POP JUMP JUMPDEST PUSH1 0x0 DUP2 SWAP1 POP PUSH1 0x20 DUP3 ADD SWAP1 POP SWAP2 SWAP1 POP JUMP JUMPDEST PUSH1 0x0 DUP2 MLOAD SWAP1 POP SWAP2 SWAP1 POP JUMP JUMPDEST PUSH1 0x0 DUP2 MLOAD SWAP1 POP SWAP2 SWAP1 POP JUMP JUMPDEST PUSH1 0x0 PUSH1 0x20 DUP3 ADD SWAP1 POP SWAP2 SWAP1 POP JUMP JUMPDEST PUSH1 0x0 DUP3 DUP3 MSTORE PUSH1 0x20 DUP3 ADD SWAP1 POP SWAP3 SWAP2 POP POP JUMP JUMPDEST PUSH1 0x0 DUP3 DUP3 MSTORE PUSH1 0x20 DUP3 ADD SWAP1 POP SWAP3 SWAP2 POP POP JUMP JUMPDEST PUSH1 0x0 DUP2 SWAP1 POP SWAP3 SWAP2 POP POP JUMP JUMPDEST PUSH1 0x0 PUSH2 0x25B1 DUP3 PUSH2 0x2618 JUMP JUMPDEST SWAP2 POP PUSH2 0x25BC DUP4 PUSH2 0x2618 JUMP JUMPDEST SWAP3 POP DUP3 DUP3 LT ISZERO PUSH2 0x25CF JUMPI PUSH2 0x25CE PUSH2 0x2709 JUMP JUMPDEST JUMPDEST DUP3 DUP3 SUB SWAP1 POP SWAP3 SWAP2 POP POP JUMP JUMPDEST PUSH1 0x0 PUSH2 0x25E5 DUP3 PUSH2 0x25F8 JUMP JUMPDEST SWAP1 POP SWAP2 SWAP1 POP JUMP JUMPDEST PUSH1 0x0 DUP2 ISZERO ISZERO SWAP1 POP SWAP2 SWAP1 POP JUMP JUMPDEST PUSH1 0x0 PUSH20 0xFFFFFFFFFFFFFFFFFFFFFFFFFFFFFFFFFFFFFFFF DUP3 AND SWAP1 POP SWAP2 SWAP1 POP JUMP JUMPDEST PUSH1 0x0 DUP2 SWAP1 POP SWAP2 SWAP1 POP JUMP JUMPDEST DUP3 DUP2 DUP4 CALLDATACOPY PUSH1 0x0 DUP4 DUP4 ADD MSTORE POP POP POP JUMP JUMPDEST PUSH1 0x0 JUMPDEST DUP4 DUP2 LT ISZERO PUSH2 0x264F JUMPI DUP1 DUP3 ADD MLOAD DUP2 DUP5 ADD MSTORE PUSH1 0x20 DUP2 ADD SWAP1 POP PUSH2 0x2634 JUMP JUMPDEST DUP4 DUP2 GT ISZERO PUSH2 0x265E JUMPI PUSH1 0x0 DUP5 DUP5 ADD MSTORE JUMPDEST POP POP POP POP JUMP JUMPDEST PUSH1 0x0 PUSH2 0x266F DUP3 PUSH2 0x2618 JUMP JUMPDEST SWAP2 POP PUSH1 0x0 DUP3 EQ ISZERO PUSH2 0x2683 JUMPI PUSH2 0x2682 PUSH2 0x2709 JUMP JUMPDEST JUMPDEST PUSH1 0x1 DUP3 SUB SWAP1 POP SWAP2 SWAP1 POP JUMP JUMPDEST PUSH1 0x0 PUSH1 0x2 DUP3 DIV SWAP1 POP PUSH1 0x1 DUP3 AND DUP1 PUSH2 0x26A6 JUMPI PUSH1 0x7F DUP3 AND SWAP2 POP JUMPDEST PUSH1 0x20 DUP3 LT DUP2 EQ ISZERO PUSH2 0x26BA JUMPI PUSH2 0x26B9 PUSH2 0x2738 JUMP JUMPDEST JUMPDEST POP SWAP2 SWAP1 POP JUMP JUMPDEST PUSH1 0x0 PUSH2 0x26CB DUP3 PUSH2 0x2618 JUMP JUMPDEST SWAP2 POP PUSH32 0xFFFFFFFFFFFFFFFFFFFFFFFFFFFFFFFFFFFFFFFFFFFFFFFFFFFFFFFFFFFFFFFF DUP3 EQ ISZERO PUSH2 0x26FE JUMPI PUSH2 0x26FD PUSH2 0x2709 JUMP JUMPDEST JUMPDEST PUSH1 0x1 DUP3 ADD SWAP1 POP SWAP2 SWAP1 POP JUMP JUMPDEST PUSH32 0x4E487B7100000000000000000000000000000000000000000000000000000000 PUSH1 0x0 MSTORE PUSH1 0x11 PUSH1 0x4 MSTORE PUSH1 0x24 PUSH1 0x0 REVERT JUMPDEST PUSH32 0x4E487B7100000000000000000000000000000000000000000000000000000000 PUSH1 0x0 MSTORE PUSH1 0x22 PUSH1 0x4 MSTORE PUSH1 0x24 PUSH1 0x0 REVERT JUMPDEST PUSH32 0x4E487B7100000000000000000000000000000000000000000000000000000000 PUSH1 0x0 MSTORE PUSH1 0x41 PUSH1 0x4 MSTORE PUSH1 0x24 PUSH1 0x0 REVERT JUMPDEST PUSH1 0x0 PUSH1 0x1F NOT PUSH1 0x1F DUP4 ADD AND SWAP1 POP SWAP2 SWAP1 POP JUMP JUMPDEST PUSH2 0x27B0 DUP2 PUSH2 0x25EC JUMP JUMPDEST DUP2 EQ PUSH2 0x27BB JUMPI PUSH1 0x0 DUP1 REVERT JUMPDEST POP JUMP JUMPDEST PUSH2 0x27C7 DUP2 PUSH2 0x2618 JUMP JUMPDEST DUP2 EQ PUSH2 0x27D2 JUMPI PUSH1 0x0 DUP1 REVERT JUMPDEST POP JUMP INVALID LOG2 PUSH5 0x6970667358 0x22 SLT KECCAK256 0xAC PC 0x49 0x4A GAS 0xF7 CALLER POP CODESIZE RETURNDATASIZE 0x2B GT 0xAA 0xB4 SWAP7 0x2D 0xC8 0xC9 0xEE DUP9 SWAP1 MULMOD PC 0x26 EQ SIGNEXTEND SWAP10 PUSH17 0xD6A6B94564736F6C634300080000334265 PUSH14 0x2076696E646F206120426C6F636B PUSH17 0x656964612C206120656E6369636C6F7065 PUSH5 0x6961206E61 KECCAK256 PUSH3 0x6C6F63 PUSH12 0x636861696E00000000000000 "
				},
				"gasEstimates": {
					"creation": {
						"codeDepositCost": "2050200",
						"executionCost": "infinite",
						"totalCost": "infinite"
					},
					"external": {
						"": "224",
						"adicionaNovaVercaoDesativadaAPaginaPorIndexPaginas(uint256,string)": "infinite",
						"ativaDesativaBlockpedia(bool)": "infinite",
						"ativaPaginaPorIndexPaginas(uint256)": "infinite",
						"ativaVersaoPorIndexVersoesEIndexPaginas(uint256,uint256)": "infinite",
						"ativo()": "1190",
						"autor()": "infinite",
						"criarPagina(string,string)": "infinite",
						"dataCriacao()": "infinite",
						"desativaPaginaPorIndexPaginas(uint256)": "25690",
						"getConteudoVersaoValidaPorIndexPaginas(uint256)": "infinite",
						"getPaginasPorTitulo(string)": "infinite",
						"paginas(uint256)": "infinite"
					},
					"internal": {
						"comparaString(string memory,string memory)": "infinite",
						"existeTituloAtivo(string memory)": "infinite",
						"getVersaoValidaDeUmaPagina(struct Blockpedia.Pagina memory)": "infinite"
					}
				},
				"methodIdentifiers": {
					"adicionaNovaVercaoDesativadaAPaginaPorIndexPaginas(uint256,string)": "d4d23a6e",
					"ativaDesativaBlockpedia(bool)": "1509d30c",
					"ativaPaginaPorIndexPaginas(uint256)": "aa83581f",
					"ativaVersaoPorIndexVersoesEIndexPaginas(uint256,uint256)": "95be551a",
					"ativo()": "a18cc13b",
					"autor()": "0694952d",
					"criarPagina(string,string)": "1c18379a",
					"dataCriacao()": "6f70a52e",
					"desativaPaginaPorIndexPaginas(uint256)": "d616c9f0",
					"getConteudoVersaoValidaPorIndexPaginas(uint256)": "4d7e6726",
					"getPaginasPorTitulo(string)": "2e87ca2e",
					"paginas(uint256)": "e7d4296a"
				}
			},
			"storageLayout": {
				"storage": [
					{
						"astId": 4,
						"contract": "blockpedia.sol:Blockpedia",
						"label": "ativo",
						"offset": 0,
						"slot": "0",
						"type": "t_bool"
					},
					{
						"astId": 12,
						"contract": "blockpedia.sol:Blockpedia",
						"label": "paginas",
						"offset": 0,
						"slot": "1",
						"type": "t_array(t_struct(Pagina)25_storage)dyn_storage"
					}
				],
				"types": {
					"t_address": {
						"encoding": "inplace",
						"label": "address",
						"numberOfBytes": "20"
					},
					"t_array(t_struct(Pagina)25_storage)dyn_storage": {
						"base": "t_struct(Pagina)25_storage",
						"encoding": "dynamic_array",
						"label": "struct Blockpedia.Pagina[]",
						"numberOfBytes": "32"
					},
					"t_array(t_struct(Versao)34_storage)dyn_storage": {
						"base": "t_struct(Versao)34_storage",
						"encoding": "dynamic_array",
						"label": "struct Blockpedia.Versao[]",
						"numberOfBytes": "32"
					},
					"t_bool": {
						"encoding": "inplace",
						"label": "bool",
						"numberOfBytes": "1"
					},
					"t_string_storage": {
						"encoding": "bytes",
						"label": "string",
						"numberOfBytes": "32"
					},
					"t_struct(Pagina)25_storage": {
						"encoding": "inplace",
						"label": "struct Blockpedia.Pagina",
						"members": [
							{
								"astId": 14,
								"contract": "blockpedia.sol:Blockpedia",
								"label": "ativo",
								"offset": 0,
								"slot": "0",
								"type": "t_bool"
							},
							{
								"astId": 16,
								"contract": "blockpedia.sol:Blockpedia",
								"label": "autor",
								"offset": 1,
								"slot": "0",
								"type": "t_address"
							},
							{
								"astId": 18,
								"contract": "blockpedia.sol:Blockpedia",
								"label": "dataCriacao",
								"offset": 0,
								"slot": "1",
								"type": "t_uint256"
							},
							{
								"astId": 20,
								"contract": "blockpedia.sol:Blockpedia",
								"label": "titulo",
								"offset": 0,
								"slot": "2",
								"type": "t_string_storage"
							},
							{
								"astId": 24,
								"contract": "blockpedia.sol:Blockpedia",
								"label": "versoes",
								"offset": 0,
								"slot": "3",
								"type": "t_array(t_struct(Versao)34_storage)dyn_storage"
							}
						],
						"numberOfBytes": "128"
					},
					"t_struct(Versao)34_storage": {
						"encoding": "inplace",
						"label": "struct Blockpedia.Versao",
						"members": [
							{
								"astId": 27,
								"contract": "blockpedia.sol:Blockpedia",
								"label": "ativo",
								"offset": 0,
								"slot": "0",
								"type": "t_bool"
							},
							{
								"astId": 29,
								"contract": "blockpedia.sol:Blockpedia",
								"label": "autor",
								"offset": 1,
								"slot": "0",
								"type": "t_address"
							},
							{
								"astId": 31,
								"contract": "blockpedia.sol:Blockpedia",
								"label": "dataCriacao",
								"offset": 0,
								"slot": "1",
								"type": "t_uint256"
							},
							{
								"astId": 33,
								"contract": "blockpedia.sol:Blockpedia",
								"label": "conteudo",
								"offset": 0,
								"slot": "2",
								"type": "t_string_storage"
							}
						],
						"numberOfBytes": "96"
					},
					"t_uint256": {
						"encoding": "inplace",
						"label": "uint256",
						"numberOfBytes": "32"
					}
				}
			},
			"userdoc": {
				"kind": "user",
				"methods": {},
				"version": 1
			}
		}
	}
}