{
	"blockpedia.sol": {
		"Blockpedia": {
			"abi": [
				{
					"inputs": [
						{
							"internalType": "uint256",
							"name": "",
							"type": "uint256"
						}
					],
					"name": "paginas",
					"outputs": [
						{
							"internalType": "address",
							"name": "autor",
							"type": "address"
						},
						{
							"internalType": "bool",
							"name": "ativo",
							"type": "bool"
						},
						{
							"internalType": "string",
							"name": "titulo",
							"type": "string"
						}
					],
					"stateMutability": "view",
					"type": "function"
				}
			],
			"devdoc": {
				"kind": "dev",
				"methods": {},
				"version": 1
			},
			"evm": {
				"assembly": "    /* \"blockpedia.sol\":88:188  contract Blockpedia {... */\n  mstore(0x40, 0x80)\n  callvalue\n  dup1\n  iszero\n  tag_1\n  jumpi\n  0x00\n  dup1\n  revert\ntag_1:\n  pop\n  dataSize(sub_0)\n  dup1\n  dataOffset(sub_0)\n  0x00\n  codecopy\n  0x00\n  return\nstop\n\nsub_0: assembly {\n        /* \"blockpedia.sol\":88:188  contract Blockpedia {... */\n      mstore(0x40, 0x80)\n      callvalue\n      dup1\n      iszero\n      tag_1\n      jumpi\n      0x00\n      dup1\n      revert\n    tag_1:\n      pop\n      jumpi(tag_2, lt(calldatasize, 0x04))\n      shr(0xe0, calldataload(0x00))\n      dup1\n      0xe7d4296a\n      eq\n      tag_3\n      jumpi\n    tag_2:\n      0x00\n      dup1\n      revert\n        /* \"blockpedia.sol\":115:138  Pagina[] public paginas */\n    tag_3:\n      tag_4\n      0x04\n      dup1\n      calldatasize\n      sub\n      dup2\n      add\n      swap1\n      tag_5\n      swap2\n      swap1\n      tag_6\n      jump\t// in\n    tag_5:\n      tag_7\n      jump\t// in\n    tag_4:\n      mload(0x40)\n      tag_8\n      swap4\n      swap3\n      swap2\n      swap1\n      tag_9\n      jump\t// in\n    tag_8:\n      mload(0x40)\n      dup1\n      swap2\n      sub\n      swap1\n      return\n    tag_7:\n      0x00\n      dup2\n      dup2\n      sload\n      dup2\n      lt\n      tag_10\n      jumpi\n      0x00\n      dup1\n      revert\n    tag_10:\n      swap1\n      0x00\n      mstore\n      keccak256(0x00, 0x20)\n      swap1\n      0x03\n      mul\n      add\n      0x00\n      swap2\n      pop\n      swap1\n      pop\n      dup1\n      0x00\n      add\n      0x00\n      swap1\n      sload\n      swap1\n      0x0100\n      exp\n      swap1\n      div\n      0xffffffffffffffffffffffffffffffffffffffff\n      and\n      swap1\n      dup1\n      0x00\n      add\n      0x14\n      swap1\n      sload\n      swap1\n      0x0100\n      exp\n      swap1\n      div\n      0xff\n      and\n      swap1\n      dup1\n      0x01\n      add\n      dup1\n      sload\n      tag_12\n      swap1\n      tag_13\n      jump\t// in\n    tag_12:\n      dup1\n      0x1f\n      add\n      0x20\n      dup1\n      swap2\n      div\n      mul\n      0x20\n      add\n      mload(0x40)\n      swap1\n      dup2\n      add\n      0x40\n      mstore\n      dup1\n      swap3\n      swap2\n      swap1\n      dup2\n      dup2\n      mstore\n      0x20\n      add\n      dup3\n      dup1\n      sload\n      tag_14\n      swap1\n      tag_13\n      jump\t// in\n    tag_14:\n      dup1\n      iszero\n      tag_15\n      jumpi\n      dup1\n      0x1f\n      lt\n      tag_16\n      jumpi\n      0x0100\n      dup1\n      dup4\n      sload\n      div\n      mul\n      dup4\n      mstore\n      swap2\n      0x20\n      add\n      swap2\n      jump(tag_15)\n    tag_16:\n      dup3\n      add\n      swap2\n      swap1\n      0x00\n      mstore\n      keccak256(0x00, 0x20)\n      swap1\n    tag_17:\n      dup2\n      sload\n      dup2\n      mstore\n      swap1\n      0x01\n      add\n      swap1\n      0x20\n      add\n      dup1\n      dup4\n      gt\n      tag_17\n      jumpi\n      dup3\n      swap1\n      sub\n      0x1f\n      and\n      dup3\n      add\n      swap2\n    tag_15:\n      pop\n      pop\n      pop\n      pop\n      pop\n      swap1\n      pop\n      dup4\n      jump\t// out\n        /* \"#utility.yul\":88:205   */\n    tag_19:\n        /* \"#utility.yul\":197:198   */\n      0x00\n        /* \"#utility.yul\":194:195   */\n      dup1\n        /* \"#utility.yul\":187:199   */\n      revert\n        /* \"#utility.yul\":334:411   */\n    tag_21:\n        /* \"#utility.yul\":371:378   */\n      0x00\n        /* \"#utility.yul\":400:405   */\n      dup2\n        /* \"#utility.yul\":389:405   */\n      swap1\n      pop\n        /* \"#utility.yul\":334:411   */\n      swap2\n      swap1\n      pop\n      jump\t// out\n        /* \"#utility.yul\":417:539   */\n    tag_22:\n        /* \"#utility.yul\":490:514   */\n      tag_41\n        /* \"#utility.yul\":508:513   */\n      dup2\n        /* \"#utility.yul\":490:514   */\n      tag_21\n      jump\t// in\n    tag_41:\n        /* \"#utility.yul\":483:488   */\n      dup2\n        /* \"#utility.yul\":480:515   */\n      eq\n        /* \"#utility.yul\":470:533   */\n      tag_42\n      jumpi\n        /* \"#utility.yul\":529:530   */\n      0x00\n        /* \"#utility.yul\":526:527   */\n      dup1\n        /* \"#utility.yul\":519:531   */\n      revert\n        /* \"#utility.yul\":470:533   */\n    tag_42:\n        /* \"#utility.yul\":417:539   */\n      pop\n      jump\t// out\n        /* \"#utility.yul\":545:684   */\n    tag_23:\n        /* \"#utility.yul\":591:596   */\n      0x00\n        /* \"#utility.yul\":629:635   */\n      dup2\n        /* \"#utility.yul\":616:636   */\n      calldataload\n        /* \"#utility.yul\":607:636   */\n      swap1\n      pop\n        /* \"#utility.yul\":645:678   */\n      tag_44\n        /* \"#utility.yul\":672:677   */\n      dup2\n        /* \"#utility.yul\":645:678   */\n      tag_22\n      jump\t// in\n    tag_44:\n        /* \"#utility.yul\":545:684   */\n      swap3\n      swap2\n      pop\n      pop\n      jump\t// out\n        /* \"#utility.yul\":690:1019   */\n    tag_6:\n        /* \"#utility.yul\":749:755   */\n      0x00\n        /* \"#utility.yul\":798:800   */\n      0x20\n        /* \"#utility.yul\":786:795   */\n      dup3\n        /* \"#utility.yul\":777:784   */\n      dup5\n        /* \"#utility.yul\":773:796   */\n      sub\n        /* \"#utility.yul\":769:801   */\n      slt\n        /* \"#utility.yul\":766:885   */\n      iszero\n      tag_46\n      jumpi\n        /* \"#utility.yul\":804:883   */\n      tag_47\n      tag_19\n      jump\t// in\n    tag_47:\n        /* \"#utility.yul\":766:885   */\n    tag_46:\n        /* \"#utility.yul\":924:925   */\n      0x00\n        /* \"#utility.yul\":949:1002   */\n      tag_48\n        /* \"#utility.yul\":994:1001   */\n      dup5\n        /* \"#utility.yul\":985:991   */\n      dup3\n        /* \"#utility.yul\":974:983   */\n      dup6\n        /* \"#utility.yul\":970:992   */\n      add\n        /* \"#utility.yul\":949:1002   */\n      tag_23\n      jump\t// in\n    tag_48:\n        /* \"#utility.yul\":939:1002   */\n      swap2\n      pop\n        /* \"#utility.yul\":895:1012   */\n      pop\n        /* \"#utility.yul\":690:1019   */\n      swap3\n      swap2\n      pop\n      pop\n      jump\t// out\n        /* \"#utility.yul\":1025:1151   */\n    tag_24:\n        /* \"#utility.yul\":1062:1069   */\n      0x00\n        /* \"#utility.yul\":1102:1144   */\n      0xffffffffffffffffffffffffffffffffffffffff\n        /* \"#utility.yul\":1095:1100   */\n      dup3\n        /* \"#utility.yul\":1091:1145   */\n      and\n        /* \"#utility.yul\":1080:1145   */\n      swap1\n      pop\n        /* \"#utility.yul\":1025:1151   */\n      swap2\n      swap1\n      pop\n      jump\t// out\n        /* \"#utility.yul\":1157:1253   */\n    tag_25:\n        /* \"#utility.yul\":1194:1201   */\n      0x00\n        /* \"#utility.yul\":1223:1247   */\n      tag_51\n        /* \"#utility.yul\":1241:1246   */\n      dup3\n        /* \"#utility.yul\":1223:1247   */\n      tag_24\n      jump\t// in\n    tag_51:\n        /* \"#utility.yul\":1212:1247   */\n      swap1\n      pop\n        /* \"#utility.yul\":1157:1253   */\n      swap2\n      swap1\n      pop\n      jump\t// out\n        /* \"#utility.yul\":1259:1377   */\n    tag_26:\n        /* \"#utility.yul\":1346:1370   */\n      tag_53\n        /* \"#utility.yul\":1364:1369   */\n      dup2\n        /* \"#utility.yul\":1346:1370   */\n      tag_25\n      jump\t// in\n    tag_53:\n        /* \"#utility.yul\":1341:1344   */\n      dup3\n        /* \"#utility.yul\":1334:1371   */\n      mstore\n        /* \"#utility.yul\":1259:1377   */\n      pop\n      pop\n      jump\t// out\n        /* \"#utility.yul\":1383:1473   */\n    tag_27:\n        /* \"#utility.yul\":1417:1424   */\n      0x00\n        /* \"#utility.yul\":1460:1465   */\n      dup2\n        /* \"#utility.yul\":1453:1466   */\n      iszero\n        /* \"#utility.yul\":1446:1467   */\n      iszero\n        /* \"#utility.yul\":1435:1467   */\n      swap1\n      pop\n        /* \"#utility.yul\":1383:1473   */\n      swap2\n      swap1\n      pop\n      jump\t// out\n        /* \"#utility.yul\":1479:1588   */\n    tag_28:\n        /* \"#utility.yul\":1560:1581   */\n      tag_56\n        /* \"#utility.yul\":1575:1580   */\n      dup2\n        /* \"#utility.yul\":1560:1581   */\n      tag_27\n      jump\t// in\n    tag_56:\n        /* \"#utility.yul\":1555:1558   */\n      dup3\n        /* \"#utility.yul\":1548:1582   */\n      mstore\n        /* \"#utility.yul\":1479:1588   */\n      pop\n      pop\n      jump\t// out\n        /* \"#utility.yul\":1594:1693   */\n    tag_29:\n        /* \"#utility.yul\":1646:1652   */\n      0x00\n        /* \"#utility.yul\":1680:1685   */\n      dup2\n        /* \"#utility.yul\":1674:1686   */\n      mload\n        /* \"#utility.yul\":1664:1686   */\n      swap1\n      pop\n        /* \"#utility.yul\":1594:1693   */\n      swap2\n      swap1\n      pop\n      jump\t// out\n        /* \"#utility.yul\":1699:1868   */\n    tag_30:\n        /* \"#utility.yul\":1783:1794   */\n      0x00\n        /* \"#utility.yul\":1817:1823   */\n      dup3\n        /* \"#utility.yul\":1812:1815   */\n      dup3\n        /* \"#utility.yul\":1805:1824   */\n      mstore\n        /* \"#utility.yul\":1857:1861   */\n      0x20\n        /* \"#utility.yul\":1852:1855   */\n      dup3\n        /* \"#utility.yul\":1848:1862   */\n      add\n        /* \"#utility.yul\":1833:1862   */\n      swap1\n      pop\n        /* \"#utility.yul\":1699:1868   */\n      swap3\n      swap2\n      pop\n      pop\n      jump\t// out\n        /* \"#utility.yul\":1874:2120   */\n    tag_31:\n        /* \"#utility.yul\":1955:1956   */\n      0x00\n        /* \"#utility.yul\":1965:2078   */\n    tag_60:\n        /* \"#utility.yul\":1979:1985   */\n      dup4\n        /* \"#utility.yul\":1976:1977   */\n      dup2\n        /* \"#utility.yul\":1973:1986   */\n      lt\n        /* \"#utility.yul\":1965:2078   */\n      iszero\n      tag_62\n      jumpi\n        /* \"#utility.yul\":2064:2065   */\n      dup1\n        /* \"#utility.yul\":2059:2062   */\n      dup3\n        /* \"#utility.yul\":2055:2066   */\n      add\n        /* \"#utility.yul\":2049:2067   */\n      mload\n        /* \"#utility.yul\":2045:2046   */\n      dup2\n        /* \"#utility.yul\":2040:2043   */\n      dup5\n        /* \"#utility.yul\":2036:2047   */\n      add\n        /* \"#utility.yul\":2029:2068   */\n      mstore\n        /* \"#utility.yul\":2001:2003   */\n      0x20\n        /* \"#utility.yul\":1998:1999   */\n      dup2\n        /* \"#utility.yul\":1994:2004   */\n      add\n        /* \"#utility.yul\":1989:2004   */\n      swap1\n      pop\n        /* \"#utility.yul\":1965:2078   */\n      jump(tag_60)\n    tag_62:\n        /* \"#utility.yul\":2112:2113   */\n      0x00\n        /* \"#utility.yul\":2103:2109   */\n      dup5\n        /* \"#utility.yul\":2098:2101   */\n      dup5\n        /* \"#utility.yul\":2094:2110   */\n      add\n        /* \"#utility.yul\":2087:2114   */\n      mstore\n        /* \"#utility.yul\":1936:2120   */\n      pop\n        /* \"#utility.yul\":1874:2120   */\n      pop\n      pop\n      pop\n      jump\t// out\n        /* \"#utility.yul\":2126:2228   */\n    tag_32:\n        /* \"#utility.yul\":2167:2173   */\n      0x00\n        /* \"#utility.yul\":2218:2220   */\n      0x1f\n        /* \"#utility.yul\":2214:2221   */\n      not\n        /* \"#utility.yul\":2209:2211   */\n      0x1f\n        /* \"#utility.yul\":2202:2207   */\n      dup4\n        /* \"#utility.yul\":2198:2212   */\n      add\n        /* \"#utility.yul\":2194:2222   */\n      and\n        /* \"#utility.yul\":2184:2222   */\n      swap1\n      pop\n        /* \"#utility.yul\":2126:2228   */\n      swap2\n      swap1\n      pop\n      jump\t// out\n        /* \"#utility.yul\":2234:2611   */\n    tag_33:\n        /* \"#utility.yul\":2322:2325   */\n      0x00\n        /* \"#utility.yul\":2350:2389   */\n      tag_65\n        /* \"#utility.yul\":2383:2388   */\n      dup3\n        /* \"#utility.yul\":2350:2389   */\n      tag_29\n      jump\t// in\n    tag_65:\n        /* \"#utility.yul\":2405:2476   */\n      tag_66\n        /* \"#utility.yul\":2469:2475   */\n      dup2\n        /* \"#utility.yul\":2464:2467   */\n      dup6\n        /* \"#utility.yul\":2405:2476   */\n      tag_30\n      jump\t// in\n    tag_66:\n        /* \"#utility.yul\":2398:2476   */\n      swap4\n      pop\n        /* \"#utility.yul\":2485:2550   */\n      tag_67\n        /* \"#utility.yul\":2543:2549   */\n      dup2\n        /* \"#utility.yul\":2538:2541   */\n      dup6\n        /* \"#utility.yul\":2531:2535   */\n      0x20\n        /* \"#utility.yul\":2524:2529   */\n      dup7\n        /* \"#utility.yul\":2520:2536   */\n      add\n        /* \"#utility.yul\":2485:2550   */\n      tag_31\n      jump\t// in\n    tag_67:\n        /* \"#utility.yul\":2575:2604   */\n      tag_68\n        /* \"#utility.yul\":2597:2603   */\n      dup2\n        /* \"#utility.yul\":2575:2604   */\n      tag_32\n      jump\t// in\n    tag_68:\n        /* \"#utility.yul\":2570:2573   */\n      dup5\n        /* \"#utility.yul\":2566:2605   */\n      add\n        /* \"#utility.yul\":2559:2605   */\n      swap2\n      pop\n        /* \"#utility.yul\":2326:2611   */\n      pop\n        /* \"#utility.yul\":2234:2611   */\n      swap3\n      swap2\n      pop\n      pop\n      jump\t// out\n        /* \"#utility.yul\":2617:3138   */\n    tag_9:\n        /* \"#utility.yul\":2780:2784   */\n      0x00\n        /* \"#utility.yul\":2818:2820   */\n      0x60\n        /* \"#utility.yul\":2807:2816   */\n      dup3\n        /* \"#utility.yul\":2803:2821   */\n      add\n        /* \"#utility.yul\":2795:2821   */\n      swap1\n      pop\n        /* \"#utility.yul\":2831:2902   */\n      tag_70\n        /* \"#utility.yul\":2899:2900   */\n      0x00\n        /* \"#utility.yul\":2888:2897   */\n      dup4\n        /* \"#utility.yul\":2884:2901   */\n      add\n        /* \"#utility.yul\":2875:2881   */\n      dup7\n        /* \"#utility.yul\":2831:2902   */\n      tag_26\n      jump\t// in\n    tag_70:\n        /* \"#utility.yul\":2912:2978   */\n      tag_71\n        /* \"#utility.yul\":2974:2976   */\n      0x20\n        /* \"#utility.yul\":2963:2972   */\n      dup4\n        /* \"#utility.yul\":2959:2977   */\n      add\n        /* \"#utility.yul\":2950:2956   */\n      dup6\n        /* \"#utility.yul\":2912:2978   */\n      tag_28\n      jump\t// in\n    tag_71:\n        /* \"#utility.yul\":3025:3034   */\n      dup2\n        /* \"#utility.yul\":3019:3023   */\n      dup2\n        /* \"#utility.yul\":3015:3035   */\n      sub\n        /* \"#utility.yul\":3010:3012   */\n      0x40\n        /* \"#utility.yul\":2999:3008   */\n      dup4\n        /* \"#utility.yul\":2995:3013   */\n      add\n        /* \"#utility.yul\":2988:3036   */\n      mstore\n        /* \"#utility.yul\":3053:3131   */\n      tag_72\n        /* \"#utility.yul\":3126:3130   */\n      dup2\n        /* \"#utility.yul\":3117:3123   */\n      dup5\n        /* \"#utility.yul\":3053:3131   */\n      tag_33\n      jump\t// in\n    tag_72:\n        /* \"#utility.yul\":3045:3131   */\n      swap1\n      pop\n        /* \"#utility.yul\":2617:3138   */\n      swap5\n      swap4\n      pop\n      pop\n      pop\n      pop\n      jump\t// out\n        /* \"#utility.yul\":3144:3324   */\n    tag_34:\n        /* \"#utility.yul\":3192:3269   */\n      0x4e487b7100000000000000000000000000000000000000000000000000000000\n        /* \"#utility.yul\":3189:3190   */\n      0x00\n        /* \"#utility.yul\":3182:3270   */\n      mstore\n        /* \"#utility.yul\":3289:3293   */\n      0x22\n        /* \"#utility.yul\":3286:3287   */\n      0x04\n        /* \"#utility.yul\":3279:3294   */\n      mstore\n        /* \"#utility.yul\":3313:3317   */\n      0x24\n        /* \"#utility.yul\":3310:3311   */\n      0x00\n        /* \"#utility.yul\":3303:3318   */\n      revert\n        /* \"#utility.yul\":3330:3650   */\n    tag_13:\n        /* \"#utility.yul\":3374:3380   */\n      0x00\n        /* \"#utility.yul\":3411:3412   */\n      0x02\n        /* \"#utility.yul\":3405:3409   */\n      dup3\n        /* \"#utility.yul\":3401:3413   */\n      div\n        /* \"#utility.yul\":3391:3413   */\n      swap1\n      pop\n        /* \"#utility.yul\":3458:3459   */\n      0x01\n        /* \"#utility.yul\":3452:3456   */\n      dup3\n        /* \"#utility.yul\":3448:3460   */\n      and\n        /* \"#utility.yul\":3479:3497   */\n      dup1\n        /* \"#utility.yul\":3469:3550   */\n      tag_75\n      jumpi\n        /* \"#utility.yul\":3535:3539   */\n      0x7f\n        /* \"#utility.yul\":3527:3533   */\n      dup3\n        /* \"#utility.yul\":3523:3540   */\n      and\n        /* \"#utility.yul\":3513:3540   */\n      swap2\n      pop\n        /* \"#utility.yul\":3469:3550   */\n    tag_75:\n        /* \"#utility.yul\":3597:3599   */\n      0x20\n        /* \"#utility.yul\":3589:3595   */\n      dup3\n        /* \"#utility.yul\":3586:3600   */\n      lt\n        /* \"#utility.yul\":3566:3584   */\n      dup2\n        /* \"#utility.yul\":3563:3601   */\n      sub\n        /* \"#utility.yul\":3560:3644   */\n      tag_76\n      jumpi\n        /* \"#utility.yul\":3616:3634   */\n      tag_77\n      tag_34\n      jump\t// in\n    tag_77:\n        /* \"#utility.yul\":3560:3644   */\n    tag_76:\n        /* \"#utility.yul\":3381:3650   */\n      pop\n        /* \"#utility.yul\":3330:3650   */\n      swap2\n      swap1\n      pop\n      jump\t// out\n\n    auxdata: 0xa2646970667358221220ac673bbaabf9331ee00257f1692cb117246f1256609676dcdc584b50e427125364736f6c63430008160033\n}\n",
				"bytecode": {
					"linkReferences": {},
					"object": "608060405234801561000f575f80fd5b506103588061001d5f395ff3fe608060405234801561000f575f80fd5b5060043610610029575f3560e01c8063e7d4296a1461002d575b5f80fd5b6100476004803603810190610042919061017b565b61005f565b60405161005693929190610289565b60405180910390f35b5f818154811061006d575f80fd5b905f5260205f2090600302015f91509050805f015f9054906101000a900473ffffffffffffffffffffffffffffffffffffffff1690805f0160149054906101000a900460ff16908060010180546100c3906102f2565b80601f01602080910402602001604051908101604052809291908181526020018280546100ef906102f2565b801561013a5780601f106101115761010080835404028352916020019161013a565b820191905f5260205f20905b81548152906001019060200180831161011d57829003601f168201915b5050505050905083565b5f80fd5b5f819050919050565b61015a81610148565b8114610164575f80fd5b50565b5f8135905061017581610151565b92915050565b5f602082840312156101905761018f610144565b5b5f61019d84828501610167565b91505092915050565b5f73ffffffffffffffffffffffffffffffffffffffff82169050919050565b5f6101cf826101a6565b9050919050565b6101df816101c5565b82525050565b5f8115159050919050565b6101f9816101e5565b82525050565b5f81519050919050565b5f82825260208201905092915050565b5f5b8381101561023657808201518184015260208101905061021b565b5f8484015250505050565b5f601f19601f8301169050919050565b5f61025b826101ff565b6102658185610209565b9350610275818560208601610219565b61027e81610241565b840191505092915050565b5f60608201905061029c5f8301866101d6565b6102a960208301856101f0565b81810360408301526102bb8184610251565b9050949350505050565b7f4e487b71000000000000000000000000000000000000000000000000000000005f52602260045260245ffd5b5f600282049050600182168061030957607f821691505b60208210810361031c5761031b6102c5565b5b5091905056fea2646970667358221220ac673bbaabf9331ee00257f1692cb117246f1256609676dcdc584b50e427125364736f6c63430008160033",
					"opcodes": "PUSH1 0x80 PUSH1 0x40 MSTORE CALLVALUE DUP1 ISZERO PUSH2 0xF JUMPI PUSH0 DUP1 REVERT JUMPDEST POP PUSH2 0x358 DUP1 PUSH2 0x1D PUSH0 CODECOPY PUSH0 RETURN INVALID PUSH1 0x80 PUSH1 0x40 MSTORE CALLVALUE DUP1 ISZERO PUSH2 0xF JUMPI PUSH0 DUP1 REVERT JUMPDEST POP PUSH1 0x4 CALLDATASIZE LT PUSH2 0x29 JUMPI PUSH0 CALLDATALOAD PUSH1 0xE0 SHR DUP1 PUSH4 0xE7D4296A EQ PUSH2 0x2D JUMPI JUMPDEST PUSH0 DUP1 REVERT JUMPDEST PUSH2 0x47 PUSH1 0x4 DUP1 CALLDATASIZE SUB DUP2 ADD SWAP1 PUSH2 0x42 SWAP2 SWAP1 PUSH2 0x17B JUMP JUMPDEST PUSH2 0x5F JUMP JUMPDEST PUSH1 0x40 MLOAD PUSH2 0x56 SWAP4 SWAP3 SWAP2 SWAP1 PUSH2 0x289 JUMP JUMPDEST PUSH1 0x40 MLOAD DUP1 SWAP2 SUB SWAP1 RETURN JUMPDEST PUSH0 DUP2 DUP2 SLOAD DUP2 LT PUSH2 0x6D JUMPI PUSH0 DUP1 REVERT JUMPDEST SWAP1 PUSH0 MSTORE PUSH1 0x20 PUSH0 KECCAK256 SWAP1 PUSH1 0x3 MUL ADD PUSH0 SWAP2 POP SWAP1 POP DUP1 PUSH0 ADD PUSH0 SWAP1 SLOAD SWAP1 PUSH2 0x100 EXP SWAP1 DIV PUSH20 0xFFFFFFFFFFFFFFFFFFFFFFFFFFFFFFFFFFFFFFFF AND SWAP1 DUP1 PUSH0 ADD PUSH1 0x14 SWAP1 SLOAD SWAP1 PUSH2 0x100 EXP SWAP1 DIV PUSH1 0xFF AND SWAP1 DUP1 PUSH1 0x1 ADD DUP1 SLOAD PUSH2 0xC3 SWAP1 PUSH2 0x2F2 JUMP JUMPDEST DUP1 PUSH1 0x1F ADD PUSH1 0x20 DUP1 SWAP2 DIV MUL PUSH1 0x20 ADD PUSH1 0x40 MLOAD SWAP1 DUP2 ADD PUSH1 0x40 MSTORE DUP1 SWAP3 SWAP2 SWAP1 DUP2 DUP2 MSTORE PUSH1 0x20 ADD DUP3 DUP1 SLOAD PUSH2 0xEF SWAP1 PUSH2 0x2F2 JUMP JUMPDEST DUP1 ISZERO PUSH2 0x13A JUMPI DUP1 PUSH1 0x1F LT PUSH2 0x111 JUMPI PUSH2 0x100 DUP1 DUP4 SLOAD DIV MUL DUP4 MSTORE SWAP2 PUSH1 0x20 ADD SWAP2 PUSH2 0x13A JUMP JUMPDEST DUP3 ADD SWAP2 SWAP1 PUSH0 MSTORE PUSH1 0x20 PUSH0 KECCAK256 SWAP1 JUMPDEST DUP2 SLOAD DUP2 MSTORE SWAP1 PUSH1 0x1 ADD SWAP1 PUSH1 0x20 ADD DUP1 DUP4 GT PUSH2 0x11D JUMPI DUP3 SWAP1 SUB PUSH1 0x1F AND DUP3 ADD SWAP2 JUMPDEST POP POP POP POP POP SWAP1 POP DUP4 JUMP JUMPDEST PUSH0 DUP1 REVERT JUMPDEST PUSH0 DUP2 SWAP1 POP SWAP2 SWAP1 POP JUMP JUMPDEST PUSH2 0x15A DUP2 PUSH2 0x148 JUMP JUMPDEST DUP2 EQ PUSH2 0x164 JUMPI PUSH0 DUP1 REVERT JUMPDEST POP JUMP JUMPDEST PUSH0 DUP2 CALLDATALOAD SWAP1 POP PUSH2 0x175 DUP2 PUSH2 0x151 JUMP JUMPDEST SWAP3 SWAP2 POP POP JUMP JUMPDEST PUSH0 PUSH1 0x20 DUP3 DUP5 SUB SLT ISZERO PUSH2 0x190 JUMPI PUSH2 0x18F PUSH2 0x144 JUMP JUMPDEST JUMPDEST PUSH0 PUSH2 0x19D DUP5 DUP3 DUP6 ADD PUSH2 0x167 JUMP JUMPDEST SWAP2 POP POP SWAP3 SWAP2 POP POP JUMP JUMPDEST PUSH0 PUSH20 0xFFFFFFFFFFFFFFFFFFFFFFFFFFFFFFFFFFFFFFFF DUP3 AND SWAP1 POP SWAP2 SWAP1 POP JUMP JUMPDEST PUSH0 PUSH2 0x1CF DUP3 PUSH2 0x1A6 JUMP JUMPDEST SWAP1 POP SWAP2 SWAP1 POP JUMP JUMPDEST PUSH2 0x1DF DUP2 PUSH2 0x1C5 JUMP JUMPDEST DUP3 MSTORE POP POP JUMP JUMPDEST PUSH0 DUP2 ISZERO ISZERO SWAP1 POP SWAP2 SWAP1 POP JUMP JUMPDEST PUSH2 0x1F9 DUP2 PUSH2 0x1E5 JUMP JUMPDEST DUP3 MSTORE POP POP JUMP JUMPDEST PUSH0 DUP2 MLOAD SWAP1 POP SWAP2 SWAP1 POP JUMP JUMPDEST PUSH0 DUP3 DUP3 MSTORE PUSH1 0x20 DUP3 ADD SWAP1 POP SWAP3 SWAP2 POP POP JUMP JUMPDEST PUSH0 JUMPDEST DUP4 DUP2 LT ISZERO PUSH2 0x236 JUMPI DUP1 DUP3 ADD MLOAD DUP2 DUP5 ADD MSTORE PUSH1 0x20 DUP2 ADD SWAP1 POP PUSH2 0x21B JUMP JUMPDEST PUSH0 DUP5 DUP5 ADD MSTORE POP POP POP POP JUMP JUMPDEST PUSH0 PUSH1 0x1F NOT PUSH1 0x1F DUP4 ADD AND SWAP1 POP SWAP2 SWAP1 POP JUMP JUMPDEST PUSH0 PUSH2 0x25B DUP3 PUSH2 0x1FF JUMP JUMPDEST PUSH2 0x265 DUP2 DUP6 PUSH2 0x209 JUMP JUMPDEST SWAP4 POP PUSH2 0x275 DUP2 DUP6 PUSH1 0x20 DUP7 ADD PUSH2 0x219 JUMP JUMPDEST PUSH2 0x27E DUP2 PUSH2 0x241 JUMP JUMPDEST DUP5 ADD SWAP2 POP POP SWAP3 SWAP2 POP POP JUMP JUMPDEST PUSH0 PUSH1 0x60 DUP3 ADD SWAP1 POP PUSH2 0x29C PUSH0 DUP4 ADD DUP7 PUSH2 0x1D6 JUMP JUMPDEST PUSH2 0x2A9 PUSH1 0x20 DUP4 ADD DUP6 PUSH2 0x1F0 JUMP JUMPDEST DUP2 DUP2 SUB PUSH1 0x40 DUP4 ADD MSTORE PUSH2 0x2BB DUP2 DUP5 PUSH2 0x251 JUMP JUMPDEST SWAP1 POP SWAP5 SWAP4 POP POP POP POP JUMP JUMPDEST PUSH32 0x4E487B7100000000000000000000000000000000000000000000000000000000 PUSH0 MSTORE PUSH1 0x22 PUSH1 0x4 MSTORE PUSH1 0x24 PUSH0 REVERT JUMPDEST PUSH0 PUSH1 0x2 DUP3 DIV SWAP1 POP PUSH1 0x1 DUP3 AND DUP1 PUSH2 0x309 JUMPI PUSH1 0x7F DUP3 AND SWAP2 POP JUMPDEST PUSH1 0x20 DUP3 LT DUP2 SUB PUSH2 0x31C JUMPI PUSH2 0x31B PUSH2 0x2C5 JUMP JUMPDEST JUMPDEST POP SWAP2 SWAP1 POP JUMP INVALID LOG2 PUSH5 0x6970667358 0x22 SLT KECCAK256 0xAC PUSH8 0x3BBAABF9331EE002 JUMPI CALL PUSH10 0x2CB117246F1256609676 0xDC 0xDC PC 0x4B POP 0xE4 0x27 SLT MSTORE8 PUSH5 0x736F6C6343 STOP ADDMOD AND STOP CALLER "
				},
				"gasEstimates": {
					"creation": {
						"codeDepositCost": "171200",
						"executionCost": "212",
						"totalCost": "171412"
					},
					"external": {
						"paginas(uint256)": "infinite"
					}
				},
				"methodIdentifiers": {
					"paginas(uint256)": "e7d4296a"
				}
			},
			"storageLayout": {
				"storage": [
					{
						"astId": 6,
						"contract": "blockpedia.sol:Blockpedia",
						"label": "paginas",
						"offset": 0,
						"slot": "0",
						"type": "t_array(t_struct(Pagina)21_storage)dyn_storage"
					}
				],
				"types": {
					"t_address": {
						"encoding": "inplace",
						"label": "address",
						"numberOfBytes": "20"
					},
					"t_array(t_struct(Pagina)21_storage)dyn_storage": {
						"base": "t_struct(Pagina)21_storage",
						"encoding": "dynamic_array",
						"label": "struct Pagina[]",
						"numberOfBytes": "32"
					},
					"t_array(t_struct(Versao)30_storage)dyn_storage": {
						"base": "t_struct(Versao)30_storage",
						"encoding": "dynamic_array",
						"label": "struct Versao[]",
						"numberOfBytes": "32"
					},
					"t_bool": {
						"encoding": "inplace",
						"label": "bool",
						"numberOfBytes": "1"
					},
					"t_string_storage": {
						"encoding": "bytes",
						"label": "string",
						"numberOfBytes": "32"
					},
					"t_struct(Pagina)21_storage": {
						"encoding": "inplace",
						"label": "struct Pagina",
						"members": [
							{
								"astId": 12,
								"contract": "blockpedia.sol:Blockpedia",
								"label": "autor",
								"offset": 0,
								"slot": "0",
								"type": "t_address"
							},
							{
								"astId": 14,
								"contract": "blockpedia.sol:Blockpedia",
								"label": "ativo",
								"offset": 20,
								"slot": "0",
								"type": "t_bool"
							},
							{
								"astId": 16,
								"contract": "blockpedia.sol:Blockpedia",
								"label": "titulo",
								"offset": 0,
								"slot": "1",
								"type": "t_string_storage"
							},
							{
								"astId": 20,
								"contract": "blockpedia.sol:Blockpedia",
								"label": "versoes",
								"offset": 0,
								"slot": "2",
								"type": "t_array(t_struct(Versao)30_storage)dyn_storage"
							}
						],
						"numberOfBytes": "96"
					},
					"t_struct(Versao)30_storage": {
						"encoding": "inplace",
						"label": "struct Versao",
						"members": [
							{
								"astId": 25,
								"contract": "blockpedia.sol:Blockpedia",
								"label": "autor",
								"offset": 0,
								"slot": "0",
								"type": "t_address"
							},
							{
								"astId": 27,
								"contract": "blockpedia.sol:Blockpedia",
								"label": "ativo",
								"offset": 20,
								"slot": "0",
								"type": "t_bool"
							},
							{
								"astId": 29,
								"contract": "blockpedia.sol:Blockpedia",
								"label": "conteudo",
								"offset": 0,
								"slot": "1",
								"type": "t_string_storage"
							}
						],
						"numberOfBytes": "64"
					}
				}
			},
			"userdoc": {
				"kind": "user",
				"methods": {},
				"version": 1
			}
		}
	}
}