{
	"blockpedia.sol": {
		"Blockpedia": {
			"abi": [
				{
					"inputs": [],
					"stateMutability": "nonpayable",
					"type": "constructor"
				},
				{
					"inputs": [
						{
							"internalType": "uint256",
							"name": "index",
							"type": "uint256"
						},
						{
							"internalType": "string",
							"name": "conteudo",
							"type": "string"
						}
					],
					"name": "adicionaNovaVercaoDesativadaAPaginaPorIndexPaginas",
					"outputs": [],
					"stateMutability": "nonpayable",
					"type": "function"
				},
				{
					"inputs": [
						{
							"internalType": "bool",
							"name": "_ativo",
							"type": "bool"
						}
					],
					"name": "ativaDesativaBlockpedia",
					"outputs": [],
					"stateMutability": "nonpayable",
					"type": "function"
				},
				{
					"inputs": [
						{
							"internalType": "uint256",
							"name": "indexPagina",
							"type": "uint256"
						},
						{
							"internalType": "uint256",
							"name": "indexVersoes",
							"type": "uint256"
						}
					],
					"name": "ativaVersaoPorIndexVersoesEIndexPaginas",
					"outputs": [],
					"stateMutability": "nonpayable",
					"type": "function"
				},
				{
					"inputs": [],
					"name": "ativo",
					"outputs": [
						{
							"internalType": "bool",
							"name": "",
							"type": "bool"
						}
					],
					"stateMutability": "view",
					"type": "function"
				},
				{
					"inputs": [],
					"name": "autor",
					"outputs": [
						{
							"internalType": "address",
							"name": "",
							"type": "address"
						}
					],
					"stateMutability": "view",
					"type": "function"
				},
				{
					"inputs": [
						{
							"internalType": "string",
							"name": "titulo",
							"type": "string"
						},
						{
							"internalType": "string",
							"name": "conteudo",
							"type": "string"
						}
					],
					"name": "criarPagina",
					"outputs": [],
					"stateMutability": "nonpayable",
					"type": "function"
				},
				{
					"inputs": [],
					"name": "dataCriacao",
					"outputs": [
						{
							"internalType": "uint256",
							"name": "",
							"type": "uint256"
						}
					],
					"stateMutability": "view",
					"type": "function"
				},
				{
					"inputs": [
						{
							"internalType": "uint256",
							"name": "indice",
							"type": "uint256"
						}
					],
					"name": "getConteudoVersaoValidaPorIndexPaginas",
					"outputs": [
						{
							"internalType": "string",
							"name": "",
							"type": "string"
						}
					],
					"stateMutability": "view",
					"type": "function"
				},
				{
					"inputs": [
						{
							"internalType": "uint256",
							"name": "",
							"type": "uint256"
						}
					],
					"name": "paginas",
					"outputs": [
						{
							"internalType": "bool",
							"name": "ativo",
							"type": "bool"
						},
						{
							"internalType": "address",
							"name": "autor",
							"type": "address"
						},
						{
							"internalType": "uint256",
							"name": "dataCriacao",
							"type": "uint256"
						},
						{
							"internalType": "string",
							"name": "titulo",
							"type": "string"
						}
					],
					"stateMutability": "view",
					"type": "function"
				}
			],
			"devdoc": {
				"kind": "dev",
				"methods": {},
				"version": 1
			},
			"evm": {
				"assembly": "    /* \"blockpedia.sol\":85:3824  contract Blockpedia\r... */\n  mstore(0x40, 0x80)\n    /* \"blockpedia.sol\":133:137  true */\n  0x01\n    /* \"blockpedia.sol\":113:137  bool public ativo = true */\n  0x00\n  dup1\n  0x0100\n  exp\n  dup2\n  sload\n  dup2\n  0xff\n  mul\n  not\n  and\n  swap1\n  dup4\n  iszero\n  iszero\n  mul\n  or\n  swap1\n  sstore\n  pop\n    /* \"blockpedia.sol\":202:217  block.timestamp */\n  timestamp\n    /* \"blockpedia.sol\":173:217  uint256 public dataCriacao = block.timestamp */\n  0x01\n  sstore\n    /* \"blockpedia.sol\":257:313  constructor()\r... */\n  callvalue\n  dup1\n  iszero\n  tag_1\n  jumpi\n  0x00\n  dup1\n  revert\ntag_1:\n  pop\n    /* \"blockpedia.sol\":295:305  msg.sender */\n  caller\n    /* \"blockpedia.sol\":287:292  autor */\n  0x00\n  0x01\n    /* \"blockpedia.sol\":287:305  autor = msg.sender */\n  0x0100\n  exp\n  dup2\n  sload\n  dup2\n  0xffffffffffffffffffffffffffffffffffffffff\n  mul\n  not\n  and\n  swap1\n  dup4\n  0xffffffffffffffffffffffffffffffffffffffff\n  and\n  mul\n  or\n  swap1\n  sstore\n  pop\n    /* \"blockpedia.sol\":85:3824  contract Blockpedia\r... */\n  dataSize(sub_0)\n  dup1\n  dataOffset(sub_0)\n  0x00\n  codecopy\n  0x00\n  return\nstop\n\nsub_0: assembly {\n        /* \"blockpedia.sol\":85:3824  contract Blockpedia\r... */\n      mstore(0x40, 0x80)\n      callvalue\n      dup1\n      iszero\n      tag_1\n      jumpi\n      0x00\n      dup1\n      revert\n    tag_1:\n      pop\n      jumpi(tag_2, lt(calldatasize, 0x04))\n      shr(0xe0, calldataload(0x00))\n      dup1\n      0x6f70a52e\n      gt\n      tag_12\n      jumpi\n      dup1\n      0x6f70a52e\n      eq\n      tag_7\n      jumpi\n      dup1\n      0x95be551a\n      eq\n      tag_8\n      jumpi\n      dup1\n      0xa18cc13b\n      eq\n      tag_9\n      jumpi\n      dup1\n      0xd4d23a6e\n      eq\n      tag_10\n      jumpi\n      dup1\n      0xe7d4296a\n      eq\n      tag_11\n      jumpi\n      jump(tag_2)\n    tag_12:\n      dup1\n      0x0694952d\n      eq\n      tag_3\n      jumpi\n      dup1\n      0x1509d30c\n      eq\n      tag_4\n      jumpi\n      dup1\n      0x1c18379a\n      eq\n      tag_5\n      jumpi\n      dup1\n      0x4d7e6726\n      eq\n      tag_6\n      jumpi\n    tag_2:\n      0x00\n      dup1\n      revert\n        /* \"blockpedia.sol\":145:165  address public autor */\n    tag_3:\n      tag_13\n      tag_14\n      jump\t// in\n    tag_13:\n      mload(0x40)\n      tag_15\n      swap2\n      swap1\n      tag_16\n      jump\t// in\n    tag_15:\n      mload(0x40)\n      dup1\n      swap2\n      sub\n      swap1\n      return\n        /* \"blockpedia.sol\":909:1103  function ativaDesativaBlockpedia(bool _ativo) public\r... */\n    tag_4:\n      tag_17\n      0x04\n      dup1\n      calldatasize\n      sub\n      dup2\n      add\n      swap1\n      tag_18\n      swap2\n      swap1\n      tag_19\n      jump\t// in\n    tag_18:\n      tag_20\n      jump\t// in\n    tag_17:\n      stop\n        /* \"blockpedia.sol\":321:901  function criarPagina(string memory titulo, string memory conteudo) public\r... */\n    tag_5:\n      tag_21\n      0x04\n      dup1\n      calldatasize\n      sub\n      dup2\n      add\n      swap1\n      tag_22\n      swap2\n      swap1\n      tag_23\n      jump\t// in\n    tag_22:\n      tag_24\n      jump\t// in\n    tag_21:\n      stop\n        /* \"blockpedia.sol\":1642:1893  function getConteudoVersaoValidaPorIndexPaginas(uint indice) public view returns (string memory)\r... */\n    tag_6:\n      tag_25\n      0x04\n      dup1\n      calldatasize\n      sub\n      dup2\n      add\n      swap1\n      tag_26\n      swap2\n      swap1\n      tag_27\n      jump\t// in\n    tag_26:\n      tag_28\n      jump\t// in\n    tag_25:\n      mload(0x40)\n      tag_29\n      swap2\n      swap1\n      tag_30\n      jump\t// in\n    tag_29:\n      mload(0x40)\n      dup1\n      swap2\n      sub\n      swap1\n      return\n        /* \"blockpedia.sol\":173:217  uint256 public dataCriacao = block.timestamp */\n    tag_7:\n      tag_31\n      tag_32\n      jump\t// in\n    tag_31:\n      mload(0x40)\n      tag_33\n      swap2\n      swap1\n      tag_34\n      jump\t// in\n    tag_33:\n      mload(0x40)\n      dup1\n      swap2\n      sub\n      swap1\n      return\n        /* \"blockpedia.sol\":2840:3819  function ativaVersaoPorIndexVersoesEIndexPaginas(uint indexPagina, uint indexVersoes) public\r... */\n    tag_8:\n      tag_35\n      0x04\n      dup1\n      calldatasize\n      sub\n      dup2\n      add\n      swap1\n      tag_36\n      swap2\n      swap1\n      tag_37\n      jump\t// in\n    tag_36:\n      tag_38\n      jump\t// in\n    tag_35:\n      stop\n        /* \"blockpedia.sol\":113:137  bool public ativo = true */\n    tag_9:\n      tag_39\n      tag_40\n      jump\t// in\n    tag_39:\n      mload(0x40)\n      tag_41\n      swap2\n      swap1\n      tag_42\n      jump\t// in\n    tag_41:\n      mload(0x40)\n      dup1\n      swap2\n      sub\n      swap1\n      return\n        /* \"blockpedia.sol\":2216:2832  function adicionaNovaVercaoDesativadaAPaginaPorIndexPaginas(uint index, string memory conteudo) public\r... */\n    tag_10:\n      tag_43\n      0x04\n      dup1\n      calldatasize\n      sub\n      dup2\n      add\n      swap1\n      tag_44\n      swap2\n      swap1\n      tag_45\n      jump\t// in\n    tag_44:\n      tag_46\n      jump\t// in\n    tag_43:\n      stop\n        /* \"blockpedia.sol\":224:247  Pagina[] public paginas */\n    tag_11:\n      tag_47\n      0x04\n      dup1\n      calldatasize\n      sub\n      dup2\n      add\n      swap1\n      tag_48\n      swap2\n      swap1\n      tag_27\n      jump\t// in\n    tag_48:\n      tag_49\n      jump\t// in\n    tag_47:\n      mload(0x40)\n      tag_50\n      swap5\n      swap4\n      swap3\n      swap2\n      swap1\n      tag_51\n      jump\t// in\n    tag_50:\n      mload(0x40)\n      dup1\n      swap2\n      sub\n      swap1\n      return\n        /* \"blockpedia.sol\":145:165  address public autor */\n    tag_14:\n      0x00\n      0x01\n      swap1\n      sload\n      swap1\n      0x0100\n      exp\n      swap1\n      div\n      0xffffffffffffffffffffffffffffffffffffffff\n      and\n      dup2\n      jump\t// out\n        /* \"blockpedia.sol\":909:1103  function ativaDesativaBlockpedia(bool _ativo) public\r... */\n    tag_20:\n        /* \"blockpedia.sol\":1000:1005  autor */\n      0x00\n      0x01\n      swap1\n      sload\n      swap1\n      0x0100\n      exp\n      swap1\n      div\n      0xffffffffffffffffffffffffffffffffffffffff\n      and\n        /* \"blockpedia.sol\":986:1005  msg.sender == autor */\n      0xffffffffffffffffffffffffffffffffffffffff\n      and\n        /* \"blockpedia.sol\":986:996  msg.sender */\n      caller\n        /* \"blockpedia.sol\":986:1005  msg.sender == autor */\n      0xffffffffffffffffffffffffffffffffffffffff\n      and\n      eq\n        /* \"blockpedia.sol\":978:1070  require(msg.sender == autor,\"Somente o dono desta Blockpedia pode alterar o atributo ativo\") */\n      tag_53\n      jumpi\n      mload(0x40)\n      0x08c379a000000000000000000000000000000000000000000000000000000000\n      dup2\n      mstore\n      0x04\n      add\n      tag_54\n      swap1\n      tag_55\n      jump\t// in\n    tag_54:\n      mload(0x40)\n      dup1\n      swap2\n      sub\n      swap1\n      revert\n    tag_53:\n        /* \"blockpedia.sol\":1089:1095  _ativo */\n      dup1\n        /* \"blockpedia.sol\":1081:1086  ativo */\n      0x00\n      dup1\n        /* \"blockpedia.sol\":1081:1095  ativo = _ativo */\n      0x0100\n      exp\n      dup2\n      sload\n      dup2\n      0xff\n      mul\n      not\n      and\n      swap1\n      dup4\n      iszero\n      iszero\n      mul\n      or\n      swap1\n      sstore\n      pop\n        /* \"blockpedia.sol\":909:1103  function ativaDesativaBlockpedia(bool _ativo) public\r... */\n      pop\n      jump\t// out\n        /* \"blockpedia.sol\":321:901  function criarPagina(string memory titulo, string memory conteudo) public\r... */\n    tag_24:\n        /* \"blockpedia.sol\":428:432  true */\n      0x01\n        /* \"blockpedia.sol\":419:432  ativo == true */\n      iszero\n      iszero\n        /* \"blockpedia.sol\":419:424  ativo */\n      0x00\n      dup1\n      sload\n      swap1\n      0x0100\n      exp\n      swap1\n      div\n      0xff\n      and\n        /* \"blockpedia.sol\":419:432  ativo == true */\n      iszero\n      iszero\n      eq\n        /* \"blockpedia.sol\":411:508  require(ativo == true, \"A adicao de novas paginas so e permitida quando a Blockpedia esta ativa\") */\n      tag_57\n      jumpi\n      mload(0x40)\n      0x08c379a000000000000000000000000000000000000000000000000000000000\n      dup2\n      mstore\n      0x04\n      add\n      tag_58\n      swap1\n      tag_59\n      jump\t// in\n    tag_58:\n      mload(0x40)\n      dup1\n      swap2\n      sub\n      swap1\n      revert\n    tag_57:\n        /* \"blockpedia.sol\":528:548  tituloExiste(titulo) */\n      tag_60\n        /* \"blockpedia.sol\":541:547  titulo */\n      dup3\n        /* \"blockpedia.sol\":528:540  tituloExiste */\n      tag_61\n        /* \"blockpedia.sol\":528:548  tituloExiste(titulo) */\n      jump\t// in\n    tag_60:\n        /* \"blockpedia.sol\":527:548  !tituloExiste(titulo) */\n      iszero\n        /* \"blockpedia.sol\":519:589  require(!tituloExiste(titulo), \"Uma pagina com este titulo ja existe\") */\n      tag_62\n      jumpi\n      mload(0x40)\n      0x08c379a000000000000000000000000000000000000000000000000000000000\n      dup2\n      mstore\n      0x04\n      add\n      tag_63\n      swap1\n      tag_64\n      jump\t// in\n    tag_63:\n      mload(0x40)\n      dup1\n      swap2\n      sub\n      swap1\n      revert\n    tag_62:\n        /* \"blockpedia.sol\":602:627  Pagina storage novaPagina */\n      0x00\n        /* \"blockpedia.sol\":630:637  paginas */\n      0x02\n        /* \"blockpedia.sol\":630:644  paginas.push() */\n      0x01\n      dup2\n      0x01\n      dup2\n      sload\n      add\n      dup1\n      dup3\n      sstore\n      dup1\n      swap2\n      pop\n      pop\n      sub\n      swap1\n      0x00\n      mstore\n      keccak256(0x00, 0x20)\n      swap1\n      0x04\n      mul\n      add\n        /* \"blockpedia.sol\":602:644  Pagina storage novaPagina = paginas.push() */\n      swap1\n      pop\n        /* \"blockpedia.sol\":674:678  true */\n      0x01\n        /* \"blockpedia.sol\":655:665  novaPagina */\n      dup2\n        /* \"blockpedia.sol\":655:671  novaPagina.ativo */\n      0x00\n      add\n      0x00\n        /* \"blockpedia.sol\":655:678  novaPagina.ativo = true */\n      0x0100\n      exp\n      dup2\n      sload\n      dup2\n      0xff\n      mul\n      not\n      and\n      swap1\n      dup4\n      iszero\n      iszero\n      mul\n      or\n      swap1\n      sstore\n      pop\n        /* \"blockpedia.sol\":708:718  msg.sender */\n      caller\n        /* \"blockpedia.sol\":689:699  novaPagina */\n      dup2\n        /* \"blockpedia.sol\":689:705  novaPagina.autor */\n      0x00\n      add\n      0x01\n        /* \"blockpedia.sol\":689:718  novaPagina.autor = msg.sender */\n      0x0100\n      exp\n      dup2\n      sload\n      dup2\n      0xffffffffffffffffffffffffffffffffffffffff\n      mul\n      not\n      and\n      swap1\n      dup4\n      0xffffffffffffffffffffffffffffffffffffffff\n      and\n      mul\n      or\n      swap1\n      sstore\n      pop\n        /* \"blockpedia.sol\":754:769  block.timestamp */\n      timestamp\n        /* \"blockpedia.sol\":729:739  novaPagina */\n      dup2\n        /* \"blockpedia.sol\":729:751  novaPagina.dataCriacao */\n      0x01\n      add\n        /* \"blockpedia.sol\":729:769  novaPagina.dataCriacao = block.timestamp */\n      dup2\n      swap1\n      sstore\n      pop\n        /* \"blockpedia.sol\":800:806  titulo */\n      dup3\n        /* \"blockpedia.sol\":780:790  novaPagina */\n      dup2\n        /* \"blockpedia.sol\":780:797  novaPagina.titulo */\n      0x02\n      add\n        /* \"blockpedia.sol\":780:806  novaPagina.titulo = titulo */\n      swap1\n      dup1\n      mload\n      swap1\n      0x20\n      add\n      swap1\n      tag_66\n      swap3\n      swap2\n      swap1\n      tag_67\n      jump\t// in\n    tag_66:\n      pop\n        /* \"blockpedia.sol\":817:827  novaPagina */\n      dup1\n        /* \"blockpedia.sol\":817:835  novaPagina.versoes */\n      0x03\n      add\n        /* \"blockpedia.sol\":841:892  Versao(true, msg.sender, block.timestamp, conteudo) */\n      mload(0x40)\n      dup1\n      0x80\n      add\n      0x40\n      mstore\n      dup1\n        /* \"blockpedia.sol\":848:852  true */\n      0x01\n        /* \"blockpedia.sol\":841:892  Versao(true, msg.sender, block.timestamp, conteudo) */\n      iszero\n      iszero\n      dup2\n      mstore\n      0x20\n      add\n        /* \"blockpedia.sol\":854:864  msg.sender */\n      caller\n        /* \"blockpedia.sol\":841:892  Versao(true, msg.sender, block.timestamp, conteudo) */\n      0xffffffffffffffffffffffffffffffffffffffff\n      and\n      dup2\n      mstore\n      0x20\n      add\n        /* \"blockpedia.sol\":866:881  block.timestamp */\n      timestamp\n        /* \"blockpedia.sol\":841:892  Versao(true, msg.sender, block.timestamp, conteudo) */\n      dup2\n      mstore\n      0x20\n      add\n        /* \"blockpedia.sol\":883:891  conteudo */\n      dup5\n        /* \"blockpedia.sol\":841:892  Versao(true, msg.sender, block.timestamp, conteudo) */\n      dup2\n      mstore\n      pop\n        /* \"blockpedia.sol\":817:893  novaPagina.versoes.push(Versao(true, msg.sender, block.timestamp, conteudo)) */\n      swap1\n      dup1\n      0x01\n      dup2\n      sload\n      add\n      dup1\n      dup3\n      sstore\n      dup1\n      swap2\n      pop\n      pop\n      0x01\n      swap1\n      sub\n      swap1\n      0x00\n      mstore\n      keccak256(0x00, 0x20)\n      swap1\n      0x03\n      mul\n      add\n      0x00\n      swap1\n      swap2\n      swap1\n      swap2\n      swap1\n      swap2\n      pop\n      0x00\n      dup3\n      add\n      mload\n      dup2\n      0x00\n      add\n      exp(0x0100, 0x00)\n      dup2\n      sload\n      dup2\n      0xff\n      mul\n      not\n      and\n      swap1\n      dup4\n      iszero\n      iszero\n      mul\n      or\n      swap1\n      sstore\n      pop\n      0x20\n      dup3\n      add\n      mload\n      dup2\n      0x00\n      add\n      exp(0x0100, 0x01)\n      dup2\n      sload\n      dup2\n      0xffffffffffffffffffffffffffffffffffffffff\n      mul\n      not\n      and\n      swap1\n      dup4\n      0xffffffffffffffffffffffffffffffffffffffff\n      and\n      mul\n      or\n      swap1\n      sstore\n      pop\n      0x40\n      dup3\n      add\n      mload\n      dup2\n      0x01\n      add\n      sstore\n      0x60\n      dup3\n      add\n      mload\n      dup2\n      0x02\n      add\n      swap1\n      dup1\n      mload\n      swap1\n      0x20\n      add\n      swap1\n      tag_69\n      swap3\n      swap2\n      swap1\n      tag_67\n      jump\t// in\n    tag_69:\n      pop\n      pop\n      pop\n        /* \"blockpedia.sol\":321:901  function criarPagina(string memory titulo, string memory conteudo) public\r... */\n      pop\n      pop\n      pop\n      jump\t// out\n        /* \"blockpedia.sol\":1642:1893  function getConteudoVersaoValidaPorIndexPaginas(uint indice) public view returns (string memory)\r... */\n    tag_28:\n        /* \"blockpedia.sol\":1724:1737  string memory */\n      0x60\n        /* \"blockpedia.sol\":1772:1779  paginas */\n      0x02\n        /* \"blockpedia.sol\":1772:1786  paginas.length */\n      dup1\n      sload\n      swap1\n      pop\n        /* \"blockpedia.sol\":1763:1769  indice */\n      dup3\n        /* \"blockpedia.sol\":1763:1786  indice < paginas.length */\n      lt\n        /* \"blockpedia.sol\":1755:1813  require(indice < paginas.length, \"Indice fora do alcance\") */\n      tag_71\n      jumpi\n      mload(0x40)\n      0x08c379a000000000000000000000000000000000000000000000000000000000\n      dup2\n      mstore\n      0x04\n      add\n      tag_72\n      swap1\n      tag_73\n      jump\t// in\n    tag_72:\n      mload(0x40)\n      dup1\n      swap2\n      sub\n      swap1\n      revert\n    tag_71:\n        /* \"blockpedia.sol\":1833:1876  getVersaoValidaDeUmaPagina(paginas[indice]) */\n      tag_74\n        /* \"blockpedia.sol\":1860:1867  paginas */\n      0x02\n        /* \"blockpedia.sol\":1868:1874  indice */\n      dup4\n        /* \"blockpedia.sol\":1860:1875  paginas[indice] */\n      dup2\n      sload\n      dup2\n      lt\n      tag_75\n      jumpi\n      mstore(0x00, 0x4e487b7100000000000000000000000000000000000000000000000000000000)\n      mstore(0x04, 0x32)\n      revert(0x00, 0x24)\n    tag_75:\n      swap1\n      0x00\n      mstore\n      keccak256(0x00, 0x20)\n      swap1\n      0x04\n      mul\n      add\n        /* \"blockpedia.sol\":1833:1876  getVersaoValidaDeUmaPagina(paginas[indice]) */\n      mload(0x40)\n      dup1\n      0xa0\n      add\n      0x40\n      mstore\n      swap1\n      dup2\n      0x00\n      dup3\n      add\n      0x00\n      swap1\n      sload\n      swap1\n      0x0100\n      exp\n      swap1\n      div\n      0xff\n      and\n      iszero\n      iszero\n      iszero\n      iszero\n      dup2\n      mstore\n      0x20\n      add\n      0x00\n      dup3\n      add\n      0x01\n      swap1\n      sload\n      swap1\n      0x0100\n      exp\n      swap1\n      div\n      0xffffffffffffffffffffffffffffffffffffffff\n      and\n      0xffffffffffffffffffffffffffffffffffffffff\n      and\n      0xffffffffffffffffffffffffffffffffffffffff\n      and\n      dup2\n      mstore\n      0x20\n      add\n      0x01\n      dup3\n      add\n      sload\n      dup2\n      mstore\n      0x20\n      add\n      0x02\n      dup3\n      add\n      dup1\n      sload\n      tag_77\n      swap1\n      tag_78\n      jump\t// in\n    tag_77:\n      dup1\n      0x1f\n      add\n      0x20\n      dup1\n      swap2\n      div\n      mul\n      0x20\n      add\n      mload(0x40)\n      swap1\n      dup2\n      add\n      0x40\n      mstore\n      dup1\n      swap3\n      swap2\n      swap1\n      dup2\n      dup2\n      mstore\n      0x20\n      add\n      dup3\n      dup1\n      sload\n      tag_79\n      swap1\n      tag_78\n      jump\t// in\n    tag_79:\n      dup1\n      iszero\n      tag_80\n      jumpi\n      dup1\n      0x1f\n      lt\n      tag_81\n      jumpi\n      0x0100\n      dup1\n      dup4\n      sload\n      div\n      mul\n      dup4\n      mstore\n      swap2\n      0x20\n      add\n      swap2\n      jump(tag_80)\n    tag_81:\n      dup3\n      add\n      swap2\n      swap1\n      0x00\n      mstore\n      keccak256(0x00, 0x20)\n      swap1\n    tag_82:\n      dup2\n      sload\n      dup2\n      mstore\n      swap1\n      0x01\n      add\n      swap1\n      0x20\n      add\n      dup1\n      dup4\n      gt\n      tag_82\n      jumpi\n      dup3\n      swap1\n      sub\n      0x1f\n      and\n      dup3\n      add\n      swap2\n    tag_80:\n      pop\n      pop\n      pop\n      pop\n      pop\n      dup2\n      mstore\n      0x20\n      add\n      0x03\n      dup3\n      add\n      dup1\n      sload\n      dup1\n      0x20\n      mul\n      0x20\n      add\n      mload(0x40)\n      swap1\n      dup2\n      add\n      0x40\n      mstore\n      dup1\n      swap3\n      swap2\n      swap1\n      dup2\n      dup2\n      mstore\n      0x20\n      add\n      0x00\n      swap1\n    tag_83:\n      dup3\n      dup3\n      lt\n      iszero\n      tag_84\n      jumpi\n      dup4\n      dup3\n      swap1\n      0x00\n      mstore\n      keccak256(0x00, 0x20)\n      swap1\n      0x03\n      mul\n      add\n      mload(0x40)\n      dup1\n      0x80\n      add\n      0x40\n      mstore\n      swap1\n      dup2\n      0x00\n      dup3\n      add\n      0x00\n      swap1\n      sload\n      swap1\n      0x0100\n      exp\n      swap1\n      div\n      0xff\n      and\n      iszero\n      iszero\n      iszero\n      iszero\n      dup2\n      mstore\n      0x20\n      add\n      0x00\n      dup3\n      add\n      0x01\n      swap1\n      sload\n      swap1\n      0x0100\n      exp\n      swap1\n      div\n      0xffffffffffffffffffffffffffffffffffffffff\n      and\n      0xffffffffffffffffffffffffffffffffffffffff\n      and\n      0xffffffffffffffffffffffffffffffffffffffff\n      and\n      dup2\n      mstore\n      0x20\n      add\n      0x01\n      dup3\n      add\n      sload\n      dup2\n      mstore\n      0x20\n      add\n      0x02\n      dup3\n      add\n      dup1\n      sload\n      tag_86\n      swap1\n      tag_78\n      jump\t// in\n    tag_86:\n      dup1\n      0x1f\n      add\n      0x20\n      dup1\n      swap2\n      div\n      mul\n      0x20\n      add\n      mload(0x40)\n      swap1\n      dup2\n      add\n      0x40\n      mstore\n      dup1\n      swap3\n      swap2\n      swap1\n      dup2\n      dup2\n      mstore\n      0x20\n      add\n      dup3\n      dup1\n      sload\n      tag_87\n      swap1\n      tag_78\n      jump\t// in\n    tag_87:\n      dup1\n      iszero\n      tag_88\n      jumpi\n      dup1\n      0x1f\n      lt\n      tag_89\n      jumpi\n      0x0100\n      dup1\n      dup4\n      sload\n      div\n      mul\n      dup4\n      mstore\n      swap2\n      0x20\n      add\n      swap2\n      jump(tag_88)\n    tag_89:\n      dup3\n      add\n      swap2\n      swap1\n      0x00\n      mstore\n      keccak256(0x00, 0x20)\n      swap1\n    tag_90:\n      dup2\n      sload\n      dup2\n      mstore\n      swap1\n      0x01\n      add\n      swap1\n      0x20\n      add\n      dup1\n      dup4\n      gt\n      tag_90\n      jumpi\n      dup3\n      swap1\n      sub\n      0x1f\n      and\n      dup3\n      add\n      swap2\n    tag_88:\n      pop\n      pop\n      pop\n      pop\n      pop\n      dup2\n      mstore\n      pop\n      pop\n      dup2\n      mstore\n      0x20\n      add\n      swap1\n      0x01\n      add\n      swap1\n      jump(tag_83)\n    tag_84:\n      pop\n      pop\n      pop\n      pop\n      dup2\n      mstore\n      pop\n      pop\n        /* \"blockpedia.sol\":1833:1859  getVersaoValidaDeUmaPagina */\n      tag_91\n        /* \"blockpedia.sol\":1833:1876  getVersaoValidaDeUmaPagina(paginas[indice]) */\n      jump\t// in\n    tag_74:\n        /* \"blockpedia.sol\":1833:1885  getVersaoValidaDeUmaPagina(paginas[indice]).conteudo */\n      0x60\n      add\n      mload\n        /* \"blockpedia.sol\":1826:1885  return getVersaoValidaDeUmaPagina(paginas[indice]).conteudo */\n      swap1\n      pop\n        /* \"blockpedia.sol\":1642:1893  function getConteudoVersaoValidaPorIndexPaginas(uint indice) public view returns (string memory)\r... */\n      swap2\n      swap1\n      pop\n      jump\t// out\n        /* \"blockpedia.sol\":173:217  uint256 public dataCriacao = block.timestamp */\n    tag_32:\n      sload(0x01)\n      dup2\n      jump\t// out\n        /* \"blockpedia.sol\":2840:3819  function ativaVersaoPorIndexVersoesEIndexPaginas(uint indexPagina, uint indexVersoes) public\r... */\n    tag_38:\n        /* \"blockpedia.sol\":2966:2970  true */\n      0x01\n        /* \"blockpedia.sol\":2957:2970  ativo == true */\n      iszero\n      iszero\n        /* \"blockpedia.sol\":2957:2962  ativo */\n      0x00\n      dup1\n      sload\n      swap1\n      0x0100\n      exp\n      swap1\n      div\n      0xff\n      and\n        /* \"blockpedia.sol\":2957:2970  ativo == true */\n      iszero\n      iszero\n      eq\n        /* \"blockpedia.sol\":2949:3046  require(ativo == true, \"A adicao de novas paginas so e permitida quando a Blockpedia esta ativa\") */\n      tag_93\n      jumpi\n      mload(0x40)\n      0x08c379a000000000000000000000000000000000000000000000000000000000\n      dup2\n      mstore\n      0x04\n      add\n      tag_94\n      swap1\n      tag_59\n      jump\t// in\n    tag_94:\n      mload(0x40)\n      dup1\n      swap2\n      sub\n      swap1\n      revert\n    tag_93:\n        /* \"blockpedia.sol\":3079:3086  paginas */\n      0x02\n        /* \"blockpedia.sol\":3079:3093  paginas.length */\n      dup1\n      sload\n      swap1\n      pop\n        /* \"blockpedia.sol\":3065:3076  indexPagina */\n      dup3\n        /* \"blockpedia.sol\":3065:3093  indexPagina < paginas.length */\n      lt\n        /* \"blockpedia.sol\":3057:3124  require(indexPagina < paginas.length, \"Indice da pagina invalido.\") */\n      tag_95\n      jumpi\n      mload(0x40)\n      0x08c379a000000000000000000000000000000000000000000000000000000000\n      dup2\n      mstore\n      0x04\n      add\n      tag_96\n      swap1\n      tag_97\n      jump\t// in\n    tag_96:\n      mload(0x40)\n      dup1\n      swap2\n      sub\n      swap1\n      revert\n    tag_95:\n        /* \"blockpedia.sol\":3173:3177  true */\n      0x01\n        /* \"blockpedia.sol\":3143:3177  paginas[indexPagina].ativo == true */\n      iszero\n      iszero\n        /* \"blockpedia.sol\":3143:3150  paginas */\n      0x02\n        /* \"blockpedia.sol\":3151:3162  indexPagina */\n      dup4\n        /* \"blockpedia.sol\":3143:3163  paginas[indexPagina] */\n      dup2\n      sload\n      dup2\n      lt\n      tag_98\n      jumpi\n      mstore(0x00, 0x4e487b7100000000000000000000000000000000000000000000000000000000)\n      mstore(0x04, 0x32)\n      revert(0x00, 0x24)\n    tag_98:\n      swap1\n      0x00\n      mstore\n      keccak256(0x00, 0x20)\n      swap1\n      0x04\n      mul\n      add\n        /* \"blockpedia.sol\":3143:3169  paginas[indexPagina].ativo */\n      0x00\n      add\n      0x00\n      swap1\n      sload\n      swap1\n      0x0100\n      exp\n      swap1\n      div\n      0xff\n      and\n        /* \"blockpedia.sol\":3143:3177  paginas[indexPagina].ativo == true */\n      iszero\n      iszero\n      eq\n        /* \"blockpedia.sol\":3135:3245  require(paginas[indexPagina].ativo == true, \"A alteracao de versao so e permitida quando a pagina esta ativa\") */\n      tag_100\n      jumpi\n      mload(0x40)\n      0x08c379a000000000000000000000000000000000000000000000000000000000\n      dup2\n      mstore\n      0x04\n      add\n      tag_101\n      swap1\n      tag_102\n      jump\t// in\n    tag_101:\n      mload(0x40)\n      dup1\n      swap2\n      sub\n      swap1\n      revert\n    tag_100:\n        /* \"blockpedia.sol\":3279:3286  paginas */\n      0x02\n        /* \"blockpedia.sol\":3287:3298  indexPagina */\n      dup3\n        /* \"blockpedia.sol\":3279:3299  paginas[indexPagina] */\n      dup2\n      sload\n      dup2\n      lt\n      tag_103\n      jumpi\n      mstore(0x00, 0x4e487b7100000000000000000000000000000000000000000000000000000000)\n      mstore(0x04, 0x32)\n      revert(0x00, 0x24)\n    tag_103:\n      swap1\n      0x00\n      mstore\n      keccak256(0x00, 0x20)\n      swap1\n      0x04\n      mul\n      add\n        /* \"blockpedia.sol\":3279:3307  paginas[indexPagina].versoes */\n      0x03\n      add\n        /* \"blockpedia.sol\":3279:3314  paginas[indexPagina].versoes.length */\n      dup1\n      sload\n      swap1\n      pop\n        /* \"blockpedia.sol\":3264:3276  indexVersoes */\n      dup2\n        /* \"blockpedia.sol\":3264:3314  indexVersoes < paginas[indexPagina].versoes.length */\n      lt\n        /* \"blockpedia.sol\":3256:3345  require(indexVersoes < paginas[indexPagina].versoes.length, \"Indice da versao invalido.\") */\n      tag_105\n      jumpi\n      mload(0x40)\n      0x08c379a000000000000000000000000000000000000000000000000000000000\n      dup2\n      mstore\n      0x04\n      add\n      tag_106\n      swap1\n      tag_107\n      jump\t// in\n    tag_106:\n      mload(0x40)\n      dup1\n      swap2\n      sub\n      swap1\n      revert\n    tag_105:\n        /* \"blockpedia.sol\":3361:3368  paginas */\n      0x02\n        /* \"blockpedia.sol\":3369:3380  indexPagina */\n      dup3\n        /* \"blockpedia.sol\":3361:3381  paginas[indexPagina] */\n      dup2\n      sload\n      dup2\n      lt\n      tag_108\n      jumpi\n      mstore(0x00, 0x4e487b7100000000000000000000000000000000000000000000000000000000)\n      mstore(0x04, 0x32)\n      revert(0x00, 0x24)\n    tag_108:\n      swap1\n      0x00\n      mstore\n      keccak256(0x00, 0x20)\n      swap1\n      0x04\n      mul\n      add\n        /* \"blockpedia.sol\":3361:3389  paginas[indexPagina].versoes */\n      0x03\n      add\n        /* \"blockpedia.sol\":3390:3402  indexVersoes */\n      dup2\n        /* \"blockpedia.sol\":3361:3403  paginas[indexPagina].versoes[indexVersoes] */\n      dup2\n      sload\n      dup2\n      lt\n      tag_110\n      jumpi\n      mstore(0x00, 0x4e487b7100000000000000000000000000000000000000000000000000000000)\n      mstore(0x04, 0x32)\n      revert(0x00, 0x24)\n    tag_110:\n      swap1\n      0x00\n      mstore\n      keccak256(0x00, 0x20)\n      swap1\n      0x03\n      mul\n      add\n        /* \"blockpedia.sol\":3361:3409  paginas[indexPagina].versoes[indexVersoes].ativo */\n      0x00\n      add\n      0x00\n      swap1\n      sload\n      swap1\n      0x0100\n      exp\n      swap1\n      div\n      0xff\n      and\n        /* \"blockpedia.sol\":3358:3418  if(paginas[indexPagina].versoes[indexVersoes].ativo) return; */\n      iszero\n      tag_112\n      jumpi\n        /* \"blockpedia.sol\":3411:3418  return; */\n      jump(tag_92)\n        /* \"blockpedia.sol\":3358:3418  if(paginas[indexPagina].versoes[indexVersoes].ativo) return; */\n    tag_112:\n        /* \"blockpedia.sol\":3435:3441  uint i */\n      0x00\n        /* \"blockpedia.sol\":3444:3451  paginas */\n      0x02\n        /* \"blockpedia.sol\":3452:3463  indexPagina */\n      dup4\n        /* \"blockpedia.sol\":3444:3464  paginas[indexPagina] */\n      dup2\n      sload\n      dup2\n      lt\n      tag_116\n      jumpi\n      mstore(0x00, 0x4e487b7100000000000000000000000000000000000000000000000000000000)\n      mstore(0x04, 0x32)\n      revert(0x00, 0x24)\n    tag_116:\n      swap1\n      0x00\n      mstore\n      keccak256(0x00, 0x20)\n      swap1\n      0x04\n      mul\n      add\n        /* \"blockpedia.sol\":3444:3472  paginas[indexPagina].versoes */\n      0x03\n      add\n        /* \"blockpedia.sol\":3444:3479  paginas[indexPagina].versoes.length */\n      dup1\n      sload\n      swap1\n      pop\n        /* \"blockpedia.sol\":3435:3479  uint i = paginas[indexPagina].versoes.length */\n      swap1\n      pop\n        /* \"blockpedia.sol\":3430:3744  for (uint i = paginas[indexPagina].versoes.length; i > 0; i--)\r... */\n    tag_113:\n        /* \"blockpedia.sol\":3485:3486  0 */\n      0x00\n        /* \"blockpedia.sol\":3481:3482  i */\n      dup2\n        /* \"blockpedia.sol\":3481:3486  i > 0 */\n      gt\n        /* \"blockpedia.sol\":3430:3744  for (uint i = paginas[indexPagina].versoes.length; i > 0; i--)\r... */\n      iszero\n      tag_114\n      jumpi\n        /* \"blockpedia.sol\":3517:3532  uint indexAtual */\n      0x00\n        /* \"blockpedia.sol\":3539:3540  1 */\n      0x01\n        /* \"blockpedia.sol\":3535:3536  i */\n      dup3\n        /* \"blockpedia.sol\":3535:3540  i - 1 */\n      tag_118\n      swap2\n      swap1\n      tag_119\n      jump\t// in\n    tag_118:\n        /* \"blockpedia.sol\":3517:3540  uint indexAtual = i - 1 */\n      swap1\n      pop\n        /* \"blockpedia.sol\":3559:3566  paginas */\n      0x02\n        /* \"blockpedia.sol\":3567:3578  indexPagina */\n      dup5\n        /* \"blockpedia.sol\":3559:3579  paginas[indexPagina] */\n      dup2\n      sload\n      dup2\n      lt\n      tag_120\n      jumpi\n      mstore(0x00, 0x4e487b7100000000000000000000000000000000000000000000000000000000)\n      mstore(0x04, 0x32)\n      revert(0x00, 0x24)\n    tag_120:\n      swap1\n      0x00\n      mstore\n      keccak256(0x00, 0x20)\n      swap1\n      0x04\n      mul\n      add\n        /* \"blockpedia.sol\":3559:3587  paginas[indexPagina].versoes */\n      0x03\n      add\n        /* \"blockpedia.sol\":3588:3598  indexAtual */\n      dup2\n        /* \"blockpedia.sol\":3559:3599  paginas[indexPagina].versoes[indexAtual] */\n      dup2\n      sload\n      dup2\n      lt\n      tag_122\n      jumpi\n      mstore(0x00, 0x4e487b7100000000000000000000000000000000000000000000000000000000)\n      mstore(0x04, 0x32)\n      revert(0x00, 0x24)\n    tag_122:\n      swap1\n      0x00\n      mstore\n      keccak256(0x00, 0x20)\n      swap1\n      0x03\n      mul\n      add\n        /* \"blockpedia.sol\":3559:3605  paginas[indexPagina].versoes[indexAtual].ativo */\n      0x00\n      add\n      0x00\n      swap1\n      sload\n      swap1\n      0x0100\n      exp\n      swap1\n      div\n      0xff\n      and\n        /* \"blockpedia.sol\":3555:3733  if (paginas[indexPagina].versoes[indexAtual].ativo)\r... */\n      iszero\n      tag_124\n      jumpi\n        /* \"blockpedia.sol\":3688:3693  false */\n      0x00\n        /* \"blockpedia.sol\":3639:3646  paginas */\n      0x02\n        /* \"blockpedia.sol\":3647:3658  indexPagina */\n      dup6\n        /* \"blockpedia.sol\":3639:3659  paginas[indexPagina] */\n      dup2\n      sload\n      dup2\n      lt\n      tag_125\n      jumpi\n      mstore(0x00, 0x4e487b7100000000000000000000000000000000000000000000000000000000)\n      mstore(0x04, 0x32)\n      revert(0x00, 0x24)\n    tag_125:\n      swap1\n      0x00\n      mstore\n      keccak256(0x00, 0x20)\n      swap1\n      0x04\n      mul\n      add\n        /* \"blockpedia.sol\":3639:3667  paginas[indexPagina].versoes */\n      0x03\n      add\n        /* \"blockpedia.sol\":3668:3678  indexAtual */\n      dup3\n        /* \"blockpedia.sol\":3639:3679  paginas[indexPagina].versoes[indexAtual] */\n      dup2\n      sload\n      dup2\n      lt\n      tag_127\n      jumpi\n      mstore(0x00, 0x4e487b7100000000000000000000000000000000000000000000000000000000)\n      mstore(0x04, 0x32)\n      revert(0x00, 0x24)\n    tag_127:\n      swap1\n      0x00\n      mstore\n      keccak256(0x00, 0x20)\n      swap1\n      0x03\n      mul\n      add\n        /* \"blockpedia.sol\":3639:3685  paginas[indexPagina].versoes[indexAtual].ativo */\n      0x00\n      add\n      0x00\n        /* \"blockpedia.sol\":3639:3693  paginas[indexPagina].versoes[indexAtual].ativo = false */\n      0x0100\n      exp\n      dup2\n      sload\n      dup2\n      0xff\n      mul\n      not\n      and\n      swap1\n      dup4\n      iszero\n      iszero\n      mul\n      or\n      swap1\n      sstore\n      pop\n        /* \"blockpedia.sol\":3712:3717  break */\n      pop\n      jump(tag_114)\n        /* \"blockpedia.sol\":3555:3733  if (paginas[indexPagina].versoes[indexAtual].ativo)\r... */\n    tag_124:\n        /* \"blockpedia.sol\":3430:3744  for (uint i = paginas[indexPagina].versoes.length; i > 0; i--)\r... */\n      pop\n        /* \"blockpedia.sol\":3488:3491  i-- */\n      dup1\n      dup1\n      tag_129\n      swap1\n      tag_130\n      jump\t// in\n    tag_129:\n      swap2\n      pop\n      pop\n        /* \"blockpedia.sol\":3430:3744  for (uint i = paginas[indexPagina].versoes.length; i > 0; i--)\r... */\n      jump(tag_113)\n    tag_114:\n      pop\n        /* \"blockpedia.sol\":3807:3811  true */\n      0x01\n        /* \"blockpedia.sol\":3756:3763  paginas */\n      0x02\n        /* \"blockpedia.sol\":3764:3775  indexPagina */\n      dup4\n        /* \"blockpedia.sol\":3756:3776  paginas[indexPagina] */\n      dup2\n      sload\n      dup2\n      lt\n      tag_131\n      jumpi\n      mstore(0x00, 0x4e487b7100000000000000000000000000000000000000000000000000000000)\n      mstore(0x04, 0x32)\n      revert(0x00, 0x24)\n    tag_131:\n      swap1\n      0x00\n      mstore\n      keccak256(0x00, 0x20)\n      swap1\n      0x04\n      mul\n      add\n        /* \"blockpedia.sol\":3756:3784  paginas[indexPagina].versoes */\n      0x03\n      add\n        /* \"blockpedia.sol\":3785:3797  indexVersoes */\n      dup3\n        /* \"blockpedia.sol\":3756:3798  paginas[indexPagina].versoes[indexVersoes] */\n      dup2\n      sload\n      dup2\n      lt\n      tag_133\n      jumpi\n      mstore(0x00, 0x4e487b7100000000000000000000000000000000000000000000000000000000)\n      mstore(0x04, 0x32)\n      revert(0x00, 0x24)\n    tag_133:\n      swap1\n      0x00\n      mstore\n      keccak256(0x00, 0x20)\n      swap1\n      0x03\n      mul\n      add\n        /* \"blockpedia.sol\":3756:3804  paginas[indexPagina].versoes[indexVersoes].ativo */\n      0x00\n      add\n      0x00\n        /* \"blockpedia.sol\":3756:3811  paginas[indexPagina].versoes[indexVersoes].ativo = true */\n      0x0100\n      exp\n      dup2\n      sload\n      dup2\n      0xff\n      mul\n      not\n      and\n      swap1\n      dup4\n      iszero\n      iszero\n      mul\n      or\n      swap1\n      sstore\n      pop\n        /* \"blockpedia.sol\":2840:3819  function ativaVersaoPorIndexVersoesEIndexPaginas(uint indexPagina, uint indexVersoes) public\r... */\n    tag_92:\n      pop\n      pop\n      jump\t// out\n        /* \"blockpedia.sol\":113:137  bool public ativo = true */\n    tag_40:\n      0x00\n      dup1\n      sload\n      swap1\n      0x0100\n      exp\n      swap1\n      div\n      0xff\n      and\n      dup2\n      jump\t// out\n        /* \"blockpedia.sol\":2216:2832  function adicionaNovaVercaoDesativadaAPaginaPorIndexPaginas(uint index, string memory conteudo) public\r... */\n    tag_46:\n        /* \"blockpedia.sol\":2352:2356  true */\n      0x01\n        /* \"blockpedia.sol\":2343:2356  ativo == true */\n      iszero\n      iszero\n        /* \"blockpedia.sol\":2343:2348  ativo */\n      0x00\n      dup1\n      sload\n      swap1\n      0x0100\n      exp\n      swap1\n      div\n      0xff\n      and\n        /* \"blockpedia.sol\":2343:2356  ativo == true */\n      iszero\n      iszero\n      eq\n        /* \"blockpedia.sol\":2335:2432  require(ativo == true, \"A adicao de novas paginas so e permitida quando a Blockpedia esta ativa\") */\n      tag_136\n      jumpi\n      mload(0x40)\n      0x08c379a000000000000000000000000000000000000000000000000000000000\n      dup2\n      mstore\n      0x04\n      add\n      tag_137\n      swap1\n      tag_59\n      jump\t// in\n    tag_137:\n      mload(0x40)\n      dup1\n      swap2\n      sub\n      swap1\n      revert\n    tag_136:\n        /* \"blockpedia.sol\":2459:2466  paginas */\n      0x02\n        /* \"blockpedia.sol\":2459:2473  paginas.length */\n      dup1\n      sload\n      swap1\n      pop\n        /* \"blockpedia.sol\":2451:2456  index */\n      dup3\n        /* \"blockpedia.sol\":2451:2473  index < paginas.length */\n      lt\n        /* \"blockpedia.sol\":2443:2500  require(index < paginas.length, \"Indice fora do alcance\") */\n      tag_138\n      jumpi\n      mload(0x40)\n      0x08c379a000000000000000000000000000000000000000000000000000000000\n      dup2\n      mstore\n      0x04\n      add\n      tag_139\n      swap1\n      tag_73\n      jump\t// in\n    tag_139:\n      mload(0x40)\n      dup1\n      swap2\n      sub\n      swap1\n      revert\n    tag_138:\n        /* \"blockpedia.sol\":2543:2547  true */\n      0x01\n        /* \"blockpedia.sol\":2519:2547  paginas[index].ativo == true */\n      iszero\n      iszero\n        /* \"blockpedia.sol\":2519:2526  paginas */\n      0x02\n        /* \"blockpedia.sol\":2527:2532  index */\n      dup4\n        /* \"blockpedia.sol\":2519:2533  paginas[index] */\n      dup2\n      sload\n      dup2\n      lt\n      tag_140\n      jumpi\n      mstore(0x00, 0x4e487b7100000000000000000000000000000000000000000000000000000000)\n      mstore(0x04, 0x32)\n      revert(0x00, 0x24)\n    tag_140:\n      swap1\n      0x00\n      mstore\n      keccak256(0x00, 0x20)\n      swap1\n      0x04\n      mul\n      add\n        /* \"blockpedia.sol\":2519:2539  paginas[index].ativo */\n      0x00\n      add\n      0x00\n      swap1\n      sload\n      swap1\n      0x0100\n      exp\n      swap1\n      div\n      0xff\n      and\n        /* \"blockpedia.sol\":2519:2547  paginas[index].ativo == true */\n      iszero\n      iszero\n      eq\n        /* \"blockpedia.sol\":2511:2619  require(paginas[index].ativo == true, \"A adicao de novas vercoes so e permitida quando a pagina esta ativa\") */\n      tag_142\n      jumpi\n      mload(0x40)\n      0x08c379a000000000000000000000000000000000000000000000000000000000\n      dup2\n      mstore\n      0x04\n      add\n      tag_143\n      swap1\n      tag_144\n      jump\t// in\n    tag_143:\n      mload(0x40)\n      dup1\n      swap2\n      sub\n      swap1\n      revert\n    tag_142:\n        /* \"blockpedia.sol\":2640:2647  paginas */\n      0x02\n        /* \"blockpedia.sol\":2648:2653  index */\n      dup3\n        /* \"blockpedia.sol\":2640:2654  paginas[index] */\n      dup2\n      sload\n      dup2\n      lt\n      tag_145\n      jumpi\n      mstore(0x00, 0x4e487b7100000000000000000000000000000000000000000000000000000000)\n      mstore(0x04, 0x32)\n      revert(0x00, 0x24)\n    tag_145:\n      swap1\n      0x00\n      mstore\n      keccak256(0x00, 0x20)\n      swap1\n      0x04\n      mul\n      add\n        /* \"blockpedia.sol\":2640:2662  paginas[index].versoes */\n      0x03\n      add\n        /* \"blockpedia.sol\":2668:2823  Versao({\r... */\n      mload(0x40)\n      dup1\n      0x80\n      add\n      0x40\n      mstore\n      dup1\n        /* \"blockpedia.sol\":2697:2702  false */\n      0x00\n        /* \"blockpedia.sol\":2668:2823  Versao({\r... */\n      iszero\n      iszero\n      dup2\n      mstore\n      0x20\n      add\n        /* \"blockpedia.sol\":2724:2734  msg.sender */\n      caller\n        /* \"blockpedia.sol\":2668:2823  Versao({\r... */\n      0xffffffffffffffffffffffffffffffffffffffff\n      and\n      dup2\n      mstore\n      0x20\n      add\n        /* \"blockpedia.sol\":2763:2778  block.timestamp */\n      timestamp\n        /* \"blockpedia.sol\":2668:2823  Versao({\r... */\n      dup2\n      mstore\n      0x20\n      add\n        /* \"blockpedia.sol\":2803:2811  conteudo */\n      dup4\n        /* \"blockpedia.sol\":2668:2823  Versao({\r... */\n      dup2\n      mstore\n      pop\n        /* \"blockpedia.sol\":2640:2824  paginas[index].versoes.push(Versao({\r... */\n      swap1\n      dup1\n      0x01\n      dup2\n      sload\n      add\n      dup1\n      dup3\n      sstore\n      dup1\n      swap2\n      pop\n      pop\n      0x01\n      swap1\n      sub\n      swap1\n      0x00\n      mstore\n      keccak256(0x00, 0x20)\n      swap1\n      0x03\n      mul\n      add\n      0x00\n      swap1\n      swap2\n      swap1\n      swap2\n      swap1\n      swap2\n      pop\n      0x00\n      dup3\n      add\n      mload\n      dup2\n      0x00\n      add\n      exp(0x0100, 0x00)\n      dup2\n      sload\n      dup2\n      0xff\n      mul\n      not\n      and\n      swap1\n      dup4\n      iszero\n      iszero\n      mul\n      or\n      swap1\n      sstore\n      pop\n      0x20\n      dup3\n      add\n      mload\n      dup2\n      0x00\n      add\n      exp(0x0100, 0x01)\n      dup2\n      sload\n      dup2\n      0xffffffffffffffffffffffffffffffffffffffff\n      mul\n      not\n      and\n      swap1\n      dup4\n      0xffffffffffffffffffffffffffffffffffffffff\n      and\n      mul\n      or\n      swap1\n      sstore\n      pop\n      0x40\n      dup3\n      add\n      mload\n      dup2\n      0x01\n      add\n      sstore\n      0x60\n      dup3\n      add\n      mload\n      dup2\n      0x02\n      add\n      swap1\n      dup1\n      mload\n      swap1\n      0x20\n      add\n      swap1\n      tag_148\n      swap3\n      swap2\n      swap1\n      tag_67\n      jump\t// in\n    tag_148:\n      pop\n      pop\n      pop\n        /* \"blockpedia.sol\":2216:2832  function adicionaNovaVercaoDesativadaAPaginaPorIndexPaginas(uint index, string memory conteudo) public\r... */\n      pop\n      pop\n      jump\t// out\n        /* \"blockpedia.sol\":224:247  Pagina[] public paginas */\n    tag_49:\n      0x02\n      dup2\n      dup2\n      sload\n      dup2\n      lt\n      tag_149\n      jumpi\n      0x00\n      dup1\n      revert\n    tag_149:\n      swap1\n      0x00\n      mstore\n      keccak256(0x00, 0x20)\n      swap1\n      0x04\n      mul\n      add\n      0x00\n      swap2\n      pop\n      swap1\n      pop\n      dup1\n      0x00\n      add\n      0x00\n      swap1\n      sload\n      swap1\n      0x0100\n      exp\n      swap1\n      div\n      0xff\n      and\n      swap1\n      dup1\n      0x00\n      add\n      0x01\n      swap1\n      sload\n      swap1\n      0x0100\n      exp\n      swap1\n      div\n      0xffffffffffffffffffffffffffffffffffffffff\n      and\n      swap1\n      dup1\n      0x01\n      add\n      sload\n      swap1\n      dup1\n      0x02\n      add\n      dup1\n      sload\n      tag_151\n      swap1\n      tag_78\n      jump\t// in\n    tag_151:\n      dup1\n      0x1f\n      add\n      0x20\n      dup1\n      swap2\n      div\n      mul\n      0x20\n      add\n      mload(0x40)\n      swap1\n      dup2\n      add\n      0x40\n      mstore\n      dup1\n      swap3\n      swap2\n      swap1\n      dup2\n      dup2\n      mstore\n      0x20\n      add\n      dup3\n      dup1\n      sload\n      tag_152\n      swap1\n      tag_78\n      jump\t// in\n    tag_152:\n      dup1\n      iszero\n      tag_153\n      jumpi\n      dup1\n      0x1f\n      lt\n      tag_154\n      jumpi\n      0x0100\n      dup1\n      dup4\n      sload\n      div\n      mul\n      dup4\n      mstore\n      swap2\n      0x20\n      add\n      swap2\n      jump(tag_153)\n    tag_154:\n      dup3\n      add\n      swap2\n      swap1\n      0x00\n      mstore\n      keccak256(0x00, 0x20)\n      swap1\n    tag_155:\n      dup2\n      sload\n      dup2\n      mstore\n      swap1\n      0x01\n      add\n      swap1\n      0x20\n      add\n      dup1\n      dup4\n      gt\n      tag_155\n      jumpi\n      dup3\n      swap1\n      sub\n      0x1f\n      and\n      dup3\n      add\n      swap2\n    tag_153:\n      pop\n      pop\n      pop\n      pop\n      pop\n      swap1\n      pop\n      dup5\n      jump\t// out\n        /* \"blockpedia.sol\":1111:1634  function tituloExiste(string memory titulo) internal view returns (bool)\r... */\n    tag_61:\n        /* \"blockpedia.sol\":1178:1182  bool */\n      0x00\n        /* \"blockpedia.sol\":1429:1435  uint i */\n      dup1\n        /* \"blockpedia.sol\":1438:1439  0 */\n      0x00\n        /* \"blockpedia.sol\":1429:1439  uint i = 0 */\n      swap1\n      pop\n        /* \"blockpedia.sol\":1424:1604  for (uint i = 0; i < paginas.length; i++)\r... */\n    tag_157:\n        /* \"blockpedia.sol\":1445:1452  paginas */\n      0x02\n        /* \"blockpedia.sol\":1445:1459  paginas.length */\n      dup1\n      sload\n      swap1\n      pop\n        /* \"blockpedia.sol\":1441:1442  i */\n      dup2\n        /* \"blockpedia.sol\":1441:1459  i < paginas.length */\n      lt\n        /* \"blockpedia.sol\":1424:1604  for (uint i = 0; i < paginas.length; i++)\r... */\n      iszero\n      tag_158\n      jumpi\n        /* \"blockpedia.sol\":1571:1577  titulo */\n      dup3\n        /* \"blockpedia.sol\":1554:1578  abi.encodePacked(titulo) */\n      add(0x20, mload(0x40))\n      tag_160\n      swap2\n      swap1\n      tag_161\n      jump\t// in\n    tag_160:\n      mload(0x40)\n      0x20\n      dup2\n      dup4\n      sub\n      sub\n      dup2\n      mstore\n      swap1\n      0x40\n      mstore\n        /* \"blockpedia.sol\":1544:1579  keccak256(abi.encodePacked(titulo)) */\n      dup1\n      mload\n      swap1\n      0x20\n      add\n      keccak256\n        /* \"blockpedia.sol\":1521:1528  paginas */\n      0x02\n        /* \"blockpedia.sol\":1529:1530  i */\n      dup3\n        /* \"blockpedia.sol\":1521:1531  paginas[i] */\n      dup2\n      sload\n      dup2\n      lt\n      tag_162\n      jumpi\n      mstore(0x00, 0x4e487b7100000000000000000000000000000000000000000000000000000000)\n      mstore(0x04, 0x32)\n      revert(0x00, 0x24)\n    tag_162:\n      swap1\n      0x00\n      mstore\n      keccak256(0x00, 0x20)\n      swap1\n      0x04\n      mul\n      add\n        /* \"blockpedia.sol\":1521:1538  paginas[i].titulo */\n      0x02\n      add\n        /* \"blockpedia.sol\":1504:1539  abi.encodePacked(paginas[i].titulo) */\n      add(0x20, mload(0x40))\n      tag_164\n      swap2\n      swap1\n      tag_165\n      jump\t// in\n    tag_164:\n      mload(0x40)\n      0x20\n      dup2\n      dup4\n      sub\n      sub\n      dup2\n      mstore\n      swap1\n      0x40\n      mstore\n        /* \"blockpedia.sol\":1494:1540  keccak256(abi.encodePacked(paginas[i].titulo)) */\n      dup1\n      mload\n      swap1\n      0x20\n      add\n      keccak256\n        /* \"blockpedia.sol\":1494:1579  keccak256(abi.encodePacked(paginas[i].titulo)) == keccak256(abi.encodePacked(titulo)) */\n      eq\n        /* \"blockpedia.sol\":1490:1592  if (keccak256(abi.encodePacked(paginas[i].titulo)) == keccak256(abi.encodePacked(titulo))) return true */\n      iszero\n      tag_166\n      jumpi\n        /* \"blockpedia.sol\":1588:1592  true */\n      0x01\n        /* \"blockpedia.sol\":1581:1592  return true */\n      swap2\n      pop\n      pop\n      jump(tag_156)\n        /* \"blockpedia.sol\":1490:1592  if (keccak256(abi.encodePacked(paginas[i].titulo)) == keccak256(abi.encodePacked(titulo))) return true */\n    tag_166:\n        /* \"blockpedia.sol\":1461:1464  i++ */\n      dup1\n      dup1\n      tag_167\n      swap1\n      tag_168\n      jump\t// in\n    tag_167:\n      swap2\n      pop\n      pop\n        /* \"blockpedia.sol\":1424:1604  for (uint i = 0; i < paginas.length; i++)\r... */\n      jump(tag_157)\n    tag_158:\n      pop\n        /* \"blockpedia.sol\":1621:1626  false */\n      0x00\n        /* \"blockpedia.sol\":1614:1626  return false */\n      swap1\n      pop\n        /* \"blockpedia.sol\":1111:1634  function tituloExiste(string memory titulo) internal view returns (bool)\r... */\n    tag_156:\n      swap2\n      swap1\n      pop\n      jump\t// out\n        /* \"blockpedia.sol\":1901:2208  function getVersaoValidaDeUmaPagina(Pagina memory pagina)internal pure returns (Versao memory)\r... */\n    tag_91:\n        /* \"blockpedia.sol\":1981:1994  Versao memory */\n      tag_169\n      tag_170\n      jump\t// in\n    tag_169:\n        /* \"blockpedia.sol\":2016:2022  uint i */\n      0x00\n        /* \"blockpedia.sol\":2012:2148  for(uint i = 0; i < pagina.versoes.length; i++)\r... */\n    tag_172:\n        /* \"blockpedia.sol\":2032:2038  pagina */\n      dup3\n        /* \"blockpedia.sol\":2032:2046  pagina.versoes */\n      0x80\n      add\n      mload\n        /* \"blockpedia.sol\":2032:2053  pagina.versoes.length */\n      mload\n        /* \"blockpedia.sol\":2028:2029  i */\n      dup2\n        /* \"blockpedia.sol\":2028:2053  i < pagina.versoes.length */\n      lt\n        /* \"blockpedia.sol\":2012:2148  for(uint i = 0; i < pagina.versoes.length; i++)\r... */\n      iszero\n      tag_173\n      jumpi\n        /* \"blockpedia.sol\":2087:2093  pagina */\n      dup3\n        /* \"blockpedia.sol\":2087:2101  pagina.versoes */\n      0x80\n      add\n      mload\n        /* \"blockpedia.sol\":2102:2103  i */\n      dup2\n        /* \"blockpedia.sol\":2087:2104  pagina.versoes[i] */\n      dup2\n      mload\n      dup2\n      lt\n      tag_175\n      jumpi\n      mstore(0x00, 0x4e487b7100000000000000000000000000000000000000000000000000000000)\n      mstore(0x04, 0x32)\n      revert(0x00, 0x24)\n    tag_175:\n      0x20\n      mul\n      0x20\n      add\n      add\n      mload\n        /* \"blockpedia.sol\":2087:2110  pagina.versoes[i].ativo */\n      0x00\n      add\n      mload\n        /* \"blockpedia.sol\":2084:2136  if(pagina.versoes[i].ativo) return pagina.versoes[i] */\n      iszero\n      tag_176\n      jumpi\n        /* \"blockpedia.sol\":2119:2125  pagina */\n      dup3\n        /* \"blockpedia.sol\":2119:2133  pagina.versoes */\n      0x80\n      add\n      mload\n        /* \"blockpedia.sol\":2134:2135  i */\n      dup2\n        /* \"blockpedia.sol\":2119:2136  pagina.versoes[i] */\n      dup2\n      mload\n      dup2\n      lt\n      tag_177\n      jumpi\n      mstore(0x00, 0x4e487b7100000000000000000000000000000000000000000000000000000000)\n      mstore(0x04, 0x32)\n      revert(0x00, 0x24)\n    tag_177:\n      0x20\n      mul\n      0x20\n      add\n      add\n      mload\n        /* \"blockpedia.sol\":2112:2136  return pagina.versoes[i] */\n      swap2\n      pop\n      pop\n      jump(tag_171)\n        /* \"blockpedia.sol\":2084:2136  if(pagina.versoes[i].ativo) return pagina.versoes[i] */\n    tag_176:\n        /* \"blockpedia.sol\":2055:2058  i++ */\n      dup1\n      dup1\n      tag_178\n      swap1\n      tag_168\n      jump\t// in\n    tag_178:\n      swap2\n      pop\n      pop\n        /* \"blockpedia.sol\":2012:2148  for(uint i = 0; i < pagina.versoes.length; i++)\r... */\n      jump(tag_172)\n    tag_173:\n      pop\n        /* \"blockpedia.sol\":2158:2200  revert(\"Nenhuma versao valida encontrada\") */\n      mload(0x40)\n      0x08c379a000000000000000000000000000000000000000000000000000000000\n      dup2\n      mstore\n      0x04\n      add\n      tag_179\n      swap1\n      tag_180\n      jump\t// in\n    tag_179:\n      mload(0x40)\n      dup1\n      swap2\n      sub\n      swap1\n      revert\n        /* \"blockpedia.sol\":1901:2208  function getVersaoValidaDeUmaPagina(Pagina memory pagina)internal pure returns (Versao memory)\r... */\n    tag_171:\n      swap2\n      swap1\n      pop\n      jump\t// out\n    tag_67:\n      dup3\n      dup1\n      sload\n      tag_181\n      swap1\n      tag_78\n      jump\t// in\n    tag_181:\n      swap1\n      0x00\n      mstore\n      keccak256(0x00, 0x20)\n      swap1\n      0x1f\n      add\n      0x20\n      swap1\n      div\n      dup2\n      add\n      swap3\n      dup3\n      tag_183\n      jumpi\n      0x00\n      dup6\n      sstore\n      jump(tag_182)\n    tag_183:\n      dup3\n      0x1f\n      lt\n      tag_184\n      jumpi\n      dup1\n      mload\n      not(0xff)\n      and\n      dup4\n      dup1\n      add\n      or\n      dup6\n      sstore\n      jump(tag_182)\n    tag_184:\n      dup3\n      dup1\n      add\n      0x01\n      add\n      dup6\n      sstore\n      dup3\n      iszero\n      tag_182\n      jumpi\n      swap2\n      dup3\n      add\n    tag_185:\n      dup3\n      dup2\n      gt\n      iszero\n      tag_186\n      jumpi\n      dup3\n      mload\n      dup3\n      sstore\n      swap2\n      0x20\n      add\n      swap2\n      swap1\n      0x01\n      add\n      swap1\n      jump(tag_185)\n    tag_186:\n    tag_182:\n      pop\n      swap1\n      pop\n      tag_187\n      swap2\n      swap1\n      tag_188\n      jump\t// in\n    tag_187:\n      pop\n      swap1\n      jump\t// out\n    tag_170:\n      mload(0x40)\n      dup1\n      0x80\n      add\n      0x40\n      mstore\n      dup1\n      iszero(iszero(0x00))\n      dup2\n      mstore\n      0x20\n      add\n      and(0xffffffffffffffffffffffffffffffffffffffff, 0x00)\n      dup2\n      mstore\n      0x20\n      add\n      0x00\n      dup2\n      mstore\n      0x20\n      add\n      0x60\n      dup2\n      mstore\n      pop\n      swap1\n      jump\t// out\n    tag_188:\n    tag_189:\n      dup1\n      dup3\n      gt\n      iszero\n      tag_190\n      jumpi\n      0x00\n      dup2\n      0x00\n      swap1\n      sstore\n      pop\n      0x01\n      add\n      jump(tag_189)\n    tag_190:\n      pop\n      swap1\n      jump\t// out\n        /* \"#utility.yul\":7:351   */\n    tag_192:\n      0x00\n        /* \"#utility.yul\":110:175   */\n      tag_194\n        /* \"#utility.yul\":125:174   */\n      tag_195\n        /* \"#utility.yul\":167:173   */\n      dup5\n        /* \"#utility.yul\":125:174   */\n      tag_196\n      jump\t// in\n    tag_195:\n        /* \"#utility.yul\":110:175   */\n      tag_197\n      jump\t// in\n    tag_194:\n        /* \"#utility.yul\":101:175   */\n      swap1\n      pop\n        /* \"#utility.yul\":198:204   */\n      dup3\n        /* \"#utility.yul\":191:196   */\n      dup2\n        /* \"#utility.yul\":184:205   */\n      mstore\n        /* \"#utility.yul\":236:240   */\n      0x20\n        /* \"#utility.yul\":229:234   */\n      dup2\n        /* \"#utility.yul\":225:241   */\n      add\n        /* \"#utility.yul\":274:277   */\n      dup5\n        /* \"#utility.yul\":265:271   */\n      dup5\n        /* \"#utility.yul\":260:263   */\n      dup5\n        /* \"#utility.yul\":256:272   */\n      add\n        /* \"#utility.yul\":253:278   */\n      gt\n        /* \"#utility.yul\":250:252   */\n      iszero\n      tag_198\n      jumpi\n        /* \"#utility.yul\":291:292   */\n      0x00\n        /* \"#utility.yul\":288:289   */\n      dup1\n        /* \"#utility.yul\":281:293   */\n      revert\n        /* \"#utility.yul\":250:252   */\n    tag_198:\n        /* \"#utility.yul\":304:345   */\n      tag_199\n        /* \"#utility.yul\":338:344   */\n      dup5\n        /* \"#utility.yul\":333:336   */\n      dup3\n        /* \"#utility.yul\":328:331   */\n      dup6\n        /* \"#utility.yul\":304:345   */\n      tag_200\n      jump\t// in\n    tag_199:\n        /* \"#utility.yul\":91:351   */\n      pop\n      swap4\n      swap3\n      pop\n      pop\n      pop\n      jump\t// out\n        /* \"#utility.yul\":357:490   */\n    tag_201:\n      0x00\n        /* \"#utility.yul\":438:444   */\n      dup2\n        /* \"#utility.yul\":425:445   */\n      calldataload\n        /* \"#utility.yul\":416:445   */\n      swap1\n      pop\n        /* \"#utility.yul\":454:484   */\n      tag_203\n        /* \"#utility.yul\":478:483   */\n      dup2\n        /* \"#utility.yul\":454:484   */\n      tag_204\n      jump\t// in\n    tag_203:\n        /* \"#utility.yul\":406:490   */\n      swap3\n      swap2\n      pop\n      pop\n      jump\t// out\n        /* \"#utility.yul\":510:783   */\n    tag_205:\n      0x00\n        /* \"#utility.yul\":615:618   */\n      dup3\n        /* \"#utility.yul\":608:612   */\n      0x1f\n        /* \"#utility.yul\":600:606   */\n      dup4\n        /* \"#utility.yul\":596:613   */\n      add\n        /* \"#utility.yul\":592:619   */\n      slt\n        /* \"#utility.yul\":582:584   */\n      tag_207\n      jumpi\n        /* \"#utility.yul\":633:634   */\n      0x00\n        /* \"#utility.yul\":630:631   */\n      dup1\n        /* \"#utility.yul\":623:635   */\n      revert\n        /* \"#utility.yul\":582:584   */\n    tag_207:\n        /* \"#utility.yul\":673:679   */\n      dup2\n        /* \"#utility.yul\":660:680   */\n      calldataload\n        /* \"#utility.yul\":698:777   */\n      tag_208\n        /* \"#utility.yul\":773:776   */\n      dup5\n        /* \"#utility.yul\":765:771   */\n      dup3\n        /* \"#utility.yul\":758:762   */\n      0x20\n        /* \"#utility.yul\":750:756   */\n      dup7\n        /* \"#utility.yul\":746:763   */\n      add\n        /* \"#utility.yul\":698:777   */\n      tag_192\n      jump\t// in\n    tag_208:\n        /* \"#utility.yul\":689:777   */\n      swap2\n      pop\n        /* \"#utility.yul\":572:783   */\n      pop\n      swap3\n      swap2\n      pop\n      pop\n      jump\t// out\n        /* \"#utility.yul\":789:928   */\n    tag_209:\n      0x00\n        /* \"#utility.yul\":873:879   */\n      dup2\n        /* \"#utility.yul\":860:880   */\n      calldataload\n        /* \"#utility.yul\":851:880   */\n      swap1\n      pop\n        /* \"#utility.yul\":889:922   */\n      tag_211\n        /* \"#utility.yul\":916:921   */\n      dup2\n        /* \"#utility.yul\":889:922   */\n      tag_212\n      jump\t// in\n    tag_211:\n        /* \"#utility.yul\":841:928   */\n      swap3\n      swap2\n      pop\n      pop\n      jump\t// out\n        /* \"#utility.yul\":934:1190   */\n    tag_19:\n      0x00\n        /* \"#utility.yul\":1039:1041   */\n      0x20\n        /* \"#utility.yul\":1027:1036   */\n      dup3\n        /* \"#utility.yul\":1018:1025   */\n      dup5\n        /* \"#utility.yul\":1014:1037   */\n      sub\n        /* \"#utility.yul\":1010:1042   */\n      slt\n        /* \"#utility.yul\":1007:1009   */\n      iszero\n      tag_214\n      jumpi\n        /* \"#utility.yul\":1055:1056   */\n      0x00\n        /* \"#utility.yul\":1052:1053   */\n      dup1\n        /* \"#utility.yul\":1045:1057   */\n      revert\n        /* \"#utility.yul\":1007:1009   */\n    tag_214:\n        /* \"#utility.yul\":1098:1099   */\n      0x00\n        /* \"#utility.yul\":1123:1173   */\n      tag_215\n        /* \"#utility.yul\":1165:1172   */\n      dup5\n        /* \"#utility.yul\":1156:1162   */\n      dup3\n        /* \"#utility.yul\":1145:1154   */\n      dup6\n        /* \"#utility.yul\":1141:1163   */\n      add\n        /* \"#utility.yul\":1123:1173   */\n      tag_201\n      jump\t// in\n    tag_215:\n        /* \"#utility.yul\":1113:1173   */\n      swap2\n      pop\n        /* \"#utility.yul\":1069:1183   */\n      pop\n        /* \"#utility.yul\":997:1190   */\n      swap3\n      swap2\n      pop\n      pop\n      jump\t// out\n        /* \"#utility.yul\":1196:1829   */\n    tag_23:\n      0x00\n      dup1\n        /* \"#utility.yul\":1341:1343   */\n      0x40\n        /* \"#utility.yul\":1329:1338   */\n      dup4\n        /* \"#utility.yul\":1320:1327   */\n      dup6\n        /* \"#utility.yul\":1316:1339   */\n      sub\n        /* \"#utility.yul\":1312:1344   */\n      slt\n        /* \"#utility.yul\":1309:1311   */\n      iszero\n      tag_217\n      jumpi\n        /* \"#utility.yul\":1357:1358   */\n      0x00\n        /* \"#utility.yul\":1354:1355   */\n      dup1\n        /* \"#utility.yul\":1347:1359   */\n      revert\n        /* \"#utility.yul\":1309:1311   */\n    tag_217:\n        /* \"#utility.yul\":1428:1429   */\n      0x00\n        /* \"#utility.yul\":1417:1426   */\n      dup4\n        /* \"#utility.yul\":1413:1430   */\n      add\n        /* \"#utility.yul\":1400:1431   */\n      calldataload\n        /* \"#utility.yul\":1458:1476   */\n      0xffffffffffffffff\n        /* \"#utility.yul\":1450:1456   */\n      dup2\n        /* \"#utility.yul\":1447:1477   */\n      gt\n        /* \"#utility.yul\":1444:1446   */\n      iszero\n      tag_218\n      jumpi\n        /* \"#utility.yul\":1490:1491   */\n      0x00\n        /* \"#utility.yul\":1487:1488   */\n      dup1\n        /* \"#utility.yul\":1480:1492   */\n      revert\n        /* \"#utility.yul\":1444:1446   */\n    tag_218:\n        /* \"#utility.yul\":1518:1581   */\n      tag_219\n        /* \"#utility.yul\":1573:1580   */\n      dup6\n        /* \"#utility.yul\":1564:1570   */\n      dup3\n        /* \"#utility.yul\":1553:1562   */\n      dup7\n        /* \"#utility.yul\":1549:1571   */\n      add\n        /* \"#utility.yul\":1518:1581   */\n      tag_205\n      jump\t// in\n    tag_219:\n        /* \"#utility.yul\":1508:1581   */\n      swap3\n      pop\n        /* \"#utility.yul\":1371:1591   */\n      pop\n        /* \"#utility.yul\":1658:1660   */\n      0x20\n        /* \"#utility.yul\":1647:1656   */\n      dup4\n        /* \"#utility.yul\":1643:1661   */\n      add\n        /* \"#utility.yul\":1630:1662   */\n      calldataload\n        /* \"#utility.yul\":1689:1707   */\n      0xffffffffffffffff\n        /* \"#utility.yul\":1681:1687   */\n      dup2\n        /* \"#utility.yul\":1678:1708   */\n      gt\n        /* \"#utility.yul\":1675:1677   */\n      iszero\n      tag_220\n      jumpi\n        /* \"#utility.yul\":1721:1722   */\n      0x00\n        /* \"#utility.yul\":1718:1719   */\n      dup1\n        /* \"#utility.yul\":1711:1723   */\n      revert\n        /* \"#utility.yul\":1675:1677   */\n    tag_220:\n        /* \"#utility.yul\":1749:1812   */\n      tag_221\n        /* \"#utility.yul\":1804:1811   */\n      dup6\n        /* \"#utility.yul\":1795:1801   */\n      dup3\n        /* \"#utility.yul\":1784:1793   */\n      dup7\n        /* \"#utility.yul\":1780:1802   */\n      add\n        /* \"#utility.yul\":1749:1812   */\n      tag_205\n      jump\t// in\n    tag_221:\n        /* \"#utility.yul\":1739:1812   */\n      swap2\n      pop\n        /* \"#utility.yul\":1601:1822   */\n      pop\n        /* \"#utility.yul\":1299:1829   */\n      swap3\n      pop\n      swap3\n      swap1\n      pop\n      jump\t// out\n        /* \"#utility.yul\":1835:2097   */\n    tag_27:\n      0x00\n        /* \"#utility.yul\":1943:1945   */\n      0x20\n        /* \"#utility.yul\":1931:1940   */\n      dup3\n        /* \"#utility.yul\":1922:1929   */\n      dup5\n        /* \"#utility.yul\":1918:1941   */\n      sub\n        /* \"#utility.yul\":1914:1946   */\n      slt\n        /* \"#utility.yul\":1911:1913   */\n      iszero\n      tag_223\n      jumpi\n        /* \"#utility.yul\":1959:1960   */\n      0x00\n        /* \"#utility.yul\":1956:1957   */\n      dup1\n        /* \"#utility.yul\":1949:1961   */\n      revert\n        /* \"#utility.yul\":1911:1913   */\n    tag_223:\n        /* \"#utility.yul\":2002:2003   */\n      0x00\n        /* \"#utility.yul\":2027:2080   */\n      tag_224\n        /* \"#utility.yul\":2072:2079   */\n      dup5\n        /* \"#utility.yul\":2063:2069   */\n      dup3\n        /* \"#utility.yul\":2052:2061   */\n      dup6\n        /* \"#utility.yul\":2048:2070   */\n      add\n        /* \"#utility.yul\":2027:2080   */\n      tag_209\n      jump\t// in\n    tag_224:\n        /* \"#utility.yul\":2017:2080   */\n      swap2\n      pop\n        /* \"#utility.yul\":1973:2090   */\n      pop\n        /* \"#utility.yul\":1901:2097   */\n      swap3\n      swap2\n      pop\n      pop\n      jump\t// out\n        /* \"#utility.yul\":2103:2623   */\n    tag_45:\n      0x00\n      dup1\n        /* \"#utility.yul\":2238:2240   */\n      0x40\n        /* \"#utility.yul\":2226:2235   */\n      dup4\n        /* \"#utility.yul\":2217:2224   */\n      dup6\n        /* \"#utility.yul\":2213:2236   */\n      sub\n        /* \"#utility.yul\":2209:2241   */\n      slt\n        /* \"#utility.yul\":2206:2208   */\n      iszero\n      tag_226\n      jumpi\n        /* \"#utility.yul\":2254:2255   */\n      0x00\n        /* \"#utility.yul\":2251:2252   */\n      dup1\n        /* \"#utility.yul\":2244:2256   */\n      revert\n        /* \"#utility.yul\":2206:2208   */\n    tag_226:\n        /* \"#utility.yul\":2297:2298   */\n      0x00\n        /* \"#utility.yul\":2322:2375   */\n      tag_227\n        /* \"#utility.yul\":2367:2374   */\n      dup6\n        /* \"#utility.yul\":2358:2364   */\n      dup3\n        /* \"#utility.yul\":2347:2356   */\n      dup7\n        /* \"#utility.yul\":2343:2365   */\n      add\n        /* \"#utility.yul\":2322:2375   */\n      tag_209\n      jump\t// in\n    tag_227:\n        /* \"#utility.yul\":2312:2375   */\n      swap3\n      pop\n        /* \"#utility.yul\":2268:2385   */\n      pop\n        /* \"#utility.yul\":2452:2454   */\n      0x20\n        /* \"#utility.yul\":2441:2450   */\n      dup4\n        /* \"#utility.yul\":2437:2455   */\n      add\n        /* \"#utility.yul\":2424:2456   */\n      calldataload\n        /* \"#utility.yul\":2483:2501   */\n      0xffffffffffffffff\n        /* \"#utility.yul\":2475:2481   */\n      dup2\n        /* \"#utility.yul\":2472:2502   */\n      gt\n        /* \"#utility.yul\":2469:2471   */\n      iszero\n      tag_228\n      jumpi\n        /* \"#utility.yul\":2515:2516   */\n      0x00\n        /* \"#utility.yul\":2512:2513   */\n      dup1\n        /* \"#utility.yul\":2505:2517   */\n      revert\n        /* \"#utility.yul\":2469:2471   */\n    tag_228:\n        /* \"#utility.yul\":2543:2606   */\n      tag_229\n        /* \"#utility.yul\":2598:2605   */\n      dup6\n        /* \"#utility.yul\":2589:2595   */\n      dup3\n        /* \"#utility.yul\":2578:2587   */\n      dup7\n        /* \"#utility.yul\":2574:2596   */\n      add\n        /* \"#utility.yul\":2543:2606   */\n      tag_205\n      jump\t// in\n    tag_229:\n        /* \"#utility.yul\":2533:2606   */\n      swap2\n      pop\n        /* \"#utility.yul\":2395:2616   */\n      pop\n        /* \"#utility.yul\":2196:2623   */\n      swap3\n      pop\n      swap3\n      swap1\n      pop\n      jump\t// out\n        /* \"#utility.yul\":2629:3036   */\n    tag_37:\n      0x00\n      dup1\n        /* \"#utility.yul\":2754:2756   */\n      0x40\n        /* \"#utility.yul\":2742:2751   */\n      dup4\n        /* \"#utility.yul\":2733:2740   */\n      dup6\n        /* \"#utility.yul\":2729:2752   */\n      sub\n        /* \"#utility.yul\":2725:2757   */\n      slt\n        /* \"#utility.yul\":2722:2724   */\n      iszero\n      tag_231\n      jumpi\n        /* \"#utility.yul\":2770:2771   */\n      0x00\n        /* \"#utility.yul\":2767:2768   */\n      dup1\n        /* \"#utility.yul\":2760:2772   */\n      revert\n        /* \"#utility.yul\":2722:2724   */\n    tag_231:\n        /* \"#utility.yul\":2813:2814   */\n      0x00\n        /* \"#utility.yul\":2838:2891   */\n      tag_232\n        /* \"#utility.yul\":2883:2890   */\n      dup6\n        /* \"#utility.yul\":2874:2880   */\n      dup3\n        /* \"#utility.yul\":2863:2872   */\n      dup7\n        /* \"#utility.yul\":2859:2881   */\n      add\n        /* \"#utility.yul\":2838:2891   */\n      tag_209\n      jump\t// in\n    tag_232:\n        /* \"#utility.yul\":2828:2891   */\n      swap3\n      pop\n        /* \"#utility.yul\":2784:2901   */\n      pop\n        /* \"#utility.yul\":2940:2942   */\n      0x20\n        /* \"#utility.yul\":2966:3019   */\n      tag_233\n        /* \"#utility.yul\":3011:3018   */\n      dup6\n        /* \"#utility.yul\":3002:3008   */\n      dup3\n        /* \"#utility.yul\":2991:3000   */\n      dup7\n        /* \"#utility.yul\":2987:3009   */\n      add\n        /* \"#utility.yul\":2966:3019   */\n      tag_209\n      jump\t// in\n    tag_233:\n        /* \"#utility.yul\":2956:3019   */\n      swap2\n      pop\n        /* \"#utility.yul\":2911:3029   */\n      pop\n        /* \"#utility.yul\":2712:3036   */\n      swap3\n      pop\n      swap3\n      swap1\n      pop\n      jump\t// out\n        /* \"#utility.yul\":3042:3160   */\n    tag_234:\n        /* \"#utility.yul\":3129:3153   */\n      tag_236\n        /* \"#utility.yul\":3147:3152   */\n      dup2\n        /* \"#utility.yul\":3129:3153   */\n      tag_237\n      jump\t// in\n    tag_236:\n        /* \"#utility.yul\":3124:3127   */\n      dup3\n        /* \"#utility.yul\":3117:3154   */\n      mstore\n        /* \"#utility.yul\":3107:3160   */\n      pop\n      pop\n      jump\t// out\n        /* \"#utility.yul\":3166:3275   */\n    tag_238:\n        /* \"#utility.yul\":3247:3268   */\n      tag_240\n        /* \"#utility.yul\":3262:3267   */\n      dup2\n        /* \"#utility.yul\":3247:3268   */\n      tag_241\n      jump\t// in\n    tag_240:\n        /* \"#utility.yul\":3242:3245   */\n      dup3\n        /* \"#utility.yul\":3235:3269   */\n      mstore\n        /* \"#utility.yul\":3225:3275   */\n      pop\n      pop\n      jump\t// out\n        /* \"#utility.yul\":3281:3645   */\n    tag_242:\n      0x00\n        /* \"#utility.yul\":3397:3436   */\n      tag_244\n        /* \"#utility.yul\":3430:3435   */\n      dup3\n        /* \"#utility.yul\":3397:3436   */\n      tag_245\n      jump\t// in\n    tag_244:\n        /* \"#utility.yul\":3452:3523   */\n      tag_246\n        /* \"#utility.yul\":3516:3522   */\n      dup2\n        /* \"#utility.yul\":3511:3514   */\n      dup6\n        /* \"#utility.yul\":3452:3523   */\n      tag_247\n      jump\t// in\n    tag_246:\n        /* \"#utility.yul\":3445:3523   */\n      swap4\n      pop\n        /* \"#utility.yul\":3532:3584   */\n      tag_248\n        /* \"#utility.yul\":3577:3583   */\n      dup2\n        /* \"#utility.yul\":3572:3575   */\n      dup6\n        /* \"#utility.yul\":3565:3569   */\n      0x20\n        /* \"#utility.yul\":3558:3563   */\n      dup7\n        /* \"#utility.yul\":3554:3570   */\n      add\n        /* \"#utility.yul\":3532:3584   */\n      tag_249\n      jump\t// in\n    tag_248:\n        /* \"#utility.yul\":3609:3638   */\n      tag_250\n        /* \"#utility.yul\":3631:3637   */\n      dup2\n        /* \"#utility.yul\":3609:3638   */\n      tag_251\n      jump\t// in\n    tag_250:\n        /* \"#utility.yul\":3604:3607   */\n      dup5\n        /* \"#utility.yul\":3600:3639   */\n      add\n        /* \"#utility.yul\":3593:3639   */\n      swap2\n      pop\n        /* \"#utility.yul\":3373:3645   */\n      pop\n      swap3\n      swap2\n      pop\n      pop\n      jump\t// out\n        /* \"#utility.yul\":3651:4028   */\n    tag_252:\n      0x00\n        /* \"#utility.yul\":3785:3824   */\n      tag_254\n        /* \"#utility.yul\":3818:3823   */\n      dup3\n        /* \"#utility.yul\":3785:3824   */\n      tag_245\n      jump\t// in\n    tag_254:\n        /* \"#utility.yul\":3840:3929   */\n      tag_255\n        /* \"#utility.yul\":3922:3928   */\n      dup2\n        /* \"#utility.yul\":3917:3920   */\n      dup6\n        /* \"#utility.yul\":3840:3929   */\n      tag_256\n      jump\t// in\n    tag_255:\n        /* \"#utility.yul\":3833:3929   */\n      swap4\n      pop\n        /* \"#utility.yul\":3938:3990   */\n      tag_257\n        /* \"#utility.yul\":3983:3989   */\n      dup2\n        /* \"#utility.yul\":3978:3981   */\n      dup6\n        /* \"#utility.yul\":3971:3975   */\n      0x20\n        /* \"#utility.yul\":3964:3969   */\n      dup7\n        /* \"#utility.yul\":3960:3976   */\n      add\n        /* \"#utility.yul\":3938:3990   */\n      tag_249\n      jump\t// in\n    tag_257:\n        /* \"#utility.yul\":4015:4021   */\n      dup1\n        /* \"#utility.yul\":4010:4013   */\n      dup5\n        /* \"#utility.yul\":4006:4022   */\n      add\n        /* \"#utility.yul\":3999:4022   */\n      swap2\n      pop\n        /* \"#utility.yul\":3761:4028   */\n      pop\n      swap3\n      swap2\n      pop\n      pop\n      jump\t// out\n        /* \"#utility.yul\":4058:4903   */\n    tag_258:\n      0x00\n        /* \"#utility.yul\":4198:4203   */\n      dup2\n        /* \"#utility.yul\":4192:4204   */\n      sload\n        /* \"#utility.yul\":4227:4263   */\n      tag_260\n        /* \"#utility.yul\":4253:4262   */\n      dup2\n        /* \"#utility.yul\":4227:4263   */\n      tag_78\n      jump\t// in\n    tag_260:\n        /* \"#utility.yul\":4279:4368   */\n      tag_261\n        /* \"#utility.yul\":4361:4367   */\n      dup2\n        /* \"#utility.yul\":4356:4359   */\n      dup7\n        /* \"#utility.yul\":4279:4368   */\n      tag_256\n      jump\t// in\n    tag_261:\n        /* \"#utility.yul\":4272:4368   */\n      swap5\n      pop\n        /* \"#utility.yul\":4399:4400   */\n      0x01\n        /* \"#utility.yul\":4388:4397   */\n      dup3\n        /* \"#utility.yul\":4384:4401   */\n      and\n        /* \"#utility.yul\":4415:4416   */\n      0x00\n        /* \"#utility.yul\":4410:4547   */\n      dup2\n      eq\n      tag_263\n      jumpi\n        /* \"#utility.yul\":4561:4562   */\n      0x01\n        /* \"#utility.yul\":4556:4897   */\n      dup2\n      eq\n      tag_264\n      jumpi\n        /* \"#utility.yul\":4377:4897   */\n      jump(tag_262)\n        /* \"#utility.yul\":4410:4547   */\n    tag_263:\n        /* \"#utility.yul\":4494:4498   */\n      0xff\n        /* \"#utility.yul\":4490:4499   */\n      not\n        /* \"#utility.yul\":4479:4488   */\n      dup4\n        /* \"#utility.yul\":4475:4500   */\n      and\n        /* \"#utility.yul\":4470:4473   */\n      dup7\n        /* \"#utility.yul\":4463:4501   */\n      mstore\n        /* \"#utility.yul\":4530:4536   */\n      dup2\n        /* \"#utility.yul\":4525:4528   */\n      dup7\n        /* \"#utility.yul\":4521:4537   */\n      add\n        /* \"#utility.yul\":4514:4537   */\n      swap4\n      pop\n        /* \"#utility.yul\":4410:4547   */\n      jump(tag_262)\n        /* \"#utility.yul\":4556:4897   */\n    tag_264:\n        /* \"#utility.yul\":4623:4661   */\n      tag_265\n        /* \"#utility.yul\":4655:4660   */\n      dup6\n        /* \"#utility.yul\":4623:4661   */\n      tag_266\n      jump\t// in\n    tag_265:\n        /* \"#utility.yul\":4683:4684   */\n      0x00\n        /* \"#utility.yul\":4697:4851   */\n    tag_267:\n        /* \"#utility.yul\":4711:4717   */\n      dup4\n        /* \"#utility.yul\":4708:4709   */\n      dup2\n        /* \"#utility.yul\":4705:4718   */\n      lt\n        /* \"#utility.yul\":4697:4851   */\n      iszero\n      tag_269\n      jumpi\n        /* \"#utility.yul\":4785:4792   */\n      dup2\n        /* \"#utility.yul\":4779:4793   */\n      sload\n        /* \"#utility.yul\":4775:4776   */\n      dup2\n        /* \"#utility.yul\":4770:4773   */\n      dup10\n        /* \"#utility.yul\":4766:4777   */\n      add\n        /* \"#utility.yul\":4759:4794   */\n      mstore\n        /* \"#utility.yul\":4835:4836   */\n      0x01\n        /* \"#utility.yul\":4826:4833   */\n      dup3\n        /* \"#utility.yul\":4822:4837   */\n      add\n        /* \"#utility.yul\":4811:4837   */\n      swap2\n      pop\n        /* \"#utility.yul\":4733:4737   */\n      0x20\n        /* \"#utility.yul\":4730:4731   */\n      dup2\n        /* \"#utility.yul\":4726:4738   */\n      add\n        /* \"#utility.yul\":4721:4738   */\n      swap1\n      pop\n        /* \"#utility.yul\":4697:4851   */\n      jump(tag_267)\n    tag_269:\n        /* \"#utility.yul\":4880:4886   */\n      dup4\n        /* \"#utility.yul\":4875:4878   */\n      dup9\n        /* \"#utility.yul\":4871:4887   */\n      add\n        /* \"#utility.yul\":4864:4887   */\n      swap6\n      pop\n        /* \"#utility.yul\":4563:4897   */\n      pop\n      pop\n        /* \"#utility.yul\":4377:4897   */\n    tag_262:\n      pop\n        /* \"#utility.yul\":4165:4903   */\n      pop\n      pop\n      swap3\n      swap2\n      pop\n      pop\n      jump\t// out\n        /* \"#utility.yul\":4909:5239   */\n    tag_270:\n      0x00\n        /* \"#utility.yul\":5072:5139   */\n      tag_272\n        /* \"#utility.yul\":5136:5138   */\n      0x20\n        /* \"#utility.yul\":5131:5134   */\n      dup4\n        /* \"#utility.yul\":5072:5139   */\n      tag_247\n      jump\t// in\n    tag_272:\n        /* \"#utility.yul\":5065:5139   */\n      swap2\n      pop\n        /* \"#utility.yul\":5169:5203   */\n      0x4e656e68756d612076657273616f2076616c69646120656e636f6e7472616461\n        /* \"#utility.yul\":5165:5166   */\n      0x00\n        /* \"#utility.yul\":5160:5163   */\n      dup4\n        /* \"#utility.yul\":5156:5167   */\n      add\n        /* \"#utility.yul\":5149:5204   */\n      mstore\n        /* \"#utility.yul\":5230:5232   */\n      0x20\n        /* \"#utility.yul\":5225:5228   */\n      dup3\n        /* \"#utility.yul\":5221:5233   */\n      add\n        /* \"#utility.yul\":5214:5233   */\n      swap1\n      pop\n        /* \"#utility.yul\":5055:5239   */\n      swap2\n      swap1\n      pop\n      jump\t// out\n        /* \"#utility.yul\":5245:5613   */\n    tag_273:\n      0x00\n        /* \"#utility.yul\":5408:5475   */\n      tag_275\n        /* \"#utility.yul\":5472:5474   */\n      0x24\n        /* \"#utility.yul\":5467:5470   */\n      dup4\n        /* \"#utility.yul\":5408:5475   */\n      tag_247\n      jump\t// in\n    tag_275:\n        /* \"#utility.yul\":5401:5475   */\n      swap2\n      pop\n        /* \"#utility.yul\":5505:5539   */\n      0x556d6120706167696e6120636f6d206573746520746974756c6f206a61206578\n        /* \"#utility.yul\":5501:5502   */\n      0x00\n        /* \"#utility.yul\":5496:5499   */\n      dup4\n        /* \"#utility.yul\":5492:5503   */\n      add\n        /* \"#utility.yul\":5485:5540   */\n      mstore\n        /* \"#utility.yul\":5571:5577   */\n      0x6973746500000000000000000000000000000000000000000000000000000000\n        /* \"#utility.yul\":5566:5568   */\n      0x20\n        /* \"#utility.yul\":5561:5564   */\n      dup4\n        /* \"#utility.yul\":5557:5569   */\n      add\n        /* \"#utility.yul\":5550:5578   */\n      mstore\n        /* \"#utility.yul\":5604:5606   */\n      0x40\n        /* \"#utility.yul\":5599:5602   */\n      dup3\n        /* \"#utility.yul\":5595:5607   */\n      add\n        /* \"#utility.yul\":5588:5607   */\n      swap1\n      pop\n        /* \"#utility.yul\":5391:5613   */\n      swap2\n      swap1\n      pop\n      jump\t// out\n        /* \"#utility.yul\":5619:6052   */\n    tag_276:\n      0x00\n        /* \"#utility.yul\":5782:5849   */\n      tag_278\n        /* \"#utility.yul\":5846:5848   */\n      0x43\n        /* \"#utility.yul\":5841:5844   */\n      dup4\n        /* \"#utility.yul\":5782:5849   */\n      tag_247\n      jump\t// in\n    tag_278:\n        /* \"#utility.yul\":5775:5849   */\n      swap2\n      pop\n        /* \"#utility.yul\":5879:5913   */\n      0x412061646963616f206465206e6f76617320766572636f657320736f20652070\n        /* \"#utility.yul\":5875:5876   */\n      0x00\n        /* \"#utility.yul\":5870:5873   */\n      dup4\n        /* \"#utility.yul\":5866:5877   */\n      add\n        /* \"#utility.yul\":5859:5914   */\n      mstore\n        /* \"#utility.yul\":5945:5979   */\n      0x65726d6974696461207175616e646f206120706167696e612065737461206174\n        /* \"#utility.yul\":5940:5942   */\n      0x20\n        /* \"#utility.yul\":5935:5938   */\n      dup4\n        /* \"#utility.yul\":5931:5943   */\n      add\n        /* \"#utility.yul\":5924:5980   */\n      mstore\n        /* \"#utility.yul\":6011:6016   */\n      0x6976610000000000000000000000000000000000000000000000000000000000\n        /* \"#utility.yul\":6006:6008   */\n      0x40\n        /* \"#utility.yul\":6001:6004   */\n      dup4\n        /* \"#utility.yul\":5997:6009   */\n      add\n        /* \"#utility.yul\":5990:6017   */\n      mstore\n        /* \"#utility.yul\":6043:6045   */\n      0x60\n        /* \"#utility.yul\":6038:6041   */\n      dup3\n        /* \"#utility.yul\":6034:6046   */\n      add\n        /* \"#utility.yul\":6027:6046   */\n      swap1\n      pop\n        /* \"#utility.yul\":5765:6052   */\n      swap2\n      swap1\n      pop\n      jump\t// out\n        /* \"#utility.yul\":6058:6453   */\n    tag_279:\n      0x00\n        /* \"#utility.yul\":6221:6288   */\n      tag_281\n        /* \"#utility.yul\":6285:6287   */\n      0x3f\n        /* \"#utility.yul\":6280:6283   */\n      dup4\n        /* \"#utility.yul\":6221:6288   */\n      tag_247\n      jump\t// in\n    tag_281:\n        /* \"#utility.yul\":6214:6288   */\n      swap2\n      pop\n        /* \"#utility.yul\":6318:6352   */\n      0x4120616c7465726163616f2064652076657273616f20736f2065207065726d69\n        /* \"#utility.yul\":6314:6315   */\n      0x00\n        /* \"#utility.yul\":6309:6312   */\n      dup4\n        /* \"#utility.yul\":6305:6316   */\n      add\n        /* \"#utility.yul\":6298:6353   */\n      mstore\n        /* \"#utility.yul\":6384:6417   */\n      0x74696461207175616e646f206120706167696e61206573746120617469766100\n        /* \"#utility.yul\":6379:6381   */\n      0x20\n        /* \"#utility.yul\":6374:6377   */\n      dup4\n        /* \"#utility.yul\":6370:6382   */\n      add\n        /* \"#utility.yul\":6363:6418   */\n      mstore\n        /* \"#utility.yul\":6444:6446   */\n      0x40\n        /* \"#utility.yul\":6439:6442   */\n      dup3\n        /* \"#utility.yul\":6435:6447   */\n      add\n        /* \"#utility.yul\":6428:6447   */\n      swap1\n      pop\n        /* \"#utility.yul\":6204:6453   */\n      swap2\n      swap1\n      pop\n      jump\t// out\n        /* \"#utility.yul\":6459:6783   */\n    tag_282:\n      0x00\n        /* \"#utility.yul\":6622:6689   */\n      tag_284\n        /* \"#utility.yul\":6686:6688   */\n      0x1a\n        /* \"#utility.yul\":6681:6684   */\n      dup4\n        /* \"#utility.yul\":6622:6689   */\n      tag_247\n      jump\t// in\n    tag_284:\n        /* \"#utility.yul\":6615:6689   */\n      swap2\n      pop\n        /* \"#utility.yul\":6719:6747   */\n      0x496e6469636520646120706167696e6120696e76616c69646f2e000000000000\n        /* \"#utility.yul\":6715:6716   */\n      0x00\n        /* \"#utility.yul\":6710:6713   */\n      dup4\n        /* \"#utility.yul\":6706:6717   */\n      add\n        /* \"#utility.yul\":6699:6748   */\n      mstore\n        /* \"#utility.yul\":6774:6776   */\n      0x20\n        /* \"#utility.yul\":6769:6772   */\n      dup3\n        /* \"#utility.yul\":6765:6777   */\n      add\n        /* \"#utility.yul\":6758:6777   */\n      swap1\n      pop\n        /* \"#utility.yul\":6605:6783   */\n      swap2\n      swap1\n      pop\n      jump\t// out\n        /* \"#utility.yul\":6789:7113   */\n    tag_285:\n      0x00\n        /* \"#utility.yul\":6952:7019   */\n      tag_287\n        /* \"#utility.yul\":7016:7018   */\n      0x1a\n        /* \"#utility.yul\":7011:7014   */\n      dup4\n        /* \"#utility.yul\":6952:7019   */\n      tag_247\n      jump\t// in\n    tag_287:\n        /* \"#utility.yul\":6945:7019   */\n      swap2\n      pop\n        /* \"#utility.yul\":7049:7077   */\n      0x496e646963652064612076657273616f20696e76616c69646f2e000000000000\n        /* \"#utility.yul\":7045:7046   */\n      0x00\n        /* \"#utility.yul\":7040:7043   */\n      dup4\n        /* \"#utility.yul\":7036:7047   */\n      add\n        /* \"#utility.yul\":7029:7078   */\n      mstore\n        /* \"#utility.yul\":7104:7106   */\n      0x20\n        /* \"#utility.yul\":7099:7102   */\n      dup3\n        /* \"#utility.yul\":7095:7107   */\n      add\n        /* \"#utility.yul\":7088:7107   */\n      swap1\n      pop\n        /* \"#utility.yul\":6935:7113   */\n      swap2\n      swap1\n      pop\n      jump\t// out\n        /* \"#utility.yul\":7119:7439   */\n    tag_288:\n      0x00\n        /* \"#utility.yul\":7282:7349   */\n      tag_290\n        /* \"#utility.yul\":7346:7348   */\n      0x16\n        /* \"#utility.yul\":7341:7344   */\n      dup4\n        /* \"#utility.yul\":7282:7349   */\n      tag_247\n      jump\t// in\n    tag_290:\n        /* \"#utility.yul\":7275:7349   */\n      swap2\n      pop\n        /* \"#utility.yul\":7379:7403   */\n      0x496e6469636520666f726120646f20616c63616e636500000000000000000000\n        /* \"#utility.yul\":7375:7376   */\n      0x00\n        /* \"#utility.yul\":7370:7373   */\n      dup4\n        /* \"#utility.yul\":7366:7377   */\n      add\n        /* \"#utility.yul\":7359:7404   */\n      mstore\n        /* \"#utility.yul\":7430:7432   */\n      0x20\n        /* \"#utility.yul\":7425:7428   */\n      dup3\n        /* \"#utility.yul\":7421:7433   */\n      add\n        /* \"#utility.yul\":7414:7433   */\n      swap1\n      pop\n        /* \"#utility.yul\":7265:7439   */\n      swap2\n      swap1\n      pop\n      jump\t// out\n        /* \"#utility.yul\":7445:7838   */\n    tag_291:\n      0x00\n        /* \"#utility.yul\":7608:7675   */\n      tag_293\n        /* \"#utility.yul\":7672:7674   */\n      0x3d\n        /* \"#utility.yul\":7667:7670   */\n      dup4\n        /* \"#utility.yul\":7608:7675   */\n      tag_247\n      jump\t// in\n    tag_293:\n        /* \"#utility.yul\":7601:7675   */\n      swap2\n      pop\n        /* \"#utility.yul\":7705:7739   */\n      0x536f6d656e7465206f20646f6e6f20646573746120426c6f636b706564696120\n        /* \"#utility.yul\":7701:7702   */\n      0x00\n        /* \"#utility.yul\":7696:7699   */\n      dup4\n        /* \"#utility.yul\":7692:7703   */\n      add\n        /* \"#utility.yul\":7685:7740   */\n      mstore\n        /* \"#utility.yul\":7771:7802   */\n      0x706f646520616c7465726172206f20617472696275746f20617469766f000000\n        /* \"#utility.yul\":7766:7768   */\n      0x20\n        /* \"#utility.yul\":7761:7764   */\n      dup4\n        /* \"#utility.yul\":7757:7769   */\n      add\n        /* \"#utility.yul\":7750:7803   */\n      mstore\n        /* \"#utility.yul\":7829:7831   */\n      0x40\n        /* \"#utility.yul\":7824:7827   */\n      dup3\n        /* \"#utility.yul\":7820:7832   */\n      add\n        /* \"#utility.yul\":7813:7832   */\n      swap1\n      pop\n        /* \"#utility.yul\":7591:7838   */\n      swap2\n      swap1\n      pop\n      jump\t// out\n        /* \"#utility.yul\":7844:8281   */\n    tag_294:\n      0x00\n        /* \"#utility.yul\":8007:8074   */\n      tag_296\n        /* \"#utility.yul\":8071:8073   */\n      0x47\n        /* \"#utility.yul\":8066:8069   */\n      dup4\n        /* \"#utility.yul\":8007:8074   */\n      tag_247\n      jump\t// in\n    tag_296:\n        /* \"#utility.yul\":8000:8074   */\n      swap2\n      pop\n        /* \"#utility.yul\":8104:8138   */\n      0x412061646963616f206465206e6f76617320706167696e617320736f20652070\n        /* \"#utility.yul\":8100:8101   */\n      0x00\n        /* \"#utility.yul\":8095:8098   */\n      dup4\n        /* \"#utility.yul\":8091:8102   */\n      add\n        /* \"#utility.yul\":8084:8139   */\n      mstore\n        /* \"#utility.yul\":8170:8204   */\n      0x65726d6974696461207175616e646f206120426c6f636b706564696120657374\n        /* \"#utility.yul\":8165:8167   */\n      0x20\n        /* \"#utility.yul\":8160:8163   */\n      dup4\n        /* \"#utility.yul\":8156:8168   */\n      add\n        /* \"#utility.yul\":8149:8205   */\n      mstore\n        /* \"#utility.yul\":8236:8245   */\n      0x6120617469766100000000000000000000000000000000000000000000000000\n        /* \"#utility.yul\":8231:8233   */\n      0x40\n        /* \"#utility.yul\":8226:8229   */\n      dup4\n        /* \"#utility.yul\":8222:8234   */\n      add\n        /* \"#utility.yul\":8215:8246   */\n      mstore\n        /* \"#utility.yul\":8272:8274   */\n      0x60\n        /* \"#utility.yul\":8267:8270   */\n      dup3\n        /* \"#utility.yul\":8263:8275   */\n      add\n        /* \"#utility.yul\":8256:8275   */\n      swap1\n      pop\n        /* \"#utility.yul\":7990:8281   */\n      swap2\n      swap1\n      pop\n      jump\t// out\n        /* \"#utility.yul\":8287:8405   */\n    tag_297:\n        /* \"#utility.yul\":8374:8398   */\n      tag_299\n        /* \"#utility.yul\":8392:8397   */\n      dup2\n        /* \"#utility.yul\":8374:8398   */\n      tag_300\n      jump\t// in\n    tag_299:\n        /* \"#utility.yul\":8369:8372   */\n      dup3\n        /* \"#utility.yul\":8362:8399   */\n      mstore\n        /* \"#utility.yul\":8352:8405   */\n      pop\n      pop\n      jump\t// out\n        /* \"#utility.yul\":8411:8686   */\n    tag_161:\n      0x00\n        /* \"#utility.yul\":8565:8660   */\n      tag_302\n        /* \"#utility.yul\":8656:8659   */\n      dup3\n        /* \"#utility.yul\":8647:8653   */\n      dup5\n        /* \"#utility.yul\":8565:8660   */\n      tag_252\n      jump\t// in\n    tag_302:\n        /* \"#utility.yul\":8558:8660   */\n      swap2\n      pop\n        /* \"#utility.yul\":8677:8680   */\n      dup2\n        /* \"#utility.yul\":8670:8680   */\n      swap1\n      pop\n        /* \"#utility.yul\":8547:8686   */\n      swap3\n      swap2\n      pop\n      pop\n      jump\t// out\n        /* \"#utility.yul\":8692:8961   */\n    tag_165:\n      0x00\n        /* \"#utility.yul\":8843:8935   */\n      tag_304\n        /* \"#utility.yul\":8931:8934   */\n      dup3\n        /* \"#utility.yul\":8922:8928   */\n      dup5\n        /* \"#utility.yul\":8843:8935   */\n      tag_258\n      jump\t// in\n    tag_304:\n        /* \"#utility.yul\":8836:8935   */\n      swap2\n      pop\n        /* \"#utility.yul\":8952:8955   */\n      dup2\n        /* \"#utility.yul\":8945:8955   */\n      swap1\n      pop\n        /* \"#utility.yul\":8825:8961   */\n      swap3\n      swap2\n      pop\n      pop\n      jump\t// out\n        /* \"#utility.yul\":8967:9189   */\n    tag_16:\n      0x00\n        /* \"#utility.yul\":9098:9100   */\n      0x20\n        /* \"#utility.yul\":9087:9096   */\n      dup3\n        /* \"#utility.yul\":9083:9101   */\n      add\n        /* \"#utility.yul\":9075:9101   */\n      swap1\n      pop\n        /* \"#utility.yul\":9111:9182   */\n      tag_306\n        /* \"#utility.yul\":9179:9180   */\n      0x00\n        /* \"#utility.yul\":9168:9177   */\n      dup4\n        /* \"#utility.yul\":9164:9181   */\n      add\n        /* \"#utility.yul\":9155:9161   */\n      dup5\n        /* \"#utility.yul\":9111:9182   */\n      tag_234\n      jump\t// in\n    tag_306:\n        /* \"#utility.yul\":9065:9189   */\n      swap3\n      swap2\n      pop\n      pop\n      jump\t// out\n        /* \"#utility.yul\":9195:9405   */\n    tag_42:\n      0x00\n        /* \"#utility.yul\":9320:9322   */\n      0x20\n        /* \"#utility.yul\":9309:9318   */\n      dup3\n        /* \"#utility.yul\":9305:9323   */\n      add\n        /* \"#utility.yul\":9297:9323   */\n      swap1\n      pop\n        /* \"#utility.yul\":9333:9398   */\n      tag_308\n        /* \"#utility.yul\":9395:9396   */\n      0x00\n        /* \"#utility.yul\":9384:9393   */\n      dup4\n        /* \"#utility.yul\":9380:9397   */\n      add\n        /* \"#utility.yul\":9371:9377   */\n      dup5\n        /* \"#utility.yul\":9333:9398   */\n      tag_238\n      jump\t// in\n    tag_308:\n        /* \"#utility.yul\":9287:9405   */\n      swap3\n      swap2\n      pop\n      pop\n      jump\t// out\n        /* \"#utility.yul\":9411:10043   */\n    tag_51:\n      0x00\n        /* \"#utility.yul\":9640:9643   */\n      0x80\n        /* \"#utility.yul\":9629:9638   */\n      dup3\n        /* \"#utility.yul\":9625:9644   */\n      add\n        /* \"#utility.yul\":9617:9644   */\n      swap1\n      pop\n        /* \"#utility.yul\":9654:9719   */\n      tag_310\n        /* \"#utility.yul\":9716:9717   */\n      0x00\n        /* \"#utility.yul\":9705:9714   */\n      dup4\n        /* \"#utility.yul\":9701:9718   */\n      add\n        /* \"#utility.yul\":9692:9698   */\n      dup8\n        /* \"#utility.yul\":9654:9719   */\n      tag_238\n      jump\t// in\n    tag_310:\n        /* \"#utility.yul\":9729:9801   */\n      tag_311\n        /* \"#utility.yul\":9797:9799   */\n      0x20\n        /* \"#utility.yul\":9786:9795   */\n      dup4\n        /* \"#utility.yul\":9782:9800   */\n      add\n        /* \"#utility.yul\":9773:9779   */\n      dup7\n        /* \"#utility.yul\":9729:9801   */\n      tag_234\n      jump\t// in\n    tag_311:\n        /* \"#utility.yul\":9811:9883   */\n      tag_312\n        /* \"#utility.yul\":9879:9881   */\n      0x40\n        /* \"#utility.yul\":9868:9877   */\n      dup4\n        /* \"#utility.yul\":9864:9882   */\n      add\n        /* \"#utility.yul\":9855:9861   */\n      dup6\n        /* \"#utility.yul\":9811:9883   */\n      tag_297\n      jump\t// in\n    tag_312:\n        /* \"#utility.yul\":9930:9939   */\n      dup2\n        /* \"#utility.yul\":9924:9928   */\n      dup2\n        /* \"#utility.yul\":9920:9940   */\n      sub\n        /* \"#utility.yul\":9915:9917   */\n      0x60\n        /* \"#utility.yul\":9904:9913   */\n      dup4\n        /* \"#utility.yul\":9900:9918   */\n      add\n        /* \"#utility.yul\":9893:9941   */\n      mstore\n        /* \"#utility.yul\":9958:10036   */\n      tag_313\n        /* \"#utility.yul\":10031:10035   */\n      dup2\n        /* \"#utility.yul\":10022:10028   */\n      dup5\n        /* \"#utility.yul\":9958:10036   */\n      tag_242\n      jump\t// in\n    tag_313:\n        /* \"#utility.yul\":9950:10036   */\n      swap1\n      pop\n        /* \"#utility.yul\":9607:10043   */\n      swap6\n      swap5\n      pop\n      pop\n      pop\n      pop\n      pop\n      jump\t// out\n        /* \"#utility.yul\":10049:10362   */\n    tag_30:\n      0x00\n        /* \"#utility.yul\":10200:10202   */\n      0x20\n        /* \"#utility.yul\":10189:10198   */\n      dup3\n        /* \"#utility.yul\":10185:10203   */\n      add\n        /* \"#utility.yul\":10177:10203   */\n      swap1\n      pop\n        /* \"#utility.yul\":10249:10258   */\n      dup2\n        /* \"#utility.yul\":10243:10247   */\n      dup2\n        /* \"#utility.yul\":10239:10259   */\n      sub\n        /* \"#utility.yul\":10235:10236   */\n      0x00\n        /* \"#utility.yul\":10224:10233   */\n      dup4\n        /* \"#utility.yul\":10220:10237   */\n      add\n        /* \"#utility.yul\":10213:10260   */\n      mstore\n        /* \"#utility.yul\":10277:10355   */\n      tag_315\n        /* \"#utility.yul\":10350:10354   */\n      dup2\n        /* \"#utility.yul\":10341:10347   */\n      dup5\n        /* \"#utility.yul\":10277:10355   */\n      tag_242\n      jump\t// in\n    tag_315:\n        /* \"#utility.yul\":10269:10355   */\n      swap1\n      pop\n        /* \"#utility.yul\":10167:10362   */\n      swap3\n      swap2\n      pop\n      pop\n      jump\t// out\n        /* \"#utility.yul\":10368:10787   */\n    tag_180:\n      0x00\n        /* \"#utility.yul\":10572:10574   */\n      0x20\n        /* \"#utility.yul\":10561:10570   */\n      dup3\n        /* \"#utility.yul\":10557:10575   */\n      add\n        /* \"#utility.yul\":10549:10575   */\n      swap1\n      pop\n        /* \"#utility.yul\":10621:10630   */\n      dup2\n        /* \"#utility.yul\":10615:10619   */\n      dup2\n        /* \"#utility.yul\":10611:10631   */\n      sub\n        /* \"#utility.yul\":10607:10608   */\n      0x00\n        /* \"#utility.yul\":10596:10605   */\n      dup4\n        /* \"#utility.yul\":10592:10609   */\n      add\n        /* \"#utility.yul\":10585:10632   */\n      mstore\n        /* \"#utility.yul\":10649:10780   */\n      tag_317\n        /* \"#utility.yul\":10775:10779   */\n      dup2\n        /* \"#utility.yul\":10649:10780   */\n      tag_270\n      jump\t// in\n    tag_317:\n        /* \"#utility.yul\":10641:10780   */\n      swap1\n      pop\n        /* \"#utility.yul\":10539:10787   */\n      swap2\n      swap1\n      pop\n      jump\t// out\n        /* \"#utility.yul\":10793:11212   */\n    tag_64:\n      0x00\n        /* \"#utility.yul\":10997:10999   */\n      0x20\n        /* \"#utility.yul\":10986:10995   */\n      dup3\n        /* \"#utility.yul\":10982:11000   */\n      add\n        /* \"#utility.yul\":10974:11000   */\n      swap1\n      pop\n        /* \"#utility.yul\":11046:11055   */\n      dup2\n        /* \"#utility.yul\":11040:11044   */\n      dup2\n        /* \"#utility.yul\":11036:11056   */\n      sub\n        /* \"#utility.yul\":11032:11033   */\n      0x00\n        /* \"#utility.yul\":11021:11030   */\n      dup4\n        /* \"#utility.yul\":11017:11034   */\n      add\n        /* \"#utility.yul\":11010:11057   */\n      mstore\n        /* \"#utility.yul\":11074:11205   */\n      tag_319\n        /* \"#utility.yul\":11200:11204   */\n      dup2\n        /* \"#utility.yul\":11074:11205   */\n      tag_273\n      jump\t// in\n    tag_319:\n        /* \"#utility.yul\":11066:11205   */\n      swap1\n      pop\n        /* \"#utility.yul\":10964:11212   */\n      swap2\n      swap1\n      pop\n      jump\t// out\n        /* \"#utility.yul\":11218:11637   */\n    tag_144:\n      0x00\n        /* \"#utility.yul\":11422:11424   */\n      0x20\n        /* \"#utility.yul\":11411:11420   */\n      dup3\n        /* \"#utility.yul\":11407:11425   */\n      add\n        /* \"#utility.yul\":11399:11425   */\n      swap1\n      pop\n        /* \"#utility.yul\":11471:11480   */\n      dup2\n        /* \"#utility.yul\":11465:11469   */\n      dup2\n        /* \"#utility.yul\":11461:11481   */\n      sub\n        /* \"#utility.yul\":11457:11458   */\n      0x00\n        /* \"#utility.yul\":11446:11455   */\n      dup4\n        /* \"#utility.yul\":11442:11459   */\n      add\n        /* \"#utility.yul\":11435:11482   */\n      mstore\n        /* \"#utility.yul\":11499:11630   */\n      tag_321\n        /* \"#utility.yul\":11625:11629   */\n      dup2\n        /* \"#utility.yul\":11499:11630   */\n      tag_276\n      jump\t// in\n    tag_321:\n        /* \"#utility.yul\":11491:11630   */\n      swap1\n      pop\n        /* \"#utility.yul\":11389:11637   */\n      swap2\n      swap1\n      pop\n      jump\t// out\n        /* \"#utility.yul\":11643:12062   */\n    tag_102:\n      0x00\n        /* \"#utility.yul\":11847:11849   */\n      0x20\n        /* \"#utility.yul\":11836:11845   */\n      dup3\n        /* \"#utility.yul\":11832:11850   */\n      add\n        /* \"#utility.yul\":11824:11850   */\n      swap1\n      pop\n        /* \"#utility.yul\":11896:11905   */\n      dup2\n        /* \"#utility.yul\":11890:11894   */\n      dup2\n        /* \"#utility.yul\":11886:11906   */\n      sub\n        /* \"#utility.yul\":11882:11883   */\n      0x00\n        /* \"#utility.yul\":11871:11880   */\n      dup4\n        /* \"#utility.yul\":11867:11884   */\n      add\n        /* \"#utility.yul\":11860:11907   */\n      mstore\n        /* \"#utility.yul\":11924:12055   */\n      tag_323\n        /* \"#utility.yul\":12050:12054   */\n      dup2\n        /* \"#utility.yul\":11924:12055   */\n      tag_279\n      jump\t// in\n    tag_323:\n        /* \"#utility.yul\":11916:12055   */\n      swap1\n      pop\n        /* \"#utility.yul\":11814:12062   */\n      swap2\n      swap1\n      pop\n      jump\t// out\n        /* \"#utility.yul\":12068:12487   */\n    tag_97:\n      0x00\n        /* \"#utility.yul\":12272:12274   */\n      0x20\n        /* \"#utility.yul\":12261:12270   */\n      dup3\n        /* \"#utility.yul\":12257:12275   */\n      add\n        /* \"#utility.yul\":12249:12275   */\n      swap1\n      pop\n        /* \"#utility.yul\":12321:12330   */\n      dup2\n        /* \"#utility.yul\":12315:12319   */\n      dup2\n        /* \"#utility.yul\":12311:12331   */\n      sub\n        /* \"#utility.yul\":12307:12308   */\n      0x00\n        /* \"#utility.yul\":12296:12305   */\n      dup4\n        /* \"#utility.yul\":12292:12309   */\n      add\n        /* \"#utility.yul\":12285:12332   */\n      mstore\n        /* \"#utility.yul\":12349:12480   */\n      tag_325\n        /* \"#utility.yul\":12475:12479   */\n      dup2\n        /* \"#utility.yul\":12349:12480   */\n      tag_282\n      jump\t// in\n    tag_325:\n        /* \"#utility.yul\":12341:12480   */\n      swap1\n      pop\n        /* \"#utility.yul\":12239:12487   */\n      swap2\n      swap1\n      pop\n      jump\t// out\n        /* \"#utility.yul\":12493:12912   */\n    tag_107:\n      0x00\n        /* \"#utility.yul\":12697:12699   */\n      0x20\n        /* \"#utility.yul\":12686:12695   */\n      dup3\n        /* \"#utility.yul\":12682:12700   */\n      add\n        /* \"#utility.yul\":12674:12700   */\n      swap1\n      pop\n        /* \"#utility.yul\":12746:12755   */\n      dup2\n        /* \"#utility.yul\":12740:12744   */\n      dup2\n        /* \"#utility.yul\":12736:12756   */\n      sub\n        /* \"#utility.yul\":12732:12733   */\n      0x00\n        /* \"#utility.yul\":12721:12730   */\n      dup4\n        /* \"#utility.yul\":12717:12734   */\n      add\n        /* \"#utility.yul\":12710:12757   */\n      mstore\n        /* \"#utility.yul\":12774:12905   */\n      tag_327\n        /* \"#utility.yul\":12900:12904   */\n      dup2\n        /* \"#utility.yul\":12774:12905   */\n      tag_285\n      jump\t// in\n    tag_327:\n        /* \"#utility.yul\":12766:12905   */\n      swap1\n      pop\n        /* \"#utility.yul\":12664:12912   */\n      swap2\n      swap1\n      pop\n      jump\t// out\n        /* \"#utility.yul\":12918:13337   */\n    tag_73:\n      0x00\n        /* \"#utility.yul\":13122:13124   */\n      0x20\n        /* \"#utility.yul\":13111:13120   */\n      dup3\n        /* \"#utility.yul\":13107:13125   */\n      add\n        /* \"#utility.yul\":13099:13125   */\n      swap1\n      pop\n        /* \"#utility.yul\":13171:13180   */\n      dup2\n        /* \"#utility.yul\":13165:13169   */\n      dup2\n        /* \"#utility.yul\":13161:13181   */\n      sub\n        /* \"#utility.yul\":13157:13158   */\n      0x00\n        /* \"#utility.yul\":13146:13155   */\n      dup4\n        /* \"#utility.yul\":13142:13159   */\n      add\n        /* \"#utility.yul\":13135:13182   */\n      mstore\n        /* \"#utility.yul\":13199:13330   */\n      tag_329\n        /* \"#utility.yul\":13325:13329   */\n      dup2\n        /* \"#utility.yul\":13199:13330   */\n      tag_288\n      jump\t// in\n    tag_329:\n        /* \"#utility.yul\":13191:13330   */\n      swap1\n      pop\n        /* \"#utility.yul\":13089:13337   */\n      swap2\n      swap1\n      pop\n      jump\t// out\n        /* \"#utility.yul\":13343:13762   */\n    tag_55:\n      0x00\n        /* \"#utility.yul\":13547:13549   */\n      0x20\n        /* \"#utility.yul\":13536:13545   */\n      dup3\n        /* \"#utility.yul\":13532:13550   */\n      add\n        /* \"#utility.yul\":13524:13550   */\n      swap1\n      pop\n        /* \"#utility.yul\":13596:13605   */\n      dup2\n        /* \"#utility.yul\":13590:13594   */\n      dup2\n        /* \"#utility.yul\":13586:13606   */\n      sub\n        /* \"#utility.yul\":13582:13583   */\n      0x00\n        /* \"#utility.yul\":13571:13580   */\n      dup4\n        /* \"#utility.yul\":13567:13584   */\n      add\n        /* \"#utility.yul\":13560:13607   */\n      mstore\n        /* \"#utility.yul\":13624:13755   */\n      tag_331\n        /* \"#utility.yul\":13750:13754   */\n      dup2\n        /* \"#utility.yul\":13624:13755   */\n      tag_291\n      jump\t// in\n    tag_331:\n        /* \"#utility.yul\":13616:13755   */\n      swap1\n      pop\n        /* \"#utility.yul\":13514:13762   */\n      swap2\n      swap1\n      pop\n      jump\t// out\n        /* \"#utility.yul\":13768:14187   */\n    tag_59:\n      0x00\n        /* \"#utility.yul\":13972:13974   */\n      0x20\n        /* \"#utility.yul\":13961:13970   */\n      dup3\n        /* \"#utility.yul\":13957:13975   */\n      add\n        /* \"#utility.yul\":13949:13975   */\n      swap1\n      pop\n        /* \"#utility.yul\":14021:14030   */\n      dup2\n        /* \"#utility.yul\":14015:14019   */\n      dup2\n        /* \"#utility.yul\":14011:14031   */\n      sub\n        /* \"#utility.yul\":14007:14008   */\n      0x00\n        /* \"#utility.yul\":13996:14005   */\n      dup4\n        /* \"#utility.yul\":13992:14009   */\n      add\n        /* \"#utility.yul\":13985:14032   */\n      mstore\n        /* \"#utility.yul\":14049:14180   */\n      tag_333\n        /* \"#utility.yul\":14175:14179   */\n      dup2\n        /* \"#utility.yul\":14049:14180   */\n      tag_294\n      jump\t// in\n    tag_333:\n        /* \"#utility.yul\":14041:14180   */\n      swap1\n      pop\n        /* \"#utility.yul\":13939:14187   */\n      swap2\n      swap1\n      pop\n      jump\t// out\n        /* \"#utility.yul\":14193:14415   */\n    tag_34:\n      0x00\n        /* \"#utility.yul\":14324:14326   */\n      0x20\n        /* \"#utility.yul\":14313:14322   */\n      dup3\n        /* \"#utility.yul\":14309:14327   */\n      add\n        /* \"#utility.yul\":14301:14327   */\n      swap1\n      pop\n        /* \"#utility.yul\":14337:14408   */\n      tag_335\n        /* \"#utility.yul\":14405:14406   */\n      0x00\n        /* \"#utility.yul\":14394:14403   */\n      dup4\n        /* \"#utility.yul\":14390:14407   */\n      add\n        /* \"#utility.yul\":14381:14387   */\n      dup5\n        /* \"#utility.yul\":14337:14408   */\n      tag_297\n      jump\t// in\n    tag_335:\n        /* \"#utility.yul\":14291:14415   */\n      swap3\n      swap2\n      pop\n      pop\n      jump\t// out\n        /* \"#utility.yul\":14421:14704   */\n    tag_197:\n      0x00\n        /* \"#utility.yul\":14487:14489   */\n      0x40\n        /* \"#utility.yul\":14481:14490   */\n      mload\n        /* \"#utility.yul\":14471:14490   */\n      swap1\n      pop\n        /* \"#utility.yul\":14529:14533   */\n      dup2\n        /* \"#utility.yul\":14521:14527   */\n      dup2\n        /* \"#utility.yul\":14517:14534   */\n      add\n        /* \"#utility.yul\":14636:14642   */\n      dup2\n        /* \"#utility.yul\":14624:14634   */\n      dup2\n        /* \"#utility.yul\":14621:14643   */\n      lt\n        /* \"#utility.yul\":14600:14618   */\n      0xffffffffffffffff\n        /* \"#utility.yul\":14588:14598   */\n      dup3\n        /* \"#utility.yul\":14585:14619   */\n      gt\n        /* \"#utility.yul\":14582:14644   */\n      or\n        /* \"#utility.yul\":14579:14581   */\n      iszero\n      tag_337\n      jumpi\n        /* \"#utility.yul\":14647:14665   */\n      tag_338\n      tag_339\n      jump\t// in\n    tag_338:\n        /* \"#utility.yul\":14579:14581   */\n    tag_337:\n        /* \"#utility.yul\":14687:14697   */\n      dup1\n        /* \"#utility.yul\":14683:14685   */\n      0x40\n        /* \"#utility.yul\":14676:14698   */\n      mstore\n        /* \"#utility.yul\":14461:14704   */\n      pop\n      swap2\n      swap1\n      pop\n      jump\t// out\n        /* \"#utility.yul\":14710:15042   */\n    tag_196:\n      0x00\n        /* \"#utility.yul\":14862:14880   */\n      0xffffffffffffffff\n        /* \"#utility.yul\":14854:14860   */\n      dup3\n        /* \"#utility.yul\":14851:14881   */\n      gt\n        /* \"#utility.yul\":14848:14850   */\n      iszero\n      tag_341\n      jumpi\n        /* \"#utility.yul\":14884:14902   */\n      tag_342\n      tag_339\n      jump\t// in\n    tag_342:\n        /* \"#utility.yul\":14848:14850   */\n    tag_341:\n        /* \"#utility.yul\":14969:14973   */\n      0x1f\n        /* \"#utility.yul\":14965:14974   */\n      not\n        /* \"#utility.yul\":14958:14962   */\n      0x1f\n        /* \"#utility.yul\":14950:14956   */\n      dup4\n        /* \"#utility.yul\":14946:14963   */\n      add\n        /* \"#utility.yul\":14942:14975   */\n      and\n        /* \"#utility.yul\":14934:14975   */\n      swap1\n      pop\n        /* \"#utility.yul\":15030:15034   */\n      0x20\n        /* \"#utility.yul\":15024:15028   */\n      dup2\n        /* \"#utility.yul\":15020:15035   */\n      add\n        /* \"#utility.yul\":15012:15035   */\n      swap1\n      pop\n        /* \"#utility.yul\":14777:15042   */\n      swap2\n      swap1\n      pop\n      jump\t// out\n        /* \"#utility.yul\":15048:15189   */\n    tag_266:\n      0x00\n        /* \"#utility.yul\":15120:15123   */\n      dup2\n        /* \"#utility.yul\":15112:15123   */\n      swap1\n      pop\n        /* \"#utility.yul\":15143:15146   */\n      dup2\n        /* \"#utility.yul\":15140:15141   */\n      0x00\n        /* \"#utility.yul\":15133:15147   */\n      mstore\n        /* \"#utility.yul\":15177:15181   */\n      0x20\n        /* \"#utility.yul\":15174:15175   */\n      0x00\n        /* \"#utility.yul\":15164:15182   */\n      keccak256\n        /* \"#utility.yul\":15156:15182   */\n      swap1\n      pop\n        /* \"#utility.yul\":15102:15189   */\n      swap2\n      swap1\n      pop\n      jump\t// out\n        /* \"#utility.yul\":15195:15294   */\n    tag_245:\n      0x00\n        /* \"#utility.yul\":15281:15286   */\n      dup2\n        /* \"#utility.yul\":15275:15287   */\n      mload\n        /* \"#utility.yul\":15265:15287   */\n      swap1\n      pop\n        /* \"#utility.yul\":15254:15294   */\n      swap2\n      swap1\n      pop\n      jump\t// out\n        /* \"#utility.yul\":15300:15469   */\n    tag_247:\n      0x00\n        /* \"#utility.yul\":15418:15424   */\n      dup3\n        /* \"#utility.yul\":15413:15416   */\n      dup3\n        /* \"#utility.yul\":15406:15425   */\n      mstore\n        /* \"#utility.yul\":15458:15462   */\n      0x20\n        /* \"#utility.yul\":15453:15456   */\n      dup3\n        /* \"#utility.yul\":15449:15463   */\n      add\n        /* \"#utility.yul\":15434:15463   */\n      swap1\n      pop\n        /* \"#utility.yul\":15396:15469   */\n      swap3\n      swap2\n      pop\n      pop\n      jump\t// out\n        /* \"#utility.yul\":15475:15623   */\n    tag_256:\n      0x00\n        /* \"#utility.yul\":15614:15617   */\n      dup2\n        /* \"#utility.yul\":15599:15617   */\n      swap1\n      pop\n        /* \"#utility.yul\":15589:15623   */\n      swap3\n      swap2\n      pop\n      pop\n      jump\t// out\n        /* \"#utility.yul\":15629:15820   */\n    tag_119:\n      0x00\n        /* \"#utility.yul\":15689:15709   */\n      tag_348\n        /* \"#utility.yul\":15707:15708   */\n      dup3\n        /* \"#utility.yul\":15689:15709   */\n      tag_300\n      jump\t// in\n    tag_348:\n        /* \"#utility.yul\":15684:15709   */\n      swap2\n      pop\n        /* \"#utility.yul\":15723:15743   */\n      tag_349\n        /* \"#utility.yul\":15741:15742   */\n      dup4\n        /* \"#utility.yul\":15723:15743   */\n      tag_300\n      jump\t// in\n    tag_349:\n        /* \"#utility.yul\":15718:15743   */\n      swap3\n      pop\n        /* \"#utility.yul\":15762:15763   */\n      dup3\n        /* \"#utility.yul\":15759:15760   */\n      dup3\n        /* \"#utility.yul\":15756:15764   */\n      lt\n        /* \"#utility.yul\":15753:15755   */\n      iszero\n      tag_350\n      jumpi\n        /* \"#utility.yul\":15767:15785   */\n      tag_351\n      tag_352\n      jump\t// in\n    tag_351:\n        /* \"#utility.yul\":15753:15755   */\n    tag_350:\n        /* \"#utility.yul\":15812:15813   */\n      dup3\n        /* \"#utility.yul\":15809:15810   */\n      dup3\n        /* \"#utility.yul\":15805:15814   */\n      sub\n        /* \"#utility.yul\":15797:15814   */\n      swap1\n      pop\n        /* \"#utility.yul\":15674:15820   */\n      swap3\n      swap2\n      pop\n      pop\n      jump\t// out\n        /* \"#utility.yul\":15826:15922   */\n    tag_237:\n      0x00\n        /* \"#utility.yul\":15892:15916   */\n      tag_354\n        /* \"#utility.yul\":15910:15915   */\n      dup3\n        /* \"#utility.yul\":15892:15916   */\n      tag_355\n      jump\t// in\n    tag_354:\n        /* \"#utility.yul\":15881:15916   */\n      swap1\n      pop\n        /* \"#utility.yul\":15871:15922   */\n      swap2\n      swap1\n      pop\n      jump\t// out\n        /* \"#utility.yul\":15928:16018   */\n    tag_241:\n      0x00\n        /* \"#utility.yul\":16005:16010   */\n      dup2\n        /* \"#utility.yul\":15998:16011   */\n      iszero\n        /* \"#utility.yul\":15991:16012   */\n      iszero\n        /* \"#utility.yul\":15980:16012   */\n      swap1\n      pop\n        /* \"#utility.yul\":15970:16018   */\n      swap2\n      swap1\n      pop\n      jump\t// out\n        /* \"#utility.yul\":16024:16150   */\n    tag_355:\n      0x00\n        /* \"#utility.yul\":16101:16143   */\n      0xffffffffffffffffffffffffffffffffffffffff\n        /* \"#utility.yul\":16094:16099   */\n      dup3\n        /* \"#utility.yul\":16090:16144   */\n      and\n        /* \"#utility.yul\":16079:16144   */\n      swap1\n      pop\n        /* \"#utility.yul\":16069:16150   */\n      swap2\n      swap1\n      pop\n      jump\t// out\n        /* \"#utility.yul\":16156:16233   */\n    tag_300:\n      0x00\n        /* \"#utility.yul\":16222:16227   */\n      dup2\n        /* \"#utility.yul\":16211:16227   */\n      swap1\n      pop\n        /* \"#utility.yul\":16201:16233   */\n      swap2\n      swap1\n      pop\n      jump\t// out\n        /* \"#utility.yul\":16239:16393   */\n    tag_200:\n        /* \"#utility.yul\":16323:16329   */\n      dup3\n        /* \"#utility.yul\":16318:16321   */\n      dup2\n        /* \"#utility.yul\":16313:16316   */\n      dup4\n        /* \"#utility.yul\":16300:16330   */\n      calldatacopy\n        /* \"#utility.yul\":16385:16386   */\n      0x00\n        /* \"#utility.yul\":16376:16382   */\n      dup4\n        /* \"#utility.yul\":16371:16374   */\n      dup4\n        /* \"#utility.yul\":16367:16383   */\n      add\n        /* \"#utility.yul\":16360:16387   */\n      mstore\n        /* \"#utility.yul\":16290:16393   */\n      pop\n      pop\n      pop\n      jump\t// out\n        /* \"#utility.yul\":16399:16706   */\n    tag_249:\n        /* \"#utility.yul\":16467:16468   */\n      0x00\n        /* \"#utility.yul\":16477:16590   */\n    tag_361:\n        /* \"#utility.yul\":16491:16497   */\n      dup4\n        /* \"#utility.yul\":16488:16489   */\n      dup2\n        /* \"#utility.yul\":16485:16498   */\n      lt\n        /* \"#utility.yul\":16477:16590   */\n      iszero\n      tag_363\n      jumpi\n        /* \"#utility.yul\":16576:16577   */\n      dup1\n        /* \"#utility.yul\":16571:16574   */\n      dup3\n        /* \"#utility.yul\":16567:16578   */\n      add\n        /* \"#utility.yul\":16561:16579   */\n      mload\n        /* \"#utility.yul\":16557:16558   */\n      dup2\n        /* \"#utility.yul\":16552:16555   */\n      dup5\n        /* \"#utility.yul\":16548:16559   */\n      add\n        /* \"#utility.yul\":16541:16580   */\n      mstore\n        /* \"#utility.yul\":16513:16515   */\n      0x20\n        /* \"#utility.yul\":16510:16511   */\n      dup2\n        /* \"#utility.yul\":16506:16516   */\n      add\n        /* \"#utility.yul\":16501:16516   */\n      swap1\n      pop\n        /* \"#utility.yul\":16477:16590   */\n      jump(tag_361)\n    tag_363:\n        /* \"#utility.yul\":16608:16614   */\n      dup4\n        /* \"#utility.yul\":16605:16606   */\n      dup2\n        /* \"#utility.yul\":16602:16615   */\n      gt\n        /* \"#utility.yul\":16599:16601   */\n      iszero\n      tag_364\n      jumpi\n        /* \"#utility.yul\":16688:16689   */\n      0x00\n        /* \"#utility.yul\":16679:16685   */\n      dup5\n        /* \"#utility.yul\":16674:16677   */\n      dup5\n        /* \"#utility.yul\":16670:16686   */\n      add\n        /* \"#utility.yul\":16663:16690   */\n      mstore\n        /* \"#utility.yul\":16599:16601   */\n    tag_364:\n        /* \"#utility.yul\":16448:16706   */\n      pop\n      pop\n      pop\n      pop\n      jump\t// out\n        /* \"#utility.yul\":16712:16883   */\n    tag_130:\n      0x00\n        /* \"#utility.yul\":16774:16798   */\n      tag_366\n        /* \"#utility.yul\":16792:16797   */\n      dup3\n        /* \"#utility.yul\":16774:16798   */\n      tag_300\n      jump\t// in\n    tag_366:\n        /* \"#utility.yul\":16765:16798   */\n      swap2\n      pop\n        /* \"#utility.yul\":16820:16824   */\n      0x00\n        /* \"#utility.yul\":16813:16818   */\n      dup3\n        /* \"#utility.yul\":16810:16825   */\n      eq\n        /* \"#utility.yul\":16807:16809   */\n      iszero\n      tag_367\n      jumpi\n        /* \"#utility.yul\":16828:16846   */\n      tag_368\n      tag_352\n      jump\t// in\n    tag_368:\n        /* \"#utility.yul\":16807:16809   */\n    tag_367:\n        /* \"#utility.yul\":16875:16876   */\n      0x01\n        /* \"#utility.yul\":16868:16873   */\n      dup3\n        /* \"#utility.yul\":16864:16877   */\n      sub\n        /* \"#utility.yul\":16857:16877   */\n      swap1\n      pop\n        /* \"#utility.yul\":16755:16883   */\n      swap2\n      swap1\n      pop\n      jump\t// out\n        /* \"#utility.yul\":16889:17209   */\n    tag_78:\n      0x00\n        /* \"#utility.yul\":16970:16971   */\n      0x02\n        /* \"#utility.yul\":16964:16968   */\n      dup3\n        /* \"#utility.yul\":16960:16972   */\n      div\n        /* \"#utility.yul\":16950:16972   */\n      swap1\n      pop\n        /* \"#utility.yul\":17017:17018   */\n      0x01\n        /* \"#utility.yul\":17011:17015   */\n      dup3\n        /* \"#utility.yul\":17007:17019   */\n      and\n        /* \"#utility.yul\":17038:17056   */\n      dup1\n        /* \"#utility.yul\":17028:17030   */\n      tag_370\n      jumpi\n        /* \"#utility.yul\":17094:17098   */\n      0x7f\n        /* \"#utility.yul\":17086:17092   */\n      dup3\n        /* \"#utility.yul\":17082:17099   */\n      and\n        /* \"#utility.yul\":17072:17099   */\n      swap2\n      pop\n        /* \"#utility.yul\":17028:17030   */\n    tag_370:\n        /* \"#utility.yul\":17156:17158   */\n      0x20\n        /* \"#utility.yul\":17148:17154   */\n      dup3\n        /* \"#utility.yul\":17145:17159   */\n      lt\n        /* \"#utility.yul\":17125:17143   */\n      dup2\n        /* \"#utility.yul\":17122:17160   */\n      eq\n        /* \"#utility.yul\":17119:17121   */\n      iszero\n      tag_371\n      jumpi\n        /* \"#utility.yul\":17175:17193   */\n      tag_372\n      tag_373\n      jump\t// in\n    tag_372:\n        /* \"#utility.yul\":17119:17121   */\n    tag_371:\n        /* \"#utility.yul\":16940:17209   */\n      pop\n      swap2\n      swap1\n      pop\n      jump\t// out\n        /* \"#utility.yul\":17215:17448   */\n    tag_168:\n      0x00\n        /* \"#utility.yul\":17277:17301   */\n      tag_375\n        /* \"#utility.yul\":17295:17300   */\n      dup3\n        /* \"#utility.yul\":17277:17301   */\n      tag_300\n      jump\t// in\n    tag_375:\n        /* \"#utility.yul\":17268:17301   */\n      swap2\n      pop\n        /* \"#utility.yul\":17323:17389   */\n      0xffffffffffffffffffffffffffffffffffffffffffffffffffffffffffffffff\n        /* \"#utility.yul\":17316:17321   */\n      dup3\n        /* \"#utility.yul\":17313:17390   */\n      eq\n        /* \"#utility.yul\":17310:17312   */\n      iszero\n      tag_376\n      jumpi\n        /* \"#utility.yul\":17393:17411   */\n      tag_377\n      tag_352\n      jump\t// in\n    tag_377:\n        /* \"#utility.yul\":17310:17312   */\n    tag_376:\n        /* \"#utility.yul\":17440:17441   */\n      0x01\n        /* \"#utility.yul\":17433:17438   */\n      dup3\n        /* \"#utility.yul\":17429:17442   */\n      add\n        /* \"#utility.yul\":17422:17442   */\n      swap1\n      pop\n        /* \"#utility.yul\":17258:17448   */\n      swap2\n      swap1\n      pop\n      jump\t// out\n        /* \"#utility.yul\":17454:17634   */\n    tag_352:\n        /* \"#utility.yul\":17502:17579   */\n      0x4e487b7100000000000000000000000000000000000000000000000000000000\n        /* \"#utility.yul\":17499:17500   */\n      0x00\n        /* \"#utility.yul\":17492:17580   */\n      mstore\n        /* \"#utility.yul\":17599:17603   */\n      0x11\n        /* \"#utility.yul\":17596:17597   */\n      0x04\n        /* \"#utility.yul\":17589:17604   */\n      mstore\n        /* \"#utility.yul\":17623:17627   */\n      0x24\n        /* \"#utility.yul\":17620:17621   */\n      0x00\n        /* \"#utility.yul\":17613:17628   */\n      revert\n        /* \"#utility.yul\":17640:17820   */\n    tag_373:\n        /* \"#utility.yul\":17688:17765   */\n      0x4e487b7100000000000000000000000000000000000000000000000000000000\n        /* \"#utility.yul\":17685:17686   */\n      0x00\n        /* \"#utility.yul\":17678:17766   */\n      mstore\n        /* \"#utility.yul\":17785:17789   */\n      0x22\n        /* \"#utility.yul\":17782:17783   */\n      0x04\n        /* \"#utility.yul\":17775:17790   */\n      mstore\n        /* \"#utility.yul\":17809:17813   */\n      0x24\n        /* \"#utility.yul\":17806:17807   */\n      0x00\n        /* \"#utility.yul\":17799:17814   */\n      revert\n        /* \"#utility.yul\":17826:18006   */\n    tag_339:\n        /* \"#utility.yul\":17874:17951   */\n      0x4e487b7100000000000000000000000000000000000000000000000000000000\n        /* \"#utility.yul\":17871:17872   */\n      0x00\n        /* \"#utility.yul\":17864:17952   */\n      mstore\n        /* \"#utility.yul\":17971:17975   */\n      0x41\n        /* \"#utility.yul\":17968:17969   */\n      0x04\n        /* \"#utility.yul\":17961:17976   */\n      mstore\n        /* \"#utility.yul\":17995:17999   */\n      0x24\n        /* \"#utility.yul\":17992:17993   */\n      0x00\n        /* \"#utility.yul\":17985:18000   */\n      revert\n        /* \"#utility.yul\":18012:18114   */\n    tag_251:\n      0x00\n        /* \"#utility.yul\":18104:18106   */\n      0x1f\n        /* \"#utility.yul\":18100:18107   */\n      not\n        /* \"#utility.yul\":18095:18097   */\n      0x1f\n        /* \"#utility.yul\":18088:18093   */\n      dup4\n        /* \"#utility.yul\":18084:18098   */\n      add\n        /* \"#utility.yul\":18080:18108   */\n      and\n        /* \"#utility.yul\":18070:18108   */\n      swap1\n      pop\n        /* \"#utility.yul\":18060:18114   */\n      swap2\n      swap1\n      pop\n      jump\t// out\n        /* \"#utility.yul\":18120:18236   */\n    tag_204:\n        /* \"#utility.yul\":18190:18211   */\n      tag_383\n        /* \"#utility.yul\":18205:18210   */\n      dup2\n        /* \"#utility.yul\":18190:18211   */\n      tag_241\n      jump\t// in\n    tag_383:\n        /* \"#utility.yul\":18183:18188   */\n      dup2\n        /* \"#utility.yul\":18180:18212   */\n      eq\n        /* \"#utility.yul\":18170:18172   */\n      tag_384\n      jumpi\n        /* \"#utility.yul\":18226:18227   */\n      0x00\n        /* \"#utility.yul\":18223:18224   */\n      dup1\n        /* \"#utility.yul\":18216:18228   */\n      revert\n        /* \"#utility.yul\":18170:18172   */\n    tag_384:\n        /* \"#utility.yul\":18160:18236   */\n      pop\n      jump\t// out\n        /* \"#utility.yul\":18242:18364   */\n    tag_212:\n        /* \"#utility.yul\":18315:18339   */\n      tag_386\n        /* \"#utility.yul\":18333:18338   */\n      dup2\n        /* \"#utility.yul\":18315:18339   */\n      tag_300\n      jump\t// in\n    tag_386:\n        /* \"#utility.yul\":18308:18313   */\n      dup2\n        /* \"#utility.yul\":18305:18340   */\n      eq\n        /* \"#utility.yul\":18295:18297   */\n      tag_387\n      jumpi\n        /* \"#utility.yul\":18354:18355   */\n      0x00\n        /* \"#utility.yul\":18351:18352   */\n      dup1\n        /* \"#utility.yul\":18344:18356   */\n      revert\n        /* \"#utility.yul\":18295:18297   */\n    tag_387:\n        /* \"#utility.yul\":18285:18364   */\n      pop\n      jump\t// out\n\n    auxdata: 0xa2646970667358221220cacfecc9df9699c08188e384dd7aeb74620af82246b89cd725b9319d9f2dbcfa64736f6c63430008000033\n}\n",
				"bytecode": {
					"linkReferences": {},
					"object": "608060405260016000806101000a81548160ff0219169083151502179055504260015534801561002e57600080fd5b5033600060016101000a81548173ffffffffffffffffffffffffffffffffffffffff021916908373ffffffffffffffffffffffffffffffffffffffff160217905550611e9f8061007f6000396000f3fe608060405234801561001057600080fd5b50600436106100935760003560e01c80636f70a52e116100665780636f70a52e1461011e57806395be551a1461013c578063a18cc13b14610158578063d4d23a6e14610176578063e7d4296a1461019257610093565b80630694952d146100985780631509d30c146100b65780631c18379a146100d25780634d7e6726146100ee575b600080fd5b6100a06101c5565b6040516100ad91906119be565b60405180910390f35b6100d060048036038101906100cb91906113e2565b6101eb565b005b6100ec60048036038101906100e7919061140b565b610297565b005b61010860048036038101906101039190611477565b6104d6565b6040516101159190611a40565b60405180910390f35b6101266107fe565b6040516101339190611b82565b60405180910390f35b610156600480360381019061015191906114f4565b610804565b005b610160610d09565b60405161016d91906119d9565b60405180910390f35b610190600480360381019061018b91906114a0565b610d1a565b005b6101ac60048036038101906101a79190611477565b610f96565b6040516101bc94939291906119f4565b60405180910390f35b600060019054906101000a900473ffffffffffffffffffffffffffffffffffffffff1681565b600060019054906101000a900473ffffffffffffffffffffffffffffffffffffffff1673ffffffffffffffffffffffffffffffffffffffff163373ffffffffffffffffffffffffffffffffffffffff161461027b576040517f08c379a000000000000000000000000000000000000000000000000000000000815260040161027290611b42565b60405180910390fd5b806000806101000a81548160ff02191690831515021790555050565b6001151560008054906101000a900460ff161515146102eb576040517f08c379a00000000000000000000000000000000000000000000000000000000081526004016102e290611b62565b60405180910390fd5b6102f48261108b565b15610334576040517f08c379a000000000000000000000000000000000000000000000000000000000815260040161032b90611a82565b60405180910390fd5b60006002600181600181540180825580915050039060005260206000209060040201905060018160000160006101000a81548160ff021916908315150217905550338160000160016101000a81548173ffffffffffffffffffffffffffffffffffffffff021916908373ffffffffffffffffffffffffffffffffffffffff160217905550428160010181905550828160020190805190602001906103d992919061126d565b508060030160405180608001604052806001151581526020013373ffffffffffffffffffffffffffffffffffffffff16815260200142815260200184815250908060018154018082558091505060019003906000526020600020906003020160009091909190915060008201518160000160006101000a81548160ff02191690831515021790555060208201518160000160016101000a81548173ffffffffffffffffffffffffffffffffffffffff021916908373ffffffffffffffffffffffffffffffffffffffff1602179055506040820151816001015560608201518160020190805190602001906104ce92919061126d565b505050505050565b6060600280549050821061051f576040517f08c379a000000000000000000000000000000000000000000000000000000000815260040161051690611b22565b60405180910390fd5b6107f36002838154811061055c577f4e487b7100000000000000000000000000000000000000000000000000000000600052603260045260246000fd5b90600052602060002090600402016040518060a00160405290816000820160009054906101000a900460ff161515151581526020016000820160019054906101000a900473ffffffffffffffffffffffffffffffffffffffff1673ffffffffffffffffffffffffffffffffffffffff1673ffffffffffffffffffffffffffffffffffffffff1681526020016001820154815260200160028201805461060090611d22565b80601f016020809104026020016040519081016040528092919081815260200182805461062c90611d22565b80156106795780601f1061064e57610100808354040283529160200191610679565b820191906000526020600020905b81548152906001019060200180831161065c57829003601f168201915b5050505050815260200160038201805480602002602001604051908101604052809291908181526020016000905b828210156107e657838290600052602060002090600302016040518060800160405290816000820160009054906101000a900460ff161515151581526020016000820160019054906101000a900473ffffffffffffffffffffffffffffffffffffffff1673ffffffffffffffffffffffffffffffffffffffff1673ffffffffffffffffffffffffffffffffffffffff1681526020016001820154815260200160028201805461075590611d22565b80601f016020809104026020016040519081016040528092919081815260200182805461078190611d22565b80156107ce5780601f106107a3576101008083540402835291602001916107ce565b820191906000526020600020905b8154815290600101906020018083116107b157829003601f168201915b505050505081525050815260200190600101906106a7565b5050505081525050611166565b606001519050919050565b60015481565b6001151560008054906101000a900460ff16151514610858576040517f08c379a000000000000000000000000000000000000000000000000000000000815260040161084f90611b62565b60405180910390fd5b600280549050821061089f576040517f08c379a000000000000000000000000000000000000000000000000000000000815260040161089690611ae2565b60405180910390fd5b60011515600283815481106108dd577f4e487b7100000000000000000000000000000000000000000000000000000000600052603260045260246000fd5b906000526020600020906004020160000160009054906101000a900460ff1615151461093e576040517f08c379a000000000000000000000000000000000000000000000000000000000815260040161093590611ac2565b60405180910390fd5b60028281548110610978577f4e487b7100000000000000000000000000000000000000000000000000000000600052603260045260246000fd5b90600052602060002090600402016003018054905081106109ce576040517f08c379a00000000000000000000000000000000000000000000000000000000081526004016109c590611b02565b60405180910390fd5b60028281548110610a08577f4e487b7100000000000000000000000000000000000000000000000000000000600052603260045260246000fd5b90600052602060002090600402016003018181548110610a51577f4e487b7100000000000000000000000000000000000000000000000000000000600052603260045260246000fd5b906000526020600020906003020160000160009054906101000a900460ff1615610a7a57610d05565b600060028381548110610ab6577f4e487b7100000000000000000000000000000000000000000000000000000000600052603260045260246000fd5b90600052602060002090600402016003018054905090505b6000811115610c56576000600182610ae69190611c3a565b905060028481548110610b22577f4e487b7100000000000000000000000000000000000000000000000000000000600052603260045260246000fd5b90600052602060002090600402016003018181548110610b6b577f4e487b7100000000000000000000000000000000000000000000000000000000600052603260045260246000fd5b906000526020600020906003020160000160009054906101000a900460ff1615610c4257600060028581548110610bcb577f4e487b7100000000000000000000000000000000000000000000000000000000600052603260045260246000fd5b90600052602060002090600402016003018281548110610c14577f4e487b7100000000000000000000000000000000000000000000000000000000600052603260045260246000fd5b906000526020600020906003020160000160006101000a81548160ff02191690831515021790555050610c56565b508080610c4e90611cf8565b915050610ace565b50600160028381548110610c93577f4e487b7100000000000000000000000000000000000000000000000000000000600052603260045260246000fd5b90600052602060002090600402016003018281548110610cdc577f4e487b7100000000000000000000000000000000000000000000000000000000600052603260045260246000fd5b906000526020600020906003020160000160006101000a81548160ff0219169083151502179055505b5050565b60008054906101000a900460ff1681565b6001151560008054906101000a900460ff16151514610d6e576040517f08c379a0000000000000000000000000000000000000000000000000000000008152600401610d6590611b62565b60405180910390fd5b6002805490508210610db5576040517f08c379a0000000000000000000000000000000000000000000000000000000008152600401610dac90611b22565b60405180910390fd5b6001151560028381548110610df3577f4e487b7100000000000000000000000000000000000000000000000000000000600052603260045260246000fd5b906000526020600020906004020160000160009054906101000a900460ff16151514610e54576040517f08c379a0000000000000000000000000000000000000000000000000000000008152600401610e4b90611aa2565b60405180910390fd5b60028281548110610e8e577f4e487b7100000000000000000000000000000000000000000000000000000000600052603260045260246000fd5b906000526020600020906004020160030160405180608001604052806000151581526020013373ffffffffffffffffffffffffffffffffffffffff16815260200142815260200183815250908060018154018082558091505060019003906000526020600020906003020160009091909190915060008201518160000160006101000a81548160ff02191690831515021790555060208201518160000160016101000a81548173ffffffffffffffffffffffffffffffffffffffff021916908373ffffffffffffffffffffffffffffffffffffffff160217905550604082015181600101556060820151816002019080519060200190610f8f92919061126d565b5050505050565b60028181548110610fa657600080fd5b90600052602060002090600402016000915090508060000160009054906101000a900460ff16908060000160019054906101000a900473ffffffffffffffffffffffffffffffffffffffff169080600101549080600201805461100890611d22565b80601f016020809104026020016040519081016040528092919081815260200182805461103490611d22565b80156110815780601f1061105657610100808354040283529160200191611081565b820191906000526020600020905b81548152906001019060200180831161106457829003601f168201915b5050505050905084565b600080600090505b60028054905081101561115b57826040516020016110b19190611990565b6040516020818303038152906040528051906020012060028281548110611101577f4e487b7100000000000000000000000000000000000000000000000000000000600052603260045260246000fd5b906000526020600020906004020160020160405160200161112291906119a7565b604051602081830303815290604052805190602001201415611148576001915050611161565b808061115390611d54565b915050611093565b50600090505b919050565b61116e6112f3565b60005b82608001515181101561122c57826080015181815181106111bb577f4e487b7100000000000000000000000000000000000000000000000000000000600052603260045260246000fd5b602002602001015160000151156112195782608001518181518110611209577f4e487b7100000000000000000000000000000000000000000000000000000000600052603260045260246000fd5b6020026020010151915050611268565b808061122490611d54565b915050611171565b506040517f08c379a000000000000000000000000000000000000000000000000000000000815260040161125f90611a62565b60405180910390fd5b919050565b82805461127990611d22565b90600052602060002090601f01602090048101928261129b57600085556112e2565b82601f106112b457805160ff19168380011785556112e2565b828001600101855582156112e2579182015b828111156112e15782518255916020019190600101906112c6565b5b5090506112ef9190611333565b5090565b6040518060800160405280600015158152602001600073ffffffffffffffffffffffffffffffffffffffff16815260200160008152602001606081525090565b5b8082111561134c576000816000905550600101611334565b5090565b600061136361135e84611bce565b611b9d565b90508281526020810184848401111561137b57600080fd5b611386848285611cb6565b509392505050565b60008135905061139d81611e3b565b92915050565b600082601f8301126113b457600080fd5b81356113c4848260208601611350565b91505092915050565b6000813590506113dc81611e52565b92915050565b6000602082840312156113f457600080fd5b60006114028482850161138e565b91505092915050565b6000806040838503121561141e57600080fd5b600083013567ffffffffffffffff81111561143857600080fd5b611444858286016113a3565b925050602083013567ffffffffffffffff81111561146157600080fd5b61146d858286016113a3565b9150509250929050565b60006020828403121561148957600080fd5b6000611497848285016113cd565b91505092915050565b600080604083850312156114b357600080fd5b60006114c1858286016113cd565b925050602083013567ffffffffffffffff8111156114de57600080fd5b6114ea858286016113a3565b9150509250929050565b6000806040838503121561150757600080fd5b6000611515858286016113cd565b9250506020611526858286016113cd565b9150509250929050565b61153981611c6e565b82525050565b61154881611c80565b82525050565b600061155982611c13565b6115638185611c1e565b9350611573818560208601611cc5565b61157c81611e2a565b840191505092915050565b600061159282611c13565b61159c8185611c2f565b93506115ac818560208601611cc5565b80840191505092915050565b600081546115c581611d22565b6115cf8186611c2f565b945060018216600081146115ea57600181146115fb5761162e565b60ff1983168652818601935061162e565b61160485611bfe565b60005b8381101561162657815481890152600182019150602081019050611607565b838801955050505b50505092915050565b6000611644602083611c1e565b91507f4e656e68756d612076657273616f2076616c69646120656e636f6e74726164616000830152602082019050919050565b6000611684602483611c1e565b91507f556d6120706167696e6120636f6d206573746520746974756c6f206a6120657860008301527f69737465000000000000000000000000000000000000000000000000000000006020830152604082019050919050565b60006116ea604383611c1e565b91507f412061646963616f206465206e6f76617320766572636f657320736f2065207060008301527f65726d6974696461207175616e646f206120706167696e61206573746120617460208301527f69766100000000000000000000000000000000000000000000000000000000006040830152606082019050919050565b6000611776603f83611c1e565b91507f4120616c7465726163616f2064652076657273616f20736f2065207065726d6960008301527f74696461207175616e646f206120706167696e612065737461206174697661006020830152604082019050919050565b60006117dc601a83611c1e565b91507f496e6469636520646120706167696e6120696e76616c69646f2e0000000000006000830152602082019050919050565b600061181c601a83611c1e565b91507f496e646963652064612076657273616f20696e76616c69646f2e0000000000006000830152602082019050919050565b600061185c601683611c1e565b91507f496e6469636520666f726120646f20616c63616e6365000000000000000000006000830152602082019050919050565b600061189c603d83611c1e565b91507f536f6d656e7465206f20646f6e6f20646573746120426c6f636b70656469612060008301527f706f646520616c7465726172206f20617472696275746f20617469766f0000006020830152604082019050919050565b6000611902604783611c1e565b91507f412061646963616f206465206e6f76617320706167696e617320736f2065207060008301527f65726d6974696461207175616e646f206120426c6f636b70656469612065737460208301527f61206174697661000000000000000000000000000000000000000000000000006040830152606082019050919050565b61198a81611cac565b82525050565b600061199c8284611587565b915081905092915050565b60006119b382846115b8565b915081905092915050565b60006020820190506119d36000830184611530565b92915050565b60006020820190506119ee600083018461153f565b92915050565b6000608082019050611a09600083018761153f565b611a166020830186611530565b611a236040830185611981565b8181036060830152611a35818461154e565b905095945050505050565b60006020820190508181036000830152611a5a818461154e565b905092915050565b60006020820190508181036000830152611a7b81611637565b9050919050565b60006020820190508181036000830152611a9b81611677565b9050919050565b60006020820190508181036000830152611abb816116dd565b9050919050565b60006020820190508181036000830152611adb81611769565b9050919050565b60006020820190508181036000830152611afb816117cf565b9050919050565b60006020820190508181036000830152611b1b8161180f565b9050919050565b60006020820190508181036000830152611b3b8161184f565b9050919050565b60006020820190508181036000830152611b5b8161188f565b9050919050565b60006020820190508181036000830152611b7b816118f5565b9050919050565b6000602082019050611b976000830184611981565b92915050565b6000604051905081810181811067ffffffffffffffff82111715611bc457611bc3611dfb565b5b8060405250919050565b600067ffffffffffffffff821115611be957611be8611dfb565b5b601f19601f8301169050602081019050919050565b60008190508160005260206000209050919050565b600081519050919050565b600082825260208201905092915050565b600081905092915050565b6000611c4582611cac565b9150611c5083611cac565b925082821015611c6357611c62611d9d565b5b828203905092915050565b6000611c7982611c8c565b9050919050565b60008115159050919050565b600073ffffffffffffffffffffffffffffffffffffffff82169050919050565b6000819050919050565b82818337600083830152505050565b60005b83811015611ce3578082015181840152602081019050611cc8565b83811115611cf2576000848401525b50505050565b6000611d0382611cac565b91506000821415611d1757611d16611d9d565b5b600182039050919050565b60006002820490506001821680611d3a57607f821691505b60208210811415611d4e57611d4d611dcc565b5b50919050565b6000611d5f82611cac565b91507fffffffffffffffffffffffffffffffffffffffffffffffffffffffffffffffff821415611d9257611d91611d9d565b5b600182019050919050565b7f4e487b7100000000000000000000000000000000000000000000000000000000600052601160045260246000fd5b7f4e487b7100000000000000000000000000000000000000000000000000000000600052602260045260246000fd5b7f4e487b7100000000000000000000000000000000000000000000000000000000600052604160045260246000fd5b6000601f19601f8301169050919050565b611e4481611c80565b8114611e4f57600080fd5b50565b611e5b81611cac565b8114611e6657600080fd5b5056fea2646970667358221220cacfecc9df9699c08188e384dd7aeb74620af82246b89cd725b9319d9f2dbcfa64736f6c63430008000033",
					"opcodes": "PUSH1 0x80 PUSH1 0x40 MSTORE PUSH1 0x1 PUSH1 0x0 DUP1 PUSH2 0x100 EXP DUP2 SLOAD DUP2 PUSH1 0xFF MUL NOT AND SWAP1 DUP4 ISZERO ISZERO MUL OR SWAP1 SSTORE POP TIMESTAMP PUSH1 0x1 SSTORE CALLVALUE DUP1 ISZERO PUSH2 0x2E JUMPI PUSH1 0x0 DUP1 REVERT JUMPDEST POP CALLER PUSH1 0x0 PUSH1 0x1 PUSH2 0x100 EXP DUP2 SLOAD DUP2 PUSH20 0xFFFFFFFFFFFFFFFFFFFFFFFFFFFFFFFFFFFFFFFF MUL NOT AND SWAP1 DUP4 PUSH20 0xFFFFFFFFFFFFFFFFFFFFFFFFFFFFFFFFFFFFFFFF AND MUL OR SWAP1 SSTORE POP PUSH2 0x1E9F DUP1 PUSH2 0x7F PUSH1 0x0 CODECOPY PUSH1 0x0 RETURN INVALID PUSH1 0x80 PUSH1 0x40 MSTORE CALLVALUE DUP1 ISZERO PUSH2 0x10 JUMPI PUSH1 0x0 DUP1 REVERT JUMPDEST POP PUSH1 0x4 CALLDATASIZE LT PUSH2 0x93 JUMPI PUSH1 0x0 CALLDATALOAD PUSH1 0xE0 SHR DUP1 PUSH4 0x6F70A52E GT PUSH2 0x66 JUMPI DUP1 PUSH4 0x6F70A52E EQ PUSH2 0x11E JUMPI DUP1 PUSH4 0x95BE551A EQ PUSH2 0x13C JUMPI DUP1 PUSH4 0xA18CC13B EQ PUSH2 0x158 JUMPI DUP1 PUSH4 0xD4D23A6E EQ PUSH2 0x176 JUMPI DUP1 PUSH4 0xE7D4296A EQ PUSH2 0x192 JUMPI PUSH2 0x93 JUMP JUMPDEST DUP1 PUSH4 0x694952D EQ PUSH2 0x98 JUMPI DUP1 PUSH4 0x1509D30C EQ PUSH2 0xB6 JUMPI DUP1 PUSH4 0x1C18379A EQ PUSH2 0xD2 JUMPI DUP1 PUSH4 0x4D7E6726 EQ PUSH2 0xEE JUMPI JUMPDEST PUSH1 0x0 DUP1 REVERT JUMPDEST PUSH2 0xA0 PUSH2 0x1C5 JUMP JUMPDEST PUSH1 0x40 MLOAD PUSH2 0xAD SWAP2 SWAP1 PUSH2 0x19BE JUMP JUMPDEST PUSH1 0x40 MLOAD DUP1 SWAP2 SUB SWAP1 RETURN JUMPDEST PUSH2 0xD0 PUSH1 0x4 DUP1 CALLDATASIZE SUB DUP2 ADD SWAP1 PUSH2 0xCB SWAP2 SWAP1 PUSH2 0x13E2 JUMP JUMPDEST PUSH2 0x1EB JUMP JUMPDEST STOP JUMPDEST PUSH2 0xEC PUSH1 0x4 DUP1 CALLDATASIZE SUB DUP2 ADD SWAP1 PUSH2 0xE7 SWAP2 SWAP1 PUSH2 0x140B JUMP JUMPDEST PUSH2 0x297 JUMP JUMPDEST STOP JUMPDEST PUSH2 0x108 PUSH1 0x4 DUP1 CALLDATASIZE SUB DUP2 ADD SWAP1 PUSH2 0x103 SWAP2 SWAP1 PUSH2 0x1477 JUMP JUMPDEST PUSH2 0x4D6 JUMP JUMPDEST PUSH1 0x40 MLOAD PUSH2 0x115 SWAP2 SWAP1 PUSH2 0x1A40 JUMP JUMPDEST PUSH1 0x40 MLOAD DUP1 SWAP2 SUB SWAP1 RETURN JUMPDEST PUSH2 0x126 PUSH2 0x7FE JUMP JUMPDEST PUSH1 0x40 MLOAD PUSH2 0x133 SWAP2 SWAP1 PUSH2 0x1B82 JUMP JUMPDEST PUSH1 0x40 MLOAD DUP1 SWAP2 SUB SWAP1 RETURN JUMPDEST PUSH2 0x156 PUSH1 0x4 DUP1 CALLDATASIZE SUB DUP2 ADD SWAP1 PUSH2 0x151 SWAP2 SWAP1 PUSH2 0x14F4 JUMP JUMPDEST PUSH2 0x804 JUMP JUMPDEST STOP JUMPDEST PUSH2 0x160 PUSH2 0xD09 JUMP JUMPDEST PUSH1 0x40 MLOAD PUSH2 0x16D SWAP2 SWAP1 PUSH2 0x19D9 JUMP JUMPDEST PUSH1 0x40 MLOAD DUP1 SWAP2 SUB SWAP1 RETURN JUMPDEST PUSH2 0x190 PUSH1 0x4 DUP1 CALLDATASIZE SUB DUP2 ADD SWAP1 PUSH2 0x18B SWAP2 SWAP1 PUSH2 0x14A0 JUMP JUMPDEST PUSH2 0xD1A JUMP JUMPDEST STOP JUMPDEST PUSH2 0x1AC PUSH1 0x4 DUP1 CALLDATASIZE SUB DUP2 ADD SWAP1 PUSH2 0x1A7 SWAP2 SWAP1 PUSH2 0x1477 JUMP JUMPDEST PUSH2 0xF96 JUMP JUMPDEST PUSH1 0x40 MLOAD PUSH2 0x1BC SWAP5 SWAP4 SWAP3 SWAP2 SWAP1 PUSH2 0x19F4 JUMP JUMPDEST PUSH1 0x40 MLOAD DUP1 SWAP2 SUB SWAP1 RETURN JUMPDEST PUSH1 0x0 PUSH1 0x1 SWAP1 SLOAD SWAP1 PUSH2 0x100 EXP SWAP1 DIV PUSH20 0xFFFFFFFFFFFFFFFFFFFFFFFFFFFFFFFFFFFFFFFF AND DUP2 JUMP JUMPDEST PUSH1 0x0 PUSH1 0x1 SWAP1 SLOAD SWAP1 PUSH2 0x100 EXP SWAP1 DIV PUSH20 0xFFFFFFFFFFFFFFFFFFFFFFFFFFFFFFFFFFFFFFFF AND PUSH20 0xFFFFFFFFFFFFFFFFFFFFFFFFFFFFFFFFFFFFFFFF AND CALLER PUSH20 0xFFFFFFFFFFFFFFFFFFFFFFFFFFFFFFFFFFFFFFFF AND EQ PUSH2 0x27B JUMPI PUSH1 0x40 MLOAD PUSH32 0x8C379A000000000000000000000000000000000000000000000000000000000 DUP2 MSTORE PUSH1 0x4 ADD PUSH2 0x272 SWAP1 PUSH2 0x1B42 JUMP JUMPDEST PUSH1 0x40 MLOAD DUP1 SWAP2 SUB SWAP1 REVERT JUMPDEST DUP1 PUSH1 0x0 DUP1 PUSH2 0x100 EXP DUP2 SLOAD DUP2 PUSH1 0xFF MUL NOT AND SWAP1 DUP4 ISZERO ISZERO MUL OR SWAP1 SSTORE POP POP JUMP JUMPDEST PUSH1 0x1 ISZERO ISZERO PUSH1 0x0 DUP1 SLOAD SWAP1 PUSH2 0x100 EXP SWAP1 DIV PUSH1 0xFF AND ISZERO ISZERO EQ PUSH2 0x2EB JUMPI PUSH1 0x40 MLOAD PUSH32 0x8C379A000000000000000000000000000000000000000000000000000000000 DUP2 MSTORE PUSH1 0x4 ADD PUSH2 0x2E2 SWAP1 PUSH2 0x1B62 JUMP JUMPDEST PUSH1 0x40 MLOAD DUP1 SWAP2 SUB SWAP1 REVERT JUMPDEST PUSH2 0x2F4 DUP3 PUSH2 0x108B JUMP JUMPDEST ISZERO PUSH2 0x334 JUMPI PUSH1 0x40 MLOAD PUSH32 0x8C379A000000000000000000000000000000000000000000000000000000000 DUP2 MSTORE PUSH1 0x4 ADD PUSH2 0x32B SWAP1 PUSH2 0x1A82 JUMP JUMPDEST PUSH1 0x40 MLOAD DUP1 SWAP2 SUB SWAP1 REVERT JUMPDEST PUSH1 0x0 PUSH1 0x2 PUSH1 0x1 DUP2 PUSH1 0x1 DUP2 SLOAD ADD DUP1 DUP3 SSTORE DUP1 SWAP2 POP POP SUB SWAP1 PUSH1 0x0 MSTORE PUSH1 0x20 PUSH1 0x0 KECCAK256 SWAP1 PUSH1 0x4 MUL ADD SWAP1 POP PUSH1 0x1 DUP2 PUSH1 0x0 ADD PUSH1 0x0 PUSH2 0x100 EXP DUP2 SLOAD DUP2 PUSH1 0xFF MUL NOT AND SWAP1 DUP4 ISZERO ISZERO MUL OR SWAP1 SSTORE POP CALLER DUP2 PUSH1 0x0 ADD PUSH1 0x1 PUSH2 0x100 EXP DUP2 SLOAD DUP2 PUSH20 0xFFFFFFFFFFFFFFFFFFFFFFFFFFFFFFFFFFFFFFFF MUL NOT AND SWAP1 DUP4 PUSH20 0xFFFFFFFFFFFFFFFFFFFFFFFFFFFFFFFFFFFFFFFF AND MUL OR SWAP1 SSTORE POP TIMESTAMP DUP2 PUSH1 0x1 ADD DUP2 SWAP1 SSTORE POP DUP3 DUP2 PUSH1 0x2 ADD SWAP1 DUP1 MLOAD SWAP1 PUSH1 0x20 ADD SWAP1 PUSH2 0x3D9 SWAP3 SWAP2 SWAP1 PUSH2 0x126D JUMP JUMPDEST POP DUP1 PUSH1 0x3 ADD PUSH1 0x40 MLOAD DUP1 PUSH1 0x80 ADD PUSH1 0x40 MSTORE DUP1 PUSH1 0x1 ISZERO ISZERO DUP2 MSTORE PUSH1 0x20 ADD CALLER PUSH20 0xFFFFFFFFFFFFFFFFFFFFFFFFFFFFFFFFFFFFFFFF AND DUP2 MSTORE PUSH1 0x20 ADD TIMESTAMP DUP2 MSTORE PUSH1 0x20 ADD DUP5 DUP2 MSTORE POP SWAP1 DUP1 PUSH1 0x1 DUP2 SLOAD ADD DUP1 DUP3 SSTORE DUP1 SWAP2 POP POP PUSH1 0x1 SWAP1 SUB SWAP1 PUSH1 0x0 MSTORE PUSH1 0x20 PUSH1 0x0 KECCAK256 SWAP1 PUSH1 0x3 MUL ADD PUSH1 0x0 SWAP1 SWAP2 SWAP1 SWAP2 SWAP1 SWAP2 POP PUSH1 0x0 DUP3 ADD MLOAD DUP2 PUSH1 0x0 ADD PUSH1 0x0 PUSH2 0x100 EXP DUP2 SLOAD DUP2 PUSH1 0xFF MUL NOT AND SWAP1 DUP4 ISZERO ISZERO MUL OR SWAP1 SSTORE POP PUSH1 0x20 DUP3 ADD MLOAD DUP2 PUSH1 0x0 ADD PUSH1 0x1 PUSH2 0x100 EXP DUP2 SLOAD DUP2 PUSH20 0xFFFFFFFFFFFFFFFFFFFFFFFFFFFFFFFFFFFFFFFF MUL NOT AND SWAP1 DUP4 PUSH20 0xFFFFFFFFFFFFFFFFFFFFFFFFFFFFFFFFFFFFFFFF AND MUL OR SWAP1 SSTORE POP PUSH1 0x40 DUP3 ADD MLOAD DUP2 PUSH1 0x1 ADD SSTORE PUSH1 0x60 DUP3 ADD MLOAD DUP2 PUSH1 0x2 ADD SWAP1 DUP1 MLOAD SWAP1 PUSH1 0x20 ADD SWAP1 PUSH2 0x4CE SWAP3 SWAP2 SWAP1 PUSH2 0x126D JUMP JUMPDEST POP POP POP POP POP POP JUMP JUMPDEST PUSH1 0x60 PUSH1 0x2 DUP1 SLOAD SWAP1 POP DUP3 LT PUSH2 0x51F JUMPI PUSH1 0x40 MLOAD PUSH32 0x8C379A000000000000000000000000000000000000000000000000000000000 DUP2 MSTORE PUSH1 0x4 ADD PUSH2 0x516 SWAP1 PUSH2 0x1B22 JUMP JUMPDEST PUSH1 0x40 MLOAD DUP1 SWAP2 SUB SWAP1 REVERT JUMPDEST PUSH2 0x7F3 PUSH1 0x2 DUP4 DUP2 SLOAD DUP2 LT PUSH2 0x55C JUMPI PUSH32 0x4E487B7100000000000000000000000000000000000000000000000000000000 PUSH1 0x0 MSTORE PUSH1 0x32 PUSH1 0x4 MSTORE PUSH1 0x24 PUSH1 0x0 REVERT JUMPDEST SWAP1 PUSH1 0x0 MSTORE PUSH1 0x20 PUSH1 0x0 KECCAK256 SWAP1 PUSH1 0x4 MUL ADD PUSH1 0x40 MLOAD DUP1 PUSH1 0xA0 ADD PUSH1 0x40 MSTORE SWAP1 DUP2 PUSH1 0x0 DUP3 ADD PUSH1 0x0 SWAP1 SLOAD SWAP1 PUSH2 0x100 EXP SWAP1 DIV PUSH1 0xFF AND ISZERO ISZERO ISZERO ISZERO DUP2 MSTORE PUSH1 0x20 ADD PUSH1 0x0 DUP3 ADD PUSH1 0x1 SWAP1 SLOAD SWAP1 PUSH2 0x100 EXP SWAP1 DIV PUSH20 0xFFFFFFFFFFFFFFFFFFFFFFFFFFFFFFFFFFFFFFFF AND PUSH20 0xFFFFFFFFFFFFFFFFFFFFFFFFFFFFFFFFFFFFFFFF AND PUSH20 0xFFFFFFFFFFFFFFFFFFFFFFFFFFFFFFFFFFFFFFFF AND DUP2 MSTORE PUSH1 0x20 ADD PUSH1 0x1 DUP3 ADD SLOAD DUP2 MSTORE PUSH1 0x20 ADD PUSH1 0x2 DUP3 ADD DUP1 SLOAD PUSH2 0x600 SWAP1 PUSH2 0x1D22 JUMP JUMPDEST DUP1 PUSH1 0x1F ADD PUSH1 0x20 DUP1 SWAP2 DIV MUL PUSH1 0x20 ADD PUSH1 0x40 MLOAD SWAP1 DUP2 ADD PUSH1 0x40 MSTORE DUP1 SWAP3 SWAP2 SWAP1 DUP2 DUP2 MSTORE PUSH1 0x20 ADD DUP3 DUP1 SLOAD PUSH2 0x62C SWAP1 PUSH2 0x1D22 JUMP JUMPDEST DUP1 ISZERO PUSH2 0x679 JUMPI DUP1 PUSH1 0x1F LT PUSH2 0x64E JUMPI PUSH2 0x100 DUP1 DUP4 SLOAD DIV MUL DUP4 MSTORE SWAP2 PUSH1 0x20 ADD SWAP2 PUSH2 0x679 JUMP JUMPDEST DUP3 ADD SWAP2 SWAP1 PUSH1 0x0 MSTORE PUSH1 0x20 PUSH1 0x0 KECCAK256 SWAP1 JUMPDEST DUP2 SLOAD DUP2 MSTORE SWAP1 PUSH1 0x1 ADD SWAP1 PUSH1 0x20 ADD DUP1 DUP4 GT PUSH2 0x65C JUMPI DUP3 SWAP1 SUB PUSH1 0x1F AND DUP3 ADD SWAP2 JUMPDEST POP POP POP POP POP DUP2 MSTORE PUSH1 0x20 ADD PUSH1 0x3 DUP3 ADD DUP1 SLOAD DUP1 PUSH1 0x20 MUL PUSH1 0x20 ADD PUSH1 0x40 MLOAD SWAP1 DUP2 ADD PUSH1 0x40 MSTORE DUP1 SWAP3 SWAP2 SWAP1 DUP2 DUP2 MSTORE PUSH1 0x20 ADD PUSH1 0x0 SWAP1 JUMPDEST DUP3 DUP3 LT ISZERO PUSH2 0x7E6 JUMPI DUP4 DUP3 SWAP1 PUSH1 0x0 MSTORE PUSH1 0x20 PUSH1 0x0 KECCAK256 SWAP1 PUSH1 0x3 MUL ADD PUSH1 0x40 MLOAD DUP1 PUSH1 0x80 ADD PUSH1 0x40 MSTORE SWAP1 DUP2 PUSH1 0x0 DUP3 ADD PUSH1 0x0 SWAP1 SLOAD SWAP1 PUSH2 0x100 EXP SWAP1 DIV PUSH1 0xFF AND ISZERO ISZERO ISZERO ISZERO DUP2 MSTORE PUSH1 0x20 ADD PUSH1 0x0 DUP3 ADD PUSH1 0x1 SWAP1 SLOAD SWAP1 PUSH2 0x100 EXP SWAP1 DIV PUSH20 0xFFFFFFFFFFFFFFFFFFFFFFFFFFFFFFFFFFFFFFFF AND PUSH20 0xFFFFFFFFFFFFFFFFFFFFFFFFFFFFFFFFFFFFFFFF AND PUSH20 0xFFFFFFFFFFFFFFFFFFFFFFFFFFFFFFFFFFFFFFFF AND DUP2 MSTORE PUSH1 0x20 ADD PUSH1 0x1 DUP3 ADD SLOAD DUP2 MSTORE PUSH1 0x20 ADD PUSH1 0x2 DUP3 ADD DUP1 SLOAD PUSH2 0x755 SWAP1 PUSH2 0x1D22 JUMP JUMPDEST DUP1 PUSH1 0x1F ADD PUSH1 0x20 DUP1 SWAP2 DIV MUL PUSH1 0x20 ADD PUSH1 0x40 MLOAD SWAP1 DUP2 ADD PUSH1 0x40 MSTORE DUP1 SWAP3 SWAP2 SWAP1 DUP2 DUP2 MSTORE PUSH1 0x20 ADD DUP3 DUP1 SLOAD PUSH2 0x781 SWAP1 PUSH2 0x1D22 JUMP JUMPDEST DUP1 ISZERO PUSH2 0x7CE JUMPI DUP1 PUSH1 0x1F LT PUSH2 0x7A3 JUMPI PUSH2 0x100 DUP1 DUP4 SLOAD DIV MUL DUP4 MSTORE SWAP2 PUSH1 0x20 ADD SWAP2 PUSH2 0x7CE JUMP JUMPDEST DUP3 ADD SWAP2 SWAP1 PUSH1 0x0 MSTORE PUSH1 0x20 PUSH1 0x0 KECCAK256 SWAP1 JUMPDEST DUP2 SLOAD DUP2 MSTORE SWAP1 PUSH1 0x1 ADD SWAP1 PUSH1 0x20 ADD DUP1 DUP4 GT PUSH2 0x7B1 JUMPI DUP3 SWAP1 SUB PUSH1 0x1F AND DUP3 ADD SWAP2 JUMPDEST POP POP POP POP POP DUP2 MSTORE POP POP DUP2 MSTORE PUSH1 0x20 ADD SWAP1 PUSH1 0x1 ADD SWAP1 PUSH2 0x6A7 JUMP JUMPDEST POP POP POP POP DUP2 MSTORE POP POP PUSH2 0x1166 JUMP JUMPDEST PUSH1 0x60 ADD MLOAD SWAP1 POP SWAP2 SWAP1 POP JUMP JUMPDEST PUSH1 0x1 SLOAD DUP2 JUMP JUMPDEST PUSH1 0x1 ISZERO ISZERO PUSH1 0x0 DUP1 SLOAD SWAP1 PUSH2 0x100 EXP SWAP1 DIV PUSH1 0xFF AND ISZERO ISZERO EQ PUSH2 0x858 JUMPI PUSH1 0x40 MLOAD PUSH32 0x8C379A000000000000000000000000000000000000000000000000000000000 DUP2 MSTORE PUSH1 0x4 ADD PUSH2 0x84F SWAP1 PUSH2 0x1B62 JUMP JUMPDEST PUSH1 0x40 MLOAD DUP1 SWAP2 SUB SWAP1 REVERT JUMPDEST PUSH1 0x2 DUP1 SLOAD SWAP1 POP DUP3 LT PUSH2 0x89F JUMPI PUSH1 0x40 MLOAD PUSH32 0x8C379A000000000000000000000000000000000000000000000000000000000 DUP2 MSTORE PUSH1 0x4 ADD PUSH2 0x896 SWAP1 PUSH2 0x1AE2 JUMP JUMPDEST PUSH1 0x40 MLOAD DUP1 SWAP2 SUB SWAP1 REVERT JUMPDEST PUSH1 0x1 ISZERO ISZERO PUSH1 0x2 DUP4 DUP2 SLOAD DUP2 LT PUSH2 0x8DD JUMPI PUSH32 0x4E487B7100000000000000000000000000000000000000000000000000000000 PUSH1 0x0 MSTORE PUSH1 0x32 PUSH1 0x4 MSTORE PUSH1 0x24 PUSH1 0x0 REVERT JUMPDEST SWAP1 PUSH1 0x0 MSTORE PUSH1 0x20 PUSH1 0x0 KECCAK256 SWAP1 PUSH1 0x4 MUL ADD PUSH1 0x0 ADD PUSH1 0x0 SWAP1 SLOAD SWAP1 PUSH2 0x100 EXP SWAP1 DIV PUSH1 0xFF AND ISZERO ISZERO EQ PUSH2 0x93E JUMPI PUSH1 0x40 MLOAD PUSH32 0x8C379A000000000000000000000000000000000000000000000000000000000 DUP2 MSTORE PUSH1 0x4 ADD PUSH2 0x935 SWAP1 PUSH2 0x1AC2 JUMP JUMPDEST PUSH1 0x40 MLOAD DUP1 SWAP2 SUB SWAP1 REVERT JUMPDEST PUSH1 0x2 DUP3 DUP2 SLOAD DUP2 LT PUSH2 0x978 JUMPI PUSH32 0x4E487B7100000000000000000000000000000000000000000000000000000000 PUSH1 0x0 MSTORE PUSH1 0x32 PUSH1 0x4 MSTORE PUSH1 0x24 PUSH1 0x0 REVERT JUMPDEST SWAP1 PUSH1 0x0 MSTORE PUSH1 0x20 PUSH1 0x0 KECCAK256 SWAP1 PUSH1 0x4 MUL ADD PUSH1 0x3 ADD DUP1 SLOAD SWAP1 POP DUP2 LT PUSH2 0x9CE JUMPI PUSH1 0x40 MLOAD PUSH32 0x8C379A000000000000000000000000000000000000000000000000000000000 DUP2 MSTORE PUSH1 0x4 ADD PUSH2 0x9C5 SWAP1 PUSH2 0x1B02 JUMP JUMPDEST PUSH1 0x40 MLOAD DUP1 SWAP2 SUB SWAP1 REVERT JUMPDEST PUSH1 0x2 DUP3 DUP2 SLOAD DUP2 LT PUSH2 0xA08 JUMPI PUSH32 0x4E487B7100000000000000000000000000000000000000000000000000000000 PUSH1 0x0 MSTORE PUSH1 0x32 PUSH1 0x4 MSTORE PUSH1 0x24 PUSH1 0x0 REVERT JUMPDEST SWAP1 PUSH1 0x0 MSTORE PUSH1 0x20 PUSH1 0x0 KECCAK256 SWAP1 PUSH1 0x4 MUL ADD PUSH1 0x3 ADD DUP2 DUP2 SLOAD DUP2 LT PUSH2 0xA51 JUMPI PUSH32 0x4E487B7100000000000000000000000000000000000000000000000000000000 PUSH1 0x0 MSTORE PUSH1 0x32 PUSH1 0x4 MSTORE PUSH1 0x24 PUSH1 0x0 REVERT JUMPDEST SWAP1 PUSH1 0x0 MSTORE PUSH1 0x20 PUSH1 0x0 KECCAK256 SWAP1 PUSH1 0x3 MUL ADD PUSH1 0x0 ADD PUSH1 0x0 SWAP1 SLOAD SWAP1 PUSH2 0x100 EXP SWAP1 DIV PUSH1 0xFF AND ISZERO PUSH2 0xA7A JUMPI PUSH2 0xD05 JUMP JUMPDEST PUSH1 0x0 PUSH1 0x2 DUP4 DUP2 SLOAD DUP2 LT PUSH2 0xAB6 JUMPI PUSH32 0x4E487B7100000000000000000000000000000000000000000000000000000000 PUSH1 0x0 MSTORE PUSH1 0x32 PUSH1 0x4 MSTORE PUSH1 0x24 PUSH1 0x0 REVERT JUMPDEST SWAP1 PUSH1 0x0 MSTORE PUSH1 0x20 PUSH1 0x0 KECCAK256 SWAP1 PUSH1 0x4 MUL ADD PUSH1 0x3 ADD DUP1 SLOAD SWAP1 POP SWAP1 POP JUMPDEST PUSH1 0x0 DUP2 GT ISZERO PUSH2 0xC56 JUMPI PUSH1 0x0 PUSH1 0x1 DUP3 PUSH2 0xAE6 SWAP2 SWAP1 PUSH2 0x1C3A JUMP JUMPDEST SWAP1 POP PUSH1 0x2 DUP5 DUP2 SLOAD DUP2 LT PUSH2 0xB22 JUMPI PUSH32 0x4E487B7100000000000000000000000000000000000000000000000000000000 PUSH1 0x0 MSTORE PUSH1 0x32 PUSH1 0x4 MSTORE PUSH1 0x24 PUSH1 0x0 REVERT JUMPDEST SWAP1 PUSH1 0x0 MSTORE PUSH1 0x20 PUSH1 0x0 KECCAK256 SWAP1 PUSH1 0x4 MUL ADD PUSH1 0x3 ADD DUP2 DUP2 SLOAD DUP2 LT PUSH2 0xB6B JUMPI PUSH32 0x4E487B7100000000000000000000000000000000000000000000000000000000 PUSH1 0x0 MSTORE PUSH1 0x32 PUSH1 0x4 MSTORE PUSH1 0x24 PUSH1 0x0 REVERT JUMPDEST SWAP1 PUSH1 0x0 MSTORE PUSH1 0x20 PUSH1 0x0 KECCAK256 SWAP1 PUSH1 0x3 MUL ADD PUSH1 0x0 ADD PUSH1 0x0 SWAP1 SLOAD SWAP1 PUSH2 0x100 EXP SWAP1 DIV PUSH1 0xFF AND ISZERO PUSH2 0xC42 JUMPI PUSH1 0x0 PUSH1 0x2 DUP6 DUP2 SLOAD DUP2 LT PUSH2 0xBCB JUMPI PUSH32 0x4E487B7100000000000000000000000000000000000000000000000000000000 PUSH1 0x0 MSTORE PUSH1 0x32 PUSH1 0x4 MSTORE PUSH1 0x24 PUSH1 0x0 REVERT JUMPDEST SWAP1 PUSH1 0x0 MSTORE PUSH1 0x20 PUSH1 0x0 KECCAK256 SWAP1 PUSH1 0x4 MUL ADD PUSH1 0x3 ADD DUP3 DUP2 SLOAD DUP2 LT PUSH2 0xC14 JUMPI PUSH32 0x4E487B7100000000000000000000000000000000000000000000000000000000 PUSH1 0x0 MSTORE PUSH1 0x32 PUSH1 0x4 MSTORE PUSH1 0x24 PUSH1 0x0 REVERT JUMPDEST SWAP1 PUSH1 0x0 MSTORE PUSH1 0x20 PUSH1 0x0 KECCAK256 SWAP1 PUSH1 0x3 MUL ADD PUSH1 0x0 ADD PUSH1 0x0 PUSH2 0x100 EXP DUP2 SLOAD DUP2 PUSH1 0xFF MUL NOT AND SWAP1 DUP4 ISZERO ISZERO MUL OR SWAP1 SSTORE POP POP PUSH2 0xC56 JUMP JUMPDEST POP DUP1 DUP1 PUSH2 0xC4E SWAP1 PUSH2 0x1CF8 JUMP JUMPDEST SWAP2 POP POP PUSH2 0xACE JUMP JUMPDEST POP PUSH1 0x1 PUSH1 0x2 DUP4 DUP2 SLOAD DUP2 LT PUSH2 0xC93 JUMPI PUSH32 0x4E487B7100000000000000000000000000000000000000000000000000000000 PUSH1 0x0 MSTORE PUSH1 0x32 PUSH1 0x4 MSTORE PUSH1 0x24 PUSH1 0x0 REVERT JUMPDEST SWAP1 PUSH1 0x0 MSTORE PUSH1 0x20 PUSH1 0x0 KECCAK256 SWAP1 PUSH1 0x4 MUL ADD PUSH1 0x3 ADD DUP3 DUP2 SLOAD DUP2 LT PUSH2 0xCDC JUMPI PUSH32 0x4E487B7100000000000000000000000000000000000000000000000000000000 PUSH1 0x0 MSTORE PUSH1 0x32 PUSH1 0x4 MSTORE PUSH1 0x24 PUSH1 0x0 REVERT JUMPDEST SWAP1 PUSH1 0x0 MSTORE PUSH1 0x20 PUSH1 0x0 KECCAK256 SWAP1 PUSH1 0x3 MUL ADD PUSH1 0x0 ADD PUSH1 0x0 PUSH2 0x100 EXP DUP2 SLOAD DUP2 PUSH1 0xFF MUL NOT AND SWAP1 DUP4 ISZERO ISZERO MUL OR SWAP1 SSTORE POP JUMPDEST POP POP JUMP JUMPDEST PUSH1 0x0 DUP1 SLOAD SWAP1 PUSH2 0x100 EXP SWAP1 DIV PUSH1 0xFF AND DUP2 JUMP JUMPDEST PUSH1 0x1 ISZERO ISZERO PUSH1 0x0 DUP1 SLOAD SWAP1 PUSH2 0x100 EXP SWAP1 DIV PUSH1 0xFF AND ISZERO ISZERO EQ PUSH2 0xD6E JUMPI PUSH1 0x40 MLOAD PUSH32 0x8C379A000000000000000000000000000000000000000000000000000000000 DUP2 MSTORE PUSH1 0x4 ADD PUSH2 0xD65 SWAP1 PUSH2 0x1B62 JUMP JUMPDEST PUSH1 0x40 MLOAD DUP1 SWAP2 SUB SWAP1 REVERT JUMPDEST PUSH1 0x2 DUP1 SLOAD SWAP1 POP DUP3 LT PUSH2 0xDB5 JUMPI PUSH1 0x40 MLOAD PUSH32 0x8C379A000000000000000000000000000000000000000000000000000000000 DUP2 MSTORE PUSH1 0x4 ADD PUSH2 0xDAC SWAP1 PUSH2 0x1B22 JUMP JUMPDEST PUSH1 0x40 MLOAD DUP1 SWAP2 SUB SWAP1 REVERT JUMPDEST PUSH1 0x1 ISZERO ISZERO PUSH1 0x2 DUP4 DUP2 SLOAD DUP2 LT PUSH2 0xDF3 JUMPI PUSH32 0x4E487B7100000000000000000000000000000000000000000000000000000000 PUSH1 0x0 MSTORE PUSH1 0x32 PUSH1 0x4 MSTORE PUSH1 0x24 PUSH1 0x0 REVERT JUMPDEST SWAP1 PUSH1 0x0 MSTORE PUSH1 0x20 PUSH1 0x0 KECCAK256 SWAP1 PUSH1 0x4 MUL ADD PUSH1 0x0 ADD PUSH1 0x0 SWAP1 SLOAD SWAP1 PUSH2 0x100 EXP SWAP1 DIV PUSH1 0xFF AND ISZERO ISZERO EQ PUSH2 0xE54 JUMPI PUSH1 0x40 MLOAD PUSH32 0x8C379A000000000000000000000000000000000000000000000000000000000 DUP2 MSTORE PUSH1 0x4 ADD PUSH2 0xE4B SWAP1 PUSH2 0x1AA2 JUMP JUMPDEST PUSH1 0x40 MLOAD DUP1 SWAP2 SUB SWAP1 REVERT JUMPDEST PUSH1 0x2 DUP3 DUP2 SLOAD DUP2 LT PUSH2 0xE8E JUMPI PUSH32 0x4E487B7100000000000000000000000000000000000000000000000000000000 PUSH1 0x0 MSTORE PUSH1 0x32 PUSH1 0x4 MSTORE PUSH1 0x24 PUSH1 0x0 REVERT JUMPDEST SWAP1 PUSH1 0x0 MSTORE PUSH1 0x20 PUSH1 0x0 KECCAK256 SWAP1 PUSH1 0x4 MUL ADD PUSH1 0x3 ADD PUSH1 0x40 MLOAD DUP1 PUSH1 0x80 ADD PUSH1 0x40 MSTORE DUP1 PUSH1 0x0 ISZERO ISZERO DUP2 MSTORE PUSH1 0x20 ADD CALLER PUSH20 0xFFFFFFFFFFFFFFFFFFFFFFFFFFFFFFFFFFFFFFFF AND DUP2 MSTORE PUSH1 0x20 ADD TIMESTAMP DUP2 MSTORE PUSH1 0x20 ADD DUP4 DUP2 MSTORE POP SWAP1 DUP1 PUSH1 0x1 DUP2 SLOAD ADD DUP1 DUP3 SSTORE DUP1 SWAP2 POP POP PUSH1 0x1 SWAP1 SUB SWAP1 PUSH1 0x0 MSTORE PUSH1 0x20 PUSH1 0x0 KECCAK256 SWAP1 PUSH1 0x3 MUL ADD PUSH1 0x0 SWAP1 SWAP2 SWAP1 SWAP2 SWAP1 SWAP2 POP PUSH1 0x0 DUP3 ADD MLOAD DUP2 PUSH1 0x0 ADD PUSH1 0x0 PUSH2 0x100 EXP DUP2 SLOAD DUP2 PUSH1 0xFF MUL NOT AND SWAP1 DUP4 ISZERO ISZERO MUL OR SWAP1 SSTORE POP PUSH1 0x20 DUP3 ADD MLOAD DUP2 PUSH1 0x0 ADD PUSH1 0x1 PUSH2 0x100 EXP DUP2 SLOAD DUP2 PUSH20 0xFFFFFFFFFFFFFFFFFFFFFFFFFFFFFFFFFFFFFFFF MUL NOT AND SWAP1 DUP4 PUSH20 0xFFFFFFFFFFFFFFFFFFFFFFFFFFFFFFFFFFFFFFFF AND MUL OR SWAP1 SSTORE POP PUSH1 0x40 DUP3 ADD MLOAD DUP2 PUSH1 0x1 ADD SSTORE PUSH1 0x60 DUP3 ADD MLOAD DUP2 PUSH1 0x2 ADD SWAP1 DUP1 MLOAD SWAP1 PUSH1 0x20 ADD SWAP1 PUSH2 0xF8F SWAP3 SWAP2 SWAP1 PUSH2 0x126D JUMP JUMPDEST POP POP POP POP POP JUMP JUMPDEST PUSH1 0x2 DUP2 DUP2 SLOAD DUP2 LT PUSH2 0xFA6 JUMPI PUSH1 0x0 DUP1 REVERT JUMPDEST SWAP1 PUSH1 0x0 MSTORE PUSH1 0x20 PUSH1 0x0 KECCAK256 SWAP1 PUSH1 0x4 MUL ADD PUSH1 0x0 SWAP2 POP SWAP1 POP DUP1 PUSH1 0x0 ADD PUSH1 0x0 SWAP1 SLOAD SWAP1 PUSH2 0x100 EXP SWAP1 DIV PUSH1 0xFF AND SWAP1 DUP1 PUSH1 0x0 ADD PUSH1 0x1 SWAP1 SLOAD SWAP1 PUSH2 0x100 EXP SWAP1 DIV PUSH20 0xFFFFFFFFFFFFFFFFFFFFFFFFFFFFFFFFFFFFFFFF AND SWAP1 DUP1 PUSH1 0x1 ADD SLOAD SWAP1 DUP1 PUSH1 0x2 ADD DUP1 SLOAD PUSH2 0x1008 SWAP1 PUSH2 0x1D22 JUMP JUMPDEST DUP1 PUSH1 0x1F ADD PUSH1 0x20 DUP1 SWAP2 DIV MUL PUSH1 0x20 ADD PUSH1 0x40 MLOAD SWAP1 DUP2 ADD PUSH1 0x40 MSTORE DUP1 SWAP3 SWAP2 SWAP1 DUP2 DUP2 MSTORE PUSH1 0x20 ADD DUP3 DUP1 SLOAD PUSH2 0x1034 SWAP1 PUSH2 0x1D22 JUMP JUMPDEST DUP1 ISZERO PUSH2 0x1081 JUMPI DUP1 PUSH1 0x1F LT PUSH2 0x1056 JUMPI PUSH2 0x100 DUP1 DUP4 SLOAD DIV MUL DUP4 MSTORE SWAP2 PUSH1 0x20 ADD SWAP2 PUSH2 0x1081 JUMP JUMPDEST DUP3 ADD SWAP2 SWAP1 PUSH1 0x0 MSTORE PUSH1 0x20 PUSH1 0x0 KECCAK256 SWAP1 JUMPDEST DUP2 SLOAD DUP2 MSTORE SWAP1 PUSH1 0x1 ADD SWAP1 PUSH1 0x20 ADD DUP1 DUP4 GT PUSH2 0x1064 JUMPI DUP3 SWAP1 SUB PUSH1 0x1F AND DUP3 ADD SWAP2 JUMPDEST POP POP POP POP POP SWAP1 POP DUP5 JUMP JUMPDEST PUSH1 0x0 DUP1 PUSH1 0x0 SWAP1 POP JUMPDEST PUSH1 0x2 DUP1 SLOAD SWAP1 POP DUP2 LT ISZERO PUSH2 0x115B JUMPI DUP3 PUSH1 0x40 MLOAD PUSH1 0x20 ADD PUSH2 0x10B1 SWAP2 SWAP1 PUSH2 0x1990 JUMP JUMPDEST PUSH1 0x40 MLOAD PUSH1 0x20 DUP2 DUP4 SUB SUB DUP2 MSTORE SWAP1 PUSH1 0x40 MSTORE DUP1 MLOAD SWAP1 PUSH1 0x20 ADD KECCAK256 PUSH1 0x2 DUP3 DUP2 SLOAD DUP2 LT PUSH2 0x1101 JUMPI PUSH32 0x4E487B7100000000000000000000000000000000000000000000000000000000 PUSH1 0x0 MSTORE PUSH1 0x32 PUSH1 0x4 MSTORE PUSH1 0x24 PUSH1 0x0 REVERT JUMPDEST SWAP1 PUSH1 0x0 MSTORE PUSH1 0x20 PUSH1 0x0 KECCAK256 SWAP1 PUSH1 0x4 MUL ADD PUSH1 0x2 ADD PUSH1 0x40 MLOAD PUSH1 0x20 ADD PUSH2 0x1122 SWAP2 SWAP1 PUSH2 0x19A7 JUMP JUMPDEST PUSH1 0x40 MLOAD PUSH1 0x20 DUP2 DUP4 SUB SUB DUP2 MSTORE SWAP1 PUSH1 0x40 MSTORE DUP1 MLOAD SWAP1 PUSH1 0x20 ADD KECCAK256 EQ ISZERO PUSH2 0x1148 JUMPI PUSH1 0x1 SWAP2 POP POP PUSH2 0x1161 JUMP JUMPDEST DUP1 DUP1 PUSH2 0x1153 SWAP1 PUSH2 0x1D54 JUMP JUMPDEST SWAP2 POP POP PUSH2 0x1093 JUMP JUMPDEST POP PUSH1 0x0 SWAP1 POP JUMPDEST SWAP2 SWAP1 POP JUMP JUMPDEST PUSH2 0x116E PUSH2 0x12F3 JUMP JUMPDEST PUSH1 0x0 JUMPDEST DUP3 PUSH1 0x80 ADD MLOAD MLOAD DUP2 LT ISZERO PUSH2 0x122C JUMPI DUP3 PUSH1 0x80 ADD MLOAD DUP2 DUP2 MLOAD DUP2 LT PUSH2 0x11BB JUMPI PUSH32 0x4E487B7100000000000000000000000000000000000000000000000000000000 PUSH1 0x0 MSTORE PUSH1 0x32 PUSH1 0x4 MSTORE PUSH1 0x24 PUSH1 0x0 REVERT JUMPDEST PUSH1 0x20 MUL PUSH1 0x20 ADD ADD MLOAD PUSH1 0x0 ADD MLOAD ISZERO PUSH2 0x1219 JUMPI DUP3 PUSH1 0x80 ADD MLOAD DUP2 DUP2 MLOAD DUP2 LT PUSH2 0x1209 JUMPI PUSH32 0x4E487B7100000000000000000000000000000000000000000000000000000000 PUSH1 0x0 MSTORE PUSH1 0x32 PUSH1 0x4 MSTORE PUSH1 0x24 PUSH1 0x0 REVERT JUMPDEST PUSH1 0x20 MUL PUSH1 0x20 ADD ADD MLOAD SWAP2 POP POP PUSH2 0x1268 JUMP JUMPDEST DUP1 DUP1 PUSH2 0x1224 SWAP1 PUSH2 0x1D54 JUMP JUMPDEST SWAP2 POP POP PUSH2 0x1171 JUMP JUMPDEST POP PUSH1 0x40 MLOAD PUSH32 0x8C379A000000000000000000000000000000000000000000000000000000000 DUP2 MSTORE PUSH1 0x4 ADD PUSH2 0x125F SWAP1 PUSH2 0x1A62 JUMP JUMPDEST PUSH1 0x40 MLOAD DUP1 SWAP2 SUB SWAP1 REVERT JUMPDEST SWAP2 SWAP1 POP JUMP JUMPDEST DUP3 DUP1 SLOAD PUSH2 0x1279 SWAP1 PUSH2 0x1D22 JUMP JUMPDEST SWAP1 PUSH1 0x0 MSTORE PUSH1 0x20 PUSH1 0x0 KECCAK256 SWAP1 PUSH1 0x1F ADD PUSH1 0x20 SWAP1 DIV DUP2 ADD SWAP3 DUP3 PUSH2 0x129B JUMPI PUSH1 0x0 DUP6 SSTORE PUSH2 0x12E2 JUMP JUMPDEST DUP3 PUSH1 0x1F LT PUSH2 0x12B4 JUMPI DUP1 MLOAD PUSH1 0xFF NOT AND DUP4 DUP1 ADD OR DUP6 SSTORE PUSH2 0x12E2 JUMP JUMPDEST DUP3 DUP1 ADD PUSH1 0x1 ADD DUP6 SSTORE DUP3 ISZERO PUSH2 0x12E2 JUMPI SWAP2 DUP3 ADD JUMPDEST DUP3 DUP2 GT ISZERO PUSH2 0x12E1 JUMPI DUP3 MLOAD DUP3 SSTORE SWAP2 PUSH1 0x20 ADD SWAP2 SWAP1 PUSH1 0x1 ADD SWAP1 PUSH2 0x12C6 JUMP JUMPDEST JUMPDEST POP SWAP1 POP PUSH2 0x12EF SWAP2 SWAP1 PUSH2 0x1333 JUMP JUMPDEST POP SWAP1 JUMP JUMPDEST PUSH1 0x40 MLOAD DUP1 PUSH1 0x80 ADD PUSH1 0x40 MSTORE DUP1 PUSH1 0x0 ISZERO ISZERO DUP2 MSTORE PUSH1 0x20 ADD PUSH1 0x0 PUSH20 0xFFFFFFFFFFFFFFFFFFFFFFFFFFFFFFFFFFFFFFFF AND DUP2 MSTORE PUSH1 0x20 ADD PUSH1 0x0 DUP2 MSTORE PUSH1 0x20 ADD PUSH1 0x60 DUP2 MSTORE POP SWAP1 JUMP JUMPDEST JUMPDEST DUP1 DUP3 GT ISZERO PUSH2 0x134C JUMPI PUSH1 0x0 DUP2 PUSH1 0x0 SWAP1 SSTORE POP PUSH1 0x1 ADD PUSH2 0x1334 JUMP JUMPDEST POP SWAP1 JUMP JUMPDEST PUSH1 0x0 PUSH2 0x1363 PUSH2 0x135E DUP5 PUSH2 0x1BCE JUMP JUMPDEST PUSH2 0x1B9D JUMP JUMPDEST SWAP1 POP DUP3 DUP2 MSTORE PUSH1 0x20 DUP2 ADD DUP5 DUP5 DUP5 ADD GT ISZERO PUSH2 0x137B JUMPI PUSH1 0x0 DUP1 REVERT JUMPDEST PUSH2 0x1386 DUP5 DUP3 DUP6 PUSH2 0x1CB6 JUMP JUMPDEST POP SWAP4 SWAP3 POP POP POP JUMP JUMPDEST PUSH1 0x0 DUP2 CALLDATALOAD SWAP1 POP PUSH2 0x139D DUP2 PUSH2 0x1E3B JUMP JUMPDEST SWAP3 SWAP2 POP POP JUMP JUMPDEST PUSH1 0x0 DUP3 PUSH1 0x1F DUP4 ADD SLT PUSH2 0x13B4 JUMPI PUSH1 0x0 DUP1 REVERT JUMPDEST DUP2 CALLDATALOAD PUSH2 0x13C4 DUP5 DUP3 PUSH1 0x20 DUP7 ADD PUSH2 0x1350 JUMP JUMPDEST SWAP2 POP POP SWAP3 SWAP2 POP POP JUMP JUMPDEST PUSH1 0x0 DUP2 CALLDATALOAD SWAP1 POP PUSH2 0x13DC DUP2 PUSH2 0x1E52 JUMP JUMPDEST SWAP3 SWAP2 POP POP JUMP JUMPDEST PUSH1 0x0 PUSH1 0x20 DUP3 DUP5 SUB SLT ISZERO PUSH2 0x13F4 JUMPI PUSH1 0x0 DUP1 REVERT JUMPDEST PUSH1 0x0 PUSH2 0x1402 DUP5 DUP3 DUP6 ADD PUSH2 0x138E JUMP JUMPDEST SWAP2 POP POP SWAP3 SWAP2 POP POP JUMP JUMPDEST PUSH1 0x0 DUP1 PUSH1 0x40 DUP4 DUP6 SUB SLT ISZERO PUSH2 0x141E JUMPI PUSH1 0x0 DUP1 REVERT JUMPDEST PUSH1 0x0 DUP4 ADD CALLDATALOAD PUSH8 0xFFFFFFFFFFFFFFFF DUP2 GT ISZERO PUSH2 0x1438 JUMPI PUSH1 0x0 DUP1 REVERT JUMPDEST PUSH2 0x1444 DUP6 DUP3 DUP7 ADD PUSH2 0x13A3 JUMP JUMPDEST SWAP3 POP POP PUSH1 0x20 DUP4 ADD CALLDATALOAD PUSH8 0xFFFFFFFFFFFFFFFF DUP2 GT ISZERO PUSH2 0x1461 JUMPI PUSH1 0x0 DUP1 REVERT JUMPDEST PUSH2 0x146D DUP6 DUP3 DUP7 ADD PUSH2 0x13A3 JUMP JUMPDEST SWAP2 POP POP SWAP3 POP SWAP3 SWAP1 POP JUMP JUMPDEST PUSH1 0x0 PUSH1 0x20 DUP3 DUP5 SUB SLT ISZERO PUSH2 0x1489 JUMPI PUSH1 0x0 DUP1 REVERT JUMPDEST PUSH1 0x0 PUSH2 0x1497 DUP5 DUP3 DUP6 ADD PUSH2 0x13CD JUMP JUMPDEST SWAP2 POP POP SWAP3 SWAP2 POP POP JUMP JUMPDEST PUSH1 0x0 DUP1 PUSH1 0x40 DUP4 DUP6 SUB SLT ISZERO PUSH2 0x14B3 JUMPI PUSH1 0x0 DUP1 REVERT JUMPDEST PUSH1 0x0 PUSH2 0x14C1 DUP6 DUP3 DUP7 ADD PUSH2 0x13CD JUMP JUMPDEST SWAP3 POP POP PUSH1 0x20 DUP4 ADD CALLDATALOAD PUSH8 0xFFFFFFFFFFFFFFFF DUP2 GT ISZERO PUSH2 0x14DE JUMPI PUSH1 0x0 DUP1 REVERT JUMPDEST PUSH2 0x14EA DUP6 DUP3 DUP7 ADD PUSH2 0x13A3 JUMP JUMPDEST SWAP2 POP POP SWAP3 POP SWAP3 SWAP1 POP JUMP JUMPDEST PUSH1 0x0 DUP1 PUSH1 0x40 DUP4 DUP6 SUB SLT ISZERO PUSH2 0x1507 JUMPI PUSH1 0x0 DUP1 REVERT JUMPDEST PUSH1 0x0 PUSH2 0x1515 DUP6 DUP3 DUP7 ADD PUSH2 0x13CD JUMP JUMPDEST SWAP3 POP POP PUSH1 0x20 PUSH2 0x1526 DUP6 DUP3 DUP7 ADD PUSH2 0x13CD JUMP JUMPDEST SWAP2 POP POP SWAP3 POP SWAP3 SWAP1 POP JUMP JUMPDEST PUSH2 0x1539 DUP2 PUSH2 0x1C6E JUMP JUMPDEST DUP3 MSTORE POP POP JUMP JUMPDEST PUSH2 0x1548 DUP2 PUSH2 0x1C80 JUMP JUMPDEST DUP3 MSTORE POP POP JUMP JUMPDEST PUSH1 0x0 PUSH2 0x1559 DUP3 PUSH2 0x1C13 JUMP JUMPDEST PUSH2 0x1563 DUP2 DUP6 PUSH2 0x1C1E JUMP JUMPDEST SWAP4 POP PUSH2 0x1573 DUP2 DUP6 PUSH1 0x20 DUP7 ADD PUSH2 0x1CC5 JUMP JUMPDEST PUSH2 0x157C DUP2 PUSH2 0x1E2A JUMP JUMPDEST DUP5 ADD SWAP2 POP POP SWAP3 SWAP2 POP POP JUMP JUMPDEST PUSH1 0x0 PUSH2 0x1592 DUP3 PUSH2 0x1C13 JUMP JUMPDEST PUSH2 0x159C DUP2 DUP6 PUSH2 0x1C2F JUMP JUMPDEST SWAP4 POP PUSH2 0x15AC DUP2 DUP6 PUSH1 0x20 DUP7 ADD PUSH2 0x1CC5 JUMP JUMPDEST DUP1 DUP5 ADD SWAP2 POP POP SWAP3 SWAP2 POP POP JUMP JUMPDEST PUSH1 0x0 DUP2 SLOAD PUSH2 0x15C5 DUP2 PUSH2 0x1D22 JUMP JUMPDEST PUSH2 0x15CF DUP2 DUP7 PUSH2 0x1C2F JUMP JUMPDEST SWAP5 POP PUSH1 0x1 DUP3 AND PUSH1 0x0 DUP2 EQ PUSH2 0x15EA JUMPI PUSH1 0x1 DUP2 EQ PUSH2 0x15FB JUMPI PUSH2 0x162E JUMP JUMPDEST PUSH1 0xFF NOT DUP4 AND DUP7 MSTORE DUP2 DUP7 ADD SWAP4 POP PUSH2 0x162E JUMP JUMPDEST PUSH2 0x1604 DUP6 PUSH2 0x1BFE JUMP JUMPDEST PUSH1 0x0 JUMPDEST DUP4 DUP2 LT ISZERO PUSH2 0x1626 JUMPI DUP2 SLOAD DUP2 DUP10 ADD MSTORE PUSH1 0x1 DUP3 ADD SWAP2 POP PUSH1 0x20 DUP2 ADD SWAP1 POP PUSH2 0x1607 JUMP JUMPDEST DUP4 DUP9 ADD SWAP6 POP POP POP JUMPDEST POP POP POP SWAP3 SWAP2 POP POP JUMP JUMPDEST PUSH1 0x0 PUSH2 0x1644 PUSH1 0x20 DUP4 PUSH2 0x1C1E JUMP JUMPDEST SWAP2 POP PUSH32 0x4E656E68756D612076657273616F2076616C69646120656E636F6E7472616461 PUSH1 0x0 DUP4 ADD MSTORE PUSH1 0x20 DUP3 ADD SWAP1 POP SWAP2 SWAP1 POP JUMP JUMPDEST PUSH1 0x0 PUSH2 0x1684 PUSH1 0x24 DUP4 PUSH2 0x1C1E JUMP JUMPDEST SWAP2 POP PUSH32 0x556D6120706167696E6120636F6D206573746520746974756C6F206A61206578 PUSH1 0x0 DUP4 ADD MSTORE PUSH32 0x6973746500000000000000000000000000000000000000000000000000000000 PUSH1 0x20 DUP4 ADD MSTORE PUSH1 0x40 DUP3 ADD SWAP1 POP SWAP2 SWAP1 POP JUMP JUMPDEST PUSH1 0x0 PUSH2 0x16EA PUSH1 0x43 DUP4 PUSH2 0x1C1E JUMP JUMPDEST SWAP2 POP PUSH32 0x412061646963616F206465206E6F76617320766572636F657320736F20652070 PUSH1 0x0 DUP4 ADD MSTORE PUSH32 0x65726D6974696461207175616E646F206120706167696E612065737461206174 PUSH1 0x20 DUP4 ADD MSTORE PUSH32 0x6976610000000000000000000000000000000000000000000000000000000000 PUSH1 0x40 DUP4 ADD MSTORE PUSH1 0x60 DUP3 ADD SWAP1 POP SWAP2 SWAP1 POP JUMP JUMPDEST PUSH1 0x0 PUSH2 0x1776 PUSH1 0x3F DUP4 PUSH2 0x1C1E JUMP JUMPDEST SWAP2 POP PUSH32 0x4120616C7465726163616F2064652076657273616F20736F2065207065726D69 PUSH1 0x0 DUP4 ADD MSTORE PUSH32 0x74696461207175616E646F206120706167696E61206573746120617469766100 PUSH1 0x20 DUP4 ADD MSTORE PUSH1 0x40 DUP3 ADD SWAP1 POP SWAP2 SWAP1 POP JUMP JUMPDEST PUSH1 0x0 PUSH2 0x17DC PUSH1 0x1A DUP4 PUSH2 0x1C1E JUMP JUMPDEST SWAP2 POP PUSH32 0x496E6469636520646120706167696E6120696E76616C69646F2E000000000000 PUSH1 0x0 DUP4 ADD MSTORE PUSH1 0x20 DUP3 ADD SWAP1 POP SWAP2 SWAP1 POP JUMP JUMPDEST PUSH1 0x0 PUSH2 0x181C PUSH1 0x1A DUP4 PUSH2 0x1C1E JUMP JUMPDEST SWAP2 POP PUSH32 0x496E646963652064612076657273616F20696E76616C69646F2E000000000000 PUSH1 0x0 DUP4 ADD MSTORE PUSH1 0x20 DUP3 ADD SWAP1 POP SWAP2 SWAP1 POP JUMP JUMPDEST PUSH1 0x0 PUSH2 0x185C PUSH1 0x16 DUP4 PUSH2 0x1C1E JUMP JUMPDEST SWAP2 POP PUSH32 0x496E6469636520666F726120646F20616C63616E636500000000000000000000 PUSH1 0x0 DUP4 ADD MSTORE PUSH1 0x20 DUP3 ADD SWAP1 POP SWAP2 SWAP1 POP JUMP JUMPDEST PUSH1 0x0 PUSH2 0x189C PUSH1 0x3D DUP4 PUSH2 0x1C1E JUMP JUMPDEST SWAP2 POP PUSH32 0x536F6D656E7465206F20646F6E6F20646573746120426C6F636B706564696120 PUSH1 0x0 DUP4 ADD MSTORE PUSH32 0x706F646520616C7465726172206F20617472696275746F20617469766F000000 PUSH1 0x20 DUP4 ADD MSTORE PUSH1 0x40 DUP3 ADD SWAP1 POP SWAP2 SWAP1 POP JUMP JUMPDEST PUSH1 0x0 PUSH2 0x1902 PUSH1 0x47 DUP4 PUSH2 0x1C1E JUMP JUMPDEST SWAP2 POP PUSH32 0x412061646963616F206465206E6F76617320706167696E617320736F20652070 PUSH1 0x0 DUP4 ADD MSTORE PUSH32 0x65726D6974696461207175616E646F206120426C6F636B706564696120657374 PUSH1 0x20 DUP4 ADD MSTORE PUSH32 0x6120617469766100000000000000000000000000000000000000000000000000 PUSH1 0x40 DUP4 ADD MSTORE PUSH1 0x60 DUP3 ADD SWAP1 POP SWAP2 SWAP1 POP JUMP JUMPDEST PUSH2 0x198A DUP2 PUSH2 0x1CAC JUMP JUMPDEST DUP3 MSTORE POP POP JUMP JUMPDEST PUSH1 0x0 PUSH2 0x199C DUP3 DUP5 PUSH2 0x1587 JUMP JUMPDEST SWAP2 POP DUP2 SWAP1 POP SWAP3 SWAP2 POP POP JUMP JUMPDEST PUSH1 0x0 PUSH2 0x19B3 DUP3 DUP5 PUSH2 0x15B8 JUMP JUMPDEST SWAP2 POP DUP2 SWAP1 POP SWAP3 SWAP2 POP POP JUMP JUMPDEST PUSH1 0x0 PUSH1 0x20 DUP3 ADD SWAP1 POP PUSH2 0x19D3 PUSH1 0x0 DUP4 ADD DUP5 PUSH2 0x1530 JUMP JUMPDEST SWAP3 SWAP2 POP POP JUMP JUMPDEST PUSH1 0x0 PUSH1 0x20 DUP3 ADD SWAP1 POP PUSH2 0x19EE PUSH1 0x0 DUP4 ADD DUP5 PUSH2 0x153F JUMP JUMPDEST SWAP3 SWAP2 POP POP JUMP JUMPDEST PUSH1 0x0 PUSH1 0x80 DUP3 ADD SWAP1 POP PUSH2 0x1A09 PUSH1 0x0 DUP4 ADD DUP8 PUSH2 0x153F JUMP JUMPDEST PUSH2 0x1A16 PUSH1 0x20 DUP4 ADD DUP7 PUSH2 0x1530 JUMP JUMPDEST PUSH2 0x1A23 PUSH1 0x40 DUP4 ADD DUP6 PUSH2 0x1981 JUMP JUMPDEST DUP2 DUP2 SUB PUSH1 0x60 DUP4 ADD MSTORE PUSH2 0x1A35 DUP2 DUP5 PUSH2 0x154E JUMP JUMPDEST SWAP1 POP SWAP6 SWAP5 POP POP POP POP POP JUMP JUMPDEST PUSH1 0x0 PUSH1 0x20 DUP3 ADD SWAP1 POP DUP2 DUP2 SUB PUSH1 0x0 DUP4 ADD MSTORE PUSH2 0x1A5A DUP2 DUP5 PUSH2 0x154E JUMP JUMPDEST SWAP1 POP SWAP3 SWAP2 POP POP JUMP JUMPDEST PUSH1 0x0 PUSH1 0x20 DUP3 ADD SWAP1 POP DUP2 DUP2 SUB PUSH1 0x0 DUP4 ADD MSTORE PUSH2 0x1A7B DUP2 PUSH2 0x1637 JUMP JUMPDEST SWAP1 POP SWAP2 SWAP1 POP JUMP JUMPDEST PUSH1 0x0 PUSH1 0x20 DUP3 ADD SWAP1 POP DUP2 DUP2 SUB PUSH1 0x0 DUP4 ADD MSTORE PUSH2 0x1A9B DUP2 PUSH2 0x1677 JUMP JUMPDEST SWAP1 POP SWAP2 SWAP1 POP JUMP JUMPDEST PUSH1 0x0 PUSH1 0x20 DUP3 ADD SWAP1 POP DUP2 DUP2 SUB PUSH1 0x0 DUP4 ADD MSTORE PUSH2 0x1ABB DUP2 PUSH2 0x16DD JUMP JUMPDEST SWAP1 POP SWAP2 SWAP1 POP JUMP JUMPDEST PUSH1 0x0 PUSH1 0x20 DUP3 ADD SWAP1 POP DUP2 DUP2 SUB PUSH1 0x0 DUP4 ADD MSTORE PUSH2 0x1ADB DUP2 PUSH2 0x1769 JUMP JUMPDEST SWAP1 POP SWAP2 SWAP1 POP JUMP JUMPDEST PUSH1 0x0 PUSH1 0x20 DUP3 ADD SWAP1 POP DUP2 DUP2 SUB PUSH1 0x0 DUP4 ADD MSTORE PUSH2 0x1AFB DUP2 PUSH2 0x17CF JUMP JUMPDEST SWAP1 POP SWAP2 SWAP1 POP JUMP JUMPDEST PUSH1 0x0 PUSH1 0x20 DUP3 ADD SWAP1 POP DUP2 DUP2 SUB PUSH1 0x0 DUP4 ADD MSTORE PUSH2 0x1B1B DUP2 PUSH2 0x180F JUMP JUMPDEST SWAP1 POP SWAP2 SWAP1 POP JUMP JUMPDEST PUSH1 0x0 PUSH1 0x20 DUP3 ADD SWAP1 POP DUP2 DUP2 SUB PUSH1 0x0 DUP4 ADD MSTORE PUSH2 0x1B3B DUP2 PUSH2 0x184F JUMP JUMPDEST SWAP1 POP SWAP2 SWAP1 POP JUMP JUMPDEST PUSH1 0x0 PUSH1 0x20 DUP3 ADD SWAP1 POP DUP2 DUP2 SUB PUSH1 0x0 DUP4 ADD MSTORE PUSH2 0x1B5B DUP2 PUSH2 0x188F JUMP JUMPDEST SWAP1 POP SWAP2 SWAP1 POP JUMP JUMPDEST PUSH1 0x0 PUSH1 0x20 DUP3 ADD SWAP1 POP DUP2 DUP2 SUB PUSH1 0x0 DUP4 ADD MSTORE PUSH2 0x1B7B DUP2 PUSH2 0x18F5 JUMP JUMPDEST SWAP1 POP SWAP2 SWAP1 POP JUMP JUMPDEST PUSH1 0x0 PUSH1 0x20 DUP3 ADD SWAP1 POP PUSH2 0x1B97 PUSH1 0x0 DUP4 ADD DUP5 PUSH2 0x1981 JUMP JUMPDEST SWAP3 SWAP2 POP POP JUMP JUMPDEST PUSH1 0x0 PUSH1 0x40 MLOAD SWAP1 POP DUP2 DUP2 ADD DUP2 DUP2 LT PUSH8 0xFFFFFFFFFFFFFFFF DUP3 GT OR ISZERO PUSH2 0x1BC4 JUMPI PUSH2 0x1BC3 PUSH2 0x1DFB JUMP JUMPDEST JUMPDEST DUP1 PUSH1 0x40 MSTORE POP SWAP2 SWAP1 POP JUMP JUMPDEST PUSH1 0x0 PUSH8 0xFFFFFFFFFFFFFFFF DUP3 GT ISZERO PUSH2 0x1BE9 JUMPI PUSH2 0x1BE8 PUSH2 0x1DFB JUMP JUMPDEST JUMPDEST PUSH1 0x1F NOT PUSH1 0x1F DUP4 ADD AND SWAP1 POP PUSH1 0x20 DUP2 ADD SWAP1 POP SWAP2 SWAP1 POP JUMP JUMPDEST PUSH1 0x0 DUP2 SWAP1 POP DUP2 PUSH1 0x0 MSTORE PUSH1 0x20 PUSH1 0x0 KECCAK256 SWAP1 POP SWAP2 SWAP1 POP JUMP JUMPDEST PUSH1 0x0 DUP2 MLOAD SWAP1 POP SWAP2 SWAP1 POP JUMP JUMPDEST PUSH1 0x0 DUP3 DUP3 MSTORE PUSH1 0x20 DUP3 ADD SWAP1 POP SWAP3 SWAP2 POP POP JUMP JUMPDEST PUSH1 0x0 DUP2 SWAP1 POP SWAP3 SWAP2 POP POP JUMP JUMPDEST PUSH1 0x0 PUSH2 0x1C45 DUP3 PUSH2 0x1CAC JUMP JUMPDEST SWAP2 POP PUSH2 0x1C50 DUP4 PUSH2 0x1CAC JUMP JUMPDEST SWAP3 POP DUP3 DUP3 LT ISZERO PUSH2 0x1C63 JUMPI PUSH2 0x1C62 PUSH2 0x1D9D JUMP JUMPDEST JUMPDEST DUP3 DUP3 SUB SWAP1 POP SWAP3 SWAP2 POP POP JUMP JUMPDEST PUSH1 0x0 PUSH2 0x1C79 DUP3 PUSH2 0x1C8C JUMP JUMPDEST SWAP1 POP SWAP2 SWAP1 POP JUMP JUMPDEST PUSH1 0x0 DUP2 ISZERO ISZERO SWAP1 POP SWAP2 SWAP1 POP JUMP JUMPDEST PUSH1 0x0 PUSH20 0xFFFFFFFFFFFFFFFFFFFFFFFFFFFFFFFFFFFFFFFF DUP3 AND SWAP1 POP SWAP2 SWAP1 POP JUMP JUMPDEST PUSH1 0x0 DUP2 SWAP1 POP SWAP2 SWAP1 POP JUMP JUMPDEST DUP3 DUP2 DUP4 CALLDATACOPY PUSH1 0x0 DUP4 DUP4 ADD MSTORE POP POP POP JUMP JUMPDEST PUSH1 0x0 JUMPDEST DUP4 DUP2 LT ISZERO PUSH2 0x1CE3 JUMPI DUP1 DUP3 ADD MLOAD DUP2 DUP5 ADD MSTORE PUSH1 0x20 DUP2 ADD SWAP1 POP PUSH2 0x1CC8 JUMP JUMPDEST DUP4 DUP2 GT ISZERO PUSH2 0x1CF2 JUMPI PUSH1 0x0 DUP5 DUP5 ADD MSTORE JUMPDEST POP POP POP POP JUMP JUMPDEST PUSH1 0x0 PUSH2 0x1D03 DUP3 PUSH2 0x1CAC JUMP JUMPDEST SWAP2 POP PUSH1 0x0 DUP3 EQ ISZERO PUSH2 0x1D17 JUMPI PUSH2 0x1D16 PUSH2 0x1D9D JUMP JUMPDEST JUMPDEST PUSH1 0x1 DUP3 SUB SWAP1 POP SWAP2 SWAP1 POP JUMP JUMPDEST PUSH1 0x0 PUSH1 0x2 DUP3 DIV SWAP1 POP PUSH1 0x1 DUP3 AND DUP1 PUSH2 0x1D3A JUMPI PUSH1 0x7F DUP3 AND SWAP2 POP JUMPDEST PUSH1 0x20 DUP3 LT DUP2 EQ ISZERO PUSH2 0x1D4E JUMPI PUSH2 0x1D4D PUSH2 0x1DCC JUMP JUMPDEST JUMPDEST POP SWAP2 SWAP1 POP JUMP JUMPDEST PUSH1 0x0 PUSH2 0x1D5F DUP3 PUSH2 0x1CAC JUMP JUMPDEST SWAP2 POP PUSH32 0xFFFFFFFFFFFFFFFFFFFFFFFFFFFFFFFFFFFFFFFFFFFFFFFFFFFFFFFFFFFFFFFF DUP3 EQ ISZERO PUSH2 0x1D92 JUMPI PUSH2 0x1D91 PUSH2 0x1D9D JUMP JUMPDEST JUMPDEST PUSH1 0x1 DUP3 ADD SWAP1 POP SWAP2 SWAP1 POP JUMP JUMPDEST PUSH32 0x4E487B7100000000000000000000000000000000000000000000000000000000 PUSH1 0x0 MSTORE PUSH1 0x11 PUSH1 0x4 MSTORE PUSH1 0x24 PUSH1 0x0 REVERT JUMPDEST PUSH32 0x4E487B7100000000000000000000000000000000000000000000000000000000 PUSH1 0x0 MSTORE PUSH1 0x22 PUSH1 0x4 MSTORE PUSH1 0x24 PUSH1 0x0 REVERT JUMPDEST PUSH32 0x4E487B7100000000000000000000000000000000000000000000000000000000 PUSH1 0x0 MSTORE PUSH1 0x41 PUSH1 0x4 MSTORE PUSH1 0x24 PUSH1 0x0 REVERT JUMPDEST PUSH1 0x0 PUSH1 0x1F NOT PUSH1 0x1F DUP4 ADD AND SWAP1 POP SWAP2 SWAP1 POP JUMP JUMPDEST PUSH2 0x1E44 DUP2 PUSH2 0x1C80 JUMP JUMPDEST DUP2 EQ PUSH2 0x1E4F JUMPI PUSH1 0x0 DUP1 REVERT JUMPDEST POP JUMP JUMPDEST PUSH2 0x1E5B DUP2 PUSH2 0x1CAC JUMP JUMPDEST DUP2 EQ PUSH2 0x1E66 JUMPI PUSH1 0x0 DUP1 REVERT JUMPDEST POP JUMP INVALID LOG2 PUSH5 0x6970667358 0x22 SLT KECCAK256 0xCA 0xCF 0xEC 0xC9 0xDF SWAP7 SWAP10 0xC0 DUP2 DUP9 0xE3 DUP5 0xDD PUSH27 0xEB74620AF82246B89CD725B9319D9F2DBCFA64736F6C6343000800 STOP CALLER "
				},
				"gasEstimates": {
					"creation": {
						"codeDepositCost": "1567800",
						"executionCost": "63426",
						"totalCost": "1631226"
					},
					"external": {
						"adicionaNovaVercaoDesativadaAPaginaPorIndexPaginas(uint256,string)": "infinite",
						"ativaDesativaBlockpedia(bool)": "22222",
						"ativaVersaoPorIndexVersoesEIndexPaginas(uint256,uint256)": "infinite",
						"ativo()": "1212",
						"autor()": "1265",
						"criarPagina(string,string)": "infinite",
						"dataCriacao()": "1129",
						"getConteudoVersaoValidaPorIndexPaginas(uint256)": "infinite",
						"paginas(uint256)": "infinite"
					},
					"internal": {
						"getVersaoValidaDeUmaPagina(struct Pagina memory)": "infinite",
						"tituloExiste(string memory)": "infinite"
					}
				},
				"methodIdentifiers": {
					"adicionaNovaVercaoDesativadaAPaginaPorIndexPaginas(uint256,string)": "d4d23a6e",
					"ativaDesativaBlockpedia(bool)": "1509d30c",
					"ativaVersaoPorIndexVersoesEIndexPaginas(uint256,uint256)": "95be551a",
					"ativo()": "a18cc13b",
					"autor()": "0694952d",
					"criarPagina(string,string)": "1c18379a",
					"dataCriacao()": "6f70a52e",
					"getConteudoVersaoValidaPorIndexPaginas(uint256)": "4d7e6726",
					"paginas(uint256)": "e7d4296a"
				}
			},
			"storageLayout": {
				"storage": [
					{
						"astId": 5,
						"contract": "blockpedia.sol:Blockpedia",
						"label": "ativo",
						"offset": 0,
						"slot": "0",
						"type": "t_bool"
					},
					{
						"astId": 7,
						"contract": "blockpedia.sol:Blockpedia",
						"label": "autor",
						"offset": 1,
						"slot": "0",
						"type": "t_address"
					},
					{
						"astId": 11,
						"contract": "blockpedia.sol:Blockpedia",
						"label": "dataCriacao",
						"offset": 0,
						"slot": "1",
						"type": "t_uint256"
					},
					{
						"astId": 15,
						"contract": "blockpedia.sol:Blockpedia",
						"label": "paginas",
						"offset": 0,
						"slot": "2",
						"type": "t_array(t_struct(Pagina)387_storage)dyn_storage"
					}
				],
				"types": {
					"t_address": {
						"encoding": "inplace",
						"label": "address",
						"numberOfBytes": "20"
					},
					"t_array(t_struct(Pagina)387_storage)dyn_storage": {
						"base": "t_struct(Pagina)387_storage",
						"encoding": "dynamic_array",
						"label": "struct Pagina[]",
						"numberOfBytes": "32"
					},
					"t_array(t_struct(Versao)398_storage)dyn_storage": {
						"base": "t_struct(Versao)398_storage",
						"encoding": "dynamic_array",
						"label": "struct Versao[]",
						"numberOfBytes": "32"
					},
					"t_bool": {
						"encoding": "inplace",
						"label": "bool",
						"numberOfBytes": "1"
					},
					"t_string_storage": {
						"encoding": "bytes",
						"label": "string",
						"numberOfBytes": "32"
					},
					"t_struct(Pagina)387_storage": {
						"encoding": "inplace",
						"label": "struct Pagina",
						"members": [
							{
								"astId": 376,
								"contract": "blockpedia.sol:Blockpedia",
								"label": "ativo",
								"offset": 0,
								"slot": "0",
								"type": "t_bool"
							},
							{
								"astId": 378,
								"contract": "blockpedia.sol:Blockpedia",
								"label": "autor",
								"offset": 1,
								"slot": "0",
								"type": "t_address"
							},
							{
								"astId": 380,
								"contract": "blockpedia.sol:Blockpedia",
								"label": "dataCriacao",
								"offset": 0,
								"slot": "1",
								"type": "t_uint256"
							},
							{
								"astId": 382,
								"contract": "blockpedia.sol:Blockpedia",
								"label": "titulo",
								"offset": 0,
								"slot": "2",
								"type": "t_string_storage"
							},
							{
								"astId": 386,
								"contract": "blockpedia.sol:Blockpedia",
								"label": "versoes",
								"offset": 0,
								"slot": "3",
								"type": "t_array(t_struct(Versao)398_storage)dyn_storage"
							}
						],
						"numberOfBytes": "128"
					},
					"t_struct(Versao)398_storage": {
						"encoding": "inplace",
						"label": "struct Versao",
						"members": [
							{
								"astId": 391,
								"contract": "blockpedia.sol:Blockpedia",
								"label": "ativo",
								"offset": 0,
								"slot": "0",
								"type": "t_bool"
							},
							{
								"astId": 393,
								"contract": "blockpedia.sol:Blockpedia",
								"label": "autor",
								"offset": 1,
								"slot": "0",
								"type": "t_address"
							},
							{
								"astId": 395,
								"contract": "blockpedia.sol:Blockpedia",
								"label": "dataCriacao",
								"offset": 0,
								"slot": "1",
								"type": "t_uint256"
							},
							{
								"astId": 397,
								"contract": "blockpedia.sol:Blockpedia",
								"label": "conteudo",
								"offset": 0,
								"slot": "2",
								"type": "t_string_storage"
							}
						],
						"numberOfBytes": "96"
					},
					"t_uint256": {
						"encoding": "inplace",
						"label": "uint256",
						"numberOfBytes": "32"
					}
				}
			},
			"userdoc": {
				"kind": "user",
				"methods": {},
				"version": 1
			}
		}
	}
}