{
	"blockpedia.sol": {
		"Blockpedia": {
			"abi": [
				{
					"inputs": [],
					"stateMutability": "nonpayable",
					"type": "constructor"
				},
				{
					"inputs": [
						{
							"internalType": "bool",
							"name": "_ativo",
							"type": "bool"
						}
					],
					"name": "ativaDesativaBlockpedia",
					"outputs": [],
					"stateMutability": "nonpayable",
					"type": "function"
				},
				{
					"inputs": [],
					"name": "ativo",
					"outputs": [
						{
							"internalType": "bool",
							"name": "",
							"type": "bool"
						}
					],
					"stateMutability": "view",
					"type": "function"
				},
				{
					"inputs": [],
					"name": "autor",
					"outputs": [
						{
							"internalType": "address",
							"name": "",
							"type": "address"
						}
					],
					"stateMutability": "view",
					"type": "function"
				},
				{
					"inputs": [
						{
							"internalType": "string",
							"name": "titulo",
							"type": "string"
						},
						{
							"internalType": "string",
							"name": "conteudo",
							"type": "string"
						}
					],
					"name": "criarPagina",
					"outputs": [],
					"stateMutability": "nonpayable",
					"type": "function"
				},
				{
					"inputs": [
						{
							"internalType": "uint256",
							"name": "indice",
							"type": "uint256"
						}
					],
					"name": "getVersaoValidaPorIndexPaginas",
					"outputs": [
						{
							"internalType": "string",
							"name": "",
							"type": "string"
						}
					],
					"stateMutability": "view",
					"type": "function"
				},
				{
					"inputs": [
						{
							"internalType": "uint256",
							"name": "",
							"type": "uint256"
						}
					],
					"name": "paginas",
					"outputs": [
						{
							"internalType": "address",
							"name": "autor",
							"type": "address"
						},
						{
							"internalType": "bool",
							"name": "ativo",
							"type": "bool"
						},
						{
							"internalType": "string",
							"name": "titulo",
							"type": "string"
						}
					],
					"stateMutability": "view",
					"type": "function"
				}
			],
			"devdoc": {
				"kind": "dev",
				"methods": {},
				"version": 1
			},
			"evm": {
				"assembly": "    /* \"blockpedia.sol\":85:2167  contract Blockpedia\r... */\n  mstore(0x40, 0x80)\n    /* \"blockpedia.sol\":133:137  true */\n  0x01\n    /* \"blockpedia.sol\":113:137  bool public ativo = true */\n  0x00\n  dup1\n  0x0100\n  exp\n  dup2\n  sload\n  dup2\n  0xff\n  mul\n  not\n  and\n  swap1\n  dup4\n  iszero\n  iszero\n  mul\n  or\n  swap1\n  sstore\n  pop\n    /* \"blockpedia.sol\":206:240  constructor(){autor = msg.sender;} */\n  callvalue\n  dup1\n  iszero\n  tag_1\n  jumpi\n  0x00\n  dup1\n  revert\ntag_1:\n  pop\n    /* \"blockpedia.sol\":228:238  msg.sender */\n  caller\n    /* \"blockpedia.sol\":220:225  autor */\n  0x00\n  0x01\n    /* \"blockpedia.sol\":220:238  autor = msg.sender */\n  0x0100\n  exp\n  dup2\n  sload\n  dup2\n  0xffffffffffffffffffffffffffffffffffffffff\n  mul\n  not\n  and\n  swap1\n  dup4\n  0xffffffffffffffffffffffffffffffffffffffff\n  and\n  mul\n  or\n  swap1\n  sstore\n  pop\n    /* \"blockpedia.sol\":85:2167  contract Blockpedia\r... */\n  dataSize(sub_0)\n  dup1\n  dataOffset(sub_0)\n  0x00\n  codecopy\n  0x00\n  return\nstop\n\nsub_0: assembly {\n        /* \"blockpedia.sol\":85:2167  contract Blockpedia\r... */\n      mstore(0x40, 0x80)\n      callvalue\n      dup1\n      iszero\n      tag_1\n      jumpi\n      0x00\n      dup1\n      revert\n    tag_1:\n      pop\n      jumpi(tag_2, lt(calldatasize, 0x04))\n      shr(0xe0, calldataload(0x00))\n      dup1\n      0x0694952d\n      eq\n      tag_3\n      jumpi\n      dup1\n      0x1509d30c\n      eq\n      tag_4\n      jumpi\n      dup1\n      0x1c18379a\n      eq\n      tag_5\n      jumpi\n      dup1\n      0x57ae2a89\n      eq\n      tag_6\n      jumpi\n      dup1\n      0xa18cc13b\n      eq\n      tag_7\n      jumpi\n      dup1\n      0xe7d4296a\n      eq\n      tag_8\n      jumpi\n    tag_2:\n      0x00\n      dup1\n      revert\n        /* \"blockpedia.sol\":145:165  address public autor */\n    tag_3:\n      tag_9\n      tag_10\n      jump\t// in\n    tag_9:\n      mload(0x40)\n      tag_11\n      swap2\n      swap1\n      tag_12\n      jump\t// in\n    tag_11:\n      mload(0x40)\n      dup1\n      swap2\n      sub\n      swap1\n      return\n        /* \"blockpedia.sol\":873:1067  function ativaDesativaBlockpedia(bool _ativo) public\r... */\n    tag_4:\n      tag_13\n      0x04\n      dup1\n      calldatasize\n      sub\n      dup2\n      add\n      swap1\n      tag_14\n      swap2\n      swap1\n      tag_15\n      jump\t// in\n    tag_14:\n      tag_16\n      jump\t// in\n    tag_13:\n      stop\n        /* \"blockpedia.sol\":248:865  function criarPagina(string memory titulo, string memory conteudo) public\r... */\n    tag_5:\n      tag_17\n      0x04\n      dup1\n      calldatasize\n      sub\n      dup2\n      add\n      swap1\n      tag_18\n      swap2\n      swap1\n      tag_19\n      jump\t// in\n    tag_18:\n      tag_20\n      jump\t// in\n    tag_17:\n      stop\n        /* \"blockpedia.sol\":1606:1849  function getVersaoValidaPorIndexPaginas(uint indice) public view returns (string memory)\r... */\n    tag_6:\n      tag_21\n      0x04\n      dup1\n      calldatasize\n      sub\n      dup2\n      add\n      swap1\n      tag_22\n      swap2\n      swap1\n      tag_23\n      jump\t// in\n    tag_22:\n      tag_24\n      jump\t// in\n    tag_21:\n      mload(0x40)\n      tag_25\n      swap2\n      swap1\n      tag_26\n      jump\t// in\n    tag_25:\n      mload(0x40)\n      dup1\n      swap2\n      sub\n      swap1\n      return\n        /* \"blockpedia.sol\":113:137  bool public ativo = true */\n    tag_7:\n      tag_27\n      tag_28\n      jump\t// in\n    tag_27:\n      mload(0x40)\n      tag_29\n      swap2\n      swap1\n      tag_30\n      jump\t// in\n    tag_29:\n      mload(0x40)\n      dup1\n      swap2\n      sub\n      swap1\n      return\n        /* \"blockpedia.sol\":173:196  Pagina[] public paginas */\n    tag_8:\n      tag_31\n      0x04\n      dup1\n      calldatasize\n      sub\n      dup2\n      add\n      swap1\n      tag_32\n      swap2\n      swap1\n      tag_23\n      jump\t// in\n    tag_32:\n      tag_33\n      jump\t// in\n    tag_31:\n      mload(0x40)\n      tag_34\n      swap4\n      swap3\n      swap2\n      swap1\n      tag_35\n      jump\t// in\n    tag_34:\n      mload(0x40)\n      dup1\n      swap2\n      sub\n      swap1\n      return\n        /* \"blockpedia.sol\":145:165  address public autor */\n    tag_10:\n      0x00\n      0x01\n      swap1\n      sload\n      swap1\n      0x0100\n      exp\n      swap1\n      div\n      0xffffffffffffffffffffffffffffffffffffffff\n      and\n      dup2\n      jump\t// out\n        /* \"blockpedia.sol\":873:1067  function ativaDesativaBlockpedia(bool _ativo) public\r... */\n    tag_16:\n        /* \"blockpedia.sol\":964:969  autor */\n      0x00\n      0x01\n      swap1\n      sload\n      swap1\n      0x0100\n      exp\n      swap1\n      div\n      0xffffffffffffffffffffffffffffffffffffffff\n      and\n        /* \"blockpedia.sol\":950:969  msg.sender == autor */\n      0xffffffffffffffffffffffffffffffffffffffff\n      and\n        /* \"blockpedia.sol\":950:960  msg.sender */\n      caller\n        /* \"blockpedia.sol\":950:969  msg.sender == autor */\n      0xffffffffffffffffffffffffffffffffffffffff\n      and\n      eq\n        /* \"blockpedia.sol\":942:1034  require(msg.sender == autor,\"Somente o dono desta Blockpedia pode alterar o atributo ativo\") */\n      tag_37\n      jumpi\n      mload(0x40)\n      0x08c379a000000000000000000000000000000000000000000000000000000000\n      dup2\n      mstore\n      0x04\n      add\n      tag_38\n      swap1\n      tag_39\n      jump\t// in\n    tag_38:\n      mload(0x40)\n      dup1\n      swap2\n      sub\n      swap1\n      revert\n    tag_37:\n        /* \"blockpedia.sol\":1053:1059  _ativo */\n      dup1\n        /* \"blockpedia.sol\":1045:1050  ativo */\n      0x00\n      dup1\n        /* \"blockpedia.sol\":1045:1059  ativo = _ativo */\n      0x0100\n      exp\n      dup2\n      sload\n      dup2\n      0xff\n      mul\n      not\n      and\n      swap1\n      dup4\n      iszero\n      iszero\n      mul\n      or\n      swap1\n      sstore\n      pop\n        /* \"blockpedia.sol\":873:1067  function ativaDesativaBlockpedia(bool _ativo) public\r... */\n      pop\n      jump\t// out\n        /* \"blockpedia.sol\":248:865  function criarPagina(string memory titulo, string memory conteudo) public\r... */\n    tag_20:\n        /* \"blockpedia.sol\":355:359  true */\n      0x01\n        /* \"blockpedia.sol\":346:359  ativo == true */\n      iszero\n      iszero\n        /* \"blockpedia.sol\":346:351  ativo */\n      0x00\n      dup1\n      sload\n      swap1\n      0x0100\n      exp\n      swap1\n      div\n      0xff\n      and\n        /* \"blockpedia.sol\":346:359  ativo == true */\n      iszero\n      iszero\n      eq\n        /* \"blockpedia.sol\":338:435  require(ativo == true, \"A adicao de novas paginas so e permitida quando a Blockpedia esta ativa\") */\n      tag_41\n      jumpi\n      mload(0x40)\n      0x08c379a000000000000000000000000000000000000000000000000000000000\n      dup2\n      mstore\n      0x04\n      add\n      tag_42\n      swap1\n      tag_43\n      jump\t// in\n    tag_42:\n      mload(0x40)\n      dup1\n      swap2\n      sub\n      swap1\n      revert\n    tag_41:\n        /* \"blockpedia.sol\":455:475  tituloExiste(titulo) */\n      tag_44\n        /* \"blockpedia.sol\":468:474  titulo */\n      dup3\n        /* \"blockpedia.sol\":455:467  tituloExiste */\n      tag_45\n        /* \"blockpedia.sol\":455:475  tituloExiste(titulo) */\n      jump\t// in\n    tag_44:\n        /* \"blockpedia.sol\":454:475  !tituloExiste(titulo) */\n      iszero\n        /* \"blockpedia.sol\":446:516  require(!tituloExiste(titulo), \"Uma pagina com este titulo ja existe\") */\n      tag_46\n      jumpi\n      mload(0x40)\n      0x08c379a000000000000000000000000000000000000000000000000000000000\n      dup2\n      mstore\n      0x04\n      add\n      tag_47\n      swap1\n      tag_48\n      jump\t// in\n    tag_47:\n      mload(0x40)\n      dup1\n      swap2\n      sub\n      swap1\n      revert\n    tag_46:\n        /* \"blockpedia.sol\":529:554  Pagina storage novaPagina */\n      0x00\n        /* \"blockpedia.sol\":557:564  paginas */\n      0x01\n        /* \"blockpedia.sol\":557:571  paginas.push() */\n      dup1\n      dup2\n      0x01\n      dup2\n      sload\n      add\n      dup1\n      dup3\n      sstore\n      dup1\n      swap2\n      pop\n      pop\n      sub\n      swap1\n      0x00\n      mstore\n      keccak256(0x00, 0x20)\n      swap1\n      0x03\n      mul\n      add\n        /* \"blockpedia.sol\":529:571  Pagina storage novaPagina = paginas.push() */\n      swap1\n      pop\n        /* \"blockpedia.sol\":669:679  msg.sender */\n      caller\n        /* \"blockpedia.sol\":650:660  novaPagina */\n      dup2\n        /* \"blockpedia.sol\":650:666  novaPagina.autor */\n      0x00\n      add\n      0x00\n        /* \"blockpedia.sol\":650:679  novaPagina.autor = msg.sender */\n      0x0100\n      exp\n      dup2\n      sload\n      dup2\n      0xffffffffffffffffffffffffffffffffffffffff\n      mul\n      not\n      and\n      swap1\n      dup4\n      0xffffffffffffffffffffffffffffffffffffffff\n      and\n      mul\n      or\n      swap1\n      sstore\n      pop\n        /* \"blockpedia.sol\":709:713  true */\n      0x01\n        /* \"blockpedia.sol\":690:700  novaPagina */\n      dup2\n        /* \"blockpedia.sol\":690:706  novaPagina.ativo */\n      0x00\n      add\n      0x14\n        /* \"blockpedia.sol\":690:713  novaPagina.ativo = true */\n      0x0100\n      exp\n      dup2\n      sload\n      dup2\n      0xff\n      mul\n      not\n      and\n      swap1\n      dup4\n      iszero\n      iszero\n      mul\n      or\n      swap1\n      sstore\n      pop\n        /* \"blockpedia.sol\":744:750  titulo */\n      dup3\n        /* \"blockpedia.sol\":724:734  novaPagina */\n      dup2\n        /* \"blockpedia.sol\":724:741  novaPagina.titulo */\n      0x01\n      add\n        /* \"blockpedia.sol\":724:750  novaPagina.titulo = titulo */\n      swap1\n      dup1\n      mload\n      swap1\n      0x20\n      add\n      swap1\n      tag_50\n      swap3\n      swap2\n      swap1\n      tag_51\n      jump\t// in\n    tag_50:\n      pop\n        /* \"blockpedia.sol\":763:773  novaPagina */\n      dup1\n        /* \"blockpedia.sol\":763:781  novaPagina.versoes */\n      0x02\n      add\n        /* \"blockpedia.sol\":787:821  Versao(msg.sender, true, conteudo) */\n      mload(0x40)\n      dup1\n      0x60\n      add\n      0x40\n      mstore\n      dup1\n        /* \"blockpedia.sol\":794:804  msg.sender */\n      caller\n        /* \"blockpedia.sol\":787:821  Versao(msg.sender, true, conteudo) */\n      0xffffffffffffffffffffffffffffffffffffffff\n      and\n      dup2\n      mstore\n      0x20\n      add\n        /* \"blockpedia.sol\":806:810  true */\n      0x01\n        /* \"blockpedia.sol\":787:821  Versao(msg.sender, true, conteudo) */\n      iszero\n      iszero\n      dup2\n      mstore\n      0x20\n      add\n        /* \"blockpedia.sol\":812:820  conteudo */\n      dup5\n        /* \"blockpedia.sol\":787:821  Versao(msg.sender, true, conteudo) */\n      dup2\n      mstore\n      pop\n        /* \"blockpedia.sol\":763:822  novaPagina.versoes.push(Versao(msg.sender, true, conteudo)) */\n      swap1\n      dup1\n      0x01\n      dup2\n      sload\n      add\n      dup1\n      dup3\n      sstore\n      dup1\n      swap2\n      pop\n      pop\n      0x01\n      swap1\n      sub\n      swap1\n      0x00\n      mstore\n      keccak256(0x00, 0x20)\n      swap1\n      0x02\n      mul\n      add\n      0x00\n      swap1\n      swap2\n      swap1\n      swap2\n      swap1\n      swap2\n      pop\n      0x00\n      dup3\n      add\n      mload\n      dup2\n      0x00\n      add\n      exp(0x0100, 0x00)\n      dup2\n      sload\n      dup2\n      0xffffffffffffffffffffffffffffffffffffffff\n      mul\n      not\n      and\n      swap1\n      dup4\n      0xffffffffffffffffffffffffffffffffffffffff\n      and\n      mul\n      or\n      swap1\n      sstore\n      pop\n      0x20\n      dup3\n      add\n      mload\n      dup2\n      0x00\n      add\n      exp(0x0100, 0x14)\n      dup2\n      sload\n      dup2\n      0xff\n      mul\n      not\n      and\n      swap1\n      dup4\n      iszero\n      iszero\n      mul\n      or\n      swap1\n      sstore\n      pop\n      0x40\n      dup3\n      add\n      mload\n      dup2\n      0x01\n      add\n      swap1\n      dup1\n      mload\n      swap1\n      0x20\n      add\n      swap1\n      tag_53\n      swap3\n      swap2\n      swap1\n      tag_51\n      jump\t// in\n    tag_53:\n      pop\n      pop\n      pop\n        /* \"blockpedia.sol\":248:865  function criarPagina(string memory titulo, string memory conteudo) public\r... */\n      pop\n      pop\n      pop\n      jump\t// out\n        /* \"blockpedia.sol\":1606:1849  function getVersaoValidaPorIndexPaginas(uint indice) public view returns (string memory)\r... */\n    tag_24:\n        /* \"blockpedia.sol\":1680:1693  string memory */\n      0x60\n        /* \"blockpedia.sol\":1728:1735  paginas */\n      0x01\n        /* \"blockpedia.sol\":1728:1742  paginas.length */\n      dup1\n      sload\n      swap1\n      pop\n        /* \"blockpedia.sol\":1719:1725  indice */\n      dup3\n        /* \"blockpedia.sol\":1719:1742  indice < paginas.length */\n      lt\n        /* \"blockpedia.sol\":1711:1769  require(indice < paginas.length, \"Indice fora do alcance\") */\n      tag_55\n      jumpi\n      mload(0x40)\n      0x08c379a000000000000000000000000000000000000000000000000000000000\n      dup2\n      mstore\n      0x04\n      add\n      tag_56\n      swap1\n      tag_57\n      jump\t// in\n    tag_56:\n      mload(0x40)\n      dup1\n      swap2\n      sub\n      swap1\n      revert\n    tag_55:\n        /* \"blockpedia.sol\":1789:1832  getVersaoValidaDeUmaPagina(paginas[indice]) */\n      tag_58\n        /* \"blockpedia.sol\":1816:1823  paginas */\n      0x01\n        /* \"blockpedia.sol\":1824:1830  indice */\n      dup4\n        /* \"blockpedia.sol\":1816:1831  paginas[indice] */\n      dup2\n      sload\n      dup2\n      lt\n      tag_59\n      jumpi\n      mstore(0x00, 0x4e487b7100000000000000000000000000000000000000000000000000000000)\n      mstore(0x04, 0x32)\n      revert(0x00, 0x24)\n    tag_59:\n      swap1\n      0x00\n      mstore\n      keccak256(0x00, 0x20)\n      swap1\n      0x03\n      mul\n      add\n        /* \"blockpedia.sol\":1789:1832  getVersaoValidaDeUmaPagina(paginas[indice]) */\n      mload(0x40)\n      dup1\n      0x80\n      add\n      0x40\n      mstore\n      swap1\n      dup2\n      0x00\n      dup3\n      add\n      0x00\n      swap1\n      sload\n      swap1\n      0x0100\n      exp\n      swap1\n      div\n      0xffffffffffffffffffffffffffffffffffffffff\n      and\n      0xffffffffffffffffffffffffffffffffffffffff\n      and\n      0xffffffffffffffffffffffffffffffffffffffff\n      and\n      dup2\n      mstore\n      0x20\n      add\n      0x00\n      dup3\n      add\n      0x14\n      swap1\n      sload\n      swap1\n      0x0100\n      exp\n      swap1\n      div\n      0xff\n      and\n      iszero\n      iszero\n      iszero\n      iszero\n      dup2\n      mstore\n      0x20\n      add\n      0x01\n      dup3\n      add\n      dup1\n      sload\n      tag_61\n      swap1\n      tag_62\n      jump\t// in\n    tag_61:\n      dup1\n      0x1f\n      add\n      0x20\n      dup1\n      swap2\n      div\n      mul\n      0x20\n      add\n      mload(0x40)\n      swap1\n      dup2\n      add\n      0x40\n      mstore\n      dup1\n      swap3\n      swap2\n      swap1\n      dup2\n      dup2\n      mstore\n      0x20\n      add\n      dup3\n      dup1\n      sload\n      tag_63\n      swap1\n      tag_62\n      jump\t// in\n    tag_63:\n      dup1\n      iszero\n      tag_64\n      jumpi\n      dup1\n      0x1f\n      lt\n      tag_65\n      jumpi\n      0x0100\n      dup1\n      dup4\n      sload\n      div\n      mul\n      dup4\n      mstore\n      swap2\n      0x20\n      add\n      swap2\n      jump(tag_64)\n    tag_65:\n      dup3\n      add\n      swap2\n      swap1\n      0x00\n      mstore\n      keccak256(0x00, 0x20)\n      swap1\n    tag_66:\n      dup2\n      sload\n      dup2\n      mstore\n      swap1\n      0x01\n      add\n      swap1\n      0x20\n      add\n      dup1\n      dup4\n      gt\n      tag_66\n      jumpi\n      dup3\n      swap1\n      sub\n      0x1f\n      and\n      dup3\n      add\n      swap2\n    tag_64:\n      pop\n      pop\n      pop\n      pop\n      pop\n      dup2\n      mstore\n      0x20\n      add\n      0x02\n      dup3\n      add\n      dup1\n      sload\n      dup1\n      0x20\n      mul\n      0x20\n      add\n      mload(0x40)\n      swap1\n      dup2\n      add\n      0x40\n      mstore\n      dup1\n      swap3\n      swap2\n      swap1\n      dup2\n      dup2\n      mstore\n      0x20\n      add\n      0x00\n      swap1\n    tag_67:\n      dup3\n      dup3\n      lt\n      iszero\n      tag_68\n      jumpi\n      dup4\n      dup3\n      swap1\n      0x00\n      mstore\n      keccak256(0x00, 0x20)\n      swap1\n      0x02\n      mul\n      add\n      mload(0x40)\n      dup1\n      0x60\n      add\n      0x40\n      mstore\n      swap1\n      dup2\n      0x00\n      dup3\n      add\n      0x00\n      swap1\n      sload\n      swap1\n      0x0100\n      exp\n      swap1\n      div\n      0xffffffffffffffffffffffffffffffffffffffff\n      and\n      0xffffffffffffffffffffffffffffffffffffffff\n      and\n      0xffffffffffffffffffffffffffffffffffffffff\n      and\n      dup2\n      mstore\n      0x20\n      add\n      0x00\n      dup3\n      add\n      0x14\n      swap1\n      sload\n      swap1\n      0x0100\n      exp\n      swap1\n      div\n      0xff\n      and\n      iszero\n      iszero\n      iszero\n      iszero\n      dup2\n      mstore\n      0x20\n      add\n      0x01\n      dup3\n      add\n      dup1\n      sload\n      tag_70\n      swap1\n      tag_62\n      jump\t// in\n    tag_70:\n      dup1\n      0x1f\n      add\n      0x20\n      dup1\n      swap2\n      div\n      mul\n      0x20\n      add\n      mload(0x40)\n      swap1\n      dup2\n      add\n      0x40\n      mstore\n      dup1\n      swap3\n      swap2\n      swap1\n      dup2\n      dup2\n      mstore\n      0x20\n      add\n      dup3\n      dup1\n      sload\n      tag_71\n      swap1\n      tag_62\n      jump\t// in\n    tag_71:\n      dup1\n      iszero\n      tag_72\n      jumpi\n      dup1\n      0x1f\n      lt\n      tag_73\n      jumpi\n      0x0100\n      dup1\n      dup4\n      sload\n      div\n      mul\n      dup4\n      mstore\n      swap2\n      0x20\n      add\n      swap2\n      jump(tag_72)\n    tag_73:\n      dup3\n      add\n      swap2\n      swap1\n      0x00\n      mstore\n      keccak256(0x00, 0x20)\n      swap1\n    tag_74:\n      dup2\n      sload\n      dup2\n      mstore\n      swap1\n      0x01\n      add\n      swap1\n      0x20\n      add\n      dup1\n      dup4\n      gt\n      tag_74\n      jumpi\n      dup3\n      swap1\n      sub\n      0x1f\n      and\n      dup3\n      add\n      swap2\n    tag_72:\n      pop\n      pop\n      pop\n      pop\n      pop\n      dup2\n      mstore\n      pop\n      pop\n      dup2\n      mstore\n      0x20\n      add\n      swap1\n      0x01\n      add\n      swap1\n      jump(tag_67)\n    tag_68:\n      pop\n      pop\n      pop\n      pop\n      dup2\n      mstore\n      pop\n      pop\n        /* \"blockpedia.sol\":1789:1815  getVersaoValidaDeUmaPagina */\n      tag_75\n        /* \"blockpedia.sol\":1789:1832  getVersaoValidaDeUmaPagina(paginas[indice]) */\n      jump\t// in\n    tag_58:\n        /* \"blockpedia.sol\":1789:1841  getVersaoValidaDeUmaPagina(paginas[indice]).conteudo */\n      0x40\n      add\n      mload\n        /* \"blockpedia.sol\":1782:1841  return getVersaoValidaDeUmaPagina(paginas[indice]).conteudo */\n      swap1\n      pop\n        /* \"blockpedia.sol\":1606:1849  function getVersaoValidaPorIndexPaginas(uint indice) public view returns (string memory)\r... */\n      swap2\n      swap1\n      pop\n      jump\t// out\n        /* \"blockpedia.sol\":113:137  bool public ativo = true */\n    tag_28:\n      0x00\n      dup1\n      sload\n      swap1\n      0x0100\n      exp\n      swap1\n      div\n      0xff\n      and\n      dup2\n      jump\t// out\n        /* \"blockpedia.sol\":173:196  Pagina[] public paginas */\n    tag_33:\n      0x01\n      dup2\n      dup2\n      sload\n      dup2\n      lt\n      tag_76\n      jumpi\n      0x00\n      dup1\n      revert\n    tag_76:\n      swap1\n      0x00\n      mstore\n      keccak256(0x00, 0x20)\n      swap1\n      0x03\n      mul\n      add\n      0x00\n      swap2\n      pop\n      swap1\n      pop\n      dup1\n      0x00\n      add\n      0x00\n      swap1\n      sload\n      swap1\n      0x0100\n      exp\n      swap1\n      div\n      0xffffffffffffffffffffffffffffffffffffffff\n      and\n      swap1\n      dup1\n      0x00\n      add\n      0x14\n      swap1\n      sload\n      swap1\n      0x0100\n      exp\n      swap1\n      div\n      0xff\n      and\n      swap1\n      dup1\n      0x01\n      add\n      dup1\n      sload\n      tag_78\n      swap1\n      tag_62\n      jump\t// in\n    tag_78:\n      dup1\n      0x1f\n      add\n      0x20\n      dup1\n      swap2\n      div\n      mul\n      0x20\n      add\n      mload(0x40)\n      swap1\n      dup2\n      add\n      0x40\n      mstore\n      dup1\n      swap3\n      swap2\n      swap1\n      dup2\n      dup2\n      mstore\n      0x20\n      add\n      dup3\n      dup1\n      sload\n      tag_79\n      swap1\n      tag_62\n      jump\t// in\n    tag_79:\n      dup1\n      iszero\n      tag_80\n      jumpi\n      dup1\n      0x1f\n      lt\n      tag_81\n      jumpi\n      0x0100\n      dup1\n      dup4\n      sload\n      div\n      mul\n      dup4\n      mstore\n      swap2\n      0x20\n      add\n      swap2\n      jump(tag_80)\n    tag_81:\n      dup3\n      add\n      swap2\n      swap1\n      0x00\n      mstore\n      keccak256(0x00, 0x20)\n      swap1\n    tag_82:\n      dup2\n      sload\n      dup2\n      mstore\n      swap1\n      0x01\n      add\n      swap1\n      0x20\n      add\n      dup1\n      dup4\n      gt\n      tag_82\n      jumpi\n      dup3\n      swap1\n      sub\n      0x1f\n      and\n      dup3\n      add\n      swap2\n    tag_80:\n      pop\n      pop\n      pop\n      pop\n      pop\n      swap1\n      pop\n      dup4\n      jump\t// out\n        /* \"blockpedia.sol\":1075:1598  function tituloExiste(string memory titulo) internal view returns (bool)\r... */\n    tag_45:\n        /* \"blockpedia.sol\":1142:1146  bool */\n      0x00\n        /* \"blockpedia.sol\":1393:1399  uint i */\n      dup1\n        /* \"blockpedia.sol\":1402:1403  0 */\n      0x00\n        /* \"blockpedia.sol\":1393:1403  uint i = 0 */\n      swap1\n      pop\n        /* \"blockpedia.sol\":1388:1568  for (uint i = 0; i < paginas.length; i++)\r... */\n    tag_84:\n        /* \"blockpedia.sol\":1409:1416  paginas */\n      0x01\n        /* \"blockpedia.sol\":1409:1423  paginas.length */\n      dup1\n      sload\n      swap1\n      pop\n        /* \"blockpedia.sol\":1405:1406  i */\n      dup2\n        /* \"blockpedia.sol\":1405:1423  i < paginas.length */\n      lt\n        /* \"blockpedia.sol\":1388:1568  for (uint i = 0; i < paginas.length; i++)\r... */\n      iszero\n      tag_85\n      jumpi\n        /* \"blockpedia.sol\":1535:1541  titulo */\n      dup3\n        /* \"blockpedia.sol\":1518:1542  abi.encodePacked(titulo) */\n      add(0x20, mload(0x40))\n      tag_87\n      swap2\n      swap1\n      tag_88\n      jump\t// in\n    tag_87:\n      mload(0x40)\n      0x20\n      dup2\n      dup4\n      sub\n      sub\n      dup2\n      mstore\n      swap1\n      0x40\n      mstore\n        /* \"blockpedia.sol\":1508:1543  keccak256(abi.encodePacked(titulo)) */\n      dup1\n      mload\n      swap1\n      0x20\n      add\n      keccak256\n        /* \"blockpedia.sol\":1485:1492  paginas */\n      0x01\n        /* \"blockpedia.sol\":1493:1494  i */\n      dup3\n        /* \"blockpedia.sol\":1485:1495  paginas[i] */\n      dup2\n      sload\n      dup2\n      lt\n      tag_89\n      jumpi\n      mstore(0x00, 0x4e487b7100000000000000000000000000000000000000000000000000000000)\n      mstore(0x04, 0x32)\n      revert(0x00, 0x24)\n    tag_89:\n      swap1\n      0x00\n      mstore\n      keccak256(0x00, 0x20)\n      swap1\n      0x03\n      mul\n      add\n        /* \"blockpedia.sol\":1485:1502  paginas[i].titulo */\n      0x01\n      add\n        /* \"blockpedia.sol\":1468:1503  abi.encodePacked(paginas[i].titulo) */\n      add(0x20, mload(0x40))\n      tag_91\n      swap2\n      swap1\n      tag_92\n      jump\t// in\n    tag_91:\n      mload(0x40)\n      0x20\n      dup2\n      dup4\n      sub\n      sub\n      dup2\n      mstore\n      swap1\n      0x40\n      mstore\n        /* \"blockpedia.sol\":1458:1504  keccak256(abi.encodePacked(paginas[i].titulo)) */\n      dup1\n      mload\n      swap1\n      0x20\n      add\n      keccak256\n        /* \"blockpedia.sol\":1458:1543  keccak256(abi.encodePacked(paginas[i].titulo)) == keccak256(abi.encodePacked(titulo)) */\n      eq\n        /* \"blockpedia.sol\":1454:1556  if (keccak256(abi.encodePacked(paginas[i].titulo)) == keccak256(abi.encodePacked(titulo))) return true */\n      iszero\n      tag_93\n      jumpi\n        /* \"blockpedia.sol\":1552:1556  true */\n      0x01\n        /* \"blockpedia.sol\":1545:1556  return true */\n      swap2\n      pop\n      pop\n      jump(tag_83)\n        /* \"blockpedia.sol\":1454:1556  if (keccak256(abi.encodePacked(paginas[i].titulo)) == keccak256(abi.encodePacked(titulo))) return true */\n    tag_93:\n        /* \"blockpedia.sol\":1425:1428  i++ */\n      dup1\n      dup1\n      tag_94\n      swap1\n      tag_95\n      jump\t// in\n    tag_94:\n      swap2\n      pop\n      pop\n        /* \"blockpedia.sol\":1388:1568  for (uint i = 0; i < paginas.length; i++)\r... */\n      jump(tag_84)\n    tag_85:\n      pop\n        /* \"blockpedia.sol\":1585:1590  false */\n      0x00\n        /* \"blockpedia.sol\":1578:1590  return false */\n      swap1\n      pop\n        /* \"blockpedia.sol\":1075:1598  function tituloExiste(string memory titulo) internal view returns (bool)\r... */\n    tag_83:\n      swap2\n      swap1\n      pop\n      jump\t// out\n        /* \"blockpedia.sol\":1857:2164  function getVersaoValidaDeUmaPagina(Pagina memory pagina)internal pure returns (Versao memory)\r... */\n    tag_75:\n        /* \"blockpedia.sol\":1937:1950  Versao memory */\n      tag_96\n      tag_97\n      jump\t// in\n    tag_96:\n        /* \"blockpedia.sol\":1972:1978  uint i */\n      0x00\n        /* \"blockpedia.sol\":1968:2104  for(uint i = 0; i < pagina.versoes.length; i++)\r... */\n    tag_99:\n        /* \"blockpedia.sol\":1988:1994  pagina */\n      dup3\n        /* \"blockpedia.sol\":1988:2002  pagina.versoes */\n      0x60\n      add\n      mload\n        /* \"blockpedia.sol\":1988:2009  pagina.versoes.length */\n      mload\n        /* \"blockpedia.sol\":1984:1985  i */\n      dup2\n        /* \"blockpedia.sol\":1984:2009  i < pagina.versoes.length */\n      lt\n        /* \"blockpedia.sol\":1968:2104  for(uint i = 0; i < pagina.versoes.length; i++)\r... */\n      iszero\n      tag_100\n      jumpi\n        /* \"blockpedia.sol\":2043:2049  pagina */\n      dup3\n        /* \"blockpedia.sol\":2043:2057  pagina.versoes */\n      0x60\n      add\n      mload\n        /* \"blockpedia.sol\":2058:2059  i */\n      dup2\n        /* \"blockpedia.sol\":2043:2060  pagina.versoes[i] */\n      dup2\n      mload\n      dup2\n      lt\n      tag_102\n      jumpi\n      mstore(0x00, 0x4e487b7100000000000000000000000000000000000000000000000000000000)\n      mstore(0x04, 0x32)\n      revert(0x00, 0x24)\n    tag_102:\n      0x20\n      mul\n      0x20\n      add\n      add\n      mload\n        /* \"blockpedia.sol\":2043:2066  pagina.versoes[i].ativo */\n      0x20\n      add\n      mload\n        /* \"blockpedia.sol\":2040:2092  if(pagina.versoes[i].ativo) return pagina.versoes[i] */\n      iszero\n      tag_103\n      jumpi\n        /* \"blockpedia.sol\":2075:2081  pagina */\n      dup3\n        /* \"blockpedia.sol\":2075:2089  pagina.versoes */\n      0x60\n      add\n      mload\n        /* \"blockpedia.sol\":2090:2091  i */\n      dup2\n        /* \"blockpedia.sol\":2075:2092  pagina.versoes[i] */\n      dup2\n      mload\n      dup2\n      lt\n      tag_104\n      jumpi\n      mstore(0x00, 0x4e487b7100000000000000000000000000000000000000000000000000000000)\n      mstore(0x04, 0x32)\n      revert(0x00, 0x24)\n    tag_104:\n      0x20\n      mul\n      0x20\n      add\n      add\n      mload\n        /* \"blockpedia.sol\":2068:2092  return pagina.versoes[i] */\n      swap2\n      pop\n      pop\n      jump(tag_98)\n        /* \"blockpedia.sol\":2040:2092  if(pagina.versoes[i].ativo) return pagina.versoes[i] */\n    tag_103:\n        /* \"blockpedia.sol\":2011:2014  i++ */\n      dup1\n      dup1\n      tag_105\n      swap1\n      tag_95\n      jump\t// in\n    tag_105:\n      swap2\n      pop\n      pop\n        /* \"blockpedia.sol\":1968:2104  for(uint i = 0; i < pagina.versoes.length; i++)\r... */\n      jump(tag_99)\n    tag_100:\n      pop\n        /* \"blockpedia.sol\":2114:2156  revert(\"Nenhuma versao valida encontrada\") */\n      mload(0x40)\n      0x08c379a000000000000000000000000000000000000000000000000000000000\n      dup2\n      mstore\n      0x04\n      add\n      tag_106\n      swap1\n      tag_107\n      jump\t// in\n    tag_106:\n      mload(0x40)\n      dup1\n      swap2\n      sub\n      swap1\n      revert\n        /* \"blockpedia.sol\":1857:2164  function getVersaoValidaDeUmaPagina(Pagina memory pagina)internal pure returns (Versao memory)\r... */\n    tag_98:\n      swap2\n      swap1\n      pop\n      jump\t// out\n    tag_51:\n      dup3\n      dup1\n      sload\n      tag_108\n      swap1\n      tag_62\n      jump\t// in\n    tag_108:\n      swap1\n      0x00\n      mstore\n      keccak256(0x00, 0x20)\n      swap1\n      0x1f\n      add\n      0x20\n      swap1\n      div\n      dup2\n      add\n      swap3\n      dup3\n      tag_110\n      jumpi\n      0x00\n      dup6\n      sstore\n      jump(tag_109)\n    tag_110:\n      dup3\n      0x1f\n      lt\n      tag_111\n      jumpi\n      dup1\n      mload\n      not(0xff)\n      and\n      dup4\n      dup1\n      add\n      or\n      dup6\n      sstore\n      jump(tag_109)\n    tag_111:\n      dup3\n      dup1\n      add\n      0x01\n      add\n      dup6\n      sstore\n      dup3\n      iszero\n      tag_109\n      jumpi\n      swap2\n      dup3\n      add\n    tag_112:\n      dup3\n      dup2\n      gt\n      iszero\n      tag_113\n      jumpi\n      dup3\n      mload\n      dup3\n      sstore\n      swap2\n      0x20\n      add\n      swap2\n      swap1\n      0x01\n      add\n      swap1\n      jump(tag_112)\n    tag_113:\n    tag_109:\n      pop\n      swap1\n      pop\n      tag_114\n      swap2\n      swap1\n      tag_115\n      jump\t// in\n    tag_114:\n      pop\n      swap1\n      jump\t// out\n    tag_97:\n      mload(0x40)\n      dup1\n      0x60\n      add\n      0x40\n      mstore\n      dup1\n      and(0xffffffffffffffffffffffffffffffffffffffff, 0x00)\n      dup2\n      mstore\n      0x20\n      add\n      iszero(iszero(0x00))\n      dup2\n      mstore\n      0x20\n      add\n      0x60\n      dup2\n      mstore\n      pop\n      swap1\n      jump\t// out\n    tag_115:\n    tag_116:\n      dup1\n      dup3\n      gt\n      iszero\n      tag_117\n      jumpi\n      0x00\n      dup2\n      0x00\n      swap1\n      sstore\n      pop\n      0x01\n      add\n      jump(tag_116)\n    tag_117:\n      pop\n      swap1\n      jump\t// out\n        /* \"#utility.yul\":7:351   */\n    tag_119:\n      0x00\n        /* \"#utility.yul\":110:175   */\n      tag_121\n        /* \"#utility.yul\":125:174   */\n      tag_122\n        /* \"#utility.yul\":167:173   */\n      dup5\n        /* \"#utility.yul\":125:174   */\n      tag_123\n      jump\t// in\n    tag_122:\n        /* \"#utility.yul\":110:175   */\n      tag_124\n      jump\t// in\n    tag_121:\n        /* \"#utility.yul\":101:175   */\n      swap1\n      pop\n        /* \"#utility.yul\":198:204   */\n      dup3\n        /* \"#utility.yul\":191:196   */\n      dup2\n        /* \"#utility.yul\":184:205   */\n      mstore\n        /* \"#utility.yul\":236:240   */\n      0x20\n        /* \"#utility.yul\":229:234   */\n      dup2\n        /* \"#utility.yul\":225:241   */\n      add\n        /* \"#utility.yul\":274:277   */\n      dup5\n        /* \"#utility.yul\":265:271   */\n      dup5\n        /* \"#utility.yul\":260:263   */\n      dup5\n        /* \"#utility.yul\":256:272   */\n      add\n        /* \"#utility.yul\":253:278   */\n      gt\n        /* \"#utility.yul\":250:252   */\n      iszero\n      tag_125\n      jumpi\n        /* \"#utility.yul\":291:292   */\n      0x00\n        /* \"#utility.yul\":288:289   */\n      dup1\n        /* \"#utility.yul\":281:293   */\n      revert\n        /* \"#utility.yul\":250:252   */\n    tag_125:\n        /* \"#utility.yul\":304:345   */\n      tag_126\n        /* \"#utility.yul\":338:344   */\n      dup5\n        /* \"#utility.yul\":333:336   */\n      dup3\n        /* \"#utility.yul\":328:331   */\n      dup6\n        /* \"#utility.yul\":304:345   */\n      tag_127\n      jump\t// in\n    tag_126:\n        /* \"#utility.yul\":91:351   */\n      pop\n      swap4\n      swap3\n      pop\n      pop\n      pop\n      jump\t// out\n        /* \"#utility.yul\":357:490   */\n    tag_128:\n      0x00\n        /* \"#utility.yul\":438:444   */\n      dup2\n        /* \"#utility.yul\":425:445   */\n      calldataload\n        /* \"#utility.yul\":416:445   */\n      swap1\n      pop\n        /* \"#utility.yul\":454:484   */\n      tag_130\n        /* \"#utility.yul\":478:483   */\n      dup2\n        /* \"#utility.yul\":454:484   */\n      tag_131\n      jump\t// in\n    tag_130:\n        /* \"#utility.yul\":406:490   */\n      swap3\n      swap2\n      pop\n      pop\n      jump\t// out\n        /* \"#utility.yul\":510:783   */\n    tag_132:\n      0x00\n        /* \"#utility.yul\":615:618   */\n      dup3\n        /* \"#utility.yul\":608:612   */\n      0x1f\n        /* \"#utility.yul\":600:606   */\n      dup4\n        /* \"#utility.yul\":596:613   */\n      add\n        /* \"#utility.yul\":592:619   */\n      slt\n        /* \"#utility.yul\":582:584   */\n      tag_134\n      jumpi\n        /* \"#utility.yul\":633:634   */\n      0x00\n        /* \"#utility.yul\":630:631   */\n      dup1\n        /* \"#utility.yul\":623:635   */\n      revert\n        /* \"#utility.yul\":582:584   */\n    tag_134:\n        /* \"#utility.yul\":673:679   */\n      dup2\n        /* \"#utility.yul\":660:680   */\n      calldataload\n        /* \"#utility.yul\":698:777   */\n      tag_135\n        /* \"#utility.yul\":773:776   */\n      dup5\n        /* \"#utility.yul\":765:771   */\n      dup3\n        /* \"#utility.yul\":758:762   */\n      0x20\n        /* \"#utility.yul\":750:756   */\n      dup7\n        /* \"#utility.yul\":746:763   */\n      add\n        /* \"#utility.yul\":698:777   */\n      tag_119\n      jump\t// in\n    tag_135:\n        /* \"#utility.yul\":689:777   */\n      swap2\n      pop\n        /* \"#utility.yul\":572:783   */\n      pop\n      swap3\n      swap2\n      pop\n      pop\n      jump\t// out\n        /* \"#utility.yul\":789:928   */\n    tag_136:\n      0x00\n        /* \"#utility.yul\":873:879   */\n      dup2\n        /* \"#utility.yul\":860:880   */\n      calldataload\n        /* \"#utility.yul\":851:880   */\n      swap1\n      pop\n        /* \"#utility.yul\":889:922   */\n      tag_138\n        /* \"#utility.yul\":916:921   */\n      dup2\n        /* \"#utility.yul\":889:922   */\n      tag_139\n      jump\t// in\n    tag_138:\n        /* \"#utility.yul\":841:928   */\n      swap3\n      swap2\n      pop\n      pop\n      jump\t// out\n        /* \"#utility.yul\":934:1190   */\n    tag_15:\n      0x00\n        /* \"#utility.yul\":1039:1041   */\n      0x20\n        /* \"#utility.yul\":1027:1036   */\n      dup3\n        /* \"#utility.yul\":1018:1025   */\n      dup5\n        /* \"#utility.yul\":1014:1037   */\n      sub\n        /* \"#utility.yul\":1010:1042   */\n      slt\n        /* \"#utility.yul\":1007:1009   */\n      iszero\n      tag_141\n      jumpi\n        /* \"#utility.yul\":1055:1056   */\n      0x00\n        /* \"#utility.yul\":1052:1053   */\n      dup1\n        /* \"#utility.yul\":1045:1057   */\n      revert\n        /* \"#utility.yul\":1007:1009   */\n    tag_141:\n        /* \"#utility.yul\":1098:1099   */\n      0x00\n        /* \"#utility.yul\":1123:1173   */\n      tag_142\n        /* \"#utility.yul\":1165:1172   */\n      dup5\n        /* \"#utility.yul\":1156:1162   */\n      dup3\n        /* \"#utility.yul\":1145:1154   */\n      dup6\n        /* \"#utility.yul\":1141:1163   */\n      add\n        /* \"#utility.yul\":1123:1173   */\n      tag_128\n      jump\t// in\n    tag_142:\n        /* \"#utility.yul\":1113:1173   */\n      swap2\n      pop\n        /* \"#utility.yul\":1069:1183   */\n      pop\n        /* \"#utility.yul\":997:1190   */\n      swap3\n      swap2\n      pop\n      pop\n      jump\t// out\n        /* \"#utility.yul\":1196:1829   */\n    tag_19:\n      0x00\n      dup1\n        /* \"#utility.yul\":1341:1343   */\n      0x40\n        /* \"#utility.yul\":1329:1338   */\n      dup4\n        /* \"#utility.yul\":1320:1327   */\n      dup6\n        /* \"#utility.yul\":1316:1339   */\n      sub\n        /* \"#utility.yul\":1312:1344   */\n      slt\n        /* \"#utility.yul\":1309:1311   */\n      iszero\n      tag_144\n      jumpi\n        /* \"#utility.yul\":1357:1358   */\n      0x00\n        /* \"#utility.yul\":1354:1355   */\n      dup1\n        /* \"#utility.yul\":1347:1359   */\n      revert\n        /* \"#utility.yul\":1309:1311   */\n    tag_144:\n        /* \"#utility.yul\":1428:1429   */\n      0x00\n        /* \"#utility.yul\":1417:1426   */\n      dup4\n        /* \"#utility.yul\":1413:1430   */\n      add\n        /* \"#utility.yul\":1400:1431   */\n      calldataload\n        /* \"#utility.yul\":1458:1476   */\n      0xffffffffffffffff\n        /* \"#utility.yul\":1450:1456   */\n      dup2\n        /* \"#utility.yul\":1447:1477   */\n      gt\n        /* \"#utility.yul\":1444:1446   */\n      iszero\n      tag_145\n      jumpi\n        /* \"#utility.yul\":1490:1491   */\n      0x00\n        /* \"#utility.yul\":1487:1488   */\n      dup1\n        /* \"#utility.yul\":1480:1492   */\n      revert\n        /* \"#utility.yul\":1444:1446   */\n    tag_145:\n        /* \"#utility.yul\":1518:1581   */\n      tag_146\n        /* \"#utility.yul\":1573:1580   */\n      dup6\n        /* \"#utility.yul\":1564:1570   */\n      dup3\n        /* \"#utility.yul\":1553:1562   */\n      dup7\n        /* \"#utility.yul\":1549:1571   */\n      add\n        /* \"#utility.yul\":1518:1581   */\n      tag_132\n      jump\t// in\n    tag_146:\n        /* \"#utility.yul\":1508:1581   */\n      swap3\n      pop\n        /* \"#utility.yul\":1371:1591   */\n      pop\n        /* \"#utility.yul\":1658:1660   */\n      0x20\n        /* \"#utility.yul\":1647:1656   */\n      dup4\n        /* \"#utility.yul\":1643:1661   */\n      add\n        /* \"#utility.yul\":1630:1662   */\n      calldataload\n        /* \"#utility.yul\":1689:1707   */\n      0xffffffffffffffff\n        /* \"#utility.yul\":1681:1687   */\n      dup2\n        /* \"#utility.yul\":1678:1708   */\n      gt\n        /* \"#utility.yul\":1675:1677   */\n      iszero\n      tag_147\n      jumpi\n        /* \"#utility.yul\":1721:1722   */\n      0x00\n        /* \"#utility.yul\":1718:1719   */\n      dup1\n        /* \"#utility.yul\":1711:1723   */\n      revert\n        /* \"#utility.yul\":1675:1677   */\n    tag_147:\n        /* \"#utility.yul\":1749:1812   */\n      tag_148\n        /* \"#utility.yul\":1804:1811   */\n      dup6\n        /* \"#utility.yul\":1795:1801   */\n      dup3\n        /* \"#utility.yul\":1784:1793   */\n      dup7\n        /* \"#utility.yul\":1780:1802   */\n      add\n        /* \"#utility.yul\":1749:1812   */\n      tag_132\n      jump\t// in\n    tag_148:\n        /* \"#utility.yul\":1739:1812   */\n      swap2\n      pop\n        /* \"#utility.yul\":1601:1822   */\n      pop\n        /* \"#utility.yul\":1299:1829   */\n      swap3\n      pop\n      swap3\n      swap1\n      pop\n      jump\t// out\n        /* \"#utility.yul\":1835:2097   */\n    tag_23:\n      0x00\n        /* \"#utility.yul\":1943:1945   */\n      0x20\n        /* \"#utility.yul\":1931:1940   */\n      dup3\n        /* \"#utility.yul\":1922:1929   */\n      dup5\n        /* \"#utility.yul\":1918:1941   */\n      sub\n        /* \"#utility.yul\":1914:1946   */\n      slt\n        /* \"#utility.yul\":1911:1913   */\n      iszero\n      tag_150\n      jumpi\n        /* \"#utility.yul\":1959:1960   */\n      0x00\n        /* \"#utility.yul\":1956:1957   */\n      dup1\n        /* \"#utility.yul\":1949:1961   */\n      revert\n        /* \"#utility.yul\":1911:1913   */\n    tag_150:\n        /* \"#utility.yul\":2002:2003   */\n      0x00\n        /* \"#utility.yul\":2027:2080   */\n      tag_151\n        /* \"#utility.yul\":2072:2079   */\n      dup5\n        /* \"#utility.yul\":2063:2069   */\n      dup3\n        /* \"#utility.yul\":2052:2061   */\n      dup6\n        /* \"#utility.yul\":2048:2070   */\n      add\n        /* \"#utility.yul\":2027:2080   */\n      tag_136\n      jump\t// in\n    tag_151:\n        /* \"#utility.yul\":2017:2080   */\n      swap2\n      pop\n        /* \"#utility.yul\":1973:2090   */\n      pop\n        /* \"#utility.yul\":1901:2097   */\n      swap3\n      swap2\n      pop\n      pop\n      jump\t// out\n        /* \"#utility.yul\":2103:2221   */\n    tag_152:\n        /* \"#utility.yul\":2190:2214   */\n      tag_154\n        /* \"#utility.yul\":2208:2213   */\n      dup2\n        /* \"#utility.yul\":2190:2214   */\n      tag_155\n      jump\t// in\n    tag_154:\n        /* \"#utility.yul\":2185:2188   */\n      dup3\n        /* \"#utility.yul\":2178:2215   */\n      mstore\n        /* \"#utility.yul\":2168:2221   */\n      pop\n      pop\n      jump\t// out\n        /* \"#utility.yul\":2227:2336   */\n    tag_156:\n        /* \"#utility.yul\":2308:2329   */\n      tag_158\n        /* \"#utility.yul\":2323:2328   */\n      dup2\n        /* \"#utility.yul\":2308:2329   */\n      tag_159\n      jump\t// in\n    tag_158:\n        /* \"#utility.yul\":2303:2306   */\n      dup3\n        /* \"#utility.yul\":2296:2330   */\n      mstore\n        /* \"#utility.yul\":2286:2336   */\n      pop\n      pop\n      jump\t// out\n        /* \"#utility.yul\":2342:2706   */\n    tag_160:\n      0x00\n        /* \"#utility.yul\":2458:2497   */\n      tag_162\n        /* \"#utility.yul\":2491:2496   */\n      dup3\n        /* \"#utility.yul\":2458:2497   */\n      tag_163\n      jump\t// in\n    tag_162:\n        /* \"#utility.yul\":2513:2584   */\n      tag_164\n        /* \"#utility.yul\":2577:2583   */\n      dup2\n        /* \"#utility.yul\":2572:2575   */\n      dup6\n        /* \"#utility.yul\":2513:2584   */\n      tag_165\n      jump\t// in\n    tag_164:\n        /* \"#utility.yul\":2506:2584   */\n      swap4\n      pop\n        /* \"#utility.yul\":2593:2645   */\n      tag_166\n        /* \"#utility.yul\":2638:2644   */\n      dup2\n        /* \"#utility.yul\":2633:2636   */\n      dup6\n        /* \"#utility.yul\":2626:2630   */\n      0x20\n        /* \"#utility.yul\":2619:2624   */\n      dup7\n        /* \"#utility.yul\":2615:2631   */\n      add\n        /* \"#utility.yul\":2593:2645   */\n      tag_167\n      jump\t// in\n    tag_166:\n        /* \"#utility.yul\":2670:2699   */\n      tag_168\n        /* \"#utility.yul\":2692:2698   */\n      dup2\n        /* \"#utility.yul\":2670:2699   */\n      tag_169\n      jump\t// in\n    tag_168:\n        /* \"#utility.yul\":2665:2668   */\n      dup5\n        /* \"#utility.yul\":2661:2700   */\n      add\n        /* \"#utility.yul\":2654:2700   */\n      swap2\n      pop\n        /* \"#utility.yul\":2434:2706   */\n      pop\n      swap3\n      swap2\n      pop\n      pop\n      jump\t// out\n        /* \"#utility.yul\":2712:3089   */\n    tag_170:\n      0x00\n        /* \"#utility.yul\":2846:2885   */\n      tag_172\n        /* \"#utility.yul\":2879:2884   */\n      dup3\n        /* \"#utility.yul\":2846:2885   */\n      tag_163\n      jump\t// in\n    tag_172:\n        /* \"#utility.yul\":2901:2990   */\n      tag_173\n        /* \"#utility.yul\":2983:2989   */\n      dup2\n        /* \"#utility.yul\":2978:2981   */\n      dup6\n        /* \"#utility.yul\":2901:2990   */\n      tag_174\n      jump\t// in\n    tag_173:\n        /* \"#utility.yul\":2894:2990   */\n      swap4\n      pop\n        /* \"#utility.yul\":2999:3051   */\n      tag_175\n        /* \"#utility.yul\":3044:3050   */\n      dup2\n        /* \"#utility.yul\":3039:3042   */\n      dup6\n        /* \"#utility.yul\":3032:3036   */\n      0x20\n        /* \"#utility.yul\":3025:3030   */\n      dup7\n        /* \"#utility.yul\":3021:3037   */\n      add\n        /* \"#utility.yul\":2999:3051   */\n      tag_167\n      jump\t// in\n    tag_175:\n        /* \"#utility.yul\":3076:3082   */\n      dup1\n        /* \"#utility.yul\":3071:3074   */\n      dup5\n        /* \"#utility.yul\":3067:3083   */\n      add\n        /* \"#utility.yul\":3060:3083   */\n      swap2\n      pop\n        /* \"#utility.yul\":2822:3089   */\n      pop\n      swap3\n      swap2\n      pop\n      pop\n      jump\t// out\n        /* \"#utility.yul\":3119:3964   */\n    tag_176:\n      0x00\n        /* \"#utility.yul\":3259:3264   */\n      dup2\n        /* \"#utility.yul\":3253:3265   */\n      sload\n        /* \"#utility.yul\":3288:3324   */\n      tag_178\n        /* \"#utility.yul\":3314:3323   */\n      dup2\n        /* \"#utility.yul\":3288:3324   */\n      tag_62\n      jump\t// in\n    tag_178:\n        /* \"#utility.yul\":3340:3429   */\n      tag_179\n        /* \"#utility.yul\":3422:3428   */\n      dup2\n        /* \"#utility.yul\":3417:3420   */\n      dup7\n        /* \"#utility.yul\":3340:3429   */\n      tag_174\n      jump\t// in\n    tag_179:\n        /* \"#utility.yul\":3333:3429   */\n      swap5\n      pop\n        /* \"#utility.yul\":3460:3461   */\n      0x01\n        /* \"#utility.yul\":3449:3458   */\n      dup3\n        /* \"#utility.yul\":3445:3462   */\n      and\n        /* \"#utility.yul\":3476:3477   */\n      0x00\n        /* \"#utility.yul\":3471:3608   */\n      dup2\n      eq\n      tag_181\n      jumpi\n        /* \"#utility.yul\":3622:3623   */\n      0x01\n        /* \"#utility.yul\":3617:3958   */\n      dup2\n      eq\n      tag_182\n      jumpi\n        /* \"#utility.yul\":3438:3958   */\n      jump(tag_180)\n        /* \"#utility.yul\":3471:3608   */\n    tag_181:\n        /* \"#utility.yul\":3555:3559   */\n      0xff\n        /* \"#utility.yul\":3551:3560   */\n      not\n        /* \"#utility.yul\":3540:3549   */\n      dup4\n        /* \"#utility.yul\":3536:3561   */\n      and\n        /* \"#utility.yul\":3531:3534   */\n      dup7\n        /* \"#utility.yul\":3524:3562   */\n      mstore\n        /* \"#utility.yul\":3591:3597   */\n      dup2\n        /* \"#utility.yul\":3586:3589   */\n      dup7\n        /* \"#utility.yul\":3582:3598   */\n      add\n        /* \"#utility.yul\":3575:3598   */\n      swap4\n      pop\n        /* \"#utility.yul\":3471:3608   */\n      jump(tag_180)\n        /* \"#utility.yul\":3617:3958   */\n    tag_182:\n        /* \"#utility.yul\":3684:3722   */\n      tag_183\n        /* \"#utility.yul\":3716:3721   */\n      dup6\n        /* \"#utility.yul\":3684:3722   */\n      tag_184\n      jump\t// in\n    tag_183:\n        /* \"#utility.yul\":3744:3745   */\n      0x00\n        /* \"#utility.yul\":3758:3912   */\n    tag_185:\n        /* \"#utility.yul\":3772:3778   */\n      dup4\n        /* \"#utility.yul\":3769:3770   */\n      dup2\n        /* \"#utility.yul\":3766:3779   */\n      lt\n        /* \"#utility.yul\":3758:3912   */\n      iszero\n      tag_187\n      jumpi\n        /* \"#utility.yul\":3846:3853   */\n      dup2\n        /* \"#utility.yul\":3840:3854   */\n      sload\n        /* \"#utility.yul\":3836:3837   */\n      dup2\n        /* \"#utility.yul\":3831:3834   */\n      dup10\n        /* \"#utility.yul\":3827:3838   */\n      add\n        /* \"#utility.yul\":3820:3855   */\n      mstore\n        /* \"#utility.yul\":3896:3897   */\n      0x01\n        /* \"#utility.yul\":3887:3894   */\n      dup3\n        /* \"#utility.yul\":3883:3898   */\n      add\n        /* \"#utility.yul\":3872:3898   */\n      swap2\n      pop\n        /* \"#utility.yul\":3794:3798   */\n      0x20\n        /* \"#utility.yul\":3791:3792   */\n      dup2\n        /* \"#utility.yul\":3787:3799   */\n      add\n        /* \"#utility.yul\":3782:3799   */\n      swap1\n      pop\n        /* \"#utility.yul\":3758:3912   */\n      jump(tag_185)\n    tag_187:\n        /* \"#utility.yul\":3941:3947   */\n      dup4\n        /* \"#utility.yul\":3936:3939   */\n      dup9\n        /* \"#utility.yul\":3932:3948   */\n      add\n        /* \"#utility.yul\":3925:3948   */\n      swap6\n      pop\n        /* \"#utility.yul\":3624:3958   */\n      pop\n      pop\n        /* \"#utility.yul\":3438:3958   */\n    tag_180:\n      pop\n        /* \"#utility.yul\":3226:3964   */\n      pop\n      pop\n      swap3\n      swap2\n      pop\n      pop\n      jump\t// out\n        /* \"#utility.yul\":3970:4300   */\n    tag_188:\n      0x00\n        /* \"#utility.yul\":4133:4200   */\n      tag_190\n        /* \"#utility.yul\":4197:4199   */\n      0x20\n        /* \"#utility.yul\":4192:4195   */\n      dup4\n        /* \"#utility.yul\":4133:4200   */\n      tag_165\n      jump\t// in\n    tag_190:\n        /* \"#utility.yul\":4126:4200   */\n      swap2\n      pop\n        /* \"#utility.yul\":4230:4264   */\n      0x4e656e68756d612076657273616f2076616c69646120656e636f6e7472616461\n        /* \"#utility.yul\":4226:4227   */\n      0x00\n        /* \"#utility.yul\":4221:4224   */\n      dup4\n        /* \"#utility.yul\":4217:4228   */\n      add\n        /* \"#utility.yul\":4210:4265   */\n      mstore\n        /* \"#utility.yul\":4291:4293   */\n      0x20\n        /* \"#utility.yul\":4286:4289   */\n      dup3\n        /* \"#utility.yul\":4282:4294   */\n      add\n        /* \"#utility.yul\":4275:4294   */\n      swap1\n      pop\n        /* \"#utility.yul\":4116:4300   */\n      swap2\n      swap1\n      pop\n      jump\t// out\n        /* \"#utility.yul\":4306:4674   */\n    tag_191:\n      0x00\n        /* \"#utility.yul\":4469:4536   */\n      tag_193\n        /* \"#utility.yul\":4533:4535   */\n      0x24\n        /* \"#utility.yul\":4528:4531   */\n      dup4\n        /* \"#utility.yul\":4469:4536   */\n      tag_165\n      jump\t// in\n    tag_193:\n        /* \"#utility.yul\":4462:4536   */\n      swap2\n      pop\n        /* \"#utility.yul\":4566:4600   */\n      0x556d6120706167696e6120636f6d206573746520746974756c6f206a61206578\n        /* \"#utility.yul\":4562:4563   */\n      0x00\n        /* \"#utility.yul\":4557:4560   */\n      dup4\n        /* \"#utility.yul\":4553:4564   */\n      add\n        /* \"#utility.yul\":4546:4601   */\n      mstore\n        /* \"#utility.yul\":4632:4638   */\n      0x6973746500000000000000000000000000000000000000000000000000000000\n        /* \"#utility.yul\":4627:4629   */\n      0x20\n        /* \"#utility.yul\":4622:4625   */\n      dup4\n        /* \"#utility.yul\":4618:4630   */\n      add\n        /* \"#utility.yul\":4611:4639   */\n      mstore\n        /* \"#utility.yul\":4665:4667   */\n      0x40\n        /* \"#utility.yul\":4660:4663   */\n      dup3\n        /* \"#utility.yul\":4656:4668   */\n      add\n        /* \"#utility.yul\":4649:4668   */\n      swap1\n      pop\n        /* \"#utility.yul\":4452:4674   */\n      swap2\n      swap1\n      pop\n      jump\t// out\n        /* \"#utility.yul\":4680:5000   */\n    tag_194:\n      0x00\n        /* \"#utility.yul\":4843:4910   */\n      tag_196\n        /* \"#utility.yul\":4907:4909   */\n      0x16\n        /* \"#utility.yul\":4902:4905   */\n      dup4\n        /* \"#utility.yul\":4843:4910   */\n      tag_165\n      jump\t// in\n    tag_196:\n        /* \"#utility.yul\":4836:4910   */\n      swap2\n      pop\n        /* \"#utility.yul\":4940:4964   */\n      0x496e6469636520666f726120646f20616c63616e636500000000000000000000\n        /* \"#utility.yul\":4936:4937   */\n      0x00\n        /* \"#utility.yul\":4931:4934   */\n      dup4\n        /* \"#utility.yul\":4927:4938   */\n      add\n        /* \"#utility.yul\":4920:4965   */\n      mstore\n        /* \"#utility.yul\":4991:4993   */\n      0x20\n        /* \"#utility.yul\":4986:4989   */\n      dup3\n        /* \"#utility.yul\":4982:4994   */\n      add\n        /* \"#utility.yul\":4975:4994   */\n      swap1\n      pop\n        /* \"#utility.yul\":4826:5000   */\n      swap2\n      swap1\n      pop\n      jump\t// out\n        /* \"#utility.yul\":5006:5399   */\n    tag_197:\n      0x00\n        /* \"#utility.yul\":5169:5236   */\n      tag_199\n        /* \"#utility.yul\":5233:5235   */\n      0x3d\n        /* \"#utility.yul\":5228:5231   */\n      dup4\n        /* \"#utility.yul\":5169:5236   */\n      tag_165\n      jump\t// in\n    tag_199:\n        /* \"#utility.yul\":5162:5236   */\n      swap2\n      pop\n        /* \"#utility.yul\":5266:5300   */\n      0x536f6d656e7465206f20646f6e6f20646573746120426c6f636b706564696120\n        /* \"#utility.yul\":5262:5263   */\n      0x00\n        /* \"#utility.yul\":5257:5260   */\n      dup4\n        /* \"#utility.yul\":5253:5264   */\n      add\n        /* \"#utility.yul\":5246:5301   */\n      mstore\n        /* \"#utility.yul\":5332:5363   */\n      0x706f646520616c7465726172206f20617472696275746f20617469766f000000\n        /* \"#utility.yul\":5327:5329   */\n      0x20\n        /* \"#utility.yul\":5322:5325   */\n      dup4\n        /* \"#utility.yul\":5318:5330   */\n      add\n        /* \"#utility.yul\":5311:5364   */\n      mstore\n        /* \"#utility.yul\":5390:5392   */\n      0x40\n        /* \"#utility.yul\":5385:5388   */\n      dup3\n        /* \"#utility.yul\":5381:5393   */\n      add\n        /* \"#utility.yul\":5374:5393   */\n      swap1\n      pop\n        /* \"#utility.yul\":5152:5399   */\n      swap2\n      swap1\n      pop\n      jump\t// out\n        /* \"#utility.yul\":5405:5842   */\n    tag_200:\n      0x00\n        /* \"#utility.yul\":5568:5635   */\n      tag_202\n        /* \"#utility.yul\":5632:5634   */\n      0x47\n        /* \"#utility.yul\":5627:5630   */\n      dup4\n        /* \"#utility.yul\":5568:5635   */\n      tag_165\n      jump\t// in\n    tag_202:\n        /* \"#utility.yul\":5561:5635   */\n      swap2\n      pop\n        /* \"#utility.yul\":5665:5699   */\n      0x412061646963616f206465206e6f76617320706167696e617320736f20652070\n        /* \"#utility.yul\":5661:5662   */\n      0x00\n        /* \"#utility.yul\":5656:5659   */\n      dup4\n        /* \"#utility.yul\":5652:5663   */\n      add\n        /* \"#utility.yul\":5645:5700   */\n      mstore\n        /* \"#utility.yul\":5731:5765   */\n      0x65726d6974696461207175616e646f206120426c6f636b706564696120657374\n        /* \"#utility.yul\":5726:5728   */\n      0x20\n        /* \"#utility.yul\":5721:5724   */\n      dup4\n        /* \"#utility.yul\":5717:5729   */\n      add\n        /* \"#utility.yul\":5710:5766   */\n      mstore\n        /* \"#utility.yul\":5797:5806   */\n      0x6120617469766100000000000000000000000000000000000000000000000000\n        /* \"#utility.yul\":5792:5794   */\n      0x40\n        /* \"#utility.yul\":5787:5790   */\n      dup4\n        /* \"#utility.yul\":5783:5795   */\n      add\n        /* \"#utility.yul\":5776:5807   */\n      mstore\n        /* \"#utility.yul\":5833:5835   */\n      0x60\n        /* \"#utility.yul\":5828:5831   */\n      dup3\n        /* \"#utility.yul\":5824:5836   */\n      add\n        /* \"#utility.yul\":5817:5836   */\n      swap1\n      pop\n        /* \"#utility.yul\":5551:5842   */\n      swap2\n      swap1\n      pop\n      jump\t// out\n        /* \"#utility.yul\":5848:6123   */\n    tag_88:\n      0x00\n        /* \"#utility.yul\":6002:6097   */\n      tag_204\n        /* \"#utility.yul\":6093:6096   */\n      dup3\n        /* \"#utility.yul\":6084:6090   */\n      dup5\n        /* \"#utility.yul\":6002:6097   */\n      tag_170\n      jump\t// in\n    tag_204:\n        /* \"#utility.yul\":5995:6097   */\n      swap2\n      pop\n        /* \"#utility.yul\":6114:6117   */\n      dup2\n        /* \"#utility.yul\":6107:6117   */\n      swap1\n      pop\n        /* \"#utility.yul\":5984:6123   */\n      swap3\n      swap2\n      pop\n      pop\n      jump\t// out\n        /* \"#utility.yul\":6129:6398   */\n    tag_92:\n      0x00\n        /* \"#utility.yul\":6280:6372   */\n      tag_206\n        /* \"#utility.yul\":6368:6371   */\n      dup3\n        /* \"#utility.yul\":6359:6365   */\n      dup5\n        /* \"#utility.yul\":6280:6372   */\n      tag_176\n      jump\t// in\n    tag_206:\n        /* \"#utility.yul\":6273:6372   */\n      swap2\n      pop\n        /* \"#utility.yul\":6389:6392   */\n      dup2\n        /* \"#utility.yul\":6382:6392   */\n      swap1\n      pop\n        /* \"#utility.yul\":6262:6398   */\n      swap3\n      swap2\n      pop\n      pop\n      jump\t// out\n        /* \"#utility.yul\":6404:6626   */\n    tag_12:\n      0x00\n        /* \"#utility.yul\":6535:6537   */\n      0x20\n        /* \"#utility.yul\":6524:6533   */\n      dup3\n        /* \"#utility.yul\":6520:6538   */\n      add\n        /* \"#utility.yul\":6512:6538   */\n      swap1\n      pop\n        /* \"#utility.yul\":6548:6619   */\n      tag_208\n        /* \"#utility.yul\":6616:6617   */\n      0x00\n        /* \"#utility.yul\":6605:6614   */\n      dup4\n        /* \"#utility.yul\":6601:6618   */\n      add\n        /* \"#utility.yul\":6592:6598   */\n      dup5\n        /* \"#utility.yul\":6548:6619   */\n      tag_152\n      jump\t// in\n    tag_208:\n        /* \"#utility.yul\":6502:6626   */\n      swap3\n      swap2\n      pop\n      pop\n      jump\t// out\n        /* \"#utility.yul\":6632:7153   */\n    tag_35:\n      0x00\n        /* \"#utility.yul\":6833:6835   */\n      0x60\n        /* \"#utility.yul\":6822:6831   */\n      dup3\n        /* \"#utility.yul\":6818:6836   */\n      add\n        /* \"#utility.yul\":6810:6836   */\n      swap1\n      pop\n        /* \"#utility.yul\":6846:6917   */\n      tag_210\n        /* \"#utility.yul\":6914:6915   */\n      0x00\n        /* \"#utility.yul\":6903:6912   */\n      dup4\n        /* \"#utility.yul\":6899:6916   */\n      add\n        /* \"#utility.yul\":6890:6896   */\n      dup7\n        /* \"#utility.yul\":6846:6917   */\n      tag_152\n      jump\t// in\n    tag_210:\n        /* \"#utility.yul\":6927:6993   */\n      tag_211\n        /* \"#utility.yul\":6989:6991   */\n      0x20\n        /* \"#utility.yul\":6978:6987   */\n      dup4\n        /* \"#utility.yul\":6974:6992   */\n      add\n        /* \"#utility.yul\":6965:6971   */\n      dup6\n        /* \"#utility.yul\":6927:6993   */\n      tag_156\n      jump\t// in\n    tag_211:\n        /* \"#utility.yul\":7040:7049   */\n      dup2\n        /* \"#utility.yul\":7034:7038   */\n      dup2\n        /* \"#utility.yul\":7030:7050   */\n      sub\n        /* \"#utility.yul\":7025:7027   */\n      0x40\n        /* \"#utility.yul\":7014:7023   */\n      dup4\n        /* \"#utility.yul\":7010:7028   */\n      add\n        /* \"#utility.yul\":7003:7051   */\n      mstore\n        /* \"#utility.yul\":7068:7146   */\n      tag_212\n        /* \"#utility.yul\":7141:7145   */\n      dup2\n        /* \"#utility.yul\":7132:7138   */\n      dup5\n        /* \"#utility.yul\":7068:7146   */\n      tag_160\n      jump\t// in\n    tag_212:\n        /* \"#utility.yul\":7060:7146   */\n      swap1\n      pop\n        /* \"#utility.yul\":6800:7153   */\n      swap5\n      swap4\n      pop\n      pop\n      pop\n      pop\n      jump\t// out\n        /* \"#utility.yul\":7159:7369   */\n    tag_30:\n      0x00\n        /* \"#utility.yul\":7284:7286   */\n      0x20\n        /* \"#utility.yul\":7273:7282   */\n      dup3\n        /* \"#utility.yul\":7269:7287   */\n      add\n        /* \"#utility.yul\":7261:7287   */\n      swap1\n      pop\n        /* \"#utility.yul\":7297:7362   */\n      tag_214\n        /* \"#utility.yul\":7359:7360   */\n      0x00\n        /* \"#utility.yul\":7348:7357   */\n      dup4\n        /* \"#utility.yul\":7344:7361   */\n      add\n        /* \"#utility.yul\":7335:7341   */\n      dup5\n        /* \"#utility.yul\":7297:7362   */\n      tag_156\n      jump\t// in\n    tag_214:\n        /* \"#utility.yul\":7251:7369   */\n      swap3\n      swap2\n      pop\n      pop\n      jump\t// out\n        /* \"#utility.yul\":7375:7688   */\n    tag_26:\n      0x00\n        /* \"#utility.yul\":7526:7528   */\n      0x20\n        /* \"#utility.yul\":7515:7524   */\n      dup3\n        /* \"#utility.yul\":7511:7529   */\n      add\n        /* \"#utility.yul\":7503:7529   */\n      swap1\n      pop\n        /* \"#utility.yul\":7575:7584   */\n      dup2\n        /* \"#utility.yul\":7569:7573   */\n      dup2\n        /* \"#utility.yul\":7565:7585   */\n      sub\n        /* \"#utility.yul\":7561:7562   */\n      0x00\n        /* \"#utility.yul\":7550:7559   */\n      dup4\n        /* \"#utility.yul\":7546:7563   */\n      add\n        /* \"#utility.yul\":7539:7586   */\n      mstore\n        /* \"#utility.yul\":7603:7681   */\n      tag_216\n        /* \"#utility.yul\":7676:7680   */\n      dup2\n        /* \"#utility.yul\":7667:7673   */\n      dup5\n        /* \"#utility.yul\":7603:7681   */\n      tag_160\n      jump\t// in\n    tag_216:\n        /* \"#utility.yul\":7595:7681   */\n      swap1\n      pop\n        /* \"#utility.yul\":7493:7688   */\n      swap3\n      swap2\n      pop\n      pop\n      jump\t// out\n        /* \"#utility.yul\":7694:8113   */\n    tag_107:\n      0x00\n        /* \"#utility.yul\":7898:7900   */\n      0x20\n        /* \"#utility.yul\":7887:7896   */\n      dup3\n        /* \"#utility.yul\":7883:7901   */\n      add\n        /* \"#utility.yul\":7875:7901   */\n      swap1\n      pop\n        /* \"#utility.yul\":7947:7956   */\n      dup2\n        /* \"#utility.yul\":7941:7945   */\n      dup2\n        /* \"#utility.yul\":7937:7957   */\n      sub\n        /* \"#utility.yul\":7933:7934   */\n      0x00\n        /* \"#utility.yul\":7922:7931   */\n      dup4\n        /* \"#utility.yul\":7918:7935   */\n      add\n        /* \"#utility.yul\":7911:7958   */\n      mstore\n        /* \"#utility.yul\":7975:8106   */\n      tag_218\n        /* \"#utility.yul\":8101:8105   */\n      dup2\n        /* \"#utility.yul\":7975:8106   */\n      tag_188\n      jump\t// in\n    tag_218:\n        /* \"#utility.yul\":7967:8106   */\n      swap1\n      pop\n        /* \"#utility.yul\":7865:8113   */\n      swap2\n      swap1\n      pop\n      jump\t// out\n        /* \"#utility.yul\":8119:8538   */\n    tag_48:\n      0x00\n        /* \"#utility.yul\":8323:8325   */\n      0x20\n        /* \"#utility.yul\":8312:8321   */\n      dup3\n        /* \"#utility.yul\":8308:8326   */\n      add\n        /* \"#utility.yul\":8300:8326   */\n      swap1\n      pop\n        /* \"#utility.yul\":8372:8381   */\n      dup2\n        /* \"#utility.yul\":8366:8370   */\n      dup2\n        /* \"#utility.yul\":8362:8382   */\n      sub\n        /* \"#utility.yul\":8358:8359   */\n      0x00\n        /* \"#utility.yul\":8347:8356   */\n      dup4\n        /* \"#utility.yul\":8343:8360   */\n      add\n        /* \"#utility.yul\":8336:8383   */\n      mstore\n        /* \"#utility.yul\":8400:8531   */\n      tag_220\n        /* \"#utility.yul\":8526:8530   */\n      dup2\n        /* \"#utility.yul\":8400:8531   */\n      tag_191\n      jump\t// in\n    tag_220:\n        /* \"#utility.yul\":8392:8531   */\n      swap1\n      pop\n        /* \"#utility.yul\":8290:8538   */\n      swap2\n      swap1\n      pop\n      jump\t// out\n        /* \"#utility.yul\":8544:8963   */\n    tag_57:\n      0x00\n        /* \"#utility.yul\":8748:8750   */\n      0x20\n        /* \"#utility.yul\":8737:8746   */\n      dup3\n        /* \"#utility.yul\":8733:8751   */\n      add\n        /* \"#utility.yul\":8725:8751   */\n      swap1\n      pop\n        /* \"#utility.yul\":8797:8806   */\n      dup2\n        /* \"#utility.yul\":8791:8795   */\n      dup2\n        /* \"#utility.yul\":8787:8807   */\n      sub\n        /* \"#utility.yul\":8783:8784   */\n      0x00\n        /* \"#utility.yul\":8772:8781   */\n      dup4\n        /* \"#utility.yul\":8768:8785   */\n      add\n        /* \"#utility.yul\":8761:8808   */\n      mstore\n        /* \"#utility.yul\":8825:8956   */\n      tag_222\n        /* \"#utility.yul\":8951:8955   */\n      dup2\n        /* \"#utility.yul\":8825:8956   */\n      tag_194\n      jump\t// in\n    tag_222:\n        /* \"#utility.yul\":8817:8956   */\n      swap1\n      pop\n        /* \"#utility.yul\":8715:8963   */\n      swap2\n      swap1\n      pop\n      jump\t// out\n        /* \"#utility.yul\":8969:9388   */\n    tag_39:\n      0x00\n        /* \"#utility.yul\":9173:9175   */\n      0x20\n        /* \"#utility.yul\":9162:9171   */\n      dup3\n        /* \"#utility.yul\":9158:9176   */\n      add\n        /* \"#utility.yul\":9150:9176   */\n      swap1\n      pop\n        /* \"#utility.yul\":9222:9231   */\n      dup2\n        /* \"#utility.yul\":9216:9220   */\n      dup2\n        /* \"#utility.yul\":9212:9232   */\n      sub\n        /* \"#utility.yul\":9208:9209   */\n      0x00\n        /* \"#utility.yul\":9197:9206   */\n      dup4\n        /* \"#utility.yul\":9193:9210   */\n      add\n        /* \"#utility.yul\":9186:9233   */\n      mstore\n        /* \"#utility.yul\":9250:9381   */\n      tag_224\n        /* \"#utility.yul\":9376:9380   */\n      dup2\n        /* \"#utility.yul\":9250:9381   */\n      tag_197\n      jump\t// in\n    tag_224:\n        /* \"#utility.yul\":9242:9381   */\n      swap1\n      pop\n        /* \"#utility.yul\":9140:9388   */\n      swap2\n      swap1\n      pop\n      jump\t// out\n        /* \"#utility.yul\":9394:9813   */\n    tag_43:\n      0x00\n        /* \"#utility.yul\":9598:9600   */\n      0x20\n        /* \"#utility.yul\":9587:9596   */\n      dup3\n        /* \"#utility.yul\":9583:9601   */\n      add\n        /* \"#utility.yul\":9575:9601   */\n      swap1\n      pop\n        /* \"#utility.yul\":9647:9656   */\n      dup2\n        /* \"#utility.yul\":9641:9645   */\n      dup2\n        /* \"#utility.yul\":9637:9657   */\n      sub\n        /* \"#utility.yul\":9633:9634   */\n      0x00\n        /* \"#utility.yul\":9622:9631   */\n      dup4\n        /* \"#utility.yul\":9618:9635   */\n      add\n        /* \"#utility.yul\":9611:9658   */\n      mstore\n        /* \"#utility.yul\":9675:9806   */\n      tag_226\n        /* \"#utility.yul\":9801:9805   */\n      dup2\n        /* \"#utility.yul\":9675:9806   */\n      tag_200\n      jump\t// in\n    tag_226:\n        /* \"#utility.yul\":9667:9806   */\n      swap1\n      pop\n        /* \"#utility.yul\":9565:9813   */\n      swap2\n      swap1\n      pop\n      jump\t// out\n        /* \"#utility.yul\":9819:10102   */\n    tag_124:\n      0x00\n        /* \"#utility.yul\":9885:9887   */\n      0x40\n        /* \"#utility.yul\":9879:9888   */\n      mload\n        /* \"#utility.yul\":9869:9888   */\n      swap1\n      pop\n        /* \"#utility.yul\":9927:9931   */\n      dup2\n        /* \"#utility.yul\":9919:9925   */\n      dup2\n        /* \"#utility.yul\":9915:9932   */\n      add\n        /* \"#utility.yul\":10034:10040   */\n      dup2\n        /* \"#utility.yul\":10022:10032   */\n      dup2\n        /* \"#utility.yul\":10019:10041   */\n      lt\n        /* \"#utility.yul\":9998:10016   */\n      0xffffffffffffffff\n        /* \"#utility.yul\":9986:9996   */\n      dup3\n        /* \"#utility.yul\":9983:10017   */\n      gt\n        /* \"#utility.yul\":9980:10042   */\n      or\n        /* \"#utility.yul\":9977:9979   */\n      iszero\n      tag_228\n      jumpi\n        /* \"#utility.yul\":10045:10063   */\n      tag_229\n      tag_230\n      jump\t// in\n    tag_229:\n        /* \"#utility.yul\":9977:9979   */\n    tag_228:\n        /* \"#utility.yul\":10085:10095   */\n      dup1\n        /* \"#utility.yul\":10081:10083   */\n      0x40\n        /* \"#utility.yul\":10074:10096   */\n      mstore\n        /* \"#utility.yul\":9859:10102   */\n      pop\n      swap2\n      swap1\n      pop\n      jump\t// out\n        /* \"#utility.yul\":10108:10440   */\n    tag_123:\n      0x00\n        /* \"#utility.yul\":10260:10278   */\n      0xffffffffffffffff\n        /* \"#utility.yul\":10252:10258   */\n      dup3\n        /* \"#utility.yul\":10249:10279   */\n      gt\n        /* \"#utility.yul\":10246:10248   */\n      iszero\n      tag_232\n      jumpi\n        /* \"#utility.yul\":10282:10300   */\n      tag_233\n      tag_230\n      jump\t// in\n    tag_233:\n        /* \"#utility.yul\":10246:10248   */\n    tag_232:\n        /* \"#utility.yul\":10367:10371   */\n      0x1f\n        /* \"#utility.yul\":10363:10372   */\n      not\n        /* \"#utility.yul\":10356:10360   */\n      0x1f\n        /* \"#utility.yul\":10348:10354   */\n      dup4\n        /* \"#utility.yul\":10344:10361   */\n      add\n        /* \"#utility.yul\":10340:10373   */\n      and\n        /* \"#utility.yul\":10332:10373   */\n      swap1\n      pop\n        /* \"#utility.yul\":10428:10432   */\n      0x20\n        /* \"#utility.yul\":10422:10426   */\n      dup2\n        /* \"#utility.yul\":10418:10433   */\n      add\n        /* \"#utility.yul\":10410:10433   */\n      swap1\n      pop\n        /* \"#utility.yul\":10175:10440   */\n      swap2\n      swap1\n      pop\n      jump\t// out\n        /* \"#utility.yul\":10446:10587   */\n    tag_184:\n      0x00\n        /* \"#utility.yul\":10518:10521   */\n      dup2\n        /* \"#utility.yul\":10510:10521   */\n      swap1\n      pop\n        /* \"#utility.yul\":10541:10544   */\n      dup2\n        /* \"#utility.yul\":10538:10539   */\n      0x00\n        /* \"#utility.yul\":10531:10545   */\n      mstore\n        /* \"#utility.yul\":10575:10579   */\n      0x20\n        /* \"#utility.yul\":10572:10573   */\n      0x00\n        /* \"#utility.yul\":10562:10580   */\n      keccak256\n        /* \"#utility.yul\":10554:10580   */\n      swap1\n      pop\n        /* \"#utility.yul\":10500:10587   */\n      swap2\n      swap1\n      pop\n      jump\t// out\n        /* \"#utility.yul\":10593:10692   */\n    tag_163:\n      0x00\n        /* \"#utility.yul\":10679:10684   */\n      dup2\n        /* \"#utility.yul\":10673:10685   */\n      mload\n        /* \"#utility.yul\":10663:10685   */\n      swap1\n      pop\n        /* \"#utility.yul\":10652:10692   */\n      swap2\n      swap1\n      pop\n      jump\t// out\n        /* \"#utility.yul\":10698:10867   */\n    tag_165:\n      0x00\n        /* \"#utility.yul\":10816:10822   */\n      dup3\n        /* \"#utility.yul\":10811:10814   */\n      dup3\n        /* \"#utility.yul\":10804:10823   */\n      mstore\n        /* \"#utility.yul\":10856:10860   */\n      0x20\n        /* \"#utility.yul\":10851:10854   */\n      dup3\n        /* \"#utility.yul\":10847:10861   */\n      add\n        /* \"#utility.yul\":10832:10861   */\n      swap1\n      pop\n        /* \"#utility.yul\":10794:10867   */\n      swap3\n      swap2\n      pop\n      pop\n      jump\t// out\n        /* \"#utility.yul\":10873:11021   */\n    tag_174:\n      0x00\n        /* \"#utility.yul\":11012:11015   */\n      dup2\n        /* \"#utility.yul\":10997:11015   */\n      swap1\n      pop\n        /* \"#utility.yul\":10987:11021   */\n      swap3\n      swap2\n      pop\n      pop\n      jump\t// out\n        /* \"#utility.yul\":11027:11123   */\n    tag_155:\n      0x00\n        /* \"#utility.yul\":11093:11117   */\n      tag_239\n        /* \"#utility.yul\":11111:11116   */\n      dup3\n        /* \"#utility.yul\":11093:11117   */\n      tag_240\n      jump\t// in\n    tag_239:\n        /* \"#utility.yul\":11082:11117   */\n      swap1\n      pop\n        /* \"#utility.yul\":11072:11123   */\n      swap2\n      swap1\n      pop\n      jump\t// out\n        /* \"#utility.yul\":11129:11219   */\n    tag_159:\n      0x00\n        /* \"#utility.yul\":11206:11211   */\n      dup2\n        /* \"#utility.yul\":11199:11212   */\n      iszero\n        /* \"#utility.yul\":11192:11213   */\n      iszero\n        /* \"#utility.yul\":11181:11213   */\n      swap1\n      pop\n        /* \"#utility.yul\":11171:11219   */\n      swap2\n      swap1\n      pop\n      jump\t// out\n        /* \"#utility.yul\":11225:11351   */\n    tag_240:\n      0x00\n        /* \"#utility.yul\":11302:11344   */\n      0xffffffffffffffffffffffffffffffffffffffff\n        /* \"#utility.yul\":11295:11300   */\n      dup3\n        /* \"#utility.yul\":11291:11345   */\n      and\n        /* \"#utility.yul\":11280:11345   */\n      swap1\n      pop\n        /* \"#utility.yul\":11270:11351   */\n      swap2\n      swap1\n      pop\n      jump\t// out\n        /* \"#utility.yul\":11357:11434   */\n    tag_243:\n      0x00\n        /* \"#utility.yul\":11423:11428   */\n      dup2\n        /* \"#utility.yul\":11412:11428   */\n      swap1\n      pop\n        /* \"#utility.yul\":11402:11434   */\n      swap2\n      swap1\n      pop\n      jump\t// out\n        /* \"#utility.yul\":11440:11594   */\n    tag_127:\n        /* \"#utility.yul\":11524:11530   */\n      dup3\n        /* \"#utility.yul\":11519:11522   */\n      dup2\n        /* \"#utility.yul\":11514:11517   */\n      dup4\n        /* \"#utility.yul\":11501:11531   */\n      calldatacopy\n        /* \"#utility.yul\":11586:11587   */\n      0x00\n        /* \"#utility.yul\":11577:11583   */\n      dup4\n        /* \"#utility.yul\":11572:11575   */\n      dup4\n        /* \"#utility.yul\":11568:11584   */\n      add\n        /* \"#utility.yul\":11561:11588   */\n      mstore\n        /* \"#utility.yul\":11491:11594   */\n      pop\n      pop\n      pop\n      jump\t// out\n        /* \"#utility.yul\":11600:11907   */\n    tag_167:\n        /* \"#utility.yul\":11668:11669   */\n      0x00\n        /* \"#utility.yul\":11678:11791   */\n    tag_247:\n        /* \"#utility.yul\":11692:11698   */\n      dup4\n        /* \"#utility.yul\":11689:11690   */\n      dup2\n        /* \"#utility.yul\":11686:11699   */\n      lt\n        /* \"#utility.yul\":11678:11791   */\n      iszero\n      tag_249\n      jumpi\n        /* \"#utility.yul\":11777:11778   */\n      dup1\n        /* \"#utility.yul\":11772:11775   */\n      dup3\n        /* \"#utility.yul\":11768:11779   */\n      add\n        /* \"#utility.yul\":11762:11780   */\n      mload\n        /* \"#utility.yul\":11758:11759   */\n      dup2\n        /* \"#utility.yul\":11753:11756   */\n      dup5\n        /* \"#utility.yul\":11749:11760   */\n      add\n        /* \"#utility.yul\":11742:11781   */\n      mstore\n        /* \"#utility.yul\":11714:11716   */\n      0x20\n        /* \"#utility.yul\":11711:11712   */\n      dup2\n        /* \"#utility.yul\":11707:11717   */\n      add\n        /* \"#utility.yul\":11702:11717   */\n      swap1\n      pop\n        /* \"#utility.yul\":11678:11791   */\n      jump(tag_247)\n    tag_249:\n        /* \"#utility.yul\":11809:11815   */\n      dup4\n        /* \"#utility.yul\":11806:11807   */\n      dup2\n        /* \"#utility.yul\":11803:11816   */\n      gt\n        /* \"#utility.yul\":11800:11802   */\n      iszero\n      tag_250\n      jumpi\n        /* \"#utility.yul\":11889:11890   */\n      0x00\n        /* \"#utility.yul\":11880:11886   */\n      dup5\n        /* \"#utility.yul\":11875:11878   */\n      dup5\n        /* \"#utility.yul\":11871:11887   */\n      add\n        /* \"#utility.yul\":11864:11891   */\n      mstore\n        /* \"#utility.yul\":11800:11802   */\n    tag_250:\n        /* \"#utility.yul\":11649:11907   */\n      pop\n      pop\n      pop\n      pop\n      jump\t// out\n        /* \"#utility.yul\":11913:12233   */\n    tag_62:\n      0x00\n        /* \"#utility.yul\":11994:11995   */\n      0x02\n        /* \"#utility.yul\":11988:11992   */\n      dup3\n        /* \"#utility.yul\":11984:11996   */\n      div\n        /* \"#utility.yul\":11974:11996   */\n      swap1\n      pop\n        /* \"#utility.yul\":12041:12042   */\n      0x01\n        /* \"#utility.yul\":12035:12039   */\n      dup3\n        /* \"#utility.yul\":12031:12043   */\n      and\n        /* \"#utility.yul\":12062:12080   */\n      dup1\n        /* \"#utility.yul\":12052:12054   */\n      tag_252\n      jumpi\n        /* \"#utility.yul\":12118:12122   */\n      0x7f\n        /* \"#utility.yul\":12110:12116   */\n      dup3\n        /* \"#utility.yul\":12106:12123   */\n      and\n        /* \"#utility.yul\":12096:12123   */\n      swap2\n      pop\n        /* \"#utility.yul\":12052:12054   */\n    tag_252:\n        /* \"#utility.yul\":12180:12182   */\n      0x20\n        /* \"#utility.yul\":12172:12178   */\n      dup3\n        /* \"#utility.yul\":12169:12183   */\n      lt\n        /* \"#utility.yul\":12149:12167   */\n      dup2\n        /* \"#utility.yul\":12146:12184   */\n      eq\n        /* \"#utility.yul\":12143:12145   */\n      iszero\n      tag_253\n      jumpi\n        /* \"#utility.yul\":12199:12217   */\n      tag_254\n      tag_255\n      jump\t// in\n    tag_254:\n        /* \"#utility.yul\":12143:12145   */\n    tag_253:\n        /* \"#utility.yul\":11964:12233   */\n      pop\n      swap2\n      swap1\n      pop\n      jump\t// out\n        /* \"#utility.yul\":12239:12472   */\n    tag_95:\n      0x00\n        /* \"#utility.yul\":12301:12325   */\n      tag_257\n        /* \"#utility.yul\":12319:12324   */\n      dup3\n        /* \"#utility.yul\":12301:12325   */\n      tag_243\n      jump\t// in\n    tag_257:\n        /* \"#utility.yul\":12292:12325   */\n      swap2\n      pop\n        /* \"#utility.yul\":12347:12413   */\n      0xffffffffffffffffffffffffffffffffffffffffffffffffffffffffffffffff\n        /* \"#utility.yul\":12340:12345   */\n      dup3\n        /* \"#utility.yul\":12337:12414   */\n      eq\n        /* \"#utility.yul\":12334:12336   */\n      iszero\n      tag_258\n      jumpi\n        /* \"#utility.yul\":12417:12435   */\n      tag_259\n      tag_260\n      jump\t// in\n    tag_259:\n        /* \"#utility.yul\":12334:12336   */\n    tag_258:\n        /* \"#utility.yul\":12464:12465   */\n      0x01\n        /* \"#utility.yul\":12457:12462   */\n      dup3\n        /* \"#utility.yul\":12453:12466   */\n      add\n        /* \"#utility.yul\":12446:12466   */\n      swap1\n      pop\n        /* \"#utility.yul\":12282:12472   */\n      swap2\n      swap1\n      pop\n      jump\t// out\n        /* \"#utility.yul\":12478:12658   */\n    tag_260:\n        /* \"#utility.yul\":12526:12603   */\n      0x4e487b7100000000000000000000000000000000000000000000000000000000\n        /* \"#utility.yul\":12523:12524   */\n      0x00\n        /* \"#utility.yul\":12516:12604   */\n      mstore\n        /* \"#utility.yul\":12623:12627   */\n      0x11\n        /* \"#utility.yul\":12620:12621   */\n      0x04\n        /* \"#utility.yul\":12613:12628   */\n      mstore\n        /* \"#utility.yul\":12647:12651   */\n      0x24\n        /* \"#utility.yul\":12644:12645   */\n      0x00\n        /* \"#utility.yul\":12637:12652   */\n      revert\n        /* \"#utility.yul\":12664:12844   */\n    tag_255:\n        /* \"#utility.yul\":12712:12789   */\n      0x4e487b7100000000000000000000000000000000000000000000000000000000\n        /* \"#utility.yul\":12709:12710   */\n      0x00\n        /* \"#utility.yul\":12702:12790   */\n      mstore\n        /* \"#utility.yul\":12809:12813   */\n      0x22\n        /* \"#utility.yul\":12806:12807   */\n      0x04\n        /* \"#utility.yul\":12799:12814   */\n      mstore\n        /* \"#utility.yul\":12833:12837   */\n      0x24\n        /* \"#utility.yul\":12830:12831   */\n      0x00\n        /* \"#utility.yul\":12823:12838   */\n      revert\n        /* \"#utility.yul\":12850:13030   */\n    tag_230:\n        /* \"#utility.yul\":12898:12975   */\n      0x4e487b7100000000000000000000000000000000000000000000000000000000\n        /* \"#utility.yul\":12895:12896   */\n      0x00\n        /* \"#utility.yul\":12888:12976   */\n      mstore\n        /* \"#utility.yul\":12995:12999   */\n      0x41\n        /* \"#utility.yul\":12992:12993   */\n      0x04\n        /* \"#utility.yul\":12985:13000   */\n      mstore\n        /* \"#utility.yul\":13019:13023   */\n      0x24\n        /* \"#utility.yul\":13016:13017   */\n      0x00\n        /* \"#utility.yul\":13009:13024   */\n      revert\n        /* \"#utility.yul\":13036:13138   */\n    tag_169:\n      0x00\n        /* \"#utility.yul\":13128:13130   */\n      0x1f\n        /* \"#utility.yul\":13124:13131   */\n      not\n        /* \"#utility.yul\":13119:13121   */\n      0x1f\n        /* \"#utility.yul\":13112:13117   */\n      dup4\n        /* \"#utility.yul\":13108:13122   */\n      add\n        /* \"#utility.yul\":13104:13132   */\n      and\n        /* \"#utility.yul\":13094:13132   */\n      swap1\n      pop\n        /* \"#utility.yul\":13084:13138   */\n      swap2\n      swap1\n      pop\n      jump\t// out\n        /* \"#utility.yul\":13144:13260   */\n    tag_131:\n        /* \"#utility.yul\":13214:13235   */\n      tag_266\n        /* \"#utility.yul\":13229:13234   */\n      dup2\n        /* \"#utility.yul\":13214:13235   */\n      tag_159\n      jump\t// in\n    tag_266:\n        /* \"#utility.yul\":13207:13212   */\n      dup2\n        /* \"#utility.yul\":13204:13236   */\n      eq\n        /* \"#utility.yul\":13194:13196   */\n      tag_267\n      jumpi\n        /* \"#utility.yul\":13250:13251   */\n      0x00\n        /* \"#utility.yul\":13247:13248   */\n      dup1\n        /* \"#utility.yul\":13240:13252   */\n      revert\n        /* \"#utility.yul\":13194:13196   */\n    tag_267:\n        /* \"#utility.yul\":13184:13260   */\n      pop\n      jump\t// out\n        /* \"#utility.yul\":13266:13388   */\n    tag_139:\n        /* \"#utility.yul\":13339:13363   */\n      tag_269\n        /* \"#utility.yul\":13357:13362   */\n      dup2\n        /* \"#utility.yul\":13339:13363   */\n      tag_243\n      jump\t// in\n    tag_269:\n        /* \"#utility.yul\":13332:13337   */\n      dup2\n        /* \"#utility.yul\":13329:13364   */\n      eq\n        /* \"#utility.yul\":13319:13321   */\n      tag_270\n      jumpi\n        /* \"#utility.yul\":13378:13379   */\n      0x00\n        /* \"#utility.yul\":13375:13376   */\n      dup1\n        /* \"#utility.yul\":13368:13380   */\n      revert\n        /* \"#utility.yul\":13319:13321   */\n    tag_270:\n        /* \"#utility.yul\":13309:13388   */\n      pop\n      jump\t// out\n\n    auxdata: 0xa2646970667358221220f20c3935157863957365fc08ab4803c96e5afc7043296b37d25382c25ebb698164736f6c63430008000033\n}\n",
				"bytecode": {
					"linkReferences": {},
					"object": "608060405260016000806101000a81548160ff02191690831515021790555034801561002a57600080fd5b5033600060016101000a81548173ffffffffffffffffffffffffffffffffffffffff021916908373ffffffffffffffffffffffffffffffffffffffff16021790555061133d8061007b6000396000f3fe608060405234801561001057600080fd5b50600436106100625760003560e01c80630694952d146100675780631509d30c146100855780631c18379a146100a157806357ae2a89146100bd578063a18cc13b146100ed578063e7d4296a1461010b575b600080fd5b61006f61013d565b60405161007c9190610f63565b60405180910390f35b61009f600480360381019061009a9190610b98565b610163565b005b6100bb60048036038101906100b69190610bc1565b61020f565b005b6100d760048036038101906100d29190610c2d565b610434565b6040516100e49190610fd7565b60405180910390f35b6100f5610748565b6040516101029190610fbc565b60405180910390f35b61012560048036038101906101209190610c2d565b610759565b60405161013493929190610f7e565b60405180910390f35b600060019054906101000a900473ffffffffffffffffffffffffffffffffffffffff1681565b600060019054906101000a900473ffffffffffffffffffffffffffffffffffffffff1673ffffffffffffffffffffffffffffffffffffffff163373ffffffffffffffffffffffffffffffffffffffff16146101f3576040517f08c379a00000000000000000000000000000000000000000000000000000000081526004016101ea90611059565b60405180910390fd5b806000806101000a81548160ff02191690831515021790555050565b6001151560008054906101000a900460ff16151514610263576040517f08c379a000000000000000000000000000000000000000000000000000000000815260040161025a90611079565b60405180910390fd5b61026c82610848565b156102ac576040517f08c379a00000000000000000000000000000000000000000000000000000000081526004016102a390611019565b60405180910390fd5b6000600180816001815401808255809150500390600052602060002090600302019050338160000160006101000a81548173ffffffffffffffffffffffffffffffffffffffff021916908373ffffffffffffffffffffffffffffffffffffffff16021790555060018160000160146101000a81548160ff02191690831515021790555082816001019080519060200190610347929190610a2a565b508060020160405180606001604052803373ffffffffffffffffffffffffffffffffffffffff16815260200160011515815260200184815250908060018154018082558091505060019003906000526020600020906002020160009091909190915060008201518160000160006101000a81548173ffffffffffffffffffffffffffffffffffffffff021916908373ffffffffffffffffffffffffffffffffffffffff16021790555060208201518160000160146101000a81548160ff021916908315150217905550604082015181600101908051906020019061042c929190610a2a565b505050505050565b6060600180549050821061047d576040517f08c379a000000000000000000000000000000000000000000000000000000000815260040161047490611039565b60405180910390fd5b61073d600183815481106104ba577f4e487b7100000000000000000000000000000000000000000000000000000000600052603260045260246000fd5b90600052602060002090600302016040518060800160405290816000820160009054906101000a900473ffffffffffffffffffffffffffffffffffffffff1673ffffffffffffffffffffffffffffffffffffffff1673ffffffffffffffffffffffffffffffffffffffff1681526020016000820160149054906101000a900460ff16151515158152602001600182018054610554906111c0565b80601f0160208091040260200160405190810160405280929190818152602001828054610580906111c0565b80156105cd5780601f106105a2576101008083540402835291602001916105cd565b820191906000526020600020905b8154815290600101906020018083116105b057829003601f168201915b5050505050815260200160028201805480602002602001604051908101604052809291908181526020016000905b8282101561073057838290600052602060002090600202016040518060600160405290816000820160009054906101000a900473ffffffffffffffffffffffffffffffffffffffff1673ffffffffffffffffffffffffffffffffffffffff1673ffffffffffffffffffffffffffffffffffffffff1681526020016000820160149054906101000a900460ff1615151515815260200160018201805461069f906111c0565b80601f01602080910402602001604051908101604052809291908181526020018280546106cb906111c0565b80156107185780601f106106ed57610100808354040283529160200191610718565b820191906000526020600020905b8154815290600101906020018083116106fb57829003601f168201915b505050505081525050815260200190600101906105fb565b5050505081525050610923565b604001519050919050565b60008054906101000a900460ff1681565b6001818154811061076957600080fd5b90600052602060002090600302016000915090508060000160009054906101000a900473ffffffffffffffffffffffffffffffffffffffff16908060000160149054906101000a900460ff16908060010180546107c5906111c0565b80601f01602080910402602001604051908101604052809291908181526020018280546107f1906111c0565b801561083e5780601f106108135761010080835404028352916020019161083e565b820191906000526020600020905b81548152906001019060200180831161082157829003601f168201915b5050505050905083565b600080600090505b600180549050811015610918578260405160200161086e9190610f35565b60405160208183030381529060405280519060200120600182815481106108be577f4e487b7100000000000000000000000000000000000000000000000000000000600052603260045260246000fd5b90600052602060002090600302016001016040516020016108df9190610f4c565b60405160208183030381529060405280519060200120141561090557600191505061091e565b8080610910906111f2565b915050610850565b50600090505b919050565b61092b610ab0565b60005b8260600151518110156109e95782606001518181518110610978577f4e487b7100000000000000000000000000000000000000000000000000000000600052603260045260246000fd5b602002602001015160200151156109d657826060015181815181106109c6577f4e487b7100000000000000000000000000000000000000000000000000000000600052603260045260246000fd5b6020026020010151915050610a25565b80806109e1906111f2565b91505061092e565b506040517f08c379a0000000000000000000000000000000000000000000000000000000008152600401610a1c90610ff9565b60405180910390fd5b919050565b828054610a36906111c0565b90600052602060002090601f016020900481019282610a585760008555610a9f565b82601f10610a7157805160ff1916838001178555610a9f565b82800160010185558215610a9f579182015b82811115610a9e578251825591602001919060010190610a83565b5b509050610aac9190610ae9565b5090565b6040518060600160405280600073ffffffffffffffffffffffffffffffffffffffff168152602001600015158152602001606081525090565b5b80821115610b02576000816000905550600101610aea565b5090565b6000610b19610b14846110ca565b611099565b905082815260208101848484011115610b3157600080fd5b610b3c84828561117e565b509392505050565b600081359050610b53816112d9565b92915050565b600082601f830112610b6a57600080fd5b8135610b7a848260208601610b06565b91505092915050565b600081359050610b92816112f0565b92915050565b600060208284031215610baa57600080fd5b6000610bb884828501610b44565b91505092915050565b60008060408385031215610bd457600080fd5b600083013567ffffffffffffffff811115610bee57600080fd5b610bfa85828601610b59565b925050602083013567ffffffffffffffff811115610c1757600080fd5b610c2385828601610b59565b9150509250929050565b600060208284031215610c3f57600080fd5b6000610c4d84828501610b83565b91505092915050565b610c5f81611136565b82525050565b610c6e81611148565b82525050565b6000610c7f8261110f565b610c89818561111a565b9350610c9981856020860161118d565b610ca2816112c8565b840191505092915050565b6000610cb88261110f565b610cc2818561112b565b9350610cd281856020860161118d565b80840191505092915050565b60008154610ceb816111c0565b610cf5818661112b565b94506001821660008114610d105760018114610d2157610d54565b60ff19831686528186019350610d54565b610d2a856110fa565b60005b83811015610d4c57815481890152600182019150602081019050610d2d565b838801955050505b50505092915050565b6000610d6a60208361111a565b91507f4e656e68756d612076657273616f2076616c69646120656e636f6e74726164616000830152602082019050919050565b6000610daa60248361111a565b91507f556d6120706167696e6120636f6d206573746520746974756c6f206a6120657860008301527f69737465000000000000000000000000000000000000000000000000000000006020830152604082019050919050565b6000610e1060168361111a565b91507f496e6469636520666f726120646f20616c63616e6365000000000000000000006000830152602082019050919050565b6000610e50603d8361111a565b91507f536f6d656e7465206f20646f6e6f20646573746120426c6f636b70656469612060008301527f706f646520616c7465726172206f20617472696275746f20617469766f0000006020830152604082019050919050565b6000610eb660478361111a565b91507f412061646963616f206465206e6f76617320706167696e617320736f2065207060008301527f65726d6974696461207175616e646f206120426c6f636b70656469612065737460208301527f61206174697661000000000000000000000000000000000000000000000000006040830152606082019050919050565b6000610f418284610cad565b915081905092915050565b6000610f588284610cde565b915081905092915050565b6000602082019050610f786000830184610c56565b92915050565b6000606082019050610f936000830186610c56565b610fa06020830185610c65565b8181036040830152610fb28184610c74565b9050949350505050565b6000602082019050610fd16000830184610c65565b92915050565b60006020820190508181036000830152610ff18184610c74565b905092915050565b6000602082019050818103600083015261101281610d5d565b9050919050565b6000602082019050818103600083015261103281610d9d565b9050919050565b6000602082019050818103600083015261105281610e03565b9050919050565b6000602082019050818103600083015261107281610e43565b9050919050565b6000602082019050818103600083015261109281610ea9565b9050919050565b6000604051905081810181811067ffffffffffffffff821117156110c0576110bf611299565b5b8060405250919050565b600067ffffffffffffffff8211156110e5576110e4611299565b5b601f19601f8301169050602081019050919050565b60008190508160005260206000209050919050565b600081519050919050565b600082825260208201905092915050565b600081905092915050565b600061114182611154565b9050919050565b60008115159050919050565b600073ffffffffffffffffffffffffffffffffffffffff82169050919050565b6000819050919050565b82818337600083830152505050565b60005b838110156111ab578082015181840152602081019050611190565b838111156111ba576000848401525b50505050565b600060028204905060018216806111d857607f821691505b602082108114156111ec576111eb61126a565b5b50919050565b60006111fd82611174565b91507fffffffffffffffffffffffffffffffffffffffffffffffffffffffffffffffff8214156112305761122f61123b565b5b600182019050919050565b7f4e487b7100000000000000000000000000000000000000000000000000000000600052601160045260246000fd5b7f4e487b7100000000000000000000000000000000000000000000000000000000600052602260045260246000fd5b7f4e487b7100000000000000000000000000000000000000000000000000000000600052604160045260246000fd5b6000601f19601f8301169050919050565b6112e281611148565b81146112ed57600080fd5b50565b6112f981611174565b811461130457600080fd5b5056fea2646970667358221220f20c3935157863957365fc08ab4803c96e5afc7043296b37d25382c25ebb698164736f6c63430008000033",
					"opcodes": "PUSH1 0x80 PUSH1 0x40 MSTORE PUSH1 0x1 PUSH1 0x0 DUP1 PUSH2 0x100 EXP DUP2 SLOAD DUP2 PUSH1 0xFF MUL NOT AND SWAP1 DUP4 ISZERO ISZERO MUL OR SWAP1 SSTORE POP CALLVALUE DUP1 ISZERO PUSH2 0x2A JUMPI PUSH1 0x0 DUP1 REVERT JUMPDEST POP CALLER PUSH1 0x0 PUSH1 0x1 PUSH2 0x100 EXP DUP2 SLOAD DUP2 PUSH20 0xFFFFFFFFFFFFFFFFFFFFFFFFFFFFFFFFFFFFFFFF MUL NOT AND SWAP1 DUP4 PUSH20 0xFFFFFFFFFFFFFFFFFFFFFFFFFFFFFFFFFFFFFFFF AND MUL OR SWAP1 SSTORE POP PUSH2 0x133D DUP1 PUSH2 0x7B PUSH1 0x0 CODECOPY PUSH1 0x0 RETURN INVALID PUSH1 0x80 PUSH1 0x40 MSTORE CALLVALUE DUP1 ISZERO PUSH2 0x10 JUMPI PUSH1 0x0 DUP1 REVERT JUMPDEST POP PUSH1 0x4 CALLDATASIZE LT PUSH2 0x62 JUMPI PUSH1 0x0 CALLDATALOAD PUSH1 0xE0 SHR DUP1 PUSH4 0x694952D EQ PUSH2 0x67 JUMPI DUP1 PUSH4 0x1509D30C EQ PUSH2 0x85 JUMPI DUP1 PUSH4 0x1C18379A EQ PUSH2 0xA1 JUMPI DUP1 PUSH4 0x57AE2A89 EQ PUSH2 0xBD JUMPI DUP1 PUSH4 0xA18CC13B EQ PUSH2 0xED JUMPI DUP1 PUSH4 0xE7D4296A EQ PUSH2 0x10B JUMPI JUMPDEST PUSH1 0x0 DUP1 REVERT JUMPDEST PUSH2 0x6F PUSH2 0x13D JUMP JUMPDEST PUSH1 0x40 MLOAD PUSH2 0x7C SWAP2 SWAP1 PUSH2 0xF63 JUMP JUMPDEST PUSH1 0x40 MLOAD DUP1 SWAP2 SUB SWAP1 RETURN JUMPDEST PUSH2 0x9F PUSH1 0x4 DUP1 CALLDATASIZE SUB DUP2 ADD SWAP1 PUSH2 0x9A SWAP2 SWAP1 PUSH2 0xB98 JUMP JUMPDEST PUSH2 0x163 JUMP JUMPDEST STOP JUMPDEST PUSH2 0xBB PUSH1 0x4 DUP1 CALLDATASIZE SUB DUP2 ADD SWAP1 PUSH2 0xB6 SWAP2 SWAP1 PUSH2 0xBC1 JUMP JUMPDEST PUSH2 0x20F JUMP JUMPDEST STOP JUMPDEST PUSH2 0xD7 PUSH1 0x4 DUP1 CALLDATASIZE SUB DUP2 ADD SWAP1 PUSH2 0xD2 SWAP2 SWAP1 PUSH2 0xC2D JUMP JUMPDEST PUSH2 0x434 JUMP JUMPDEST PUSH1 0x40 MLOAD PUSH2 0xE4 SWAP2 SWAP1 PUSH2 0xFD7 JUMP JUMPDEST PUSH1 0x40 MLOAD DUP1 SWAP2 SUB SWAP1 RETURN JUMPDEST PUSH2 0xF5 PUSH2 0x748 JUMP JUMPDEST PUSH1 0x40 MLOAD PUSH2 0x102 SWAP2 SWAP1 PUSH2 0xFBC JUMP JUMPDEST PUSH1 0x40 MLOAD DUP1 SWAP2 SUB SWAP1 RETURN JUMPDEST PUSH2 0x125 PUSH1 0x4 DUP1 CALLDATASIZE SUB DUP2 ADD SWAP1 PUSH2 0x120 SWAP2 SWAP1 PUSH2 0xC2D JUMP JUMPDEST PUSH2 0x759 JUMP JUMPDEST PUSH1 0x40 MLOAD PUSH2 0x134 SWAP4 SWAP3 SWAP2 SWAP1 PUSH2 0xF7E JUMP JUMPDEST PUSH1 0x40 MLOAD DUP1 SWAP2 SUB SWAP1 RETURN JUMPDEST PUSH1 0x0 PUSH1 0x1 SWAP1 SLOAD SWAP1 PUSH2 0x100 EXP SWAP1 DIV PUSH20 0xFFFFFFFFFFFFFFFFFFFFFFFFFFFFFFFFFFFFFFFF AND DUP2 JUMP JUMPDEST PUSH1 0x0 PUSH1 0x1 SWAP1 SLOAD SWAP1 PUSH2 0x100 EXP SWAP1 DIV PUSH20 0xFFFFFFFFFFFFFFFFFFFFFFFFFFFFFFFFFFFFFFFF AND PUSH20 0xFFFFFFFFFFFFFFFFFFFFFFFFFFFFFFFFFFFFFFFF AND CALLER PUSH20 0xFFFFFFFFFFFFFFFFFFFFFFFFFFFFFFFFFFFFFFFF AND EQ PUSH2 0x1F3 JUMPI PUSH1 0x40 MLOAD PUSH32 0x8C379A000000000000000000000000000000000000000000000000000000000 DUP2 MSTORE PUSH1 0x4 ADD PUSH2 0x1EA SWAP1 PUSH2 0x1059 JUMP JUMPDEST PUSH1 0x40 MLOAD DUP1 SWAP2 SUB SWAP1 REVERT JUMPDEST DUP1 PUSH1 0x0 DUP1 PUSH2 0x100 EXP DUP2 SLOAD DUP2 PUSH1 0xFF MUL NOT AND SWAP1 DUP4 ISZERO ISZERO MUL OR SWAP1 SSTORE POP POP JUMP JUMPDEST PUSH1 0x1 ISZERO ISZERO PUSH1 0x0 DUP1 SLOAD SWAP1 PUSH2 0x100 EXP SWAP1 DIV PUSH1 0xFF AND ISZERO ISZERO EQ PUSH2 0x263 JUMPI PUSH1 0x40 MLOAD PUSH32 0x8C379A000000000000000000000000000000000000000000000000000000000 DUP2 MSTORE PUSH1 0x4 ADD PUSH2 0x25A SWAP1 PUSH2 0x1079 JUMP JUMPDEST PUSH1 0x40 MLOAD DUP1 SWAP2 SUB SWAP1 REVERT JUMPDEST PUSH2 0x26C DUP3 PUSH2 0x848 JUMP JUMPDEST ISZERO PUSH2 0x2AC JUMPI PUSH1 0x40 MLOAD PUSH32 0x8C379A000000000000000000000000000000000000000000000000000000000 DUP2 MSTORE PUSH1 0x4 ADD PUSH2 0x2A3 SWAP1 PUSH2 0x1019 JUMP JUMPDEST PUSH1 0x40 MLOAD DUP1 SWAP2 SUB SWAP1 REVERT JUMPDEST PUSH1 0x0 PUSH1 0x1 DUP1 DUP2 PUSH1 0x1 DUP2 SLOAD ADD DUP1 DUP3 SSTORE DUP1 SWAP2 POP POP SUB SWAP1 PUSH1 0x0 MSTORE PUSH1 0x20 PUSH1 0x0 KECCAK256 SWAP1 PUSH1 0x3 MUL ADD SWAP1 POP CALLER DUP2 PUSH1 0x0 ADD PUSH1 0x0 PUSH2 0x100 EXP DUP2 SLOAD DUP2 PUSH20 0xFFFFFFFFFFFFFFFFFFFFFFFFFFFFFFFFFFFFFFFF MUL NOT AND SWAP1 DUP4 PUSH20 0xFFFFFFFFFFFFFFFFFFFFFFFFFFFFFFFFFFFFFFFF AND MUL OR SWAP1 SSTORE POP PUSH1 0x1 DUP2 PUSH1 0x0 ADD PUSH1 0x14 PUSH2 0x100 EXP DUP2 SLOAD DUP2 PUSH1 0xFF MUL NOT AND SWAP1 DUP4 ISZERO ISZERO MUL OR SWAP1 SSTORE POP DUP3 DUP2 PUSH1 0x1 ADD SWAP1 DUP1 MLOAD SWAP1 PUSH1 0x20 ADD SWAP1 PUSH2 0x347 SWAP3 SWAP2 SWAP1 PUSH2 0xA2A JUMP JUMPDEST POP DUP1 PUSH1 0x2 ADD PUSH1 0x40 MLOAD DUP1 PUSH1 0x60 ADD PUSH1 0x40 MSTORE DUP1 CALLER PUSH20 0xFFFFFFFFFFFFFFFFFFFFFFFFFFFFFFFFFFFFFFFF AND DUP2 MSTORE PUSH1 0x20 ADD PUSH1 0x1 ISZERO ISZERO DUP2 MSTORE PUSH1 0x20 ADD DUP5 DUP2 MSTORE POP SWAP1 DUP1 PUSH1 0x1 DUP2 SLOAD ADD DUP1 DUP3 SSTORE DUP1 SWAP2 POP POP PUSH1 0x1 SWAP1 SUB SWAP1 PUSH1 0x0 MSTORE PUSH1 0x20 PUSH1 0x0 KECCAK256 SWAP1 PUSH1 0x2 MUL ADD PUSH1 0x0 SWAP1 SWAP2 SWAP1 SWAP2 SWAP1 SWAP2 POP PUSH1 0x0 DUP3 ADD MLOAD DUP2 PUSH1 0x0 ADD PUSH1 0x0 PUSH2 0x100 EXP DUP2 SLOAD DUP2 PUSH20 0xFFFFFFFFFFFFFFFFFFFFFFFFFFFFFFFFFFFFFFFF MUL NOT AND SWAP1 DUP4 PUSH20 0xFFFFFFFFFFFFFFFFFFFFFFFFFFFFFFFFFFFFFFFF AND MUL OR SWAP1 SSTORE POP PUSH1 0x20 DUP3 ADD MLOAD DUP2 PUSH1 0x0 ADD PUSH1 0x14 PUSH2 0x100 EXP DUP2 SLOAD DUP2 PUSH1 0xFF MUL NOT AND SWAP1 DUP4 ISZERO ISZERO MUL OR SWAP1 SSTORE POP PUSH1 0x40 DUP3 ADD MLOAD DUP2 PUSH1 0x1 ADD SWAP1 DUP1 MLOAD SWAP1 PUSH1 0x20 ADD SWAP1 PUSH2 0x42C SWAP3 SWAP2 SWAP1 PUSH2 0xA2A JUMP JUMPDEST POP POP POP POP POP POP JUMP JUMPDEST PUSH1 0x60 PUSH1 0x1 DUP1 SLOAD SWAP1 POP DUP3 LT PUSH2 0x47D JUMPI PUSH1 0x40 MLOAD PUSH32 0x8C379A000000000000000000000000000000000000000000000000000000000 DUP2 MSTORE PUSH1 0x4 ADD PUSH2 0x474 SWAP1 PUSH2 0x1039 JUMP JUMPDEST PUSH1 0x40 MLOAD DUP1 SWAP2 SUB SWAP1 REVERT JUMPDEST PUSH2 0x73D PUSH1 0x1 DUP4 DUP2 SLOAD DUP2 LT PUSH2 0x4BA JUMPI PUSH32 0x4E487B7100000000000000000000000000000000000000000000000000000000 PUSH1 0x0 MSTORE PUSH1 0x32 PUSH1 0x4 MSTORE PUSH1 0x24 PUSH1 0x0 REVERT JUMPDEST SWAP1 PUSH1 0x0 MSTORE PUSH1 0x20 PUSH1 0x0 KECCAK256 SWAP1 PUSH1 0x3 MUL ADD PUSH1 0x40 MLOAD DUP1 PUSH1 0x80 ADD PUSH1 0x40 MSTORE SWAP1 DUP2 PUSH1 0x0 DUP3 ADD PUSH1 0x0 SWAP1 SLOAD SWAP1 PUSH2 0x100 EXP SWAP1 DIV PUSH20 0xFFFFFFFFFFFFFFFFFFFFFFFFFFFFFFFFFFFFFFFF AND PUSH20 0xFFFFFFFFFFFFFFFFFFFFFFFFFFFFFFFFFFFFFFFF AND PUSH20 0xFFFFFFFFFFFFFFFFFFFFFFFFFFFFFFFFFFFFFFFF AND DUP2 MSTORE PUSH1 0x20 ADD PUSH1 0x0 DUP3 ADD PUSH1 0x14 SWAP1 SLOAD SWAP1 PUSH2 0x100 EXP SWAP1 DIV PUSH1 0xFF AND ISZERO ISZERO ISZERO ISZERO DUP2 MSTORE PUSH1 0x20 ADD PUSH1 0x1 DUP3 ADD DUP1 SLOAD PUSH2 0x554 SWAP1 PUSH2 0x11C0 JUMP JUMPDEST DUP1 PUSH1 0x1F ADD PUSH1 0x20 DUP1 SWAP2 DIV MUL PUSH1 0x20 ADD PUSH1 0x40 MLOAD SWAP1 DUP2 ADD PUSH1 0x40 MSTORE DUP1 SWAP3 SWAP2 SWAP1 DUP2 DUP2 MSTORE PUSH1 0x20 ADD DUP3 DUP1 SLOAD PUSH2 0x580 SWAP1 PUSH2 0x11C0 JUMP JUMPDEST DUP1 ISZERO PUSH2 0x5CD JUMPI DUP1 PUSH1 0x1F LT PUSH2 0x5A2 JUMPI PUSH2 0x100 DUP1 DUP4 SLOAD DIV MUL DUP4 MSTORE SWAP2 PUSH1 0x20 ADD SWAP2 PUSH2 0x5CD JUMP JUMPDEST DUP3 ADD SWAP2 SWAP1 PUSH1 0x0 MSTORE PUSH1 0x20 PUSH1 0x0 KECCAK256 SWAP1 JUMPDEST DUP2 SLOAD DUP2 MSTORE SWAP1 PUSH1 0x1 ADD SWAP1 PUSH1 0x20 ADD DUP1 DUP4 GT PUSH2 0x5B0 JUMPI DUP3 SWAP1 SUB PUSH1 0x1F AND DUP3 ADD SWAP2 JUMPDEST POP POP POP POP POP DUP2 MSTORE PUSH1 0x20 ADD PUSH1 0x2 DUP3 ADD DUP1 SLOAD DUP1 PUSH1 0x20 MUL PUSH1 0x20 ADD PUSH1 0x40 MLOAD SWAP1 DUP2 ADD PUSH1 0x40 MSTORE DUP1 SWAP3 SWAP2 SWAP1 DUP2 DUP2 MSTORE PUSH1 0x20 ADD PUSH1 0x0 SWAP1 JUMPDEST DUP3 DUP3 LT ISZERO PUSH2 0x730 JUMPI DUP4 DUP3 SWAP1 PUSH1 0x0 MSTORE PUSH1 0x20 PUSH1 0x0 KECCAK256 SWAP1 PUSH1 0x2 MUL ADD PUSH1 0x40 MLOAD DUP1 PUSH1 0x60 ADD PUSH1 0x40 MSTORE SWAP1 DUP2 PUSH1 0x0 DUP3 ADD PUSH1 0x0 SWAP1 SLOAD SWAP1 PUSH2 0x100 EXP SWAP1 DIV PUSH20 0xFFFFFFFFFFFFFFFFFFFFFFFFFFFFFFFFFFFFFFFF AND PUSH20 0xFFFFFFFFFFFFFFFFFFFFFFFFFFFFFFFFFFFFFFFF AND PUSH20 0xFFFFFFFFFFFFFFFFFFFFFFFFFFFFFFFFFFFFFFFF AND DUP2 MSTORE PUSH1 0x20 ADD PUSH1 0x0 DUP3 ADD PUSH1 0x14 SWAP1 SLOAD SWAP1 PUSH2 0x100 EXP SWAP1 DIV PUSH1 0xFF AND ISZERO ISZERO ISZERO ISZERO DUP2 MSTORE PUSH1 0x20 ADD PUSH1 0x1 DUP3 ADD DUP1 SLOAD PUSH2 0x69F SWAP1 PUSH2 0x11C0 JUMP JUMPDEST DUP1 PUSH1 0x1F ADD PUSH1 0x20 DUP1 SWAP2 DIV MUL PUSH1 0x20 ADD PUSH1 0x40 MLOAD SWAP1 DUP2 ADD PUSH1 0x40 MSTORE DUP1 SWAP3 SWAP2 SWAP1 DUP2 DUP2 MSTORE PUSH1 0x20 ADD DUP3 DUP1 SLOAD PUSH2 0x6CB SWAP1 PUSH2 0x11C0 JUMP JUMPDEST DUP1 ISZERO PUSH2 0x718 JUMPI DUP1 PUSH1 0x1F LT PUSH2 0x6ED JUMPI PUSH2 0x100 DUP1 DUP4 SLOAD DIV MUL DUP4 MSTORE SWAP2 PUSH1 0x20 ADD SWAP2 PUSH2 0x718 JUMP JUMPDEST DUP3 ADD SWAP2 SWAP1 PUSH1 0x0 MSTORE PUSH1 0x20 PUSH1 0x0 KECCAK256 SWAP1 JUMPDEST DUP2 SLOAD DUP2 MSTORE SWAP1 PUSH1 0x1 ADD SWAP1 PUSH1 0x20 ADD DUP1 DUP4 GT PUSH2 0x6FB JUMPI DUP3 SWAP1 SUB PUSH1 0x1F AND DUP3 ADD SWAP2 JUMPDEST POP POP POP POP POP DUP2 MSTORE POP POP DUP2 MSTORE PUSH1 0x20 ADD SWAP1 PUSH1 0x1 ADD SWAP1 PUSH2 0x5FB JUMP JUMPDEST POP POP POP POP DUP2 MSTORE POP POP PUSH2 0x923 JUMP JUMPDEST PUSH1 0x40 ADD MLOAD SWAP1 POP SWAP2 SWAP1 POP JUMP JUMPDEST PUSH1 0x0 DUP1 SLOAD SWAP1 PUSH2 0x100 EXP SWAP1 DIV PUSH1 0xFF AND DUP2 JUMP JUMPDEST PUSH1 0x1 DUP2 DUP2 SLOAD DUP2 LT PUSH2 0x769 JUMPI PUSH1 0x0 DUP1 REVERT JUMPDEST SWAP1 PUSH1 0x0 MSTORE PUSH1 0x20 PUSH1 0x0 KECCAK256 SWAP1 PUSH1 0x3 MUL ADD PUSH1 0x0 SWAP2 POP SWAP1 POP DUP1 PUSH1 0x0 ADD PUSH1 0x0 SWAP1 SLOAD SWAP1 PUSH2 0x100 EXP SWAP1 DIV PUSH20 0xFFFFFFFFFFFFFFFFFFFFFFFFFFFFFFFFFFFFFFFF AND SWAP1 DUP1 PUSH1 0x0 ADD PUSH1 0x14 SWAP1 SLOAD SWAP1 PUSH2 0x100 EXP SWAP1 DIV PUSH1 0xFF AND SWAP1 DUP1 PUSH1 0x1 ADD DUP1 SLOAD PUSH2 0x7C5 SWAP1 PUSH2 0x11C0 JUMP JUMPDEST DUP1 PUSH1 0x1F ADD PUSH1 0x20 DUP1 SWAP2 DIV MUL PUSH1 0x20 ADD PUSH1 0x40 MLOAD SWAP1 DUP2 ADD PUSH1 0x40 MSTORE DUP1 SWAP3 SWAP2 SWAP1 DUP2 DUP2 MSTORE PUSH1 0x20 ADD DUP3 DUP1 SLOAD PUSH2 0x7F1 SWAP1 PUSH2 0x11C0 JUMP JUMPDEST DUP1 ISZERO PUSH2 0x83E JUMPI DUP1 PUSH1 0x1F LT PUSH2 0x813 JUMPI PUSH2 0x100 DUP1 DUP4 SLOAD DIV MUL DUP4 MSTORE SWAP2 PUSH1 0x20 ADD SWAP2 PUSH2 0x83E JUMP JUMPDEST DUP3 ADD SWAP2 SWAP1 PUSH1 0x0 MSTORE PUSH1 0x20 PUSH1 0x0 KECCAK256 SWAP1 JUMPDEST DUP2 SLOAD DUP2 MSTORE SWAP1 PUSH1 0x1 ADD SWAP1 PUSH1 0x20 ADD DUP1 DUP4 GT PUSH2 0x821 JUMPI DUP3 SWAP1 SUB PUSH1 0x1F AND DUP3 ADD SWAP2 JUMPDEST POP POP POP POP POP SWAP1 POP DUP4 JUMP JUMPDEST PUSH1 0x0 DUP1 PUSH1 0x0 SWAP1 POP JUMPDEST PUSH1 0x1 DUP1 SLOAD SWAP1 POP DUP2 LT ISZERO PUSH2 0x918 JUMPI DUP3 PUSH1 0x40 MLOAD PUSH1 0x20 ADD PUSH2 0x86E SWAP2 SWAP1 PUSH2 0xF35 JUMP JUMPDEST PUSH1 0x40 MLOAD PUSH1 0x20 DUP2 DUP4 SUB SUB DUP2 MSTORE SWAP1 PUSH1 0x40 MSTORE DUP1 MLOAD SWAP1 PUSH1 0x20 ADD KECCAK256 PUSH1 0x1 DUP3 DUP2 SLOAD DUP2 LT PUSH2 0x8BE JUMPI PUSH32 0x4E487B7100000000000000000000000000000000000000000000000000000000 PUSH1 0x0 MSTORE PUSH1 0x32 PUSH1 0x4 MSTORE PUSH1 0x24 PUSH1 0x0 REVERT JUMPDEST SWAP1 PUSH1 0x0 MSTORE PUSH1 0x20 PUSH1 0x0 KECCAK256 SWAP1 PUSH1 0x3 MUL ADD PUSH1 0x1 ADD PUSH1 0x40 MLOAD PUSH1 0x20 ADD PUSH2 0x8DF SWAP2 SWAP1 PUSH2 0xF4C JUMP JUMPDEST PUSH1 0x40 MLOAD PUSH1 0x20 DUP2 DUP4 SUB SUB DUP2 MSTORE SWAP1 PUSH1 0x40 MSTORE DUP1 MLOAD SWAP1 PUSH1 0x20 ADD KECCAK256 EQ ISZERO PUSH2 0x905 JUMPI PUSH1 0x1 SWAP2 POP POP PUSH2 0x91E JUMP JUMPDEST DUP1 DUP1 PUSH2 0x910 SWAP1 PUSH2 0x11F2 JUMP JUMPDEST SWAP2 POP POP PUSH2 0x850 JUMP JUMPDEST POP PUSH1 0x0 SWAP1 POP JUMPDEST SWAP2 SWAP1 POP JUMP JUMPDEST PUSH2 0x92B PUSH2 0xAB0 JUMP JUMPDEST PUSH1 0x0 JUMPDEST DUP3 PUSH1 0x60 ADD MLOAD MLOAD DUP2 LT ISZERO PUSH2 0x9E9 JUMPI DUP3 PUSH1 0x60 ADD MLOAD DUP2 DUP2 MLOAD DUP2 LT PUSH2 0x978 JUMPI PUSH32 0x4E487B7100000000000000000000000000000000000000000000000000000000 PUSH1 0x0 MSTORE PUSH1 0x32 PUSH1 0x4 MSTORE PUSH1 0x24 PUSH1 0x0 REVERT JUMPDEST PUSH1 0x20 MUL PUSH1 0x20 ADD ADD MLOAD PUSH1 0x20 ADD MLOAD ISZERO PUSH2 0x9D6 JUMPI DUP3 PUSH1 0x60 ADD MLOAD DUP2 DUP2 MLOAD DUP2 LT PUSH2 0x9C6 JUMPI PUSH32 0x4E487B7100000000000000000000000000000000000000000000000000000000 PUSH1 0x0 MSTORE PUSH1 0x32 PUSH1 0x4 MSTORE PUSH1 0x24 PUSH1 0x0 REVERT JUMPDEST PUSH1 0x20 MUL PUSH1 0x20 ADD ADD MLOAD SWAP2 POP POP PUSH2 0xA25 JUMP JUMPDEST DUP1 DUP1 PUSH2 0x9E1 SWAP1 PUSH2 0x11F2 JUMP JUMPDEST SWAP2 POP POP PUSH2 0x92E JUMP JUMPDEST POP PUSH1 0x40 MLOAD PUSH32 0x8C379A000000000000000000000000000000000000000000000000000000000 DUP2 MSTORE PUSH1 0x4 ADD PUSH2 0xA1C SWAP1 PUSH2 0xFF9 JUMP JUMPDEST PUSH1 0x40 MLOAD DUP1 SWAP2 SUB SWAP1 REVERT JUMPDEST SWAP2 SWAP1 POP JUMP JUMPDEST DUP3 DUP1 SLOAD PUSH2 0xA36 SWAP1 PUSH2 0x11C0 JUMP JUMPDEST SWAP1 PUSH1 0x0 MSTORE PUSH1 0x20 PUSH1 0x0 KECCAK256 SWAP1 PUSH1 0x1F ADD PUSH1 0x20 SWAP1 DIV DUP2 ADD SWAP3 DUP3 PUSH2 0xA58 JUMPI PUSH1 0x0 DUP6 SSTORE PUSH2 0xA9F JUMP JUMPDEST DUP3 PUSH1 0x1F LT PUSH2 0xA71 JUMPI DUP1 MLOAD PUSH1 0xFF NOT AND DUP4 DUP1 ADD OR DUP6 SSTORE PUSH2 0xA9F JUMP JUMPDEST DUP3 DUP1 ADD PUSH1 0x1 ADD DUP6 SSTORE DUP3 ISZERO PUSH2 0xA9F JUMPI SWAP2 DUP3 ADD JUMPDEST DUP3 DUP2 GT ISZERO PUSH2 0xA9E JUMPI DUP3 MLOAD DUP3 SSTORE SWAP2 PUSH1 0x20 ADD SWAP2 SWAP1 PUSH1 0x1 ADD SWAP1 PUSH2 0xA83 JUMP JUMPDEST JUMPDEST POP SWAP1 POP PUSH2 0xAAC SWAP2 SWAP1 PUSH2 0xAE9 JUMP JUMPDEST POP SWAP1 JUMP JUMPDEST PUSH1 0x40 MLOAD DUP1 PUSH1 0x60 ADD PUSH1 0x40 MSTORE DUP1 PUSH1 0x0 PUSH20 0xFFFFFFFFFFFFFFFFFFFFFFFFFFFFFFFFFFFFFFFF AND DUP2 MSTORE PUSH1 0x20 ADD PUSH1 0x0 ISZERO ISZERO DUP2 MSTORE PUSH1 0x20 ADD PUSH1 0x60 DUP2 MSTORE POP SWAP1 JUMP JUMPDEST JUMPDEST DUP1 DUP3 GT ISZERO PUSH2 0xB02 JUMPI PUSH1 0x0 DUP2 PUSH1 0x0 SWAP1 SSTORE POP PUSH1 0x1 ADD PUSH2 0xAEA JUMP JUMPDEST POP SWAP1 JUMP JUMPDEST PUSH1 0x0 PUSH2 0xB19 PUSH2 0xB14 DUP5 PUSH2 0x10CA JUMP JUMPDEST PUSH2 0x1099 JUMP JUMPDEST SWAP1 POP DUP3 DUP2 MSTORE PUSH1 0x20 DUP2 ADD DUP5 DUP5 DUP5 ADD GT ISZERO PUSH2 0xB31 JUMPI PUSH1 0x0 DUP1 REVERT JUMPDEST PUSH2 0xB3C DUP5 DUP3 DUP6 PUSH2 0x117E JUMP JUMPDEST POP SWAP4 SWAP3 POP POP POP JUMP JUMPDEST PUSH1 0x0 DUP2 CALLDATALOAD SWAP1 POP PUSH2 0xB53 DUP2 PUSH2 0x12D9 JUMP JUMPDEST SWAP3 SWAP2 POP POP JUMP JUMPDEST PUSH1 0x0 DUP3 PUSH1 0x1F DUP4 ADD SLT PUSH2 0xB6A JUMPI PUSH1 0x0 DUP1 REVERT JUMPDEST DUP2 CALLDATALOAD PUSH2 0xB7A DUP5 DUP3 PUSH1 0x20 DUP7 ADD PUSH2 0xB06 JUMP JUMPDEST SWAP2 POP POP SWAP3 SWAP2 POP POP JUMP JUMPDEST PUSH1 0x0 DUP2 CALLDATALOAD SWAP1 POP PUSH2 0xB92 DUP2 PUSH2 0x12F0 JUMP JUMPDEST SWAP3 SWAP2 POP POP JUMP JUMPDEST PUSH1 0x0 PUSH1 0x20 DUP3 DUP5 SUB SLT ISZERO PUSH2 0xBAA JUMPI PUSH1 0x0 DUP1 REVERT JUMPDEST PUSH1 0x0 PUSH2 0xBB8 DUP5 DUP3 DUP6 ADD PUSH2 0xB44 JUMP JUMPDEST SWAP2 POP POP SWAP3 SWAP2 POP POP JUMP JUMPDEST PUSH1 0x0 DUP1 PUSH1 0x40 DUP4 DUP6 SUB SLT ISZERO PUSH2 0xBD4 JUMPI PUSH1 0x0 DUP1 REVERT JUMPDEST PUSH1 0x0 DUP4 ADD CALLDATALOAD PUSH8 0xFFFFFFFFFFFFFFFF DUP2 GT ISZERO PUSH2 0xBEE JUMPI PUSH1 0x0 DUP1 REVERT JUMPDEST PUSH2 0xBFA DUP6 DUP3 DUP7 ADD PUSH2 0xB59 JUMP JUMPDEST SWAP3 POP POP PUSH1 0x20 DUP4 ADD CALLDATALOAD PUSH8 0xFFFFFFFFFFFFFFFF DUP2 GT ISZERO PUSH2 0xC17 JUMPI PUSH1 0x0 DUP1 REVERT JUMPDEST PUSH2 0xC23 DUP6 DUP3 DUP7 ADD PUSH2 0xB59 JUMP JUMPDEST SWAP2 POP POP SWAP3 POP SWAP3 SWAP1 POP JUMP JUMPDEST PUSH1 0x0 PUSH1 0x20 DUP3 DUP5 SUB SLT ISZERO PUSH2 0xC3F JUMPI PUSH1 0x0 DUP1 REVERT JUMPDEST PUSH1 0x0 PUSH2 0xC4D DUP5 DUP3 DUP6 ADD PUSH2 0xB83 JUMP JUMPDEST SWAP2 POP POP SWAP3 SWAP2 POP POP JUMP JUMPDEST PUSH2 0xC5F DUP2 PUSH2 0x1136 JUMP JUMPDEST DUP3 MSTORE POP POP JUMP JUMPDEST PUSH2 0xC6E DUP2 PUSH2 0x1148 JUMP JUMPDEST DUP3 MSTORE POP POP JUMP JUMPDEST PUSH1 0x0 PUSH2 0xC7F DUP3 PUSH2 0x110F JUMP JUMPDEST PUSH2 0xC89 DUP2 DUP6 PUSH2 0x111A JUMP JUMPDEST SWAP4 POP PUSH2 0xC99 DUP2 DUP6 PUSH1 0x20 DUP7 ADD PUSH2 0x118D JUMP JUMPDEST PUSH2 0xCA2 DUP2 PUSH2 0x12C8 JUMP JUMPDEST DUP5 ADD SWAP2 POP POP SWAP3 SWAP2 POP POP JUMP JUMPDEST PUSH1 0x0 PUSH2 0xCB8 DUP3 PUSH2 0x110F JUMP JUMPDEST PUSH2 0xCC2 DUP2 DUP6 PUSH2 0x112B JUMP JUMPDEST SWAP4 POP PUSH2 0xCD2 DUP2 DUP6 PUSH1 0x20 DUP7 ADD PUSH2 0x118D JUMP JUMPDEST DUP1 DUP5 ADD SWAP2 POP POP SWAP3 SWAP2 POP POP JUMP JUMPDEST PUSH1 0x0 DUP2 SLOAD PUSH2 0xCEB DUP2 PUSH2 0x11C0 JUMP JUMPDEST PUSH2 0xCF5 DUP2 DUP7 PUSH2 0x112B JUMP JUMPDEST SWAP5 POP PUSH1 0x1 DUP3 AND PUSH1 0x0 DUP2 EQ PUSH2 0xD10 JUMPI PUSH1 0x1 DUP2 EQ PUSH2 0xD21 JUMPI PUSH2 0xD54 JUMP JUMPDEST PUSH1 0xFF NOT DUP4 AND DUP7 MSTORE DUP2 DUP7 ADD SWAP4 POP PUSH2 0xD54 JUMP JUMPDEST PUSH2 0xD2A DUP6 PUSH2 0x10FA JUMP JUMPDEST PUSH1 0x0 JUMPDEST DUP4 DUP2 LT ISZERO PUSH2 0xD4C JUMPI DUP2 SLOAD DUP2 DUP10 ADD MSTORE PUSH1 0x1 DUP3 ADD SWAP2 POP PUSH1 0x20 DUP2 ADD SWAP1 POP PUSH2 0xD2D JUMP JUMPDEST DUP4 DUP9 ADD SWAP6 POP POP POP JUMPDEST POP POP POP SWAP3 SWAP2 POP POP JUMP JUMPDEST PUSH1 0x0 PUSH2 0xD6A PUSH1 0x20 DUP4 PUSH2 0x111A JUMP JUMPDEST SWAP2 POP PUSH32 0x4E656E68756D612076657273616F2076616C69646120656E636F6E7472616461 PUSH1 0x0 DUP4 ADD MSTORE PUSH1 0x20 DUP3 ADD SWAP1 POP SWAP2 SWAP1 POP JUMP JUMPDEST PUSH1 0x0 PUSH2 0xDAA PUSH1 0x24 DUP4 PUSH2 0x111A JUMP JUMPDEST SWAP2 POP PUSH32 0x556D6120706167696E6120636F6D206573746520746974756C6F206A61206578 PUSH1 0x0 DUP4 ADD MSTORE PUSH32 0x6973746500000000000000000000000000000000000000000000000000000000 PUSH1 0x20 DUP4 ADD MSTORE PUSH1 0x40 DUP3 ADD SWAP1 POP SWAP2 SWAP1 POP JUMP JUMPDEST PUSH1 0x0 PUSH2 0xE10 PUSH1 0x16 DUP4 PUSH2 0x111A JUMP JUMPDEST SWAP2 POP PUSH32 0x496E6469636520666F726120646F20616C63616E636500000000000000000000 PUSH1 0x0 DUP4 ADD MSTORE PUSH1 0x20 DUP3 ADD SWAP1 POP SWAP2 SWAP1 POP JUMP JUMPDEST PUSH1 0x0 PUSH2 0xE50 PUSH1 0x3D DUP4 PUSH2 0x111A JUMP JUMPDEST SWAP2 POP PUSH32 0x536F6D656E7465206F20646F6E6F20646573746120426C6F636B706564696120 PUSH1 0x0 DUP4 ADD MSTORE PUSH32 0x706F646520616C7465726172206F20617472696275746F20617469766F000000 PUSH1 0x20 DUP4 ADD MSTORE PUSH1 0x40 DUP3 ADD SWAP1 POP SWAP2 SWAP1 POP JUMP JUMPDEST PUSH1 0x0 PUSH2 0xEB6 PUSH1 0x47 DUP4 PUSH2 0x111A JUMP JUMPDEST SWAP2 POP PUSH32 0x412061646963616F206465206E6F76617320706167696E617320736F20652070 PUSH1 0x0 DUP4 ADD MSTORE PUSH32 0x65726D6974696461207175616E646F206120426C6F636B706564696120657374 PUSH1 0x20 DUP4 ADD MSTORE PUSH32 0x6120617469766100000000000000000000000000000000000000000000000000 PUSH1 0x40 DUP4 ADD MSTORE PUSH1 0x60 DUP3 ADD SWAP1 POP SWAP2 SWAP1 POP JUMP JUMPDEST PUSH1 0x0 PUSH2 0xF41 DUP3 DUP5 PUSH2 0xCAD JUMP JUMPDEST SWAP2 POP DUP2 SWAP1 POP SWAP3 SWAP2 POP POP JUMP JUMPDEST PUSH1 0x0 PUSH2 0xF58 DUP3 DUP5 PUSH2 0xCDE JUMP JUMPDEST SWAP2 POP DUP2 SWAP1 POP SWAP3 SWAP2 POP POP JUMP JUMPDEST PUSH1 0x0 PUSH1 0x20 DUP3 ADD SWAP1 POP PUSH2 0xF78 PUSH1 0x0 DUP4 ADD DUP5 PUSH2 0xC56 JUMP JUMPDEST SWAP3 SWAP2 POP POP JUMP JUMPDEST PUSH1 0x0 PUSH1 0x60 DUP3 ADD SWAP1 POP PUSH2 0xF93 PUSH1 0x0 DUP4 ADD DUP7 PUSH2 0xC56 JUMP JUMPDEST PUSH2 0xFA0 PUSH1 0x20 DUP4 ADD DUP6 PUSH2 0xC65 JUMP JUMPDEST DUP2 DUP2 SUB PUSH1 0x40 DUP4 ADD MSTORE PUSH2 0xFB2 DUP2 DUP5 PUSH2 0xC74 JUMP JUMPDEST SWAP1 POP SWAP5 SWAP4 POP POP POP POP JUMP JUMPDEST PUSH1 0x0 PUSH1 0x20 DUP3 ADD SWAP1 POP PUSH2 0xFD1 PUSH1 0x0 DUP4 ADD DUP5 PUSH2 0xC65 JUMP JUMPDEST SWAP3 SWAP2 POP POP JUMP JUMPDEST PUSH1 0x0 PUSH1 0x20 DUP3 ADD SWAP1 POP DUP2 DUP2 SUB PUSH1 0x0 DUP4 ADD MSTORE PUSH2 0xFF1 DUP2 DUP5 PUSH2 0xC74 JUMP JUMPDEST SWAP1 POP SWAP3 SWAP2 POP POP JUMP JUMPDEST PUSH1 0x0 PUSH1 0x20 DUP3 ADD SWAP1 POP DUP2 DUP2 SUB PUSH1 0x0 DUP4 ADD MSTORE PUSH2 0x1012 DUP2 PUSH2 0xD5D JUMP JUMPDEST SWAP1 POP SWAP2 SWAP1 POP JUMP JUMPDEST PUSH1 0x0 PUSH1 0x20 DUP3 ADD SWAP1 POP DUP2 DUP2 SUB PUSH1 0x0 DUP4 ADD MSTORE PUSH2 0x1032 DUP2 PUSH2 0xD9D JUMP JUMPDEST SWAP1 POP SWAP2 SWAP1 POP JUMP JUMPDEST PUSH1 0x0 PUSH1 0x20 DUP3 ADD SWAP1 POP DUP2 DUP2 SUB PUSH1 0x0 DUP4 ADD MSTORE PUSH2 0x1052 DUP2 PUSH2 0xE03 JUMP JUMPDEST SWAP1 POP SWAP2 SWAP1 POP JUMP JUMPDEST PUSH1 0x0 PUSH1 0x20 DUP3 ADD SWAP1 POP DUP2 DUP2 SUB PUSH1 0x0 DUP4 ADD MSTORE PUSH2 0x1072 DUP2 PUSH2 0xE43 JUMP JUMPDEST SWAP1 POP SWAP2 SWAP1 POP JUMP JUMPDEST PUSH1 0x0 PUSH1 0x20 DUP3 ADD SWAP1 POP DUP2 DUP2 SUB PUSH1 0x0 DUP4 ADD MSTORE PUSH2 0x1092 DUP2 PUSH2 0xEA9 JUMP JUMPDEST SWAP1 POP SWAP2 SWAP1 POP JUMP JUMPDEST PUSH1 0x0 PUSH1 0x40 MLOAD SWAP1 POP DUP2 DUP2 ADD DUP2 DUP2 LT PUSH8 0xFFFFFFFFFFFFFFFF DUP3 GT OR ISZERO PUSH2 0x10C0 JUMPI PUSH2 0x10BF PUSH2 0x1299 JUMP JUMPDEST JUMPDEST DUP1 PUSH1 0x40 MSTORE POP SWAP2 SWAP1 POP JUMP JUMPDEST PUSH1 0x0 PUSH8 0xFFFFFFFFFFFFFFFF DUP3 GT ISZERO PUSH2 0x10E5 JUMPI PUSH2 0x10E4 PUSH2 0x1299 JUMP JUMPDEST JUMPDEST PUSH1 0x1F NOT PUSH1 0x1F DUP4 ADD AND SWAP1 POP PUSH1 0x20 DUP2 ADD SWAP1 POP SWAP2 SWAP1 POP JUMP JUMPDEST PUSH1 0x0 DUP2 SWAP1 POP DUP2 PUSH1 0x0 MSTORE PUSH1 0x20 PUSH1 0x0 KECCAK256 SWAP1 POP SWAP2 SWAP1 POP JUMP JUMPDEST PUSH1 0x0 DUP2 MLOAD SWAP1 POP SWAP2 SWAP1 POP JUMP JUMPDEST PUSH1 0x0 DUP3 DUP3 MSTORE PUSH1 0x20 DUP3 ADD SWAP1 POP SWAP3 SWAP2 POP POP JUMP JUMPDEST PUSH1 0x0 DUP2 SWAP1 POP SWAP3 SWAP2 POP POP JUMP JUMPDEST PUSH1 0x0 PUSH2 0x1141 DUP3 PUSH2 0x1154 JUMP JUMPDEST SWAP1 POP SWAP2 SWAP1 POP JUMP JUMPDEST PUSH1 0x0 DUP2 ISZERO ISZERO SWAP1 POP SWAP2 SWAP1 POP JUMP JUMPDEST PUSH1 0x0 PUSH20 0xFFFFFFFFFFFFFFFFFFFFFFFFFFFFFFFFFFFFFFFF DUP3 AND SWAP1 POP SWAP2 SWAP1 POP JUMP JUMPDEST PUSH1 0x0 DUP2 SWAP1 POP SWAP2 SWAP1 POP JUMP JUMPDEST DUP3 DUP2 DUP4 CALLDATACOPY PUSH1 0x0 DUP4 DUP4 ADD MSTORE POP POP POP JUMP JUMPDEST PUSH1 0x0 JUMPDEST DUP4 DUP2 LT ISZERO PUSH2 0x11AB JUMPI DUP1 DUP3 ADD MLOAD DUP2 DUP5 ADD MSTORE PUSH1 0x20 DUP2 ADD SWAP1 POP PUSH2 0x1190 JUMP JUMPDEST DUP4 DUP2 GT ISZERO PUSH2 0x11BA JUMPI PUSH1 0x0 DUP5 DUP5 ADD MSTORE JUMPDEST POP POP POP POP JUMP JUMPDEST PUSH1 0x0 PUSH1 0x2 DUP3 DIV SWAP1 POP PUSH1 0x1 DUP3 AND DUP1 PUSH2 0x11D8 JUMPI PUSH1 0x7F DUP3 AND SWAP2 POP JUMPDEST PUSH1 0x20 DUP3 LT DUP2 EQ ISZERO PUSH2 0x11EC JUMPI PUSH2 0x11EB PUSH2 0x126A JUMP JUMPDEST JUMPDEST POP SWAP2 SWAP1 POP JUMP JUMPDEST PUSH1 0x0 PUSH2 0x11FD DUP3 PUSH2 0x1174 JUMP JUMPDEST SWAP2 POP PUSH32 0xFFFFFFFFFFFFFFFFFFFFFFFFFFFFFFFFFFFFFFFFFFFFFFFFFFFFFFFFFFFFFFFF DUP3 EQ ISZERO PUSH2 0x1230 JUMPI PUSH2 0x122F PUSH2 0x123B JUMP JUMPDEST JUMPDEST PUSH1 0x1 DUP3 ADD SWAP1 POP SWAP2 SWAP1 POP JUMP JUMPDEST PUSH32 0x4E487B7100000000000000000000000000000000000000000000000000000000 PUSH1 0x0 MSTORE PUSH1 0x11 PUSH1 0x4 MSTORE PUSH1 0x24 PUSH1 0x0 REVERT JUMPDEST PUSH32 0x4E487B7100000000000000000000000000000000000000000000000000000000 PUSH1 0x0 MSTORE PUSH1 0x22 PUSH1 0x4 MSTORE PUSH1 0x24 PUSH1 0x0 REVERT JUMPDEST PUSH32 0x4E487B7100000000000000000000000000000000000000000000000000000000 PUSH1 0x0 MSTORE PUSH1 0x41 PUSH1 0x4 MSTORE PUSH1 0x24 PUSH1 0x0 REVERT JUMPDEST PUSH1 0x0 PUSH1 0x1F NOT PUSH1 0x1F DUP4 ADD AND SWAP1 POP SWAP2 SWAP1 POP JUMP JUMPDEST PUSH2 0x12E2 DUP2 PUSH2 0x1148 JUMP JUMPDEST DUP2 EQ PUSH2 0x12ED JUMPI PUSH1 0x0 DUP1 REVERT JUMPDEST POP JUMP JUMPDEST PUSH2 0x12F9 DUP2 PUSH2 0x1174 JUMP JUMPDEST DUP2 EQ PUSH2 0x1304 JUMPI PUSH1 0x0 DUP1 REVERT JUMPDEST POP JUMP INVALID LOG2 PUSH5 0x6970667358 0x22 SLT KECCAK256 CALLCODE 0xC CODECOPY CALLDATALOAD ISZERO PUSH25 0x63957365FC08AB4803C96E5AFC7043296B37D25382C25EBB69 DUP2 PUSH5 0x736F6C6343 STOP ADDMOD STOP STOP CALLER "
				},
				"gasEstimates": {
					"creation": {
						"codeDepositCost": "985000",
						"executionCost": "42804",
						"totalCost": "1027804"
					},
					"external": {
						"ativaDesativaBlockpedia(bool)": "22199",
						"ativo()": "1234",
						"autor()": "1242",
						"criarPagina(string,string)": "infinite",
						"getVersaoValidaPorIndexPaginas(uint256)": "infinite",
						"paginas(uint256)": "infinite"
					},
					"internal": {
						"getVersaoValidaDeUmaPagina(struct Pagina memory)": "infinite",
						"tituloExiste(string memory)": "infinite"
					}
				},
				"methodIdentifiers": {
					"ativaDesativaBlockpedia(bool)": "1509d30c",
					"ativo()": "a18cc13b",
					"autor()": "0694952d",
					"criarPagina(string,string)": "1c18379a",
					"getVersaoValidaPorIndexPaginas(uint256)": "57ae2a89",
					"paginas(uint256)": "e7d4296a"
				}
			},
			"storageLayout": {
				"storage": [
					{
						"astId": 5,
						"contract": "blockpedia.sol:Blockpedia",
						"label": "ativo",
						"offset": 0,
						"slot": "0",
						"type": "t_bool"
					},
					{
						"astId": 7,
						"contract": "blockpedia.sol:Blockpedia",
						"label": "autor",
						"offset": 1,
						"slot": "0",
						"type": "t_address"
					},
					{
						"astId": 11,
						"contract": "blockpedia.sol:Blockpedia",
						"label": "paginas",
						"offset": 0,
						"slot": "1",
						"type": "t_array(t_struct(Pagina)219_storage)dyn_storage"
					}
				],
				"types": {
					"t_address": {
						"encoding": "inplace",
						"label": "address",
						"numberOfBytes": "20"
					},
					"t_array(t_struct(Pagina)219_storage)dyn_storage": {
						"base": "t_struct(Pagina)219_storage",
						"encoding": "dynamic_array",
						"label": "struct Pagina[]",
						"numberOfBytes": "32"
					},
					"t_array(t_struct(Versao)228_storage)dyn_storage": {
						"base": "t_struct(Versao)228_storage",
						"encoding": "dynamic_array",
						"label": "struct Versao[]",
						"numberOfBytes": "32"
					},
					"t_bool": {
						"encoding": "inplace",
						"label": "bool",
						"numberOfBytes": "1"
					},
					"t_string_storage": {
						"encoding": "bytes",
						"label": "string",
						"numberOfBytes": "32"
					},
					"t_struct(Pagina)219_storage": {
						"encoding": "inplace",
						"label": "struct Pagina",
						"members": [
							{
								"astId": 210,
								"contract": "blockpedia.sol:Blockpedia",
								"label": "autor",
								"offset": 0,
								"slot": "0",
								"type": "t_address"
							},
							{
								"astId": 212,
								"contract": "blockpedia.sol:Blockpedia",
								"label": "ativo",
								"offset": 20,
								"slot": "0",
								"type": "t_bool"
							},
							{
								"astId": 214,
								"contract": "blockpedia.sol:Blockpedia",
								"label": "titulo",
								"offset": 0,
								"slot": "1",
								"type": "t_string_storage"
							},
							{
								"astId": 218,
								"contract": "blockpedia.sol:Blockpedia",
								"label": "versoes",
								"offset": 0,
								"slot": "2",
								"type": "t_array(t_struct(Versao)228_storage)dyn_storage"
							}
						],
						"numberOfBytes": "96"
					},
					"t_struct(Versao)228_storage": {
						"encoding": "inplace",
						"label": "struct Versao",
						"members": [
							{
								"astId": 223,
								"contract": "blockpedia.sol:Blockpedia",
								"label": "autor",
								"offset": 0,
								"slot": "0",
								"type": "t_address"
							},
							{
								"astId": 225,
								"contract": "blockpedia.sol:Blockpedia",
								"label": "ativo",
								"offset": 20,
								"slot": "0",
								"type": "t_bool"
							},
							{
								"astId": 227,
								"contract": "blockpedia.sol:Blockpedia",
								"label": "conteudo",
								"offset": 0,
								"slot": "1",
								"type": "t_string_storage"
							}
						],
						"numberOfBytes": "64"
					}
				}
			},
			"userdoc": {
				"kind": "user",
				"methods": {},
				"version": 1
			}
		}
	}
}