{
	"blockpedia.sol": {
		"Blockpedia": {
			"abi": [
				{
					"inputs": [],
					"stateMutability": "nonpayable",
					"type": "constructor"
				},
				{
					"inputs": [
						{
							"internalType": "uint256",
							"name": "index",
							"type": "uint256"
						},
						{
							"internalType": "string",
							"name": "conteudo",
							"type": "string"
						}
					],
					"name": "adicionaNovaVercaoDesativadaAPaginaPorIndexPaginas",
					"outputs": [],
					"stateMutability": "nonpayable",
					"type": "function"
				},
				{
					"inputs": [
						{
							"internalType": "bool",
							"name": "_ativo",
							"type": "bool"
						}
					],
					"name": "ativaDesativaBlockpedia",
					"outputs": [],
					"stateMutability": "nonpayable",
					"type": "function"
				},
				{
					"inputs": [
						{
							"internalType": "uint256",
							"name": "indexPagina",
							"type": "uint256"
						}
					],
					"name": "ativaPaginaPorIndexPaginas",
					"outputs": [],
					"stateMutability": "nonpayable",
					"type": "function"
				},
				{
					"inputs": [
						{
							"internalType": "uint256",
							"name": "indexPagina",
							"type": "uint256"
						},
						{
							"internalType": "uint256",
							"name": "indexVersoes",
							"type": "uint256"
						}
					],
					"name": "ativaVersaoPorIndexVersoesEIndexPaginas",
					"outputs": [],
					"stateMutability": "nonpayable",
					"type": "function"
				},
				{
					"inputs": [],
					"name": "ativo",
					"outputs": [
						{
							"internalType": "bool",
							"name": "",
							"type": "bool"
						}
					],
					"stateMutability": "view",
					"type": "function"
				},
				{
					"inputs": [],
					"name": "autor",
					"outputs": [
						{
							"internalType": "address",
							"name": "",
							"type": "address"
						}
					],
					"stateMutability": "view",
					"type": "function"
				},
				{
					"inputs": [
						{
							"internalType": "string",
							"name": "titulo",
							"type": "string"
						},
						{
							"internalType": "string",
							"name": "conteudo",
							"type": "string"
						}
					],
					"name": "criarPagina",
					"outputs": [],
					"stateMutability": "nonpayable",
					"type": "function"
				},
				{
					"inputs": [],
					"name": "dataCriacao",
					"outputs": [
						{
							"internalType": "uint256",
							"name": "",
							"type": "uint256"
						}
					],
					"stateMutability": "view",
					"type": "function"
				},
				{
					"inputs": [
						{
							"internalType": "uint256",
							"name": "indexPagina",
							"type": "uint256"
						}
					],
					"name": "desativaPaginaPorIndexPaginas",
					"outputs": [],
					"stateMutability": "nonpayable",
					"type": "function"
				},
				{
					"inputs": [
						{
							"internalType": "uint256",
							"name": "indice",
							"type": "uint256"
						}
					],
					"name": "getConteudoVersaoValidaPorIndexPaginas",
					"outputs": [
						{
							"internalType": "string",
							"name": "",
							"type": "string"
						}
					],
					"stateMutability": "view",
					"type": "function"
				},
				{
					"inputs": [
						{
							"internalType": "string",
							"name": "titulo",
							"type": "string"
						}
					],
					"name": "getPaginasPorTitulo",
					"outputs": [
						{
							"internalType": "uint256[]",
							"name": "",
							"type": "uint256[]"
						}
					],
					"stateMutability": "view",
					"type": "function"
				},
				{
					"inputs": [
						{
							"internalType": "uint256",
							"name": "",
							"type": "uint256"
						}
					],
					"name": "paginas",
					"outputs": [
						{
							"internalType": "bool",
							"name": "ativo",
							"type": "bool"
						},
						{
							"internalType": "address",
							"name": "autor",
							"type": "address"
						},
						{
							"internalType": "uint256",
							"name": "dataCriacao",
							"type": "uint256"
						},
						{
							"internalType": "string",
							"name": "titulo",
							"type": "string"
						}
					],
					"stateMutability": "view",
					"type": "function"
				}
			],
			"devdoc": {
				"kind": "dev",
				"methods": {},
				"version": 1
			},
			"evm": {
				"assembly": "    /* \"blockpedia.sol\":61:5971  contract Blockpedia\r... */\n  mstore(0x40, 0x80)\n    /* \"blockpedia.sol\":109:113  true */\n  0x01\n    /* \"blockpedia.sol\":89:113  bool public ativo = true */\n  0x00\n  dup1\n  0x0100\n  exp\n  dup2\n  sload\n  dup2\n  0xff\n  mul\n  not\n  and\n  swap1\n  dup4\n  iszero\n  iszero\n  mul\n  or\n  swap1\n  sstore\n  pop\n    /* \"blockpedia.sol\":178:193  block.timestamp */\n  timestamp\n    /* \"blockpedia.sol\":149:193  uint256 public dataCriacao = block.timestamp */\n  0x01\n  sstore\n    /* \"blockpedia.sol\":531:675  constructor()\r... */\n  callvalue\n  dup1\n  iszero\n  tag_1\n  jumpi\n  0x00\n  dup1\n  revert\ntag_1:\n  pop\n    /* \"blockpedia.sol\":569:579  msg.sender */\n  caller\n    /* \"blockpedia.sol\":561:566  autor */\n  0x00\n  0x01\n    /* \"blockpedia.sol\":561:579  autor = msg.sender */\n  0x0100\n  exp\n  dup2\n  sload\n  dup2\n  0xffffffffffffffffffffffffffffffffffffffff\n  mul\n  not\n  and\n  swap1\n  dup4\n  0xffffffffffffffffffffffffffffffffffffffff\n  and\n  mul\n  or\n  swap1\n  sstore\n  pop\n    /* \"blockpedia.sol\":590:667  criarPagina(\"Inicio\", \"Bem vindo a Blockpeida, a enciclopedia na blockchain\") */\n  tag_4\n  mload(0x40)\n  dup1\n  0x40\n  add\n  0x40\n  mstore\n  dup1\n  0x06\n  dup2\n  mstore\n  0x20\n  add\n  0x496e6963696f0000000000000000000000000000000000000000000000000000\n  dup2\n  mstore\n  pop\n  mload(0x40)\n  dup1\n  0x60\n  add\n  0x40\n  mstore\n  dup1\n  0x34\n  dup2\n  mstore\n  0x20\n  add\n  data_9002fc6039152390109ec5f732c53c58176ebaeec30c137dc0bb00ed96b81159\n  0x34\n  swap2\n  codecopy\n    /* \"blockpedia.sol\":590:601  criarPagina */\n  shl(0x20, tag_5)\n    /* \"blockpedia.sol\":590:667  criarPagina(\"Inicio\", \"Bem vindo a Blockpeida, a enciclopedia na blockchain\") */\n  0x20\n  shr\n  jump\t// in\ntag_4:\n    /* \"blockpedia.sol\":61:5971  contract Blockpedia\r... */\n  jump(tag_6)\n    /* \"blockpedia.sol\":683:1262  function criarPagina(string memory titulo, string memory conteudo) public\r... */\ntag_5:\n    /* \"blockpedia.sol\":781:786  ativo */\n  0x00\n  dup1\n  sload\n  swap1\n  0x0100\n  exp\n  swap1\n  div\n  0xff\n  and\n    /* \"blockpedia.sol\":773:862  require(ativo, \"A adicao de novas paginas so e permitida quando a Blockpedia esta ativa\") */\n  tag_8\n  jumpi\n  mload(0x40)\n  0x08c379a000000000000000000000000000000000000000000000000000000000\n  dup2\n  mstore\n  0x04\n  add\n  tag_9\n  swap1\n  tag_10\n  jump\t// in\ntag_9:\n  mload(0x40)\n  dup1\n  swap2\n  sub\n  swap1\n  revert\ntag_8:\n    /* \"blockpedia.sol\":882:907  existeTituloAtivo(titulo) */\n  tag_11\n    /* \"blockpedia.sol\":900:906  titulo */\n  dup3\n    /* \"blockpedia.sol\":882:899  existeTituloAtivo */\n  shl(0x20, tag_12)\n    /* \"blockpedia.sol\":882:907  existeTituloAtivo(titulo) */\n  0x20\n  shr\n  jump\t// in\ntag_11:\n    /* \"blockpedia.sol\":881:907  !existeTituloAtivo(titulo) */\n  iszero\n    /* \"blockpedia.sol\":873:950  require(!existeTituloAtivo(titulo), \"Ja existe pagina ativa com este titulo\") */\n  tag_13\n  jumpi\n  mload(0x40)\n  0x08c379a000000000000000000000000000000000000000000000000000000000\n  dup2\n  mstore\n  0x04\n  add\n  tag_14\n  swap1\n  tag_15\n  jump\t// in\ntag_14:\n  mload(0x40)\n  dup1\n  swap2\n  sub\n  swap1\n  revert\ntag_13:\n    /* \"blockpedia.sol\":963:988  Pagina storage novaPagina */\n  0x00\n    /* \"blockpedia.sol\":991:998  paginas */\n  0x02\n    /* \"blockpedia.sol\":991:1005  paginas.push() */\n  0x01\n  dup2\n  0x01\n  dup2\n  sload\n  add\n  dup1\n  dup3\n  sstore\n  dup1\n  swap2\n  pop\n  pop\n  sub\n  swap1\n  0x00\n  mstore\n  keccak256(0x00, 0x20)\n  swap1\n  0x04\n  mul\n  add\n    /* \"blockpedia.sol\":963:1005  Pagina storage novaPagina = paginas.push() */\n  swap1\n  pop\n    /* \"blockpedia.sol\":1035:1039  true */\n  0x01\n    /* \"blockpedia.sol\":1016:1026  novaPagina */\n  dup2\n    /* \"blockpedia.sol\":1016:1032  novaPagina.ativo */\n  0x00\n  add\n  0x00\n    /* \"blockpedia.sol\":1016:1039  novaPagina.ativo = true */\n  0x0100\n  exp\n  dup2\n  sload\n  dup2\n  0xff\n  mul\n  not\n  and\n  swap1\n  dup4\n  iszero\n  iszero\n  mul\n  or\n  swap1\n  sstore\n  pop\n    /* \"blockpedia.sol\":1069:1079  msg.sender */\n  caller\n    /* \"blockpedia.sol\":1050:1060  novaPagina */\n  dup2\n    /* \"blockpedia.sol\":1050:1066  novaPagina.autor */\n  0x00\n  add\n  0x01\n    /* \"blockpedia.sol\":1050:1079  novaPagina.autor = msg.sender */\n  0x0100\n  exp\n  dup2\n  sload\n  dup2\n  0xffffffffffffffffffffffffffffffffffffffff\n  mul\n  not\n  and\n  swap1\n  dup4\n  0xffffffffffffffffffffffffffffffffffffffff\n  and\n  mul\n  or\n  swap1\n  sstore\n  pop\n    /* \"blockpedia.sol\":1115:1130  block.timestamp */\n  timestamp\n    /* \"blockpedia.sol\":1090:1100  novaPagina */\n  dup2\n    /* \"blockpedia.sol\":1090:1112  novaPagina.dataCriacao */\n  0x01\n  add\n    /* \"blockpedia.sol\":1090:1130  novaPagina.dataCriacao = block.timestamp */\n  dup2\n  swap1\n  sstore\n  pop\n    /* \"blockpedia.sol\":1161:1167  titulo */\n  dup3\n    /* \"blockpedia.sol\":1141:1151  novaPagina */\n  dup2\n    /* \"blockpedia.sol\":1141:1158  novaPagina.titulo */\n  0x02\n  add\n    /* \"blockpedia.sol\":1141:1167  novaPagina.titulo = titulo */\n  swap1\n  dup1\n  mload\n  swap1\n  0x20\n  add\n  swap1\n  tag_17\n  swap3\n  swap2\n  swap1\n  tag_18\n  jump\t// in\ntag_17:\n  pop\n    /* \"blockpedia.sol\":1178:1188  novaPagina */\n  dup1\n    /* \"blockpedia.sol\":1178:1196  novaPagina.versoes */\n  0x03\n  add\n    /* \"blockpedia.sol\":1202:1253  Versao(true, msg.sender, block.timestamp, conteudo) */\n  mload(0x40)\n  dup1\n  0x80\n  add\n  0x40\n  mstore\n  dup1\n    /* \"blockpedia.sol\":1209:1213  true */\n  0x01\n    /* \"blockpedia.sol\":1202:1253  Versao(true, msg.sender, block.timestamp, conteudo) */\n  iszero\n  iszero\n  dup2\n  mstore\n  0x20\n  add\n    /* \"blockpedia.sol\":1215:1225  msg.sender */\n  caller\n    /* \"blockpedia.sol\":1202:1253  Versao(true, msg.sender, block.timestamp, conteudo) */\n  0xffffffffffffffffffffffffffffffffffffffff\n  and\n  dup2\n  mstore\n  0x20\n  add\n    /* \"blockpedia.sol\":1227:1242  block.timestamp */\n  timestamp\n    /* \"blockpedia.sol\":1202:1253  Versao(true, msg.sender, block.timestamp, conteudo) */\n  dup2\n  mstore\n  0x20\n  add\n    /* \"blockpedia.sol\":1244:1252  conteudo */\n  dup5\n    /* \"blockpedia.sol\":1202:1253  Versao(true, msg.sender, block.timestamp, conteudo) */\n  dup2\n  mstore\n  pop\n    /* \"blockpedia.sol\":1178:1254  novaPagina.versoes.push(Versao(true, msg.sender, block.timestamp, conteudo)) */\n  swap1\n  dup1\n  0x01\n  dup2\n  sload\n  add\n  dup1\n  dup3\n  sstore\n  dup1\n  swap2\n  pop\n  pop\n  0x01\n  swap1\n  sub\n  swap1\n  0x00\n  mstore\n  keccak256(0x00, 0x20)\n  swap1\n  0x03\n  mul\n  add\n  0x00\n  swap1\n  swap2\n  swap1\n  swap2\n  swap1\n  swap2\n  pop\n  0x00\n  dup3\n  add\n  mload\n  dup2\n  0x00\n  add\n  exp(0x0100, 0x00)\n  dup2\n  sload\n  dup2\n  0xff\n  mul\n  not\n  and\n  swap1\n  dup4\n  iszero\n  iszero\n  mul\n  or\n  swap1\n  sstore\n  pop\n  0x20\n  dup3\n  add\n  mload\n  dup2\n  0x00\n  add\n  exp(0x0100, 0x01)\n  dup2\n  sload\n  dup2\n  0xffffffffffffffffffffffffffffffffffffffff\n  mul\n  not\n  and\n  swap1\n  dup4\n  0xffffffffffffffffffffffffffffffffffffffff\n  and\n  mul\n  or\n  swap1\n  sstore\n  pop\n  0x40\n  dup3\n  add\n  mload\n  dup2\n  0x01\n  add\n  sstore\n  0x60\n  dup3\n  add\n  mload\n  dup2\n  0x02\n  add\n  swap1\n  dup1\n  mload\n  swap1\n  0x20\n  add\n  swap1\n  tag_20\n  swap3\n  swap2\n  swap1\n  tag_18\n  jump\t// in\ntag_20:\n  pop\n  pop\n  pop\n    /* \"blockpedia.sol\":683:1262  function criarPagina(string memory titulo, string memory conteudo) public\r... */\n  pop\n  pop\n  pop\n  jump\t// out\n    /* \"blockpedia.sol\":1472:1769  function existeTituloAtivo(string memory titulo) internal view returns (bool)\r... */\ntag_12:\n    /* \"blockpedia.sol\":1544:1548  bool */\n  0x00\n    /* \"blockpedia.sol\":1571:1577  uint i */\n  dup1\n    /* \"blockpedia.sol\":1580:1581  0 */\n  0x00\n    /* \"blockpedia.sol\":1571:1581  uint i = 0 */\n  swap1\n  pop\n    /* \"blockpedia.sol\":1566:1739  for (uint i = 0; i < paginas.length; i++)\r... */\ntag_22:\n    /* \"blockpedia.sol\":1587:1594  paginas */\n  0x02\n    /* \"blockpedia.sol\":1587:1601  paginas.length */\n  dup1\n  sload\n  swap1\n  pop\n    /* \"blockpedia.sol\":1583:1584  i */\n  dup2\n    /* \"blockpedia.sol\":1583:1601  i < paginas.length */\n  lt\n    /* \"blockpedia.sol\":1566:1739  for (uint i = 0; i < paginas.length; i++)\r... */\n  iszero\n  tag_23\n  jumpi\n    /* \"blockpedia.sol\":1636:1643  paginas */\n  0x02\n    /* \"blockpedia.sol\":1644:1645  i */\n  dup2\n    /* \"blockpedia.sol\":1636:1646  paginas[i] */\n  dup2\n  sload\n  dup2\n  lt\n  tag_25\n  jumpi\n  mstore(0x00, 0x4e487b7100000000000000000000000000000000000000000000000000000000)\n  mstore(0x04, 0x32)\n  revert(0x00, 0x24)\ntag_25:\n  swap1\n  0x00\n  mstore\n  keccak256(0x00, 0x20)\n  swap1\n  0x04\n  mul\n  add\n    /* \"blockpedia.sol\":1636:1652  paginas[i].ativo */\n  0x00\n  add\n  0x00\n  swap1\n  sload\n  swap1\n  0x0100\n  exp\n  swap1\n  div\n  0xff\n  and\n    /* \"blockpedia.sol\":1632:1727  if (paginas[i].ativo)\r... */\n  iszero\n  tag_27\n  jumpi\n    /* \"blockpedia.sol\":1675:1715  comparaString(paginas[i].titulo, titulo) */\n  tag_28\n    /* \"blockpedia.sol\":1689:1696  paginas */\n  0x02\n    /* \"blockpedia.sol\":1697:1698  i */\n  dup3\n    /* \"blockpedia.sol\":1689:1699  paginas[i] */\n  dup2\n  sload\n  dup2\n  lt\n  tag_29\n  jumpi\n  mstore(0x00, 0x4e487b7100000000000000000000000000000000000000000000000000000000)\n  mstore(0x04, 0x32)\n  revert(0x00, 0x24)\ntag_29:\n  swap1\n  0x00\n  mstore\n  keccak256(0x00, 0x20)\n  swap1\n  0x04\n  mul\n  add\n    /* \"blockpedia.sol\":1689:1706  paginas[i].titulo */\n  0x02\n  add\n    /* \"blockpedia.sol\":1675:1715  comparaString(paginas[i].titulo, titulo) */\n  dup1\n  sload\n  tag_31\n  swap1\n  tag_32\n  jump\t// in\ntag_31:\n  dup1\n  0x1f\n  add\n  0x20\n  dup1\n  swap2\n  div\n  mul\n  0x20\n  add\n  mload(0x40)\n  swap1\n  dup2\n  add\n  0x40\n  mstore\n  dup1\n  swap3\n  swap2\n  swap1\n  dup2\n  dup2\n  mstore\n  0x20\n  add\n  dup3\n  dup1\n  sload\n  tag_33\n  swap1\n  tag_32\n  jump\t// in\ntag_33:\n  dup1\n  iszero\n  tag_34\n  jumpi\n  dup1\n  0x1f\n  lt\n  tag_35\n  jumpi\n  0x0100\n  dup1\n  dup4\n  sload\n  div\n  mul\n  dup4\n  mstore\n  swap2\n  0x20\n  add\n  swap2\n  jump(tag_34)\ntag_35:\n  dup3\n  add\n  swap2\n  swap1\n  0x00\n  mstore\n  keccak256(0x00, 0x20)\n  swap1\ntag_36:\n  dup2\n  sload\n  dup2\n  mstore\n  swap1\n  0x01\n  add\n  swap1\n  0x20\n  add\n  dup1\n  dup4\n  gt\n  tag_36\n  jumpi\n  dup3\n  swap1\n  sub\n  0x1f\n  and\n  dup3\n  add\n  swap2\ntag_34:\n  pop\n  pop\n  pop\n  pop\n  pop\n    /* \"blockpedia.sol\":1708:1714  titulo */\n  dup5\n    /* \"blockpedia.sol\":1675:1688  comparaString */\n  shl(0x20, tag_37)\n    /* \"blockpedia.sol\":1675:1715  comparaString(paginas[i].titulo, titulo) */\n  0x20\n  shr\n  jump\t// in\ntag_28:\n    /* \"blockpedia.sol\":1671:1727  if (comparaString(paginas[i].titulo, titulo))return true */\n  iszero\n  tag_38\n  jumpi\n    /* \"blockpedia.sol\":1723:1727  true */\n  0x01\n    /* \"blockpedia.sol\":1716:1727  return true */\n  swap2\n  pop\n  pop\n  jump(tag_21)\n    /* \"blockpedia.sol\":1671:1727  if (comparaString(paginas[i].titulo, titulo))return true */\ntag_38:\n    /* \"blockpedia.sol\":1632:1727  if (paginas[i].ativo)\r... */\ntag_27:\n    /* \"blockpedia.sol\":1603:1606  i++ */\n  dup1\n  dup1\n  tag_39\n  swap1\n  tag_40\n  jump\t// in\ntag_39:\n  swap2\n  pop\n  pop\n    /* \"blockpedia.sol\":1566:1739  for (uint i = 0; i < paginas.length; i++)\r... */\n  jump(tag_22)\ntag_23:\n  pop\n    /* \"blockpedia.sol\":1756:1761  false */\n  0x00\n    /* \"blockpedia.sol\":1749:1761  return false */\n  swap1\n  pop\n    /* \"blockpedia.sol\":1472:1769  function existeTituloAtivo(string memory titulo) internal view returns (bool)\r... */\ntag_21:\n  swap2\n  swap1\n  pop\n  jump\t// out\n    /* \"blockpedia.sol\":5498:5966  function comparaString(string memory primeiraString, string memory segundaString)internal pure returns(bool)\r... */\ntag_37:\n    /* \"blockpedia.sol\":5601:5605  bool */\n  0x00\n    /* \"blockpedia.sol\":5929:5942  segundaString */\n  dup2\n    /* \"blockpedia.sol\":5912:5943  abi.encodePacked(segundaString) */\n  add(0x20, mload(0x40))\n  tag_42\n  swap2\n  swap1\n  tag_43\n  jump\t// in\ntag_42:\n  mload(0x40)\n  0x20\n  dup2\n  dup4\n  sub\n  sub\n  dup2\n  mstore\n  swap1\n  0x40\n  mstore\n    /* \"blockpedia.sol\":5902:5944  keccak256(abi.encodePacked(segundaString)) */\n  dup1\n  mload\n  swap1\n  0x20\n  add\n  keccak256\n    /* \"blockpedia.sol\":5882:5896  primeiraString */\n  dup4\n    /* \"blockpedia.sol\":5865:5897  abi.encodePacked(primeiraString) */\n  add(0x20, mload(0x40))\n  tag_44\n  swap2\n  swap1\n  tag_43\n  jump\t// in\ntag_44:\n  mload(0x40)\n  0x20\n  dup2\n  dup4\n  sub\n  sub\n  dup2\n  mstore\n  swap1\n  0x40\n  mstore\n    /* \"blockpedia.sol\":5855:5898  keccak256(abi.encodePacked(primeiraString)) */\n  dup1\n  mload\n  swap1\n  0x20\n  add\n  keccak256\n    /* \"blockpedia.sol\":5855:5944  keccak256(abi.encodePacked(primeiraString)) == keccak256(abi.encodePacked(segundaString)) */\n  eq\n    /* \"blockpedia.sol\":5854:5958  (keccak256(abi.encodePacked(primeiraString)) == keccak256(abi.encodePacked(segundaString))) ? true:false */\n  tag_45\n  jumpi\n    /* \"blockpedia.sol\":5953:5958  false */\n  0x00\n    /* \"blockpedia.sol\":5854:5958  (keccak256(abi.encodePacked(primeiraString)) == keccak256(abi.encodePacked(segundaString))) ? true:false */\n  jump(tag_46)\ntag_45:\n    /* \"blockpedia.sol\":5948:5952  true */\n  0x01\n    /* \"blockpedia.sol\":5854:5958  (keccak256(abi.encodePacked(primeiraString)) == keccak256(abi.encodePacked(segundaString))) ? true:false */\ntag_46:\n    /* \"blockpedia.sol\":5847:5958  return (keccak256(abi.encodePacked(primeiraString)) == keccak256(abi.encodePacked(segundaString))) ? true:false */\n  swap1\n  pop\n    /* \"blockpedia.sol\":5498:5966  function comparaString(string memory primeiraString, string memory segundaString)internal pure returns(bool)\r... */\n  swap3\n  swap2\n  pop\n  pop\n  jump\t// out\n    /* \"blockpedia.sol\":61:5971  contract Blockpedia\r... */\ntag_18:\n  dup3\n  dup1\n  sload\n  tag_47\n  swap1\n  tag_32\n  jump\t// in\ntag_47:\n  swap1\n  0x00\n  mstore\n  keccak256(0x00, 0x20)\n  swap1\n  0x1f\n  add\n  0x20\n  swap1\n  div\n  dup2\n  add\n  swap3\n  dup3\n  tag_49\n  jumpi\n  0x00\n  dup6\n  sstore\n  jump(tag_48)\ntag_49:\n  dup3\n  0x1f\n  lt\n  tag_50\n  jumpi\n  dup1\n  mload\n  not(0xff)\n  and\n  dup4\n  dup1\n  add\n  or\n  dup6\n  sstore\n  jump(tag_48)\ntag_50:\n  dup3\n  dup1\n  add\n  0x01\n  add\n  dup6\n  sstore\n  dup3\n  iszero\n  tag_48\n  jumpi\n  swap2\n  dup3\n  add\ntag_51:\n  dup3\n  dup2\n  gt\n  iszero\n  tag_52\n  jumpi\n  dup3\n  mload\n  dup3\n  sstore\n  swap2\n  0x20\n  add\n  swap2\n  swap1\n  0x01\n  add\n  swap1\n  jump(tag_51)\ntag_52:\ntag_48:\n  pop\n  swap1\n  pop\n  tag_53\n  swap2\n  swap1\n  tag_54\n  jump\t// in\ntag_53:\n  pop\n  swap1\n  jump\t// out\ntag_54:\ntag_55:\n  dup1\n  dup3\n  gt\n  iszero\n  tag_56\n  jumpi\n  0x00\n  dup2\n  0x00\n  swap1\n  sstore\n  pop\n  0x01\n  add\n  jump(tag_55)\ntag_56:\n  pop\n  swap1\n  jump\t// out\n    /* \"#utility.yul\":7:384   */\ntag_58:\n  0x00\n    /* \"#utility.yul\":141:180   */\n  tag_60\n    /* \"#utility.yul\":174:179   */\n  dup3\n    /* \"#utility.yul\":141:180   */\n  tag_61\n  jump\t// in\ntag_60:\n    /* \"#utility.yul\":196:285   */\n  tag_62\n    /* \"#utility.yul\":278:284   */\n  dup2\n    /* \"#utility.yul\":273:276   */\n  dup6\n    /* \"#utility.yul\":196:285   */\n  tag_63\n  jump\t// in\ntag_62:\n    /* \"#utility.yul\":189:285   */\n  swap4\n  pop\n    /* \"#utility.yul\":294:346   */\n  tag_64\n    /* \"#utility.yul\":339:345   */\n  dup2\n    /* \"#utility.yul\":334:337   */\n  dup6\n    /* \"#utility.yul\":327:331   */\n  0x20\n    /* \"#utility.yul\":320:325   */\n  dup7\n    /* \"#utility.yul\":316:332   */\n  add\n    /* \"#utility.yul\":294:346   */\n  tag_65\n  jump\t// in\ntag_64:\n    /* \"#utility.yul\":371:377   */\n  dup1\n    /* \"#utility.yul\":366:369   */\n  dup5\n    /* \"#utility.yul\":362:378   */\n  add\n    /* \"#utility.yul\":355:378   */\n  swap2\n  pop\n    /* \"#utility.yul\":117:384   */\n  pop\n  swap3\n  swap2\n  pop\n  pop\n  jump\t// out\n    /* \"#utility.yul\":390:760   */\ntag_66:\n  0x00\n    /* \"#utility.yul\":553:620   */\n  tag_68\n    /* \"#utility.yul\":617:619   */\n  0x26\n    /* \"#utility.yul\":612:615   */\n  dup4\n    /* \"#utility.yul\":553:620   */\n  tag_69\n  jump\t// in\ntag_68:\n    /* \"#utility.yul\":546:620   */\n  swap2\n  pop\n    /* \"#utility.yul\":650:684   */\n  0x4a612065786973746520706167696e6120617469766120636f6d206573746520\n    /* \"#utility.yul\":646:647   */\n  0x00\n    /* \"#utility.yul\":641:644   */\n  dup4\n    /* \"#utility.yul\":637:648   */\n  add\n    /* \"#utility.yul\":630:685   */\n  mstore\n    /* \"#utility.yul\":716:724   */\n  0x746974756c6f0000000000000000000000000000000000000000000000000000\n    /* \"#utility.yul\":711:713   */\n  0x20\n    /* \"#utility.yul\":706:709   */\n  dup4\n    /* \"#utility.yul\":702:714   */\n  add\n    /* \"#utility.yul\":695:725   */\n  mstore\n    /* \"#utility.yul\":751:753   */\n  0x40\n    /* \"#utility.yul\":746:749   */\n  dup3\n    /* \"#utility.yul\":742:754   */\n  add\n    /* \"#utility.yul\":735:754   */\n  swap1\n  pop\n    /* \"#utility.yul\":536:760   */\n  swap2\n  swap1\n  pop\n  jump\t// out\n    /* \"#utility.yul\":766:1203   */\ntag_70:\n  0x00\n    /* \"#utility.yul\":929:996   */\n  tag_72\n    /* \"#utility.yul\":993:995   */\n  0x47\n    /* \"#utility.yul\":988:991   */\n  dup4\n    /* \"#utility.yul\":929:996   */\n  tag_69\n  jump\t// in\ntag_72:\n    /* \"#utility.yul\":922:996   */\n  swap2\n  pop\n    /* \"#utility.yul\":1026:1060   */\n  0x412061646963616f206465206e6f76617320706167696e617320736f20652070\n    /* \"#utility.yul\":1022:1023   */\n  0x00\n    /* \"#utility.yul\":1017:1020   */\n  dup4\n    /* \"#utility.yul\":1013:1024   */\n  add\n    /* \"#utility.yul\":1006:1061   */\n  mstore\n    /* \"#utility.yul\":1092:1126   */\n  0x65726d6974696461207175616e646f206120426c6f636b706564696120657374\n    /* \"#utility.yul\":1087:1089   */\n  0x20\n    /* \"#utility.yul\":1082:1085   */\n  dup4\n    /* \"#utility.yul\":1078:1090   */\n  add\n    /* \"#utility.yul\":1071:1127   */\n  mstore\n    /* \"#utility.yul\":1158:1167   */\n  0x6120617469766100000000000000000000000000000000000000000000000000\n    /* \"#utility.yul\":1153:1155   */\n  0x40\n    /* \"#utility.yul\":1148:1151   */\n  dup4\n    /* \"#utility.yul\":1144:1156   */\n  add\n    /* \"#utility.yul\":1137:1168   */\n  mstore\n    /* \"#utility.yul\":1194:1196   */\n  0x60\n    /* \"#utility.yul\":1189:1192   */\n  dup3\n    /* \"#utility.yul\":1185:1197   */\n  add\n    /* \"#utility.yul\":1178:1197   */\n  swap1\n  pop\n    /* \"#utility.yul\":912:1203   */\n  swap2\n  swap1\n  pop\n  jump\t// out\n    /* \"#utility.yul\":1209:1484   */\ntag_43:\n  0x00\n    /* \"#utility.yul\":1363:1458   */\n  tag_74\n    /* \"#utility.yul\":1454:1457   */\n  dup3\n    /* \"#utility.yul\":1445:1451   */\n  dup5\n    /* \"#utility.yul\":1363:1458   */\n  tag_58\n  jump\t// in\ntag_74:\n    /* \"#utility.yul\":1356:1458   */\n  swap2\n  pop\n    /* \"#utility.yul\":1475:1478   */\n  dup2\n    /* \"#utility.yul\":1468:1478   */\n  swap1\n  pop\n    /* \"#utility.yul\":1345:1484   */\n  swap3\n  swap2\n  pop\n  pop\n  jump\t// out\n    /* \"#utility.yul\":1490:1909   */\ntag_15:\n  0x00\n    /* \"#utility.yul\":1694:1696   */\n  0x20\n    /* \"#utility.yul\":1683:1692   */\n  dup3\n    /* \"#utility.yul\":1679:1697   */\n  add\n    /* \"#utility.yul\":1671:1697   */\n  swap1\n  pop\n    /* \"#utility.yul\":1743:1752   */\n  dup2\n    /* \"#utility.yul\":1737:1741   */\n  dup2\n    /* \"#utility.yul\":1733:1753   */\n  sub\n    /* \"#utility.yul\":1729:1730   */\n  0x00\n    /* \"#utility.yul\":1718:1727   */\n  dup4\n    /* \"#utility.yul\":1714:1731   */\n  add\n    /* \"#utility.yul\":1707:1754   */\n  mstore\n    /* \"#utility.yul\":1771:1902   */\n  tag_76\n    /* \"#utility.yul\":1897:1901   */\n  dup2\n    /* \"#utility.yul\":1771:1902   */\n  tag_66\n  jump\t// in\ntag_76:\n    /* \"#utility.yul\":1763:1902   */\n  swap1\n  pop\n    /* \"#utility.yul\":1661:1909   */\n  swap2\n  swap1\n  pop\n  jump\t// out\n    /* \"#utility.yul\":1915:2334   */\ntag_10:\n  0x00\n    /* \"#utility.yul\":2119:2121   */\n  0x20\n    /* \"#utility.yul\":2108:2117   */\n  dup3\n    /* \"#utility.yul\":2104:2122   */\n  add\n    /* \"#utility.yul\":2096:2122   */\n  swap1\n  pop\n    /* \"#utility.yul\":2168:2177   */\n  dup2\n    /* \"#utility.yul\":2162:2166   */\n  dup2\n    /* \"#utility.yul\":2158:2178   */\n  sub\n    /* \"#utility.yul\":2154:2155   */\n  0x00\n    /* \"#utility.yul\":2143:2152   */\n  dup4\n    /* \"#utility.yul\":2139:2156   */\n  add\n    /* \"#utility.yul\":2132:2179   */\n  mstore\n    /* \"#utility.yul\":2196:2327   */\n  tag_78\n    /* \"#utility.yul\":2322:2326   */\n  dup2\n    /* \"#utility.yul\":2196:2327   */\n  tag_70\n  jump\t// in\ntag_78:\n    /* \"#utility.yul\":2188:2327   */\n  swap1\n  pop\n    /* \"#utility.yul\":2086:2334   */\n  swap2\n  swap1\n  pop\n  jump\t// out\n    /* \"#utility.yul\":2340:2439   */\ntag_61:\n  0x00\n    /* \"#utility.yul\":2426:2431   */\n  dup2\n    /* \"#utility.yul\":2420:2432   */\n  mload\n    /* \"#utility.yul\":2410:2432   */\n  swap1\n  pop\n    /* \"#utility.yul\":2399:2439   */\n  swap2\n  swap1\n  pop\n  jump\t// out\n    /* \"#utility.yul\":2445:2614   */\ntag_69:\n  0x00\n    /* \"#utility.yul\":2563:2569   */\n  dup3\n    /* \"#utility.yul\":2558:2561   */\n  dup3\n    /* \"#utility.yul\":2551:2570   */\n  mstore\n    /* \"#utility.yul\":2603:2607   */\n  0x20\n    /* \"#utility.yul\":2598:2601   */\n  dup3\n    /* \"#utility.yul\":2594:2608   */\n  add\n    /* \"#utility.yul\":2579:2608   */\n  swap1\n  pop\n    /* \"#utility.yul\":2541:2614   */\n  swap3\n  swap2\n  pop\n  pop\n  jump\t// out\n    /* \"#utility.yul\":2620:2768   */\ntag_63:\n  0x00\n    /* \"#utility.yul\":2759:2762   */\n  dup2\n    /* \"#utility.yul\":2744:2762   */\n  swap1\n  pop\n    /* \"#utility.yul\":2734:2768   */\n  swap3\n  swap2\n  pop\n  pop\n  jump\t// out\n    /* \"#utility.yul\":2774:2851   */\ntag_82:\n  0x00\n    /* \"#utility.yul\":2840:2845   */\n  dup2\n    /* \"#utility.yul\":2829:2845   */\n  swap1\n  pop\n    /* \"#utility.yul\":2819:2851   */\n  swap2\n  swap1\n  pop\n  jump\t// out\n    /* \"#utility.yul\":2857:3164   */\ntag_65:\n    /* \"#utility.yul\":2925:2926   */\n  0x00\n    /* \"#utility.yul\":2935:3048   */\ntag_85:\n    /* \"#utility.yul\":2949:2955   */\n  dup4\n    /* \"#utility.yul\":2946:2947   */\n  dup2\n    /* \"#utility.yul\":2943:2956   */\n  lt\n    /* \"#utility.yul\":2935:3048   */\n  iszero\n  tag_87\n  jumpi\n    /* \"#utility.yul\":3034:3035   */\n  dup1\n    /* \"#utility.yul\":3029:3032   */\n  dup3\n    /* \"#utility.yul\":3025:3036   */\n  add\n    /* \"#utility.yul\":3019:3037   */\n  mload\n    /* \"#utility.yul\":3015:3016   */\n  dup2\n    /* \"#utility.yul\":3010:3013   */\n  dup5\n    /* \"#utility.yul\":3006:3017   */\n  add\n    /* \"#utility.yul\":2999:3038   */\n  mstore\n    /* \"#utility.yul\":2971:2973   */\n  0x20\n    /* \"#utility.yul\":2968:2969   */\n  dup2\n    /* \"#utility.yul\":2964:2974   */\n  add\n    /* \"#utility.yul\":2959:2974   */\n  swap1\n  pop\n    /* \"#utility.yul\":2935:3048   */\n  jump(tag_85)\ntag_87:\n    /* \"#utility.yul\":3066:3072   */\n  dup4\n    /* \"#utility.yul\":3063:3064   */\n  dup2\n    /* \"#utility.yul\":3060:3073   */\n  gt\n    /* \"#utility.yul\":3057:3059   */\n  iszero\n  tag_88\n  jumpi\n    /* \"#utility.yul\":3146:3147   */\n  0x00\n    /* \"#utility.yul\":3137:3143   */\n  dup5\n    /* \"#utility.yul\":3132:3135   */\n  dup5\n    /* \"#utility.yul\":3128:3144   */\n  add\n    /* \"#utility.yul\":3121:3148   */\n  mstore\n    /* \"#utility.yul\":3057:3059   */\ntag_88:\n    /* \"#utility.yul\":2906:3164   */\n  pop\n  pop\n  pop\n  pop\n  jump\t// out\n    /* \"#utility.yul\":3170:3490   */\ntag_32:\n  0x00\n    /* \"#utility.yul\":3251:3252   */\n  0x02\n    /* \"#utility.yul\":3245:3249   */\n  dup3\n    /* \"#utility.yul\":3241:3253   */\n  div\n    /* \"#utility.yul\":3231:3253   */\n  swap1\n  pop\n    /* \"#utility.yul\":3298:3299   */\n  0x01\n    /* \"#utility.yul\":3292:3296   */\n  dup3\n    /* \"#utility.yul\":3288:3300   */\n  and\n    /* \"#utility.yul\":3319:3337   */\n  dup1\n    /* \"#utility.yul\":3309:3311   */\n  tag_90\n  jumpi\n    /* \"#utility.yul\":3375:3379   */\n  0x7f\n    /* \"#utility.yul\":3367:3373   */\n  dup3\n    /* \"#utility.yul\":3363:3380   */\n  and\n    /* \"#utility.yul\":3353:3380   */\n  swap2\n  pop\n    /* \"#utility.yul\":3309:3311   */\ntag_90:\n    /* \"#utility.yul\":3437:3439   */\n  0x20\n    /* \"#utility.yul\":3429:3435   */\n  dup3\n    /* \"#utility.yul\":3426:3440   */\n  lt\n    /* \"#utility.yul\":3406:3424   */\n  dup2\n    /* \"#utility.yul\":3403:3441   */\n  eq\n    /* \"#utility.yul\":3400:3402   */\n  iszero\n  tag_91\n  jumpi\n    /* \"#utility.yul\":3456:3474   */\n  tag_92\n  tag_93\n  jump\t// in\ntag_92:\n    /* \"#utility.yul\":3400:3402   */\ntag_91:\n    /* \"#utility.yul\":3221:3490   */\n  pop\n  swap2\n  swap1\n  pop\n  jump\t// out\n    /* \"#utility.yul\":3496:3729   */\ntag_40:\n  0x00\n    /* \"#utility.yul\":3558:3582   */\n  tag_95\n    /* \"#utility.yul\":3576:3581   */\n  dup3\n    /* \"#utility.yul\":3558:3582   */\n  tag_82\n  jump\t// in\ntag_95:\n    /* \"#utility.yul\":3549:3582   */\n  swap2\n  pop\n    /* \"#utility.yul\":3604:3670   */\n  0xffffffffffffffffffffffffffffffffffffffffffffffffffffffffffffffff\n    /* \"#utility.yul\":3597:3602   */\n  dup3\n    /* \"#utility.yul\":3594:3671   */\n  eq\n    /* \"#utility.yul\":3591:3593   */\n  iszero\n  tag_96\n  jumpi\n    /* \"#utility.yul\":3674:3692   */\n  tag_97\n  tag_98\n  jump\t// in\ntag_97:\n    /* \"#utility.yul\":3591:3593   */\ntag_96:\n    /* \"#utility.yul\":3721:3722   */\n  0x01\n    /* \"#utility.yul\":3714:3719   */\n  dup3\n    /* \"#utility.yul\":3710:3723   */\n  add\n    /* \"#utility.yul\":3703:3723   */\n  swap1\n  pop\n    /* \"#utility.yul\":3539:3729   */\n  swap2\n  swap1\n  pop\n  jump\t// out\n    /* \"#utility.yul\":3735:3915   */\ntag_98:\n    /* \"#utility.yul\":3783:3860   */\n  0x4e487b7100000000000000000000000000000000000000000000000000000000\n    /* \"#utility.yul\":3780:3781   */\n  0x00\n    /* \"#utility.yul\":3773:3861   */\n  mstore\n    /* \"#utility.yul\":3880:3884   */\n  0x11\n    /* \"#utility.yul\":3877:3878   */\n  0x04\n    /* \"#utility.yul\":3870:3885   */\n  mstore\n    /* \"#utility.yul\":3904:3908   */\n  0x24\n    /* \"#utility.yul\":3901:3902   */\n  0x00\n    /* \"#utility.yul\":3894:3909   */\n  revert\n    /* \"#utility.yul\":3921:4101   */\ntag_93:\n    /* \"#utility.yul\":3969:4046   */\n  0x4e487b7100000000000000000000000000000000000000000000000000000000\n    /* \"#utility.yul\":3966:3967   */\n  0x00\n    /* \"#utility.yul\":3959:4047   */\n  mstore\n    /* \"#utility.yul\":4066:4070   */\n  0x22\n    /* \"#utility.yul\":4063:4064   */\n  0x04\n    /* \"#utility.yul\":4056:4071   */\n  mstore\n    /* \"#utility.yul\":4090:4094   */\n  0x24\n    /* \"#utility.yul\":4087:4088   */\n  0x00\n    /* \"#utility.yul\":4080:4095   */\n  revert\n    /* \"blockpedia.sol\":61:5971  contract Blockpedia\r... */\ntag_6:\n  dataSize(sub_0)\n  dup1\n  dataOffset(sub_0)\n  0x00\n  codecopy\n  0x00\n  return\nstop\ndata_9002fc6039152390109ec5f732c53c58176ebaeec30c137dc0bb00ed96b81159 42656d2076696e646f206120426c6f636b70656964612c206120656e6369636c6f7065646961206e6120626c6f636b636861696e\n\nsub_0: assembly {\n        /* \"blockpedia.sol\":61:5971  contract Blockpedia\r... */\n      mstore(0x40, 0x80)\n      callvalue\n      dup1\n      iszero\n      tag_1\n      jumpi\n      0x00\n      dup1\n      revert\n    tag_1:\n      pop\n      jumpi(tag_2, lt(calldatasize, 0x04))\n      shr(0xe0, calldataload(0x00))\n      dup1\n      0x95be551a\n      gt\n      tag_15\n      jumpi\n      dup1\n      0x95be551a\n      eq\n      tag_9\n      jumpi\n      dup1\n      0xa18cc13b\n      eq\n      tag_10\n      jumpi\n      dup1\n      0xaa83581f\n      eq\n      tag_11\n      jumpi\n      dup1\n      0xd4d23a6e\n      eq\n      tag_12\n      jumpi\n      dup1\n      0xd616c9f0\n      eq\n      tag_13\n      jumpi\n      dup1\n      0xe7d4296a\n      eq\n      tag_14\n      jumpi\n      jump(tag_2)\n    tag_15:\n      dup1\n      0x0694952d\n      eq\n      tag_3\n      jumpi\n      dup1\n      0x1509d30c\n      eq\n      tag_4\n      jumpi\n      dup1\n      0x1c18379a\n      eq\n      tag_5\n      jumpi\n      dup1\n      0x2e87ca2e\n      eq\n      tag_6\n      jumpi\n      dup1\n      0x4d7e6726\n      eq\n      tag_7\n      jumpi\n      dup1\n      0x6f70a52e\n      eq\n      tag_8\n      jumpi\n    tag_2:\n      0x00\n      dup1\n      revert\n        /* \"blockpedia.sol\":121:141  address public autor */\n    tag_3:\n      tag_16\n      tag_17\n      jump\t// in\n    tag_16:\n      mload(0x40)\n      tag_18\n      swap2\n      swap1\n      tag_19\n      jump\t// in\n    tag_18:\n      mload(0x40)\n      dup1\n      swap2\n      sub\n      swap1\n      return\n        /* \"blockpedia.sol\":1270:1464  function ativaDesativaBlockpedia(bool _ativo) public\r... */\n    tag_4:\n      tag_20\n      0x04\n      dup1\n      calldatasize\n      sub\n      dup2\n      add\n      swap1\n      tag_21\n      swap2\n      swap1\n      tag_22\n      jump\t// in\n    tag_21:\n      tag_23\n      jump\t// in\n    tag_20:\n      stop\n        /* \"blockpedia.sol\":683:1262  function criarPagina(string memory titulo, string memory conteudo) public\r... */\n    tag_5:\n      tag_24\n      0x04\n      dup1\n      calldatasize\n      sub\n      dup2\n      add\n      swap1\n      tag_25\n      swap2\n      swap1\n      tag_26\n      jump\t// in\n    tag_25:\n      tag_27\n      jump\t// in\n    tag_24:\n      stop\n        /* \"blockpedia.sol\":4779:5490  function getPaginasPorTitulo(string memory titulo) public view returns (uint[] memory)\r... */\n    tag_6:\n      tag_28\n      0x04\n      dup1\n      calldatasize\n      sub\n      dup2\n      add\n      swap1\n      tag_29\n      swap2\n      swap1\n      tag_30\n      jump\t// in\n    tag_29:\n      tag_31\n      jump\t// in\n    tag_28:\n      mload(0x40)\n      tag_32\n      swap2\n      swap1\n      tag_33\n      jump\t// in\n    tag_32:\n      mload(0x40)\n      dup1\n      swap2\n      sub\n      swap1\n      return\n        /* \"blockpedia.sol\":1777:2028  function getConteudoVersaoValidaPorIndexPaginas(uint indice) public view returns (string memory)\r... */\n    tag_7:\n      tag_34\n      0x04\n      dup1\n      calldatasize\n      sub\n      dup2\n      add\n      swap1\n      tag_35\n      swap2\n      swap1\n      tag_36\n      jump\t// in\n    tag_35:\n      tag_37\n      jump\t// in\n    tag_34:\n      mload(0x40)\n      tag_38\n      swap2\n      swap1\n      tag_39\n      jump\t// in\n    tag_38:\n      mload(0x40)\n      dup1\n      swap2\n      sub\n      swap1\n      return\n        /* \"blockpedia.sol\":149:193  uint256 public dataCriacao = block.timestamp */\n    tag_8:\n      tag_40\n      tag_41\n      jump\t// in\n    tag_40:\n      mload(0x40)\n      tag_42\n      swap2\n      swap1\n      tag_43\n      jump\t// in\n    tag_42:\n      mload(0x40)\n      dup1\n      swap2\n      sub\n      swap1\n      return\n        /* \"blockpedia.sol\":2975:3950  function ativaVersaoPorIndexVersoesEIndexPaginas(uint indexPagina, uint indexVersoes) public\r... */\n    tag_9:\n      tag_44\n      0x04\n      dup1\n      calldatasize\n      sub\n      dup2\n      add\n      swap1\n      tag_45\n      swap2\n      swap1\n      tag_46\n      jump\t// in\n    tag_45:\n      tag_47\n      jump\t// in\n    tag_44:\n      stop\n        /* \"blockpedia.sol\":89:113  bool public ativo = true */\n    tag_10:\n      tag_48\n      tag_49\n      jump\t// in\n    tag_48:\n      mload(0x40)\n      tag_50\n      swap2\n      swap1\n      tag_51\n      jump\t// in\n    tag_50:\n      mload(0x40)\n      dup1\n      swap2\n      sub\n      swap1\n      return\n        /* \"blockpedia.sol\":4317:4771  function ativaPaginaPorIndexPaginas(uint indexPagina)public\r... */\n    tag_11:\n      tag_52\n      0x04\n      dup1\n      calldatasize\n      sub\n      dup2\n      add\n      swap1\n      tag_53\n      swap2\n      swap1\n      tag_36\n      jump\t// in\n    tag_53:\n      tag_54\n      jump\t// in\n    tag_52:\n      stop\n        /* \"blockpedia.sol\":2367:2967  function adicionaNovaVercaoDesativadaAPaginaPorIndexPaginas(uint index, string memory conteudo) public\r... */\n    tag_12:\n      tag_55\n      0x04\n      dup1\n      calldatasize\n      sub\n      dup2\n      add\n      swap1\n      tag_56\n      swap2\n      swap1\n      tag_57\n      jump\t// in\n    tag_56:\n      tag_58\n      jump\t// in\n    tag_55:\n      stop\n        /* \"blockpedia.sol\":3958:4309  function desativaPaginaPorIndexPaginas(uint indexPagina)public\r... */\n    tag_13:\n      tag_59\n      0x04\n      dup1\n      calldatasize\n      sub\n      dup2\n      add\n      swap1\n      tag_60\n      swap2\n      swap1\n      tag_36\n      jump\t// in\n    tag_60:\n      tag_61\n      jump\t// in\n    tag_59:\n      stop\n        /* \"blockpedia.sol\":200:223  Pagina[] public paginas */\n    tag_14:\n      tag_62\n      0x04\n      dup1\n      calldatasize\n      sub\n      dup2\n      add\n      swap1\n      tag_63\n      swap2\n      swap1\n      tag_36\n      jump\t// in\n    tag_63:\n      tag_64\n      jump\t// in\n    tag_62:\n      mload(0x40)\n      tag_65\n      swap5\n      swap4\n      swap3\n      swap2\n      swap1\n      tag_66\n      jump\t// in\n    tag_65:\n      mload(0x40)\n      dup1\n      swap2\n      sub\n      swap1\n      return\n        /* \"blockpedia.sol\":121:141  address public autor */\n    tag_17:\n      0x00\n      0x01\n      swap1\n      sload\n      swap1\n      0x0100\n      exp\n      swap1\n      div\n      0xffffffffffffffffffffffffffffffffffffffff\n      and\n      dup2\n      jump\t// out\n        /* \"blockpedia.sol\":1270:1464  function ativaDesativaBlockpedia(bool _ativo) public\r... */\n    tag_23:\n        /* \"blockpedia.sol\":1361:1366  autor */\n      0x00\n      0x01\n      swap1\n      sload\n      swap1\n      0x0100\n      exp\n      swap1\n      div\n      0xffffffffffffffffffffffffffffffffffffffff\n      and\n        /* \"blockpedia.sol\":1347:1366  msg.sender == autor */\n      0xffffffffffffffffffffffffffffffffffffffff\n      and\n        /* \"blockpedia.sol\":1347:1357  msg.sender */\n      caller\n        /* \"blockpedia.sol\":1347:1366  msg.sender == autor */\n      0xffffffffffffffffffffffffffffffffffffffff\n      and\n      eq\n        /* \"blockpedia.sol\":1339:1431  require(msg.sender == autor,\"Somente o dono desta Blockpedia pode alterar o atributo ativo\") */\n      tag_68\n      jumpi\n      mload(0x40)\n      0x08c379a000000000000000000000000000000000000000000000000000000000\n      dup2\n      mstore\n      0x04\n      add\n      tag_69\n      swap1\n      tag_70\n      jump\t// in\n    tag_69:\n      mload(0x40)\n      dup1\n      swap2\n      sub\n      swap1\n      revert\n    tag_68:\n        /* \"blockpedia.sol\":1450:1456  _ativo */\n      dup1\n        /* \"blockpedia.sol\":1442:1447  ativo */\n      0x00\n      dup1\n        /* \"blockpedia.sol\":1442:1456  ativo = _ativo */\n      0x0100\n      exp\n      dup2\n      sload\n      dup2\n      0xff\n      mul\n      not\n      and\n      swap1\n      dup4\n      iszero\n      iszero\n      mul\n      or\n      swap1\n      sstore\n      pop\n        /* \"blockpedia.sol\":1270:1464  function ativaDesativaBlockpedia(bool _ativo) public\r... */\n      pop\n      jump\t// out\n        /* \"blockpedia.sol\":683:1262  function criarPagina(string memory titulo, string memory conteudo) public\r... */\n    tag_27:\n        /* \"blockpedia.sol\":781:786  ativo */\n      0x00\n      dup1\n      sload\n      swap1\n      0x0100\n      exp\n      swap1\n      div\n      0xff\n      and\n        /* \"blockpedia.sol\":773:862  require(ativo, \"A adicao de novas paginas so e permitida quando a Blockpedia esta ativa\") */\n      tag_72\n      jumpi\n      mload(0x40)\n      0x08c379a000000000000000000000000000000000000000000000000000000000\n      dup2\n      mstore\n      0x04\n      add\n      tag_73\n      swap1\n      tag_74\n      jump\t// in\n    tag_73:\n      mload(0x40)\n      dup1\n      swap2\n      sub\n      swap1\n      revert\n    tag_72:\n        /* \"blockpedia.sol\":882:907  existeTituloAtivo(titulo) */\n      tag_75\n        /* \"blockpedia.sol\":900:906  titulo */\n      dup3\n        /* \"blockpedia.sol\":882:899  existeTituloAtivo */\n      tag_76\n        /* \"blockpedia.sol\":882:907  existeTituloAtivo(titulo) */\n      jump\t// in\n    tag_75:\n        /* \"blockpedia.sol\":881:907  !existeTituloAtivo(titulo) */\n      iszero\n        /* \"blockpedia.sol\":873:950  require(!existeTituloAtivo(titulo), \"Ja existe pagina ativa com este titulo\") */\n      tag_77\n      jumpi\n      mload(0x40)\n      0x08c379a000000000000000000000000000000000000000000000000000000000\n      dup2\n      mstore\n      0x04\n      add\n      tag_78\n      swap1\n      tag_79\n      jump\t// in\n    tag_78:\n      mload(0x40)\n      dup1\n      swap2\n      sub\n      swap1\n      revert\n    tag_77:\n        /* \"blockpedia.sol\":963:988  Pagina storage novaPagina */\n      0x00\n        /* \"blockpedia.sol\":991:998  paginas */\n      0x02\n        /* \"blockpedia.sol\":991:1005  paginas.push() */\n      0x01\n      dup2\n      0x01\n      dup2\n      sload\n      add\n      dup1\n      dup3\n      sstore\n      dup1\n      swap2\n      pop\n      pop\n      sub\n      swap1\n      0x00\n      mstore\n      keccak256(0x00, 0x20)\n      swap1\n      0x04\n      mul\n      add\n        /* \"blockpedia.sol\":963:1005  Pagina storage novaPagina = paginas.push() */\n      swap1\n      pop\n        /* \"blockpedia.sol\":1035:1039  true */\n      0x01\n        /* \"blockpedia.sol\":1016:1026  novaPagina */\n      dup2\n        /* \"blockpedia.sol\":1016:1032  novaPagina.ativo */\n      0x00\n      add\n      0x00\n        /* \"blockpedia.sol\":1016:1039  novaPagina.ativo = true */\n      0x0100\n      exp\n      dup2\n      sload\n      dup2\n      0xff\n      mul\n      not\n      and\n      swap1\n      dup4\n      iszero\n      iszero\n      mul\n      or\n      swap1\n      sstore\n      pop\n        /* \"blockpedia.sol\":1069:1079  msg.sender */\n      caller\n        /* \"blockpedia.sol\":1050:1060  novaPagina */\n      dup2\n        /* \"blockpedia.sol\":1050:1066  novaPagina.autor */\n      0x00\n      add\n      0x01\n        /* \"blockpedia.sol\":1050:1079  novaPagina.autor = msg.sender */\n      0x0100\n      exp\n      dup2\n      sload\n      dup2\n      0xffffffffffffffffffffffffffffffffffffffff\n      mul\n      not\n      and\n      swap1\n      dup4\n      0xffffffffffffffffffffffffffffffffffffffff\n      and\n      mul\n      or\n      swap1\n      sstore\n      pop\n        /* \"blockpedia.sol\":1115:1130  block.timestamp */\n      timestamp\n        /* \"blockpedia.sol\":1090:1100  novaPagina */\n      dup2\n        /* \"blockpedia.sol\":1090:1112  novaPagina.dataCriacao */\n      0x01\n      add\n        /* \"blockpedia.sol\":1090:1130  novaPagina.dataCriacao = block.timestamp */\n      dup2\n      swap1\n      sstore\n      pop\n        /* \"blockpedia.sol\":1161:1167  titulo */\n      dup3\n        /* \"blockpedia.sol\":1141:1151  novaPagina */\n      dup2\n        /* \"blockpedia.sol\":1141:1158  novaPagina.titulo */\n      0x02\n      add\n        /* \"blockpedia.sol\":1141:1167  novaPagina.titulo = titulo */\n      swap1\n      dup1\n      mload\n      swap1\n      0x20\n      add\n      swap1\n      tag_81\n      swap3\n      swap2\n      swap1\n      tag_82\n      jump\t// in\n    tag_81:\n      pop\n        /* \"blockpedia.sol\":1178:1188  novaPagina */\n      dup1\n        /* \"blockpedia.sol\":1178:1196  novaPagina.versoes */\n      0x03\n      add\n        /* \"blockpedia.sol\":1202:1253  Versao(true, msg.sender, block.timestamp, conteudo) */\n      mload(0x40)\n      dup1\n      0x80\n      add\n      0x40\n      mstore\n      dup1\n        /* \"blockpedia.sol\":1209:1213  true */\n      0x01\n        /* \"blockpedia.sol\":1202:1253  Versao(true, msg.sender, block.timestamp, conteudo) */\n      iszero\n      iszero\n      dup2\n      mstore\n      0x20\n      add\n        /* \"blockpedia.sol\":1215:1225  msg.sender */\n      caller\n        /* \"blockpedia.sol\":1202:1253  Versao(true, msg.sender, block.timestamp, conteudo) */\n      0xffffffffffffffffffffffffffffffffffffffff\n      and\n      dup2\n      mstore\n      0x20\n      add\n        /* \"blockpedia.sol\":1227:1242  block.timestamp */\n      timestamp\n        /* \"blockpedia.sol\":1202:1253  Versao(true, msg.sender, block.timestamp, conteudo) */\n      dup2\n      mstore\n      0x20\n      add\n        /* \"blockpedia.sol\":1244:1252  conteudo */\n      dup5\n        /* \"blockpedia.sol\":1202:1253  Versao(true, msg.sender, block.timestamp, conteudo) */\n      dup2\n      mstore\n      pop\n        /* \"blockpedia.sol\":1178:1254  novaPagina.versoes.push(Versao(true, msg.sender, block.timestamp, conteudo)) */\n      swap1\n      dup1\n      0x01\n      dup2\n      sload\n      add\n      dup1\n      dup3\n      sstore\n      dup1\n      swap2\n      pop\n      pop\n      0x01\n      swap1\n      sub\n      swap1\n      0x00\n      mstore\n      keccak256(0x00, 0x20)\n      swap1\n      0x03\n      mul\n      add\n      0x00\n      swap1\n      swap2\n      swap1\n      swap2\n      swap1\n      swap2\n      pop\n      0x00\n      dup3\n      add\n      mload\n      dup2\n      0x00\n      add\n      exp(0x0100, 0x00)\n      dup2\n      sload\n      dup2\n      0xff\n      mul\n      not\n      and\n      swap1\n      dup4\n      iszero\n      iszero\n      mul\n      or\n      swap1\n      sstore\n      pop\n      0x20\n      dup3\n      add\n      mload\n      dup2\n      0x00\n      add\n      exp(0x0100, 0x01)\n      dup2\n      sload\n      dup2\n      0xffffffffffffffffffffffffffffffffffffffff\n      mul\n      not\n      and\n      swap1\n      dup4\n      0xffffffffffffffffffffffffffffffffffffffff\n      and\n      mul\n      or\n      swap1\n      sstore\n      pop\n      0x40\n      dup3\n      add\n      mload\n      dup2\n      0x01\n      add\n      sstore\n      0x60\n      dup3\n      add\n      mload\n      dup2\n      0x02\n      add\n      swap1\n      dup1\n      mload\n      swap1\n      0x20\n      add\n      swap1\n      tag_84\n      swap3\n      swap2\n      swap1\n      tag_82\n      jump\t// in\n    tag_84:\n      pop\n      pop\n      pop\n        /* \"blockpedia.sol\":683:1262  function criarPagina(string memory titulo, string memory conteudo) public\r... */\n      pop\n      pop\n      pop\n      jump\t// out\n        /* \"blockpedia.sol\":4779:5490  function getPaginasPorTitulo(string memory titulo) public view returns (uint[] memory)\r... */\n    tag_31:\n        /* \"blockpedia.sol\":4851:4864  uint[] memory */\n      0x60\n        /* \"blockpedia.sol\":4882:4919  uint[] memory indicesPaginasComTitulo */\n      0x00\n        /* \"blockpedia.sol\":4933:4940  paginas */\n      0x02\n        /* \"blockpedia.sol\":4933:4947  paginas.length */\n      dup1\n      sload\n      swap1\n      pop\n        /* \"blockpedia.sol\":4922:4948  new uint[](paginas.length) */\n      0xffffffffffffffff\n      dup2\n      gt\n      iszero\n      tag_86\n      jumpi\n      mstore(0x00, 0x4e487b7100000000000000000000000000000000000000000000000000000000)\n      mstore(0x04, 0x41)\n      revert(0x00, 0x24)\n    tag_86:\n      mload(0x40)\n      swap1\n      dup1\n      dup3\n      mstore\n      dup1\n      0x20\n      mul\n      0x20\n      add\n      dup3\n      add\n      0x40\n      mstore\n      dup1\n      iszero\n      tag_87\n      jumpi\n      dup2\n      0x20\n      add\n      0x20\n      dup3\n      mul\n      dup1\n      calldatasize\n      dup4\n      calldatacopy\n      dup1\n      dup3\n      add\n      swap2\n      pop\n      pop\n      swap1\n      pop\n    tag_87:\n      pop\n        /* \"blockpedia.sol\":4882:4948  uint[] memory indicesPaginasComTitulo = new uint[](paginas.length) */\n      swap1\n      pop\n        /* \"blockpedia.sol\":4959:4972  uint contador */\n      0x00\n        /* \"blockpedia.sol\":4994:5000  uint i */\n      dup1\n        /* \"blockpedia.sol\":4989:5226  for (uint i = 0; i < paginas.length; i++)\r... */\n    tag_88:\n        /* \"blockpedia.sol\":5010:5017  paginas */\n      0x02\n        /* \"blockpedia.sol\":5010:5024  paginas.length */\n      dup1\n      sload\n      swap1\n      pop\n        /* \"blockpedia.sol\":5006:5007  i */\n      dup2\n        /* \"blockpedia.sol\":5006:5024  i < paginas.length */\n      lt\n        /* \"blockpedia.sol\":4989:5226  for (uint i = 0; i < paginas.length; i++)\r... */\n      iszero\n      tag_89\n      jumpi\n        /* \"blockpedia.sol\":5059:5099  comparaString(paginas[i].titulo, titulo) */\n      tag_91\n        /* \"blockpedia.sol\":5073:5080  paginas */\n      0x02\n        /* \"blockpedia.sol\":5081:5082  i */\n      dup3\n        /* \"blockpedia.sol\":5073:5083  paginas[i] */\n      dup2\n      sload\n      dup2\n      lt\n      tag_92\n      jumpi\n      mstore(0x00, 0x4e487b7100000000000000000000000000000000000000000000000000000000)\n      mstore(0x04, 0x32)\n      revert(0x00, 0x24)\n    tag_92:\n      swap1\n      0x00\n      mstore\n      keccak256(0x00, 0x20)\n      swap1\n      0x04\n      mul\n      add\n        /* \"blockpedia.sol\":5073:5090  paginas[i].titulo */\n      0x02\n      add\n        /* \"blockpedia.sol\":5059:5099  comparaString(paginas[i].titulo, titulo) */\n      dup1\n      sload\n      tag_94\n      swap1\n      tag_95\n      jump\t// in\n    tag_94:\n      dup1\n      0x1f\n      add\n      0x20\n      dup1\n      swap2\n      div\n      mul\n      0x20\n      add\n      mload(0x40)\n      swap1\n      dup2\n      add\n      0x40\n      mstore\n      dup1\n      swap3\n      swap2\n      swap1\n      dup2\n      dup2\n      mstore\n      0x20\n      add\n      dup3\n      dup1\n      sload\n      tag_96\n      swap1\n      tag_95\n      jump\t// in\n    tag_96:\n      dup1\n      iszero\n      tag_97\n      jumpi\n      dup1\n      0x1f\n      lt\n      tag_98\n      jumpi\n      0x0100\n      dup1\n      dup4\n      sload\n      div\n      mul\n      dup4\n      mstore\n      swap2\n      0x20\n      add\n      swap2\n      jump(tag_97)\n    tag_98:\n      dup3\n      add\n      swap2\n      swap1\n      0x00\n      mstore\n      keccak256(0x00, 0x20)\n      swap1\n    tag_99:\n      dup2\n      sload\n      dup2\n      mstore\n      swap1\n      0x01\n      add\n      swap1\n      0x20\n      add\n      dup1\n      dup4\n      gt\n      tag_99\n      jumpi\n      dup3\n      swap1\n      sub\n      0x1f\n      and\n      dup3\n      add\n      swap2\n    tag_97:\n      pop\n      pop\n      pop\n      pop\n      pop\n        /* \"blockpedia.sol\":5092:5098  titulo */\n      dup7\n        /* \"blockpedia.sol\":5059:5072  comparaString */\n      tag_100\n        /* \"blockpedia.sol\":5059:5099  comparaString(paginas[i].titulo, titulo) */\n      jump\t// in\n    tag_91:\n        /* \"blockpedia.sol\":5055:5215  if (comparaString(paginas[i].titulo, titulo))\r... */\n      iszero\n      tag_101\n      jumpi\n        /* \"blockpedia.sol\":5169:5170  i */\n      dup1\n        /* \"blockpedia.sol\":5133:5156  indicesPaginasComTitulo */\n      dup4\n        /* \"blockpedia.sol\":5157:5165  contador */\n      dup4\n        /* \"blockpedia.sol\":5133:5166  indicesPaginasComTitulo[contador] */\n      dup2\n      mload\n      dup2\n      lt\n      tag_102\n      jumpi\n      mstore(0x00, 0x4e487b7100000000000000000000000000000000000000000000000000000000)\n      mstore(0x04, 0x32)\n      revert(0x00, 0x24)\n    tag_102:\n      0x20\n      mul\n      0x20\n      add\n      add\n        /* \"blockpedia.sol\":5133:5170  indicesPaginasComTitulo[contador] = i */\n      dup2\n      dup2\n      mstore\n      pop\n      pop\n        /* \"blockpedia.sol\":5189:5199  contador++ */\n      dup2\n      dup1\n      tag_103\n      swap1\n      tag_104\n      jump\t// in\n    tag_103:\n      swap3\n      pop\n      pop\n        /* \"blockpedia.sol\":5055:5215  if (comparaString(paginas[i].titulo, titulo))\r... */\n    tag_101:\n        /* \"blockpedia.sol\":5026:5029  i++ */\n      dup1\n      dup1\n      tag_105\n      swap1\n      tag_104\n      jump\t// in\n    tag_105:\n      swap2\n      pop\n      pop\n        /* \"blockpedia.sol\":4989:5226  for (uint i = 0; i < paginas.length; i++)\r... */\n      jump(tag_88)\n    tag_89:\n      pop\n        /* \"blockpedia.sol\":5290:5311  uint[] memory indices */\n      0x00\n        /* \"blockpedia.sol\":5325:5333  contador */\n      dup2\n        /* \"blockpedia.sol\":5314:5334  new uint[](contador) */\n      0xffffffffffffffff\n      dup2\n      gt\n      iszero\n      tag_106\n      jumpi\n      mstore(0x00, 0x4e487b7100000000000000000000000000000000000000000000000000000000)\n      mstore(0x04, 0x41)\n      revert(0x00, 0x24)\n    tag_106:\n      mload(0x40)\n      swap1\n      dup1\n      dup3\n      mstore\n      dup1\n      0x20\n      mul\n      0x20\n      add\n      dup3\n      add\n      0x40\n      mstore\n      dup1\n      iszero\n      tag_107\n      jumpi\n      dup2\n      0x20\n      add\n      0x20\n      dup3\n      mul\n      dup1\n      calldatasize\n      dup4\n      calldatacopy\n      dup1\n      dup3\n      add\n      swap2\n      pop\n      pop\n      swap1\n      pop\n    tag_107:\n      pop\n        /* \"blockpedia.sol\":5290:5334  uint[] memory indices = new uint[](contador) */\n      swap1\n      pop\n        /* \"blockpedia.sol\":5350:5356  uint j */\n      0x00\n        /* \"blockpedia.sol\":5345:5456  for (uint j = 0; j < contador; j++)\r... */\n    tag_108:\n        /* \"blockpedia.sol\":5366:5374  contador */\n      dup3\n        /* \"blockpedia.sol\":5362:5363  j */\n      dup2\n        /* \"blockpedia.sol\":5362:5374  j < contador */\n      lt\n        /* \"blockpedia.sol\":5345:5456  for (uint j = 0; j < contador; j++)\r... */\n      iszero\n      tag_109\n      jumpi\n        /* \"blockpedia.sol\":5418:5441  indicesPaginasComTitulo */\n      dup4\n        /* \"blockpedia.sol\":5442:5443  j */\n      dup2\n        /* \"blockpedia.sol\":5418:5444  indicesPaginasComTitulo[j] */\n      dup2\n      mload\n      dup2\n      lt\n      tag_111\n      jumpi\n      mstore(0x00, 0x4e487b7100000000000000000000000000000000000000000000000000000000)\n      mstore(0x04, 0x32)\n      revert(0x00, 0x24)\n    tag_111:\n      0x20\n      mul\n      0x20\n      add\n      add\n      mload\n        /* \"blockpedia.sol\":5405:5412  indices */\n      dup3\n        /* \"blockpedia.sol\":5413:5414  j */\n      dup3\n        /* \"blockpedia.sol\":5405:5415  indices[j] */\n      dup2\n      mload\n      dup2\n      lt\n      tag_112\n      jumpi\n      mstore(0x00, 0x4e487b7100000000000000000000000000000000000000000000000000000000)\n      mstore(0x04, 0x32)\n      revert(0x00, 0x24)\n    tag_112:\n      0x20\n      mul\n      0x20\n      add\n      add\n        /* \"blockpedia.sol\":5405:5444  indices[j] = indicesPaginasComTitulo[j] */\n      dup2\n      dup2\n      mstore\n      pop\n      pop\n        /* \"blockpedia.sol\":5376:5379  j++ */\n      dup1\n      dup1\n      tag_113\n      swap1\n      tag_104\n      jump\t// in\n    tag_113:\n      swap2\n      pop\n      pop\n        /* \"blockpedia.sol\":5345:5456  for (uint j = 0; j < contador; j++)\r... */\n      jump(tag_108)\n    tag_109:\n      pop\n        /* \"blockpedia.sol\":5475:5482  indices */\n      dup1\n        /* \"blockpedia.sol\":5468:5482  return indices */\n      swap4\n      pop\n      pop\n      pop\n      pop\n        /* \"blockpedia.sol\":4779:5490  function getPaginasPorTitulo(string memory titulo) public view returns (uint[] memory)\r... */\n      swap2\n      swap1\n      pop\n      jump\t// out\n        /* \"blockpedia.sol\":1777:2028  function getConteudoVersaoValidaPorIndexPaginas(uint indice) public view returns (string memory)\r... */\n    tag_37:\n        /* \"blockpedia.sol\":1859:1872  string memory */\n      0x60\n        /* \"blockpedia.sol\":1907:1914  paginas */\n      0x02\n        /* \"blockpedia.sol\":1907:1921  paginas.length */\n      dup1\n      sload\n      swap1\n      pop\n        /* \"blockpedia.sol\":1898:1904  indice */\n      dup3\n        /* \"blockpedia.sol\":1898:1921  indice < paginas.length */\n      lt\n        /* \"blockpedia.sol\":1890:1948  require(indice < paginas.length, \"Indice fora do alcance\") */\n      tag_115\n      jumpi\n      mload(0x40)\n      0x08c379a000000000000000000000000000000000000000000000000000000000\n      dup2\n      mstore\n      0x04\n      add\n      tag_116\n      swap1\n      tag_117\n      jump\t// in\n    tag_116:\n      mload(0x40)\n      dup1\n      swap2\n      sub\n      swap1\n      revert\n    tag_115:\n        /* \"blockpedia.sol\":1968:2011  getVersaoValidaDeUmaPagina(paginas[indice]) */\n      tag_118\n        /* \"blockpedia.sol\":1995:2002  paginas */\n      0x02\n        /* \"blockpedia.sol\":2003:2009  indice */\n      dup4\n        /* \"blockpedia.sol\":1995:2010  paginas[indice] */\n      dup2\n      sload\n      dup2\n      lt\n      tag_119\n      jumpi\n      mstore(0x00, 0x4e487b7100000000000000000000000000000000000000000000000000000000)\n      mstore(0x04, 0x32)\n      revert(0x00, 0x24)\n    tag_119:\n      swap1\n      0x00\n      mstore\n      keccak256(0x00, 0x20)\n      swap1\n      0x04\n      mul\n      add\n        /* \"blockpedia.sol\":1968:2011  getVersaoValidaDeUmaPagina(paginas[indice]) */\n      mload(0x40)\n      dup1\n      0xa0\n      add\n      0x40\n      mstore\n      swap1\n      dup2\n      0x00\n      dup3\n      add\n      0x00\n      swap1\n      sload\n      swap1\n      0x0100\n      exp\n      swap1\n      div\n      0xff\n      and\n      iszero\n      iszero\n      iszero\n      iszero\n      dup2\n      mstore\n      0x20\n      add\n      0x00\n      dup3\n      add\n      0x01\n      swap1\n      sload\n      swap1\n      0x0100\n      exp\n      swap1\n      div\n      0xffffffffffffffffffffffffffffffffffffffff\n      and\n      0xffffffffffffffffffffffffffffffffffffffff\n      and\n      0xffffffffffffffffffffffffffffffffffffffff\n      and\n      dup2\n      mstore\n      0x20\n      add\n      0x01\n      dup3\n      add\n      sload\n      dup2\n      mstore\n      0x20\n      add\n      0x02\n      dup3\n      add\n      dup1\n      sload\n      tag_121\n      swap1\n      tag_95\n      jump\t// in\n    tag_121:\n      dup1\n      0x1f\n      add\n      0x20\n      dup1\n      swap2\n      div\n      mul\n      0x20\n      add\n      mload(0x40)\n      swap1\n      dup2\n      add\n      0x40\n      mstore\n      dup1\n      swap3\n      swap2\n      swap1\n      dup2\n      dup2\n      mstore\n      0x20\n      add\n      dup3\n      dup1\n      sload\n      tag_122\n      swap1\n      tag_95\n      jump\t// in\n    tag_122:\n      dup1\n      iszero\n      tag_123\n      jumpi\n      dup1\n      0x1f\n      lt\n      tag_124\n      jumpi\n      0x0100\n      dup1\n      dup4\n      sload\n      div\n      mul\n      dup4\n      mstore\n      swap2\n      0x20\n      add\n      swap2\n      jump(tag_123)\n    tag_124:\n      dup3\n      add\n      swap2\n      swap1\n      0x00\n      mstore\n      keccak256(0x00, 0x20)\n      swap1\n    tag_125:\n      dup2\n      sload\n      dup2\n      mstore\n      swap1\n      0x01\n      add\n      swap1\n      0x20\n      add\n      dup1\n      dup4\n      gt\n      tag_125\n      jumpi\n      dup3\n      swap1\n      sub\n      0x1f\n      and\n      dup3\n      add\n      swap2\n    tag_123:\n      pop\n      pop\n      pop\n      pop\n      pop\n      dup2\n      mstore\n      0x20\n      add\n      0x03\n      dup3\n      add\n      dup1\n      sload\n      dup1\n      0x20\n      mul\n      0x20\n      add\n      mload(0x40)\n      swap1\n      dup2\n      add\n      0x40\n      mstore\n      dup1\n      swap3\n      swap2\n      swap1\n      dup2\n      dup2\n      mstore\n      0x20\n      add\n      0x00\n      swap1\n    tag_126:\n      dup3\n      dup3\n      lt\n      iszero\n      tag_127\n      jumpi\n      dup4\n      dup3\n      swap1\n      0x00\n      mstore\n      keccak256(0x00, 0x20)\n      swap1\n      0x03\n      mul\n      add\n      mload(0x40)\n      dup1\n      0x80\n      add\n      0x40\n      mstore\n      swap1\n      dup2\n      0x00\n      dup3\n      add\n      0x00\n      swap1\n      sload\n      swap1\n      0x0100\n      exp\n      swap1\n      div\n      0xff\n      and\n      iszero\n      iszero\n      iszero\n      iszero\n      dup2\n      mstore\n      0x20\n      add\n      0x00\n      dup3\n      add\n      0x01\n      swap1\n      sload\n      swap1\n      0x0100\n      exp\n      swap1\n      div\n      0xffffffffffffffffffffffffffffffffffffffff\n      and\n      0xffffffffffffffffffffffffffffffffffffffff\n      and\n      0xffffffffffffffffffffffffffffffffffffffff\n      and\n      dup2\n      mstore\n      0x20\n      add\n      0x01\n      dup3\n      add\n      sload\n      dup2\n      mstore\n      0x20\n      add\n      0x02\n      dup3\n      add\n      dup1\n      sload\n      tag_129\n      swap1\n      tag_95\n      jump\t// in\n    tag_129:\n      dup1\n      0x1f\n      add\n      0x20\n      dup1\n      swap2\n      div\n      mul\n      0x20\n      add\n      mload(0x40)\n      swap1\n      dup2\n      add\n      0x40\n      mstore\n      dup1\n      swap3\n      swap2\n      swap1\n      dup2\n      dup2\n      mstore\n      0x20\n      add\n      dup3\n      dup1\n      sload\n      tag_130\n      swap1\n      tag_95\n      jump\t// in\n    tag_130:\n      dup1\n      iszero\n      tag_131\n      jumpi\n      dup1\n      0x1f\n      lt\n      tag_132\n      jumpi\n      0x0100\n      dup1\n      dup4\n      sload\n      div\n      mul\n      dup4\n      mstore\n      swap2\n      0x20\n      add\n      swap2\n      jump(tag_131)\n    tag_132:\n      dup3\n      add\n      swap2\n      swap1\n      0x00\n      mstore\n      keccak256(0x00, 0x20)\n      swap1\n    tag_133:\n      dup2\n      sload\n      dup2\n      mstore\n      swap1\n      0x01\n      add\n      swap1\n      0x20\n      add\n      dup1\n      dup4\n      gt\n      tag_133\n      jumpi\n      dup3\n      swap1\n      sub\n      0x1f\n      and\n      dup3\n      add\n      swap2\n    tag_131:\n      pop\n      pop\n      pop\n      pop\n      pop\n      dup2\n      mstore\n      pop\n      pop\n      dup2\n      mstore\n      0x20\n      add\n      swap1\n      0x01\n      add\n      swap1\n      jump(tag_126)\n    tag_127:\n      pop\n      pop\n      pop\n      pop\n      dup2\n      mstore\n      pop\n      pop\n        /* \"blockpedia.sol\":1968:1994  getVersaoValidaDeUmaPagina */\n      tag_134\n        /* \"blockpedia.sol\":1968:2011  getVersaoValidaDeUmaPagina(paginas[indice]) */\n      jump\t// in\n    tag_118:\n        /* \"blockpedia.sol\":1968:2020  getVersaoValidaDeUmaPagina(paginas[indice]).conteudo */\n      0x60\n      add\n      mload\n        /* \"blockpedia.sol\":1961:2020  return getVersaoValidaDeUmaPagina(paginas[indice]).conteudo */\n      swap1\n      pop\n        /* \"blockpedia.sol\":1777:2028  function getConteudoVersaoValidaPorIndexPaginas(uint indice) public view returns (string memory)\r... */\n      swap2\n      swap1\n      pop\n      jump\t// out\n        /* \"blockpedia.sol\":149:193  uint256 public dataCriacao = block.timestamp */\n    tag_41:\n      sload(0x01)\n      dup2\n      jump\t// out\n        /* \"blockpedia.sol\":2975:3950  function ativaVersaoPorIndexVersoesEIndexPaginas(uint indexPagina, uint indexVersoes) public\r... */\n    tag_47:\n        /* \"blockpedia.sol\":3092:3097  ativo */\n      0x00\n      dup1\n      sload\n      swap1\n      0x0100\n      exp\n      swap1\n      div\n      0xff\n      and\n        /* \"blockpedia.sol\":3084:3173  require(ativo, \"A adicao de novas paginas so e permitida quando a Blockpedia esta ativa\") */\n      tag_136\n      jumpi\n      mload(0x40)\n      0x08c379a000000000000000000000000000000000000000000000000000000000\n      dup2\n      mstore\n      0x04\n      add\n      tag_137\n      swap1\n      tag_74\n      jump\t// in\n    tag_137:\n      mload(0x40)\n      dup1\n      swap2\n      sub\n      swap1\n      revert\n    tag_136:\n        /* \"blockpedia.sol\":3206:3213  paginas */\n      0x02\n        /* \"blockpedia.sol\":3206:3220  paginas.length */\n      dup1\n      sload\n      swap1\n      pop\n        /* \"blockpedia.sol\":3192:3203  indexPagina */\n      dup3\n        /* \"blockpedia.sol\":3192:3220  indexPagina < paginas.length */\n      lt\n        /* \"blockpedia.sol\":3184:3257  require(indexPagina < paginas.length, \"Indice da pagina fora do alcance\") */\n      tag_138\n      jumpi\n      mload(0x40)\n      0x08c379a000000000000000000000000000000000000000000000000000000000\n      dup2\n      mstore\n      0x04\n      add\n      tag_139\n      swap1\n      tag_140\n      jump\t// in\n    tag_139:\n      mload(0x40)\n      dup1\n      swap2\n      sub\n      swap1\n      revert\n    tag_138:\n        /* \"blockpedia.sol\":3276:3283  paginas */\n      0x02\n        /* \"blockpedia.sol\":3284:3295  indexPagina */\n      dup3\n        /* \"blockpedia.sol\":3276:3296  paginas[indexPagina] */\n      dup2\n      sload\n      dup2\n      lt\n      tag_141\n      jumpi\n      mstore(0x00, 0x4e487b7100000000000000000000000000000000000000000000000000000000)\n      mstore(0x04, 0x32)\n      revert(0x00, 0x24)\n    tag_141:\n      swap1\n      0x00\n      mstore\n      keccak256(0x00, 0x20)\n      swap1\n      0x04\n      mul\n      add\n        /* \"blockpedia.sol\":3276:3302  paginas[indexPagina].ativo */\n      0x00\n      add\n      0x00\n      swap1\n      sload\n      swap1\n      0x0100\n      exp\n      swap1\n      div\n      0xff\n      and\n        /* \"blockpedia.sol\":3268:3370  require(paginas[indexPagina].ativo, \"A alteracao de versao so e permitida quando a pagina esta ativa\") */\n      tag_143\n      jumpi\n      mload(0x40)\n      0x08c379a000000000000000000000000000000000000000000000000000000000\n      dup2\n      mstore\n      0x04\n      add\n      tag_144\n      swap1\n      tag_145\n      jump\t// in\n    tag_144:\n      mload(0x40)\n      dup1\n      swap2\n      sub\n      swap1\n      revert\n    tag_143:\n        /* \"blockpedia.sol\":3404:3411  paginas */\n      0x02\n        /* \"blockpedia.sol\":3412:3423  indexPagina */\n      dup3\n        /* \"blockpedia.sol\":3404:3424  paginas[indexPagina] */\n      dup2\n      sload\n      dup2\n      lt\n      tag_146\n      jumpi\n      mstore(0x00, 0x4e487b7100000000000000000000000000000000000000000000000000000000)\n      mstore(0x04, 0x32)\n      revert(0x00, 0x24)\n    tag_146:\n      swap1\n      0x00\n      mstore\n      keccak256(0x00, 0x20)\n      swap1\n      0x04\n      mul\n      add\n        /* \"blockpedia.sol\":3404:3432  paginas[indexPagina].versoes */\n      0x03\n      add\n        /* \"blockpedia.sol\":3404:3439  paginas[indexPagina].versoes.length */\n      dup1\n      sload\n      swap1\n      pop\n        /* \"blockpedia.sol\":3389:3401  indexVersoes */\n      dup2\n        /* \"blockpedia.sol\":3389:3439  indexVersoes < paginas[indexPagina].versoes.length */\n      lt\n        /* \"blockpedia.sol\":3381:3476  require(indexVersoes < paginas[indexPagina].versoes.length, \"Indice da versao fora do alcance\") */\n      tag_148\n      jumpi\n      mload(0x40)\n      0x08c379a000000000000000000000000000000000000000000000000000000000\n      dup2\n      mstore\n      0x04\n      add\n      tag_149\n      swap1\n      tag_150\n      jump\t// in\n    tag_149:\n      mload(0x40)\n      dup1\n      swap2\n      sub\n      swap1\n      revert\n    tag_148:\n        /* \"blockpedia.sol\":3492:3499  paginas */\n      0x02\n        /* \"blockpedia.sol\":3500:3511  indexPagina */\n      dup3\n        /* \"blockpedia.sol\":3492:3512  paginas[indexPagina] */\n      dup2\n      sload\n      dup2\n      lt\n      tag_151\n      jumpi\n      mstore(0x00, 0x4e487b7100000000000000000000000000000000000000000000000000000000)\n      mstore(0x04, 0x32)\n      revert(0x00, 0x24)\n    tag_151:\n      swap1\n      0x00\n      mstore\n      keccak256(0x00, 0x20)\n      swap1\n      0x04\n      mul\n      add\n        /* \"blockpedia.sol\":3492:3520  paginas[indexPagina].versoes */\n      0x03\n      add\n        /* \"blockpedia.sol\":3521:3533  indexVersoes */\n      dup2\n        /* \"blockpedia.sol\":3492:3534  paginas[indexPagina].versoes[indexVersoes] */\n      dup2\n      sload\n      dup2\n      lt\n      tag_153\n      jumpi\n      mstore(0x00, 0x4e487b7100000000000000000000000000000000000000000000000000000000)\n      mstore(0x04, 0x32)\n      revert(0x00, 0x24)\n    tag_153:\n      swap1\n      0x00\n      mstore\n      keccak256(0x00, 0x20)\n      swap1\n      0x03\n      mul\n      add\n        /* \"blockpedia.sol\":3492:3540  paginas[indexPagina].versoes[indexVersoes].ativo */\n      0x00\n      add\n      0x00\n      swap1\n      sload\n      swap1\n      0x0100\n      exp\n      swap1\n      div\n      0xff\n      and\n        /* \"blockpedia.sol\":3489:3549  if(paginas[indexPagina].versoes[indexVersoes].ativo) return; */\n      iszero\n      tag_155\n      jumpi\n        /* \"blockpedia.sol\":3542:3549  return; */\n      jump(tag_135)\n        /* \"blockpedia.sol\":3489:3549  if(paginas[indexPagina].versoes[indexVersoes].ativo) return; */\n    tag_155:\n        /* \"blockpedia.sol\":3566:3572  uint i */\n      0x00\n        /* \"blockpedia.sol\":3575:3582  paginas */\n      0x02\n        /* \"blockpedia.sol\":3583:3594  indexPagina */\n      dup4\n        /* \"blockpedia.sol\":3575:3595  paginas[indexPagina] */\n      dup2\n      sload\n      dup2\n      lt\n      tag_159\n      jumpi\n      mstore(0x00, 0x4e487b7100000000000000000000000000000000000000000000000000000000)\n      mstore(0x04, 0x32)\n      revert(0x00, 0x24)\n    tag_159:\n      swap1\n      0x00\n      mstore\n      keccak256(0x00, 0x20)\n      swap1\n      0x04\n      mul\n      add\n        /* \"blockpedia.sol\":3575:3603  paginas[indexPagina].versoes */\n      0x03\n      add\n        /* \"blockpedia.sol\":3575:3610  paginas[indexPagina].versoes.length */\n      dup1\n      sload\n      swap1\n      pop\n        /* \"blockpedia.sol\":3566:3610  uint i = paginas[indexPagina].versoes.length */\n      swap1\n      pop\n        /* \"blockpedia.sol\":3561:3875  for (uint i = paginas[indexPagina].versoes.length; i > 0; i--)\r... */\n    tag_156:\n        /* \"blockpedia.sol\":3616:3617  0 */\n      0x00\n        /* \"blockpedia.sol\":3612:3613  i */\n      dup2\n        /* \"blockpedia.sol\":3612:3617  i > 0 */\n      gt\n        /* \"blockpedia.sol\":3561:3875  for (uint i = paginas[indexPagina].versoes.length; i > 0; i--)\r... */\n      iszero\n      tag_157\n      jumpi\n        /* \"blockpedia.sol\":3648:3663  uint indexAtual */\n      0x00\n        /* \"blockpedia.sol\":3670:3671  1 */\n      0x01\n        /* \"blockpedia.sol\":3666:3667  i */\n      dup3\n        /* \"blockpedia.sol\":3666:3671  i - 1 */\n      tag_161\n      swap2\n      swap1\n      tag_162\n      jump\t// in\n    tag_161:\n        /* \"blockpedia.sol\":3648:3671  uint indexAtual = i - 1 */\n      swap1\n      pop\n        /* \"blockpedia.sol\":3690:3697  paginas */\n      0x02\n        /* \"blockpedia.sol\":3698:3709  indexPagina */\n      dup5\n        /* \"blockpedia.sol\":3690:3710  paginas[indexPagina] */\n      dup2\n      sload\n      dup2\n      lt\n      tag_163\n      jumpi\n      mstore(0x00, 0x4e487b7100000000000000000000000000000000000000000000000000000000)\n      mstore(0x04, 0x32)\n      revert(0x00, 0x24)\n    tag_163:\n      swap1\n      0x00\n      mstore\n      keccak256(0x00, 0x20)\n      swap1\n      0x04\n      mul\n      add\n        /* \"blockpedia.sol\":3690:3718  paginas[indexPagina].versoes */\n      0x03\n      add\n        /* \"blockpedia.sol\":3719:3729  indexAtual */\n      dup2\n        /* \"blockpedia.sol\":3690:3730  paginas[indexPagina].versoes[indexAtual] */\n      dup2\n      sload\n      dup2\n      lt\n      tag_165\n      jumpi\n      mstore(0x00, 0x4e487b7100000000000000000000000000000000000000000000000000000000)\n      mstore(0x04, 0x32)\n      revert(0x00, 0x24)\n    tag_165:\n      swap1\n      0x00\n      mstore\n      keccak256(0x00, 0x20)\n      swap1\n      0x03\n      mul\n      add\n        /* \"blockpedia.sol\":3690:3736  paginas[indexPagina].versoes[indexAtual].ativo */\n      0x00\n      add\n      0x00\n      swap1\n      sload\n      swap1\n      0x0100\n      exp\n      swap1\n      div\n      0xff\n      and\n        /* \"blockpedia.sol\":3686:3864  if (paginas[indexPagina].versoes[indexAtual].ativo)\r... */\n      iszero\n      tag_167\n      jumpi\n        /* \"blockpedia.sol\":3819:3824  false */\n      0x00\n        /* \"blockpedia.sol\":3770:3777  paginas */\n      0x02\n        /* \"blockpedia.sol\":3778:3789  indexPagina */\n      dup6\n        /* \"blockpedia.sol\":3770:3790  paginas[indexPagina] */\n      dup2\n      sload\n      dup2\n      lt\n      tag_168\n      jumpi\n      mstore(0x00, 0x4e487b7100000000000000000000000000000000000000000000000000000000)\n      mstore(0x04, 0x32)\n      revert(0x00, 0x24)\n    tag_168:\n      swap1\n      0x00\n      mstore\n      keccak256(0x00, 0x20)\n      swap1\n      0x04\n      mul\n      add\n        /* \"blockpedia.sol\":3770:3798  paginas[indexPagina].versoes */\n      0x03\n      add\n        /* \"blockpedia.sol\":3799:3809  indexAtual */\n      dup3\n        /* \"blockpedia.sol\":3770:3810  paginas[indexPagina].versoes[indexAtual] */\n      dup2\n      sload\n      dup2\n      lt\n      tag_170\n      jumpi\n      mstore(0x00, 0x4e487b7100000000000000000000000000000000000000000000000000000000)\n      mstore(0x04, 0x32)\n      revert(0x00, 0x24)\n    tag_170:\n      swap1\n      0x00\n      mstore\n      keccak256(0x00, 0x20)\n      swap1\n      0x03\n      mul\n      add\n        /* \"blockpedia.sol\":3770:3816  paginas[indexPagina].versoes[indexAtual].ativo */\n      0x00\n      add\n      0x00\n        /* \"blockpedia.sol\":3770:3824  paginas[indexPagina].versoes[indexAtual].ativo = false */\n      0x0100\n      exp\n      dup2\n      sload\n      dup2\n      0xff\n      mul\n      not\n      and\n      swap1\n      dup4\n      iszero\n      iszero\n      mul\n      or\n      swap1\n      sstore\n      pop\n        /* \"blockpedia.sol\":3843:3848  break */\n      pop\n      jump(tag_157)\n        /* \"blockpedia.sol\":3686:3864  if (paginas[indexPagina].versoes[indexAtual].ativo)\r... */\n    tag_167:\n        /* \"blockpedia.sol\":3561:3875  for (uint i = paginas[indexPagina].versoes.length; i > 0; i--)\r... */\n      pop\n        /* \"blockpedia.sol\":3619:3622  i-- */\n      dup1\n      dup1\n      tag_172\n      swap1\n      tag_173\n      jump\t// in\n    tag_172:\n      swap2\n      pop\n      pop\n        /* \"blockpedia.sol\":3561:3875  for (uint i = paginas[indexPagina].versoes.length; i > 0; i--)\r... */\n      jump(tag_156)\n    tag_157:\n      pop\n        /* \"blockpedia.sol\":3938:3942  true */\n      0x01\n        /* \"blockpedia.sol\":3887:3894  paginas */\n      0x02\n        /* \"blockpedia.sol\":3895:3906  indexPagina */\n      dup4\n        /* \"blockpedia.sol\":3887:3907  paginas[indexPagina] */\n      dup2\n      sload\n      dup2\n      lt\n      tag_174\n      jumpi\n      mstore(0x00, 0x4e487b7100000000000000000000000000000000000000000000000000000000)\n      mstore(0x04, 0x32)\n      revert(0x00, 0x24)\n    tag_174:\n      swap1\n      0x00\n      mstore\n      keccak256(0x00, 0x20)\n      swap1\n      0x04\n      mul\n      add\n        /* \"blockpedia.sol\":3887:3915  paginas[indexPagina].versoes */\n      0x03\n      add\n        /* \"blockpedia.sol\":3916:3928  indexVersoes */\n      dup3\n        /* \"blockpedia.sol\":3887:3929  paginas[indexPagina].versoes[indexVersoes] */\n      dup2\n      sload\n      dup2\n      lt\n      tag_176\n      jumpi\n      mstore(0x00, 0x4e487b7100000000000000000000000000000000000000000000000000000000)\n      mstore(0x04, 0x32)\n      revert(0x00, 0x24)\n    tag_176:\n      swap1\n      0x00\n      mstore\n      keccak256(0x00, 0x20)\n      swap1\n      0x03\n      mul\n      add\n        /* \"blockpedia.sol\":3887:3935  paginas[indexPagina].versoes[indexVersoes].ativo */\n      0x00\n      add\n      0x00\n        /* \"blockpedia.sol\":3887:3942  paginas[indexPagina].versoes[indexVersoes].ativo = true */\n      0x0100\n      exp\n      dup2\n      sload\n      dup2\n      0xff\n      mul\n      not\n      and\n      swap1\n      dup4\n      iszero\n      iszero\n      mul\n      or\n      swap1\n      sstore\n      pop\n        /* \"blockpedia.sol\":2975:3950  function ativaVersaoPorIndexVersoesEIndexPaginas(uint indexPagina, uint indexVersoes) public\r... */\n    tag_135:\n      pop\n      pop\n      jump\t// out\n        /* \"blockpedia.sol\":89:113  bool public ativo = true */\n    tag_49:\n      0x00\n      dup1\n      sload\n      swap1\n      0x0100\n      exp\n      swap1\n      div\n      0xff\n      and\n      dup2\n      jump\t// out\n        /* \"blockpedia.sol\":4317:4771  function ativaPaginaPorIndexPaginas(uint indexPagina)public\r... */\n    tag_54:\n        /* \"blockpedia.sol\":4401:4406  ativo */\n      0x00\n      dup1\n      sload\n      swap1\n      0x0100\n      exp\n      swap1\n      div\n      0xff\n      and\n        /* \"blockpedia.sol\":4393:4478  require(ativo, \"A ativacao de paginas so e permitida quando a Blockpedia esta ativa\") */\n      tag_179\n      jumpi\n      mload(0x40)\n      0x08c379a000000000000000000000000000000000000000000000000000000000\n      dup2\n      mstore\n      0x04\n      add\n      tag_180\n      swap1\n      tag_181\n      jump\t// in\n    tag_180:\n      mload(0x40)\n      dup1\n      swap2\n      sub\n      swap1\n      revert\n    tag_179:\n        /* \"blockpedia.sol\":4511:4518  paginas */\n      0x02\n        /* \"blockpedia.sol\":4511:4525  paginas.length */\n      dup1\n      sload\n      swap1\n      pop\n        /* \"blockpedia.sol\":4497:4508  indexPagina */\n      dup2\n        /* \"blockpedia.sol\":4497:4525  indexPagina < paginas.length */\n      lt\n        /* \"blockpedia.sol\":4489:4562  require(indexPagina < paginas.length, \"Indice da pagina fora do alcance\") */\n      tag_182\n      jumpi\n      mload(0x40)\n      0x08c379a000000000000000000000000000000000000000000000000000000000\n      dup2\n      mstore\n      0x04\n      add\n      tag_183\n      swap1\n      tag_140\n      jump\t// in\n    tag_183:\n      mload(0x40)\n      dup1\n      swap2\n      sub\n      swap1\n      revert\n    tag_182:\n        /* \"blockpedia.sol\":4582:4628  existeTituloAtivo(paginas[indexPagina].titulo) */\n      tag_184\n        /* \"blockpedia.sol\":4600:4607  paginas */\n      0x02\n        /* \"blockpedia.sol\":4608:4619  indexPagina */\n      dup3\n        /* \"blockpedia.sol\":4600:4620  paginas[indexPagina] */\n      dup2\n      sload\n      dup2\n      lt\n      tag_185\n      jumpi\n      mstore(0x00, 0x4e487b7100000000000000000000000000000000000000000000000000000000)\n      mstore(0x04, 0x32)\n      revert(0x00, 0x24)\n    tag_185:\n      swap1\n      0x00\n      mstore\n      keccak256(0x00, 0x20)\n      swap1\n      0x04\n      mul\n      add\n        /* \"blockpedia.sol\":4600:4627  paginas[indexPagina].titulo */\n      0x02\n      add\n        /* \"blockpedia.sol\":4582:4628  existeTituloAtivo(paginas[indexPagina].titulo) */\n      dup1\n      sload\n      tag_187\n      swap1\n      tag_95\n      jump\t// in\n    tag_187:\n      dup1\n      0x1f\n      add\n      0x20\n      dup1\n      swap2\n      div\n      mul\n      0x20\n      add\n      mload(0x40)\n      swap1\n      dup2\n      add\n      0x40\n      mstore\n      dup1\n      swap3\n      swap2\n      swap1\n      dup2\n      dup2\n      mstore\n      0x20\n      add\n      dup3\n      dup1\n      sload\n      tag_188\n      swap1\n      tag_95\n      jump\t// in\n    tag_188:\n      dup1\n      iszero\n      tag_189\n      jumpi\n      dup1\n      0x1f\n      lt\n      tag_190\n      jumpi\n      0x0100\n      dup1\n      dup4\n      sload\n      div\n      mul\n      dup4\n      mstore\n      swap2\n      0x20\n      add\n      swap2\n      jump(tag_189)\n    tag_190:\n      dup3\n      add\n      swap2\n      swap1\n      0x00\n      mstore\n      keccak256(0x00, 0x20)\n      swap1\n    tag_191:\n      dup2\n      sload\n      dup2\n      mstore\n      swap1\n      0x01\n      add\n      swap1\n      0x20\n      add\n      dup1\n      dup4\n      gt\n      tag_191\n      jumpi\n      dup3\n      swap1\n      sub\n      0x1f\n      and\n      dup3\n      add\n      swap2\n    tag_189:\n      pop\n      pop\n      pop\n      pop\n      pop\n        /* \"blockpedia.sol\":4582:4599  existeTituloAtivo */\n      tag_76\n        /* \"blockpedia.sol\":4582:4628  existeTituloAtivo(paginas[indexPagina].titulo) */\n      jump\t// in\n    tag_184:\n        /* \"blockpedia.sol\":4581:4628  !existeTituloAtivo(paginas[indexPagina].titulo) */\n      iszero\n        /* \"blockpedia.sol\":4573:4671  require(!existeTituloAtivo(paginas[indexPagina].titulo), \"Ja existe pagina ativa com este titulo\") */\n      tag_192\n      jumpi\n      mload(0x40)\n      0x08c379a000000000000000000000000000000000000000000000000000000000\n      dup2\n      mstore\n      0x04\n      add\n      tag_193\n      swap1\n      tag_79\n      jump\t// in\n    tag_193:\n      mload(0x40)\n      dup1\n      swap2\n      sub\n      swap1\n      revert\n    tag_192:\n        /* \"blockpedia.sol\":4687:4694  paginas */\n      0x02\n        /* \"blockpedia.sol\":4695:4706  indexPagina */\n      dup2\n        /* \"blockpedia.sol\":4687:4707  paginas[indexPagina] */\n      dup2\n      sload\n      dup2\n      lt\n      tag_194\n      jumpi\n      mstore(0x00, 0x4e487b7100000000000000000000000000000000000000000000000000000000)\n      mstore(0x04, 0x32)\n      revert(0x00, 0x24)\n    tag_194:\n      swap1\n      0x00\n      mstore\n      keccak256(0x00, 0x20)\n      swap1\n      0x04\n      mul\n      add\n        /* \"blockpedia.sol\":4687:4713  paginas[indexPagina].ativo */\n      0x00\n      add\n      0x00\n      swap1\n      sload\n      swap1\n      0x0100\n      exp\n      swap1\n      div\n      0xff\n      and\n        /* \"blockpedia.sol\":4684:4722  if(paginas[indexPagina].ativo) return; */\n      iszero\n      tag_196\n      jumpi\n        /* \"blockpedia.sol\":4715:4722  return; */\n      jump(tag_178)\n        /* \"blockpedia.sol\":4684:4722  if(paginas[indexPagina].ativo) return; */\n    tag_196:\n        /* \"blockpedia.sol\":4759:4763  true */\n      0x01\n        /* \"blockpedia.sol\":4732:4739  paginas */\n      0x02\n        /* \"blockpedia.sol\":4740:4751  indexPagina */\n      dup3\n        /* \"blockpedia.sol\":4732:4752  paginas[indexPagina] */\n      dup2\n      sload\n      dup2\n      lt\n      tag_197\n      jumpi\n      mstore(0x00, 0x4e487b7100000000000000000000000000000000000000000000000000000000)\n      mstore(0x04, 0x32)\n      revert(0x00, 0x24)\n    tag_197:\n      swap1\n      0x00\n      mstore\n      keccak256(0x00, 0x20)\n      swap1\n      0x04\n      mul\n      add\n        /* \"blockpedia.sol\":4732:4758  paginas[indexPagina].ativo */\n      0x00\n      add\n      0x00\n        /* \"blockpedia.sol\":4732:4763  paginas[indexPagina].ativo=true */\n      0x0100\n      exp\n      dup2\n      sload\n      dup2\n      0xff\n      mul\n      not\n      and\n      swap1\n      dup4\n      iszero\n      iszero\n      mul\n      or\n      swap1\n      sstore\n      pop\n        /* \"blockpedia.sol\":4317:4771  function ativaPaginaPorIndexPaginas(uint indexPagina)public\r... */\n    tag_178:\n      pop\n      jump\t// out\n        /* \"blockpedia.sol\":2367:2967  function adicionaNovaVercaoDesativadaAPaginaPorIndexPaginas(uint index, string memory conteudo) public\r... */\n    tag_58:\n        /* \"blockpedia.sol\":2494:2499  ativo */\n      0x00\n      dup1\n      sload\n      swap1\n      0x0100\n      exp\n      swap1\n      div\n      0xff\n      and\n        /* \"blockpedia.sol\":2486:2575  require(ativo, \"A adicao de novas paginas so e permitida quando a Blockpedia esta ativa\") */\n      tag_200\n      jumpi\n      mload(0x40)\n      0x08c379a000000000000000000000000000000000000000000000000000000000\n      dup2\n      mstore\n      0x04\n      add\n      tag_201\n      swap1\n      tag_74\n      jump\t// in\n    tag_201:\n      mload(0x40)\n      dup1\n      swap2\n      sub\n      swap1\n      revert\n    tag_200:\n        /* \"blockpedia.sol\":2602:2609  paginas */\n      0x02\n        /* \"blockpedia.sol\":2602:2616  paginas.length */\n      dup1\n      sload\n      swap1\n      pop\n        /* \"blockpedia.sol\":2594:2599  index */\n      dup3\n        /* \"blockpedia.sol\":2594:2616  index < paginas.length */\n      lt\n        /* \"blockpedia.sol\":2586:2643  require(index < paginas.length, \"Indice fora do alcance\") */\n      tag_202\n      jumpi\n      mload(0x40)\n      0x08c379a000000000000000000000000000000000000000000000000000000000\n      dup2\n      mstore\n      0x04\n      add\n      tag_203\n      swap1\n      tag_117\n      jump\t// in\n    tag_203:\n      mload(0x40)\n      dup1\n      swap2\n      sub\n      swap1\n      revert\n    tag_202:\n        /* \"blockpedia.sol\":2662:2669  paginas */\n      0x02\n        /* \"blockpedia.sol\":2670:2675  index */\n      dup3\n        /* \"blockpedia.sol\":2662:2676  paginas[index] */\n      dup2\n      sload\n      dup2\n      lt\n      tag_204\n      jumpi\n      mstore(0x00, 0x4e487b7100000000000000000000000000000000000000000000000000000000)\n      mstore(0x04, 0x32)\n      revert(0x00, 0x24)\n    tag_204:\n      swap1\n      0x00\n      mstore\n      keccak256(0x00, 0x20)\n      swap1\n      0x04\n      mul\n      add\n        /* \"blockpedia.sol\":2662:2682  paginas[index].ativo */\n      0x00\n      add\n      0x00\n      swap1\n      sload\n      swap1\n      0x0100\n      exp\n      swap1\n      div\n      0xff\n      and\n        /* \"blockpedia.sol\":2654:2754  require(paginas[index].ativo, \"A adicao de novas vercoes so e permitida quando a pagina esta ativa\") */\n      tag_206\n      jumpi\n      mload(0x40)\n      0x08c379a000000000000000000000000000000000000000000000000000000000\n      dup2\n      mstore\n      0x04\n      add\n      tag_207\n      swap1\n      tag_208\n      jump\t// in\n    tag_207:\n      mload(0x40)\n      dup1\n      swap2\n      sub\n      swap1\n      revert\n    tag_206:\n        /* \"blockpedia.sol\":2775:2782  paginas */\n      0x02\n        /* \"blockpedia.sol\":2783:2788  index */\n      dup3\n        /* \"blockpedia.sol\":2775:2789  paginas[index] */\n      dup2\n      sload\n      dup2\n      lt\n      tag_209\n      jumpi\n      mstore(0x00, 0x4e487b7100000000000000000000000000000000000000000000000000000000)\n      mstore(0x04, 0x32)\n      revert(0x00, 0x24)\n    tag_209:\n      swap1\n      0x00\n      mstore\n      keccak256(0x00, 0x20)\n      swap1\n      0x04\n      mul\n      add\n        /* \"blockpedia.sol\":2775:2797  paginas[index].versoes */\n      0x03\n      add\n        /* \"blockpedia.sol\":2803:2958  Versao({\r... */\n      mload(0x40)\n      dup1\n      0x80\n      add\n      0x40\n      mstore\n      dup1\n        /* \"blockpedia.sol\":2832:2837  false */\n      0x00\n        /* \"blockpedia.sol\":2803:2958  Versao({\r... */\n      iszero\n      iszero\n      dup2\n      mstore\n      0x20\n      add\n        /* \"blockpedia.sol\":2859:2869  msg.sender */\n      caller\n        /* \"blockpedia.sol\":2803:2958  Versao({\r... */\n      0xffffffffffffffffffffffffffffffffffffffff\n      and\n      dup2\n      mstore\n      0x20\n      add\n        /* \"blockpedia.sol\":2898:2913  block.timestamp */\n      timestamp\n        /* \"blockpedia.sol\":2803:2958  Versao({\r... */\n      dup2\n      mstore\n      0x20\n      add\n        /* \"blockpedia.sol\":2938:2946  conteudo */\n      dup4\n        /* \"blockpedia.sol\":2803:2958  Versao({\r... */\n      dup2\n      mstore\n      pop\n        /* \"blockpedia.sol\":2775:2959  paginas[index].versoes.push(Versao({\r... */\n      swap1\n      dup1\n      0x01\n      dup2\n      sload\n      add\n      dup1\n      dup3\n      sstore\n      dup1\n      swap2\n      pop\n      pop\n      0x01\n      swap1\n      sub\n      swap1\n      0x00\n      mstore\n      keccak256(0x00, 0x20)\n      swap1\n      0x03\n      mul\n      add\n      0x00\n      swap1\n      swap2\n      swap1\n      swap2\n      swap1\n      swap2\n      pop\n      0x00\n      dup3\n      add\n      mload\n      dup2\n      0x00\n      add\n      exp(0x0100, 0x00)\n      dup2\n      sload\n      dup2\n      0xff\n      mul\n      not\n      and\n      swap1\n      dup4\n      iszero\n      iszero\n      mul\n      or\n      swap1\n      sstore\n      pop\n      0x20\n      dup3\n      add\n      mload\n      dup2\n      0x00\n      add\n      exp(0x0100, 0x01)\n      dup2\n      sload\n      dup2\n      0xffffffffffffffffffffffffffffffffffffffff\n      mul\n      not\n      and\n      swap1\n      dup4\n      0xffffffffffffffffffffffffffffffffffffffff\n      and\n      mul\n      or\n      swap1\n      sstore\n      pop\n      0x40\n      dup3\n      add\n      mload\n      dup2\n      0x01\n      add\n      sstore\n      0x60\n      dup3\n      add\n      mload\n      dup2\n      0x02\n      add\n      swap1\n      dup1\n      mload\n      swap1\n      0x20\n      add\n      swap1\n      tag_212\n      swap3\n      swap2\n      swap1\n      tag_82\n      jump\t// in\n    tag_212:\n      pop\n      pop\n      pop\n        /* \"blockpedia.sol\":2367:2967  function adicionaNovaVercaoDesativadaAPaginaPorIndexPaginas(uint index, string memory conteudo) public\r... */\n      pop\n      pop\n      jump\t// out\n        /* \"blockpedia.sol\":3958:4309  function desativaPaginaPorIndexPaginas(uint indexPagina)public\r... */\n    tag_61:\n        /* \"blockpedia.sol\":4045:4050  ativo */\n      0x00\n      dup1\n      sload\n      swap1\n      0x0100\n      exp\n      swap1\n      div\n      0xff\n      and\n        /* \"blockpedia.sol\":4037:4125  require(ativo, \"A desativacao de paginas so e permitida quando a Blockpedia esta ativa\") */\n      tag_214\n      jumpi\n      mload(0x40)\n      0x08c379a000000000000000000000000000000000000000000000000000000000\n      dup2\n      mstore\n      0x04\n      add\n      tag_215\n      swap1\n      tag_216\n      jump\t// in\n    tag_215:\n      mload(0x40)\n      dup1\n      swap2\n      sub\n      swap1\n      revert\n    tag_214:\n        /* \"blockpedia.sol\":4158:4165  paginas */\n      0x02\n        /* \"blockpedia.sol\":4158:4172  paginas.length */\n      dup1\n      sload\n      swap1\n      pop\n        /* \"blockpedia.sol\":4144:4155  indexPagina */\n      dup2\n        /* \"blockpedia.sol\":4144:4172  indexPagina < paginas.length */\n      lt\n        /* \"blockpedia.sol\":4136:4209  require(indexPagina < paginas.length, \"Indice da pagina fora do alcance\") */\n      tag_217\n      jumpi\n      mload(0x40)\n      0x08c379a000000000000000000000000000000000000000000000000000000000\n      dup2\n      mstore\n      0x04\n      add\n      tag_218\n      swap1\n      tag_140\n      jump\t// in\n    tag_218:\n      mload(0x40)\n      dup1\n      swap2\n      sub\n      swap1\n      revert\n    tag_217:\n        /* \"blockpedia.sol\":4224:4231  paginas */\n      0x02\n        /* \"blockpedia.sol\":4232:4243  indexPagina */\n      dup2\n        /* \"blockpedia.sol\":4224:4244  paginas[indexPagina] */\n      dup2\n      sload\n      dup2\n      lt\n      tag_219\n      jumpi\n      mstore(0x00, 0x4e487b7100000000000000000000000000000000000000000000000000000000)\n      mstore(0x04, 0x32)\n      revert(0x00, 0x24)\n    tag_219:\n      swap1\n      0x00\n      mstore\n      keccak256(0x00, 0x20)\n      swap1\n      0x04\n      mul\n      add\n        /* \"blockpedia.sol\":4224:4250  paginas[indexPagina].ativo */\n      0x00\n      add\n      0x00\n      swap1\n      sload\n      swap1\n      0x0100\n      exp\n      swap1\n      div\n      0xff\n      and\n        /* \"blockpedia.sol\":4220:4259  if(!paginas[indexPagina].ativo) return; */\n      tag_221\n      jumpi\n        /* \"blockpedia.sol\":4252:4259  return; */\n      jump(tag_213)\n        /* \"blockpedia.sol\":4220:4259  if(!paginas[indexPagina].ativo) return; */\n    tag_221:\n        /* \"blockpedia.sol\":4296:4301  false */\n      0x00\n        /* \"blockpedia.sol\":4269:4276  paginas */\n      0x02\n        /* \"blockpedia.sol\":4277:4288  indexPagina */\n      dup3\n        /* \"blockpedia.sol\":4269:4289  paginas[indexPagina] */\n      dup2\n      sload\n      dup2\n      lt\n      tag_222\n      jumpi\n      mstore(0x00, 0x4e487b7100000000000000000000000000000000000000000000000000000000)\n      mstore(0x04, 0x32)\n      revert(0x00, 0x24)\n    tag_222:\n      swap1\n      0x00\n      mstore\n      keccak256(0x00, 0x20)\n      swap1\n      0x04\n      mul\n      add\n        /* \"blockpedia.sol\":4269:4295  paginas[indexPagina].ativo */\n      0x00\n      add\n      0x00\n        /* \"blockpedia.sol\":4269:4301  paginas[indexPagina].ativo=false */\n      0x0100\n      exp\n      dup2\n      sload\n      dup2\n      0xff\n      mul\n      not\n      and\n      swap1\n      dup4\n      iszero\n      iszero\n      mul\n      or\n      swap1\n      sstore\n      pop\n        /* \"blockpedia.sol\":3958:4309  function desativaPaginaPorIndexPaginas(uint indexPagina)public\r... */\n    tag_213:\n      pop\n      jump\t// out\n        /* \"blockpedia.sol\":200:223  Pagina[] public paginas */\n    tag_64:\n      0x02\n      dup2\n      dup2\n      sload\n      dup2\n      lt\n      tag_224\n      jumpi\n      0x00\n      dup1\n      revert\n    tag_224:\n      swap1\n      0x00\n      mstore\n      keccak256(0x00, 0x20)\n      swap1\n      0x04\n      mul\n      add\n      0x00\n      swap2\n      pop\n      swap1\n      pop\n      dup1\n      0x00\n      add\n      0x00\n      swap1\n      sload\n      swap1\n      0x0100\n      exp\n      swap1\n      div\n      0xff\n      and\n      swap1\n      dup1\n      0x00\n      add\n      0x01\n      swap1\n      sload\n      swap1\n      0x0100\n      exp\n      swap1\n      div\n      0xffffffffffffffffffffffffffffffffffffffff\n      and\n      swap1\n      dup1\n      0x01\n      add\n      sload\n      swap1\n      dup1\n      0x02\n      add\n      dup1\n      sload\n      tag_226\n      swap1\n      tag_95\n      jump\t// in\n    tag_226:\n      dup1\n      0x1f\n      add\n      0x20\n      dup1\n      swap2\n      div\n      mul\n      0x20\n      add\n      mload(0x40)\n      swap1\n      dup2\n      add\n      0x40\n      mstore\n      dup1\n      swap3\n      swap2\n      swap1\n      dup2\n      dup2\n      mstore\n      0x20\n      add\n      dup3\n      dup1\n      sload\n      tag_227\n      swap1\n      tag_95\n      jump\t// in\n    tag_227:\n      dup1\n      iszero\n      tag_228\n      jumpi\n      dup1\n      0x1f\n      lt\n      tag_229\n      jumpi\n      0x0100\n      dup1\n      dup4\n      sload\n      div\n      mul\n      dup4\n      mstore\n      swap2\n      0x20\n      add\n      swap2\n      jump(tag_228)\n    tag_229:\n      dup3\n      add\n      swap2\n      swap1\n      0x00\n      mstore\n      keccak256(0x00, 0x20)\n      swap1\n    tag_230:\n      dup2\n      sload\n      dup2\n      mstore\n      swap1\n      0x01\n      add\n      swap1\n      0x20\n      add\n      dup1\n      dup4\n      gt\n      tag_230\n      jumpi\n      dup3\n      swap1\n      sub\n      0x1f\n      and\n      dup3\n      add\n      swap2\n    tag_228:\n      pop\n      pop\n      pop\n      pop\n      pop\n      swap1\n      pop\n      dup5\n      jump\t// out\n        /* \"blockpedia.sol\":1472:1769  function existeTituloAtivo(string memory titulo) internal view returns (bool)\r... */\n    tag_76:\n        /* \"blockpedia.sol\":1544:1548  bool */\n      0x00\n        /* \"blockpedia.sol\":1571:1577  uint i */\n      dup1\n        /* \"blockpedia.sol\":1580:1581  0 */\n      0x00\n        /* \"blockpedia.sol\":1571:1581  uint i = 0 */\n      swap1\n      pop\n        /* \"blockpedia.sol\":1566:1739  for (uint i = 0; i < paginas.length; i++)\r... */\n    tag_232:\n        /* \"blockpedia.sol\":1587:1594  paginas */\n      0x02\n        /* \"blockpedia.sol\":1587:1601  paginas.length */\n      dup1\n      sload\n      swap1\n      pop\n        /* \"blockpedia.sol\":1583:1584  i */\n      dup2\n        /* \"blockpedia.sol\":1583:1601  i < paginas.length */\n      lt\n        /* \"blockpedia.sol\":1566:1739  for (uint i = 0; i < paginas.length; i++)\r... */\n      iszero\n      tag_233\n      jumpi\n        /* \"blockpedia.sol\":1636:1643  paginas */\n      0x02\n        /* \"blockpedia.sol\":1644:1645  i */\n      dup2\n        /* \"blockpedia.sol\":1636:1646  paginas[i] */\n      dup2\n      sload\n      dup2\n      lt\n      tag_235\n      jumpi\n      mstore(0x00, 0x4e487b7100000000000000000000000000000000000000000000000000000000)\n      mstore(0x04, 0x32)\n      revert(0x00, 0x24)\n    tag_235:\n      swap1\n      0x00\n      mstore\n      keccak256(0x00, 0x20)\n      swap1\n      0x04\n      mul\n      add\n        /* \"blockpedia.sol\":1636:1652  paginas[i].ativo */\n      0x00\n      add\n      0x00\n      swap1\n      sload\n      swap1\n      0x0100\n      exp\n      swap1\n      div\n      0xff\n      and\n        /* \"blockpedia.sol\":1632:1727  if (paginas[i].ativo)\r... */\n      iszero\n      tag_237\n      jumpi\n        /* \"blockpedia.sol\":1675:1715  comparaString(paginas[i].titulo, titulo) */\n      tag_238\n        /* \"blockpedia.sol\":1689:1696  paginas */\n      0x02\n        /* \"blockpedia.sol\":1697:1698  i */\n      dup3\n        /* \"blockpedia.sol\":1689:1699  paginas[i] */\n      dup2\n      sload\n      dup2\n      lt\n      tag_239\n      jumpi\n      mstore(0x00, 0x4e487b7100000000000000000000000000000000000000000000000000000000)\n      mstore(0x04, 0x32)\n      revert(0x00, 0x24)\n    tag_239:\n      swap1\n      0x00\n      mstore\n      keccak256(0x00, 0x20)\n      swap1\n      0x04\n      mul\n      add\n        /* \"blockpedia.sol\":1689:1706  paginas[i].titulo */\n      0x02\n      add\n        /* \"blockpedia.sol\":1675:1715  comparaString(paginas[i].titulo, titulo) */\n      dup1\n      sload\n      tag_241\n      swap1\n      tag_95\n      jump\t// in\n    tag_241:\n      dup1\n      0x1f\n      add\n      0x20\n      dup1\n      swap2\n      div\n      mul\n      0x20\n      add\n      mload(0x40)\n      swap1\n      dup2\n      add\n      0x40\n      mstore\n      dup1\n      swap3\n      swap2\n      swap1\n      dup2\n      dup2\n      mstore\n      0x20\n      add\n      dup3\n      dup1\n      sload\n      tag_242\n      swap1\n      tag_95\n      jump\t// in\n    tag_242:\n      dup1\n      iszero\n      tag_243\n      jumpi\n      dup1\n      0x1f\n      lt\n      tag_244\n      jumpi\n      0x0100\n      dup1\n      dup4\n      sload\n      div\n      mul\n      dup4\n      mstore\n      swap2\n      0x20\n      add\n      swap2\n      jump(tag_243)\n    tag_244:\n      dup3\n      add\n      swap2\n      swap1\n      0x00\n      mstore\n      keccak256(0x00, 0x20)\n      swap1\n    tag_245:\n      dup2\n      sload\n      dup2\n      mstore\n      swap1\n      0x01\n      add\n      swap1\n      0x20\n      add\n      dup1\n      dup4\n      gt\n      tag_245\n      jumpi\n      dup3\n      swap1\n      sub\n      0x1f\n      and\n      dup3\n      add\n      swap2\n    tag_243:\n      pop\n      pop\n      pop\n      pop\n      pop\n        /* \"blockpedia.sol\":1708:1714  titulo */\n      dup5\n        /* \"blockpedia.sol\":1675:1688  comparaString */\n      tag_100\n        /* \"blockpedia.sol\":1675:1715  comparaString(paginas[i].titulo, titulo) */\n      jump\t// in\n    tag_238:\n        /* \"blockpedia.sol\":1671:1727  if (comparaString(paginas[i].titulo, titulo))return true */\n      iszero\n      tag_246\n      jumpi\n        /* \"blockpedia.sol\":1723:1727  true */\n      0x01\n        /* \"blockpedia.sol\":1716:1727  return true */\n      swap2\n      pop\n      pop\n      jump(tag_231)\n        /* \"blockpedia.sol\":1671:1727  if (comparaString(paginas[i].titulo, titulo))return true */\n    tag_246:\n        /* \"blockpedia.sol\":1632:1727  if (paginas[i].ativo)\r... */\n    tag_237:\n        /* \"blockpedia.sol\":1603:1606  i++ */\n      dup1\n      dup1\n      tag_247\n      swap1\n      tag_104\n      jump\t// in\n    tag_247:\n      swap2\n      pop\n      pop\n        /* \"blockpedia.sol\":1566:1739  for (uint i = 0; i < paginas.length; i++)\r... */\n      jump(tag_232)\n    tag_233:\n      pop\n        /* \"blockpedia.sol\":1756:1761  false */\n      0x00\n        /* \"blockpedia.sol\":1749:1761  return false */\n      swap1\n      pop\n        /* \"blockpedia.sol\":1472:1769  function existeTituloAtivo(string memory titulo) internal view returns (bool)\r... */\n    tag_231:\n      swap2\n      swap1\n      pop\n      jump\t// out\n        /* \"blockpedia.sol\":5498:5966  function comparaString(string memory primeiraString, string memory segundaString)internal pure returns(bool)\r... */\n    tag_100:\n        /* \"blockpedia.sol\":5601:5605  bool */\n      0x00\n        /* \"blockpedia.sol\":5929:5942  segundaString */\n      dup2\n        /* \"blockpedia.sol\":5912:5943  abi.encodePacked(segundaString) */\n      add(0x20, mload(0x40))\n      tag_249\n      swap2\n      swap1\n      tag_250\n      jump\t// in\n    tag_249:\n      mload(0x40)\n      0x20\n      dup2\n      dup4\n      sub\n      sub\n      dup2\n      mstore\n      swap1\n      0x40\n      mstore\n        /* \"blockpedia.sol\":5902:5944  keccak256(abi.encodePacked(segundaString)) */\n      dup1\n      mload\n      swap1\n      0x20\n      add\n      keccak256\n        /* \"blockpedia.sol\":5882:5896  primeiraString */\n      dup4\n        /* \"blockpedia.sol\":5865:5897  abi.encodePacked(primeiraString) */\n      add(0x20, mload(0x40))\n      tag_251\n      swap2\n      swap1\n      tag_250\n      jump\t// in\n    tag_251:\n      mload(0x40)\n      0x20\n      dup2\n      dup4\n      sub\n      sub\n      dup2\n      mstore\n      swap1\n      0x40\n      mstore\n        /* \"blockpedia.sol\":5855:5898  keccak256(abi.encodePacked(primeiraString)) */\n      dup1\n      mload\n      swap1\n      0x20\n      add\n      keccak256\n        /* \"blockpedia.sol\":5855:5944  keccak256(abi.encodePacked(primeiraString)) == keccak256(abi.encodePacked(segundaString)) */\n      eq\n        /* \"blockpedia.sol\":5854:5958  (keccak256(abi.encodePacked(primeiraString)) == keccak256(abi.encodePacked(segundaString))) ? true:false */\n      tag_252\n      jumpi\n        /* \"blockpedia.sol\":5953:5958  false */\n      0x00\n        /* \"blockpedia.sol\":5854:5958  (keccak256(abi.encodePacked(primeiraString)) == keccak256(abi.encodePacked(segundaString))) ? true:false */\n      jump(tag_253)\n    tag_252:\n        /* \"blockpedia.sol\":5948:5952  true */\n      0x01\n        /* \"blockpedia.sol\":5854:5958  (keccak256(abi.encodePacked(primeiraString)) == keccak256(abi.encodePacked(segundaString))) ? true:false */\n    tag_253:\n        /* \"blockpedia.sol\":5847:5958  return (keccak256(abi.encodePacked(primeiraString)) == keccak256(abi.encodePacked(segundaString))) ? true:false */\n      swap1\n      pop\n        /* \"blockpedia.sol\":5498:5966  function comparaString(string memory primeiraString, string memory segundaString)internal pure returns(bool)\r... */\n      swap3\n      swap2\n      pop\n      pop\n      jump\t// out\n        /* \"blockpedia.sol\":2036:2359  function getVersaoValidaDeUmaPagina(Pagina memory pagina)internal pure returns (Versao memory)\r... */\n    tag_134:\n        /* \"blockpedia.sol\":2116:2129  Versao memory */\n      tag_254\n      tag_255\n      jump\t// in\n    tag_254:\n        /* \"blockpedia.sol\":2151:2157  uint i */\n      0x00\n        /* \"blockpedia.sol\":2147:2283  for(uint i = 0; i < pagina.versoes.length; i++)\r... */\n    tag_257:\n        /* \"blockpedia.sol\":2167:2173  pagina */\n      dup3\n        /* \"blockpedia.sol\":2167:2181  pagina.versoes */\n      0x80\n      add\n      mload\n        /* \"blockpedia.sol\":2167:2188  pagina.versoes.length */\n      mload\n        /* \"blockpedia.sol\":2163:2164  i */\n      dup2\n        /* \"blockpedia.sol\":2163:2188  i < pagina.versoes.length */\n      lt\n        /* \"blockpedia.sol\":2147:2283  for(uint i = 0; i < pagina.versoes.length; i++)\r... */\n      iszero\n      tag_258\n      jumpi\n        /* \"blockpedia.sol\":2222:2228  pagina */\n      dup3\n        /* \"blockpedia.sol\":2222:2236  pagina.versoes */\n      0x80\n      add\n      mload\n        /* \"blockpedia.sol\":2237:2238  i */\n      dup2\n        /* \"blockpedia.sol\":2222:2239  pagina.versoes[i] */\n      dup2\n      mload\n      dup2\n      lt\n      tag_260\n      jumpi\n      mstore(0x00, 0x4e487b7100000000000000000000000000000000000000000000000000000000)\n      mstore(0x04, 0x32)\n      revert(0x00, 0x24)\n    tag_260:\n      0x20\n      mul\n      0x20\n      add\n      add\n      mload\n        /* \"blockpedia.sol\":2222:2245  pagina.versoes[i].ativo */\n      0x00\n      add\n      mload\n        /* \"blockpedia.sol\":2219:2271  if(pagina.versoes[i].ativo) return pagina.versoes[i] */\n      iszero\n      tag_261\n      jumpi\n        /* \"blockpedia.sol\":2254:2260  pagina */\n      dup3\n        /* \"blockpedia.sol\":2254:2268  pagina.versoes */\n      0x80\n      add\n      mload\n        /* \"blockpedia.sol\":2269:2270  i */\n      dup2\n        /* \"blockpedia.sol\":2254:2271  pagina.versoes[i] */\n      dup2\n      mload\n      dup2\n      lt\n      tag_262\n      jumpi\n      mstore(0x00, 0x4e487b7100000000000000000000000000000000000000000000000000000000)\n      mstore(0x04, 0x32)\n      revert(0x00, 0x24)\n    tag_262:\n      0x20\n      mul\n      0x20\n      add\n      add\n      mload\n        /* \"blockpedia.sol\":2247:2271  return pagina.versoes[i] */\n      swap2\n      pop\n      pop\n      jump(tag_256)\n        /* \"blockpedia.sol\":2219:2271  if(pagina.versoes[i].ativo) return pagina.versoes[i] */\n    tag_261:\n        /* \"blockpedia.sol\":2190:2193  i++ */\n      dup1\n      dup1\n      tag_263\n      swap1\n      tag_104\n      jump\t// in\n    tag_263:\n      swap2\n      pop\n      pop\n        /* \"blockpedia.sol\":2147:2283  for(uint i = 0; i < pagina.versoes.length; i++)\r... */\n      jump(tag_257)\n    tag_258:\n      pop\n        /* \"blockpedia.sol\":2293:2351  revert(\"Nenhuma vercao ativa encontrada para esta pagina\") */\n      mload(0x40)\n      0x08c379a000000000000000000000000000000000000000000000000000000000\n      dup2\n      mstore\n      0x04\n      add\n      tag_264\n      swap1\n      tag_265\n      jump\t// in\n    tag_264:\n      mload(0x40)\n      dup1\n      swap2\n      sub\n      swap1\n      revert\n        /* \"blockpedia.sol\":2036:2359  function getVersaoValidaDeUmaPagina(Pagina memory pagina)internal pure returns (Versao memory)\r... */\n    tag_256:\n      swap2\n      swap1\n      pop\n      jump\t// out\n    tag_82:\n      dup3\n      dup1\n      sload\n      tag_266\n      swap1\n      tag_95\n      jump\t// in\n    tag_266:\n      swap1\n      0x00\n      mstore\n      keccak256(0x00, 0x20)\n      swap1\n      0x1f\n      add\n      0x20\n      swap1\n      div\n      dup2\n      add\n      swap3\n      dup3\n      tag_268\n      jumpi\n      0x00\n      dup6\n      sstore\n      jump(tag_267)\n    tag_268:\n      dup3\n      0x1f\n      lt\n      tag_269\n      jumpi\n      dup1\n      mload\n      not(0xff)\n      and\n      dup4\n      dup1\n      add\n      or\n      dup6\n      sstore\n      jump(tag_267)\n    tag_269:\n      dup3\n      dup1\n      add\n      0x01\n      add\n      dup6\n      sstore\n      dup3\n      iszero\n      tag_267\n      jumpi\n      swap2\n      dup3\n      add\n    tag_270:\n      dup3\n      dup2\n      gt\n      iszero\n      tag_271\n      jumpi\n      dup3\n      mload\n      dup3\n      sstore\n      swap2\n      0x20\n      add\n      swap2\n      swap1\n      0x01\n      add\n      swap1\n      jump(tag_270)\n    tag_271:\n    tag_267:\n      pop\n      swap1\n      pop\n      tag_272\n      swap2\n      swap1\n      tag_273\n      jump\t// in\n    tag_272:\n      pop\n      swap1\n      jump\t// out\n    tag_255:\n      mload(0x40)\n      dup1\n      0x80\n      add\n      0x40\n      mstore\n      dup1\n      iszero(iszero(0x00))\n      dup2\n      mstore\n      0x20\n      add\n      and(0xffffffffffffffffffffffffffffffffffffffff, 0x00)\n      dup2\n      mstore\n      0x20\n      add\n      0x00\n      dup2\n      mstore\n      0x20\n      add\n      0x60\n      dup2\n      mstore\n      pop\n      swap1\n      jump\t// out\n    tag_273:\n    tag_274:\n      dup1\n      dup3\n      gt\n      iszero\n      tag_275\n      jumpi\n      0x00\n      dup2\n      0x00\n      swap1\n      sstore\n      pop\n      0x01\n      add\n      jump(tag_274)\n    tag_275:\n      pop\n      swap1\n      jump\t// out\n        /* \"#utility.yul\":7:351   */\n    tag_277:\n      0x00\n        /* \"#utility.yul\":110:175   */\n      tag_279\n        /* \"#utility.yul\":125:174   */\n      tag_280\n        /* \"#utility.yul\":167:173   */\n      dup5\n        /* \"#utility.yul\":125:174   */\n      tag_281\n      jump\t// in\n    tag_280:\n        /* \"#utility.yul\":110:175   */\n      tag_282\n      jump\t// in\n    tag_279:\n        /* \"#utility.yul\":101:175   */\n      swap1\n      pop\n        /* \"#utility.yul\":198:204   */\n      dup3\n        /* \"#utility.yul\":191:196   */\n      dup2\n        /* \"#utility.yul\":184:205   */\n      mstore\n        /* \"#utility.yul\":236:240   */\n      0x20\n        /* \"#utility.yul\":229:234   */\n      dup2\n        /* \"#utility.yul\":225:241   */\n      add\n        /* \"#utility.yul\":274:277   */\n      dup5\n        /* \"#utility.yul\":265:271   */\n      dup5\n        /* \"#utility.yul\":260:263   */\n      dup5\n        /* \"#utility.yul\":256:272   */\n      add\n        /* \"#utility.yul\":253:278   */\n      gt\n        /* \"#utility.yul\":250:252   */\n      iszero\n      tag_283\n      jumpi\n        /* \"#utility.yul\":291:292   */\n      0x00\n        /* \"#utility.yul\":288:289   */\n      dup1\n        /* \"#utility.yul\":281:293   */\n      revert\n        /* \"#utility.yul\":250:252   */\n    tag_283:\n        /* \"#utility.yul\":304:345   */\n      tag_284\n        /* \"#utility.yul\":338:344   */\n      dup5\n        /* \"#utility.yul\":333:336   */\n      dup3\n        /* \"#utility.yul\":328:331   */\n      dup6\n        /* \"#utility.yul\":304:345   */\n      tag_285\n      jump\t// in\n    tag_284:\n        /* \"#utility.yul\":91:351   */\n      pop\n      swap4\n      swap3\n      pop\n      pop\n      pop\n      jump\t// out\n        /* \"#utility.yul\":357:490   */\n    tag_286:\n      0x00\n        /* \"#utility.yul\":438:444   */\n      dup2\n        /* \"#utility.yul\":425:445   */\n      calldataload\n        /* \"#utility.yul\":416:445   */\n      swap1\n      pop\n        /* \"#utility.yul\":454:484   */\n      tag_288\n        /* \"#utility.yul\":478:483   */\n      dup2\n        /* \"#utility.yul\":454:484   */\n      tag_289\n      jump\t// in\n    tag_288:\n        /* \"#utility.yul\":406:490   */\n      swap3\n      swap2\n      pop\n      pop\n      jump\t// out\n        /* \"#utility.yul\":510:783   */\n    tag_290:\n      0x00\n        /* \"#utility.yul\":615:618   */\n      dup3\n        /* \"#utility.yul\":608:612   */\n      0x1f\n        /* \"#utility.yul\":600:606   */\n      dup4\n        /* \"#utility.yul\":596:613   */\n      add\n        /* \"#utility.yul\":592:619   */\n      slt\n        /* \"#utility.yul\":582:584   */\n      tag_292\n      jumpi\n        /* \"#utility.yul\":633:634   */\n      0x00\n        /* \"#utility.yul\":630:631   */\n      dup1\n        /* \"#utility.yul\":623:635   */\n      revert\n        /* \"#utility.yul\":582:584   */\n    tag_292:\n        /* \"#utility.yul\":673:679   */\n      dup2\n        /* \"#utility.yul\":660:680   */\n      calldataload\n        /* \"#utility.yul\":698:777   */\n      tag_293\n        /* \"#utility.yul\":773:776   */\n      dup5\n        /* \"#utility.yul\":765:771   */\n      dup3\n        /* \"#utility.yul\":758:762   */\n      0x20\n        /* \"#utility.yul\":750:756   */\n      dup7\n        /* \"#utility.yul\":746:763   */\n      add\n        /* \"#utility.yul\":698:777   */\n      tag_277\n      jump\t// in\n    tag_293:\n        /* \"#utility.yul\":689:777   */\n      swap2\n      pop\n        /* \"#utility.yul\":572:783   */\n      pop\n      swap3\n      swap2\n      pop\n      pop\n      jump\t// out\n        /* \"#utility.yul\":789:928   */\n    tag_294:\n      0x00\n        /* \"#utility.yul\":873:879   */\n      dup2\n        /* \"#utility.yul\":860:880   */\n      calldataload\n        /* \"#utility.yul\":851:880   */\n      swap1\n      pop\n        /* \"#utility.yul\":889:922   */\n      tag_296\n        /* \"#utility.yul\":916:921   */\n      dup2\n        /* \"#utility.yul\":889:922   */\n      tag_297\n      jump\t// in\n    tag_296:\n        /* \"#utility.yul\":841:928   */\n      swap3\n      swap2\n      pop\n      pop\n      jump\t// out\n        /* \"#utility.yul\":934:1190   */\n    tag_22:\n      0x00\n        /* \"#utility.yul\":1039:1041   */\n      0x20\n        /* \"#utility.yul\":1027:1036   */\n      dup3\n        /* \"#utility.yul\":1018:1025   */\n      dup5\n        /* \"#utility.yul\":1014:1037   */\n      sub\n        /* \"#utility.yul\":1010:1042   */\n      slt\n        /* \"#utility.yul\":1007:1009   */\n      iszero\n      tag_299\n      jumpi\n        /* \"#utility.yul\":1055:1056   */\n      0x00\n        /* \"#utility.yul\":1052:1053   */\n      dup1\n        /* \"#utility.yul\":1045:1057   */\n      revert\n        /* \"#utility.yul\":1007:1009   */\n    tag_299:\n        /* \"#utility.yul\":1098:1099   */\n      0x00\n        /* \"#utility.yul\":1123:1173   */\n      tag_300\n        /* \"#utility.yul\":1165:1172   */\n      dup5\n        /* \"#utility.yul\":1156:1162   */\n      dup3\n        /* \"#utility.yul\":1145:1154   */\n      dup6\n        /* \"#utility.yul\":1141:1163   */\n      add\n        /* \"#utility.yul\":1123:1173   */\n      tag_286\n      jump\t// in\n    tag_300:\n        /* \"#utility.yul\":1113:1173   */\n      swap2\n      pop\n        /* \"#utility.yul\":1069:1183   */\n      pop\n        /* \"#utility.yul\":997:1190   */\n      swap3\n      swap2\n      pop\n      pop\n      jump\t// out\n        /* \"#utility.yul\":1196:1571   */\n    tag_30:\n      0x00\n        /* \"#utility.yul\":1314:1316   */\n      0x20\n        /* \"#utility.yul\":1302:1311   */\n      dup3\n        /* \"#utility.yul\":1293:1300   */\n      dup5\n        /* \"#utility.yul\":1289:1312   */\n      sub\n        /* \"#utility.yul\":1285:1317   */\n      slt\n        /* \"#utility.yul\":1282:1284   */\n      iszero\n      tag_302\n      jumpi\n        /* \"#utility.yul\":1330:1331   */\n      0x00\n        /* \"#utility.yul\":1327:1328   */\n      dup1\n        /* \"#utility.yul\":1320:1332   */\n      revert\n        /* \"#utility.yul\":1282:1284   */\n    tag_302:\n        /* \"#utility.yul\":1401:1402   */\n      0x00\n        /* \"#utility.yul\":1390:1399   */\n      dup3\n        /* \"#utility.yul\":1386:1403   */\n      add\n        /* \"#utility.yul\":1373:1404   */\n      calldataload\n        /* \"#utility.yul\":1431:1449   */\n      0xffffffffffffffff\n        /* \"#utility.yul\":1423:1429   */\n      dup2\n        /* \"#utility.yul\":1420:1450   */\n      gt\n        /* \"#utility.yul\":1417:1419   */\n      iszero\n      tag_303\n      jumpi\n        /* \"#utility.yul\":1463:1464   */\n      0x00\n        /* \"#utility.yul\":1460:1461   */\n      dup1\n        /* \"#utility.yul\":1453:1465   */\n      revert\n        /* \"#utility.yul\":1417:1419   */\n    tag_303:\n        /* \"#utility.yul\":1491:1554   */\n      tag_304\n        /* \"#utility.yul\":1546:1553   */\n      dup5\n        /* \"#utility.yul\":1537:1543   */\n      dup3\n        /* \"#utility.yul\":1526:1535   */\n      dup6\n        /* \"#utility.yul\":1522:1544   */\n      add\n        /* \"#utility.yul\":1491:1554   */\n      tag_290\n      jump\t// in\n    tag_304:\n        /* \"#utility.yul\":1481:1554   */\n      swap2\n      pop\n        /* \"#utility.yul\":1344:1564   */\n      pop\n        /* \"#utility.yul\":1272:1571   */\n      swap3\n      swap2\n      pop\n      pop\n      jump\t// out\n        /* \"#utility.yul\":1577:2210   */\n    tag_26:\n      0x00\n      dup1\n        /* \"#utility.yul\":1722:1724   */\n      0x40\n        /* \"#utility.yul\":1710:1719   */\n      dup4\n        /* \"#utility.yul\":1701:1708   */\n      dup6\n        /* \"#utility.yul\":1697:1720   */\n      sub\n        /* \"#utility.yul\":1693:1725   */\n      slt\n        /* \"#utility.yul\":1690:1692   */\n      iszero\n      tag_306\n      jumpi\n        /* \"#utility.yul\":1738:1739   */\n      0x00\n        /* \"#utility.yul\":1735:1736   */\n      dup1\n        /* \"#utility.yul\":1728:1740   */\n      revert\n        /* \"#utility.yul\":1690:1692   */\n    tag_306:\n        /* \"#utility.yul\":1809:1810   */\n      0x00\n        /* \"#utility.yul\":1798:1807   */\n      dup4\n        /* \"#utility.yul\":1794:1811   */\n      add\n        /* \"#utility.yul\":1781:1812   */\n      calldataload\n        /* \"#utility.yul\":1839:1857   */\n      0xffffffffffffffff\n        /* \"#utility.yul\":1831:1837   */\n      dup2\n        /* \"#utility.yul\":1828:1858   */\n      gt\n        /* \"#utility.yul\":1825:1827   */\n      iszero\n      tag_307\n      jumpi\n        /* \"#utility.yul\":1871:1872   */\n      0x00\n        /* \"#utility.yul\":1868:1869   */\n      dup1\n        /* \"#utility.yul\":1861:1873   */\n      revert\n        /* \"#utility.yul\":1825:1827   */\n    tag_307:\n        /* \"#utility.yul\":1899:1962   */\n      tag_308\n        /* \"#utility.yul\":1954:1961   */\n      dup6\n        /* \"#utility.yul\":1945:1951   */\n      dup3\n        /* \"#utility.yul\":1934:1943   */\n      dup7\n        /* \"#utility.yul\":1930:1952   */\n      add\n        /* \"#utility.yul\":1899:1962   */\n      tag_290\n      jump\t// in\n    tag_308:\n        /* \"#utility.yul\":1889:1962   */\n      swap3\n      pop\n        /* \"#utility.yul\":1752:1972   */\n      pop\n        /* \"#utility.yul\":2039:2041   */\n      0x20\n        /* \"#utility.yul\":2028:2037   */\n      dup4\n        /* \"#utility.yul\":2024:2042   */\n      add\n        /* \"#utility.yul\":2011:2043   */\n      calldataload\n        /* \"#utility.yul\":2070:2088   */\n      0xffffffffffffffff\n        /* \"#utility.yul\":2062:2068   */\n      dup2\n        /* \"#utility.yul\":2059:2089   */\n      gt\n        /* \"#utility.yul\":2056:2058   */\n      iszero\n      tag_309\n      jumpi\n        /* \"#utility.yul\":2102:2103   */\n      0x00\n        /* \"#utility.yul\":2099:2100   */\n      dup1\n        /* \"#utility.yul\":2092:2104   */\n      revert\n        /* \"#utility.yul\":2056:2058   */\n    tag_309:\n        /* \"#utility.yul\":2130:2193   */\n      tag_310\n        /* \"#utility.yul\":2185:2192   */\n      dup6\n        /* \"#utility.yul\":2176:2182   */\n      dup3\n        /* \"#utility.yul\":2165:2174   */\n      dup7\n        /* \"#utility.yul\":2161:2183   */\n      add\n        /* \"#utility.yul\":2130:2193   */\n      tag_290\n      jump\t// in\n    tag_310:\n        /* \"#utility.yul\":2120:2193   */\n      swap2\n      pop\n        /* \"#utility.yul\":1982:2203   */\n      pop\n        /* \"#utility.yul\":1680:2210   */\n      swap3\n      pop\n      swap3\n      swap1\n      pop\n      jump\t// out\n        /* \"#utility.yul\":2216:2478   */\n    tag_36:\n      0x00\n        /* \"#utility.yul\":2324:2326   */\n      0x20\n        /* \"#utility.yul\":2312:2321   */\n      dup3\n        /* \"#utility.yul\":2303:2310   */\n      dup5\n        /* \"#utility.yul\":2299:2322   */\n      sub\n        /* \"#utility.yul\":2295:2327   */\n      slt\n        /* \"#utility.yul\":2292:2294   */\n      iszero\n      tag_312\n      jumpi\n        /* \"#utility.yul\":2340:2341   */\n      0x00\n        /* \"#utility.yul\":2337:2338   */\n      dup1\n        /* \"#utility.yul\":2330:2342   */\n      revert\n        /* \"#utility.yul\":2292:2294   */\n    tag_312:\n        /* \"#utility.yul\":2383:2384   */\n      0x00\n        /* \"#utility.yul\":2408:2461   */\n      tag_313\n        /* \"#utility.yul\":2453:2460   */\n      dup5\n        /* \"#utility.yul\":2444:2450   */\n      dup3\n        /* \"#utility.yul\":2433:2442   */\n      dup6\n        /* \"#utility.yul\":2429:2451   */\n      add\n        /* \"#utility.yul\":2408:2461   */\n      tag_294\n      jump\t// in\n    tag_313:\n        /* \"#utility.yul\":2398:2461   */\n      swap2\n      pop\n        /* \"#utility.yul\":2354:2471   */\n      pop\n        /* \"#utility.yul\":2282:2478   */\n      swap3\n      swap2\n      pop\n      pop\n      jump\t// out\n        /* \"#utility.yul\":2484:3004   */\n    tag_57:\n      0x00\n      dup1\n        /* \"#utility.yul\":2619:2621   */\n      0x40\n        /* \"#utility.yul\":2607:2616   */\n      dup4\n        /* \"#utility.yul\":2598:2605   */\n      dup6\n        /* \"#utility.yul\":2594:2617   */\n      sub\n        /* \"#utility.yul\":2590:2622   */\n      slt\n        /* \"#utility.yul\":2587:2589   */\n      iszero\n      tag_315\n      jumpi\n        /* \"#utility.yul\":2635:2636   */\n      0x00\n        /* \"#utility.yul\":2632:2633   */\n      dup1\n        /* \"#utility.yul\":2625:2637   */\n      revert\n        /* \"#utility.yul\":2587:2589   */\n    tag_315:\n        /* \"#utility.yul\":2678:2679   */\n      0x00\n        /* \"#utility.yul\":2703:2756   */\n      tag_316\n        /* \"#utility.yul\":2748:2755   */\n      dup6\n        /* \"#utility.yul\":2739:2745   */\n      dup3\n        /* \"#utility.yul\":2728:2737   */\n      dup7\n        /* \"#utility.yul\":2724:2746   */\n      add\n        /* \"#utility.yul\":2703:2756   */\n      tag_294\n      jump\t// in\n    tag_316:\n        /* \"#utility.yul\":2693:2756   */\n      swap3\n      pop\n        /* \"#utility.yul\":2649:2766   */\n      pop\n        /* \"#utility.yul\":2833:2835   */\n      0x20\n        /* \"#utility.yul\":2822:2831   */\n      dup4\n        /* \"#utility.yul\":2818:2836   */\n      add\n        /* \"#utility.yul\":2805:2837   */\n      calldataload\n        /* \"#utility.yul\":2864:2882   */\n      0xffffffffffffffff\n        /* \"#utility.yul\":2856:2862   */\n      dup2\n        /* \"#utility.yul\":2853:2883   */\n      gt\n        /* \"#utility.yul\":2850:2852   */\n      iszero\n      tag_317\n      jumpi\n        /* \"#utility.yul\":2896:2897   */\n      0x00\n        /* \"#utility.yul\":2893:2894   */\n      dup1\n        /* \"#utility.yul\":2886:2898   */\n      revert\n        /* \"#utility.yul\":2850:2852   */\n    tag_317:\n        /* \"#utility.yul\":2924:2987   */\n      tag_318\n        /* \"#utility.yul\":2979:2986   */\n      dup6\n        /* \"#utility.yul\":2970:2976   */\n      dup3\n        /* \"#utility.yul\":2959:2968   */\n      dup7\n        /* \"#utility.yul\":2955:2977   */\n      add\n        /* \"#utility.yul\":2924:2987   */\n      tag_290\n      jump\t// in\n    tag_318:\n        /* \"#utility.yul\":2914:2987   */\n      swap2\n      pop\n        /* \"#utility.yul\":2776:2997   */\n      pop\n        /* \"#utility.yul\":2577:3004   */\n      swap3\n      pop\n      swap3\n      swap1\n      pop\n      jump\t// out\n        /* \"#utility.yul\":3010:3417   */\n    tag_46:\n      0x00\n      dup1\n        /* \"#utility.yul\":3135:3137   */\n      0x40\n        /* \"#utility.yul\":3123:3132   */\n      dup4\n        /* \"#utility.yul\":3114:3121   */\n      dup6\n        /* \"#utility.yul\":3110:3133   */\n      sub\n        /* \"#utility.yul\":3106:3138   */\n      slt\n        /* \"#utility.yul\":3103:3105   */\n      iszero\n      tag_320\n      jumpi\n        /* \"#utility.yul\":3151:3152   */\n      0x00\n        /* \"#utility.yul\":3148:3149   */\n      dup1\n        /* \"#utility.yul\":3141:3153   */\n      revert\n        /* \"#utility.yul\":3103:3105   */\n    tag_320:\n        /* \"#utility.yul\":3194:3195   */\n      0x00\n        /* \"#utility.yul\":3219:3272   */\n      tag_321\n        /* \"#utility.yul\":3264:3271   */\n      dup6\n        /* \"#utility.yul\":3255:3261   */\n      dup3\n        /* \"#utility.yul\":3244:3253   */\n      dup7\n        /* \"#utility.yul\":3240:3262   */\n      add\n        /* \"#utility.yul\":3219:3272   */\n      tag_294\n      jump\t// in\n    tag_321:\n        /* \"#utility.yul\":3209:3272   */\n      swap3\n      pop\n        /* \"#utility.yul\":3165:3282   */\n      pop\n        /* \"#utility.yul\":3321:3323   */\n      0x20\n        /* \"#utility.yul\":3347:3400   */\n      tag_322\n        /* \"#utility.yul\":3392:3399   */\n      dup6\n        /* \"#utility.yul\":3383:3389   */\n      dup3\n        /* \"#utility.yul\":3372:3381   */\n      dup7\n        /* \"#utility.yul\":3368:3390   */\n      add\n        /* \"#utility.yul\":3347:3400   */\n      tag_294\n      jump\t// in\n    tag_322:\n        /* \"#utility.yul\":3337:3400   */\n      swap2\n      pop\n        /* \"#utility.yul\":3292:3410   */\n      pop\n        /* \"#utility.yul\":3093:3417   */\n      swap3\n      pop\n      swap3\n      swap1\n      pop\n      jump\t// out\n        /* \"#utility.yul\":3423:3602   */\n    tag_323:\n      0x00\n        /* \"#utility.yul\":3513:3559   */\n      tag_325\n        /* \"#utility.yul\":3555:3558   */\n      dup4\n        /* \"#utility.yul\":3547:3553   */\n      dup4\n        /* \"#utility.yul\":3513:3559   */\n      tag_326\n      jump\t// in\n    tag_325:\n        /* \"#utility.yul\":3591:3595   */\n      0x20\n        /* \"#utility.yul\":3586:3589   */\n      dup4\n        /* \"#utility.yul\":3582:3596   */\n      add\n        /* \"#utility.yul\":3568:3596   */\n      swap1\n      pop\n        /* \"#utility.yul\":3503:3602   */\n      swap3\n      swap2\n      pop\n      pop\n      jump\t// out\n        /* \"#utility.yul\":3608:3726   */\n    tag_327:\n        /* \"#utility.yul\":3695:3719   */\n      tag_329\n        /* \"#utility.yul\":3713:3718   */\n      dup2\n        /* \"#utility.yul\":3695:3719   */\n      tag_330\n      jump\t// in\n    tag_329:\n        /* \"#utility.yul\":3690:3693   */\n      dup3\n        /* \"#utility.yul\":3683:3720   */\n      mstore\n        /* \"#utility.yul\":3673:3726   */\n      pop\n      pop\n      jump\t// out\n        /* \"#utility.yul\":3762:4494   */\n    tag_331:\n      0x00\n        /* \"#utility.yul\":3910:3964   */\n      tag_333\n        /* \"#utility.yul\":3958:3963   */\n      dup3\n        /* \"#utility.yul\":3910:3964   */\n      tag_334\n      jump\t// in\n    tag_333:\n        /* \"#utility.yul\":3980:4066   */\n      tag_335\n        /* \"#utility.yul\":4059:4065   */\n      dup2\n        /* \"#utility.yul\":4054:4057   */\n      dup6\n        /* \"#utility.yul\":3980:4066   */\n      tag_336\n      jump\t// in\n    tag_335:\n        /* \"#utility.yul\":3973:4066   */\n      swap4\n      pop\n        /* \"#utility.yul\":4090:4146   */\n      tag_337\n        /* \"#utility.yul\":4140:4145   */\n      dup4\n        /* \"#utility.yul\":4090:4146   */\n      tag_338\n      jump\t// in\n    tag_337:\n        /* \"#utility.yul\":4169:4176   */\n      dup1\n        /* \"#utility.yul\":4200:4201   */\n      0x00\n        /* \"#utility.yul\":4185:4469   */\n    tag_339:\n        /* \"#utility.yul\":4210:4216   */\n      dup4\n        /* \"#utility.yul\":4207:4208   */\n      dup2\n        /* \"#utility.yul\":4204:4217   */\n      lt\n        /* \"#utility.yul\":4185:4469   */\n      iszero\n      tag_341\n      jumpi\n        /* \"#utility.yul\":4286:4292   */\n      dup2\n        /* \"#utility.yul\":4280:4293   */\n      mload\n        /* \"#utility.yul\":4313:4376   */\n      tag_342\n        /* \"#utility.yul\":4372:4375   */\n      dup9\n        /* \"#utility.yul\":4357:4370   */\n      dup3\n        /* \"#utility.yul\":4313:4376   */\n      tag_323\n      jump\t// in\n    tag_342:\n        /* \"#utility.yul\":4306:4376   */\n      swap8\n      pop\n        /* \"#utility.yul\":4399:4459   */\n      tag_343\n        /* \"#utility.yul\":4452:4458   */\n      dup4\n        /* \"#utility.yul\":4399:4459   */\n      tag_344\n      jump\t// in\n    tag_343:\n        /* \"#utility.yul\":4389:4459   */\n      swap3\n      pop\n        /* \"#utility.yul\":4245:4469   */\n      pop\n        /* \"#utility.yul\":4232:4233   */\n      0x01\n        /* \"#utility.yul\":4229:4230   */\n      dup2\n        /* \"#utility.yul\":4225:4234   */\n      add\n        /* \"#utility.yul\":4220:4234   */\n      swap1\n      pop\n        /* \"#utility.yul\":4185:4469   */\n      jump(tag_339)\n    tag_341:\n        /* \"#utility.yul\":4189:4203   */\n      pop\n        /* \"#utility.yul\":4485:4488   */\n      dup6\n        /* \"#utility.yul\":4478:4488   */\n      swap4\n      pop\n        /* \"#utility.yul\":3886:4494   */\n      pop\n      pop\n      pop\n      swap3\n      swap2\n      pop\n      pop\n      jump\t// out\n        /* \"#utility.yul\":4500:4609   */\n    tag_345:\n        /* \"#utility.yul\":4581:4602   */\n      tag_347\n        /* \"#utility.yul\":4596:4601   */\n      dup2\n        /* \"#utility.yul\":4581:4602   */\n      tag_348\n      jump\t// in\n    tag_347:\n        /* \"#utility.yul\":4576:4579   */\n      dup3\n        /* \"#utility.yul\":4569:4603   */\n      mstore\n        /* \"#utility.yul\":4559:4609   */\n      pop\n      pop\n      jump\t// out\n        /* \"#utility.yul\":4615:4979   */\n    tag_349:\n      0x00\n        /* \"#utility.yul\":4731:4770   */\n      tag_351\n        /* \"#utility.yul\":4764:4769   */\n      dup3\n        /* \"#utility.yul\":4731:4770   */\n      tag_352\n      jump\t// in\n    tag_351:\n        /* \"#utility.yul\":4786:4857   */\n      tag_353\n        /* \"#utility.yul\":4850:4856   */\n      dup2\n        /* \"#utility.yul\":4845:4848   */\n      dup6\n        /* \"#utility.yul\":4786:4857   */\n      tag_354\n      jump\t// in\n    tag_353:\n        /* \"#utility.yul\":4779:4857   */\n      swap4\n      pop\n        /* \"#utility.yul\":4866:4918   */\n      tag_355\n        /* \"#utility.yul\":4911:4917   */\n      dup2\n        /* \"#utility.yul\":4906:4909   */\n      dup6\n        /* \"#utility.yul\":4899:4903   */\n      0x20\n        /* \"#utility.yul\":4892:4897   */\n      dup7\n        /* \"#utility.yul\":4888:4904   */\n      add\n        /* \"#utility.yul\":4866:4918   */\n      tag_356\n      jump\t// in\n    tag_355:\n        /* \"#utility.yul\":4943:4972   */\n      tag_357\n        /* \"#utility.yul\":4965:4971   */\n      dup2\n        /* \"#utility.yul\":4943:4972   */\n      tag_358\n      jump\t// in\n    tag_357:\n        /* \"#utility.yul\":4938:4941   */\n      dup5\n        /* \"#utility.yul\":4934:4973   */\n      add\n        /* \"#utility.yul\":4927:4973   */\n      swap2\n      pop\n        /* \"#utility.yul\":4707:4979   */\n      pop\n      swap3\n      swap2\n      pop\n      pop\n      jump\t// out\n        /* \"#utility.yul\":4985:5362   */\n    tag_359:\n      0x00\n        /* \"#utility.yul\":5119:5158   */\n      tag_361\n        /* \"#utility.yul\":5152:5157   */\n      dup3\n        /* \"#utility.yul\":5119:5158   */\n      tag_352\n      jump\t// in\n    tag_361:\n        /* \"#utility.yul\":5174:5263   */\n      tag_362\n        /* \"#utility.yul\":5256:5262   */\n      dup2\n        /* \"#utility.yul\":5251:5254   */\n      dup6\n        /* \"#utility.yul\":5174:5263   */\n      tag_363\n      jump\t// in\n    tag_362:\n        /* \"#utility.yul\":5167:5263   */\n      swap4\n      pop\n        /* \"#utility.yul\":5272:5324   */\n      tag_364\n        /* \"#utility.yul\":5317:5323   */\n      dup2\n        /* \"#utility.yul\":5312:5315   */\n      dup6\n        /* \"#utility.yul\":5305:5309   */\n      0x20\n        /* \"#utility.yul\":5298:5303   */\n      dup7\n        /* \"#utility.yul\":5294:5310   */\n      add\n        /* \"#utility.yul\":5272:5324   */\n      tag_356\n      jump\t// in\n    tag_364:\n        /* \"#utility.yul\":5349:5355   */\n      dup1\n        /* \"#utility.yul\":5344:5347   */\n      dup5\n        /* \"#utility.yul\":5340:5356   */\n      add\n        /* \"#utility.yul\":5333:5356   */\n      swap2\n      pop\n        /* \"#utility.yul\":5095:5362   */\n      pop\n      swap3\n      swap2\n      pop\n      pop\n      jump\t// out\n        /* \"#utility.yul\":5368:5748   */\n    tag_365:\n      0x00\n        /* \"#utility.yul\":5531:5598   */\n      tag_367\n        /* \"#utility.yul\":5595:5597   */\n      0x30\n        /* \"#utility.yul\":5590:5593   */\n      dup4\n        /* \"#utility.yul\":5531:5598   */\n      tag_354\n      jump\t// in\n    tag_367:\n        /* \"#utility.yul\":5524:5598   */\n      swap2\n      pop\n        /* \"#utility.yul\":5628:5662   */\n      0x4e656e68756d612076657263616f20617469766120656e636f6e747261646120\n        /* \"#utility.yul\":5624:5625   */\n      0x00\n        /* \"#utility.yul\":5619:5622   */\n      dup4\n        /* \"#utility.yul\":5615:5626   */\n      add\n        /* \"#utility.yul\":5608:5663   */\n      mstore\n        /* \"#utility.yul\":5694:5712   */\n      0x70617261206573746120706167696e6100000000000000000000000000000000\n        /* \"#utility.yul\":5689:5691   */\n      0x20\n        /* \"#utility.yul\":5684:5687   */\n      dup4\n        /* \"#utility.yul\":5680:5692   */\n      add\n        /* \"#utility.yul\":5673:5713   */\n      mstore\n        /* \"#utility.yul\":5739:5741   */\n      0x40\n        /* \"#utility.yul\":5734:5737   */\n      dup3\n        /* \"#utility.yul\":5730:5742   */\n      add\n        /* \"#utility.yul\":5723:5742   */\n      swap1\n      pop\n        /* \"#utility.yul\":5514:5748   */\n      swap2\n      swap1\n      pop\n      jump\t// out\n        /* \"#utility.yul\":5754:6187   */\n    tag_368:\n      0x00\n        /* \"#utility.yul\":5917:5984   */\n      tag_370\n        /* \"#utility.yul\":5981:5983   */\n      0x43\n        /* \"#utility.yul\":5976:5979   */\n      dup4\n        /* \"#utility.yul\":5917:5984   */\n      tag_354\n      jump\t// in\n    tag_370:\n        /* \"#utility.yul\":5910:5984   */\n      swap2\n      pop\n        /* \"#utility.yul\":6014:6048   */\n      0x412061646963616f206465206e6f76617320766572636f657320736f20652070\n        /* \"#utility.yul\":6010:6011   */\n      0x00\n        /* \"#utility.yul\":6005:6008   */\n      dup4\n        /* \"#utility.yul\":6001:6012   */\n      add\n        /* \"#utility.yul\":5994:6049   */\n      mstore\n        /* \"#utility.yul\":6080:6114   */\n      0x65726d6974696461207175616e646f206120706167696e612065737461206174\n        /* \"#utility.yul\":6075:6077   */\n      0x20\n        /* \"#utility.yul\":6070:6073   */\n      dup4\n        /* \"#utility.yul\":6066:6078   */\n      add\n        /* \"#utility.yul\":6059:6115   */\n      mstore\n        /* \"#utility.yul\":6146:6151   */\n      0x6976610000000000000000000000000000000000000000000000000000000000\n        /* \"#utility.yul\":6141:6143   */\n      0x40\n        /* \"#utility.yul\":6136:6139   */\n      dup4\n        /* \"#utility.yul\":6132:6144   */\n      add\n        /* \"#utility.yul\":6125:6152   */\n      mstore\n        /* \"#utility.yul\":6178:6180   */\n      0x60\n        /* \"#utility.yul\":6173:6176   */\n      dup3\n        /* \"#utility.yul\":6169:6181   */\n      add\n        /* \"#utility.yul\":6162:6181   */\n      swap1\n      pop\n        /* \"#utility.yul\":5900:6187   */\n      swap2\n      swap1\n      pop\n      jump\t// out\n        /* \"#utility.yul\":6193:6629   */\n    tag_371:\n      0x00\n        /* \"#utility.yul\":6356:6423   */\n      tag_373\n        /* \"#utility.yul\":6420:6422   */\n      0x46\n        /* \"#utility.yul\":6415:6418   */\n      dup4\n        /* \"#utility.yul\":6356:6423   */\n      tag_354\n      jump\t// in\n    tag_373:\n        /* \"#utility.yul\":6349:6423   */\n      swap2\n      pop\n        /* \"#utility.yul\":6453:6487   */\n      0x4120646573617469766163616f20646520706167696e617320736f2065207065\n        /* \"#utility.yul\":6449:6450   */\n      0x00\n        /* \"#utility.yul\":6444:6447   */\n      dup4\n        /* \"#utility.yul\":6440:6451   */\n      add\n        /* \"#utility.yul\":6433:6488   */\n      mstore\n        /* \"#utility.yul\":6519:6553   */\n      0x726d6974696461207175616e646f206120426c6f636b70656469612065737461\n        /* \"#utility.yul\":6514:6516   */\n      0x20\n        /* \"#utility.yul\":6509:6512   */\n      dup4\n        /* \"#utility.yul\":6505:6517   */\n      add\n        /* \"#utility.yul\":6498:6554   */\n      mstore\n        /* \"#utility.yul\":6585:6593   */\n      0x2061746976610000000000000000000000000000000000000000000000000000\n        /* \"#utility.yul\":6580:6582   */\n      0x40\n        /* \"#utility.yul\":6575:6578   */\n      dup4\n        /* \"#utility.yul\":6571:6583   */\n      add\n        /* \"#utility.yul\":6564:6594   */\n      mstore\n        /* \"#utility.yul\":6620:6622   */\n      0x60\n        /* \"#utility.yul\":6615:6618   */\n      dup3\n        /* \"#utility.yul\":6611:6623   */\n      add\n        /* \"#utility.yul\":6604:6623   */\n      swap1\n      pop\n        /* \"#utility.yul\":6339:6629   */\n      swap2\n      swap1\n      pop\n      jump\t// out\n        /* \"#utility.yul\":6635:7030   */\n    tag_374:\n      0x00\n        /* \"#utility.yul\":6798:6865   */\n      tag_376\n        /* \"#utility.yul\":6862:6864   */\n      0x3f\n        /* \"#utility.yul\":6857:6860   */\n      dup4\n        /* \"#utility.yul\":6798:6865   */\n      tag_354\n      jump\t// in\n    tag_376:\n        /* \"#utility.yul\":6791:6865   */\n      swap2\n      pop\n        /* \"#utility.yul\":6895:6929   */\n      0x4120616c7465726163616f2064652076657273616f20736f2065207065726d69\n        /* \"#utility.yul\":6891:6892   */\n      0x00\n        /* \"#utility.yul\":6886:6889   */\n      dup4\n        /* \"#utility.yul\":6882:6893   */\n      add\n        /* \"#utility.yul\":6875:6930   */\n      mstore\n        /* \"#utility.yul\":6961:6994   */\n      0x74696461207175616e646f206120706167696e61206573746120617469766100\n        /* \"#utility.yul\":6956:6958   */\n      0x20\n        /* \"#utility.yul\":6951:6954   */\n      dup4\n        /* \"#utility.yul\":6947:6959   */\n      add\n        /* \"#utility.yul\":6940:6995   */\n      mstore\n        /* \"#utility.yul\":7021:7023   */\n      0x40\n        /* \"#utility.yul\":7016:7019   */\n      dup3\n        /* \"#utility.yul\":7012:7024   */\n      add\n        /* \"#utility.yul\":7005:7024   */\n      swap1\n      pop\n        /* \"#utility.yul\":6781:7030   */\n      swap2\n      swap1\n      pop\n      jump\t// out\n        /* \"#utility.yul\":7036:7356   */\n    tag_377:\n      0x00\n        /* \"#utility.yul\":7199:7266   */\n      tag_379\n        /* \"#utility.yul\":7263:7265   */\n      0x16\n        /* \"#utility.yul\":7258:7261   */\n      dup4\n        /* \"#utility.yul\":7199:7266   */\n      tag_354\n      jump\t// in\n    tag_379:\n        /* \"#utility.yul\":7192:7266   */\n      swap2\n      pop\n        /* \"#utility.yul\":7296:7320   */\n      0x496e6469636520666f726120646f20616c63616e636500000000000000000000\n        /* \"#utility.yul\":7292:7293   */\n      0x00\n        /* \"#utility.yul\":7287:7290   */\n      dup4\n        /* \"#utility.yul\":7283:7294   */\n      add\n        /* \"#utility.yul\":7276:7321   */\n      mstore\n        /* \"#utility.yul\":7347:7349   */\n      0x20\n        /* \"#utility.yul\":7342:7345   */\n      dup3\n        /* \"#utility.yul\":7338:7350   */\n      add\n        /* \"#utility.yul\":7331:7350   */\n      swap1\n      pop\n        /* \"#utility.yul\":7182:7356   */\n      swap2\n      swap1\n      pop\n      jump\t// out\n        /* \"#utility.yul\":7362:7795   */\n    tag_380:\n      0x00\n        /* \"#utility.yul\":7525:7592   */\n      tag_382\n        /* \"#utility.yul\":7589:7591   */\n      0x43\n        /* \"#utility.yul\":7584:7587   */\n      dup4\n        /* \"#utility.yul\":7525:7592   */\n      tag_354\n      jump\t// in\n    tag_382:\n        /* \"#utility.yul\":7518:7592   */\n      swap2\n      pop\n        /* \"#utility.yul\":7622:7656   */\n      0x4120617469766163616f20646520706167696e617320736f2065207065726d69\n        /* \"#utility.yul\":7618:7619   */\n      0x00\n        /* \"#utility.yul\":7613:7616   */\n      dup4\n        /* \"#utility.yul\":7609:7620   */\n      add\n        /* \"#utility.yul\":7602:7657   */\n      mstore\n        /* \"#utility.yul\":7688:7722   */\n      0x74696461207175616e646f206120426c6f636b70656469612065737461206174\n        /* \"#utility.yul\":7683:7685   */\n      0x20\n        /* \"#utility.yul\":7678:7681   */\n      dup4\n        /* \"#utility.yul\":7674:7686   */\n      add\n        /* \"#utility.yul\":7667:7723   */\n      mstore\n        /* \"#utility.yul\":7754:7759   */\n      0x6976610000000000000000000000000000000000000000000000000000000000\n        /* \"#utility.yul\":7749:7751   */\n      0x40\n        /* \"#utility.yul\":7744:7747   */\n      dup4\n        /* \"#utility.yul\":7740:7752   */\n      add\n        /* \"#utility.yul\":7733:7760   */\n      mstore\n        /* \"#utility.yul\":7786:7788   */\n      0x60\n        /* \"#utility.yul\":7781:7784   */\n      dup3\n        /* \"#utility.yul\":7777:7789   */\n      add\n        /* \"#utility.yul\":7770:7789   */\n      swap1\n      pop\n        /* \"#utility.yul\":7508:7795   */\n      swap2\n      swap1\n      pop\n      jump\t// out\n        /* \"#utility.yul\":7801:8131   */\n    tag_383:\n      0x00\n        /* \"#utility.yul\":7964:8031   */\n      tag_385\n        /* \"#utility.yul\":8028:8030   */\n      0x20\n        /* \"#utility.yul\":8023:8026   */\n      dup4\n        /* \"#utility.yul\":7964:8031   */\n      tag_354\n      jump\t// in\n    tag_385:\n        /* \"#utility.yul\":7957:8031   */\n      swap2\n      pop\n        /* \"#utility.yul\":8061:8095   */\n      0x496e646963652064612076657273616f20666f726120646f20616c63616e6365\n        /* \"#utility.yul\":8057:8058   */\n      0x00\n        /* \"#utility.yul\":8052:8055   */\n      dup4\n        /* \"#utility.yul\":8048:8059   */\n      add\n        /* \"#utility.yul\":8041:8096   */\n      mstore\n        /* \"#utility.yul\":8122:8124   */\n      0x20\n        /* \"#utility.yul\":8117:8120   */\n      dup3\n        /* \"#utility.yul\":8113:8125   */\n      add\n        /* \"#utility.yul\":8106:8125   */\n      swap1\n      pop\n        /* \"#utility.yul\":7947:8131   */\n      swap2\n      swap1\n      pop\n      jump\t// out\n        /* \"#utility.yul\":8137:8507   */\n    tag_386:\n      0x00\n        /* \"#utility.yul\":8300:8367   */\n      tag_388\n        /* \"#utility.yul\":8364:8366   */\n      0x26\n        /* \"#utility.yul\":8359:8362   */\n      dup4\n        /* \"#utility.yul\":8300:8367   */\n      tag_354\n      jump\t// in\n    tag_388:\n        /* \"#utility.yul\":8293:8367   */\n      swap2\n      pop\n        /* \"#utility.yul\":8397:8431   */\n      0x4a612065786973746520706167696e6120617469766120636f6d206573746520\n        /* \"#utility.yul\":8393:8394   */\n      0x00\n        /* \"#utility.yul\":8388:8391   */\n      dup4\n        /* \"#utility.yul\":8384:8395   */\n      add\n        /* \"#utility.yul\":8377:8432   */\n      mstore\n        /* \"#utility.yul\":8463:8471   */\n      0x746974756c6f0000000000000000000000000000000000000000000000000000\n        /* \"#utility.yul\":8458:8460   */\n      0x20\n        /* \"#utility.yul\":8453:8456   */\n      dup4\n        /* \"#utility.yul\":8449:8461   */\n      add\n        /* \"#utility.yul\":8442:8472   */\n      mstore\n        /* \"#utility.yul\":8498:8500   */\n      0x40\n        /* \"#utility.yul\":8493:8496   */\n      dup3\n        /* \"#utility.yul\":8489:8501   */\n      add\n        /* \"#utility.yul\":8482:8501   */\n      swap1\n      pop\n        /* \"#utility.yul\":8283:8507   */\n      swap2\n      swap1\n      pop\n      jump\t// out\n        /* \"#utility.yul\":8513:8843   */\n    tag_389:\n      0x00\n        /* \"#utility.yul\":8676:8743   */\n      tag_391\n        /* \"#utility.yul\":8740:8742   */\n      0x20\n        /* \"#utility.yul\":8735:8738   */\n      dup4\n        /* \"#utility.yul\":8676:8743   */\n      tag_354\n      jump\t// in\n    tag_391:\n        /* \"#utility.yul\":8669:8743   */\n      swap2\n      pop\n        /* \"#utility.yul\":8773:8807   */\n      0x496e6469636520646120706167696e6120666f726120646f20616c63616e6365\n        /* \"#utility.yul\":8769:8770   */\n      0x00\n        /* \"#utility.yul\":8764:8767   */\n      dup4\n        /* \"#utility.yul\":8760:8771   */\n      add\n        /* \"#utility.yul\":8753:8808   */\n      mstore\n        /* \"#utility.yul\":8834:8836   */\n      0x20\n        /* \"#utility.yul\":8829:8832   */\n      dup3\n        /* \"#utility.yul\":8825:8837   */\n      add\n        /* \"#utility.yul\":8818:8837   */\n      swap1\n      pop\n        /* \"#utility.yul\":8659:8843   */\n      swap2\n      swap1\n      pop\n      jump\t// out\n        /* \"#utility.yul\":8849:9242   */\n    tag_392:\n      0x00\n        /* \"#utility.yul\":9012:9079   */\n      tag_394\n        /* \"#utility.yul\":9076:9078   */\n      0x3d\n        /* \"#utility.yul\":9071:9074   */\n      dup4\n        /* \"#utility.yul\":9012:9079   */\n      tag_354\n      jump\t// in\n    tag_394:\n        /* \"#utility.yul\":9005:9079   */\n      swap2\n      pop\n        /* \"#utility.yul\":9109:9143   */\n      0x536f6d656e7465206f20646f6e6f20646573746120426c6f636b706564696120\n        /* \"#utility.yul\":9105:9106   */\n      0x00\n        /* \"#utility.yul\":9100:9103   */\n      dup4\n        /* \"#utility.yul\":9096:9107   */\n      add\n        /* \"#utility.yul\":9089:9144   */\n      mstore\n        /* \"#utility.yul\":9175:9206   */\n      0x706f646520616c7465726172206f20617472696275746f20617469766f000000\n        /* \"#utility.yul\":9170:9172   */\n      0x20\n        /* \"#utility.yul\":9165:9168   */\n      dup4\n        /* \"#utility.yul\":9161:9173   */\n      add\n        /* \"#utility.yul\":9154:9207   */\n      mstore\n        /* \"#utility.yul\":9233:9235   */\n      0x40\n        /* \"#utility.yul\":9228:9231   */\n      dup3\n        /* \"#utility.yul\":9224:9236   */\n      add\n        /* \"#utility.yul\":9217:9236   */\n      swap1\n      pop\n        /* \"#utility.yul\":8995:9242   */\n      swap2\n      swap1\n      pop\n      jump\t// out\n        /* \"#utility.yul\":9248:9685   */\n    tag_395:\n      0x00\n        /* \"#utility.yul\":9411:9478   */\n      tag_397\n        /* \"#utility.yul\":9475:9477   */\n      0x47\n        /* \"#utility.yul\":9470:9473   */\n      dup4\n        /* \"#utility.yul\":9411:9478   */\n      tag_354\n      jump\t// in\n    tag_397:\n        /* \"#utility.yul\":9404:9478   */\n      swap2\n      pop\n        /* \"#utility.yul\":9508:9542   */\n      0x412061646963616f206465206e6f76617320706167696e617320736f20652070\n        /* \"#utility.yul\":9504:9505   */\n      0x00\n        /* \"#utility.yul\":9499:9502   */\n      dup4\n        /* \"#utility.yul\":9495:9506   */\n      add\n        /* \"#utility.yul\":9488:9543   */\n      mstore\n        /* \"#utility.yul\":9574:9608   */\n      0x65726d6974696461207175616e646f206120426c6f636b706564696120657374\n        /* \"#utility.yul\":9569:9571   */\n      0x20\n        /* \"#utility.yul\":9564:9567   */\n      dup4\n        /* \"#utility.yul\":9560:9572   */\n      add\n        /* \"#utility.yul\":9553:9609   */\n      mstore\n        /* \"#utility.yul\":9640:9649   */\n      0x6120617469766100000000000000000000000000000000000000000000000000\n        /* \"#utility.yul\":9635:9637   */\n      0x40\n        /* \"#utility.yul\":9630:9633   */\n      dup4\n        /* \"#utility.yul\":9626:9638   */\n      add\n        /* \"#utility.yul\":9619:9650   */\n      mstore\n        /* \"#utility.yul\":9676:9678   */\n      0x60\n        /* \"#utility.yul\":9671:9674   */\n      dup3\n        /* \"#utility.yul\":9667:9679   */\n      add\n        /* \"#utility.yul\":9660:9679   */\n      swap1\n      pop\n        /* \"#utility.yul\":9394:9685   */\n      swap2\n      swap1\n      pop\n      jump\t// out\n        /* \"#utility.yul\":9691:9799   */\n    tag_326:\n        /* \"#utility.yul\":9768:9792   */\n      tag_399\n        /* \"#utility.yul\":9786:9791   */\n      dup2\n        /* \"#utility.yul\":9768:9792   */\n      tag_400\n      jump\t// in\n    tag_399:\n        /* \"#utility.yul\":9763:9766   */\n      dup3\n        /* \"#utility.yul\":9756:9793   */\n      mstore\n        /* \"#utility.yul\":9746:9799   */\n      pop\n      pop\n      jump\t// out\n        /* \"#utility.yul\":9805:9923   */\n    tag_401:\n        /* \"#utility.yul\":9892:9916   */\n      tag_403\n        /* \"#utility.yul\":9910:9915   */\n      dup2\n        /* \"#utility.yul\":9892:9916   */\n      tag_400\n      jump\t// in\n    tag_403:\n        /* \"#utility.yul\":9887:9890   */\n      dup3\n        /* \"#utility.yul\":9880:9917   */\n      mstore\n        /* \"#utility.yul\":9870:9923   */\n      pop\n      pop\n      jump\t// out\n        /* \"#utility.yul\":9929:10204   */\n    tag_250:\n      0x00\n        /* \"#utility.yul\":10083:10178   */\n      tag_405\n        /* \"#utility.yul\":10174:10177   */\n      dup3\n        /* \"#utility.yul\":10165:10171   */\n      dup5\n        /* \"#utility.yul\":10083:10178   */\n      tag_359\n      jump\t// in\n    tag_405:\n        /* \"#utility.yul\":10076:10178   */\n      swap2\n      pop\n        /* \"#utility.yul\":10195:10198   */\n      dup2\n        /* \"#utility.yul\":10188:10198   */\n      swap1\n      pop\n        /* \"#utility.yul\":10065:10204   */\n      swap3\n      swap2\n      pop\n      pop\n      jump\t// out\n        /* \"#utility.yul\":10210:10432   */\n    tag_19:\n      0x00\n        /* \"#utility.yul\":10341:10343   */\n      0x20\n        /* \"#utility.yul\":10330:10339   */\n      dup3\n        /* \"#utility.yul\":10326:10344   */\n      add\n        /* \"#utility.yul\":10318:10344   */\n      swap1\n      pop\n        /* \"#utility.yul\":10354:10425   */\n      tag_407\n        /* \"#utility.yul\":10422:10423   */\n      0x00\n        /* \"#utility.yul\":10411:10420   */\n      dup4\n        /* \"#utility.yul\":10407:10424   */\n      add\n        /* \"#utility.yul\":10398:10404   */\n      dup5\n        /* \"#utility.yul\":10354:10425   */\n      tag_327\n      jump\t// in\n    tag_407:\n        /* \"#utility.yul\":10308:10432   */\n      swap3\n      swap2\n      pop\n      pop\n      jump\t// out\n        /* \"#utility.yul\":10438:10811   */\n    tag_33:\n      0x00\n        /* \"#utility.yul\":10619:10621   */\n      0x20\n        /* \"#utility.yul\":10608:10617   */\n      dup3\n        /* \"#utility.yul\":10604:10622   */\n      add\n        /* \"#utility.yul\":10596:10622   */\n      swap1\n      pop\n        /* \"#utility.yul\":10668:10677   */\n      dup2\n        /* \"#utility.yul\":10662:10666   */\n      dup2\n        /* \"#utility.yul\":10658:10678   */\n      sub\n        /* \"#utility.yul\":10654:10655   */\n      0x00\n        /* \"#utility.yul\":10643:10652   */\n      dup4\n        /* \"#utility.yul\":10639:10656   */\n      add\n        /* \"#utility.yul\":10632:10679   */\n      mstore\n        /* \"#utility.yul\":10696:10804   */\n      tag_409\n        /* \"#utility.yul\":10799:10803   */\n      dup2\n        /* \"#utility.yul\":10790:10796   */\n      dup5\n        /* \"#utility.yul\":10696:10804   */\n      tag_331\n      jump\t// in\n    tag_409:\n        /* \"#utility.yul\":10688:10804   */\n      swap1\n      pop\n        /* \"#utility.yul\":10586:10811   */\n      swap3\n      swap2\n      pop\n      pop\n      jump\t// out\n        /* \"#utility.yul\":10817:11027   */\n    tag_51:\n      0x00\n        /* \"#utility.yul\":10942:10944   */\n      0x20\n        /* \"#utility.yul\":10931:10940   */\n      dup3\n        /* \"#utility.yul\":10927:10945   */\n      add\n        /* \"#utility.yul\":10919:10945   */\n      swap1\n      pop\n        /* \"#utility.yul\":10955:11020   */\n      tag_411\n        /* \"#utility.yul\":11017:11018   */\n      0x00\n        /* \"#utility.yul\":11006:11015   */\n      dup4\n        /* \"#utility.yul\":11002:11019   */\n      add\n        /* \"#utility.yul\":10993:10999   */\n      dup5\n        /* \"#utility.yul\":10955:11020   */\n      tag_345\n      jump\t// in\n    tag_411:\n        /* \"#utility.yul\":10909:11027   */\n      swap3\n      swap2\n      pop\n      pop\n      jump\t// out\n        /* \"#utility.yul\":11033:11665   */\n    tag_66:\n      0x00\n        /* \"#utility.yul\":11262:11265   */\n      0x80\n        /* \"#utility.yul\":11251:11260   */\n      dup3\n        /* \"#utility.yul\":11247:11266   */\n      add\n        /* \"#utility.yul\":11239:11266   */\n      swap1\n      pop\n        /* \"#utility.yul\":11276:11341   */\n      tag_413\n        /* \"#utility.yul\":11338:11339   */\n      0x00\n        /* \"#utility.yul\":11327:11336   */\n      dup4\n        /* \"#utility.yul\":11323:11340   */\n      add\n        /* \"#utility.yul\":11314:11320   */\n      dup8\n        /* \"#utility.yul\":11276:11341   */\n      tag_345\n      jump\t// in\n    tag_413:\n        /* \"#utility.yul\":11351:11423   */\n      tag_414\n        /* \"#utility.yul\":11419:11421   */\n      0x20\n        /* \"#utility.yul\":11408:11417   */\n      dup4\n        /* \"#utility.yul\":11404:11422   */\n      add\n        /* \"#utility.yul\":11395:11401   */\n      dup7\n        /* \"#utility.yul\":11351:11423   */\n      tag_327\n      jump\t// in\n    tag_414:\n        /* \"#utility.yul\":11433:11505   */\n      tag_415\n        /* \"#utility.yul\":11501:11503   */\n      0x40\n        /* \"#utility.yul\":11490:11499   */\n      dup4\n        /* \"#utility.yul\":11486:11504   */\n      add\n        /* \"#utility.yul\":11477:11483   */\n      dup6\n        /* \"#utility.yul\":11433:11505   */\n      tag_401\n      jump\t// in\n    tag_415:\n        /* \"#utility.yul\":11552:11561   */\n      dup2\n        /* \"#utility.yul\":11546:11550   */\n      dup2\n        /* \"#utility.yul\":11542:11562   */\n      sub\n        /* \"#utility.yul\":11537:11539   */\n      0x60\n        /* \"#utility.yul\":11526:11535   */\n      dup4\n        /* \"#utility.yul\":11522:11540   */\n      add\n        /* \"#utility.yul\":11515:11563   */\n      mstore\n        /* \"#utility.yul\":11580:11658   */\n      tag_416\n        /* \"#utility.yul\":11653:11657   */\n      dup2\n        /* \"#utility.yul\":11644:11650   */\n      dup5\n        /* \"#utility.yul\":11580:11658   */\n      tag_349\n      jump\t// in\n    tag_416:\n        /* \"#utility.yul\":11572:11658   */\n      swap1\n      pop\n        /* \"#utility.yul\":11229:11665   */\n      swap6\n      swap5\n      pop\n      pop\n      pop\n      pop\n      pop\n      jump\t// out\n        /* \"#utility.yul\":11671:11984   */\n    tag_39:\n      0x00\n        /* \"#utility.yul\":11822:11824   */\n      0x20\n        /* \"#utility.yul\":11811:11820   */\n      dup3\n        /* \"#utility.yul\":11807:11825   */\n      add\n        /* \"#utility.yul\":11799:11825   */\n      swap1\n      pop\n        /* \"#utility.yul\":11871:11880   */\n      dup2\n        /* \"#utility.yul\":11865:11869   */\n      dup2\n        /* \"#utility.yul\":11861:11881   */\n      sub\n        /* \"#utility.yul\":11857:11858   */\n      0x00\n        /* \"#utility.yul\":11846:11855   */\n      dup4\n        /* \"#utility.yul\":11842:11859   */\n      add\n        /* \"#utility.yul\":11835:11882   */\n      mstore\n        /* \"#utility.yul\":11899:11977   */\n      tag_418\n        /* \"#utility.yul\":11972:11976   */\n      dup2\n        /* \"#utility.yul\":11963:11969   */\n      dup5\n        /* \"#utility.yul\":11899:11977   */\n      tag_349\n      jump\t// in\n    tag_418:\n        /* \"#utility.yul\":11891:11977   */\n      swap1\n      pop\n        /* \"#utility.yul\":11789:11984   */\n      swap3\n      swap2\n      pop\n      pop\n      jump\t// out\n        /* \"#utility.yul\":11990:12409   */\n    tag_265:\n      0x00\n        /* \"#utility.yul\":12194:12196   */\n      0x20\n        /* \"#utility.yul\":12183:12192   */\n      dup3\n        /* \"#utility.yul\":12179:12197   */\n      add\n        /* \"#utility.yul\":12171:12197   */\n      swap1\n      pop\n        /* \"#utility.yul\":12243:12252   */\n      dup2\n        /* \"#utility.yul\":12237:12241   */\n      dup2\n        /* \"#utility.yul\":12233:12253   */\n      sub\n        /* \"#utility.yul\":12229:12230   */\n      0x00\n        /* \"#utility.yul\":12218:12227   */\n      dup4\n        /* \"#utility.yul\":12214:12231   */\n      add\n        /* \"#utility.yul\":12207:12254   */\n      mstore\n        /* \"#utility.yul\":12271:12402   */\n      tag_420\n        /* \"#utility.yul\":12397:12401   */\n      dup2\n        /* \"#utility.yul\":12271:12402   */\n      tag_365\n      jump\t// in\n    tag_420:\n        /* \"#utility.yul\":12263:12402   */\n      swap1\n      pop\n        /* \"#utility.yul\":12161:12409   */\n      swap2\n      swap1\n      pop\n      jump\t// out\n        /* \"#utility.yul\":12415:12834   */\n    tag_208:\n      0x00\n        /* \"#utility.yul\":12619:12621   */\n      0x20\n        /* \"#utility.yul\":12608:12617   */\n      dup3\n        /* \"#utility.yul\":12604:12622   */\n      add\n        /* \"#utility.yul\":12596:12622   */\n      swap1\n      pop\n        /* \"#utility.yul\":12668:12677   */\n      dup2\n        /* \"#utility.yul\":12662:12666   */\n      dup2\n        /* \"#utility.yul\":12658:12678   */\n      sub\n        /* \"#utility.yul\":12654:12655   */\n      0x00\n        /* \"#utility.yul\":12643:12652   */\n      dup4\n        /* \"#utility.yul\":12639:12656   */\n      add\n        /* \"#utility.yul\":12632:12679   */\n      mstore\n        /* \"#utility.yul\":12696:12827   */\n      tag_422\n        /* \"#utility.yul\":12822:12826   */\n      dup2\n        /* \"#utility.yul\":12696:12827   */\n      tag_368\n      jump\t// in\n    tag_422:\n        /* \"#utility.yul\":12688:12827   */\n      swap1\n      pop\n        /* \"#utility.yul\":12586:12834   */\n      swap2\n      swap1\n      pop\n      jump\t// out\n        /* \"#utility.yul\":12840:13259   */\n    tag_216:\n      0x00\n        /* \"#utility.yul\":13044:13046   */\n      0x20\n        /* \"#utility.yul\":13033:13042   */\n      dup3\n        /* \"#utility.yul\":13029:13047   */\n      add\n        /* \"#utility.yul\":13021:13047   */\n      swap1\n      pop\n        /* \"#utility.yul\":13093:13102   */\n      dup2\n        /* \"#utility.yul\":13087:13091   */\n      dup2\n        /* \"#utility.yul\":13083:13103   */\n      sub\n        /* \"#utility.yul\":13079:13080   */\n      0x00\n        /* \"#utility.yul\":13068:13077   */\n      dup4\n        /* \"#utility.yul\":13064:13081   */\n      add\n        /* \"#utility.yul\":13057:13104   */\n      mstore\n        /* \"#utility.yul\":13121:13252   */\n      tag_424\n        /* \"#utility.yul\":13247:13251   */\n      dup2\n        /* \"#utility.yul\":13121:13252   */\n      tag_371\n      jump\t// in\n    tag_424:\n        /* \"#utility.yul\":13113:13252   */\n      swap1\n      pop\n        /* \"#utility.yul\":13011:13259   */\n      swap2\n      swap1\n      pop\n      jump\t// out\n        /* \"#utility.yul\":13265:13684   */\n    tag_145:\n      0x00\n        /* \"#utility.yul\":13469:13471   */\n      0x20\n        /* \"#utility.yul\":13458:13467   */\n      dup3\n        /* \"#utility.yul\":13454:13472   */\n      add\n        /* \"#utility.yul\":13446:13472   */\n      swap1\n      pop\n        /* \"#utility.yul\":13518:13527   */\n      dup2\n        /* \"#utility.yul\":13512:13516   */\n      dup2\n        /* \"#utility.yul\":13508:13528   */\n      sub\n        /* \"#utility.yul\":13504:13505   */\n      0x00\n        /* \"#utility.yul\":13493:13502   */\n      dup4\n        /* \"#utility.yul\":13489:13506   */\n      add\n        /* \"#utility.yul\":13482:13529   */\n      mstore\n        /* \"#utility.yul\":13546:13677   */\n      tag_426\n        /* \"#utility.yul\":13672:13676   */\n      dup2\n        /* \"#utility.yul\":13546:13677   */\n      tag_374\n      jump\t// in\n    tag_426:\n        /* \"#utility.yul\":13538:13677   */\n      swap1\n      pop\n        /* \"#utility.yul\":13436:13684   */\n      swap2\n      swap1\n      pop\n      jump\t// out\n        /* \"#utility.yul\":13690:14109   */\n    tag_117:\n      0x00\n        /* \"#utility.yul\":13894:13896   */\n      0x20\n        /* \"#utility.yul\":13883:13892   */\n      dup3\n        /* \"#utility.yul\":13879:13897   */\n      add\n        /* \"#utility.yul\":13871:13897   */\n      swap1\n      pop\n        /* \"#utility.yul\":13943:13952   */\n      dup2\n        /* \"#utility.yul\":13937:13941   */\n      dup2\n        /* \"#utility.yul\":13933:13953   */\n      sub\n        /* \"#utility.yul\":13929:13930   */\n      0x00\n        /* \"#utility.yul\":13918:13927   */\n      dup4\n        /* \"#utility.yul\":13914:13931   */\n      add\n        /* \"#utility.yul\":13907:13954   */\n      mstore\n        /* \"#utility.yul\":13971:14102   */\n      tag_428\n        /* \"#utility.yul\":14097:14101   */\n      dup2\n        /* \"#utility.yul\":13971:14102   */\n      tag_377\n      jump\t// in\n    tag_428:\n        /* \"#utility.yul\":13963:14102   */\n      swap1\n      pop\n        /* \"#utility.yul\":13861:14109   */\n      swap2\n      swap1\n      pop\n      jump\t// out\n        /* \"#utility.yul\":14115:14534   */\n    tag_181:\n      0x00\n        /* \"#utility.yul\":14319:14321   */\n      0x20\n        /* \"#utility.yul\":14308:14317   */\n      dup3\n        /* \"#utility.yul\":14304:14322   */\n      add\n        /* \"#utility.yul\":14296:14322   */\n      swap1\n      pop\n        /* \"#utility.yul\":14368:14377   */\n      dup2\n        /* \"#utility.yul\":14362:14366   */\n      dup2\n        /* \"#utility.yul\":14358:14378   */\n      sub\n        /* \"#utility.yul\":14354:14355   */\n      0x00\n        /* \"#utility.yul\":14343:14352   */\n      dup4\n        /* \"#utility.yul\":14339:14356   */\n      add\n        /* \"#utility.yul\":14332:14379   */\n      mstore\n        /* \"#utility.yul\":14396:14527   */\n      tag_430\n        /* \"#utility.yul\":14522:14526   */\n      dup2\n        /* \"#utility.yul\":14396:14527   */\n      tag_380\n      jump\t// in\n    tag_430:\n        /* \"#utility.yul\":14388:14527   */\n      swap1\n      pop\n        /* \"#utility.yul\":14286:14534   */\n      swap2\n      swap1\n      pop\n      jump\t// out\n        /* \"#utility.yul\":14540:14959   */\n    tag_150:\n      0x00\n        /* \"#utility.yul\":14744:14746   */\n      0x20\n        /* \"#utility.yul\":14733:14742   */\n      dup3\n        /* \"#utility.yul\":14729:14747   */\n      add\n        /* \"#utility.yul\":14721:14747   */\n      swap1\n      pop\n        /* \"#utility.yul\":14793:14802   */\n      dup2\n        /* \"#utility.yul\":14787:14791   */\n      dup2\n        /* \"#utility.yul\":14783:14803   */\n      sub\n        /* \"#utility.yul\":14779:14780   */\n      0x00\n        /* \"#utility.yul\":14768:14777   */\n      dup4\n        /* \"#utility.yul\":14764:14781   */\n      add\n        /* \"#utility.yul\":14757:14804   */\n      mstore\n        /* \"#utility.yul\":14821:14952   */\n      tag_432\n        /* \"#utility.yul\":14947:14951   */\n      dup2\n        /* \"#utility.yul\":14821:14952   */\n      tag_383\n      jump\t// in\n    tag_432:\n        /* \"#utility.yul\":14813:14952   */\n      swap1\n      pop\n        /* \"#utility.yul\":14711:14959   */\n      swap2\n      swap1\n      pop\n      jump\t// out\n        /* \"#utility.yul\":14965:15384   */\n    tag_79:\n      0x00\n        /* \"#utility.yul\":15169:15171   */\n      0x20\n        /* \"#utility.yul\":15158:15167   */\n      dup3\n        /* \"#utility.yul\":15154:15172   */\n      add\n        /* \"#utility.yul\":15146:15172   */\n      swap1\n      pop\n        /* \"#utility.yul\":15218:15227   */\n      dup2\n        /* \"#utility.yul\":15212:15216   */\n      dup2\n        /* \"#utility.yul\":15208:15228   */\n      sub\n        /* \"#utility.yul\":15204:15205   */\n      0x00\n        /* \"#utility.yul\":15193:15202   */\n      dup4\n        /* \"#utility.yul\":15189:15206   */\n      add\n        /* \"#utility.yul\":15182:15229   */\n      mstore\n        /* \"#utility.yul\":15246:15377   */\n      tag_434\n        /* \"#utility.yul\":15372:15376   */\n      dup2\n        /* \"#utility.yul\":15246:15377   */\n      tag_386\n      jump\t// in\n    tag_434:\n        /* \"#utility.yul\":15238:15377   */\n      swap1\n      pop\n        /* \"#utility.yul\":15136:15384   */\n      swap2\n      swap1\n      pop\n      jump\t// out\n        /* \"#utility.yul\":15390:15809   */\n    tag_140:\n      0x00\n        /* \"#utility.yul\":15594:15596   */\n      0x20\n        /* \"#utility.yul\":15583:15592   */\n      dup3\n        /* \"#utility.yul\":15579:15597   */\n      add\n        /* \"#utility.yul\":15571:15597   */\n      swap1\n      pop\n        /* \"#utility.yul\":15643:15652   */\n      dup2\n        /* \"#utility.yul\":15637:15641   */\n      dup2\n        /* \"#utility.yul\":15633:15653   */\n      sub\n        /* \"#utility.yul\":15629:15630   */\n      0x00\n        /* \"#utility.yul\":15618:15627   */\n      dup4\n        /* \"#utility.yul\":15614:15631   */\n      add\n        /* \"#utility.yul\":15607:15654   */\n      mstore\n        /* \"#utility.yul\":15671:15802   */\n      tag_436\n        /* \"#utility.yul\":15797:15801   */\n      dup2\n        /* \"#utility.yul\":15671:15802   */\n      tag_389\n      jump\t// in\n    tag_436:\n        /* \"#utility.yul\":15663:15802   */\n      swap1\n      pop\n        /* \"#utility.yul\":15561:15809   */\n      swap2\n      swap1\n      pop\n      jump\t// out\n        /* \"#utility.yul\":15815:16234   */\n    tag_70:\n      0x00\n        /* \"#utility.yul\":16019:16021   */\n      0x20\n        /* \"#utility.yul\":16008:16017   */\n      dup3\n        /* \"#utility.yul\":16004:16022   */\n      add\n        /* \"#utility.yul\":15996:16022   */\n      swap1\n      pop\n        /* \"#utility.yul\":16068:16077   */\n      dup2\n        /* \"#utility.yul\":16062:16066   */\n      dup2\n        /* \"#utility.yul\":16058:16078   */\n      sub\n        /* \"#utility.yul\":16054:16055   */\n      0x00\n        /* \"#utility.yul\":16043:16052   */\n      dup4\n        /* \"#utility.yul\":16039:16056   */\n      add\n        /* \"#utility.yul\":16032:16079   */\n      mstore\n        /* \"#utility.yul\":16096:16227   */\n      tag_438\n        /* \"#utility.yul\":16222:16226   */\n      dup2\n        /* \"#utility.yul\":16096:16227   */\n      tag_392\n      jump\t// in\n    tag_438:\n        /* \"#utility.yul\":16088:16227   */\n      swap1\n      pop\n        /* \"#utility.yul\":15986:16234   */\n      swap2\n      swap1\n      pop\n      jump\t// out\n        /* \"#utility.yul\":16240:16659   */\n    tag_74:\n      0x00\n        /* \"#utility.yul\":16444:16446   */\n      0x20\n        /* \"#utility.yul\":16433:16442   */\n      dup3\n        /* \"#utility.yul\":16429:16447   */\n      add\n        /* \"#utility.yul\":16421:16447   */\n      swap1\n      pop\n        /* \"#utility.yul\":16493:16502   */\n      dup2\n        /* \"#utility.yul\":16487:16491   */\n      dup2\n        /* \"#utility.yul\":16483:16503   */\n      sub\n        /* \"#utility.yul\":16479:16480   */\n      0x00\n        /* \"#utility.yul\":16468:16477   */\n      dup4\n        /* \"#utility.yul\":16464:16481   */\n      add\n        /* \"#utility.yul\":16457:16504   */\n      mstore\n        /* \"#utility.yul\":16521:16652   */\n      tag_440\n        /* \"#utility.yul\":16647:16651   */\n      dup2\n        /* \"#utility.yul\":16521:16652   */\n      tag_395\n      jump\t// in\n    tag_440:\n        /* \"#utility.yul\":16513:16652   */\n      swap1\n      pop\n        /* \"#utility.yul\":16411:16659   */\n      swap2\n      swap1\n      pop\n      jump\t// out\n        /* \"#utility.yul\":16665:16887   */\n    tag_43:\n      0x00\n        /* \"#utility.yul\":16796:16798   */\n      0x20\n        /* \"#utility.yul\":16785:16794   */\n      dup3\n        /* \"#utility.yul\":16781:16799   */\n      add\n        /* \"#utility.yul\":16773:16799   */\n      swap1\n      pop\n        /* \"#utility.yul\":16809:16880   */\n      tag_442\n        /* \"#utility.yul\":16877:16878   */\n      0x00\n        /* \"#utility.yul\":16866:16875   */\n      dup4\n        /* \"#utility.yul\":16862:16879   */\n      add\n        /* \"#utility.yul\":16853:16859   */\n      dup5\n        /* \"#utility.yul\":16809:16880   */\n      tag_401\n      jump\t// in\n    tag_442:\n        /* \"#utility.yul\":16763:16887   */\n      swap3\n      swap2\n      pop\n      pop\n      jump\t// out\n        /* \"#utility.yul\":16893:17176   */\n    tag_282:\n      0x00\n        /* \"#utility.yul\":16959:16961   */\n      0x40\n        /* \"#utility.yul\":16953:16962   */\n      mload\n        /* \"#utility.yul\":16943:16962   */\n      swap1\n      pop\n        /* \"#utility.yul\":17001:17005   */\n      dup2\n        /* \"#utility.yul\":16993:16999   */\n      dup2\n        /* \"#utility.yul\":16989:17006   */\n      add\n        /* \"#utility.yul\":17108:17114   */\n      dup2\n        /* \"#utility.yul\":17096:17106   */\n      dup2\n        /* \"#utility.yul\":17093:17115   */\n      lt\n        /* \"#utility.yul\":17072:17090   */\n      0xffffffffffffffff\n        /* \"#utility.yul\":17060:17070   */\n      dup3\n        /* \"#utility.yul\":17057:17091   */\n      gt\n        /* \"#utility.yul\":17054:17116   */\n      or\n        /* \"#utility.yul\":17051:17053   */\n      iszero\n      tag_444\n      jumpi\n        /* \"#utility.yul\":17119:17137   */\n      tag_445\n      tag_446\n      jump\t// in\n    tag_445:\n        /* \"#utility.yul\":17051:17053   */\n    tag_444:\n        /* \"#utility.yul\":17159:17169   */\n      dup1\n        /* \"#utility.yul\":17155:17157   */\n      0x40\n        /* \"#utility.yul\":17148:17170   */\n      mstore\n        /* \"#utility.yul\":16933:17176   */\n      pop\n      swap2\n      swap1\n      pop\n      jump\t// out\n        /* \"#utility.yul\":17182:17514   */\n    tag_281:\n      0x00\n        /* \"#utility.yul\":17334:17352   */\n      0xffffffffffffffff\n        /* \"#utility.yul\":17326:17332   */\n      dup3\n        /* \"#utility.yul\":17323:17353   */\n      gt\n        /* \"#utility.yul\":17320:17322   */\n      iszero\n      tag_448\n      jumpi\n        /* \"#utility.yul\":17356:17374   */\n      tag_449\n      tag_446\n      jump\t// in\n    tag_449:\n        /* \"#utility.yul\":17320:17322   */\n    tag_448:\n        /* \"#utility.yul\":17441:17445   */\n      0x1f\n        /* \"#utility.yul\":17437:17446   */\n      not\n        /* \"#utility.yul\":17430:17434   */\n      0x1f\n        /* \"#utility.yul\":17422:17428   */\n      dup4\n        /* \"#utility.yul\":17418:17435   */\n      add\n        /* \"#utility.yul\":17414:17447   */\n      and\n        /* \"#utility.yul\":17406:17447   */\n      swap1\n      pop\n        /* \"#utility.yul\":17502:17506   */\n      0x20\n        /* \"#utility.yul\":17496:17500   */\n      dup2\n        /* \"#utility.yul\":17492:17507   */\n      add\n        /* \"#utility.yul\":17484:17507   */\n      swap1\n      pop\n        /* \"#utility.yul\":17249:17514   */\n      swap2\n      swap1\n      pop\n      jump\t// out\n        /* \"#utility.yul\":17520:17652   */\n    tag_338:\n      0x00\n        /* \"#utility.yul\":17610:17613   */\n      dup2\n        /* \"#utility.yul\":17602:17613   */\n      swap1\n      pop\n        /* \"#utility.yul\":17640:17644   */\n      0x20\n        /* \"#utility.yul\":17635:17638   */\n      dup3\n        /* \"#utility.yul\":17631:17645   */\n      add\n        /* \"#utility.yul\":17623:17645   */\n      swap1\n      pop\n        /* \"#utility.yul\":17592:17652   */\n      swap2\n      swap1\n      pop\n      jump\t// out\n        /* \"#utility.yul\":17658:17772   */\n    tag_334:\n      0x00\n        /* \"#utility.yul\":17759:17764   */\n      dup2\n        /* \"#utility.yul\":17753:17765   */\n      mload\n        /* \"#utility.yul\":17743:17765   */\n      swap1\n      pop\n        /* \"#utility.yul\":17732:17772   */\n      swap2\n      swap1\n      pop\n      jump\t// out\n        /* \"#utility.yul\":17778:17877   */\n    tag_352:\n      0x00\n        /* \"#utility.yul\":17864:17869   */\n      dup2\n        /* \"#utility.yul\":17858:17870   */\n      mload\n        /* \"#utility.yul\":17848:17870   */\n      swap1\n      pop\n        /* \"#utility.yul\":17837:17877   */\n      swap2\n      swap1\n      pop\n      jump\t// out\n        /* \"#utility.yul\":17883:17996   */\n    tag_344:\n      0x00\n        /* \"#utility.yul\":17985:17989   */\n      0x20\n        /* \"#utility.yul\":17980:17983   */\n      dup3\n        /* \"#utility.yul\":17976:17990   */\n      add\n        /* \"#utility.yul\":17968:17990   */\n      swap1\n      pop\n        /* \"#utility.yul\":17958:17996   */\n      swap2\n      swap1\n      pop\n      jump\t// out\n        /* \"#utility.yul\":18002:18186   */\n    tag_336:\n      0x00\n        /* \"#utility.yul\":18135:18141   */\n      dup3\n        /* \"#utility.yul\":18130:18133   */\n      dup3\n        /* \"#utility.yul\":18123:18142   */\n      mstore\n        /* \"#utility.yul\":18175:18179   */\n      0x20\n        /* \"#utility.yul\":18170:18173   */\n      dup3\n        /* \"#utility.yul\":18166:18180   */\n      add\n        /* \"#utility.yul\":18151:18180   */\n      swap1\n      pop\n        /* \"#utility.yul\":18113:18186   */\n      swap3\n      swap2\n      pop\n      pop\n      jump\t// out\n        /* \"#utility.yul\":18192:18361   */\n    tag_354:\n      0x00\n        /* \"#utility.yul\":18310:18316   */\n      dup3\n        /* \"#utility.yul\":18305:18308   */\n      dup3\n        /* \"#utility.yul\":18298:18317   */\n      mstore\n        /* \"#utility.yul\":18350:18354   */\n      0x20\n        /* \"#utility.yul\":18345:18348   */\n      dup3\n        /* \"#utility.yul\":18341:18355   */\n      add\n        /* \"#utility.yul\":18326:18355   */\n      swap1\n      pop\n        /* \"#utility.yul\":18288:18361   */\n      swap3\n      swap2\n      pop\n      pop\n      jump\t// out\n        /* \"#utility.yul\":18367:18515   */\n    tag_363:\n      0x00\n        /* \"#utility.yul\":18506:18509   */\n      dup2\n        /* \"#utility.yul\":18491:18509   */\n      swap1\n      pop\n        /* \"#utility.yul\":18481:18515   */\n      swap3\n      swap2\n      pop\n      pop\n      jump\t// out\n        /* \"#utility.yul\":18521:18712   */\n    tag_162:\n      0x00\n        /* \"#utility.yul\":18581:18601   */\n      tag_458\n        /* \"#utility.yul\":18599:18600   */\n      dup3\n        /* \"#utility.yul\":18581:18601   */\n      tag_400\n      jump\t// in\n    tag_458:\n        /* \"#utility.yul\":18576:18601   */\n      swap2\n      pop\n        /* \"#utility.yul\":18615:18635   */\n      tag_459\n        /* \"#utility.yul\":18633:18634   */\n      dup4\n        /* \"#utility.yul\":18615:18635   */\n      tag_400\n      jump\t// in\n    tag_459:\n        /* \"#utility.yul\":18610:18635   */\n      swap3\n      pop\n        /* \"#utility.yul\":18654:18655   */\n      dup3\n        /* \"#utility.yul\":18651:18652   */\n      dup3\n        /* \"#utility.yul\":18648:18656   */\n      lt\n        /* \"#utility.yul\":18645:18647   */\n      iszero\n      tag_460\n      jumpi\n        /* \"#utility.yul\":18659:18677   */\n      tag_461\n      tag_462\n      jump\t// in\n    tag_461:\n        /* \"#utility.yul\":18645:18647   */\n    tag_460:\n        /* \"#utility.yul\":18704:18705   */\n      dup3\n        /* \"#utility.yul\":18701:18702   */\n      dup3\n        /* \"#utility.yul\":18697:18706   */\n      sub\n        /* \"#utility.yul\":18689:18706   */\n      swap1\n      pop\n        /* \"#utility.yul\":18566:18712   */\n      swap3\n      swap2\n      pop\n      pop\n      jump\t// out\n        /* \"#utility.yul\":18718:18814   */\n    tag_330:\n      0x00\n        /* \"#utility.yul\":18784:18808   */\n      tag_464\n        /* \"#utility.yul\":18802:18807   */\n      dup3\n        /* \"#utility.yul\":18784:18808   */\n      tag_465\n      jump\t// in\n    tag_464:\n        /* \"#utility.yul\":18773:18808   */\n      swap1\n      pop\n        /* \"#utility.yul\":18763:18814   */\n      swap2\n      swap1\n      pop\n      jump\t// out\n        /* \"#utility.yul\":18820:18910   */\n    tag_348:\n      0x00\n        /* \"#utility.yul\":18897:18902   */\n      dup2\n        /* \"#utility.yul\":18890:18903   */\n      iszero\n        /* \"#utility.yul\":18883:18904   */\n      iszero\n        /* \"#utility.yul\":18872:18904   */\n      swap1\n      pop\n        /* \"#utility.yul\":18862:18910   */\n      swap2\n      swap1\n      pop\n      jump\t// out\n        /* \"#utility.yul\":18916:19042   */\n    tag_465:\n      0x00\n        /* \"#utility.yul\":18993:19035   */\n      0xffffffffffffffffffffffffffffffffffffffff\n        /* \"#utility.yul\":18986:18991   */\n      dup3\n        /* \"#utility.yul\":18982:19036   */\n      and\n        /* \"#utility.yul\":18971:19036   */\n      swap1\n      pop\n        /* \"#utility.yul\":18961:19042   */\n      swap2\n      swap1\n      pop\n      jump\t// out\n        /* \"#utility.yul\":19048:19125   */\n    tag_400:\n      0x00\n        /* \"#utility.yul\":19114:19119   */\n      dup2\n        /* \"#utility.yul\":19103:19119   */\n      swap1\n      pop\n        /* \"#utility.yul\":19093:19125   */\n      swap2\n      swap1\n      pop\n      jump\t// out\n        /* \"#utility.yul\":19131:19285   */\n    tag_285:\n        /* \"#utility.yul\":19215:19221   */\n      dup3\n        /* \"#utility.yul\":19210:19213   */\n      dup2\n        /* \"#utility.yul\":19205:19208   */\n      dup4\n        /* \"#utility.yul\":19192:19222   */\n      calldatacopy\n        /* \"#utility.yul\":19277:19278   */\n      0x00\n        /* \"#utility.yul\":19268:19274   */\n      dup4\n        /* \"#utility.yul\":19263:19266   */\n      dup4\n        /* \"#utility.yul\":19259:19275   */\n      add\n        /* \"#utility.yul\":19252:19279   */\n      mstore\n        /* \"#utility.yul\":19182:19285   */\n      pop\n      pop\n      pop\n      jump\t// out\n        /* \"#utility.yul\":19291:19598   */\n    tag_356:\n        /* \"#utility.yul\":19359:19360   */\n      0x00\n        /* \"#utility.yul\":19369:19482   */\n    tag_471:\n        /* \"#utility.yul\":19383:19389   */\n      dup4\n        /* \"#utility.yul\":19380:19381   */\n      dup2\n        /* \"#utility.yul\":19377:19390   */\n      lt\n        /* \"#utility.yul\":19369:19482   */\n      iszero\n      tag_473\n      jumpi\n        /* \"#utility.yul\":19468:19469   */\n      dup1\n        /* \"#utility.yul\":19463:19466   */\n      dup3\n        /* \"#utility.yul\":19459:19470   */\n      add\n        /* \"#utility.yul\":19453:19471   */\n      mload\n        /* \"#utility.yul\":19449:19450   */\n      dup2\n        /* \"#utility.yul\":19444:19447   */\n      dup5\n        /* \"#utility.yul\":19440:19451   */\n      add\n        /* \"#utility.yul\":19433:19472   */\n      mstore\n        /* \"#utility.yul\":19405:19407   */\n      0x20\n        /* \"#utility.yul\":19402:19403   */\n      dup2\n        /* \"#utility.yul\":19398:19408   */\n      add\n        /* \"#utility.yul\":19393:19408   */\n      swap1\n      pop\n        /* \"#utility.yul\":19369:19482   */\n      jump(tag_471)\n    tag_473:\n        /* \"#utility.yul\":19500:19506   */\n      dup4\n        /* \"#utility.yul\":19497:19498   */\n      dup2\n        /* \"#utility.yul\":19494:19507   */\n      gt\n        /* \"#utility.yul\":19491:19493   */\n      iszero\n      tag_474\n      jumpi\n        /* \"#utility.yul\":19580:19581   */\n      0x00\n        /* \"#utility.yul\":19571:19577   */\n      dup5\n        /* \"#utility.yul\":19566:19569   */\n      dup5\n        /* \"#utility.yul\":19562:19578   */\n      add\n        /* \"#utility.yul\":19555:19582   */\n      mstore\n        /* \"#utility.yul\":19491:19493   */\n    tag_474:\n        /* \"#utility.yul\":19340:19598   */\n      pop\n      pop\n      pop\n      pop\n      jump\t// out\n        /* \"#utility.yul\":19604:19775   */\n    tag_173:\n      0x00\n        /* \"#utility.yul\":19666:19690   */\n      tag_476\n        /* \"#utility.yul\":19684:19689   */\n      dup3\n        /* \"#utility.yul\":19666:19690   */\n      tag_400\n      jump\t// in\n    tag_476:\n        /* \"#utility.yul\":19657:19690   */\n      swap2\n      pop\n        /* \"#utility.yul\":19712:19716   */\n      0x00\n        /* \"#utility.yul\":19705:19710   */\n      dup3\n        /* \"#utility.yul\":19702:19717   */\n      eq\n        /* \"#utility.yul\":19699:19701   */\n      iszero\n      tag_477\n      jumpi\n        /* \"#utility.yul\":19720:19738   */\n      tag_478\n      tag_462\n      jump\t// in\n    tag_478:\n        /* \"#utility.yul\":19699:19701   */\n    tag_477:\n        /* \"#utility.yul\":19767:19768   */\n      0x01\n        /* \"#utility.yul\":19760:19765   */\n      dup3\n        /* \"#utility.yul\":19756:19769   */\n      sub\n        /* \"#utility.yul\":19749:19769   */\n      swap1\n      pop\n        /* \"#utility.yul\":19647:19775   */\n      swap2\n      swap1\n      pop\n      jump\t// out\n        /* \"#utility.yul\":19781:20101   */\n    tag_95:\n      0x00\n        /* \"#utility.yul\":19862:19863   */\n      0x02\n        /* \"#utility.yul\":19856:19860   */\n      dup3\n        /* \"#utility.yul\":19852:19864   */\n      div\n        /* \"#utility.yul\":19842:19864   */\n      swap1\n      pop\n        /* \"#utility.yul\":19909:19910   */\n      0x01\n        /* \"#utility.yul\":19903:19907   */\n      dup3\n        /* \"#utility.yul\":19899:19911   */\n      and\n        /* \"#utility.yul\":19930:19948   */\n      dup1\n        /* \"#utility.yul\":19920:19922   */\n      tag_480\n      jumpi\n        /* \"#utility.yul\":19986:19990   */\n      0x7f\n        /* \"#utility.yul\":19978:19984   */\n      dup3\n        /* \"#utility.yul\":19974:19991   */\n      and\n        /* \"#utility.yul\":19964:19991   */\n      swap2\n      pop\n        /* \"#utility.yul\":19920:19922   */\n    tag_480:\n        /* \"#utility.yul\":20048:20050   */\n      0x20\n        /* \"#utility.yul\":20040:20046   */\n      dup3\n        /* \"#utility.yul\":20037:20051   */\n      lt\n        /* \"#utility.yul\":20017:20035   */\n      dup2\n        /* \"#utility.yul\":20014:20052   */\n      eq\n        /* \"#utility.yul\":20011:20013   */\n      iszero\n      tag_481\n      jumpi\n        /* \"#utility.yul\":20067:20085   */\n      tag_482\n      tag_483\n      jump\t// in\n    tag_482:\n        /* \"#utility.yul\":20011:20013   */\n    tag_481:\n        /* \"#utility.yul\":19832:20101   */\n      pop\n      swap2\n      swap1\n      pop\n      jump\t// out\n        /* \"#utility.yul\":20107:20340   */\n    tag_104:\n      0x00\n        /* \"#utility.yul\":20169:20193   */\n      tag_485\n        /* \"#utility.yul\":20187:20192   */\n      dup3\n        /* \"#utility.yul\":20169:20193   */\n      tag_400\n      jump\t// in\n    tag_485:\n        /* \"#utility.yul\":20160:20193   */\n      swap2\n      pop\n        /* \"#utility.yul\":20215:20281   */\n      0xffffffffffffffffffffffffffffffffffffffffffffffffffffffffffffffff\n        /* \"#utility.yul\":20208:20213   */\n      dup3\n        /* \"#utility.yul\":20205:20282   */\n      eq\n        /* \"#utility.yul\":20202:20204   */\n      iszero\n      tag_486\n      jumpi\n        /* \"#utility.yul\":20285:20303   */\n      tag_487\n      tag_462\n      jump\t// in\n    tag_487:\n        /* \"#utility.yul\":20202:20204   */\n    tag_486:\n        /* \"#utility.yul\":20332:20333   */\n      0x01\n        /* \"#utility.yul\":20325:20330   */\n      dup3\n        /* \"#utility.yul\":20321:20334   */\n      add\n        /* \"#utility.yul\":20314:20334   */\n      swap1\n      pop\n        /* \"#utility.yul\":20150:20340   */\n      swap2\n      swap1\n      pop\n      jump\t// out\n        /* \"#utility.yul\":20346:20526   */\n    tag_462:\n        /* \"#utility.yul\":20394:20471   */\n      0x4e487b7100000000000000000000000000000000000000000000000000000000\n        /* \"#utility.yul\":20391:20392   */\n      0x00\n        /* \"#utility.yul\":20384:20472   */\n      mstore\n        /* \"#utility.yul\":20491:20495   */\n      0x11\n        /* \"#utility.yul\":20488:20489   */\n      0x04\n        /* \"#utility.yul\":20481:20496   */\n      mstore\n        /* \"#utility.yul\":20515:20519   */\n      0x24\n        /* \"#utility.yul\":20512:20513   */\n      0x00\n        /* \"#utility.yul\":20505:20520   */\n      revert\n        /* \"#utility.yul\":20532:20712   */\n    tag_483:\n        /* \"#utility.yul\":20580:20657   */\n      0x4e487b7100000000000000000000000000000000000000000000000000000000\n        /* \"#utility.yul\":20577:20578   */\n      0x00\n        /* \"#utility.yul\":20570:20658   */\n      mstore\n        /* \"#utility.yul\":20677:20681   */\n      0x22\n        /* \"#utility.yul\":20674:20675   */\n      0x04\n        /* \"#utility.yul\":20667:20682   */\n      mstore\n        /* \"#utility.yul\":20701:20705   */\n      0x24\n        /* \"#utility.yul\":20698:20699   */\n      0x00\n        /* \"#utility.yul\":20691:20706   */\n      revert\n        /* \"#utility.yul\":20718:20898   */\n    tag_446:\n        /* \"#utility.yul\":20766:20843   */\n      0x4e487b7100000000000000000000000000000000000000000000000000000000\n        /* \"#utility.yul\":20763:20764   */\n      0x00\n        /* \"#utility.yul\":20756:20844   */\n      mstore\n        /* \"#utility.yul\":20863:20867   */\n      0x41\n        /* \"#utility.yul\":20860:20861   */\n      0x04\n        /* \"#utility.yul\":20853:20868   */\n      mstore\n        /* \"#utility.yul\":20887:20891   */\n      0x24\n        /* \"#utility.yul\":20884:20885   */\n      0x00\n        /* \"#utility.yul\":20877:20892   */\n      revert\n        /* \"#utility.yul\":20904:21006   */\n    tag_358:\n      0x00\n        /* \"#utility.yul\":20996:20998   */\n      0x1f\n        /* \"#utility.yul\":20992:20999   */\n      not\n        /* \"#utility.yul\":20987:20989   */\n      0x1f\n        /* \"#utility.yul\":20980:20985   */\n      dup4\n        /* \"#utility.yul\":20976:20990   */\n      add\n        /* \"#utility.yul\":20972:21000   */\n      and\n        /* \"#utility.yul\":20962:21000   */\n      swap1\n      pop\n        /* \"#utility.yul\":20952:21006   */\n      swap2\n      swap1\n      pop\n      jump\t// out\n        /* \"#utility.yul\":21012:21128   */\n    tag_289:\n        /* \"#utility.yul\":21082:21103   */\n      tag_493\n        /* \"#utility.yul\":21097:21102   */\n      dup2\n        /* \"#utility.yul\":21082:21103   */\n      tag_348\n      jump\t// in\n    tag_493:\n        /* \"#utility.yul\":21075:21080   */\n      dup2\n        /* \"#utility.yul\":21072:21104   */\n      eq\n        /* \"#utility.yul\":21062:21064   */\n      tag_494\n      jumpi\n        /* \"#utility.yul\":21118:21119   */\n      0x00\n        /* \"#utility.yul\":21115:21116   */\n      dup1\n        /* \"#utility.yul\":21108:21120   */\n      revert\n        /* \"#utility.yul\":21062:21064   */\n    tag_494:\n        /* \"#utility.yul\":21052:21128   */\n      pop\n      jump\t// out\n        /* \"#utility.yul\":21134:21256   */\n    tag_297:\n        /* \"#utility.yul\":21207:21231   */\n      tag_496\n        /* \"#utility.yul\":21225:21230   */\n      dup2\n        /* \"#utility.yul\":21207:21231   */\n      tag_400\n      jump\t// in\n    tag_496:\n        /* \"#utility.yul\":21200:21205   */\n      dup2\n        /* \"#utility.yul\":21197:21232   */\n      eq\n        /* \"#utility.yul\":21187:21189   */\n      tag_497\n      jumpi\n        /* \"#utility.yul\":21246:21247   */\n      0x00\n        /* \"#utility.yul\":21243:21244   */\n      dup1\n        /* \"#utility.yul\":21236:21248   */\n      revert\n        /* \"#utility.yul\":21187:21189   */\n    tag_497:\n        /* \"#utility.yul\":21177:21256   */\n      pop\n      jump\t// out\n\n    auxdata: 0xa26469706673582212209a433caa1a897f0b18c2ce0cbc508f04b52eeccdb1ef2eca6ab3928a1271435b64736f6c63430008000033\n}\n",
				"bytecode": {
					"linkReferences": {},
					"object": "608060405260016000806101000a81548160ff021916908315150217905550426001553480156200002f57600080fd5b5033600060016101000a81548173ffffffffffffffffffffffffffffffffffffffff021916908373ffffffffffffffffffffffffffffffffffffffff160217905550620000d16040518060400160405280600681526020017f496e6963696f00000000000000000000000000000000000000000000000000008152506040518060600160405280603481526020016200318d60349139620000d760201b60201c565b620008a8565b60008054906101000a900460ff1662000127576040517f08c379a00000000000000000000000000000000000000000000000000000000081526004016200011e906200073d565b60405180910390fd5b62000138826200032160201b60201c565b156200017b576040517f08c379a000000000000000000000000000000000000000000000000000000000815260040162000172906200071b565b60405180910390fd5b60006002600181600181540180825580915050039060005260206000209060040201905060018160000160006101000a81548160ff021916908315150217905550338160000160016101000a81548173ffffffffffffffffffffffffffffffffffffffff021916908373ffffffffffffffffffffffffffffffffffffffff160217905550428160010181905550828160020190805190602001906200022292919062000525565b508060030160405180608001604052806001151581526020013373ffffffffffffffffffffffffffffffffffffffff16815260200142815260200184815250908060018154018082558091505060019003906000526020600020906003020160009091909190915060008201518160000160006101000a81548160ff02191690831515021790555060208201518160000160016101000a81548173ffffffffffffffffffffffffffffffffffffffff021916908373ffffffffffffffffffffffffffffffffffffffff1602179055506040820151816001015560608201518160020190805190602001906200031992919062000525565b505050505050565b600080600090505b600280549050811015620004ad576002818154811062000372577f4e487b7100000000000000000000000000000000000000000000000000000000600052603260045260246000fd5b906000526020600020906004020160000160009054906101000a900460ff161562000497576200048560028281548110620003d6577f4e487b7100000000000000000000000000000000000000000000000000000000600052603260045260246000fd5b90600052602060002090600402016002018054620003f490620007c6565b80601f01602080910402602001604051908101604052809291908181526020018280546200042290620007c6565b8015620004735780601f10620004475761010080835404028352916020019162000473565b820191906000526020600020905b8154815290600101906020018083116200045557829003601f168201915b505050505084620004b860201b60201c565b1562000496576001915050620004b3565b5b8080620004a490620007fc565b91505062000329565b50600090505b919050565b600081604051602001620004cd919062000702565b6040516020818303038152906040528051906020012083604051602001620004f6919062000702565b60405160208183030381529060405280519060200120146200051a5760006200051d565b60015b905092915050565b8280546200053390620007c6565b90600052602060002090601f016020900481019282620005575760008555620005a3565b82601f106200057257805160ff1916838001178555620005a3565b82800160010185558215620005a3579182015b82811115620005a257825182559160200191906001019062000585565b5b509050620005b29190620005b6565b5090565b5b80821115620005d1576000816000905550600101620005b7565b5090565b6000620005e2826200075f565b620005ee81856200077b565b93506200060081856020860162000790565b80840191505092915050565b60006200061b6026836200076a565b91507f4a612065786973746520706167696e6120617469766120636f6d20657374652060008301527f746974756c6f00000000000000000000000000000000000000000000000000006020830152604082019050919050565b6000620006836047836200076a565b91507f412061646963616f206465206e6f76617320706167696e617320736f2065207060008301527f65726d6974696461207175616e646f206120426c6f636b70656469612065737460208301527f61206174697661000000000000000000000000000000000000000000000000006040830152606082019050919050565b6000620007108284620005d5565b915081905092915050565b6000602082019050818103600083015262000736816200060c565b9050919050565b60006020820190508181036000830152620007588162000674565b9050919050565b600081519050919050565b600082825260208201905092915050565b600081905092915050565b6000819050919050565b60005b83811015620007b057808201518184015260208101905062000793565b83811115620007c0576000848401525b50505050565b60006002820490506001821680620007df57607f821691505b60208210811415620007f657620007f562000879565b5b50919050565b6000620008098262000786565b91507fffffffffffffffffffffffffffffffffffffffffffffffffffffffffffffffff8214156200083f576200083e6200084a565b5b600182019050919050565b7f4e487b7100000000000000000000000000000000000000000000000000000000600052601160045260246000fd5b7f4e487b7100000000000000000000000000000000000000000000000000000000600052602260045260246000fd5b6128d580620008b86000396000f3fe608060405234801561001057600080fd5b50600436106100b45760003560e01c806395be551a1161007157806395be551a1461018d578063a18cc13b146101a9578063aa83581f146101c7578063d4d23a6e146101e3578063d616c9f0146101ff578063e7d4296a1461021b576100b4565b80630694952d146100b95780631509d30c146100d75780631c18379a146100f35780632e87ca2e1461010f5780634d7e67261461013f5780636f70a52e1461016f575b600080fd5b6100c161024e565b6040516100ce919061236e565b60405180910390f35b6100f160048036038101906100ec9190611c24565b610274565b005b61010d60048036038101906101089190611c8e565b610320565b005b61012960048036038101906101249190611c4d565b610558565b6040516101369190612389565b60405180910390f35b61015960048036038101906101549190611cfa565b610851565b6040516101669190612412565b60405180910390f35b610177610b79565b6040516101849190612594565b60405180910390f35b6101a760048036038101906101a29190611d77565b610b7f565b005b6101b1611076565b6040516101be91906123ab565b60405180910390f35b6101e160048036038101906101dc9190611cfa565b611087565b005b6101fd60048036038101906101f89190611d23565b611302565b005b61021960048036038101906102149190611cfa565b611570565b005b61023560048036038101906102309190611cfa565b6116ce565b60405161024594939291906123c6565b60405180910390f35b600060019054906101000a900473ffffffffffffffffffffffffffffffffffffffff1681565b600060019054906101000a900473ffffffffffffffffffffffffffffffffffffffff1673ffffffffffffffffffffffffffffffffffffffff163373ffffffffffffffffffffffffffffffffffffffff1614610304576040517f08c379a00000000000000000000000000000000000000000000000000000000081526004016102fb90612554565b60405180910390fd5b806000806101000a81548160ff02191690831515021790555050565b60008054906101000a900460ff1661036d576040517f08c379a000000000000000000000000000000000000000000000000000000000815260040161036490612574565b60405180910390fd5b610376826117c3565b156103b6576040517f08c379a00000000000000000000000000000000000000000000000000000000081526004016103ad90612514565b60405180910390fd5b60006002600181600181540180825580915050039060005260206000209060040201905060018160000160006101000a81548160ff021916908315150217905550338160000160016101000a81548173ffffffffffffffffffffffffffffffffffffffff021916908373ffffffffffffffffffffffffffffffffffffffff1602179055504281600101819055508281600201908051906020019061045b929190611aaf565b508060030160405180608001604052806001151581526020013373ffffffffffffffffffffffffffffffffffffffff16815260200142815260200184815250908060018154018082558091505060019003906000526020600020906003020160009091909190915060008201518160000160006101000a81548160ff02191690831515021790555060208201518160000160016101000a81548173ffffffffffffffffffffffffffffffffffffffff021916908373ffffffffffffffffffffffffffffffffffffffff160217905550604082015181600101556060820151816002019080519060200190610550929190611aaf565b505050505050565b6060600060028054905067ffffffffffffffff8111156105a1577f4e487b7100000000000000000000000000000000000000000000000000000000600052604160045260246000fd5b6040519080825280602002602001820160405280156105cf5781602001602082028036833780820191505090505b5090506000805b60028054905081101561072d576106c060028281548110610620577f4e487b7100000000000000000000000000000000000000000000000000000000600052603260045260246000fd5b9060005260206000209060040201600201805461063c90612758565b80601f016020809104026020016040519081016040528092919081815260200182805461066890612758565b80156106b55780601f1061068a576101008083540402835291602001916106b5565b820191906000526020600020905b81548152906001019060200180831161069857829003601f168201915b505050505086611941565b1561071a57808383815181106106ff577f4e487b7100000000000000000000000000000000000000000000000000000000600052603260045260246000fd5b60200260200101818152505081806107169061278a565b9250505b80806107259061278a565b9150506105d6565b5060008167ffffffffffffffff811115610770577f4e487b7100000000000000000000000000000000000000000000000000000000600052604160045260246000fd5b60405190808252806020026020018201604052801561079e5781602001602082028036833780820191505090505b50905060005b82811015610845578381815181106107e5577f4e487b7100000000000000000000000000000000000000000000000000000000600052603260045260246000fd5b6020026020010151828281518110610826577f4e487b7100000000000000000000000000000000000000000000000000000000600052603260045260246000fd5b602002602001018181525050808061083d9061278a565b9150506107a4565b50809350505050919050565b6060600280549050821061089a576040517f08c379a0000000000000000000000000000000000000000000000000000000008152600401610891906124b4565b60405180910390fd5b610b6e600283815481106108d7577f4e487b7100000000000000000000000000000000000000000000000000000000600052603260045260246000fd5b90600052602060002090600402016040518060a00160405290816000820160009054906101000a900460ff161515151581526020016000820160019054906101000a900473ffffffffffffffffffffffffffffffffffffffff1673ffffffffffffffffffffffffffffffffffffffff1673ffffffffffffffffffffffffffffffffffffffff1681526020016001820154815260200160028201805461097b90612758565b80601f01602080910402602001604051908101604052809291908181526020018280546109a790612758565b80156109f45780601f106109c9576101008083540402835291602001916109f4565b820191906000526020600020905b8154815290600101906020018083116109d757829003601f168201915b5050505050815260200160038201805480602002602001604051908101604052809291908181526020016000905b82821015610b6157838290600052602060002090600302016040518060800160405290816000820160009054906101000a900460ff161515151581526020016000820160019054906101000a900473ffffffffffffffffffffffffffffffffffffffff1673ffffffffffffffffffffffffffffffffffffffff1673ffffffffffffffffffffffffffffffffffffffff16815260200160018201548152602001600282018054610ad090612758565b80601f0160208091040260200160405190810160405280929190818152602001828054610afc90612758565b8015610b495780601f10610b1e57610100808354040283529160200191610b49565b820191906000526020600020905b815481529060010190602001808311610b2c57829003601f168201915b50505050508152505081526020019060010190610a22565b50505050815250506119a8565b606001519050919050565b60015481565b60008054906101000a900460ff16610bcc576040517f08c379a0000000000000000000000000000000000000000000000000000000008152600401610bc390612574565b60405180910390fd5b6002805490508210610c13576040517f08c379a0000000000000000000000000000000000000000000000000000000008152600401610c0a90612534565b60405180910390fd5b60028281548110610c4d577f4e487b7100000000000000000000000000000000000000000000000000000000600052603260045260246000fd5b906000526020600020906004020160000160009054906101000a900460ff16610cab576040517f08c379a0000000000000000000000000000000000000000000000000000000008152600401610ca290612494565b60405180910390fd5b60028281548110610ce5577f4e487b7100000000000000000000000000000000000000000000000000000000600052603260045260246000fd5b9060005260206000209060040201600301805490508110610d3b576040517f08c379a0000000000000000000000000000000000000000000000000000000008152600401610d32906124f4565b60405180910390fd5b60028281548110610d75577f4e487b7100000000000000000000000000000000000000000000000000000000600052603260045260246000fd5b90600052602060002090600402016003018181548110610dbe577f4e487b7100000000000000000000000000000000000000000000000000000000600052603260045260246000fd5b906000526020600020906003020160000160009054906101000a900460ff1615610de757611072565b600060028381548110610e23577f4e487b7100000000000000000000000000000000000000000000000000000000600052603260045260246000fd5b90600052602060002090600402016003018054905090505b6000811115610fc3576000600182610e539190612670565b905060028481548110610e8f577f4e487b7100000000000000000000000000000000000000000000000000000000600052603260045260246000fd5b90600052602060002090600402016003018181548110610ed8577f4e487b7100000000000000000000000000000000000000000000000000000000600052603260045260246000fd5b906000526020600020906003020160000160009054906101000a900460ff1615610faf57600060028581548110610f38577f4e487b7100000000000000000000000000000000000000000000000000000000600052603260045260246000fd5b90600052602060002090600402016003018281548110610f81577f4e487b7100000000000000000000000000000000000000000000000000000000600052603260045260246000fd5b906000526020600020906003020160000160006101000a81548160ff02191690831515021790555050610fc3565b508080610fbb9061272e565b915050610e3b565b50600160028381548110611000577f4e487b7100000000000000000000000000000000000000000000000000000000600052603260045260246000fd5b90600052602060002090600402016003018281548110611049577f4e487b7100000000000000000000000000000000000000000000000000000000600052603260045260246000fd5b906000526020600020906003020160000160006101000a81548160ff0219169083151502179055505b5050565b60008054906101000a900460ff1681565b60008054906101000a900460ff166110d4576040517f08c379a00000000000000000000000000000000000000000000000000000000081526004016110cb906124d4565b60405180910390fd5b600280549050811061111b576040517f08c379a000000000000000000000000000000000000000000000000000000000815260040161111290612534565b60405180910390fd5b6111f760028281548110611158577f4e487b7100000000000000000000000000000000000000000000000000000000600052603260045260246000fd5b9060005260206000209060040201600201805461117490612758565b80601f01602080910402602001604051908101604052809291908181526020018280546111a090612758565b80156111ed5780601f106111c2576101008083540402835291602001916111ed565b820191906000526020600020905b8154815290600101906020018083116111d057829003601f168201915b50505050506117c3565b15611237576040517f08c379a000000000000000000000000000000000000000000000000000000000815260040161122e90612514565b60405180910390fd5b60028181548110611271577f4e487b7100000000000000000000000000000000000000000000000000000000600052603260045260246000fd5b906000526020600020906004020160000160009054906101000a900460ff161561129a576112ff565b6001600282815481106112d6577f4e487b7100000000000000000000000000000000000000000000000000000000600052603260045260246000fd5b906000526020600020906004020160000160006101000a81548160ff0219169083151502179055505b50565b60008054906101000a900460ff1661134f576040517f08c379a000000000000000000000000000000000000000000000000000000000815260040161134690612574565b60405180910390fd5b6002805490508210611396576040517f08c379a000000000000000000000000000000000000000000000000000000000815260040161138d906124b4565b60405180910390fd5b600282815481106113d0577f4e487b7100000000000000000000000000000000000000000000000000000000600052603260045260246000fd5b906000526020600020906004020160000160009054906101000a900460ff1661142e576040517f08c379a000000000000000000000000000000000000000000000000000000000815260040161142590612454565b60405180910390fd5b60028281548110611468577f4e487b7100000000000000000000000000000000000000000000000000000000600052603260045260246000fd5b906000526020600020906004020160030160405180608001604052806000151581526020013373ffffffffffffffffffffffffffffffffffffffff16815260200142815260200183815250908060018154018082558091505060019003906000526020600020906003020160009091909190915060008201518160000160006101000a81548160ff02191690831515021790555060208201518160000160016101000a81548173ffffffffffffffffffffffffffffffffffffffff021916908373ffffffffffffffffffffffffffffffffffffffff160217905550604082015181600101556060820151816002019080519060200190611569929190611aaf565b5050505050565b60008054906101000a900460ff166115bd576040517f08c379a00000000000000000000000000000000000000000000000000000000081526004016115b490612474565b60405180910390fd5b6002805490508110611604576040517f08c379a00000000000000000000000000000000000000000000000000000000081526004016115fb90612534565b60405180910390fd5b6002818154811061163e577f4e487b7100000000000000000000000000000000000000000000000000000000600052603260045260246000fd5b906000526020600020906004020160000160009054906101000a900460ff16611666576116cb565b6000600282815481106116a2577f4e487b7100000000000000000000000000000000000000000000000000000000600052603260045260246000fd5b906000526020600020906004020160000160006101000a81548160ff0219169083151502179055505b50565b600281815481106116de57600080fd5b90600052602060002090600402016000915090508060000160009054906101000a900460ff16908060000160019054906101000a900473ffffffffffffffffffffffffffffffffffffffff169080600101549080600201805461174090612758565b80601f016020809104026020016040519081016040528092919081815260200182805461176c90612758565b80156117b95780601f1061178e576101008083540402835291602001916117b9565b820191906000526020600020905b81548152906001019060200180831161179c57829003601f168201915b5050505050905084565b600080600090505b6002805490508110156119365760028181548110611812577f4e487b7100000000000000000000000000000000000000000000000000000000600052603260045260246000fd5b906000526020600020906004020160000160009054906101000a900460ff16156119235761191360028281548110611873577f4e487b7100000000000000000000000000000000000000000000000000000000600052603260045260246000fd5b9060005260206000209060040201600201805461188f90612758565b80601f01602080910402602001604051908101604052809291908181526020018280546118bb90612758565b80156119085780601f106118dd57610100808354040283529160200191611908565b820191906000526020600020905b8154815290600101906020018083116118eb57829003601f168201915b505050505084611941565b1561192257600191505061193c565b5b808061192e9061278a565b9150506117cb565b50600090505b919050565b6000816040516020016119549190612357565b604051602081830303815290604052805190602001208360405160200161197b9190612357565b604051602081830303815290604052805190602001201461199d5760006119a0565b60015b905092915050565b6119b0611b35565b60005b826080015151811015611a6e57826080015181815181106119fd577f4e487b7100000000000000000000000000000000000000000000000000000000600052603260045260246000fd5b60200260200101516000015115611a5b5782608001518181518110611a4b577f4e487b7100000000000000000000000000000000000000000000000000000000600052603260045260246000fd5b6020026020010151915050611aaa565b8080611a669061278a565b9150506119b3565b506040517f08c379a0000000000000000000000000000000000000000000000000000000008152600401611aa190612434565b60405180910390fd5b919050565b828054611abb90612758565b90600052602060002090601f016020900481019282611add5760008555611b24565b82601f10611af657805160ff1916838001178555611b24565b82800160010185558215611b24579182015b82811115611b23578251825591602001919060010190611b08565b5b509050611b319190611b75565b5090565b6040518060800160405280600015158152602001600073ffffffffffffffffffffffffffffffffffffffff16815260200160008152602001606081525090565b5b80821115611b8e576000816000905550600101611b76565b5090565b6000611ba5611ba0846125e0565b6125af565b905082815260208101848484011115611bbd57600080fd5b611bc88482856126ec565b509392505050565b600081359050611bdf81612871565b92915050565b600082601f830112611bf657600080fd5b8135611c06848260208601611b92565b91505092915050565b600081359050611c1e81612888565b92915050565b600060208284031215611c3657600080fd5b6000611c4484828501611bd0565b91505092915050565b600060208284031215611c5f57600080fd5b600082013567ffffffffffffffff811115611c7957600080fd5b611c8584828501611be5565b91505092915050565b60008060408385031215611ca157600080fd5b600083013567ffffffffffffffff811115611cbb57600080fd5b611cc785828601611be5565b925050602083013567ffffffffffffffff811115611ce457600080fd5b611cf085828601611be5565b9150509250929050565b600060208284031215611d0c57600080fd5b6000611d1a84828501611c0f565b91505092915050565b60008060408385031215611d3657600080fd5b6000611d4485828601611c0f565b925050602083013567ffffffffffffffff811115611d6157600080fd5b611d6d85828601611be5565b9150509250929050565b60008060408385031215611d8a57600080fd5b6000611d9885828601611c0f565b9250506020611da985828601611c0f565b9150509250929050565b6000611dbf8383612339565b60208301905092915050565b611dd4816126a4565b82525050565b6000611de582612620565b611def8185612643565b9350611dfa83612610565b8060005b83811015611e2b578151611e128882611db3565b9750611e1d83612636565b925050600181019050611dfe565b5085935050505092915050565b611e41816126b6565b82525050565b6000611e528261262b565b611e5c8185612654565b9350611e6c8185602086016126fb565b611e7581612860565b840191505092915050565b6000611e8b8261262b565b611e958185612665565b9350611ea58185602086016126fb565b80840191505092915050565b6000611ebe603083612654565b91507f4e656e68756d612076657263616f20617469766120656e636f6e74726164612060008301527f70617261206573746120706167696e61000000000000000000000000000000006020830152604082019050919050565b6000611f24604383612654565b91507f412061646963616f206465206e6f76617320766572636f657320736f2065207060008301527f65726d6974696461207175616e646f206120706167696e61206573746120617460208301527f69766100000000000000000000000000000000000000000000000000000000006040830152606082019050919050565b6000611fb0604683612654565b91507f4120646573617469766163616f20646520706167696e617320736f206520706560008301527f726d6974696461207175616e646f206120426c6f636b7065646961206573746160208301527f20617469766100000000000000000000000000000000000000000000000000006040830152606082019050919050565b600061203c603f83612654565b91507f4120616c7465726163616f2064652076657273616f20736f2065207065726d6960008301527f74696461207175616e646f206120706167696e612065737461206174697661006020830152604082019050919050565b60006120a2601683612654565b91507f496e6469636520666f726120646f20616c63616e6365000000000000000000006000830152602082019050919050565b60006120e2604383612654565b91507f4120617469766163616f20646520706167696e617320736f2065207065726d6960008301527f74696461207175616e646f206120426c6f636b7065646961206573746120617460208301527f69766100000000000000000000000000000000000000000000000000000000006040830152606082019050919050565b600061216e602083612654565b91507f496e646963652064612076657273616f20666f726120646f20616c63616e63656000830152602082019050919050565b60006121ae602683612654565b91507f4a612065786973746520706167696e6120617469766120636f6d20657374652060008301527f746974756c6f00000000000000000000000000000000000000000000000000006020830152604082019050919050565b6000612214602083612654565b91507f496e6469636520646120706167696e6120666f726120646f20616c63616e63656000830152602082019050919050565b6000612254603d83612654565b91507f536f6d656e7465206f20646f6e6f20646573746120426c6f636b70656469612060008301527f706f646520616c7465726172206f20617472696275746f20617469766f0000006020830152604082019050919050565b60006122ba604783612654565b91507f412061646963616f206465206e6f76617320706167696e617320736f2065207060008301527f65726d6974696461207175616e646f206120426c6f636b70656469612065737460208301527f61206174697661000000000000000000000000000000000000000000000000006040830152606082019050919050565b612342816126e2565b82525050565b612351816126e2565b82525050565b60006123638284611e80565b915081905092915050565b60006020820190506123836000830184611dcb565b92915050565b600060208201905081810360008301526123a38184611dda565b905092915050565b60006020820190506123c06000830184611e38565b92915050565b60006080820190506123db6000830187611e38565b6123e86020830186611dcb565b6123f56040830185612348565b81810360608301526124078184611e47565b905095945050505050565b6000602082019050818103600083015261242c8184611e47565b905092915050565b6000602082019050818103600083015261244d81611eb1565b9050919050565b6000602082019050818103600083015261246d81611f17565b9050919050565b6000602082019050818103600083015261248d81611fa3565b9050919050565b600060208201905081810360008301526124ad8161202f565b9050919050565b600060208201905081810360008301526124cd81612095565b9050919050565b600060208201905081810360008301526124ed816120d5565b9050919050565b6000602082019050818103600083015261250d81612161565b9050919050565b6000602082019050818103600083015261252d816121a1565b9050919050565b6000602082019050818103600083015261254d81612207565b9050919050565b6000602082019050818103600083015261256d81612247565b9050919050565b6000602082019050818103600083015261258d816122ad565b9050919050565b60006020820190506125a96000830184612348565b92915050565b6000604051905081810181811067ffffffffffffffff821117156125d6576125d5612831565b5b8060405250919050565b600067ffffffffffffffff8211156125fb576125fa612831565b5b601f19601f8301169050602081019050919050565b6000819050602082019050919050565b600081519050919050565b600081519050919050565b6000602082019050919050565b600082825260208201905092915050565b600082825260208201905092915050565b600081905092915050565b600061267b826126e2565b9150612686836126e2565b925082821015612699576126986127d3565b5b828203905092915050565b60006126af826126c2565b9050919050565b60008115159050919050565b600073ffffffffffffffffffffffffffffffffffffffff82169050919050565b6000819050919050565b82818337600083830152505050565b60005b838110156127195780820151818401526020810190506126fe565b83811115612728576000848401525b50505050565b6000612739826126e2565b9150600082141561274d5761274c6127d3565b5b600182039050919050565b6000600282049050600182168061277057607f821691505b6020821081141561278457612783612802565b5b50919050565b6000612795826126e2565b91507fffffffffffffffffffffffffffffffffffffffffffffffffffffffffffffffff8214156127c8576127c76127d3565b5b600182019050919050565b7f4e487b7100000000000000000000000000000000000000000000000000000000600052601160045260246000fd5b7f4e487b7100000000000000000000000000000000000000000000000000000000600052602260045260246000fd5b7f4e487b7100000000000000000000000000000000000000000000000000000000600052604160045260246000fd5b6000601f19601f8301169050919050565b61287a816126b6565b811461288557600080fd5b50565b612891816126e2565b811461289c57600080fd5b5056fea26469706673582212209a433caa1a897f0b18c2ce0cbc508f04b52eeccdb1ef2eca6ab3928a1271435b64736f6c6343000800003342656d2076696e646f206120426c6f636b70656964612c206120656e6369636c6f7065646961206e6120626c6f636b636861696e",
					"opcodes": "PUSH1 0x80 PUSH1 0x40 MSTORE PUSH1 0x1 PUSH1 0x0 DUP1 PUSH2 0x100 EXP DUP2 SLOAD DUP2 PUSH1 0xFF MUL NOT AND SWAP1 DUP4 ISZERO ISZERO MUL OR SWAP1 SSTORE POP TIMESTAMP PUSH1 0x1 SSTORE CALLVALUE DUP1 ISZERO PUSH3 0x2F JUMPI PUSH1 0x0 DUP1 REVERT JUMPDEST POP CALLER PUSH1 0x0 PUSH1 0x1 PUSH2 0x100 EXP DUP2 SLOAD DUP2 PUSH20 0xFFFFFFFFFFFFFFFFFFFFFFFFFFFFFFFFFFFFFFFF MUL NOT AND SWAP1 DUP4 PUSH20 0xFFFFFFFFFFFFFFFFFFFFFFFFFFFFFFFFFFFFFFFF AND MUL OR SWAP1 SSTORE POP PUSH3 0xD1 PUSH1 0x40 MLOAD DUP1 PUSH1 0x40 ADD PUSH1 0x40 MSTORE DUP1 PUSH1 0x6 DUP2 MSTORE PUSH1 0x20 ADD PUSH32 0x496E6963696F0000000000000000000000000000000000000000000000000000 DUP2 MSTORE POP PUSH1 0x40 MLOAD DUP1 PUSH1 0x60 ADD PUSH1 0x40 MSTORE DUP1 PUSH1 0x34 DUP2 MSTORE PUSH1 0x20 ADD PUSH3 0x318D PUSH1 0x34 SWAP2 CODECOPY PUSH3 0xD7 PUSH1 0x20 SHL PUSH1 0x20 SHR JUMP JUMPDEST PUSH3 0x8A8 JUMP JUMPDEST PUSH1 0x0 DUP1 SLOAD SWAP1 PUSH2 0x100 EXP SWAP1 DIV PUSH1 0xFF AND PUSH3 0x127 JUMPI PUSH1 0x40 MLOAD PUSH32 0x8C379A000000000000000000000000000000000000000000000000000000000 DUP2 MSTORE PUSH1 0x4 ADD PUSH3 0x11E SWAP1 PUSH3 0x73D JUMP JUMPDEST PUSH1 0x40 MLOAD DUP1 SWAP2 SUB SWAP1 REVERT JUMPDEST PUSH3 0x138 DUP3 PUSH3 0x321 PUSH1 0x20 SHL PUSH1 0x20 SHR JUMP JUMPDEST ISZERO PUSH3 0x17B JUMPI PUSH1 0x40 MLOAD PUSH32 0x8C379A000000000000000000000000000000000000000000000000000000000 DUP2 MSTORE PUSH1 0x4 ADD PUSH3 0x172 SWAP1 PUSH3 0x71B JUMP JUMPDEST PUSH1 0x40 MLOAD DUP1 SWAP2 SUB SWAP1 REVERT JUMPDEST PUSH1 0x0 PUSH1 0x2 PUSH1 0x1 DUP2 PUSH1 0x1 DUP2 SLOAD ADD DUP1 DUP3 SSTORE DUP1 SWAP2 POP POP SUB SWAP1 PUSH1 0x0 MSTORE PUSH1 0x20 PUSH1 0x0 KECCAK256 SWAP1 PUSH1 0x4 MUL ADD SWAP1 POP PUSH1 0x1 DUP2 PUSH1 0x0 ADD PUSH1 0x0 PUSH2 0x100 EXP DUP2 SLOAD DUP2 PUSH1 0xFF MUL NOT AND SWAP1 DUP4 ISZERO ISZERO MUL OR SWAP1 SSTORE POP CALLER DUP2 PUSH1 0x0 ADD PUSH1 0x1 PUSH2 0x100 EXP DUP2 SLOAD DUP2 PUSH20 0xFFFFFFFFFFFFFFFFFFFFFFFFFFFFFFFFFFFFFFFF MUL NOT AND SWAP1 DUP4 PUSH20 0xFFFFFFFFFFFFFFFFFFFFFFFFFFFFFFFFFFFFFFFF AND MUL OR SWAP1 SSTORE POP TIMESTAMP DUP2 PUSH1 0x1 ADD DUP2 SWAP1 SSTORE POP DUP3 DUP2 PUSH1 0x2 ADD SWAP1 DUP1 MLOAD SWAP1 PUSH1 0x20 ADD SWAP1 PUSH3 0x222 SWAP3 SWAP2 SWAP1 PUSH3 0x525 JUMP JUMPDEST POP DUP1 PUSH1 0x3 ADD PUSH1 0x40 MLOAD DUP1 PUSH1 0x80 ADD PUSH1 0x40 MSTORE DUP1 PUSH1 0x1 ISZERO ISZERO DUP2 MSTORE PUSH1 0x20 ADD CALLER PUSH20 0xFFFFFFFFFFFFFFFFFFFFFFFFFFFFFFFFFFFFFFFF AND DUP2 MSTORE PUSH1 0x20 ADD TIMESTAMP DUP2 MSTORE PUSH1 0x20 ADD DUP5 DUP2 MSTORE POP SWAP1 DUP1 PUSH1 0x1 DUP2 SLOAD ADD DUP1 DUP3 SSTORE DUP1 SWAP2 POP POP PUSH1 0x1 SWAP1 SUB SWAP1 PUSH1 0x0 MSTORE PUSH1 0x20 PUSH1 0x0 KECCAK256 SWAP1 PUSH1 0x3 MUL ADD PUSH1 0x0 SWAP1 SWAP2 SWAP1 SWAP2 SWAP1 SWAP2 POP PUSH1 0x0 DUP3 ADD MLOAD DUP2 PUSH1 0x0 ADD PUSH1 0x0 PUSH2 0x100 EXP DUP2 SLOAD DUP2 PUSH1 0xFF MUL NOT AND SWAP1 DUP4 ISZERO ISZERO MUL OR SWAP1 SSTORE POP PUSH1 0x20 DUP3 ADD MLOAD DUP2 PUSH1 0x0 ADD PUSH1 0x1 PUSH2 0x100 EXP DUP2 SLOAD DUP2 PUSH20 0xFFFFFFFFFFFFFFFFFFFFFFFFFFFFFFFFFFFFFFFF MUL NOT AND SWAP1 DUP4 PUSH20 0xFFFFFFFFFFFFFFFFFFFFFFFFFFFFFFFFFFFFFFFF AND MUL OR SWAP1 SSTORE POP PUSH1 0x40 DUP3 ADD MLOAD DUP2 PUSH1 0x1 ADD SSTORE PUSH1 0x60 DUP3 ADD MLOAD DUP2 PUSH1 0x2 ADD SWAP1 DUP1 MLOAD SWAP1 PUSH1 0x20 ADD SWAP1 PUSH3 0x319 SWAP3 SWAP2 SWAP1 PUSH3 0x525 JUMP JUMPDEST POP POP POP POP POP POP JUMP JUMPDEST PUSH1 0x0 DUP1 PUSH1 0x0 SWAP1 POP JUMPDEST PUSH1 0x2 DUP1 SLOAD SWAP1 POP DUP2 LT ISZERO PUSH3 0x4AD JUMPI PUSH1 0x2 DUP2 DUP2 SLOAD DUP2 LT PUSH3 0x372 JUMPI PUSH32 0x4E487B7100000000000000000000000000000000000000000000000000000000 PUSH1 0x0 MSTORE PUSH1 0x32 PUSH1 0x4 MSTORE PUSH1 0x24 PUSH1 0x0 REVERT JUMPDEST SWAP1 PUSH1 0x0 MSTORE PUSH1 0x20 PUSH1 0x0 KECCAK256 SWAP1 PUSH1 0x4 MUL ADD PUSH1 0x0 ADD PUSH1 0x0 SWAP1 SLOAD SWAP1 PUSH2 0x100 EXP SWAP1 DIV PUSH1 0xFF AND ISZERO PUSH3 0x497 JUMPI PUSH3 0x485 PUSH1 0x2 DUP3 DUP2 SLOAD DUP2 LT PUSH3 0x3D6 JUMPI PUSH32 0x4E487B7100000000000000000000000000000000000000000000000000000000 PUSH1 0x0 MSTORE PUSH1 0x32 PUSH1 0x4 MSTORE PUSH1 0x24 PUSH1 0x0 REVERT JUMPDEST SWAP1 PUSH1 0x0 MSTORE PUSH1 0x20 PUSH1 0x0 KECCAK256 SWAP1 PUSH1 0x4 MUL ADD PUSH1 0x2 ADD DUP1 SLOAD PUSH3 0x3F4 SWAP1 PUSH3 0x7C6 JUMP JUMPDEST DUP1 PUSH1 0x1F ADD PUSH1 0x20 DUP1 SWAP2 DIV MUL PUSH1 0x20 ADD PUSH1 0x40 MLOAD SWAP1 DUP2 ADD PUSH1 0x40 MSTORE DUP1 SWAP3 SWAP2 SWAP1 DUP2 DUP2 MSTORE PUSH1 0x20 ADD DUP3 DUP1 SLOAD PUSH3 0x422 SWAP1 PUSH3 0x7C6 JUMP JUMPDEST DUP1 ISZERO PUSH3 0x473 JUMPI DUP1 PUSH1 0x1F LT PUSH3 0x447 JUMPI PUSH2 0x100 DUP1 DUP4 SLOAD DIV MUL DUP4 MSTORE SWAP2 PUSH1 0x20 ADD SWAP2 PUSH3 0x473 JUMP JUMPDEST DUP3 ADD SWAP2 SWAP1 PUSH1 0x0 MSTORE PUSH1 0x20 PUSH1 0x0 KECCAK256 SWAP1 JUMPDEST DUP2 SLOAD DUP2 MSTORE SWAP1 PUSH1 0x1 ADD SWAP1 PUSH1 0x20 ADD DUP1 DUP4 GT PUSH3 0x455 JUMPI DUP3 SWAP1 SUB PUSH1 0x1F AND DUP3 ADD SWAP2 JUMPDEST POP POP POP POP POP DUP5 PUSH3 0x4B8 PUSH1 0x20 SHL PUSH1 0x20 SHR JUMP JUMPDEST ISZERO PUSH3 0x496 JUMPI PUSH1 0x1 SWAP2 POP POP PUSH3 0x4B3 JUMP JUMPDEST JUMPDEST DUP1 DUP1 PUSH3 0x4A4 SWAP1 PUSH3 0x7FC JUMP JUMPDEST SWAP2 POP POP PUSH3 0x329 JUMP JUMPDEST POP PUSH1 0x0 SWAP1 POP JUMPDEST SWAP2 SWAP1 POP JUMP JUMPDEST PUSH1 0x0 DUP2 PUSH1 0x40 MLOAD PUSH1 0x20 ADD PUSH3 0x4CD SWAP2 SWAP1 PUSH3 0x702 JUMP JUMPDEST PUSH1 0x40 MLOAD PUSH1 0x20 DUP2 DUP4 SUB SUB DUP2 MSTORE SWAP1 PUSH1 0x40 MSTORE DUP1 MLOAD SWAP1 PUSH1 0x20 ADD KECCAK256 DUP4 PUSH1 0x40 MLOAD PUSH1 0x20 ADD PUSH3 0x4F6 SWAP2 SWAP1 PUSH3 0x702 JUMP JUMPDEST PUSH1 0x40 MLOAD PUSH1 0x20 DUP2 DUP4 SUB SUB DUP2 MSTORE SWAP1 PUSH1 0x40 MSTORE DUP1 MLOAD SWAP1 PUSH1 0x20 ADD KECCAK256 EQ PUSH3 0x51A JUMPI PUSH1 0x0 PUSH3 0x51D JUMP JUMPDEST PUSH1 0x1 JUMPDEST SWAP1 POP SWAP3 SWAP2 POP POP JUMP JUMPDEST DUP3 DUP1 SLOAD PUSH3 0x533 SWAP1 PUSH3 0x7C6 JUMP JUMPDEST SWAP1 PUSH1 0x0 MSTORE PUSH1 0x20 PUSH1 0x0 KECCAK256 SWAP1 PUSH1 0x1F ADD PUSH1 0x20 SWAP1 DIV DUP2 ADD SWAP3 DUP3 PUSH3 0x557 JUMPI PUSH1 0x0 DUP6 SSTORE PUSH3 0x5A3 JUMP JUMPDEST DUP3 PUSH1 0x1F LT PUSH3 0x572 JUMPI DUP1 MLOAD PUSH1 0xFF NOT AND DUP4 DUP1 ADD OR DUP6 SSTORE PUSH3 0x5A3 JUMP JUMPDEST DUP3 DUP1 ADD PUSH1 0x1 ADD DUP6 SSTORE DUP3 ISZERO PUSH3 0x5A3 JUMPI SWAP2 DUP3 ADD JUMPDEST DUP3 DUP2 GT ISZERO PUSH3 0x5A2 JUMPI DUP3 MLOAD DUP3 SSTORE SWAP2 PUSH1 0x20 ADD SWAP2 SWAP1 PUSH1 0x1 ADD SWAP1 PUSH3 0x585 JUMP JUMPDEST JUMPDEST POP SWAP1 POP PUSH3 0x5B2 SWAP2 SWAP1 PUSH3 0x5B6 JUMP JUMPDEST POP SWAP1 JUMP JUMPDEST JUMPDEST DUP1 DUP3 GT ISZERO PUSH3 0x5D1 JUMPI PUSH1 0x0 DUP2 PUSH1 0x0 SWAP1 SSTORE POP PUSH1 0x1 ADD PUSH3 0x5B7 JUMP JUMPDEST POP SWAP1 JUMP JUMPDEST PUSH1 0x0 PUSH3 0x5E2 DUP3 PUSH3 0x75F JUMP JUMPDEST PUSH3 0x5EE DUP2 DUP6 PUSH3 0x77B JUMP JUMPDEST SWAP4 POP PUSH3 0x600 DUP2 DUP6 PUSH1 0x20 DUP7 ADD PUSH3 0x790 JUMP JUMPDEST DUP1 DUP5 ADD SWAP2 POP POP SWAP3 SWAP2 POP POP JUMP JUMPDEST PUSH1 0x0 PUSH3 0x61B PUSH1 0x26 DUP4 PUSH3 0x76A JUMP JUMPDEST SWAP2 POP PUSH32 0x4A612065786973746520706167696E6120617469766120636F6D206573746520 PUSH1 0x0 DUP4 ADD MSTORE PUSH32 0x746974756C6F0000000000000000000000000000000000000000000000000000 PUSH1 0x20 DUP4 ADD MSTORE PUSH1 0x40 DUP3 ADD SWAP1 POP SWAP2 SWAP1 POP JUMP JUMPDEST PUSH1 0x0 PUSH3 0x683 PUSH1 0x47 DUP4 PUSH3 0x76A JUMP JUMPDEST SWAP2 POP PUSH32 0x412061646963616F206465206E6F76617320706167696E617320736F20652070 PUSH1 0x0 DUP4 ADD MSTORE PUSH32 0x65726D6974696461207175616E646F206120426C6F636B706564696120657374 PUSH1 0x20 DUP4 ADD MSTORE PUSH32 0x6120617469766100000000000000000000000000000000000000000000000000 PUSH1 0x40 DUP4 ADD MSTORE PUSH1 0x60 DUP3 ADD SWAP1 POP SWAP2 SWAP1 POP JUMP JUMPDEST PUSH1 0x0 PUSH3 0x710 DUP3 DUP5 PUSH3 0x5D5 JUMP JUMPDEST SWAP2 POP DUP2 SWAP1 POP SWAP3 SWAP2 POP POP JUMP JUMPDEST PUSH1 0x0 PUSH1 0x20 DUP3 ADD SWAP1 POP DUP2 DUP2 SUB PUSH1 0x0 DUP4 ADD MSTORE PUSH3 0x736 DUP2 PUSH3 0x60C JUMP JUMPDEST SWAP1 POP SWAP2 SWAP1 POP JUMP JUMPDEST PUSH1 0x0 PUSH1 0x20 DUP3 ADD SWAP1 POP DUP2 DUP2 SUB PUSH1 0x0 DUP4 ADD MSTORE PUSH3 0x758 DUP2 PUSH3 0x674 JUMP JUMPDEST SWAP1 POP SWAP2 SWAP1 POP JUMP JUMPDEST PUSH1 0x0 DUP2 MLOAD SWAP1 POP SWAP2 SWAP1 POP JUMP JUMPDEST PUSH1 0x0 DUP3 DUP3 MSTORE PUSH1 0x20 DUP3 ADD SWAP1 POP SWAP3 SWAP2 POP POP JUMP JUMPDEST PUSH1 0x0 DUP2 SWAP1 POP SWAP3 SWAP2 POP POP JUMP JUMPDEST PUSH1 0x0 DUP2 SWAP1 POP SWAP2 SWAP1 POP JUMP JUMPDEST PUSH1 0x0 JUMPDEST DUP4 DUP2 LT ISZERO PUSH3 0x7B0 JUMPI DUP1 DUP3 ADD MLOAD DUP2 DUP5 ADD MSTORE PUSH1 0x20 DUP2 ADD SWAP1 POP PUSH3 0x793 JUMP JUMPDEST DUP4 DUP2 GT ISZERO PUSH3 0x7C0 JUMPI PUSH1 0x0 DUP5 DUP5 ADD MSTORE JUMPDEST POP POP POP POP JUMP JUMPDEST PUSH1 0x0 PUSH1 0x2 DUP3 DIV SWAP1 POP PUSH1 0x1 DUP3 AND DUP1 PUSH3 0x7DF JUMPI PUSH1 0x7F DUP3 AND SWAP2 POP JUMPDEST PUSH1 0x20 DUP3 LT DUP2 EQ ISZERO PUSH3 0x7F6 JUMPI PUSH3 0x7F5 PUSH3 0x879 JUMP JUMPDEST JUMPDEST POP SWAP2 SWAP1 POP JUMP JUMPDEST PUSH1 0x0 PUSH3 0x809 DUP3 PUSH3 0x786 JUMP JUMPDEST SWAP2 POP PUSH32 0xFFFFFFFFFFFFFFFFFFFFFFFFFFFFFFFFFFFFFFFFFFFFFFFFFFFFFFFFFFFFFFFF DUP3 EQ ISZERO PUSH3 0x83F JUMPI PUSH3 0x83E PUSH3 0x84A JUMP JUMPDEST JUMPDEST PUSH1 0x1 DUP3 ADD SWAP1 POP SWAP2 SWAP1 POP JUMP JUMPDEST PUSH32 0x4E487B7100000000000000000000000000000000000000000000000000000000 PUSH1 0x0 MSTORE PUSH1 0x11 PUSH1 0x4 MSTORE PUSH1 0x24 PUSH1 0x0 REVERT JUMPDEST PUSH32 0x4E487B7100000000000000000000000000000000000000000000000000000000 PUSH1 0x0 MSTORE PUSH1 0x22 PUSH1 0x4 MSTORE PUSH1 0x24 PUSH1 0x0 REVERT JUMPDEST PUSH2 0x28D5 DUP1 PUSH3 0x8B8 PUSH1 0x0 CODECOPY PUSH1 0x0 RETURN INVALID PUSH1 0x80 PUSH1 0x40 MSTORE CALLVALUE DUP1 ISZERO PUSH2 0x10 JUMPI PUSH1 0x0 DUP1 REVERT JUMPDEST POP PUSH1 0x4 CALLDATASIZE LT PUSH2 0xB4 JUMPI PUSH1 0x0 CALLDATALOAD PUSH1 0xE0 SHR DUP1 PUSH4 0x95BE551A GT PUSH2 0x71 JUMPI DUP1 PUSH4 0x95BE551A EQ PUSH2 0x18D JUMPI DUP1 PUSH4 0xA18CC13B EQ PUSH2 0x1A9 JUMPI DUP1 PUSH4 0xAA83581F EQ PUSH2 0x1C7 JUMPI DUP1 PUSH4 0xD4D23A6E EQ PUSH2 0x1E3 JUMPI DUP1 PUSH4 0xD616C9F0 EQ PUSH2 0x1FF JUMPI DUP1 PUSH4 0xE7D4296A EQ PUSH2 0x21B JUMPI PUSH2 0xB4 JUMP JUMPDEST DUP1 PUSH4 0x694952D EQ PUSH2 0xB9 JUMPI DUP1 PUSH4 0x1509D30C EQ PUSH2 0xD7 JUMPI DUP1 PUSH4 0x1C18379A EQ PUSH2 0xF3 JUMPI DUP1 PUSH4 0x2E87CA2E EQ PUSH2 0x10F JUMPI DUP1 PUSH4 0x4D7E6726 EQ PUSH2 0x13F JUMPI DUP1 PUSH4 0x6F70A52E EQ PUSH2 0x16F JUMPI JUMPDEST PUSH1 0x0 DUP1 REVERT JUMPDEST PUSH2 0xC1 PUSH2 0x24E JUMP JUMPDEST PUSH1 0x40 MLOAD PUSH2 0xCE SWAP2 SWAP1 PUSH2 0x236E JUMP JUMPDEST PUSH1 0x40 MLOAD DUP1 SWAP2 SUB SWAP1 RETURN JUMPDEST PUSH2 0xF1 PUSH1 0x4 DUP1 CALLDATASIZE SUB DUP2 ADD SWAP1 PUSH2 0xEC SWAP2 SWAP1 PUSH2 0x1C24 JUMP JUMPDEST PUSH2 0x274 JUMP JUMPDEST STOP JUMPDEST PUSH2 0x10D PUSH1 0x4 DUP1 CALLDATASIZE SUB DUP2 ADD SWAP1 PUSH2 0x108 SWAP2 SWAP1 PUSH2 0x1C8E JUMP JUMPDEST PUSH2 0x320 JUMP JUMPDEST STOP JUMPDEST PUSH2 0x129 PUSH1 0x4 DUP1 CALLDATASIZE SUB DUP2 ADD SWAP1 PUSH2 0x124 SWAP2 SWAP1 PUSH2 0x1C4D JUMP JUMPDEST PUSH2 0x558 JUMP JUMPDEST PUSH1 0x40 MLOAD PUSH2 0x136 SWAP2 SWAP1 PUSH2 0x2389 JUMP JUMPDEST PUSH1 0x40 MLOAD DUP1 SWAP2 SUB SWAP1 RETURN JUMPDEST PUSH2 0x159 PUSH1 0x4 DUP1 CALLDATASIZE SUB DUP2 ADD SWAP1 PUSH2 0x154 SWAP2 SWAP1 PUSH2 0x1CFA JUMP JUMPDEST PUSH2 0x851 JUMP JUMPDEST PUSH1 0x40 MLOAD PUSH2 0x166 SWAP2 SWAP1 PUSH2 0x2412 JUMP JUMPDEST PUSH1 0x40 MLOAD DUP1 SWAP2 SUB SWAP1 RETURN JUMPDEST PUSH2 0x177 PUSH2 0xB79 JUMP JUMPDEST PUSH1 0x40 MLOAD PUSH2 0x184 SWAP2 SWAP1 PUSH2 0x2594 JUMP JUMPDEST PUSH1 0x40 MLOAD DUP1 SWAP2 SUB SWAP1 RETURN JUMPDEST PUSH2 0x1A7 PUSH1 0x4 DUP1 CALLDATASIZE SUB DUP2 ADD SWAP1 PUSH2 0x1A2 SWAP2 SWAP1 PUSH2 0x1D77 JUMP JUMPDEST PUSH2 0xB7F JUMP JUMPDEST STOP JUMPDEST PUSH2 0x1B1 PUSH2 0x1076 JUMP JUMPDEST PUSH1 0x40 MLOAD PUSH2 0x1BE SWAP2 SWAP1 PUSH2 0x23AB JUMP JUMPDEST PUSH1 0x40 MLOAD DUP1 SWAP2 SUB SWAP1 RETURN JUMPDEST PUSH2 0x1E1 PUSH1 0x4 DUP1 CALLDATASIZE SUB DUP2 ADD SWAP1 PUSH2 0x1DC SWAP2 SWAP1 PUSH2 0x1CFA JUMP JUMPDEST PUSH2 0x1087 JUMP JUMPDEST STOP JUMPDEST PUSH2 0x1FD PUSH1 0x4 DUP1 CALLDATASIZE SUB DUP2 ADD SWAP1 PUSH2 0x1F8 SWAP2 SWAP1 PUSH2 0x1D23 JUMP JUMPDEST PUSH2 0x1302 JUMP JUMPDEST STOP JUMPDEST PUSH2 0x219 PUSH1 0x4 DUP1 CALLDATASIZE SUB DUP2 ADD SWAP1 PUSH2 0x214 SWAP2 SWAP1 PUSH2 0x1CFA JUMP JUMPDEST PUSH2 0x1570 JUMP JUMPDEST STOP JUMPDEST PUSH2 0x235 PUSH1 0x4 DUP1 CALLDATASIZE SUB DUP2 ADD SWAP1 PUSH2 0x230 SWAP2 SWAP1 PUSH2 0x1CFA JUMP JUMPDEST PUSH2 0x16CE JUMP JUMPDEST PUSH1 0x40 MLOAD PUSH2 0x245 SWAP5 SWAP4 SWAP3 SWAP2 SWAP1 PUSH2 0x23C6 JUMP JUMPDEST PUSH1 0x40 MLOAD DUP1 SWAP2 SUB SWAP1 RETURN JUMPDEST PUSH1 0x0 PUSH1 0x1 SWAP1 SLOAD SWAP1 PUSH2 0x100 EXP SWAP1 DIV PUSH20 0xFFFFFFFFFFFFFFFFFFFFFFFFFFFFFFFFFFFFFFFF AND DUP2 JUMP JUMPDEST PUSH1 0x0 PUSH1 0x1 SWAP1 SLOAD SWAP1 PUSH2 0x100 EXP SWAP1 DIV PUSH20 0xFFFFFFFFFFFFFFFFFFFFFFFFFFFFFFFFFFFFFFFF AND PUSH20 0xFFFFFFFFFFFFFFFFFFFFFFFFFFFFFFFFFFFFFFFF AND CALLER PUSH20 0xFFFFFFFFFFFFFFFFFFFFFFFFFFFFFFFFFFFFFFFF AND EQ PUSH2 0x304 JUMPI PUSH1 0x40 MLOAD PUSH32 0x8C379A000000000000000000000000000000000000000000000000000000000 DUP2 MSTORE PUSH1 0x4 ADD PUSH2 0x2FB SWAP1 PUSH2 0x2554 JUMP JUMPDEST PUSH1 0x40 MLOAD DUP1 SWAP2 SUB SWAP1 REVERT JUMPDEST DUP1 PUSH1 0x0 DUP1 PUSH2 0x100 EXP DUP2 SLOAD DUP2 PUSH1 0xFF MUL NOT AND SWAP1 DUP4 ISZERO ISZERO MUL OR SWAP1 SSTORE POP POP JUMP JUMPDEST PUSH1 0x0 DUP1 SLOAD SWAP1 PUSH2 0x100 EXP SWAP1 DIV PUSH1 0xFF AND PUSH2 0x36D JUMPI PUSH1 0x40 MLOAD PUSH32 0x8C379A000000000000000000000000000000000000000000000000000000000 DUP2 MSTORE PUSH1 0x4 ADD PUSH2 0x364 SWAP1 PUSH2 0x2574 JUMP JUMPDEST PUSH1 0x40 MLOAD DUP1 SWAP2 SUB SWAP1 REVERT JUMPDEST PUSH2 0x376 DUP3 PUSH2 0x17C3 JUMP JUMPDEST ISZERO PUSH2 0x3B6 JUMPI PUSH1 0x40 MLOAD PUSH32 0x8C379A000000000000000000000000000000000000000000000000000000000 DUP2 MSTORE PUSH1 0x4 ADD PUSH2 0x3AD SWAP1 PUSH2 0x2514 JUMP JUMPDEST PUSH1 0x40 MLOAD DUP1 SWAP2 SUB SWAP1 REVERT JUMPDEST PUSH1 0x0 PUSH1 0x2 PUSH1 0x1 DUP2 PUSH1 0x1 DUP2 SLOAD ADD DUP1 DUP3 SSTORE DUP1 SWAP2 POP POP SUB SWAP1 PUSH1 0x0 MSTORE PUSH1 0x20 PUSH1 0x0 KECCAK256 SWAP1 PUSH1 0x4 MUL ADD SWAP1 POP PUSH1 0x1 DUP2 PUSH1 0x0 ADD PUSH1 0x0 PUSH2 0x100 EXP DUP2 SLOAD DUP2 PUSH1 0xFF MUL NOT AND SWAP1 DUP4 ISZERO ISZERO MUL OR SWAP1 SSTORE POP CALLER DUP2 PUSH1 0x0 ADD PUSH1 0x1 PUSH2 0x100 EXP DUP2 SLOAD DUP2 PUSH20 0xFFFFFFFFFFFFFFFFFFFFFFFFFFFFFFFFFFFFFFFF MUL NOT AND SWAP1 DUP4 PUSH20 0xFFFFFFFFFFFFFFFFFFFFFFFFFFFFFFFFFFFFFFFF AND MUL OR SWAP1 SSTORE POP TIMESTAMP DUP2 PUSH1 0x1 ADD DUP2 SWAP1 SSTORE POP DUP3 DUP2 PUSH1 0x2 ADD SWAP1 DUP1 MLOAD SWAP1 PUSH1 0x20 ADD SWAP1 PUSH2 0x45B SWAP3 SWAP2 SWAP1 PUSH2 0x1AAF JUMP JUMPDEST POP DUP1 PUSH1 0x3 ADD PUSH1 0x40 MLOAD DUP1 PUSH1 0x80 ADD PUSH1 0x40 MSTORE DUP1 PUSH1 0x1 ISZERO ISZERO DUP2 MSTORE PUSH1 0x20 ADD CALLER PUSH20 0xFFFFFFFFFFFFFFFFFFFFFFFFFFFFFFFFFFFFFFFF AND DUP2 MSTORE PUSH1 0x20 ADD TIMESTAMP DUP2 MSTORE PUSH1 0x20 ADD DUP5 DUP2 MSTORE POP SWAP1 DUP1 PUSH1 0x1 DUP2 SLOAD ADD DUP1 DUP3 SSTORE DUP1 SWAP2 POP POP PUSH1 0x1 SWAP1 SUB SWAP1 PUSH1 0x0 MSTORE PUSH1 0x20 PUSH1 0x0 KECCAK256 SWAP1 PUSH1 0x3 MUL ADD PUSH1 0x0 SWAP1 SWAP2 SWAP1 SWAP2 SWAP1 SWAP2 POP PUSH1 0x0 DUP3 ADD MLOAD DUP2 PUSH1 0x0 ADD PUSH1 0x0 PUSH2 0x100 EXP DUP2 SLOAD DUP2 PUSH1 0xFF MUL NOT AND SWAP1 DUP4 ISZERO ISZERO MUL OR SWAP1 SSTORE POP PUSH1 0x20 DUP3 ADD MLOAD DUP2 PUSH1 0x0 ADD PUSH1 0x1 PUSH2 0x100 EXP DUP2 SLOAD DUP2 PUSH20 0xFFFFFFFFFFFFFFFFFFFFFFFFFFFFFFFFFFFFFFFF MUL NOT AND SWAP1 DUP4 PUSH20 0xFFFFFFFFFFFFFFFFFFFFFFFFFFFFFFFFFFFFFFFF AND MUL OR SWAP1 SSTORE POP PUSH1 0x40 DUP3 ADD MLOAD DUP2 PUSH1 0x1 ADD SSTORE PUSH1 0x60 DUP3 ADD MLOAD DUP2 PUSH1 0x2 ADD SWAP1 DUP1 MLOAD SWAP1 PUSH1 0x20 ADD SWAP1 PUSH2 0x550 SWAP3 SWAP2 SWAP1 PUSH2 0x1AAF JUMP JUMPDEST POP POP POP POP POP POP JUMP JUMPDEST PUSH1 0x60 PUSH1 0x0 PUSH1 0x2 DUP1 SLOAD SWAP1 POP PUSH8 0xFFFFFFFFFFFFFFFF DUP2 GT ISZERO PUSH2 0x5A1 JUMPI PUSH32 0x4E487B7100000000000000000000000000000000000000000000000000000000 PUSH1 0x0 MSTORE PUSH1 0x41 PUSH1 0x4 MSTORE PUSH1 0x24 PUSH1 0x0 REVERT JUMPDEST PUSH1 0x40 MLOAD SWAP1 DUP1 DUP3 MSTORE DUP1 PUSH1 0x20 MUL PUSH1 0x20 ADD DUP3 ADD PUSH1 0x40 MSTORE DUP1 ISZERO PUSH2 0x5CF JUMPI DUP2 PUSH1 0x20 ADD PUSH1 0x20 DUP3 MUL DUP1 CALLDATASIZE DUP4 CALLDATACOPY DUP1 DUP3 ADD SWAP2 POP POP SWAP1 POP JUMPDEST POP SWAP1 POP PUSH1 0x0 DUP1 JUMPDEST PUSH1 0x2 DUP1 SLOAD SWAP1 POP DUP2 LT ISZERO PUSH2 0x72D JUMPI PUSH2 0x6C0 PUSH1 0x2 DUP3 DUP2 SLOAD DUP2 LT PUSH2 0x620 JUMPI PUSH32 0x4E487B7100000000000000000000000000000000000000000000000000000000 PUSH1 0x0 MSTORE PUSH1 0x32 PUSH1 0x4 MSTORE PUSH1 0x24 PUSH1 0x0 REVERT JUMPDEST SWAP1 PUSH1 0x0 MSTORE PUSH1 0x20 PUSH1 0x0 KECCAK256 SWAP1 PUSH1 0x4 MUL ADD PUSH1 0x2 ADD DUP1 SLOAD PUSH2 0x63C SWAP1 PUSH2 0x2758 JUMP JUMPDEST DUP1 PUSH1 0x1F ADD PUSH1 0x20 DUP1 SWAP2 DIV MUL PUSH1 0x20 ADD PUSH1 0x40 MLOAD SWAP1 DUP2 ADD PUSH1 0x40 MSTORE DUP1 SWAP3 SWAP2 SWAP1 DUP2 DUP2 MSTORE PUSH1 0x20 ADD DUP3 DUP1 SLOAD PUSH2 0x668 SWAP1 PUSH2 0x2758 JUMP JUMPDEST DUP1 ISZERO PUSH2 0x6B5 JUMPI DUP1 PUSH1 0x1F LT PUSH2 0x68A JUMPI PUSH2 0x100 DUP1 DUP4 SLOAD DIV MUL DUP4 MSTORE SWAP2 PUSH1 0x20 ADD SWAP2 PUSH2 0x6B5 JUMP JUMPDEST DUP3 ADD SWAP2 SWAP1 PUSH1 0x0 MSTORE PUSH1 0x20 PUSH1 0x0 KECCAK256 SWAP1 JUMPDEST DUP2 SLOAD DUP2 MSTORE SWAP1 PUSH1 0x1 ADD SWAP1 PUSH1 0x20 ADD DUP1 DUP4 GT PUSH2 0x698 JUMPI DUP3 SWAP1 SUB PUSH1 0x1F AND DUP3 ADD SWAP2 JUMPDEST POP POP POP POP POP DUP7 PUSH2 0x1941 JUMP JUMPDEST ISZERO PUSH2 0x71A JUMPI DUP1 DUP4 DUP4 DUP2 MLOAD DUP2 LT PUSH2 0x6FF JUMPI PUSH32 0x4E487B7100000000000000000000000000000000000000000000000000000000 PUSH1 0x0 MSTORE PUSH1 0x32 PUSH1 0x4 MSTORE PUSH1 0x24 PUSH1 0x0 REVERT JUMPDEST PUSH1 0x20 MUL PUSH1 0x20 ADD ADD DUP2 DUP2 MSTORE POP POP DUP2 DUP1 PUSH2 0x716 SWAP1 PUSH2 0x278A JUMP JUMPDEST SWAP3 POP POP JUMPDEST DUP1 DUP1 PUSH2 0x725 SWAP1 PUSH2 0x278A JUMP JUMPDEST SWAP2 POP POP PUSH2 0x5D6 JUMP JUMPDEST POP PUSH1 0x0 DUP2 PUSH8 0xFFFFFFFFFFFFFFFF DUP2 GT ISZERO PUSH2 0x770 JUMPI PUSH32 0x4E487B7100000000000000000000000000000000000000000000000000000000 PUSH1 0x0 MSTORE PUSH1 0x41 PUSH1 0x4 MSTORE PUSH1 0x24 PUSH1 0x0 REVERT JUMPDEST PUSH1 0x40 MLOAD SWAP1 DUP1 DUP3 MSTORE DUP1 PUSH1 0x20 MUL PUSH1 0x20 ADD DUP3 ADD PUSH1 0x40 MSTORE DUP1 ISZERO PUSH2 0x79E JUMPI DUP2 PUSH1 0x20 ADD PUSH1 0x20 DUP3 MUL DUP1 CALLDATASIZE DUP4 CALLDATACOPY DUP1 DUP3 ADD SWAP2 POP POP SWAP1 POP JUMPDEST POP SWAP1 POP PUSH1 0x0 JUMPDEST DUP3 DUP2 LT ISZERO PUSH2 0x845 JUMPI DUP4 DUP2 DUP2 MLOAD DUP2 LT PUSH2 0x7E5 JUMPI PUSH32 0x4E487B7100000000000000000000000000000000000000000000000000000000 PUSH1 0x0 MSTORE PUSH1 0x32 PUSH1 0x4 MSTORE PUSH1 0x24 PUSH1 0x0 REVERT JUMPDEST PUSH1 0x20 MUL PUSH1 0x20 ADD ADD MLOAD DUP3 DUP3 DUP2 MLOAD DUP2 LT PUSH2 0x826 JUMPI PUSH32 0x4E487B7100000000000000000000000000000000000000000000000000000000 PUSH1 0x0 MSTORE PUSH1 0x32 PUSH1 0x4 MSTORE PUSH1 0x24 PUSH1 0x0 REVERT JUMPDEST PUSH1 0x20 MUL PUSH1 0x20 ADD ADD DUP2 DUP2 MSTORE POP POP DUP1 DUP1 PUSH2 0x83D SWAP1 PUSH2 0x278A JUMP JUMPDEST SWAP2 POP POP PUSH2 0x7A4 JUMP JUMPDEST POP DUP1 SWAP4 POP POP POP POP SWAP2 SWAP1 POP JUMP JUMPDEST PUSH1 0x60 PUSH1 0x2 DUP1 SLOAD SWAP1 POP DUP3 LT PUSH2 0x89A JUMPI PUSH1 0x40 MLOAD PUSH32 0x8C379A000000000000000000000000000000000000000000000000000000000 DUP2 MSTORE PUSH1 0x4 ADD PUSH2 0x891 SWAP1 PUSH2 0x24B4 JUMP JUMPDEST PUSH1 0x40 MLOAD DUP1 SWAP2 SUB SWAP1 REVERT JUMPDEST PUSH2 0xB6E PUSH1 0x2 DUP4 DUP2 SLOAD DUP2 LT PUSH2 0x8D7 JUMPI PUSH32 0x4E487B7100000000000000000000000000000000000000000000000000000000 PUSH1 0x0 MSTORE PUSH1 0x32 PUSH1 0x4 MSTORE PUSH1 0x24 PUSH1 0x0 REVERT JUMPDEST SWAP1 PUSH1 0x0 MSTORE PUSH1 0x20 PUSH1 0x0 KECCAK256 SWAP1 PUSH1 0x4 MUL ADD PUSH1 0x40 MLOAD DUP1 PUSH1 0xA0 ADD PUSH1 0x40 MSTORE SWAP1 DUP2 PUSH1 0x0 DUP3 ADD PUSH1 0x0 SWAP1 SLOAD SWAP1 PUSH2 0x100 EXP SWAP1 DIV PUSH1 0xFF AND ISZERO ISZERO ISZERO ISZERO DUP2 MSTORE PUSH1 0x20 ADD PUSH1 0x0 DUP3 ADD PUSH1 0x1 SWAP1 SLOAD SWAP1 PUSH2 0x100 EXP SWAP1 DIV PUSH20 0xFFFFFFFFFFFFFFFFFFFFFFFFFFFFFFFFFFFFFFFF AND PUSH20 0xFFFFFFFFFFFFFFFFFFFFFFFFFFFFFFFFFFFFFFFF AND PUSH20 0xFFFFFFFFFFFFFFFFFFFFFFFFFFFFFFFFFFFFFFFF AND DUP2 MSTORE PUSH1 0x20 ADD PUSH1 0x1 DUP3 ADD SLOAD DUP2 MSTORE PUSH1 0x20 ADD PUSH1 0x2 DUP3 ADD DUP1 SLOAD PUSH2 0x97B SWAP1 PUSH2 0x2758 JUMP JUMPDEST DUP1 PUSH1 0x1F ADD PUSH1 0x20 DUP1 SWAP2 DIV MUL PUSH1 0x20 ADD PUSH1 0x40 MLOAD SWAP1 DUP2 ADD PUSH1 0x40 MSTORE DUP1 SWAP3 SWAP2 SWAP1 DUP2 DUP2 MSTORE PUSH1 0x20 ADD DUP3 DUP1 SLOAD PUSH2 0x9A7 SWAP1 PUSH2 0x2758 JUMP JUMPDEST DUP1 ISZERO PUSH2 0x9F4 JUMPI DUP1 PUSH1 0x1F LT PUSH2 0x9C9 JUMPI PUSH2 0x100 DUP1 DUP4 SLOAD DIV MUL DUP4 MSTORE SWAP2 PUSH1 0x20 ADD SWAP2 PUSH2 0x9F4 JUMP JUMPDEST DUP3 ADD SWAP2 SWAP1 PUSH1 0x0 MSTORE PUSH1 0x20 PUSH1 0x0 KECCAK256 SWAP1 JUMPDEST DUP2 SLOAD DUP2 MSTORE SWAP1 PUSH1 0x1 ADD SWAP1 PUSH1 0x20 ADD DUP1 DUP4 GT PUSH2 0x9D7 JUMPI DUP3 SWAP1 SUB PUSH1 0x1F AND DUP3 ADD SWAP2 JUMPDEST POP POP POP POP POP DUP2 MSTORE PUSH1 0x20 ADD PUSH1 0x3 DUP3 ADD DUP1 SLOAD DUP1 PUSH1 0x20 MUL PUSH1 0x20 ADD PUSH1 0x40 MLOAD SWAP1 DUP2 ADD PUSH1 0x40 MSTORE DUP1 SWAP3 SWAP2 SWAP1 DUP2 DUP2 MSTORE PUSH1 0x20 ADD PUSH1 0x0 SWAP1 JUMPDEST DUP3 DUP3 LT ISZERO PUSH2 0xB61 JUMPI DUP4 DUP3 SWAP1 PUSH1 0x0 MSTORE PUSH1 0x20 PUSH1 0x0 KECCAK256 SWAP1 PUSH1 0x3 MUL ADD PUSH1 0x40 MLOAD DUP1 PUSH1 0x80 ADD PUSH1 0x40 MSTORE SWAP1 DUP2 PUSH1 0x0 DUP3 ADD PUSH1 0x0 SWAP1 SLOAD SWAP1 PUSH2 0x100 EXP SWAP1 DIV PUSH1 0xFF AND ISZERO ISZERO ISZERO ISZERO DUP2 MSTORE PUSH1 0x20 ADD PUSH1 0x0 DUP3 ADD PUSH1 0x1 SWAP1 SLOAD SWAP1 PUSH2 0x100 EXP SWAP1 DIV PUSH20 0xFFFFFFFFFFFFFFFFFFFFFFFFFFFFFFFFFFFFFFFF AND PUSH20 0xFFFFFFFFFFFFFFFFFFFFFFFFFFFFFFFFFFFFFFFF AND PUSH20 0xFFFFFFFFFFFFFFFFFFFFFFFFFFFFFFFFFFFFFFFF AND DUP2 MSTORE PUSH1 0x20 ADD PUSH1 0x1 DUP3 ADD SLOAD DUP2 MSTORE PUSH1 0x20 ADD PUSH1 0x2 DUP3 ADD DUP1 SLOAD PUSH2 0xAD0 SWAP1 PUSH2 0x2758 JUMP JUMPDEST DUP1 PUSH1 0x1F ADD PUSH1 0x20 DUP1 SWAP2 DIV MUL PUSH1 0x20 ADD PUSH1 0x40 MLOAD SWAP1 DUP2 ADD PUSH1 0x40 MSTORE DUP1 SWAP3 SWAP2 SWAP1 DUP2 DUP2 MSTORE PUSH1 0x20 ADD DUP3 DUP1 SLOAD PUSH2 0xAFC SWAP1 PUSH2 0x2758 JUMP JUMPDEST DUP1 ISZERO PUSH2 0xB49 JUMPI DUP1 PUSH1 0x1F LT PUSH2 0xB1E JUMPI PUSH2 0x100 DUP1 DUP4 SLOAD DIV MUL DUP4 MSTORE SWAP2 PUSH1 0x20 ADD SWAP2 PUSH2 0xB49 JUMP JUMPDEST DUP3 ADD SWAP2 SWAP1 PUSH1 0x0 MSTORE PUSH1 0x20 PUSH1 0x0 KECCAK256 SWAP1 JUMPDEST DUP2 SLOAD DUP2 MSTORE SWAP1 PUSH1 0x1 ADD SWAP1 PUSH1 0x20 ADD DUP1 DUP4 GT PUSH2 0xB2C JUMPI DUP3 SWAP1 SUB PUSH1 0x1F AND DUP3 ADD SWAP2 JUMPDEST POP POP POP POP POP DUP2 MSTORE POP POP DUP2 MSTORE PUSH1 0x20 ADD SWAP1 PUSH1 0x1 ADD SWAP1 PUSH2 0xA22 JUMP JUMPDEST POP POP POP POP DUP2 MSTORE POP POP PUSH2 0x19A8 JUMP JUMPDEST PUSH1 0x60 ADD MLOAD SWAP1 POP SWAP2 SWAP1 POP JUMP JUMPDEST PUSH1 0x1 SLOAD DUP2 JUMP JUMPDEST PUSH1 0x0 DUP1 SLOAD SWAP1 PUSH2 0x100 EXP SWAP1 DIV PUSH1 0xFF AND PUSH2 0xBCC JUMPI PUSH1 0x40 MLOAD PUSH32 0x8C379A000000000000000000000000000000000000000000000000000000000 DUP2 MSTORE PUSH1 0x4 ADD PUSH2 0xBC3 SWAP1 PUSH2 0x2574 JUMP JUMPDEST PUSH1 0x40 MLOAD DUP1 SWAP2 SUB SWAP1 REVERT JUMPDEST PUSH1 0x2 DUP1 SLOAD SWAP1 POP DUP3 LT PUSH2 0xC13 JUMPI PUSH1 0x40 MLOAD PUSH32 0x8C379A000000000000000000000000000000000000000000000000000000000 DUP2 MSTORE PUSH1 0x4 ADD PUSH2 0xC0A SWAP1 PUSH2 0x2534 JUMP JUMPDEST PUSH1 0x40 MLOAD DUP1 SWAP2 SUB SWAP1 REVERT JUMPDEST PUSH1 0x2 DUP3 DUP2 SLOAD DUP2 LT PUSH2 0xC4D JUMPI PUSH32 0x4E487B7100000000000000000000000000000000000000000000000000000000 PUSH1 0x0 MSTORE PUSH1 0x32 PUSH1 0x4 MSTORE PUSH1 0x24 PUSH1 0x0 REVERT JUMPDEST SWAP1 PUSH1 0x0 MSTORE PUSH1 0x20 PUSH1 0x0 KECCAK256 SWAP1 PUSH1 0x4 MUL ADD PUSH1 0x0 ADD PUSH1 0x0 SWAP1 SLOAD SWAP1 PUSH2 0x100 EXP SWAP1 DIV PUSH1 0xFF AND PUSH2 0xCAB JUMPI PUSH1 0x40 MLOAD PUSH32 0x8C379A000000000000000000000000000000000000000000000000000000000 DUP2 MSTORE PUSH1 0x4 ADD PUSH2 0xCA2 SWAP1 PUSH2 0x2494 JUMP JUMPDEST PUSH1 0x40 MLOAD DUP1 SWAP2 SUB SWAP1 REVERT JUMPDEST PUSH1 0x2 DUP3 DUP2 SLOAD DUP2 LT PUSH2 0xCE5 JUMPI PUSH32 0x4E487B7100000000000000000000000000000000000000000000000000000000 PUSH1 0x0 MSTORE PUSH1 0x32 PUSH1 0x4 MSTORE PUSH1 0x24 PUSH1 0x0 REVERT JUMPDEST SWAP1 PUSH1 0x0 MSTORE PUSH1 0x20 PUSH1 0x0 KECCAK256 SWAP1 PUSH1 0x4 MUL ADD PUSH1 0x3 ADD DUP1 SLOAD SWAP1 POP DUP2 LT PUSH2 0xD3B JUMPI PUSH1 0x40 MLOAD PUSH32 0x8C379A000000000000000000000000000000000000000000000000000000000 DUP2 MSTORE PUSH1 0x4 ADD PUSH2 0xD32 SWAP1 PUSH2 0x24F4 JUMP JUMPDEST PUSH1 0x40 MLOAD DUP1 SWAP2 SUB SWAP1 REVERT JUMPDEST PUSH1 0x2 DUP3 DUP2 SLOAD DUP2 LT PUSH2 0xD75 JUMPI PUSH32 0x4E487B7100000000000000000000000000000000000000000000000000000000 PUSH1 0x0 MSTORE PUSH1 0x32 PUSH1 0x4 MSTORE PUSH1 0x24 PUSH1 0x0 REVERT JUMPDEST SWAP1 PUSH1 0x0 MSTORE PUSH1 0x20 PUSH1 0x0 KECCAK256 SWAP1 PUSH1 0x4 MUL ADD PUSH1 0x3 ADD DUP2 DUP2 SLOAD DUP2 LT PUSH2 0xDBE JUMPI PUSH32 0x4E487B7100000000000000000000000000000000000000000000000000000000 PUSH1 0x0 MSTORE PUSH1 0x32 PUSH1 0x4 MSTORE PUSH1 0x24 PUSH1 0x0 REVERT JUMPDEST SWAP1 PUSH1 0x0 MSTORE PUSH1 0x20 PUSH1 0x0 KECCAK256 SWAP1 PUSH1 0x3 MUL ADD PUSH1 0x0 ADD PUSH1 0x0 SWAP1 SLOAD SWAP1 PUSH2 0x100 EXP SWAP1 DIV PUSH1 0xFF AND ISZERO PUSH2 0xDE7 JUMPI PUSH2 0x1072 JUMP JUMPDEST PUSH1 0x0 PUSH1 0x2 DUP4 DUP2 SLOAD DUP2 LT PUSH2 0xE23 JUMPI PUSH32 0x4E487B7100000000000000000000000000000000000000000000000000000000 PUSH1 0x0 MSTORE PUSH1 0x32 PUSH1 0x4 MSTORE PUSH1 0x24 PUSH1 0x0 REVERT JUMPDEST SWAP1 PUSH1 0x0 MSTORE PUSH1 0x20 PUSH1 0x0 KECCAK256 SWAP1 PUSH1 0x4 MUL ADD PUSH1 0x3 ADD DUP1 SLOAD SWAP1 POP SWAP1 POP JUMPDEST PUSH1 0x0 DUP2 GT ISZERO PUSH2 0xFC3 JUMPI PUSH1 0x0 PUSH1 0x1 DUP3 PUSH2 0xE53 SWAP2 SWAP1 PUSH2 0x2670 JUMP JUMPDEST SWAP1 POP PUSH1 0x2 DUP5 DUP2 SLOAD DUP2 LT PUSH2 0xE8F JUMPI PUSH32 0x4E487B7100000000000000000000000000000000000000000000000000000000 PUSH1 0x0 MSTORE PUSH1 0x32 PUSH1 0x4 MSTORE PUSH1 0x24 PUSH1 0x0 REVERT JUMPDEST SWAP1 PUSH1 0x0 MSTORE PUSH1 0x20 PUSH1 0x0 KECCAK256 SWAP1 PUSH1 0x4 MUL ADD PUSH1 0x3 ADD DUP2 DUP2 SLOAD DUP2 LT PUSH2 0xED8 JUMPI PUSH32 0x4E487B7100000000000000000000000000000000000000000000000000000000 PUSH1 0x0 MSTORE PUSH1 0x32 PUSH1 0x4 MSTORE PUSH1 0x24 PUSH1 0x0 REVERT JUMPDEST SWAP1 PUSH1 0x0 MSTORE PUSH1 0x20 PUSH1 0x0 KECCAK256 SWAP1 PUSH1 0x3 MUL ADD PUSH1 0x0 ADD PUSH1 0x0 SWAP1 SLOAD SWAP1 PUSH2 0x100 EXP SWAP1 DIV PUSH1 0xFF AND ISZERO PUSH2 0xFAF JUMPI PUSH1 0x0 PUSH1 0x2 DUP6 DUP2 SLOAD DUP2 LT PUSH2 0xF38 JUMPI PUSH32 0x4E487B7100000000000000000000000000000000000000000000000000000000 PUSH1 0x0 MSTORE PUSH1 0x32 PUSH1 0x4 MSTORE PUSH1 0x24 PUSH1 0x0 REVERT JUMPDEST SWAP1 PUSH1 0x0 MSTORE PUSH1 0x20 PUSH1 0x0 KECCAK256 SWAP1 PUSH1 0x4 MUL ADD PUSH1 0x3 ADD DUP3 DUP2 SLOAD DUP2 LT PUSH2 0xF81 JUMPI PUSH32 0x4E487B7100000000000000000000000000000000000000000000000000000000 PUSH1 0x0 MSTORE PUSH1 0x32 PUSH1 0x4 MSTORE PUSH1 0x24 PUSH1 0x0 REVERT JUMPDEST SWAP1 PUSH1 0x0 MSTORE PUSH1 0x20 PUSH1 0x0 KECCAK256 SWAP1 PUSH1 0x3 MUL ADD PUSH1 0x0 ADD PUSH1 0x0 PUSH2 0x100 EXP DUP2 SLOAD DUP2 PUSH1 0xFF MUL NOT AND SWAP1 DUP4 ISZERO ISZERO MUL OR SWAP1 SSTORE POP POP PUSH2 0xFC3 JUMP JUMPDEST POP DUP1 DUP1 PUSH2 0xFBB SWAP1 PUSH2 0x272E JUMP JUMPDEST SWAP2 POP POP PUSH2 0xE3B JUMP JUMPDEST POP PUSH1 0x1 PUSH1 0x2 DUP4 DUP2 SLOAD DUP2 LT PUSH2 0x1000 JUMPI PUSH32 0x4E487B7100000000000000000000000000000000000000000000000000000000 PUSH1 0x0 MSTORE PUSH1 0x32 PUSH1 0x4 MSTORE PUSH1 0x24 PUSH1 0x0 REVERT JUMPDEST SWAP1 PUSH1 0x0 MSTORE PUSH1 0x20 PUSH1 0x0 KECCAK256 SWAP1 PUSH1 0x4 MUL ADD PUSH1 0x3 ADD DUP3 DUP2 SLOAD DUP2 LT PUSH2 0x1049 JUMPI PUSH32 0x4E487B7100000000000000000000000000000000000000000000000000000000 PUSH1 0x0 MSTORE PUSH1 0x32 PUSH1 0x4 MSTORE PUSH1 0x24 PUSH1 0x0 REVERT JUMPDEST SWAP1 PUSH1 0x0 MSTORE PUSH1 0x20 PUSH1 0x0 KECCAK256 SWAP1 PUSH1 0x3 MUL ADD PUSH1 0x0 ADD PUSH1 0x0 PUSH2 0x100 EXP DUP2 SLOAD DUP2 PUSH1 0xFF MUL NOT AND SWAP1 DUP4 ISZERO ISZERO MUL OR SWAP1 SSTORE POP JUMPDEST POP POP JUMP JUMPDEST PUSH1 0x0 DUP1 SLOAD SWAP1 PUSH2 0x100 EXP SWAP1 DIV PUSH1 0xFF AND DUP2 JUMP JUMPDEST PUSH1 0x0 DUP1 SLOAD SWAP1 PUSH2 0x100 EXP SWAP1 DIV PUSH1 0xFF AND PUSH2 0x10D4 JUMPI PUSH1 0x40 MLOAD PUSH32 0x8C379A000000000000000000000000000000000000000000000000000000000 DUP2 MSTORE PUSH1 0x4 ADD PUSH2 0x10CB SWAP1 PUSH2 0x24D4 JUMP JUMPDEST PUSH1 0x40 MLOAD DUP1 SWAP2 SUB SWAP1 REVERT JUMPDEST PUSH1 0x2 DUP1 SLOAD SWAP1 POP DUP2 LT PUSH2 0x111B JUMPI PUSH1 0x40 MLOAD PUSH32 0x8C379A000000000000000000000000000000000000000000000000000000000 DUP2 MSTORE PUSH1 0x4 ADD PUSH2 0x1112 SWAP1 PUSH2 0x2534 JUMP JUMPDEST PUSH1 0x40 MLOAD DUP1 SWAP2 SUB SWAP1 REVERT JUMPDEST PUSH2 0x11F7 PUSH1 0x2 DUP3 DUP2 SLOAD DUP2 LT PUSH2 0x1158 JUMPI PUSH32 0x4E487B7100000000000000000000000000000000000000000000000000000000 PUSH1 0x0 MSTORE PUSH1 0x32 PUSH1 0x4 MSTORE PUSH1 0x24 PUSH1 0x0 REVERT JUMPDEST SWAP1 PUSH1 0x0 MSTORE PUSH1 0x20 PUSH1 0x0 KECCAK256 SWAP1 PUSH1 0x4 MUL ADD PUSH1 0x2 ADD DUP1 SLOAD PUSH2 0x1174 SWAP1 PUSH2 0x2758 JUMP JUMPDEST DUP1 PUSH1 0x1F ADD PUSH1 0x20 DUP1 SWAP2 DIV MUL PUSH1 0x20 ADD PUSH1 0x40 MLOAD SWAP1 DUP2 ADD PUSH1 0x40 MSTORE DUP1 SWAP3 SWAP2 SWAP1 DUP2 DUP2 MSTORE PUSH1 0x20 ADD DUP3 DUP1 SLOAD PUSH2 0x11A0 SWAP1 PUSH2 0x2758 JUMP JUMPDEST DUP1 ISZERO PUSH2 0x11ED JUMPI DUP1 PUSH1 0x1F LT PUSH2 0x11C2 JUMPI PUSH2 0x100 DUP1 DUP4 SLOAD DIV MUL DUP4 MSTORE SWAP2 PUSH1 0x20 ADD SWAP2 PUSH2 0x11ED JUMP JUMPDEST DUP3 ADD SWAP2 SWAP1 PUSH1 0x0 MSTORE PUSH1 0x20 PUSH1 0x0 KECCAK256 SWAP1 JUMPDEST DUP2 SLOAD DUP2 MSTORE SWAP1 PUSH1 0x1 ADD SWAP1 PUSH1 0x20 ADD DUP1 DUP4 GT PUSH2 0x11D0 JUMPI DUP3 SWAP1 SUB PUSH1 0x1F AND DUP3 ADD SWAP2 JUMPDEST POP POP POP POP POP PUSH2 0x17C3 JUMP JUMPDEST ISZERO PUSH2 0x1237 JUMPI PUSH1 0x40 MLOAD PUSH32 0x8C379A000000000000000000000000000000000000000000000000000000000 DUP2 MSTORE PUSH1 0x4 ADD PUSH2 0x122E SWAP1 PUSH2 0x2514 JUMP JUMPDEST PUSH1 0x40 MLOAD DUP1 SWAP2 SUB SWAP1 REVERT JUMPDEST PUSH1 0x2 DUP2 DUP2 SLOAD DUP2 LT PUSH2 0x1271 JUMPI PUSH32 0x4E487B7100000000000000000000000000000000000000000000000000000000 PUSH1 0x0 MSTORE PUSH1 0x32 PUSH1 0x4 MSTORE PUSH1 0x24 PUSH1 0x0 REVERT JUMPDEST SWAP1 PUSH1 0x0 MSTORE PUSH1 0x20 PUSH1 0x0 KECCAK256 SWAP1 PUSH1 0x4 MUL ADD PUSH1 0x0 ADD PUSH1 0x0 SWAP1 SLOAD SWAP1 PUSH2 0x100 EXP SWAP1 DIV PUSH1 0xFF AND ISZERO PUSH2 0x129A JUMPI PUSH2 0x12FF JUMP JUMPDEST PUSH1 0x1 PUSH1 0x2 DUP3 DUP2 SLOAD DUP2 LT PUSH2 0x12D6 JUMPI PUSH32 0x4E487B7100000000000000000000000000000000000000000000000000000000 PUSH1 0x0 MSTORE PUSH1 0x32 PUSH1 0x4 MSTORE PUSH1 0x24 PUSH1 0x0 REVERT JUMPDEST SWAP1 PUSH1 0x0 MSTORE PUSH1 0x20 PUSH1 0x0 KECCAK256 SWAP1 PUSH1 0x4 MUL ADD PUSH1 0x0 ADD PUSH1 0x0 PUSH2 0x100 EXP DUP2 SLOAD DUP2 PUSH1 0xFF MUL NOT AND SWAP1 DUP4 ISZERO ISZERO MUL OR SWAP1 SSTORE POP JUMPDEST POP JUMP JUMPDEST PUSH1 0x0 DUP1 SLOAD SWAP1 PUSH2 0x100 EXP SWAP1 DIV PUSH1 0xFF AND PUSH2 0x134F JUMPI PUSH1 0x40 MLOAD PUSH32 0x8C379A000000000000000000000000000000000000000000000000000000000 DUP2 MSTORE PUSH1 0x4 ADD PUSH2 0x1346 SWAP1 PUSH2 0x2574 JUMP JUMPDEST PUSH1 0x40 MLOAD DUP1 SWAP2 SUB SWAP1 REVERT JUMPDEST PUSH1 0x2 DUP1 SLOAD SWAP1 POP DUP3 LT PUSH2 0x1396 JUMPI PUSH1 0x40 MLOAD PUSH32 0x8C379A000000000000000000000000000000000000000000000000000000000 DUP2 MSTORE PUSH1 0x4 ADD PUSH2 0x138D SWAP1 PUSH2 0x24B4 JUMP JUMPDEST PUSH1 0x40 MLOAD DUP1 SWAP2 SUB SWAP1 REVERT JUMPDEST PUSH1 0x2 DUP3 DUP2 SLOAD DUP2 LT PUSH2 0x13D0 JUMPI PUSH32 0x4E487B7100000000000000000000000000000000000000000000000000000000 PUSH1 0x0 MSTORE PUSH1 0x32 PUSH1 0x4 MSTORE PUSH1 0x24 PUSH1 0x0 REVERT JUMPDEST SWAP1 PUSH1 0x0 MSTORE PUSH1 0x20 PUSH1 0x0 KECCAK256 SWAP1 PUSH1 0x4 MUL ADD PUSH1 0x0 ADD PUSH1 0x0 SWAP1 SLOAD SWAP1 PUSH2 0x100 EXP SWAP1 DIV PUSH1 0xFF AND PUSH2 0x142E JUMPI PUSH1 0x40 MLOAD PUSH32 0x8C379A000000000000000000000000000000000000000000000000000000000 DUP2 MSTORE PUSH1 0x4 ADD PUSH2 0x1425 SWAP1 PUSH2 0x2454 JUMP JUMPDEST PUSH1 0x40 MLOAD DUP1 SWAP2 SUB SWAP1 REVERT JUMPDEST PUSH1 0x2 DUP3 DUP2 SLOAD DUP2 LT PUSH2 0x1468 JUMPI PUSH32 0x4E487B7100000000000000000000000000000000000000000000000000000000 PUSH1 0x0 MSTORE PUSH1 0x32 PUSH1 0x4 MSTORE PUSH1 0x24 PUSH1 0x0 REVERT JUMPDEST SWAP1 PUSH1 0x0 MSTORE PUSH1 0x20 PUSH1 0x0 KECCAK256 SWAP1 PUSH1 0x4 MUL ADD PUSH1 0x3 ADD PUSH1 0x40 MLOAD DUP1 PUSH1 0x80 ADD PUSH1 0x40 MSTORE DUP1 PUSH1 0x0 ISZERO ISZERO DUP2 MSTORE PUSH1 0x20 ADD CALLER PUSH20 0xFFFFFFFFFFFFFFFFFFFFFFFFFFFFFFFFFFFFFFFF AND DUP2 MSTORE PUSH1 0x20 ADD TIMESTAMP DUP2 MSTORE PUSH1 0x20 ADD DUP4 DUP2 MSTORE POP SWAP1 DUP1 PUSH1 0x1 DUP2 SLOAD ADD DUP1 DUP3 SSTORE DUP1 SWAP2 POP POP PUSH1 0x1 SWAP1 SUB SWAP1 PUSH1 0x0 MSTORE PUSH1 0x20 PUSH1 0x0 KECCAK256 SWAP1 PUSH1 0x3 MUL ADD PUSH1 0x0 SWAP1 SWAP2 SWAP1 SWAP2 SWAP1 SWAP2 POP PUSH1 0x0 DUP3 ADD MLOAD DUP2 PUSH1 0x0 ADD PUSH1 0x0 PUSH2 0x100 EXP DUP2 SLOAD DUP2 PUSH1 0xFF MUL NOT AND SWAP1 DUP4 ISZERO ISZERO MUL OR SWAP1 SSTORE POP PUSH1 0x20 DUP3 ADD MLOAD DUP2 PUSH1 0x0 ADD PUSH1 0x1 PUSH2 0x100 EXP DUP2 SLOAD DUP2 PUSH20 0xFFFFFFFFFFFFFFFFFFFFFFFFFFFFFFFFFFFFFFFF MUL NOT AND SWAP1 DUP4 PUSH20 0xFFFFFFFFFFFFFFFFFFFFFFFFFFFFFFFFFFFFFFFF AND MUL OR SWAP1 SSTORE POP PUSH1 0x40 DUP3 ADD MLOAD DUP2 PUSH1 0x1 ADD SSTORE PUSH1 0x60 DUP3 ADD MLOAD DUP2 PUSH1 0x2 ADD SWAP1 DUP1 MLOAD SWAP1 PUSH1 0x20 ADD SWAP1 PUSH2 0x1569 SWAP3 SWAP2 SWAP1 PUSH2 0x1AAF JUMP JUMPDEST POP POP POP POP POP JUMP JUMPDEST PUSH1 0x0 DUP1 SLOAD SWAP1 PUSH2 0x100 EXP SWAP1 DIV PUSH1 0xFF AND PUSH2 0x15BD JUMPI PUSH1 0x40 MLOAD PUSH32 0x8C379A000000000000000000000000000000000000000000000000000000000 DUP2 MSTORE PUSH1 0x4 ADD PUSH2 0x15B4 SWAP1 PUSH2 0x2474 JUMP JUMPDEST PUSH1 0x40 MLOAD DUP1 SWAP2 SUB SWAP1 REVERT JUMPDEST PUSH1 0x2 DUP1 SLOAD SWAP1 POP DUP2 LT PUSH2 0x1604 JUMPI PUSH1 0x40 MLOAD PUSH32 0x8C379A000000000000000000000000000000000000000000000000000000000 DUP2 MSTORE PUSH1 0x4 ADD PUSH2 0x15FB SWAP1 PUSH2 0x2534 JUMP JUMPDEST PUSH1 0x40 MLOAD DUP1 SWAP2 SUB SWAP1 REVERT JUMPDEST PUSH1 0x2 DUP2 DUP2 SLOAD DUP2 LT PUSH2 0x163E JUMPI PUSH32 0x4E487B7100000000000000000000000000000000000000000000000000000000 PUSH1 0x0 MSTORE PUSH1 0x32 PUSH1 0x4 MSTORE PUSH1 0x24 PUSH1 0x0 REVERT JUMPDEST SWAP1 PUSH1 0x0 MSTORE PUSH1 0x20 PUSH1 0x0 KECCAK256 SWAP1 PUSH1 0x4 MUL ADD PUSH1 0x0 ADD PUSH1 0x0 SWAP1 SLOAD SWAP1 PUSH2 0x100 EXP SWAP1 DIV PUSH1 0xFF AND PUSH2 0x1666 JUMPI PUSH2 0x16CB JUMP JUMPDEST PUSH1 0x0 PUSH1 0x2 DUP3 DUP2 SLOAD DUP2 LT PUSH2 0x16A2 JUMPI PUSH32 0x4E487B7100000000000000000000000000000000000000000000000000000000 PUSH1 0x0 MSTORE PUSH1 0x32 PUSH1 0x4 MSTORE PUSH1 0x24 PUSH1 0x0 REVERT JUMPDEST SWAP1 PUSH1 0x0 MSTORE PUSH1 0x20 PUSH1 0x0 KECCAK256 SWAP1 PUSH1 0x4 MUL ADD PUSH1 0x0 ADD PUSH1 0x0 PUSH2 0x100 EXP DUP2 SLOAD DUP2 PUSH1 0xFF MUL NOT AND SWAP1 DUP4 ISZERO ISZERO MUL OR SWAP1 SSTORE POP JUMPDEST POP JUMP JUMPDEST PUSH1 0x2 DUP2 DUP2 SLOAD DUP2 LT PUSH2 0x16DE JUMPI PUSH1 0x0 DUP1 REVERT JUMPDEST SWAP1 PUSH1 0x0 MSTORE PUSH1 0x20 PUSH1 0x0 KECCAK256 SWAP1 PUSH1 0x4 MUL ADD PUSH1 0x0 SWAP2 POP SWAP1 POP DUP1 PUSH1 0x0 ADD PUSH1 0x0 SWAP1 SLOAD SWAP1 PUSH2 0x100 EXP SWAP1 DIV PUSH1 0xFF AND SWAP1 DUP1 PUSH1 0x0 ADD PUSH1 0x1 SWAP1 SLOAD SWAP1 PUSH2 0x100 EXP SWAP1 DIV PUSH20 0xFFFFFFFFFFFFFFFFFFFFFFFFFFFFFFFFFFFFFFFF AND SWAP1 DUP1 PUSH1 0x1 ADD SLOAD SWAP1 DUP1 PUSH1 0x2 ADD DUP1 SLOAD PUSH2 0x1740 SWAP1 PUSH2 0x2758 JUMP JUMPDEST DUP1 PUSH1 0x1F ADD PUSH1 0x20 DUP1 SWAP2 DIV MUL PUSH1 0x20 ADD PUSH1 0x40 MLOAD SWAP1 DUP2 ADD PUSH1 0x40 MSTORE DUP1 SWAP3 SWAP2 SWAP1 DUP2 DUP2 MSTORE PUSH1 0x20 ADD DUP3 DUP1 SLOAD PUSH2 0x176C SWAP1 PUSH2 0x2758 JUMP JUMPDEST DUP1 ISZERO PUSH2 0x17B9 JUMPI DUP1 PUSH1 0x1F LT PUSH2 0x178E JUMPI PUSH2 0x100 DUP1 DUP4 SLOAD DIV MUL DUP4 MSTORE SWAP2 PUSH1 0x20 ADD SWAP2 PUSH2 0x17B9 JUMP JUMPDEST DUP3 ADD SWAP2 SWAP1 PUSH1 0x0 MSTORE PUSH1 0x20 PUSH1 0x0 KECCAK256 SWAP1 JUMPDEST DUP2 SLOAD DUP2 MSTORE SWAP1 PUSH1 0x1 ADD SWAP1 PUSH1 0x20 ADD DUP1 DUP4 GT PUSH2 0x179C JUMPI DUP3 SWAP1 SUB PUSH1 0x1F AND DUP3 ADD SWAP2 JUMPDEST POP POP POP POP POP SWAP1 POP DUP5 JUMP JUMPDEST PUSH1 0x0 DUP1 PUSH1 0x0 SWAP1 POP JUMPDEST PUSH1 0x2 DUP1 SLOAD SWAP1 POP DUP2 LT ISZERO PUSH2 0x1936 JUMPI PUSH1 0x2 DUP2 DUP2 SLOAD DUP2 LT PUSH2 0x1812 JUMPI PUSH32 0x4E487B7100000000000000000000000000000000000000000000000000000000 PUSH1 0x0 MSTORE PUSH1 0x32 PUSH1 0x4 MSTORE PUSH1 0x24 PUSH1 0x0 REVERT JUMPDEST SWAP1 PUSH1 0x0 MSTORE PUSH1 0x20 PUSH1 0x0 KECCAK256 SWAP1 PUSH1 0x4 MUL ADD PUSH1 0x0 ADD PUSH1 0x0 SWAP1 SLOAD SWAP1 PUSH2 0x100 EXP SWAP1 DIV PUSH1 0xFF AND ISZERO PUSH2 0x1923 JUMPI PUSH2 0x1913 PUSH1 0x2 DUP3 DUP2 SLOAD DUP2 LT PUSH2 0x1873 JUMPI PUSH32 0x4E487B7100000000000000000000000000000000000000000000000000000000 PUSH1 0x0 MSTORE PUSH1 0x32 PUSH1 0x4 MSTORE PUSH1 0x24 PUSH1 0x0 REVERT JUMPDEST SWAP1 PUSH1 0x0 MSTORE PUSH1 0x20 PUSH1 0x0 KECCAK256 SWAP1 PUSH1 0x4 MUL ADD PUSH1 0x2 ADD DUP1 SLOAD PUSH2 0x188F SWAP1 PUSH2 0x2758 JUMP JUMPDEST DUP1 PUSH1 0x1F ADD PUSH1 0x20 DUP1 SWAP2 DIV MUL PUSH1 0x20 ADD PUSH1 0x40 MLOAD SWAP1 DUP2 ADD PUSH1 0x40 MSTORE DUP1 SWAP3 SWAP2 SWAP1 DUP2 DUP2 MSTORE PUSH1 0x20 ADD DUP3 DUP1 SLOAD PUSH2 0x18BB SWAP1 PUSH2 0x2758 JUMP JUMPDEST DUP1 ISZERO PUSH2 0x1908 JUMPI DUP1 PUSH1 0x1F LT PUSH2 0x18DD JUMPI PUSH2 0x100 DUP1 DUP4 SLOAD DIV MUL DUP4 MSTORE SWAP2 PUSH1 0x20 ADD SWAP2 PUSH2 0x1908 JUMP JUMPDEST DUP3 ADD SWAP2 SWAP1 PUSH1 0x0 MSTORE PUSH1 0x20 PUSH1 0x0 KECCAK256 SWAP1 JUMPDEST DUP2 SLOAD DUP2 MSTORE SWAP1 PUSH1 0x1 ADD SWAP1 PUSH1 0x20 ADD DUP1 DUP4 GT PUSH2 0x18EB JUMPI DUP3 SWAP1 SUB PUSH1 0x1F AND DUP3 ADD SWAP2 JUMPDEST POP POP POP POP POP DUP5 PUSH2 0x1941 JUMP JUMPDEST ISZERO PUSH2 0x1922 JUMPI PUSH1 0x1 SWAP2 POP POP PUSH2 0x193C JUMP JUMPDEST JUMPDEST DUP1 DUP1 PUSH2 0x192E SWAP1 PUSH2 0x278A JUMP JUMPDEST SWAP2 POP POP PUSH2 0x17CB JUMP JUMPDEST POP PUSH1 0x0 SWAP1 POP JUMPDEST SWAP2 SWAP1 POP JUMP JUMPDEST PUSH1 0x0 DUP2 PUSH1 0x40 MLOAD PUSH1 0x20 ADD PUSH2 0x1954 SWAP2 SWAP1 PUSH2 0x2357 JUMP JUMPDEST PUSH1 0x40 MLOAD PUSH1 0x20 DUP2 DUP4 SUB SUB DUP2 MSTORE SWAP1 PUSH1 0x40 MSTORE DUP1 MLOAD SWAP1 PUSH1 0x20 ADD KECCAK256 DUP4 PUSH1 0x40 MLOAD PUSH1 0x20 ADD PUSH2 0x197B SWAP2 SWAP1 PUSH2 0x2357 JUMP JUMPDEST PUSH1 0x40 MLOAD PUSH1 0x20 DUP2 DUP4 SUB SUB DUP2 MSTORE SWAP1 PUSH1 0x40 MSTORE DUP1 MLOAD SWAP1 PUSH1 0x20 ADD KECCAK256 EQ PUSH2 0x199D JUMPI PUSH1 0x0 PUSH2 0x19A0 JUMP JUMPDEST PUSH1 0x1 JUMPDEST SWAP1 POP SWAP3 SWAP2 POP POP JUMP JUMPDEST PUSH2 0x19B0 PUSH2 0x1B35 JUMP JUMPDEST PUSH1 0x0 JUMPDEST DUP3 PUSH1 0x80 ADD MLOAD MLOAD DUP2 LT ISZERO PUSH2 0x1A6E JUMPI DUP3 PUSH1 0x80 ADD MLOAD DUP2 DUP2 MLOAD DUP2 LT PUSH2 0x19FD JUMPI PUSH32 0x4E487B7100000000000000000000000000000000000000000000000000000000 PUSH1 0x0 MSTORE PUSH1 0x32 PUSH1 0x4 MSTORE PUSH1 0x24 PUSH1 0x0 REVERT JUMPDEST PUSH1 0x20 MUL PUSH1 0x20 ADD ADD MLOAD PUSH1 0x0 ADD MLOAD ISZERO PUSH2 0x1A5B JUMPI DUP3 PUSH1 0x80 ADD MLOAD DUP2 DUP2 MLOAD DUP2 LT PUSH2 0x1A4B JUMPI PUSH32 0x4E487B7100000000000000000000000000000000000000000000000000000000 PUSH1 0x0 MSTORE PUSH1 0x32 PUSH1 0x4 MSTORE PUSH1 0x24 PUSH1 0x0 REVERT JUMPDEST PUSH1 0x20 MUL PUSH1 0x20 ADD ADD MLOAD SWAP2 POP POP PUSH2 0x1AAA JUMP JUMPDEST DUP1 DUP1 PUSH2 0x1A66 SWAP1 PUSH2 0x278A JUMP JUMPDEST SWAP2 POP POP PUSH2 0x19B3 JUMP JUMPDEST POP PUSH1 0x40 MLOAD PUSH32 0x8C379A000000000000000000000000000000000000000000000000000000000 DUP2 MSTORE PUSH1 0x4 ADD PUSH2 0x1AA1 SWAP1 PUSH2 0x2434 JUMP JUMPDEST PUSH1 0x40 MLOAD DUP1 SWAP2 SUB SWAP1 REVERT JUMPDEST SWAP2 SWAP1 POP JUMP JUMPDEST DUP3 DUP1 SLOAD PUSH2 0x1ABB SWAP1 PUSH2 0x2758 JUMP JUMPDEST SWAP1 PUSH1 0x0 MSTORE PUSH1 0x20 PUSH1 0x0 KECCAK256 SWAP1 PUSH1 0x1F ADD PUSH1 0x20 SWAP1 DIV DUP2 ADD SWAP3 DUP3 PUSH2 0x1ADD JUMPI PUSH1 0x0 DUP6 SSTORE PUSH2 0x1B24 JUMP JUMPDEST DUP3 PUSH1 0x1F LT PUSH2 0x1AF6 JUMPI DUP1 MLOAD PUSH1 0xFF NOT AND DUP4 DUP1 ADD OR DUP6 SSTORE PUSH2 0x1B24 JUMP JUMPDEST DUP3 DUP1 ADD PUSH1 0x1 ADD DUP6 SSTORE DUP3 ISZERO PUSH2 0x1B24 JUMPI SWAP2 DUP3 ADD JUMPDEST DUP3 DUP2 GT ISZERO PUSH2 0x1B23 JUMPI DUP3 MLOAD DUP3 SSTORE SWAP2 PUSH1 0x20 ADD SWAP2 SWAP1 PUSH1 0x1 ADD SWAP1 PUSH2 0x1B08 JUMP JUMPDEST JUMPDEST POP SWAP1 POP PUSH2 0x1B31 SWAP2 SWAP1 PUSH2 0x1B75 JUMP JUMPDEST POP SWAP1 JUMP JUMPDEST PUSH1 0x40 MLOAD DUP1 PUSH1 0x80 ADD PUSH1 0x40 MSTORE DUP1 PUSH1 0x0 ISZERO ISZERO DUP2 MSTORE PUSH1 0x20 ADD PUSH1 0x0 PUSH20 0xFFFFFFFFFFFFFFFFFFFFFFFFFFFFFFFFFFFFFFFF AND DUP2 MSTORE PUSH1 0x20 ADD PUSH1 0x0 DUP2 MSTORE PUSH1 0x20 ADD PUSH1 0x60 DUP2 MSTORE POP SWAP1 JUMP JUMPDEST JUMPDEST DUP1 DUP3 GT ISZERO PUSH2 0x1B8E JUMPI PUSH1 0x0 DUP2 PUSH1 0x0 SWAP1 SSTORE POP PUSH1 0x1 ADD PUSH2 0x1B76 JUMP JUMPDEST POP SWAP1 JUMP JUMPDEST PUSH1 0x0 PUSH2 0x1BA5 PUSH2 0x1BA0 DUP5 PUSH2 0x25E0 JUMP JUMPDEST PUSH2 0x25AF JUMP JUMPDEST SWAP1 POP DUP3 DUP2 MSTORE PUSH1 0x20 DUP2 ADD DUP5 DUP5 DUP5 ADD GT ISZERO PUSH2 0x1BBD JUMPI PUSH1 0x0 DUP1 REVERT JUMPDEST PUSH2 0x1BC8 DUP5 DUP3 DUP6 PUSH2 0x26EC JUMP JUMPDEST POP SWAP4 SWAP3 POP POP POP JUMP JUMPDEST PUSH1 0x0 DUP2 CALLDATALOAD SWAP1 POP PUSH2 0x1BDF DUP2 PUSH2 0x2871 JUMP JUMPDEST SWAP3 SWAP2 POP POP JUMP JUMPDEST PUSH1 0x0 DUP3 PUSH1 0x1F DUP4 ADD SLT PUSH2 0x1BF6 JUMPI PUSH1 0x0 DUP1 REVERT JUMPDEST DUP2 CALLDATALOAD PUSH2 0x1C06 DUP5 DUP3 PUSH1 0x20 DUP7 ADD PUSH2 0x1B92 JUMP JUMPDEST SWAP2 POP POP SWAP3 SWAP2 POP POP JUMP JUMPDEST PUSH1 0x0 DUP2 CALLDATALOAD SWAP1 POP PUSH2 0x1C1E DUP2 PUSH2 0x2888 JUMP JUMPDEST SWAP3 SWAP2 POP POP JUMP JUMPDEST PUSH1 0x0 PUSH1 0x20 DUP3 DUP5 SUB SLT ISZERO PUSH2 0x1C36 JUMPI PUSH1 0x0 DUP1 REVERT JUMPDEST PUSH1 0x0 PUSH2 0x1C44 DUP5 DUP3 DUP6 ADD PUSH2 0x1BD0 JUMP JUMPDEST SWAP2 POP POP SWAP3 SWAP2 POP POP JUMP JUMPDEST PUSH1 0x0 PUSH1 0x20 DUP3 DUP5 SUB SLT ISZERO PUSH2 0x1C5F JUMPI PUSH1 0x0 DUP1 REVERT JUMPDEST PUSH1 0x0 DUP3 ADD CALLDATALOAD PUSH8 0xFFFFFFFFFFFFFFFF DUP2 GT ISZERO PUSH2 0x1C79 JUMPI PUSH1 0x0 DUP1 REVERT JUMPDEST PUSH2 0x1C85 DUP5 DUP3 DUP6 ADD PUSH2 0x1BE5 JUMP JUMPDEST SWAP2 POP POP SWAP3 SWAP2 POP POP JUMP JUMPDEST PUSH1 0x0 DUP1 PUSH1 0x40 DUP4 DUP6 SUB SLT ISZERO PUSH2 0x1CA1 JUMPI PUSH1 0x0 DUP1 REVERT JUMPDEST PUSH1 0x0 DUP4 ADD CALLDATALOAD PUSH8 0xFFFFFFFFFFFFFFFF DUP2 GT ISZERO PUSH2 0x1CBB JUMPI PUSH1 0x0 DUP1 REVERT JUMPDEST PUSH2 0x1CC7 DUP6 DUP3 DUP7 ADD PUSH2 0x1BE5 JUMP JUMPDEST SWAP3 POP POP PUSH1 0x20 DUP4 ADD CALLDATALOAD PUSH8 0xFFFFFFFFFFFFFFFF DUP2 GT ISZERO PUSH2 0x1CE4 JUMPI PUSH1 0x0 DUP1 REVERT JUMPDEST PUSH2 0x1CF0 DUP6 DUP3 DUP7 ADD PUSH2 0x1BE5 JUMP JUMPDEST SWAP2 POP POP SWAP3 POP SWAP3 SWAP1 POP JUMP JUMPDEST PUSH1 0x0 PUSH1 0x20 DUP3 DUP5 SUB SLT ISZERO PUSH2 0x1D0C JUMPI PUSH1 0x0 DUP1 REVERT JUMPDEST PUSH1 0x0 PUSH2 0x1D1A DUP5 DUP3 DUP6 ADD PUSH2 0x1C0F JUMP JUMPDEST SWAP2 POP POP SWAP3 SWAP2 POP POP JUMP JUMPDEST PUSH1 0x0 DUP1 PUSH1 0x40 DUP4 DUP6 SUB SLT ISZERO PUSH2 0x1D36 JUMPI PUSH1 0x0 DUP1 REVERT JUMPDEST PUSH1 0x0 PUSH2 0x1D44 DUP6 DUP3 DUP7 ADD PUSH2 0x1C0F JUMP JUMPDEST SWAP3 POP POP PUSH1 0x20 DUP4 ADD CALLDATALOAD PUSH8 0xFFFFFFFFFFFFFFFF DUP2 GT ISZERO PUSH2 0x1D61 JUMPI PUSH1 0x0 DUP1 REVERT JUMPDEST PUSH2 0x1D6D DUP6 DUP3 DUP7 ADD PUSH2 0x1BE5 JUMP JUMPDEST SWAP2 POP POP SWAP3 POP SWAP3 SWAP1 POP JUMP JUMPDEST PUSH1 0x0 DUP1 PUSH1 0x40 DUP4 DUP6 SUB SLT ISZERO PUSH2 0x1D8A JUMPI PUSH1 0x0 DUP1 REVERT JUMPDEST PUSH1 0x0 PUSH2 0x1D98 DUP6 DUP3 DUP7 ADD PUSH2 0x1C0F JUMP JUMPDEST SWAP3 POP POP PUSH1 0x20 PUSH2 0x1DA9 DUP6 DUP3 DUP7 ADD PUSH2 0x1C0F JUMP JUMPDEST SWAP2 POP POP SWAP3 POP SWAP3 SWAP1 POP JUMP JUMPDEST PUSH1 0x0 PUSH2 0x1DBF DUP4 DUP4 PUSH2 0x2339 JUMP JUMPDEST PUSH1 0x20 DUP4 ADD SWAP1 POP SWAP3 SWAP2 POP POP JUMP JUMPDEST PUSH2 0x1DD4 DUP2 PUSH2 0x26A4 JUMP JUMPDEST DUP3 MSTORE POP POP JUMP JUMPDEST PUSH1 0x0 PUSH2 0x1DE5 DUP3 PUSH2 0x2620 JUMP JUMPDEST PUSH2 0x1DEF DUP2 DUP6 PUSH2 0x2643 JUMP JUMPDEST SWAP4 POP PUSH2 0x1DFA DUP4 PUSH2 0x2610 JUMP JUMPDEST DUP1 PUSH1 0x0 JUMPDEST DUP4 DUP2 LT ISZERO PUSH2 0x1E2B JUMPI DUP2 MLOAD PUSH2 0x1E12 DUP9 DUP3 PUSH2 0x1DB3 JUMP JUMPDEST SWAP8 POP PUSH2 0x1E1D DUP4 PUSH2 0x2636 JUMP JUMPDEST SWAP3 POP POP PUSH1 0x1 DUP2 ADD SWAP1 POP PUSH2 0x1DFE JUMP JUMPDEST POP DUP6 SWAP4 POP POP POP POP SWAP3 SWAP2 POP POP JUMP JUMPDEST PUSH2 0x1E41 DUP2 PUSH2 0x26B6 JUMP JUMPDEST DUP3 MSTORE POP POP JUMP JUMPDEST PUSH1 0x0 PUSH2 0x1E52 DUP3 PUSH2 0x262B JUMP JUMPDEST PUSH2 0x1E5C DUP2 DUP6 PUSH2 0x2654 JUMP JUMPDEST SWAP4 POP PUSH2 0x1E6C DUP2 DUP6 PUSH1 0x20 DUP7 ADD PUSH2 0x26FB JUMP JUMPDEST PUSH2 0x1E75 DUP2 PUSH2 0x2860 JUMP JUMPDEST DUP5 ADD SWAP2 POP POP SWAP3 SWAP2 POP POP JUMP JUMPDEST PUSH1 0x0 PUSH2 0x1E8B DUP3 PUSH2 0x262B JUMP JUMPDEST PUSH2 0x1E95 DUP2 DUP6 PUSH2 0x2665 JUMP JUMPDEST SWAP4 POP PUSH2 0x1EA5 DUP2 DUP6 PUSH1 0x20 DUP7 ADD PUSH2 0x26FB JUMP JUMPDEST DUP1 DUP5 ADD SWAP2 POP POP SWAP3 SWAP2 POP POP JUMP JUMPDEST PUSH1 0x0 PUSH2 0x1EBE PUSH1 0x30 DUP4 PUSH2 0x2654 JUMP JUMPDEST SWAP2 POP PUSH32 0x4E656E68756D612076657263616F20617469766120656E636F6E747261646120 PUSH1 0x0 DUP4 ADD MSTORE PUSH32 0x70617261206573746120706167696E6100000000000000000000000000000000 PUSH1 0x20 DUP4 ADD MSTORE PUSH1 0x40 DUP3 ADD SWAP1 POP SWAP2 SWAP1 POP JUMP JUMPDEST PUSH1 0x0 PUSH2 0x1F24 PUSH1 0x43 DUP4 PUSH2 0x2654 JUMP JUMPDEST SWAP2 POP PUSH32 0x412061646963616F206465206E6F76617320766572636F657320736F20652070 PUSH1 0x0 DUP4 ADD MSTORE PUSH32 0x65726D6974696461207175616E646F206120706167696E612065737461206174 PUSH1 0x20 DUP4 ADD MSTORE PUSH32 0x6976610000000000000000000000000000000000000000000000000000000000 PUSH1 0x40 DUP4 ADD MSTORE PUSH1 0x60 DUP3 ADD SWAP1 POP SWAP2 SWAP1 POP JUMP JUMPDEST PUSH1 0x0 PUSH2 0x1FB0 PUSH1 0x46 DUP4 PUSH2 0x2654 JUMP JUMPDEST SWAP2 POP PUSH32 0x4120646573617469766163616F20646520706167696E617320736F2065207065 PUSH1 0x0 DUP4 ADD MSTORE PUSH32 0x726D6974696461207175616E646F206120426C6F636B70656469612065737461 PUSH1 0x20 DUP4 ADD MSTORE PUSH32 0x2061746976610000000000000000000000000000000000000000000000000000 PUSH1 0x40 DUP4 ADD MSTORE PUSH1 0x60 DUP3 ADD SWAP1 POP SWAP2 SWAP1 POP JUMP JUMPDEST PUSH1 0x0 PUSH2 0x203C PUSH1 0x3F DUP4 PUSH2 0x2654 JUMP JUMPDEST SWAP2 POP PUSH32 0x4120616C7465726163616F2064652076657273616F20736F2065207065726D69 PUSH1 0x0 DUP4 ADD MSTORE PUSH32 0x74696461207175616E646F206120706167696E61206573746120617469766100 PUSH1 0x20 DUP4 ADD MSTORE PUSH1 0x40 DUP3 ADD SWAP1 POP SWAP2 SWAP1 POP JUMP JUMPDEST PUSH1 0x0 PUSH2 0x20A2 PUSH1 0x16 DUP4 PUSH2 0x2654 JUMP JUMPDEST SWAP2 POP PUSH32 0x496E6469636520666F726120646F20616C63616E636500000000000000000000 PUSH1 0x0 DUP4 ADD MSTORE PUSH1 0x20 DUP3 ADD SWAP1 POP SWAP2 SWAP1 POP JUMP JUMPDEST PUSH1 0x0 PUSH2 0x20E2 PUSH1 0x43 DUP4 PUSH2 0x2654 JUMP JUMPDEST SWAP2 POP PUSH32 0x4120617469766163616F20646520706167696E617320736F2065207065726D69 PUSH1 0x0 DUP4 ADD MSTORE PUSH32 0x74696461207175616E646F206120426C6F636B70656469612065737461206174 PUSH1 0x20 DUP4 ADD MSTORE PUSH32 0x6976610000000000000000000000000000000000000000000000000000000000 PUSH1 0x40 DUP4 ADD MSTORE PUSH1 0x60 DUP3 ADD SWAP1 POP SWAP2 SWAP1 POP JUMP JUMPDEST PUSH1 0x0 PUSH2 0x216E PUSH1 0x20 DUP4 PUSH2 0x2654 JUMP JUMPDEST SWAP2 POP PUSH32 0x496E646963652064612076657273616F20666F726120646F20616C63616E6365 PUSH1 0x0 DUP4 ADD MSTORE PUSH1 0x20 DUP3 ADD SWAP1 POP SWAP2 SWAP1 POP JUMP JUMPDEST PUSH1 0x0 PUSH2 0x21AE PUSH1 0x26 DUP4 PUSH2 0x2654 JUMP JUMPDEST SWAP2 POP PUSH32 0x4A612065786973746520706167696E6120617469766120636F6D206573746520 PUSH1 0x0 DUP4 ADD MSTORE PUSH32 0x746974756C6F0000000000000000000000000000000000000000000000000000 PUSH1 0x20 DUP4 ADD MSTORE PUSH1 0x40 DUP3 ADD SWAP1 POP SWAP2 SWAP1 POP JUMP JUMPDEST PUSH1 0x0 PUSH2 0x2214 PUSH1 0x20 DUP4 PUSH2 0x2654 JUMP JUMPDEST SWAP2 POP PUSH32 0x496E6469636520646120706167696E6120666F726120646F20616C63616E6365 PUSH1 0x0 DUP4 ADD MSTORE PUSH1 0x20 DUP3 ADD SWAP1 POP SWAP2 SWAP1 POP JUMP JUMPDEST PUSH1 0x0 PUSH2 0x2254 PUSH1 0x3D DUP4 PUSH2 0x2654 JUMP JUMPDEST SWAP2 POP PUSH32 0x536F6D656E7465206F20646F6E6F20646573746120426C6F636B706564696120 PUSH1 0x0 DUP4 ADD MSTORE PUSH32 0x706F646520616C7465726172206F20617472696275746F20617469766F000000 PUSH1 0x20 DUP4 ADD MSTORE PUSH1 0x40 DUP3 ADD SWAP1 POP SWAP2 SWAP1 POP JUMP JUMPDEST PUSH1 0x0 PUSH2 0x22BA PUSH1 0x47 DUP4 PUSH2 0x2654 JUMP JUMPDEST SWAP2 POP PUSH32 0x412061646963616F206465206E6F76617320706167696E617320736F20652070 PUSH1 0x0 DUP4 ADD MSTORE PUSH32 0x65726D6974696461207175616E646F206120426C6F636B706564696120657374 PUSH1 0x20 DUP4 ADD MSTORE PUSH32 0x6120617469766100000000000000000000000000000000000000000000000000 PUSH1 0x40 DUP4 ADD MSTORE PUSH1 0x60 DUP3 ADD SWAP1 POP SWAP2 SWAP1 POP JUMP JUMPDEST PUSH2 0x2342 DUP2 PUSH2 0x26E2 JUMP JUMPDEST DUP3 MSTORE POP POP JUMP JUMPDEST PUSH2 0x2351 DUP2 PUSH2 0x26E2 JUMP JUMPDEST DUP3 MSTORE POP POP JUMP JUMPDEST PUSH1 0x0 PUSH2 0x2363 DUP3 DUP5 PUSH2 0x1E80 JUMP JUMPDEST SWAP2 POP DUP2 SWAP1 POP SWAP3 SWAP2 POP POP JUMP JUMPDEST PUSH1 0x0 PUSH1 0x20 DUP3 ADD SWAP1 POP PUSH2 0x2383 PUSH1 0x0 DUP4 ADD DUP5 PUSH2 0x1DCB JUMP JUMPDEST SWAP3 SWAP2 POP POP JUMP JUMPDEST PUSH1 0x0 PUSH1 0x20 DUP3 ADD SWAP1 POP DUP2 DUP2 SUB PUSH1 0x0 DUP4 ADD MSTORE PUSH2 0x23A3 DUP2 DUP5 PUSH2 0x1DDA JUMP JUMPDEST SWAP1 POP SWAP3 SWAP2 POP POP JUMP JUMPDEST PUSH1 0x0 PUSH1 0x20 DUP3 ADD SWAP1 POP PUSH2 0x23C0 PUSH1 0x0 DUP4 ADD DUP5 PUSH2 0x1E38 JUMP JUMPDEST SWAP3 SWAP2 POP POP JUMP JUMPDEST PUSH1 0x0 PUSH1 0x80 DUP3 ADD SWAP1 POP PUSH2 0x23DB PUSH1 0x0 DUP4 ADD DUP8 PUSH2 0x1E38 JUMP JUMPDEST PUSH2 0x23E8 PUSH1 0x20 DUP4 ADD DUP7 PUSH2 0x1DCB JUMP JUMPDEST PUSH2 0x23F5 PUSH1 0x40 DUP4 ADD DUP6 PUSH2 0x2348 JUMP JUMPDEST DUP2 DUP2 SUB PUSH1 0x60 DUP4 ADD MSTORE PUSH2 0x2407 DUP2 DUP5 PUSH2 0x1E47 JUMP JUMPDEST SWAP1 POP SWAP6 SWAP5 POP POP POP POP POP JUMP JUMPDEST PUSH1 0x0 PUSH1 0x20 DUP3 ADD SWAP1 POP DUP2 DUP2 SUB PUSH1 0x0 DUP4 ADD MSTORE PUSH2 0x242C DUP2 DUP5 PUSH2 0x1E47 JUMP JUMPDEST SWAP1 POP SWAP3 SWAP2 POP POP JUMP JUMPDEST PUSH1 0x0 PUSH1 0x20 DUP3 ADD SWAP1 POP DUP2 DUP2 SUB PUSH1 0x0 DUP4 ADD MSTORE PUSH2 0x244D DUP2 PUSH2 0x1EB1 JUMP JUMPDEST SWAP1 POP SWAP2 SWAP1 POP JUMP JUMPDEST PUSH1 0x0 PUSH1 0x20 DUP3 ADD SWAP1 POP DUP2 DUP2 SUB PUSH1 0x0 DUP4 ADD MSTORE PUSH2 0x246D DUP2 PUSH2 0x1F17 JUMP JUMPDEST SWAP1 POP SWAP2 SWAP1 POP JUMP JUMPDEST PUSH1 0x0 PUSH1 0x20 DUP3 ADD SWAP1 POP DUP2 DUP2 SUB PUSH1 0x0 DUP4 ADD MSTORE PUSH2 0x248D DUP2 PUSH2 0x1FA3 JUMP JUMPDEST SWAP1 POP SWAP2 SWAP1 POP JUMP JUMPDEST PUSH1 0x0 PUSH1 0x20 DUP3 ADD SWAP1 POP DUP2 DUP2 SUB PUSH1 0x0 DUP4 ADD MSTORE PUSH2 0x24AD DUP2 PUSH2 0x202F JUMP JUMPDEST SWAP1 POP SWAP2 SWAP1 POP JUMP JUMPDEST PUSH1 0x0 PUSH1 0x20 DUP3 ADD SWAP1 POP DUP2 DUP2 SUB PUSH1 0x0 DUP4 ADD MSTORE PUSH2 0x24CD DUP2 PUSH2 0x2095 JUMP JUMPDEST SWAP1 POP SWAP2 SWAP1 POP JUMP JUMPDEST PUSH1 0x0 PUSH1 0x20 DUP3 ADD SWAP1 POP DUP2 DUP2 SUB PUSH1 0x0 DUP4 ADD MSTORE PUSH2 0x24ED DUP2 PUSH2 0x20D5 JUMP JUMPDEST SWAP1 POP SWAP2 SWAP1 POP JUMP JUMPDEST PUSH1 0x0 PUSH1 0x20 DUP3 ADD SWAP1 POP DUP2 DUP2 SUB PUSH1 0x0 DUP4 ADD MSTORE PUSH2 0x250D DUP2 PUSH2 0x2161 JUMP JUMPDEST SWAP1 POP SWAP2 SWAP1 POP JUMP JUMPDEST PUSH1 0x0 PUSH1 0x20 DUP3 ADD SWAP1 POP DUP2 DUP2 SUB PUSH1 0x0 DUP4 ADD MSTORE PUSH2 0x252D DUP2 PUSH2 0x21A1 JUMP JUMPDEST SWAP1 POP SWAP2 SWAP1 POP JUMP JUMPDEST PUSH1 0x0 PUSH1 0x20 DUP3 ADD SWAP1 POP DUP2 DUP2 SUB PUSH1 0x0 DUP4 ADD MSTORE PUSH2 0x254D DUP2 PUSH2 0x2207 JUMP JUMPDEST SWAP1 POP SWAP2 SWAP1 POP JUMP JUMPDEST PUSH1 0x0 PUSH1 0x20 DUP3 ADD SWAP1 POP DUP2 DUP2 SUB PUSH1 0x0 DUP4 ADD MSTORE PUSH2 0x256D DUP2 PUSH2 0x2247 JUMP JUMPDEST SWAP1 POP SWAP2 SWAP1 POP JUMP JUMPDEST PUSH1 0x0 PUSH1 0x20 DUP3 ADD SWAP1 POP DUP2 DUP2 SUB PUSH1 0x0 DUP4 ADD MSTORE PUSH2 0x258D DUP2 PUSH2 0x22AD JUMP JUMPDEST SWAP1 POP SWAP2 SWAP1 POP JUMP JUMPDEST PUSH1 0x0 PUSH1 0x20 DUP3 ADD SWAP1 POP PUSH2 0x25A9 PUSH1 0x0 DUP4 ADD DUP5 PUSH2 0x2348 JUMP JUMPDEST SWAP3 SWAP2 POP POP JUMP JUMPDEST PUSH1 0x0 PUSH1 0x40 MLOAD SWAP1 POP DUP2 DUP2 ADD DUP2 DUP2 LT PUSH8 0xFFFFFFFFFFFFFFFF DUP3 GT OR ISZERO PUSH2 0x25D6 JUMPI PUSH2 0x25D5 PUSH2 0x2831 JUMP JUMPDEST JUMPDEST DUP1 PUSH1 0x40 MSTORE POP SWAP2 SWAP1 POP JUMP JUMPDEST PUSH1 0x0 PUSH8 0xFFFFFFFFFFFFFFFF DUP3 GT ISZERO PUSH2 0x25FB JUMPI PUSH2 0x25FA PUSH2 0x2831 JUMP JUMPDEST JUMPDEST PUSH1 0x1F NOT PUSH1 0x1F DUP4 ADD AND SWAP1 POP PUSH1 0x20 DUP2 ADD SWAP1 POP SWAP2 SWAP1 POP JUMP JUMPDEST PUSH1 0x0 DUP2 SWAP1 POP PUSH1 0x20 DUP3 ADD SWAP1 POP SWAP2 SWAP1 POP JUMP JUMPDEST PUSH1 0x0 DUP2 MLOAD SWAP1 POP SWAP2 SWAP1 POP JUMP JUMPDEST PUSH1 0x0 DUP2 MLOAD SWAP1 POP SWAP2 SWAP1 POP JUMP JUMPDEST PUSH1 0x0 PUSH1 0x20 DUP3 ADD SWAP1 POP SWAP2 SWAP1 POP JUMP JUMPDEST PUSH1 0x0 DUP3 DUP3 MSTORE PUSH1 0x20 DUP3 ADD SWAP1 POP SWAP3 SWAP2 POP POP JUMP JUMPDEST PUSH1 0x0 DUP3 DUP3 MSTORE PUSH1 0x20 DUP3 ADD SWAP1 POP SWAP3 SWAP2 POP POP JUMP JUMPDEST PUSH1 0x0 DUP2 SWAP1 POP SWAP3 SWAP2 POP POP JUMP JUMPDEST PUSH1 0x0 PUSH2 0x267B DUP3 PUSH2 0x26E2 JUMP JUMPDEST SWAP2 POP PUSH2 0x2686 DUP4 PUSH2 0x26E2 JUMP JUMPDEST SWAP3 POP DUP3 DUP3 LT ISZERO PUSH2 0x2699 JUMPI PUSH2 0x2698 PUSH2 0x27D3 JUMP JUMPDEST JUMPDEST DUP3 DUP3 SUB SWAP1 POP SWAP3 SWAP2 POP POP JUMP JUMPDEST PUSH1 0x0 PUSH2 0x26AF DUP3 PUSH2 0x26C2 JUMP JUMPDEST SWAP1 POP SWAP2 SWAP1 POP JUMP JUMPDEST PUSH1 0x0 DUP2 ISZERO ISZERO SWAP1 POP SWAP2 SWAP1 POP JUMP JUMPDEST PUSH1 0x0 PUSH20 0xFFFFFFFFFFFFFFFFFFFFFFFFFFFFFFFFFFFFFFFF DUP3 AND SWAP1 POP SWAP2 SWAP1 POP JUMP JUMPDEST PUSH1 0x0 DUP2 SWAP1 POP SWAP2 SWAP1 POP JUMP JUMPDEST DUP3 DUP2 DUP4 CALLDATACOPY PUSH1 0x0 DUP4 DUP4 ADD MSTORE POP POP POP JUMP JUMPDEST PUSH1 0x0 JUMPDEST DUP4 DUP2 LT ISZERO PUSH2 0x2719 JUMPI DUP1 DUP3 ADD MLOAD DUP2 DUP5 ADD MSTORE PUSH1 0x20 DUP2 ADD SWAP1 POP PUSH2 0x26FE JUMP JUMPDEST DUP4 DUP2 GT ISZERO PUSH2 0x2728 JUMPI PUSH1 0x0 DUP5 DUP5 ADD MSTORE JUMPDEST POP POP POP POP JUMP JUMPDEST PUSH1 0x0 PUSH2 0x2739 DUP3 PUSH2 0x26E2 JUMP JUMPDEST SWAP2 POP PUSH1 0x0 DUP3 EQ ISZERO PUSH2 0x274D JUMPI PUSH2 0x274C PUSH2 0x27D3 JUMP JUMPDEST JUMPDEST PUSH1 0x1 DUP3 SUB SWAP1 POP SWAP2 SWAP1 POP JUMP JUMPDEST PUSH1 0x0 PUSH1 0x2 DUP3 DIV SWAP1 POP PUSH1 0x1 DUP3 AND DUP1 PUSH2 0x2770 JUMPI PUSH1 0x7F DUP3 AND SWAP2 POP JUMPDEST PUSH1 0x20 DUP3 LT DUP2 EQ ISZERO PUSH2 0x2784 JUMPI PUSH2 0x2783 PUSH2 0x2802 JUMP JUMPDEST JUMPDEST POP SWAP2 SWAP1 POP JUMP JUMPDEST PUSH1 0x0 PUSH2 0x2795 DUP3 PUSH2 0x26E2 JUMP JUMPDEST SWAP2 POP PUSH32 0xFFFFFFFFFFFFFFFFFFFFFFFFFFFFFFFFFFFFFFFFFFFFFFFFFFFFFFFFFFFFFFFF DUP3 EQ ISZERO PUSH2 0x27C8 JUMPI PUSH2 0x27C7 PUSH2 0x27D3 JUMP JUMPDEST JUMPDEST PUSH1 0x1 DUP3 ADD SWAP1 POP SWAP2 SWAP1 POP JUMP JUMPDEST PUSH32 0x4E487B7100000000000000000000000000000000000000000000000000000000 PUSH1 0x0 MSTORE PUSH1 0x11 PUSH1 0x4 MSTORE PUSH1 0x24 PUSH1 0x0 REVERT JUMPDEST PUSH32 0x4E487B7100000000000000000000000000000000000000000000000000000000 PUSH1 0x0 MSTORE PUSH1 0x22 PUSH1 0x4 MSTORE PUSH1 0x24 PUSH1 0x0 REVERT JUMPDEST PUSH32 0x4E487B7100000000000000000000000000000000000000000000000000000000 PUSH1 0x0 MSTORE PUSH1 0x41 PUSH1 0x4 MSTORE PUSH1 0x24 PUSH1 0x0 REVERT JUMPDEST PUSH1 0x0 PUSH1 0x1F NOT PUSH1 0x1F DUP4 ADD AND SWAP1 POP SWAP2 SWAP1 POP JUMP JUMPDEST PUSH2 0x287A DUP2 PUSH2 0x26B6 JUMP JUMPDEST DUP2 EQ PUSH2 0x2885 JUMPI PUSH1 0x0 DUP1 REVERT JUMPDEST POP JUMP JUMPDEST PUSH2 0x2891 DUP2 PUSH2 0x26E2 JUMP JUMPDEST DUP2 EQ PUSH2 0x289C JUMPI PUSH1 0x0 DUP1 REVERT JUMPDEST POP JUMP INVALID LOG2 PUSH5 0x6970667358 0x22 SLT KECCAK256 SWAP11 NUMBER EXTCODECOPY 0xAA BYTE DUP10 PUSH32 0xB18C2CE0CBC508F04B52EECCDB1EF2ECA6AB3928A1271435B64736F6C634300 ADDMOD STOP STOP CALLER TIMESTAMP PUSH6 0x6D2076696E64 PUSH16 0x206120426C6F636B70656964612C2061 KECCAK256 PUSH6 0x6E6369636C6F PUSH17 0x65646961206E6120626C6F636B63686169 PUSH15 0x0 "
				},
				"gasEstimates": {
					"creation": {
						"codeDepositCost": "2090600",
						"executionCost": "infinite",
						"totalCost": "infinite"
					},
					"external": {
						"adicionaNovaVercaoDesativadaAPaginaPorIndexPaginas(uint256,string)": "infinite",
						"ativaDesativaBlockpedia(bool)": "22222",
						"ativaPaginaPorIndexPaginas(uint256)": "infinite",
						"ativaVersaoPorIndexVersoesEIndexPaginas(uint256,uint256)": "infinite",
						"ativo()": "1190",
						"autor()": "1265",
						"criarPagina(string,string)": "infinite",
						"dataCriacao()": "1240",
						"desativaPaginaPorIndexPaginas(uint256)": "25690",
						"getConteudoVersaoValidaPorIndexPaginas(uint256)": "infinite",
						"getPaginasPorTitulo(string)": "infinite",
						"paginas(uint256)": "infinite"
					},
					"internal": {
						"comparaString(string memory,string memory)": "infinite",
						"existeTituloAtivo(string memory)": "infinite",
						"getVersaoValidaDeUmaPagina(struct Blockpedia.Pagina memory)": "infinite"
					}
				},
				"methodIdentifiers": {
					"adicionaNovaVercaoDesativadaAPaginaPorIndexPaginas(uint256,string)": "d4d23a6e",
					"ativaDesativaBlockpedia(bool)": "1509d30c",
					"ativaPaginaPorIndexPaginas(uint256)": "aa83581f",
					"ativaVersaoPorIndexVersoesEIndexPaginas(uint256,uint256)": "95be551a",
					"ativo()": "a18cc13b",
					"autor()": "0694952d",
					"criarPagina(string,string)": "1c18379a",
					"dataCriacao()": "6f70a52e",
					"desativaPaginaPorIndexPaginas(uint256)": "d616c9f0",
					"getConteudoVersaoValidaPorIndexPaginas(uint256)": "4d7e6726",
					"getPaginasPorTitulo(string)": "2e87ca2e",
					"paginas(uint256)": "e7d4296a"
				}
			},
			"storageLayout": {
				"storage": [
					{
						"astId": 4,
						"contract": "blockpedia.sol:Blockpedia",
						"label": "ativo",
						"offset": 0,
						"slot": "0",
						"type": "t_bool"
					},
					{
						"astId": 6,
						"contract": "blockpedia.sol:Blockpedia",
						"label": "autor",
						"offset": 1,
						"slot": "0",
						"type": "t_address"
					},
					{
						"astId": 10,
						"contract": "blockpedia.sol:Blockpedia",
						"label": "dataCriacao",
						"offset": 0,
						"slot": "1",
						"type": "t_uint256"
					},
					{
						"astId": 14,
						"contract": "blockpedia.sol:Blockpedia",
						"label": "paginas",
						"offset": 0,
						"slot": "2",
						"type": "t_array(t_struct(Pagina)27_storage)dyn_storage"
					}
				],
				"types": {
					"t_address": {
						"encoding": "inplace",
						"label": "address",
						"numberOfBytes": "20"
					},
					"t_array(t_struct(Pagina)27_storage)dyn_storage": {
						"base": "t_struct(Pagina)27_storage",
						"encoding": "dynamic_array",
						"label": "struct Blockpedia.Pagina[]",
						"numberOfBytes": "32"
					},
					"t_array(t_struct(Versao)36_storage)dyn_storage": {
						"base": "t_struct(Versao)36_storage",
						"encoding": "dynamic_array",
						"label": "struct Blockpedia.Versao[]",
						"numberOfBytes": "32"
					},
					"t_bool": {
						"encoding": "inplace",
						"label": "bool",
						"numberOfBytes": "1"
					},
					"t_string_storage": {
						"encoding": "bytes",
						"label": "string",
						"numberOfBytes": "32"
					},
					"t_struct(Pagina)27_storage": {
						"encoding": "inplace",
						"label": "struct Blockpedia.Pagina",
						"members": [
							{
								"astId": 16,
								"contract": "blockpedia.sol:Blockpedia",
								"label": "ativo",
								"offset": 0,
								"slot": "0",
								"type": "t_bool"
							},
							{
								"astId": 18,
								"contract": "blockpedia.sol:Blockpedia",
								"label": "autor",
								"offset": 1,
								"slot": "0",
								"type": "t_address"
							},
							{
								"astId": 20,
								"contract": "blockpedia.sol:Blockpedia",
								"label": "dataCriacao",
								"offset": 0,
								"slot": "1",
								"type": "t_uint256"
							},
							{
								"astId": 22,
								"contract": "blockpedia.sol:Blockpedia",
								"label": "titulo",
								"offset": 0,
								"slot": "2",
								"type": "t_string_storage"
							},
							{
								"astId": 26,
								"contract": "blockpedia.sol:Blockpedia",
								"label": "versoes",
								"offset": 0,
								"slot": "3",
								"type": "t_array(t_struct(Versao)36_storage)dyn_storage"
							}
						],
						"numberOfBytes": "128"
					},
					"t_struct(Versao)36_storage": {
						"encoding": "inplace",
						"label": "struct Blockpedia.Versao",
						"members": [
							{
								"astId": 29,
								"contract": "blockpedia.sol:Blockpedia",
								"label": "ativo",
								"offset": 0,
								"slot": "0",
								"type": "t_bool"
							},
							{
								"astId": 31,
								"contract": "blockpedia.sol:Blockpedia",
								"label": "autor",
								"offset": 1,
								"slot": "0",
								"type": "t_address"
							},
							{
								"astId": 33,
								"contract": "blockpedia.sol:Blockpedia",
								"label": "dataCriacao",
								"offset": 0,
								"slot": "1",
								"type": "t_uint256"
							},
							{
								"astId": 35,
								"contract": "blockpedia.sol:Blockpedia",
								"label": "conteudo",
								"offset": 0,
								"slot": "2",
								"type": "t_string_storage"
							}
						],
						"numberOfBytes": "96"
					},
					"t_uint256": {
						"encoding": "inplace",
						"label": "uint256",
						"numberOfBytes": "32"
					}
				}
			},
			"userdoc": {
				"kind": "user",
				"methods": {},
				"version": 1
			}
		}
	}
}