{
	"blockpedia.sol": {
		"Blockpedia": {
			"abi": [
				{
					"inputs": [
						{
							"internalType": "string",
							"name": "titulo",
							"type": "string"
						},
						{
							"internalType": "string",
							"name": "conteudo",
							"type": "string"
						}
					],
					"name": "criarPagina",
					"outputs": [],
					"stateMutability": "nonpayable",
					"type": "function"
				},
				{
					"inputs": [
						{
							"internalType": "uint256",
							"name": "",
							"type": "uint256"
						}
					],
					"name": "paginas",
					"outputs": [
						{
							"internalType": "address",
							"name": "autor",
							"type": "address"
						},
						{
							"internalType": "bool",
							"name": "ativo",
							"type": "bool"
						},
						{
							"internalType": "string",
							"name": "titulo",
							"type": "string"
						}
					],
					"stateMutability": "view",
					"type": "function"
				}
			],
			"devdoc": {
				"kind": "dev",
				"methods": {},
				"version": 1
			},
			"evm": {
				"assembly": "    /* \"blockpedia.sol\":87:474  contract Blockpedia {\r... */\n  mstore(0x40, 0x80)\n  callvalue\n  dup1\n  iszero\n  tag_1\n  jumpi\n  0x00\n  dup1\n  revert\ntag_1:\n  pop\n  dataSize(sub_0)\n  dup1\n  dataOffset(sub_0)\n  0x00\n  codecopy\n  0x00\n  return\nstop\n\nsub_0: assembly {\n        /* \"blockpedia.sol\":87:474  contract Blockpedia {\r... */\n      mstore(0x40, 0x80)\n      callvalue\n      dup1\n      iszero\n      tag_1\n      jumpi\n      0x00\n      dup1\n      revert\n    tag_1:\n      pop\n      jumpi(tag_2, lt(calldatasize, 0x04))\n      shr(0xe0, calldataload(0x00))\n      dup1\n      0x1c18379a\n      eq\n      tag_3\n      jumpi\n      dup1\n      0xe7d4296a\n      eq\n      tag_4\n      jumpi\n    tag_2:\n      0x00\n      dup1\n      revert\n        /* \"blockpedia.sol\":149:467  function criarPagina(string memory titulo, string memory conteudo) public {\r... */\n    tag_3:\n      tag_5\n      0x04\n      dup1\n      calldatasize\n      sub\n      dup2\n      add\n      swap1\n      tag_6\n      swap2\n      swap1\n      tag_7\n      jump\t// in\n    tag_6:\n      tag_8\n      jump\t// in\n    tag_5:\n      stop\n        /* \"blockpedia.sol\":114:137  Pagina[] public paginas */\n    tag_4:\n      tag_9\n      0x04\n      dup1\n      calldatasize\n      sub\n      dup2\n      add\n      swap1\n      tag_10\n      swap2\n      swap1\n      tag_11\n      jump\t// in\n    tag_10:\n      tag_12\n      jump\t// in\n    tag_9:\n      mload(0x40)\n      tag_13\n      swap4\n      swap3\n      swap2\n      swap1\n      tag_14\n      jump\t// in\n    tag_13:\n      mload(0x40)\n      dup1\n      swap2\n      sub\n      swap1\n      return\n        /* \"blockpedia.sol\":149:467  function criarPagina(string memory titulo, string memory conteudo) public {\r... */\n    tag_8:\n        /* \"blockpedia.sol\":234:259  Pagina storage novaPagina */\n      0x00\n        /* \"blockpedia.sol\":262:269  paginas */\n      dup1\n        /* \"blockpedia.sol\":262:276  paginas.push() */\n      0x01\n      dup2\n      0x01\n      dup2\n      sload\n      add\n      dup1\n      dup3\n      sstore\n      dup1\n      swap2\n      pop\n      pop\n      sub\n      swap1\n      0x00\n      mstore\n      keccak256(0x00, 0x20)\n      swap1\n      0x03\n      mul\n      add\n        /* \"blockpedia.sol\":234:276  Pagina storage novaPagina = paginas.push() */\n      swap1\n      pop\n        /* \"blockpedia.sol\":306:316  msg.sender */\n      caller\n        /* \"blockpedia.sol\":287:297  novaPagina */\n      dup2\n        /* \"blockpedia.sol\":287:303  novaPagina.autor */\n      0x00\n      add\n      0x00\n        /* \"blockpedia.sol\":287:316  novaPagina.autor = msg.sender */\n      0x0100\n      exp\n      dup2\n      sload\n      dup2\n      0xffffffffffffffffffffffffffffffffffffffff\n      mul\n      not\n      and\n      swap1\n      dup4\n      0xffffffffffffffffffffffffffffffffffffffff\n      and\n      mul\n      or\n      swap1\n      sstore\n      pop\n        /* \"blockpedia.sol\":346:350  true */\n      0x01\n        /* \"blockpedia.sol\":327:337  novaPagina */\n      dup2\n        /* \"blockpedia.sol\":327:343  novaPagina.ativo */\n      0x00\n      add\n      0x14\n        /* \"blockpedia.sol\":327:350  novaPagina.ativo = true */\n      0x0100\n      exp\n      dup2\n      sload\n      dup2\n      0xff\n      mul\n      not\n      and\n      swap1\n      dup4\n      iszero\n      iszero\n      mul\n      or\n      swap1\n      sstore\n      pop\n        /* \"blockpedia.sol\":381:387  titulo */\n      dup3\n        /* \"blockpedia.sol\":361:371  novaPagina */\n      dup2\n        /* \"blockpedia.sol\":361:378  novaPagina.titulo */\n      0x01\n      add\n        /* \"blockpedia.sol\":361:387  novaPagina.titulo = titulo */\n      swap1\n      dup1\n      mload\n      swap1\n      0x20\n      add\n      swap1\n      tag_17\n      swap3\n      swap2\n      swap1\n      tag_18\n      jump\t// in\n    tag_17:\n      pop\n        /* \"blockpedia.sol\":400:410  novaPagina */\n      dup1\n        /* \"blockpedia.sol\":400:418  novaPagina.versoes */\n      0x02\n      add\n        /* \"blockpedia.sol\":424:458  Versao(msg.sender, true, conteudo) */\n      mload(0x40)\n      dup1\n      0x60\n      add\n      0x40\n      mstore\n      dup1\n        /* \"blockpedia.sol\":431:441  msg.sender */\n      caller\n        /* \"blockpedia.sol\":424:458  Versao(msg.sender, true, conteudo) */\n      0xffffffffffffffffffffffffffffffffffffffff\n      and\n      dup2\n      mstore\n      0x20\n      add\n        /* \"blockpedia.sol\":443:447  true */\n      0x01\n        /* \"blockpedia.sol\":424:458  Versao(msg.sender, true, conteudo) */\n      iszero\n      iszero\n      dup2\n      mstore\n      0x20\n      add\n        /* \"blockpedia.sol\":449:457  conteudo */\n      dup5\n        /* \"blockpedia.sol\":424:458  Versao(msg.sender, true, conteudo) */\n      dup2\n      mstore\n      pop\n        /* \"blockpedia.sol\":400:459  novaPagina.versoes.push(Versao(msg.sender, true, conteudo)) */\n      swap1\n      dup1\n      0x01\n      dup2\n      sload\n      add\n      dup1\n      dup3\n      sstore\n      dup1\n      swap2\n      pop\n      pop\n      0x01\n      swap1\n      sub\n      swap1\n      0x00\n      mstore\n      keccak256(0x00, 0x20)\n      swap1\n      0x02\n      mul\n      add\n      0x00\n      swap1\n      swap2\n      swap1\n      swap2\n      swap1\n      swap2\n      pop\n      0x00\n      dup3\n      add\n      mload\n      dup2\n      0x00\n      add\n      exp(0x0100, 0x00)\n      dup2\n      sload\n      dup2\n      0xffffffffffffffffffffffffffffffffffffffff\n      mul\n      not\n      and\n      swap1\n      dup4\n      0xffffffffffffffffffffffffffffffffffffffff\n      and\n      mul\n      or\n      swap1\n      sstore\n      pop\n      0x20\n      dup3\n      add\n      mload\n      dup2\n      0x00\n      add\n      exp(0x0100, 0x14)\n      dup2\n      sload\n      dup2\n      0xff\n      mul\n      not\n      and\n      swap1\n      dup4\n      iszero\n      iszero\n      mul\n      or\n      swap1\n      sstore\n      pop\n      0x40\n      dup3\n      add\n      mload\n      dup2\n      0x01\n      add\n      swap1\n      dup1\n      mload\n      swap1\n      0x20\n      add\n      swap1\n      tag_20\n      swap3\n      swap2\n      swap1\n      tag_18\n      jump\t// in\n    tag_20:\n      pop\n      pop\n      pop\n        /* \"blockpedia.sol\":149:467  function criarPagina(string memory titulo, string memory conteudo) public {\r... */\n      pop\n      pop\n      pop\n      jump\t// out\n        /* \"blockpedia.sol\":114:137  Pagina[] public paginas */\n    tag_12:\n      0x00\n      dup2\n      dup2\n      sload\n      dup2\n      lt\n      tag_21\n      jumpi\n      0x00\n      dup1\n      revert\n    tag_21:\n      swap1\n      0x00\n      mstore\n      keccak256(0x00, 0x20)\n      swap1\n      0x03\n      mul\n      add\n      0x00\n      swap2\n      pop\n      swap1\n      pop\n      dup1\n      0x00\n      add\n      0x00\n      swap1\n      sload\n      swap1\n      0x0100\n      exp\n      swap1\n      div\n      0xffffffffffffffffffffffffffffffffffffffff\n      and\n      swap1\n      dup1\n      0x00\n      add\n      0x14\n      swap1\n      sload\n      swap1\n      0x0100\n      exp\n      swap1\n      div\n      0xff\n      and\n      swap1\n      dup1\n      0x01\n      add\n      dup1\n      sload\n      tag_23\n      swap1\n      tag_24\n      jump\t// in\n    tag_23:\n      dup1\n      0x1f\n      add\n      0x20\n      dup1\n      swap2\n      div\n      mul\n      0x20\n      add\n      mload(0x40)\n      swap1\n      dup2\n      add\n      0x40\n      mstore\n      dup1\n      swap3\n      swap2\n      swap1\n      dup2\n      dup2\n      mstore\n      0x20\n      add\n      dup3\n      dup1\n      sload\n      tag_25\n      swap1\n      tag_24\n      jump\t// in\n    tag_25:\n      dup1\n      iszero\n      tag_26\n      jumpi\n      dup1\n      0x1f\n      lt\n      tag_27\n      jumpi\n      0x0100\n      dup1\n      dup4\n      sload\n      div\n      mul\n      dup4\n      mstore\n      swap2\n      0x20\n      add\n      swap2\n      jump(tag_26)\n    tag_27:\n      dup3\n      add\n      swap2\n      swap1\n      0x00\n      mstore\n      keccak256(0x00, 0x20)\n      swap1\n    tag_28:\n      dup2\n      sload\n      dup2\n      mstore\n      swap1\n      0x01\n      add\n      swap1\n      0x20\n      add\n      dup1\n      dup4\n      gt\n      tag_28\n      jumpi\n      dup3\n      swap1\n      sub\n      0x1f\n      and\n      dup3\n      add\n      swap2\n    tag_26:\n      pop\n      pop\n      pop\n      pop\n      pop\n      swap1\n      pop\n      dup4\n      jump\t// out\n    tag_18:\n      dup3\n      dup1\n      sload\n      tag_29\n      swap1\n      tag_24\n      jump\t// in\n    tag_29:\n      swap1\n      0x00\n      mstore\n      keccak256(0x00, 0x20)\n      swap1\n      0x1f\n      add\n      0x20\n      swap1\n      div\n      dup2\n      add\n      swap3\n      dup3\n      tag_31\n      jumpi\n      0x00\n      dup6\n      sstore\n      jump(tag_30)\n    tag_31:\n      dup3\n      0x1f\n      lt\n      tag_32\n      jumpi\n      dup1\n      mload\n      not(0xff)\n      and\n      dup4\n      dup1\n      add\n      or\n      dup6\n      sstore\n      jump(tag_30)\n    tag_32:\n      dup3\n      dup1\n      add\n      0x01\n      add\n      dup6\n      sstore\n      dup3\n      iszero\n      tag_30\n      jumpi\n      swap2\n      dup3\n      add\n    tag_33:\n      dup3\n      dup2\n      gt\n      iszero\n      tag_34\n      jumpi\n      dup3\n      mload\n      dup3\n      sstore\n      swap2\n      0x20\n      add\n      swap2\n      swap1\n      0x01\n      add\n      swap1\n      jump(tag_33)\n    tag_34:\n    tag_30:\n      pop\n      swap1\n      pop\n      tag_35\n      swap2\n      swap1\n      tag_36\n      jump\t// in\n    tag_35:\n      pop\n      swap1\n      jump\t// out\n    tag_36:\n    tag_37:\n      dup1\n      dup3\n      gt\n      iszero\n      tag_38\n      jumpi\n      0x00\n      dup2\n      0x00\n      swap1\n      sstore\n      pop\n      0x01\n      add\n      jump(tag_37)\n    tag_38:\n      pop\n      swap1\n      jump\t// out\n        /* \"#utility.yul\":7:351   */\n    tag_40:\n      0x00\n        /* \"#utility.yul\":110:175   */\n      tag_42\n        /* \"#utility.yul\":125:174   */\n      tag_43\n        /* \"#utility.yul\":167:173   */\n      dup5\n        /* \"#utility.yul\":125:174   */\n      tag_44\n      jump\t// in\n    tag_43:\n        /* \"#utility.yul\":110:175   */\n      tag_45\n      jump\t// in\n    tag_42:\n        /* \"#utility.yul\":101:175   */\n      swap1\n      pop\n        /* \"#utility.yul\":198:204   */\n      dup3\n        /* \"#utility.yul\":191:196   */\n      dup2\n        /* \"#utility.yul\":184:205   */\n      mstore\n        /* \"#utility.yul\":236:240   */\n      0x20\n        /* \"#utility.yul\":229:234   */\n      dup2\n        /* \"#utility.yul\":225:241   */\n      add\n        /* \"#utility.yul\":274:277   */\n      dup5\n        /* \"#utility.yul\":265:271   */\n      dup5\n        /* \"#utility.yul\":260:263   */\n      dup5\n        /* \"#utility.yul\":256:272   */\n      add\n        /* \"#utility.yul\":253:278   */\n      gt\n        /* \"#utility.yul\":250:252   */\n      iszero\n      tag_46\n      jumpi\n        /* \"#utility.yul\":291:292   */\n      0x00\n        /* \"#utility.yul\":288:289   */\n      dup1\n        /* \"#utility.yul\":281:293   */\n      revert\n        /* \"#utility.yul\":250:252   */\n    tag_46:\n        /* \"#utility.yul\":304:345   */\n      tag_47\n        /* \"#utility.yul\":338:344   */\n      dup5\n        /* \"#utility.yul\":333:336   */\n      dup3\n        /* \"#utility.yul\":328:331   */\n      dup6\n        /* \"#utility.yul\":304:345   */\n      tag_48\n      jump\t// in\n    tag_47:\n        /* \"#utility.yul\":91:351   */\n      pop\n      swap4\n      swap3\n      pop\n      pop\n      pop\n      jump\t// out\n        /* \"#utility.yul\":371:644   */\n    tag_49:\n      0x00\n        /* \"#utility.yul\":476:479   */\n      dup3\n        /* \"#utility.yul\":469:473   */\n      0x1f\n        /* \"#utility.yul\":461:467   */\n      dup4\n        /* \"#utility.yul\":457:474   */\n      add\n        /* \"#utility.yul\":453:480   */\n      slt\n        /* \"#utility.yul\":443:445   */\n      tag_51\n      jumpi\n        /* \"#utility.yul\":494:495   */\n      0x00\n        /* \"#utility.yul\":491:492   */\n      dup1\n        /* \"#utility.yul\":484:496   */\n      revert\n        /* \"#utility.yul\":443:445   */\n    tag_51:\n        /* \"#utility.yul\":534:540   */\n      dup2\n        /* \"#utility.yul\":521:541   */\n      calldataload\n        /* \"#utility.yul\":559:638   */\n      tag_52\n        /* \"#utility.yul\":634:637   */\n      dup5\n        /* \"#utility.yul\":626:632   */\n      dup3\n        /* \"#utility.yul\":619:623   */\n      0x20\n        /* \"#utility.yul\":611:617   */\n      dup7\n        /* \"#utility.yul\":607:624   */\n      add\n        /* \"#utility.yul\":559:638   */\n      tag_40\n      jump\t// in\n    tag_52:\n        /* \"#utility.yul\":550:638   */\n      swap2\n      pop\n        /* \"#utility.yul\":433:644   */\n      pop\n      swap3\n      swap2\n      pop\n      pop\n      jump\t// out\n        /* \"#utility.yul\":650:789   */\n    tag_53:\n      0x00\n        /* \"#utility.yul\":734:740   */\n      dup2\n        /* \"#utility.yul\":721:741   */\n      calldataload\n        /* \"#utility.yul\":712:741   */\n      swap1\n      pop\n        /* \"#utility.yul\":750:783   */\n      tag_55\n        /* \"#utility.yul\":777:782   */\n      dup2\n        /* \"#utility.yul\":750:783   */\n      tag_56\n      jump\t// in\n    tag_55:\n        /* \"#utility.yul\":702:789   */\n      swap3\n      swap2\n      pop\n      pop\n      jump\t// out\n        /* \"#utility.yul\":795:1428   */\n    tag_7:\n      0x00\n      dup1\n        /* \"#utility.yul\":940:942   */\n      0x40\n        /* \"#utility.yul\":928:937   */\n      dup4\n        /* \"#utility.yul\":919:926   */\n      dup6\n        /* \"#utility.yul\":915:938   */\n      sub\n        /* \"#utility.yul\":911:943   */\n      slt\n        /* \"#utility.yul\":908:910   */\n      iszero\n      tag_58\n      jumpi\n        /* \"#utility.yul\":956:957   */\n      0x00\n        /* \"#utility.yul\":953:954   */\n      dup1\n        /* \"#utility.yul\":946:958   */\n      revert\n        /* \"#utility.yul\":908:910   */\n    tag_58:\n        /* \"#utility.yul\":1027:1028   */\n      0x00\n        /* \"#utility.yul\":1016:1025   */\n      dup4\n        /* \"#utility.yul\":1012:1029   */\n      add\n        /* \"#utility.yul\":999:1030   */\n      calldataload\n        /* \"#utility.yul\":1057:1075   */\n      0xffffffffffffffff\n        /* \"#utility.yul\":1049:1055   */\n      dup2\n        /* \"#utility.yul\":1046:1076   */\n      gt\n        /* \"#utility.yul\":1043:1045   */\n      iszero\n      tag_59\n      jumpi\n        /* \"#utility.yul\":1089:1090   */\n      0x00\n        /* \"#utility.yul\":1086:1087   */\n      dup1\n        /* \"#utility.yul\":1079:1091   */\n      revert\n        /* \"#utility.yul\":1043:1045   */\n    tag_59:\n        /* \"#utility.yul\":1117:1180   */\n      tag_60\n        /* \"#utility.yul\":1172:1179   */\n      dup6\n        /* \"#utility.yul\":1163:1169   */\n      dup3\n        /* \"#utility.yul\":1152:1161   */\n      dup7\n        /* \"#utility.yul\":1148:1170   */\n      add\n        /* \"#utility.yul\":1117:1180   */\n      tag_49\n      jump\t// in\n    tag_60:\n        /* \"#utility.yul\":1107:1180   */\n      swap3\n      pop\n        /* \"#utility.yul\":970:1190   */\n      pop\n        /* \"#utility.yul\":1257:1259   */\n      0x20\n        /* \"#utility.yul\":1246:1255   */\n      dup4\n        /* \"#utility.yul\":1242:1260   */\n      add\n        /* \"#utility.yul\":1229:1261   */\n      calldataload\n        /* \"#utility.yul\":1288:1306   */\n      0xffffffffffffffff\n        /* \"#utility.yul\":1280:1286   */\n      dup2\n        /* \"#utility.yul\":1277:1307   */\n      gt\n        /* \"#utility.yul\":1274:1276   */\n      iszero\n      tag_61\n      jumpi\n        /* \"#utility.yul\":1320:1321   */\n      0x00\n        /* \"#utility.yul\":1317:1318   */\n      dup1\n        /* \"#utility.yul\":1310:1322   */\n      revert\n        /* \"#utility.yul\":1274:1276   */\n    tag_61:\n        /* \"#utility.yul\":1348:1411   */\n      tag_62\n        /* \"#utility.yul\":1403:1410   */\n      dup6\n        /* \"#utility.yul\":1394:1400   */\n      dup3\n        /* \"#utility.yul\":1383:1392   */\n      dup7\n        /* \"#utility.yul\":1379:1401   */\n      add\n        /* \"#utility.yul\":1348:1411   */\n      tag_49\n      jump\t// in\n    tag_62:\n        /* \"#utility.yul\":1338:1411   */\n      swap2\n      pop\n        /* \"#utility.yul\":1200:1421   */\n      pop\n        /* \"#utility.yul\":898:1428   */\n      swap3\n      pop\n      swap3\n      swap1\n      pop\n      jump\t// out\n        /* \"#utility.yul\":1434:1696   */\n    tag_11:\n      0x00\n        /* \"#utility.yul\":1542:1544   */\n      0x20\n        /* \"#utility.yul\":1530:1539   */\n      dup3\n        /* \"#utility.yul\":1521:1528   */\n      dup5\n        /* \"#utility.yul\":1517:1540   */\n      sub\n        /* \"#utility.yul\":1513:1545   */\n      slt\n        /* \"#utility.yul\":1510:1512   */\n      iszero\n      tag_64\n      jumpi\n        /* \"#utility.yul\":1558:1559   */\n      0x00\n        /* \"#utility.yul\":1555:1556   */\n      dup1\n        /* \"#utility.yul\":1548:1560   */\n      revert\n        /* \"#utility.yul\":1510:1512   */\n    tag_64:\n        /* \"#utility.yul\":1601:1602   */\n      0x00\n        /* \"#utility.yul\":1626:1679   */\n      tag_65\n        /* \"#utility.yul\":1671:1678   */\n      dup5\n        /* \"#utility.yul\":1662:1668   */\n      dup3\n        /* \"#utility.yul\":1651:1660   */\n      dup6\n        /* \"#utility.yul\":1647:1669   */\n      add\n        /* \"#utility.yul\":1626:1679   */\n      tag_53\n      jump\t// in\n    tag_65:\n        /* \"#utility.yul\":1616:1679   */\n      swap2\n      pop\n        /* \"#utility.yul\":1572:1689   */\n      pop\n        /* \"#utility.yul\":1500:1696   */\n      swap3\n      swap2\n      pop\n      pop\n      jump\t// out\n        /* \"#utility.yul\":1702:1820   */\n    tag_66:\n        /* \"#utility.yul\":1789:1813   */\n      tag_68\n        /* \"#utility.yul\":1807:1812   */\n      dup2\n        /* \"#utility.yul\":1789:1813   */\n      tag_69\n      jump\t// in\n    tag_68:\n        /* \"#utility.yul\":1784:1787   */\n      dup3\n        /* \"#utility.yul\":1777:1814   */\n      mstore\n        /* \"#utility.yul\":1767:1820   */\n      pop\n      pop\n      jump\t// out\n        /* \"#utility.yul\":1826:1935   */\n    tag_70:\n        /* \"#utility.yul\":1907:1928   */\n      tag_72\n        /* \"#utility.yul\":1922:1927   */\n      dup2\n        /* \"#utility.yul\":1907:1928   */\n      tag_73\n      jump\t// in\n    tag_72:\n        /* \"#utility.yul\":1902:1905   */\n      dup3\n        /* \"#utility.yul\":1895:1929   */\n      mstore\n        /* \"#utility.yul\":1885:1935   */\n      pop\n      pop\n      jump\t// out\n        /* \"#utility.yul\":1941:2305   */\n    tag_74:\n      0x00\n        /* \"#utility.yul\":2057:2096   */\n      tag_76\n        /* \"#utility.yul\":2090:2095   */\n      dup3\n        /* \"#utility.yul\":2057:2096   */\n      tag_77\n      jump\t// in\n    tag_76:\n        /* \"#utility.yul\":2112:2183   */\n      tag_78\n        /* \"#utility.yul\":2176:2182   */\n      dup2\n        /* \"#utility.yul\":2171:2174   */\n      dup6\n        /* \"#utility.yul\":2112:2183   */\n      tag_79\n      jump\t// in\n    tag_78:\n        /* \"#utility.yul\":2105:2183   */\n      swap4\n      pop\n        /* \"#utility.yul\":2192:2244   */\n      tag_80\n        /* \"#utility.yul\":2237:2243   */\n      dup2\n        /* \"#utility.yul\":2232:2235   */\n      dup6\n        /* \"#utility.yul\":2225:2229   */\n      0x20\n        /* \"#utility.yul\":2218:2223   */\n      dup7\n        /* \"#utility.yul\":2214:2230   */\n      add\n        /* \"#utility.yul\":2192:2244   */\n      tag_81\n      jump\t// in\n    tag_80:\n        /* \"#utility.yul\":2269:2298   */\n      tag_82\n        /* \"#utility.yul\":2291:2297   */\n      dup2\n        /* \"#utility.yul\":2269:2298   */\n      tag_83\n      jump\t// in\n    tag_82:\n        /* \"#utility.yul\":2264:2267   */\n      dup5\n        /* \"#utility.yul\":2260:2299   */\n      add\n        /* \"#utility.yul\":2253:2299   */\n      swap2\n      pop\n        /* \"#utility.yul\":2033:2305   */\n      pop\n      swap3\n      swap2\n      pop\n      pop\n      jump\t// out\n        /* \"#utility.yul\":2311:2832   */\n    tag_14:\n      0x00\n        /* \"#utility.yul\":2512:2514   */\n      0x60\n        /* \"#utility.yul\":2501:2510   */\n      dup3\n        /* \"#utility.yul\":2497:2515   */\n      add\n        /* \"#utility.yul\":2489:2515   */\n      swap1\n      pop\n        /* \"#utility.yul\":2525:2596   */\n      tag_85\n        /* \"#utility.yul\":2593:2594   */\n      0x00\n        /* \"#utility.yul\":2582:2591   */\n      dup4\n        /* \"#utility.yul\":2578:2595   */\n      add\n        /* \"#utility.yul\":2569:2575   */\n      dup7\n        /* \"#utility.yul\":2525:2596   */\n      tag_66\n      jump\t// in\n    tag_85:\n        /* \"#utility.yul\":2606:2672   */\n      tag_86\n        /* \"#utility.yul\":2668:2670   */\n      0x20\n        /* \"#utility.yul\":2657:2666   */\n      dup4\n        /* \"#utility.yul\":2653:2671   */\n      add\n        /* \"#utility.yul\":2644:2650   */\n      dup6\n        /* \"#utility.yul\":2606:2672   */\n      tag_70\n      jump\t// in\n    tag_86:\n        /* \"#utility.yul\":2719:2728   */\n      dup2\n        /* \"#utility.yul\":2713:2717   */\n      dup2\n        /* \"#utility.yul\":2709:2729   */\n      sub\n        /* \"#utility.yul\":2704:2706   */\n      0x40\n        /* \"#utility.yul\":2693:2702   */\n      dup4\n        /* \"#utility.yul\":2689:2707   */\n      add\n        /* \"#utility.yul\":2682:2730   */\n      mstore\n        /* \"#utility.yul\":2747:2825   */\n      tag_87\n        /* \"#utility.yul\":2820:2824   */\n      dup2\n        /* \"#utility.yul\":2811:2817   */\n      dup5\n        /* \"#utility.yul\":2747:2825   */\n      tag_74\n      jump\t// in\n    tag_87:\n        /* \"#utility.yul\":2739:2825   */\n      swap1\n      pop\n        /* \"#utility.yul\":2479:2832   */\n      swap5\n      swap4\n      pop\n      pop\n      pop\n      pop\n      jump\t// out\n        /* \"#utility.yul\":2838:3121   */\n    tag_45:\n      0x00\n        /* \"#utility.yul\":2904:2906   */\n      0x40\n        /* \"#utility.yul\":2898:2907   */\n      mload\n        /* \"#utility.yul\":2888:2907   */\n      swap1\n      pop\n        /* \"#utility.yul\":2946:2950   */\n      dup2\n        /* \"#utility.yul\":2938:2944   */\n      dup2\n        /* \"#utility.yul\":2934:2951   */\n      add\n        /* \"#utility.yul\":3053:3059   */\n      dup2\n        /* \"#utility.yul\":3041:3051   */\n      dup2\n        /* \"#utility.yul\":3038:3060   */\n      lt\n        /* \"#utility.yul\":3017:3035   */\n      0xffffffffffffffff\n        /* \"#utility.yul\":3005:3015   */\n      dup3\n        /* \"#utility.yul\":3002:3036   */\n      gt\n        /* \"#utility.yul\":2999:3061   */\n      or\n        /* \"#utility.yul\":2996:2998   */\n      iszero\n      tag_89\n      jumpi\n        /* \"#utility.yul\":3064:3082   */\n      tag_90\n      tag_91\n      jump\t// in\n    tag_90:\n        /* \"#utility.yul\":2996:2998   */\n    tag_89:\n        /* \"#utility.yul\":3104:3114   */\n      dup1\n        /* \"#utility.yul\":3100:3102   */\n      0x40\n        /* \"#utility.yul\":3093:3115   */\n      mstore\n        /* \"#utility.yul\":2878:3121   */\n      pop\n      swap2\n      swap1\n      pop\n      jump\t// out\n        /* \"#utility.yul\":3127:3459   */\n    tag_44:\n      0x00\n        /* \"#utility.yul\":3279:3297   */\n      0xffffffffffffffff\n        /* \"#utility.yul\":3271:3277   */\n      dup3\n        /* \"#utility.yul\":3268:3298   */\n      gt\n        /* \"#utility.yul\":3265:3267   */\n      iszero\n      tag_93\n      jumpi\n        /* \"#utility.yul\":3301:3319   */\n      tag_94\n      tag_91\n      jump\t// in\n    tag_94:\n        /* \"#utility.yul\":3265:3267   */\n    tag_93:\n        /* \"#utility.yul\":3386:3390   */\n      0x1f\n        /* \"#utility.yul\":3382:3391   */\n      not\n        /* \"#utility.yul\":3375:3379   */\n      0x1f\n        /* \"#utility.yul\":3367:3373   */\n      dup4\n        /* \"#utility.yul\":3363:3380   */\n      add\n        /* \"#utility.yul\":3359:3392   */\n      and\n        /* \"#utility.yul\":3351:3392   */\n      swap1\n      pop\n        /* \"#utility.yul\":3447:3451   */\n      0x20\n        /* \"#utility.yul\":3441:3445   */\n      dup2\n        /* \"#utility.yul\":3437:3452   */\n      add\n        /* \"#utility.yul\":3429:3452   */\n      swap1\n      pop\n        /* \"#utility.yul\":3194:3459   */\n      swap2\n      swap1\n      pop\n      jump\t// out\n        /* \"#utility.yul\":3465:3564   */\n    tag_77:\n      0x00\n        /* \"#utility.yul\":3551:3556   */\n      dup2\n        /* \"#utility.yul\":3545:3557   */\n      mload\n        /* \"#utility.yul\":3535:3557   */\n      swap1\n      pop\n        /* \"#utility.yul\":3524:3564   */\n      swap2\n      swap1\n      pop\n      jump\t// out\n        /* \"#utility.yul\":3570:3739   */\n    tag_79:\n      0x00\n        /* \"#utility.yul\":3688:3694   */\n      dup3\n        /* \"#utility.yul\":3683:3686   */\n      dup3\n        /* \"#utility.yul\":3676:3695   */\n      mstore\n        /* \"#utility.yul\":3728:3732   */\n      0x20\n        /* \"#utility.yul\":3723:3726   */\n      dup3\n        /* \"#utility.yul\":3719:3733   */\n      add\n        /* \"#utility.yul\":3704:3733   */\n      swap1\n      pop\n        /* \"#utility.yul\":3666:3739   */\n      swap3\n      swap2\n      pop\n      pop\n      jump\t// out\n        /* \"#utility.yul\":3745:3841   */\n    tag_69:\n      0x00\n        /* \"#utility.yul\":3811:3835   */\n      tag_98\n        /* \"#utility.yul\":3829:3834   */\n      dup3\n        /* \"#utility.yul\":3811:3835   */\n      tag_99\n      jump\t// in\n    tag_98:\n        /* \"#utility.yul\":3800:3835   */\n      swap1\n      pop\n        /* \"#utility.yul\":3790:3841   */\n      swap2\n      swap1\n      pop\n      jump\t// out\n        /* \"#utility.yul\":3847:3937   */\n    tag_73:\n      0x00\n        /* \"#utility.yul\":3924:3929   */\n      dup2\n        /* \"#utility.yul\":3917:3930   */\n      iszero\n        /* \"#utility.yul\":3910:3931   */\n      iszero\n        /* \"#utility.yul\":3899:3931   */\n      swap1\n      pop\n        /* \"#utility.yul\":3889:3937   */\n      swap2\n      swap1\n      pop\n      jump\t// out\n        /* \"#utility.yul\":3943:4069   */\n    tag_99:\n      0x00\n        /* \"#utility.yul\":4020:4062   */\n      0xffffffffffffffffffffffffffffffffffffffff\n        /* \"#utility.yul\":4013:4018   */\n      dup3\n        /* \"#utility.yul\":4009:4063   */\n      and\n        /* \"#utility.yul\":3998:4063   */\n      swap1\n      pop\n        /* \"#utility.yul\":3988:4069   */\n      swap2\n      swap1\n      pop\n      jump\t// out\n        /* \"#utility.yul\":4075:4152   */\n    tag_102:\n      0x00\n        /* \"#utility.yul\":4141:4146   */\n      dup2\n        /* \"#utility.yul\":4130:4146   */\n      swap1\n      pop\n        /* \"#utility.yul\":4120:4152   */\n      swap2\n      swap1\n      pop\n      jump\t// out\n        /* \"#utility.yul\":4158:4312   */\n    tag_48:\n        /* \"#utility.yul\":4242:4248   */\n      dup3\n        /* \"#utility.yul\":4237:4240   */\n      dup2\n        /* \"#utility.yul\":4232:4235   */\n      dup4\n        /* \"#utility.yul\":4219:4249   */\n      calldatacopy\n        /* \"#utility.yul\":4304:4305   */\n      0x00\n        /* \"#utility.yul\":4295:4301   */\n      dup4\n        /* \"#utility.yul\":4290:4293   */\n      dup4\n        /* \"#utility.yul\":4286:4302   */\n      add\n        /* \"#utility.yul\":4279:4306   */\n      mstore\n        /* \"#utility.yul\":4209:4312   */\n      pop\n      pop\n      pop\n      jump\t// out\n        /* \"#utility.yul\":4318:4625   */\n    tag_81:\n        /* \"#utility.yul\":4386:4387   */\n      0x00\n        /* \"#utility.yul\":4396:4509   */\n    tag_106:\n        /* \"#utility.yul\":4410:4416   */\n      dup4\n        /* \"#utility.yul\":4407:4408   */\n      dup2\n        /* \"#utility.yul\":4404:4417   */\n      lt\n        /* \"#utility.yul\":4396:4509   */\n      iszero\n      tag_108\n      jumpi\n        /* \"#utility.yul\":4495:4496   */\n      dup1\n        /* \"#utility.yul\":4490:4493   */\n      dup3\n        /* \"#utility.yul\":4486:4497   */\n      add\n        /* \"#utility.yul\":4480:4498   */\n      mload\n        /* \"#utility.yul\":4476:4477   */\n      dup2\n        /* \"#utility.yul\":4471:4474   */\n      dup5\n        /* \"#utility.yul\":4467:4478   */\n      add\n        /* \"#utility.yul\":4460:4499   */\n      mstore\n        /* \"#utility.yul\":4432:4434   */\n      0x20\n        /* \"#utility.yul\":4429:4430   */\n      dup2\n        /* \"#utility.yul\":4425:4435   */\n      add\n        /* \"#utility.yul\":4420:4435   */\n      swap1\n      pop\n        /* \"#utility.yul\":4396:4509   */\n      jump(tag_106)\n    tag_108:\n        /* \"#utility.yul\":4527:4533   */\n      dup4\n        /* \"#utility.yul\":4524:4525   */\n      dup2\n        /* \"#utility.yul\":4521:4534   */\n      gt\n        /* \"#utility.yul\":4518:4520   */\n      iszero\n      tag_109\n      jumpi\n        /* \"#utility.yul\":4607:4608   */\n      0x00\n        /* \"#utility.yul\":4598:4604   */\n      dup5\n        /* \"#utility.yul\":4593:4596   */\n      dup5\n        /* \"#utility.yul\":4589:4605   */\n      add\n        /* \"#utility.yul\":4582:4609   */\n      mstore\n        /* \"#utility.yul\":4518:4520   */\n    tag_109:\n        /* \"#utility.yul\":4367:4625   */\n      pop\n      pop\n      pop\n      pop\n      jump\t// out\n        /* \"#utility.yul\":4631:4951   */\n    tag_24:\n      0x00\n        /* \"#utility.yul\":4712:4713   */\n      0x02\n        /* \"#utility.yul\":4706:4710   */\n      dup3\n        /* \"#utility.yul\":4702:4714   */\n      div\n        /* \"#utility.yul\":4692:4714   */\n      swap1\n      pop\n        /* \"#utility.yul\":4759:4760   */\n      0x01\n        /* \"#utility.yul\":4753:4757   */\n      dup3\n        /* \"#utility.yul\":4749:4761   */\n      and\n        /* \"#utility.yul\":4780:4798   */\n      dup1\n        /* \"#utility.yul\":4770:4772   */\n      tag_111\n      jumpi\n        /* \"#utility.yul\":4836:4840   */\n      0x7f\n        /* \"#utility.yul\":4828:4834   */\n      dup3\n        /* \"#utility.yul\":4824:4841   */\n      and\n        /* \"#utility.yul\":4814:4841   */\n      swap2\n      pop\n        /* \"#utility.yul\":4770:4772   */\n    tag_111:\n        /* \"#utility.yul\":4898:4900   */\n      0x20\n        /* \"#utility.yul\":4890:4896   */\n      dup3\n        /* \"#utility.yul\":4887:4901   */\n      lt\n        /* \"#utility.yul\":4867:4885   */\n      dup2\n        /* \"#utility.yul\":4864:4902   */\n      eq\n        /* \"#utility.yul\":4861:4863   */\n      iszero\n      tag_112\n      jumpi\n        /* \"#utility.yul\":4917:4935   */\n      tag_113\n      tag_114\n      jump\t// in\n    tag_113:\n        /* \"#utility.yul\":4861:4863   */\n    tag_112:\n        /* \"#utility.yul\":4682:4951   */\n      pop\n      swap2\n      swap1\n      pop\n      jump\t// out\n        /* \"#utility.yul\":4957:5137   */\n    tag_114:\n        /* \"#utility.yul\":5005:5082   */\n      0x4e487b7100000000000000000000000000000000000000000000000000000000\n        /* \"#utility.yul\":5002:5003   */\n      0x00\n        /* \"#utility.yul\":4995:5083   */\n      mstore\n        /* \"#utility.yul\":5102:5106   */\n      0x22\n        /* \"#utility.yul\":5099:5100   */\n      0x04\n        /* \"#utility.yul\":5092:5107   */\n      mstore\n        /* \"#utility.yul\":5126:5130   */\n      0x24\n        /* \"#utility.yul\":5123:5124   */\n      0x00\n        /* \"#utility.yul\":5116:5131   */\n      revert\n        /* \"#utility.yul\":5143:5323   */\n    tag_91:\n        /* \"#utility.yul\":5191:5268   */\n      0x4e487b7100000000000000000000000000000000000000000000000000000000\n        /* \"#utility.yul\":5188:5189   */\n      0x00\n        /* \"#utility.yul\":5181:5269   */\n      mstore\n        /* \"#utility.yul\":5288:5292   */\n      0x41\n        /* \"#utility.yul\":5285:5286   */\n      0x04\n        /* \"#utility.yul\":5278:5293   */\n      mstore\n        /* \"#utility.yul\":5312:5316   */\n      0x24\n        /* \"#utility.yul\":5309:5310   */\n      0x00\n        /* \"#utility.yul\":5302:5317   */\n      revert\n        /* \"#utility.yul\":5329:5431   */\n    tag_83:\n      0x00\n        /* \"#utility.yul\":5421:5423   */\n      0x1f\n        /* \"#utility.yul\":5417:5424   */\n      not\n        /* \"#utility.yul\":5412:5414   */\n      0x1f\n        /* \"#utility.yul\":5405:5410   */\n      dup4\n        /* \"#utility.yul\":5401:5415   */\n      add\n        /* \"#utility.yul\":5397:5425   */\n      and\n        /* \"#utility.yul\":5387:5425   */\n      swap1\n      pop\n        /* \"#utility.yul\":5377:5431   */\n      swap2\n      swap1\n      pop\n      jump\t// out\n        /* \"#utility.yul\":5437:5559   */\n    tag_56:\n        /* \"#utility.yul\":5510:5534   */\n      tag_119\n        /* \"#utility.yul\":5528:5533   */\n      dup2\n        /* \"#utility.yul\":5510:5534   */\n      tag_102\n      jump\t// in\n    tag_119:\n        /* \"#utility.yul\":5503:5508   */\n      dup2\n        /* \"#utility.yul\":5500:5535   */\n      eq\n        /* \"#utility.yul\":5490:5492   */\n      tag_120\n      jumpi\n        /* \"#utility.yul\":5549:5550   */\n      0x00\n        /* \"#utility.yul\":5546:5547   */\n      dup1\n        /* \"#utility.yul\":5539:5551   */\n      revert\n        /* \"#utility.yul\":5490:5492   */\n    tag_120:\n        /* \"#utility.yul\":5480:5559   */\n      pop\n      jump\t// out\n\n    auxdata: 0xa264697066735822122076ec1d07989db0465cbcb88098198bcba739b84fabc9c499e1be973ce8d0a93e64736f6c63430008000033\n}\n",
				"bytecode": {
					"linkReferences": {},
					"object": "608060405234801561001057600080fd5b5061073f806100206000396000f3fe608060405234801561001057600080fd5b50600436106100365760003560e01c80631c18379a1461003b578063e7d4296a14610057575b600080fd5b61005560048036038101906100509190610420565b610089565b005b610071600480360381019061006c919061048c565b610211565b6040516100809392919061050c565b60405180910390f35b6000806001816001815401808255809150500390600052602060002090600302019050338160000160006101000a81548173ffffffffffffffffffffffffffffffffffffffff021916908373ffffffffffffffffffffffffffffffffffffffff16021790555060018160000160146101000a81548160ff02191690831515021790555082816001019080519060200190610124929190610300565b508060020160405180606001604052803373ffffffffffffffffffffffffffffffffffffffff16815260200160011515815260200184815250908060018154018082558091505060019003906000526020600020906002020160009091909190915060008201518160000160006101000a81548173ffffffffffffffffffffffffffffffffffffffff021916908373ffffffffffffffffffffffffffffffffffffffff16021790555060208201518160000160146101000a81548160ff0219169083151502179055506040820151816001019080519060200190610209929190610300565b505050505050565b6000818154811061022157600080fd5b90600052602060002090600302016000915090508060000160009054906101000a900473ffffffffffffffffffffffffffffffffffffffff16908060000160149054906101000a900460ff169080600101805461027d90610651565b80601f01602080910402602001604051908101604052809291908181526020018280546102a990610651565b80156102f65780601f106102cb576101008083540402835291602001916102f6565b820191906000526020600020905b8154815290600101906020018083116102d957829003601f168201915b5050505050905083565b82805461030c90610651565b90600052602060002090601f01602090048101928261032e5760008555610375565b82601f1061034757805160ff1916838001178555610375565b82800160010185558215610375579182015b82811115610374578251825591602001919060010190610359565b5b5090506103829190610386565b5090565b5b8082111561039f576000816000905550600101610387565b5090565b60006103b66103b18461057b565b61054a565b9050828152602081018484840111156103ce57600080fd5b6103d984828561060f565b509392505050565b600082601f8301126103f257600080fd5b81356104028482602086016103a3565b91505092915050565b60008135905061041a816106f2565b92915050565b6000806040838503121561043357600080fd5b600083013567ffffffffffffffff81111561044d57600080fd5b610459858286016103e1565b925050602083013567ffffffffffffffff81111561047657600080fd5b610482858286016103e1565b9150509250929050565b60006020828403121561049e57600080fd5b60006104ac8482850161040b565b91505092915050565b6104be816105c7565b82525050565b6104cd816105d9565b82525050565b60006104de826105ab565b6104e881856105b6565b93506104f881856020860161061e565b610501816106e1565b840191505092915050565b600060608201905061052160008301866104b5565b61052e60208301856104c4565b818103604083015261054081846104d3565b9050949350505050565b6000604051905081810181811067ffffffffffffffff82111715610571576105706106b2565b5b8060405250919050565b600067ffffffffffffffff821115610596576105956106b2565b5b601f19601f8301169050602081019050919050565b600081519050919050565b600082825260208201905092915050565b60006105d2826105e5565b9050919050565b60008115159050919050565b600073ffffffffffffffffffffffffffffffffffffffff82169050919050565b6000819050919050565b82818337600083830152505050565b60005b8381101561063c578082015181840152602081019050610621565b8381111561064b576000848401525b50505050565b6000600282049050600182168061066957607f821691505b6020821081141561067d5761067c610683565b5b50919050565b7f4e487b7100000000000000000000000000000000000000000000000000000000600052602260045260246000fd5b7f4e487b7100000000000000000000000000000000000000000000000000000000600052604160045260246000fd5b6000601f19601f8301169050919050565b6106fb81610605565b811461070657600080fd5b5056fea264697066735822122076ec1d07989db0465cbcb88098198bcba739b84fabc9c499e1be973ce8d0a93e64736f6c63430008000033",
					"opcodes": "PUSH1 0x80 PUSH1 0x40 MSTORE CALLVALUE DUP1 ISZERO PUSH2 0x10 JUMPI PUSH1 0x0 DUP1 REVERT JUMPDEST POP PUSH2 0x73F DUP1 PUSH2 0x20 PUSH1 0x0 CODECOPY PUSH1 0x0 RETURN INVALID PUSH1 0x80 PUSH1 0x40 MSTORE CALLVALUE DUP1 ISZERO PUSH2 0x10 JUMPI PUSH1 0x0 DUP1 REVERT JUMPDEST POP PUSH1 0x4 CALLDATASIZE LT PUSH2 0x36 JUMPI PUSH1 0x0 CALLDATALOAD PUSH1 0xE0 SHR DUP1 PUSH4 0x1C18379A EQ PUSH2 0x3B JUMPI DUP1 PUSH4 0xE7D4296A EQ PUSH2 0x57 JUMPI JUMPDEST PUSH1 0x0 DUP1 REVERT JUMPDEST PUSH2 0x55 PUSH1 0x4 DUP1 CALLDATASIZE SUB DUP2 ADD SWAP1 PUSH2 0x50 SWAP2 SWAP1 PUSH2 0x420 JUMP JUMPDEST PUSH2 0x89 JUMP JUMPDEST STOP JUMPDEST PUSH2 0x71 PUSH1 0x4 DUP1 CALLDATASIZE SUB DUP2 ADD SWAP1 PUSH2 0x6C SWAP2 SWAP1 PUSH2 0x48C JUMP JUMPDEST PUSH2 0x211 JUMP JUMPDEST PUSH1 0x40 MLOAD PUSH2 0x80 SWAP4 SWAP3 SWAP2 SWAP1 PUSH2 0x50C JUMP JUMPDEST PUSH1 0x40 MLOAD DUP1 SWAP2 SUB SWAP1 RETURN JUMPDEST PUSH1 0x0 DUP1 PUSH1 0x1 DUP2 PUSH1 0x1 DUP2 SLOAD ADD DUP1 DUP3 SSTORE DUP1 SWAP2 POP POP SUB SWAP1 PUSH1 0x0 MSTORE PUSH1 0x20 PUSH1 0x0 KECCAK256 SWAP1 PUSH1 0x3 MUL ADD SWAP1 POP CALLER DUP2 PUSH1 0x0 ADD PUSH1 0x0 PUSH2 0x100 EXP DUP2 SLOAD DUP2 PUSH20 0xFFFFFFFFFFFFFFFFFFFFFFFFFFFFFFFFFFFFFFFF MUL NOT AND SWAP1 DUP4 PUSH20 0xFFFFFFFFFFFFFFFFFFFFFFFFFFFFFFFFFFFFFFFF AND MUL OR SWAP1 SSTORE POP PUSH1 0x1 DUP2 PUSH1 0x0 ADD PUSH1 0x14 PUSH2 0x100 EXP DUP2 SLOAD DUP2 PUSH1 0xFF MUL NOT AND SWAP1 DUP4 ISZERO ISZERO MUL OR SWAP1 SSTORE POP DUP3 DUP2 PUSH1 0x1 ADD SWAP1 DUP1 MLOAD SWAP1 PUSH1 0x20 ADD SWAP1 PUSH2 0x124 SWAP3 SWAP2 SWAP1 PUSH2 0x300 JUMP JUMPDEST POP DUP1 PUSH1 0x2 ADD PUSH1 0x40 MLOAD DUP1 PUSH1 0x60 ADD PUSH1 0x40 MSTORE DUP1 CALLER PUSH20 0xFFFFFFFFFFFFFFFFFFFFFFFFFFFFFFFFFFFFFFFF AND DUP2 MSTORE PUSH1 0x20 ADD PUSH1 0x1 ISZERO ISZERO DUP2 MSTORE PUSH1 0x20 ADD DUP5 DUP2 MSTORE POP SWAP1 DUP1 PUSH1 0x1 DUP2 SLOAD ADD DUP1 DUP3 SSTORE DUP1 SWAP2 POP POP PUSH1 0x1 SWAP1 SUB SWAP1 PUSH1 0x0 MSTORE PUSH1 0x20 PUSH1 0x0 KECCAK256 SWAP1 PUSH1 0x2 MUL ADD PUSH1 0x0 SWAP1 SWAP2 SWAP1 SWAP2 SWAP1 SWAP2 POP PUSH1 0x0 DUP3 ADD MLOAD DUP2 PUSH1 0x0 ADD PUSH1 0x0 PUSH2 0x100 EXP DUP2 SLOAD DUP2 PUSH20 0xFFFFFFFFFFFFFFFFFFFFFFFFFFFFFFFFFFFFFFFF MUL NOT AND SWAP1 DUP4 PUSH20 0xFFFFFFFFFFFFFFFFFFFFFFFFFFFFFFFFFFFFFFFF AND MUL OR SWAP1 SSTORE POP PUSH1 0x20 DUP3 ADD MLOAD DUP2 PUSH1 0x0 ADD PUSH1 0x14 PUSH2 0x100 EXP DUP2 SLOAD DUP2 PUSH1 0xFF MUL NOT AND SWAP1 DUP4 ISZERO ISZERO MUL OR SWAP1 SSTORE POP PUSH1 0x40 DUP3 ADD MLOAD DUP2 PUSH1 0x1 ADD SWAP1 DUP1 MLOAD SWAP1 PUSH1 0x20 ADD SWAP1 PUSH2 0x209 SWAP3 SWAP2 SWAP1 PUSH2 0x300 JUMP JUMPDEST POP POP POP POP POP POP JUMP JUMPDEST PUSH1 0x0 DUP2 DUP2 SLOAD DUP2 LT PUSH2 0x221 JUMPI PUSH1 0x0 DUP1 REVERT JUMPDEST SWAP1 PUSH1 0x0 MSTORE PUSH1 0x20 PUSH1 0x0 KECCAK256 SWAP1 PUSH1 0x3 MUL ADD PUSH1 0x0 SWAP2 POP SWAP1 POP DUP1 PUSH1 0x0 ADD PUSH1 0x0 SWAP1 SLOAD SWAP1 PUSH2 0x100 EXP SWAP1 DIV PUSH20 0xFFFFFFFFFFFFFFFFFFFFFFFFFFFFFFFFFFFFFFFF AND SWAP1 DUP1 PUSH1 0x0 ADD PUSH1 0x14 SWAP1 SLOAD SWAP1 PUSH2 0x100 EXP SWAP1 DIV PUSH1 0xFF AND SWAP1 DUP1 PUSH1 0x1 ADD DUP1 SLOAD PUSH2 0x27D SWAP1 PUSH2 0x651 JUMP JUMPDEST DUP1 PUSH1 0x1F ADD PUSH1 0x20 DUP1 SWAP2 DIV MUL PUSH1 0x20 ADD PUSH1 0x40 MLOAD SWAP1 DUP2 ADD PUSH1 0x40 MSTORE DUP1 SWAP3 SWAP2 SWAP1 DUP2 DUP2 MSTORE PUSH1 0x20 ADD DUP3 DUP1 SLOAD PUSH2 0x2A9 SWAP1 PUSH2 0x651 JUMP JUMPDEST DUP1 ISZERO PUSH2 0x2F6 JUMPI DUP1 PUSH1 0x1F LT PUSH2 0x2CB JUMPI PUSH2 0x100 DUP1 DUP4 SLOAD DIV MUL DUP4 MSTORE SWAP2 PUSH1 0x20 ADD SWAP2 PUSH2 0x2F6 JUMP JUMPDEST DUP3 ADD SWAP2 SWAP1 PUSH1 0x0 MSTORE PUSH1 0x20 PUSH1 0x0 KECCAK256 SWAP1 JUMPDEST DUP2 SLOAD DUP2 MSTORE SWAP1 PUSH1 0x1 ADD SWAP1 PUSH1 0x20 ADD DUP1 DUP4 GT PUSH2 0x2D9 JUMPI DUP3 SWAP1 SUB PUSH1 0x1F AND DUP3 ADD SWAP2 JUMPDEST POP POP POP POP POP SWAP1 POP DUP4 JUMP JUMPDEST DUP3 DUP1 SLOAD PUSH2 0x30C SWAP1 PUSH2 0x651 JUMP JUMPDEST SWAP1 PUSH1 0x0 MSTORE PUSH1 0x20 PUSH1 0x0 KECCAK256 SWAP1 PUSH1 0x1F ADD PUSH1 0x20 SWAP1 DIV DUP2 ADD SWAP3 DUP3 PUSH2 0x32E JUMPI PUSH1 0x0 DUP6 SSTORE PUSH2 0x375 JUMP JUMPDEST DUP3 PUSH1 0x1F LT PUSH2 0x347 JUMPI DUP1 MLOAD PUSH1 0xFF NOT AND DUP4 DUP1 ADD OR DUP6 SSTORE PUSH2 0x375 JUMP JUMPDEST DUP3 DUP1 ADD PUSH1 0x1 ADD DUP6 SSTORE DUP3 ISZERO PUSH2 0x375 JUMPI SWAP2 DUP3 ADD JUMPDEST DUP3 DUP2 GT ISZERO PUSH2 0x374 JUMPI DUP3 MLOAD DUP3 SSTORE SWAP2 PUSH1 0x20 ADD SWAP2 SWAP1 PUSH1 0x1 ADD SWAP1 PUSH2 0x359 JUMP JUMPDEST JUMPDEST POP SWAP1 POP PUSH2 0x382 SWAP2 SWAP1 PUSH2 0x386 JUMP JUMPDEST POP SWAP1 JUMP JUMPDEST JUMPDEST DUP1 DUP3 GT ISZERO PUSH2 0x39F JUMPI PUSH1 0x0 DUP2 PUSH1 0x0 SWAP1 SSTORE POP PUSH1 0x1 ADD PUSH2 0x387 JUMP JUMPDEST POP SWAP1 JUMP JUMPDEST PUSH1 0x0 PUSH2 0x3B6 PUSH2 0x3B1 DUP5 PUSH2 0x57B JUMP JUMPDEST PUSH2 0x54A JUMP JUMPDEST SWAP1 POP DUP3 DUP2 MSTORE PUSH1 0x20 DUP2 ADD DUP5 DUP5 DUP5 ADD GT ISZERO PUSH2 0x3CE JUMPI PUSH1 0x0 DUP1 REVERT JUMPDEST PUSH2 0x3D9 DUP5 DUP3 DUP6 PUSH2 0x60F JUMP JUMPDEST POP SWAP4 SWAP3 POP POP POP JUMP JUMPDEST PUSH1 0x0 DUP3 PUSH1 0x1F DUP4 ADD SLT PUSH2 0x3F2 JUMPI PUSH1 0x0 DUP1 REVERT JUMPDEST DUP2 CALLDATALOAD PUSH2 0x402 DUP5 DUP3 PUSH1 0x20 DUP7 ADD PUSH2 0x3A3 JUMP JUMPDEST SWAP2 POP POP SWAP3 SWAP2 POP POP JUMP JUMPDEST PUSH1 0x0 DUP2 CALLDATALOAD SWAP1 POP PUSH2 0x41A DUP2 PUSH2 0x6F2 JUMP JUMPDEST SWAP3 SWAP2 POP POP JUMP JUMPDEST PUSH1 0x0 DUP1 PUSH1 0x40 DUP4 DUP6 SUB SLT ISZERO PUSH2 0x433 JUMPI PUSH1 0x0 DUP1 REVERT JUMPDEST PUSH1 0x0 DUP4 ADD CALLDATALOAD PUSH8 0xFFFFFFFFFFFFFFFF DUP2 GT ISZERO PUSH2 0x44D JUMPI PUSH1 0x0 DUP1 REVERT JUMPDEST PUSH2 0x459 DUP6 DUP3 DUP7 ADD PUSH2 0x3E1 JUMP JUMPDEST SWAP3 POP POP PUSH1 0x20 DUP4 ADD CALLDATALOAD PUSH8 0xFFFFFFFFFFFFFFFF DUP2 GT ISZERO PUSH2 0x476 JUMPI PUSH1 0x0 DUP1 REVERT JUMPDEST PUSH2 0x482 DUP6 DUP3 DUP7 ADD PUSH2 0x3E1 JUMP JUMPDEST SWAP2 POP POP SWAP3 POP SWAP3 SWAP1 POP JUMP JUMPDEST PUSH1 0x0 PUSH1 0x20 DUP3 DUP5 SUB SLT ISZERO PUSH2 0x49E JUMPI PUSH1 0x0 DUP1 REVERT JUMPDEST PUSH1 0x0 PUSH2 0x4AC DUP5 DUP3 DUP6 ADD PUSH2 0x40B JUMP JUMPDEST SWAP2 POP POP SWAP3 SWAP2 POP POP JUMP JUMPDEST PUSH2 0x4BE DUP2 PUSH2 0x5C7 JUMP JUMPDEST DUP3 MSTORE POP POP JUMP JUMPDEST PUSH2 0x4CD DUP2 PUSH2 0x5D9 JUMP JUMPDEST DUP3 MSTORE POP POP JUMP JUMPDEST PUSH1 0x0 PUSH2 0x4DE DUP3 PUSH2 0x5AB JUMP JUMPDEST PUSH2 0x4E8 DUP2 DUP6 PUSH2 0x5B6 JUMP JUMPDEST SWAP4 POP PUSH2 0x4F8 DUP2 DUP6 PUSH1 0x20 DUP7 ADD PUSH2 0x61E JUMP JUMPDEST PUSH2 0x501 DUP2 PUSH2 0x6E1 JUMP JUMPDEST DUP5 ADD SWAP2 POP POP SWAP3 SWAP2 POP POP JUMP JUMPDEST PUSH1 0x0 PUSH1 0x60 DUP3 ADD SWAP1 POP PUSH2 0x521 PUSH1 0x0 DUP4 ADD DUP7 PUSH2 0x4B5 JUMP JUMPDEST PUSH2 0x52E PUSH1 0x20 DUP4 ADD DUP6 PUSH2 0x4C4 JUMP JUMPDEST DUP2 DUP2 SUB PUSH1 0x40 DUP4 ADD MSTORE PUSH2 0x540 DUP2 DUP5 PUSH2 0x4D3 JUMP JUMPDEST SWAP1 POP SWAP5 SWAP4 POP POP POP POP JUMP JUMPDEST PUSH1 0x0 PUSH1 0x40 MLOAD SWAP1 POP DUP2 DUP2 ADD DUP2 DUP2 LT PUSH8 0xFFFFFFFFFFFFFFFF DUP3 GT OR ISZERO PUSH2 0x571 JUMPI PUSH2 0x570 PUSH2 0x6B2 JUMP JUMPDEST JUMPDEST DUP1 PUSH1 0x40 MSTORE POP SWAP2 SWAP1 POP JUMP JUMPDEST PUSH1 0x0 PUSH8 0xFFFFFFFFFFFFFFFF DUP3 GT ISZERO PUSH2 0x596 JUMPI PUSH2 0x595 PUSH2 0x6B2 JUMP JUMPDEST JUMPDEST PUSH1 0x1F NOT PUSH1 0x1F DUP4 ADD AND SWAP1 POP PUSH1 0x20 DUP2 ADD SWAP1 POP SWAP2 SWAP1 POP JUMP JUMPDEST PUSH1 0x0 DUP2 MLOAD SWAP1 POP SWAP2 SWAP1 POP JUMP JUMPDEST PUSH1 0x0 DUP3 DUP3 MSTORE PUSH1 0x20 DUP3 ADD SWAP1 POP SWAP3 SWAP2 POP POP JUMP JUMPDEST PUSH1 0x0 PUSH2 0x5D2 DUP3 PUSH2 0x5E5 JUMP JUMPDEST SWAP1 POP SWAP2 SWAP1 POP JUMP JUMPDEST PUSH1 0x0 DUP2 ISZERO ISZERO SWAP1 POP SWAP2 SWAP1 POP JUMP JUMPDEST PUSH1 0x0 PUSH20 0xFFFFFFFFFFFFFFFFFFFFFFFFFFFFFFFFFFFFFFFF DUP3 AND SWAP1 POP SWAP2 SWAP1 POP JUMP JUMPDEST PUSH1 0x0 DUP2 SWAP1 POP SWAP2 SWAP1 POP JUMP JUMPDEST DUP3 DUP2 DUP4 CALLDATACOPY PUSH1 0x0 DUP4 DUP4 ADD MSTORE POP POP POP JUMP JUMPDEST PUSH1 0x0 JUMPDEST DUP4 DUP2 LT ISZERO PUSH2 0x63C JUMPI DUP1 DUP3 ADD MLOAD DUP2 DUP5 ADD MSTORE PUSH1 0x20 DUP2 ADD SWAP1 POP PUSH2 0x621 JUMP JUMPDEST DUP4 DUP2 GT ISZERO PUSH2 0x64B JUMPI PUSH1 0x0 DUP5 DUP5 ADD MSTORE JUMPDEST POP POP POP POP JUMP JUMPDEST PUSH1 0x0 PUSH1 0x2 DUP3 DIV SWAP1 POP PUSH1 0x1 DUP3 AND DUP1 PUSH2 0x669 JUMPI PUSH1 0x7F DUP3 AND SWAP2 POP JUMPDEST PUSH1 0x20 DUP3 LT DUP2 EQ ISZERO PUSH2 0x67D JUMPI PUSH2 0x67C PUSH2 0x683 JUMP JUMPDEST JUMPDEST POP SWAP2 SWAP1 POP JUMP JUMPDEST PUSH32 0x4E487B7100000000000000000000000000000000000000000000000000000000 PUSH1 0x0 MSTORE PUSH1 0x22 PUSH1 0x4 MSTORE PUSH1 0x24 PUSH1 0x0 REVERT JUMPDEST PUSH32 0x4E487B7100000000000000000000000000000000000000000000000000000000 PUSH1 0x0 MSTORE PUSH1 0x41 PUSH1 0x4 MSTORE PUSH1 0x24 PUSH1 0x0 REVERT JUMPDEST PUSH1 0x0 PUSH1 0x1F NOT PUSH1 0x1F DUP4 ADD AND SWAP1 POP SWAP2 SWAP1 POP JUMP JUMPDEST PUSH2 0x6FB DUP2 PUSH2 0x605 JUMP JUMPDEST DUP2 EQ PUSH2 0x706 JUMPI PUSH1 0x0 DUP1 REVERT JUMPDEST POP JUMP INVALID LOG2 PUSH5 0x6970667358 0x22 SLT KECCAK256 PUSH23 0xEC1D07989DB0465CBCB88098198BCBA739B84FABC9C499 0xE1 0xBE SWAP8 EXTCODECOPY 0xE8 0xD0 0xA9 RETURNDATACOPY PUSH5 0x736F6C6343 STOP ADDMOD STOP STOP CALLER "
				},
				"gasEstimates": {
					"creation": {
						"codeDepositCost": "371000",
						"executionCost": "405",
						"totalCost": "371405"
					},
					"external": {
						"criarPagina(string,string)": "infinite",
						"paginas(uint256)": "infinite"
					}
				},
				"methodIdentifiers": {
					"criarPagina(string,string)": "1c18379a",
					"paginas(uint256)": "e7d4296a"
				}
			},
			"storageLayout": {
				"storage": [
					{
						"astId": 6,
						"contract": "blockpedia.sol:Blockpedia",
						"label": "paginas",
						"offset": 0,
						"slot": "0",
						"type": "t_array(t_struct(Pagina)68_storage)dyn_storage"
					}
				],
				"types": {
					"t_address": {
						"encoding": "inplace",
						"label": "address",
						"numberOfBytes": "20"
					},
					"t_array(t_struct(Pagina)68_storage)dyn_storage": {
						"base": "t_struct(Pagina)68_storage",
						"encoding": "dynamic_array",
						"label": "struct Pagina[]",
						"numberOfBytes": "32"
					},
					"t_array(t_struct(Versao)77_storage)dyn_storage": {
						"base": "t_struct(Versao)77_storage",
						"encoding": "dynamic_array",
						"label": "struct Versao[]",
						"numberOfBytes": "32"
					},
					"t_bool": {
						"encoding": "inplace",
						"label": "bool",
						"numberOfBytes": "1"
					},
					"t_string_storage": {
						"encoding": "bytes",
						"label": "string",
						"numberOfBytes": "32"
					},
					"t_struct(Pagina)68_storage": {
						"encoding": "inplace",
						"label": "struct Pagina",
						"members": [
							{
								"astId": 59,
								"contract": "blockpedia.sol:Blockpedia",
								"label": "autor",
								"offset": 0,
								"slot": "0",
								"type": "t_address"
							},
							{
								"astId": 61,
								"contract": "blockpedia.sol:Blockpedia",
								"label": "ativo",
								"offset": 20,
								"slot": "0",
								"type": "t_bool"
							},
							{
								"astId": 63,
								"contract": "blockpedia.sol:Blockpedia",
								"label": "titulo",
								"offset": 0,
								"slot": "1",
								"type": "t_string_storage"
							},
							{
								"astId": 67,
								"contract": "blockpedia.sol:Blockpedia",
								"label": "versoes",
								"offset": 0,
								"slot": "2",
								"type": "t_array(t_struct(Versao)77_storage)dyn_storage"
							}
						],
						"numberOfBytes": "96"
					},
					"t_struct(Versao)77_storage": {
						"encoding": "inplace",
						"label": "struct Versao",
						"members": [
							{
								"astId": 72,
								"contract": "blockpedia.sol:Blockpedia",
								"label": "autor",
								"offset": 0,
								"slot": "0",
								"type": "t_address"
							},
							{
								"astId": 74,
								"contract": "blockpedia.sol:Blockpedia",
								"label": "ativo",
								"offset": 20,
								"slot": "0",
								"type": "t_bool"
							},
							{
								"astId": 76,
								"contract": "blockpedia.sol:Blockpedia",
								"label": "conteudo",
								"offset": 0,
								"slot": "1",
								"type": "t_string_storage"
							}
						],
						"numberOfBytes": "64"
					}
				}
			},
			"userdoc": {
				"kind": "user",
				"methods": {},
				"version": 1
			}
		}
	}
}