{
	"blockpedia.sol": {
		"Blockpedia": {
			"abi": [
				{
					"inputs": [],
					"stateMutability": "nonpayable",
					"type": "constructor"
				},
				{
					"inputs": [
						{
							"internalType": "uint256",
							"name": "index",
							"type": "uint256"
						},
						{
							"internalType": "string",
							"name": "conteudo",
							"type": "string"
						}
					],
					"name": "adicionaNovaVercaoDesativadaAPaginaPorIndexPaginas",
					"outputs": [],
					"stateMutability": "nonpayable",
					"type": "function"
				},
				{
					"inputs": [
						{
							"internalType": "bool",
							"name": "_ativo",
							"type": "bool"
						}
					],
					"name": "ativaDesativaBlockpedia",
					"outputs": [],
					"stateMutability": "nonpayable",
					"type": "function"
				},
				{
					"inputs": [
						{
							"internalType": "uint256",
							"name": "indexPagina",
							"type": "uint256"
						},
						{
							"internalType": "uint256",
							"name": "indexVersoes",
							"type": "uint256"
						}
					],
					"name": "ativaVersaoPorIndexVersoesEIndexPaginas",
					"outputs": [],
					"stateMutability": "nonpayable",
					"type": "function"
				},
				{
					"inputs": [],
					"name": "ativo",
					"outputs": [
						{
							"internalType": "bool",
							"name": "",
							"type": "bool"
						}
					],
					"stateMutability": "view",
					"type": "function"
				},
				{
					"inputs": [],
					"name": "autor",
					"outputs": [
						{
							"internalType": "address",
							"name": "",
							"type": "address"
						}
					],
					"stateMutability": "view",
					"type": "function"
				},
				{
					"inputs": [
						{
							"internalType": "string",
							"name": "titulo",
							"type": "string"
						},
						{
							"internalType": "string",
							"name": "conteudo",
							"type": "string"
						}
					],
					"name": "criarPagina",
					"outputs": [],
					"stateMutability": "nonpayable",
					"type": "function"
				},
				{
					"inputs": [
						{
							"internalType": "uint256",
							"name": "indice",
							"type": "uint256"
						}
					],
					"name": "getVersaoValidaPorIndexPaginas",
					"outputs": [
						{
							"internalType": "string",
							"name": "",
							"type": "string"
						}
					],
					"stateMutability": "view",
					"type": "function"
				},
				{
					"inputs": [
						{
							"internalType": "uint256",
							"name": "",
							"type": "uint256"
						}
					],
					"name": "paginas",
					"outputs": [
						{
							"internalType": "bool",
							"name": "ativo",
							"type": "bool"
						},
						{
							"internalType": "address",
							"name": "autor",
							"type": "address"
						},
						{
							"internalType": "uint256",
							"name": "dataCriacao",
							"type": "uint256"
						},
						{
							"internalType": "string",
							"name": "titulo",
							"type": "string"
						}
					],
					"stateMutability": "view",
					"type": "function"
				}
			],
			"devdoc": {
				"kind": "dev",
				"methods": {},
				"version": 1
			},
			"evm": {
				"assembly": "    /* \"blockpedia.sol\":85:3504  contract Blockpedia\r... */\n  mstore(0x40, 0x80)\n    /* \"blockpedia.sol\":133:137  true */\n  0x01\n    /* \"blockpedia.sol\":113:137  bool public ativo = true */\n  0x00\n  dup1\n  0x0100\n  exp\n  dup2\n  sload\n  dup2\n  0xff\n  mul\n  not\n  and\n  swap1\n  dup4\n  iszero\n  iszero\n  mul\n  or\n  swap1\n  sstore\n  pop\n    /* \"blockpedia.sol\":232:266  constructor(){autor = msg.sender;} */\n  callvalue\n  dup1\n  iszero\n  tag_1\n  jumpi\n  0x00\n  dup1\n  revert\ntag_1:\n  pop\n    /* \"blockpedia.sol\":254:264  msg.sender */\n  caller\n    /* \"blockpedia.sol\":246:251  autor */\n  0x00\n  0x01\n    /* \"blockpedia.sol\":246:264  autor = msg.sender */\n  0x0100\n  exp\n  dup2\n  sload\n  dup2\n  0xffffffffffffffffffffffffffffffffffffffff\n  mul\n  not\n  and\n  swap1\n  dup4\n  0xffffffffffffffffffffffffffffffffffffffff\n  and\n  mul\n  or\n  swap1\n  sstore\n  pop\n    /* \"blockpedia.sol\":85:3504  contract Blockpedia\r... */\n  dataSize(sub_0)\n  dup1\n  dataOffset(sub_0)\n  0x00\n  codecopy\n  0x00\n  return\nstop\n\nsub_0: assembly {\n        /* \"blockpedia.sol\":85:3504  contract Blockpedia\r... */\n      mstore(0x40, 0x80)\n      callvalue\n      dup1\n      iszero\n      tag_1\n      jumpi\n      0x00\n      dup1\n      revert\n    tag_1:\n      pop\n      jumpi(tag_2, lt(calldatasize, 0x04))\n      shr(0xe0, calldataload(0x00))\n      dup1\n      0x95be551a\n      gt\n      tag_11\n      jumpi\n      dup1\n      0x95be551a\n      eq\n      tag_7\n      jumpi\n      dup1\n      0xa18cc13b\n      eq\n      tag_8\n      jumpi\n      dup1\n      0xd4d23a6e\n      eq\n      tag_9\n      jumpi\n      dup1\n      0xe7d4296a\n      eq\n      tag_10\n      jumpi\n      jump(tag_2)\n    tag_11:\n      dup1\n      0x0694952d\n      eq\n      tag_3\n      jumpi\n      dup1\n      0x1509d30c\n      eq\n      tag_4\n      jumpi\n      dup1\n      0x1c18379a\n      eq\n      tag_5\n      jumpi\n      dup1\n      0x57ae2a89\n      eq\n      tag_6\n      jumpi\n    tag_2:\n      0x00\n      dup1\n      revert\n        /* \"blockpedia.sol\":145:165  address public autor */\n    tag_3:\n      tag_12\n      tag_13\n      jump\t// in\n    tag_12:\n      mload(0x40)\n      tag_14\n      swap2\n      swap1\n      tag_15\n      jump\t// in\n    tag_14:\n      mload(0x40)\n      dup1\n      swap2\n      sub\n      swap1\n      return\n        /* \"blockpedia.sol\":916:1110  function ativaDesativaBlockpedia(bool _ativo) public\r... */\n    tag_4:\n      tag_16\n      0x04\n      dup1\n      calldatasize\n      sub\n      dup2\n      add\n      swap1\n      tag_17\n      swap2\n      swap1\n      tag_18\n      jump\t// in\n    tag_17:\n      tag_19\n      jump\t// in\n    tag_16:\n      stop\n        /* \"blockpedia.sol\":274:908  function criarPagina(string memory titulo, string memory conteudo) public\r... */\n    tag_5:\n      tag_20\n      0x04\n      dup1\n      calldatasize\n      sub\n      dup2\n      add\n      swap1\n      tag_21\n      swap2\n      swap1\n      tag_22\n      jump\t// in\n    tag_21:\n      tag_23\n      jump\t// in\n    tag_20:\n      stop\n        /* \"blockpedia.sol\":1649:1892  function getVersaoValidaPorIndexPaginas(uint indice) public view returns (string memory)\r... */\n    tag_6:\n      tag_24\n      0x04\n      dup1\n      calldatasize\n      sub\n      dup2\n      add\n      swap1\n      tag_25\n      swap2\n      swap1\n      tag_26\n      jump\t// in\n    tag_25:\n      tag_27\n      jump\t// in\n    tag_24:\n      mload(0x40)\n      tag_28\n      swap2\n      swap1\n      tag_29\n      jump\t// in\n    tag_28:\n      mload(0x40)\n      dup1\n      swap2\n      sub\n      swap1\n      return\n        /* \"blockpedia.sol\":2882:3499  function ativaVersaoPorIndexVersoesEIndexPaginas(uint indexPagina, uint indexVersoes)public\r... */\n    tag_7:\n      tag_30\n      0x04\n      dup1\n      calldatasize\n      sub\n      dup2\n      add\n      swap1\n      tag_31\n      swap2\n      swap1\n      tag_32\n      jump\t// in\n    tag_31:\n      tag_33\n      jump\t// in\n    tag_30:\n      stop\n        /* \"blockpedia.sol\":113:137  bool public ativo = true */\n    tag_8:\n      tag_34\n      tag_35\n      jump\t// in\n    tag_34:\n      mload(0x40)\n      tag_36\n      swap2\n      swap1\n      tag_37\n      jump\t// in\n    tag_36:\n      mload(0x40)\n      dup1\n      swap2\n      sub\n      swap1\n      return\n        /* \"blockpedia.sol\":2215:2874  function adicionaNovaVercaoDesativadaAPaginaPorIndexPaginas(uint index, string memory conteudo) public\r... */\n    tag_9:\n      tag_38\n      0x04\n      dup1\n      calldatasize\n      sub\n      dup2\n      add\n      swap1\n      tag_39\n      swap2\n      swap1\n      tag_40\n      jump\t// in\n    tag_39:\n      tag_41\n      jump\t// in\n    tag_38:\n      stop\n        /* \"blockpedia.sol\":199:222  Pagina[] public paginas */\n    tag_10:\n      tag_42\n      0x04\n      dup1\n      calldatasize\n      sub\n      dup2\n      add\n      swap1\n      tag_43\n      swap2\n      swap1\n      tag_26\n      jump\t// in\n    tag_43:\n      tag_44\n      jump\t// in\n    tag_42:\n      mload(0x40)\n      tag_45\n      swap5\n      swap4\n      swap3\n      swap2\n      swap1\n      tag_46\n      jump\t// in\n    tag_45:\n      mload(0x40)\n      dup1\n      swap2\n      sub\n      swap1\n      return\n        /* \"blockpedia.sol\":145:165  address public autor */\n    tag_13:\n      0x00\n      0x01\n      swap1\n      sload\n      swap1\n      0x0100\n      exp\n      swap1\n      div\n      0xffffffffffffffffffffffffffffffffffffffff\n      and\n      dup2\n      jump\t// out\n        /* \"blockpedia.sol\":916:1110  function ativaDesativaBlockpedia(bool _ativo) public\r... */\n    tag_19:\n        /* \"blockpedia.sol\":1007:1012  autor */\n      0x00\n      0x01\n      swap1\n      sload\n      swap1\n      0x0100\n      exp\n      swap1\n      div\n      0xffffffffffffffffffffffffffffffffffffffff\n      and\n        /* \"blockpedia.sol\":993:1012  msg.sender == autor */\n      0xffffffffffffffffffffffffffffffffffffffff\n      and\n        /* \"blockpedia.sol\":993:1003  msg.sender */\n      caller\n        /* \"blockpedia.sol\":993:1012  msg.sender == autor */\n      0xffffffffffffffffffffffffffffffffffffffff\n      and\n      eq\n        /* \"blockpedia.sol\":985:1077  require(msg.sender == autor,\"Somente o dono desta Blockpedia pode alterar o atributo ativo\") */\n      tag_48\n      jumpi\n      mload(0x40)\n      0x08c379a000000000000000000000000000000000000000000000000000000000\n      dup2\n      mstore\n      0x04\n      add\n      tag_49\n      swap1\n      tag_50\n      jump\t// in\n    tag_49:\n      mload(0x40)\n      dup1\n      swap2\n      sub\n      swap1\n      revert\n    tag_48:\n        /* \"blockpedia.sol\":1096:1102  _ativo */\n      dup1\n        /* \"blockpedia.sol\":1088:1093  ativo */\n      0x00\n      dup1\n        /* \"blockpedia.sol\":1088:1102  ativo = _ativo */\n      0x0100\n      exp\n      dup2\n      sload\n      dup2\n      0xff\n      mul\n      not\n      and\n      swap1\n      dup4\n      iszero\n      iszero\n      mul\n      or\n      swap1\n      sstore\n      pop\n        /* \"blockpedia.sol\":916:1110  function ativaDesativaBlockpedia(bool _ativo) public\r... */\n      pop\n      jump\t// out\n        /* \"blockpedia.sol\":274:908  function criarPagina(string memory titulo, string memory conteudo) public\r... */\n    tag_23:\n        /* \"blockpedia.sol\":381:385  true */\n      0x01\n        /* \"blockpedia.sol\":372:385  ativo == true */\n      iszero\n      iszero\n        /* \"blockpedia.sol\":372:377  ativo */\n      0x00\n      dup1\n      sload\n      swap1\n      0x0100\n      exp\n      swap1\n      div\n      0xff\n      and\n        /* \"blockpedia.sol\":372:385  ativo == true */\n      iszero\n      iszero\n      eq\n        /* \"blockpedia.sol\":364:461  require(ativo == true, \"A adicao de novas paginas so e permitida quando a Blockpedia esta ativa\") */\n      tag_52\n      jumpi\n      mload(0x40)\n      0x08c379a000000000000000000000000000000000000000000000000000000000\n      dup2\n      mstore\n      0x04\n      add\n      tag_53\n      swap1\n      tag_54\n      jump\t// in\n    tag_53:\n      mload(0x40)\n      dup1\n      swap2\n      sub\n      swap1\n      revert\n    tag_52:\n        /* \"blockpedia.sol\":481:501  tituloExiste(titulo) */\n      tag_55\n        /* \"blockpedia.sol\":494:500  titulo */\n      dup3\n        /* \"blockpedia.sol\":481:493  tituloExiste */\n      tag_56\n        /* \"blockpedia.sol\":481:501  tituloExiste(titulo) */\n      jump\t// in\n    tag_55:\n        /* \"blockpedia.sol\":480:501  !tituloExiste(titulo) */\n      iszero\n        /* \"blockpedia.sol\":472:542  require(!tituloExiste(titulo), \"Uma pagina com este titulo ja existe\") */\n      tag_57\n      jumpi\n      mload(0x40)\n      0x08c379a000000000000000000000000000000000000000000000000000000000\n      dup2\n      mstore\n      0x04\n      add\n      tag_58\n      swap1\n      tag_59\n      jump\t// in\n    tag_58:\n      mload(0x40)\n      dup1\n      swap2\n      sub\n      swap1\n      revert\n    tag_57:\n        /* \"blockpedia.sol\":555:580  Pagina storage novaPagina */\n      0x00\n        /* \"blockpedia.sol\":583:590  paginas */\n      0x02\n        /* \"blockpedia.sol\":583:597  paginas.push() */\n      0x01\n      dup2\n      0x01\n      dup2\n      sload\n      add\n      dup1\n      dup3\n      sstore\n      dup1\n      swap2\n      pop\n      pop\n      sub\n      swap1\n      0x00\n      mstore\n      keccak256(0x00, 0x20)\n      swap1\n      0x04\n      mul\n      add\n        /* \"blockpedia.sol\":555:597  Pagina storage novaPagina = paginas.push() */\n      swap1\n      pop\n        /* \"blockpedia.sol\":695:705  msg.sender */\n      caller\n        /* \"blockpedia.sol\":676:686  novaPagina */\n      dup2\n        /* \"blockpedia.sol\":676:692  novaPagina.autor */\n      0x00\n      add\n      0x01\n        /* \"blockpedia.sol\":676:705  novaPagina.autor = msg.sender */\n      0x0100\n      exp\n      dup2\n      sload\n      dup2\n      0xffffffffffffffffffffffffffffffffffffffff\n      mul\n      not\n      and\n      swap1\n      dup4\n      0xffffffffffffffffffffffffffffffffffffffff\n      and\n      mul\n      or\n      swap1\n      sstore\n      pop\n        /* \"blockpedia.sol\":735:739  true */\n      0x01\n        /* \"blockpedia.sol\":716:726  novaPagina */\n      dup2\n        /* \"blockpedia.sol\":716:732  novaPagina.ativo */\n      0x00\n      add\n      0x00\n        /* \"blockpedia.sol\":716:739  novaPagina.ativo = true */\n      0x0100\n      exp\n      dup2\n      sload\n      dup2\n      0xff\n      mul\n      not\n      and\n      swap1\n      dup4\n      iszero\n      iszero\n      mul\n      or\n      swap1\n      sstore\n      pop\n        /* \"blockpedia.sol\":770:776  titulo */\n      dup3\n        /* \"blockpedia.sol\":750:760  novaPagina */\n      dup2\n        /* \"blockpedia.sol\":750:767  novaPagina.titulo */\n      0x02\n      add\n        /* \"blockpedia.sol\":750:776  novaPagina.titulo = titulo */\n      swap1\n      dup1\n      mload\n      swap1\n      0x20\n      add\n      swap1\n      tag_61\n      swap3\n      swap2\n      swap1\n      tag_62\n      jump\t// in\n    tag_61:\n      pop\n        /* \"blockpedia.sol\":789:799  novaPagina */\n      dup1\n        /* \"blockpedia.sol\":789:807  novaPagina.versoes */\n      0x03\n      add\n        /* \"blockpedia.sol\":813:864  Versao(true, msg.sender, block.timestamp, conteudo) */\n      mload(0x40)\n      dup1\n      0x80\n      add\n      0x40\n      mstore\n      dup1\n        /* \"blockpedia.sol\":820:824  true */\n      0x01\n        /* \"blockpedia.sol\":813:864  Versao(true, msg.sender, block.timestamp, conteudo) */\n      iszero\n      iszero\n      dup2\n      mstore\n      0x20\n      add\n        /* \"blockpedia.sol\":826:836  msg.sender */\n      caller\n        /* \"blockpedia.sol\":813:864  Versao(true, msg.sender, block.timestamp, conteudo) */\n      0xffffffffffffffffffffffffffffffffffffffff\n      and\n      dup2\n      mstore\n      0x20\n      add\n        /* \"blockpedia.sol\":838:853  block.timestamp */\n      timestamp\n        /* \"blockpedia.sol\":813:864  Versao(true, msg.sender, block.timestamp, conteudo) */\n      dup2\n      mstore\n      0x20\n      add\n        /* \"blockpedia.sol\":855:863  conteudo */\n      dup5\n        /* \"blockpedia.sol\":813:864  Versao(true, msg.sender, block.timestamp, conteudo) */\n      dup2\n      mstore\n      pop\n        /* \"blockpedia.sol\":789:865  novaPagina.versoes.push(Versao(true, msg.sender, block.timestamp, conteudo)) */\n      swap1\n      dup1\n      0x01\n      dup2\n      sload\n      add\n      dup1\n      dup3\n      sstore\n      dup1\n      swap2\n      pop\n      pop\n      0x01\n      swap1\n      sub\n      swap1\n      0x00\n      mstore\n      keccak256(0x00, 0x20)\n      swap1\n      0x03\n      mul\n      add\n      0x00\n      swap1\n      swap2\n      swap1\n      swap2\n      swap1\n      swap2\n      pop\n      0x00\n      dup3\n      add\n      mload\n      dup2\n      0x00\n      add\n      exp(0x0100, 0x00)\n      dup2\n      sload\n      dup2\n      0xff\n      mul\n      not\n      and\n      swap1\n      dup4\n      iszero\n      iszero\n      mul\n      or\n      swap1\n      sstore\n      pop\n      0x20\n      dup3\n      add\n      mload\n      dup2\n      0x00\n      add\n      exp(0x0100, 0x01)\n      dup2\n      sload\n      dup2\n      0xffffffffffffffffffffffffffffffffffffffff\n      mul\n      not\n      and\n      swap1\n      dup4\n      0xffffffffffffffffffffffffffffffffffffffff\n      and\n      mul\n      or\n      swap1\n      sstore\n      pop\n      0x40\n      dup3\n      add\n      mload\n      dup2\n      0x01\n      add\n      sstore\n      0x60\n      dup3\n      add\n      mload\n      dup2\n      0x02\n      add\n      swap1\n      dup1\n      mload\n      swap1\n      0x20\n      add\n      swap1\n      tag_64\n      swap3\n      swap2\n      swap1\n      tag_62\n      jump\t// in\n    tag_64:\n      pop\n      pop\n      pop\n        /* \"blockpedia.sol\":274:908  function criarPagina(string memory titulo, string memory conteudo) public\r... */\n      pop\n      pop\n      pop\n      jump\t// out\n        /* \"blockpedia.sol\":1649:1892  function getVersaoValidaPorIndexPaginas(uint indice) public view returns (string memory)\r... */\n    tag_27:\n        /* \"blockpedia.sol\":1723:1736  string memory */\n      0x60\n        /* \"blockpedia.sol\":1771:1778  paginas */\n      0x02\n        /* \"blockpedia.sol\":1771:1785  paginas.length */\n      dup1\n      sload\n      swap1\n      pop\n        /* \"blockpedia.sol\":1762:1768  indice */\n      dup3\n        /* \"blockpedia.sol\":1762:1785  indice < paginas.length */\n      lt\n        /* \"blockpedia.sol\":1754:1812  require(indice < paginas.length, \"Indice fora do alcance\") */\n      tag_66\n      jumpi\n      mload(0x40)\n      0x08c379a000000000000000000000000000000000000000000000000000000000\n      dup2\n      mstore\n      0x04\n      add\n      tag_67\n      swap1\n      tag_68\n      jump\t// in\n    tag_67:\n      mload(0x40)\n      dup1\n      swap2\n      sub\n      swap1\n      revert\n    tag_66:\n        /* \"blockpedia.sol\":1832:1875  getVersaoValidaDeUmaPagina(paginas[indice]) */\n      tag_69\n        /* \"blockpedia.sol\":1859:1866  paginas */\n      0x02\n        /* \"blockpedia.sol\":1867:1873  indice */\n      dup4\n        /* \"blockpedia.sol\":1859:1874  paginas[indice] */\n      dup2\n      sload\n      dup2\n      lt\n      tag_70\n      jumpi\n      mstore(0x00, 0x4e487b7100000000000000000000000000000000000000000000000000000000)\n      mstore(0x04, 0x32)\n      revert(0x00, 0x24)\n    tag_70:\n      swap1\n      0x00\n      mstore\n      keccak256(0x00, 0x20)\n      swap1\n      0x04\n      mul\n      add\n        /* \"blockpedia.sol\":1832:1875  getVersaoValidaDeUmaPagina(paginas[indice]) */\n      mload(0x40)\n      dup1\n      0xa0\n      add\n      0x40\n      mstore\n      swap1\n      dup2\n      0x00\n      dup3\n      add\n      0x00\n      swap1\n      sload\n      swap1\n      0x0100\n      exp\n      swap1\n      div\n      0xff\n      and\n      iszero\n      iszero\n      iszero\n      iszero\n      dup2\n      mstore\n      0x20\n      add\n      0x00\n      dup3\n      add\n      0x01\n      swap1\n      sload\n      swap1\n      0x0100\n      exp\n      swap1\n      div\n      0xffffffffffffffffffffffffffffffffffffffff\n      and\n      0xffffffffffffffffffffffffffffffffffffffff\n      and\n      0xffffffffffffffffffffffffffffffffffffffff\n      and\n      dup2\n      mstore\n      0x20\n      add\n      0x01\n      dup3\n      add\n      sload\n      dup2\n      mstore\n      0x20\n      add\n      0x02\n      dup3\n      add\n      dup1\n      sload\n      tag_72\n      swap1\n      tag_73\n      jump\t// in\n    tag_72:\n      dup1\n      0x1f\n      add\n      0x20\n      dup1\n      swap2\n      div\n      mul\n      0x20\n      add\n      mload(0x40)\n      swap1\n      dup2\n      add\n      0x40\n      mstore\n      dup1\n      swap3\n      swap2\n      swap1\n      dup2\n      dup2\n      mstore\n      0x20\n      add\n      dup3\n      dup1\n      sload\n      tag_74\n      swap1\n      tag_73\n      jump\t// in\n    tag_74:\n      dup1\n      iszero\n      tag_75\n      jumpi\n      dup1\n      0x1f\n      lt\n      tag_76\n      jumpi\n      0x0100\n      dup1\n      dup4\n      sload\n      div\n      mul\n      dup4\n      mstore\n      swap2\n      0x20\n      add\n      swap2\n      jump(tag_75)\n    tag_76:\n      dup3\n      add\n      swap2\n      swap1\n      0x00\n      mstore\n      keccak256(0x00, 0x20)\n      swap1\n    tag_77:\n      dup2\n      sload\n      dup2\n      mstore\n      swap1\n      0x01\n      add\n      swap1\n      0x20\n      add\n      dup1\n      dup4\n      gt\n      tag_77\n      jumpi\n      dup3\n      swap1\n      sub\n      0x1f\n      and\n      dup3\n      add\n      swap2\n    tag_75:\n      pop\n      pop\n      pop\n      pop\n      pop\n      dup2\n      mstore\n      0x20\n      add\n      0x03\n      dup3\n      add\n      dup1\n      sload\n      dup1\n      0x20\n      mul\n      0x20\n      add\n      mload(0x40)\n      swap1\n      dup2\n      add\n      0x40\n      mstore\n      dup1\n      swap3\n      swap2\n      swap1\n      dup2\n      dup2\n      mstore\n      0x20\n      add\n      0x00\n      swap1\n    tag_78:\n      dup3\n      dup3\n      lt\n      iszero\n      tag_79\n      jumpi\n      dup4\n      dup3\n      swap1\n      0x00\n      mstore\n      keccak256(0x00, 0x20)\n      swap1\n      0x03\n      mul\n      add\n      mload(0x40)\n      dup1\n      0x80\n      add\n      0x40\n      mstore\n      swap1\n      dup2\n      0x00\n      dup3\n      add\n      0x00\n      swap1\n      sload\n      swap1\n      0x0100\n      exp\n      swap1\n      div\n      0xff\n      and\n      iszero\n      iszero\n      iszero\n      iszero\n      dup2\n      mstore\n      0x20\n      add\n      0x00\n      dup3\n      add\n      0x01\n      swap1\n      sload\n      swap1\n      0x0100\n      exp\n      swap1\n      div\n      0xffffffffffffffffffffffffffffffffffffffff\n      and\n      0xffffffffffffffffffffffffffffffffffffffff\n      and\n      0xffffffffffffffffffffffffffffffffffffffff\n      and\n      dup2\n      mstore\n      0x20\n      add\n      0x01\n      dup3\n      add\n      sload\n      dup2\n      mstore\n      0x20\n      add\n      0x02\n      dup3\n      add\n      dup1\n      sload\n      tag_81\n      swap1\n      tag_73\n      jump\t// in\n    tag_81:\n      dup1\n      0x1f\n      add\n      0x20\n      dup1\n      swap2\n      div\n      mul\n      0x20\n      add\n      mload(0x40)\n      swap1\n      dup2\n      add\n      0x40\n      mstore\n      dup1\n      swap3\n      swap2\n      swap1\n      dup2\n      dup2\n      mstore\n      0x20\n      add\n      dup3\n      dup1\n      sload\n      tag_82\n      swap1\n      tag_73\n      jump\t// in\n    tag_82:\n      dup1\n      iszero\n      tag_83\n      jumpi\n      dup1\n      0x1f\n      lt\n      tag_84\n      jumpi\n      0x0100\n      dup1\n      dup4\n      sload\n      div\n      mul\n      dup4\n      mstore\n      swap2\n      0x20\n      add\n      swap2\n      jump(tag_83)\n    tag_84:\n      dup3\n      add\n      swap2\n      swap1\n      0x00\n      mstore\n      keccak256(0x00, 0x20)\n      swap1\n    tag_85:\n      dup2\n      sload\n      dup2\n      mstore\n      swap1\n      0x01\n      add\n      swap1\n      0x20\n      add\n      dup1\n      dup4\n      gt\n      tag_85\n      jumpi\n      dup3\n      swap1\n      sub\n      0x1f\n      and\n      dup3\n      add\n      swap2\n    tag_83:\n      pop\n      pop\n      pop\n      pop\n      pop\n      dup2\n      mstore\n      pop\n      pop\n      dup2\n      mstore\n      0x20\n      add\n      swap1\n      0x01\n      add\n      swap1\n      jump(tag_78)\n    tag_79:\n      pop\n      pop\n      pop\n      pop\n      dup2\n      mstore\n      pop\n      pop\n        /* \"blockpedia.sol\":1832:1858  getVersaoValidaDeUmaPagina */\n      tag_86\n        /* \"blockpedia.sol\":1832:1875  getVersaoValidaDeUmaPagina(paginas[indice]) */\n      jump\t// in\n    tag_69:\n        /* \"blockpedia.sol\":1832:1884  getVersaoValidaDeUmaPagina(paginas[indice]).conteudo */\n      0x60\n      add\n      mload\n        /* \"blockpedia.sol\":1825:1884  return getVersaoValidaDeUmaPagina(paginas[indice]).conteudo */\n      swap1\n      pop\n        /* \"blockpedia.sol\":1649:1892  function getVersaoValidaPorIndexPaginas(uint indice) public view returns (string memory)\r... */\n      swap2\n      swap1\n      pop\n      jump\t// out\n        /* \"blockpedia.sol\":2882:3499  function ativaVersaoPorIndexVersoesEIndexPaginas(uint indexPagina, uint indexVersoes)public\r... */\n    tag_33:\n        /* \"blockpedia.sol\":3007:3011  true */\n      0x01\n        /* \"blockpedia.sol\":2998:3011  ativo == true */\n      iszero\n      iszero\n        /* \"blockpedia.sol\":2998:3003  ativo */\n      0x00\n      dup1\n      sload\n      swap1\n      0x0100\n      exp\n      swap1\n      div\n      0xff\n      and\n        /* \"blockpedia.sol\":2998:3011  ativo == true */\n      iszero\n      iszero\n      eq\n        /* \"blockpedia.sol\":2990:3087  require(ativo == true, \"A adicao de novas paginas so e permitida quando a Blockpedia esta ativa\") */\n      tag_88\n      jumpi\n      mload(0x40)\n      0x08c379a000000000000000000000000000000000000000000000000000000000\n      dup2\n      mstore\n      0x04\n      add\n      tag_89\n      swap1\n      tag_54\n      jump\t// in\n    tag_89:\n      mload(0x40)\n      dup1\n      swap2\n      sub\n      swap1\n      revert\n    tag_88:\n        /* \"blockpedia.sol\":3120:3127  paginas */\n      0x02\n        /* \"blockpedia.sol\":3120:3134  paginas.length */\n      dup1\n      sload\n      swap1\n      pop\n        /* \"blockpedia.sol\":3106:3117  indexPagina */\n      dup3\n        /* \"blockpedia.sol\":3106:3134  indexPagina < paginas.length */\n      lt\n        /* \"blockpedia.sol\":3098:3165  require(indexPagina < paginas.length, \"Indice da pagina invalido.\") */\n      tag_90\n      jumpi\n      mload(0x40)\n      0x08c379a000000000000000000000000000000000000000000000000000000000\n      dup2\n      mstore\n      0x04\n      add\n      tag_91\n      swap1\n      tag_92\n      jump\t// in\n    tag_91:\n      mload(0x40)\n      dup1\n      swap2\n      sub\n      swap1\n      revert\n    tag_90:\n        /* \"blockpedia.sol\":3199:3206  paginas */\n      0x02\n        /* \"blockpedia.sol\":3207:3219  indexVersoes */\n      dup2\n        /* \"blockpedia.sol\":3199:3220  paginas[indexVersoes] */\n      dup2\n      sload\n      dup2\n      lt\n      tag_93\n      jumpi\n      mstore(0x00, 0x4e487b7100000000000000000000000000000000000000000000000000000000)\n      mstore(0x04, 0x32)\n      revert(0x00, 0x24)\n    tag_93:\n      swap1\n      0x00\n      mstore\n      keccak256(0x00, 0x20)\n      swap1\n      0x04\n      mul\n      add\n        /* \"blockpedia.sol\":3199:3228  paginas[indexVersoes].versoes */\n      0x03\n      add\n        /* \"blockpedia.sol\":3199:3235  paginas[indexVersoes].versoes.length */\n      dup1\n      sload\n      swap1\n      pop\n        /* \"blockpedia.sol\":3184:3196  indexVersoes */\n      dup2\n        /* \"blockpedia.sol\":3184:3235  indexVersoes < paginas[indexVersoes].versoes.length */\n      lt\n        /* \"blockpedia.sol\":3176:3266  require(indexVersoes < paginas[indexVersoes].versoes.length, \"Indice da versso invalido.\") */\n      tag_95\n      jumpi\n      mload(0x40)\n      0x08c379a000000000000000000000000000000000000000000000000000000000\n      dup2\n      mstore\n      0x04\n      add\n      tag_96\n      swap1\n      tag_97\n      jump\t// in\n    tag_96:\n      mload(0x40)\n      dup1\n      swap2\n      sub\n      swap1\n      revert\n    tag_95:\n        /* \"blockpedia.sol\":3294:3300  uint i */\n      0x00\n        /* \"blockpedia.sol\":3289:3424  for (uint i = 0; i < paginas[indexPagina].versoes.length; i++) {\r... */\n    tag_98:\n        /* \"blockpedia.sol\":3310:3317  paginas */\n      0x02\n        /* \"blockpedia.sol\":3318:3329  indexPagina */\n      dup4\n        /* \"blockpedia.sol\":3310:3330  paginas[indexPagina] */\n      dup2\n      sload\n      dup2\n      lt\n      tag_101\n      jumpi\n      mstore(0x00, 0x4e487b7100000000000000000000000000000000000000000000000000000000)\n      mstore(0x04, 0x32)\n      revert(0x00, 0x24)\n    tag_101:\n      swap1\n      0x00\n      mstore\n      keccak256(0x00, 0x20)\n      swap1\n      0x04\n      mul\n      add\n        /* \"blockpedia.sol\":3310:3338  paginas[indexPagina].versoes */\n      0x03\n      add\n        /* \"blockpedia.sol\":3310:3345  paginas[indexPagina].versoes.length */\n      dup1\n      sload\n      swap1\n      pop\n        /* \"blockpedia.sol\":3306:3307  i */\n      dup2\n        /* \"blockpedia.sol\":3306:3345  i < paginas[indexPagina].versoes.length */\n      lt\n        /* \"blockpedia.sol\":3289:3424  for (uint i = 0; i < paginas[indexPagina].versoes.length; i++) {\r... */\n      iszero\n      tag_99\n      jumpi\n        /* \"blockpedia.sol\":3407:3412  false */\n      0x00\n        /* \"blockpedia.sol\":3367:3374  paginas */\n      0x02\n        /* \"blockpedia.sol\":3375:3386  indexPagina */\n      dup5\n        /* \"blockpedia.sol\":3367:3387  paginas[indexPagina] */\n      dup2\n      sload\n      dup2\n      lt\n      tag_103\n      jumpi\n      mstore(0x00, 0x4e487b7100000000000000000000000000000000000000000000000000000000)\n      mstore(0x04, 0x32)\n      revert(0x00, 0x24)\n    tag_103:\n      swap1\n      0x00\n      mstore\n      keccak256(0x00, 0x20)\n      swap1\n      0x04\n      mul\n      add\n        /* \"blockpedia.sol\":3367:3395  paginas[indexPagina].versoes */\n      0x03\n      add\n        /* \"blockpedia.sol\":3396:3397  i */\n      dup3\n        /* \"blockpedia.sol\":3367:3398  paginas[indexPagina].versoes[i] */\n      dup2\n      sload\n      dup2\n      lt\n      tag_105\n      jumpi\n      mstore(0x00, 0x4e487b7100000000000000000000000000000000000000000000000000000000)\n      mstore(0x04, 0x32)\n      revert(0x00, 0x24)\n    tag_105:\n      swap1\n      0x00\n      mstore\n      keccak256(0x00, 0x20)\n      swap1\n      0x03\n      mul\n      add\n        /* \"blockpedia.sol\":3367:3404  paginas[indexPagina].versoes[i].ativo */\n      0x00\n      add\n      0x00\n        /* \"blockpedia.sol\":3367:3412  paginas[indexPagina].versoes[i].ativo = false */\n      0x0100\n      exp\n      dup2\n      sload\n      dup2\n      0xff\n      mul\n      not\n      and\n      swap1\n      dup4\n      iszero\n      iszero\n      mul\n      or\n      swap1\n      sstore\n      pop\n        /* \"blockpedia.sol\":3347:3350  i++ */\n      dup1\n      dup1\n      tag_107\n      swap1\n      tag_108\n      jump\t// in\n    tag_107:\n      swap2\n      pop\n      pop\n        /* \"blockpedia.sol\":3289:3424  for (uint i = 0; i < paginas[indexPagina].versoes.length; i++) {\r... */\n      jump(tag_98)\n    tag_99:\n      pop\n        /* \"blockpedia.sol\":3487:3491  true */\n      0x01\n        /* \"blockpedia.sol\":3436:3443  paginas */\n      0x02\n        /* \"blockpedia.sol\":3444:3455  indexPagina */\n      dup4\n        /* \"blockpedia.sol\":3436:3456  paginas[indexPagina] */\n      dup2\n      sload\n      dup2\n      lt\n      tag_109\n      jumpi\n      mstore(0x00, 0x4e487b7100000000000000000000000000000000000000000000000000000000)\n      mstore(0x04, 0x32)\n      revert(0x00, 0x24)\n    tag_109:\n      swap1\n      0x00\n      mstore\n      keccak256(0x00, 0x20)\n      swap1\n      0x04\n      mul\n      add\n        /* \"blockpedia.sol\":3436:3464  paginas[indexPagina].versoes */\n      0x03\n      add\n        /* \"blockpedia.sol\":3465:3477  indexVersoes */\n      dup3\n        /* \"blockpedia.sol\":3436:3478  paginas[indexPagina].versoes[indexVersoes] */\n      dup2\n      sload\n      dup2\n      lt\n      tag_111\n      jumpi\n      mstore(0x00, 0x4e487b7100000000000000000000000000000000000000000000000000000000)\n      mstore(0x04, 0x32)\n      revert(0x00, 0x24)\n    tag_111:\n      swap1\n      0x00\n      mstore\n      keccak256(0x00, 0x20)\n      swap1\n      0x03\n      mul\n      add\n        /* \"blockpedia.sol\":3436:3484  paginas[indexPagina].versoes[indexVersoes].ativo */\n      0x00\n      add\n      0x00\n        /* \"blockpedia.sol\":3436:3491  paginas[indexPagina].versoes[indexVersoes].ativo = true */\n      0x0100\n      exp\n      dup2\n      sload\n      dup2\n      0xff\n      mul\n      not\n      and\n      swap1\n      dup4\n      iszero\n      iszero\n      mul\n      or\n      swap1\n      sstore\n      pop\n        /* \"blockpedia.sol\":2882:3499  function ativaVersaoPorIndexVersoesEIndexPaginas(uint indexPagina, uint indexVersoes)public\r... */\n      pop\n      pop\n      jump\t// out\n        /* \"blockpedia.sol\":113:137  bool public ativo = true */\n    tag_35:\n      0x00\n      dup1\n      sload\n      swap1\n      0x0100\n      exp\n      swap1\n      div\n      0xff\n      and\n      dup2\n      jump\t// out\n        /* \"blockpedia.sol\":2215:2874  function adicionaNovaVercaoDesativadaAPaginaPorIndexPaginas(uint index, string memory conteudo) public\r... */\n    tag_41:\n        /* \"blockpedia.sol\":2351:2355  true */\n      0x01\n        /* \"blockpedia.sol\":2342:2355  ativo == true */\n      iszero\n      iszero\n        /* \"blockpedia.sol\":2342:2347  ativo */\n      0x00\n      dup1\n      sload\n      swap1\n      0x0100\n      exp\n      swap1\n      div\n      0xff\n      and\n        /* \"blockpedia.sol\":2342:2355  ativo == true */\n      iszero\n      iszero\n      eq\n        /* \"blockpedia.sol\":2334:2431  require(ativo == true, \"A adicao de novas paginas so e permitida quando a Blockpedia esta ativa\") */\n      tag_114\n      jumpi\n      mload(0x40)\n      0x08c379a000000000000000000000000000000000000000000000000000000000\n      dup2\n      mstore\n      0x04\n      add\n      tag_115\n      swap1\n      tag_54\n      jump\t// in\n    tag_115:\n      mload(0x40)\n      dup1\n      swap2\n      sub\n      swap1\n      revert\n    tag_114:\n        /* \"blockpedia.sol\":2458:2465  paginas */\n      0x02\n        /* \"blockpedia.sol\":2458:2472  paginas.length */\n      dup1\n      sload\n      swap1\n      pop\n        /* \"blockpedia.sol\":2450:2455  index */\n      dup3\n        /* \"blockpedia.sol\":2450:2472  index < paginas.length */\n      lt\n        /* \"blockpedia.sol\":2442:2499  require(index < paginas.length, \"Indice fora do alcance\") */\n      tag_116\n      jumpi\n      mload(0x40)\n      0x08c379a000000000000000000000000000000000000000000000000000000000\n      dup2\n      mstore\n      0x04\n      add\n      tag_117\n      swap1\n      tag_68\n      jump\t// in\n    tag_117:\n      mload(0x40)\n      dup1\n      swap2\n      sub\n      swap1\n      revert\n    tag_116:\n        /* \"blockpedia.sol\":2520:2541  Pagina storage pagina */\n      0x00\n        /* \"blockpedia.sol\":2544:2551  paginas */\n      0x02\n        /* \"blockpedia.sol\":2552:2557  index */\n      dup4\n        /* \"blockpedia.sol\":2544:2558  paginas[index] */\n      dup2\n      sload\n      dup2\n      lt\n      tag_118\n      jumpi\n      mstore(0x00, 0x4e487b7100000000000000000000000000000000000000000000000000000000)\n      mstore(0x04, 0x32)\n      revert(0x00, 0x24)\n    tag_118:\n      swap1\n      0x00\n      mstore\n      keccak256(0x00, 0x20)\n      swap1\n      0x04\n      mul\n      add\n        /* \"blockpedia.sol\":2520:2558  Pagina storage pagina = paginas[index] */\n      swap1\n      pop\n        /* \"blockpedia.sol\":2593:2597  true */\n      0x01\n        /* \"blockpedia.sol\":2577:2597  pagina.ativo == true */\n      iszero\n      iszero\n        /* \"blockpedia.sol\":2577:2583  pagina */\n      dup2\n        /* \"blockpedia.sol\":2577:2589  pagina.ativo */\n      0x00\n      add\n      0x00\n      swap1\n      sload\n      swap1\n      0x0100\n      exp\n      swap1\n      div\n      0xff\n      and\n        /* \"blockpedia.sol\":2577:2597  pagina.ativo == true */\n      iszero\n      iszero\n      eq\n        /* \"blockpedia.sol\":2569:2669  require(pagina.ativo == true, \"A adicao de novas vercoes so e permitida quando a pagina esta ativa\") */\n      tag_120\n      jumpi\n      mload(0x40)\n      0x08c379a000000000000000000000000000000000000000000000000000000000\n      dup2\n      mstore\n      0x04\n      add\n      tag_121\n      swap1\n      tag_122\n      jump\t// in\n    tag_121:\n      mload(0x40)\n      dup1\n      swap2\n      sub\n      swap1\n      revert\n    tag_120:\n        /* \"blockpedia.sol\":2690:2696  pagina */\n      dup1\n        /* \"blockpedia.sol\":2690:2704  pagina.versoes */\n      0x03\n      add\n        /* \"blockpedia.sol\":2710:2865  Versao({\r... */\n      mload(0x40)\n      dup1\n      0x80\n      add\n      0x40\n      mstore\n      dup1\n        /* \"blockpedia.sol\":2739:2744  false */\n      0x00\n        /* \"blockpedia.sol\":2710:2865  Versao({\r... */\n      iszero\n      iszero\n      dup2\n      mstore\n      0x20\n      add\n        /* \"blockpedia.sol\":2766:2776  msg.sender */\n      caller\n        /* \"blockpedia.sol\":2710:2865  Versao({\r... */\n      0xffffffffffffffffffffffffffffffffffffffff\n      and\n      dup2\n      mstore\n      0x20\n      add\n        /* \"blockpedia.sol\":2805:2820  block.timestamp */\n      timestamp\n        /* \"blockpedia.sol\":2710:2865  Versao({\r... */\n      dup2\n      mstore\n      0x20\n      add\n        /* \"blockpedia.sol\":2845:2853  conteudo */\n      dup5\n        /* \"blockpedia.sol\":2710:2865  Versao({\r... */\n      dup2\n      mstore\n      pop\n        /* \"blockpedia.sol\":2690:2866  pagina.versoes.push(Versao({\r... */\n      swap1\n      dup1\n      0x01\n      dup2\n      sload\n      add\n      dup1\n      dup3\n      sstore\n      dup1\n      swap2\n      pop\n      pop\n      0x01\n      swap1\n      sub\n      swap1\n      0x00\n      mstore\n      keccak256(0x00, 0x20)\n      swap1\n      0x03\n      mul\n      add\n      0x00\n      swap1\n      swap2\n      swap1\n      swap2\n      swap1\n      swap2\n      pop\n      0x00\n      dup3\n      add\n      mload\n      dup2\n      0x00\n      add\n      exp(0x0100, 0x00)\n      dup2\n      sload\n      dup2\n      0xff\n      mul\n      not\n      and\n      swap1\n      dup4\n      iszero\n      iszero\n      mul\n      or\n      swap1\n      sstore\n      pop\n      0x20\n      dup3\n      add\n      mload\n      dup2\n      0x00\n      add\n      exp(0x0100, 0x01)\n      dup2\n      sload\n      dup2\n      0xffffffffffffffffffffffffffffffffffffffff\n      mul\n      not\n      and\n      swap1\n      dup4\n      0xffffffffffffffffffffffffffffffffffffffff\n      and\n      mul\n      or\n      swap1\n      sstore\n      pop\n      0x40\n      dup3\n      add\n      mload\n      dup2\n      0x01\n      add\n      sstore\n      0x60\n      dup3\n      add\n      mload\n      dup2\n      0x02\n      add\n      swap1\n      dup1\n      mload\n      swap1\n      0x20\n      add\n      swap1\n      tag_124\n      swap3\n      swap2\n      swap1\n      tag_62\n      jump\t// in\n    tag_124:\n      pop\n      pop\n      pop\n        /* \"blockpedia.sol\":2215:2874  function adicionaNovaVercaoDesativadaAPaginaPorIndexPaginas(uint index, string memory conteudo) public\r... */\n      pop\n      pop\n      pop\n      jump\t// out\n        /* \"blockpedia.sol\":199:222  Pagina[] public paginas */\n    tag_44:\n      0x02\n      dup2\n      dup2\n      sload\n      dup2\n      lt\n      tag_125\n      jumpi\n      0x00\n      dup1\n      revert\n    tag_125:\n      swap1\n      0x00\n      mstore\n      keccak256(0x00, 0x20)\n      swap1\n      0x04\n      mul\n      add\n      0x00\n      swap2\n      pop\n      swap1\n      pop\n      dup1\n      0x00\n      add\n      0x00\n      swap1\n      sload\n      swap1\n      0x0100\n      exp\n      swap1\n      div\n      0xff\n      and\n      swap1\n      dup1\n      0x00\n      add\n      0x01\n      swap1\n      sload\n      swap1\n      0x0100\n      exp\n      swap1\n      div\n      0xffffffffffffffffffffffffffffffffffffffff\n      and\n      swap1\n      dup1\n      0x01\n      add\n      sload\n      swap1\n      dup1\n      0x02\n      add\n      dup1\n      sload\n      tag_127\n      swap1\n      tag_73\n      jump\t// in\n    tag_127:\n      dup1\n      0x1f\n      add\n      0x20\n      dup1\n      swap2\n      div\n      mul\n      0x20\n      add\n      mload(0x40)\n      swap1\n      dup2\n      add\n      0x40\n      mstore\n      dup1\n      swap3\n      swap2\n      swap1\n      dup2\n      dup2\n      mstore\n      0x20\n      add\n      dup3\n      dup1\n      sload\n      tag_128\n      swap1\n      tag_73\n      jump\t// in\n    tag_128:\n      dup1\n      iszero\n      tag_129\n      jumpi\n      dup1\n      0x1f\n      lt\n      tag_130\n      jumpi\n      0x0100\n      dup1\n      dup4\n      sload\n      div\n      mul\n      dup4\n      mstore\n      swap2\n      0x20\n      add\n      swap2\n      jump(tag_129)\n    tag_130:\n      dup3\n      add\n      swap2\n      swap1\n      0x00\n      mstore\n      keccak256(0x00, 0x20)\n      swap1\n    tag_131:\n      dup2\n      sload\n      dup2\n      mstore\n      swap1\n      0x01\n      add\n      swap1\n      0x20\n      add\n      dup1\n      dup4\n      gt\n      tag_131\n      jumpi\n      dup3\n      swap1\n      sub\n      0x1f\n      and\n      dup3\n      add\n      swap2\n    tag_129:\n      pop\n      pop\n      pop\n      pop\n      pop\n      swap1\n      pop\n      dup5\n      jump\t// out\n        /* \"blockpedia.sol\":1118:1641  function tituloExiste(string memory titulo) internal view returns (bool)\r... */\n    tag_56:\n        /* \"blockpedia.sol\":1185:1189  bool */\n      0x00\n        /* \"blockpedia.sol\":1436:1442  uint i */\n      dup1\n        /* \"blockpedia.sol\":1445:1446  0 */\n      0x00\n        /* \"blockpedia.sol\":1436:1446  uint i = 0 */\n      swap1\n      pop\n        /* \"blockpedia.sol\":1431:1611  for (uint i = 0; i < paginas.length; i++)\r... */\n    tag_133:\n        /* \"blockpedia.sol\":1452:1459  paginas */\n      0x02\n        /* \"blockpedia.sol\":1452:1466  paginas.length */\n      dup1\n      sload\n      swap1\n      pop\n        /* \"blockpedia.sol\":1448:1449  i */\n      dup2\n        /* \"blockpedia.sol\":1448:1466  i < paginas.length */\n      lt\n        /* \"blockpedia.sol\":1431:1611  for (uint i = 0; i < paginas.length; i++)\r... */\n      iszero\n      tag_134\n      jumpi\n        /* \"blockpedia.sol\":1578:1584  titulo */\n      dup3\n        /* \"blockpedia.sol\":1561:1585  abi.encodePacked(titulo) */\n      add(0x20, mload(0x40))\n      tag_136\n      swap2\n      swap1\n      tag_137\n      jump\t// in\n    tag_136:\n      mload(0x40)\n      0x20\n      dup2\n      dup4\n      sub\n      sub\n      dup2\n      mstore\n      swap1\n      0x40\n      mstore\n        /* \"blockpedia.sol\":1551:1586  keccak256(abi.encodePacked(titulo)) */\n      dup1\n      mload\n      swap1\n      0x20\n      add\n      keccak256\n        /* \"blockpedia.sol\":1528:1535  paginas */\n      0x02\n        /* \"blockpedia.sol\":1536:1537  i */\n      dup3\n        /* \"blockpedia.sol\":1528:1538  paginas[i] */\n      dup2\n      sload\n      dup2\n      lt\n      tag_138\n      jumpi\n      mstore(0x00, 0x4e487b7100000000000000000000000000000000000000000000000000000000)\n      mstore(0x04, 0x32)\n      revert(0x00, 0x24)\n    tag_138:\n      swap1\n      0x00\n      mstore\n      keccak256(0x00, 0x20)\n      swap1\n      0x04\n      mul\n      add\n        /* \"blockpedia.sol\":1528:1545  paginas[i].titulo */\n      0x02\n      add\n        /* \"blockpedia.sol\":1511:1546  abi.encodePacked(paginas[i].titulo) */\n      add(0x20, mload(0x40))\n      tag_140\n      swap2\n      swap1\n      tag_141\n      jump\t// in\n    tag_140:\n      mload(0x40)\n      0x20\n      dup2\n      dup4\n      sub\n      sub\n      dup2\n      mstore\n      swap1\n      0x40\n      mstore\n        /* \"blockpedia.sol\":1501:1547  keccak256(abi.encodePacked(paginas[i].titulo)) */\n      dup1\n      mload\n      swap1\n      0x20\n      add\n      keccak256\n        /* \"blockpedia.sol\":1501:1586  keccak256(abi.encodePacked(paginas[i].titulo)) == keccak256(abi.encodePacked(titulo)) */\n      eq\n        /* \"blockpedia.sol\":1497:1599  if (keccak256(abi.encodePacked(paginas[i].titulo)) == keccak256(abi.encodePacked(titulo))) return true */\n      iszero\n      tag_142\n      jumpi\n        /* \"blockpedia.sol\":1595:1599  true */\n      0x01\n        /* \"blockpedia.sol\":1588:1599  return true */\n      swap2\n      pop\n      pop\n      jump(tag_132)\n        /* \"blockpedia.sol\":1497:1599  if (keccak256(abi.encodePacked(paginas[i].titulo)) == keccak256(abi.encodePacked(titulo))) return true */\n    tag_142:\n        /* \"blockpedia.sol\":1468:1471  i++ */\n      dup1\n      dup1\n      tag_143\n      swap1\n      tag_108\n      jump\t// in\n    tag_143:\n      swap2\n      pop\n      pop\n        /* \"blockpedia.sol\":1431:1611  for (uint i = 0; i < paginas.length; i++)\r... */\n      jump(tag_133)\n    tag_134:\n      pop\n        /* \"blockpedia.sol\":1628:1633  false */\n      0x00\n        /* \"blockpedia.sol\":1621:1633  return false */\n      swap1\n      pop\n        /* \"blockpedia.sol\":1118:1641  function tituloExiste(string memory titulo) internal view returns (bool)\r... */\n    tag_132:\n      swap2\n      swap1\n      pop\n      jump\t// out\n        /* \"blockpedia.sol\":1900:2207  function getVersaoValidaDeUmaPagina(Pagina memory pagina)internal pure returns (Versao memory)\r... */\n    tag_86:\n        /* \"blockpedia.sol\":1980:1993  Versao memory */\n      tag_144\n      tag_145\n      jump\t// in\n    tag_144:\n        /* \"blockpedia.sol\":2015:2021  uint i */\n      0x00\n        /* \"blockpedia.sol\":2011:2147  for(uint i = 0; i < pagina.versoes.length; i++)\r... */\n    tag_147:\n        /* \"blockpedia.sol\":2031:2037  pagina */\n      dup3\n        /* \"blockpedia.sol\":2031:2045  pagina.versoes */\n      0x80\n      add\n      mload\n        /* \"blockpedia.sol\":2031:2052  pagina.versoes.length */\n      mload\n        /* \"blockpedia.sol\":2027:2028  i */\n      dup2\n        /* \"blockpedia.sol\":2027:2052  i < pagina.versoes.length */\n      lt\n        /* \"blockpedia.sol\":2011:2147  for(uint i = 0; i < pagina.versoes.length; i++)\r... */\n      iszero\n      tag_148\n      jumpi\n        /* \"blockpedia.sol\":2086:2092  pagina */\n      dup3\n        /* \"blockpedia.sol\":2086:2100  pagina.versoes */\n      0x80\n      add\n      mload\n        /* \"blockpedia.sol\":2101:2102  i */\n      dup2\n        /* \"blockpedia.sol\":2086:2103  pagina.versoes[i] */\n      dup2\n      mload\n      dup2\n      lt\n      tag_150\n      jumpi\n      mstore(0x00, 0x4e487b7100000000000000000000000000000000000000000000000000000000)\n      mstore(0x04, 0x32)\n      revert(0x00, 0x24)\n    tag_150:\n      0x20\n      mul\n      0x20\n      add\n      add\n      mload\n        /* \"blockpedia.sol\":2086:2109  pagina.versoes[i].ativo */\n      0x00\n      add\n      mload\n        /* \"blockpedia.sol\":2083:2135  if(pagina.versoes[i].ativo) return pagina.versoes[i] */\n      iszero\n      tag_151\n      jumpi\n        /* \"blockpedia.sol\":2118:2124  pagina */\n      dup3\n        /* \"blockpedia.sol\":2118:2132  pagina.versoes */\n      0x80\n      add\n      mload\n        /* \"blockpedia.sol\":2133:2134  i */\n      dup2\n        /* \"blockpedia.sol\":2118:2135  pagina.versoes[i] */\n      dup2\n      mload\n      dup2\n      lt\n      tag_152\n      jumpi\n      mstore(0x00, 0x4e487b7100000000000000000000000000000000000000000000000000000000)\n      mstore(0x04, 0x32)\n      revert(0x00, 0x24)\n    tag_152:\n      0x20\n      mul\n      0x20\n      add\n      add\n      mload\n        /* \"blockpedia.sol\":2111:2135  return pagina.versoes[i] */\n      swap2\n      pop\n      pop\n      jump(tag_146)\n        /* \"blockpedia.sol\":2083:2135  if(pagina.versoes[i].ativo) return pagina.versoes[i] */\n    tag_151:\n        /* \"blockpedia.sol\":2054:2057  i++ */\n      dup1\n      dup1\n      tag_153\n      swap1\n      tag_108\n      jump\t// in\n    tag_153:\n      swap2\n      pop\n      pop\n        /* \"blockpedia.sol\":2011:2147  for(uint i = 0; i < pagina.versoes.length; i++)\r... */\n      jump(tag_147)\n    tag_148:\n      pop\n        /* \"blockpedia.sol\":2157:2199  revert(\"Nenhuma versao valida encontrada\") */\n      mload(0x40)\n      0x08c379a000000000000000000000000000000000000000000000000000000000\n      dup2\n      mstore\n      0x04\n      add\n      tag_154\n      swap1\n      tag_155\n      jump\t// in\n    tag_154:\n      mload(0x40)\n      dup1\n      swap2\n      sub\n      swap1\n      revert\n        /* \"blockpedia.sol\":1900:2207  function getVersaoValidaDeUmaPagina(Pagina memory pagina)internal pure returns (Versao memory)\r... */\n    tag_146:\n      swap2\n      swap1\n      pop\n      jump\t// out\n    tag_62:\n      dup3\n      dup1\n      sload\n      tag_156\n      swap1\n      tag_73\n      jump\t// in\n    tag_156:\n      swap1\n      0x00\n      mstore\n      keccak256(0x00, 0x20)\n      swap1\n      0x1f\n      add\n      0x20\n      swap1\n      div\n      dup2\n      add\n      swap3\n      dup3\n      tag_158\n      jumpi\n      0x00\n      dup6\n      sstore\n      jump(tag_157)\n    tag_158:\n      dup3\n      0x1f\n      lt\n      tag_159\n      jumpi\n      dup1\n      mload\n      not(0xff)\n      and\n      dup4\n      dup1\n      add\n      or\n      dup6\n      sstore\n      jump(tag_157)\n    tag_159:\n      dup3\n      dup1\n      add\n      0x01\n      add\n      dup6\n      sstore\n      dup3\n      iszero\n      tag_157\n      jumpi\n      swap2\n      dup3\n      add\n    tag_160:\n      dup3\n      dup2\n      gt\n      iszero\n      tag_161\n      jumpi\n      dup3\n      mload\n      dup3\n      sstore\n      swap2\n      0x20\n      add\n      swap2\n      swap1\n      0x01\n      add\n      swap1\n      jump(tag_160)\n    tag_161:\n    tag_157:\n      pop\n      swap1\n      pop\n      tag_162\n      swap2\n      swap1\n      tag_163\n      jump\t// in\n    tag_162:\n      pop\n      swap1\n      jump\t// out\n    tag_145:\n      mload(0x40)\n      dup1\n      0x80\n      add\n      0x40\n      mstore\n      dup1\n      iszero(iszero(0x00))\n      dup2\n      mstore\n      0x20\n      add\n      and(0xffffffffffffffffffffffffffffffffffffffff, 0x00)\n      dup2\n      mstore\n      0x20\n      add\n      0x00\n      dup2\n      mstore\n      0x20\n      add\n      0x60\n      dup2\n      mstore\n      pop\n      swap1\n      jump\t// out\n    tag_163:\n    tag_164:\n      dup1\n      dup3\n      gt\n      iszero\n      tag_165\n      jumpi\n      0x00\n      dup2\n      0x00\n      swap1\n      sstore\n      pop\n      0x01\n      add\n      jump(tag_164)\n    tag_165:\n      pop\n      swap1\n      jump\t// out\n        /* \"#utility.yul\":7:351   */\n    tag_167:\n      0x00\n        /* \"#utility.yul\":110:175   */\n      tag_169\n        /* \"#utility.yul\":125:174   */\n      tag_170\n        /* \"#utility.yul\":167:173   */\n      dup5\n        /* \"#utility.yul\":125:174   */\n      tag_171\n      jump\t// in\n    tag_170:\n        /* \"#utility.yul\":110:175   */\n      tag_172\n      jump\t// in\n    tag_169:\n        /* \"#utility.yul\":101:175   */\n      swap1\n      pop\n        /* \"#utility.yul\":198:204   */\n      dup3\n        /* \"#utility.yul\":191:196   */\n      dup2\n        /* \"#utility.yul\":184:205   */\n      mstore\n        /* \"#utility.yul\":236:240   */\n      0x20\n        /* \"#utility.yul\":229:234   */\n      dup2\n        /* \"#utility.yul\":225:241   */\n      add\n        /* \"#utility.yul\":274:277   */\n      dup5\n        /* \"#utility.yul\":265:271   */\n      dup5\n        /* \"#utility.yul\":260:263   */\n      dup5\n        /* \"#utility.yul\":256:272   */\n      add\n        /* \"#utility.yul\":253:278   */\n      gt\n        /* \"#utility.yul\":250:252   */\n      iszero\n      tag_173\n      jumpi\n        /* \"#utility.yul\":291:292   */\n      0x00\n        /* \"#utility.yul\":288:289   */\n      dup1\n        /* \"#utility.yul\":281:293   */\n      revert\n        /* \"#utility.yul\":250:252   */\n    tag_173:\n        /* \"#utility.yul\":304:345   */\n      tag_174\n        /* \"#utility.yul\":338:344   */\n      dup5\n        /* \"#utility.yul\":333:336   */\n      dup3\n        /* \"#utility.yul\":328:331   */\n      dup6\n        /* \"#utility.yul\":304:345   */\n      tag_175\n      jump\t// in\n    tag_174:\n        /* \"#utility.yul\":91:351   */\n      pop\n      swap4\n      swap3\n      pop\n      pop\n      pop\n      jump\t// out\n        /* \"#utility.yul\":357:490   */\n    tag_176:\n      0x00\n        /* \"#utility.yul\":438:444   */\n      dup2\n        /* \"#utility.yul\":425:445   */\n      calldataload\n        /* \"#utility.yul\":416:445   */\n      swap1\n      pop\n        /* \"#utility.yul\":454:484   */\n      tag_178\n        /* \"#utility.yul\":478:483   */\n      dup2\n        /* \"#utility.yul\":454:484   */\n      tag_179\n      jump\t// in\n    tag_178:\n        /* \"#utility.yul\":406:490   */\n      swap3\n      swap2\n      pop\n      pop\n      jump\t// out\n        /* \"#utility.yul\":510:783   */\n    tag_180:\n      0x00\n        /* \"#utility.yul\":615:618   */\n      dup3\n        /* \"#utility.yul\":608:612   */\n      0x1f\n        /* \"#utility.yul\":600:606   */\n      dup4\n        /* \"#utility.yul\":596:613   */\n      add\n        /* \"#utility.yul\":592:619   */\n      slt\n        /* \"#utility.yul\":582:584   */\n      tag_182\n      jumpi\n        /* \"#utility.yul\":633:634   */\n      0x00\n        /* \"#utility.yul\":630:631   */\n      dup1\n        /* \"#utility.yul\":623:635   */\n      revert\n        /* \"#utility.yul\":582:584   */\n    tag_182:\n        /* \"#utility.yul\":673:679   */\n      dup2\n        /* \"#utility.yul\":660:680   */\n      calldataload\n        /* \"#utility.yul\":698:777   */\n      tag_183\n        /* \"#utility.yul\":773:776   */\n      dup5\n        /* \"#utility.yul\":765:771   */\n      dup3\n        /* \"#utility.yul\":758:762   */\n      0x20\n        /* \"#utility.yul\":750:756   */\n      dup7\n        /* \"#utility.yul\":746:763   */\n      add\n        /* \"#utility.yul\":698:777   */\n      tag_167\n      jump\t// in\n    tag_183:\n        /* \"#utility.yul\":689:777   */\n      swap2\n      pop\n        /* \"#utility.yul\":572:783   */\n      pop\n      swap3\n      swap2\n      pop\n      pop\n      jump\t// out\n        /* \"#utility.yul\":789:928   */\n    tag_184:\n      0x00\n        /* \"#utility.yul\":873:879   */\n      dup2\n        /* \"#utility.yul\":860:880   */\n      calldataload\n        /* \"#utility.yul\":851:880   */\n      swap1\n      pop\n        /* \"#utility.yul\":889:922   */\n      tag_186\n        /* \"#utility.yul\":916:921   */\n      dup2\n        /* \"#utility.yul\":889:922   */\n      tag_187\n      jump\t// in\n    tag_186:\n        /* \"#utility.yul\":841:928   */\n      swap3\n      swap2\n      pop\n      pop\n      jump\t// out\n        /* \"#utility.yul\":934:1190   */\n    tag_18:\n      0x00\n        /* \"#utility.yul\":1039:1041   */\n      0x20\n        /* \"#utility.yul\":1027:1036   */\n      dup3\n        /* \"#utility.yul\":1018:1025   */\n      dup5\n        /* \"#utility.yul\":1014:1037   */\n      sub\n        /* \"#utility.yul\":1010:1042   */\n      slt\n        /* \"#utility.yul\":1007:1009   */\n      iszero\n      tag_189\n      jumpi\n        /* \"#utility.yul\":1055:1056   */\n      0x00\n        /* \"#utility.yul\":1052:1053   */\n      dup1\n        /* \"#utility.yul\":1045:1057   */\n      revert\n        /* \"#utility.yul\":1007:1009   */\n    tag_189:\n        /* \"#utility.yul\":1098:1099   */\n      0x00\n        /* \"#utility.yul\":1123:1173   */\n      tag_190\n        /* \"#utility.yul\":1165:1172   */\n      dup5\n        /* \"#utility.yul\":1156:1162   */\n      dup3\n        /* \"#utility.yul\":1145:1154   */\n      dup6\n        /* \"#utility.yul\":1141:1163   */\n      add\n        /* \"#utility.yul\":1123:1173   */\n      tag_176\n      jump\t// in\n    tag_190:\n        /* \"#utility.yul\":1113:1173   */\n      swap2\n      pop\n        /* \"#utility.yul\":1069:1183   */\n      pop\n        /* \"#utility.yul\":997:1190   */\n      swap3\n      swap2\n      pop\n      pop\n      jump\t// out\n        /* \"#utility.yul\":1196:1829   */\n    tag_22:\n      0x00\n      dup1\n        /* \"#utility.yul\":1341:1343   */\n      0x40\n        /* \"#utility.yul\":1329:1338   */\n      dup4\n        /* \"#utility.yul\":1320:1327   */\n      dup6\n        /* \"#utility.yul\":1316:1339   */\n      sub\n        /* \"#utility.yul\":1312:1344   */\n      slt\n        /* \"#utility.yul\":1309:1311   */\n      iszero\n      tag_192\n      jumpi\n        /* \"#utility.yul\":1357:1358   */\n      0x00\n        /* \"#utility.yul\":1354:1355   */\n      dup1\n        /* \"#utility.yul\":1347:1359   */\n      revert\n        /* \"#utility.yul\":1309:1311   */\n    tag_192:\n        /* \"#utility.yul\":1428:1429   */\n      0x00\n        /* \"#utility.yul\":1417:1426   */\n      dup4\n        /* \"#utility.yul\":1413:1430   */\n      add\n        /* \"#utility.yul\":1400:1431   */\n      calldataload\n        /* \"#utility.yul\":1458:1476   */\n      0xffffffffffffffff\n        /* \"#utility.yul\":1450:1456   */\n      dup2\n        /* \"#utility.yul\":1447:1477   */\n      gt\n        /* \"#utility.yul\":1444:1446   */\n      iszero\n      tag_193\n      jumpi\n        /* \"#utility.yul\":1490:1491   */\n      0x00\n        /* \"#utility.yul\":1487:1488   */\n      dup1\n        /* \"#utility.yul\":1480:1492   */\n      revert\n        /* \"#utility.yul\":1444:1446   */\n    tag_193:\n        /* \"#utility.yul\":1518:1581   */\n      tag_194\n        /* \"#utility.yul\":1573:1580   */\n      dup6\n        /* \"#utility.yul\":1564:1570   */\n      dup3\n        /* \"#utility.yul\":1553:1562   */\n      dup7\n        /* \"#utility.yul\":1549:1571   */\n      add\n        /* \"#utility.yul\":1518:1581   */\n      tag_180\n      jump\t// in\n    tag_194:\n        /* \"#utility.yul\":1508:1581   */\n      swap3\n      pop\n        /* \"#utility.yul\":1371:1591   */\n      pop\n        /* \"#utility.yul\":1658:1660   */\n      0x20\n        /* \"#utility.yul\":1647:1656   */\n      dup4\n        /* \"#utility.yul\":1643:1661   */\n      add\n        /* \"#utility.yul\":1630:1662   */\n      calldataload\n        /* \"#utility.yul\":1689:1707   */\n      0xffffffffffffffff\n        /* \"#utility.yul\":1681:1687   */\n      dup2\n        /* \"#utility.yul\":1678:1708   */\n      gt\n        /* \"#utility.yul\":1675:1677   */\n      iszero\n      tag_195\n      jumpi\n        /* \"#utility.yul\":1721:1722   */\n      0x00\n        /* \"#utility.yul\":1718:1719   */\n      dup1\n        /* \"#utility.yul\":1711:1723   */\n      revert\n        /* \"#utility.yul\":1675:1677   */\n    tag_195:\n        /* \"#utility.yul\":1749:1812   */\n      tag_196\n        /* \"#utility.yul\":1804:1811   */\n      dup6\n        /* \"#utility.yul\":1795:1801   */\n      dup3\n        /* \"#utility.yul\":1784:1793   */\n      dup7\n        /* \"#utility.yul\":1780:1802   */\n      add\n        /* \"#utility.yul\":1749:1812   */\n      tag_180\n      jump\t// in\n    tag_196:\n        /* \"#utility.yul\":1739:1812   */\n      swap2\n      pop\n        /* \"#utility.yul\":1601:1822   */\n      pop\n        /* \"#utility.yul\":1299:1829   */\n      swap3\n      pop\n      swap3\n      swap1\n      pop\n      jump\t// out\n        /* \"#utility.yul\":1835:2097   */\n    tag_26:\n      0x00\n        /* \"#utility.yul\":1943:1945   */\n      0x20\n        /* \"#utility.yul\":1931:1940   */\n      dup3\n        /* \"#utility.yul\":1922:1929   */\n      dup5\n        /* \"#utility.yul\":1918:1941   */\n      sub\n        /* \"#utility.yul\":1914:1946   */\n      slt\n        /* \"#utility.yul\":1911:1913   */\n      iszero\n      tag_198\n      jumpi\n        /* \"#utility.yul\":1959:1960   */\n      0x00\n        /* \"#utility.yul\":1956:1957   */\n      dup1\n        /* \"#utility.yul\":1949:1961   */\n      revert\n        /* \"#utility.yul\":1911:1913   */\n    tag_198:\n        /* \"#utility.yul\":2002:2003   */\n      0x00\n        /* \"#utility.yul\":2027:2080   */\n      tag_199\n        /* \"#utility.yul\":2072:2079   */\n      dup5\n        /* \"#utility.yul\":2063:2069   */\n      dup3\n        /* \"#utility.yul\":2052:2061   */\n      dup6\n        /* \"#utility.yul\":2048:2070   */\n      add\n        /* \"#utility.yul\":2027:2080   */\n      tag_184\n      jump\t// in\n    tag_199:\n        /* \"#utility.yul\":2017:2080   */\n      swap2\n      pop\n        /* \"#utility.yul\":1973:2090   */\n      pop\n        /* \"#utility.yul\":1901:2097   */\n      swap3\n      swap2\n      pop\n      pop\n      jump\t// out\n        /* \"#utility.yul\":2103:2623   */\n    tag_40:\n      0x00\n      dup1\n        /* \"#utility.yul\":2238:2240   */\n      0x40\n        /* \"#utility.yul\":2226:2235   */\n      dup4\n        /* \"#utility.yul\":2217:2224   */\n      dup6\n        /* \"#utility.yul\":2213:2236   */\n      sub\n        /* \"#utility.yul\":2209:2241   */\n      slt\n        /* \"#utility.yul\":2206:2208   */\n      iszero\n      tag_201\n      jumpi\n        /* \"#utility.yul\":2254:2255   */\n      0x00\n        /* \"#utility.yul\":2251:2252   */\n      dup1\n        /* \"#utility.yul\":2244:2256   */\n      revert\n        /* \"#utility.yul\":2206:2208   */\n    tag_201:\n        /* \"#utility.yul\":2297:2298   */\n      0x00\n        /* \"#utility.yul\":2322:2375   */\n      tag_202\n        /* \"#utility.yul\":2367:2374   */\n      dup6\n        /* \"#utility.yul\":2358:2364   */\n      dup3\n        /* \"#utility.yul\":2347:2356   */\n      dup7\n        /* \"#utility.yul\":2343:2365   */\n      add\n        /* \"#utility.yul\":2322:2375   */\n      tag_184\n      jump\t// in\n    tag_202:\n        /* \"#utility.yul\":2312:2375   */\n      swap3\n      pop\n        /* \"#utility.yul\":2268:2385   */\n      pop\n        /* \"#utility.yul\":2452:2454   */\n      0x20\n        /* \"#utility.yul\":2441:2450   */\n      dup4\n        /* \"#utility.yul\":2437:2455   */\n      add\n        /* \"#utility.yul\":2424:2456   */\n      calldataload\n        /* \"#utility.yul\":2483:2501   */\n      0xffffffffffffffff\n        /* \"#utility.yul\":2475:2481   */\n      dup2\n        /* \"#utility.yul\":2472:2502   */\n      gt\n        /* \"#utility.yul\":2469:2471   */\n      iszero\n      tag_203\n      jumpi\n        /* \"#utility.yul\":2515:2516   */\n      0x00\n        /* \"#utility.yul\":2512:2513   */\n      dup1\n        /* \"#utility.yul\":2505:2517   */\n      revert\n        /* \"#utility.yul\":2469:2471   */\n    tag_203:\n        /* \"#utility.yul\":2543:2606   */\n      tag_204\n        /* \"#utility.yul\":2598:2605   */\n      dup6\n        /* \"#utility.yul\":2589:2595   */\n      dup3\n        /* \"#utility.yul\":2578:2587   */\n      dup7\n        /* \"#utility.yul\":2574:2596   */\n      add\n        /* \"#utility.yul\":2543:2606   */\n      tag_180\n      jump\t// in\n    tag_204:\n        /* \"#utility.yul\":2533:2606   */\n      swap2\n      pop\n        /* \"#utility.yul\":2395:2616   */\n      pop\n        /* \"#utility.yul\":2196:2623   */\n      swap3\n      pop\n      swap3\n      swap1\n      pop\n      jump\t// out\n        /* \"#utility.yul\":2629:3036   */\n    tag_32:\n      0x00\n      dup1\n        /* \"#utility.yul\":2754:2756   */\n      0x40\n        /* \"#utility.yul\":2742:2751   */\n      dup4\n        /* \"#utility.yul\":2733:2740   */\n      dup6\n        /* \"#utility.yul\":2729:2752   */\n      sub\n        /* \"#utility.yul\":2725:2757   */\n      slt\n        /* \"#utility.yul\":2722:2724   */\n      iszero\n      tag_206\n      jumpi\n        /* \"#utility.yul\":2770:2771   */\n      0x00\n        /* \"#utility.yul\":2767:2768   */\n      dup1\n        /* \"#utility.yul\":2760:2772   */\n      revert\n        /* \"#utility.yul\":2722:2724   */\n    tag_206:\n        /* \"#utility.yul\":2813:2814   */\n      0x00\n        /* \"#utility.yul\":2838:2891   */\n      tag_207\n        /* \"#utility.yul\":2883:2890   */\n      dup6\n        /* \"#utility.yul\":2874:2880   */\n      dup3\n        /* \"#utility.yul\":2863:2872   */\n      dup7\n        /* \"#utility.yul\":2859:2881   */\n      add\n        /* \"#utility.yul\":2838:2891   */\n      tag_184\n      jump\t// in\n    tag_207:\n        /* \"#utility.yul\":2828:2891   */\n      swap3\n      pop\n        /* \"#utility.yul\":2784:2901   */\n      pop\n        /* \"#utility.yul\":2940:2942   */\n      0x20\n        /* \"#utility.yul\":2966:3019   */\n      tag_208\n        /* \"#utility.yul\":3011:3018   */\n      dup6\n        /* \"#utility.yul\":3002:3008   */\n      dup3\n        /* \"#utility.yul\":2991:3000   */\n      dup7\n        /* \"#utility.yul\":2987:3009   */\n      add\n        /* \"#utility.yul\":2966:3019   */\n      tag_184\n      jump\t// in\n    tag_208:\n        /* \"#utility.yul\":2956:3019   */\n      swap2\n      pop\n        /* \"#utility.yul\":2911:3029   */\n      pop\n        /* \"#utility.yul\":2712:3036   */\n      swap3\n      pop\n      swap3\n      swap1\n      pop\n      jump\t// out\n        /* \"#utility.yul\":3042:3160   */\n    tag_209:\n        /* \"#utility.yul\":3129:3153   */\n      tag_211\n        /* \"#utility.yul\":3147:3152   */\n      dup2\n        /* \"#utility.yul\":3129:3153   */\n      tag_212\n      jump\t// in\n    tag_211:\n        /* \"#utility.yul\":3124:3127   */\n      dup3\n        /* \"#utility.yul\":3117:3154   */\n      mstore\n        /* \"#utility.yul\":3107:3160   */\n      pop\n      pop\n      jump\t// out\n        /* \"#utility.yul\":3166:3275   */\n    tag_213:\n        /* \"#utility.yul\":3247:3268   */\n      tag_215\n        /* \"#utility.yul\":3262:3267   */\n      dup2\n        /* \"#utility.yul\":3247:3268   */\n      tag_216\n      jump\t// in\n    tag_215:\n        /* \"#utility.yul\":3242:3245   */\n      dup3\n        /* \"#utility.yul\":3235:3269   */\n      mstore\n        /* \"#utility.yul\":3225:3275   */\n      pop\n      pop\n      jump\t// out\n        /* \"#utility.yul\":3281:3645   */\n    tag_217:\n      0x00\n        /* \"#utility.yul\":3397:3436   */\n      tag_219\n        /* \"#utility.yul\":3430:3435   */\n      dup3\n        /* \"#utility.yul\":3397:3436   */\n      tag_220\n      jump\t// in\n    tag_219:\n        /* \"#utility.yul\":3452:3523   */\n      tag_221\n        /* \"#utility.yul\":3516:3522   */\n      dup2\n        /* \"#utility.yul\":3511:3514   */\n      dup6\n        /* \"#utility.yul\":3452:3523   */\n      tag_222\n      jump\t// in\n    tag_221:\n        /* \"#utility.yul\":3445:3523   */\n      swap4\n      pop\n        /* \"#utility.yul\":3532:3584   */\n      tag_223\n        /* \"#utility.yul\":3577:3583   */\n      dup2\n        /* \"#utility.yul\":3572:3575   */\n      dup6\n        /* \"#utility.yul\":3565:3569   */\n      0x20\n        /* \"#utility.yul\":3558:3563   */\n      dup7\n        /* \"#utility.yul\":3554:3570   */\n      add\n        /* \"#utility.yul\":3532:3584   */\n      tag_224\n      jump\t// in\n    tag_223:\n        /* \"#utility.yul\":3609:3638   */\n      tag_225\n        /* \"#utility.yul\":3631:3637   */\n      dup2\n        /* \"#utility.yul\":3609:3638   */\n      tag_226\n      jump\t// in\n    tag_225:\n        /* \"#utility.yul\":3604:3607   */\n      dup5\n        /* \"#utility.yul\":3600:3639   */\n      add\n        /* \"#utility.yul\":3593:3639   */\n      swap2\n      pop\n        /* \"#utility.yul\":3373:3645   */\n      pop\n      swap3\n      swap2\n      pop\n      pop\n      jump\t// out\n        /* \"#utility.yul\":3651:4028   */\n    tag_227:\n      0x00\n        /* \"#utility.yul\":3785:3824   */\n      tag_229\n        /* \"#utility.yul\":3818:3823   */\n      dup3\n        /* \"#utility.yul\":3785:3824   */\n      tag_220\n      jump\t// in\n    tag_229:\n        /* \"#utility.yul\":3840:3929   */\n      tag_230\n        /* \"#utility.yul\":3922:3928   */\n      dup2\n        /* \"#utility.yul\":3917:3920   */\n      dup6\n        /* \"#utility.yul\":3840:3929   */\n      tag_231\n      jump\t// in\n    tag_230:\n        /* \"#utility.yul\":3833:3929   */\n      swap4\n      pop\n        /* \"#utility.yul\":3938:3990   */\n      tag_232\n        /* \"#utility.yul\":3983:3989   */\n      dup2\n        /* \"#utility.yul\":3978:3981   */\n      dup6\n        /* \"#utility.yul\":3971:3975   */\n      0x20\n        /* \"#utility.yul\":3964:3969   */\n      dup7\n        /* \"#utility.yul\":3960:3976   */\n      add\n        /* \"#utility.yul\":3938:3990   */\n      tag_224\n      jump\t// in\n    tag_232:\n        /* \"#utility.yul\":4015:4021   */\n      dup1\n        /* \"#utility.yul\":4010:4013   */\n      dup5\n        /* \"#utility.yul\":4006:4022   */\n      add\n        /* \"#utility.yul\":3999:4022   */\n      swap2\n      pop\n        /* \"#utility.yul\":3761:4028   */\n      pop\n      swap3\n      swap2\n      pop\n      pop\n      jump\t// out\n        /* \"#utility.yul\":4058:4903   */\n    tag_233:\n      0x00\n        /* \"#utility.yul\":4198:4203   */\n      dup2\n        /* \"#utility.yul\":4192:4204   */\n      sload\n        /* \"#utility.yul\":4227:4263   */\n      tag_235\n        /* \"#utility.yul\":4253:4262   */\n      dup2\n        /* \"#utility.yul\":4227:4263   */\n      tag_73\n      jump\t// in\n    tag_235:\n        /* \"#utility.yul\":4279:4368   */\n      tag_236\n        /* \"#utility.yul\":4361:4367   */\n      dup2\n        /* \"#utility.yul\":4356:4359   */\n      dup7\n        /* \"#utility.yul\":4279:4368   */\n      tag_231\n      jump\t// in\n    tag_236:\n        /* \"#utility.yul\":4272:4368   */\n      swap5\n      pop\n        /* \"#utility.yul\":4399:4400   */\n      0x01\n        /* \"#utility.yul\":4388:4397   */\n      dup3\n        /* \"#utility.yul\":4384:4401   */\n      and\n        /* \"#utility.yul\":4415:4416   */\n      0x00\n        /* \"#utility.yul\":4410:4547   */\n      dup2\n      eq\n      tag_238\n      jumpi\n        /* \"#utility.yul\":4561:4562   */\n      0x01\n        /* \"#utility.yul\":4556:4897   */\n      dup2\n      eq\n      tag_239\n      jumpi\n        /* \"#utility.yul\":4377:4897   */\n      jump(tag_237)\n        /* \"#utility.yul\":4410:4547   */\n    tag_238:\n        /* \"#utility.yul\":4494:4498   */\n      0xff\n        /* \"#utility.yul\":4490:4499   */\n      not\n        /* \"#utility.yul\":4479:4488   */\n      dup4\n        /* \"#utility.yul\":4475:4500   */\n      and\n        /* \"#utility.yul\":4470:4473   */\n      dup7\n        /* \"#utility.yul\":4463:4501   */\n      mstore\n        /* \"#utility.yul\":4530:4536   */\n      dup2\n        /* \"#utility.yul\":4525:4528   */\n      dup7\n        /* \"#utility.yul\":4521:4537   */\n      add\n        /* \"#utility.yul\":4514:4537   */\n      swap4\n      pop\n        /* \"#utility.yul\":4410:4547   */\n      jump(tag_237)\n        /* \"#utility.yul\":4556:4897   */\n    tag_239:\n        /* \"#utility.yul\":4623:4661   */\n      tag_240\n        /* \"#utility.yul\":4655:4660   */\n      dup6\n        /* \"#utility.yul\":4623:4661   */\n      tag_241\n      jump\t// in\n    tag_240:\n        /* \"#utility.yul\":4683:4684   */\n      0x00\n        /* \"#utility.yul\":4697:4851   */\n    tag_242:\n        /* \"#utility.yul\":4711:4717   */\n      dup4\n        /* \"#utility.yul\":4708:4709   */\n      dup2\n        /* \"#utility.yul\":4705:4718   */\n      lt\n        /* \"#utility.yul\":4697:4851   */\n      iszero\n      tag_244\n      jumpi\n        /* \"#utility.yul\":4785:4792   */\n      dup2\n        /* \"#utility.yul\":4779:4793   */\n      sload\n        /* \"#utility.yul\":4775:4776   */\n      dup2\n        /* \"#utility.yul\":4770:4773   */\n      dup10\n        /* \"#utility.yul\":4766:4777   */\n      add\n        /* \"#utility.yul\":4759:4794   */\n      mstore\n        /* \"#utility.yul\":4835:4836   */\n      0x01\n        /* \"#utility.yul\":4826:4833   */\n      dup3\n        /* \"#utility.yul\":4822:4837   */\n      add\n        /* \"#utility.yul\":4811:4837   */\n      swap2\n      pop\n        /* \"#utility.yul\":4733:4737   */\n      0x20\n        /* \"#utility.yul\":4730:4731   */\n      dup2\n        /* \"#utility.yul\":4726:4738   */\n      add\n        /* \"#utility.yul\":4721:4738   */\n      swap1\n      pop\n        /* \"#utility.yul\":4697:4851   */\n      jump(tag_242)\n    tag_244:\n        /* \"#utility.yul\":4880:4886   */\n      dup4\n        /* \"#utility.yul\":4875:4878   */\n      dup9\n        /* \"#utility.yul\":4871:4887   */\n      add\n        /* \"#utility.yul\":4864:4887   */\n      swap6\n      pop\n        /* \"#utility.yul\":4563:4897   */\n      pop\n      pop\n        /* \"#utility.yul\":4377:4897   */\n    tag_237:\n      pop\n        /* \"#utility.yul\":4165:4903   */\n      pop\n      pop\n      swap3\n      swap2\n      pop\n      pop\n      jump\t// out\n        /* \"#utility.yul\":4909:5239   */\n    tag_245:\n      0x00\n        /* \"#utility.yul\":5072:5139   */\n      tag_247\n        /* \"#utility.yul\":5136:5138   */\n      0x20\n        /* \"#utility.yul\":5131:5134   */\n      dup4\n        /* \"#utility.yul\":5072:5139   */\n      tag_222\n      jump\t// in\n    tag_247:\n        /* \"#utility.yul\":5065:5139   */\n      swap2\n      pop\n        /* \"#utility.yul\":5169:5203   */\n      0x4e656e68756d612076657273616f2076616c69646120656e636f6e7472616461\n        /* \"#utility.yul\":5165:5166   */\n      0x00\n        /* \"#utility.yul\":5160:5163   */\n      dup4\n        /* \"#utility.yul\":5156:5167   */\n      add\n        /* \"#utility.yul\":5149:5204   */\n      mstore\n        /* \"#utility.yul\":5230:5232   */\n      0x20\n        /* \"#utility.yul\":5225:5228   */\n      dup3\n        /* \"#utility.yul\":5221:5233   */\n      add\n        /* \"#utility.yul\":5214:5233   */\n      swap1\n      pop\n        /* \"#utility.yul\":5055:5239   */\n      swap2\n      swap1\n      pop\n      jump\t// out\n        /* \"#utility.yul\":5245:5613   */\n    tag_248:\n      0x00\n        /* \"#utility.yul\":5408:5475   */\n      tag_250\n        /* \"#utility.yul\":5472:5474   */\n      0x24\n        /* \"#utility.yul\":5467:5470   */\n      dup4\n        /* \"#utility.yul\":5408:5475   */\n      tag_222\n      jump\t// in\n    tag_250:\n        /* \"#utility.yul\":5401:5475   */\n      swap2\n      pop\n        /* \"#utility.yul\":5505:5539   */\n      0x556d6120706167696e6120636f6d206573746520746974756c6f206a61206578\n        /* \"#utility.yul\":5501:5502   */\n      0x00\n        /* \"#utility.yul\":5496:5499   */\n      dup4\n        /* \"#utility.yul\":5492:5503   */\n      add\n        /* \"#utility.yul\":5485:5540   */\n      mstore\n        /* \"#utility.yul\":5571:5577   */\n      0x6973746500000000000000000000000000000000000000000000000000000000\n        /* \"#utility.yul\":5566:5568   */\n      0x20\n        /* \"#utility.yul\":5561:5564   */\n      dup4\n        /* \"#utility.yul\":5557:5569   */\n      add\n        /* \"#utility.yul\":5550:5578   */\n      mstore\n        /* \"#utility.yul\":5604:5606   */\n      0x40\n        /* \"#utility.yul\":5599:5602   */\n      dup3\n        /* \"#utility.yul\":5595:5607   */\n      add\n        /* \"#utility.yul\":5588:5607   */\n      swap1\n      pop\n        /* \"#utility.yul\":5391:5613   */\n      swap2\n      swap1\n      pop\n      jump\t// out\n        /* \"#utility.yul\":5619:6052   */\n    tag_251:\n      0x00\n        /* \"#utility.yul\":5782:5849   */\n      tag_253\n        /* \"#utility.yul\":5846:5848   */\n      0x43\n        /* \"#utility.yul\":5841:5844   */\n      dup4\n        /* \"#utility.yul\":5782:5849   */\n      tag_222\n      jump\t// in\n    tag_253:\n        /* \"#utility.yul\":5775:5849   */\n      swap2\n      pop\n        /* \"#utility.yul\":5879:5913   */\n      0x412061646963616f206465206e6f76617320766572636f657320736f20652070\n        /* \"#utility.yul\":5875:5876   */\n      0x00\n        /* \"#utility.yul\":5870:5873   */\n      dup4\n        /* \"#utility.yul\":5866:5877   */\n      add\n        /* \"#utility.yul\":5859:5914   */\n      mstore\n        /* \"#utility.yul\":5945:5979   */\n      0x65726d6974696461207175616e646f206120706167696e612065737461206174\n        /* \"#utility.yul\":5940:5942   */\n      0x20\n        /* \"#utility.yul\":5935:5938   */\n      dup4\n        /* \"#utility.yul\":5931:5943   */\n      add\n        /* \"#utility.yul\":5924:5980   */\n      mstore\n        /* \"#utility.yul\":6011:6016   */\n      0x6976610000000000000000000000000000000000000000000000000000000000\n        /* \"#utility.yul\":6006:6008   */\n      0x40\n        /* \"#utility.yul\":6001:6004   */\n      dup4\n        /* \"#utility.yul\":5997:6009   */\n      add\n        /* \"#utility.yul\":5990:6017   */\n      mstore\n        /* \"#utility.yul\":6043:6045   */\n      0x60\n        /* \"#utility.yul\":6038:6041   */\n      dup3\n        /* \"#utility.yul\":6034:6046   */\n      add\n        /* \"#utility.yul\":6027:6046   */\n      swap1\n      pop\n        /* \"#utility.yul\":5765:6052   */\n      swap2\n      swap1\n      pop\n      jump\t// out\n        /* \"#utility.yul\":6058:6382   */\n    tag_254:\n      0x00\n        /* \"#utility.yul\":6221:6288   */\n      tag_256\n        /* \"#utility.yul\":6285:6287   */\n      0x1a\n        /* \"#utility.yul\":6280:6283   */\n      dup4\n        /* \"#utility.yul\":6221:6288   */\n      tag_222\n      jump\t// in\n    tag_256:\n        /* \"#utility.yul\":6214:6288   */\n      swap2\n      pop\n        /* \"#utility.yul\":6318:6346   */\n      0x496e6469636520646120706167696e6120696e76616c69646f2e000000000000\n        /* \"#utility.yul\":6314:6315   */\n      0x00\n        /* \"#utility.yul\":6309:6312   */\n      dup4\n        /* \"#utility.yul\":6305:6316   */\n      add\n        /* \"#utility.yul\":6298:6347   */\n      mstore\n        /* \"#utility.yul\":6373:6375   */\n      0x20\n        /* \"#utility.yul\":6368:6371   */\n      dup3\n        /* \"#utility.yul\":6364:6376   */\n      add\n        /* \"#utility.yul\":6357:6376   */\n      swap1\n      pop\n        /* \"#utility.yul\":6204:6382   */\n      swap2\n      swap1\n      pop\n      jump\t// out\n        /* \"#utility.yul\":6388:6712   */\n    tag_257:\n      0x00\n        /* \"#utility.yul\":6551:6618   */\n      tag_259\n        /* \"#utility.yul\":6615:6617   */\n      0x1a\n        /* \"#utility.yul\":6610:6613   */\n      dup4\n        /* \"#utility.yul\":6551:6618   */\n      tag_222\n      jump\t// in\n    tag_259:\n        /* \"#utility.yul\":6544:6618   */\n      swap2\n      pop\n        /* \"#utility.yul\":6648:6676   */\n      0x496e646963652064612076657273736f20696e76616c69646f2e000000000000\n        /* \"#utility.yul\":6644:6645   */\n      0x00\n        /* \"#utility.yul\":6639:6642   */\n      dup4\n        /* \"#utility.yul\":6635:6646   */\n      add\n        /* \"#utility.yul\":6628:6677   */\n      mstore\n        /* \"#utility.yul\":6703:6705   */\n      0x20\n        /* \"#utility.yul\":6698:6701   */\n      dup3\n        /* \"#utility.yul\":6694:6706   */\n      add\n        /* \"#utility.yul\":6687:6706   */\n      swap1\n      pop\n        /* \"#utility.yul\":6534:6712   */\n      swap2\n      swap1\n      pop\n      jump\t// out\n        /* \"#utility.yul\":6718:7038   */\n    tag_260:\n      0x00\n        /* \"#utility.yul\":6881:6948   */\n      tag_262\n        /* \"#utility.yul\":6945:6947   */\n      0x16\n        /* \"#utility.yul\":6940:6943   */\n      dup4\n        /* \"#utility.yul\":6881:6948   */\n      tag_222\n      jump\t// in\n    tag_262:\n        /* \"#utility.yul\":6874:6948   */\n      swap2\n      pop\n        /* \"#utility.yul\":6978:7002   */\n      0x496e6469636520666f726120646f20616c63616e636500000000000000000000\n        /* \"#utility.yul\":6974:6975   */\n      0x00\n        /* \"#utility.yul\":6969:6972   */\n      dup4\n        /* \"#utility.yul\":6965:6976   */\n      add\n        /* \"#utility.yul\":6958:7003   */\n      mstore\n        /* \"#utility.yul\":7029:7031   */\n      0x20\n        /* \"#utility.yul\":7024:7027   */\n      dup3\n        /* \"#utility.yul\":7020:7032   */\n      add\n        /* \"#utility.yul\":7013:7032   */\n      swap1\n      pop\n        /* \"#utility.yul\":6864:7038   */\n      swap2\n      swap1\n      pop\n      jump\t// out\n        /* \"#utility.yul\":7044:7437   */\n    tag_263:\n      0x00\n        /* \"#utility.yul\":7207:7274   */\n      tag_265\n        /* \"#utility.yul\":7271:7273   */\n      0x3d\n        /* \"#utility.yul\":7266:7269   */\n      dup4\n        /* \"#utility.yul\":7207:7274   */\n      tag_222\n      jump\t// in\n    tag_265:\n        /* \"#utility.yul\":7200:7274   */\n      swap2\n      pop\n        /* \"#utility.yul\":7304:7338   */\n      0x536f6d656e7465206f20646f6e6f20646573746120426c6f636b706564696120\n        /* \"#utility.yul\":7300:7301   */\n      0x00\n        /* \"#utility.yul\":7295:7298   */\n      dup4\n        /* \"#utility.yul\":7291:7302   */\n      add\n        /* \"#utility.yul\":7284:7339   */\n      mstore\n        /* \"#utility.yul\":7370:7401   */\n      0x706f646520616c7465726172206f20617472696275746f20617469766f000000\n        /* \"#utility.yul\":7365:7367   */\n      0x20\n        /* \"#utility.yul\":7360:7363   */\n      dup4\n        /* \"#utility.yul\":7356:7368   */\n      add\n        /* \"#utility.yul\":7349:7402   */\n      mstore\n        /* \"#utility.yul\":7428:7430   */\n      0x40\n        /* \"#utility.yul\":7423:7426   */\n      dup3\n        /* \"#utility.yul\":7419:7431   */\n      add\n        /* \"#utility.yul\":7412:7431   */\n      swap1\n      pop\n        /* \"#utility.yul\":7190:7437   */\n      swap2\n      swap1\n      pop\n      jump\t// out\n        /* \"#utility.yul\":7443:7880   */\n    tag_266:\n      0x00\n        /* \"#utility.yul\":7606:7673   */\n      tag_268\n        /* \"#utility.yul\":7670:7672   */\n      0x47\n        /* \"#utility.yul\":7665:7668   */\n      dup4\n        /* \"#utility.yul\":7606:7673   */\n      tag_222\n      jump\t// in\n    tag_268:\n        /* \"#utility.yul\":7599:7673   */\n      swap2\n      pop\n        /* \"#utility.yul\":7703:7737   */\n      0x412061646963616f206465206e6f76617320706167696e617320736f20652070\n        /* \"#utility.yul\":7699:7700   */\n      0x00\n        /* \"#utility.yul\":7694:7697   */\n      dup4\n        /* \"#utility.yul\":7690:7701   */\n      add\n        /* \"#utility.yul\":7683:7738   */\n      mstore\n        /* \"#utility.yul\":7769:7803   */\n      0x65726d6974696461207175616e646f206120426c6f636b706564696120657374\n        /* \"#utility.yul\":7764:7766   */\n      0x20\n        /* \"#utility.yul\":7759:7762   */\n      dup4\n        /* \"#utility.yul\":7755:7767   */\n      add\n        /* \"#utility.yul\":7748:7804   */\n      mstore\n        /* \"#utility.yul\":7835:7844   */\n      0x6120617469766100000000000000000000000000000000000000000000000000\n        /* \"#utility.yul\":7830:7832   */\n      0x40\n        /* \"#utility.yul\":7825:7828   */\n      dup4\n        /* \"#utility.yul\":7821:7833   */\n      add\n        /* \"#utility.yul\":7814:7845   */\n      mstore\n        /* \"#utility.yul\":7871:7873   */\n      0x60\n        /* \"#utility.yul\":7866:7869   */\n      dup3\n        /* \"#utility.yul\":7862:7874   */\n      add\n        /* \"#utility.yul\":7855:7874   */\n      swap1\n      pop\n        /* \"#utility.yul\":7589:7880   */\n      swap2\n      swap1\n      pop\n      jump\t// out\n        /* \"#utility.yul\":7886:8004   */\n    tag_269:\n        /* \"#utility.yul\":7973:7997   */\n      tag_271\n        /* \"#utility.yul\":7991:7996   */\n      dup2\n        /* \"#utility.yul\":7973:7997   */\n      tag_272\n      jump\t// in\n    tag_271:\n        /* \"#utility.yul\":7968:7971   */\n      dup3\n        /* \"#utility.yul\":7961:7998   */\n      mstore\n        /* \"#utility.yul\":7951:8004   */\n      pop\n      pop\n      jump\t// out\n        /* \"#utility.yul\":8010:8285   */\n    tag_137:\n      0x00\n        /* \"#utility.yul\":8164:8259   */\n      tag_274\n        /* \"#utility.yul\":8255:8258   */\n      dup3\n        /* \"#utility.yul\":8246:8252   */\n      dup5\n        /* \"#utility.yul\":8164:8259   */\n      tag_227\n      jump\t// in\n    tag_274:\n        /* \"#utility.yul\":8157:8259   */\n      swap2\n      pop\n        /* \"#utility.yul\":8276:8279   */\n      dup2\n        /* \"#utility.yul\":8269:8279   */\n      swap1\n      pop\n        /* \"#utility.yul\":8146:8285   */\n      swap3\n      swap2\n      pop\n      pop\n      jump\t// out\n        /* \"#utility.yul\":8291:8560   */\n    tag_141:\n      0x00\n        /* \"#utility.yul\":8442:8534   */\n      tag_276\n        /* \"#utility.yul\":8530:8533   */\n      dup3\n        /* \"#utility.yul\":8521:8527   */\n      dup5\n        /* \"#utility.yul\":8442:8534   */\n      tag_233\n      jump\t// in\n    tag_276:\n        /* \"#utility.yul\":8435:8534   */\n      swap2\n      pop\n        /* \"#utility.yul\":8551:8554   */\n      dup2\n        /* \"#utility.yul\":8544:8554   */\n      swap1\n      pop\n        /* \"#utility.yul\":8424:8560   */\n      swap3\n      swap2\n      pop\n      pop\n      jump\t// out\n        /* \"#utility.yul\":8566:8788   */\n    tag_15:\n      0x00\n        /* \"#utility.yul\":8697:8699   */\n      0x20\n        /* \"#utility.yul\":8686:8695   */\n      dup3\n        /* \"#utility.yul\":8682:8700   */\n      add\n        /* \"#utility.yul\":8674:8700   */\n      swap1\n      pop\n        /* \"#utility.yul\":8710:8781   */\n      tag_278\n        /* \"#utility.yul\":8778:8779   */\n      0x00\n        /* \"#utility.yul\":8767:8776   */\n      dup4\n        /* \"#utility.yul\":8763:8780   */\n      add\n        /* \"#utility.yul\":8754:8760   */\n      dup5\n        /* \"#utility.yul\":8710:8781   */\n      tag_209\n      jump\t// in\n    tag_278:\n        /* \"#utility.yul\":8664:8788   */\n      swap3\n      swap2\n      pop\n      pop\n      jump\t// out\n        /* \"#utility.yul\":8794:9004   */\n    tag_37:\n      0x00\n        /* \"#utility.yul\":8919:8921   */\n      0x20\n        /* \"#utility.yul\":8908:8917   */\n      dup3\n        /* \"#utility.yul\":8904:8922   */\n      add\n        /* \"#utility.yul\":8896:8922   */\n      swap1\n      pop\n        /* \"#utility.yul\":8932:8997   */\n      tag_280\n        /* \"#utility.yul\":8994:8995   */\n      0x00\n        /* \"#utility.yul\":8983:8992   */\n      dup4\n        /* \"#utility.yul\":8979:8996   */\n      add\n        /* \"#utility.yul\":8970:8976   */\n      dup5\n        /* \"#utility.yul\":8932:8997   */\n      tag_213\n      jump\t// in\n    tag_280:\n        /* \"#utility.yul\":8886:9004   */\n      swap3\n      swap2\n      pop\n      pop\n      jump\t// out\n        /* \"#utility.yul\":9010:9642   */\n    tag_46:\n      0x00\n        /* \"#utility.yul\":9239:9242   */\n      0x80\n        /* \"#utility.yul\":9228:9237   */\n      dup3\n        /* \"#utility.yul\":9224:9243   */\n      add\n        /* \"#utility.yul\":9216:9243   */\n      swap1\n      pop\n        /* \"#utility.yul\":9253:9318   */\n      tag_282\n        /* \"#utility.yul\":9315:9316   */\n      0x00\n        /* \"#utility.yul\":9304:9313   */\n      dup4\n        /* \"#utility.yul\":9300:9317   */\n      add\n        /* \"#utility.yul\":9291:9297   */\n      dup8\n        /* \"#utility.yul\":9253:9318   */\n      tag_213\n      jump\t// in\n    tag_282:\n        /* \"#utility.yul\":9328:9400   */\n      tag_283\n        /* \"#utility.yul\":9396:9398   */\n      0x20\n        /* \"#utility.yul\":9385:9394   */\n      dup4\n        /* \"#utility.yul\":9381:9399   */\n      add\n        /* \"#utility.yul\":9372:9378   */\n      dup7\n        /* \"#utility.yul\":9328:9400   */\n      tag_209\n      jump\t// in\n    tag_283:\n        /* \"#utility.yul\":9410:9482   */\n      tag_284\n        /* \"#utility.yul\":9478:9480   */\n      0x40\n        /* \"#utility.yul\":9467:9476   */\n      dup4\n        /* \"#utility.yul\":9463:9481   */\n      add\n        /* \"#utility.yul\":9454:9460   */\n      dup6\n        /* \"#utility.yul\":9410:9482   */\n      tag_269\n      jump\t// in\n    tag_284:\n        /* \"#utility.yul\":9529:9538   */\n      dup2\n        /* \"#utility.yul\":9523:9527   */\n      dup2\n        /* \"#utility.yul\":9519:9539   */\n      sub\n        /* \"#utility.yul\":9514:9516   */\n      0x60\n        /* \"#utility.yul\":9503:9512   */\n      dup4\n        /* \"#utility.yul\":9499:9517   */\n      add\n        /* \"#utility.yul\":9492:9540   */\n      mstore\n        /* \"#utility.yul\":9557:9635   */\n      tag_285\n        /* \"#utility.yul\":9630:9634   */\n      dup2\n        /* \"#utility.yul\":9621:9627   */\n      dup5\n        /* \"#utility.yul\":9557:9635   */\n      tag_217\n      jump\t// in\n    tag_285:\n        /* \"#utility.yul\":9549:9635   */\n      swap1\n      pop\n        /* \"#utility.yul\":9206:9642   */\n      swap6\n      swap5\n      pop\n      pop\n      pop\n      pop\n      pop\n      jump\t// out\n        /* \"#utility.yul\":9648:9961   */\n    tag_29:\n      0x00\n        /* \"#utility.yul\":9799:9801   */\n      0x20\n        /* \"#utility.yul\":9788:9797   */\n      dup3\n        /* \"#utility.yul\":9784:9802   */\n      add\n        /* \"#utility.yul\":9776:9802   */\n      swap1\n      pop\n        /* \"#utility.yul\":9848:9857   */\n      dup2\n        /* \"#utility.yul\":9842:9846   */\n      dup2\n        /* \"#utility.yul\":9838:9858   */\n      sub\n        /* \"#utility.yul\":9834:9835   */\n      0x00\n        /* \"#utility.yul\":9823:9832   */\n      dup4\n        /* \"#utility.yul\":9819:9836   */\n      add\n        /* \"#utility.yul\":9812:9859   */\n      mstore\n        /* \"#utility.yul\":9876:9954   */\n      tag_287\n        /* \"#utility.yul\":9949:9953   */\n      dup2\n        /* \"#utility.yul\":9940:9946   */\n      dup5\n        /* \"#utility.yul\":9876:9954   */\n      tag_217\n      jump\t// in\n    tag_287:\n        /* \"#utility.yul\":9868:9954   */\n      swap1\n      pop\n        /* \"#utility.yul\":9766:9961   */\n      swap3\n      swap2\n      pop\n      pop\n      jump\t// out\n        /* \"#utility.yul\":9967:10386   */\n    tag_155:\n      0x00\n        /* \"#utility.yul\":10171:10173   */\n      0x20\n        /* \"#utility.yul\":10160:10169   */\n      dup3\n        /* \"#utility.yul\":10156:10174   */\n      add\n        /* \"#utility.yul\":10148:10174   */\n      swap1\n      pop\n        /* \"#utility.yul\":10220:10229   */\n      dup2\n        /* \"#utility.yul\":10214:10218   */\n      dup2\n        /* \"#utility.yul\":10210:10230   */\n      sub\n        /* \"#utility.yul\":10206:10207   */\n      0x00\n        /* \"#utility.yul\":10195:10204   */\n      dup4\n        /* \"#utility.yul\":10191:10208   */\n      add\n        /* \"#utility.yul\":10184:10231   */\n      mstore\n        /* \"#utility.yul\":10248:10379   */\n      tag_289\n        /* \"#utility.yul\":10374:10378   */\n      dup2\n        /* \"#utility.yul\":10248:10379   */\n      tag_245\n      jump\t// in\n    tag_289:\n        /* \"#utility.yul\":10240:10379   */\n      swap1\n      pop\n        /* \"#utility.yul\":10138:10386   */\n      swap2\n      swap1\n      pop\n      jump\t// out\n        /* \"#utility.yul\":10392:10811   */\n    tag_59:\n      0x00\n        /* \"#utility.yul\":10596:10598   */\n      0x20\n        /* \"#utility.yul\":10585:10594   */\n      dup3\n        /* \"#utility.yul\":10581:10599   */\n      add\n        /* \"#utility.yul\":10573:10599   */\n      swap1\n      pop\n        /* \"#utility.yul\":10645:10654   */\n      dup2\n        /* \"#utility.yul\":10639:10643   */\n      dup2\n        /* \"#utility.yul\":10635:10655   */\n      sub\n        /* \"#utility.yul\":10631:10632   */\n      0x00\n        /* \"#utility.yul\":10620:10629   */\n      dup4\n        /* \"#utility.yul\":10616:10633   */\n      add\n        /* \"#utility.yul\":10609:10656   */\n      mstore\n        /* \"#utility.yul\":10673:10804   */\n      tag_291\n        /* \"#utility.yul\":10799:10803   */\n      dup2\n        /* \"#utility.yul\":10673:10804   */\n      tag_248\n      jump\t// in\n    tag_291:\n        /* \"#utility.yul\":10665:10804   */\n      swap1\n      pop\n        /* \"#utility.yul\":10563:10811   */\n      swap2\n      swap1\n      pop\n      jump\t// out\n        /* \"#utility.yul\":10817:11236   */\n    tag_122:\n      0x00\n        /* \"#utility.yul\":11021:11023   */\n      0x20\n        /* \"#utility.yul\":11010:11019   */\n      dup3\n        /* \"#utility.yul\":11006:11024   */\n      add\n        /* \"#utility.yul\":10998:11024   */\n      swap1\n      pop\n        /* \"#utility.yul\":11070:11079   */\n      dup2\n        /* \"#utility.yul\":11064:11068   */\n      dup2\n        /* \"#utility.yul\":11060:11080   */\n      sub\n        /* \"#utility.yul\":11056:11057   */\n      0x00\n        /* \"#utility.yul\":11045:11054   */\n      dup4\n        /* \"#utility.yul\":11041:11058   */\n      add\n        /* \"#utility.yul\":11034:11081   */\n      mstore\n        /* \"#utility.yul\":11098:11229   */\n      tag_293\n        /* \"#utility.yul\":11224:11228   */\n      dup2\n        /* \"#utility.yul\":11098:11229   */\n      tag_251\n      jump\t// in\n    tag_293:\n        /* \"#utility.yul\":11090:11229   */\n      swap1\n      pop\n        /* \"#utility.yul\":10988:11236   */\n      swap2\n      swap1\n      pop\n      jump\t// out\n        /* \"#utility.yul\":11242:11661   */\n    tag_92:\n      0x00\n        /* \"#utility.yul\":11446:11448   */\n      0x20\n        /* \"#utility.yul\":11435:11444   */\n      dup3\n        /* \"#utility.yul\":11431:11449   */\n      add\n        /* \"#utility.yul\":11423:11449   */\n      swap1\n      pop\n        /* \"#utility.yul\":11495:11504   */\n      dup2\n        /* \"#utility.yul\":11489:11493   */\n      dup2\n        /* \"#utility.yul\":11485:11505   */\n      sub\n        /* \"#utility.yul\":11481:11482   */\n      0x00\n        /* \"#utility.yul\":11470:11479   */\n      dup4\n        /* \"#utility.yul\":11466:11483   */\n      add\n        /* \"#utility.yul\":11459:11506   */\n      mstore\n        /* \"#utility.yul\":11523:11654   */\n      tag_295\n        /* \"#utility.yul\":11649:11653   */\n      dup2\n        /* \"#utility.yul\":11523:11654   */\n      tag_254\n      jump\t// in\n    tag_295:\n        /* \"#utility.yul\":11515:11654   */\n      swap1\n      pop\n        /* \"#utility.yul\":11413:11661   */\n      swap2\n      swap1\n      pop\n      jump\t// out\n        /* \"#utility.yul\":11667:12086   */\n    tag_97:\n      0x00\n        /* \"#utility.yul\":11871:11873   */\n      0x20\n        /* \"#utility.yul\":11860:11869   */\n      dup3\n        /* \"#utility.yul\":11856:11874   */\n      add\n        /* \"#utility.yul\":11848:11874   */\n      swap1\n      pop\n        /* \"#utility.yul\":11920:11929   */\n      dup2\n        /* \"#utility.yul\":11914:11918   */\n      dup2\n        /* \"#utility.yul\":11910:11930   */\n      sub\n        /* \"#utility.yul\":11906:11907   */\n      0x00\n        /* \"#utility.yul\":11895:11904   */\n      dup4\n        /* \"#utility.yul\":11891:11908   */\n      add\n        /* \"#utility.yul\":11884:11931   */\n      mstore\n        /* \"#utility.yul\":11948:12079   */\n      tag_297\n        /* \"#utility.yul\":12074:12078   */\n      dup2\n        /* \"#utility.yul\":11948:12079   */\n      tag_257\n      jump\t// in\n    tag_297:\n        /* \"#utility.yul\":11940:12079   */\n      swap1\n      pop\n        /* \"#utility.yul\":11838:12086   */\n      swap2\n      swap1\n      pop\n      jump\t// out\n        /* \"#utility.yul\":12092:12511   */\n    tag_68:\n      0x00\n        /* \"#utility.yul\":12296:12298   */\n      0x20\n        /* \"#utility.yul\":12285:12294   */\n      dup3\n        /* \"#utility.yul\":12281:12299   */\n      add\n        /* \"#utility.yul\":12273:12299   */\n      swap1\n      pop\n        /* \"#utility.yul\":12345:12354   */\n      dup2\n        /* \"#utility.yul\":12339:12343   */\n      dup2\n        /* \"#utility.yul\":12335:12355   */\n      sub\n        /* \"#utility.yul\":12331:12332   */\n      0x00\n        /* \"#utility.yul\":12320:12329   */\n      dup4\n        /* \"#utility.yul\":12316:12333   */\n      add\n        /* \"#utility.yul\":12309:12356   */\n      mstore\n        /* \"#utility.yul\":12373:12504   */\n      tag_299\n        /* \"#utility.yul\":12499:12503   */\n      dup2\n        /* \"#utility.yul\":12373:12504   */\n      tag_260\n      jump\t// in\n    tag_299:\n        /* \"#utility.yul\":12365:12504   */\n      swap1\n      pop\n        /* \"#utility.yul\":12263:12511   */\n      swap2\n      swap1\n      pop\n      jump\t// out\n        /* \"#utility.yul\":12517:12936   */\n    tag_50:\n      0x00\n        /* \"#utility.yul\":12721:12723   */\n      0x20\n        /* \"#utility.yul\":12710:12719   */\n      dup3\n        /* \"#utility.yul\":12706:12724   */\n      add\n        /* \"#utility.yul\":12698:12724   */\n      swap1\n      pop\n        /* \"#utility.yul\":12770:12779   */\n      dup2\n        /* \"#utility.yul\":12764:12768   */\n      dup2\n        /* \"#utility.yul\":12760:12780   */\n      sub\n        /* \"#utility.yul\":12756:12757   */\n      0x00\n        /* \"#utility.yul\":12745:12754   */\n      dup4\n        /* \"#utility.yul\":12741:12758   */\n      add\n        /* \"#utility.yul\":12734:12781   */\n      mstore\n        /* \"#utility.yul\":12798:12929   */\n      tag_301\n        /* \"#utility.yul\":12924:12928   */\n      dup2\n        /* \"#utility.yul\":12798:12929   */\n      tag_263\n      jump\t// in\n    tag_301:\n        /* \"#utility.yul\":12790:12929   */\n      swap1\n      pop\n        /* \"#utility.yul\":12688:12936   */\n      swap2\n      swap1\n      pop\n      jump\t// out\n        /* \"#utility.yul\":12942:13361   */\n    tag_54:\n      0x00\n        /* \"#utility.yul\":13146:13148   */\n      0x20\n        /* \"#utility.yul\":13135:13144   */\n      dup3\n        /* \"#utility.yul\":13131:13149   */\n      add\n        /* \"#utility.yul\":13123:13149   */\n      swap1\n      pop\n        /* \"#utility.yul\":13195:13204   */\n      dup2\n        /* \"#utility.yul\":13189:13193   */\n      dup2\n        /* \"#utility.yul\":13185:13205   */\n      sub\n        /* \"#utility.yul\":13181:13182   */\n      0x00\n        /* \"#utility.yul\":13170:13179   */\n      dup4\n        /* \"#utility.yul\":13166:13183   */\n      add\n        /* \"#utility.yul\":13159:13206   */\n      mstore\n        /* \"#utility.yul\":13223:13354   */\n      tag_303\n        /* \"#utility.yul\":13349:13353   */\n      dup2\n        /* \"#utility.yul\":13223:13354   */\n      tag_266\n      jump\t// in\n    tag_303:\n        /* \"#utility.yul\":13215:13354   */\n      swap1\n      pop\n        /* \"#utility.yul\":13113:13361   */\n      swap2\n      swap1\n      pop\n      jump\t// out\n        /* \"#utility.yul\":13367:13650   */\n    tag_172:\n      0x00\n        /* \"#utility.yul\":13433:13435   */\n      0x40\n        /* \"#utility.yul\":13427:13436   */\n      mload\n        /* \"#utility.yul\":13417:13436   */\n      swap1\n      pop\n        /* \"#utility.yul\":13475:13479   */\n      dup2\n        /* \"#utility.yul\":13467:13473   */\n      dup2\n        /* \"#utility.yul\":13463:13480   */\n      add\n        /* \"#utility.yul\":13582:13588   */\n      dup2\n        /* \"#utility.yul\":13570:13580   */\n      dup2\n        /* \"#utility.yul\":13567:13589   */\n      lt\n        /* \"#utility.yul\":13546:13564   */\n      0xffffffffffffffff\n        /* \"#utility.yul\":13534:13544   */\n      dup3\n        /* \"#utility.yul\":13531:13565   */\n      gt\n        /* \"#utility.yul\":13528:13590   */\n      or\n        /* \"#utility.yul\":13525:13527   */\n      iszero\n      tag_305\n      jumpi\n        /* \"#utility.yul\":13593:13611   */\n      tag_306\n      tag_307\n      jump\t// in\n    tag_306:\n        /* \"#utility.yul\":13525:13527   */\n    tag_305:\n        /* \"#utility.yul\":13633:13643   */\n      dup1\n        /* \"#utility.yul\":13629:13631   */\n      0x40\n        /* \"#utility.yul\":13622:13644   */\n      mstore\n        /* \"#utility.yul\":13407:13650   */\n      pop\n      swap2\n      swap1\n      pop\n      jump\t// out\n        /* \"#utility.yul\":13656:13988   */\n    tag_171:\n      0x00\n        /* \"#utility.yul\":13808:13826   */\n      0xffffffffffffffff\n        /* \"#utility.yul\":13800:13806   */\n      dup3\n        /* \"#utility.yul\":13797:13827   */\n      gt\n        /* \"#utility.yul\":13794:13796   */\n      iszero\n      tag_309\n      jumpi\n        /* \"#utility.yul\":13830:13848   */\n      tag_310\n      tag_307\n      jump\t// in\n    tag_310:\n        /* \"#utility.yul\":13794:13796   */\n    tag_309:\n        /* \"#utility.yul\":13915:13919   */\n      0x1f\n        /* \"#utility.yul\":13911:13920   */\n      not\n        /* \"#utility.yul\":13904:13908   */\n      0x1f\n        /* \"#utility.yul\":13896:13902   */\n      dup4\n        /* \"#utility.yul\":13892:13909   */\n      add\n        /* \"#utility.yul\":13888:13921   */\n      and\n        /* \"#utility.yul\":13880:13921   */\n      swap1\n      pop\n        /* \"#utility.yul\":13976:13980   */\n      0x20\n        /* \"#utility.yul\":13970:13974   */\n      dup2\n        /* \"#utility.yul\":13966:13981   */\n      add\n        /* \"#utility.yul\":13958:13981   */\n      swap1\n      pop\n        /* \"#utility.yul\":13723:13988   */\n      swap2\n      swap1\n      pop\n      jump\t// out\n        /* \"#utility.yul\":13994:14135   */\n    tag_241:\n      0x00\n        /* \"#utility.yul\":14066:14069   */\n      dup2\n        /* \"#utility.yul\":14058:14069   */\n      swap1\n      pop\n        /* \"#utility.yul\":14089:14092   */\n      dup2\n        /* \"#utility.yul\":14086:14087   */\n      0x00\n        /* \"#utility.yul\":14079:14093   */\n      mstore\n        /* \"#utility.yul\":14123:14127   */\n      0x20\n        /* \"#utility.yul\":14120:14121   */\n      0x00\n        /* \"#utility.yul\":14110:14128   */\n      keccak256\n        /* \"#utility.yul\":14102:14128   */\n      swap1\n      pop\n        /* \"#utility.yul\":14048:14135   */\n      swap2\n      swap1\n      pop\n      jump\t// out\n        /* \"#utility.yul\":14141:14240   */\n    tag_220:\n      0x00\n        /* \"#utility.yul\":14227:14232   */\n      dup2\n        /* \"#utility.yul\":14221:14233   */\n      mload\n        /* \"#utility.yul\":14211:14233   */\n      swap1\n      pop\n        /* \"#utility.yul\":14200:14240   */\n      swap2\n      swap1\n      pop\n      jump\t// out\n        /* \"#utility.yul\":14246:14415   */\n    tag_222:\n      0x00\n        /* \"#utility.yul\":14364:14370   */\n      dup3\n        /* \"#utility.yul\":14359:14362   */\n      dup3\n        /* \"#utility.yul\":14352:14371   */\n      mstore\n        /* \"#utility.yul\":14404:14408   */\n      0x20\n        /* \"#utility.yul\":14399:14402   */\n      dup3\n        /* \"#utility.yul\":14395:14409   */\n      add\n        /* \"#utility.yul\":14380:14409   */\n      swap1\n      pop\n        /* \"#utility.yul\":14342:14415   */\n      swap3\n      swap2\n      pop\n      pop\n      jump\t// out\n        /* \"#utility.yul\":14421:14569   */\n    tag_231:\n      0x00\n        /* \"#utility.yul\":14560:14563   */\n      dup2\n        /* \"#utility.yul\":14545:14563   */\n      swap1\n      pop\n        /* \"#utility.yul\":14535:14569   */\n      swap3\n      swap2\n      pop\n      pop\n      jump\t// out\n        /* \"#utility.yul\":14575:14671   */\n    tag_212:\n      0x00\n        /* \"#utility.yul\":14641:14665   */\n      tag_316\n        /* \"#utility.yul\":14659:14664   */\n      dup3\n        /* \"#utility.yul\":14641:14665   */\n      tag_317\n      jump\t// in\n    tag_316:\n        /* \"#utility.yul\":14630:14665   */\n      swap1\n      pop\n        /* \"#utility.yul\":14620:14671   */\n      swap2\n      swap1\n      pop\n      jump\t// out\n        /* \"#utility.yul\":14677:14767   */\n    tag_216:\n      0x00\n        /* \"#utility.yul\":14754:14759   */\n      dup2\n        /* \"#utility.yul\":14747:14760   */\n      iszero\n        /* \"#utility.yul\":14740:14761   */\n      iszero\n        /* \"#utility.yul\":14729:14761   */\n      swap1\n      pop\n        /* \"#utility.yul\":14719:14767   */\n      swap2\n      swap1\n      pop\n      jump\t// out\n        /* \"#utility.yul\":14773:14899   */\n    tag_317:\n      0x00\n        /* \"#utility.yul\":14850:14892   */\n      0xffffffffffffffffffffffffffffffffffffffff\n        /* \"#utility.yul\":14843:14848   */\n      dup3\n        /* \"#utility.yul\":14839:14893   */\n      and\n        /* \"#utility.yul\":14828:14893   */\n      swap1\n      pop\n        /* \"#utility.yul\":14818:14899   */\n      swap2\n      swap1\n      pop\n      jump\t// out\n        /* \"#utility.yul\":14905:14982   */\n    tag_272:\n      0x00\n        /* \"#utility.yul\":14971:14976   */\n      dup2\n        /* \"#utility.yul\":14960:14976   */\n      swap1\n      pop\n        /* \"#utility.yul\":14950:14982   */\n      swap2\n      swap1\n      pop\n      jump\t// out\n        /* \"#utility.yul\":14988:15142   */\n    tag_175:\n        /* \"#utility.yul\":15072:15078   */\n      dup3\n        /* \"#utility.yul\":15067:15070   */\n      dup2\n        /* \"#utility.yul\":15062:15065   */\n      dup4\n        /* \"#utility.yul\":15049:15079   */\n      calldatacopy\n        /* \"#utility.yul\":15134:15135   */\n      0x00\n        /* \"#utility.yul\":15125:15131   */\n      dup4\n        /* \"#utility.yul\":15120:15123   */\n      dup4\n        /* \"#utility.yul\":15116:15132   */\n      add\n        /* \"#utility.yul\":15109:15136   */\n      mstore\n        /* \"#utility.yul\":15039:15142   */\n      pop\n      pop\n      pop\n      jump\t// out\n        /* \"#utility.yul\":15148:15455   */\n    tag_224:\n        /* \"#utility.yul\":15216:15217   */\n      0x00\n        /* \"#utility.yul\":15226:15339   */\n    tag_323:\n        /* \"#utility.yul\":15240:15246   */\n      dup4\n        /* \"#utility.yul\":15237:15238   */\n      dup2\n        /* \"#utility.yul\":15234:15247   */\n      lt\n        /* \"#utility.yul\":15226:15339   */\n      iszero\n      tag_325\n      jumpi\n        /* \"#utility.yul\":15325:15326   */\n      dup1\n        /* \"#utility.yul\":15320:15323   */\n      dup3\n        /* \"#utility.yul\":15316:15327   */\n      add\n        /* \"#utility.yul\":15310:15328   */\n      mload\n        /* \"#utility.yul\":15306:15307   */\n      dup2\n        /* \"#utility.yul\":15301:15304   */\n      dup5\n        /* \"#utility.yul\":15297:15308   */\n      add\n        /* \"#utility.yul\":15290:15329   */\n      mstore\n        /* \"#utility.yul\":15262:15264   */\n      0x20\n        /* \"#utility.yul\":15259:15260   */\n      dup2\n        /* \"#utility.yul\":15255:15265   */\n      add\n        /* \"#utility.yul\":15250:15265   */\n      swap1\n      pop\n        /* \"#utility.yul\":15226:15339   */\n      jump(tag_323)\n    tag_325:\n        /* \"#utility.yul\":15357:15363   */\n      dup4\n        /* \"#utility.yul\":15354:15355   */\n      dup2\n        /* \"#utility.yul\":15351:15364   */\n      gt\n        /* \"#utility.yul\":15348:15350   */\n      iszero\n      tag_326\n      jumpi\n        /* \"#utility.yul\":15437:15438   */\n      0x00\n        /* \"#utility.yul\":15428:15434   */\n      dup5\n        /* \"#utility.yul\":15423:15426   */\n      dup5\n        /* \"#utility.yul\":15419:15435   */\n      add\n        /* \"#utility.yul\":15412:15439   */\n      mstore\n        /* \"#utility.yul\":15348:15350   */\n    tag_326:\n        /* \"#utility.yul\":15197:15455   */\n      pop\n      pop\n      pop\n      pop\n      jump\t// out\n        /* \"#utility.yul\":15461:15781   */\n    tag_73:\n      0x00\n        /* \"#utility.yul\":15542:15543   */\n      0x02\n        /* \"#utility.yul\":15536:15540   */\n      dup3\n        /* \"#utility.yul\":15532:15544   */\n      div\n        /* \"#utility.yul\":15522:15544   */\n      swap1\n      pop\n        /* \"#utility.yul\":15589:15590   */\n      0x01\n        /* \"#utility.yul\":15583:15587   */\n      dup3\n        /* \"#utility.yul\":15579:15591   */\n      and\n        /* \"#utility.yul\":15610:15628   */\n      dup1\n        /* \"#utility.yul\":15600:15602   */\n      tag_328\n      jumpi\n        /* \"#utility.yul\":15666:15670   */\n      0x7f\n        /* \"#utility.yul\":15658:15664   */\n      dup3\n        /* \"#utility.yul\":15654:15671   */\n      and\n        /* \"#utility.yul\":15644:15671   */\n      swap2\n      pop\n        /* \"#utility.yul\":15600:15602   */\n    tag_328:\n        /* \"#utility.yul\":15728:15730   */\n      0x20\n        /* \"#utility.yul\":15720:15726   */\n      dup3\n        /* \"#utility.yul\":15717:15731   */\n      lt\n        /* \"#utility.yul\":15697:15715   */\n      dup2\n        /* \"#utility.yul\":15694:15732   */\n      eq\n        /* \"#utility.yul\":15691:15693   */\n      iszero\n      tag_329\n      jumpi\n        /* \"#utility.yul\":15747:15765   */\n      tag_330\n      tag_331\n      jump\t// in\n    tag_330:\n        /* \"#utility.yul\":15691:15693   */\n    tag_329:\n        /* \"#utility.yul\":15512:15781   */\n      pop\n      swap2\n      swap1\n      pop\n      jump\t// out\n        /* \"#utility.yul\":15787:16020   */\n    tag_108:\n      0x00\n        /* \"#utility.yul\":15849:15873   */\n      tag_333\n        /* \"#utility.yul\":15867:15872   */\n      dup3\n        /* \"#utility.yul\":15849:15873   */\n      tag_272\n      jump\t// in\n    tag_333:\n        /* \"#utility.yul\":15840:15873   */\n      swap2\n      pop\n        /* \"#utility.yul\":15895:15961   */\n      0xffffffffffffffffffffffffffffffffffffffffffffffffffffffffffffffff\n        /* \"#utility.yul\":15888:15893   */\n      dup3\n        /* \"#utility.yul\":15885:15962   */\n      eq\n        /* \"#utility.yul\":15882:15884   */\n      iszero\n      tag_334\n      jumpi\n        /* \"#utility.yul\":15965:15983   */\n      tag_335\n      tag_336\n      jump\t// in\n    tag_335:\n        /* \"#utility.yul\":15882:15884   */\n    tag_334:\n        /* \"#utility.yul\":16012:16013   */\n      0x01\n        /* \"#utility.yul\":16005:16010   */\n      dup3\n        /* \"#utility.yul\":16001:16014   */\n      add\n        /* \"#utility.yul\":15994:16014   */\n      swap1\n      pop\n        /* \"#utility.yul\":15830:16020   */\n      swap2\n      swap1\n      pop\n      jump\t// out\n        /* \"#utility.yul\":16026:16206   */\n    tag_336:\n        /* \"#utility.yul\":16074:16151   */\n      0x4e487b7100000000000000000000000000000000000000000000000000000000\n        /* \"#utility.yul\":16071:16072   */\n      0x00\n        /* \"#utility.yul\":16064:16152   */\n      mstore\n        /* \"#utility.yul\":16171:16175   */\n      0x11\n        /* \"#utility.yul\":16168:16169   */\n      0x04\n        /* \"#utility.yul\":16161:16176   */\n      mstore\n        /* \"#utility.yul\":16195:16199   */\n      0x24\n        /* \"#utility.yul\":16192:16193   */\n      0x00\n        /* \"#utility.yul\":16185:16200   */\n      revert\n        /* \"#utility.yul\":16212:16392   */\n    tag_331:\n        /* \"#utility.yul\":16260:16337   */\n      0x4e487b7100000000000000000000000000000000000000000000000000000000\n        /* \"#utility.yul\":16257:16258   */\n      0x00\n        /* \"#utility.yul\":16250:16338   */\n      mstore\n        /* \"#utility.yul\":16357:16361   */\n      0x22\n        /* \"#utility.yul\":16354:16355   */\n      0x04\n        /* \"#utility.yul\":16347:16362   */\n      mstore\n        /* \"#utility.yul\":16381:16385   */\n      0x24\n        /* \"#utility.yul\":16378:16379   */\n      0x00\n        /* \"#utility.yul\":16371:16386   */\n      revert\n        /* \"#utility.yul\":16398:16578   */\n    tag_307:\n        /* \"#utility.yul\":16446:16523   */\n      0x4e487b7100000000000000000000000000000000000000000000000000000000\n        /* \"#utility.yul\":16443:16444   */\n      0x00\n        /* \"#utility.yul\":16436:16524   */\n      mstore\n        /* \"#utility.yul\":16543:16547   */\n      0x41\n        /* \"#utility.yul\":16540:16541   */\n      0x04\n        /* \"#utility.yul\":16533:16548   */\n      mstore\n        /* \"#utility.yul\":16567:16571   */\n      0x24\n        /* \"#utility.yul\":16564:16565   */\n      0x00\n        /* \"#utility.yul\":16557:16572   */\n      revert\n        /* \"#utility.yul\":16584:16686   */\n    tag_226:\n      0x00\n        /* \"#utility.yul\":16676:16678   */\n      0x1f\n        /* \"#utility.yul\":16672:16679   */\n      not\n        /* \"#utility.yul\":16667:16669   */\n      0x1f\n        /* \"#utility.yul\":16660:16665   */\n      dup4\n        /* \"#utility.yul\":16656:16670   */\n      add\n        /* \"#utility.yul\":16652:16680   */\n      and\n        /* \"#utility.yul\":16642:16680   */\n      swap1\n      pop\n        /* \"#utility.yul\":16632:16686   */\n      swap2\n      swap1\n      pop\n      jump\t// out\n        /* \"#utility.yul\":16692:16808   */\n    tag_179:\n        /* \"#utility.yul\":16762:16783   */\n      tag_342\n        /* \"#utility.yul\":16777:16782   */\n      dup2\n        /* \"#utility.yul\":16762:16783   */\n      tag_216\n      jump\t// in\n    tag_342:\n        /* \"#utility.yul\":16755:16760   */\n      dup2\n        /* \"#utility.yul\":16752:16784   */\n      eq\n        /* \"#utility.yul\":16742:16744   */\n      tag_343\n      jumpi\n        /* \"#utility.yul\":16798:16799   */\n      0x00\n        /* \"#utility.yul\":16795:16796   */\n      dup1\n        /* \"#utility.yul\":16788:16800   */\n      revert\n        /* \"#utility.yul\":16742:16744   */\n    tag_343:\n        /* \"#utility.yul\":16732:16808   */\n      pop\n      jump\t// out\n        /* \"#utility.yul\":16814:16936   */\n    tag_187:\n        /* \"#utility.yul\":16887:16911   */\n      tag_345\n        /* \"#utility.yul\":16905:16910   */\n      dup2\n        /* \"#utility.yul\":16887:16911   */\n      tag_272\n      jump\t// in\n    tag_345:\n        /* \"#utility.yul\":16880:16885   */\n      dup2\n        /* \"#utility.yul\":16877:16912   */\n      eq\n        /* \"#utility.yul\":16867:16869   */\n      tag_346\n      jumpi\n        /* \"#utility.yul\":16926:16927   */\n      0x00\n        /* \"#utility.yul\":16923:16924   */\n      dup1\n        /* \"#utility.yul\":16916:16928   */\n      revert\n        /* \"#utility.yul\":16867:16869   */\n    tag_346:\n        /* \"#utility.yul\":16857:16936   */\n      pop\n      jump\t// out\n\n    auxdata: 0xa2646970667358221220d0f5d97823cf64eebc24a8680ea3d5a26a4e76eaadbfd20dfea9529783a57ebf64736f6c63430008000033\n}\n",
				"bytecode": {
					"linkReferences": {},
					"object": "608060405260016000806101000a81548160ff02191690831515021790555034801561002a57600080fd5b5033600060016101000a81548173ffffffffffffffffffffffffffffffffffffffff021916908373ffffffffffffffffffffffffffffffffffffffff160217905550611b188061007b6000396000f3fe608060405234801561001057600080fd5b50600436106100885760003560e01c806395be551a1161005b57806395be551a14610113578063a18cc13b1461012f578063d4d23a6e1461014d578063e7d4296a1461016957610088565b80630694952d1461008d5780631509d30c146100ab5780631c18379a146100c757806357ae2a89146100e3575b600080fd5b61009561019c565b6040516100a291906116d0565b60405180910390f35b6100c560048036038101906100c0919061115a565b6101c2565b005b6100e160048036038101906100dc9190611183565b61026e565b005b6100fd60048036038101906100f891906111ef565b6104a4565b60405161010a9190611752565b60405180910390f35b61012d6004803603810190610128919061126c565b6107cc565b005b610137610ac2565b60405161014491906116eb565b60405180910390f35b61016760048036038101906101629190611218565b610ad3565b005b610183600480360381019061017e91906111ef565b610d0e565b6040516101939493929190611706565b60405180910390f35b600060019054906101000a900473ffffffffffffffffffffffffffffffffffffffff1681565b600060019054906101000a900473ffffffffffffffffffffffffffffffffffffffff1673ffffffffffffffffffffffffffffffffffffffff163373ffffffffffffffffffffffffffffffffffffffff1614610252576040517f08c379a000000000000000000000000000000000000000000000000000000000815260040161024990611834565b60405180910390fd5b806000806101000a81548160ff02191690831515021790555050565b6001151560008054906101000a900460ff161515146102c2576040517f08c379a00000000000000000000000000000000000000000000000000000000081526004016102b990611854565b60405180910390fd5b6102cb82610e03565b1561030b576040517f08c379a000000000000000000000000000000000000000000000000000000000815260040161030290611794565b60405180910390fd5b600060026001816001815401808255809150500390600052602060002090600402019050338160000160016101000a81548173ffffffffffffffffffffffffffffffffffffffff021916908373ffffffffffffffffffffffffffffffffffffffff16021790555060018160000160006101000a81548160ff021916908315150217905550828160020190805190602001906103a7929190610fe5565b508060030160405180608001604052806001151581526020013373ffffffffffffffffffffffffffffffffffffffff16815260200142815260200184815250908060018154018082558091505060019003906000526020600020906003020160009091909190915060008201518160000160006101000a81548160ff02191690831515021790555060208201518160000160016101000a81548173ffffffffffffffffffffffffffffffffffffffff021916908373ffffffffffffffffffffffffffffffffffffffff16021790555060408201518160010155606082015181600201908051906020019061049c929190610fe5565b505050505050565b606060028054905082106104ed576040517f08c379a00000000000000000000000000000000000000000000000000000000081526004016104e490611814565b60405180910390fd5b6107c16002838154811061052a577f4e487b7100000000000000000000000000000000000000000000000000000000600052603260045260246000fd5b90600052602060002090600402016040518060a00160405290816000820160009054906101000a900460ff161515151581526020016000820160019054906101000a900473ffffffffffffffffffffffffffffffffffffffff1673ffffffffffffffffffffffffffffffffffffffff1673ffffffffffffffffffffffffffffffffffffffff168152602001600182015481526020016002820180546105ce9061199b565b80601f01602080910402602001604051908101604052809291908181526020018280546105fa9061199b565b80156106475780601f1061061c57610100808354040283529160200191610647565b820191906000526020600020905b81548152906001019060200180831161062a57829003601f168201915b5050505050815260200160038201805480602002602001604051908101604052809291908181526020016000905b828210156107b457838290600052602060002090600302016040518060800160405290816000820160009054906101000a900460ff161515151581526020016000820160019054906101000a900473ffffffffffffffffffffffffffffffffffffffff1673ffffffffffffffffffffffffffffffffffffffff1673ffffffffffffffffffffffffffffffffffffffff168152602001600182015481526020016002820180546107239061199b565b80601f016020809104026020016040519081016040528092919081815260200182805461074f9061199b565b801561079c5780601f106107715761010080835404028352916020019161079c565b820191906000526020600020905b81548152906001019060200180831161077f57829003601f168201915b50505050508152505081526020019060010190610675565b5050505081525050610ede565b606001519050919050565b6001151560008054906101000a900460ff16151514610820576040517f08c379a000000000000000000000000000000000000000000000000000000000815260040161081790611854565b60405180910390fd5b6002805490508210610867576040517f08c379a000000000000000000000000000000000000000000000000000000000815260040161085e906117d4565b60405180910390fd5b600281815481106108a1577f4e487b7100000000000000000000000000000000000000000000000000000000600052603260045260246000fd5b90600052602060002090600402016003018054905081106108f7576040517f08c379a00000000000000000000000000000000000000000000000000000000081526004016108ee906117f4565b60405180910390fd5b60005b60028381548110610934577f4e487b7100000000000000000000000000000000000000000000000000000000600052603260045260246000fd5b906000526020600020906004020160030180549050811015610a105760006002848154811061098c577f4e487b7100000000000000000000000000000000000000000000000000000000600052603260045260246000fd5b906000526020600020906004020160030182815481106109d5577f4e487b7100000000000000000000000000000000000000000000000000000000600052603260045260246000fd5b906000526020600020906003020160000160006101000a81548160ff0219169083151502179055508080610a08906119cd565b9150506108fa565b50600160028381548110610a4d577f4e487b7100000000000000000000000000000000000000000000000000000000600052603260045260246000fd5b90600052602060002090600402016003018281548110610a96577f4e487b7100000000000000000000000000000000000000000000000000000000600052603260045260246000fd5b906000526020600020906003020160000160006101000a81548160ff0219169083151502179055505050565b60008054906101000a900460ff1681565b6001151560008054906101000a900460ff16151514610b27576040517f08c379a0000000000000000000000000000000000000000000000000000000008152600401610b1e90611854565b60405180910390fd5b6002805490508210610b6e576040517f08c379a0000000000000000000000000000000000000000000000000000000008152600401610b6590611814565b60405180910390fd5b600060028381548110610baa577f4e487b7100000000000000000000000000000000000000000000000000000000600052603260045260246000fd5b90600052602060002090600402019050600115158160000160009054906101000a900460ff16151514610c12576040517f08c379a0000000000000000000000000000000000000000000000000000000008152600401610c09906117b4565b60405180910390fd5b8060030160405180608001604052806000151581526020013373ffffffffffffffffffffffffffffffffffffffff16815260200142815260200184815250908060018154018082558091505060019003906000526020600020906003020160009091909190915060008201518160000160006101000a81548160ff02191690831515021790555060208201518160000160016101000a81548173ffffffffffffffffffffffffffffffffffffffff021916908373ffffffffffffffffffffffffffffffffffffffff160217905550604082015181600101556060820151816002019080519060200190610d06929190610fe5565b505050505050565b60028181548110610d1e57600080fd5b90600052602060002090600402016000915090508060000160009054906101000a900460ff16908060000160019054906101000a900473ffffffffffffffffffffffffffffffffffffffff1690806001015490806002018054610d809061199b565b80601f0160208091040260200160405190810160405280929190818152602001828054610dac9061199b565b8015610df95780601f10610dce57610100808354040283529160200191610df9565b820191906000526020600020905b815481529060010190602001808311610ddc57829003601f168201915b5050505050905084565b600080600090505b600280549050811015610ed35782604051602001610e2991906116a2565b6040516020818303038152906040528051906020012060028281548110610e79577f4e487b7100000000000000000000000000000000000000000000000000000000600052603260045260246000fd5b9060005260206000209060040201600201604051602001610e9a91906116b9565b604051602081830303815290604052805190602001201415610ec0576001915050610ed9565b8080610ecb906119cd565b915050610e0b565b50600090505b919050565b610ee661106b565b60005b826080015151811015610fa45782608001518181518110610f33577f4e487b7100000000000000000000000000000000000000000000000000000000600052603260045260246000fd5b60200260200101516000015115610f915782608001518181518110610f81577f4e487b7100000000000000000000000000000000000000000000000000000000600052603260045260246000fd5b6020026020010151915050610fe0565b8080610f9c906119cd565b915050610ee9565b506040517f08c379a0000000000000000000000000000000000000000000000000000000008152600401610fd790611774565b60405180910390fd5b919050565b828054610ff19061199b565b90600052602060002090601f016020900481019282611013576000855561105a565b82601f1061102c57805160ff191683800117855561105a565b8280016001018555821561105a579182015b8281111561105957825182559160200191906001019061103e565b5b50905061106791906110ab565b5090565b6040518060800160405280600015158152602001600073ffffffffffffffffffffffffffffffffffffffff16815260200160008152602001606081525090565b5b808211156110c45760008160009055506001016110ac565b5090565b60006110db6110d6846118a5565b611874565b9050828152602081018484840111156110f357600080fd5b6110fe848285611959565b509392505050565b60008135905061111581611ab4565b92915050565b600082601f83011261112c57600080fd5b813561113c8482602086016110c8565b91505092915050565b60008135905061115481611acb565b92915050565b60006020828403121561116c57600080fd5b600061117a84828501611106565b91505092915050565b6000806040838503121561119657600080fd5b600083013567ffffffffffffffff8111156111b057600080fd5b6111bc8582860161111b565b925050602083013567ffffffffffffffff8111156111d957600080fd5b6111e58582860161111b565b9150509250929050565b60006020828403121561120157600080fd5b600061120f84828501611145565b91505092915050565b6000806040838503121561122b57600080fd5b600061123985828601611145565b925050602083013567ffffffffffffffff81111561125657600080fd5b6112628582860161111b565b9150509250929050565b6000806040838503121561127f57600080fd5b600061128d85828601611145565b925050602061129e85828601611145565b9150509250929050565b6112b181611911565b82525050565b6112c081611923565b82525050565b60006112d1826118ea565b6112db81856118f5565b93506112eb818560208601611968565b6112f481611aa3565b840191505092915050565b600061130a826118ea565b6113148185611906565b9350611324818560208601611968565b80840191505092915050565b6000815461133d8161199b565b6113478186611906565b945060018216600081146113625760018114611373576113a6565b60ff198316865281860193506113a6565b61137c856118d5565b60005b8381101561139e5781548189015260018201915060208101905061137f565b838801955050505b50505092915050565b60006113bc6020836118f5565b91507f4e656e68756d612076657273616f2076616c69646120656e636f6e74726164616000830152602082019050919050565b60006113fc6024836118f5565b91507f556d6120706167696e6120636f6d206573746520746974756c6f206a6120657860008301527f69737465000000000000000000000000000000000000000000000000000000006020830152604082019050919050565b60006114626043836118f5565b91507f412061646963616f206465206e6f76617320766572636f657320736f2065207060008301527f65726d6974696461207175616e646f206120706167696e61206573746120617460208301527f69766100000000000000000000000000000000000000000000000000000000006040830152606082019050919050565b60006114ee601a836118f5565b91507f496e6469636520646120706167696e6120696e76616c69646f2e0000000000006000830152602082019050919050565b600061152e601a836118f5565b91507f496e646963652064612076657273736f20696e76616c69646f2e0000000000006000830152602082019050919050565b600061156e6016836118f5565b91507f496e6469636520666f726120646f20616c63616e6365000000000000000000006000830152602082019050919050565b60006115ae603d836118f5565b91507f536f6d656e7465206f20646f6e6f20646573746120426c6f636b70656469612060008301527f706f646520616c7465726172206f20617472696275746f20617469766f0000006020830152604082019050919050565b60006116146047836118f5565b91507f412061646963616f206465206e6f76617320706167696e617320736f2065207060008301527f65726d6974696461207175616e646f206120426c6f636b70656469612065737460208301527f61206174697661000000000000000000000000000000000000000000000000006040830152606082019050919050565b61169c8161194f565b82525050565b60006116ae82846112ff565b915081905092915050565b60006116c58284611330565b915081905092915050565b60006020820190506116e560008301846112a8565b92915050565b600060208201905061170060008301846112b7565b92915050565b600060808201905061171b60008301876112b7565b61172860208301866112a8565b6117356040830185611693565b818103606083015261174781846112c6565b905095945050505050565b6000602082019050818103600083015261176c81846112c6565b905092915050565b6000602082019050818103600083015261178d816113af565b9050919050565b600060208201905081810360008301526117ad816113ef565b9050919050565b600060208201905081810360008301526117cd81611455565b9050919050565b600060208201905081810360008301526117ed816114e1565b9050919050565b6000602082019050818103600083015261180d81611521565b9050919050565b6000602082019050818103600083015261182d81611561565b9050919050565b6000602082019050818103600083015261184d816115a1565b9050919050565b6000602082019050818103600083015261186d81611607565b9050919050565b6000604051905081810181811067ffffffffffffffff8211171561189b5761189a611a74565b5b8060405250919050565b600067ffffffffffffffff8211156118c0576118bf611a74565b5b601f19601f8301169050602081019050919050565b60008190508160005260206000209050919050565b600081519050919050565b600082825260208201905092915050565b600081905092915050565b600061191c8261192f565b9050919050565b60008115159050919050565b600073ffffffffffffffffffffffffffffffffffffffff82169050919050565b6000819050919050565b82818337600083830152505050565b60005b8381101561198657808201518184015260208101905061196b565b83811115611995576000848401525b50505050565b600060028204905060018216806119b357607f821691505b602082108114156119c7576119c6611a45565b5b50919050565b60006119d88261194f565b91507fffffffffffffffffffffffffffffffffffffffffffffffffffffffffffffffff821415611a0b57611a0a611a16565b5b600182019050919050565b7f4e487b7100000000000000000000000000000000000000000000000000000000600052601160045260246000fd5b7f4e487b7100000000000000000000000000000000000000000000000000000000600052602260045260246000fd5b7f4e487b7100000000000000000000000000000000000000000000000000000000600052604160045260246000fd5b6000601f19601f8301169050919050565b611abd81611923565b8114611ac857600080fd5b50565b611ad48161194f565b8114611adf57600080fd5b5056fea2646970667358221220d0f5d97823cf64eebc24a8680ea3d5a26a4e76eaadbfd20dfea9529783a57ebf64736f6c63430008000033",
					"opcodes": "PUSH1 0x80 PUSH1 0x40 MSTORE PUSH1 0x1 PUSH1 0x0 DUP1 PUSH2 0x100 EXP DUP2 SLOAD DUP2 PUSH1 0xFF MUL NOT AND SWAP1 DUP4 ISZERO ISZERO MUL OR SWAP1 SSTORE POP CALLVALUE DUP1 ISZERO PUSH2 0x2A JUMPI PUSH1 0x0 DUP1 REVERT JUMPDEST POP CALLER PUSH1 0x0 PUSH1 0x1 PUSH2 0x100 EXP DUP2 SLOAD DUP2 PUSH20 0xFFFFFFFFFFFFFFFFFFFFFFFFFFFFFFFFFFFFFFFF MUL NOT AND SWAP1 DUP4 PUSH20 0xFFFFFFFFFFFFFFFFFFFFFFFFFFFFFFFFFFFFFFFF AND MUL OR SWAP1 SSTORE POP PUSH2 0x1B18 DUP1 PUSH2 0x7B PUSH1 0x0 CODECOPY PUSH1 0x0 RETURN INVALID PUSH1 0x80 PUSH1 0x40 MSTORE CALLVALUE DUP1 ISZERO PUSH2 0x10 JUMPI PUSH1 0x0 DUP1 REVERT JUMPDEST POP PUSH1 0x4 CALLDATASIZE LT PUSH2 0x88 JUMPI PUSH1 0x0 CALLDATALOAD PUSH1 0xE0 SHR DUP1 PUSH4 0x95BE551A GT PUSH2 0x5B JUMPI DUP1 PUSH4 0x95BE551A EQ PUSH2 0x113 JUMPI DUP1 PUSH4 0xA18CC13B EQ PUSH2 0x12F JUMPI DUP1 PUSH4 0xD4D23A6E EQ PUSH2 0x14D JUMPI DUP1 PUSH4 0xE7D4296A EQ PUSH2 0x169 JUMPI PUSH2 0x88 JUMP JUMPDEST DUP1 PUSH4 0x694952D EQ PUSH2 0x8D JUMPI DUP1 PUSH4 0x1509D30C EQ PUSH2 0xAB JUMPI DUP1 PUSH4 0x1C18379A EQ PUSH2 0xC7 JUMPI DUP1 PUSH4 0x57AE2A89 EQ PUSH2 0xE3 JUMPI JUMPDEST PUSH1 0x0 DUP1 REVERT JUMPDEST PUSH2 0x95 PUSH2 0x19C JUMP JUMPDEST PUSH1 0x40 MLOAD PUSH2 0xA2 SWAP2 SWAP1 PUSH2 0x16D0 JUMP JUMPDEST PUSH1 0x40 MLOAD DUP1 SWAP2 SUB SWAP1 RETURN JUMPDEST PUSH2 0xC5 PUSH1 0x4 DUP1 CALLDATASIZE SUB DUP2 ADD SWAP1 PUSH2 0xC0 SWAP2 SWAP1 PUSH2 0x115A JUMP JUMPDEST PUSH2 0x1C2 JUMP JUMPDEST STOP JUMPDEST PUSH2 0xE1 PUSH1 0x4 DUP1 CALLDATASIZE SUB DUP2 ADD SWAP1 PUSH2 0xDC SWAP2 SWAP1 PUSH2 0x1183 JUMP JUMPDEST PUSH2 0x26E JUMP JUMPDEST STOP JUMPDEST PUSH2 0xFD PUSH1 0x4 DUP1 CALLDATASIZE SUB DUP2 ADD SWAP1 PUSH2 0xF8 SWAP2 SWAP1 PUSH2 0x11EF JUMP JUMPDEST PUSH2 0x4A4 JUMP JUMPDEST PUSH1 0x40 MLOAD PUSH2 0x10A SWAP2 SWAP1 PUSH2 0x1752 JUMP JUMPDEST PUSH1 0x40 MLOAD DUP1 SWAP2 SUB SWAP1 RETURN JUMPDEST PUSH2 0x12D PUSH1 0x4 DUP1 CALLDATASIZE SUB DUP2 ADD SWAP1 PUSH2 0x128 SWAP2 SWAP1 PUSH2 0x126C JUMP JUMPDEST PUSH2 0x7CC JUMP JUMPDEST STOP JUMPDEST PUSH2 0x137 PUSH2 0xAC2 JUMP JUMPDEST PUSH1 0x40 MLOAD PUSH2 0x144 SWAP2 SWAP1 PUSH2 0x16EB JUMP JUMPDEST PUSH1 0x40 MLOAD DUP1 SWAP2 SUB SWAP1 RETURN JUMPDEST PUSH2 0x167 PUSH1 0x4 DUP1 CALLDATASIZE SUB DUP2 ADD SWAP1 PUSH2 0x162 SWAP2 SWAP1 PUSH2 0x1218 JUMP JUMPDEST PUSH2 0xAD3 JUMP JUMPDEST STOP JUMPDEST PUSH2 0x183 PUSH1 0x4 DUP1 CALLDATASIZE SUB DUP2 ADD SWAP1 PUSH2 0x17E SWAP2 SWAP1 PUSH2 0x11EF JUMP JUMPDEST PUSH2 0xD0E JUMP JUMPDEST PUSH1 0x40 MLOAD PUSH2 0x193 SWAP5 SWAP4 SWAP3 SWAP2 SWAP1 PUSH2 0x1706 JUMP JUMPDEST PUSH1 0x40 MLOAD DUP1 SWAP2 SUB SWAP1 RETURN JUMPDEST PUSH1 0x0 PUSH1 0x1 SWAP1 SLOAD SWAP1 PUSH2 0x100 EXP SWAP1 DIV PUSH20 0xFFFFFFFFFFFFFFFFFFFFFFFFFFFFFFFFFFFFFFFF AND DUP2 JUMP JUMPDEST PUSH1 0x0 PUSH1 0x1 SWAP1 SLOAD SWAP1 PUSH2 0x100 EXP SWAP1 DIV PUSH20 0xFFFFFFFFFFFFFFFFFFFFFFFFFFFFFFFFFFFFFFFF AND PUSH20 0xFFFFFFFFFFFFFFFFFFFFFFFFFFFFFFFFFFFFFFFF AND CALLER PUSH20 0xFFFFFFFFFFFFFFFFFFFFFFFFFFFFFFFFFFFFFFFF AND EQ PUSH2 0x252 JUMPI PUSH1 0x40 MLOAD PUSH32 0x8C379A000000000000000000000000000000000000000000000000000000000 DUP2 MSTORE PUSH1 0x4 ADD PUSH2 0x249 SWAP1 PUSH2 0x1834 JUMP JUMPDEST PUSH1 0x40 MLOAD DUP1 SWAP2 SUB SWAP1 REVERT JUMPDEST DUP1 PUSH1 0x0 DUP1 PUSH2 0x100 EXP DUP2 SLOAD DUP2 PUSH1 0xFF MUL NOT AND SWAP1 DUP4 ISZERO ISZERO MUL OR SWAP1 SSTORE POP POP JUMP JUMPDEST PUSH1 0x1 ISZERO ISZERO PUSH1 0x0 DUP1 SLOAD SWAP1 PUSH2 0x100 EXP SWAP1 DIV PUSH1 0xFF AND ISZERO ISZERO EQ PUSH2 0x2C2 JUMPI PUSH1 0x40 MLOAD PUSH32 0x8C379A000000000000000000000000000000000000000000000000000000000 DUP2 MSTORE PUSH1 0x4 ADD PUSH2 0x2B9 SWAP1 PUSH2 0x1854 JUMP JUMPDEST PUSH1 0x40 MLOAD DUP1 SWAP2 SUB SWAP1 REVERT JUMPDEST PUSH2 0x2CB DUP3 PUSH2 0xE03 JUMP JUMPDEST ISZERO PUSH2 0x30B JUMPI PUSH1 0x40 MLOAD PUSH32 0x8C379A000000000000000000000000000000000000000000000000000000000 DUP2 MSTORE PUSH1 0x4 ADD PUSH2 0x302 SWAP1 PUSH2 0x1794 JUMP JUMPDEST PUSH1 0x40 MLOAD DUP1 SWAP2 SUB SWAP1 REVERT JUMPDEST PUSH1 0x0 PUSH1 0x2 PUSH1 0x1 DUP2 PUSH1 0x1 DUP2 SLOAD ADD DUP1 DUP3 SSTORE DUP1 SWAP2 POP POP SUB SWAP1 PUSH1 0x0 MSTORE PUSH1 0x20 PUSH1 0x0 KECCAK256 SWAP1 PUSH1 0x4 MUL ADD SWAP1 POP CALLER DUP2 PUSH1 0x0 ADD PUSH1 0x1 PUSH2 0x100 EXP DUP2 SLOAD DUP2 PUSH20 0xFFFFFFFFFFFFFFFFFFFFFFFFFFFFFFFFFFFFFFFF MUL NOT AND SWAP1 DUP4 PUSH20 0xFFFFFFFFFFFFFFFFFFFFFFFFFFFFFFFFFFFFFFFF AND MUL OR SWAP1 SSTORE POP PUSH1 0x1 DUP2 PUSH1 0x0 ADD PUSH1 0x0 PUSH2 0x100 EXP DUP2 SLOAD DUP2 PUSH1 0xFF MUL NOT AND SWAP1 DUP4 ISZERO ISZERO MUL OR SWAP1 SSTORE POP DUP3 DUP2 PUSH1 0x2 ADD SWAP1 DUP1 MLOAD SWAP1 PUSH1 0x20 ADD SWAP1 PUSH2 0x3A7 SWAP3 SWAP2 SWAP1 PUSH2 0xFE5 JUMP JUMPDEST POP DUP1 PUSH1 0x3 ADD PUSH1 0x40 MLOAD DUP1 PUSH1 0x80 ADD PUSH1 0x40 MSTORE DUP1 PUSH1 0x1 ISZERO ISZERO DUP2 MSTORE PUSH1 0x20 ADD CALLER PUSH20 0xFFFFFFFFFFFFFFFFFFFFFFFFFFFFFFFFFFFFFFFF AND DUP2 MSTORE PUSH1 0x20 ADD TIMESTAMP DUP2 MSTORE PUSH1 0x20 ADD DUP5 DUP2 MSTORE POP SWAP1 DUP1 PUSH1 0x1 DUP2 SLOAD ADD DUP1 DUP3 SSTORE DUP1 SWAP2 POP POP PUSH1 0x1 SWAP1 SUB SWAP1 PUSH1 0x0 MSTORE PUSH1 0x20 PUSH1 0x0 KECCAK256 SWAP1 PUSH1 0x3 MUL ADD PUSH1 0x0 SWAP1 SWAP2 SWAP1 SWAP2 SWAP1 SWAP2 POP PUSH1 0x0 DUP3 ADD MLOAD DUP2 PUSH1 0x0 ADD PUSH1 0x0 PUSH2 0x100 EXP DUP2 SLOAD DUP2 PUSH1 0xFF MUL NOT AND SWAP1 DUP4 ISZERO ISZERO MUL OR SWAP1 SSTORE POP PUSH1 0x20 DUP3 ADD MLOAD DUP2 PUSH1 0x0 ADD PUSH1 0x1 PUSH2 0x100 EXP DUP2 SLOAD DUP2 PUSH20 0xFFFFFFFFFFFFFFFFFFFFFFFFFFFFFFFFFFFFFFFF MUL NOT AND SWAP1 DUP4 PUSH20 0xFFFFFFFFFFFFFFFFFFFFFFFFFFFFFFFFFFFFFFFF AND MUL OR SWAP1 SSTORE POP PUSH1 0x40 DUP3 ADD MLOAD DUP2 PUSH1 0x1 ADD SSTORE PUSH1 0x60 DUP3 ADD MLOAD DUP2 PUSH1 0x2 ADD SWAP1 DUP1 MLOAD SWAP1 PUSH1 0x20 ADD SWAP1 PUSH2 0x49C SWAP3 SWAP2 SWAP1 PUSH2 0xFE5 JUMP JUMPDEST POP POP POP POP POP POP JUMP JUMPDEST PUSH1 0x60 PUSH1 0x2 DUP1 SLOAD SWAP1 POP DUP3 LT PUSH2 0x4ED JUMPI PUSH1 0x40 MLOAD PUSH32 0x8C379A000000000000000000000000000000000000000000000000000000000 DUP2 MSTORE PUSH1 0x4 ADD PUSH2 0x4E4 SWAP1 PUSH2 0x1814 JUMP JUMPDEST PUSH1 0x40 MLOAD DUP1 SWAP2 SUB SWAP1 REVERT JUMPDEST PUSH2 0x7C1 PUSH1 0x2 DUP4 DUP2 SLOAD DUP2 LT PUSH2 0x52A JUMPI PUSH32 0x4E487B7100000000000000000000000000000000000000000000000000000000 PUSH1 0x0 MSTORE PUSH1 0x32 PUSH1 0x4 MSTORE PUSH1 0x24 PUSH1 0x0 REVERT JUMPDEST SWAP1 PUSH1 0x0 MSTORE PUSH1 0x20 PUSH1 0x0 KECCAK256 SWAP1 PUSH1 0x4 MUL ADD PUSH1 0x40 MLOAD DUP1 PUSH1 0xA0 ADD PUSH1 0x40 MSTORE SWAP1 DUP2 PUSH1 0x0 DUP3 ADD PUSH1 0x0 SWAP1 SLOAD SWAP1 PUSH2 0x100 EXP SWAP1 DIV PUSH1 0xFF AND ISZERO ISZERO ISZERO ISZERO DUP2 MSTORE PUSH1 0x20 ADD PUSH1 0x0 DUP3 ADD PUSH1 0x1 SWAP1 SLOAD SWAP1 PUSH2 0x100 EXP SWAP1 DIV PUSH20 0xFFFFFFFFFFFFFFFFFFFFFFFFFFFFFFFFFFFFFFFF AND PUSH20 0xFFFFFFFFFFFFFFFFFFFFFFFFFFFFFFFFFFFFFFFF AND PUSH20 0xFFFFFFFFFFFFFFFFFFFFFFFFFFFFFFFFFFFFFFFF AND DUP2 MSTORE PUSH1 0x20 ADD PUSH1 0x1 DUP3 ADD SLOAD DUP2 MSTORE PUSH1 0x20 ADD PUSH1 0x2 DUP3 ADD DUP1 SLOAD PUSH2 0x5CE SWAP1 PUSH2 0x199B JUMP JUMPDEST DUP1 PUSH1 0x1F ADD PUSH1 0x20 DUP1 SWAP2 DIV MUL PUSH1 0x20 ADD PUSH1 0x40 MLOAD SWAP1 DUP2 ADD PUSH1 0x40 MSTORE DUP1 SWAP3 SWAP2 SWAP1 DUP2 DUP2 MSTORE PUSH1 0x20 ADD DUP3 DUP1 SLOAD PUSH2 0x5FA SWAP1 PUSH2 0x199B JUMP JUMPDEST DUP1 ISZERO PUSH2 0x647 JUMPI DUP1 PUSH1 0x1F LT PUSH2 0x61C JUMPI PUSH2 0x100 DUP1 DUP4 SLOAD DIV MUL DUP4 MSTORE SWAP2 PUSH1 0x20 ADD SWAP2 PUSH2 0x647 JUMP JUMPDEST DUP3 ADD SWAP2 SWAP1 PUSH1 0x0 MSTORE PUSH1 0x20 PUSH1 0x0 KECCAK256 SWAP1 JUMPDEST DUP2 SLOAD DUP2 MSTORE SWAP1 PUSH1 0x1 ADD SWAP1 PUSH1 0x20 ADD DUP1 DUP4 GT PUSH2 0x62A JUMPI DUP3 SWAP1 SUB PUSH1 0x1F AND DUP3 ADD SWAP2 JUMPDEST POP POP POP POP POP DUP2 MSTORE PUSH1 0x20 ADD PUSH1 0x3 DUP3 ADD DUP1 SLOAD DUP1 PUSH1 0x20 MUL PUSH1 0x20 ADD PUSH1 0x40 MLOAD SWAP1 DUP2 ADD PUSH1 0x40 MSTORE DUP1 SWAP3 SWAP2 SWAP1 DUP2 DUP2 MSTORE PUSH1 0x20 ADD PUSH1 0x0 SWAP1 JUMPDEST DUP3 DUP3 LT ISZERO PUSH2 0x7B4 JUMPI DUP4 DUP3 SWAP1 PUSH1 0x0 MSTORE PUSH1 0x20 PUSH1 0x0 KECCAK256 SWAP1 PUSH1 0x3 MUL ADD PUSH1 0x40 MLOAD DUP1 PUSH1 0x80 ADD PUSH1 0x40 MSTORE SWAP1 DUP2 PUSH1 0x0 DUP3 ADD PUSH1 0x0 SWAP1 SLOAD SWAP1 PUSH2 0x100 EXP SWAP1 DIV PUSH1 0xFF AND ISZERO ISZERO ISZERO ISZERO DUP2 MSTORE PUSH1 0x20 ADD PUSH1 0x0 DUP3 ADD PUSH1 0x1 SWAP1 SLOAD SWAP1 PUSH2 0x100 EXP SWAP1 DIV PUSH20 0xFFFFFFFFFFFFFFFFFFFFFFFFFFFFFFFFFFFFFFFF AND PUSH20 0xFFFFFFFFFFFFFFFFFFFFFFFFFFFFFFFFFFFFFFFF AND PUSH20 0xFFFFFFFFFFFFFFFFFFFFFFFFFFFFFFFFFFFFFFFF AND DUP2 MSTORE PUSH1 0x20 ADD PUSH1 0x1 DUP3 ADD SLOAD DUP2 MSTORE PUSH1 0x20 ADD PUSH1 0x2 DUP3 ADD DUP1 SLOAD PUSH2 0x723 SWAP1 PUSH2 0x199B JUMP JUMPDEST DUP1 PUSH1 0x1F ADD PUSH1 0x20 DUP1 SWAP2 DIV MUL PUSH1 0x20 ADD PUSH1 0x40 MLOAD SWAP1 DUP2 ADD PUSH1 0x40 MSTORE DUP1 SWAP3 SWAP2 SWAP1 DUP2 DUP2 MSTORE PUSH1 0x20 ADD DUP3 DUP1 SLOAD PUSH2 0x74F SWAP1 PUSH2 0x199B JUMP JUMPDEST DUP1 ISZERO PUSH2 0x79C JUMPI DUP1 PUSH1 0x1F LT PUSH2 0x771 JUMPI PUSH2 0x100 DUP1 DUP4 SLOAD DIV MUL DUP4 MSTORE SWAP2 PUSH1 0x20 ADD SWAP2 PUSH2 0x79C JUMP JUMPDEST DUP3 ADD SWAP2 SWAP1 PUSH1 0x0 MSTORE PUSH1 0x20 PUSH1 0x0 KECCAK256 SWAP1 JUMPDEST DUP2 SLOAD DUP2 MSTORE SWAP1 PUSH1 0x1 ADD SWAP1 PUSH1 0x20 ADD DUP1 DUP4 GT PUSH2 0x77F JUMPI DUP3 SWAP1 SUB PUSH1 0x1F AND DUP3 ADD SWAP2 JUMPDEST POP POP POP POP POP DUP2 MSTORE POP POP DUP2 MSTORE PUSH1 0x20 ADD SWAP1 PUSH1 0x1 ADD SWAP1 PUSH2 0x675 JUMP JUMPDEST POP POP POP POP DUP2 MSTORE POP POP PUSH2 0xEDE JUMP JUMPDEST PUSH1 0x60 ADD MLOAD SWAP1 POP SWAP2 SWAP1 POP JUMP JUMPDEST PUSH1 0x1 ISZERO ISZERO PUSH1 0x0 DUP1 SLOAD SWAP1 PUSH2 0x100 EXP SWAP1 DIV PUSH1 0xFF AND ISZERO ISZERO EQ PUSH2 0x820 JUMPI PUSH1 0x40 MLOAD PUSH32 0x8C379A000000000000000000000000000000000000000000000000000000000 DUP2 MSTORE PUSH1 0x4 ADD PUSH2 0x817 SWAP1 PUSH2 0x1854 JUMP JUMPDEST PUSH1 0x40 MLOAD DUP1 SWAP2 SUB SWAP1 REVERT JUMPDEST PUSH1 0x2 DUP1 SLOAD SWAP1 POP DUP3 LT PUSH2 0x867 JUMPI PUSH1 0x40 MLOAD PUSH32 0x8C379A000000000000000000000000000000000000000000000000000000000 DUP2 MSTORE PUSH1 0x4 ADD PUSH2 0x85E SWAP1 PUSH2 0x17D4 JUMP JUMPDEST PUSH1 0x40 MLOAD DUP1 SWAP2 SUB SWAP1 REVERT JUMPDEST PUSH1 0x2 DUP2 DUP2 SLOAD DUP2 LT PUSH2 0x8A1 JUMPI PUSH32 0x4E487B7100000000000000000000000000000000000000000000000000000000 PUSH1 0x0 MSTORE PUSH1 0x32 PUSH1 0x4 MSTORE PUSH1 0x24 PUSH1 0x0 REVERT JUMPDEST SWAP1 PUSH1 0x0 MSTORE PUSH1 0x20 PUSH1 0x0 KECCAK256 SWAP1 PUSH1 0x4 MUL ADD PUSH1 0x3 ADD DUP1 SLOAD SWAP1 POP DUP2 LT PUSH2 0x8F7 JUMPI PUSH1 0x40 MLOAD PUSH32 0x8C379A000000000000000000000000000000000000000000000000000000000 DUP2 MSTORE PUSH1 0x4 ADD PUSH2 0x8EE SWAP1 PUSH2 0x17F4 JUMP JUMPDEST PUSH1 0x40 MLOAD DUP1 SWAP2 SUB SWAP1 REVERT JUMPDEST PUSH1 0x0 JUMPDEST PUSH1 0x2 DUP4 DUP2 SLOAD DUP2 LT PUSH2 0x934 JUMPI PUSH32 0x4E487B7100000000000000000000000000000000000000000000000000000000 PUSH1 0x0 MSTORE PUSH1 0x32 PUSH1 0x4 MSTORE PUSH1 0x24 PUSH1 0x0 REVERT JUMPDEST SWAP1 PUSH1 0x0 MSTORE PUSH1 0x20 PUSH1 0x0 KECCAK256 SWAP1 PUSH1 0x4 MUL ADD PUSH1 0x3 ADD DUP1 SLOAD SWAP1 POP DUP2 LT ISZERO PUSH2 0xA10 JUMPI PUSH1 0x0 PUSH1 0x2 DUP5 DUP2 SLOAD DUP2 LT PUSH2 0x98C JUMPI PUSH32 0x4E487B7100000000000000000000000000000000000000000000000000000000 PUSH1 0x0 MSTORE PUSH1 0x32 PUSH1 0x4 MSTORE PUSH1 0x24 PUSH1 0x0 REVERT JUMPDEST SWAP1 PUSH1 0x0 MSTORE PUSH1 0x20 PUSH1 0x0 KECCAK256 SWAP1 PUSH1 0x4 MUL ADD PUSH1 0x3 ADD DUP3 DUP2 SLOAD DUP2 LT PUSH2 0x9D5 JUMPI PUSH32 0x4E487B7100000000000000000000000000000000000000000000000000000000 PUSH1 0x0 MSTORE PUSH1 0x32 PUSH1 0x4 MSTORE PUSH1 0x24 PUSH1 0x0 REVERT JUMPDEST SWAP1 PUSH1 0x0 MSTORE PUSH1 0x20 PUSH1 0x0 KECCAK256 SWAP1 PUSH1 0x3 MUL ADD PUSH1 0x0 ADD PUSH1 0x0 PUSH2 0x100 EXP DUP2 SLOAD DUP2 PUSH1 0xFF MUL NOT AND SWAP1 DUP4 ISZERO ISZERO MUL OR SWAP1 SSTORE POP DUP1 DUP1 PUSH2 0xA08 SWAP1 PUSH2 0x19CD JUMP JUMPDEST SWAP2 POP POP PUSH2 0x8FA JUMP JUMPDEST POP PUSH1 0x1 PUSH1 0x2 DUP4 DUP2 SLOAD DUP2 LT PUSH2 0xA4D JUMPI PUSH32 0x4E487B7100000000000000000000000000000000000000000000000000000000 PUSH1 0x0 MSTORE PUSH1 0x32 PUSH1 0x4 MSTORE PUSH1 0x24 PUSH1 0x0 REVERT JUMPDEST SWAP1 PUSH1 0x0 MSTORE PUSH1 0x20 PUSH1 0x0 KECCAK256 SWAP1 PUSH1 0x4 MUL ADD PUSH1 0x3 ADD DUP3 DUP2 SLOAD DUP2 LT PUSH2 0xA96 JUMPI PUSH32 0x4E487B7100000000000000000000000000000000000000000000000000000000 PUSH1 0x0 MSTORE PUSH1 0x32 PUSH1 0x4 MSTORE PUSH1 0x24 PUSH1 0x0 REVERT JUMPDEST SWAP1 PUSH1 0x0 MSTORE PUSH1 0x20 PUSH1 0x0 KECCAK256 SWAP1 PUSH1 0x3 MUL ADD PUSH1 0x0 ADD PUSH1 0x0 PUSH2 0x100 EXP DUP2 SLOAD DUP2 PUSH1 0xFF MUL NOT AND SWAP1 DUP4 ISZERO ISZERO MUL OR SWAP1 SSTORE POP POP POP JUMP JUMPDEST PUSH1 0x0 DUP1 SLOAD SWAP1 PUSH2 0x100 EXP SWAP1 DIV PUSH1 0xFF AND DUP2 JUMP JUMPDEST PUSH1 0x1 ISZERO ISZERO PUSH1 0x0 DUP1 SLOAD SWAP1 PUSH2 0x100 EXP SWAP1 DIV PUSH1 0xFF AND ISZERO ISZERO EQ PUSH2 0xB27 JUMPI PUSH1 0x40 MLOAD PUSH32 0x8C379A000000000000000000000000000000000000000000000000000000000 DUP2 MSTORE PUSH1 0x4 ADD PUSH2 0xB1E SWAP1 PUSH2 0x1854 JUMP JUMPDEST PUSH1 0x40 MLOAD DUP1 SWAP2 SUB SWAP1 REVERT JUMPDEST PUSH1 0x2 DUP1 SLOAD SWAP1 POP DUP3 LT PUSH2 0xB6E JUMPI PUSH1 0x40 MLOAD PUSH32 0x8C379A000000000000000000000000000000000000000000000000000000000 DUP2 MSTORE PUSH1 0x4 ADD PUSH2 0xB65 SWAP1 PUSH2 0x1814 JUMP JUMPDEST PUSH1 0x40 MLOAD DUP1 SWAP2 SUB SWAP1 REVERT JUMPDEST PUSH1 0x0 PUSH1 0x2 DUP4 DUP2 SLOAD DUP2 LT PUSH2 0xBAA JUMPI PUSH32 0x4E487B7100000000000000000000000000000000000000000000000000000000 PUSH1 0x0 MSTORE PUSH1 0x32 PUSH1 0x4 MSTORE PUSH1 0x24 PUSH1 0x0 REVERT JUMPDEST SWAP1 PUSH1 0x0 MSTORE PUSH1 0x20 PUSH1 0x0 KECCAK256 SWAP1 PUSH1 0x4 MUL ADD SWAP1 POP PUSH1 0x1 ISZERO ISZERO DUP2 PUSH1 0x0 ADD PUSH1 0x0 SWAP1 SLOAD SWAP1 PUSH2 0x100 EXP SWAP1 DIV PUSH1 0xFF AND ISZERO ISZERO EQ PUSH2 0xC12 JUMPI PUSH1 0x40 MLOAD PUSH32 0x8C379A000000000000000000000000000000000000000000000000000000000 DUP2 MSTORE PUSH1 0x4 ADD PUSH2 0xC09 SWAP1 PUSH2 0x17B4 JUMP JUMPDEST PUSH1 0x40 MLOAD DUP1 SWAP2 SUB SWAP1 REVERT JUMPDEST DUP1 PUSH1 0x3 ADD PUSH1 0x40 MLOAD DUP1 PUSH1 0x80 ADD PUSH1 0x40 MSTORE DUP1 PUSH1 0x0 ISZERO ISZERO DUP2 MSTORE PUSH1 0x20 ADD CALLER PUSH20 0xFFFFFFFFFFFFFFFFFFFFFFFFFFFFFFFFFFFFFFFF AND DUP2 MSTORE PUSH1 0x20 ADD TIMESTAMP DUP2 MSTORE PUSH1 0x20 ADD DUP5 DUP2 MSTORE POP SWAP1 DUP1 PUSH1 0x1 DUP2 SLOAD ADD DUP1 DUP3 SSTORE DUP1 SWAP2 POP POP PUSH1 0x1 SWAP1 SUB SWAP1 PUSH1 0x0 MSTORE PUSH1 0x20 PUSH1 0x0 KECCAK256 SWAP1 PUSH1 0x3 MUL ADD PUSH1 0x0 SWAP1 SWAP2 SWAP1 SWAP2 SWAP1 SWAP2 POP PUSH1 0x0 DUP3 ADD MLOAD DUP2 PUSH1 0x0 ADD PUSH1 0x0 PUSH2 0x100 EXP DUP2 SLOAD DUP2 PUSH1 0xFF MUL NOT AND SWAP1 DUP4 ISZERO ISZERO MUL OR SWAP1 SSTORE POP PUSH1 0x20 DUP3 ADD MLOAD DUP2 PUSH1 0x0 ADD PUSH1 0x1 PUSH2 0x100 EXP DUP2 SLOAD DUP2 PUSH20 0xFFFFFFFFFFFFFFFFFFFFFFFFFFFFFFFFFFFFFFFF MUL NOT AND SWAP1 DUP4 PUSH20 0xFFFFFFFFFFFFFFFFFFFFFFFFFFFFFFFFFFFFFFFF AND MUL OR SWAP1 SSTORE POP PUSH1 0x40 DUP3 ADD MLOAD DUP2 PUSH1 0x1 ADD SSTORE PUSH1 0x60 DUP3 ADD MLOAD DUP2 PUSH1 0x2 ADD SWAP1 DUP1 MLOAD SWAP1 PUSH1 0x20 ADD SWAP1 PUSH2 0xD06 SWAP3 SWAP2 SWAP1 PUSH2 0xFE5 JUMP JUMPDEST POP POP POP POP POP POP JUMP JUMPDEST PUSH1 0x2 DUP2 DUP2 SLOAD DUP2 LT PUSH2 0xD1E JUMPI PUSH1 0x0 DUP1 REVERT JUMPDEST SWAP1 PUSH1 0x0 MSTORE PUSH1 0x20 PUSH1 0x0 KECCAK256 SWAP1 PUSH1 0x4 MUL ADD PUSH1 0x0 SWAP2 POP SWAP1 POP DUP1 PUSH1 0x0 ADD PUSH1 0x0 SWAP1 SLOAD SWAP1 PUSH2 0x100 EXP SWAP1 DIV PUSH1 0xFF AND SWAP1 DUP1 PUSH1 0x0 ADD PUSH1 0x1 SWAP1 SLOAD SWAP1 PUSH2 0x100 EXP SWAP1 DIV PUSH20 0xFFFFFFFFFFFFFFFFFFFFFFFFFFFFFFFFFFFFFFFF AND SWAP1 DUP1 PUSH1 0x1 ADD SLOAD SWAP1 DUP1 PUSH1 0x2 ADD DUP1 SLOAD PUSH2 0xD80 SWAP1 PUSH2 0x199B JUMP JUMPDEST DUP1 PUSH1 0x1F ADD PUSH1 0x20 DUP1 SWAP2 DIV MUL PUSH1 0x20 ADD PUSH1 0x40 MLOAD SWAP1 DUP2 ADD PUSH1 0x40 MSTORE DUP1 SWAP3 SWAP2 SWAP1 DUP2 DUP2 MSTORE PUSH1 0x20 ADD DUP3 DUP1 SLOAD PUSH2 0xDAC SWAP1 PUSH2 0x199B JUMP JUMPDEST DUP1 ISZERO PUSH2 0xDF9 JUMPI DUP1 PUSH1 0x1F LT PUSH2 0xDCE JUMPI PUSH2 0x100 DUP1 DUP4 SLOAD DIV MUL DUP4 MSTORE SWAP2 PUSH1 0x20 ADD SWAP2 PUSH2 0xDF9 JUMP JUMPDEST DUP3 ADD SWAP2 SWAP1 PUSH1 0x0 MSTORE PUSH1 0x20 PUSH1 0x0 KECCAK256 SWAP1 JUMPDEST DUP2 SLOAD DUP2 MSTORE SWAP1 PUSH1 0x1 ADD SWAP1 PUSH1 0x20 ADD DUP1 DUP4 GT PUSH2 0xDDC JUMPI DUP3 SWAP1 SUB PUSH1 0x1F AND DUP3 ADD SWAP2 JUMPDEST POP POP POP POP POP SWAP1 POP DUP5 JUMP JUMPDEST PUSH1 0x0 DUP1 PUSH1 0x0 SWAP1 POP JUMPDEST PUSH1 0x2 DUP1 SLOAD SWAP1 POP DUP2 LT ISZERO PUSH2 0xED3 JUMPI DUP3 PUSH1 0x40 MLOAD PUSH1 0x20 ADD PUSH2 0xE29 SWAP2 SWAP1 PUSH2 0x16A2 JUMP JUMPDEST PUSH1 0x40 MLOAD PUSH1 0x20 DUP2 DUP4 SUB SUB DUP2 MSTORE SWAP1 PUSH1 0x40 MSTORE DUP1 MLOAD SWAP1 PUSH1 0x20 ADD KECCAK256 PUSH1 0x2 DUP3 DUP2 SLOAD DUP2 LT PUSH2 0xE79 JUMPI PUSH32 0x4E487B7100000000000000000000000000000000000000000000000000000000 PUSH1 0x0 MSTORE PUSH1 0x32 PUSH1 0x4 MSTORE PUSH1 0x24 PUSH1 0x0 REVERT JUMPDEST SWAP1 PUSH1 0x0 MSTORE PUSH1 0x20 PUSH1 0x0 KECCAK256 SWAP1 PUSH1 0x4 MUL ADD PUSH1 0x2 ADD PUSH1 0x40 MLOAD PUSH1 0x20 ADD PUSH2 0xE9A SWAP2 SWAP1 PUSH2 0x16B9 JUMP JUMPDEST PUSH1 0x40 MLOAD PUSH1 0x20 DUP2 DUP4 SUB SUB DUP2 MSTORE SWAP1 PUSH1 0x40 MSTORE DUP1 MLOAD SWAP1 PUSH1 0x20 ADD KECCAK256 EQ ISZERO PUSH2 0xEC0 JUMPI PUSH1 0x1 SWAP2 POP POP PUSH2 0xED9 JUMP JUMPDEST DUP1 DUP1 PUSH2 0xECB SWAP1 PUSH2 0x19CD JUMP JUMPDEST SWAP2 POP POP PUSH2 0xE0B JUMP JUMPDEST POP PUSH1 0x0 SWAP1 POP JUMPDEST SWAP2 SWAP1 POP JUMP JUMPDEST PUSH2 0xEE6 PUSH2 0x106B JUMP JUMPDEST PUSH1 0x0 JUMPDEST DUP3 PUSH1 0x80 ADD MLOAD MLOAD DUP2 LT ISZERO PUSH2 0xFA4 JUMPI DUP3 PUSH1 0x80 ADD MLOAD DUP2 DUP2 MLOAD DUP2 LT PUSH2 0xF33 JUMPI PUSH32 0x4E487B7100000000000000000000000000000000000000000000000000000000 PUSH1 0x0 MSTORE PUSH1 0x32 PUSH1 0x4 MSTORE PUSH1 0x24 PUSH1 0x0 REVERT JUMPDEST PUSH1 0x20 MUL PUSH1 0x20 ADD ADD MLOAD PUSH1 0x0 ADD MLOAD ISZERO PUSH2 0xF91 JUMPI DUP3 PUSH1 0x80 ADD MLOAD DUP2 DUP2 MLOAD DUP2 LT PUSH2 0xF81 JUMPI PUSH32 0x4E487B7100000000000000000000000000000000000000000000000000000000 PUSH1 0x0 MSTORE PUSH1 0x32 PUSH1 0x4 MSTORE PUSH1 0x24 PUSH1 0x0 REVERT JUMPDEST PUSH1 0x20 MUL PUSH1 0x20 ADD ADD MLOAD SWAP2 POP POP PUSH2 0xFE0 JUMP JUMPDEST DUP1 DUP1 PUSH2 0xF9C SWAP1 PUSH2 0x19CD JUMP JUMPDEST SWAP2 POP POP PUSH2 0xEE9 JUMP JUMPDEST POP PUSH1 0x40 MLOAD PUSH32 0x8C379A000000000000000000000000000000000000000000000000000000000 DUP2 MSTORE PUSH1 0x4 ADD PUSH2 0xFD7 SWAP1 PUSH2 0x1774 JUMP JUMPDEST PUSH1 0x40 MLOAD DUP1 SWAP2 SUB SWAP1 REVERT JUMPDEST SWAP2 SWAP1 POP JUMP JUMPDEST DUP3 DUP1 SLOAD PUSH2 0xFF1 SWAP1 PUSH2 0x199B JUMP JUMPDEST SWAP1 PUSH1 0x0 MSTORE PUSH1 0x20 PUSH1 0x0 KECCAK256 SWAP1 PUSH1 0x1F ADD PUSH1 0x20 SWAP1 DIV DUP2 ADD SWAP3 DUP3 PUSH2 0x1013 JUMPI PUSH1 0x0 DUP6 SSTORE PUSH2 0x105A JUMP JUMPDEST DUP3 PUSH1 0x1F LT PUSH2 0x102C JUMPI DUP1 MLOAD PUSH1 0xFF NOT AND DUP4 DUP1 ADD OR DUP6 SSTORE PUSH2 0x105A JUMP JUMPDEST DUP3 DUP1 ADD PUSH1 0x1 ADD DUP6 SSTORE DUP3 ISZERO PUSH2 0x105A JUMPI SWAP2 DUP3 ADD JUMPDEST DUP3 DUP2 GT ISZERO PUSH2 0x1059 JUMPI DUP3 MLOAD DUP3 SSTORE SWAP2 PUSH1 0x20 ADD SWAP2 SWAP1 PUSH1 0x1 ADD SWAP1 PUSH2 0x103E JUMP JUMPDEST JUMPDEST POP SWAP1 POP PUSH2 0x1067 SWAP2 SWAP1 PUSH2 0x10AB JUMP JUMPDEST POP SWAP1 JUMP JUMPDEST PUSH1 0x40 MLOAD DUP1 PUSH1 0x80 ADD PUSH1 0x40 MSTORE DUP1 PUSH1 0x0 ISZERO ISZERO DUP2 MSTORE PUSH1 0x20 ADD PUSH1 0x0 PUSH20 0xFFFFFFFFFFFFFFFFFFFFFFFFFFFFFFFFFFFFFFFF AND DUP2 MSTORE PUSH1 0x20 ADD PUSH1 0x0 DUP2 MSTORE PUSH1 0x20 ADD PUSH1 0x60 DUP2 MSTORE POP SWAP1 JUMP JUMPDEST JUMPDEST DUP1 DUP3 GT ISZERO PUSH2 0x10C4 JUMPI PUSH1 0x0 DUP2 PUSH1 0x0 SWAP1 SSTORE POP PUSH1 0x1 ADD PUSH2 0x10AC JUMP JUMPDEST POP SWAP1 JUMP JUMPDEST PUSH1 0x0 PUSH2 0x10DB PUSH2 0x10D6 DUP5 PUSH2 0x18A5 JUMP JUMPDEST PUSH2 0x1874 JUMP JUMPDEST SWAP1 POP DUP3 DUP2 MSTORE PUSH1 0x20 DUP2 ADD DUP5 DUP5 DUP5 ADD GT ISZERO PUSH2 0x10F3 JUMPI PUSH1 0x0 DUP1 REVERT JUMPDEST PUSH2 0x10FE DUP5 DUP3 DUP6 PUSH2 0x1959 JUMP JUMPDEST POP SWAP4 SWAP3 POP POP POP JUMP JUMPDEST PUSH1 0x0 DUP2 CALLDATALOAD SWAP1 POP PUSH2 0x1115 DUP2 PUSH2 0x1AB4 JUMP JUMPDEST SWAP3 SWAP2 POP POP JUMP JUMPDEST PUSH1 0x0 DUP3 PUSH1 0x1F DUP4 ADD SLT PUSH2 0x112C JUMPI PUSH1 0x0 DUP1 REVERT JUMPDEST DUP2 CALLDATALOAD PUSH2 0x113C DUP5 DUP3 PUSH1 0x20 DUP7 ADD PUSH2 0x10C8 JUMP JUMPDEST SWAP2 POP POP SWAP3 SWAP2 POP POP JUMP JUMPDEST PUSH1 0x0 DUP2 CALLDATALOAD SWAP1 POP PUSH2 0x1154 DUP2 PUSH2 0x1ACB JUMP JUMPDEST SWAP3 SWAP2 POP POP JUMP JUMPDEST PUSH1 0x0 PUSH1 0x20 DUP3 DUP5 SUB SLT ISZERO PUSH2 0x116C JUMPI PUSH1 0x0 DUP1 REVERT JUMPDEST PUSH1 0x0 PUSH2 0x117A DUP5 DUP3 DUP6 ADD PUSH2 0x1106 JUMP JUMPDEST SWAP2 POP POP SWAP3 SWAP2 POP POP JUMP JUMPDEST PUSH1 0x0 DUP1 PUSH1 0x40 DUP4 DUP6 SUB SLT ISZERO PUSH2 0x1196 JUMPI PUSH1 0x0 DUP1 REVERT JUMPDEST PUSH1 0x0 DUP4 ADD CALLDATALOAD PUSH8 0xFFFFFFFFFFFFFFFF DUP2 GT ISZERO PUSH2 0x11B0 JUMPI PUSH1 0x0 DUP1 REVERT JUMPDEST PUSH2 0x11BC DUP6 DUP3 DUP7 ADD PUSH2 0x111B JUMP JUMPDEST SWAP3 POP POP PUSH1 0x20 DUP4 ADD CALLDATALOAD PUSH8 0xFFFFFFFFFFFFFFFF DUP2 GT ISZERO PUSH2 0x11D9 JUMPI PUSH1 0x0 DUP1 REVERT JUMPDEST PUSH2 0x11E5 DUP6 DUP3 DUP7 ADD PUSH2 0x111B JUMP JUMPDEST SWAP2 POP POP SWAP3 POP SWAP3 SWAP1 POP JUMP JUMPDEST PUSH1 0x0 PUSH1 0x20 DUP3 DUP5 SUB SLT ISZERO PUSH2 0x1201 JUMPI PUSH1 0x0 DUP1 REVERT JUMPDEST PUSH1 0x0 PUSH2 0x120F DUP5 DUP3 DUP6 ADD PUSH2 0x1145 JUMP JUMPDEST SWAP2 POP POP SWAP3 SWAP2 POP POP JUMP JUMPDEST PUSH1 0x0 DUP1 PUSH1 0x40 DUP4 DUP6 SUB SLT ISZERO PUSH2 0x122B JUMPI PUSH1 0x0 DUP1 REVERT JUMPDEST PUSH1 0x0 PUSH2 0x1239 DUP6 DUP3 DUP7 ADD PUSH2 0x1145 JUMP JUMPDEST SWAP3 POP POP PUSH1 0x20 DUP4 ADD CALLDATALOAD PUSH8 0xFFFFFFFFFFFFFFFF DUP2 GT ISZERO PUSH2 0x1256 JUMPI PUSH1 0x0 DUP1 REVERT JUMPDEST PUSH2 0x1262 DUP6 DUP3 DUP7 ADD PUSH2 0x111B JUMP JUMPDEST SWAP2 POP POP SWAP3 POP SWAP3 SWAP1 POP JUMP JUMPDEST PUSH1 0x0 DUP1 PUSH1 0x40 DUP4 DUP6 SUB SLT ISZERO PUSH2 0x127F JUMPI PUSH1 0x0 DUP1 REVERT JUMPDEST PUSH1 0x0 PUSH2 0x128D DUP6 DUP3 DUP7 ADD PUSH2 0x1145 JUMP JUMPDEST SWAP3 POP POP PUSH1 0x20 PUSH2 0x129E DUP6 DUP3 DUP7 ADD PUSH2 0x1145 JUMP JUMPDEST SWAP2 POP POP SWAP3 POP SWAP3 SWAP1 POP JUMP JUMPDEST PUSH2 0x12B1 DUP2 PUSH2 0x1911 JUMP JUMPDEST DUP3 MSTORE POP POP JUMP JUMPDEST PUSH2 0x12C0 DUP2 PUSH2 0x1923 JUMP JUMPDEST DUP3 MSTORE POP POP JUMP JUMPDEST PUSH1 0x0 PUSH2 0x12D1 DUP3 PUSH2 0x18EA JUMP JUMPDEST PUSH2 0x12DB DUP2 DUP6 PUSH2 0x18F5 JUMP JUMPDEST SWAP4 POP PUSH2 0x12EB DUP2 DUP6 PUSH1 0x20 DUP7 ADD PUSH2 0x1968 JUMP JUMPDEST PUSH2 0x12F4 DUP2 PUSH2 0x1AA3 JUMP JUMPDEST DUP5 ADD SWAP2 POP POP SWAP3 SWAP2 POP POP JUMP JUMPDEST PUSH1 0x0 PUSH2 0x130A DUP3 PUSH2 0x18EA JUMP JUMPDEST PUSH2 0x1314 DUP2 DUP6 PUSH2 0x1906 JUMP JUMPDEST SWAP4 POP PUSH2 0x1324 DUP2 DUP6 PUSH1 0x20 DUP7 ADD PUSH2 0x1968 JUMP JUMPDEST DUP1 DUP5 ADD SWAP2 POP POP SWAP3 SWAP2 POP POP JUMP JUMPDEST PUSH1 0x0 DUP2 SLOAD PUSH2 0x133D DUP2 PUSH2 0x199B JUMP JUMPDEST PUSH2 0x1347 DUP2 DUP7 PUSH2 0x1906 JUMP JUMPDEST SWAP5 POP PUSH1 0x1 DUP3 AND PUSH1 0x0 DUP2 EQ PUSH2 0x1362 JUMPI PUSH1 0x1 DUP2 EQ PUSH2 0x1373 JUMPI PUSH2 0x13A6 JUMP JUMPDEST PUSH1 0xFF NOT DUP4 AND DUP7 MSTORE DUP2 DUP7 ADD SWAP4 POP PUSH2 0x13A6 JUMP JUMPDEST PUSH2 0x137C DUP6 PUSH2 0x18D5 JUMP JUMPDEST PUSH1 0x0 JUMPDEST DUP4 DUP2 LT ISZERO PUSH2 0x139E JUMPI DUP2 SLOAD DUP2 DUP10 ADD MSTORE PUSH1 0x1 DUP3 ADD SWAP2 POP PUSH1 0x20 DUP2 ADD SWAP1 POP PUSH2 0x137F JUMP JUMPDEST DUP4 DUP9 ADD SWAP6 POP POP POP JUMPDEST POP POP POP SWAP3 SWAP2 POP POP JUMP JUMPDEST PUSH1 0x0 PUSH2 0x13BC PUSH1 0x20 DUP4 PUSH2 0x18F5 JUMP JUMPDEST SWAP2 POP PUSH32 0x4E656E68756D612076657273616F2076616C69646120656E636F6E7472616461 PUSH1 0x0 DUP4 ADD MSTORE PUSH1 0x20 DUP3 ADD SWAP1 POP SWAP2 SWAP1 POP JUMP JUMPDEST PUSH1 0x0 PUSH2 0x13FC PUSH1 0x24 DUP4 PUSH2 0x18F5 JUMP JUMPDEST SWAP2 POP PUSH32 0x556D6120706167696E6120636F6D206573746520746974756C6F206A61206578 PUSH1 0x0 DUP4 ADD MSTORE PUSH32 0x6973746500000000000000000000000000000000000000000000000000000000 PUSH1 0x20 DUP4 ADD MSTORE PUSH1 0x40 DUP3 ADD SWAP1 POP SWAP2 SWAP1 POP JUMP JUMPDEST PUSH1 0x0 PUSH2 0x1462 PUSH1 0x43 DUP4 PUSH2 0x18F5 JUMP JUMPDEST SWAP2 POP PUSH32 0x412061646963616F206465206E6F76617320766572636F657320736F20652070 PUSH1 0x0 DUP4 ADD MSTORE PUSH32 0x65726D6974696461207175616E646F206120706167696E612065737461206174 PUSH1 0x20 DUP4 ADD MSTORE PUSH32 0x6976610000000000000000000000000000000000000000000000000000000000 PUSH1 0x40 DUP4 ADD MSTORE PUSH1 0x60 DUP3 ADD SWAP1 POP SWAP2 SWAP1 POP JUMP JUMPDEST PUSH1 0x0 PUSH2 0x14EE PUSH1 0x1A DUP4 PUSH2 0x18F5 JUMP JUMPDEST SWAP2 POP PUSH32 0x496E6469636520646120706167696E6120696E76616C69646F2E000000000000 PUSH1 0x0 DUP4 ADD MSTORE PUSH1 0x20 DUP3 ADD SWAP1 POP SWAP2 SWAP1 POP JUMP JUMPDEST PUSH1 0x0 PUSH2 0x152E PUSH1 0x1A DUP4 PUSH2 0x18F5 JUMP JUMPDEST SWAP2 POP PUSH32 0x496E646963652064612076657273736F20696E76616C69646F2E000000000000 PUSH1 0x0 DUP4 ADD MSTORE PUSH1 0x20 DUP3 ADD SWAP1 POP SWAP2 SWAP1 POP JUMP JUMPDEST PUSH1 0x0 PUSH2 0x156E PUSH1 0x16 DUP4 PUSH2 0x18F5 JUMP JUMPDEST SWAP2 POP PUSH32 0x496E6469636520666F726120646F20616C63616E636500000000000000000000 PUSH1 0x0 DUP4 ADD MSTORE PUSH1 0x20 DUP3 ADD SWAP1 POP SWAP2 SWAP1 POP JUMP JUMPDEST PUSH1 0x0 PUSH2 0x15AE PUSH1 0x3D DUP4 PUSH2 0x18F5 JUMP JUMPDEST SWAP2 POP PUSH32 0x536F6D656E7465206F20646F6E6F20646573746120426C6F636B706564696120 PUSH1 0x0 DUP4 ADD MSTORE PUSH32 0x706F646520616C7465726172206F20617472696275746F20617469766F000000 PUSH1 0x20 DUP4 ADD MSTORE PUSH1 0x40 DUP3 ADD SWAP1 POP SWAP2 SWAP1 POP JUMP JUMPDEST PUSH1 0x0 PUSH2 0x1614 PUSH1 0x47 DUP4 PUSH2 0x18F5 JUMP JUMPDEST SWAP2 POP PUSH32 0x412061646963616F206465206E6F76617320706167696E617320736F20652070 PUSH1 0x0 DUP4 ADD MSTORE PUSH32 0x65726D6974696461207175616E646F206120426C6F636B706564696120657374 PUSH1 0x20 DUP4 ADD MSTORE PUSH32 0x6120617469766100000000000000000000000000000000000000000000000000 PUSH1 0x40 DUP4 ADD MSTORE PUSH1 0x60 DUP3 ADD SWAP1 POP SWAP2 SWAP1 POP JUMP JUMPDEST PUSH2 0x169C DUP2 PUSH2 0x194F JUMP JUMPDEST DUP3 MSTORE POP POP JUMP JUMPDEST PUSH1 0x0 PUSH2 0x16AE DUP3 DUP5 PUSH2 0x12FF JUMP JUMPDEST SWAP2 POP DUP2 SWAP1 POP SWAP3 SWAP2 POP POP JUMP JUMPDEST PUSH1 0x0 PUSH2 0x16C5 DUP3 DUP5 PUSH2 0x1330 JUMP JUMPDEST SWAP2 POP DUP2 SWAP1 POP SWAP3 SWAP2 POP POP JUMP JUMPDEST PUSH1 0x0 PUSH1 0x20 DUP3 ADD SWAP1 POP PUSH2 0x16E5 PUSH1 0x0 DUP4 ADD DUP5 PUSH2 0x12A8 JUMP JUMPDEST SWAP3 SWAP2 POP POP JUMP JUMPDEST PUSH1 0x0 PUSH1 0x20 DUP3 ADD SWAP1 POP PUSH2 0x1700 PUSH1 0x0 DUP4 ADD DUP5 PUSH2 0x12B7 JUMP JUMPDEST SWAP3 SWAP2 POP POP JUMP JUMPDEST PUSH1 0x0 PUSH1 0x80 DUP3 ADD SWAP1 POP PUSH2 0x171B PUSH1 0x0 DUP4 ADD DUP8 PUSH2 0x12B7 JUMP JUMPDEST PUSH2 0x1728 PUSH1 0x20 DUP4 ADD DUP7 PUSH2 0x12A8 JUMP JUMPDEST PUSH2 0x1735 PUSH1 0x40 DUP4 ADD DUP6 PUSH2 0x1693 JUMP JUMPDEST DUP2 DUP2 SUB PUSH1 0x60 DUP4 ADD MSTORE PUSH2 0x1747 DUP2 DUP5 PUSH2 0x12C6 JUMP JUMPDEST SWAP1 POP SWAP6 SWAP5 POP POP POP POP POP JUMP JUMPDEST PUSH1 0x0 PUSH1 0x20 DUP3 ADD SWAP1 POP DUP2 DUP2 SUB PUSH1 0x0 DUP4 ADD MSTORE PUSH2 0x176C DUP2 DUP5 PUSH2 0x12C6 JUMP JUMPDEST SWAP1 POP SWAP3 SWAP2 POP POP JUMP JUMPDEST PUSH1 0x0 PUSH1 0x20 DUP3 ADD SWAP1 POP DUP2 DUP2 SUB PUSH1 0x0 DUP4 ADD MSTORE PUSH2 0x178D DUP2 PUSH2 0x13AF JUMP JUMPDEST SWAP1 POP SWAP2 SWAP1 POP JUMP JUMPDEST PUSH1 0x0 PUSH1 0x20 DUP3 ADD SWAP1 POP DUP2 DUP2 SUB PUSH1 0x0 DUP4 ADD MSTORE PUSH2 0x17AD DUP2 PUSH2 0x13EF JUMP JUMPDEST SWAP1 POP SWAP2 SWAP1 POP JUMP JUMPDEST PUSH1 0x0 PUSH1 0x20 DUP3 ADD SWAP1 POP DUP2 DUP2 SUB PUSH1 0x0 DUP4 ADD MSTORE PUSH2 0x17CD DUP2 PUSH2 0x1455 JUMP JUMPDEST SWAP1 POP SWAP2 SWAP1 POP JUMP JUMPDEST PUSH1 0x0 PUSH1 0x20 DUP3 ADD SWAP1 POP DUP2 DUP2 SUB PUSH1 0x0 DUP4 ADD MSTORE PUSH2 0x17ED DUP2 PUSH2 0x14E1 JUMP JUMPDEST SWAP1 POP SWAP2 SWAP1 POP JUMP JUMPDEST PUSH1 0x0 PUSH1 0x20 DUP3 ADD SWAP1 POP DUP2 DUP2 SUB PUSH1 0x0 DUP4 ADD MSTORE PUSH2 0x180D DUP2 PUSH2 0x1521 JUMP JUMPDEST SWAP1 POP SWAP2 SWAP1 POP JUMP JUMPDEST PUSH1 0x0 PUSH1 0x20 DUP3 ADD SWAP1 POP DUP2 DUP2 SUB PUSH1 0x0 DUP4 ADD MSTORE PUSH2 0x182D DUP2 PUSH2 0x1561 JUMP JUMPDEST SWAP1 POP SWAP2 SWAP1 POP JUMP JUMPDEST PUSH1 0x0 PUSH1 0x20 DUP3 ADD SWAP1 POP DUP2 DUP2 SUB PUSH1 0x0 DUP4 ADD MSTORE PUSH2 0x184D DUP2 PUSH2 0x15A1 JUMP JUMPDEST SWAP1 POP SWAP2 SWAP1 POP JUMP JUMPDEST PUSH1 0x0 PUSH1 0x20 DUP3 ADD SWAP1 POP DUP2 DUP2 SUB PUSH1 0x0 DUP4 ADD MSTORE PUSH2 0x186D DUP2 PUSH2 0x1607 JUMP JUMPDEST SWAP1 POP SWAP2 SWAP1 POP JUMP JUMPDEST PUSH1 0x0 PUSH1 0x40 MLOAD SWAP1 POP DUP2 DUP2 ADD DUP2 DUP2 LT PUSH8 0xFFFFFFFFFFFFFFFF DUP3 GT OR ISZERO PUSH2 0x189B JUMPI PUSH2 0x189A PUSH2 0x1A74 JUMP JUMPDEST JUMPDEST DUP1 PUSH1 0x40 MSTORE POP SWAP2 SWAP1 POP JUMP JUMPDEST PUSH1 0x0 PUSH8 0xFFFFFFFFFFFFFFFF DUP3 GT ISZERO PUSH2 0x18C0 JUMPI PUSH2 0x18BF PUSH2 0x1A74 JUMP JUMPDEST JUMPDEST PUSH1 0x1F NOT PUSH1 0x1F DUP4 ADD AND SWAP1 POP PUSH1 0x20 DUP2 ADD SWAP1 POP SWAP2 SWAP1 POP JUMP JUMPDEST PUSH1 0x0 DUP2 SWAP1 POP DUP2 PUSH1 0x0 MSTORE PUSH1 0x20 PUSH1 0x0 KECCAK256 SWAP1 POP SWAP2 SWAP1 POP JUMP JUMPDEST PUSH1 0x0 DUP2 MLOAD SWAP1 POP SWAP2 SWAP1 POP JUMP JUMPDEST PUSH1 0x0 DUP3 DUP3 MSTORE PUSH1 0x20 DUP3 ADD SWAP1 POP SWAP3 SWAP2 POP POP JUMP JUMPDEST PUSH1 0x0 DUP2 SWAP1 POP SWAP3 SWAP2 POP POP JUMP JUMPDEST PUSH1 0x0 PUSH2 0x191C DUP3 PUSH2 0x192F JUMP JUMPDEST SWAP1 POP SWAP2 SWAP1 POP JUMP JUMPDEST PUSH1 0x0 DUP2 ISZERO ISZERO SWAP1 POP SWAP2 SWAP1 POP JUMP JUMPDEST PUSH1 0x0 PUSH20 0xFFFFFFFFFFFFFFFFFFFFFFFFFFFFFFFFFFFFFFFF DUP3 AND SWAP1 POP SWAP2 SWAP1 POP JUMP JUMPDEST PUSH1 0x0 DUP2 SWAP1 POP SWAP2 SWAP1 POP JUMP JUMPDEST DUP3 DUP2 DUP4 CALLDATACOPY PUSH1 0x0 DUP4 DUP4 ADD MSTORE POP POP POP JUMP JUMPDEST PUSH1 0x0 JUMPDEST DUP4 DUP2 LT ISZERO PUSH2 0x1986 JUMPI DUP1 DUP3 ADD MLOAD DUP2 DUP5 ADD MSTORE PUSH1 0x20 DUP2 ADD SWAP1 POP PUSH2 0x196B JUMP JUMPDEST DUP4 DUP2 GT ISZERO PUSH2 0x1995 JUMPI PUSH1 0x0 DUP5 DUP5 ADD MSTORE JUMPDEST POP POP POP POP JUMP JUMPDEST PUSH1 0x0 PUSH1 0x2 DUP3 DIV SWAP1 POP PUSH1 0x1 DUP3 AND DUP1 PUSH2 0x19B3 JUMPI PUSH1 0x7F DUP3 AND SWAP2 POP JUMPDEST PUSH1 0x20 DUP3 LT DUP2 EQ ISZERO PUSH2 0x19C7 JUMPI PUSH2 0x19C6 PUSH2 0x1A45 JUMP JUMPDEST JUMPDEST POP SWAP2 SWAP1 POP JUMP JUMPDEST PUSH1 0x0 PUSH2 0x19D8 DUP3 PUSH2 0x194F JUMP JUMPDEST SWAP2 POP PUSH32 0xFFFFFFFFFFFFFFFFFFFFFFFFFFFFFFFFFFFFFFFFFFFFFFFFFFFFFFFFFFFFFFFF DUP3 EQ ISZERO PUSH2 0x1A0B JUMPI PUSH2 0x1A0A PUSH2 0x1A16 JUMP JUMPDEST JUMPDEST PUSH1 0x1 DUP3 ADD SWAP1 POP SWAP2 SWAP1 POP JUMP JUMPDEST PUSH32 0x4E487B7100000000000000000000000000000000000000000000000000000000 PUSH1 0x0 MSTORE PUSH1 0x11 PUSH1 0x4 MSTORE PUSH1 0x24 PUSH1 0x0 REVERT JUMPDEST PUSH32 0x4E487B7100000000000000000000000000000000000000000000000000000000 PUSH1 0x0 MSTORE PUSH1 0x22 PUSH1 0x4 MSTORE PUSH1 0x24 PUSH1 0x0 REVERT JUMPDEST PUSH32 0x4E487B7100000000000000000000000000000000000000000000000000000000 PUSH1 0x0 MSTORE PUSH1 0x41 PUSH1 0x4 MSTORE PUSH1 0x24 PUSH1 0x0 REVERT JUMPDEST PUSH1 0x0 PUSH1 0x1F NOT PUSH1 0x1F DUP4 ADD AND SWAP1 POP SWAP2 SWAP1 POP JUMP JUMPDEST PUSH2 0x1ABD DUP2 PUSH2 0x1923 JUMP JUMPDEST DUP2 EQ PUSH2 0x1AC8 JUMPI PUSH1 0x0 DUP1 REVERT JUMPDEST POP JUMP JUMPDEST PUSH2 0x1AD4 DUP2 PUSH2 0x194F JUMP JUMPDEST DUP2 EQ PUSH2 0x1ADF JUMPI PUSH1 0x0 DUP1 REVERT JUMPDEST POP JUMP INVALID LOG2 PUSH5 0x6970667358 0x22 SLT KECCAK256 0xD0 CREATE2 0xD9 PUSH25 0x23CF64EEBC24A8680EA3D5A26A4E76EAADBFD20DFEA9529783 0xA5 PUSH31 0xBF64736F6C6343000800003300000000000000000000000000000000000000 "
				},
				"gasEstimates": {
					"creation": {
						"codeDepositCost": "1387200",
						"executionCost": "43227",
						"totalCost": "1430427"
					},
					"external": {
						"adicionaNovaVercaoDesativadaAPaginaPorIndexPaginas(uint256,string)": "infinite",
						"ativaDesativaBlockpedia(bool)": "22222",
						"ativaVersaoPorIndexVersoesEIndexPaginas(uint256,uint256)": "infinite",
						"ativo()": "1190",
						"autor()": "1265",
						"criarPagina(string,string)": "infinite",
						"getVersaoValidaPorIndexPaginas(uint256)": "infinite",
						"paginas(uint256)": "infinite"
					},
					"internal": {
						"getVersaoValidaDeUmaPagina(struct Pagina memory)": "infinite",
						"tituloExiste(string memory)": "infinite"
					}
				},
				"methodIdentifiers": {
					"adicionaNovaVercaoDesativadaAPaginaPorIndexPaginas(uint256,string)": "d4d23a6e",
					"ativaDesativaBlockpedia(bool)": "1509d30c",
					"ativaVersaoPorIndexVersoesEIndexPaginas(uint256,uint256)": "95be551a",
					"ativo()": "a18cc13b",
					"autor()": "0694952d",
					"criarPagina(string,string)": "1c18379a",
					"getVersaoValidaPorIndexPaginas(uint256)": "57ae2a89",
					"paginas(uint256)": "e7d4296a"
				}
			},
			"storageLayout": {
				"storage": [
					{
						"astId": 5,
						"contract": "blockpedia.sol:Blockpedia",
						"label": "ativo",
						"offset": 0,
						"slot": "0",
						"type": "t_bool"
					},
					{
						"astId": 7,
						"contract": "blockpedia.sol:Blockpedia",
						"label": "autor",
						"offset": 1,
						"slot": "0",
						"type": "t_address"
					},
					{
						"astId": 9,
						"contract": "blockpedia.sol:Blockpedia",
						"label": "dataCriacao",
						"offset": 0,
						"slot": "1",
						"type": "t_uint256"
					},
					{
						"astId": 13,
						"contract": "blockpedia.sol:Blockpedia",
						"label": "paginas",
						"offset": 0,
						"slot": "2",
						"type": "t_array(t_struct(Pagina)348_storage)dyn_storage"
					}
				],
				"types": {
					"t_address": {
						"encoding": "inplace",
						"label": "address",
						"numberOfBytes": "20"
					},
					"t_array(t_struct(Pagina)348_storage)dyn_storage": {
						"base": "t_struct(Pagina)348_storage",
						"encoding": "dynamic_array",
						"label": "struct Pagina[]",
						"numberOfBytes": "32"
					},
					"t_array(t_struct(Versao)359_storage)dyn_storage": {
						"base": "t_struct(Versao)359_storage",
						"encoding": "dynamic_array",
						"label": "struct Versao[]",
						"numberOfBytes": "32"
					},
					"t_bool": {
						"encoding": "inplace",
						"label": "bool",
						"numberOfBytes": "1"
					},
					"t_string_storage": {
						"encoding": "bytes",
						"label": "string",
						"numberOfBytes": "32"
					},
					"t_struct(Pagina)348_storage": {
						"encoding": "inplace",
						"label": "struct Pagina",
						"members": [
							{
								"astId": 337,
								"contract": "blockpedia.sol:Blockpedia",
								"label": "ativo",
								"offset": 0,
								"slot": "0",
								"type": "t_bool"
							},
							{
								"astId": 339,
								"contract": "blockpedia.sol:Blockpedia",
								"label": "autor",
								"offset": 1,
								"slot": "0",
								"type": "t_address"
							},
							{
								"astId": 341,
								"contract": "blockpedia.sol:Blockpedia",
								"label": "dataCriacao",
								"offset": 0,
								"slot": "1",
								"type": "t_uint256"
							},
							{
								"astId": 343,
								"contract": "blockpedia.sol:Blockpedia",
								"label": "titulo",
								"offset": 0,
								"slot": "2",
								"type": "t_string_storage"
							},
							{
								"astId": 347,
								"contract": "blockpedia.sol:Blockpedia",
								"label": "versoes",
								"offset": 0,
								"slot": "3",
								"type": "t_array(t_struct(Versao)359_storage)dyn_storage"
							}
						],
						"numberOfBytes": "128"
					},
					"t_struct(Versao)359_storage": {
						"encoding": "inplace",
						"label": "struct Versao",
						"members": [
							{
								"astId": 352,
								"contract": "blockpedia.sol:Blockpedia",
								"label": "ativo",
								"offset": 0,
								"slot": "0",
								"type": "t_bool"
							},
							{
								"astId": 354,
								"contract": "blockpedia.sol:Blockpedia",
								"label": "autor",
								"offset": 1,
								"slot": "0",
								"type": "t_address"
							},
							{
								"astId": 356,
								"contract": "blockpedia.sol:Blockpedia",
								"label": "dataCriacao",
								"offset": 0,
								"slot": "1",
								"type": "t_uint256"
							},
							{
								"astId": 358,
								"contract": "blockpedia.sol:Blockpedia",
								"label": "conteudo",
								"offset": 0,
								"slot": "2",
								"type": "t_string_storage"
							}
						],
						"numberOfBytes": "96"
					},
					"t_uint256": {
						"encoding": "inplace",
						"label": "uint256",
						"numberOfBytes": "32"
					}
				}
			},
			"userdoc": {
				"kind": "user",
				"methods": {},
				"version": 1
			}
		}
	}
}