{
	"blockpedia.sol": {
		"Blockpedia": {
			"abi": [
				{
					"inputs": [],
					"stateMutability": "nonpayable",
					"type": "constructor"
				},
				{
					"inputs": [
						{
							"internalType": "uint256",
							"name": "index",
							"type": "uint256"
						},
						{
							"internalType": "string",
							"name": "conteudo",
							"type": "string"
						}
					],
					"name": "adicionaNovaVercaoDesativadaAPaginaPorIndexPaginas",
					"outputs": [],
					"stateMutability": "nonpayable",
					"type": "function"
				},
				{
					"inputs": [
						{
							"internalType": "bool",
							"name": "_ativo",
							"type": "bool"
						}
					],
					"name": "ativaDesativaBlockpedia",
					"outputs": [],
					"stateMutability": "nonpayable",
					"type": "function"
				},
				{
					"inputs": [
						{
							"internalType": "uint256",
							"name": "indexPagina",
							"type": "uint256"
						}
					],
					"name": "ativaPaginaPorIndexPaginas",
					"outputs": [],
					"stateMutability": "nonpayable",
					"type": "function"
				},
				{
					"inputs": [
						{
							"internalType": "uint256",
							"name": "indexPagina",
							"type": "uint256"
						},
						{
							"internalType": "uint256",
							"name": "indexVersoes",
							"type": "uint256"
						}
					],
					"name": "ativaVersaoPorIndexVersoesEIndexPaginas",
					"outputs": [],
					"stateMutability": "nonpayable",
					"type": "function"
				},
				{
					"inputs": [],
					"name": "ativo",
					"outputs": [
						{
							"internalType": "bool",
							"name": "",
							"type": "bool"
						}
					],
					"stateMutability": "view",
					"type": "function"
				},
				{
					"inputs": [],
					"name": "autor",
					"outputs": [
						{
							"internalType": "address",
							"name": "",
							"type": "address"
						}
					],
					"stateMutability": "view",
					"type": "function"
				},
				{
					"inputs": [
						{
							"internalType": "string",
							"name": "titulo",
							"type": "string"
						},
						{
							"internalType": "string",
							"name": "conteudo",
							"type": "string"
						}
					],
					"name": "criarPagina",
					"outputs": [],
					"stateMutability": "nonpayable",
					"type": "function"
				},
				{
					"inputs": [],
					"name": "dataCriacao",
					"outputs": [
						{
							"internalType": "uint256",
							"name": "",
							"type": "uint256"
						}
					],
					"stateMutability": "view",
					"type": "function"
				},
				{
					"inputs": [
						{
							"internalType": "uint256",
							"name": "indexPagina",
							"type": "uint256"
						}
					],
					"name": "desativaPaginaPorIndexPaginas",
					"outputs": [],
					"stateMutability": "nonpayable",
					"type": "function"
				},
				{
					"inputs": [
						{
							"internalType": "uint256",
							"name": "indice",
							"type": "uint256"
						}
					],
					"name": "getConteudoVersaoValidaPorIndexPaginas",
					"outputs": [
						{
							"internalType": "string",
							"name": "",
							"type": "string"
						}
					],
					"stateMutability": "view",
					"type": "function"
				},
				{
					"inputs": [
						{
							"internalType": "uint256",
							"name": "",
							"type": "uint256"
						}
					],
					"name": "paginas",
					"outputs": [
						{
							"internalType": "bool",
							"name": "ativo",
							"type": "bool"
						},
						{
							"internalType": "address",
							"name": "autor",
							"type": "address"
						},
						{
							"internalType": "uint256",
							"name": "dataCriacao",
							"type": "uint256"
						},
						{
							"internalType": "string",
							"name": "titulo",
							"type": "string"
						}
					],
					"stateMutability": "view",
					"type": "function"
				}
			],
			"devdoc": {
				"kind": "dev",
				"methods": {},
				"version": 1
			},
			"evm": {
				"assembly": "    /* \"blockpedia.sol\":85:4772  contract Blockpedia\r... */\n  mstore(0x40, 0x80)\n    /* \"blockpedia.sol\":133:137  true */\n  0x01\n    /* \"blockpedia.sol\":113:137  bool public ativo = true */\n  0x00\n  dup1\n  0x0100\n  exp\n  dup2\n  sload\n  dup2\n  0xff\n  mul\n  not\n  and\n  swap1\n  dup4\n  iszero\n  iszero\n  mul\n  or\n  swap1\n  sstore\n  pop\n    /* \"blockpedia.sol\":202:217  block.timestamp */\n  timestamp\n    /* \"blockpedia.sol\":173:217  uint256 public dataCriacao = block.timestamp */\n  0x01\n  sstore\n    /* \"blockpedia.sol\":257:401  constructor()\r... */\n  callvalue\n  dup1\n  iszero\n  tag_1\n  jumpi\n  0x00\n  dup1\n  revert\ntag_1:\n  pop\n    /* \"blockpedia.sol\":295:305  msg.sender */\n  caller\n    /* \"blockpedia.sol\":287:292  autor */\n  0x00\n  0x01\n    /* \"blockpedia.sol\":287:305  autor = msg.sender */\n  0x0100\n  exp\n  dup2\n  sload\n  dup2\n  0xffffffffffffffffffffffffffffffffffffffff\n  mul\n  not\n  and\n  swap1\n  dup4\n  0xffffffffffffffffffffffffffffffffffffffff\n  and\n  mul\n  or\n  swap1\n  sstore\n  pop\n    /* \"blockpedia.sol\":316:393  criarPagina(\"Inicio\", \"Bem vindo a Blockpeida, a enciclopedia na blockchain\") */\n  tag_4\n  mload(0x40)\n  dup1\n  0x40\n  add\n  0x40\n  mstore\n  dup1\n  0x06\n  dup2\n  mstore\n  0x20\n  add\n  0x496e6963696f0000000000000000000000000000000000000000000000000000\n  dup2\n  mstore\n  pop\n  mload(0x40)\n  dup1\n  0x60\n  add\n  0x40\n  mstore\n  dup1\n  0x34\n  dup2\n  mstore\n  0x20\n  add\n  data_9002fc6039152390109ec5f732c53c58176ebaeec30c137dc0bb00ed96b81159\n  0x34\n  swap2\n  codecopy\n    /* \"blockpedia.sol\":316:327  criarPagina */\n  shl(0x20, tag_5)\n    /* \"blockpedia.sol\":316:393  criarPagina(\"Inicio\", \"Bem vindo a Blockpeida, a enciclopedia na blockchain\") */\n  0x20\n  shr\n  jump\t// in\ntag_4:\n    /* \"blockpedia.sol\":85:4772  contract Blockpedia\r... */\n  jump(tag_6)\n    /* \"blockpedia.sol\":409:988  function criarPagina(string memory titulo, string memory conteudo) public\r... */\ntag_5:\n    /* \"blockpedia.sol\":507:512  ativo */\n  0x00\n  dup1\n  sload\n  swap1\n  0x0100\n  exp\n  swap1\n  div\n  0xff\n  and\n    /* \"blockpedia.sol\":499:588  require(ativo, \"A adicao de novas paginas so e permitida quando a Blockpedia esta ativa\") */\n  tag_8\n  jumpi\n  mload(0x40)\n  0x08c379a000000000000000000000000000000000000000000000000000000000\n  dup2\n  mstore\n  0x04\n  add\n  tag_9\n  swap1\n  tag_10\n  jump\t// in\ntag_9:\n  mload(0x40)\n  dup1\n  swap2\n  sub\n  swap1\n  revert\ntag_8:\n    /* \"blockpedia.sol\":608:633  existeTituloAtivo(titulo) */\n  tag_11\n    /* \"blockpedia.sol\":626:632  titulo */\n  dup3\n    /* \"blockpedia.sol\":608:625  existeTituloAtivo */\n  shl(0x20, tag_12)\n    /* \"blockpedia.sol\":608:633  existeTituloAtivo(titulo) */\n  0x20\n  shr\n  jump\t// in\ntag_11:\n    /* \"blockpedia.sol\":607:633  !existeTituloAtivo(titulo) */\n  iszero\n    /* \"blockpedia.sol\":599:676  require(!existeTituloAtivo(titulo), \"Ja existe pagina ativa com este titulo\") */\n  tag_13\n  jumpi\n  mload(0x40)\n  0x08c379a000000000000000000000000000000000000000000000000000000000\n  dup2\n  mstore\n  0x04\n  add\n  tag_14\n  swap1\n  tag_15\n  jump\t// in\ntag_14:\n  mload(0x40)\n  dup1\n  swap2\n  sub\n  swap1\n  revert\ntag_13:\n    /* \"blockpedia.sol\":689:714  Pagina storage novaPagina */\n  0x00\n    /* \"blockpedia.sol\":717:724  paginas */\n  0x02\n    /* \"blockpedia.sol\":717:731  paginas.push() */\n  0x01\n  dup2\n  0x01\n  dup2\n  sload\n  add\n  dup1\n  dup3\n  sstore\n  dup1\n  swap2\n  pop\n  pop\n  sub\n  swap1\n  0x00\n  mstore\n  keccak256(0x00, 0x20)\n  swap1\n  0x04\n  mul\n  add\n    /* \"blockpedia.sol\":689:731  Pagina storage novaPagina = paginas.push() */\n  swap1\n  pop\n    /* \"blockpedia.sol\":761:765  true */\n  0x01\n    /* \"blockpedia.sol\":742:752  novaPagina */\n  dup2\n    /* \"blockpedia.sol\":742:758  novaPagina.ativo */\n  0x00\n  add\n  0x00\n    /* \"blockpedia.sol\":742:765  novaPagina.ativo = true */\n  0x0100\n  exp\n  dup2\n  sload\n  dup2\n  0xff\n  mul\n  not\n  and\n  swap1\n  dup4\n  iszero\n  iszero\n  mul\n  or\n  swap1\n  sstore\n  pop\n    /* \"blockpedia.sol\":795:805  msg.sender */\n  caller\n    /* \"blockpedia.sol\":776:786  novaPagina */\n  dup2\n    /* \"blockpedia.sol\":776:792  novaPagina.autor */\n  0x00\n  add\n  0x01\n    /* \"blockpedia.sol\":776:805  novaPagina.autor = msg.sender */\n  0x0100\n  exp\n  dup2\n  sload\n  dup2\n  0xffffffffffffffffffffffffffffffffffffffff\n  mul\n  not\n  and\n  swap1\n  dup4\n  0xffffffffffffffffffffffffffffffffffffffff\n  and\n  mul\n  or\n  swap1\n  sstore\n  pop\n    /* \"blockpedia.sol\":841:856  block.timestamp */\n  timestamp\n    /* \"blockpedia.sol\":816:826  novaPagina */\n  dup2\n    /* \"blockpedia.sol\":816:838  novaPagina.dataCriacao */\n  0x01\n  add\n    /* \"blockpedia.sol\":816:856  novaPagina.dataCriacao = block.timestamp */\n  dup2\n  swap1\n  sstore\n  pop\n    /* \"blockpedia.sol\":887:893  titulo */\n  dup3\n    /* \"blockpedia.sol\":867:877  novaPagina */\n  dup2\n    /* \"blockpedia.sol\":867:884  novaPagina.titulo */\n  0x02\n  add\n    /* \"blockpedia.sol\":867:893  novaPagina.titulo = titulo */\n  swap1\n  dup1\n  mload\n  swap1\n  0x20\n  add\n  swap1\n  tag_17\n  swap3\n  swap2\n  swap1\n  tag_18\n  jump\t// in\ntag_17:\n  pop\n    /* \"blockpedia.sol\":904:914  novaPagina */\n  dup1\n    /* \"blockpedia.sol\":904:922  novaPagina.versoes */\n  0x03\n  add\n    /* \"blockpedia.sol\":928:979  Versao(true, msg.sender, block.timestamp, conteudo) */\n  mload(0x40)\n  dup1\n  0x80\n  add\n  0x40\n  mstore\n  dup1\n    /* \"blockpedia.sol\":935:939  true */\n  0x01\n    /* \"blockpedia.sol\":928:979  Versao(true, msg.sender, block.timestamp, conteudo) */\n  iszero\n  iszero\n  dup2\n  mstore\n  0x20\n  add\n    /* \"blockpedia.sol\":941:951  msg.sender */\n  caller\n    /* \"blockpedia.sol\":928:979  Versao(true, msg.sender, block.timestamp, conteudo) */\n  0xffffffffffffffffffffffffffffffffffffffff\n  and\n  dup2\n  mstore\n  0x20\n  add\n    /* \"blockpedia.sol\":953:968  block.timestamp */\n  timestamp\n    /* \"blockpedia.sol\":928:979  Versao(true, msg.sender, block.timestamp, conteudo) */\n  dup2\n  mstore\n  0x20\n  add\n    /* \"blockpedia.sol\":970:978  conteudo */\n  dup5\n    /* \"blockpedia.sol\":928:979  Versao(true, msg.sender, block.timestamp, conteudo) */\n  dup2\n  mstore\n  pop\n    /* \"blockpedia.sol\":904:980  novaPagina.versoes.push(Versao(true, msg.sender, block.timestamp, conteudo)) */\n  swap1\n  dup1\n  0x01\n  dup2\n  sload\n  add\n  dup1\n  dup3\n  sstore\n  dup1\n  swap2\n  pop\n  pop\n  0x01\n  swap1\n  sub\n  swap1\n  0x00\n  mstore\n  keccak256(0x00, 0x20)\n  swap1\n  0x03\n  mul\n  add\n  0x00\n  swap1\n  swap2\n  swap1\n  swap2\n  swap1\n  swap2\n  pop\n  0x00\n  dup3\n  add\n  mload\n  dup2\n  0x00\n  add\n  exp(0x0100, 0x00)\n  dup2\n  sload\n  dup2\n  0xff\n  mul\n  not\n  and\n  swap1\n  dup4\n  iszero\n  iszero\n  mul\n  or\n  swap1\n  sstore\n  pop\n  0x20\n  dup3\n  add\n  mload\n  dup2\n  0x00\n  add\n  exp(0x0100, 0x01)\n  dup2\n  sload\n  dup2\n  0xffffffffffffffffffffffffffffffffffffffff\n  mul\n  not\n  and\n  swap1\n  dup4\n  0xffffffffffffffffffffffffffffffffffffffff\n  and\n  mul\n  or\n  swap1\n  sstore\n  pop\n  0x40\n  dup3\n  add\n  mload\n  dup2\n  0x01\n  add\n  sstore\n  0x60\n  dup3\n  add\n  mload\n  dup2\n  0x02\n  add\n  swap1\n  dup1\n  mload\n  swap1\n  0x20\n  add\n  swap1\n  tag_20\n  swap3\n  swap2\n  swap1\n  tag_18\n  jump\t// in\ntag_20:\n  pop\n  pop\n  pop\n    /* \"blockpedia.sol\":409:988  function criarPagina(string memory titulo, string memory conteudo) public\r... */\n  pop\n  pop\n  pop\n  jump\t// out\n    /* \"blockpedia.sol\":1198:1765  function existeTituloAtivo(string memory titulo) internal view returns (bool)\r... */\ntag_12:\n    /* \"blockpedia.sol\":1270:1274  bool */\n  0x00\n    /* \"blockpedia.sol\":1521:1527  uint i */\n  dup1\n    /* \"blockpedia.sol\":1530:1531  0 */\n  0x00\n    /* \"blockpedia.sol\":1521:1531  uint i = 0 */\n  swap1\n  pop\n    /* \"blockpedia.sol\":1516:1735  for (uint i = 0; i < paginas.length; i++)\r... */\ntag_22:\n    /* \"blockpedia.sol\":1537:1544  paginas */\n  0x02\n    /* \"blockpedia.sol\":1537:1551  paginas.length */\n  dup1\n  sload\n  swap1\n  pop\n    /* \"blockpedia.sol\":1533:1534  i */\n  dup2\n    /* \"blockpedia.sol\":1533:1551  i < paginas.length */\n  lt\n    /* \"blockpedia.sol\":1516:1735  for (uint i = 0; i < paginas.length; i++)\r... */\n  iszero\n  tag_23\n  jumpi\n    /* \"blockpedia.sol\":1586:1593  paginas */\n  0x02\n    /* \"blockpedia.sol\":1594:1595  i */\n  dup2\n    /* \"blockpedia.sol\":1586:1596  paginas[i] */\n  dup2\n  sload\n  dup2\n  lt\n  tag_25\n  jumpi\n  mstore(0x00, 0x4e487b7100000000000000000000000000000000000000000000000000000000)\n  mstore(0x04, 0x32)\n  revert(0x00, 0x24)\ntag_25:\n  swap1\n  0x00\n  mstore\n  keccak256(0x00, 0x20)\n  swap1\n  0x04\n  mul\n  add\n    /* \"blockpedia.sol\":1586:1602  paginas[i].ativo */\n  0x00\n  add\n  0x00\n  swap1\n  sload\n  swap1\n  0x0100\n  exp\n  swap1\n  div\n  0xff\n  and\n    /* \"blockpedia.sol\":1582:1723  if (paginas[i].ativo)\r... */\n  iszero\n  tag_27\n  jumpi\n    /* \"blockpedia.sol\":1702:1708  titulo */\n  dup3\n    /* \"blockpedia.sol\":1685:1709  abi.encodePacked(titulo) */\n  add(0x20, mload(0x40))\n  tag_28\n  swap2\n  swap1\n  tag_29\n  jump\t// in\ntag_28:\n  mload(0x40)\n  0x20\n  dup2\n  dup4\n  sub\n  sub\n  dup2\n  mstore\n  swap1\n  0x40\n  mstore\n    /* \"blockpedia.sol\":1675:1710  keccak256(abi.encodePacked(titulo)) */\n  dup1\n  mload\n  swap1\n  0x20\n  add\n  keccak256\n    /* \"blockpedia.sol\":1652:1659  paginas */\n  0x02\n    /* \"blockpedia.sol\":1660:1661  i */\n  dup3\n    /* \"blockpedia.sol\":1652:1662  paginas[i] */\n  dup2\n  sload\n  dup2\n  lt\n  tag_30\n  jumpi\n  mstore(0x00, 0x4e487b7100000000000000000000000000000000000000000000000000000000)\n  mstore(0x04, 0x32)\n  revert(0x00, 0x24)\ntag_30:\n  swap1\n  0x00\n  mstore\n  keccak256(0x00, 0x20)\n  swap1\n  0x04\n  mul\n  add\n    /* \"blockpedia.sol\":1652:1669  paginas[i].titulo */\n  0x02\n  add\n    /* \"blockpedia.sol\":1635:1670  abi.encodePacked(paginas[i].titulo) */\n  add(0x20, mload(0x40))\n  tag_32\n  swap2\n  swap1\n  tag_33\n  jump\t// in\ntag_32:\n  mload(0x40)\n  0x20\n  dup2\n  dup4\n  sub\n  sub\n  dup2\n  mstore\n  swap1\n  0x40\n  mstore\n    /* \"blockpedia.sol\":1625:1671  keccak256(abi.encodePacked(paginas[i].titulo)) */\n  dup1\n  mload\n  swap1\n  0x20\n  add\n  keccak256\n    /* \"blockpedia.sol\":1625:1710  keccak256(abi.encodePacked(paginas[i].titulo)) == keccak256(abi.encodePacked(titulo)) */\n  eq\n    /* \"blockpedia.sol\":1621:1723  if (keccak256(abi.encodePacked(paginas[i].titulo)) == keccak256(abi.encodePacked(titulo))) return true */\n  iszero\n  tag_34\n  jumpi\n    /* \"blockpedia.sol\":1719:1723  true */\n  0x01\n    /* \"blockpedia.sol\":1712:1723  return true */\n  swap2\n  pop\n  pop\n  jump(tag_21)\n    /* \"blockpedia.sol\":1621:1723  if (keccak256(abi.encodePacked(paginas[i].titulo)) == keccak256(abi.encodePacked(titulo))) return true */\ntag_34:\n    /* \"blockpedia.sol\":1582:1723  if (paginas[i].ativo)\r... */\ntag_27:\n    /* \"blockpedia.sol\":1553:1556  i++ */\n  dup1\n  dup1\n  tag_35\n  swap1\n  tag_36\n  jump\t// in\ntag_35:\n  swap2\n  pop\n  pop\n    /* \"blockpedia.sol\":1516:1735  for (uint i = 0; i < paginas.length; i++)\r... */\n  jump(tag_22)\ntag_23:\n  pop\n    /* \"blockpedia.sol\":1752:1757  false */\n  0x00\n    /* \"blockpedia.sol\":1745:1757  return false */\n  swap1\n  pop\n    /* \"blockpedia.sol\":1198:1765  function existeTituloAtivo(string memory titulo) internal view returns (bool)\r... */\ntag_21:\n  swap2\n  swap1\n  pop\n  jump\t// out\n    /* \"blockpedia.sol\":85:4772  contract Blockpedia\r... */\ntag_18:\n  dup3\n  dup1\n  sload\n  tag_37\n  swap1\n  tag_38\n  jump\t// in\ntag_37:\n  swap1\n  0x00\n  mstore\n  keccak256(0x00, 0x20)\n  swap1\n  0x1f\n  add\n  0x20\n  swap1\n  div\n  dup2\n  add\n  swap3\n  dup3\n  tag_40\n  jumpi\n  0x00\n  dup6\n  sstore\n  jump(tag_39)\ntag_40:\n  dup3\n  0x1f\n  lt\n  tag_41\n  jumpi\n  dup1\n  mload\n  not(0xff)\n  and\n  dup4\n  dup1\n  add\n  or\n  dup6\n  sstore\n  jump(tag_39)\ntag_41:\n  dup3\n  dup1\n  add\n  0x01\n  add\n  dup6\n  sstore\n  dup3\n  iszero\n  tag_39\n  jumpi\n  swap2\n  dup3\n  add\ntag_42:\n  dup3\n  dup2\n  gt\n  iszero\n  tag_43\n  jumpi\n  dup3\n  mload\n  dup3\n  sstore\n  swap2\n  0x20\n  add\n  swap2\n  swap1\n  0x01\n  add\n  swap1\n  jump(tag_42)\ntag_43:\ntag_39:\n  pop\n  swap1\n  pop\n  tag_44\n  swap2\n  swap1\n  tag_45\n  jump\t// in\ntag_44:\n  pop\n  swap1\n  jump\t// out\ntag_45:\ntag_46:\n  dup1\n  dup3\n  gt\n  iszero\n  tag_47\n  jumpi\n  0x00\n  dup2\n  0x00\n  swap1\n  sstore\n  pop\n  0x01\n  add\n  jump(tag_46)\ntag_47:\n  pop\n  swap1\n  jump\t// out\n    /* \"#utility.yul\":7:384   */\ntag_49:\n  0x00\n    /* \"#utility.yul\":141:180   */\n  tag_51\n    /* \"#utility.yul\":174:179   */\n  dup3\n    /* \"#utility.yul\":141:180   */\n  tag_52\n  jump\t// in\ntag_51:\n    /* \"#utility.yul\":196:285   */\n  tag_53\n    /* \"#utility.yul\":278:284   */\n  dup2\n    /* \"#utility.yul\":273:276   */\n  dup6\n    /* \"#utility.yul\":196:285   */\n  tag_54\n  jump\t// in\ntag_53:\n    /* \"#utility.yul\":189:285   */\n  swap4\n  pop\n    /* \"#utility.yul\":294:346   */\n  tag_55\n    /* \"#utility.yul\":339:345   */\n  dup2\n    /* \"#utility.yul\":334:337   */\n  dup6\n    /* \"#utility.yul\":327:331   */\n  0x20\n    /* \"#utility.yul\":320:325   */\n  dup7\n    /* \"#utility.yul\":316:332   */\n  add\n    /* \"#utility.yul\":294:346   */\n  tag_56\n  jump\t// in\ntag_55:\n    /* \"#utility.yul\":371:377   */\n  dup1\n    /* \"#utility.yul\":366:369   */\n  dup5\n    /* \"#utility.yul\":362:378   */\n  add\n    /* \"#utility.yul\":355:378   */\n  swap2\n  pop\n    /* \"#utility.yul\":117:384   */\n  pop\n  swap3\n  swap2\n  pop\n  pop\n  jump\t// out\n    /* \"#utility.yul\":414:1259   */\ntag_57:\n  0x00\n    /* \"#utility.yul\":554:559   */\n  dup2\n    /* \"#utility.yul\":548:560   */\n  sload\n    /* \"#utility.yul\":583:619   */\n  tag_59\n    /* \"#utility.yul\":609:618   */\n  dup2\n    /* \"#utility.yul\":583:619   */\n  tag_38\n  jump\t// in\ntag_59:\n    /* \"#utility.yul\":635:724   */\n  tag_60\n    /* \"#utility.yul\":717:723   */\n  dup2\n    /* \"#utility.yul\":712:715   */\n  dup7\n    /* \"#utility.yul\":635:724   */\n  tag_54\n  jump\t// in\ntag_60:\n    /* \"#utility.yul\":628:724   */\n  swap5\n  pop\n    /* \"#utility.yul\":755:756   */\n  0x01\n    /* \"#utility.yul\":744:753   */\n  dup3\n    /* \"#utility.yul\":740:757   */\n  and\n    /* \"#utility.yul\":771:772   */\n  0x00\n    /* \"#utility.yul\":766:903   */\n  dup2\n  eq\n  tag_62\n  jumpi\n    /* \"#utility.yul\":917:918   */\n  0x01\n    /* \"#utility.yul\":912:1253   */\n  dup2\n  eq\n  tag_63\n  jumpi\n    /* \"#utility.yul\":733:1253   */\n  jump(tag_61)\n    /* \"#utility.yul\":766:903   */\ntag_62:\n    /* \"#utility.yul\":850:854   */\n  0xff\n    /* \"#utility.yul\":846:855   */\n  not\n    /* \"#utility.yul\":835:844   */\n  dup4\n    /* \"#utility.yul\":831:856   */\n  and\n    /* \"#utility.yul\":826:829   */\n  dup7\n    /* \"#utility.yul\":819:857   */\n  mstore\n    /* \"#utility.yul\":886:892   */\n  dup2\n    /* \"#utility.yul\":881:884   */\n  dup7\n    /* \"#utility.yul\":877:893   */\n  add\n    /* \"#utility.yul\":870:893   */\n  swap4\n  pop\n    /* \"#utility.yul\":766:903   */\n  jump(tag_61)\n    /* \"#utility.yul\":912:1253   */\ntag_63:\n    /* \"#utility.yul\":979:1017   */\n  tag_64\n    /* \"#utility.yul\":1011:1016   */\n  dup6\n    /* \"#utility.yul\":979:1017   */\n  tag_65\n  jump\t// in\ntag_64:\n    /* \"#utility.yul\":1039:1040   */\n  0x00\n    /* \"#utility.yul\":1053:1207   */\ntag_66:\n    /* \"#utility.yul\":1067:1073   */\n  dup4\n    /* \"#utility.yul\":1064:1065   */\n  dup2\n    /* \"#utility.yul\":1061:1074   */\n  lt\n    /* \"#utility.yul\":1053:1207   */\n  iszero\n  tag_68\n  jumpi\n    /* \"#utility.yul\":1141:1148   */\n  dup2\n    /* \"#utility.yul\":1135:1149   */\n  sload\n    /* \"#utility.yul\":1131:1132   */\n  dup2\n    /* \"#utility.yul\":1126:1129   */\n  dup10\n    /* \"#utility.yul\":1122:1133   */\n  add\n    /* \"#utility.yul\":1115:1150   */\n  mstore\n    /* \"#utility.yul\":1191:1192   */\n  0x01\n    /* \"#utility.yul\":1182:1189   */\n  dup3\n    /* \"#utility.yul\":1178:1193   */\n  add\n    /* \"#utility.yul\":1167:1193   */\n  swap2\n  pop\n    /* \"#utility.yul\":1089:1093   */\n  0x20\n    /* \"#utility.yul\":1086:1087   */\n  dup2\n    /* \"#utility.yul\":1082:1094   */\n  add\n    /* \"#utility.yul\":1077:1094   */\n  swap1\n  pop\n    /* \"#utility.yul\":1053:1207   */\n  jump(tag_66)\ntag_68:\n    /* \"#utility.yul\":1236:1242   */\n  dup4\n    /* \"#utility.yul\":1231:1234   */\n  dup9\n    /* \"#utility.yul\":1227:1243   */\n  add\n    /* \"#utility.yul\":1220:1243   */\n  swap6\n  pop\n    /* \"#utility.yul\":919:1253   */\n  pop\n  pop\n    /* \"#utility.yul\":733:1253   */\ntag_61:\n  pop\n    /* \"#utility.yul\":521:1259   */\n  pop\n  pop\n  swap3\n  swap2\n  pop\n  pop\n  jump\t// out\n    /* \"#utility.yul\":1265:1635   */\ntag_69:\n  0x00\n    /* \"#utility.yul\":1428:1495   */\n  tag_71\n    /* \"#utility.yul\":1492:1494   */\n  0x26\n    /* \"#utility.yul\":1487:1490   */\n  dup4\n    /* \"#utility.yul\":1428:1495   */\n  tag_72\n  jump\t// in\ntag_71:\n    /* \"#utility.yul\":1421:1495   */\n  swap2\n  pop\n    /* \"#utility.yul\":1525:1559   */\n  0x4a612065786973746520706167696e6120617469766120636f6d206573746520\n    /* \"#utility.yul\":1521:1522   */\n  0x00\n    /* \"#utility.yul\":1516:1519   */\n  dup4\n    /* \"#utility.yul\":1512:1523   */\n  add\n    /* \"#utility.yul\":1505:1560   */\n  mstore\n    /* \"#utility.yul\":1591:1599   */\n  0x746974756c6f0000000000000000000000000000000000000000000000000000\n    /* \"#utility.yul\":1586:1588   */\n  0x20\n    /* \"#utility.yul\":1581:1584   */\n  dup4\n    /* \"#utility.yul\":1577:1589   */\n  add\n    /* \"#utility.yul\":1570:1600   */\n  mstore\n    /* \"#utility.yul\":1626:1628   */\n  0x40\n    /* \"#utility.yul\":1621:1624   */\n  dup3\n    /* \"#utility.yul\":1617:1629   */\n  add\n    /* \"#utility.yul\":1610:1629   */\n  swap1\n  pop\n    /* \"#utility.yul\":1411:1635   */\n  swap2\n  swap1\n  pop\n  jump\t// out\n    /* \"#utility.yul\":1641:2078   */\ntag_73:\n  0x00\n    /* \"#utility.yul\":1804:1871   */\n  tag_75\n    /* \"#utility.yul\":1868:1870   */\n  0x47\n    /* \"#utility.yul\":1863:1866   */\n  dup4\n    /* \"#utility.yul\":1804:1871   */\n  tag_72\n  jump\t// in\ntag_75:\n    /* \"#utility.yul\":1797:1871   */\n  swap2\n  pop\n    /* \"#utility.yul\":1901:1935   */\n  0x412061646963616f206465206e6f76617320706167696e617320736f20652070\n    /* \"#utility.yul\":1897:1898   */\n  0x00\n    /* \"#utility.yul\":1892:1895   */\n  dup4\n    /* \"#utility.yul\":1888:1899   */\n  add\n    /* \"#utility.yul\":1881:1936   */\n  mstore\n    /* \"#utility.yul\":1967:2001   */\n  0x65726d6974696461207175616e646f206120426c6f636b706564696120657374\n    /* \"#utility.yul\":1962:1964   */\n  0x20\n    /* \"#utility.yul\":1957:1960   */\n  dup4\n    /* \"#utility.yul\":1953:1965   */\n  add\n    /* \"#utility.yul\":1946:2002   */\n  mstore\n    /* \"#utility.yul\":2033:2042   */\n  0x6120617469766100000000000000000000000000000000000000000000000000\n    /* \"#utility.yul\":2028:2030   */\n  0x40\n    /* \"#utility.yul\":2023:2026   */\n  dup4\n    /* \"#utility.yul\":2019:2031   */\n  add\n    /* \"#utility.yul\":2012:2043   */\n  mstore\n    /* \"#utility.yul\":2069:2071   */\n  0x60\n    /* \"#utility.yul\":2064:2067   */\n  dup3\n    /* \"#utility.yul\":2060:2072   */\n  add\n    /* \"#utility.yul\":2053:2072   */\n  swap1\n  pop\n    /* \"#utility.yul\":1787:2078   */\n  swap2\n  swap1\n  pop\n  jump\t// out\n    /* \"#utility.yul\":2084:2359   */\ntag_29:\n  0x00\n    /* \"#utility.yul\":2238:2333   */\n  tag_77\n    /* \"#utility.yul\":2329:2332   */\n  dup3\n    /* \"#utility.yul\":2320:2326   */\n  dup5\n    /* \"#utility.yul\":2238:2333   */\n  tag_49\n  jump\t// in\ntag_77:\n    /* \"#utility.yul\":2231:2333   */\n  swap2\n  pop\n    /* \"#utility.yul\":2350:2353   */\n  dup2\n    /* \"#utility.yul\":2343:2353   */\n  swap1\n  pop\n    /* \"#utility.yul\":2220:2359   */\n  swap3\n  swap2\n  pop\n  pop\n  jump\t// out\n    /* \"#utility.yul\":2365:2634   */\ntag_33:\n  0x00\n    /* \"#utility.yul\":2516:2608   */\n  tag_79\n    /* \"#utility.yul\":2604:2607   */\n  dup3\n    /* \"#utility.yul\":2595:2601   */\n  dup5\n    /* \"#utility.yul\":2516:2608   */\n  tag_57\n  jump\t// in\ntag_79:\n    /* \"#utility.yul\":2509:2608   */\n  swap2\n  pop\n    /* \"#utility.yul\":2625:2628   */\n  dup2\n    /* \"#utility.yul\":2618:2628   */\n  swap1\n  pop\n    /* \"#utility.yul\":2498:2634   */\n  swap3\n  swap2\n  pop\n  pop\n  jump\t// out\n    /* \"#utility.yul\":2640:3059   */\ntag_15:\n  0x00\n    /* \"#utility.yul\":2844:2846   */\n  0x20\n    /* \"#utility.yul\":2833:2842   */\n  dup3\n    /* \"#utility.yul\":2829:2847   */\n  add\n    /* \"#utility.yul\":2821:2847   */\n  swap1\n  pop\n    /* \"#utility.yul\":2893:2902   */\n  dup2\n    /* \"#utility.yul\":2887:2891   */\n  dup2\n    /* \"#utility.yul\":2883:2903   */\n  sub\n    /* \"#utility.yul\":2879:2880   */\n  0x00\n    /* \"#utility.yul\":2868:2877   */\n  dup4\n    /* \"#utility.yul\":2864:2881   */\n  add\n    /* \"#utility.yul\":2857:2904   */\n  mstore\n    /* \"#utility.yul\":2921:3052   */\n  tag_81\n    /* \"#utility.yul\":3047:3051   */\n  dup2\n    /* \"#utility.yul\":2921:3052   */\n  tag_69\n  jump\t// in\ntag_81:\n    /* \"#utility.yul\":2913:3052   */\n  swap1\n  pop\n    /* \"#utility.yul\":2811:3059   */\n  swap2\n  swap1\n  pop\n  jump\t// out\n    /* \"#utility.yul\":3065:3484   */\ntag_10:\n  0x00\n    /* \"#utility.yul\":3269:3271   */\n  0x20\n    /* \"#utility.yul\":3258:3267   */\n  dup3\n    /* \"#utility.yul\":3254:3272   */\n  add\n    /* \"#utility.yul\":3246:3272   */\n  swap1\n  pop\n    /* \"#utility.yul\":3318:3327   */\n  dup2\n    /* \"#utility.yul\":3312:3316   */\n  dup2\n    /* \"#utility.yul\":3308:3328   */\n  sub\n    /* \"#utility.yul\":3304:3305   */\n  0x00\n    /* \"#utility.yul\":3293:3302   */\n  dup4\n    /* \"#utility.yul\":3289:3306   */\n  add\n    /* \"#utility.yul\":3282:3329   */\n  mstore\n    /* \"#utility.yul\":3346:3477   */\n  tag_83\n    /* \"#utility.yul\":3472:3476   */\n  dup2\n    /* \"#utility.yul\":3346:3477   */\n  tag_73\n  jump\t// in\ntag_83:\n    /* \"#utility.yul\":3338:3477   */\n  swap1\n  pop\n    /* \"#utility.yul\":3236:3484   */\n  swap2\n  swap1\n  pop\n  jump\t// out\n    /* \"#utility.yul\":3490:3631   */\ntag_65:\n  0x00\n    /* \"#utility.yul\":3562:3565   */\n  dup2\n    /* \"#utility.yul\":3554:3565   */\n  swap1\n  pop\n    /* \"#utility.yul\":3585:3588   */\n  dup2\n    /* \"#utility.yul\":3582:3583   */\n  0x00\n    /* \"#utility.yul\":3575:3589   */\n  mstore\n    /* \"#utility.yul\":3619:3623   */\n  0x20\n    /* \"#utility.yul\":3616:3617   */\n  0x00\n    /* \"#utility.yul\":3606:3624   */\n  keccak256\n    /* \"#utility.yul\":3598:3624   */\n  swap1\n  pop\n    /* \"#utility.yul\":3544:3631   */\n  swap2\n  swap1\n  pop\n  jump\t// out\n    /* \"#utility.yul\":3637:3736   */\ntag_52:\n  0x00\n    /* \"#utility.yul\":3723:3728   */\n  dup2\n    /* \"#utility.yul\":3717:3729   */\n  mload\n    /* \"#utility.yul\":3707:3729   */\n  swap1\n  pop\n    /* \"#utility.yul\":3696:3736   */\n  swap2\n  swap1\n  pop\n  jump\t// out\n    /* \"#utility.yul\":3742:3911   */\ntag_72:\n  0x00\n    /* \"#utility.yul\":3860:3866   */\n  dup3\n    /* \"#utility.yul\":3855:3858   */\n  dup3\n    /* \"#utility.yul\":3848:3867   */\n  mstore\n    /* \"#utility.yul\":3900:3904   */\n  0x20\n    /* \"#utility.yul\":3895:3898   */\n  dup3\n    /* \"#utility.yul\":3891:3905   */\n  add\n    /* \"#utility.yul\":3876:3905   */\n  swap1\n  pop\n    /* \"#utility.yul\":3838:3911   */\n  swap3\n  swap2\n  pop\n  pop\n  jump\t// out\n    /* \"#utility.yul\":3917:4065   */\ntag_54:\n  0x00\n    /* \"#utility.yul\":4056:4059   */\n  dup2\n    /* \"#utility.yul\":4041:4059   */\n  swap1\n  pop\n    /* \"#utility.yul\":4031:4065   */\n  swap3\n  swap2\n  pop\n  pop\n  jump\t// out\n    /* \"#utility.yul\":4071:4148   */\ntag_88:\n  0x00\n    /* \"#utility.yul\":4137:4142   */\n  dup2\n    /* \"#utility.yul\":4126:4142   */\n  swap1\n  pop\n    /* \"#utility.yul\":4116:4148   */\n  swap2\n  swap1\n  pop\n  jump\t// out\n    /* \"#utility.yul\":4154:4461   */\ntag_56:\n    /* \"#utility.yul\":4222:4223   */\n  0x00\n    /* \"#utility.yul\":4232:4345   */\ntag_91:\n    /* \"#utility.yul\":4246:4252   */\n  dup4\n    /* \"#utility.yul\":4243:4244   */\n  dup2\n    /* \"#utility.yul\":4240:4253   */\n  lt\n    /* \"#utility.yul\":4232:4345   */\n  iszero\n  tag_93\n  jumpi\n    /* \"#utility.yul\":4331:4332   */\n  dup1\n    /* \"#utility.yul\":4326:4329   */\n  dup3\n    /* \"#utility.yul\":4322:4333   */\n  add\n    /* \"#utility.yul\":4316:4334   */\n  mload\n    /* \"#utility.yul\":4312:4313   */\n  dup2\n    /* \"#utility.yul\":4307:4310   */\n  dup5\n    /* \"#utility.yul\":4303:4314   */\n  add\n    /* \"#utility.yul\":4296:4335   */\n  mstore\n    /* \"#utility.yul\":4268:4270   */\n  0x20\n    /* \"#utility.yul\":4265:4266   */\n  dup2\n    /* \"#utility.yul\":4261:4271   */\n  add\n    /* \"#utility.yul\":4256:4271   */\n  swap1\n  pop\n    /* \"#utility.yul\":4232:4345   */\n  jump(tag_91)\ntag_93:\n    /* \"#utility.yul\":4363:4369   */\n  dup4\n    /* \"#utility.yul\":4360:4361   */\n  dup2\n    /* \"#utility.yul\":4357:4370   */\n  gt\n    /* \"#utility.yul\":4354:4356   */\n  iszero\n  tag_94\n  jumpi\n    /* \"#utility.yul\":4443:4444   */\n  0x00\n    /* \"#utility.yul\":4434:4440   */\n  dup5\n    /* \"#utility.yul\":4429:4432   */\n  dup5\n    /* \"#utility.yul\":4425:4441   */\n  add\n    /* \"#utility.yul\":4418:4445   */\n  mstore\n    /* \"#utility.yul\":4354:4356   */\ntag_94:\n    /* \"#utility.yul\":4203:4461   */\n  pop\n  pop\n  pop\n  pop\n  jump\t// out\n    /* \"#utility.yul\":4467:4787   */\ntag_38:\n  0x00\n    /* \"#utility.yul\":4548:4549   */\n  0x02\n    /* \"#utility.yul\":4542:4546   */\n  dup3\n    /* \"#utility.yul\":4538:4550   */\n  div\n    /* \"#utility.yul\":4528:4550   */\n  swap1\n  pop\n    /* \"#utility.yul\":4595:4596   */\n  0x01\n    /* \"#utility.yul\":4589:4593   */\n  dup3\n    /* \"#utility.yul\":4585:4597   */\n  and\n    /* \"#utility.yul\":4616:4634   */\n  dup1\n    /* \"#utility.yul\":4606:4608   */\n  tag_96\n  jumpi\n    /* \"#utility.yul\":4672:4676   */\n  0x7f\n    /* \"#utility.yul\":4664:4670   */\n  dup3\n    /* \"#utility.yul\":4660:4677   */\n  and\n    /* \"#utility.yul\":4650:4677   */\n  swap2\n  pop\n    /* \"#utility.yul\":4606:4608   */\ntag_96:\n    /* \"#utility.yul\":4734:4736   */\n  0x20\n    /* \"#utility.yul\":4726:4732   */\n  dup3\n    /* \"#utility.yul\":4723:4737   */\n  lt\n    /* \"#utility.yul\":4703:4721   */\n  dup2\n    /* \"#utility.yul\":4700:4738   */\n  eq\n    /* \"#utility.yul\":4697:4699   */\n  iszero\n  tag_97\n  jumpi\n    /* \"#utility.yul\":4753:4771   */\n  tag_98\n  tag_99\n  jump\t// in\ntag_98:\n    /* \"#utility.yul\":4697:4699   */\ntag_97:\n    /* \"#utility.yul\":4518:4787   */\n  pop\n  swap2\n  swap1\n  pop\n  jump\t// out\n    /* \"#utility.yul\":4793:5026   */\ntag_36:\n  0x00\n    /* \"#utility.yul\":4855:4879   */\n  tag_101\n    /* \"#utility.yul\":4873:4878   */\n  dup3\n    /* \"#utility.yul\":4855:4879   */\n  tag_88\n  jump\t// in\ntag_101:\n    /* \"#utility.yul\":4846:4879   */\n  swap2\n  pop\n    /* \"#utility.yul\":4901:4967   */\n  0xffffffffffffffffffffffffffffffffffffffffffffffffffffffffffffffff\n    /* \"#utility.yul\":4894:4899   */\n  dup3\n    /* \"#utility.yul\":4891:4968   */\n  eq\n    /* \"#utility.yul\":4888:4890   */\n  iszero\n  tag_102\n  jumpi\n    /* \"#utility.yul\":4971:4989   */\n  tag_103\n  tag_104\n  jump\t// in\ntag_103:\n    /* \"#utility.yul\":4888:4890   */\ntag_102:\n    /* \"#utility.yul\":5018:5019   */\n  0x01\n    /* \"#utility.yul\":5011:5016   */\n  dup3\n    /* \"#utility.yul\":5007:5020   */\n  add\n    /* \"#utility.yul\":5000:5020   */\n  swap1\n  pop\n    /* \"#utility.yul\":4836:5026   */\n  swap2\n  swap1\n  pop\n  jump\t// out\n    /* \"#utility.yul\":5032:5212   */\ntag_104:\n    /* \"#utility.yul\":5080:5157   */\n  0x4e487b7100000000000000000000000000000000000000000000000000000000\n    /* \"#utility.yul\":5077:5078   */\n  0x00\n    /* \"#utility.yul\":5070:5158   */\n  mstore\n    /* \"#utility.yul\":5177:5181   */\n  0x11\n    /* \"#utility.yul\":5174:5175   */\n  0x04\n    /* \"#utility.yul\":5167:5182   */\n  mstore\n    /* \"#utility.yul\":5201:5205   */\n  0x24\n    /* \"#utility.yul\":5198:5199   */\n  0x00\n    /* \"#utility.yul\":5191:5206   */\n  revert\n    /* \"#utility.yul\":5218:5398   */\ntag_99:\n    /* \"#utility.yul\":5266:5343   */\n  0x4e487b7100000000000000000000000000000000000000000000000000000000\n    /* \"#utility.yul\":5263:5264   */\n  0x00\n    /* \"#utility.yul\":5256:5344   */\n  mstore\n    /* \"#utility.yul\":5363:5367   */\n  0x22\n    /* \"#utility.yul\":5360:5361   */\n  0x04\n    /* \"#utility.yul\":5353:5368   */\n  mstore\n    /* \"#utility.yul\":5387:5391   */\n  0x24\n    /* \"#utility.yul\":5384:5385   */\n  0x00\n    /* \"#utility.yul\":5377:5392   */\n  revert\n    /* \"blockpedia.sol\":85:4772  contract Blockpedia\r... */\ntag_6:\n  dataSize(sub_0)\n  dup1\n  dataOffset(sub_0)\n  0x00\n  codecopy\n  0x00\n  return\nstop\ndata_9002fc6039152390109ec5f732c53c58176ebaeec30c137dc0bb00ed96b81159 42656d2076696e646f206120426c6f636b70656964612c206120656e6369636c6f7065646961206e6120626c6f636b636861696e\n\nsub_0: assembly {\n        /* \"blockpedia.sol\":85:4772  contract Blockpedia\r... */\n      mstore(0x40, 0x80)\n      callvalue\n      dup1\n      iszero\n      tag_1\n      jumpi\n      0x00\n      dup1\n      revert\n    tag_1:\n      pop\n      jumpi(tag_2, lt(calldatasize, 0x04))\n      shr(0xe0, calldataload(0x00))\n      dup1\n      0x95be551a\n      gt\n      tag_14\n      jumpi\n      dup1\n      0x95be551a\n      eq\n      tag_8\n      jumpi\n      dup1\n      0xa18cc13b\n      eq\n      tag_9\n      jumpi\n      dup1\n      0xaa83581f\n      eq\n      tag_10\n      jumpi\n      dup1\n      0xd4d23a6e\n      eq\n      tag_11\n      jumpi\n      dup1\n      0xd616c9f0\n      eq\n      tag_12\n      jumpi\n      dup1\n      0xe7d4296a\n      eq\n      tag_13\n      jumpi\n      jump(tag_2)\n    tag_14:\n      dup1\n      0x0694952d\n      eq\n      tag_3\n      jumpi\n      dup1\n      0x1509d30c\n      eq\n      tag_4\n      jumpi\n      dup1\n      0x1c18379a\n      eq\n      tag_5\n      jumpi\n      dup1\n      0x4d7e6726\n      eq\n      tag_6\n      jumpi\n      dup1\n      0x6f70a52e\n      eq\n      tag_7\n      jumpi\n    tag_2:\n      0x00\n      dup1\n      revert\n        /* \"blockpedia.sol\":145:165  address public autor */\n    tag_3:\n      tag_15\n      tag_16\n      jump\t// in\n    tag_15:\n      mload(0x40)\n      tag_17\n      swap2\n      swap1\n      tag_18\n      jump\t// in\n    tag_17:\n      mload(0x40)\n      dup1\n      swap2\n      sub\n      swap1\n      return\n        /* \"blockpedia.sol\":996:1190  function ativaDesativaBlockpedia(bool _ativo) public\r... */\n    tag_4:\n      tag_19\n      0x04\n      dup1\n      calldatasize\n      sub\n      dup2\n      add\n      swap1\n      tag_20\n      swap2\n      swap1\n      tag_21\n      jump\t// in\n    tag_20:\n      tag_22\n      jump\t// in\n    tag_19:\n      stop\n        /* \"blockpedia.sol\":409:988  function criarPagina(string memory titulo, string memory conteudo) public\r... */\n    tag_5:\n      tag_23\n      0x04\n      dup1\n      calldatasize\n      sub\n      dup2\n      add\n      swap1\n      tag_24\n      swap2\n      swap1\n      tag_25\n      jump\t// in\n    tag_24:\n      tag_26\n      jump\t// in\n    tag_23:\n      stop\n        /* \"blockpedia.sol\":1773:2024  function getConteudoVersaoValidaPorIndexPaginas(uint indice) public view returns (string memory)\r... */\n    tag_6:\n      tag_27\n      0x04\n      dup1\n      calldatasize\n      sub\n      dup2\n      add\n      swap1\n      tag_28\n      swap2\n      swap1\n      tag_29\n      jump\t// in\n    tag_28:\n      tag_30\n      jump\t// in\n    tag_27:\n      mload(0x40)\n      tag_31\n      swap2\n      swap1\n      tag_32\n      jump\t// in\n    tag_31:\n      mload(0x40)\n      dup1\n      swap2\n      sub\n      swap1\n      return\n        /* \"blockpedia.sol\":173:217  uint256 public dataCriacao = block.timestamp */\n    tag_7:\n      tag_33\n      tag_34\n      jump\t// in\n    tag_33:\n      mload(0x40)\n      tag_35\n      swap2\n      swap1\n      tag_36\n      jump\t// in\n    tag_35:\n      mload(0x40)\n      dup1\n      swap2\n      sub\n      swap1\n      return\n        /* \"blockpedia.sol\":2971:3946  function ativaVersaoPorIndexVersoesEIndexPaginas(uint indexPagina, uint indexVersoes) public\r... */\n    tag_8:\n      tag_37\n      0x04\n      dup1\n      calldatasize\n      sub\n      dup2\n      add\n      swap1\n      tag_38\n      swap2\n      swap1\n      tag_39\n      jump\t// in\n    tag_38:\n      tag_40\n      jump\t// in\n    tag_37:\n      stop\n        /* \"blockpedia.sol\":113:137  bool public ativo = true */\n    tag_9:\n      tag_41\n      tag_42\n      jump\t// in\n    tag_41:\n      mload(0x40)\n      tag_43\n      swap2\n      swap1\n      tag_44\n      jump\t// in\n    tag_43:\n      mload(0x40)\n      dup1\n      swap2\n      sub\n      swap1\n      return\n        /* \"blockpedia.sol\":4313:4767  function ativaPaginaPorIndexPaginas(uint indexPagina)public\r... */\n    tag_10:\n      tag_45\n      0x04\n      dup1\n      calldatasize\n      sub\n      dup2\n      add\n      swap1\n      tag_46\n      swap2\n      swap1\n      tag_29\n      jump\t// in\n    tag_46:\n      tag_47\n      jump\t// in\n    tag_45:\n      stop\n        /* \"blockpedia.sol\":2363:2963  function adicionaNovaVercaoDesativadaAPaginaPorIndexPaginas(uint index, string memory conteudo) public\r... */\n    tag_11:\n      tag_48\n      0x04\n      dup1\n      calldatasize\n      sub\n      dup2\n      add\n      swap1\n      tag_49\n      swap2\n      swap1\n      tag_50\n      jump\t// in\n    tag_49:\n      tag_51\n      jump\t// in\n    tag_48:\n      stop\n        /* \"blockpedia.sol\":3954:4305  function desativaPaginaPorIndexPaginas(uint indexPagina)public\r... */\n    tag_12:\n      tag_52\n      0x04\n      dup1\n      calldatasize\n      sub\n      dup2\n      add\n      swap1\n      tag_53\n      swap2\n      swap1\n      tag_29\n      jump\t// in\n    tag_53:\n      tag_54\n      jump\t// in\n    tag_52:\n      stop\n        /* \"blockpedia.sol\":224:247  Pagina[] public paginas */\n    tag_13:\n      tag_55\n      0x04\n      dup1\n      calldatasize\n      sub\n      dup2\n      add\n      swap1\n      tag_56\n      swap2\n      swap1\n      tag_29\n      jump\t// in\n    tag_56:\n      tag_57\n      jump\t// in\n    tag_55:\n      mload(0x40)\n      tag_58\n      swap5\n      swap4\n      swap3\n      swap2\n      swap1\n      tag_59\n      jump\t// in\n    tag_58:\n      mload(0x40)\n      dup1\n      swap2\n      sub\n      swap1\n      return\n        /* \"blockpedia.sol\":145:165  address public autor */\n    tag_16:\n      0x00\n      0x01\n      swap1\n      sload\n      swap1\n      0x0100\n      exp\n      swap1\n      div\n      0xffffffffffffffffffffffffffffffffffffffff\n      and\n      dup2\n      jump\t// out\n        /* \"blockpedia.sol\":996:1190  function ativaDesativaBlockpedia(bool _ativo) public\r... */\n    tag_22:\n        /* \"blockpedia.sol\":1087:1092  autor */\n      0x00\n      0x01\n      swap1\n      sload\n      swap1\n      0x0100\n      exp\n      swap1\n      div\n      0xffffffffffffffffffffffffffffffffffffffff\n      and\n        /* \"blockpedia.sol\":1073:1092  msg.sender == autor */\n      0xffffffffffffffffffffffffffffffffffffffff\n      and\n        /* \"blockpedia.sol\":1073:1083  msg.sender */\n      caller\n        /* \"blockpedia.sol\":1073:1092  msg.sender == autor */\n      0xffffffffffffffffffffffffffffffffffffffff\n      and\n      eq\n        /* \"blockpedia.sol\":1065:1157  require(msg.sender == autor,\"Somente o dono desta Blockpedia pode alterar o atributo ativo\") */\n      tag_61\n      jumpi\n      mload(0x40)\n      0x08c379a000000000000000000000000000000000000000000000000000000000\n      dup2\n      mstore\n      0x04\n      add\n      tag_62\n      swap1\n      tag_63\n      jump\t// in\n    tag_62:\n      mload(0x40)\n      dup1\n      swap2\n      sub\n      swap1\n      revert\n    tag_61:\n        /* \"blockpedia.sol\":1176:1182  _ativo */\n      dup1\n        /* \"blockpedia.sol\":1168:1173  ativo */\n      0x00\n      dup1\n        /* \"blockpedia.sol\":1168:1182  ativo = _ativo */\n      0x0100\n      exp\n      dup2\n      sload\n      dup2\n      0xff\n      mul\n      not\n      and\n      swap1\n      dup4\n      iszero\n      iszero\n      mul\n      or\n      swap1\n      sstore\n      pop\n        /* \"blockpedia.sol\":996:1190  function ativaDesativaBlockpedia(bool _ativo) public\r... */\n      pop\n      jump\t// out\n        /* \"blockpedia.sol\":409:988  function criarPagina(string memory titulo, string memory conteudo) public\r... */\n    tag_26:\n        /* \"blockpedia.sol\":507:512  ativo */\n      0x00\n      dup1\n      sload\n      swap1\n      0x0100\n      exp\n      swap1\n      div\n      0xff\n      and\n        /* \"blockpedia.sol\":499:588  require(ativo, \"A adicao de novas paginas so e permitida quando a Blockpedia esta ativa\") */\n      tag_65\n      jumpi\n      mload(0x40)\n      0x08c379a000000000000000000000000000000000000000000000000000000000\n      dup2\n      mstore\n      0x04\n      add\n      tag_66\n      swap1\n      tag_67\n      jump\t// in\n    tag_66:\n      mload(0x40)\n      dup1\n      swap2\n      sub\n      swap1\n      revert\n    tag_65:\n        /* \"blockpedia.sol\":608:633  existeTituloAtivo(titulo) */\n      tag_68\n        /* \"blockpedia.sol\":626:632  titulo */\n      dup3\n        /* \"blockpedia.sol\":608:625  existeTituloAtivo */\n      tag_69\n        /* \"blockpedia.sol\":608:633  existeTituloAtivo(titulo) */\n      jump\t// in\n    tag_68:\n        /* \"blockpedia.sol\":607:633  !existeTituloAtivo(titulo) */\n      iszero\n        /* \"blockpedia.sol\":599:676  require(!existeTituloAtivo(titulo), \"Ja existe pagina ativa com este titulo\") */\n      tag_70\n      jumpi\n      mload(0x40)\n      0x08c379a000000000000000000000000000000000000000000000000000000000\n      dup2\n      mstore\n      0x04\n      add\n      tag_71\n      swap1\n      tag_72\n      jump\t// in\n    tag_71:\n      mload(0x40)\n      dup1\n      swap2\n      sub\n      swap1\n      revert\n    tag_70:\n        /* \"blockpedia.sol\":689:714  Pagina storage novaPagina */\n      0x00\n        /* \"blockpedia.sol\":717:724  paginas */\n      0x02\n        /* \"blockpedia.sol\":717:731  paginas.push() */\n      0x01\n      dup2\n      0x01\n      dup2\n      sload\n      add\n      dup1\n      dup3\n      sstore\n      dup1\n      swap2\n      pop\n      pop\n      sub\n      swap1\n      0x00\n      mstore\n      keccak256(0x00, 0x20)\n      swap1\n      0x04\n      mul\n      add\n        /* \"blockpedia.sol\":689:731  Pagina storage novaPagina = paginas.push() */\n      swap1\n      pop\n        /* \"blockpedia.sol\":761:765  true */\n      0x01\n        /* \"blockpedia.sol\":742:752  novaPagina */\n      dup2\n        /* \"blockpedia.sol\":742:758  novaPagina.ativo */\n      0x00\n      add\n      0x00\n        /* \"blockpedia.sol\":742:765  novaPagina.ativo = true */\n      0x0100\n      exp\n      dup2\n      sload\n      dup2\n      0xff\n      mul\n      not\n      and\n      swap1\n      dup4\n      iszero\n      iszero\n      mul\n      or\n      swap1\n      sstore\n      pop\n        /* \"blockpedia.sol\":795:805  msg.sender */\n      caller\n        /* \"blockpedia.sol\":776:786  novaPagina */\n      dup2\n        /* \"blockpedia.sol\":776:792  novaPagina.autor */\n      0x00\n      add\n      0x01\n        /* \"blockpedia.sol\":776:805  novaPagina.autor = msg.sender */\n      0x0100\n      exp\n      dup2\n      sload\n      dup2\n      0xffffffffffffffffffffffffffffffffffffffff\n      mul\n      not\n      and\n      swap1\n      dup4\n      0xffffffffffffffffffffffffffffffffffffffff\n      and\n      mul\n      or\n      swap1\n      sstore\n      pop\n        /* \"blockpedia.sol\":841:856  block.timestamp */\n      timestamp\n        /* \"blockpedia.sol\":816:826  novaPagina */\n      dup2\n        /* \"blockpedia.sol\":816:838  novaPagina.dataCriacao */\n      0x01\n      add\n        /* \"blockpedia.sol\":816:856  novaPagina.dataCriacao = block.timestamp */\n      dup2\n      swap1\n      sstore\n      pop\n        /* \"blockpedia.sol\":887:893  titulo */\n      dup3\n        /* \"blockpedia.sol\":867:877  novaPagina */\n      dup2\n        /* \"blockpedia.sol\":867:884  novaPagina.titulo */\n      0x02\n      add\n        /* \"blockpedia.sol\":867:893  novaPagina.titulo = titulo */\n      swap1\n      dup1\n      mload\n      swap1\n      0x20\n      add\n      swap1\n      tag_74\n      swap3\n      swap2\n      swap1\n      tag_75\n      jump\t// in\n    tag_74:\n      pop\n        /* \"blockpedia.sol\":904:914  novaPagina */\n      dup1\n        /* \"blockpedia.sol\":904:922  novaPagina.versoes */\n      0x03\n      add\n        /* \"blockpedia.sol\":928:979  Versao(true, msg.sender, block.timestamp, conteudo) */\n      mload(0x40)\n      dup1\n      0x80\n      add\n      0x40\n      mstore\n      dup1\n        /* \"blockpedia.sol\":935:939  true */\n      0x01\n        /* \"blockpedia.sol\":928:979  Versao(true, msg.sender, block.timestamp, conteudo) */\n      iszero\n      iszero\n      dup2\n      mstore\n      0x20\n      add\n        /* \"blockpedia.sol\":941:951  msg.sender */\n      caller\n        /* \"blockpedia.sol\":928:979  Versao(true, msg.sender, block.timestamp, conteudo) */\n      0xffffffffffffffffffffffffffffffffffffffff\n      and\n      dup2\n      mstore\n      0x20\n      add\n        /* \"blockpedia.sol\":953:968  block.timestamp */\n      timestamp\n        /* \"blockpedia.sol\":928:979  Versao(true, msg.sender, block.timestamp, conteudo) */\n      dup2\n      mstore\n      0x20\n      add\n        /* \"blockpedia.sol\":970:978  conteudo */\n      dup5\n        /* \"blockpedia.sol\":928:979  Versao(true, msg.sender, block.timestamp, conteudo) */\n      dup2\n      mstore\n      pop\n        /* \"blockpedia.sol\":904:980  novaPagina.versoes.push(Versao(true, msg.sender, block.timestamp, conteudo)) */\n      swap1\n      dup1\n      0x01\n      dup2\n      sload\n      add\n      dup1\n      dup3\n      sstore\n      dup1\n      swap2\n      pop\n      pop\n      0x01\n      swap1\n      sub\n      swap1\n      0x00\n      mstore\n      keccak256(0x00, 0x20)\n      swap1\n      0x03\n      mul\n      add\n      0x00\n      swap1\n      swap2\n      swap1\n      swap2\n      swap1\n      swap2\n      pop\n      0x00\n      dup3\n      add\n      mload\n      dup2\n      0x00\n      add\n      exp(0x0100, 0x00)\n      dup2\n      sload\n      dup2\n      0xff\n      mul\n      not\n      and\n      swap1\n      dup4\n      iszero\n      iszero\n      mul\n      or\n      swap1\n      sstore\n      pop\n      0x20\n      dup3\n      add\n      mload\n      dup2\n      0x00\n      add\n      exp(0x0100, 0x01)\n      dup2\n      sload\n      dup2\n      0xffffffffffffffffffffffffffffffffffffffff\n      mul\n      not\n      and\n      swap1\n      dup4\n      0xffffffffffffffffffffffffffffffffffffffff\n      and\n      mul\n      or\n      swap1\n      sstore\n      pop\n      0x40\n      dup3\n      add\n      mload\n      dup2\n      0x01\n      add\n      sstore\n      0x60\n      dup3\n      add\n      mload\n      dup2\n      0x02\n      add\n      swap1\n      dup1\n      mload\n      swap1\n      0x20\n      add\n      swap1\n      tag_77\n      swap3\n      swap2\n      swap1\n      tag_75\n      jump\t// in\n    tag_77:\n      pop\n      pop\n      pop\n        /* \"blockpedia.sol\":409:988  function criarPagina(string memory titulo, string memory conteudo) public\r... */\n      pop\n      pop\n      pop\n      jump\t// out\n        /* \"blockpedia.sol\":1773:2024  function getConteudoVersaoValidaPorIndexPaginas(uint indice) public view returns (string memory)\r... */\n    tag_30:\n        /* \"blockpedia.sol\":1855:1868  string memory */\n      0x60\n        /* \"blockpedia.sol\":1903:1910  paginas */\n      0x02\n        /* \"blockpedia.sol\":1903:1917  paginas.length */\n      dup1\n      sload\n      swap1\n      pop\n        /* \"blockpedia.sol\":1894:1900  indice */\n      dup3\n        /* \"blockpedia.sol\":1894:1917  indice < paginas.length */\n      lt\n        /* \"blockpedia.sol\":1886:1944  require(indice < paginas.length, \"Indice fora do alcance\") */\n      tag_79\n      jumpi\n      mload(0x40)\n      0x08c379a000000000000000000000000000000000000000000000000000000000\n      dup2\n      mstore\n      0x04\n      add\n      tag_80\n      swap1\n      tag_81\n      jump\t// in\n    tag_80:\n      mload(0x40)\n      dup1\n      swap2\n      sub\n      swap1\n      revert\n    tag_79:\n        /* \"blockpedia.sol\":1964:2007  getVersaoValidaDeUmaPagina(paginas[indice]) */\n      tag_82\n        /* \"blockpedia.sol\":1991:1998  paginas */\n      0x02\n        /* \"blockpedia.sol\":1999:2005  indice */\n      dup4\n        /* \"blockpedia.sol\":1991:2006  paginas[indice] */\n      dup2\n      sload\n      dup2\n      lt\n      tag_83\n      jumpi\n      mstore(0x00, 0x4e487b7100000000000000000000000000000000000000000000000000000000)\n      mstore(0x04, 0x32)\n      revert(0x00, 0x24)\n    tag_83:\n      swap1\n      0x00\n      mstore\n      keccak256(0x00, 0x20)\n      swap1\n      0x04\n      mul\n      add\n        /* \"blockpedia.sol\":1964:2007  getVersaoValidaDeUmaPagina(paginas[indice]) */\n      mload(0x40)\n      dup1\n      0xa0\n      add\n      0x40\n      mstore\n      swap1\n      dup2\n      0x00\n      dup3\n      add\n      0x00\n      swap1\n      sload\n      swap1\n      0x0100\n      exp\n      swap1\n      div\n      0xff\n      and\n      iszero\n      iszero\n      iszero\n      iszero\n      dup2\n      mstore\n      0x20\n      add\n      0x00\n      dup3\n      add\n      0x01\n      swap1\n      sload\n      swap1\n      0x0100\n      exp\n      swap1\n      div\n      0xffffffffffffffffffffffffffffffffffffffff\n      and\n      0xffffffffffffffffffffffffffffffffffffffff\n      and\n      0xffffffffffffffffffffffffffffffffffffffff\n      and\n      dup2\n      mstore\n      0x20\n      add\n      0x01\n      dup3\n      add\n      sload\n      dup2\n      mstore\n      0x20\n      add\n      0x02\n      dup3\n      add\n      dup1\n      sload\n      tag_85\n      swap1\n      tag_86\n      jump\t// in\n    tag_85:\n      dup1\n      0x1f\n      add\n      0x20\n      dup1\n      swap2\n      div\n      mul\n      0x20\n      add\n      mload(0x40)\n      swap1\n      dup2\n      add\n      0x40\n      mstore\n      dup1\n      swap3\n      swap2\n      swap1\n      dup2\n      dup2\n      mstore\n      0x20\n      add\n      dup3\n      dup1\n      sload\n      tag_87\n      swap1\n      tag_86\n      jump\t// in\n    tag_87:\n      dup1\n      iszero\n      tag_88\n      jumpi\n      dup1\n      0x1f\n      lt\n      tag_89\n      jumpi\n      0x0100\n      dup1\n      dup4\n      sload\n      div\n      mul\n      dup4\n      mstore\n      swap2\n      0x20\n      add\n      swap2\n      jump(tag_88)\n    tag_89:\n      dup3\n      add\n      swap2\n      swap1\n      0x00\n      mstore\n      keccak256(0x00, 0x20)\n      swap1\n    tag_90:\n      dup2\n      sload\n      dup2\n      mstore\n      swap1\n      0x01\n      add\n      swap1\n      0x20\n      add\n      dup1\n      dup4\n      gt\n      tag_90\n      jumpi\n      dup3\n      swap1\n      sub\n      0x1f\n      and\n      dup3\n      add\n      swap2\n    tag_88:\n      pop\n      pop\n      pop\n      pop\n      pop\n      dup2\n      mstore\n      0x20\n      add\n      0x03\n      dup3\n      add\n      dup1\n      sload\n      dup1\n      0x20\n      mul\n      0x20\n      add\n      mload(0x40)\n      swap1\n      dup2\n      add\n      0x40\n      mstore\n      dup1\n      swap3\n      swap2\n      swap1\n      dup2\n      dup2\n      mstore\n      0x20\n      add\n      0x00\n      swap1\n    tag_91:\n      dup3\n      dup3\n      lt\n      iszero\n      tag_92\n      jumpi\n      dup4\n      dup3\n      swap1\n      0x00\n      mstore\n      keccak256(0x00, 0x20)\n      swap1\n      0x03\n      mul\n      add\n      mload(0x40)\n      dup1\n      0x80\n      add\n      0x40\n      mstore\n      swap1\n      dup2\n      0x00\n      dup3\n      add\n      0x00\n      swap1\n      sload\n      swap1\n      0x0100\n      exp\n      swap1\n      div\n      0xff\n      and\n      iszero\n      iszero\n      iszero\n      iszero\n      dup2\n      mstore\n      0x20\n      add\n      0x00\n      dup3\n      add\n      0x01\n      swap1\n      sload\n      swap1\n      0x0100\n      exp\n      swap1\n      div\n      0xffffffffffffffffffffffffffffffffffffffff\n      and\n      0xffffffffffffffffffffffffffffffffffffffff\n      and\n      0xffffffffffffffffffffffffffffffffffffffff\n      and\n      dup2\n      mstore\n      0x20\n      add\n      0x01\n      dup3\n      add\n      sload\n      dup2\n      mstore\n      0x20\n      add\n      0x02\n      dup3\n      add\n      dup1\n      sload\n      tag_94\n      swap1\n      tag_86\n      jump\t// in\n    tag_94:\n      dup1\n      0x1f\n      add\n      0x20\n      dup1\n      swap2\n      div\n      mul\n      0x20\n      add\n      mload(0x40)\n      swap1\n      dup2\n      add\n      0x40\n      mstore\n      dup1\n      swap3\n      swap2\n      swap1\n      dup2\n      dup2\n      mstore\n      0x20\n      add\n      dup3\n      dup1\n      sload\n      tag_95\n      swap1\n      tag_86\n      jump\t// in\n    tag_95:\n      dup1\n      iszero\n      tag_96\n      jumpi\n      dup1\n      0x1f\n      lt\n      tag_97\n      jumpi\n      0x0100\n      dup1\n      dup4\n      sload\n      div\n      mul\n      dup4\n      mstore\n      swap2\n      0x20\n      add\n      swap2\n      jump(tag_96)\n    tag_97:\n      dup3\n      add\n      swap2\n      swap1\n      0x00\n      mstore\n      keccak256(0x00, 0x20)\n      swap1\n    tag_98:\n      dup2\n      sload\n      dup2\n      mstore\n      swap1\n      0x01\n      add\n      swap1\n      0x20\n      add\n      dup1\n      dup4\n      gt\n      tag_98\n      jumpi\n      dup3\n      swap1\n      sub\n      0x1f\n      and\n      dup3\n      add\n      swap2\n    tag_96:\n      pop\n      pop\n      pop\n      pop\n      pop\n      dup2\n      mstore\n      pop\n      pop\n      dup2\n      mstore\n      0x20\n      add\n      swap1\n      0x01\n      add\n      swap1\n      jump(tag_91)\n    tag_92:\n      pop\n      pop\n      pop\n      pop\n      dup2\n      mstore\n      pop\n      pop\n        /* \"blockpedia.sol\":1964:1990  getVersaoValidaDeUmaPagina */\n      tag_99\n        /* \"blockpedia.sol\":1964:2007  getVersaoValidaDeUmaPagina(paginas[indice]) */\n      jump\t// in\n    tag_82:\n        /* \"blockpedia.sol\":1964:2016  getVersaoValidaDeUmaPagina(paginas[indice]).conteudo */\n      0x60\n      add\n      mload\n        /* \"blockpedia.sol\":1957:2016  return getVersaoValidaDeUmaPagina(paginas[indice]).conteudo */\n      swap1\n      pop\n        /* \"blockpedia.sol\":1773:2024  function getConteudoVersaoValidaPorIndexPaginas(uint indice) public view returns (string memory)\r... */\n      swap2\n      swap1\n      pop\n      jump\t// out\n        /* \"blockpedia.sol\":173:217  uint256 public dataCriacao = block.timestamp */\n    tag_34:\n      sload(0x01)\n      dup2\n      jump\t// out\n        /* \"blockpedia.sol\":2971:3946  function ativaVersaoPorIndexVersoesEIndexPaginas(uint indexPagina, uint indexVersoes) public\r... */\n    tag_40:\n        /* \"blockpedia.sol\":3088:3093  ativo */\n      0x00\n      dup1\n      sload\n      swap1\n      0x0100\n      exp\n      swap1\n      div\n      0xff\n      and\n        /* \"blockpedia.sol\":3080:3169  require(ativo, \"A adicao de novas paginas so e permitida quando a Blockpedia esta ativa\") */\n      tag_101\n      jumpi\n      mload(0x40)\n      0x08c379a000000000000000000000000000000000000000000000000000000000\n      dup2\n      mstore\n      0x04\n      add\n      tag_102\n      swap1\n      tag_67\n      jump\t// in\n    tag_102:\n      mload(0x40)\n      dup1\n      swap2\n      sub\n      swap1\n      revert\n    tag_101:\n        /* \"blockpedia.sol\":3202:3209  paginas */\n      0x02\n        /* \"blockpedia.sol\":3202:3216  paginas.length */\n      dup1\n      sload\n      swap1\n      pop\n        /* \"blockpedia.sol\":3188:3199  indexPagina */\n      dup3\n        /* \"blockpedia.sol\":3188:3216  indexPagina < paginas.length */\n      lt\n        /* \"blockpedia.sol\":3180:3253  require(indexPagina < paginas.length, \"Indice da pagina fora do alcance\") */\n      tag_103\n      jumpi\n      mload(0x40)\n      0x08c379a000000000000000000000000000000000000000000000000000000000\n      dup2\n      mstore\n      0x04\n      add\n      tag_104\n      swap1\n      tag_105\n      jump\t// in\n    tag_104:\n      mload(0x40)\n      dup1\n      swap2\n      sub\n      swap1\n      revert\n    tag_103:\n        /* \"blockpedia.sol\":3272:3279  paginas */\n      0x02\n        /* \"blockpedia.sol\":3280:3291  indexPagina */\n      dup3\n        /* \"blockpedia.sol\":3272:3292  paginas[indexPagina] */\n      dup2\n      sload\n      dup2\n      lt\n      tag_106\n      jumpi\n      mstore(0x00, 0x4e487b7100000000000000000000000000000000000000000000000000000000)\n      mstore(0x04, 0x32)\n      revert(0x00, 0x24)\n    tag_106:\n      swap1\n      0x00\n      mstore\n      keccak256(0x00, 0x20)\n      swap1\n      0x04\n      mul\n      add\n        /* \"blockpedia.sol\":3272:3298  paginas[indexPagina].ativo */\n      0x00\n      add\n      0x00\n      swap1\n      sload\n      swap1\n      0x0100\n      exp\n      swap1\n      div\n      0xff\n      and\n        /* \"blockpedia.sol\":3264:3366  require(paginas[indexPagina].ativo, \"A alteracao de versao so e permitida quando a pagina esta ativa\") */\n      tag_108\n      jumpi\n      mload(0x40)\n      0x08c379a000000000000000000000000000000000000000000000000000000000\n      dup2\n      mstore\n      0x04\n      add\n      tag_109\n      swap1\n      tag_110\n      jump\t// in\n    tag_109:\n      mload(0x40)\n      dup1\n      swap2\n      sub\n      swap1\n      revert\n    tag_108:\n        /* \"blockpedia.sol\":3400:3407  paginas */\n      0x02\n        /* \"blockpedia.sol\":3408:3419  indexPagina */\n      dup3\n        /* \"blockpedia.sol\":3400:3420  paginas[indexPagina] */\n      dup2\n      sload\n      dup2\n      lt\n      tag_111\n      jumpi\n      mstore(0x00, 0x4e487b7100000000000000000000000000000000000000000000000000000000)\n      mstore(0x04, 0x32)\n      revert(0x00, 0x24)\n    tag_111:\n      swap1\n      0x00\n      mstore\n      keccak256(0x00, 0x20)\n      swap1\n      0x04\n      mul\n      add\n        /* \"blockpedia.sol\":3400:3428  paginas[indexPagina].versoes */\n      0x03\n      add\n        /* \"blockpedia.sol\":3400:3435  paginas[indexPagina].versoes.length */\n      dup1\n      sload\n      swap1\n      pop\n        /* \"blockpedia.sol\":3385:3397  indexVersoes */\n      dup2\n        /* \"blockpedia.sol\":3385:3435  indexVersoes < paginas[indexPagina].versoes.length */\n      lt\n        /* \"blockpedia.sol\":3377:3472  require(indexVersoes < paginas[indexPagina].versoes.length, \"Indice da versao fora do alcance\") */\n      tag_113\n      jumpi\n      mload(0x40)\n      0x08c379a000000000000000000000000000000000000000000000000000000000\n      dup2\n      mstore\n      0x04\n      add\n      tag_114\n      swap1\n      tag_115\n      jump\t// in\n    tag_114:\n      mload(0x40)\n      dup1\n      swap2\n      sub\n      swap1\n      revert\n    tag_113:\n        /* \"blockpedia.sol\":3488:3495  paginas */\n      0x02\n        /* \"blockpedia.sol\":3496:3507  indexPagina */\n      dup3\n        /* \"blockpedia.sol\":3488:3508  paginas[indexPagina] */\n      dup2\n      sload\n      dup2\n      lt\n      tag_116\n      jumpi\n      mstore(0x00, 0x4e487b7100000000000000000000000000000000000000000000000000000000)\n      mstore(0x04, 0x32)\n      revert(0x00, 0x24)\n    tag_116:\n      swap1\n      0x00\n      mstore\n      keccak256(0x00, 0x20)\n      swap1\n      0x04\n      mul\n      add\n        /* \"blockpedia.sol\":3488:3516  paginas[indexPagina].versoes */\n      0x03\n      add\n        /* \"blockpedia.sol\":3517:3529  indexVersoes */\n      dup2\n        /* \"blockpedia.sol\":3488:3530  paginas[indexPagina].versoes[indexVersoes] */\n      dup2\n      sload\n      dup2\n      lt\n      tag_118\n      jumpi\n      mstore(0x00, 0x4e487b7100000000000000000000000000000000000000000000000000000000)\n      mstore(0x04, 0x32)\n      revert(0x00, 0x24)\n    tag_118:\n      swap1\n      0x00\n      mstore\n      keccak256(0x00, 0x20)\n      swap1\n      0x03\n      mul\n      add\n        /* \"blockpedia.sol\":3488:3536  paginas[indexPagina].versoes[indexVersoes].ativo */\n      0x00\n      add\n      0x00\n      swap1\n      sload\n      swap1\n      0x0100\n      exp\n      swap1\n      div\n      0xff\n      and\n        /* \"blockpedia.sol\":3485:3545  if(paginas[indexPagina].versoes[indexVersoes].ativo) return; */\n      iszero\n      tag_120\n      jumpi\n        /* \"blockpedia.sol\":3538:3545  return; */\n      jump(tag_100)\n        /* \"blockpedia.sol\":3485:3545  if(paginas[indexPagina].versoes[indexVersoes].ativo) return; */\n    tag_120:\n        /* \"blockpedia.sol\":3562:3568  uint i */\n      0x00\n        /* \"blockpedia.sol\":3571:3578  paginas */\n      0x02\n        /* \"blockpedia.sol\":3579:3590  indexPagina */\n      dup4\n        /* \"blockpedia.sol\":3571:3591  paginas[indexPagina] */\n      dup2\n      sload\n      dup2\n      lt\n      tag_124\n      jumpi\n      mstore(0x00, 0x4e487b7100000000000000000000000000000000000000000000000000000000)\n      mstore(0x04, 0x32)\n      revert(0x00, 0x24)\n    tag_124:\n      swap1\n      0x00\n      mstore\n      keccak256(0x00, 0x20)\n      swap1\n      0x04\n      mul\n      add\n        /* \"blockpedia.sol\":3571:3599  paginas[indexPagina].versoes */\n      0x03\n      add\n        /* \"blockpedia.sol\":3571:3606  paginas[indexPagina].versoes.length */\n      dup1\n      sload\n      swap1\n      pop\n        /* \"blockpedia.sol\":3562:3606  uint i = paginas[indexPagina].versoes.length */\n      swap1\n      pop\n        /* \"blockpedia.sol\":3557:3871  for (uint i = paginas[indexPagina].versoes.length; i > 0; i--)\r... */\n    tag_121:\n        /* \"blockpedia.sol\":3612:3613  0 */\n      0x00\n        /* \"blockpedia.sol\":3608:3609  i */\n      dup2\n        /* \"blockpedia.sol\":3608:3613  i > 0 */\n      gt\n        /* \"blockpedia.sol\":3557:3871  for (uint i = paginas[indexPagina].versoes.length; i > 0; i--)\r... */\n      iszero\n      tag_122\n      jumpi\n        /* \"blockpedia.sol\":3644:3659  uint indexAtual */\n      0x00\n        /* \"blockpedia.sol\":3666:3667  1 */\n      0x01\n        /* \"blockpedia.sol\":3662:3663  i */\n      dup3\n        /* \"blockpedia.sol\":3662:3667  i - 1 */\n      tag_126\n      swap2\n      swap1\n      tag_127\n      jump\t// in\n    tag_126:\n        /* \"blockpedia.sol\":3644:3667  uint indexAtual = i - 1 */\n      swap1\n      pop\n        /* \"blockpedia.sol\":3686:3693  paginas */\n      0x02\n        /* \"blockpedia.sol\":3694:3705  indexPagina */\n      dup5\n        /* \"blockpedia.sol\":3686:3706  paginas[indexPagina] */\n      dup2\n      sload\n      dup2\n      lt\n      tag_128\n      jumpi\n      mstore(0x00, 0x4e487b7100000000000000000000000000000000000000000000000000000000)\n      mstore(0x04, 0x32)\n      revert(0x00, 0x24)\n    tag_128:\n      swap1\n      0x00\n      mstore\n      keccak256(0x00, 0x20)\n      swap1\n      0x04\n      mul\n      add\n        /* \"blockpedia.sol\":3686:3714  paginas[indexPagina].versoes */\n      0x03\n      add\n        /* \"blockpedia.sol\":3715:3725  indexAtual */\n      dup2\n        /* \"blockpedia.sol\":3686:3726  paginas[indexPagina].versoes[indexAtual] */\n      dup2\n      sload\n      dup2\n      lt\n      tag_130\n      jumpi\n      mstore(0x00, 0x4e487b7100000000000000000000000000000000000000000000000000000000)\n      mstore(0x04, 0x32)\n      revert(0x00, 0x24)\n    tag_130:\n      swap1\n      0x00\n      mstore\n      keccak256(0x00, 0x20)\n      swap1\n      0x03\n      mul\n      add\n        /* \"blockpedia.sol\":3686:3732  paginas[indexPagina].versoes[indexAtual].ativo */\n      0x00\n      add\n      0x00\n      swap1\n      sload\n      swap1\n      0x0100\n      exp\n      swap1\n      div\n      0xff\n      and\n        /* \"blockpedia.sol\":3682:3860  if (paginas[indexPagina].versoes[indexAtual].ativo)\r... */\n      iszero\n      tag_132\n      jumpi\n        /* \"blockpedia.sol\":3815:3820  false */\n      0x00\n        /* \"blockpedia.sol\":3766:3773  paginas */\n      0x02\n        /* \"blockpedia.sol\":3774:3785  indexPagina */\n      dup6\n        /* \"blockpedia.sol\":3766:3786  paginas[indexPagina] */\n      dup2\n      sload\n      dup2\n      lt\n      tag_133\n      jumpi\n      mstore(0x00, 0x4e487b7100000000000000000000000000000000000000000000000000000000)\n      mstore(0x04, 0x32)\n      revert(0x00, 0x24)\n    tag_133:\n      swap1\n      0x00\n      mstore\n      keccak256(0x00, 0x20)\n      swap1\n      0x04\n      mul\n      add\n        /* \"blockpedia.sol\":3766:3794  paginas[indexPagina].versoes */\n      0x03\n      add\n        /* \"blockpedia.sol\":3795:3805  indexAtual */\n      dup3\n        /* \"blockpedia.sol\":3766:3806  paginas[indexPagina].versoes[indexAtual] */\n      dup2\n      sload\n      dup2\n      lt\n      tag_135\n      jumpi\n      mstore(0x00, 0x4e487b7100000000000000000000000000000000000000000000000000000000)\n      mstore(0x04, 0x32)\n      revert(0x00, 0x24)\n    tag_135:\n      swap1\n      0x00\n      mstore\n      keccak256(0x00, 0x20)\n      swap1\n      0x03\n      mul\n      add\n        /* \"blockpedia.sol\":3766:3812  paginas[indexPagina].versoes[indexAtual].ativo */\n      0x00\n      add\n      0x00\n        /* \"blockpedia.sol\":3766:3820  paginas[indexPagina].versoes[indexAtual].ativo = false */\n      0x0100\n      exp\n      dup2\n      sload\n      dup2\n      0xff\n      mul\n      not\n      and\n      swap1\n      dup4\n      iszero\n      iszero\n      mul\n      or\n      swap1\n      sstore\n      pop\n        /* \"blockpedia.sol\":3839:3844  break */\n      pop\n      jump(tag_122)\n        /* \"blockpedia.sol\":3682:3860  if (paginas[indexPagina].versoes[indexAtual].ativo)\r... */\n    tag_132:\n        /* \"blockpedia.sol\":3557:3871  for (uint i = paginas[indexPagina].versoes.length; i > 0; i--)\r... */\n      pop\n        /* \"blockpedia.sol\":3615:3618  i-- */\n      dup1\n      dup1\n      tag_137\n      swap1\n      tag_138\n      jump\t// in\n    tag_137:\n      swap2\n      pop\n      pop\n        /* \"blockpedia.sol\":3557:3871  for (uint i = paginas[indexPagina].versoes.length; i > 0; i--)\r... */\n      jump(tag_121)\n    tag_122:\n      pop\n        /* \"blockpedia.sol\":3934:3938  true */\n      0x01\n        /* \"blockpedia.sol\":3883:3890  paginas */\n      0x02\n        /* \"blockpedia.sol\":3891:3902  indexPagina */\n      dup4\n        /* \"blockpedia.sol\":3883:3903  paginas[indexPagina] */\n      dup2\n      sload\n      dup2\n      lt\n      tag_139\n      jumpi\n      mstore(0x00, 0x4e487b7100000000000000000000000000000000000000000000000000000000)\n      mstore(0x04, 0x32)\n      revert(0x00, 0x24)\n    tag_139:\n      swap1\n      0x00\n      mstore\n      keccak256(0x00, 0x20)\n      swap1\n      0x04\n      mul\n      add\n        /* \"blockpedia.sol\":3883:3911  paginas[indexPagina].versoes */\n      0x03\n      add\n        /* \"blockpedia.sol\":3912:3924  indexVersoes */\n      dup3\n        /* \"blockpedia.sol\":3883:3925  paginas[indexPagina].versoes[indexVersoes] */\n      dup2\n      sload\n      dup2\n      lt\n      tag_141\n      jumpi\n      mstore(0x00, 0x4e487b7100000000000000000000000000000000000000000000000000000000)\n      mstore(0x04, 0x32)\n      revert(0x00, 0x24)\n    tag_141:\n      swap1\n      0x00\n      mstore\n      keccak256(0x00, 0x20)\n      swap1\n      0x03\n      mul\n      add\n        /* \"blockpedia.sol\":3883:3931  paginas[indexPagina].versoes[indexVersoes].ativo */\n      0x00\n      add\n      0x00\n        /* \"blockpedia.sol\":3883:3938  paginas[indexPagina].versoes[indexVersoes].ativo = true */\n      0x0100\n      exp\n      dup2\n      sload\n      dup2\n      0xff\n      mul\n      not\n      and\n      swap1\n      dup4\n      iszero\n      iszero\n      mul\n      or\n      swap1\n      sstore\n      pop\n        /* \"blockpedia.sol\":2971:3946  function ativaVersaoPorIndexVersoesEIndexPaginas(uint indexPagina, uint indexVersoes) public\r... */\n    tag_100:\n      pop\n      pop\n      jump\t// out\n        /* \"blockpedia.sol\":113:137  bool public ativo = true */\n    tag_42:\n      0x00\n      dup1\n      sload\n      swap1\n      0x0100\n      exp\n      swap1\n      div\n      0xff\n      and\n      dup2\n      jump\t// out\n        /* \"blockpedia.sol\":4313:4767  function ativaPaginaPorIndexPaginas(uint indexPagina)public\r... */\n    tag_47:\n        /* \"blockpedia.sol\":4397:4402  ativo */\n      0x00\n      dup1\n      sload\n      swap1\n      0x0100\n      exp\n      swap1\n      div\n      0xff\n      and\n        /* \"blockpedia.sol\":4389:4474  require(ativo, \"A ativacao de paginas so e permitida quando a Blockpedia esta ativa\") */\n      tag_144\n      jumpi\n      mload(0x40)\n      0x08c379a000000000000000000000000000000000000000000000000000000000\n      dup2\n      mstore\n      0x04\n      add\n      tag_145\n      swap1\n      tag_146\n      jump\t// in\n    tag_145:\n      mload(0x40)\n      dup1\n      swap2\n      sub\n      swap1\n      revert\n    tag_144:\n        /* \"blockpedia.sol\":4507:4514  paginas */\n      0x02\n        /* \"blockpedia.sol\":4507:4521  paginas.length */\n      dup1\n      sload\n      swap1\n      pop\n        /* \"blockpedia.sol\":4493:4504  indexPagina */\n      dup2\n        /* \"blockpedia.sol\":4493:4521  indexPagina < paginas.length */\n      lt\n        /* \"blockpedia.sol\":4485:4558  require(indexPagina < paginas.length, \"Indice da pagina fora do alcance\") */\n      tag_147\n      jumpi\n      mload(0x40)\n      0x08c379a000000000000000000000000000000000000000000000000000000000\n      dup2\n      mstore\n      0x04\n      add\n      tag_148\n      swap1\n      tag_105\n      jump\t// in\n    tag_148:\n      mload(0x40)\n      dup1\n      swap2\n      sub\n      swap1\n      revert\n    tag_147:\n        /* \"blockpedia.sol\":4578:4624  existeTituloAtivo(paginas[indexPagina].titulo) */\n      tag_149\n        /* \"blockpedia.sol\":4596:4603  paginas */\n      0x02\n        /* \"blockpedia.sol\":4604:4615  indexPagina */\n      dup3\n        /* \"blockpedia.sol\":4596:4616  paginas[indexPagina] */\n      dup2\n      sload\n      dup2\n      lt\n      tag_150\n      jumpi\n      mstore(0x00, 0x4e487b7100000000000000000000000000000000000000000000000000000000)\n      mstore(0x04, 0x32)\n      revert(0x00, 0x24)\n    tag_150:\n      swap1\n      0x00\n      mstore\n      keccak256(0x00, 0x20)\n      swap1\n      0x04\n      mul\n      add\n        /* \"blockpedia.sol\":4596:4623  paginas[indexPagina].titulo */\n      0x02\n      add\n        /* \"blockpedia.sol\":4578:4624  existeTituloAtivo(paginas[indexPagina].titulo) */\n      dup1\n      sload\n      tag_152\n      swap1\n      tag_86\n      jump\t// in\n    tag_152:\n      dup1\n      0x1f\n      add\n      0x20\n      dup1\n      swap2\n      div\n      mul\n      0x20\n      add\n      mload(0x40)\n      swap1\n      dup2\n      add\n      0x40\n      mstore\n      dup1\n      swap3\n      swap2\n      swap1\n      dup2\n      dup2\n      mstore\n      0x20\n      add\n      dup3\n      dup1\n      sload\n      tag_153\n      swap1\n      tag_86\n      jump\t// in\n    tag_153:\n      dup1\n      iszero\n      tag_154\n      jumpi\n      dup1\n      0x1f\n      lt\n      tag_155\n      jumpi\n      0x0100\n      dup1\n      dup4\n      sload\n      div\n      mul\n      dup4\n      mstore\n      swap2\n      0x20\n      add\n      swap2\n      jump(tag_154)\n    tag_155:\n      dup3\n      add\n      swap2\n      swap1\n      0x00\n      mstore\n      keccak256(0x00, 0x20)\n      swap1\n    tag_156:\n      dup2\n      sload\n      dup2\n      mstore\n      swap1\n      0x01\n      add\n      swap1\n      0x20\n      add\n      dup1\n      dup4\n      gt\n      tag_156\n      jumpi\n      dup3\n      swap1\n      sub\n      0x1f\n      and\n      dup3\n      add\n      swap2\n    tag_154:\n      pop\n      pop\n      pop\n      pop\n      pop\n        /* \"blockpedia.sol\":4578:4595  existeTituloAtivo */\n      tag_69\n        /* \"blockpedia.sol\":4578:4624  existeTituloAtivo(paginas[indexPagina].titulo) */\n      jump\t// in\n    tag_149:\n        /* \"blockpedia.sol\":4577:4624  !existeTituloAtivo(paginas[indexPagina].titulo) */\n      iszero\n        /* \"blockpedia.sol\":4569:4667  require(!existeTituloAtivo(paginas[indexPagina].titulo), \"Ja existe pagina ativa com este titulo\") */\n      tag_157\n      jumpi\n      mload(0x40)\n      0x08c379a000000000000000000000000000000000000000000000000000000000\n      dup2\n      mstore\n      0x04\n      add\n      tag_158\n      swap1\n      tag_72\n      jump\t// in\n    tag_158:\n      mload(0x40)\n      dup1\n      swap2\n      sub\n      swap1\n      revert\n    tag_157:\n        /* \"blockpedia.sol\":4683:4690  paginas */\n      0x02\n        /* \"blockpedia.sol\":4691:4702  indexPagina */\n      dup2\n        /* \"blockpedia.sol\":4683:4703  paginas[indexPagina] */\n      dup2\n      sload\n      dup2\n      lt\n      tag_159\n      jumpi\n      mstore(0x00, 0x4e487b7100000000000000000000000000000000000000000000000000000000)\n      mstore(0x04, 0x32)\n      revert(0x00, 0x24)\n    tag_159:\n      swap1\n      0x00\n      mstore\n      keccak256(0x00, 0x20)\n      swap1\n      0x04\n      mul\n      add\n        /* \"blockpedia.sol\":4683:4709  paginas[indexPagina].ativo */\n      0x00\n      add\n      0x00\n      swap1\n      sload\n      swap1\n      0x0100\n      exp\n      swap1\n      div\n      0xff\n      and\n        /* \"blockpedia.sol\":4680:4718  if(paginas[indexPagina].ativo) return; */\n      iszero\n      tag_161\n      jumpi\n        /* \"blockpedia.sol\":4711:4718  return; */\n      jump(tag_143)\n        /* \"blockpedia.sol\":4680:4718  if(paginas[indexPagina].ativo) return; */\n    tag_161:\n        /* \"blockpedia.sol\":4755:4759  true */\n      0x01\n        /* \"blockpedia.sol\":4728:4735  paginas */\n      0x02\n        /* \"blockpedia.sol\":4736:4747  indexPagina */\n      dup3\n        /* \"blockpedia.sol\":4728:4748  paginas[indexPagina] */\n      dup2\n      sload\n      dup2\n      lt\n      tag_162\n      jumpi\n      mstore(0x00, 0x4e487b7100000000000000000000000000000000000000000000000000000000)\n      mstore(0x04, 0x32)\n      revert(0x00, 0x24)\n    tag_162:\n      swap1\n      0x00\n      mstore\n      keccak256(0x00, 0x20)\n      swap1\n      0x04\n      mul\n      add\n        /* \"blockpedia.sol\":4728:4754  paginas[indexPagina].ativo */\n      0x00\n      add\n      0x00\n        /* \"blockpedia.sol\":4728:4759  paginas[indexPagina].ativo=true */\n      0x0100\n      exp\n      dup2\n      sload\n      dup2\n      0xff\n      mul\n      not\n      and\n      swap1\n      dup4\n      iszero\n      iszero\n      mul\n      or\n      swap1\n      sstore\n      pop\n        /* \"blockpedia.sol\":4313:4767  function ativaPaginaPorIndexPaginas(uint indexPagina)public\r... */\n    tag_143:\n      pop\n      jump\t// out\n        /* \"blockpedia.sol\":2363:2963  function adicionaNovaVercaoDesativadaAPaginaPorIndexPaginas(uint index, string memory conteudo) public\r... */\n    tag_51:\n        /* \"blockpedia.sol\":2490:2495  ativo */\n      0x00\n      dup1\n      sload\n      swap1\n      0x0100\n      exp\n      swap1\n      div\n      0xff\n      and\n        /* \"blockpedia.sol\":2482:2571  require(ativo, \"A adicao de novas paginas so e permitida quando a Blockpedia esta ativa\") */\n      tag_165\n      jumpi\n      mload(0x40)\n      0x08c379a000000000000000000000000000000000000000000000000000000000\n      dup2\n      mstore\n      0x04\n      add\n      tag_166\n      swap1\n      tag_67\n      jump\t// in\n    tag_166:\n      mload(0x40)\n      dup1\n      swap2\n      sub\n      swap1\n      revert\n    tag_165:\n        /* \"blockpedia.sol\":2598:2605  paginas */\n      0x02\n        /* \"blockpedia.sol\":2598:2612  paginas.length */\n      dup1\n      sload\n      swap1\n      pop\n        /* \"blockpedia.sol\":2590:2595  index */\n      dup3\n        /* \"blockpedia.sol\":2590:2612  index < paginas.length */\n      lt\n        /* \"blockpedia.sol\":2582:2639  require(index < paginas.length, \"Indice fora do alcance\") */\n      tag_167\n      jumpi\n      mload(0x40)\n      0x08c379a000000000000000000000000000000000000000000000000000000000\n      dup2\n      mstore\n      0x04\n      add\n      tag_168\n      swap1\n      tag_81\n      jump\t// in\n    tag_168:\n      mload(0x40)\n      dup1\n      swap2\n      sub\n      swap1\n      revert\n    tag_167:\n        /* \"blockpedia.sol\":2658:2665  paginas */\n      0x02\n        /* \"blockpedia.sol\":2666:2671  index */\n      dup3\n        /* \"blockpedia.sol\":2658:2672  paginas[index] */\n      dup2\n      sload\n      dup2\n      lt\n      tag_169\n      jumpi\n      mstore(0x00, 0x4e487b7100000000000000000000000000000000000000000000000000000000)\n      mstore(0x04, 0x32)\n      revert(0x00, 0x24)\n    tag_169:\n      swap1\n      0x00\n      mstore\n      keccak256(0x00, 0x20)\n      swap1\n      0x04\n      mul\n      add\n        /* \"blockpedia.sol\":2658:2678  paginas[index].ativo */\n      0x00\n      add\n      0x00\n      swap1\n      sload\n      swap1\n      0x0100\n      exp\n      swap1\n      div\n      0xff\n      and\n        /* \"blockpedia.sol\":2650:2750  require(paginas[index].ativo, \"A adicao de novas vercoes so e permitida quando a pagina esta ativa\") */\n      tag_171\n      jumpi\n      mload(0x40)\n      0x08c379a000000000000000000000000000000000000000000000000000000000\n      dup2\n      mstore\n      0x04\n      add\n      tag_172\n      swap1\n      tag_173\n      jump\t// in\n    tag_172:\n      mload(0x40)\n      dup1\n      swap2\n      sub\n      swap1\n      revert\n    tag_171:\n        /* \"blockpedia.sol\":2771:2778  paginas */\n      0x02\n        /* \"blockpedia.sol\":2779:2784  index */\n      dup3\n        /* \"blockpedia.sol\":2771:2785  paginas[index] */\n      dup2\n      sload\n      dup2\n      lt\n      tag_174\n      jumpi\n      mstore(0x00, 0x4e487b7100000000000000000000000000000000000000000000000000000000)\n      mstore(0x04, 0x32)\n      revert(0x00, 0x24)\n    tag_174:\n      swap1\n      0x00\n      mstore\n      keccak256(0x00, 0x20)\n      swap1\n      0x04\n      mul\n      add\n        /* \"blockpedia.sol\":2771:2793  paginas[index].versoes */\n      0x03\n      add\n        /* \"blockpedia.sol\":2799:2954  Versao({\r... */\n      mload(0x40)\n      dup1\n      0x80\n      add\n      0x40\n      mstore\n      dup1\n        /* \"blockpedia.sol\":2828:2833  false */\n      0x00\n        /* \"blockpedia.sol\":2799:2954  Versao({\r... */\n      iszero\n      iszero\n      dup2\n      mstore\n      0x20\n      add\n        /* \"blockpedia.sol\":2855:2865  msg.sender */\n      caller\n        /* \"blockpedia.sol\":2799:2954  Versao({\r... */\n      0xffffffffffffffffffffffffffffffffffffffff\n      and\n      dup2\n      mstore\n      0x20\n      add\n        /* \"blockpedia.sol\":2894:2909  block.timestamp */\n      timestamp\n        /* \"blockpedia.sol\":2799:2954  Versao({\r... */\n      dup2\n      mstore\n      0x20\n      add\n        /* \"blockpedia.sol\":2934:2942  conteudo */\n      dup4\n        /* \"blockpedia.sol\":2799:2954  Versao({\r... */\n      dup2\n      mstore\n      pop\n        /* \"blockpedia.sol\":2771:2955  paginas[index].versoes.push(Versao({\r... */\n      swap1\n      dup1\n      0x01\n      dup2\n      sload\n      add\n      dup1\n      dup3\n      sstore\n      dup1\n      swap2\n      pop\n      pop\n      0x01\n      swap1\n      sub\n      swap1\n      0x00\n      mstore\n      keccak256(0x00, 0x20)\n      swap1\n      0x03\n      mul\n      add\n      0x00\n      swap1\n      swap2\n      swap1\n      swap2\n      swap1\n      swap2\n      pop\n      0x00\n      dup3\n      add\n      mload\n      dup2\n      0x00\n      add\n      exp(0x0100, 0x00)\n      dup2\n      sload\n      dup2\n      0xff\n      mul\n      not\n      and\n      swap1\n      dup4\n      iszero\n      iszero\n      mul\n      or\n      swap1\n      sstore\n      pop\n      0x20\n      dup3\n      add\n      mload\n      dup2\n      0x00\n      add\n      exp(0x0100, 0x01)\n      dup2\n      sload\n      dup2\n      0xffffffffffffffffffffffffffffffffffffffff\n      mul\n      not\n      and\n      swap1\n      dup4\n      0xffffffffffffffffffffffffffffffffffffffff\n      and\n      mul\n      or\n      swap1\n      sstore\n      pop\n      0x40\n      dup3\n      add\n      mload\n      dup2\n      0x01\n      add\n      sstore\n      0x60\n      dup3\n      add\n      mload\n      dup2\n      0x02\n      add\n      swap1\n      dup1\n      mload\n      swap1\n      0x20\n      add\n      swap1\n      tag_177\n      swap3\n      swap2\n      swap1\n      tag_75\n      jump\t// in\n    tag_177:\n      pop\n      pop\n      pop\n        /* \"blockpedia.sol\":2363:2963  function adicionaNovaVercaoDesativadaAPaginaPorIndexPaginas(uint index, string memory conteudo) public\r... */\n      pop\n      pop\n      jump\t// out\n        /* \"blockpedia.sol\":3954:4305  function desativaPaginaPorIndexPaginas(uint indexPagina)public\r... */\n    tag_54:\n        /* \"blockpedia.sol\":4041:4046  ativo */\n      0x00\n      dup1\n      sload\n      swap1\n      0x0100\n      exp\n      swap1\n      div\n      0xff\n      and\n        /* \"blockpedia.sol\":4033:4121  require(ativo, \"A desativacao de paginas so e permitida quando a Blockpedia esta ativa\") */\n      tag_179\n      jumpi\n      mload(0x40)\n      0x08c379a000000000000000000000000000000000000000000000000000000000\n      dup2\n      mstore\n      0x04\n      add\n      tag_180\n      swap1\n      tag_181\n      jump\t// in\n    tag_180:\n      mload(0x40)\n      dup1\n      swap2\n      sub\n      swap1\n      revert\n    tag_179:\n        /* \"blockpedia.sol\":4154:4161  paginas */\n      0x02\n        /* \"blockpedia.sol\":4154:4168  paginas.length */\n      dup1\n      sload\n      swap1\n      pop\n        /* \"blockpedia.sol\":4140:4151  indexPagina */\n      dup2\n        /* \"blockpedia.sol\":4140:4168  indexPagina < paginas.length */\n      lt\n        /* \"blockpedia.sol\":4132:4205  require(indexPagina < paginas.length, \"Indice da pagina fora do alcance\") */\n      tag_182\n      jumpi\n      mload(0x40)\n      0x08c379a000000000000000000000000000000000000000000000000000000000\n      dup2\n      mstore\n      0x04\n      add\n      tag_183\n      swap1\n      tag_105\n      jump\t// in\n    tag_183:\n      mload(0x40)\n      dup1\n      swap2\n      sub\n      swap1\n      revert\n    tag_182:\n        /* \"blockpedia.sol\":4220:4227  paginas */\n      0x02\n        /* \"blockpedia.sol\":4228:4239  indexPagina */\n      dup2\n        /* \"blockpedia.sol\":4220:4240  paginas[indexPagina] */\n      dup2\n      sload\n      dup2\n      lt\n      tag_184\n      jumpi\n      mstore(0x00, 0x4e487b7100000000000000000000000000000000000000000000000000000000)\n      mstore(0x04, 0x32)\n      revert(0x00, 0x24)\n    tag_184:\n      swap1\n      0x00\n      mstore\n      keccak256(0x00, 0x20)\n      swap1\n      0x04\n      mul\n      add\n        /* \"blockpedia.sol\":4220:4246  paginas[indexPagina].ativo */\n      0x00\n      add\n      0x00\n      swap1\n      sload\n      swap1\n      0x0100\n      exp\n      swap1\n      div\n      0xff\n      and\n        /* \"blockpedia.sol\":4216:4255  if(!paginas[indexPagina].ativo) return; */\n      tag_186\n      jumpi\n        /* \"blockpedia.sol\":4248:4255  return; */\n      jump(tag_178)\n        /* \"blockpedia.sol\":4216:4255  if(!paginas[indexPagina].ativo) return; */\n    tag_186:\n        /* \"blockpedia.sol\":4292:4297  false */\n      0x00\n        /* \"blockpedia.sol\":4265:4272  paginas */\n      0x02\n        /* \"blockpedia.sol\":4273:4284  indexPagina */\n      dup3\n        /* \"blockpedia.sol\":4265:4285  paginas[indexPagina] */\n      dup2\n      sload\n      dup2\n      lt\n      tag_187\n      jumpi\n      mstore(0x00, 0x4e487b7100000000000000000000000000000000000000000000000000000000)\n      mstore(0x04, 0x32)\n      revert(0x00, 0x24)\n    tag_187:\n      swap1\n      0x00\n      mstore\n      keccak256(0x00, 0x20)\n      swap1\n      0x04\n      mul\n      add\n        /* \"blockpedia.sol\":4265:4291  paginas[indexPagina].ativo */\n      0x00\n      add\n      0x00\n        /* \"blockpedia.sol\":4265:4297  paginas[indexPagina].ativo=false */\n      0x0100\n      exp\n      dup2\n      sload\n      dup2\n      0xff\n      mul\n      not\n      and\n      swap1\n      dup4\n      iszero\n      iszero\n      mul\n      or\n      swap1\n      sstore\n      pop\n        /* \"blockpedia.sol\":3954:4305  function desativaPaginaPorIndexPaginas(uint indexPagina)public\r... */\n    tag_178:\n      pop\n      jump\t// out\n        /* \"blockpedia.sol\":224:247  Pagina[] public paginas */\n    tag_57:\n      0x02\n      dup2\n      dup2\n      sload\n      dup2\n      lt\n      tag_189\n      jumpi\n      0x00\n      dup1\n      revert\n    tag_189:\n      swap1\n      0x00\n      mstore\n      keccak256(0x00, 0x20)\n      swap1\n      0x04\n      mul\n      add\n      0x00\n      swap2\n      pop\n      swap1\n      pop\n      dup1\n      0x00\n      add\n      0x00\n      swap1\n      sload\n      swap1\n      0x0100\n      exp\n      swap1\n      div\n      0xff\n      and\n      swap1\n      dup1\n      0x00\n      add\n      0x01\n      swap1\n      sload\n      swap1\n      0x0100\n      exp\n      swap1\n      div\n      0xffffffffffffffffffffffffffffffffffffffff\n      and\n      swap1\n      dup1\n      0x01\n      add\n      sload\n      swap1\n      dup1\n      0x02\n      add\n      dup1\n      sload\n      tag_191\n      swap1\n      tag_86\n      jump\t// in\n    tag_191:\n      dup1\n      0x1f\n      add\n      0x20\n      dup1\n      swap2\n      div\n      mul\n      0x20\n      add\n      mload(0x40)\n      swap1\n      dup2\n      add\n      0x40\n      mstore\n      dup1\n      swap3\n      swap2\n      swap1\n      dup2\n      dup2\n      mstore\n      0x20\n      add\n      dup3\n      dup1\n      sload\n      tag_192\n      swap1\n      tag_86\n      jump\t// in\n    tag_192:\n      dup1\n      iszero\n      tag_193\n      jumpi\n      dup1\n      0x1f\n      lt\n      tag_194\n      jumpi\n      0x0100\n      dup1\n      dup4\n      sload\n      div\n      mul\n      dup4\n      mstore\n      swap2\n      0x20\n      add\n      swap2\n      jump(tag_193)\n    tag_194:\n      dup3\n      add\n      swap2\n      swap1\n      0x00\n      mstore\n      keccak256(0x00, 0x20)\n      swap1\n    tag_195:\n      dup2\n      sload\n      dup2\n      mstore\n      swap1\n      0x01\n      add\n      swap1\n      0x20\n      add\n      dup1\n      dup4\n      gt\n      tag_195\n      jumpi\n      dup3\n      swap1\n      sub\n      0x1f\n      and\n      dup3\n      add\n      swap2\n    tag_193:\n      pop\n      pop\n      pop\n      pop\n      pop\n      swap1\n      pop\n      dup5\n      jump\t// out\n        /* \"blockpedia.sol\":1198:1765  function existeTituloAtivo(string memory titulo) internal view returns (bool)\r... */\n    tag_69:\n        /* \"blockpedia.sol\":1270:1274  bool */\n      0x00\n        /* \"blockpedia.sol\":1521:1527  uint i */\n      dup1\n        /* \"blockpedia.sol\":1530:1531  0 */\n      0x00\n        /* \"blockpedia.sol\":1521:1531  uint i = 0 */\n      swap1\n      pop\n        /* \"blockpedia.sol\":1516:1735  for (uint i = 0; i < paginas.length; i++)\r... */\n    tag_197:\n        /* \"blockpedia.sol\":1537:1544  paginas */\n      0x02\n        /* \"blockpedia.sol\":1537:1551  paginas.length */\n      dup1\n      sload\n      swap1\n      pop\n        /* \"blockpedia.sol\":1533:1534  i */\n      dup2\n        /* \"blockpedia.sol\":1533:1551  i < paginas.length */\n      lt\n        /* \"blockpedia.sol\":1516:1735  for (uint i = 0; i < paginas.length; i++)\r... */\n      iszero\n      tag_198\n      jumpi\n        /* \"blockpedia.sol\":1586:1593  paginas */\n      0x02\n        /* \"blockpedia.sol\":1594:1595  i */\n      dup2\n        /* \"blockpedia.sol\":1586:1596  paginas[i] */\n      dup2\n      sload\n      dup2\n      lt\n      tag_200\n      jumpi\n      mstore(0x00, 0x4e487b7100000000000000000000000000000000000000000000000000000000)\n      mstore(0x04, 0x32)\n      revert(0x00, 0x24)\n    tag_200:\n      swap1\n      0x00\n      mstore\n      keccak256(0x00, 0x20)\n      swap1\n      0x04\n      mul\n      add\n        /* \"blockpedia.sol\":1586:1602  paginas[i].ativo */\n      0x00\n      add\n      0x00\n      swap1\n      sload\n      swap1\n      0x0100\n      exp\n      swap1\n      div\n      0xff\n      and\n        /* \"blockpedia.sol\":1582:1723  if (paginas[i].ativo)\r... */\n      iszero\n      tag_202\n      jumpi\n        /* \"blockpedia.sol\":1702:1708  titulo */\n      dup3\n        /* \"blockpedia.sol\":1685:1709  abi.encodePacked(titulo) */\n      add(0x20, mload(0x40))\n      tag_203\n      swap2\n      swap1\n      tag_204\n      jump\t// in\n    tag_203:\n      mload(0x40)\n      0x20\n      dup2\n      dup4\n      sub\n      sub\n      dup2\n      mstore\n      swap1\n      0x40\n      mstore\n        /* \"blockpedia.sol\":1675:1710  keccak256(abi.encodePacked(titulo)) */\n      dup1\n      mload\n      swap1\n      0x20\n      add\n      keccak256\n        /* \"blockpedia.sol\":1652:1659  paginas */\n      0x02\n        /* \"blockpedia.sol\":1660:1661  i */\n      dup3\n        /* \"blockpedia.sol\":1652:1662  paginas[i] */\n      dup2\n      sload\n      dup2\n      lt\n      tag_205\n      jumpi\n      mstore(0x00, 0x4e487b7100000000000000000000000000000000000000000000000000000000)\n      mstore(0x04, 0x32)\n      revert(0x00, 0x24)\n    tag_205:\n      swap1\n      0x00\n      mstore\n      keccak256(0x00, 0x20)\n      swap1\n      0x04\n      mul\n      add\n        /* \"blockpedia.sol\":1652:1669  paginas[i].titulo */\n      0x02\n      add\n        /* \"blockpedia.sol\":1635:1670  abi.encodePacked(paginas[i].titulo) */\n      add(0x20, mload(0x40))\n      tag_207\n      swap2\n      swap1\n      tag_208\n      jump\t// in\n    tag_207:\n      mload(0x40)\n      0x20\n      dup2\n      dup4\n      sub\n      sub\n      dup2\n      mstore\n      swap1\n      0x40\n      mstore\n        /* \"blockpedia.sol\":1625:1671  keccak256(abi.encodePacked(paginas[i].titulo)) */\n      dup1\n      mload\n      swap1\n      0x20\n      add\n      keccak256\n        /* \"blockpedia.sol\":1625:1710  keccak256(abi.encodePacked(paginas[i].titulo)) == keccak256(abi.encodePacked(titulo)) */\n      eq\n        /* \"blockpedia.sol\":1621:1723  if (keccak256(abi.encodePacked(paginas[i].titulo)) == keccak256(abi.encodePacked(titulo))) return true */\n      iszero\n      tag_209\n      jumpi\n        /* \"blockpedia.sol\":1719:1723  true */\n      0x01\n        /* \"blockpedia.sol\":1712:1723  return true */\n      swap2\n      pop\n      pop\n      jump(tag_196)\n        /* \"blockpedia.sol\":1621:1723  if (keccak256(abi.encodePacked(paginas[i].titulo)) == keccak256(abi.encodePacked(titulo))) return true */\n    tag_209:\n        /* \"blockpedia.sol\":1582:1723  if (paginas[i].ativo)\r... */\n    tag_202:\n        /* \"blockpedia.sol\":1553:1556  i++ */\n      dup1\n      dup1\n      tag_210\n      swap1\n      tag_211\n      jump\t// in\n    tag_210:\n      swap2\n      pop\n      pop\n        /* \"blockpedia.sol\":1516:1735  for (uint i = 0; i < paginas.length; i++)\r... */\n      jump(tag_197)\n    tag_198:\n      pop\n        /* \"blockpedia.sol\":1752:1757  false */\n      0x00\n        /* \"blockpedia.sol\":1745:1757  return false */\n      swap1\n      pop\n        /* \"blockpedia.sol\":1198:1765  function existeTituloAtivo(string memory titulo) internal view returns (bool)\r... */\n    tag_196:\n      swap2\n      swap1\n      pop\n      jump\t// out\n        /* \"blockpedia.sol\":2032:2355  function getVersaoValidaDeUmaPagina(Pagina memory pagina)internal pure returns (Versao memory)\r... */\n    tag_99:\n        /* \"blockpedia.sol\":2112:2125  Versao memory */\n      tag_212\n      tag_213\n      jump\t// in\n    tag_212:\n        /* \"blockpedia.sol\":2147:2153  uint i */\n      0x00\n        /* \"blockpedia.sol\":2143:2279  for(uint i = 0; i < pagina.versoes.length; i++)\r... */\n    tag_215:\n        /* \"blockpedia.sol\":2163:2169  pagina */\n      dup3\n        /* \"blockpedia.sol\":2163:2177  pagina.versoes */\n      0x80\n      add\n      mload\n        /* \"blockpedia.sol\":2163:2184  pagina.versoes.length */\n      mload\n        /* \"blockpedia.sol\":2159:2160  i */\n      dup2\n        /* \"blockpedia.sol\":2159:2184  i < pagina.versoes.length */\n      lt\n        /* \"blockpedia.sol\":2143:2279  for(uint i = 0; i < pagina.versoes.length; i++)\r... */\n      iszero\n      tag_216\n      jumpi\n        /* \"blockpedia.sol\":2218:2224  pagina */\n      dup3\n        /* \"blockpedia.sol\":2218:2232  pagina.versoes */\n      0x80\n      add\n      mload\n        /* \"blockpedia.sol\":2233:2234  i */\n      dup2\n        /* \"blockpedia.sol\":2218:2235  pagina.versoes[i] */\n      dup2\n      mload\n      dup2\n      lt\n      tag_218\n      jumpi\n      mstore(0x00, 0x4e487b7100000000000000000000000000000000000000000000000000000000)\n      mstore(0x04, 0x32)\n      revert(0x00, 0x24)\n    tag_218:\n      0x20\n      mul\n      0x20\n      add\n      add\n      mload\n        /* \"blockpedia.sol\":2218:2241  pagina.versoes[i].ativo */\n      0x00\n      add\n      mload\n        /* \"blockpedia.sol\":2215:2267  if(pagina.versoes[i].ativo) return pagina.versoes[i] */\n      iszero\n      tag_219\n      jumpi\n        /* \"blockpedia.sol\":2250:2256  pagina */\n      dup3\n        /* \"blockpedia.sol\":2250:2264  pagina.versoes */\n      0x80\n      add\n      mload\n        /* \"blockpedia.sol\":2265:2266  i */\n      dup2\n        /* \"blockpedia.sol\":2250:2267  pagina.versoes[i] */\n      dup2\n      mload\n      dup2\n      lt\n      tag_220\n      jumpi\n      mstore(0x00, 0x4e487b7100000000000000000000000000000000000000000000000000000000)\n      mstore(0x04, 0x32)\n      revert(0x00, 0x24)\n    tag_220:\n      0x20\n      mul\n      0x20\n      add\n      add\n      mload\n        /* \"blockpedia.sol\":2243:2267  return pagina.versoes[i] */\n      swap2\n      pop\n      pop\n      jump(tag_214)\n        /* \"blockpedia.sol\":2215:2267  if(pagina.versoes[i].ativo) return pagina.versoes[i] */\n    tag_219:\n        /* \"blockpedia.sol\":2186:2189  i++ */\n      dup1\n      dup1\n      tag_221\n      swap1\n      tag_211\n      jump\t// in\n    tag_221:\n      swap2\n      pop\n      pop\n        /* \"blockpedia.sol\":2143:2279  for(uint i = 0; i < pagina.versoes.length; i++)\r... */\n      jump(tag_215)\n    tag_216:\n      pop\n        /* \"blockpedia.sol\":2289:2347  revert(\"Nenhuma vercao ativa encontrada para esta pagina\") */\n      mload(0x40)\n      0x08c379a000000000000000000000000000000000000000000000000000000000\n      dup2\n      mstore\n      0x04\n      add\n      tag_222\n      swap1\n      tag_223\n      jump\t// in\n    tag_222:\n      mload(0x40)\n      dup1\n      swap2\n      sub\n      swap1\n      revert\n        /* \"blockpedia.sol\":2032:2355  function getVersaoValidaDeUmaPagina(Pagina memory pagina)internal pure returns (Versao memory)\r... */\n    tag_214:\n      swap2\n      swap1\n      pop\n      jump\t// out\n    tag_75:\n      dup3\n      dup1\n      sload\n      tag_224\n      swap1\n      tag_86\n      jump\t// in\n    tag_224:\n      swap1\n      0x00\n      mstore\n      keccak256(0x00, 0x20)\n      swap1\n      0x1f\n      add\n      0x20\n      swap1\n      div\n      dup2\n      add\n      swap3\n      dup3\n      tag_226\n      jumpi\n      0x00\n      dup6\n      sstore\n      jump(tag_225)\n    tag_226:\n      dup3\n      0x1f\n      lt\n      tag_227\n      jumpi\n      dup1\n      mload\n      not(0xff)\n      and\n      dup4\n      dup1\n      add\n      or\n      dup6\n      sstore\n      jump(tag_225)\n    tag_227:\n      dup3\n      dup1\n      add\n      0x01\n      add\n      dup6\n      sstore\n      dup3\n      iszero\n      tag_225\n      jumpi\n      swap2\n      dup3\n      add\n    tag_228:\n      dup3\n      dup2\n      gt\n      iszero\n      tag_229\n      jumpi\n      dup3\n      mload\n      dup3\n      sstore\n      swap2\n      0x20\n      add\n      swap2\n      swap1\n      0x01\n      add\n      swap1\n      jump(tag_228)\n    tag_229:\n    tag_225:\n      pop\n      swap1\n      pop\n      tag_230\n      swap2\n      swap1\n      tag_231\n      jump\t// in\n    tag_230:\n      pop\n      swap1\n      jump\t// out\n    tag_213:\n      mload(0x40)\n      dup1\n      0x80\n      add\n      0x40\n      mstore\n      dup1\n      iszero(iszero(0x00))\n      dup2\n      mstore\n      0x20\n      add\n      and(0xffffffffffffffffffffffffffffffffffffffff, 0x00)\n      dup2\n      mstore\n      0x20\n      add\n      0x00\n      dup2\n      mstore\n      0x20\n      add\n      0x60\n      dup2\n      mstore\n      pop\n      swap1\n      jump\t// out\n    tag_231:\n    tag_232:\n      dup1\n      dup3\n      gt\n      iszero\n      tag_233\n      jumpi\n      0x00\n      dup2\n      0x00\n      swap1\n      sstore\n      pop\n      0x01\n      add\n      jump(tag_232)\n    tag_233:\n      pop\n      swap1\n      jump\t// out\n        /* \"#utility.yul\":7:351   */\n    tag_235:\n      0x00\n        /* \"#utility.yul\":110:175   */\n      tag_237\n        /* \"#utility.yul\":125:174   */\n      tag_238\n        /* \"#utility.yul\":167:173   */\n      dup5\n        /* \"#utility.yul\":125:174   */\n      tag_239\n      jump\t// in\n    tag_238:\n        /* \"#utility.yul\":110:175   */\n      tag_240\n      jump\t// in\n    tag_237:\n        /* \"#utility.yul\":101:175   */\n      swap1\n      pop\n        /* \"#utility.yul\":198:204   */\n      dup3\n        /* \"#utility.yul\":191:196   */\n      dup2\n        /* \"#utility.yul\":184:205   */\n      mstore\n        /* \"#utility.yul\":236:240   */\n      0x20\n        /* \"#utility.yul\":229:234   */\n      dup2\n        /* \"#utility.yul\":225:241   */\n      add\n        /* \"#utility.yul\":274:277   */\n      dup5\n        /* \"#utility.yul\":265:271   */\n      dup5\n        /* \"#utility.yul\":260:263   */\n      dup5\n        /* \"#utility.yul\":256:272   */\n      add\n        /* \"#utility.yul\":253:278   */\n      gt\n        /* \"#utility.yul\":250:252   */\n      iszero\n      tag_241\n      jumpi\n        /* \"#utility.yul\":291:292   */\n      0x00\n        /* \"#utility.yul\":288:289   */\n      dup1\n        /* \"#utility.yul\":281:293   */\n      revert\n        /* \"#utility.yul\":250:252   */\n    tag_241:\n        /* \"#utility.yul\":304:345   */\n      tag_242\n        /* \"#utility.yul\":338:344   */\n      dup5\n        /* \"#utility.yul\":333:336   */\n      dup3\n        /* \"#utility.yul\":328:331   */\n      dup6\n        /* \"#utility.yul\":304:345   */\n      tag_243\n      jump\t// in\n    tag_242:\n        /* \"#utility.yul\":91:351   */\n      pop\n      swap4\n      swap3\n      pop\n      pop\n      pop\n      jump\t// out\n        /* \"#utility.yul\":357:490   */\n    tag_244:\n      0x00\n        /* \"#utility.yul\":438:444   */\n      dup2\n        /* \"#utility.yul\":425:445   */\n      calldataload\n        /* \"#utility.yul\":416:445   */\n      swap1\n      pop\n        /* \"#utility.yul\":454:484   */\n      tag_246\n        /* \"#utility.yul\":478:483   */\n      dup2\n        /* \"#utility.yul\":454:484   */\n      tag_247\n      jump\t// in\n    tag_246:\n        /* \"#utility.yul\":406:490   */\n      swap3\n      swap2\n      pop\n      pop\n      jump\t// out\n        /* \"#utility.yul\":510:783   */\n    tag_248:\n      0x00\n        /* \"#utility.yul\":615:618   */\n      dup3\n        /* \"#utility.yul\":608:612   */\n      0x1f\n        /* \"#utility.yul\":600:606   */\n      dup4\n        /* \"#utility.yul\":596:613   */\n      add\n        /* \"#utility.yul\":592:619   */\n      slt\n        /* \"#utility.yul\":582:584   */\n      tag_250\n      jumpi\n        /* \"#utility.yul\":633:634   */\n      0x00\n        /* \"#utility.yul\":630:631   */\n      dup1\n        /* \"#utility.yul\":623:635   */\n      revert\n        /* \"#utility.yul\":582:584   */\n    tag_250:\n        /* \"#utility.yul\":673:679   */\n      dup2\n        /* \"#utility.yul\":660:680   */\n      calldataload\n        /* \"#utility.yul\":698:777   */\n      tag_251\n        /* \"#utility.yul\":773:776   */\n      dup5\n        /* \"#utility.yul\":765:771   */\n      dup3\n        /* \"#utility.yul\":758:762   */\n      0x20\n        /* \"#utility.yul\":750:756   */\n      dup7\n        /* \"#utility.yul\":746:763   */\n      add\n        /* \"#utility.yul\":698:777   */\n      tag_235\n      jump\t// in\n    tag_251:\n        /* \"#utility.yul\":689:777   */\n      swap2\n      pop\n        /* \"#utility.yul\":572:783   */\n      pop\n      swap3\n      swap2\n      pop\n      pop\n      jump\t// out\n        /* \"#utility.yul\":789:928   */\n    tag_252:\n      0x00\n        /* \"#utility.yul\":873:879   */\n      dup2\n        /* \"#utility.yul\":860:880   */\n      calldataload\n        /* \"#utility.yul\":851:880   */\n      swap1\n      pop\n        /* \"#utility.yul\":889:922   */\n      tag_254\n        /* \"#utility.yul\":916:921   */\n      dup2\n        /* \"#utility.yul\":889:922   */\n      tag_255\n      jump\t// in\n    tag_254:\n        /* \"#utility.yul\":841:928   */\n      swap3\n      swap2\n      pop\n      pop\n      jump\t// out\n        /* \"#utility.yul\":934:1190   */\n    tag_21:\n      0x00\n        /* \"#utility.yul\":1039:1041   */\n      0x20\n        /* \"#utility.yul\":1027:1036   */\n      dup3\n        /* \"#utility.yul\":1018:1025   */\n      dup5\n        /* \"#utility.yul\":1014:1037   */\n      sub\n        /* \"#utility.yul\":1010:1042   */\n      slt\n        /* \"#utility.yul\":1007:1009   */\n      iszero\n      tag_257\n      jumpi\n        /* \"#utility.yul\":1055:1056   */\n      0x00\n        /* \"#utility.yul\":1052:1053   */\n      dup1\n        /* \"#utility.yul\":1045:1057   */\n      revert\n        /* \"#utility.yul\":1007:1009   */\n    tag_257:\n        /* \"#utility.yul\":1098:1099   */\n      0x00\n        /* \"#utility.yul\":1123:1173   */\n      tag_258\n        /* \"#utility.yul\":1165:1172   */\n      dup5\n        /* \"#utility.yul\":1156:1162   */\n      dup3\n        /* \"#utility.yul\":1145:1154   */\n      dup6\n        /* \"#utility.yul\":1141:1163   */\n      add\n        /* \"#utility.yul\":1123:1173   */\n      tag_244\n      jump\t// in\n    tag_258:\n        /* \"#utility.yul\":1113:1173   */\n      swap2\n      pop\n        /* \"#utility.yul\":1069:1183   */\n      pop\n        /* \"#utility.yul\":997:1190   */\n      swap3\n      swap2\n      pop\n      pop\n      jump\t// out\n        /* \"#utility.yul\":1196:1829   */\n    tag_25:\n      0x00\n      dup1\n        /* \"#utility.yul\":1341:1343   */\n      0x40\n        /* \"#utility.yul\":1329:1338   */\n      dup4\n        /* \"#utility.yul\":1320:1327   */\n      dup6\n        /* \"#utility.yul\":1316:1339   */\n      sub\n        /* \"#utility.yul\":1312:1344   */\n      slt\n        /* \"#utility.yul\":1309:1311   */\n      iszero\n      tag_260\n      jumpi\n        /* \"#utility.yul\":1357:1358   */\n      0x00\n        /* \"#utility.yul\":1354:1355   */\n      dup1\n        /* \"#utility.yul\":1347:1359   */\n      revert\n        /* \"#utility.yul\":1309:1311   */\n    tag_260:\n        /* \"#utility.yul\":1428:1429   */\n      0x00\n        /* \"#utility.yul\":1417:1426   */\n      dup4\n        /* \"#utility.yul\":1413:1430   */\n      add\n        /* \"#utility.yul\":1400:1431   */\n      calldataload\n        /* \"#utility.yul\":1458:1476   */\n      0xffffffffffffffff\n        /* \"#utility.yul\":1450:1456   */\n      dup2\n        /* \"#utility.yul\":1447:1477   */\n      gt\n        /* \"#utility.yul\":1444:1446   */\n      iszero\n      tag_261\n      jumpi\n        /* \"#utility.yul\":1490:1491   */\n      0x00\n        /* \"#utility.yul\":1487:1488   */\n      dup1\n        /* \"#utility.yul\":1480:1492   */\n      revert\n        /* \"#utility.yul\":1444:1446   */\n    tag_261:\n        /* \"#utility.yul\":1518:1581   */\n      tag_262\n        /* \"#utility.yul\":1573:1580   */\n      dup6\n        /* \"#utility.yul\":1564:1570   */\n      dup3\n        /* \"#utility.yul\":1553:1562   */\n      dup7\n        /* \"#utility.yul\":1549:1571   */\n      add\n        /* \"#utility.yul\":1518:1581   */\n      tag_248\n      jump\t// in\n    tag_262:\n        /* \"#utility.yul\":1508:1581   */\n      swap3\n      pop\n        /* \"#utility.yul\":1371:1591   */\n      pop\n        /* \"#utility.yul\":1658:1660   */\n      0x20\n        /* \"#utility.yul\":1647:1656   */\n      dup4\n        /* \"#utility.yul\":1643:1661   */\n      add\n        /* \"#utility.yul\":1630:1662   */\n      calldataload\n        /* \"#utility.yul\":1689:1707   */\n      0xffffffffffffffff\n        /* \"#utility.yul\":1681:1687   */\n      dup2\n        /* \"#utility.yul\":1678:1708   */\n      gt\n        /* \"#utility.yul\":1675:1677   */\n      iszero\n      tag_263\n      jumpi\n        /* \"#utility.yul\":1721:1722   */\n      0x00\n        /* \"#utility.yul\":1718:1719   */\n      dup1\n        /* \"#utility.yul\":1711:1723   */\n      revert\n        /* \"#utility.yul\":1675:1677   */\n    tag_263:\n        /* \"#utility.yul\":1749:1812   */\n      tag_264\n        /* \"#utility.yul\":1804:1811   */\n      dup6\n        /* \"#utility.yul\":1795:1801   */\n      dup3\n        /* \"#utility.yul\":1784:1793   */\n      dup7\n        /* \"#utility.yul\":1780:1802   */\n      add\n        /* \"#utility.yul\":1749:1812   */\n      tag_248\n      jump\t// in\n    tag_264:\n        /* \"#utility.yul\":1739:1812   */\n      swap2\n      pop\n        /* \"#utility.yul\":1601:1822   */\n      pop\n        /* \"#utility.yul\":1299:1829   */\n      swap3\n      pop\n      swap3\n      swap1\n      pop\n      jump\t// out\n        /* \"#utility.yul\":1835:2097   */\n    tag_29:\n      0x00\n        /* \"#utility.yul\":1943:1945   */\n      0x20\n        /* \"#utility.yul\":1931:1940   */\n      dup3\n        /* \"#utility.yul\":1922:1929   */\n      dup5\n        /* \"#utility.yul\":1918:1941   */\n      sub\n        /* \"#utility.yul\":1914:1946   */\n      slt\n        /* \"#utility.yul\":1911:1913   */\n      iszero\n      tag_266\n      jumpi\n        /* \"#utility.yul\":1959:1960   */\n      0x00\n        /* \"#utility.yul\":1956:1957   */\n      dup1\n        /* \"#utility.yul\":1949:1961   */\n      revert\n        /* \"#utility.yul\":1911:1913   */\n    tag_266:\n        /* \"#utility.yul\":2002:2003   */\n      0x00\n        /* \"#utility.yul\":2027:2080   */\n      tag_267\n        /* \"#utility.yul\":2072:2079   */\n      dup5\n        /* \"#utility.yul\":2063:2069   */\n      dup3\n        /* \"#utility.yul\":2052:2061   */\n      dup6\n        /* \"#utility.yul\":2048:2070   */\n      add\n        /* \"#utility.yul\":2027:2080   */\n      tag_252\n      jump\t// in\n    tag_267:\n        /* \"#utility.yul\":2017:2080   */\n      swap2\n      pop\n        /* \"#utility.yul\":1973:2090   */\n      pop\n        /* \"#utility.yul\":1901:2097   */\n      swap3\n      swap2\n      pop\n      pop\n      jump\t// out\n        /* \"#utility.yul\":2103:2623   */\n    tag_50:\n      0x00\n      dup1\n        /* \"#utility.yul\":2238:2240   */\n      0x40\n        /* \"#utility.yul\":2226:2235   */\n      dup4\n        /* \"#utility.yul\":2217:2224   */\n      dup6\n        /* \"#utility.yul\":2213:2236   */\n      sub\n        /* \"#utility.yul\":2209:2241   */\n      slt\n        /* \"#utility.yul\":2206:2208   */\n      iszero\n      tag_269\n      jumpi\n        /* \"#utility.yul\":2254:2255   */\n      0x00\n        /* \"#utility.yul\":2251:2252   */\n      dup1\n        /* \"#utility.yul\":2244:2256   */\n      revert\n        /* \"#utility.yul\":2206:2208   */\n    tag_269:\n        /* \"#utility.yul\":2297:2298   */\n      0x00\n        /* \"#utility.yul\":2322:2375   */\n      tag_270\n        /* \"#utility.yul\":2367:2374   */\n      dup6\n        /* \"#utility.yul\":2358:2364   */\n      dup3\n        /* \"#utility.yul\":2347:2356   */\n      dup7\n        /* \"#utility.yul\":2343:2365   */\n      add\n        /* \"#utility.yul\":2322:2375   */\n      tag_252\n      jump\t// in\n    tag_270:\n        /* \"#utility.yul\":2312:2375   */\n      swap3\n      pop\n        /* \"#utility.yul\":2268:2385   */\n      pop\n        /* \"#utility.yul\":2452:2454   */\n      0x20\n        /* \"#utility.yul\":2441:2450   */\n      dup4\n        /* \"#utility.yul\":2437:2455   */\n      add\n        /* \"#utility.yul\":2424:2456   */\n      calldataload\n        /* \"#utility.yul\":2483:2501   */\n      0xffffffffffffffff\n        /* \"#utility.yul\":2475:2481   */\n      dup2\n        /* \"#utility.yul\":2472:2502   */\n      gt\n        /* \"#utility.yul\":2469:2471   */\n      iszero\n      tag_271\n      jumpi\n        /* \"#utility.yul\":2515:2516   */\n      0x00\n        /* \"#utility.yul\":2512:2513   */\n      dup1\n        /* \"#utility.yul\":2505:2517   */\n      revert\n        /* \"#utility.yul\":2469:2471   */\n    tag_271:\n        /* \"#utility.yul\":2543:2606   */\n      tag_272\n        /* \"#utility.yul\":2598:2605   */\n      dup6\n        /* \"#utility.yul\":2589:2595   */\n      dup3\n        /* \"#utility.yul\":2578:2587   */\n      dup7\n        /* \"#utility.yul\":2574:2596   */\n      add\n        /* \"#utility.yul\":2543:2606   */\n      tag_248\n      jump\t// in\n    tag_272:\n        /* \"#utility.yul\":2533:2606   */\n      swap2\n      pop\n        /* \"#utility.yul\":2395:2616   */\n      pop\n        /* \"#utility.yul\":2196:2623   */\n      swap3\n      pop\n      swap3\n      swap1\n      pop\n      jump\t// out\n        /* \"#utility.yul\":2629:3036   */\n    tag_39:\n      0x00\n      dup1\n        /* \"#utility.yul\":2754:2756   */\n      0x40\n        /* \"#utility.yul\":2742:2751   */\n      dup4\n        /* \"#utility.yul\":2733:2740   */\n      dup6\n        /* \"#utility.yul\":2729:2752   */\n      sub\n        /* \"#utility.yul\":2725:2757   */\n      slt\n        /* \"#utility.yul\":2722:2724   */\n      iszero\n      tag_274\n      jumpi\n        /* \"#utility.yul\":2770:2771   */\n      0x00\n        /* \"#utility.yul\":2767:2768   */\n      dup1\n        /* \"#utility.yul\":2760:2772   */\n      revert\n        /* \"#utility.yul\":2722:2724   */\n    tag_274:\n        /* \"#utility.yul\":2813:2814   */\n      0x00\n        /* \"#utility.yul\":2838:2891   */\n      tag_275\n        /* \"#utility.yul\":2883:2890   */\n      dup6\n        /* \"#utility.yul\":2874:2880   */\n      dup3\n        /* \"#utility.yul\":2863:2872   */\n      dup7\n        /* \"#utility.yul\":2859:2881   */\n      add\n        /* \"#utility.yul\":2838:2891   */\n      tag_252\n      jump\t// in\n    tag_275:\n        /* \"#utility.yul\":2828:2891   */\n      swap3\n      pop\n        /* \"#utility.yul\":2784:2901   */\n      pop\n        /* \"#utility.yul\":2940:2942   */\n      0x20\n        /* \"#utility.yul\":2966:3019   */\n      tag_276\n        /* \"#utility.yul\":3011:3018   */\n      dup6\n        /* \"#utility.yul\":3002:3008   */\n      dup3\n        /* \"#utility.yul\":2991:3000   */\n      dup7\n        /* \"#utility.yul\":2987:3009   */\n      add\n        /* \"#utility.yul\":2966:3019   */\n      tag_252\n      jump\t// in\n    tag_276:\n        /* \"#utility.yul\":2956:3019   */\n      swap2\n      pop\n        /* \"#utility.yul\":2911:3029   */\n      pop\n        /* \"#utility.yul\":2712:3036   */\n      swap3\n      pop\n      swap3\n      swap1\n      pop\n      jump\t// out\n        /* \"#utility.yul\":3042:3160   */\n    tag_277:\n        /* \"#utility.yul\":3129:3153   */\n      tag_279\n        /* \"#utility.yul\":3147:3152   */\n      dup2\n        /* \"#utility.yul\":3129:3153   */\n      tag_280\n      jump\t// in\n    tag_279:\n        /* \"#utility.yul\":3124:3127   */\n      dup3\n        /* \"#utility.yul\":3117:3154   */\n      mstore\n        /* \"#utility.yul\":3107:3160   */\n      pop\n      pop\n      jump\t// out\n        /* \"#utility.yul\":3166:3275   */\n    tag_281:\n        /* \"#utility.yul\":3247:3268   */\n      tag_283\n        /* \"#utility.yul\":3262:3267   */\n      dup2\n        /* \"#utility.yul\":3247:3268   */\n      tag_284\n      jump\t// in\n    tag_283:\n        /* \"#utility.yul\":3242:3245   */\n      dup3\n        /* \"#utility.yul\":3235:3269   */\n      mstore\n        /* \"#utility.yul\":3225:3275   */\n      pop\n      pop\n      jump\t// out\n        /* \"#utility.yul\":3281:3645   */\n    tag_285:\n      0x00\n        /* \"#utility.yul\":3397:3436   */\n      tag_287\n        /* \"#utility.yul\":3430:3435   */\n      dup3\n        /* \"#utility.yul\":3397:3436   */\n      tag_288\n      jump\t// in\n    tag_287:\n        /* \"#utility.yul\":3452:3523   */\n      tag_289\n        /* \"#utility.yul\":3516:3522   */\n      dup2\n        /* \"#utility.yul\":3511:3514   */\n      dup6\n        /* \"#utility.yul\":3452:3523   */\n      tag_290\n      jump\t// in\n    tag_289:\n        /* \"#utility.yul\":3445:3523   */\n      swap4\n      pop\n        /* \"#utility.yul\":3532:3584   */\n      tag_291\n        /* \"#utility.yul\":3577:3583   */\n      dup2\n        /* \"#utility.yul\":3572:3575   */\n      dup6\n        /* \"#utility.yul\":3565:3569   */\n      0x20\n        /* \"#utility.yul\":3558:3563   */\n      dup7\n        /* \"#utility.yul\":3554:3570   */\n      add\n        /* \"#utility.yul\":3532:3584   */\n      tag_292\n      jump\t// in\n    tag_291:\n        /* \"#utility.yul\":3609:3638   */\n      tag_293\n        /* \"#utility.yul\":3631:3637   */\n      dup2\n        /* \"#utility.yul\":3609:3638   */\n      tag_294\n      jump\t// in\n    tag_293:\n        /* \"#utility.yul\":3604:3607   */\n      dup5\n        /* \"#utility.yul\":3600:3639   */\n      add\n        /* \"#utility.yul\":3593:3639   */\n      swap2\n      pop\n        /* \"#utility.yul\":3373:3645   */\n      pop\n      swap3\n      swap2\n      pop\n      pop\n      jump\t// out\n        /* \"#utility.yul\":3651:4028   */\n    tag_295:\n      0x00\n        /* \"#utility.yul\":3785:3824   */\n      tag_297\n        /* \"#utility.yul\":3818:3823   */\n      dup3\n        /* \"#utility.yul\":3785:3824   */\n      tag_288\n      jump\t// in\n    tag_297:\n        /* \"#utility.yul\":3840:3929   */\n      tag_298\n        /* \"#utility.yul\":3922:3928   */\n      dup2\n        /* \"#utility.yul\":3917:3920   */\n      dup6\n        /* \"#utility.yul\":3840:3929   */\n      tag_299\n      jump\t// in\n    tag_298:\n        /* \"#utility.yul\":3833:3929   */\n      swap4\n      pop\n        /* \"#utility.yul\":3938:3990   */\n      tag_300\n        /* \"#utility.yul\":3983:3989   */\n      dup2\n        /* \"#utility.yul\":3978:3981   */\n      dup6\n        /* \"#utility.yul\":3971:3975   */\n      0x20\n        /* \"#utility.yul\":3964:3969   */\n      dup7\n        /* \"#utility.yul\":3960:3976   */\n      add\n        /* \"#utility.yul\":3938:3990   */\n      tag_292\n      jump\t// in\n    tag_300:\n        /* \"#utility.yul\":4015:4021   */\n      dup1\n        /* \"#utility.yul\":4010:4013   */\n      dup5\n        /* \"#utility.yul\":4006:4022   */\n      add\n        /* \"#utility.yul\":3999:4022   */\n      swap2\n      pop\n        /* \"#utility.yul\":3761:4028   */\n      pop\n      swap3\n      swap2\n      pop\n      pop\n      jump\t// out\n        /* \"#utility.yul\":4058:4903   */\n    tag_301:\n      0x00\n        /* \"#utility.yul\":4198:4203   */\n      dup2\n        /* \"#utility.yul\":4192:4204   */\n      sload\n        /* \"#utility.yul\":4227:4263   */\n      tag_303\n        /* \"#utility.yul\":4253:4262   */\n      dup2\n        /* \"#utility.yul\":4227:4263   */\n      tag_86\n      jump\t// in\n    tag_303:\n        /* \"#utility.yul\":4279:4368   */\n      tag_304\n        /* \"#utility.yul\":4361:4367   */\n      dup2\n        /* \"#utility.yul\":4356:4359   */\n      dup7\n        /* \"#utility.yul\":4279:4368   */\n      tag_299\n      jump\t// in\n    tag_304:\n        /* \"#utility.yul\":4272:4368   */\n      swap5\n      pop\n        /* \"#utility.yul\":4399:4400   */\n      0x01\n        /* \"#utility.yul\":4388:4397   */\n      dup3\n        /* \"#utility.yul\":4384:4401   */\n      and\n        /* \"#utility.yul\":4415:4416   */\n      0x00\n        /* \"#utility.yul\":4410:4547   */\n      dup2\n      eq\n      tag_306\n      jumpi\n        /* \"#utility.yul\":4561:4562   */\n      0x01\n        /* \"#utility.yul\":4556:4897   */\n      dup2\n      eq\n      tag_307\n      jumpi\n        /* \"#utility.yul\":4377:4897   */\n      jump(tag_305)\n        /* \"#utility.yul\":4410:4547   */\n    tag_306:\n        /* \"#utility.yul\":4494:4498   */\n      0xff\n        /* \"#utility.yul\":4490:4499   */\n      not\n        /* \"#utility.yul\":4479:4488   */\n      dup4\n        /* \"#utility.yul\":4475:4500   */\n      and\n        /* \"#utility.yul\":4470:4473   */\n      dup7\n        /* \"#utility.yul\":4463:4501   */\n      mstore\n        /* \"#utility.yul\":4530:4536   */\n      dup2\n        /* \"#utility.yul\":4525:4528   */\n      dup7\n        /* \"#utility.yul\":4521:4537   */\n      add\n        /* \"#utility.yul\":4514:4537   */\n      swap4\n      pop\n        /* \"#utility.yul\":4410:4547   */\n      jump(tag_305)\n        /* \"#utility.yul\":4556:4897   */\n    tag_307:\n        /* \"#utility.yul\":4623:4661   */\n      tag_308\n        /* \"#utility.yul\":4655:4660   */\n      dup6\n        /* \"#utility.yul\":4623:4661   */\n      tag_309\n      jump\t// in\n    tag_308:\n        /* \"#utility.yul\":4683:4684   */\n      0x00\n        /* \"#utility.yul\":4697:4851   */\n    tag_310:\n        /* \"#utility.yul\":4711:4717   */\n      dup4\n        /* \"#utility.yul\":4708:4709   */\n      dup2\n        /* \"#utility.yul\":4705:4718   */\n      lt\n        /* \"#utility.yul\":4697:4851   */\n      iszero\n      tag_312\n      jumpi\n        /* \"#utility.yul\":4785:4792   */\n      dup2\n        /* \"#utility.yul\":4779:4793   */\n      sload\n        /* \"#utility.yul\":4775:4776   */\n      dup2\n        /* \"#utility.yul\":4770:4773   */\n      dup10\n        /* \"#utility.yul\":4766:4777   */\n      add\n        /* \"#utility.yul\":4759:4794   */\n      mstore\n        /* \"#utility.yul\":4835:4836   */\n      0x01\n        /* \"#utility.yul\":4826:4833   */\n      dup3\n        /* \"#utility.yul\":4822:4837   */\n      add\n        /* \"#utility.yul\":4811:4837   */\n      swap2\n      pop\n        /* \"#utility.yul\":4733:4737   */\n      0x20\n        /* \"#utility.yul\":4730:4731   */\n      dup2\n        /* \"#utility.yul\":4726:4738   */\n      add\n        /* \"#utility.yul\":4721:4738   */\n      swap1\n      pop\n        /* \"#utility.yul\":4697:4851   */\n      jump(tag_310)\n    tag_312:\n        /* \"#utility.yul\":4880:4886   */\n      dup4\n        /* \"#utility.yul\":4875:4878   */\n      dup9\n        /* \"#utility.yul\":4871:4887   */\n      add\n        /* \"#utility.yul\":4864:4887   */\n      swap6\n      pop\n        /* \"#utility.yul\":4563:4897   */\n      pop\n      pop\n        /* \"#utility.yul\":4377:4897   */\n    tag_305:\n      pop\n        /* \"#utility.yul\":4165:4903   */\n      pop\n      pop\n      swap3\n      swap2\n      pop\n      pop\n      jump\t// out\n        /* \"#utility.yul\":4909:5289   */\n    tag_313:\n      0x00\n        /* \"#utility.yul\":5072:5139   */\n      tag_315\n        /* \"#utility.yul\":5136:5138   */\n      0x30\n        /* \"#utility.yul\":5131:5134   */\n      dup4\n        /* \"#utility.yul\":5072:5139   */\n      tag_290\n      jump\t// in\n    tag_315:\n        /* \"#utility.yul\":5065:5139   */\n      swap2\n      pop\n        /* \"#utility.yul\":5169:5203   */\n      0x4e656e68756d612076657263616f20617469766120656e636f6e747261646120\n        /* \"#utility.yul\":5165:5166   */\n      0x00\n        /* \"#utility.yul\":5160:5163   */\n      dup4\n        /* \"#utility.yul\":5156:5167   */\n      add\n        /* \"#utility.yul\":5149:5204   */\n      mstore\n        /* \"#utility.yul\":5235:5253   */\n      0x70617261206573746120706167696e6100000000000000000000000000000000\n        /* \"#utility.yul\":5230:5232   */\n      0x20\n        /* \"#utility.yul\":5225:5228   */\n      dup4\n        /* \"#utility.yul\":5221:5233   */\n      add\n        /* \"#utility.yul\":5214:5254   */\n      mstore\n        /* \"#utility.yul\":5280:5282   */\n      0x40\n        /* \"#utility.yul\":5275:5278   */\n      dup3\n        /* \"#utility.yul\":5271:5283   */\n      add\n        /* \"#utility.yul\":5264:5283   */\n      swap1\n      pop\n        /* \"#utility.yul\":5055:5289   */\n      swap2\n      swap1\n      pop\n      jump\t// out\n        /* \"#utility.yul\":5295:5728   */\n    tag_316:\n      0x00\n        /* \"#utility.yul\":5458:5525   */\n      tag_318\n        /* \"#utility.yul\":5522:5524   */\n      0x43\n        /* \"#utility.yul\":5517:5520   */\n      dup4\n        /* \"#utility.yul\":5458:5525   */\n      tag_290\n      jump\t// in\n    tag_318:\n        /* \"#utility.yul\":5451:5525   */\n      swap2\n      pop\n        /* \"#utility.yul\":5555:5589   */\n      0x412061646963616f206465206e6f76617320766572636f657320736f20652070\n        /* \"#utility.yul\":5551:5552   */\n      0x00\n        /* \"#utility.yul\":5546:5549   */\n      dup4\n        /* \"#utility.yul\":5542:5553   */\n      add\n        /* \"#utility.yul\":5535:5590   */\n      mstore\n        /* \"#utility.yul\":5621:5655   */\n      0x65726d6974696461207175616e646f206120706167696e612065737461206174\n        /* \"#utility.yul\":5616:5618   */\n      0x20\n        /* \"#utility.yul\":5611:5614   */\n      dup4\n        /* \"#utility.yul\":5607:5619   */\n      add\n        /* \"#utility.yul\":5600:5656   */\n      mstore\n        /* \"#utility.yul\":5687:5692   */\n      0x6976610000000000000000000000000000000000000000000000000000000000\n        /* \"#utility.yul\":5682:5684   */\n      0x40\n        /* \"#utility.yul\":5677:5680   */\n      dup4\n        /* \"#utility.yul\":5673:5685   */\n      add\n        /* \"#utility.yul\":5666:5693   */\n      mstore\n        /* \"#utility.yul\":5719:5721   */\n      0x60\n        /* \"#utility.yul\":5714:5717   */\n      dup3\n        /* \"#utility.yul\":5710:5722   */\n      add\n        /* \"#utility.yul\":5703:5722   */\n      swap1\n      pop\n        /* \"#utility.yul\":5441:5728   */\n      swap2\n      swap1\n      pop\n      jump\t// out\n        /* \"#utility.yul\":5734:6170   */\n    tag_319:\n      0x00\n        /* \"#utility.yul\":5897:5964   */\n      tag_321\n        /* \"#utility.yul\":5961:5963   */\n      0x46\n        /* \"#utility.yul\":5956:5959   */\n      dup4\n        /* \"#utility.yul\":5897:5964   */\n      tag_290\n      jump\t// in\n    tag_321:\n        /* \"#utility.yul\":5890:5964   */\n      swap2\n      pop\n        /* \"#utility.yul\":5994:6028   */\n      0x4120646573617469766163616f20646520706167696e617320736f2065207065\n        /* \"#utility.yul\":5990:5991   */\n      0x00\n        /* \"#utility.yul\":5985:5988   */\n      dup4\n        /* \"#utility.yul\":5981:5992   */\n      add\n        /* \"#utility.yul\":5974:6029   */\n      mstore\n        /* \"#utility.yul\":6060:6094   */\n      0x726d6974696461207175616e646f206120426c6f636b70656469612065737461\n        /* \"#utility.yul\":6055:6057   */\n      0x20\n        /* \"#utility.yul\":6050:6053   */\n      dup4\n        /* \"#utility.yul\":6046:6058   */\n      add\n        /* \"#utility.yul\":6039:6095   */\n      mstore\n        /* \"#utility.yul\":6126:6134   */\n      0x2061746976610000000000000000000000000000000000000000000000000000\n        /* \"#utility.yul\":6121:6123   */\n      0x40\n        /* \"#utility.yul\":6116:6119   */\n      dup4\n        /* \"#utility.yul\":6112:6124   */\n      add\n        /* \"#utility.yul\":6105:6135   */\n      mstore\n        /* \"#utility.yul\":6161:6163   */\n      0x60\n        /* \"#utility.yul\":6156:6159   */\n      dup3\n        /* \"#utility.yul\":6152:6164   */\n      add\n        /* \"#utility.yul\":6145:6164   */\n      swap1\n      pop\n        /* \"#utility.yul\":5880:6170   */\n      swap2\n      swap1\n      pop\n      jump\t// out\n        /* \"#utility.yul\":6176:6571   */\n    tag_322:\n      0x00\n        /* \"#utility.yul\":6339:6406   */\n      tag_324\n        /* \"#utility.yul\":6403:6405   */\n      0x3f\n        /* \"#utility.yul\":6398:6401   */\n      dup4\n        /* \"#utility.yul\":6339:6406   */\n      tag_290\n      jump\t// in\n    tag_324:\n        /* \"#utility.yul\":6332:6406   */\n      swap2\n      pop\n        /* \"#utility.yul\":6436:6470   */\n      0x4120616c7465726163616f2064652076657273616f20736f2065207065726d69\n        /* \"#utility.yul\":6432:6433   */\n      0x00\n        /* \"#utility.yul\":6427:6430   */\n      dup4\n        /* \"#utility.yul\":6423:6434   */\n      add\n        /* \"#utility.yul\":6416:6471   */\n      mstore\n        /* \"#utility.yul\":6502:6535   */\n      0x74696461207175616e646f206120706167696e61206573746120617469766100\n        /* \"#utility.yul\":6497:6499   */\n      0x20\n        /* \"#utility.yul\":6492:6495   */\n      dup4\n        /* \"#utility.yul\":6488:6500   */\n      add\n        /* \"#utility.yul\":6481:6536   */\n      mstore\n        /* \"#utility.yul\":6562:6564   */\n      0x40\n        /* \"#utility.yul\":6557:6560   */\n      dup3\n        /* \"#utility.yul\":6553:6565   */\n      add\n        /* \"#utility.yul\":6546:6565   */\n      swap1\n      pop\n        /* \"#utility.yul\":6322:6571   */\n      swap2\n      swap1\n      pop\n      jump\t// out\n        /* \"#utility.yul\":6577:6897   */\n    tag_325:\n      0x00\n        /* \"#utility.yul\":6740:6807   */\n      tag_327\n        /* \"#utility.yul\":6804:6806   */\n      0x16\n        /* \"#utility.yul\":6799:6802   */\n      dup4\n        /* \"#utility.yul\":6740:6807   */\n      tag_290\n      jump\t// in\n    tag_327:\n        /* \"#utility.yul\":6733:6807   */\n      swap2\n      pop\n        /* \"#utility.yul\":6837:6861   */\n      0x496e6469636520666f726120646f20616c63616e636500000000000000000000\n        /* \"#utility.yul\":6833:6834   */\n      0x00\n        /* \"#utility.yul\":6828:6831   */\n      dup4\n        /* \"#utility.yul\":6824:6835   */\n      add\n        /* \"#utility.yul\":6817:6862   */\n      mstore\n        /* \"#utility.yul\":6888:6890   */\n      0x20\n        /* \"#utility.yul\":6883:6886   */\n      dup3\n        /* \"#utility.yul\":6879:6891   */\n      add\n        /* \"#utility.yul\":6872:6891   */\n      swap1\n      pop\n        /* \"#utility.yul\":6723:6897   */\n      swap2\n      swap1\n      pop\n      jump\t// out\n        /* \"#utility.yul\":6903:7336   */\n    tag_328:\n      0x00\n        /* \"#utility.yul\":7066:7133   */\n      tag_330\n        /* \"#utility.yul\":7130:7132   */\n      0x43\n        /* \"#utility.yul\":7125:7128   */\n      dup4\n        /* \"#utility.yul\":7066:7133   */\n      tag_290\n      jump\t// in\n    tag_330:\n        /* \"#utility.yul\":7059:7133   */\n      swap2\n      pop\n        /* \"#utility.yul\":7163:7197   */\n      0x4120617469766163616f20646520706167696e617320736f2065207065726d69\n        /* \"#utility.yul\":7159:7160   */\n      0x00\n        /* \"#utility.yul\":7154:7157   */\n      dup4\n        /* \"#utility.yul\":7150:7161   */\n      add\n        /* \"#utility.yul\":7143:7198   */\n      mstore\n        /* \"#utility.yul\":7229:7263   */\n      0x74696461207175616e646f206120426c6f636b70656469612065737461206174\n        /* \"#utility.yul\":7224:7226   */\n      0x20\n        /* \"#utility.yul\":7219:7222   */\n      dup4\n        /* \"#utility.yul\":7215:7227   */\n      add\n        /* \"#utility.yul\":7208:7264   */\n      mstore\n        /* \"#utility.yul\":7295:7300   */\n      0x6976610000000000000000000000000000000000000000000000000000000000\n        /* \"#utility.yul\":7290:7292   */\n      0x40\n        /* \"#utility.yul\":7285:7288   */\n      dup4\n        /* \"#utility.yul\":7281:7293   */\n      add\n        /* \"#utility.yul\":7274:7301   */\n      mstore\n        /* \"#utility.yul\":7327:7329   */\n      0x60\n        /* \"#utility.yul\":7322:7325   */\n      dup3\n        /* \"#utility.yul\":7318:7330   */\n      add\n        /* \"#utility.yul\":7311:7330   */\n      swap1\n      pop\n        /* \"#utility.yul\":7049:7336   */\n      swap2\n      swap1\n      pop\n      jump\t// out\n        /* \"#utility.yul\":7342:7672   */\n    tag_331:\n      0x00\n        /* \"#utility.yul\":7505:7572   */\n      tag_333\n        /* \"#utility.yul\":7569:7571   */\n      0x20\n        /* \"#utility.yul\":7564:7567   */\n      dup4\n        /* \"#utility.yul\":7505:7572   */\n      tag_290\n      jump\t// in\n    tag_333:\n        /* \"#utility.yul\":7498:7572   */\n      swap2\n      pop\n        /* \"#utility.yul\":7602:7636   */\n      0x496e646963652064612076657273616f20666f726120646f20616c63616e6365\n        /* \"#utility.yul\":7598:7599   */\n      0x00\n        /* \"#utility.yul\":7593:7596   */\n      dup4\n        /* \"#utility.yul\":7589:7600   */\n      add\n        /* \"#utility.yul\":7582:7637   */\n      mstore\n        /* \"#utility.yul\":7663:7665   */\n      0x20\n        /* \"#utility.yul\":7658:7661   */\n      dup3\n        /* \"#utility.yul\":7654:7666   */\n      add\n        /* \"#utility.yul\":7647:7666   */\n      swap1\n      pop\n        /* \"#utility.yul\":7488:7672   */\n      swap2\n      swap1\n      pop\n      jump\t// out\n        /* \"#utility.yul\":7678:8048   */\n    tag_334:\n      0x00\n        /* \"#utility.yul\":7841:7908   */\n      tag_336\n        /* \"#utility.yul\":7905:7907   */\n      0x26\n        /* \"#utility.yul\":7900:7903   */\n      dup4\n        /* \"#utility.yul\":7841:7908   */\n      tag_290\n      jump\t// in\n    tag_336:\n        /* \"#utility.yul\":7834:7908   */\n      swap2\n      pop\n        /* \"#utility.yul\":7938:7972   */\n      0x4a612065786973746520706167696e6120617469766120636f6d206573746520\n        /* \"#utility.yul\":7934:7935   */\n      0x00\n        /* \"#utility.yul\":7929:7932   */\n      dup4\n        /* \"#utility.yul\":7925:7936   */\n      add\n        /* \"#utility.yul\":7918:7973   */\n      mstore\n        /* \"#utility.yul\":8004:8012   */\n      0x746974756c6f0000000000000000000000000000000000000000000000000000\n        /* \"#utility.yul\":7999:8001   */\n      0x20\n        /* \"#utility.yul\":7994:7997   */\n      dup4\n        /* \"#utility.yul\":7990:8002   */\n      add\n        /* \"#utility.yul\":7983:8013   */\n      mstore\n        /* \"#utility.yul\":8039:8041   */\n      0x40\n        /* \"#utility.yul\":8034:8037   */\n      dup3\n        /* \"#utility.yul\":8030:8042   */\n      add\n        /* \"#utility.yul\":8023:8042   */\n      swap1\n      pop\n        /* \"#utility.yul\":7824:8048   */\n      swap2\n      swap1\n      pop\n      jump\t// out\n        /* \"#utility.yul\":8054:8384   */\n    tag_337:\n      0x00\n        /* \"#utility.yul\":8217:8284   */\n      tag_339\n        /* \"#utility.yul\":8281:8283   */\n      0x20\n        /* \"#utility.yul\":8276:8279   */\n      dup4\n        /* \"#utility.yul\":8217:8284   */\n      tag_290\n      jump\t// in\n    tag_339:\n        /* \"#utility.yul\":8210:8284   */\n      swap2\n      pop\n        /* \"#utility.yul\":8314:8348   */\n      0x496e6469636520646120706167696e6120666f726120646f20616c63616e6365\n        /* \"#utility.yul\":8310:8311   */\n      0x00\n        /* \"#utility.yul\":8305:8308   */\n      dup4\n        /* \"#utility.yul\":8301:8312   */\n      add\n        /* \"#utility.yul\":8294:8349   */\n      mstore\n        /* \"#utility.yul\":8375:8377   */\n      0x20\n        /* \"#utility.yul\":8370:8373   */\n      dup3\n        /* \"#utility.yul\":8366:8378   */\n      add\n        /* \"#utility.yul\":8359:8378   */\n      swap1\n      pop\n        /* \"#utility.yul\":8200:8384   */\n      swap2\n      swap1\n      pop\n      jump\t// out\n        /* \"#utility.yul\":8390:8783   */\n    tag_340:\n      0x00\n        /* \"#utility.yul\":8553:8620   */\n      tag_342\n        /* \"#utility.yul\":8617:8619   */\n      0x3d\n        /* \"#utility.yul\":8612:8615   */\n      dup4\n        /* \"#utility.yul\":8553:8620   */\n      tag_290\n      jump\t// in\n    tag_342:\n        /* \"#utility.yul\":8546:8620   */\n      swap2\n      pop\n        /* \"#utility.yul\":8650:8684   */\n      0x536f6d656e7465206f20646f6e6f20646573746120426c6f636b706564696120\n        /* \"#utility.yul\":8646:8647   */\n      0x00\n        /* \"#utility.yul\":8641:8644   */\n      dup4\n        /* \"#utility.yul\":8637:8648   */\n      add\n        /* \"#utility.yul\":8630:8685   */\n      mstore\n        /* \"#utility.yul\":8716:8747   */\n      0x706f646520616c7465726172206f20617472696275746f20617469766f000000\n        /* \"#utility.yul\":8711:8713   */\n      0x20\n        /* \"#utility.yul\":8706:8709   */\n      dup4\n        /* \"#utility.yul\":8702:8714   */\n      add\n        /* \"#utility.yul\":8695:8748   */\n      mstore\n        /* \"#utility.yul\":8774:8776   */\n      0x40\n        /* \"#utility.yul\":8769:8772   */\n      dup3\n        /* \"#utility.yul\":8765:8777   */\n      add\n        /* \"#utility.yul\":8758:8777   */\n      swap1\n      pop\n        /* \"#utility.yul\":8536:8783   */\n      swap2\n      swap1\n      pop\n      jump\t// out\n        /* \"#utility.yul\":8789:9226   */\n    tag_343:\n      0x00\n        /* \"#utility.yul\":8952:9019   */\n      tag_345\n        /* \"#utility.yul\":9016:9018   */\n      0x47\n        /* \"#utility.yul\":9011:9014   */\n      dup4\n        /* \"#utility.yul\":8952:9019   */\n      tag_290\n      jump\t// in\n    tag_345:\n        /* \"#utility.yul\":8945:9019   */\n      swap2\n      pop\n        /* \"#utility.yul\":9049:9083   */\n      0x412061646963616f206465206e6f76617320706167696e617320736f20652070\n        /* \"#utility.yul\":9045:9046   */\n      0x00\n        /* \"#utility.yul\":9040:9043   */\n      dup4\n        /* \"#utility.yul\":9036:9047   */\n      add\n        /* \"#utility.yul\":9029:9084   */\n      mstore\n        /* \"#utility.yul\":9115:9149   */\n      0x65726d6974696461207175616e646f206120426c6f636b706564696120657374\n        /* \"#utility.yul\":9110:9112   */\n      0x20\n        /* \"#utility.yul\":9105:9108   */\n      dup4\n        /* \"#utility.yul\":9101:9113   */\n      add\n        /* \"#utility.yul\":9094:9150   */\n      mstore\n        /* \"#utility.yul\":9181:9190   */\n      0x6120617469766100000000000000000000000000000000000000000000000000\n        /* \"#utility.yul\":9176:9178   */\n      0x40\n        /* \"#utility.yul\":9171:9174   */\n      dup4\n        /* \"#utility.yul\":9167:9179   */\n      add\n        /* \"#utility.yul\":9160:9191   */\n      mstore\n        /* \"#utility.yul\":9217:9219   */\n      0x60\n        /* \"#utility.yul\":9212:9215   */\n      dup3\n        /* \"#utility.yul\":9208:9220   */\n      add\n        /* \"#utility.yul\":9201:9220   */\n      swap1\n      pop\n        /* \"#utility.yul\":8935:9226   */\n      swap2\n      swap1\n      pop\n      jump\t// out\n        /* \"#utility.yul\":9232:9350   */\n    tag_346:\n        /* \"#utility.yul\":9319:9343   */\n      tag_348\n        /* \"#utility.yul\":9337:9342   */\n      dup2\n        /* \"#utility.yul\":9319:9343   */\n      tag_349\n      jump\t// in\n    tag_348:\n        /* \"#utility.yul\":9314:9317   */\n      dup3\n        /* \"#utility.yul\":9307:9344   */\n      mstore\n        /* \"#utility.yul\":9297:9350   */\n      pop\n      pop\n      jump\t// out\n        /* \"#utility.yul\":9356:9631   */\n    tag_204:\n      0x00\n        /* \"#utility.yul\":9510:9605   */\n      tag_351\n        /* \"#utility.yul\":9601:9604   */\n      dup3\n        /* \"#utility.yul\":9592:9598   */\n      dup5\n        /* \"#utility.yul\":9510:9605   */\n      tag_295\n      jump\t// in\n    tag_351:\n        /* \"#utility.yul\":9503:9605   */\n      swap2\n      pop\n        /* \"#utility.yul\":9622:9625   */\n      dup2\n        /* \"#utility.yul\":9615:9625   */\n      swap1\n      pop\n        /* \"#utility.yul\":9492:9631   */\n      swap3\n      swap2\n      pop\n      pop\n      jump\t// out\n        /* \"#utility.yul\":9637:9906   */\n    tag_208:\n      0x00\n        /* \"#utility.yul\":9788:9880   */\n      tag_353\n        /* \"#utility.yul\":9876:9879   */\n      dup3\n        /* \"#utility.yul\":9867:9873   */\n      dup5\n        /* \"#utility.yul\":9788:9880   */\n      tag_301\n      jump\t// in\n    tag_353:\n        /* \"#utility.yul\":9781:9880   */\n      swap2\n      pop\n        /* \"#utility.yul\":9897:9900   */\n      dup2\n        /* \"#utility.yul\":9890:9900   */\n      swap1\n      pop\n        /* \"#utility.yul\":9770:9906   */\n      swap3\n      swap2\n      pop\n      pop\n      jump\t// out\n        /* \"#utility.yul\":9912:10134   */\n    tag_18:\n      0x00\n        /* \"#utility.yul\":10043:10045   */\n      0x20\n        /* \"#utility.yul\":10032:10041   */\n      dup3\n        /* \"#utility.yul\":10028:10046   */\n      add\n        /* \"#utility.yul\":10020:10046   */\n      swap1\n      pop\n        /* \"#utility.yul\":10056:10127   */\n      tag_355\n        /* \"#utility.yul\":10124:10125   */\n      0x00\n        /* \"#utility.yul\":10113:10122   */\n      dup4\n        /* \"#utility.yul\":10109:10126   */\n      add\n        /* \"#utility.yul\":10100:10106   */\n      dup5\n        /* \"#utility.yul\":10056:10127   */\n      tag_277\n      jump\t// in\n    tag_355:\n        /* \"#utility.yul\":10010:10134   */\n      swap3\n      swap2\n      pop\n      pop\n      jump\t// out\n        /* \"#utility.yul\":10140:10350   */\n    tag_44:\n      0x00\n        /* \"#utility.yul\":10265:10267   */\n      0x20\n        /* \"#utility.yul\":10254:10263   */\n      dup3\n        /* \"#utility.yul\":10250:10268   */\n      add\n        /* \"#utility.yul\":10242:10268   */\n      swap1\n      pop\n        /* \"#utility.yul\":10278:10343   */\n      tag_357\n        /* \"#utility.yul\":10340:10341   */\n      0x00\n        /* \"#utility.yul\":10329:10338   */\n      dup4\n        /* \"#utility.yul\":10325:10342   */\n      add\n        /* \"#utility.yul\":10316:10322   */\n      dup5\n        /* \"#utility.yul\":10278:10343   */\n      tag_281\n      jump\t// in\n    tag_357:\n        /* \"#utility.yul\":10232:10350   */\n      swap3\n      swap2\n      pop\n      pop\n      jump\t// out\n        /* \"#utility.yul\":10356:10988   */\n    tag_59:\n      0x00\n        /* \"#utility.yul\":10585:10588   */\n      0x80\n        /* \"#utility.yul\":10574:10583   */\n      dup3\n        /* \"#utility.yul\":10570:10589   */\n      add\n        /* \"#utility.yul\":10562:10589   */\n      swap1\n      pop\n        /* \"#utility.yul\":10599:10664   */\n      tag_359\n        /* \"#utility.yul\":10661:10662   */\n      0x00\n        /* \"#utility.yul\":10650:10659   */\n      dup4\n        /* \"#utility.yul\":10646:10663   */\n      add\n        /* \"#utility.yul\":10637:10643   */\n      dup8\n        /* \"#utility.yul\":10599:10664   */\n      tag_281\n      jump\t// in\n    tag_359:\n        /* \"#utility.yul\":10674:10746   */\n      tag_360\n        /* \"#utility.yul\":10742:10744   */\n      0x20\n        /* \"#utility.yul\":10731:10740   */\n      dup4\n        /* \"#utility.yul\":10727:10745   */\n      add\n        /* \"#utility.yul\":10718:10724   */\n      dup7\n        /* \"#utility.yul\":10674:10746   */\n      tag_277\n      jump\t// in\n    tag_360:\n        /* \"#utility.yul\":10756:10828   */\n      tag_361\n        /* \"#utility.yul\":10824:10826   */\n      0x40\n        /* \"#utility.yul\":10813:10822   */\n      dup4\n        /* \"#utility.yul\":10809:10827   */\n      add\n        /* \"#utility.yul\":10800:10806   */\n      dup6\n        /* \"#utility.yul\":10756:10828   */\n      tag_346\n      jump\t// in\n    tag_361:\n        /* \"#utility.yul\":10875:10884   */\n      dup2\n        /* \"#utility.yul\":10869:10873   */\n      dup2\n        /* \"#utility.yul\":10865:10885   */\n      sub\n        /* \"#utility.yul\":10860:10862   */\n      0x60\n        /* \"#utility.yul\":10849:10858   */\n      dup4\n        /* \"#utility.yul\":10845:10863   */\n      add\n        /* \"#utility.yul\":10838:10886   */\n      mstore\n        /* \"#utility.yul\":10903:10981   */\n      tag_362\n        /* \"#utility.yul\":10976:10980   */\n      dup2\n        /* \"#utility.yul\":10967:10973   */\n      dup5\n        /* \"#utility.yul\":10903:10981   */\n      tag_285\n      jump\t// in\n    tag_362:\n        /* \"#utility.yul\":10895:10981   */\n      swap1\n      pop\n        /* \"#utility.yul\":10552:10988   */\n      swap6\n      swap5\n      pop\n      pop\n      pop\n      pop\n      pop\n      jump\t// out\n        /* \"#utility.yul\":10994:11307   */\n    tag_32:\n      0x00\n        /* \"#utility.yul\":11145:11147   */\n      0x20\n        /* \"#utility.yul\":11134:11143   */\n      dup3\n        /* \"#utility.yul\":11130:11148   */\n      add\n        /* \"#utility.yul\":11122:11148   */\n      swap1\n      pop\n        /* \"#utility.yul\":11194:11203   */\n      dup2\n        /* \"#utility.yul\":11188:11192   */\n      dup2\n        /* \"#utility.yul\":11184:11204   */\n      sub\n        /* \"#utility.yul\":11180:11181   */\n      0x00\n        /* \"#utility.yul\":11169:11178   */\n      dup4\n        /* \"#utility.yul\":11165:11182   */\n      add\n        /* \"#utility.yul\":11158:11205   */\n      mstore\n        /* \"#utility.yul\":11222:11300   */\n      tag_364\n        /* \"#utility.yul\":11295:11299   */\n      dup2\n        /* \"#utility.yul\":11286:11292   */\n      dup5\n        /* \"#utility.yul\":11222:11300   */\n      tag_285\n      jump\t// in\n    tag_364:\n        /* \"#utility.yul\":11214:11300   */\n      swap1\n      pop\n        /* \"#utility.yul\":11112:11307   */\n      swap3\n      swap2\n      pop\n      pop\n      jump\t// out\n        /* \"#utility.yul\":11313:11732   */\n    tag_223:\n      0x00\n        /* \"#utility.yul\":11517:11519   */\n      0x20\n        /* \"#utility.yul\":11506:11515   */\n      dup3\n        /* \"#utility.yul\":11502:11520   */\n      add\n        /* \"#utility.yul\":11494:11520   */\n      swap1\n      pop\n        /* \"#utility.yul\":11566:11575   */\n      dup2\n        /* \"#utility.yul\":11560:11564   */\n      dup2\n        /* \"#utility.yul\":11556:11576   */\n      sub\n        /* \"#utility.yul\":11552:11553   */\n      0x00\n        /* \"#utility.yul\":11541:11550   */\n      dup4\n        /* \"#utility.yul\":11537:11554   */\n      add\n        /* \"#utility.yul\":11530:11577   */\n      mstore\n        /* \"#utility.yul\":11594:11725   */\n      tag_366\n        /* \"#utility.yul\":11720:11724   */\n      dup2\n        /* \"#utility.yul\":11594:11725   */\n      tag_313\n      jump\t// in\n    tag_366:\n        /* \"#utility.yul\":11586:11725   */\n      swap1\n      pop\n        /* \"#utility.yul\":11484:11732   */\n      swap2\n      swap1\n      pop\n      jump\t// out\n        /* \"#utility.yul\":11738:12157   */\n    tag_173:\n      0x00\n        /* \"#utility.yul\":11942:11944   */\n      0x20\n        /* \"#utility.yul\":11931:11940   */\n      dup3\n        /* \"#utility.yul\":11927:11945   */\n      add\n        /* \"#utility.yul\":11919:11945   */\n      swap1\n      pop\n        /* \"#utility.yul\":11991:12000   */\n      dup2\n        /* \"#utility.yul\":11985:11989   */\n      dup2\n        /* \"#utility.yul\":11981:12001   */\n      sub\n        /* \"#utility.yul\":11977:11978   */\n      0x00\n        /* \"#utility.yul\":11966:11975   */\n      dup4\n        /* \"#utility.yul\":11962:11979   */\n      add\n        /* \"#utility.yul\":11955:12002   */\n      mstore\n        /* \"#utility.yul\":12019:12150   */\n      tag_368\n        /* \"#utility.yul\":12145:12149   */\n      dup2\n        /* \"#utility.yul\":12019:12150   */\n      tag_316\n      jump\t// in\n    tag_368:\n        /* \"#utility.yul\":12011:12150   */\n      swap1\n      pop\n        /* \"#utility.yul\":11909:12157   */\n      swap2\n      swap1\n      pop\n      jump\t// out\n        /* \"#utility.yul\":12163:12582   */\n    tag_181:\n      0x00\n        /* \"#utility.yul\":12367:12369   */\n      0x20\n        /* \"#utility.yul\":12356:12365   */\n      dup3\n        /* \"#utility.yul\":12352:12370   */\n      add\n        /* \"#utility.yul\":12344:12370   */\n      swap1\n      pop\n        /* \"#utility.yul\":12416:12425   */\n      dup2\n        /* \"#utility.yul\":12410:12414   */\n      dup2\n        /* \"#utility.yul\":12406:12426   */\n      sub\n        /* \"#utility.yul\":12402:12403   */\n      0x00\n        /* \"#utility.yul\":12391:12400   */\n      dup4\n        /* \"#utility.yul\":12387:12404   */\n      add\n        /* \"#utility.yul\":12380:12427   */\n      mstore\n        /* \"#utility.yul\":12444:12575   */\n      tag_370\n        /* \"#utility.yul\":12570:12574   */\n      dup2\n        /* \"#utility.yul\":12444:12575   */\n      tag_319\n      jump\t// in\n    tag_370:\n        /* \"#utility.yul\":12436:12575   */\n      swap1\n      pop\n        /* \"#utility.yul\":12334:12582   */\n      swap2\n      swap1\n      pop\n      jump\t// out\n        /* \"#utility.yul\":12588:13007   */\n    tag_110:\n      0x00\n        /* \"#utility.yul\":12792:12794   */\n      0x20\n        /* \"#utility.yul\":12781:12790   */\n      dup3\n        /* \"#utility.yul\":12777:12795   */\n      add\n        /* \"#utility.yul\":12769:12795   */\n      swap1\n      pop\n        /* \"#utility.yul\":12841:12850   */\n      dup2\n        /* \"#utility.yul\":12835:12839   */\n      dup2\n        /* \"#utility.yul\":12831:12851   */\n      sub\n        /* \"#utility.yul\":12827:12828   */\n      0x00\n        /* \"#utility.yul\":12816:12825   */\n      dup4\n        /* \"#utility.yul\":12812:12829   */\n      add\n        /* \"#utility.yul\":12805:12852   */\n      mstore\n        /* \"#utility.yul\":12869:13000   */\n      tag_372\n        /* \"#utility.yul\":12995:12999   */\n      dup2\n        /* \"#utility.yul\":12869:13000   */\n      tag_322\n      jump\t// in\n    tag_372:\n        /* \"#utility.yul\":12861:13000   */\n      swap1\n      pop\n        /* \"#utility.yul\":12759:13007   */\n      swap2\n      swap1\n      pop\n      jump\t// out\n        /* \"#utility.yul\":13013:13432   */\n    tag_81:\n      0x00\n        /* \"#utility.yul\":13217:13219   */\n      0x20\n        /* \"#utility.yul\":13206:13215   */\n      dup3\n        /* \"#utility.yul\":13202:13220   */\n      add\n        /* \"#utility.yul\":13194:13220   */\n      swap1\n      pop\n        /* \"#utility.yul\":13266:13275   */\n      dup2\n        /* \"#utility.yul\":13260:13264   */\n      dup2\n        /* \"#utility.yul\":13256:13276   */\n      sub\n        /* \"#utility.yul\":13252:13253   */\n      0x00\n        /* \"#utility.yul\":13241:13250   */\n      dup4\n        /* \"#utility.yul\":13237:13254   */\n      add\n        /* \"#utility.yul\":13230:13277   */\n      mstore\n        /* \"#utility.yul\":13294:13425   */\n      tag_374\n        /* \"#utility.yul\":13420:13424   */\n      dup2\n        /* \"#utility.yul\":13294:13425   */\n      tag_325\n      jump\t// in\n    tag_374:\n        /* \"#utility.yul\":13286:13425   */\n      swap1\n      pop\n        /* \"#utility.yul\":13184:13432   */\n      swap2\n      swap1\n      pop\n      jump\t// out\n        /* \"#utility.yul\":13438:13857   */\n    tag_146:\n      0x00\n        /* \"#utility.yul\":13642:13644   */\n      0x20\n        /* \"#utility.yul\":13631:13640   */\n      dup3\n        /* \"#utility.yul\":13627:13645   */\n      add\n        /* \"#utility.yul\":13619:13645   */\n      swap1\n      pop\n        /* \"#utility.yul\":13691:13700   */\n      dup2\n        /* \"#utility.yul\":13685:13689   */\n      dup2\n        /* \"#utility.yul\":13681:13701   */\n      sub\n        /* \"#utility.yul\":13677:13678   */\n      0x00\n        /* \"#utility.yul\":13666:13675   */\n      dup4\n        /* \"#utility.yul\":13662:13679   */\n      add\n        /* \"#utility.yul\":13655:13702   */\n      mstore\n        /* \"#utility.yul\":13719:13850   */\n      tag_376\n        /* \"#utility.yul\":13845:13849   */\n      dup2\n        /* \"#utility.yul\":13719:13850   */\n      tag_328\n      jump\t// in\n    tag_376:\n        /* \"#utility.yul\":13711:13850   */\n      swap1\n      pop\n        /* \"#utility.yul\":13609:13857   */\n      swap2\n      swap1\n      pop\n      jump\t// out\n        /* \"#utility.yul\":13863:14282   */\n    tag_115:\n      0x00\n        /* \"#utility.yul\":14067:14069   */\n      0x20\n        /* \"#utility.yul\":14056:14065   */\n      dup3\n        /* \"#utility.yul\":14052:14070   */\n      add\n        /* \"#utility.yul\":14044:14070   */\n      swap1\n      pop\n        /* \"#utility.yul\":14116:14125   */\n      dup2\n        /* \"#utility.yul\":14110:14114   */\n      dup2\n        /* \"#utility.yul\":14106:14126   */\n      sub\n        /* \"#utility.yul\":14102:14103   */\n      0x00\n        /* \"#utility.yul\":14091:14100   */\n      dup4\n        /* \"#utility.yul\":14087:14104   */\n      add\n        /* \"#utility.yul\":14080:14127   */\n      mstore\n        /* \"#utility.yul\":14144:14275   */\n      tag_378\n        /* \"#utility.yul\":14270:14274   */\n      dup2\n        /* \"#utility.yul\":14144:14275   */\n      tag_331\n      jump\t// in\n    tag_378:\n        /* \"#utility.yul\":14136:14275   */\n      swap1\n      pop\n        /* \"#utility.yul\":14034:14282   */\n      swap2\n      swap1\n      pop\n      jump\t// out\n        /* \"#utility.yul\":14288:14707   */\n    tag_72:\n      0x00\n        /* \"#utility.yul\":14492:14494   */\n      0x20\n        /* \"#utility.yul\":14481:14490   */\n      dup3\n        /* \"#utility.yul\":14477:14495   */\n      add\n        /* \"#utility.yul\":14469:14495   */\n      swap1\n      pop\n        /* \"#utility.yul\":14541:14550   */\n      dup2\n        /* \"#utility.yul\":14535:14539   */\n      dup2\n        /* \"#utility.yul\":14531:14551   */\n      sub\n        /* \"#utility.yul\":14527:14528   */\n      0x00\n        /* \"#utility.yul\":14516:14525   */\n      dup4\n        /* \"#utility.yul\":14512:14529   */\n      add\n        /* \"#utility.yul\":14505:14552   */\n      mstore\n        /* \"#utility.yul\":14569:14700   */\n      tag_380\n        /* \"#utility.yul\":14695:14699   */\n      dup2\n        /* \"#utility.yul\":14569:14700   */\n      tag_334\n      jump\t// in\n    tag_380:\n        /* \"#utility.yul\":14561:14700   */\n      swap1\n      pop\n        /* \"#utility.yul\":14459:14707   */\n      swap2\n      swap1\n      pop\n      jump\t// out\n        /* \"#utility.yul\":14713:15132   */\n    tag_105:\n      0x00\n        /* \"#utility.yul\":14917:14919   */\n      0x20\n        /* \"#utility.yul\":14906:14915   */\n      dup3\n        /* \"#utility.yul\":14902:14920   */\n      add\n        /* \"#utility.yul\":14894:14920   */\n      swap1\n      pop\n        /* \"#utility.yul\":14966:14975   */\n      dup2\n        /* \"#utility.yul\":14960:14964   */\n      dup2\n        /* \"#utility.yul\":14956:14976   */\n      sub\n        /* \"#utility.yul\":14952:14953   */\n      0x00\n        /* \"#utility.yul\":14941:14950   */\n      dup4\n        /* \"#utility.yul\":14937:14954   */\n      add\n        /* \"#utility.yul\":14930:14977   */\n      mstore\n        /* \"#utility.yul\":14994:15125   */\n      tag_382\n        /* \"#utility.yul\":15120:15124   */\n      dup2\n        /* \"#utility.yul\":14994:15125   */\n      tag_337\n      jump\t// in\n    tag_382:\n        /* \"#utility.yul\":14986:15125   */\n      swap1\n      pop\n        /* \"#utility.yul\":14884:15132   */\n      swap2\n      swap1\n      pop\n      jump\t// out\n        /* \"#utility.yul\":15138:15557   */\n    tag_63:\n      0x00\n        /* \"#utility.yul\":15342:15344   */\n      0x20\n        /* \"#utility.yul\":15331:15340   */\n      dup3\n        /* \"#utility.yul\":15327:15345   */\n      add\n        /* \"#utility.yul\":15319:15345   */\n      swap1\n      pop\n        /* \"#utility.yul\":15391:15400   */\n      dup2\n        /* \"#utility.yul\":15385:15389   */\n      dup2\n        /* \"#utility.yul\":15381:15401   */\n      sub\n        /* \"#utility.yul\":15377:15378   */\n      0x00\n        /* \"#utility.yul\":15366:15375   */\n      dup4\n        /* \"#utility.yul\":15362:15379   */\n      add\n        /* \"#utility.yul\":15355:15402   */\n      mstore\n        /* \"#utility.yul\":15419:15550   */\n      tag_384\n        /* \"#utility.yul\":15545:15549   */\n      dup2\n        /* \"#utility.yul\":15419:15550   */\n      tag_340\n      jump\t// in\n    tag_384:\n        /* \"#utility.yul\":15411:15550   */\n      swap1\n      pop\n        /* \"#utility.yul\":15309:15557   */\n      swap2\n      swap1\n      pop\n      jump\t// out\n        /* \"#utility.yul\":15563:15982   */\n    tag_67:\n      0x00\n        /* \"#utility.yul\":15767:15769   */\n      0x20\n        /* \"#utility.yul\":15756:15765   */\n      dup3\n        /* \"#utility.yul\":15752:15770   */\n      add\n        /* \"#utility.yul\":15744:15770   */\n      swap1\n      pop\n        /* \"#utility.yul\":15816:15825   */\n      dup2\n        /* \"#utility.yul\":15810:15814   */\n      dup2\n        /* \"#utility.yul\":15806:15826   */\n      sub\n        /* \"#utility.yul\":15802:15803   */\n      0x00\n        /* \"#utility.yul\":15791:15800   */\n      dup4\n        /* \"#utility.yul\":15787:15804   */\n      add\n        /* \"#utility.yul\":15780:15827   */\n      mstore\n        /* \"#utility.yul\":15844:15975   */\n      tag_386\n        /* \"#utility.yul\":15970:15974   */\n      dup2\n        /* \"#utility.yul\":15844:15975   */\n      tag_343\n      jump\t// in\n    tag_386:\n        /* \"#utility.yul\":15836:15975   */\n      swap1\n      pop\n        /* \"#utility.yul\":15734:15982   */\n      swap2\n      swap1\n      pop\n      jump\t// out\n        /* \"#utility.yul\":15988:16210   */\n    tag_36:\n      0x00\n        /* \"#utility.yul\":16119:16121   */\n      0x20\n        /* \"#utility.yul\":16108:16117   */\n      dup3\n        /* \"#utility.yul\":16104:16122   */\n      add\n        /* \"#utility.yul\":16096:16122   */\n      swap1\n      pop\n        /* \"#utility.yul\":16132:16203   */\n      tag_388\n        /* \"#utility.yul\":16200:16201   */\n      0x00\n        /* \"#utility.yul\":16189:16198   */\n      dup4\n        /* \"#utility.yul\":16185:16202   */\n      add\n        /* \"#utility.yul\":16176:16182   */\n      dup5\n        /* \"#utility.yul\":16132:16203   */\n      tag_346\n      jump\t// in\n    tag_388:\n        /* \"#utility.yul\":16086:16210   */\n      swap3\n      swap2\n      pop\n      pop\n      jump\t// out\n        /* \"#utility.yul\":16216:16499   */\n    tag_240:\n      0x00\n        /* \"#utility.yul\":16282:16284   */\n      0x40\n        /* \"#utility.yul\":16276:16285   */\n      mload\n        /* \"#utility.yul\":16266:16285   */\n      swap1\n      pop\n        /* \"#utility.yul\":16324:16328   */\n      dup2\n        /* \"#utility.yul\":16316:16322   */\n      dup2\n        /* \"#utility.yul\":16312:16329   */\n      add\n        /* \"#utility.yul\":16431:16437   */\n      dup2\n        /* \"#utility.yul\":16419:16429   */\n      dup2\n        /* \"#utility.yul\":16416:16438   */\n      lt\n        /* \"#utility.yul\":16395:16413   */\n      0xffffffffffffffff\n        /* \"#utility.yul\":16383:16393   */\n      dup3\n        /* \"#utility.yul\":16380:16414   */\n      gt\n        /* \"#utility.yul\":16377:16439   */\n      or\n        /* \"#utility.yul\":16374:16376   */\n      iszero\n      tag_390\n      jumpi\n        /* \"#utility.yul\":16442:16460   */\n      tag_391\n      tag_392\n      jump\t// in\n    tag_391:\n        /* \"#utility.yul\":16374:16376   */\n    tag_390:\n        /* \"#utility.yul\":16482:16492   */\n      dup1\n        /* \"#utility.yul\":16478:16480   */\n      0x40\n        /* \"#utility.yul\":16471:16493   */\n      mstore\n        /* \"#utility.yul\":16256:16499   */\n      pop\n      swap2\n      swap1\n      pop\n      jump\t// out\n        /* \"#utility.yul\":16505:16837   */\n    tag_239:\n      0x00\n        /* \"#utility.yul\":16657:16675   */\n      0xffffffffffffffff\n        /* \"#utility.yul\":16649:16655   */\n      dup3\n        /* \"#utility.yul\":16646:16676   */\n      gt\n        /* \"#utility.yul\":16643:16645   */\n      iszero\n      tag_394\n      jumpi\n        /* \"#utility.yul\":16679:16697   */\n      tag_395\n      tag_392\n      jump\t// in\n    tag_395:\n        /* \"#utility.yul\":16643:16645   */\n    tag_394:\n        /* \"#utility.yul\":16764:16768   */\n      0x1f\n        /* \"#utility.yul\":16760:16769   */\n      not\n        /* \"#utility.yul\":16753:16757   */\n      0x1f\n        /* \"#utility.yul\":16745:16751   */\n      dup4\n        /* \"#utility.yul\":16741:16758   */\n      add\n        /* \"#utility.yul\":16737:16770   */\n      and\n        /* \"#utility.yul\":16729:16770   */\n      swap1\n      pop\n        /* \"#utility.yul\":16825:16829   */\n      0x20\n        /* \"#utility.yul\":16819:16823   */\n      dup2\n        /* \"#utility.yul\":16815:16830   */\n      add\n        /* \"#utility.yul\":16807:16830   */\n      swap1\n      pop\n        /* \"#utility.yul\":16572:16837   */\n      swap2\n      swap1\n      pop\n      jump\t// out\n        /* \"#utility.yul\":16843:16984   */\n    tag_309:\n      0x00\n        /* \"#utility.yul\":16915:16918   */\n      dup2\n        /* \"#utility.yul\":16907:16918   */\n      swap1\n      pop\n        /* \"#utility.yul\":16938:16941   */\n      dup2\n        /* \"#utility.yul\":16935:16936   */\n      0x00\n        /* \"#utility.yul\":16928:16942   */\n      mstore\n        /* \"#utility.yul\":16972:16976   */\n      0x20\n        /* \"#utility.yul\":16969:16970   */\n      0x00\n        /* \"#utility.yul\":16959:16977   */\n      keccak256\n        /* \"#utility.yul\":16951:16977   */\n      swap1\n      pop\n        /* \"#utility.yul\":16897:16984   */\n      swap2\n      swap1\n      pop\n      jump\t// out\n        /* \"#utility.yul\":16990:17089   */\n    tag_288:\n      0x00\n        /* \"#utility.yul\":17076:17081   */\n      dup2\n        /* \"#utility.yul\":17070:17082   */\n      mload\n        /* \"#utility.yul\":17060:17082   */\n      swap1\n      pop\n        /* \"#utility.yul\":17049:17089   */\n      swap2\n      swap1\n      pop\n      jump\t// out\n        /* \"#utility.yul\":17095:17264   */\n    tag_290:\n      0x00\n        /* \"#utility.yul\":17213:17219   */\n      dup3\n        /* \"#utility.yul\":17208:17211   */\n      dup3\n        /* \"#utility.yul\":17201:17220   */\n      mstore\n        /* \"#utility.yul\":17253:17257   */\n      0x20\n        /* \"#utility.yul\":17248:17251   */\n      dup3\n        /* \"#utility.yul\":17244:17258   */\n      add\n        /* \"#utility.yul\":17229:17258   */\n      swap1\n      pop\n        /* \"#utility.yul\":17191:17264   */\n      swap3\n      swap2\n      pop\n      pop\n      jump\t// out\n        /* \"#utility.yul\":17270:17418   */\n    tag_299:\n      0x00\n        /* \"#utility.yul\":17409:17412   */\n      dup2\n        /* \"#utility.yul\":17394:17412   */\n      swap1\n      pop\n        /* \"#utility.yul\":17384:17418   */\n      swap3\n      swap2\n      pop\n      pop\n      jump\t// out\n        /* \"#utility.yul\":17424:17615   */\n    tag_127:\n      0x00\n        /* \"#utility.yul\":17484:17504   */\n      tag_401\n        /* \"#utility.yul\":17502:17503   */\n      dup3\n        /* \"#utility.yul\":17484:17504   */\n      tag_349\n      jump\t// in\n    tag_401:\n        /* \"#utility.yul\":17479:17504   */\n      swap2\n      pop\n        /* \"#utility.yul\":17518:17538   */\n      tag_402\n        /* \"#utility.yul\":17536:17537   */\n      dup4\n        /* \"#utility.yul\":17518:17538   */\n      tag_349\n      jump\t// in\n    tag_402:\n        /* \"#utility.yul\":17513:17538   */\n      swap3\n      pop\n        /* \"#utility.yul\":17557:17558   */\n      dup3\n        /* \"#utility.yul\":17554:17555   */\n      dup3\n        /* \"#utility.yul\":17551:17559   */\n      lt\n        /* \"#utility.yul\":17548:17550   */\n      iszero\n      tag_403\n      jumpi\n        /* \"#utility.yul\":17562:17580   */\n      tag_404\n      tag_405\n      jump\t// in\n    tag_404:\n        /* \"#utility.yul\":17548:17550   */\n    tag_403:\n        /* \"#utility.yul\":17607:17608   */\n      dup3\n        /* \"#utility.yul\":17604:17605   */\n      dup3\n        /* \"#utility.yul\":17600:17609   */\n      sub\n        /* \"#utility.yul\":17592:17609   */\n      swap1\n      pop\n        /* \"#utility.yul\":17469:17615   */\n      swap3\n      swap2\n      pop\n      pop\n      jump\t// out\n        /* \"#utility.yul\":17621:17717   */\n    tag_280:\n      0x00\n        /* \"#utility.yul\":17687:17711   */\n      tag_407\n        /* \"#utility.yul\":17705:17710   */\n      dup3\n        /* \"#utility.yul\":17687:17711   */\n      tag_408\n      jump\t// in\n    tag_407:\n        /* \"#utility.yul\":17676:17711   */\n      swap1\n      pop\n        /* \"#utility.yul\":17666:17717   */\n      swap2\n      swap1\n      pop\n      jump\t// out\n        /* \"#utility.yul\":17723:17813   */\n    tag_284:\n      0x00\n        /* \"#utility.yul\":17800:17805   */\n      dup2\n        /* \"#utility.yul\":17793:17806   */\n      iszero\n        /* \"#utility.yul\":17786:17807   */\n      iszero\n        /* \"#utility.yul\":17775:17807   */\n      swap1\n      pop\n        /* \"#utility.yul\":17765:17813   */\n      swap2\n      swap1\n      pop\n      jump\t// out\n        /* \"#utility.yul\":17819:17945   */\n    tag_408:\n      0x00\n        /* \"#utility.yul\":17896:17938   */\n      0xffffffffffffffffffffffffffffffffffffffff\n        /* \"#utility.yul\":17889:17894   */\n      dup3\n        /* \"#utility.yul\":17885:17939   */\n      and\n        /* \"#utility.yul\":17874:17939   */\n      swap1\n      pop\n        /* \"#utility.yul\":17864:17945   */\n      swap2\n      swap1\n      pop\n      jump\t// out\n        /* \"#utility.yul\":17951:18028   */\n    tag_349:\n      0x00\n        /* \"#utility.yul\":18017:18022   */\n      dup2\n        /* \"#utility.yul\":18006:18022   */\n      swap1\n      pop\n        /* \"#utility.yul\":17996:18028   */\n      swap2\n      swap1\n      pop\n      jump\t// out\n        /* \"#utility.yul\":18034:18188   */\n    tag_243:\n        /* \"#utility.yul\":18118:18124   */\n      dup3\n        /* \"#utility.yul\":18113:18116   */\n      dup2\n        /* \"#utility.yul\":18108:18111   */\n      dup4\n        /* \"#utility.yul\":18095:18125   */\n      calldatacopy\n        /* \"#utility.yul\":18180:18181   */\n      0x00\n        /* \"#utility.yul\":18171:18177   */\n      dup4\n        /* \"#utility.yul\":18166:18169   */\n      dup4\n        /* \"#utility.yul\":18162:18178   */\n      add\n        /* \"#utility.yul\":18155:18182   */\n      mstore\n        /* \"#utility.yul\":18085:18188   */\n      pop\n      pop\n      pop\n      jump\t// out\n        /* \"#utility.yul\":18194:18501   */\n    tag_292:\n        /* \"#utility.yul\":18262:18263   */\n      0x00\n        /* \"#utility.yul\":18272:18385   */\n    tag_414:\n        /* \"#utility.yul\":18286:18292   */\n      dup4\n        /* \"#utility.yul\":18283:18284   */\n      dup2\n        /* \"#utility.yul\":18280:18293   */\n      lt\n        /* \"#utility.yul\":18272:18385   */\n      iszero\n      tag_416\n      jumpi\n        /* \"#utility.yul\":18371:18372   */\n      dup1\n        /* \"#utility.yul\":18366:18369   */\n      dup3\n        /* \"#utility.yul\":18362:18373   */\n      add\n        /* \"#utility.yul\":18356:18374   */\n      mload\n        /* \"#utility.yul\":18352:18353   */\n      dup2\n        /* \"#utility.yul\":18347:18350   */\n      dup5\n        /* \"#utility.yul\":18343:18354   */\n      add\n        /* \"#utility.yul\":18336:18375   */\n      mstore\n        /* \"#utility.yul\":18308:18310   */\n      0x20\n        /* \"#utility.yul\":18305:18306   */\n      dup2\n        /* \"#utility.yul\":18301:18311   */\n      add\n        /* \"#utility.yul\":18296:18311   */\n      swap1\n      pop\n        /* \"#utility.yul\":18272:18385   */\n      jump(tag_414)\n    tag_416:\n        /* \"#utility.yul\":18403:18409   */\n      dup4\n        /* \"#utility.yul\":18400:18401   */\n      dup2\n        /* \"#utility.yul\":18397:18410   */\n      gt\n        /* \"#utility.yul\":18394:18396   */\n      iszero\n      tag_417\n      jumpi\n        /* \"#utility.yul\":18483:18484   */\n      0x00\n        /* \"#utility.yul\":18474:18480   */\n      dup5\n        /* \"#utility.yul\":18469:18472   */\n      dup5\n        /* \"#utility.yul\":18465:18481   */\n      add\n        /* \"#utility.yul\":18458:18485   */\n      mstore\n        /* \"#utility.yul\":18394:18396   */\n    tag_417:\n        /* \"#utility.yul\":18243:18501   */\n      pop\n      pop\n      pop\n      pop\n      jump\t// out\n        /* \"#utility.yul\":18507:18678   */\n    tag_138:\n      0x00\n        /* \"#utility.yul\":18569:18593   */\n      tag_419\n        /* \"#utility.yul\":18587:18592   */\n      dup3\n        /* \"#utility.yul\":18569:18593   */\n      tag_349\n      jump\t// in\n    tag_419:\n        /* \"#utility.yul\":18560:18593   */\n      swap2\n      pop\n        /* \"#utility.yul\":18615:18619   */\n      0x00\n        /* \"#utility.yul\":18608:18613   */\n      dup3\n        /* \"#utility.yul\":18605:18620   */\n      eq\n        /* \"#utility.yul\":18602:18604   */\n      iszero\n      tag_420\n      jumpi\n        /* \"#utility.yul\":18623:18641   */\n      tag_421\n      tag_405\n      jump\t// in\n    tag_421:\n        /* \"#utility.yul\":18602:18604   */\n    tag_420:\n        /* \"#utility.yul\":18670:18671   */\n      0x01\n        /* \"#utility.yul\":18663:18668   */\n      dup3\n        /* \"#utility.yul\":18659:18672   */\n      sub\n        /* \"#utility.yul\":18652:18672   */\n      swap1\n      pop\n        /* \"#utility.yul\":18550:18678   */\n      swap2\n      swap1\n      pop\n      jump\t// out\n        /* \"#utility.yul\":18684:19004   */\n    tag_86:\n      0x00\n        /* \"#utility.yul\":18765:18766   */\n      0x02\n        /* \"#utility.yul\":18759:18763   */\n      dup3\n        /* \"#utility.yul\":18755:18767   */\n      div\n        /* \"#utility.yul\":18745:18767   */\n      swap1\n      pop\n        /* \"#utility.yul\":18812:18813   */\n      0x01\n        /* \"#utility.yul\":18806:18810   */\n      dup3\n        /* \"#utility.yul\":18802:18814   */\n      and\n        /* \"#utility.yul\":18833:18851   */\n      dup1\n        /* \"#utility.yul\":18823:18825   */\n      tag_423\n      jumpi\n        /* \"#utility.yul\":18889:18893   */\n      0x7f\n        /* \"#utility.yul\":18881:18887   */\n      dup3\n        /* \"#utility.yul\":18877:18894   */\n      and\n        /* \"#utility.yul\":18867:18894   */\n      swap2\n      pop\n        /* \"#utility.yul\":18823:18825   */\n    tag_423:\n        /* \"#utility.yul\":18951:18953   */\n      0x20\n        /* \"#utility.yul\":18943:18949   */\n      dup3\n        /* \"#utility.yul\":18940:18954   */\n      lt\n        /* \"#utility.yul\":18920:18938   */\n      dup2\n        /* \"#utility.yul\":18917:18955   */\n      eq\n        /* \"#utility.yul\":18914:18916   */\n      iszero\n      tag_424\n      jumpi\n        /* \"#utility.yul\":18970:18988   */\n      tag_425\n      tag_426\n      jump\t// in\n    tag_425:\n        /* \"#utility.yul\":18914:18916   */\n    tag_424:\n        /* \"#utility.yul\":18735:19004   */\n      pop\n      swap2\n      swap1\n      pop\n      jump\t// out\n        /* \"#utility.yul\":19010:19243   */\n    tag_211:\n      0x00\n        /* \"#utility.yul\":19072:19096   */\n      tag_428\n        /* \"#utility.yul\":19090:19095   */\n      dup3\n        /* \"#utility.yul\":19072:19096   */\n      tag_349\n      jump\t// in\n    tag_428:\n        /* \"#utility.yul\":19063:19096   */\n      swap2\n      pop\n        /* \"#utility.yul\":19118:19184   */\n      0xffffffffffffffffffffffffffffffffffffffffffffffffffffffffffffffff\n        /* \"#utility.yul\":19111:19116   */\n      dup3\n        /* \"#utility.yul\":19108:19185   */\n      eq\n        /* \"#utility.yul\":19105:19107   */\n      iszero\n      tag_429\n      jumpi\n        /* \"#utility.yul\":19188:19206   */\n      tag_430\n      tag_405\n      jump\t// in\n    tag_430:\n        /* \"#utility.yul\":19105:19107   */\n    tag_429:\n        /* \"#utility.yul\":19235:19236   */\n      0x01\n        /* \"#utility.yul\":19228:19233   */\n      dup3\n        /* \"#utility.yul\":19224:19237   */\n      add\n        /* \"#utility.yul\":19217:19237   */\n      swap1\n      pop\n        /* \"#utility.yul\":19053:19243   */\n      swap2\n      swap1\n      pop\n      jump\t// out\n        /* \"#utility.yul\":19249:19429   */\n    tag_405:\n        /* \"#utility.yul\":19297:19374   */\n      0x4e487b7100000000000000000000000000000000000000000000000000000000\n        /* \"#utility.yul\":19294:19295   */\n      0x00\n        /* \"#utility.yul\":19287:19375   */\n      mstore\n        /* \"#utility.yul\":19394:19398   */\n      0x11\n        /* \"#utility.yul\":19391:19392   */\n      0x04\n        /* \"#utility.yul\":19384:19399   */\n      mstore\n        /* \"#utility.yul\":19418:19422   */\n      0x24\n        /* \"#utility.yul\":19415:19416   */\n      0x00\n        /* \"#utility.yul\":19408:19423   */\n      revert\n        /* \"#utility.yul\":19435:19615   */\n    tag_426:\n        /* \"#utility.yul\":19483:19560   */\n      0x4e487b7100000000000000000000000000000000000000000000000000000000\n        /* \"#utility.yul\":19480:19481   */\n      0x00\n        /* \"#utility.yul\":19473:19561   */\n      mstore\n        /* \"#utility.yul\":19580:19584   */\n      0x22\n        /* \"#utility.yul\":19577:19578   */\n      0x04\n        /* \"#utility.yul\":19570:19585   */\n      mstore\n        /* \"#utility.yul\":19604:19608   */\n      0x24\n        /* \"#utility.yul\":19601:19602   */\n      0x00\n        /* \"#utility.yul\":19594:19609   */\n      revert\n        /* \"#utility.yul\":19621:19801   */\n    tag_392:\n        /* \"#utility.yul\":19669:19746   */\n      0x4e487b7100000000000000000000000000000000000000000000000000000000\n        /* \"#utility.yul\":19666:19667   */\n      0x00\n        /* \"#utility.yul\":19659:19747   */\n      mstore\n        /* \"#utility.yul\":19766:19770   */\n      0x41\n        /* \"#utility.yul\":19763:19764   */\n      0x04\n        /* \"#utility.yul\":19756:19771   */\n      mstore\n        /* \"#utility.yul\":19790:19794   */\n      0x24\n        /* \"#utility.yul\":19787:19788   */\n      0x00\n        /* \"#utility.yul\":19780:19795   */\n      revert\n        /* \"#utility.yul\":19807:19909   */\n    tag_294:\n      0x00\n        /* \"#utility.yul\":19899:19901   */\n      0x1f\n        /* \"#utility.yul\":19895:19902   */\n      not\n        /* \"#utility.yul\":19890:19892   */\n      0x1f\n        /* \"#utility.yul\":19883:19888   */\n      dup4\n        /* \"#utility.yul\":19879:19893   */\n      add\n        /* \"#utility.yul\":19875:19903   */\n      and\n        /* \"#utility.yul\":19865:19903   */\n      swap1\n      pop\n        /* \"#utility.yul\":19855:19909   */\n      swap2\n      swap1\n      pop\n      jump\t// out\n        /* \"#utility.yul\":19915:20031   */\n    tag_247:\n        /* \"#utility.yul\":19985:20006   */\n      tag_436\n        /* \"#utility.yul\":20000:20005   */\n      dup2\n        /* \"#utility.yul\":19985:20006   */\n      tag_284\n      jump\t// in\n    tag_436:\n        /* \"#utility.yul\":19978:19983   */\n      dup2\n        /* \"#utility.yul\":19975:20007   */\n      eq\n        /* \"#utility.yul\":19965:19967   */\n      tag_437\n      jumpi\n        /* \"#utility.yul\":20021:20022   */\n      0x00\n        /* \"#utility.yul\":20018:20019   */\n      dup1\n        /* \"#utility.yul\":20011:20023   */\n      revert\n        /* \"#utility.yul\":19965:19967   */\n    tag_437:\n        /* \"#utility.yul\":19955:20031   */\n      pop\n      jump\t// out\n        /* \"#utility.yul\":20037:20159   */\n    tag_255:\n        /* \"#utility.yul\":20110:20134   */\n      tag_439\n        /* \"#utility.yul\":20128:20133   */\n      dup2\n        /* \"#utility.yul\":20110:20134   */\n      tag_349\n      jump\t// in\n    tag_439:\n        /* \"#utility.yul\":20103:20108   */\n      dup2\n        /* \"#utility.yul\":20100:20135   */\n      eq\n        /* \"#utility.yul\":20090:20092   */\n      tag_440\n      jumpi\n        /* \"#utility.yul\":20149:20150   */\n      0x00\n        /* \"#utility.yul\":20146:20147   */\n      dup1\n        /* \"#utility.yul\":20139:20151   */\n      revert\n        /* \"#utility.yul\":20090:20092   */\n    tag_440:\n        /* \"#utility.yul\":20080:20159   */\n      pop\n      jump\t// out\n\n    auxdata: 0xa2646970667358221220a8f646f706db8e199e56aeb8de76d43a68e5ca2400a609af7c078a5a599c0a2d64736f6c63430008000033\n}\n",
				"bytecode": {
					"linkReferences": {},
					"object": "608060405260016000806101000a81548160ff021916908315150217905550426001553480156200002f57600080fd5b5033600060016101000a81548173ffffffffffffffffffffffffffffffffffffffff021916908373ffffffffffffffffffffffffffffffffffffffff160217905550620000d16040518060400160405280600681526020017f496e6963696f000000000000000000000000000000000000000000000000000081525060405180606001604052806034815260200162002d3460349139620000d760201b60201c565b620008a4565b60008054906101000a900460ff1662000127576040517f08c379a00000000000000000000000000000000000000000000000000000000081526004016200011e9062000724565b60405180910390fd5b62000138826200032160201b60201c565b156200017b576040517f08c379a0000000000000000000000000000000000000000000000000000000008152600401620001729062000702565b60405180910390fd5b60006002600181600181540180825580915050039060005260206000209060040201905060018160000160006101000a81548160ff021916908315150217905550338160000160016101000a81548173ffffffffffffffffffffffffffffffffffffffff021916908373ffffffffffffffffffffffffffffffffffffffff160217905550428160010181905550828160020190805190602001906200022292919062000468565b508060030160405180608001604052806001151581526020013373ffffffffffffffffffffffffffffffffffffffff16815260200142815260200184815250908060018154018082558091505060019003906000526020600020906003020160009091909190915060008201518160000160006101000a81548160ff02191690831515021790555060208201518160000160016101000a81548173ffffffffffffffffffffffffffffffffffffffff021916908373ffffffffffffffffffffffffffffffffffffffff1602179055506040820151816001015560608201518160020190805190602001906200031992919062000468565b505050505050565b600080600090505b6002805490508110156200045d576002818154811062000372577f4e487b7100000000000000000000000000000000000000000000000000000000600052603260045260246000fd5b906000526020600020906004020160000160009054906101000a900460ff1615620004475782604051602001620003aa9190620006d0565b6040516020818303038152906040528051906020012060028281548110620003fb577f4e487b7100000000000000000000000000000000000000000000000000000000600052603260045260246000fd5b90600052602060002090600402016002016040516020016200041e9190620006e9565b6040516020818303038152906040528051906020012014156200044657600191505062000463565b5b80806200045490620007f8565b91505062000329565b50600090505b919050565b8280546200047690620007c2565b90600052602060002090601f0160209004810192826200049a5760008555620004e6565b82601f10620004b557805160ff1916838001178555620004e6565b82800160010185558215620004e6579182015b82811115620004e5578251825591602001919060010190620004c8565b5b509050620004f59190620004f9565b5090565b5b8082111562000514576000816000905550600101620004fa565b5090565b600062000525826200075b565b62000531818562000777565b9350620005438185602086016200078c565b80840191505092915050565b600081546200055e81620007c2565b6200056a818662000777565b945060018216600081146200058857600181146200059a57620005d1565b60ff19831686528186019350620005d1565b620005a58562000746565b60005b83811015620005c957815481890152600182019150602081019050620005a8565b838801955050505b50505092915050565b6000620005e960268362000766565b91507f4a612065786973746520706167696e6120617469766120636f6d20657374652060008301527f746974756c6f00000000000000000000000000000000000000000000000000006020830152604082019050919050565b60006200065160478362000766565b91507f412061646963616f206465206e6f76617320706167696e617320736f2065207060008301527f65726d6974696461207175616e646f206120426c6f636b70656469612065737460208301527f61206174697661000000000000000000000000000000000000000000000000006040830152606082019050919050565b6000620006de828462000518565b915081905092915050565b6000620006f782846200054f565b915081905092915050565b600060208201905081810360008301526200071d81620005da565b9050919050565b600060208201905081810360008301526200073f8162000642565b9050919050565b60008190508160005260206000209050919050565b600081519050919050565b600082825260208201905092915050565b600081905092915050565b6000819050919050565b60005b83811015620007ac5780820151818401526020810190506200078f565b83811115620007bc576000848401525b50505050565b60006002820490506001821680620007db57607f821691505b60208210811415620007f257620007f162000875565b5b50919050565b6000620008058262000782565b91507fffffffffffffffffffffffffffffffffffffffffffffffffffffffffffffffff8214156200083b576200083a62000846565b5b600182019050919050565b7f4e487b7100000000000000000000000000000000000000000000000000000000600052601160045260246000fd5b7f4e487b7100000000000000000000000000000000000000000000000000000000600052602260045260246000fd5b61248080620008b46000396000f3fe608060405234801561001057600080fd5b50600436106100a95760003560e01c806395be551a1161007157806395be551a14610152578063a18cc13b1461016e578063aa83581f1461018c578063d4d23a6e146101a8578063d616c9f0146101c4578063e7d4296a146101e0576100a9565b80630694952d146100ae5780631509d30c146100cc5780631c18379a146100e85780634d7e6726146101045780636f70a52e14610134575b600080fd5b6100b6610213565b6040516100c39190611f5f565b60405180910390f35b6100e660048036038101906100e19190611845565b610239565b005b61010260048036038101906100fd919061186e565b6102e5565b005b61011e600480360381019061011991906118da565b61051d565b60405161012b9190611fe1565b60405180910390f35b61013c610845565b6040516101499190612163565b60405180910390f35b61016c60048036038101906101679190611957565b61084b565b005b610176610d42565b6040516101839190611f7a565b60405180910390f35b6101a660048036038101906101a191906118da565b610d53565b005b6101c260048036038101906101bd9190611903565b610fce565b005b6101de60048036038101906101d991906118da565b61123c565b005b6101fa60048036038101906101f591906118da565b61139a565b60405161020a9493929190611f95565b60405180910390f35b600060019054906101000a900473ffffffffffffffffffffffffffffffffffffffff1681565b600060019054906101000a900473ffffffffffffffffffffffffffffffffffffffff1673ffffffffffffffffffffffffffffffffffffffff163373ffffffffffffffffffffffffffffffffffffffff16146102c9576040517f08c379a00000000000000000000000000000000000000000000000000000000081526004016102c090612123565b60405180910390fd5b806000806101000a81548160ff02191690831515021790555050565b60008054906101000a900460ff16610332576040517f08c379a000000000000000000000000000000000000000000000000000000000815260040161032990612143565b60405180910390fd5b61033b8261148f565b1561037b576040517f08c379a0000000000000000000000000000000000000000000000000000000008152600401610372906120e3565b60405180910390fd5b60006002600181600181540180825580915050039060005260206000209060040201905060018160000160006101000a81548160ff021916908315150217905550338160000160016101000a81548173ffffffffffffffffffffffffffffffffffffffff021916908373ffffffffffffffffffffffffffffffffffffffff160217905550428160010181905550828160020190805190602001906104209291906116d0565b508060030160405180608001604052806001151581526020013373ffffffffffffffffffffffffffffffffffffffff16815260200142815260200184815250908060018154018082558091505060019003906000526020600020906003020160009091909190915060008201518160000160006101000a81548160ff02191690831515021790555060208201518160000160016101000a81548173ffffffffffffffffffffffffffffffffffffffff021916908373ffffffffffffffffffffffffffffffffffffffff1602179055506040820151816001015560608201518160020190805190602001906105159291906116d0565b505050505050565b60606002805490508210610566576040517f08c379a000000000000000000000000000000000000000000000000000000000815260040161055d90612083565b60405180910390fd5b61083a600283815481106105a3577f4e487b7100000000000000000000000000000000000000000000000000000000600052603260045260246000fd5b90600052602060002090600402016040518060a00160405290816000820160009054906101000a900460ff161515151581526020016000820160019054906101000a900473ffffffffffffffffffffffffffffffffffffffff1673ffffffffffffffffffffffffffffffffffffffff1673ffffffffffffffffffffffffffffffffffffffff1681526020016001820154815260200160028201805461064790612303565b80601f016020809104026020016040519081016040528092919081815260200182805461067390612303565b80156106c05780601f10610695576101008083540402835291602001916106c0565b820191906000526020600020905b8154815290600101906020018083116106a357829003601f168201915b5050505050815260200160038201805480602002602001604051908101604052809291908181526020016000905b8282101561082d57838290600052602060002090600302016040518060800160405290816000820160009054906101000a900460ff161515151581526020016000820160019054906101000a900473ffffffffffffffffffffffffffffffffffffffff1673ffffffffffffffffffffffffffffffffffffffff1673ffffffffffffffffffffffffffffffffffffffff1681526020016001820154815260200160028201805461079c90612303565b80601f01602080910402602001604051908101604052809291908181526020018280546107c890612303565b80156108155780601f106107ea57610100808354040283529160200191610815565b820191906000526020600020905b8154815290600101906020018083116107f857829003601f168201915b505050505081525050815260200190600101906106ee565b50505050815250506115c9565b606001519050919050565b60015481565b60008054906101000a900460ff16610898576040517f08c379a000000000000000000000000000000000000000000000000000000000815260040161088f90612143565b60405180910390fd5b60028054905082106108df576040517f08c379a00000000000000000000000000000000000000000000000000000000081526004016108d690612103565b60405180910390fd5b60028281548110610919577f4e487b7100000000000000000000000000000000000000000000000000000000600052603260045260246000fd5b906000526020600020906004020160000160009054906101000a900460ff16610977576040517f08c379a000000000000000000000000000000000000000000000000000000000815260040161096e90612063565b60405180910390fd5b600282815481106109b1577f4e487b7100000000000000000000000000000000000000000000000000000000600052603260045260246000fd5b9060005260206000209060040201600301805490508110610a07576040517f08c379a00000000000000000000000000000000000000000000000000000000081526004016109fe906120c3565b60405180910390fd5b60028281548110610a41577f4e487b7100000000000000000000000000000000000000000000000000000000600052603260045260246000fd5b90600052602060002090600402016003018181548110610a8a577f4e487b7100000000000000000000000000000000000000000000000000000000600052603260045260246000fd5b906000526020600020906003020160000160009054906101000a900460ff1615610ab357610d3e565b600060028381548110610aef577f4e487b7100000000000000000000000000000000000000000000000000000000600052603260045260246000fd5b90600052602060002090600402016003018054905090505b6000811115610c8f576000600182610b1f919061221b565b905060028481548110610b5b577f4e487b7100000000000000000000000000000000000000000000000000000000600052603260045260246000fd5b90600052602060002090600402016003018181548110610ba4577f4e487b7100000000000000000000000000000000000000000000000000000000600052603260045260246000fd5b906000526020600020906003020160000160009054906101000a900460ff1615610c7b57600060028581548110610c04577f4e487b7100000000000000000000000000000000000000000000000000000000600052603260045260246000fd5b90600052602060002090600402016003018281548110610c4d577f4e487b7100000000000000000000000000000000000000000000000000000000600052603260045260246000fd5b906000526020600020906003020160000160006101000a81548160ff02191690831515021790555050610c8f565b508080610c87906122d9565b915050610b07565b50600160028381548110610ccc577f4e487b7100000000000000000000000000000000000000000000000000000000600052603260045260246000fd5b90600052602060002090600402016003018281548110610d15577f4e487b7100000000000000000000000000000000000000000000000000000000600052603260045260246000fd5b906000526020600020906003020160000160006101000a81548160ff0219169083151502179055505b5050565b60008054906101000a900460ff1681565b60008054906101000a900460ff16610da0576040517f08c379a0000000000000000000000000000000000000000000000000000000008152600401610d97906120a3565b60405180910390fd5b6002805490508110610de7576040517f08c379a0000000000000000000000000000000000000000000000000000000008152600401610dde90612103565b60405180910390fd5b610ec360028281548110610e24577f4e487b7100000000000000000000000000000000000000000000000000000000600052603260045260246000fd5b90600052602060002090600402016002018054610e4090612303565b80601f0160208091040260200160405190810160405280929190818152602001828054610e6c90612303565b8015610eb95780601f10610e8e57610100808354040283529160200191610eb9565b820191906000526020600020905b815481529060010190602001808311610e9c57829003601f168201915b505050505061148f565b15610f03576040517f08c379a0000000000000000000000000000000000000000000000000000000008152600401610efa906120e3565b60405180910390fd5b60028181548110610f3d577f4e487b7100000000000000000000000000000000000000000000000000000000600052603260045260246000fd5b906000526020600020906004020160000160009054906101000a900460ff1615610f6657610fcb565b600160028281548110610fa2577f4e487b7100000000000000000000000000000000000000000000000000000000600052603260045260246000fd5b906000526020600020906004020160000160006101000a81548160ff0219169083151502179055505b50565b60008054906101000a900460ff1661101b576040517f08c379a000000000000000000000000000000000000000000000000000000000815260040161101290612143565b60405180910390fd5b6002805490508210611062576040517f08c379a000000000000000000000000000000000000000000000000000000000815260040161105990612083565b60405180910390fd5b6002828154811061109c577f4e487b7100000000000000000000000000000000000000000000000000000000600052603260045260246000fd5b906000526020600020906004020160000160009054906101000a900460ff166110fa576040517f08c379a00000000000000000000000000000000000000000000000000000000081526004016110f190612023565b60405180910390fd5b60028281548110611134577f4e487b7100000000000000000000000000000000000000000000000000000000600052603260045260246000fd5b906000526020600020906004020160030160405180608001604052806000151581526020013373ffffffffffffffffffffffffffffffffffffffff16815260200142815260200183815250908060018154018082558091505060019003906000526020600020906003020160009091909190915060008201518160000160006101000a81548160ff02191690831515021790555060208201518160000160016101000a81548173ffffffffffffffffffffffffffffffffffffffff021916908373ffffffffffffffffffffffffffffffffffffffff1602179055506040820151816001015560608201518160020190805190602001906112359291906116d0565b5050505050565b60008054906101000a900460ff16611289576040517f08c379a000000000000000000000000000000000000000000000000000000000815260040161128090612043565b60405180910390fd5b60028054905081106112d0576040517f08c379a00000000000000000000000000000000000000000000000000000000081526004016112c790612103565b60405180910390fd5b6002818154811061130a577f4e487b7100000000000000000000000000000000000000000000000000000000600052603260045260246000fd5b906000526020600020906004020160000160009054906101000a900460ff1661133257611397565b60006002828154811061136e577f4e487b7100000000000000000000000000000000000000000000000000000000600052603260045260246000fd5b906000526020600020906004020160000160006101000a81548160ff0219169083151502179055505b50565b600281815481106113aa57600080fd5b90600052602060002090600402016000915090508060000160009054906101000a900460ff16908060000160019054906101000a900473ffffffffffffffffffffffffffffffffffffffff169080600101549080600201805461140c90612303565b80601f016020809104026020016040519081016040528092919081815260200182805461143890612303565b80156114855780601f1061145a57610100808354040283529160200191611485565b820191906000526020600020905b81548152906001019060200180831161146857829003601f168201915b5050505050905084565b600080600090505b6002805490508110156115be57600281815481106114de577f4e487b7100000000000000000000000000000000000000000000000000000000600052603260045260246000fd5b906000526020600020906004020160000160009054906101000a900460ff16156115ab57826040516020016115139190611f31565b6040516020818303038152906040528051906020012060028281548110611563577f4e487b7100000000000000000000000000000000000000000000000000000000600052603260045260246000fd5b90600052602060002090600402016002016040516020016115849190611f48565b6040516020818303038152906040528051906020012014156115aa5760019150506115c4565b5b80806115b690612335565b915050611497565b50600090505b919050565b6115d1611756565b60005b82608001515181101561168f578260800151818151811061161e577f4e487b7100000000000000000000000000000000000000000000000000000000600052603260045260246000fd5b6020026020010151600001511561167c578260800151818151811061166c577f4e487b7100000000000000000000000000000000000000000000000000000000600052603260045260246000fd5b60200260200101519150506116cb565b808061168790612335565b9150506115d4565b506040517f08c379a00000000000000000000000000000000000000000000000000000000081526004016116c290612003565b60405180910390fd5b919050565b8280546116dc90612303565b90600052602060002090601f0160209004810192826116fe5760008555611745565b82601f1061171757805160ff1916838001178555611745565b82800160010185558215611745579182015b82811115611744578251825591602001919060010190611729565b5b5090506117529190611796565b5090565b6040518060800160405280600015158152602001600073ffffffffffffffffffffffffffffffffffffffff16815260200160008152602001606081525090565b5b808211156117af576000816000905550600101611797565b5090565b60006117c66117c1846121af565b61217e565b9050828152602081018484840111156117de57600080fd5b6117e9848285612297565b509392505050565b6000813590506118008161241c565b92915050565b600082601f83011261181757600080fd5b81356118278482602086016117b3565b91505092915050565b60008135905061183f81612433565b92915050565b60006020828403121561185757600080fd5b6000611865848285016117f1565b91505092915050565b6000806040838503121561188157600080fd5b600083013567ffffffffffffffff81111561189b57600080fd5b6118a785828601611806565b925050602083013567ffffffffffffffff8111156118c457600080fd5b6118d085828601611806565b9150509250929050565b6000602082840312156118ec57600080fd5b60006118fa84828501611830565b91505092915050565b6000806040838503121561191657600080fd5b600061192485828601611830565b925050602083013567ffffffffffffffff81111561194157600080fd5b61194d85828601611806565b9150509250929050565b6000806040838503121561196a57600080fd5b600061197885828601611830565b925050602061198985828601611830565b9150509250929050565b61199c8161224f565b82525050565b6119ab81612261565b82525050565b60006119bc826121f4565b6119c681856121ff565b93506119d68185602086016122a6565b6119df8161240b565b840191505092915050565b60006119f5826121f4565b6119ff8185612210565b9350611a0f8185602086016122a6565b80840191505092915050565b60008154611a2881612303565b611a328186612210565b94506001821660008114611a4d5760018114611a5e57611a91565b60ff19831686528186019350611a91565b611a67856121df565b60005b83811015611a8957815481890152600182019150602081019050611a6a565b838801955050505b50505092915050565b6000611aa76030836121ff565b91507f4e656e68756d612076657263616f20617469766120656e636f6e74726164612060008301527f70617261206573746120706167696e61000000000000000000000000000000006020830152604082019050919050565b6000611b0d6043836121ff565b91507f412061646963616f206465206e6f76617320766572636f657320736f2065207060008301527f65726d6974696461207175616e646f206120706167696e61206573746120617460208301527f69766100000000000000000000000000000000000000000000000000000000006040830152606082019050919050565b6000611b996046836121ff565b91507f4120646573617469766163616f20646520706167696e617320736f206520706560008301527f726d6974696461207175616e646f206120426c6f636b7065646961206573746160208301527f20617469766100000000000000000000000000000000000000000000000000006040830152606082019050919050565b6000611c25603f836121ff565b91507f4120616c7465726163616f2064652076657273616f20736f2065207065726d6960008301527f74696461207175616e646f206120706167696e612065737461206174697661006020830152604082019050919050565b6000611c8b6016836121ff565b91507f496e6469636520666f726120646f20616c63616e6365000000000000000000006000830152602082019050919050565b6000611ccb6043836121ff565b91507f4120617469766163616f20646520706167696e617320736f2065207065726d6960008301527f74696461207175616e646f206120426c6f636b7065646961206573746120617460208301527f69766100000000000000000000000000000000000000000000000000000000006040830152606082019050919050565b6000611d576020836121ff565b91507f496e646963652064612076657273616f20666f726120646f20616c63616e63656000830152602082019050919050565b6000611d976026836121ff565b91507f4a612065786973746520706167696e6120617469766120636f6d20657374652060008301527f746974756c6f00000000000000000000000000000000000000000000000000006020830152604082019050919050565b6000611dfd6020836121ff565b91507f496e6469636520646120706167696e6120666f726120646f20616c63616e63656000830152602082019050919050565b6000611e3d603d836121ff565b91507f536f6d656e7465206f20646f6e6f20646573746120426c6f636b70656469612060008301527f706f646520616c7465726172206f20617472696275746f20617469766f0000006020830152604082019050919050565b6000611ea36047836121ff565b91507f412061646963616f206465206e6f76617320706167696e617320736f2065207060008301527f65726d6974696461207175616e646f206120426c6f636b70656469612065737460208301527f61206174697661000000000000000000000000000000000000000000000000006040830152606082019050919050565b611f2b8161228d565b82525050565b6000611f3d82846119ea565b915081905092915050565b6000611f548284611a1b565b915081905092915050565b6000602082019050611f746000830184611993565b92915050565b6000602082019050611f8f60008301846119a2565b92915050565b6000608082019050611faa60008301876119a2565b611fb76020830186611993565b611fc46040830185611f22565b8181036060830152611fd681846119b1565b905095945050505050565b60006020820190508181036000830152611ffb81846119b1565b905092915050565b6000602082019050818103600083015261201c81611a9a565b9050919050565b6000602082019050818103600083015261203c81611b00565b9050919050565b6000602082019050818103600083015261205c81611b8c565b9050919050565b6000602082019050818103600083015261207c81611c18565b9050919050565b6000602082019050818103600083015261209c81611c7e565b9050919050565b600060208201905081810360008301526120bc81611cbe565b9050919050565b600060208201905081810360008301526120dc81611d4a565b9050919050565b600060208201905081810360008301526120fc81611d8a565b9050919050565b6000602082019050818103600083015261211c81611df0565b9050919050565b6000602082019050818103600083015261213c81611e30565b9050919050565b6000602082019050818103600083015261215c81611e96565b9050919050565b60006020820190506121786000830184611f22565b92915050565b6000604051905081810181811067ffffffffffffffff821117156121a5576121a46123dc565b5b8060405250919050565b600067ffffffffffffffff8211156121ca576121c96123dc565b5b601f19601f8301169050602081019050919050565b60008190508160005260206000209050919050565b600081519050919050565b600082825260208201905092915050565b600081905092915050565b60006122268261228d565b91506122318361228d565b9250828210156122445761224361237e565b5b828203905092915050565b600061225a8261226d565b9050919050565b60008115159050919050565b600073ffffffffffffffffffffffffffffffffffffffff82169050919050565b6000819050919050565b82818337600083830152505050565b60005b838110156122c45780820151818401526020810190506122a9565b838111156122d3576000848401525b50505050565b60006122e48261228d565b915060008214156122f8576122f761237e565b5b600182039050919050565b6000600282049050600182168061231b57607f821691505b6020821081141561232f5761232e6123ad565b5b50919050565b60006123408261228d565b91507fffffffffffffffffffffffffffffffffffffffffffffffffffffffffffffffff8214156123735761237261237e565b5b600182019050919050565b7f4e487b7100000000000000000000000000000000000000000000000000000000600052601160045260246000fd5b7f4e487b7100000000000000000000000000000000000000000000000000000000600052602260045260246000fd5b7f4e487b7100000000000000000000000000000000000000000000000000000000600052604160045260246000fd5b6000601f19601f8301169050919050565b61242581612261565b811461243057600080fd5b50565b61243c8161228d565b811461244757600080fd5b5056fea2646970667358221220a8f646f706db8e199e56aeb8de76d43a68e5ca2400a609af7c078a5a599c0a2d64736f6c6343000800003342656d2076696e646f206120426c6f636b70656964612c206120656e6369636c6f7065646961206e6120626c6f636b636861696e",
					"opcodes": "PUSH1 0x80 PUSH1 0x40 MSTORE PUSH1 0x1 PUSH1 0x0 DUP1 PUSH2 0x100 EXP DUP2 SLOAD DUP2 PUSH1 0xFF MUL NOT AND SWAP1 DUP4 ISZERO ISZERO MUL OR SWAP1 SSTORE POP TIMESTAMP PUSH1 0x1 SSTORE CALLVALUE DUP1 ISZERO PUSH3 0x2F JUMPI PUSH1 0x0 DUP1 REVERT JUMPDEST POP CALLER PUSH1 0x0 PUSH1 0x1 PUSH2 0x100 EXP DUP2 SLOAD DUP2 PUSH20 0xFFFFFFFFFFFFFFFFFFFFFFFFFFFFFFFFFFFFFFFF MUL NOT AND SWAP1 DUP4 PUSH20 0xFFFFFFFFFFFFFFFFFFFFFFFFFFFFFFFFFFFFFFFF AND MUL OR SWAP1 SSTORE POP PUSH3 0xD1 PUSH1 0x40 MLOAD DUP1 PUSH1 0x40 ADD PUSH1 0x40 MSTORE DUP1 PUSH1 0x6 DUP2 MSTORE PUSH1 0x20 ADD PUSH32 0x496E6963696F0000000000000000000000000000000000000000000000000000 DUP2 MSTORE POP PUSH1 0x40 MLOAD DUP1 PUSH1 0x60 ADD PUSH1 0x40 MSTORE DUP1 PUSH1 0x34 DUP2 MSTORE PUSH1 0x20 ADD PUSH3 0x2D34 PUSH1 0x34 SWAP2 CODECOPY PUSH3 0xD7 PUSH1 0x20 SHL PUSH1 0x20 SHR JUMP JUMPDEST PUSH3 0x8A4 JUMP JUMPDEST PUSH1 0x0 DUP1 SLOAD SWAP1 PUSH2 0x100 EXP SWAP1 DIV PUSH1 0xFF AND PUSH3 0x127 JUMPI PUSH1 0x40 MLOAD PUSH32 0x8C379A000000000000000000000000000000000000000000000000000000000 DUP2 MSTORE PUSH1 0x4 ADD PUSH3 0x11E SWAP1 PUSH3 0x724 JUMP JUMPDEST PUSH1 0x40 MLOAD DUP1 SWAP2 SUB SWAP1 REVERT JUMPDEST PUSH3 0x138 DUP3 PUSH3 0x321 PUSH1 0x20 SHL PUSH1 0x20 SHR JUMP JUMPDEST ISZERO PUSH3 0x17B JUMPI PUSH1 0x40 MLOAD PUSH32 0x8C379A000000000000000000000000000000000000000000000000000000000 DUP2 MSTORE PUSH1 0x4 ADD PUSH3 0x172 SWAP1 PUSH3 0x702 JUMP JUMPDEST PUSH1 0x40 MLOAD DUP1 SWAP2 SUB SWAP1 REVERT JUMPDEST PUSH1 0x0 PUSH1 0x2 PUSH1 0x1 DUP2 PUSH1 0x1 DUP2 SLOAD ADD DUP1 DUP3 SSTORE DUP1 SWAP2 POP POP SUB SWAP1 PUSH1 0x0 MSTORE PUSH1 0x20 PUSH1 0x0 KECCAK256 SWAP1 PUSH1 0x4 MUL ADD SWAP1 POP PUSH1 0x1 DUP2 PUSH1 0x0 ADD PUSH1 0x0 PUSH2 0x100 EXP DUP2 SLOAD DUP2 PUSH1 0xFF MUL NOT AND SWAP1 DUP4 ISZERO ISZERO MUL OR SWAP1 SSTORE POP CALLER DUP2 PUSH1 0x0 ADD PUSH1 0x1 PUSH2 0x100 EXP DUP2 SLOAD DUP2 PUSH20 0xFFFFFFFFFFFFFFFFFFFFFFFFFFFFFFFFFFFFFFFF MUL NOT AND SWAP1 DUP4 PUSH20 0xFFFFFFFFFFFFFFFFFFFFFFFFFFFFFFFFFFFFFFFF AND MUL OR SWAP1 SSTORE POP TIMESTAMP DUP2 PUSH1 0x1 ADD DUP2 SWAP1 SSTORE POP DUP3 DUP2 PUSH1 0x2 ADD SWAP1 DUP1 MLOAD SWAP1 PUSH1 0x20 ADD SWAP1 PUSH3 0x222 SWAP3 SWAP2 SWAP1 PUSH3 0x468 JUMP JUMPDEST POP DUP1 PUSH1 0x3 ADD PUSH1 0x40 MLOAD DUP1 PUSH1 0x80 ADD PUSH1 0x40 MSTORE DUP1 PUSH1 0x1 ISZERO ISZERO DUP2 MSTORE PUSH1 0x20 ADD CALLER PUSH20 0xFFFFFFFFFFFFFFFFFFFFFFFFFFFFFFFFFFFFFFFF AND DUP2 MSTORE PUSH1 0x20 ADD TIMESTAMP DUP2 MSTORE PUSH1 0x20 ADD DUP5 DUP2 MSTORE POP SWAP1 DUP1 PUSH1 0x1 DUP2 SLOAD ADD DUP1 DUP3 SSTORE DUP1 SWAP2 POP POP PUSH1 0x1 SWAP1 SUB SWAP1 PUSH1 0x0 MSTORE PUSH1 0x20 PUSH1 0x0 KECCAK256 SWAP1 PUSH1 0x3 MUL ADD PUSH1 0x0 SWAP1 SWAP2 SWAP1 SWAP2 SWAP1 SWAP2 POP PUSH1 0x0 DUP3 ADD MLOAD DUP2 PUSH1 0x0 ADD PUSH1 0x0 PUSH2 0x100 EXP DUP2 SLOAD DUP2 PUSH1 0xFF MUL NOT AND SWAP1 DUP4 ISZERO ISZERO MUL OR SWAP1 SSTORE POP PUSH1 0x20 DUP3 ADD MLOAD DUP2 PUSH1 0x0 ADD PUSH1 0x1 PUSH2 0x100 EXP DUP2 SLOAD DUP2 PUSH20 0xFFFFFFFFFFFFFFFFFFFFFFFFFFFFFFFFFFFFFFFF MUL NOT AND SWAP1 DUP4 PUSH20 0xFFFFFFFFFFFFFFFFFFFFFFFFFFFFFFFFFFFFFFFF AND MUL OR SWAP1 SSTORE POP PUSH1 0x40 DUP3 ADD MLOAD DUP2 PUSH1 0x1 ADD SSTORE PUSH1 0x60 DUP3 ADD MLOAD DUP2 PUSH1 0x2 ADD SWAP1 DUP1 MLOAD SWAP1 PUSH1 0x20 ADD SWAP1 PUSH3 0x319 SWAP3 SWAP2 SWAP1 PUSH3 0x468 JUMP JUMPDEST POP POP POP POP POP POP JUMP JUMPDEST PUSH1 0x0 DUP1 PUSH1 0x0 SWAP1 POP JUMPDEST PUSH1 0x2 DUP1 SLOAD SWAP1 POP DUP2 LT ISZERO PUSH3 0x45D JUMPI PUSH1 0x2 DUP2 DUP2 SLOAD DUP2 LT PUSH3 0x372 JUMPI PUSH32 0x4E487B7100000000000000000000000000000000000000000000000000000000 PUSH1 0x0 MSTORE PUSH1 0x32 PUSH1 0x4 MSTORE PUSH1 0x24 PUSH1 0x0 REVERT JUMPDEST SWAP1 PUSH1 0x0 MSTORE PUSH1 0x20 PUSH1 0x0 KECCAK256 SWAP1 PUSH1 0x4 MUL ADD PUSH1 0x0 ADD PUSH1 0x0 SWAP1 SLOAD SWAP1 PUSH2 0x100 EXP SWAP1 DIV PUSH1 0xFF AND ISZERO PUSH3 0x447 JUMPI DUP3 PUSH1 0x40 MLOAD PUSH1 0x20 ADD PUSH3 0x3AA SWAP2 SWAP1 PUSH3 0x6D0 JUMP JUMPDEST PUSH1 0x40 MLOAD PUSH1 0x20 DUP2 DUP4 SUB SUB DUP2 MSTORE SWAP1 PUSH1 0x40 MSTORE DUP1 MLOAD SWAP1 PUSH1 0x20 ADD KECCAK256 PUSH1 0x2 DUP3 DUP2 SLOAD DUP2 LT PUSH3 0x3FB JUMPI PUSH32 0x4E487B7100000000000000000000000000000000000000000000000000000000 PUSH1 0x0 MSTORE PUSH1 0x32 PUSH1 0x4 MSTORE PUSH1 0x24 PUSH1 0x0 REVERT JUMPDEST SWAP1 PUSH1 0x0 MSTORE PUSH1 0x20 PUSH1 0x0 KECCAK256 SWAP1 PUSH1 0x4 MUL ADD PUSH1 0x2 ADD PUSH1 0x40 MLOAD PUSH1 0x20 ADD PUSH3 0x41E SWAP2 SWAP1 PUSH3 0x6E9 JUMP JUMPDEST PUSH1 0x40 MLOAD PUSH1 0x20 DUP2 DUP4 SUB SUB DUP2 MSTORE SWAP1 PUSH1 0x40 MSTORE DUP1 MLOAD SWAP1 PUSH1 0x20 ADD KECCAK256 EQ ISZERO PUSH3 0x446 JUMPI PUSH1 0x1 SWAP2 POP POP PUSH3 0x463 JUMP JUMPDEST JUMPDEST DUP1 DUP1 PUSH3 0x454 SWAP1 PUSH3 0x7F8 JUMP JUMPDEST SWAP2 POP POP PUSH3 0x329 JUMP JUMPDEST POP PUSH1 0x0 SWAP1 POP JUMPDEST SWAP2 SWAP1 POP JUMP JUMPDEST DUP3 DUP1 SLOAD PUSH3 0x476 SWAP1 PUSH3 0x7C2 JUMP JUMPDEST SWAP1 PUSH1 0x0 MSTORE PUSH1 0x20 PUSH1 0x0 KECCAK256 SWAP1 PUSH1 0x1F ADD PUSH1 0x20 SWAP1 DIV DUP2 ADD SWAP3 DUP3 PUSH3 0x49A JUMPI PUSH1 0x0 DUP6 SSTORE PUSH3 0x4E6 JUMP JUMPDEST DUP3 PUSH1 0x1F LT PUSH3 0x4B5 JUMPI DUP1 MLOAD PUSH1 0xFF NOT AND DUP4 DUP1 ADD OR DUP6 SSTORE PUSH3 0x4E6 JUMP JUMPDEST DUP3 DUP1 ADD PUSH1 0x1 ADD DUP6 SSTORE DUP3 ISZERO PUSH3 0x4E6 JUMPI SWAP2 DUP3 ADD JUMPDEST DUP3 DUP2 GT ISZERO PUSH3 0x4E5 JUMPI DUP3 MLOAD DUP3 SSTORE SWAP2 PUSH1 0x20 ADD SWAP2 SWAP1 PUSH1 0x1 ADD SWAP1 PUSH3 0x4C8 JUMP JUMPDEST JUMPDEST POP SWAP1 POP PUSH3 0x4F5 SWAP2 SWAP1 PUSH3 0x4F9 JUMP JUMPDEST POP SWAP1 JUMP JUMPDEST JUMPDEST DUP1 DUP3 GT ISZERO PUSH3 0x514 JUMPI PUSH1 0x0 DUP2 PUSH1 0x0 SWAP1 SSTORE POP PUSH1 0x1 ADD PUSH3 0x4FA JUMP JUMPDEST POP SWAP1 JUMP JUMPDEST PUSH1 0x0 PUSH3 0x525 DUP3 PUSH3 0x75B JUMP JUMPDEST PUSH3 0x531 DUP2 DUP6 PUSH3 0x777 JUMP JUMPDEST SWAP4 POP PUSH3 0x543 DUP2 DUP6 PUSH1 0x20 DUP7 ADD PUSH3 0x78C JUMP JUMPDEST DUP1 DUP5 ADD SWAP2 POP POP SWAP3 SWAP2 POP POP JUMP JUMPDEST PUSH1 0x0 DUP2 SLOAD PUSH3 0x55E DUP2 PUSH3 0x7C2 JUMP JUMPDEST PUSH3 0x56A DUP2 DUP7 PUSH3 0x777 JUMP JUMPDEST SWAP5 POP PUSH1 0x1 DUP3 AND PUSH1 0x0 DUP2 EQ PUSH3 0x588 JUMPI PUSH1 0x1 DUP2 EQ PUSH3 0x59A JUMPI PUSH3 0x5D1 JUMP JUMPDEST PUSH1 0xFF NOT DUP4 AND DUP7 MSTORE DUP2 DUP7 ADD SWAP4 POP PUSH3 0x5D1 JUMP JUMPDEST PUSH3 0x5A5 DUP6 PUSH3 0x746 JUMP JUMPDEST PUSH1 0x0 JUMPDEST DUP4 DUP2 LT ISZERO PUSH3 0x5C9 JUMPI DUP2 SLOAD DUP2 DUP10 ADD MSTORE PUSH1 0x1 DUP3 ADD SWAP2 POP PUSH1 0x20 DUP2 ADD SWAP1 POP PUSH3 0x5A8 JUMP JUMPDEST DUP4 DUP9 ADD SWAP6 POP POP POP JUMPDEST POP POP POP SWAP3 SWAP2 POP POP JUMP JUMPDEST PUSH1 0x0 PUSH3 0x5E9 PUSH1 0x26 DUP4 PUSH3 0x766 JUMP JUMPDEST SWAP2 POP PUSH32 0x4A612065786973746520706167696E6120617469766120636F6D206573746520 PUSH1 0x0 DUP4 ADD MSTORE PUSH32 0x746974756C6F0000000000000000000000000000000000000000000000000000 PUSH1 0x20 DUP4 ADD MSTORE PUSH1 0x40 DUP3 ADD SWAP1 POP SWAP2 SWAP1 POP JUMP JUMPDEST PUSH1 0x0 PUSH3 0x651 PUSH1 0x47 DUP4 PUSH3 0x766 JUMP JUMPDEST SWAP2 POP PUSH32 0x412061646963616F206465206E6F76617320706167696E617320736F20652070 PUSH1 0x0 DUP4 ADD MSTORE PUSH32 0x65726D6974696461207175616E646F206120426C6F636B706564696120657374 PUSH1 0x20 DUP4 ADD MSTORE PUSH32 0x6120617469766100000000000000000000000000000000000000000000000000 PUSH1 0x40 DUP4 ADD MSTORE PUSH1 0x60 DUP3 ADD SWAP1 POP SWAP2 SWAP1 POP JUMP JUMPDEST PUSH1 0x0 PUSH3 0x6DE DUP3 DUP5 PUSH3 0x518 JUMP JUMPDEST SWAP2 POP DUP2 SWAP1 POP SWAP3 SWAP2 POP POP JUMP JUMPDEST PUSH1 0x0 PUSH3 0x6F7 DUP3 DUP5 PUSH3 0x54F JUMP JUMPDEST SWAP2 POP DUP2 SWAP1 POP SWAP3 SWAP2 POP POP JUMP JUMPDEST PUSH1 0x0 PUSH1 0x20 DUP3 ADD SWAP1 POP DUP2 DUP2 SUB PUSH1 0x0 DUP4 ADD MSTORE PUSH3 0x71D DUP2 PUSH3 0x5DA JUMP JUMPDEST SWAP1 POP SWAP2 SWAP1 POP JUMP JUMPDEST PUSH1 0x0 PUSH1 0x20 DUP3 ADD SWAP1 POP DUP2 DUP2 SUB PUSH1 0x0 DUP4 ADD MSTORE PUSH3 0x73F DUP2 PUSH3 0x642 JUMP JUMPDEST SWAP1 POP SWAP2 SWAP1 POP JUMP JUMPDEST PUSH1 0x0 DUP2 SWAP1 POP DUP2 PUSH1 0x0 MSTORE PUSH1 0x20 PUSH1 0x0 KECCAK256 SWAP1 POP SWAP2 SWAP1 POP JUMP JUMPDEST PUSH1 0x0 DUP2 MLOAD SWAP1 POP SWAP2 SWAP1 POP JUMP JUMPDEST PUSH1 0x0 DUP3 DUP3 MSTORE PUSH1 0x20 DUP3 ADD SWAP1 POP SWAP3 SWAP2 POP POP JUMP JUMPDEST PUSH1 0x0 DUP2 SWAP1 POP SWAP3 SWAP2 POP POP JUMP JUMPDEST PUSH1 0x0 DUP2 SWAP1 POP SWAP2 SWAP1 POP JUMP JUMPDEST PUSH1 0x0 JUMPDEST DUP4 DUP2 LT ISZERO PUSH3 0x7AC JUMPI DUP1 DUP3 ADD MLOAD DUP2 DUP5 ADD MSTORE PUSH1 0x20 DUP2 ADD SWAP1 POP PUSH3 0x78F JUMP JUMPDEST DUP4 DUP2 GT ISZERO PUSH3 0x7BC JUMPI PUSH1 0x0 DUP5 DUP5 ADD MSTORE JUMPDEST POP POP POP POP JUMP JUMPDEST PUSH1 0x0 PUSH1 0x2 DUP3 DIV SWAP1 POP PUSH1 0x1 DUP3 AND DUP1 PUSH3 0x7DB JUMPI PUSH1 0x7F DUP3 AND SWAP2 POP JUMPDEST PUSH1 0x20 DUP3 LT DUP2 EQ ISZERO PUSH3 0x7F2 JUMPI PUSH3 0x7F1 PUSH3 0x875 JUMP JUMPDEST JUMPDEST POP SWAP2 SWAP1 POP JUMP JUMPDEST PUSH1 0x0 PUSH3 0x805 DUP3 PUSH3 0x782 JUMP JUMPDEST SWAP2 POP PUSH32 0xFFFFFFFFFFFFFFFFFFFFFFFFFFFFFFFFFFFFFFFFFFFFFFFFFFFFFFFFFFFFFFFF DUP3 EQ ISZERO PUSH3 0x83B JUMPI PUSH3 0x83A PUSH3 0x846 JUMP JUMPDEST JUMPDEST PUSH1 0x1 DUP3 ADD SWAP1 POP SWAP2 SWAP1 POP JUMP JUMPDEST PUSH32 0x4E487B7100000000000000000000000000000000000000000000000000000000 PUSH1 0x0 MSTORE PUSH1 0x11 PUSH1 0x4 MSTORE PUSH1 0x24 PUSH1 0x0 REVERT JUMPDEST PUSH32 0x4E487B7100000000000000000000000000000000000000000000000000000000 PUSH1 0x0 MSTORE PUSH1 0x22 PUSH1 0x4 MSTORE PUSH1 0x24 PUSH1 0x0 REVERT JUMPDEST PUSH2 0x2480 DUP1 PUSH3 0x8B4 PUSH1 0x0 CODECOPY PUSH1 0x0 RETURN INVALID PUSH1 0x80 PUSH1 0x40 MSTORE CALLVALUE DUP1 ISZERO PUSH2 0x10 JUMPI PUSH1 0x0 DUP1 REVERT JUMPDEST POP PUSH1 0x4 CALLDATASIZE LT PUSH2 0xA9 JUMPI PUSH1 0x0 CALLDATALOAD PUSH1 0xE0 SHR DUP1 PUSH4 0x95BE551A GT PUSH2 0x71 JUMPI DUP1 PUSH4 0x95BE551A EQ PUSH2 0x152 JUMPI DUP1 PUSH4 0xA18CC13B EQ PUSH2 0x16E JUMPI DUP1 PUSH4 0xAA83581F EQ PUSH2 0x18C JUMPI DUP1 PUSH4 0xD4D23A6E EQ PUSH2 0x1A8 JUMPI DUP1 PUSH4 0xD616C9F0 EQ PUSH2 0x1C4 JUMPI DUP1 PUSH4 0xE7D4296A EQ PUSH2 0x1E0 JUMPI PUSH2 0xA9 JUMP JUMPDEST DUP1 PUSH4 0x694952D EQ PUSH2 0xAE JUMPI DUP1 PUSH4 0x1509D30C EQ PUSH2 0xCC JUMPI DUP1 PUSH4 0x1C18379A EQ PUSH2 0xE8 JUMPI DUP1 PUSH4 0x4D7E6726 EQ PUSH2 0x104 JUMPI DUP1 PUSH4 0x6F70A52E EQ PUSH2 0x134 JUMPI JUMPDEST PUSH1 0x0 DUP1 REVERT JUMPDEST PUSH2 0xB6 PUSH2 0x213 JUMP JUMPDEST PUSH1 0x40 MLOAD PUSH2 0xC3 SWAP2 SWAP1 PUSH2 0x1F5F JUMP JUMPDEST PUSH1 0x40 MLOAD DUP1 SWAP2 SUB SWAP1 RETURN JUMPDEST PUSH2 0xE6 PUSH1 0x4 DUP1 CALLDATASIZE SUB DUP2 ADD SWAP1 PUSH2 0xE1 SWAP2 SWAP1 PUSH2 0x1845 JUMP JUMPDEST PUSH2 0x239 JUMP JUMPDEST STOP JUMPDEST PUSH2 0x102 PUSH1 0x4 DUP1 CALLDATASIZE SUB DUP2 ADD SWAP1 PUSH2 0xFD SWAP2 SWAP1 PUSH2 0x186E JUMP JUMPDEST PUSH2 0x2E5 JUMP JUMPDEST STOP JUMPDEST PUSH2 0x11E PUSH1 0x4 DUP1 CALLDATASIZE SUB DUP2 ADD SWAP1 PUSH2 0x119 SWAP2 SWAP1 PUSH2 0x18DA JUMP JUMPDEST PUSH2 0x51D JUMP JUMPDEST PUSH1 0x40 MLOAD PUSH2 0x12B SWAP2 SWAP1 PUSH2 0x1FE1 JUMP JUMPDEST PUSH1 0x40 MLOAD DUP1 SWAP2 SUB SWAP1 RETURN JUMPDEST PUSH2 0x13C PUSH2 0x845 JUMP JUMPDEST PUSH1 0x40 MLOAD PUSH2 0x149 SWAP2 SWAP1 PUSH2 0x2163 JUMP JUMPDEST PUSH1 0x40 MLOAD DUP1 SWAP2 SUB SWAP1 RETURN JUMPDEST PUSH2 0x16C PUSH1 0x4 DUP1 CALLDATASIZE SUB DUP2 ADD SWAP1 PUSH2 0x167 SWAP2 SWAP1 PUSH2 0x1957 JUMP JUMPDEST PUSH2 0x84B JUMP JUMPDEST STOP JUMPDEST PUSH2 0x176 PUSH2 0xD42 JUMP JUMPDEST PUSH1 0x40 MLOAD PUSH2 0x183 SWAP2 SWAP1 PUSH2 0x1F7A JUMP JUMPDEST PUSH1 0x40 MLOAD DUP1 SWAP2 SUB SWAP1 RETURN JUMPDEST PUSH2 0x1A6 PUSH1 0x4 DUP1 CALLDATASIZE SUB DUP2 ADD SWAP1 PUSH2 0x1A1 SWAP2 SWAP1 PUSH2 0x18DA JUMP JUMPDEST PUSH2 0xD53 JUMP JUMPDEST STOP JUMPDEST PUSH2 0x1C2 PUSH1 0x4 DUP1 CALLDATASIZE SUB DUP2 ADD SWAP1 PUSH2 0x1BD SWAP2 SWAP1 PUSH2 0x1903 JUMP JUMPDEST PUSH2 0xFCE JUMP JUMPDEST STOP JUMPDEST PUSH2 0x1DE PUSH1 0x4 DUP1 CALLDATASIZE SUB DUP2 ADD SWAP1 PUSH2 0x1D9 SWAP2 SWAP1 PUSH2 0x18DA JUMP JUMPDEST PUSH2 0x123C JUMP JUMPDEST STOP JUMPDEST PUSH2 0x1FA PUSH1 0x4 DUP1 CALLDATASIZE SUB DUP2 ADD SWAP1 PUSH2 0x1F5 SWAP2 SWAP1 PUSH2 0x18DA JUMP JUMPDEST PUSH2 0x139A JUMP JUMPDEST PUSH1 0x40 MLOAD PUSH2 0x20A SWAP5 SWAP4 SWAP3 SWAP2 SWAP1 PUSH2 0x1F95 JUMP JUMPDEST PUSH1 0x40 MLOAD DUP1 SWAP2 SUB SWAP1 RETURN JUMPDEST PUSH1 0x0 PUSH1 0x1 SWAP1 SLOAD SWAP1 PUSH2 0x100 EXP SWAP1 DIV PUSH20 0xFFFFFFFFFFFFFFFFFFFFFFFFFFFFFFFFFFFFFFFF AND DUP2 JUMP JUMPDEST PUSH1 0x0 PUSH1 0x1 SWAP1 SLOAD SWAP1 PUSH2 0x100 EXP SWAP1 DIV PUSH20 0xFFFFFFFFFFFFFFFFFFFFFFFFFFFFFFFFFFFFFFFF AND PUSH20 0xFFFFFFFFFFFFFFFFFFFFFFFFFFFFFFFFFFFFFFFF AND CALLER PUSH20 0xFFFFFFFFFFFFFFFFFFFFFFFFFFFFFFFFFFFFFFFF AND EQ PUSH2 0x2C9 JUMPI PUSH1 0x40 MLOAD PUSH32 0x8C379A000000000000000000000000000000000000000000000000000000000 DUP2 MSTORE PUSH1 0x4 ADD PUSH2 0x2C0 SWAP1 PUSH2 0x2123 JUMP JUMPDEST PUSH1 0x40 MLOAD DUP1 SWAP2 SUB SWAP1 REVERT JUMPDEST DUP1 PUSH1 0x0 DUP1 PUSH2 0x100 EXP DUP2 SLOAD DUP2 PUSH1 0xFF MUL NOT AND SWAP1 DUP4 ISZERO ISZERO MUL OR SWAP1 SSTORE POP POP JUMP JUMPDEST PUSH1 0x0 DUP1 SLOAD SWAP1 PUSH2 0x100 EXP SWAP1 DIV PUSH1 0xFF AND PUSH2 0x332 JUMPI PUSH1 0x40 MLOAD PUSH32 0x8C379A000000000000000000000000000000000000000000000000000000000 DUP2 MSTORE PUSH1 0x4 ADD PUSH2 0x329 SWAP1 PUSH2 0x2143 JUMP JUMPDEST PUSH1 0x40 MLOAD DUP1 SWAP2 SUB SWAP1 REVERT JUMPDEST PUSH2 0x33B DUP3 PUSH2 0x148F JUMP JUMPDEST ISZERO PUSH2 0x37B JUMPI PUSH1 0x40 MLOAD PUSH32 0x8C379A000000000000000000000000000000000000000000000000000000000 DUP2 MSTORE PUSH1 0x4 ADD PUSH2 0x372 SWAP1 PUSH2 0x20E3 JUMP JUMPDEST PUSH1 0x40 MLOAD DUP1 SWAP2 SUB SWAP1 REVERT JUMPDEST PUSH1 0x0 PUSH1 0x2 PUSH1 0x1 DUP2 PUSH1 0x1 DUP2 SLOAD ADD DUP1 DUP3 SSTORE DUP1 SWAP2 POP POP SUB SWAP1 PUSH1 0x0 MSTORE PUSH1 0x20 PUSH1 0x0 KECCAK256 SWAP1 PUSH1 0x4 MUL ADD SWAP1 POP PUSH1 0x1 DUP2 PUSH1 0x0 ADD PUSH1 0x0 PUSH2 0x100 EXP DUP2 SLOAD DUP2 PUSH1 0xFF MUL NOT AND SWAP1 DUP4 ISZERO ISZERO MUL OR SWAP1 SSTORE POP CALLER DUP2 PUSH1 0x0 ADD PUSH1 0x1 PUSH2 0x100 EXP DUP2 SLOAD DUP2 PUSH20 0xFFFFFFFFFFFFFFFFFFFFFFFFFFFFFFFFFFFFFFFF MUL NOT AND SWAP1 DUP4 PUSH20 0xFFFFFFFFFFFFFFFFFFFFFFFFFFFFFFFFFFFFFFFF AND MUL OR SWAP1 SSTORE POP TIMESTAMP DUP2 PUSH1 0x1 ADD DUP2 SWAP1 SSTORE POP DUP3 DUP2 PUSH1 0x2 ADD SWAP1 DUP1 MLOAD SWAP1 PUSH1 0x20 ADD SWAP1 PUSH2 0x420 SWAP3 SWAP2 SWAP1 PUSH2 0x16D0 JUMP JUMPDEST POP DUP1 PUSH1 0x3 ADD PUSH1 0x40 MLOAD DUP1 PUSH1 0x80 ADD PUSH1 0x40 MSTORE DUP1 PUSH1 0x1 ISZERO ISZERO DUP2 MSTORE PUSH1 0x20 ADD CALLER PUSH20 0xFFFFFFFFFFFFFFFFFFFFFFFFFFFFFFFFFFFFFFFF AND DUP2 MSTORE PUSH1 0x20 ADD TIMESTAMP DUP2 MSTORE PUSH1 0x20 ADD DUP5 DUP2 MSTORE POP SWAP1 DUP1 PUSH1 0x1 DUP2 SLOAD ADD DUP1 DUP3 SSTORE DUP1 SWAP2 POP POP PUSH1 0x1 SWAP1 SUB SWAP1 PUSH1 0x0 MSTORE PUSH1 0x20 PUSH1 0x0 KECCAK256 SWAP1 PUSH1 0x3 MUL ADD PUSH1 0x0 SWAP1 SWAP2 SWAP1 SWAP2 SWAP1 SWAP2 POP PUSH1 0x0 DUP3 ADD MLOAD DUP2 PUSH1 0x0 ADD PUSH1 0x0 PUSH2 0x100 EXP DUP2 SLOAD DUP2 PUSH1 0xFF MUL NOT AND SWAP1 DUP4 ISZERO ISZERO MUL OR SWAP1 SSTORE POP PUSH1 0x20 DUP3 ADD MLOAD DUP2 PUSH1 0x0 ADD PUSH1 0x1 PUSH2 0x100 EXP DUP2 SLOAD DUP2 PUSH20 0xFFFFFFFFFFFFFFFFFFFFFFFFFFFFFFFFFFFFFFFF MUL NOT AND SWAP1 DUP4 PUSH20 0xFFFFFFFFFFFFFFFFFFFFFFFFFFFFFFFFFFFFFFFF AND MUL OR SWAP1 SSTORE POP PUSH1 0x40 DUP3 ADD MLOAD DUP2 PUSH1 0x1 ADD SSTORE PUSH1 0x60 DUP3 ADD MLOAD DUP2 PUSH1 0x2 ADD SWAP1 DUP1 MLOAD SWAP1 PUSH1 0x20 ADD SWAP1 PUSH2 0x515 SWAP3 SWAP2 SWAP1 PUSH2 0x16D0 JUMP JUMPDEST POP POP POP POP POP POP JUMP JUMPDEST PUSH1 0x60 PUSH1 0x2 DUP1 SLOAD SWAP1 POP DUP3 LT PUSH2 0x566 JUMPI PUSH1 0x40 MLOAD PUSH32 0x8C379A000000000000000000000000000000000000000000000000000000000 DUP2 MSTORE PUSH1 0x4 ADD PUSH2 0x55D SWAP1 PUSH2 0x2083 JUMP JUMPDEST PUSH1 0x40 MLOAD DUP1 SWAP2 SUB SWAP1 REVERT JUMPDEST PUSH2 0x83A PUSH1 0x2 DUP4 DUP2 SLOAD DUP2 LT PUSH2 0x5A3 JUMPI PUSH32 0x4E487B7100000000000000000000000000000000000000000000000000000000 PUSH1 0x0 MSTORE PUSH1 0x32 PUSH1 0x4 MSTORE PUSH1 0x24 PUSH1 0x0 REVERT JUMPDEST SWAP1 PUSH1 0x0 MSTORE PUSH1 0x20 PUSH1 0x0 KECCAK256 SWAP1 PUSH1 0x4 MUL ADD PUSH1 0x40 MLOAD DUP1 PUSH1 0xA0 ADD PUSH1 0x40 MSTORE SWAP1 DUP2 PUSH1 0x0 DUP3 ADD PUSH1 0x0 SWAP1 SLOAD SWAP1 PUSH2 0x100 EXP SWAP1 DIV PUSH1 0xFF AND ISZERO ISZERO ISZERO ISZERO DUP2 MSTORE PUSH1 0x20 ADD PUSH1 0x0 DUP3 ADD PUSH1 0x1 SWAP1 SLOAD SWAP1 PUSH2 0x100 EXP SWAP1 DIV PUSH20 0xFFFFFFFFFFFFFFFFFFFFFFFFFFFFFFFFFFFFFFFF AND PUSH20 0xFFFFFFFFFFFFFFFFFFFFFFFFFFFFFFFFFFFFFFFF AND PUSH20 0xFFFFFFFFFFFFFFFFFFFFFFFFFFFFFFFFFFFFFFFF AND DUP2 MSTORE PUSH1 0x20 ADD PUSH1 0x1 DUP3 ADD SLOAD DUP2 MSTORE PUSH1 0x20 ADD PUSH1 0x2 DUP3 ADD DUP1 SLOAD PUSH2 0x647 SWAP1 PUSH2 0x2303 JUMP JUMPDEST DUP1 PUSH1 0x1F ADD PUSH1 0x20 DUP1 SWAP2 DIV MUL PUSH1 0x20 ADD PUSH1 0x40 MLOAD SWAP1 DUP2 ADD PUSH1 0x40 MSTORE DUP1 SWAP3 SWAP2 SWAP1 DUP2 DUP2 MSTORE PUSH1 0x20 ADD DUP3 DUP1 SLOAD PUSH2 0x673 SWAP1 PUSH2 0x2303 JUMP JUMPDEST DUP1 ISZERO PUSH2 0x6C0 JUMPI DUP1 PUSH1 0x1F LT PUSH2 0x695 JUMPI PUSH2 0x100 DUP1 DUP4 SLOAD DIV MUL DUP4 MSTORE SWAP2 PUSH1 0x20 ADD SWAP2 PUSH2 0x6C0 JUMP JUMPDEST DUP3 ADD SWAP2 SWAP1 PUSH1 0x0 MSTORE PUSH1 0x20 PUSH1 0x0 KECCAK256 SWAP1 JUMPDEST DUP2 SLOAD DUP2 MSTORE SWAP1 PUSH1 0x1 ADD SWAP1 PUSH1 0x20 ADD DUP1 DUP4 GT PUSH2 0x6A3 JUMPI DUP3 SWAP1 SUB PUSH1 0x1F AND DUP3 ADD SWAP2 JUMPDEST POP POP POP POP POP DUP2 MSTORE PUSH1 0x20 ADD PUSH1 0x3 DUP3 ADD DUP1 SLOAD DUP1 PUSH1 0x20 MUL PUSH1 0x20 ADD PUSH1 0x40 MLOAD SWAP1 DUP2 ADD PUSH1 0x40 MSTORE DUP1 SWAP3 SWAP2 SWAP1 DUP2 DUP2 MSTORE PUSH1 0x20 ADD PUSH1 0x0 SWAP1 JUMPDEST DUP3 DUP3 LT ISZERO PUSH2 0x82D JUMPI DUP4 DUP3 SWAP1 PUSH1 0x0 MSTORE PUSH1 0x20 PUSH1 0x0 KECCAK256 SWAP1 PUSH1 0x3 MUL ADD PUSH1 0x40 MLOAD DUP1 PUSH1 0x80 ADD PUSH1 0x40 MSTORE SWAP1 DUP2 PUSH1 0x0 DUP3 ADD PUSH1 0x0 SWAP1 SLOAD SWAP1 PUSH2 0x100 EXP SWAP1 DIV PUSH1 0xFF AND ISZERO ISZERO ISZERO ISZERO DUP2 MSTORE PUSH1 0x20 ADD PUSH1 0x0 DUP3 ADD PUSH1 0x1 SWAP1 SLOAD SWAP1 PUSH2 0x100 EXP SWAP1 DIV PUSH20 0xFFFFFFFFFFFFFFFFFFFFFFFFFFFFFFFFFFFFFFFF AND PUSH20 0xFFFFFFFFFFFFFFFFFFFFFFFFFFFFFFFFFFFFFFFF AND PUSH20 0xFFFFFFFFFFFFFFFFFFFFFFFFFFFFFFFFFFFFFFFF AND DUP2 MSTORE PUSH1 0x20 ADD PUSH1 0x1 DUP3 ADD SLOAD DUP2 MSTORE PUSH1 0x20 ADD PUSH1 0x2 DUP3 ADD DUP1 SLOAD PUSH2 0x79C SWAP1 PUSH2 0x2303 JUMP JUMPDEST DUP1 PUSH1 0x1F ADD PUSH1 0x20 DUP1 SWAP2 DIV MUL PUSH1 0x20 ADD PUSH1 0x40 MLOAD SWAP1 DUP2 ADD PUSH1 0x40 MSTORE DUP1 SWAP3 SWAP2 SWAP1 DUP2 DUP2 MSTORE PUSH1 0x20 ADD DUP3 DUP1 SLOAD PUSH2 0x7C8 SWAP1 PUSH2 0x2303 JUMP JUMPDEST DUP1 ISZERO PUSH2 0x815 JUMPI DUP1 PUSH1 0x1F LT PUSH2 0x7EA JUMPI PUSH2 0x100 DUP1 DUP4 SLOAD DIV MUL DUP4 MSTORE SWAP2 PUSH1 0x20 ADD SWAP2 PUSH2 0x815 JUMP JUMPDEST DUP3 ADD SWAP2 SWAP1 PUSH1 0x0 MSTORE PUSH1 0x20 PUSH1 0x0 KECCAK256 SWAP1 JUMPDEST DUP2 SLOAD DUP2 MSTORE SWAP1 PUSH1 0x1 ADD SWAP1 PUSH1 0x20 ADD DUP1 DUP4 GT PUSH2 0x7F8 JUMPI DUP3 SWAP1 SUB PUSH1 0x1F AND DUP3 ADD SWAP2 JUMPDEST POP POP POP POP POP DUP2 MSTORE POP POP DUP2 MSTORE PUSH1 0x20 ADD SWAP1 PUSH1 0x1 ADD SWAP1 PUSH2 0x6EE JUMP JUMPDEST POP POP POP POP DUP2 MSTORE POP POP PUSH2 0x15C9 JUMP JUMPDEST PUSH1 0x60 ADD MLOAD SWAP1 POP SWAP2 SWAP1 POP JUMP JUMPDEST PUSH1 0x1 SLOAD DUP2 JUMP JUMPDEST PUSH1 0x0 DUP1 SLOAD SWAP1 PUSH2 0x100 EXP SWAP1 DIV PUSH1 0xFF AND PUSH2 0x898 JUMPI PUSH1 0x40 MLOAD PUSH32 0x8C379A000000000000000000000000000000000000000000000000000000000 DUP2 MSTORE PUSH1 0x4 ADD PUSH2 0x88F SWAP1 PUSH2 0x2143 JUMP JUMPDEST PUSH1 0x40 MLOAD DUP1 SWAP2 SUB SWAP1 REVERT JUMPDEST PUSH1 0x2 DUP1 SLOAD SWAP1 POP DUP3 LT PUSH2 0x8DF JUMPI PUSH1 0x40 MLOAD PUSH32 0x8C379A000000000000000000000000000000000000000000000000000000000 DUP2 MSTORE PUSH1 0x4 ADD PUSH2 0x8D6 SWAP1 PUSH2 0x2103 JUMP JUMPDEST PUSH1 0x40 MLOAD DUP1 SWAP2 SUB SWAP1 REVERT JUMPDEST PUSH1 0x2 DUP3 DUP2 SLOAD DUP2 LT PUSH2 0x919 JUMPI PUSH32 0x4E487B7100000000000000000000000000000000000000000000000000000000 PUSH1 0x0 MSTORE PUSH1 0x32 PUSH1 0x4 MSTORE PUSH1 0x24 PUSH1 0x0 REVERT JUMPDEST SWAP1 PUSH1 0x0 MSTORE PUSH1 0x20 PUSH1 0x0 KECCAK256 SWAP1 PUSH1 0x4 MUL ADD PUSH1 0x0 ADD PUSH1 0x0 SWAP1 SLOAD SWAP1 PUSH2 0x100 EXP SWAP1 DIV PUSH1 0xFF AND PUSH2 0x977 JUMPI PUSH1 0x40 MLOAD PUSH32 0x8C379A000000000000000000000000000000000000000000000000000000000 DUP2 MSTORE PUSH1 0x4 ADD PUSH2 0x96E SWAP1 PUSH2 0x2063 JUMP JUMPDEST PUSH1 0x40 MLOAD DUP1 SWAP2 SUB SWAP1 REVERT JUMPDEST PUSH1 0x2 DUP3 DUP2 SLOAD DUP2 LT PUSH2 0x9B1 JUMPI PUSH32 0x4E487B7100000000000000000000000000000000000000000000000000000000 PUSH1 0x0 MSTORE PUSH1 0x32 PUSH1 0x4 MSTORE PUSH1 0x24 PUSH1 0x0 REVERT JUMPDEST SWAP1 PUSH1 0x0 MSTORE PUSH1 0x20 PUSH1 0x0 KECCAK256 SWAP1 PUSH1 0x4 MUL ADD PUSH1 0x3 ADD DUP1 SLOAD SWAP1 POP DUP2 LT PUSH2 0xA07 JUMPI PUSH1 0x40 MLOAD PUSH32 0x8C379A000000000000000000000000000000000000000000000000000000000 DUP2 MSTORE PUSH1 0x4 ADD PUSH2 0x9FE SWAP1 PUSH2 0x20C3 JUMP JUMPDEST PUSH1 0x40 MLOAD DUP1 SWAP2 SUB SWAP1 REVERT JUMPDEST PUSH1 0x2 DUP3 DUP2 SLOAD DUP2 LT PUSH2 0xA41 JUMPI PUSH32 0x4E487B7100000000000000000000000000000000000000000000000000000000 PUSH1 0x0 MSTORE PUSH1 0x32 PUSH1 0x4 MSTORE PUSH1 0x24 PUSH1 0x0 REVERT JUMPDEST SWAP1 PUSH1 0x0 MSTORE PUSH1 0x20 PUSH1 0x0 KECCAK256 SWAP1 PUSH1 0x4 MUL ADD PUSH1 0x3 ADD DUP2 DUP2 SLOAD DUP2 LT PUSH2 0xA8A JUMPI PUSH32 0x4E487B7100000000000000000000000000000000000000000000000000000000 PUSH1 0x0 MSTORE PUSH1 0x32 PUSH1 0x4 MSTORE PUSH1 0x24 PUSH1 0x0 REVERT JUMPDEST SWAP1 PUSH1 0x0 MSTORE PUSH1 0x20 PUSH1 0x0 KECCAK256 SWAP1 PUSH1 0x3 MUL ADD PUSH1 0x0 ADD PUSH1 0x0 SWAP1 SLOAD SWAP1 PUSH2 0x100 EXP SWAP1 DIV PUSH1 0xFF AND ISZERO PUSH2 0xAB3 JUMPI PUSH2 0xD3E JUMP JUMPDEST PUSH1 0x0 PUSH1 0x2 DUP4 DUP2 SLOAD DUP2 LT PUSH2 0xAEF JUMPI PUSH32 0x4E487B7100000000000000000000000000000000000000000000000000000000 PUSH1 0x0 MSTORE PUSH1 0x32 PUSH1 0x4 MSTORE PUSH1 0x24 PUSH1 0x0 REVERT JUMPDEST SWAP1 PUSH1 0x0 MSTORE PUSH1 0x20 PUSH1 0x0 KECCAK256 SWAP1 PUSH1 0x4 MUL ADD PUSH1 0x3 ADD DUP1 SLOAD SWAP1 POP SWAP1 POP JUMPDEST PUSH1 0x0 DUP2 GT ISZERO PUSH2 0xC8F JUMPI PUSH1 0x0 PUSH1 0x1 DUP3 PUSH2 0xB1F SWAP2 SWAP1 PUSH2 0x221B JUMP JUMPDEST SWAP1 POP PUSH1 0x2 DUP5 DUP2 SLOAD DUP2 LT PUSH2 0xB5B JUMPI PUSH32 0x4E487B7100000000000000000000000000000000000000000000000000000000 PUSH1 0x0 MSTORE PUSH1 0x32 PUSH1 0x4 MSTORE PUSH1 0x24 PUSH1 0x0 REVERT JUMPDEST SWAP1 PUSH1 0x0 MSTORE PUSH1 0x20 PUSH1 0x0 KECCAK256 SWAP1 PUSH1 0x4 MUL ADD PUSH1 0x3 ADD DUP2 DUP2 SLOAD DUP2 LT PUSH2 0xBA4 JUMPI PUSH32 0x4E487B7100000000000000000000000000000000000000000000000000000000 PUSH1 0x0 MSTORE PUSH1 0x32 PUSH1 0x4 MSTORE PUSH1 0x24 PUSH1 0x0 REVERT JUMPDEST SWAP1 PUSH1 0x0 MSTORE PUSH1 0x20 PUSH1 0x0 KECCAK256 SWAP1 PUSH1 0x3 MUL ADD PUSH1 0x0 ADD PUSH1 0x0 SWAP1 SLOAD SWAP1 PUSH2 0x100 EXP SWAP1 DIV PUSH1 0xFF AND ISZERO PUSH2 0xC7B JUMPI PUSH1 0x0 PUSH1 0x2 DUP6 DUP2 SLOAD DUP2 LT PUSH2 0xC04 JUMPI PUSH32 0x4E487B7100000000000000000000000000000000000000000000000000000000 PUSH1 0x0 MSTORE PUSH1 0x32 PUSH1 0x4 MSTORE PUSH1 0x24 PUSH1 0x0 REVERT JUMPDEST SWAP1 PUSH1 0x0 MSTORE PUSH1 0x20 PUSH1 0x0 KECCAK256 SWAP1 PUSH1 0x4 MUL ADD PUSH1 0x3 ADD DUP3 DUP2 SLOAD DUP2 LT PUSH2 0xC4D JUMPI PUSH32 0x4E487B7100000000000000000000000000000000000000000000000000000000 PUSH1 0x0 MSTORE PUSH1 0x32 PUSH1 0x4 MSTORE PUSH1 0x24 PUSH1 0x0 REVERT JUMPDEST SWAP1 PUSH1 0x0 MSTORE PUSH1 0x20 PUSH1 0x0 KECCAK256 SWAP1 PUSH1 0x3 MUL ADD PUSH1 0x0 ADD PUSH1 0x0 PUSH2 0x100 EXP DUP2 SLOAD DUP2 PUSH1 0xFF MUL NOT AND SWAP1 DUP4 ISZERO ISZERO MUL OR SWAP1 SSTORE POP POP PUSH2 0xC8F JUMP JUMPDEST POP DUP1 DUP1 PUSH2 0xC87 SWAP1 PUSH2 0x22D9 JUMP JUMPDEST SWAP2 POP POP PUSH2 0xB07 JUMP JUMPDEST POP PUSH1 0x1 PUSH1 0x2 DUP4 DUP2 SLOAD DUP2 LT PUSH2 0xCCC JUMPI PUSH32 0x4E487B7100000000000000000000000000000000000000000000000000000000 PUSH1 0x0 MSTORE PUSH1 0x32 PUSH1 0x4 MSTORE PUSH1 0x24 PUSH1 0x0 REVERT JUMPDEST SWAP1 PUSH1 0x0 MSTORE PUSH1 0x20 PUSH1 0x0 KECCAK256 SWAP1 PUSH1 0x4 MUL ADD PUSH1 0x3 ADD DUP3 DUP2 SLOAD DUP2 LT PUSH2 0xD15 JUMPI PUSH32 0x4E487B7100000000000000000000000000000000000000000000000000000000 PUSH1 0x0 MSTORE PUSH1 0x32 PUSH1 0x4 MSTORE PUSH1 0x24 PUSH1 0x0 REVERT JUMPDEST SWAP1 PUSH1 0x0 MSTORE PUSH1 0x20 PUSH1 0x0 KECCAK256 SWAP1 PUSH1 0x3 MUL ADD PUSH1 0x0 ADD PUSH1 0x0 PUSH2 0x100 EXP DUP2 SLOAD DUP2 PUSH1 0xFF MUL NOT AND SWAP1 DUP4 ISZERO ISZERO MUL OR SWAP1 SSTORE POP JUMPDEST POP POP JUMP JUMPDEST PUSH1 0x0 DUP1 SLOAD SWAP1 PUSH2 0x100 EXP SWAP1 DIV PUSH1 0xFF AND DUP2 JUMP JUMPDEST PUSH1 0x0 DUP1 SLOAD SWAP1 PUSH2 0x100 EXP SWAP1 DIV PUSH1 0xFF AND PUSH2 0xDA0 JUMPI PUSH1 0x40 MLOAD PUSH32 0x8C379A000000000000000000000000000000000000000000000000000000000 DUP2 MSTORE PUSH1 0x4 ADD PUSH2 0xD97 SWAP1 PUSH2 0x20A3 JUMP JUMPDEST PUSH1 0x40 MLOAD DUP1 SWAP2 SUB SWAP1 REVERT JUMPDEST PUSH1 0x2 DUP1 SLOAD SWAP1 POP DUP2 LT PUSH2 0xDE7 JUMPI PUSH1 0x40 MLOAD PUSH32 0x8C379A000000000000000000000000000000000000000000000000000000000 DUP2 MSTORE PUSH1 0x4 ADD PUSH2 0xDDE SWAP1 PUSH2 0x2103 JUMP JUMPDEST PUSH1 0x40 MLOAD DUP1 SWAP2 SUB SWAP1 REVERT JUMPDEST PUSH2 0xEC3 PUSH1 0x2 DUP3 DUP2 SLOAD DUP2 LT PUSH2 0xE24 JUMPI PUSH32 0x4E487B7100000000000000000000000000000000000000000000000000000000 PUSH1 0x0 MSTORE PUSH1 0x32 PUSH1 0x4 MSTORE PUSH1 0x24 PUSH1 0x0 REVERT JUMPDEST SWAP1 PUSH1 0x0 MSTORE PUSH1 0x20 PUSH1 0x0 KECCAK256 SWAP1 PUSH1 0x4 MUL ADD PUSH1 0x2 ADD DUP1 SLOAD PUSH2 0xE40 SWAP1 PUSH2 0x2303 JUMP JUMPDEST DUP1 PUSH1 0x1F ADD PUSH1 0x20 DUP1 SWAP2 DIV MUL PUSH1 0x20 ADD PUSH1 0x40 MLOAD SWAP1 DUP2 ADD PUSH1 0x40 MSTORE DUP1 SWAP3 SWAP2 SWAP1 DUP2 DUP2 MSTORE PUSH1 0x20 ADD DUP3 DUP1 SLOAD PUSH2 0xE6C SWAP1 PUSH2 0x2303 JUMP JUMPDEST DUP1 ISZERO PUSH2 0xEB9 JUMPI DUP1 PUSH1 0x1F LT PUSH2 0xE8E JUMPI PUSH2 0x100 DUP1 DUP4 SLOAD DIV MUL DUP4 MSTORE SWAP2 PUSH1 0x20 ADD SWAP2 PUSH2 0xEB9 JUMP JUMPDEST DUP3 ADD SWAP2 SWAP1 PUSH1 0x0 MSTORE PUSH1 0x20 PUSH1 0x0 KECCAK256 SWAP1 JUMPDEST DUP2 SLOAD DUP2 MSTORE SWAP1 PUSH1 0x1 ADD SWAP1 PUSH1 0x20 ADD DUP1 DUP4 GT PUSH2 0xE9C JUMPI DUP3 SWAP1 SUB PUSH1 0x1F AND DUP3 ADD SWAP2 JUMPDEST POP POP POP POP POP PUSH2 0x148F JUMP JUMPDEST ISZERO PUSH2 0xF03 JUMPI PUSH1 0x40 MLOAD PUSH32 0x8C379A000000000000000000000000000000000000000000000000000000000 DUP2 MSTORE PUSH1 0x4 ADD PUSH2 0xEFA SWAP1 PUSH2 0x20E3 JUMP JUMPDEST PUSH1 0x40 MLOAD DUP1 SWAP2 SUB SWAP1 REVERT JUMPDEST PUSH1 0x2 DUP2 DUP2 SLOAD DUP2 LT PUSH2 0xF3D JUMPI PUSH32 0x4E487B7100000000000000000000000000000000000000000000000000000000 PUSH1 0x0 MSTORE PUSH1 0x32 PUSH1 0x4 MSTORE PUSH1 0x24 PUSH1 0x0 REVERT JUMPDEST SWAP1 PUSH1 0x0 MSTORE PUSH1 0x20 PUSH1 0x0 KECCAK256 SWAP1 PUSH1 0x4 MUL ADD PUSH1 0x0 ADD PUSH1 0x0 SWAP1 SLOAD SWAP1 PUSH2 0x100 EXP SWAP1 DIV PUSH1 0xFF AND ISZERO PUSH2 0xF66 JUMPI PUSH2 0xFCB JUMP JUMPDEST PUSH1 0x1 PUSH1 0x2 DUP3 DUP2 SLOAD DUP2 LT PUSH2 0xFA2 JUMPI PUSH32 0x4E487B7100000000000000000000000000000000000000000000000000000000 PUSH1 0x0 MSTORE PUSH1 0x32 PUSH1 0x4 MSTORE PUSH1 0x24 PUSH1 0x0 REVERT JUMPDEST SWAP1 PUSH1 0x0 MSTORE PUSH1 0x20 PUSH1 0x0 KECCAK256 SWAP1 PUSH1 0x4 MUL ADD PUSH1 0x0 ADD PUSH1 0x0 PUSH2 0x100 EXP DUP2 SLOAD DUP2 PUSH1 0xFF MUL NOT AND SWAP1 DUP4 ISZERO ISZERO MUL OR SWAP1 SSTORE POP JUMPDEST POP JUMP JUMPDEST PUSH1 0x0 DUP1 SLOAD SWAP1 PUSH2 0x100 EXP SWAP1 DIV PUSH1 0xFF AND PUSH2 0x101B JUMPI PUSH1 0x40 MLOAD PUSH32 0x8C379A000000000000000000000000000000000000000000000000000000000 DUP2 MSTORE PUSH1 0x4 ADD PUSH2 0x1012 SWAP1 PUSH2 0x2143 JUMP JUMPDEST PUSH1 0x40 MLOAD DUP1 SWAP2 SUB SWAP1 REVERT JUMPDEST PUSH1 0x2 DUP1 SLOAD SWAP1 POP DUP3 LT PUSH2 0x1062 JUMPI PUSH1 0x40 MLOAD PUSH32 0x8C379A000000000000000000000000000000000000000000000000000000000 DUP2 MSTORE PUSH1 0x4 ADD PUSH2 0x1059 SWAP1 PUSH2 0x2083 JUMP JUMPDEST PUSH1 0x40 MLOAD DUP1 SWAP2 SUB SWAP1 REVERT JUMPDEST PUSH1 0x2 DUP3 DUP2 SLOAD DUP2 LT PUSH2 0x109C JUMPI PUSH32 0x4E487B7100000000000000000000000000000000000000000000000000000000 PUSH1 0x0 MSTORE PUSH1 0x32 PUSH1 0x4 MSTORE PUSH1 0x24 PUSH1 0x0 REVERT JUMPDEST SWAP1 PUSH1 0x0 MSTORE PUSH1 0x20 PUSH1 0x0 KECCAK256 SWAP1 PUSH1 0x4 MUL ADD PUSH1 0x0 ADD PUSH1 0x0 SWAP1 SLOAD SWAP1 PUSH2 0x100 EXP SWAP1 DIV PUSH1 0xFF AND PUSH2 0x10FA JUMPI PUSH1 0x40 MLOAD PUSH32 0x8C379A000000000000000000000000000000000000000000000000000000000 DUP2 MSTORE PUSH1 0x4 ADD PUSH2 0x10F1 SWAP1 PUSH2 0x2023 JUMP JUMPDEST PUSH1 0x40 MLOAD DUP1 SWAP2 SUB SWAP1 REVERT JUMPDEST PUSH1 0x2 DUP3 DUP2 SLOAD DUP2 LT PUSH2 0x1134 JUMPI PUSH32 0x4E487B7100000000000000000000000000000000000000000000000000000000 PUSH1 0x0 MSTORE PUSH1 0x32 PUSH1 0x4 MSTORE PUSH1 0x24 PUSH1 0x0 REVERT JUMPDEST SWAP1 PUSH1 0x0 MSTORE PUSH1 0x20 PUSH1 0x0 KECCAK256 SWAP1 PUSH1 0x4 MUL ADD PUSH1 0x3 ADD PUSH1 0x40 MLOAD DUP1 PUSH1 0x80 ADD PUSH1 0x40 MSTORE DUP1 PUSH1 0x0 ISZERO ISZERO DUP2 MSTORE PUSH1 0x20 ADD CALLER PUSH20 0xFFFFFFFFFFFFFFFFFFFFFFFFFFFFFFFFFFFFFFFF AND DUP2 MSTORE PUSH1 0x20 ADD TIMESTAMP DUP2 MSTORE PUSH1 0x20 ADD DUP4 DUP2 MSTORE POP SWAP1 DUP1 PUSH1 0x1 DUP2 SLOAD ADD DUP1 DUP3 SSTORE DUP1 SWAP2 POP POP PUSH1 0x1 SWAP1 SUB SWAP1 PUSH1 0x0 MSTORE PUSH1 0x20 PUSH1 0x0 KECCAK256 SWAP1 PUSH1 0x3 MUL ADD PUSH1 0x0 SWAP1 SWAP2 SWAP1 SWAP2 SWAP1 SWAP2 POP PUSH1 0x0 DUP3 ADD MLOAD DUP2 PUSH1 0x0 ADD PUSH1 0x0 PUSH2 0x100 EXP DUP2 SLOAD DUP2 PUSH1 0xFF MUL NOT AND SWAP1 DUP4 ISZERO ISZERO MUL OR SWAP1 SSTORE POP PUSH1 0x20 DUP3 ADD MLOAD DUP2 PUSH1 0x0 ADD PUSH1 0x1 PUSH2 0x100 EXP DUP2 SLOAD DUP2 PUSH20 0xFFFFFFFFFFFFFFFFFFFFFFFFFFFFFFFFFFFFFFFF MUL NOT AND SWAP1 DUP4 PUSH20 0xFFFFFFFFFFFFFFFFFFFFFFFFFFFFFFFFFFFFFFFF AND MUL OR SWAP1 SSTORE POP PUSH1 0x40 DUP3 ADD MLOAD DUP2 PUSH1 0x1 ADD SSTORE PUSH1 0x60 DUP3 ADD MLOAD DUP2 PUSH1 0x2 ADD SWAP1 DUP1 MLOAD SWAP1 PUSH1 0x20 ADD SWAP1 PUSH2 0x1235 SWAP3 SWAP2 SWAP1 PUSH2 0x16D0 JUMP JUMPDEST POP POP POP POP POP JUMP JUMPDEST PUSH1 0x0 DUP1 SLOAD SWAP1 PUSH2 0x100 EXP SWAP1 DIV PUSH1 0xFF AND PUSH2 0x1289 JUMPI PUSH1 0x40 MLOAD PUSH32 0x8C379A000000000000000000000000000000000000000000000000000000000 DUP2 MSTORE PUSH1 0x4 ADD PUSH2 0x1280 SWAP1 PUSH2 0x2043 JUMP JUMPDEST PUSH1 0x40 MLOAD DUP1 SWAP2 SUB SWAP1 REVERT JUMPDEST PUSH1 0x2 DUP1 SLOAD SWAP1 POP DUP2 LT PUSH2 0x12D0 JUMPI PUSH1 0x40 MLOAD PUSH32 0x8C379A000000000000000000000000000000000000000000000000000000000 DUP2 MSTORE PUSH1 0x4 ADD PUSH2 0x12C7 SWAP1 PUSH2 0x2103 JUMP JUMPDEST PUSH1 0x40 MLOAD DUP1 SWAP2 SUB SWAP1 REVERT JUMPDEST PUSH1 0x2 DUP2 DUP2 SLOAD DUP2 LT PUSH2 0x130A JUMPI PUSH32 0x4E487B7100000000000000000000000000000000000000000000000000000000 PUSH1 0x0 MSTORE PUSH1 0x32 PUSH1 0x4 MSTORE PUSH1 0x24 PUSH1 0x0 REVERT JUMPDEST SWAP1 PUSH1 0x0 MSTORE PUSH1 0x20 PUSH1 0x0 KECCAK256 SWAP1 PUSH1 0x4 MUL ADD PUSH1 0x0 ADD PUSH1 0x0 SWAP1 SLOAD SWAP1 PUSH2 0x100 EXP SWAP1 DIV PUSH1 0xFF AND PUSH2 0x1332 JUMPI PUSH2 0x1397 JUMP JUMPDEST PUSH1 0x0 PUSH1 0x2 DUP3 DUP2 SLOAD DUP2 LT PUSH2 0x136E JUMPI PUSH32 0x4E487B7100000000000000000000000000000000000000000000000000000000 PUSH1 0x0 MSTORE PUSH1 0x32 PUSH1 0x4 MSTORE PUSH1 0x24 PUSH1 0x0 REVERT JUMPDEST SWAP1 PUSH1 0x0 MSTORE PUSH1 0x20 PUSH1 0x0 KECCAK256 SWAP1 PUSH1 0x4 MUL ADD PUSH1 0x0 ADD PUSH1 0x0 PUSH2 0x100 EXP DUP2 SLOAD DUP2 PUSH1 0xFF MUL NOT AND SWAP1 DUP4 ISZERO ISZERO MUL OR SWAP1 SSTORE POP JUMPDEST POP JUMP JUMPDEST PUSH1 0x2 DUP2 DUP2 SLOAD DUP2 LT PUSH2 0x13AA JUMPI PUSH1 0x0 DUP1 REVERT JUMPDEST SWAP1 PUSH1 0x0 MSTORE PUSH1 0x20 PUSH1 0x0 KECCAK256 SWAP1 PUSH1 0x4 MUL ADD PUSH1 0x0 SWAP2 POP SWAP1 POP DUP1 PUSH1 0x0 ADD PUSH1 0x0 SWAP1 SLOAD SWAP1 PUSH2 0x100 EXP SWAP1 DIV PUSH1 0xFF AND SWAP1 DUP1 PUSH1 0x0 ADD PUSH1 0x1 SWAP1 SLOAD SWAP1 PUSH2 0x100 EXP SWAP1 DIV PUSH20 0xFFFFFFFFFFFFFFFFFFFFFFFFFFFFFFFFFFFFFFFF AND SWAP1 DUP1 PUSH1 0x1 ADD SLOAD SWAP1 DUP1 PUSH1 0x2 ADD DUP1 SLOAD PUSH2 0x140C SWAP1 PUSH2 0x2303 JUMP JUMPDEST DUP1 PUSH1 0x1F ADD PUSH1 0x20 DUP1 SWAP2 DIV MUL PUSH1 0x20 ADD PUSH1 0x40 MLOAD SWAP1 DUP2 ADD PUSH1 0x40 MSTORE DUP1 SWAP3 SWAP2 SWAP1 DUP2 DUP2 MSTORE PUSH1 0x20 ADD DUP3 DUP1 SLOAD PUSH2 0x1438 SWAP1 PUSH2 0x2303 JUMP JUMPDEST DUP1 ISZERO PUSH2 0x1485 JUMPI DUP1 PUSH1 0x1F LT PUSH2 0x145A JUMPI PUSH2 0x100 DUP1 DUP4 SLOAD DIV MUL DUP4 MSTORE SWAP2 PUSH1 0x20 ADD SWAP2 PUSH2 0x1485 JUMP JUMPDEST DUP3 ADD SWAP2 SWAP1 PUSH1 0x0 MSTORE PUSH1 0x20 PUSH1 0x0 KECCAK256 SWAP1 JUMPDEST DUP2 SLOAD DUP2 MSTORE SWAP1 PUSH1 0x1 ADD SWAP1 PUSH1 0x20 ADD DUP1 DUP4 GT PUSH2 0x1468 JUMPI DUP3 SWAP1 SUB PUSH1 0x1F AND DUP3 ADD SWAP2 JUMPDEST POP POP POP POP POP SWAP1 POP DUP5 JUMP JUMPDEST PUSH1 0x0 DUP1 PUSH1 0x0 SWAP1 POP JUMPDEST PUSH1 0x2 DUP1 SLOAD SWAP1 POP DUP2 LT ISZERO PUSH2 0x15BE JUMPI PUSH1 0x2 DUP2 DUP2 SLOAD DUP2 LT PUSH2 0x14DE JUMPI PUSH32 0x4E487B7100000000000000000000000000000000000000000000000000000000 PUSH1 0x0 MSTORE PUSH1 0x32 PUSH1 0x4 MSTORE PUSH1 0x24 PUSH1 0x0 REVERT JUMPDEST SWAP1 PUSH1 0x0 MSTORE PUSH1 0x20 PUSH1 0x0 KECCAK256 SWAP1 PUSH1 0x4 MUL ADD PUSH1 0x0 ADD PUSH1 0x0 SWAP1 SLOAD SWAP1 PUSH2 0x100 EXP SWAP1 DIV PUSH1 0xFF AND ISZERO PUSH2 0x15AB JUMPI DUP3 PUSH1 0x40 MLOAD PUSH1 0x20 ADD PUSH2 0x1513 SWAP2 SWAP1 PUSH2 0x1F31 JUMP JUMPDEST PUSH1 0x40 MLOAD PUSH1 0x20 DUP2 DUP4 SUB SUB DUP2 MSTORE SWAP1 PUSH1 0x40 MSTORE DUP1 MLOAD SWAP1 PUSH1 0x20 ADD KECCAK256 PUSH1 0x2 DUP3 DUP2 SLOAD DUP2 LT PUSH2 0x1563 JUMPI PUSH32 0x4E487B7100000000000000000000000000000000000000000000000000000000 PUSH1 0x0 MSTORE PUSH1 0x32 PUSH1 0x4 MSTORE PUSH1 0x24 PUSH1 0x0 REVERT JUMPDEST SWAP1 PUSH1 0x0 MSTORE PUSH1 0x20 PUSH1 0x0 KECCAK256 SWAP1 PUSH1 0x4 MUL ADD PUSH1 0x2 ADD PUSH1 0x40 MLOAD PUSH1 0x20 ADD PUSH2 0x1584 SWAP2 SWAP1 PUSH2 0x1F48 JUMP JUMPDEST PUSH1 0x40 MLOAD PUSH1 0x20 DUP2 DUP4 SUB SUB DUP2 MSTORE SWAP1 PUSH1 0x40 MSTORE DUP1 MLOAD SWAP1 PUSH1 0x20 ADD KECCAK256 EQ ISZERO PUSH2 0x15AA JUMPI PUSH1 0x1 SWAP2 POP POP PUSH2 0x15C4 JUMP JUMPDEST JUMPDEST DUP1 DUP1 PUSH2 0x15B6 SWAP1 PUSH2 0x2335 JUMP JUMPDEST SWAP2 POP POP PUSH2 0x1497 JUMP JUMPDEST POP PUSH1 0x0 SWAP1 POP JUMPDEST SWAP2 SWAP1 POP JUMP JUMPDEST PUSH2 0x15D1 PUSH2 0x1756 JUMP JUMPDEST PUSH1 0x0 JUMPDEST DUP3 PUSH1 0x80 ADD MLOAD MLOAD DUP2 LT ISZERO PUSH2 0x168F JUMPI DUP3 PUSH1 0x80 ADD MLOAD DUP2 DUP2 MLOAD DUP2 LT PUSH2 0x161E JUMPI PUSH32 0x4E487B7100000000000000000000000000000000000000000000000000000000 PUSH1 0x0 MSTORE PUSH1 0x32 PUSH1 0x4 MSTORE PUSH1 0x24 PUSH1 0x0 REVERT JUMPDEST PUSH1 0x20 MUL PUSH1 0x20 ADD ADD MLOAD PUSH1 0x0 ADD MLOAD ISZERO PUSH2 0x167C JUMPI DUP3 PUSH1 0x80 ADD MLOAD DUP2 DUP2 MLOAD DUP2 LT PUSH2 0x166C JUMPI PUSH32 0x4E487B7100000000000000000000000000000000000000000000000000000000 PUSH1 0x0 MSTORE PUSH1 0x32 PUSH1 0x4 MSTORE PUSH1 0x24 PUSH1 0x0 REVERT JUMPDEST PUSH1 0x20 MUL PUSH1 0x20 ADD ADD MLOAD SWAP2 POP POP PUSH2 0x16CB JUMP JUMPDEST DUP1 DUP1 PUSH2 0x1687 SWAP1 PUSH2 0x2335 JUMP JUMPDEST SWAP2 POP POP PUSH2 0x15D4 JUMP JUMPDEST POP PUSH1 0x40 MLOAD PUSH32 0x8C379A000000000000000000000000000000000000000000000000000000000 DUP2 MSTORE PUSH1 0x4 ADD PUSH2 0x16C2 SWAP1 PUSH2 0x2003 JUMP JUMPDEST PUSH1 0x40 MLOAD DUP1 SWAP2 SUB SWAP1 REVERT JUMPDEST SWAP2 SWAP1 POP JUMP JUMPDEST DUP3 DUP1 SLOAD PUSH2 0x16DC SWAP1 PUSH2 0x2303 JUMP JUMPDEST SWAP1 PUSH1 0x0 MSTORE PUSH1 0x20 PUSH1 0x0 KECCAK256 SWAP1 PUSH1 0x1F ADD PUSH1 0x20 SWAP1 DIV DUP2 ADD SWAP3 DUP3 PUSH2 0x16FE JUMPI PUSH1 0x0 DUP6 SSTORE PUSH2 0x1745 JUMP JUMPDEST DUP3 PUSH1 0x1F LT PUSH2 0x1717 JUMPI DUP1 MLOAD PUSH1 0xFF NOT AND DUP4 DUP1 ADD OR DUP6 SSTORE PUSH2 0x1745 JUMP JUMPDEST DUP3 DUP1 ADD PUSH1 0x1 ADD DUP6 SSTORE DUP3 ISZERO PUSH2 0x1745 JUMPI SWAP2 DUP3 ADD JUMPDEST DUP3 DUP2 GT ISZERO PUSH2 0x1744 JUMPI DUP3 MLOAD DUP3 SSTORE SWAP2 PUSH1 0x20 ADD SWAP2 SWAP1 PUSH1 0x1 ADD SWAP1 PUSH2 0x1729 JUMP JUMPDEST JUMPDEST POP SWAP1 POP PUSH2 0x1752 SWAP2 SWAP1 PUSH2 0x1796 JUMP JUMPDEST POP SWAP1 JUMP JUMPDEST PUSH1 0x40 MLOAD DUP1 PUSH1 0x80 ADD PUSH1 0x40 MSTORE DUP1 PUSH1 0x0 ISZERO ISZERO DUP2 MSTORE PUSH1 0x20 ADD PUSH1 0x0 PUSH20 0xFFFFFFFFFFFFFFFFFFFFFFFFFFFFFFFFFFFFFFFF AND DUP2 MSTORE PUSH1 0x20 ADD PUSH1 0x0 DUP2 MSTORE PUSH1 0x20 ADD PUSH1 0x60 DUP2 MSTORE POP SWAP1 JUMP JUMPDEST JUMPDEST DUP1 DUP3 GT ISZERO PUSH2 0x17AF JUMPI PUSH1 0x0 DUP2 PUSH1 0x0 SWAP1 SSTORE POP PUSH1 0x1 ADD PUSH2 0x1797 JUMP JUMPDEST POP SWAP1 JUMP JUMPDEST PUSH1 0x0 PUSH2 0x17C6 PUSH2 0x17C1 DUP5 PUSH2 0x21AF JUMP JUMPDEST PUSH2 0x217E JUMP JUMPDEST SWAP1 POP DUP3 DUP2 MSTORE PUSH1 0x20 DUP2 ADD DUP5 DUP5 DUP5 ADD GT ISZERO PUSH2 0x17DE JUMPI PUSH1 0x0 DUP1 REVERT JUMPDEST PUSH2 0x17E9 DUP5 DUP3 DUP6 PUSH2 0x2297 JUMP JUMPDEST POP SWAP4 SWAP3 POP POP POP JUMP JUMPDEST PUSH1 0x0 DUP2 CALLDATALOAD SWAP1 POP PUSH2 0x1800 DUP2 PUSH2 0x241C JUMP JUMPDEST SWAP3 SWAP2 POP POP JUMP JUMPDEST PUSH1 0x0 DUP3 PUSH1 0x1F DUP4 ADD SLT PUSH2 0x1817 JUMPI PUSH1 0x0 DUP1 REVERT JUMPDEST DUP2 CALLDATALOAD PUSH2 0x1827 DUP5 DUP3 PUSH1 0x20 DUP7 ADD PUSH2 0x17B3 JUMP JUMPDEST SWAP2 POP POP SWAP3 SWAP2 POP POP JUMP JUMPDEST PUSH1 0x0 DUP2 CALLDATALOAD SWAP1 POP PUSH2 0x183F DUP2 PUSH2 0x2433 JUMP JUMPDEST SWAP3 SWAP2 POP POP JUMP JUMPDEST PUSH1 0x0 PUSH1 0x20 DUP3 DUP5 SUB SLT ISZERO PUSH2 0x1857 JUMPI PUSH1 0x0 DUP1 REVERT JUMPDEST PUSH1 0x0 PUSH2 0x1865 DUP5 DUP3 DUP6 ADD PUSH2 0x17F1 JUMP JUMPDEST SWAP2 POP POP SWAP3 SWAP2 POP POP JUMP JUMPDEST PUSH1 0x0 DUP1 PUSH1 0x40 DUP4 DUP6 SUB SLT ISZERO PUSH2 0x1881 JUMPI PUSH1 0x0 DUP1 REVERT JUMPDEST PUSH1 0x0 DUP4 ADD CALLDATALOAD PUSH8 0xFFFFFFFFFFFFFFFF DUP2 GT ISZERO PUSH2 0x189B JUMPI PUSH1 0x0 DUP1 REVERT JUMPDEST PUSH2 0x18A7 DUP6 DUP3 DUP7 ADD PUSH2 0x1806 JUMP JUMPDEST SWAP3 POP POP PUSH1 0x20 DUP4 ADD CALLDATALOAD PUSH8 0xFFFFFFFFFFFFFFFF DUP2 GT ISZERO PUSH2 0x18C4 JUMPI PUSH1 0x0 DUP1 REVERT JUMPDEST PUSH2 0x18D0 DUP6 DUP3 DUP7 ADD PUSH2 0x1806 JUMP JUMPDEST SWAP2 POP POP SWAP3 POP SWAP3 SWAP1 POP JUMP JUMPDEST PUSH1 0x0 PUSH1 0x20 DUP3 DUP5 SUB SLT ISZERO PUSH2 0x18EC JUMPI PUSH1 0x0 DUP1 REVERT JUMPDEST PUSH1 0x0 PUSH2 0x18FA DUP5 DUP3 DUP6 ADD PUSH2 0x1830 JUMP JUMPDEST SWAP2 POP POP SWAP3 SWAP2 POP POP JUMP JUMPDEST PUSH1 0x0 DUP1 PUSH1 0x40 DUP4 DUP6 SUB SLT ISZERO PUSH2 0x1916 JUMPI PUSH1 0x0 DUP1 REVERT JUMPDEST PUSH1 0x0 PUSH2 0x1924 DUP6 DUP3 DUP7 ADD PUSH2 0x1830 JUMP JUMPDEST SWAP3 POP POP PUSH1 0x20 DUP4 ADD CALLDATALOAD PUSH8 0xFFFFFFFFFFFFFFFF DUP2 GT ISZERO PUSH2 0x1941 JUMPI PUSH1 0x0 DUP1 REVERT JUMPDEST PUSH2 0x194D DUP6 DUP3 DUP7 ADD PUSH2 0x1806 JUMP JUMPDEST SWAP2 POP POP SWAP3 POP SWAP3 SWAP1 POP JUMP JUMPDEST PUSH1 0x0 DUP1 PUSH1 0x40 DUP4 DUP6 SUB SLT ISZERO PUSH2 0x196A JUMPI PUSH1 0x0 DUP1 REVERT JUMPDEST PUSH1 0x0 PUSH2 0x1978 DUP6 DUP3 DUP7 ADD PUSH2 0x1830 JUMP JUMPDEST SWAP3 POP POP PUSH1 0x20 PUSH2 0x1989 DUP6 DUP3 DUP7 ADD PUSH2 0x1830 JUMP JUMPDEST SWAP2 POP POP SWAP3 POP SWAP3 SWAP1 POP JUMP JUMPDEST PUSH2 0x199C DUP2 PUSH2 0x224F JUMP JUMPDEST DUP3 MSTORE POP POP JUMP JUMPDEST PUSH2 0x19AB DUP2 PUSH2 0x2261 JUMP JUMPDEST DUP3 MSTORE POP POP JUMP JUMPDEST PUSH1 0x0 PUSH2 0x19BC DUP3 PUSH2 0x21F4 JUMP JUMPDEST PUSH2 0x19C6 DUP2 DUP6 PUSH2 0x21FF JUMP JUMPDEST SWAP4 POP PUSH2 0x19D6 DUP2 DUP6 PUSH1 0x20 DUP7 ADD PUSH2 0x22A6 JUMP JUMPDEST PUSH2 0x19DF DUP2 PUSH2 0x240B JUMP JUMPDEST DUP5 ADD SWAP2 POP POP SWAP3 SWAP2 POP POP JUMP JUMPDEST PUSH1 0x0 PUSH2 0x19F5 DUP3 PUSH2 0x21F4 JUMP JUMPDEST PUSH2 0x19FF DUP2 DUP6 PUSH2 0x2210 JUMP JUMPDEST SWAP4 POP PUSH2 0x1A0F DUP2 DUP6 PUSH1 0x20 DUP7 ADD PUSH2 0x22A6 JUMP JUMPDEST DUP1 DUP5 ADD SWAP2 POP POP SWAP3 SWAP2 POP POP JUMP JUMPDEST PUSH1 0x0 DUP2 SLOAD PUSH2 0x1A28 DUP2 PUSH2 0x2303 JUMP JUMPDEST PUSH2 0x1A32 DUP2 DUP7 PUSH2 0x2210 JUMP JUMPDEST SWAP5 POP PUSH1 0x1 DUP3 AND PUSH1 0x0 DUP2 EQ PUSH2 0x1A4D JUMPI PUSH1 0x1 DUP2 EQ PUSH2 0x1A5E JUMPI PUSH2 0x1A91 JUMP JUMPDEST PUSH1 0xFF NOT DUP4 AND DUP7 MSTORE DUP2 DUP7 ADD SWAP4 POP PUSH2 0x1A91 JUMP JUMPDEST PUSH2 0x1A67 DUP6 PUSH2 0x21DF JUMP JUMPDEST PUSH1 0x0 JUMPDEST DUP4 DUP2 LT ISZERO PUSH2 0x1A89 JUMPI DUP2 SLOAD DUP2 DUP10 ADD MSTORE PUSH1 0x1 DUP3 ADD SWAP2 POP PUSH1 0x20 DUP2 ADD SWAP1 POP PUSH2 0x1A6A JUMP JUMPDEST DUP4 DUP9 ADD SWAP6 POP POP POP JUMPDEST POP POP POP SWAP3 SWAP2 POP POP JUMP JUMPDEST PUSH1 0x0 PUSH2 0x1AA7 PUSH1 0x30 DUP4 PUSH2 0x21FF JUMP JUMPDEST SWAP2 POP PUSH32 0x4E656E68756D612076657263616F20617469766120656E636F6E747261646120 PUSH1 0x0 DUP4 ADD MSTORE PUSH32 0x70617261206573746120706167696E6100000000000000000000000000000000 PUSH1 0x20 DUP4 ADD MSTORE PUSH1 0x40 DUP3 ADD SWAP1 POP SWAP2 SWAP1 POP JUMP JUMPDEST PUSH1 0x0 PUSH2 0x1B0D PUSH1 0x43 DUP4 PUSH2 0x21FF JUMP JUMPDEST SWAP2 POP PUSH32 0x412061646963616F206465206E6F76617320766572636F657320736F20652070 PUSH1 0x0 DUP4 ADD MSTORE PUSH32 0x65726D6974696461207175616E646F206120706167696E612065737461206174 PUSH1 0x20 DUP4 ADD MSTORE PUSH32 0x6976610000000000000000000000000000000000000000000000000000000000 PUSH1 0x40 DUP4 ADD MSTORE PUSH1 0x60 DUP3 ADD SWAP1 POP SWAP2 SWAP1 POP JUMP JUMPDEST PUSH1 0x0 PUSH2 0x1B99 PUSH1 0x46 DUP4 PUSH2 0x21FF JUMP JUMPDEST SWAP2 POP PUSH32 0x4120646573617469766163616F20646520706167696E617320736F2065207065 PUSH1 0x0 DUP4 ADD MSTORE PUSH32 0x726D6974696461207175616E646F206120426C6F636B70656469612065737461 PUSH1 0x20 DUP4 ADD MSTORE PUSH32 0x2061746976610000000000000000000000000000000000000000000000000000 PUSH1 0x40 DUP4 ADD MSTORE PUSH1 0x60 DUP3 ADD SWAP1 POP SWAP2 SWAP1 POP JUMP JUMPDEST PUSH1 0x0 PUSH2 0x1C25 PUSH1 0x3F DUP4 PUSH2 0x21FF JUMP JUMPDEST SWAP2 POP PUSH32 0x4120616C7465726163616F2064652076657273616F20736F2065207065726D69 PUSH1 0x0 DUP4 ADD MSTORE PUSH32 0x74696461207175616E646F206120706167696E61206573746120617469766100 PUSH1 0x20 DUP4 ADD MSTORE PUSH1 0x40 DUP3 ADD SWAP1 POP SWAP2 SWAP1 POP JUMP JUMPDEST PUSH1 0x0 PUSH2 0x1C8B PUSH1 0x16 DUP4 PUSH2 0x21FF JUMP JUMPDEST SWAP2 POP PUSH32 0x496E6469636520666F726120646F20616C63616E636500000000000000000000 PUSH1 0x0 DUP4 ADD MSTORE PUSH1 0x20 DUP3 ADD SWAP1 POP SWAP2 SWAP1 POP JUMP JUMPDEST PUSH1 0x0 PUSH2 0x1CCB PUSH1 0x43 DUP4 PUSH2 0x21FF JUMP JUMPDEST SWAP2 POP PUSH32 0x4120617469766163616F20646520706167696E617320736F2065207065726D69 PUSH1 0x0 DUP4 ADD MSTORE PUSH32 0x74696461207175616E646F206120426C6F636B70656469612065737461206174 PUSH1 0x20 DUP4 ADD MSTORE PUSH32 0x6976610000000000000000000000000000000000000000000000000000000000 PUSH1 0x40 DUP4 ADD MSTORE PUSH1 0x60 DUP3 ADD SWAP1 POP SWAP2 SWAP1 POP JUMP JUMPDEST PUSH1 0x0 PUSH2 0x1D57 PUSH1 0x20 DUP4 PUSH2 0x21FF JUMP JUMPDEST SWAP2 POP PUSH32 0x496E646963652064612076657273616F20666F726120646F20616C63616E6365 PUSH1 0x0 DUP4 ADD MSTORE PUSH1 0x20 DUP3 ADD SWAP1 POP SWAP2 SWAP1 POP JUMP JUMPDEST PUSH1 0x0 PUSH2 0x1D97 PUSH1 0x26 DUP4 PUSH2 0x21FF JUMP JUMPDEST SWAP2 POP PUSH32 0x4A612065786973746520706167696E6120617469766120636F6D206573746520 PUSH1 0x0 DUP4 ADD MSTORE PUSH32 0x746974756C6F0000000000000000000000000000000000000000000000000000 PUSH1 0x20 DUP4 ADD MSTORE PUSH1 0x40 DUP3 ADD SWAP1 POP SWAP2 SWAP1 POP JUMP JUMPDEST PUSH1 0x0 PUSH2 0x1DFD PUSH1 0x20 DUP4 PUSH2 0x21FF JUMP JUMPDEST SWAP2 POP PUSH32 0x496E6469636520646120706167696E6120666F726120646F20616C63616E6365 PUSH1 0x0 DUP4 ADD MSTORE PUSH1 0x20 DUP3 ADD SWAP1 POP SWAP2 SWAP1 POP JUMP JUMPDEST PUSH1 0x0 PUSH2 0x1E3D PUSH1 0x3D DUP4 PUSH2 0x21FF JUMP JUMPDEST SWAP2 POP PUSH32 0x536F6D656E7465206F20646F6E6F20646573746120426C6F636B706564696120 PUSH1 0x0 DUP4 ADD MSTORE PUSH32 0x706F646520616C7465726172206F20617472696275746F20617469766F000000 PUSH1 0x20 DUP4 ADD MSTORE PUSH1 0x40 DUP3 ADD SWAP1 POP SWAP2 SWAP1 POP JUMP JUMPDEST PUSH1 0x0 PUSH2 0x1EA3 PUSH1 0x47 DUP4 PUSH2 0x21FF JUMP JUMPDEST SWAP2 POP PUSH32 0x412061646963616F206465206E6F76617320706167696E617320736F20652070 PUSH1 0x0 DUP4 ADD MSTORE PUSH32 0x65726D6974696461207175616E646F206120426C6F636B706564696120657374 PUSH1 0x20 DUP4 ADD MSTORE PUSH32 0x6120617469766100000000000000000000000000000000000000000000000000 PUSH1 0x40 DUP4 ADD MSTORE PUSH1 0x60 DUP3 ADD SWAP1 POP SWAP2 SWAP1 POP JUMP JUMPDEST PUSH2 0x1F2B DUP2 PUSH2 0x228D JUMP JUMPDEST DUP3 MSTORE POP POP JUMP JUMPDEST PUSH1 0x0 PUSH2 0x1F3D DUP3 DUP5 PUSH2 0x19EA JUMP JUMPDEST SWAP2 POP DUP2 SWAP1 POP SWAP3 SWAP2 POP POP JUMP JUMPDEST PUSH1 0x0 PUSH2 0x1F54 DUP3 DUP5 PUSH2 0x1A1B JUMP JUMPDEST SWAP2 POP DUP2 SWAP1 POP SWAP3 SWAP2 POP POP JUMP JUMPDEST PUSH1 0x0 PUSH1 0x20 DUP3 ADD SWAP1 POP PUSH2 0x1F74 PUSH1 0x0 DUP4 ADD DUP5 PUSH2 0x1993 JUMP JUMPDEST SWAP3 SWAP2 POP POP JUMP JUMPDEST PUSH1 0x0 PUSH1 0x20 DUP3 ADD SWAP1 POP PUSH2 0x1F8F PUSH1 0x0 DUP4 ADD DUP5 PUSH2 0x19A2 JUMP JUMPDEST SWAP3 SWAP2 POP POP JUMP JUMPDEST PUSH1 0x0 PUSH1 0x80 DUP3 ADD SWAP1 POP PUSH2 0x1FAA PUSH1 0x0 DUP4 ADD DUP8 PUSH2 0x19A2 JUMP JUMPDEST PUSH2 0x1FB7 PUSH1 0x20 DUP4 ADD DUP7 PUSH2 0x1993 JUMP JUMPDEST PUSH2 0x1FC4 PUSH1 0x40 DUP4 ADD DUP6 PUSH2 0x1F22 JUMP JUMPDEST DUP2 DUP2 SUB PUSH1 0x60 DUP4 ADD MSTORE PUSH2 0x1FD6 DUP2 DUP5 PUSH2 0x19B1 JUMP JUMPDEST SWAP1 POP SWAP6 SWAP5 POP POP POP POP POP JUMP JUMPDEST PUSH1 0x0 PUSH1 0x20 DUP3 ADD SWAP1 POP DUP2 DUP2 SUB PUSH1 0x0 DUP4 ADD MSTORE PUSH2 0x1FFB DUP2 DUP5 PUSH2 0x19B1 JUMP JUMPDEST SWAP1 POP SWAP3 SWAP2 POP POP JUMP JUMPDEST PUSH1 0x0 PUSH1 0x20 DUP3 ADD SWAP1 POP DUP2 DUP2 SUB PUSH1 0x0 DUP4 ADD MSTORE PUSH2 0x201C DUP2 PUSH2 0x1A9A JUMP JUMPDEST SWAP1 POP SWAP2 SWAP1 POP JUMP JUMPDEST PUSH1 0x0 PUSH1 0x20 DUP3 ADD SWAP1 POP DUP2 DUP2 SUB PUSH1 0x0 DUP4 ADD MSTORE PUSH2 0x203C DUP2 PUSH2 0x1B00 JUMP JUMPDEST SWAP1 POP SWAP2 SWAP1 POP JUMP JUMPDEST PUSH1 0x0 PUSH1 0x20 DUP3 ADD SWAP1 POP DUP2 DUP2 SUB PUSH1 0x0 DUP4 ADD MSTORE PUSH2 0x205C DUP2 PUSH2 0x1B8C JUMP JUMPDEST SWAP1 POP SWAP2 SWAP1 POP JUMP JUMPDEST PUSH1 0x0 PUSH1 0x20 DUP3 ADD SWAP1 POP DUP2 DUP2 SUB PUSH1 0x0 DUP4 ADD MSTORE PUSH2 0x207C DUP2 PUSH2 0x1C18 JUMP JUMPDEST SWAP1 POP SWAP2 SWAP1 POP JUMP JUMPDEST PUSH1 0x0 PUSH1 0x20 DUP3 ADD SWAP1 POP DUP2 DUP2 SUB PUSH1 0x0 DUP4 ADD MSTORE PUSH2 0x209C DUP2 PUSH2 0x1C7E JUMP JUMPDEST SWAP1 POP SWAP2 SWAP1 POP JUMP JUMPDEST PUSH1 0x0 PUSH1 0x20 DUP3 ADD SWAP1 POP DUP2 DUP2 SUB PUSH1 0x0 DUP4 ADD MSTORE PUSH2 0x20BC DUP2 PUSH2 0x1CBE JUMP JUMPDEST SWAP1 POP SWAP2 SWAP1 POP JUMP JUMPDEST PUSH1 0x0 PUSH1 0x20 DUP3 ADD SWAP1 POP DUP2 DUP2 SUB PUSH1 0x0 DUP4 ADD MSTORE PUSH2 0x20DC DUP2 PUSH2 0x1D4A JUMP JUMPDEST SWAP1 POP SWAP2 SWAP1 POP JUMP JUMPDEST PUSH1 0x0 PUSH1 0x20 DUP3 ADD SWAP1 POP DUP2 DUP2 SUB PUSH1 0x0 DUP4 ADD MSTORE PUSH2 0x20FC DUP2 PUSH2 0x1D8A JUMP JUMPDEST SWAP1 POP SWAP2 SWAP1 POP JUMP JUMPDEST PUSH1 0x0 PUSH1 0x20 DUP3 ADD SWAP1 POP DUP2 DUP2 SUB PUSH1 0x0 DUP4 ADD MSTORE PUSH2 0x211C DUP2 PUSH2 0x1DF0 JUMP JUMPDEST SWAP1 POP SWAP2 SWAP1 POP JUMP JUMPDEST PUSH1 0x0 PUSH1 0x20 DUP3 ADD SWAP1 POP DUP2 DUP2 SUB PUSH1 0x0 DUP4 ADD MSTORE PUSH2 0x213C DUP2 PUSH2 0x1E30 JUMP JUMPDEST SWAP1 POP SWAP2 SWAP1 POP JUMP JUMPDEST PUSH1 0x0 PUSH1 0x20 DUP3 ADD SWAP1 POP DUP2 DUP2 SUB PUSH1 0x0 DUP4 ADD MSTORE PUSH2 0x215C DUP2 PUSH2 0x1E96 JUMP JUMPDEST SWAP1 POP SWAP2 SWAP1 POP JUMP JUMPDEST PUSH1 0x0 PUSH1 0x20 DUP3 ADD SWAP1 POP PUSH2 0x2178 PUSH1 0x0 DUP4 ADD DUP5 PUSH2 0x1F22 JUMP JUMPDEST SWAP3 SWAP2 POP POP JUMP JUMPDEST PUSH1 0x0 PUSH1 0x40 MLOAD SWAP1 POP DUP2 DUP2 ADD DUP2 DUP2 LT PUSH8 0xFFFFFFFFFFFFFFFF DUP3 GT OR ISZERO PUSH2 0x21A5 JUMPI PUSH2 0x21A4 PUSH2 0x23DC JUMP JUMPDEST JUMPDEST DUP1 PUSH1 0x40 MSTORE POP SWAP2 SWAP1 POP JUMP JUMPDEST PUSH1 0x0 PUSH8 0xFFFFFFFFFFFFFFFF DUP3 GT ISZERO PUSH2 0x21CA JUMPI PUSH2 0x21C9 PUSH2 0x23DC JUMP JUMPDEST JUMPDEST PUSH1 0x1F NOT PUSH1 0x1F DUP4 ADD AND SWAP1 POP PUSH1 0x20 DUP2 ADD SWAP1 POP SWAP2 SWAP1 POP JUMP JUMPDEST PUSH1 0x0 DUP2 SWAP1 POP DUP2 PUSH1 0x0 MSTORE PUSH1 0x20 PUSH1 0x0 KECCAK256 SWAP1 POP SWAP2 SWAP1 POP JUMP JUMPDEST PUSH1 0x0 DUP2 MLOAD SWAP1 POP SWAP2 SWAP1 POP JUMP JUMPDEST PUSH1 0x0 DUP3 DUP3 MSTORE PUSH1 0x20 DUP3 ADD SWAP1 POP SWAP3 SWAP2 POP POP JUMP JUMPDEST PUSH1 0x0 DUP2 SWAP1 POP SWAP3 SWAP2 POP POP JUMP JUMPDEST PUSH1 0x0 PUSH2 0x2226 DUP3 PUSH2 0x228D JUMP JUMPDEST SWAP2 POP PUSH2 0x2231 DUP4 PUSH2 0x228D JUMP JUMPDEST SWAP3 POP DUP3 DUP3 LT ISZERO PUSH2 0x2244 JUMPI PUSH2 0x2243 PUSH2 0x237E JUMP JUMPDEST JUMPDEST DUP3 DUP3 SUB SWAP1 POP SWAP3 SWAP2 POP POP JUMP JUMPDEST PUSH1 0x0 PUSH2 0x225A DUP3 PUSH2 0x226D JUMP JUMPDEST SWAP1 POP SWAP2 SWAP1 POP JUMP JUMPDEST PUSH1 0x0 DUP2 ISZERO ISZERO SWAP1 POP SWAP2 SWAP1 POP JUMP JUMPDEST PUSH1 0x0 PUSH20 0xFFFFFFFFFFFFFFFFFFFFFFFFFFFFFFFFFFFFFFFF DUP3 AND SWAP1 POP SWAP2 SWAP1 POP JUMP JUMPDEST PUSH1 0x0 DUP2 SWAP1 POP SWAP2 SWAP1 POP JUMP JUMPDEST DUP3 DUP2 DUP4 CALLDATACOPY PUSH1 0x0 DUP4 DUP4 ADD MSTORE POP POP POP JUMP JUMPDEST PUSH1 0x0 JUMPDEST DUP4 DUP2 LT ISZERO PUSH2 0x22C4 JUMPI DUP1 DUP3 ADD MLOAD DUP2 DUP5 ADD MSTORE PUSH1 0x20 DUP2 ADD SWAP1 POP PUSH2 0x22A9 JUMP JUMPDEST DUP4 DUP2 GT ISZERO PUSH2 0x22D3 JUMPI PUSH1 0x0 DUP5 DUP5 ADD MSTORE JUMPDEST POP POP POP POP JUMP JUMPDEST PUSH1 0x0 PUSH2 0x22E4 DUP3 PUSH2 0x228D JUMP JUMPDEST SWAP2 POP PUSH1 0x0 DUP3 EQ ISZERO PUSH2 0x22F8 JUMPI PUSH2 0x22F7 PUSH2 0x237E JUMP JUMPDEST JUMPDEST PUSH1 0x1 DUP3 SUB SWAP1 POP SWAP2 SWAP1 POP JUMP JUMPDEST PUSH1 0x0 PUSH1 0x2 DUP3 DIV SWAP1 POP PUSH1 0x1 DUP3 AND DUP1 PUSH2 0x231B JUMPI PUSH1 0x7F DUP3 AND SWAP2 POP JUMPDEST PUSH1 0x20 DUP3 LT DUP2 EQ ISZERO PUSH2 0x232F JUMPI PUSH2 0x232E PUSH2 0x23AD JUMP JUMPDEST JUMPDEST POP SWAP2 SWAP1 POP JUMP JUMPDEST PUSH1 0x0 PUSH2 0x2340 DUP3 PUSH2 0x228D JUMP JUMPDEST SWAP2 POP PUSH32 0xFFFFFFFFFFFFFFFFFFFFFFFFFFFFFFFFFFFFFFFFFFFFFFFFFFFFFFFFFFFFFFFF DUP3 EQ ISZERO PUSH2 0x2373 JUMPI PUSH2 0x2372 PUSH2 0x237E JUMP JUMPDEST JUMPDEST PUSH1 0x1 DUP3 ADD SWAP1 POP SWAP2 SWAP1 POP JUMP JUMPDEST PUSH32 0x4E487B7100000000000000000000000000000000000000000000000000000000 PUSH1 0x0 MSTORE PUSH1 0x11 PUSH1 0x4 MSTORE PUSH1 0x24 PUSH1 0x0 REVERT JUMPDEST PUSH32 0x4E487B7100000000000000000000000000000000000000000000000000000000 PUSH1 0x0 MSTORE PUSH1 0x22 PUSH1 0x4 MSTORE PUSH1 0x24 PUSH1 0x0 REVERT JUMPDEST PUSH32 0x4E487B7100000000000000000000000000000000000000000000000000000000 PUSH1 0x0 MSTORE PUSH1 0x41 PUSH1 0x4 MSTORE PUSH1 0x24 PUSH1 0x0 REVERT JUMPDEST PUSH1 0x0 PUSH1 0x1F NOT PUSH1 0x1F DUP4 ADD AND SWAP1 POP SWAP2 SWAP1 POP JUMP JUMPDEST PUSH2 0x2425 DUP2 PUSH2 0x2261 JUMP JUMPDEST DUP2 EQ PUSH2 0x2430 JUMPI PUSH1 0x0 DUP1 REVERT JUMPDEST POP JUMP JUMPDEST PUSH2 0x243C DUP2 PUSH2 0x228D JUMP JUMPDEST DUP2 EQ PUSH2 0x2447 JUMPI PUSH1 0x0 DUP1 REVERT JUMPDEST POP JUMP INVALID LOG2 PUSH5 0x6970667358 0x22 SLT KECCAK256 0xA8 0xF6 CHAINID 0xF7 MOD 0xDB DUP15 NOT SWAP15 JUMP 0xAE 0xB8 0xDE PUSH23 0xD43A68E5CA2400A609AF7C078A5A599C0A2D64736F6C63 NUMBER STOP ADDMOD STOP STOP CALLER TIMESTAMP PUSH6 0x6D2076696E64 PUSH16 0x206120426C6F636B70656964612C2061 KECCAK256 PUSH6 0x6E6369636C6F PUSH17 0x65646961206E6120626C6F636B63686169 PUSH15 0x0 "
				},
				"gasEstimates": {
					"creation": {
						"codeDepositCost": "1868800",
						"executionCost": "infinite",
						"totalCost": "infinite"
					},
					"external": {
						"adicionaNovaVercaoDesativadaAPaginaPorIndexPaginas(uint256,string)": "infinite",
						"ativaDesativaBlockpedia(bool)": "22222",
						"ativaPaginaPorIndexPaginas(uint256)": "infinite",
						"ativaVersaoPorIndexVersoesEIndexPaginas(uint256,uint256)": "infinite",
						"ativo()": "1190",
						"autor()": "1265",
						"criarPagina(string,string)": "infinite",
						"dataCriacao()": "1218",
						"desativaPaginaPorIndexPaginas(uint256)": "25690",
						"getConteudoVersaoValidaPorIndexPaginas(uint256)": "infinite",
						"paginas(uint256)": "infinite"
					},
					"internal": {
						"existeTituloAtivo(string memory)": "infinite",
						"getVersaoValidaDeUmaPagina(struct Pagina memory)": "infinite"
					}
				},
				"methodIdentifiers": {
					"adicionaNovaVercaoDesativadaAPaginaPorIndexPaginas(uint256,string)": "d4d23a6e",
					"ativaDesativaBlockpedia(bool)": "1509d30c",
					"ativaPaginaPorIndexPaginas(uint256)": "aa83581f",
					"ativaVersaoPorIndexVersoesEIndexPaginas(uint256,uint256)": "95be551a",
					"ativo()": "a18cc13b",
					"autor()": "0694952d",
					"criarPagina(string,string)": "1c18379a",
					"dataCriacao()": "6f70a52e",
					"desativaPaginaPorIndexPaginas(uint256)": "d616c9f0",
					"getConteudoVersaoValidaPorIndexPaginas(uint256)": "4d7e6726",
					"paginas(uint256)": "e7d4296a"
				}
			},
			"storageLayout": {
				"storage": [
					{
						"astId": 5,
						"contract": "blockpedia.sol:Blockpedia",
						"label": "ativo",
						"offset": 0,
						"slot": "0",
						"type": "t_bool"
					},
					{
						"astId": 7,
						"contract": "blockpedia.sol:Blockpedia",
						"label": "autor",
						"offset": 1,
						"slot": "0",
						"type": "t_address"
					},
					{
						"astId": 11,
						"contract": "blockpedia.sol:Blockpedia",
						"label": "dataCriacao",
						"offset": 0,
						"slot": "1",
						"type": "t_uint256"
					},
					{
						"astId": 15,
						"contract": "blockpedia.sol:Blockpedia",
						"label": "paginas",
						"offset": 0,
						"slot": "2",
						"type": "t_array(t_struct(Pagina)463_storage)dyn_storage"
					}
				],
				"types": {
					"t_address": {
						"encoding": "inplace",
						"label": "address",
						"numberOfBytes": "20"
					},
					"t_array(t_struct(Pagina)463_storage)dyn_storage": {
						"base": "t_struct(Pagina)463_storage",
						"encoding": "dynamic_array",
						"label": "struct Pagina[]",
						"numberOfBytes": "32"
					},
					"t_array(t_struct(Versao)474_storage)dyn_storage": {
						"base": "t_struct(Versao)474_storage",
						"encoding": "dynamic_array",
						"label": "struct Versao[]",
						"numberOfBytes": "32"
					},
					"t_bool": {
						"encoding": "inplace",
						"label": "bool",
						"numberOfBytes": "1"
					},
					"t_string_storage": {
						"encoding": "bytes",
						"label": "string",
						"numberOfBytes": "32"
					},
					"t_struct(Pagina)463_storage": {
						"encoding": "inplace",
						"label": "struct Pagina",
						"members": [
							{
								"astId": 452,
								"contract": "blockpedia.sol:Blockpedia",
								"label": "ativo",
								"offset": 0,
								"slot": "0",
								"type": "t_bool"
							},
							{
								"astId": 454,
								"contract": "blockpedia.sol:Blockpedia",
								"label": "autor",
								"offset": 1,
								"slot": "0",
								"type": "t_address"
							},
							{
								"astId": 456,
								"contract": "blockpedia.sol:Blockpedia",
								"label": "dataCriacao",
								"offset": 0,
								"slot": "1",
								"type": "t_uint256"
							},
							{
								"astId": 458,
								"contract": "blockpedia.sol:Blockpedia",
								"label": "titulo",
								"offset": 0,
								"slot": "2",
								"type": "t_string_storage"
							},
							{
								"astId": 462,
								"contract": "blockpedia.sol:Blockpedia",
								"label": "versoes",
								"offset": 0,
								"slot": "3",
								"type": "t_array(t_struct(Versao)474_storage)dyn_storage"
							}
						],
						"numberOfBytes": "128"
					},
					"t_struct(Versao)474_storage": {
						"encoding": "inplace",
						"label": "struct Versao",
						"members": [
							{
								"astId": 467,
								"contract": "blockpedia.sol:Blockpedia",
								"label": "ativo",
								"offset": 0,
								"slot": "0",
								"type": "t_bool"
							},
							{
								"astId": 469,
								"contract": "blockpedia.sol:Blockpedia",
								"label": "autor",
								"offset": 1,
								"slot": "0",
								"type": "t_address"
							},
							{
								"astId": 471,
								"contract": "blockpedia.sol:Blockpedia",
								"label": "dataCriacao",
								"offset": 0,
								"slot": "1",
								"type": "t_uint256"
							},
							{
								"astId": 473,
								"contract": "blockpedia.sol:Blockpedia",
								"label": "conteudo",
								"offset": 0,
								"slot": "2",
								"type": "t_string_storage"
							}
						],
						"numberOfBytes": "96"
					},
					"t_uint256": {
						"encoding": "inplace",
						"label": "uint256",
						"numberOfBytes": "32"
					}
				}
			},
			"userdoc": {
				"kind": "user",
				"methods": {},
				"version": 1
			}
		}
	}
}