{
	"blockpedia.sol": {
		"Blockpedia": {
			"abi": [
				{
					"inputs": [],
					"stateMutability": "nonpayable",
					"type": "constructor"
				},
				{
					"inputs": [
						{
							"internalType": "uint256",
							"name": "indice",
							"type": "uint256"
						},
						{
							"internalType": "string",
							"name": "conteudo",
							"type": "string"
						}
					],
					"name": "adicionaNovaVercaoDesativadaAPaginaPorIndexPaginas",
					"outputs": [],
					"stateMutability": "nonpayable",
					"type": "function"
				},
				{
					"inputs": [
						{
							"internalType": "bool",
							"name": "_ativo",
							"type": "bool"
						}
					],
					"name": "ativaDesativaBlockpedia",
					"outputs": [],
					"stateMutability": "nonpayable",
					"type": "function"
				},
				{
					"inputs": [],
					"name": "ativo",
					"outputs": [
						{
							"internalType": "bool",
							"name": "",
							"type": "bool"
						}
					],
					"stateMutability": "view",
					"type": "function"
				},
				{
					"inputs": [],
					"name": "autor",
					"outputs": [
						{
							"internalType": "address",
							"name": "",
							"type": "address"
						}
					],
					"stateMutability": "view",
					"type": "function"
				},
				{
					"inputs": [
						{
							"internalType": "string",
							"name": "titulo",
							"type": "string"
						},
						{
							"internalType": "string",
							"name": "conteudo",
							"type": "string"
						}
					],
					"name": "criarPagina",
					"outputs": [],
					"stateMutability": "nonpayable",
					"type": "function"
				},
				{
					"inputs": [
						{
							"internalType": "uint256",
							"name": "indice",
							"type": "uint256"
						}
					],
					"name": "getVersaoValidaPorIndexPaginas",
					"outputs": [
						{
							"internalType": "string",
							"name": "",
							"type": "string"
						}
					],
					"stateMutability": "view",
					"type": "function"
				},
				{
					"inputs": [
						{
							"internalType": "uint256",
							"name": "",
							"type": "uint256"
						}
					],
					"name": "paginas",
					"outputs": [
						{
							"internalType": "address",
							"name": "autor",
							"type": "address"
						},
						{
							"internalType": "bool",
							"name": "ativo",
							"type": "bool"
						},
						{
							"internalType": "string",
							"name": "titulo",
							"type": "string"
						}
					],
					"stateMutability": "view",
					"type": "function"
				}
			],
			"devdoc": {
				"kind": "dev",
				"methods": {},
				"version": 1
			},
			"evm": {
				"assembly": "    /* \"blockpedia.sol\":85:2231  contract Blockpedia\r... */\n  mstore(0x40, 0x80)\n    /* \"blockpedia.sol\":133:137  true */\n  0x01\n    /* \"blockpedia.sol\":113:137  bool public ativo = true */\n  0x00\n  dup1\n  0x0100\n  exp\n  dup2\n  sload\n  dup2\n  0xff\n  mul\n  not\n  and\n  swap1\n  dup4\n  iszero\n  iszero\n  mul\n  or\n  swap1\n  sstore\n  pop\n    /* \"blockpedia.sol\":206:240  constructor(){autor = msg.sender;} */\n  callvalue\n  dup1\n  iszero\n  tag_1\n  jumpi\n  0x00\n  dup1\n  revert\ntag_1:\n  pop\n    /* \"blockpedia.sol\":228:238  msg.sender */\n  caller\n    /* \"blockpedia.sol\":220:225  autor */\n  0x00\n  0x01\n    /* \"blockpedia.sol\":220:238  autor = msg.sender */\n  0x0100\n  exp\n  dup2\n  sload\n  dup2\n  0xffffffffffffffffffffffffffffffffffffffff\n  mul\n  not\n  and\n  swap1\n  dup4\n  0xffffffffffffffffffffffffffffffffffffffff\n  and\n  mul\n  or\n  swap1\n  sstore\n  pop\n    /* \"blockpedia.sol\":85:2231  contract Blockpedia\r... */\n  dataSize(sub_0)\n  dup1\n  dataOffset(sub_0)\n  0x00\n  codecopy\n  0x00\n  return\nstop\n\nsub_0: assembly {\n        /* \"blockpedia.sol\":85:2231  contract Blockpedia\r... */\n      mstore(0x40, 0x80)\n      callvalue\n      dup1\n      iszero\n      tag_1\n      jumpi\n      0x00\n      dup1\n      revert\n    tag_1:\n      pop\n      jumpi(tag_2, lt(calldatasize, 0x04))\n      shr(0xe0, calldataload(0x00))\n      dup1\n      0x57ae2a89\n      gt\n      tag_10\n      jumpi\n      dup1\n      0x57ae2a89\n      eq\n      tag_6\n      jumpi\n      dup1\n      0xa18cc13b\n      eq\n      tag_7\n      jumpi\n      dup1\n      0xd4d23a6e\n      eq\n      tag_8\n      jumpi\n      dup1\n      0xe7d4296a\n      eq\n      tag_9\n      jumpi\n      jump(tag_2)\n    tag_10:\n      dup1\n      0x0694952d\n      eq\n      tag_3\n      jumpi\n      dup1\n      0x1509d30c\n      eq\n      tag_4\n      jumpi\n      dup1\n      0x1c18379a\n      eq\n      tag_5\n      jumpi\n    tag_2:\n      0x00\n      dup1\n      revert\n        /* \"blockpedia.sol\":145:165  address public autor */\n    tag_3:\n      tag_11\n      tag_12\n      jump\t// in\n    tag_11:\n      mload(0x40)\n      tag_13\n      swap2\n      swap1\n      tag_14\n      jump\t// in\n    tag_13:\n      mload(0x40)\n      dup1\n      swap2\n      sub\n      swap1\n      return\n        /* \"blockpedia.sol\":873:1067  function ativaDesativaBlockpedia(bool _ativo) public\r... */\n    tag_4:\n      tag_15\n      0x04\n      dup1\n      calldatasize\n      sub\n      dup2\n      add\n      swap1\n      tag_16\n      swap2\n      swap1\n      tag_17\n      jump\t// in\n    tag_16:\n      tag_18\n      jump\t// in\n    tag_15:\n      stop\n        /* \"blockpedia.sol\":248:865  function criarPagina(string memory titulo, string memory conteudo) public\r... */\n    tag_5:\n      tag_19\n      0x04\n      dup1\n      calldatasize\n      sub\n      dup2\n      add\n      swap1\n      tag_20\n      swap2\n      swap1\n      tag_21\n      jump\t// in\n    tag_20:\n      tag_22\n      jump\t// in\n    tag_19:\n      stop\n        /* \"blockpedia.sol\":1606:1778  function getVersaoValidaPorIndexPaginas(uint indice) public view returns (string memory)\r... */\n    tag_6:\n      tag_23\n      0x04\n      dup1\n      calldatasize\n      sub\n      dup2\n      add\n      swap1\n      tag_24\n      swap2\n      swap1\n      tag_25\n      jump\t// in\n    tag_24:\n      tag_26\n      jump\t// in\n    tag_23:\n      mload(0x40)\n      tag_27\n      swap2\n      swap1\n      tag_28\n      jump\t// in\n    tag_27:\n      mload(0x40)\n      dup1\n      swap2\n      sub\n      swap1\n      return\n        /* \"blockpedia.sol\":113:137  bool public ativo = true */\n    tag_7:\n      tag_29\n      tag_30\n      jump\t// in\n    tag_29:\n      mload(0x40)\n      tag_31\n      swap2\n      swap1\n      tag_32\n      jump\t// in\n    tag_31:\n      mload(0x40)\n      dup1\n      swap2\n      sub\n      swap1\n      return\n        /* \"blockpedia.sol\":2101:2228  function adicionaNovaVercaoDesativadaAPaginaPorIndexPaginas(uint indice,string memory conteudo)public\r... */\n    tag_8:\n      tag_33\n      0x04\n      dup1\n      calldatasize\n      sub\n      dup2\n      add\n      swap1\n      tag_34\n      swap2\n      swap1\n      tag_35\n      jump\t// in\n    tag_34:\n      tag_36\n      jump\t// in\n    tag_33:\n      stop\n        /* \"blockpedia.sol\":173:196  Pagina[] public paginas */\n    tag_9:\n      tag_37\n      0x04\n      dup1\n      calldatasize\n      sub\n      dup2\n      add\n      swap1\n      tag_38\n      swap2\n      swap1\n      tag_25\n      jump\t// in\n    tag_38:\n      tag_39\n      jump\t// in\n    tag_37:\n      mload(0x40)\n      tag_40\n      swap4\n      swap3\n      swap2\n      swap1\n      tag_41\n      jump\t// in\n    tag_40:\n      mload(0x40)\n      dup1\n      swap2\n      sub\n      swap1\n      return\n        /* \"blockpedia.sol\":145:165  address public autor */\n    tag_12:\n      0x00\n      0x01\n      swap1\n      sload\n      swap1\n      0x0100\n      exp\n      swap1\n      div\n      0xffffffffffffffffffffffffffffffffffffffff\n      and\n      dup2\n      jump\t// out\n        /* \"blockpedia.sol\":873:1067  function ativaDesativaBlockpedia(bool _ativo) public\r... */\n    tag_18:\n        /* \"blockpedia.sol\":964:969  autor */\n      0x00\n      0x01\n      swap1\n      sload\n      swap1\n      0x0100\n      exp\n      swap1\n      div\n      0xffffffffffffffffffffffffffffffffffffffff\n      and\n        /* \"blockpedia.sol\":950:969  msg.sender == autor */\n      0xffffffffffffffffffffffffffffffffffffffff\n      and\n        /* \"blockpedia.sol\":950:960  msg.sender */\n      caller\n        /* \"blockpedia.sol\":950:969  msg.sender == autor */\n      0xffffffffffffffffffffffffffffffffffffffff\n      and\n      eq\n        /* \"blockpedia.sol\":942:1034  require(msg.sender == autor,\"Somente o dono desta Blockpedia pode alterar o atributo ativo\") */\n      tag_43\n      jumpi\n      mload(0x40)\n      0x08c379a000000000000000000000000000000000000000000000000000000000\n      dup2\n      mstore\n      0x04\n      add\n      tag_44\n      swap1\n      tag_45\n      jump\t// in\n    tag_44:\n      mload(0x40)\n      dup1\n      swap2\n      sub\n      swap1\n      revert\n    tag_43:\n        /* \"blockpedia.sol\":1053:1059  _ativo */\n      dup1\n        /* \"blockpedia.sol\":1045:1050  ativo */\n      0x00\n      dup1\n        /* \"blockpedia.sol\":1045:1059  ativo = _ativo */\n      0x0100\n      exp\n      dup2\n      sload\n      dup2\n      0xff\n      mul\n      not\n      and\n      swap1\n      dup4\n      iszero\n      iszero\n      mul\n      or\n      swap1\n      sstore\n      pop\n        /* \"blockpedia.sol\":873:1067  function ativaDesativaBlockpedia(bool _ativo) public\r... */\n      pop\n      jump\t// out\n        /* \"blockpedia.sol\":248:865  function criarPagina(string memory titulo, string memory conteudo) public\r... */\n    tag_22:\n        /* \"blockpedia.sol\":355:359  true */\n      0x01\n        /* \"blockpedia.sol\":346:359  ativo == true */\n      iszero\n      iszero\n        /* \"blockpedia.sol\":346:351  ativo */\n      0x00\n      dup1\n      sload\n      swap1\n      0x0100\n      exp\n      swap1\n      div\n      0xff\n      and\n        /* \"blockpedia.sol\":346:359  ativo == true */\n      iszero\n      iszero\n      eq\n        /* \"blockpedia.sol\":338:435  require(ativo == true, \"A adicao de novas paginas so e permitida quando a Blockpedia esta ativa\") */\n      tag_47\n      jumpi\n      mload(0x40)\n      0x08c379a000000000000000000000000000000000000000000000000000000000\n      dup2\n      mstore\n      0x04\n      add\n      tag_48\n      swap1\n      tag_49\n      jump\t// in\n    tag_48:\n      mload(0x40)\n      dup1\n      swap2\n      sub\n      swap1\n      revert\n    tag_47:\n        /* \"blockpedia.sol\":455:475  tituloExiste(titulo) */\n      tag_50\n        /* \"blockpedia.sol\":468:474  titulo */\n      dup3\n        /* \"blockpedia.sol\":455:467  tituloExiste */\n      tag_51\n        /* \"blockpedia.sol\":455:475  tituloExiste(titulo) */\n      jump\t// in\n    tag_50:\n        /* \"blockpedia.sol\":454:475  !tituloExiste(titulo) */\n      iszero\n        /* \"blockpedia.sol\":446:516  require(!tituloExiste(titulo), \"Uma pagina com este titulo ja existe\") */\n      tag_52\n      jumpi\n      mload(0x40)\n      0x08c379a000000000000000000000000000000000000000000000000000000000\n      dup2\n      mstore\n      0x04\n      add\n      tag_53\n      swap1\n      tag_54\n      jump\t// in\n    tag_53:\n      mload(0x40)\n      dup1\n      swap2\n      sub\n      swap1\n      revert\n    tag_52:\n        /* \"blockpedia.sol\":529:554  Pagina storage novaPagina */\n      0x00\n        /* \"blockpedia.sol\":557:564  paginas */\n      0x01\n        /* \"blockpedia.sol\":557:571  paginas.push() */\n      dup1\n      dup2\n      0x01\n      dup2\n      sload\n      add\n      dup1\n      dup3\n      sstore\n      dup1\n      swap2\n      pop\n      pop\n      sub\n      swap1\n      0x00\n      mstore\n      keccak256(0x00, 0x20)\n      swap1\n      0x03\n      mul\n      add\n        /* \"blockpedia.sol\":529:571  Pagina storage novaPagina = paginas.push() */\n      swap1\n      pop\n        /* \"blockpedia.sol\":669:679  msg.sender */\n      caller\n        /* \"blockpedia.sol\":650:660  novaPagina */\n      dup2\n        /* \"blockpedia.sol\":650:666  novaPagina.autor */\n      0x00\n      add\n      0x00\n        /* \"blockpedia.sol\":650:679  novaPagina.autor = msg.sender */\n      0x0100\n      exp\n      dup2\n      sload\n      dup2\n      0xffffffffffffffffffffffffffffffffffffffff\n      mul\n      not\n      and\n      swap1\n      dup4\n      0xffffffffffffffffffffffffffffffffffffffff\n      and\n      mul\n      or\n      swap1\n      sstore\n      pop\n        /* \"blockpedia.sol\":709:713  true */\n      0x01\n        /* \"blockpedia.sol\":690:700  novaPagina */\n      dup2\n        /* \"blockpedia.sol\":690:706  novaPagina.ativo */\n      0x00\n      add\n      0x14\n        /* \"blockpedia.sol\":690:713  novaPagina.ativo = true */\n      0x0100\n      exp\n      dup2\n      sload\n      dup2\n      0xff\n      mul\n      not\n      and\n      swap1\n      dup4\n      iszero\n      iszero\n      mul\n      or\n      swap1\n      sstore\n      pop\n        /* \"blockpedia.sol\":744:750  titulo */\n      dup3\n        /* \"blockpedia.sol\":724:734  novaPagina */\n      dup2\n        /* \"blockpedia.sol\":724:741  novaPagina.titulo */\n      0x01\n      add\n        /* \"blockpedia.sol\":724:750  novaPagina.titulo = titulo */\n      swap1\n      dup1\n      mload\n      swap1\n      0x20\n      add\n      swap1\n      tag_56\n      swap3\n      swap2\n      swap1\n      tag_57\n      jump\t// in\n    tag_56:\n      pop\n        /* \"blockpedia.sol\":763:773  novaPagina */\n      dup1\n        /* \"blockpedia.sol\":763:781  novaPagina.versoes */\n      0x02\n      add\n        /* \"blockpedia.sol\":787:821  Versao(msg.sender, true, conteudo) */\n      mload(0x40)\n      dup1\n      0x60\n      add\n      0x40\n      mstore\n      dup1\n        /* \"blockpedia.sol\":794:804  msg.sender */\n      caller\n        /* \"blockpedia.sol\":787:821  Versao(msg.sender, true, conteudo) */\n      0xffffffffffffffffffffffffffffffffffffffff\n      and\n      dup2\n      mstore\n      0x20\n      add\n        /* \"blockpedia.sol\":806:810  true */\n      0x01\n        /* \"blockpedia.sol\":787:821  Versao(msg.sender, true, conteudo) */\n      iszero\n      iszero\n      dup2\n      mstore\n      0x20\n      add\n        /* \"blockpedia.sol\":812:820  conteudo */\n      dup5\n        /* \"blockpedia.sol\":787:821  Versao(msg.sender, true, conteudo) */\n      dup2\n      mstore\n      pop\n        /* \"blockpedia.sol\":763:822  novaPagina.versoes.push(Versao(msg.sender, true, conteudo)) */\n      swap1\n      dup1\n      0x01\n      dup2\n      sload\n      add\n      dup1\n      dup3\n      sstore\n      dup1\n      swap2\n      pop\n      pop\n      0x01\n      swap1\n      sub\n      swap1\n      0x00\n      mstore\n      keccak256(0x00, 0x20)\n      swap1\n      0x02\n      mul\n      add\n      0x00\n      swap1\n      swap2\n      swap1\n      swap2\n      swap1\n      swap2\n      pop\n      0x00\n      dup3\n      add\n      mload\n      dup2\n      0x00\n      add\n      exp(0x0100, 0x00)\n      dup2\n      sload\n      dup2\n      0xffffffffffffffffffffffffffffffffffffffff\n      mul\n      not\n      and\n      swap1\n      dup4\n      0xffffffffffffffffffffffffffffffffffffffff\n      and\n      mul\n      or\n      swap1\n      sstore\n      pop\n      0x20\n      dup3\n      add\n      mload\n      dup2\n      0x00\n      add\n      exp(0x0100, 0x14)\n      dup2\n      sload\n      dup2\n      0xff\n      mul\n      not\n      and\n      swap1\n      dup4\n      iszero\n      iszero\n      mul\n      or\n      swap1\n      sstore\n      pop\n      0x40\n      dup3\n      add\n      mload\n      dup2\n      0x01\n      add\n      swap1\n      dup1\n      mload\n      swap1\n      0x20\n      add\n      swap1\n      tag_59\n      swap3\n      swap2\n      swap1\n      tag_57\n      jump\t// in\n    tag_59:\n      pop\n      pop\n      pop\n        /* \"blockpedia.sol\":248:865  function criarPagina(string memory titulo, string memory conteudo) public\r... */\n      pop\n      pop\n      pop\n      jump\t// out\n        /* \"blockpedia.sol\":1606:1778  function getVersaoValidaPorIndexPaginas(uint indice) public view returns (string memory)\r... */\n    tag_26:\n        /* \"blockpedia.sol\":1680:1693  string memory */\n      0x60\n        /* \"blockpedia.sol\":1718:1761  getVersaoValidaDeUmaPagina(paginas[indice]) */\n      tag_61\n        /* \"blockpedia.sol\":1745:1752  paginas */\n      0x01\n        /* \"blockpedia.sol\":1753:1759  indice */\n      dup4\n        /* \"blockpedia.sol\":1745:1760  paginas[indice] */\n      dup2\n      sload\n      dup2\n      lt\n      tag_62\n      jumpi\n      mstore(0x00, 0x4e487b7100000000000000000000000000000000000000000000000000000000)\n      mstore(0x04, 0x32)\n      revert(0x00, 0x24)\n    tag_62:\n      swap1\n      0x00\n      mstore\n      keccak256(0x00, 0x20)\n      swap1\n      0x03\n      mul\n      add\n        /* \"blockpedia.sol\":1718:1761  getVersaoValidaDeUmaPagina(paginas[indice]) */\n      mload(0x40)\n      dup1\n      0x80\n      add\n      0x40\n      mstore\n      swap1\n      dup2\n      0x00\n      dup3\n      add\n      0x00\n      swap1\n      sload\n      swap1\n      0x0100\n      exp\n      swap1\n      div\n      0xffffffffffffffffffffffffffffffffffffffff\n      and\n      0xffffffffffffffffffffffffffffffffffffffff\n      and\n      0xffffffffffffffffffffffffffffffffffffffff\n      and\n      dup2\n      mstore\n      0x20\n      add\n      0x00\n      dup3\n      add\n      0x14\n      swap1\n      sload\n      swap1\n      0x0100\n      exp\n      swap1\n      div\n      0xff\n      and\n      iszero\n      iszero\n      iszero\n      iszero\n      dup2\n      mstore\n      0x20\n      add\n      0x01\n      dup3\n      add\n      dup1\n      sload\n      tag_64\n      swap1\n      tag_65\n      jump\t// in\n    tag_64:\n      dup1\n      0x1f\n      add\n      0x20\n      dup1\n      swap2\n      div\n      mul\n      0x20\n      add\n      mload(0x40)\n      swap1\n      dup2\n      add\n      0x40\n      mstore\n      dup1\n      swap3\n      swap2\n      swap1\n      dup2\n      dup2\n      mstore\n      0x20\n      add\n      dup3\n      dup1\n      sload\n      tag_66\n      swap1\n      tag_65\n      jump\t// in\n    tag_66:\n      dup1\n      iszero\n      tag_67\n      jumpi\n      dup1\n      0x1f\n      lt\n      tag_68\n      jumpi\n      0x0100\n      dup1\n      dup4\n      sload\n      div\n      mul\n      dup4\n      mstore\n      swap2\n      0x20\n      add\n      swap2\n      jump(tag_67)\n    tag_68:\n      dup3\n      add\n      swap2\n      swap1\n      0x00\n      mstore\n      keccak256(0x00, 0x20)\n      swap1\n    tag_69:\n      dup2\n      sload\n      dup2\n      mstore\n      swap1\n      0x01\n      add\n      swap1\n      0x20\n      add\n      dup1\n      dup4\n      gt\n      tag_69\n      jumpi\n      dup3\n      swap1\n      sub\n      0x1f\n      and\n      dup3\n      add\n      swap2\n    tag_67:\n      pop\n      pop\n      pop\n      pop\n      pop\n      dup2\n      mstore\n      0x20\n      add\n      0x02\n      dup3\n      add\n      dup1\n      sload\n      dup1\n      0x20\n      mul\n      0x20\n      add\n      mload(0x40)\n      swap1\n      dup2\n      add\n      0x40\n      mstore\n      dup1\n      swap3\n      swap2\n      swap1\n      dup2\n      dup2\n      mstore\n      0x20\n      add\n      0x00\n      swap1\n    tag_70:\n      dup3\n      dup3\n      lt\n      iszero\n      tag_71\n      jumpi\n      dup4\n      dup3\n      swap1\n      0x00\n      mstore\n      keccak256(0x00, 0x20)\n      swap1\n      0x02\n      mul\n      add\n      mload(0x40)\n      dup1\n      0x60\n      add\n      0x40\n      mstore\n      swap1\n      dup2\n      0x00\n      dup3\n      add\n      0x00\n      swap1\n      sload\n      swap1\n      0x0100\n      exp\n      swap1\n      div\n      0xffffffffffffffffffffffffffffffffffffffff\n      and\n      0xffffffffffffffffffffffffffffffffffffffff\n      and\n      0xffffffffffffffffffffffffffffffffffffffff\n      and\n      dup2\n      mstore\n      0x20\n      add\n      0x00\n      dup3\n      add\n      0x14\n      swap1\n      sload\n      swap1\n      0x0100\n      exp\n      swap1\n      div\n      0xff\n      and\n      iszero\n      iszero\n      iszero\n      iszero\n      dup2\n      mstore\n      0x20\n      add\n      0x01\n      dup3\n      add\n      dup1\n      sload\n      tag_73\n      swap1\n      tag_65\n      jump\t// in\n    tag_73:\n      dup1\n      0x1f\n      add\n      0x20\n      dup1\n      swap2\n      div\n      mul\n      0x20\n      add\n      mload(0x40)\n      swap1\n      dup2\n      add\n      0x40\n      mstore\n      dup1\n      swap3\n      swap2\n      swap1\n      dup2\n      dup2\n      mstore\n      0x20\n      add\n      dup3\n      dup1\n      sload\n      tag_74\n      swap1\n      tag_65\n      jump\t// in\n    tag_74:\n      dup1\n      iszero\n      tag_75\n      jumpi\n      dup1\n      0x1f\n      lt\n      tag_76\n      jumpi\n      0x0100\n      dup1\n      dup4\n      sload\n      div\n      mul\n      dup4\n      mstore\n      swap2\n      0x20\n      add\n      swap2\n      jump(tag_75)\n    tag_76:\n      dup3\n      add\n      swap2\n      swap1\n      0x00\n      mstore\n      keccak256(0x00, 0x20)\n      swap1\n    tag_77:\n      dup2\n      sload\n      dup2\n      mstore\n      swap1\n      0x01\n      add\n      swap1\n      0x20\n      add\n      dup1\n      dup4\n      gt\n      tag_77\n      jumpi\n      dup3\n      swap1\n      sub\n      0x1f\n      and\n      dup3\n      add\n      swap2\n    tag_75:\n      pop\n      pop\n      pop\n      pop\n      pop\n      dup2\n      mstore\n      pop\n      pop\n      dup2\n      mstore\n      0x20\n      add\n      swap1\n      0x01\n      add\n      swap1\n      jump(tag_70)\n    tag_71:\n      pop\n      pop\n      pop\n      pop\n      dup2\n      mstore\n      pop\n      pop\n        /* \"blockpedia.sol\":1718:1744  getVersaoValidaDeUmaPagina */\n      tag_78\n        /* \"blockpedia.sol\":1718:1761  getVersaoValidaDeUmaPagina(paginas[indice]) */\n      jump\t// in\n    tag_61:\n        /* \"blockpedia.sol\":1718:1770  getVersaoValidaDeUmaPagina(paginas[indice]).conteudo */\n      0x40\n      add\n      mload\n        /* \"blockpedia.sol\":1711:1770  return getVersaoValidaDeUmaPagina(paginas[indice]).conteudo */\n      swap1\n      pop\n        /* \"blockpedia.sol\":1606:1778  function getVersaoValidaPorIndexPaginas(uint indice) public view returns (string memory)\r... */\n      swap2\n      swap1\n      pop\n      jump\t// out\n        /* \"blockpedia.sol\":113:137  bool public ativo = true */\n    tag_30:\n      0x00\n      dup1\n      sload\n      swap1\n      0x0100\n      exp\n      swap1\n      div\n      0xff\n      and\n      dup2\n      jump\t// out\n        /* \"blockpedia.sol\":2101:2228  function adicionaNovaVercaoDesativadaAPaginaPorIndexPaginas(uint indice,string memory conteudo)public\r... */\n    tag_36:\n      pop\n      pop\n      jump\t// out\n        /* \"blockpedia.sol\":173:196  Pagina[] public paginas */\n    tag_39:\n      0x01\n      dup2\n      dup2\n      sload\n      dup2\n      lt\n      tag_80\n      jumpi\n      0x00\n      dup1\n      revert\n    tag_80:\n      swap1\n      0x00\n      mstore\n      keccak256(0x00, 0x20)\n      swap1\n      0x03\n      mul\n      add\n      0x00\n      swap2\n      pop\n      swap1\n      pop\n      dup1\n      0x00\n      add\n      0x00\n      swap1\n      sload\n      swap1\n      0x0100\n      exp\n      swap1\n      div\n      0xffffffffffffffffffffffffffffffffffffffff\n      and\n      swap1\n      dup1\n      0x00\n      add\n      0x14\n      swap1\n      sload\n      swap1\n      0x0100\n      exp\n      swap1\n      div\n      0xff\n      and\n      swap1\n      dup1\n      0x01\n      add\n      dup1\n      sload\n      tag_82\n      swap1\n      tag_65\n      jump\t// in\n    tag_82:\n      dup1\n      0x1f\n      add\n      0x20\n      dup1\n      swap2\n      div\n      mul\n      0x20\n      add\n      mload(0x40)\n      swap1\n      dup2\n      add\n      0x40\n      mstore\n      dup1\n      swap3\n      swap2\n      swap1\n      dup2\n      dup2\n      mstore\n      0x20\n      add\n      dup3\n      dup1\n      sload\n      tag_83\n      swap1\n      tag_65\n      jump\t// in\n    tag_83:\n      dup1\n      iszero\n      tag_84\n      jumpi\n      dup1\n      0x1f\n      lt\n      tag_85\n      jumpi\n      0x0100\n      dup1\n      dup4\n      sload\n      div\n      mul\n      dup4\n      mstore\n      swap2\n      0x20\n      add\n      swap2\n      jump(tag_84)\n    tag_85:\n      dup3\n      add\n      swap2\n      swap1\n      0x00\n      mstore\n      keccak256(0x00, 0x20)\n      swap1\n    tag_86:\n      dup2\n      sload\n      dup2\n      mstore\n      swap1\n      0x01\n      add\n      swap1\n      0x20\n      add\n      dup1\n      dup4\n      gt\n      tag_86\n      jumpi\n      dup3\n      swap1\n      sub\n      0x1f\n      and\n      dup3\n      add\n      swap2\n    tag_84:\n      pop\n      pop\n      pop\n      pop\n      pop\n      swap1\n      pop\n      dup4\n      jump\t// out\n        /* \"blockpedia.sol\":1075:1598  function tituloExiste(string memory titulo) internal view returns (bool)\r... */\n    tag_51:\n        /* \"blockpedia.sol\":1142:1146  bool */\n      0x00\n        /* \"blockpedia.sol\":1393:1399  uint i */\n      dup1\n        /* \"blockpedia.sol\":1402:1403  0 */\n      0x00\n        /* \"blockpedia.sol\":1393:1403  uint i = 0 */\n      swap1\n      pop\n        /* \"blockpedia.sol\":1388:1568  for (uint i = 0; i < paginas.length; i++)\r... */\n    tag_88:\n        /* \"blockpedia.sol\":1409:1416  paginas */\n      0x01\n        /* \"blockpedia.sol\":1409:1423  paginas.length */\n      dup1\n      sload\n      swap1\n      pop\n        /* \"blockpedia.sol\":1405:1406  i */\n      dup2\n        /* \"blockpedia.sol\":1405:1423  i < paginas.length */\n      lt\n        /* \"blockpedia.sol\":1388:1568  for (uint i = 0; i < paginas.length; i++)\r... */\n      iszero\n      tag_89\n      jumpi\n        /* \"blockpedia.sol\":1535:1541  titulo */\n      dup3\n        /* \"blockpedia.sol\":1518:1542  abi.encodePacked(titulo) */\n      add(0x20, mload(0x40))\n      tag_91\n      swap2\n      swap1\n      tag_92\n      jump\t// in\n    tag_91:\n      mload(0x40)\n      0x20\n      dup2\n      dup4\n      sub\n      sub\n      dup2\n      mstore\n      swap1\n      0x40\n      mstore\n        /* \"blockpedia.sol\":1508:1543  keccak256(abi.encodePacked(titulo)) */\n      dup1\n      mload\n      swap1\n      0x20\n      add\n      keccak256\n        /* \"blockpedia.sol\":1485:1492  paginas */\n      0x01\n        /* \"blockpedia.sol\":1493:1494  i */\n      dup3\n        /* \"blockpedia.sol\":1485:1495  paginas[i] */\n      dup2\n      sload\n      dup2\n      lt\n      tag_93\n      jumpi\n      mstore(0x00, 0x4e487b7100000000000000000000000000000000000000000000000000000000)\n      mstore(0x04, 0x32)\n      revert(0x00, 0x24)\n    tag_93:\n      swap1\n      0x00\n      mstore\n      keccak256(0x00, 0x20)\n      swap1\n      0x03\n      mul\n      add\n        /* \"blockpedia.sol\":1485:1502  paginas[i].titulo */\n      0x01\n      add\n        /* \"blockpedia.sol\":1468:1503  abi.encodePacked(paginas[i].titulo) */\n      add(0x20, mload(0x40))\n      tag_95\n      swap2\n      swap1\n      tag_96\n      jump\t// in\n    tag_95:\n      mload(0x40)\n      0x20\n      dup2\n      dup4\n      sub\n      sub\n      dup2\n      mstore\n      swap1\n      0x40\n      mstore\n        /* \"blockpedia.sol\":1458:1504  keccak256(abi.encodePacked(paginas[i].titulo)) */\n      dup1\n      mload\n      swap1\n      0x20\n      add\n      keccak256\n        /* \"blockpedia.sol\":1458:1543  keccak256(abi.encodePacked(paginas[i].titulo)) == keccak256(abi.encodePacked(titulo)) */\n      eq\n        /* \"blockpedia.sol\":1454:1556  if (keccak256(abi.encodePacked(paginas[i].titulo)) == keccak256(abi.encodePacked(titulo))) return true */\n      iszero\n      tag_97\n      jumpi\n        /* \"blockpedia.sol\":1552:1556  true */\n      0x01\n        /* \"blockpedia.sol\":1545:1556  return true */\n      swap2\n      pop\n      pop\n      jump(tag_87)\n        /* \"blockpedia.sol\":1454:1556  if (keccak256(abi.encodePacked(paginas[i].titulo)) == keccak256(abi.encodePacked(titulo))) return true */\n    tag_97:\n        /* \"blockpedia.sol\":1425:1428  i++ */\n      dup1\n      dup1\n      tag_98\n      swap1\n      tag_99\n      jump\t// in\n    tag_98:\n      swap2\n      pop\n      pop\n        /* \"blockpedia.sol\":1388:1568  for (uint i = 0; i < paginas.length; i++)\r... */\n      jump(tag_88)\n    tag_89:\n      pop\n        /* \"blockpedia.sol\":1585:1590  false */\n      0x00\n        /* \"blockpedia.sol\":1578:1590  return false */\n      swap1\n      pop\n        /* \"blockpedia.sol\":1075:1598  function tituloExiste(string memory titulo) internal view returns (bool)\r... */\n    tag_87:\n      swap2\n      swap1\n      pop\n      jump\t// out\n        /* \"blockpedia.sol\":1786:2093  function getVersaoValidaDeUmaPagina(Pagina memory pagina)internal pure returns (Versao memory)\r... */\n    tag_78:\n        /* \"blockpedia.sol\":1866:1879  Versao memory */\n      tag_100\n      tag_101\n      jump\t// in\n    tag_100:\n        /* \"blockpedia.sol\":1901:1907  uint i */\n      0x00\n        /* \"blockpedia.sol\":1897:2033  for(uint i = 0; i < pagina.versoes.length; i++)\r... */\n    tag_103:\n        /* \"blockpedia.sol\":1917:1923  pagina */\n      dup3\n        /* \"blockpedia.sol\":1917:1931  pagina.versoes */\n      0x60\n      add\n      mload\n        /* \"blockpedia.sol\":1917:1938  pagina.versoes.length */\n      mload\n        /* \"blockpedia.sol\":1913:1914  i */\n      dup2\n        /* \"blockpedia.sol\":1913:1938  i < pagina.versoes.length */\n      lt\n        /* \"blockpedia.sol\":1897:2033  for(uint i = 0; i < pagina.versoes.length; i++)\r... */\n      iszero\n      tag_104\n      jumpi\n        /* \"blockpedia.sol\":1972:1978  pagina */\n      dup3\n        /* \"blockpedia.sol\":1972:1986  pagina.versoes */\n      0x60\n      add\n      mload\n        /* \"blockpedia.sol\":1987:1988  i */\n      dup2\n        /* \"blockpedia.sol\":1972:1989  pagina.versoes[i] */\n      dup2\n      mload\n      dup2\n      lt\n      tag_106\n      jumpi\n      mstore(0x00, 0x4e487b7100000000000000000000000000000000000000000000000000000000)\n      mstore(0x04, 0x32)\n      revert(0x00, 0x24)\n    tag_106:\n      0x20\n      mul\n      0x20\n      add\n      add\n      mload\n        /* \"blockpedia.sol\":1972:1995  pagina.versoes[i].ativo */\n      0x20\n      add\n      mload\n        /* \"blockpedia.sol\":1969:2021  if(pagina.versoes[i].ativo) return pagina.versoes[i] */\n      iszero\n      tag_107\n      jumpi\n        /* \"blockpedia.sol\":2004:2010  pagina */\n      dup3\n        /* \"blockpedia.sol\":2004:2018  pagina.versoes */\n      0x60\n      add\n      mload\n        /* \"blockpedia.sol\":2019:2020  i */\n      dup2\n        /* \"blockpedia.sol\":2004:2021  pagina.versoes[i] */\n      dup2\n      mload\n      dup2\n      lt\n      tag_108\n      jumpi\n      mstore(0x00, 0x4e487b7100000000000000000000000000000000000000000000000000000000)\n      mstore(0x04, 0x32)\n      revert(0x00, 0x24)\n    tag_108:\n      0x20\n      mul\n      0x20\n      add\n      add\n      mload\n        /* \"blockpedia.sol\":1997:2021  return pagina.versoes[i] */\n      swap2\n      pop\n      pop\n      jump(tag_102)\n        /* \"blockpedia.sol\":1969:2021  if(pagina.versoes[i].ativo) return pagina.versoes[i] */\n    tag_107:\n        /* \"blockpedia.sol\":1940:1943  i++ */\n      dup1\n      dup1\n      tag_109\n      swap1\n      tag_99\n      jump\t// in\n    tag_109:\n      swap2\n      pop\n      pop\n        /* \"blockpedia.sol\":1897:2033  for(uint i = 0; i < pagina.versoes.length; i++)\r... */\n      jump(tag_103)\n    tag_104:\n      pop\n        /* \"blockpedia.sol\":2043:2085  revert(\"Nenhuma versao valida encontrada\") */\n      mload(0x40)\n      0x08c379a000000000000000000000000000000000000000000000000000000000\n      dup2\n      mstore\n      0x04\n      add\n      tag_110\n      swap1\n      tag_111\n      jump\t// in\n    tag_110:\n      mload(0x40)\n      dup1\n      swap2\n      sub\n      swap1\n      revert\n        /* \"blockpedia.sol\":1786:2093  function getVersaoValidaDeUmaPagina(Pagina memory pagina)internal pure returns (Versao memory)\r... */\n    tag_102:\n      swap2\n      swap1\n      pop\n      jump\t// out\n    tag_57:\n      dup3\n      dup1\n      sload\n      tag_112\n      swap1\n      tag_65\n      jump\t// in\n    tag_112:\n      swap1\n      0x00\n      mstore\n      keccak256(0x00, 0x20)\n      swap1\n      0x1f\n      add\n      0x20\n      swap1\n      div\n      dup2\n      add\n      swap3\n      dup3\n      tag_114\n      jumpi\n      0x00\n      dup6\n      sstore\n      jump(tag_113)\n    tag_114:\n      dup3\n      0x1f\n      lt\n      tag_115\n      jumpi\n      dup1\n      mload\n      not(0xff)\n      and\n      dup4\n      dup1\n      add\n      or\n      dup6\n      sstore\n      jump(tag_113)\n    tag_115:\n      dup3\n      dup1\n      add\n      0x01\n      add\n      dup6\n      sstore\n      dup3\n      iszero\n      tag_113\n      jumpi\n      swap2\n      dup3\n      add\n    tag_116:\n      dup3\n      dup2\n      gt\n      iszero\n      tag_117\n      jumpi\n      dup3\n      mload\n      dup3\n      sstore\n      swap2\n      0x20\n      add\n      swap2\n      swap1\n      0x01\n      add\n      swap1\n      jump(tag_116)\n    tag_117:\n    tag_113:\n      pop\n      swap1\n      pop\n      tag_118\n      swap2\n      swap1\n      tag_119\n      jump\t// in\n    tag_118:\n      pop\n      swap1\n      jump\t// out\n    tag_101:\n      mload(0x40)\n      dup1\n      0x60\n      add\n      0x40\n      mstore\n      dup1\n      and(0xffffffffffffffffffffffffffffffffffffffff, 0x00)\n      dup2\n      mstore\n      0x20\n      add\n      iszero(iszero(0x00))\n      dup2\n      mstore\n      0x20\n      add\n      0x60\n      dup2\n      mstore\n      pop\n      swap1\n      jump\t// out\n    tag_119:\n    tag_120:\n      dup1\n      dup3\n      gt\n      iszero\n      tag_121\n      jumpi\n      0x00\n      dup2\n      0x00\n      swap1\n      sstore\n      pop\n      0x01\n      add\n      jump(tag_120)\n    tag_121:\n      pop\n      swap1\n      jump\t// out\n        /* \"#utility.yul\":7:351   */\n    tag_123:\n      0x00\n        /* \"#utility.yul\":110:175   */\n      tag_125\n        /* \"#utility.yul\":125:174   */\n      tag_126\n        /* \"#utility.yul\":167:173   */\n      dup5\n        /* \"#utility.yul\":125:174   */\n      tag_127\n      jump\t// in\n    tag_126:\n        /* \"#utility.yul\":110:175   */\n      tag_128\n      jump\t// in\n    tag_125:\n        /* \"#utility.yul\":101:175   */\n      swap1\n      pop\n        /* \"#utility.yul\":198:204   */\n      dup3\n        /* \"#utility.yul\":191:196   */\n      dup2\n        /* \"#utility.yul\":184:205   */\n      mstore\n        /* \"#utility.yul\":236:240   */\n      0x20\n        /* \"#utility.yul\":229:234   */\n      dup2\n        /* \"#utility.yul\":225:241   */\n      add\n        /* \"#utility.yul\":274:277   */\n      dup5\n        /* \"#utility.yul\":265:271   */\n      dup5\n        /* \"#utility.yul\":260:263   */\n      dup5\n        /* \"#utility.yul\":256:272   */\n      add\n        /* \"#utility.yul\":253:278   */\n      gt\n        /* \"#utility.yul\":250:252   */\n      iszero\n      tag_129\n      jumpi\n        /* \"#utility.yul\":291:292   */\n      0x00\n        /* \"#utility.yul\":288:289   */\n      dup1\n        /* \"#utility.yul\":281:293   */\n      revert\n        /* \"#utility.yul\":250:252   */\n    tag_129:\n        /* \"#utility.yul\":304:345   */\n      tag_130\n        /* \"#utility.yul\":338:344   */\n      dup5\n        /* \"#utility.yul\":333:336   */\n      dup3\n        /* \"#utility.yul\":328:331   */\n      dup6\n        /* \"#utility.yul\":304:345   */\n      tag_131\n      jump\t// in\n    tag_130:\n        /* \"#utility.yul\":91:351   */\n      pop\n      swap4\n      swap3\n      pop\n      pop\n      pop\n      jump\t// out\n        /* \"#utility.yul\":357:490   */\n    tag_132:\n      0x00\n        /* \"#utility.yul\":438:444   */\n      dup2\n        /* \"#utility.yul\":425:445   */\n      calldataload\n        /* \"#utility.yul\":416:445   */\n      swap1\n      pop\n        /* \"#utility.yul\":454:484   */\n      tag_134\n        /* \"#utility.yul\":478:483   */\n      dup2\n        /* \"#utility.yul\":454:484   */\n      tag_135\n      jump\t// in\n    tag_134:\n        /* \"#utility.yul\":406:490   */\n      swap3\n      swap2\n      pop\n      pop\n      jump\t// out\n        /* \"#utility.yul\":510:783   */\n    tag_136:\n      0x00\n        /* \"#utility.yul\":615:618   */\n      dup3\n        /* \"#utility.yul\":608:612   */\n      0x1f\n        /* \"#utility.yul\":600:606   */\n      dup4\n        /* \"#utility.yul\":596:613   */\n      add\n        /* \"#utility.yul\":592:619   */\n      slt\n        /* \"#utility.yul\":582:584   */\n      tag_138\n      jumpi\n        /* \"#utility.yul\":633:634   */\n      0x00\n        /* \"#utility.yul\":630:631   */\n      dup1\n        /* \"#utility.yul\":623:635   */\n      revert\n        /* \"#utility.yul\":582:584   */\n    tag_138:\n        /* \"#utility.yul\":673:679   */\n      dup2\n        /* \"#utility.yul\":660:680   */\n      calldataload\n        /* \"#utility.yul\":698:777   */\n      tag_139\n        /* \"#utility.yul\":773:776   */\n      dup5\n        /* \"#utility.yul\":765:771   */\n      dup3\n        /* \"#utility.yul\":758:762   */\n      0x20\n        /* \"#utility.yul\":750:756   */\n      dup7\n        /* \"#utility.yul\":746:763   */\n      add\n        /* \"#utility.yul\":698:777   */\n      tag_123\n      jump\t// in\n    tag_139:\n        /* \"#utility.yul\":689:777   */\n      swap2\n      pop\n        /* \"#utility.yul\":572:783   */\n      pop\n      swap3\n      swap2\n      pop\n      pop\n      jump\t// out\n        /* \"#utility.yul\":789:928   */\n    tag_140:\n      0x00\n        /* \"#utility.yul\":873:879   */\n      dup2\n        /* \"#utility.yul\":860:880   */\n      calldataload\n        /* \"#utility.yul\":851:880   */\n      swap1\n      pop\n        /* \"#utility.yul\":889:922   */\n      tag_142\n        /* \"#utility.yul\":916:921   */\n      dup2\n        /* \"#utility.yul\":889:922   */\n      tag_143\n      jump\t// in\n    tag_142:\n        /* \"#utility.yul\":841:928   */\n      swap3\n      swap2\n      pop\n      pop\n      jump\t// out\n        /* \"#utility.yul\":934:1190   */\n    tag_17:\n      0x00\n        /* \"#utility.yul\":1039:1041   */\n      0x20\n        /* \"#utility.yul\":1027:1036   */\n      dup3\n        /* \"#utility.yul\":1018:1025   */\n      dup5\n        /* \"#utility.yul\":1014:1037   */\n      sub\n        /* \"#utility.yul\":1010:1042   */\n      slt\n        /* \"#utility.yul\":1007:1009   */\n      iszero\n      tag_145\n      jumpi\n        /* \"#utility.yul\":1055:1056   */\n      0x00\n        /* \"#utility.yul\":1052:1053   */\n      dup1\n        /* \"#utility.yul\":1045:1057   */\n      revert\n        /* \"#utility.yul\":1007:1009   */\n    tag_145:\n        /* \"#utility.yul\":1098:1099   */\n      0x00\n        /* \"#utility.yul\":1123:1173   */\n      tag_146\n        /* \"#utility.yul\":1165:1172   */\n      dup5\n        /* \"#utility.yul\":1156:1162   */\n      dup3\n        /* \"#utility.yul\":1145:1154   */\n      dup6\n        /* \"#utility.yul\":1141:1163   */\n      add\n        /* \"#utility.yul\":1123:1173   */\n      tag_132\n      jump\t// in\n    tag_146:\n        /* \"#utility.yul\":1113:1173   */\n      swap2\n      pop\n        /* \"#utility.yul\":1069:1183   */\n      pop\n        /* \"#utility.yul\":997:1190   */\n      swap3\n      swap2\n      pop\n      pop\n      jump\t// out\n        /* \"#utility.yul\":1196:1829   */\n    tag_21:\n      0x00\n      dup1\n        /* \"#utility.yul\":1341:1343   */\n      0x40\n        /* \"#utility.yul\":1329:1338   */\n      dup4\n        /* \"#utility.yul\":1320:1327   */\n      dup6\n        /* \"#utility.yul\":1316:1339   */\n      sub\n        /* \"#utility.yul\":1312:1344   */\n      slt\n        /* \"#utility.yul\":1309:1311   */\n      iszero\n      tag_148\n      jumpi\n        /* \"#utility.yul\":1357:1358   */\n      0x00\n        /* \"#utility.yul\":1354:1355   */\n      dup1\n        /* \"#utility.yul\":1347:1359   */\n      revert\n        /* \"#utility.yul\":1309:1311   */\n    tag_148:\n        /* \"#utility.yul\":1428:1429   */\n      0x00\n        /* \"#utility.yul\":1417:1426   */\n      dup4\n        /* \"#utility.yul\":1413:1430   */\n      add\n        /* \"#utility.yul\":1400:1431   */\n      calldataload\n        /* \"#utility.yul\":1458:1476   */\n      0xffffffffffffffff\n        /* \"#utility.yul\":1450:1456   */\n      dup2\n        /* \"#utility.yul\":1447:1477   */\n      gt\n        /* \"#utility.yul\":1444:1446   */\n      iszero\n      tag_149\n      jumpi\n        /* \"#utility.yul\":1490:1491   */\n      0x00\n        /* \"#utility.yul\":1487:1488   */\n      dup1\n        /* \"#utility.yul\":1480:1492   */\n      revert\n        /* \"#utility.yul\":1444:1446   */\n    tag_149:\n        /* \"#utility.yul\":1518:1581   */\n      tag_150\n        /* \"#utility.yul\":1573:1580   */\n      dup6\n        /* \"#utility.yul\":1564:1570   */\n      dup3\n        /* \"#utility.yul\":1553:1562   */\n      dup7\n        /* \"#utility.yul\":1549:1571   */\n      add\n        /* \"#utility.yul\":1518:1581   */\n      tag_136\n      jump\t// in\n    tag_150:\n        /* \"#utility.yul\":1508:1581   */\n      swap3\n      pop\n        /* \"#utility.yul\":1371:1591   */\n      pop\n        /* \"#utility.yul\":1658:1660   */\n      0x20\n        /* \"#utility.yul\":1647:1656   */\n      dup4\n        /* \"#utility.yul\":1643:1661   */\n      add\n        /* \"#utility.yul\":1630:1662   */\n      calldataload\n        /* \"#utility.yul\":1689:1707   */\n      0xffffffffffffffff\n        /* \"#utility.yul\":1681:1687   */\n      dup2\n        /* \"#utility.yul\":1678:1708   */\n      gt\n        /* \"#utility.yul\":1675:1677   */\n      iszero\n      tag_151\n      jumpi\n        /* \"#utility.yul\":1721:1722   */\n      0x00\n        /* \"#utility.yul\":1718:1719   */\n      dup1\n        /* \"#utility.yul\":1711:1723   */\n      revert\n        /* \"#utility.yul\":1675:1677   */\n    tag_151:\n        /* \"#utility.yul\":1749:1812   */\n      tag_152\n        /* \"#utility.yul\":1804:1811   */\n      dup6\n        /* \"#utility.yul\":1795:1801   */\n      dup3\n        /* \"#utility.yul\":1784:1793   */\n      dup7\n        /* \"#utility.yul\":1780:1802   */\n      add\n        /* \"#utility.yul\":1749:1812   */\n      tag_136\n      jump\t// in\n    tag_152:\n        /* \"#utility.yul\":1739:1812   */\n      swap2\n      pop\n        /* \"#utility.yul\":1601:1822   */\n      pop\n        /* \"#utility.yul\":1299:1829   */\n      swap3\n      pop\n      swap3\n      swap1\n      pop\n      jump\t// out\n        /* \"#utility.yul\":1835:2097   */\n    tag_25:\n      0x00\n        /* \"#utility.yul\":1943:1945   */\n      0x20\n        /* \"#utility.yul\":1931:1940   */\n      dup3\n        /* \"#utility.yul\":1922:1929   */\n      dup5\n        /* \"#utility.yul\":1918:1941   */\n      sub\n        /* \"#utility.yul\":1914:1946   */\n      slt\n        /* \"#utility.yul\":1911:1913   */\n      iszero\n      tag_154\n      jumpi\n        /* \"#utility.yul\":1959:1960   */\n      0x00\n        /* \"#utility.yul\":1956:1957   */\n      dup1\n        /* \"#utility.yul\":1949:1961   */\n      revert\n        /* \"#utility.yul\":1911:1913   */\n    tag_154:\n        /* \"#utility.yul\":2002:2003   */\n      0x00\n        /* \"#utility.yul\":2027:2080   */\n      tag_155\n        /* \"#utility.yul\":2072:2079   */\n      dup5\n        /* \"#utility.yul\":2063:2069   */\n      dup3\n        /* \"#utility.yul\":2052:2061   */\n      dup6\n        /* \"#utility.yul\":2048:2070   */\n      add\n        /* \"#utility.yul\":2027:2080   */\n      tag_140\n      jump\t// in\n    tag_155:\n        /* \"#utility.yul\":2017:2080   */\n      swap2\n      pop\n        /* \"#utility.yul\":1973:2090   */\n      pop\n        /* \"#utility.yul\":1901:2097   */\n      swap3\n      swap2\n      pop\n      pop\n      jump\t// out\n        /* \"#utility.yul\":2103:2623   */\n    tag_35:\n      0x00\n      dup1\n        /* \"#utility.yul\":2238:2240   */\n      0x40\n        /* \"#utility.yul\":2226:2235   */\n      dup4\n        /* \"#utility.yul\":2217:2224   */\n      dup6\n        /* \"#utility.yul\":2213:2236   */\n      sub\n        /* \"#utility.yul\":2209:2241   */\n      slt\n        /* \"#utility.yul\":2206:2208   */\n      iszero\n      tag_157\n      jumpi\n        /* \"#utility.yul\":2254:2255   */\n      0x00\n        /* \"#utility.yul\":2251:2252   */\n      dup1\n        /* \"#utility.yul\":2244:2256   */\n      revert\n        /* \"#utility.yul\":2206:2208   */\n    tag_157:\n        /* \"#utility.yul\":2297:2298   */\n      0x00\n        /* \"#utility.yul\":2322:2375   */\n      tag_158\n        /* \"#utility.yul\":2367:2374   */\n      dup6\n        /* \"#utility.yul\":2358:2364   */\n      dup3\n        /* \"#utility.yul\":2347:2356   */\n      dup7\n        /* \"#utility.yul\":2343:2365   */\n      add\n        /* \"#utility.yul\":2322:2375   */\n      tag_140\n      jump\t// in\n    tag_158:\n        /* \"#utility.yul\":2312:2375   */\n      swap3\n      pop\n        /* \"#utility.yul\":2268:2385   */\n      pop\n        /* \"#utility.yul\":2452:2454   */\n      0x20\n        /* \"#utility.yul\":2441:2450   */\n      dup4\n        /* \"#utility.yul\":2437:2455   */\n      add\n        /* \"#utility.yul\":2424:2456   */\n      calldataload\n        /* \"#utility.yul\":2483:2501   */\n      0xffffffffffffffff\n        /* \"#utility.yul\":2475:2481   */\n      dup2\n        /* \"#utility.yul\":2472:2502   */\n      gt\n        /* \"#utility.yul\":2469:2471   */\n      iszero\n      tag_159\n      jumpi\n        /* \"#utility.yul\":2515:2516   */\n      0x00\n        /* \"#utility.yul\":2512:2513   */\n      dup1\n        /* \"#utility.yul\":2505:2517   */\n      revert\n        /* \"#utility.yul\":2469:2471   */\n    tag_159:\n        /* \"#utility.yul\":2543:2606   */\n      tag_160\n        /* \"#utility.yul\":2598:2605   */\n      dup6\n        /* \"#utility.yul\":2589:2595   */\n      dup3\n        /* \"#utility.yul\":2578:2587   */\n      dup7\n        /* \"#utility.yul\":2574:2596   */\n      add\n        /* \"#utility.yul\":2543:2606   */\n      tag_136\n      jump\t// in\n    tag_160:\n        /* \"#utility.yul\":2533:2606   */\n      swap2\n      pop\n        /* \"#utility.yul\":2395:2616   */\n      pop\n        /* \"#utility.yul\":2196:2623   */\n      swap3\n      pop\n      swap3\n      swap1\n      pop\n      jump\t// out\n        /* \"#utility.yul\":2629:2747   */\n    tag_161:\n        /* \"#utility.yul\":2716:2740   */\n      tag_163\n        /* \"#utility.yul\":2734:2739   */\n      dup2\n        /* \"#utility.yul\":2716:2740   */\n      tag_164\n      jump\t// in\n    tag_163:\n        /* \"#utility.yul\":2711:2714   */\n      dup3\n        /* \"#utility.yul\":2704:2741   */\n      mstore\n        /* \"#utility.yul\":2694:2747   */\n      pop\n      pop\n      jump\t// out\n        /* \"#utility.yul\":2753:2862   */\n    tag_165:\n        /* \"#utility.yul\":2834:2855   */\n      tag_167\n        /* \"#utility.yul\":2849:2854   */\n      dup2\n        /* \"#utility.yul\":2834:2855   */\n      tag_168\n      jump\t// in\n    tag_167:\n        /* \"#utility.yul\":2829:2832   */\n      dup3\n        /* \"#utility.yul\":2822:2856   */\n      mstore\n        /* \"#utility.yul\":2812:2862   */\n      pop\n      pop\n      jump\t// out\n        /* \"#utility.yul\":2868:3232   */\n    tag_169:\n      0x00\n        /* \"#utility.yul\":2984:3023   */\n      tag_171\n        /* \"#utility.yul\":3017:3022   */\n      dup3\n        /* \"#utility.yul\":2984:3023   */\n      tag_172\n      jump\t// in\n    tag_171:\n        /* \"#utility.yul\":3039:3110   */\n      tag_173\n        /* \"#utility.yul\":3103:3109   */\n      dup2\n        /* \"#utility.yul\":3098:3101   */\n      dup6\n        /* \"#utility.yul\":3039:3110   */\n      tag_174\n      jump\t// in\n    tag_173:\n        /* \"#utility.yul\":3032:3110   */\n      swap4\n      pop\n        /* \"#utility.yul\":3119:3171   */\n      tag_175\n        /* \"#utility.yul\":3164:3170   */\n      dup2\n        /* \"#utility.yul\":3159:3162   */\n      dup6\n        /* \"#utility.yul\":3152:3156   */\n      0x20\n        /* \"#utility.yul\":3145:3150   */\n      dup7\n        /* \"#utility.yul\":3141:3157   */\n      add\n        /* \"#utility.yul\":3119:3171   */\n      tag_176\n      jump\t// in\n    tag_175:\n        /* \"#utility.yul\":3196:3225   */\n      tag_177\n        /* \"#utility.yul\":3218:3224   */\n      dup2\n        /* \"#utility.yul\":3196:3225   */\n      tag_178\n      jump\t// in\n    tag_177:\n        /* \"#utility.yul\":3191:3194   */\n      dup5\n        /* \"#utility.yul\":3187:3226   */\n      add\n        /* \"#utility.yul\":3180:3226   */\n      swap2\n      pop\n        /* \"#utility.yul\":2960:3232   */\n      pop\n      swap3\n      swap2\n      pop\n      pop\n      jump\t// out\n        /* \"#utility.yul\":3238:3615   */\n    tag_179:\n      0x00\n        /* \"#utility.yul\":3372:3411   */\n      tag_181\n        /* \"#utility.yul\":3405:3410   */\n      dup3\n        /* \"#utility.yul\":3372:3411   */\n      tag_172\n      jump\t// in\n    tag_181:\n        /* \"#utility.yul\":3427:3516   */\n      tag_182\n        /* \"#utility.yul\":3509:3515   */\n      dup2\n        /* \"#utility.yul\":3504:3507   */\n      dup6\n        /* \"#utility.yul\":3427:3516   */\n      tag_183\n      jump\t// in\n    tag_182:\n        /* \"#utility.yul\":3420:3516   */\n      swap4\n      pop\n        /* \"#utility.yul\":3525:3577   */\n      tag_184\n        /* \"#utility.yul\":3570:3576   */\n      dup2\n        /* \"#utility.yul\":3565:3568   */\n      dup6\n        /* \"#utility.yul\":3558:3562   */\n      0x20\n        /* \"#utility.yul\":3551:3556   */\n      dup7\n        /* \"#utility.yul\":3547:3563   */\n      add\n        /* \"#utility.yul\":3525:3577   */\n      tag_176\n      jump\t// in\n    tag_184:\n        /* \"#utility.yul\":3602:3608   */\n      dup1\n        /* \"#utility.yul\":3597:3600   */\n      dup5\n        /* \"#utility.yul\":3593:3609   */\n      add\n        /* \"#utility.yul\":3586:3609   */\n      swap2\n      pop\n        /* \"#utility.yul\":3348:3615   */\n      pop\n      swap3\n      swap2\n      pop\n      pop\n      jump\t// out\n        /* \"#utility.yul\":3645:4490   */\n    tag_185:\n      0x00\n        /* \"#utility.yul\":3785:3790   */\n      dup2\n        /* \"#utility.yul\":3779:3791   */\n      sload\n        /* \"#utility.yul\":3814:3850   */\n      tag_187\n        /* \"#utility.yul\":3840:3849   */\n      dup2\n        /* \"#utility.yul\":3814:3850   */\n      tag_65\n      jump\t// in\n    tag_187:\n        /* \"#utility.yul\":3866:3955   */\n      tag_188\n        /* \"#utility.yul\":3948:3954   */\n      dup2\n        /* \"#utility.yul\":3943:3946   */\n      dup7\n        /* \"#utility.yul\":3866:3955   */\n      tag_183\n      jump\t// in\n    tag_188:\n        /* \"#utility.yul\":3859:3955   */\n      swap5\n      pop\n        /* \"#utility.yul\":3986:3987   */\n      0x01\n        /* \"#utility.yul\":3975:3984   */\n      dup3\n        /* \"#utility.yul\":3971:3988   */\n      and\n        /* \"#utility.yul\":4002:4003   */\n      0x00\n        /* \"#utility.yul\":3997:4134   */\n      dup2\n      eq\n      tag_190\n      jumpi\n        /* \"#utility.yul\":4148:4149   */\n      0x01\n        /* \"#utility.yul\":4143:4484   */\n      dup2\n      eq\n      tag_191\n      jumpi\n        /* \"#utility.yul\":3964:4484   */\n      jump(tag_189)\n        /* \"#utility.yul\":3997:4134   */\n    tag_190:\n        /* \"#utility.yul\":4081:4085   */\n      0xff\n        /* \"#utility.yul\":4077:4086   */\n      not\n        /* \"#utility.yul\":4066:4075   */\n      dup4\n        /* \"#utility.yul\":4062:4087   */\n      and\n        /* \"#utility.yul\":4057:4060   */\n      dup7\n        /* \"#utility.yul\":4050:4088   */\n      mstore\n        /* \"#utility.yul\":4117:4123   */\n      dup2\n        /* \"#utility.yul\":4112:4115   */\n      dup7\n        /* \"#utility.yul\":4108:4124   */\n      add\n        /* \"#utility.yul\":4101:4124   */\n      swap4\n      pop\n        /* \"#utility.yul\":3997:4134   */\n      jump(tag_189)\n        /* \"#utility.yul\":4143:4484   */\n    tag_191:\n        /* \"#utility.yul\":4210:4248   */\n      tag_192\n        /* \"#utility.yul\":4242:4247   */\n      dup6\n        /* \"#utility.yul\":4210:4248   */\n      tag_193\n      jump\t// in\n    tag_192:\n        /* \"#utility.yul\":4270:4271   */\n      0x00\n        /* \"#utility.yul\":4284:4438   */\n    tag_194:\n        /* \"#utility.yul\":4298:4304   */\n      dup4\n        /* \"#utility.yul\":4295:4296   */\n      dup2\n        /* \"#utility.yul\":4292:4305   */\n      lt\n        /* \"#utility.yul\":4284:4438   */\n      iszero\n      tag_196\n      jumpi\n        /* \"#utility.yul\":4372:4379   */\n      dup2\n        /* \"#utility.yul\":4366:4380   */\n      sload\n        /* \"#utility.yul\":4362:4363   */\n      dup2\n        /* \"#utility.yul\":4357:4360   */\n      dup10\n        /* \"#utility.yul\":4353:4364   */\n      add\n        /* \"#utility.yul\":4346:4381   */\n      mstore\n        /* \"#utility.yul\":4422:4423   */\n      0x01\n        /* \"#utility.yul\":4413:4420   */\n      dup3\n        /* \"#utility.yul\":4409:4424   */\n      add\n        /* \"#utility.yul\":4398:4424   */\n      swap2\n      pop\n        /* \"#utility.yul\":4320:4324   */\n      0x20\n        /* \"#utility.yul\":4317:4318   */\n      dup2\n        /* \"#utility.yul\":4313:4325   */\n      add\n        /* \"#utility.yul\":4308:4325   */\n      swap1\n      pop\n        /* \"#utility.yul\":4284:4438   */\n      jump(tag_194)\n    tag_196:\n        /* \"#utility.yul\":4467:4473   */\n      dup4\n        /* \"#utility.yul\":4462:4465   */\n      dup9\n        /* \"#utility.yul\":4458:4474   */\n      add\n        /* \"#utility.yul\":4451:4474   */\n      swap6\n      pop\n        /* \"#utility.yul\":4150:4484   */\n      pop\n      pop\n        /* \"#utility.yul\":3964:4484   */\n    tag_189:\n      pop\n        /* \"#utility.yul\":3752:4490   */\n      pop\n      pop\n      swap3\n      swap2\n      pop\n      pop\n      jump\t// out\n        /* \"#utility.yul\":4496:4826   */\n    tag_197:\n      0x00\n        /* \"#utility.yul\":4659:4726   */\n      tag_199\n        /* \"#utility.yul\":4723:4725   */\n      0x20\n        /* \"#utility.yul\":4718:4721   */\n      dup4\n        /* \"#utility.yul\":4659:4726   */\n      tag_174\n      jump\t// in\n    tag_199:\n        /* \"#utility.yul\":4652:4726   */\n      swap2\n      pop\n        /* \"#utility.yul\":4756:4790   */\n      0x4e656e68756d612076657273616f2076616c69646120656e636f6e7472616461\n        /* \"#utility.yul\":4752:4753   */\n      0x00\n        /* \"#utility.yul\":4747:4750   */\n      dup4\n        /* \"#utility.yul\":4743:4754   */\n      add\n        /* \"#utility.yul\":4736:4791   */\n      mstore\n        /* \"#utility.yul\":4817:4819   */\n      0x20\n        /* \"#utility.yul\":4812:4815   */\n      dup3\n        /* \"#utility.yul\":4808:4820   */\n      add\n        /* \"#utility.yul\":4801:4820   */\n      swap1\n      pop\n        /* \"#utility.yul\":4642:4826   */\n      swap2\n      swap1\n      pop\n      jump\t// out\n        /* \"#utility.yul\":4832:5200   */\n    tag_200:\n      0x00\n        /* \"#utility.yul\":4995:5062   */\n      tag_202\n        /* \"#utility.yul\":5059:5061   */\n      0x24\n        /* \"#utility.yul\":5054:5057   */\n      dup4\n        /* \"#utility.yul\":4995:5062   */\n      tag_174\n      jump\t// in\n    tag_202:\n        /* \"#utility.yul\":4988:5062   */\n      swap2\n      pop\n        /* \"#utility.yul\":5092:5126   */\n      0x556d6120706167696e6120636f6d206573746520746974756c6f206a61206578\n        /* \"#utility.yul\":5088:5089   */\n      0x00\n        /* \"#utility.yul\":5083:5086   */\n      dup4\n        /* \"#utility.yul\":5079:5090   */\n      add\n        /* \"#utility.yul\":5072:5127   */\n      mstore\n        /* \"#utility.yul\":5158:5164   */\n      0x6973746500000000000000000000000000000000000000000000000000000000\n        /* \"#utility.yul\":5153:5155   */\n      0x20\n        /* \"#utility.yul\":5148:5151   */\n      dup4\n        /* \"#utility.yul\":5144:5156   */\n      add\n        /* \"#utility.yul\":5137:5165   */\n      mstore\n        /* \"#utility.yul\":5191:5193   */\n      0x40\n        /* \"#utility.yul\":5186:5189   */\n      dup3\n        /* \"#utility.yul\":5182:5194   */\n      add\n        /* \"#utility.yul\":5175:5194   */\n      swap1\n      pop\n        /* \"#utility.yul\":4978:5200   */\n      swap2\n      swap1\n      pop\n      jump\t// out\n        /* \"#utility.yul\":5206:5599   */\n    tag_203:\n      0x00\n        /* \"#utility.yul\":5369:5436   */\n      tag_205\n        /* \"#utility.yul\":5433:5435   */\n      0x3d\n        /* \"#utility.yul\":5428:5431   */\n      dup4\n        /* \"#utility.yul\":5369:5436   */\n      tag_174\n      jump\t// in\n    tag_205:\n        /* \"#utility.yul\":5362:5436   */\n      swap2\n      pop\n        /* \"#utility.yul\":5466:5500   */\n      0x536f6d656e7465206f20646f6e6f20646573746120426c6f636b706564696120\n        /* \"#utility.yul\":5462:5463   */\n      0x00\n        /* \"#utility.yul\":5457:5460   */\n      dup4\n        /* \"#utility.yul\":5453:5464   */\n      add\n        /* \"#utility.yul\":5446:5501   */\n      mstore\n        /* \"#utility.yul\":5532:5563   */\n      0x706f646520616c7465726172206f20617472696275746f20617469766f000000\n        /* \"#utility.yul\":5527:5529   */\n      0x20\n        /* \"#utility.yul\":5522:5525   */\n      dup4\n        /* \"#utility.yul\":5518:5530   */\n      add\n        /* \"#utility.yul\":5511:5564   */\n      mstore\n        /* \"#utility.yul\":5590:5592   */\n      0x40\n        /* \"#utility.yul\":5585:5588   */\n      dup3\n        /* \"#utility.yul\":5581:5593   */\n      add\n        /* \"#utility.yul\":5574:5593   */\n      swap1\n      pop\n        /* \"#utility.yul\":5352:5599   */\n      swap2\n      swap1\n      pop\n      jump\t// out\n        /* \"#utility.yul\":5605:6042   */\n    tag_206:\n      0x00\n        /* \"#utility.yul\":5768:5835   */\n      tag_208\n        /* \"#utility.yul\":5832:5834   */\n      0x47\n        /* \"#utility.yul\":5827:5830   */\n      dup4\n        /* \"#utility.yul\":5768:5835   */\n      tag_174\n      jump\t// in\n    tag_208:\n        /* \"#utility.yul\":5761:5835   */\n      swap2\n      pop\n        /* \"#utility.yul\":5865:5899   */\n      0x412061646963616f206465206e6f76617320706167696e617320736f20652070\n        /* \"#utility.yul\":5861:5862   */\n      0x00\n        /* \"#utility.yul\":5856:5859   */\n      dup4\n        /* \"#utility.yul\":5852:5863   */\n      add\n        /* \"#utility.yul\":5845:5900   */\n      mstore\n        /* \"#utility.yul\":5931:5965   */\n      0x65726d6974696461207175616e646f206120426c6f636b706564696120657374\n        /* \"#utility.yul\":5926:5928   */\n      0x20\n        /* \"#utility.yul\":5921:5924   */\n      dup4\n        /* \"#utility.yul\":5917:5929   */\n      add\n        /* \"#utility.yul\":5910:5966   */\n      mstore\n        /* \"#utility.yul\":5997:6006   */\n      0x6120617469766100000000000000000000000000000000000000000000000000\n        /* \"#utility.yul\":5992:5994   */\n      0x40\n        /* \"#utility.yul\":5987:5990   */\n      dup4\n        /* \"#utility.yul\":5983:5995   */\n      add\n        /* \"#utility.yul\":5976:6007   */\n      mstore\n        /* \"#utility.yul\":6033:6035   */\n      0x60\n        /* \"#utility.yul\":6028:6031   */\n      dup3\n        /* \"#utility.yul\":6024:6036   */\n      add\n        /* \"#utility.yul\":6017:6036   */\n      swap1\n      pop\n        /* \"#utility.yul\":5751:6042   */\n      swap2\n      swap1\n      pop\n      jump\t// out\n        /* \"#utility.yul\":6048:6323   */\n    tag_92:\n      0x00\n        /* \"#utility.yul\":6202:6297   */\n      tag_210\n        /* \"#utility.yul\":6293:6296   */\n      dup3\n        /* \"#utility.yul\":6284:6290   */\n      dup5\n        /* \"#utility.yul\":6202:6297   */\n      tag_179\n      jump\t// in\n    tag_210:\n        /* \"#utility.yul\":6195:6297   */\n      swap2\n      pop\n        /* \"#utility.yul\":6314:6317   */\n      dup2\n        /* \"#utility.yul\":6307:6317   */\n      swap1\n      pop\n        /* \"#utility.yul\":6184:6323   */\n      swap3\n      swap2\n      pop\n      pop\n      jump\t// out\n        /* \"#utility.yul\":6329:6598   */\n    tag_96:\n      0x00\n        /* \"#utility.yul\":6480:6572   */\n      tag_212\n        /* \"#utility.yul\":6568:6571   */\n      dup3\n        /* \"#utility.yul\":6559:6565   */\n      dup5\n        /* \"#utility.yul\":6480:6572   */\n      tag_185\n      jump\t// in\n    tag_212:\n        /* \"#utility.yul\":6473:6572   */\n      swap2\n      pop\n        /* \"#utility.yul\":6589:6592   */\n      dup2\n        /* \"#utility.yul\":6582:6592   */\n      swap1\n      pop\n        /* \"#utility.yul\":6462:6598   */\n      swap3\n      swap2\n      pop\n      pop\n      jump\t// out\n        /* \"#utility.yul\":6604:6826   */\n    tag_14:\n      0x00\n        /* \"#utility.yul\":6735:6737   */\n      0x20\n        /* \"#utility.yul\":6724:6733   */\n      dup3\n        /* \"#utility.yul\":6720:6738   */\n      add\n        /* \"#utility.yul\":6712:6738   */\n      swap1\n      pop\n        /* \"#utility.yul\":6748:6819   */\n      tag_214\n        /* \"#utility.yul\":6816:6817   */\n      0x00\n        /* \"#utility.yul\":6805:6814   */\n      dup4\n        /* \"#utility.yul\":6801:6818   */\n      add\n        /* \"#utility.yul\":6792:6798   */\n      dup5\n        /* \"#utility.yul\":6748:6819   */\n      tag_161\n      jump\t// in\n    tag_214:\n        /* \"#utility.yul\":6702:6826   */\n      swap3\n      swap2\n      pop\n      pop\n      jump\t// out\n        /* \"#utility.yul\":6832:7353   */\n    tag_41:\n      0x00\n        /* \"#utility.yul\":7033:7035   */\n      0x60\n        /* \"#utility.yul\":7022:7031   */\n      dup3\n        /* \"#utility.yul\":7018:7036   */\n      add\n        /* \"#utility.yul\":7010:7036   */\n      swap1\n      pop\n        /* \"#utility.yul\":7046:7117   */\n      tag_216\n        /* \"#utility.yul\":7114:7115   */\n      0x00\n        /* \"#utility.yul\":7103:7112   */\n      dup4\n        /* \"#utility.yul\":7099:7116   */\n      add\n        /* \"#utility.yul\":7090:7096   */\n      dup7\n        /* \"#utility.yul\":7046:7117   */\n      tag_161\n      jump\t// in\n    tag_216:\n        /* \"#utility.yul\":7127:7193   */\n      tag_217\n        /* \"#utility.yul\":7189:7191   */\n      0x20\n        /* \"#utility.yul\":7178:7187   */\n      dup4\n        /* \"#utility.yul\":7174:7192   */\n      add\n        /* \"#utility.yul\":7165:7171   */\n      dup6\n        /* \"#utility.yul\":7127:7193   */\n      tag_165\n      jump\t// in\n    tag_217:\n        /* \"#utility.yul\":7240:7249   */\n      dup2\n        /* \"#utility.yul\":7234:7238   */\n      dup2\n        /* \"#utility.yul\":7230:7250   */\n      sub\n        /* \"#utility.yul\":7225:7227   */\n      0x40\n        /* \"#utility.yul\":7214:7223   */\n      dup4\n        /* \"#utility.yul\":7210:7228   */\n      add\n        /* \"#utility.yul\":7203:7251   */\n      mstore\n        /* \"#utility.yul\":7268:7346   */\n      tag_218\n        /* \"#utility.yul\":7341:7345   */\n      dup2\n        /* \"#utility.yul\":7332:7338   */\n      dup5\n        /* \"#utility.yul\":7268:7346   */\n      tag_169\n      jump\t// in\n    tag_218:\n        /* \"#utility.yul\":7260:7346   */\n      swap1\n      pop\n        /* \"#utility.yul\":7000:7353   */\n      swap5\n      swap4\n      pop\n      pop\n      pop\n      pop\n      jump\t// out\n        /* \"#utility.yul\":7359:7569   */\n    tag_32:\n      0x00\n        /* \"#utility.yul\":7484:7486   */\n      0x20\n        /* \"#utility.yul\":7473:7482   */\n      dup3\n        /* \"#utility.yul\":7469:7487   */\n      add\n        /* \"#utility.yul\":7461:7487   */\n      swap1\n      pop\n        /* \"#utility.yul\":7497:7562   */\n      tag_220\n        /* \"#utility.yul\":7559:7560   */\n      0x00\n        /* \"#utility.yul\":7548:7557   */\n      dup4\n        /* \"#utility.yul\":7544:7561   */\n      add\n        /* \"#utility.yul\":7535:7541   */\n      dup5\n        /* \"#utility.yul\":7497:7562   */\n      tag_165\n      jump\t// in\n    tag_220:\n        /* \"#utility.yul\":7451:7569   */\n      swap3\n      swap2\n      pop\n      pop\n      jump\t// out\n        /* \"#utility.yul\":7575:7888   */\n    tag_28:\n      0x00\n        /* \"#utility.yul\":7726:7728   */\n      0x20\n        /* \"#utility.yul\":7715:7724   */\n      dup3\n        /* \"#utility.yul\":7711:7729   */\n      add\n        /* \"#utility.yul\":7703:7729   */\n      swap1\n      pop\n        /* \"#utility.yul\":7775:7784   */\n      dup2\n        /* \"#utility.yul\":7769:7773   */\n      dup2\n        /* \"#utility.yul\":7765:7785   */\n      sub\n        /* \"#utility.yul\":7761:7762   */\n      0x00\n        /* \"#utility.yul\":7750:7759   */\n      dup4\n        /* \"#utility.yul\":7746:7763   */\n      add\n        /* \"#utility.yul\":7739:7786   */\n      mstore\n        /* \"#utility.yul\":7803:7881   */\n      tag_222\n        /* \"#utility.yul\":7876:7880   */\n      dup2\n        /* \"#utility.yul\":7867:7873   */\n      dup5\n        /* \"#utility.yul\":7803:7881   */\n      tag_169\n      jump\t// in\n    tag_222:\n        /* \"#utility.yul\":7795:7881   */\n      swap1\n      pop\n        /* \"#utility.yul\":7693:7888   */\n      swap3\n      swap2\n      pop\n      pop\n      jump\t// out\n        /* \"#utility.yul\":7894:8313   */\n    tag_111:\n      0x00\n        /* \"#utility.yul\":8098:8100   */\n      0x20\n        /* \"#utility.yul\":8087:8096   */\n      dup3\n        /* \"#utility.yul\":8083:8101   */\n      add\n        /* \"#utility.yul\":8075:8101   */\n      swap1\n      pop\n        /* \"#utility.yul\":8147:8156   */\n      dup2\n        /* \"#utility.yul\":8141:8145   */\n      dup2\n        /* \"#utility.yul\":8137:8157   */\n      sub\n        /* \"#utility.yul\":8133:8134   */\n      0x00\n        /* \"#utility.yul\":8122:8131   */\n      dup4\n        /* \"#utility.yul\":8118:8135   */\n      add\n        /* \"#utility.yul\":8111:8158   */\n      mstore\n        /* \"#utility.yul\":8175:8306   */\n      tag_224\n        /* \"#utility.yul\":8301:8305   */\n      dup2\n        /* \"#utility.yul\":8175:8306   */\n      tag_197\n      jump\t// in\n    tag_224:\n        /* \"#utility.yul\":8167:8306   */\n      swap1\n      pop\n        /* \"#utility.yul\":8065:8313   */\n      swap2\n      swap1\n      pop\n      jump\t// out\n        /* \"#utility.yul\":8319:8738   */\n    tag_54:\n      0x00\n        /* \"#utility.yul\":8523:8525   */\n      0x20\n        /* \"#utility.yul\":8512:8521   */\n      dup3\n        /* \"#utility.yul\":8508:8526   */\n      add\n        /* \"#utility.yul\":8500:8526   */\n      swap1\n      pop\n        /* \"#utility.yul\":8572:8581   */\n      dup2\n        /* \"#utility.yul\":8566:8570   */\n      dup2\n        /* \"#utility.yul\":8562:8582   */\n      sub\n        /* \"#utility.yul\":8558:8559   */\n      0x00\n        /* \"#utility.yul\":8547:8556   */\n      dup4\n        /* \"#utility.yul\":8543:8560   */\n      add\n        /* \"#utility.yul\":8536:8583   */\n      mstore\n        /* \"#utility.yul\":8600:8731   */\n      tag_226\n        /* \"#utility.yul\":8726:8730   */\n      dup2\n        /* \"#utility.yul\":8600:8731   */\n      tag_200\n      jump\t// in\n    tag_226:\n        /* \"#utility.yul\":8592:8731   */\n      swap1\n      pop\n        /* \"#utility.yul\":8490:8738   */\n      swap2\n      swap1\n      pop\n      jump\t// out\n        /* \"#utility.yul\":8744:9163   */\n    tag_45:\n      0x00\n        /* \"#utility.yul\":8948:8950   */\n      0x20\n        /* \"#utility.yul\":8937:8946   */\n      dup3\n        /* \"#utility.yul\":8933:8951   */\n      add\n        /* \"#utility.yul\":8925:8951   */\n      swap1\n      pop\n        /* \"#utility.yul\":8997:9006   */\n      dup2\n        /* \"#utility.yul\":8991:8995   */\n      dup2\n        /* \"#utility.yul\":8987:9007   */\n      sub\n        /* \"#utility.yul\":8983:8984   */\n      0x00\n        /* \"#utility.yul\":8972:8981   */\n      dup4\n        /* \"#utility.yul\":8968:8985   */\n      add\n        /* \"#utility.yul\":8961:9008   */\n      mstore\n        /* \"#utility.yul\":9025:9156   */\n      tag_228\n        /* \"#utility.yul\":9151:9155   */\n      dup2\n        /* \"#utility.yul\":9025:9156   */\n      tag_203\n      jump\t// in\n    tag_228:\n        /* \"#utility.yul\":9017:9156   */\n      swap1\n      pop\n        /* \"#utility.yul\":8915:9163   */\n      swap2\n      swap1\n      pop\n      jump\t// out\n        /* \"#utility.yul\":9169:9588   */\n    tag_49:\n      0x00\n        /* \"#utility.yul\":9373:9375   */\n      0x20\n        /* \"#utility.yul\":9362:9371   */\n      dup3\n        /* \"#utility.yul\":9358:9376   */\n      add\n        /* \"#utility.yul\":9350:9376   */\n      swap1\n      pop\n        /* \"#utility.yul\":9422:9431   */\n      dup2\n        /* \"#utility.yul\":9416:9420   */\n      dup2\n        /* \"#utility.yul\":9412:9432   */\n      sub\n        /* \"#utility.yul\":9408:9409   */\n      0x00\n        /* \"#utility.yul\":9397:9406   */\n      dup4\n        /* \"#utility.yul\":9393:9410   */\n      add\n        /* \"#utility.yul\":9386:9433   */\n      mstore\n        /* \"#utility.yul\":9450:9581   */\n      tag_230\n        /* \"#utility.yul\":9576:9580   */\n      dup2\n        /* \"#utility.yul\":9450:9581   */\n      tag_206\n      jump\t// in\n    tag_230:\n        /* \"#utility.yul\":9442:9581   */\n      swap1\n      pop\n        /* \"#utility.yul\":9340:9588   */\n      swap2\n      swap1\n      pop\n      jump\t// out\n        /* \"#utility.yul\":9594:9877   */\n    tag_128:\n      0x00\n        /* \"#utility.yul\":9660:9662   */\n      0x40\n        /* \"#utility.yul\":9654:9663   */\n      mload\n        /* \"#utility.yul\":9644:9663   */\n      swap1\n      pop\n        /* \"#utility.yul\":9702:9706   */\n      dup2\n        /* \"#utility.yul\":9694:9700   */\n      dup2\n        /* \"#utility.yul\":9690:9707   */\n      add\n        /* \"#utility.yul\":9809:9815   */\n      dup2\n        /* \"#utility.yul\":9797:9807   */\n      dup2\n        /* \"#utility.yul\":9794:9816   */\n      lt\n        /* \"#utility.yul\":9773:9791   */\n      0xffffffffffffffff\n        /* \"#utility.yul\":9761:9771   */\n      dup3\n        /* \"#utility.yul\":9758:9792   */\n      gt\n        /* \"#utility.yul\":9755:9817   */\n      or\n        /* \"#utility.yul\":9752:9754   */\n      iszero\n      tag_232\n      jumpi\n        /* \"#utility.yul\":9820:9838   */\n      tag_233\n      tag_234\n      jump\t// in\n    tag_233:\n        /* \"#utility.yul\":9752:9754   */\n    tag_232:\n        /* \"#utility.yul\":9860:9870   */\n      dup1\n        /* \"#utility.yul\":9856:9858   */\n      0x40\n        /* \"#utility.yul\":9849:9871   */\n      mstore\n        /* \"#utility.yul\":9634:9877   */\n      pop\n      swap2\n      swap1\n      pop\n      jump\t// out\n        /* \"#utility.yul\":9883:10215   */\n    tag_127:\n      0x00\n        /* \"#utility.yul\":10035:10053   */\n      0xffffffffffffffff\n        /* \"#utility.yul\":10027:10033   */\n      dup3\n        /* \"#utility.yul\":10024:10054   */\n      gt\n        /* \"#utility.yul\":10021:10023   */\n      iszero\n      tag_236\n      jumpi\n        /* \"#utility.yul\":10057:10075   */\n      tag_237\n      tag_234\n      jump\t// in\n    tag_237:\n        /* \"#utility.yul\":10021:10023   */\n    tag_236:\n        /* \"#utility.yul\":10142:10146   */\n      0x1f\n        /* \"#utility.yul\":10138:10147   */\n      not\n        /* \"#utility.yul\":10131:10135   */\n      0x1f\n        /* \"#utility.yul\":10123:10129   */\n      dup4\n        /* \"#utility.yul\":10119:10136   */\n      add\n        /* \"#utility.yul\":10115:10148   */\n      and\n        /* \"#utility.yul\":10107:10148   */\n      swap1\n      pop\n        /* \"#utility.yul\":10203:10207   */\n      0x20\n        /* \"#utility.yul\":10197:10201   */\n      dup2\n        /* \"#utility.yul\":10193:10208   */\n      add\n        /* \"#utility.yul\":10185:10208   */\n      swap1\n      pop\n        /* \"#utility.yul\":9950:10215   */\n      swap2\n      swap1\n      pop\n      jump\t// out\n        /* \"#utility.yul\":10221:10362   */\n    tag_193:\n      0x00\n        /* \"#utility.yul\":10293:10296   */\n      dup2\n        /* \"#utility.yul\":10285:10296   */\n      swap1\n      pop\n        /* \"#utility.yul\":10316:10319   */\n      dup2\n        /* \"#utility.yul\":10313:10314   */\n      0x00\n        /* \"#utility.yul\":10306:10320   */\n      mstore\n        /* \"#utility.yul\":10350:10354   */\n      0x20\n        /* \"#utility.yul\":10347:10348   */\n      0x00\n        /* \"#utility.yul\":10337:10355   */\n      keccak256\n        /* \"#utility.yul\":10329:10355   */\n      swap1\n      pop\n        /* \"#utility.yul\":10275:10362   */\n      swap2\n      swap1\n      pop\n      jump\t// out\n        /* \"#utility.yul\":10368:10467   */\n    tag_172:\n      0x00\n        /* \"#utility.yul\":10454:10459   */\n      dup2\n        /* \"#utility.yul\":10448:10460   */\n      mload\n        /* \"#utility.yul\":10438:10460   */\n      swap1\n      pop\n        /* \"#utility.yul\":10427:10467   */\n      swap2\n      swap1\n      pop\n      jump\t// out\n        /* \"#utility.yul\":10473:10642   */\n    tag_174:\n      0x00\n        /* \"#utility.yul\":10591:10597   */\n      dup3\n        /* \"#utility.yul\":10586:10589   */\n      dup3\n        /* \"#utility.yul\":10579:10598   */\n      mstore\n        /* \"#utility.yul\":10631:10635   */\n      0x20\n        /* \"#utility.yul\":10626:10629   */\n      dup3\n        /* \"#utility.yul\":10622:10636   */\n      add\n        /* \"#utility.yul\":10607:10636   */\n      swap1\n      pop\n        /* \"#utility.yul\":10569:10642   */\n      swap3\n      swap2\n      pop\n      pop\n      jump\t// out\n        /* \"#utility.yul\":10648:10796   */\n    tag_183:\n      0x00\n        /* \"#utility.yul\":10787:10790   */\n      dup2\n        /* \"#utility.yul\":10772:10790   */\n      swap1\n      pop\n        /* \"#utility.yul\":10762:10796   */\n      swap3\n      swap2\n      pop\n      pop\n      jump\t// out\n        /* \"#utility.yul\":10802:10898   */\n    tag_164:\n      0x00\n        /* \"#utility.yul\":10868:10892   */\n      tag_243\n        /* \"#utility.yul\":10886:10891   */\n      dup3\n        /* \"#utility.yul\":10868:10892   */\n      tag_244\n      jump\t// in\n    tag_243:\n        /* \"#utility.yul\":10857:10892   */\n      swap1\n      pop\n        /* \"#utility.yul\":10847:10898   */\n      swap2\n      swap1\n      pop\n      jump\t// out\n        /* \"#utility.yul\":10904:10994   */\n    tag_168:\n      0x00\n        /* \"#utility.yul\":10981:10986   */\n      dup2\n        /* \"#utility.yul\":10974:10987   */\n      iszero\n        /* \"#utility.yul\":10967:10988   */\n      iszero\n        /* \"#utility.yul\":10956:10988   */\n      swap1\n      pop\n        /* \"#utility.yul\":10946:10994   */\n      swap2\n      swap1\n      pop\n      jump\t// out\n        /* \"#utility.yul\":11000:11126   */\n    tag_244:\n      0x00\n        /* \"#utility.yul\":11077:11119   */\n      0xffffffffffffffffffffffffffffffffffffffff\n        /* \"#utility.yul\":11070:11075   */\n      dup3\n        /* \"#utility.yul\":11066:11120   */\n      and\n        /* \"#utility.yul\":11055:11120   */\n      swap1\n      pop\n        /* \"#utility.yul\":11045:11126   */\n      swap2\n      swap1\n      pop\n      jump\t// out\n        /* \"#utility.yul\":11132:11209   */\n    tag_247:\n      0x00\n        /* \"#utility.yul\":11198:11203   */\n      dup2\n        /* \"#utility.yul\":11187:11203   */\n      swap1\n      pop\n        /* \"#utility.yul\":11177:11209   */\n      swap2\n      swap1\n      pop\n      jump\t// out\n        /* \"#utility.yul\":11215:11369   */\n    tag_131:\n        /* \"#utility.yul\":11299:11305   */\n      dup3\n        /* \"#utility.yul\":11294:11297   */\n      dup2\n        /* \"#utility.yul\":11289:11292   */\n      dup4\n        /* \"#utility.yul\":11276:11306   */\n      calldatacopy\n        /* \"#utility.yul\":11361:11362   */\n      0x00\n        /* \"#utility.yul\":11352:11358   */\n      dup4\n        /* \"#utility.yul\":11347:11350   */\n      dup4\n        /* \"#utility.yul\":11343:11359   */\n      add\n        /* \"#utility.yul\":11336:11363   */\n      mstore\n        /* \"#utility.yul\":11266:11369   */\n      pop\n      pop\n      pop\n      jump\t// out\n        /* \"#utility.yul\":11375:11682   */\n    tag_176:\n        /* \"#utility.yul\":11443:11444   */\n      0x00\n        /* \"#utility.yul\":11453:11566   */\n    tag_251:\n        /* \"#utility.yul\":11467:11473   */\n      dup4\n        /* \"#utility.yul\":11464:11465   */\n      dup2\n        /* \"#utility.yul\":11461:11474   */\n      lt\n        /* \"#utility.yul\":11453:11566   */\n      iszero\n      tag_253\n      jumpi\n        /* \"#utility.yul\":11552:11553   */\n      dup1\n        /* \"#utility.yul\":11547:11550   */\n      dup3\n        /* \"#utility.yul\":11543:11554   */\n      add\n        /* \"#utility.yul\":11537:11555   */\n      mload\n        /* \"#utility.yul\":11533:11534   */\n      dup2\n        /* \"#utility.yul\":11528:11531   */\n      dup5\n        /* \"#utility.yul\":11524:11535   */\n      add\n        /* \"#utility.yul\":11517:11556   */\n      mstore\n        /* \"#utility.yul\":11489:11491   */\n      0x20\n        /* \"#utility.yul\":11486:11487   */\n      dup2\n        /* \"#utility.yul\":11482:11492   */\n      add\n        /* \"#utility.yul\":11477:11492   */\n      swap1\n      pop\n        /* \"#utility.yul\":11453:11566   */\n      jump(tag_251)\n    tag_253:\n        /* \"#utility.yul\":11584:11590   */\n      dup4\n        /* \"#utility.yul\":11581:11582   */\n      dup2\n        /* \"#utility.yul\":11578:11591   */\n      gt\n        /* \"#utility.yul\":11575:11577   */\n      iszero\n      tag_254\n      jumpi\n        /* \"#utility.yul\":11664:11665   */\n      0x00\n        /* \"#utility.yul\":11655:11661   */\n      dup5\n        /* \"#utility.yul\":11650:11653   */\n      dup5\n        /* \"#utility.yul\":11646:11662   */\n      add\n        /* \"#utility.yul\":11639:11666   */\n      mstore\n        /* \"#utility.yul\":11575:11577   */\n    tag_254:\n        /* \"#utility.yul\":11424:11682   */\n      pop\n      pop\n      pop\n      pop\n      jump\t// out\n        /* \"#utility.yul\":11688:12008   */\n    tag_65:\n      0x00\n        /* \"#utility.yul\":11769:11770   */\n      0x02\n        /* \"#utility.yul\":11763:11767   */\n      dup3\n        /* \"#utility.yul\":11759:11771   */\n      div\n        /* \"#utility.yul\":11749:11771   */\n      swap1\n      pop\n        /* \"#utility.yul\":11816:11817   */\n      0x01\n        /* \"#utility.yul\":11810:11814   */\n      dup3\n        /* \"#utility.yul\":11806:11818   */\n      and\n        /* \"#utility.yul\":11837:11855   */\n      dup1\n        /* \"#utility.yul\":11827:11829   */\n      tag_256\n      jumpi\n        /* \"#utility.yul\":11893:11897   */\n      0x7f\n        /* \"#utility.yul\":11885:11891   */\n      dup3\n        /* \"#utility.yul\":11881:11898   */\n      and\n        /* \"#utility.yul\":11871:11898   */\n      swap2\n      pop\n        /* \"#utility.yul\":11827:11829   */\n    tag_256:\n        /* \"#utility.yul\":11955:11957   */\n      0x20\n        /* \"#utility.yul\":11947:11953   */\n      dup3\n        /* \"#utility.yul\":11944:11958   */\n      lt\n        /* \"#utility.yul\":11924:11942   */\n      dup2\n        /* \"#utility.yul\":11921:11959   */\n      eq\n        /* \"#utility.yul\":11918:11920   */\n      iszero\n      tag_257\n      jumpi\n        /* \"#utility.yul\":11974:11992   */\n      tag_258\n      tag_259\n      jump\t// in\n    tag_258:\n        /* \"#utility.yul\":11918:11920   */\n    tag_257:\n        /* \"#utility.yul\":11739:12008   */\n      pop\n      swap2\n      swap1\n      pop\n      jump\t// out\n        /* \"#utility.yul\":12014:12247   */\n    tag_99:\n      0x00\n        /* \"#utility.yul\":12076:12100   */\n      tag_261\n        /* \"#utility.yul\":12094:12099   */\n      dup3\n        /* \"#utility.yul\":12076:12100   */\n      tag_247\n      jump\t// in\n    tag_261:\n        /* \"#utility.yul\":12067:12100   */\n      swap2\n      pop\n        /* \"#utility.yul\":12122:12188   */\n      0xffffffffffffffffffffffffffffffffffffffffffffffffffffffffffffffff\n        /* \"#utility.yul\":12115:12120   */\n      dup3\n        /* \"#utility.yul\":12112:12189   */\n      eq\n        /* \"#utility.yul\":12109:12111   */\n      iszero\n      tag_262\n      jumpi\n        /* \"#utility.yul\":12192:12210   */\n      tag_263\n      tag_264\n      jump\t// in\n    tag_263:\n        /* \"#utility.yul\":12109:12111   */\n    tag_262:\n        /* \"#utility.yul\":12239:12240   */\n      0x01\n        /* \"#utility.yul\":12232:12237   */\n      dup3\n        /* \"#utility.yul\":12228:12241   */\n      add\n        /* \"#utility.yul\":12221:12241   */\n      swap1\n      pop\n        /* \"#utility.yul\":12057:12247   */\n      swap2\n      swap1\n      pop\n      jump\t// out\n        /* \"#utility.yul\":12253:12433   */\n    tag_264:\n        /* \"#utility.yul\":12301:12378   */\n      0x4e487b7100000000000000000000000000000000000000000000000000000000\n        /* \"#utility.yul\":12298:12299   */\n      0x00\n        /* \"#utility.yul\":12291:12379   */\n      mstore\n        /* \"#utility.yul\":12398:12402   */\n      0x11\n        /* \"#utility.yul\":12395:12396   */\n      0x04\n        /* \"#utility.yul\":12388:12403   */\n      mstore\n        /* \"#utility.yul\":12422:12426   */\n      0x24\n        /* \"#utility.yul\":12419:12420   */\n      0x00\n        /* \"#utility.yul\":12412:12427   */\n      revert\n        /* \"#utility.yul\":12439:12619   */\n    tag_259:\n        /* \"#utility.yul\":12487:12564   */\n      0x4e487b7100000000000000000000000000000000000000000000000000000000\n        /* \"#utility.yul\":12484:12485   */\n      0x00\n        /* \"#utility.yul\":12477:12565   */\n      mstore\n        /* \"#utility.yul\":12584:12588   */\n      0x22\n        /* \"#utility.yul\":12581:12582   */\n      0x04\n        /* \"#utility.yul\":12574:12589   */\n      mstore\n        /* \"#utility.yul\":12608:12612   */\n      0x24\n        /* \"#utility.yul\":12605:12606   */\n      0x00\n        /* \"#utility.yul\":12598:12613   */\n      revert\n        /* \"#utility.yul\":12625:12805   */\n    tag_234:\n        /* \"#utility.yul\":12673:12750   */\n      0x4e487b7100000000000000000000000000000000000000000000000000000000\n        /* \"#utility.yul\":12670:12671   */\n      0x00\n        /* \"#utility.yul\":12663:12751   */\n      mstore\n        /* \"#utility.yul\":12770:12774   */\n      0x41\n        /* \"#utility.yul\":12767:12768   */\n      0x04\n        /* \"#utility.yul\":12760:12775   */\n      mstore\n        /* \"#utility.yul\":12794:12798   */\n      0x24\n        /* \"#utility.yul\":12791:12792   */\n      0x00\n        /* \"#utility.yul\":12784:12799   */\n      revert\n        /* \"#utility.yul\":12811:12913   */\n    tag_178:\n      0x00\n        /* \"#utility.yul\":12903:12905   */\n      0x1f\n        /* \"#utility.yul\":12899:12906   */\n      not\n        /* \"#utility.yul\":12894:12896   */\n      0x1f\n        /* \"#utility.yul\":12887:12892   */\n      dup4\n        /* \"#utility.yul\":12883:12897   */\n      add\n        /* \"#utility.yul\":12879:12907   */\n      and\n        /* \"#utility.yul\":12869:12907   */\n      swap1\n      pop\n        /* \"#utility.yul\":12859:12913   */\n      swap2\n      swap1\n      pop\n      jump\t// out\n        /* \"#utility.yul\":12919:13035   */\n    tag_135:\n        /* \"#utility.yul\":12989:13010   */\n      tag_270\n        /* \"#utility.yul\":13004:13009   */\n      dup2\n        /* \"#utility.yul\":12989:13010   */\n      tag_168\n      jump\t// in\n    tag_270:\n        /* \"#utility.yul\":12982:12987   */\n      dup2\n        /* \"#utility.yul\":12979:13011   */\n      eq\n        /* \"#utility.yul\":12969:12971   */\n      tag_271\n      jumpi\n        /* \"#utility.yul\":13025:13026   */\n      0x00\n        /* \"#utility.yul\":13022:13023   */\n      dup1\n        /* \"#utility.yul\":13015:13027   */\n      revert\n        /* \"#utility.yul\":12969:12971   */\n    tag_271:\n        /* \"#utility.yul\":12959:13035   */\n      pop\n      jump\t// out\n        /* \"#utility.yul\":13041:13163   */\n    tag_143:\n        /* \"#utility.yul\":13114:13138   */\n      tag_273\n        /* \"#utility.yul\":13132:13137   */\n      dup2\n        /* \"#utility.yul\":13114:13138   */\n      tag_247\n      jump\t// in\n    tag_273:\n        /* \"#utility.yul\":13107:13112   */\n      dup2\n        /* \"#utility.yul\":13104:13139   */\n      eq\n        /* \"#utility.yul\":13094:13096   */\n      tag_274\n      jumpi\n        /* \"#utility.yul\":13153:13154   */\n      0x00\n        /* \"#utility.yul\":13150:13151   */\n      dup1\n        /* \"#utility.yul\":13143:13155   */\n      revert\n        /* \"#utility.yul\":13094:13096   */\n    tag_274:\n        /* \"#utility.yul\":13084:13163   */\n      pop\n      jump\t// out\n\n    auxdata: 0xa2646970667358221220ae8805f2b2996ffef6c06be3fc3c63724e8464c8127a87ffbe9c1792bc3c892664736f6c63430008000033\n}\n",
				"bytecode": {
					"linkReferences": {},
					"object": "608060405260016000806101000a81548160ff02191690831515021790555034801561002a57600080fd5b5033600060016101000a81548173ffffffffffffffffffffffffffffffffffffffff021916908373ffffffffffffffffffffffffffffffffffffffff1602179055506113258061007b6000396000f3fe608060405234801561001057600080fd5b506004361061007d5760003560e01c806357ae2a891161005b57806357ae2a89146100d8578063a18cc13b14610108578063d4d23a6e14610126578063e7d4296a146101425761007d565b80630694952d146100825780631509d30c146100a05780631c18379a146100bc575b600080fd5b61008a610174565b6040516100979190610f6b565b60405180910390f35b6100ba60048036038101906100b59190610b8c565b61019a565b005b6100d660048036038101906100d19190610bb5565b610246565b005b6100f260048036038101906100ed9190610c21565b61046b565b6040516100ff9190610fdf565b60405180910390f35b610110610738565b60405161011d9190610fc4565b60405180910390f35b610140600480360381019061013b9190610c4a565b610749565b005b61015c60048036038101906101579190610c21565b61074d565b60405161016b93929190610f86565b60405180910390f35b600060019054906101000a900473ffffffffffffffffffffffffffffffffffffffff1681565b600060019054906101000a900473ffffffffffffffffffffffffffffffffffffffff1673ffffffffffffffffffffffffffffffffffffffff163373ffffffffffffffffffffffffffffffffffffffff161461022a576040517f08c379a000000000000000000000000000000000000000000000000000000000815260040161022190611041565b60405180910390fd5b806000806101000a81548160ff02191690831515021790555050565b6001151560008054906101000a900460ff1615151461029a576040517f08c379a000000000000000000000000000000000000000000000000000000000815260040161029190611061565b60405180910390fd5b6102a38261083c565b156102e3576040517f08c379a00000000000000000000000000000000000000000000000000000000081526004016102da90611021565b60405180910390fd5b6000600180816001815401808255809150500390600052602060002090600302019050338160000160006101000a81548173ffffffffffffffffffffffffffffffffffffffff021916908373ffffffffffffffffffffffffffffffffffffffff16021790555060018160000160146101000a81548160ff0219169083151502179055508281600101908051906020019061037e929190610a1e565b508060020160405180606001604052803373ffffffffffffffffffffffffffffffffffffffff16815260200160011515815260200184815250908060018154018082558091505060019003906000526020600020906002020160009091909190915060008201518160000160006101000a81548173ffffffffffffffffffffffffffffffffffffffff021916908373ffffffffffffffffffffffffffffffffffffffff16021790555060208201518160000160146101000a81548160ff0219169083151502179055506040820151816001019080519060200190610463929190610a1e565b505050505050565b606061072d600183815481106104aa577f4e487b7100000000000000000000000000000000000000000000000000000000600052603260045260246000fd5b90600052602060002090600302016040518060800160405290816000820160009054906101000a900473ffffffffffffffffffffffffffffffffffffffff1673ffffffffffffffffffffffffffffffffffffffff1673ffffffffffffffffffffffffffffffffffffffff1681526020016000820160149054906101000a900460ff16151515158152602001600182018054610544906111a8565b80601f0160208091040260200160405190810160405280929190818152602001828054610570906111a8565b80156105bd5780601f10610592576101008083540402835291602001916105bd565b820191906000526020600020905b8154815290600101906020018083116105a057829003601f168201915b5050505050815260200160028201805480602002602001604051908101604052809291908181526020016000905b8282101561072057838290600052602060002090600202016040518060600160405290816000820160009054906101000a900473ffffffffffffffffffffffffffffffffffffffff1673ffffffffffffffffffffffffffffffffffffffff1673ffffffffffffffffffffffffffffffffffffffff1681526020016000820160149054906101000a900460ff1615151515815260200160018201805461068f906111a8565b80601f01602080910402602001604051908101604052809291908181526020018280546106bb906111a8565b80156107085780601f106106dd57610100808354040283529160200191610708565b820191906000526020600020905b8154815290600101906020018083116106eb57829003601f168201915b505050505081525050815260200190600101906105eb565b5050505081525050610917565b604001519050919050565b60008054906101000a900460ff1681565b5050565b6001818154811061075d57600080fd5b90600052602060002090600302016000915090508060000160009054906101000a900473ffffffffffffffffffffffffffffffffffffffff16908060000160149054906101000a900460ff16908060010180546107b9906111a8565b80601f01602080910402602001604051908101604052809291908181526020018280546107e5906111a8565b80156108325780601f1061080757610100808354040283529160200191610832565b820191906000526020600020905b81548152906001019060200180831161081557829003601f168201915b5050505050905083565b600080600090505b60018054905081101561090c57826040516020016108629190610f3d565b60405160208183030381529060405280519060200120600182815481106108b2577f4e487b7100000000000000000000000000000000000000000000000000000000600052603260045260246000fd5b90600052602060002090600302016001016040516020016108d39190610f54565b6040516020818303038152906040528051906020012014156108f9576001915050610912565b8080610904906111da565b915050610844565b50600090505b919050565b61091f610aa4565b60005b8260600151518110156109dd578260600151818151811061096c577f4e487b7100000000000000000000000000000000000000000000000000000000600052603260045260246000fd5b602002602001015160200151156109ca57826060015181815181106109ba577f4e487b7100000000000000000000000000000000000000000000000000000000600052603260045260246000fd5b6020026020010151915050610a19565b80806109d5906111da565b915050610922565b506040517f08c379a0000000000000000000000000000000000000000000000000000000008152600401610a1090611001565b60405180910390fd5b919050565b828054610a2a906111a8565b90600052602060002090601f016020900481019282610a4c5760008555610a93565b82601f10610a6557805160ff1916838001178555610a93565b82800160010185558215610a93579182015b82811115610a92578251825591602001919060010190610a77565b5b509050610aa09190610add565b5090565b6040518060600160405280600073ffffffffffffffffffffffffffffffffffffffff168152602001600015158152602001606081525090565b5b80821115610af6576000816000905550600101610ade565b5090565b6000610b0d610b08846110b2565b611081565b905082815260208101848484011115610b2557600080fd5b610b30848285611166565b509392505050565b600081359050610b47816112c1565b92915050565b600082601f830112610b5e57600080fd5b8135610b6e848260208601610afa565b91505092915050565b600081359050610b86816112d8565b92915050565b600060208284031215610b9e57600080fd5b6000610bac84828501610b38565b91505092915050565b60008060408385031215610bc857600080fd5b600083013567ffffffffffffffff811115610be257600080fd5b610bee85828601610b4d565b925050602083013567ffffffffffffffff811115610c0b57600080fd5b610c1785828601610b4d565b9150509250929050565b600060208284031215610c3357600080fd5b6000610c4184828501610b77565b91505092915050565b60008060408385031215610c5d57600080fd5b6000610c6b85828601610b77565b925050602083013567ffffffffffffffff811115610c8857600080fd5b610c9485828601610b4d565b9150509250929050565b610ca78161111e565b82525050565b610cb681611130565b82525050565b6000610cc7826110f7565b610cd18185611102565b9350610ce1818560208601611175565b610cea816112b0565b840191505092915050565b6000610d00826110f7565b610d0a8185611113565b9350610d1a818560208601611175565b80840191505092915050565b60008154610d33816111a8565b610d3d8186611113565b94506001821660008114610d585760018114610d6957610d9c565b60ff19831686528186019350610d9c565b610d72856110e2565b60005b83811015610d9457815481890152600182019150602081019050610d75565b838801955050505b50505092915050565b6000610db2602083611102565b91507f4e656e68756d612076657273616f2076616c69646120656e636f6e74726164616000830152602082019050919050565b6000610df2602483611102565b91507f556d6120706167696e6120636f6d206573746520746974756c6f206a6120657860008301527f69737465000000000000000000000000000000000000000000000000000000006020830152604082019050919050565b6000610e58603d83611102565b91507f536f6d656e7465206f20646f6e6f20646573746120426c6f636b70656469612060008301527f706f646520616c7465726172206f20617472696275746f20617469766f0000006020830152604082019050919050565b6000610ebe604783611102565b91507f412061646963616f206465206e6f76617320706167696e617320736f2065207060008301527f65726d6974696461207175616e646f206120426c6f636b70656469612065737460208301527f61206174697661000000000000000000000000000000000000000000000000006040830152606082019050919050565b6000610f498284610cf5565b915081905092915050565b6000610f608284610d26565b915081905092915050565b6000602082019050610f806000830184610c9e565b92915050565b6000606082019050610f9b6000830186610c9e565b610fa86020830185610cad565b8181036040830152610fba8184610cbc565b9050949350505050565b6000602082019050610fd96000830184610cad565b92915050565b60006020820190508181036000830152610ff98184610cbc565b905092915050565b6000602082019050818103600083015261101a81610da5565b9050919050565b6000602082019050818103600083015261103a81610de5565b9050919050565b6000602082019050818103600083015261105a81610e4b565b9050919050565b6000602082019050818103600083015261107a81610eb1565b9050919050565b6000604051905081810181811067ffffffffffffffff821117156110a8576110a7611281565b5b8060405250919050565b600067ffffffffffffffff8211156110cd576110cc611281565b5b601f19601f8301169050602081019050919050565b60008190508160005260206000209050919050565b600081519050919050565b600082825260208201905092915050565b600081905092915050565b60006111298261113c565b9050919050565b60008115159050919050565b600073ffffffffffffffffffffffffffffffffffffffff82169050919050565b6000819050919050565b82818337600083830152505050565b60005b83811015611193578082015181840152602081019050611178565b838111156111a2576000848401525b50505050565b600060028204905060018216806111c057607f821691505b602082108114156111d4576111d3611252565b5b50919050565b60006111e58261115c565b91507fffffffffffffffffffffffffffffffffffffffffffffffffffffffffffffffff82141561121857611217611223565b5b600182019050919050565b7f4e487b7100000000000000000000000000000000000000000000000000000000600052601160045260246000fd5b7f4e487b7100000000000000000000000000000000000000000000000000000000600052602260045260246000fd5b7f4e487b7100000000000000000000000000000000000000000000000000000000600052604160045260246000fd5b6000601f19601f8301169050919050565b6112ca81611130565b81146112d557600080fd5b50565b6112e18161115c565b81146112ec57600080fd5b5056fea2646970667358221220ae8805f2b2996ffef6c06be3fc3c63724e8464c8127a87ffbe9c1792bc3c892664736f6c63430008000033",
					"opcodes": "PUSH1 0x80 PUSH1 0x40 MSTORE PUSH1 0x1 PUSH1 0x0 DUP1 PUSH2 0x100 EXP DUP2 SLOAD DUP2 PUSH1 0xFF MUL NOT AND SWAP1 DUP4 ISZERO ISZERO MUL OR SWAP1 SSTORE POP CALLVALUE DUP1 ISZERO PUSH2 0x2A JUMPI PUSH1 0x0 DUP1 REVERT JUMPDEST POP CALLER PUSH1 0x0 PUSH1 0x1 PUSH2 0x100 EXP DUP2 SLOAD DUP2 PUSH20 0xFFFFFFFFFFFFFFFFFFFFFFFFFFFFFFFFFFFFFFFF MUL NOT AND SWAP1 DUP4 PUSH20 0xFFFFFFFFFFFFFFFFFFFFFFFFFFFFFFFFFFFFFFFF AND MUL OR SWAP1 SSTORE POP PUSH2 0x1325 DUP1 PUSH2 0x7B PUSH1 0x0 CODECOPY PUSH1 0x0 RETURN INVALID PUSH1 0x80 PUSH1 0x40 MSTORE CALLVALUE DUP1 ISZERO PUSH2 0x10 JUMPI PUSH1 0x0 DUP1 REVERT JUMPDEST POP PUSH1 0x4 CALLDATASIZE LT PUSH2 0x7D JUMPI PUSH1 0x0 CALLDATALOAD PUSH1 0xE0 SHR DUP1 PUSH4 0x57AE2A89 GT PUSH2 0x5B JUMPI DUP1 PUSH4 0x57AE2A89 EQ PUSH2 0xD8 JUMPI DUP1 PUSH4 0xA18CC13B EQ PUSH2 0x108 JUMPI DUP1 PUSH4 0xD4D23A6E EQ PUSH2 0x126 JUMPI DUP1 PUSH4 0xE7D4296A EQ PUSH2 0x142 JUMPI PUSH2 0x7D JUMP JUMPDEST DUP1 PUSH4 0x694952D EQ PUSH2 0x82 JUMPI DUP1 PUSH4 0x1509D30C EQ PUSH2 0xA0 JUMPI DUP1 PUSH4 0x1C18379A EQ PUSH2 0xBC JUMPI JUMPDEST PUSH1 0x0 DUP1 REVERT JUMPDEST PUSH2 0x8A PUSH2 0x174 JUMP JUMPDEST PUSH1 0x40 MLOAD PUSH2 0x97 SWAP2 SWAP1 PUSH2 0xF6B JUMP JUMPDEST PUSH1 0x40 MLOAD DUP1 SWAP2 SUB SWAP1 RETURN JUMPDEST PUSH2 0xBA PUSH1 0x4 DUP1 CALLDATASIZE SUB DUP2 ADD SWAP1 PUSH2 0xB5 SWAP2 SWAP1 PUSH2 0xB8C JUMP JUMPDEST PUSH2 0x19A JUMP JUMPDEST STOP JUMPDEST PUSH2 0xD6 PUSH1 0x4 DUP1 CALLDATASIZE SUB DUP2 ADD SWAP1 PUSH2 0xD1 SWAP2 SWAP1 PUSH2 0xBB5 JUMP JUMPDEST PUSH2 0x246 JUMP JUMPDEST STOP JUMPDEST PUSH2 0xF2 PUSH1 0x4 DUP1 CALLDATASIZE SUB DUP2 ADD SWAP1 PUSH2 0xED SWAP2 SWAP1 PUSH2 0xC21 JUMP JUMPDEST PUSH2 0x46B JUMP JUMPDEST PUSH1 0x40 MLOAD PUSH2 0xFF SWAP2 SWAP1 PUSH2 0xFDF JUMP JUMPDEST PUSH1 0x40 MLOAD DUP1 SWAP2 SUB SWAP1 RETURN JUMPDEST PUSH2 0x110 PUSH2 0x738 JUMP JUMPDEST PUSH1 0x40 MLOAD PUSH2 0x11D SWAP2 SWAP1 PUSH2 0xFC4 JUMP JUMPDEST PUSH1 0x40 MLOAD DUP1 SWAP2 SUB SWAP1 RETURN JUMPDEST PUSH2 0x140 PUSH1 0x4 DUP1 CALLDATASIZE SUB DUP2 ADD SWAP1 PUSH2 0x13B SWAP2 SWAP1 PUSH2 0xC4A JUMP JUMPDEST PUSH2 0x749 JUMP JUMPDEST STOP JUMPDEST PUSH2 0x15C PUSH1 0x4 DUP1 CALLDATASIZE SUB DUP2 ADD SWAP1 PUSH2 0x157 SWAP2 SWAP1 PUSH2 0xC21 JUMP JUMPDEST PUSH2 0x74D JUMP JUMPDEST PUSH1 0x40 MLOAD PUSH2 0x16B SWAP4 SWAP3 SWAP2 SWAP1 PUSH2 0xF86 JUMP JUMPDEST PUSH1 0x40 MLOAD DUP1 SWAP2 SUB SWAP1 RETURN JUMPDEST PUSH1 0x0 PUSH1 0x1 SWAP1 SLOAD SWAP1 PUSH2 0x100 EXP SWAP1 DIV PUSH20 0xFFFFFFFFFFFFFFFFFFFFFFFFFFFFFFFFFFFFFFFF AND DUP2 JUMP JUMPDEST PUSH1 0x0 PUSH1 0x1 SWAP1 SLOAD SWAP1 PUSH2 0x100 EXP SWAP1 DIV PUSH20 0xFFFFFFFFFFFFFFFFFFFFFFFFFFFFFFFFFFFFFFFF AND PUSH20 0xFFFFFFFFFFFFFFFFFFFFFFFFFFFFFFFFFFFFFFFF AND CALLER PUSH20 0xFFFFFFFFFFFFFFFFFFFFFFFFFFFFFFFFFFFFFFFF AND EQ PUSH2 0x22A JUMPI PUSH1 0x40 MLOAD PUSH32 0x8C379A000000000000000000000000000000000000000000000000000000000 DUP2 MSTORE PUSH1 0x4 ADD PUSH2 0x221 SWAP1 PUSH2 0x1041 JUMP JUMPDEST PUSH1 0x40 MLOAD DUP1 SWAP2 SUB SWAP1 REVERT JUMPDEST DUP1 PUSH1 0x0 DUP1 PUSH2 0x100 EXP DUP2 SLOAD DUP2 PUSH1 0xFF MUL NOT AND SWAP1 DUP4 ISZERO ISZERO MUL OR SWAP1 SSTORE POP POP JUMP JUMPDEST PUSH1 0x1 ISZERO ISZERO PUSH1 0x0 DUP1 SLOAD SWAP1 PUSH2 0x100 EXP SWAP1 DIV PUSH1 0xFF AND ISZERO ISZERO EQ PUSH2 0x29A JUMPI PUSH1 0x40 MLOAD PUSH32 0x8C379A000000000000000000000000000000000000000000000000000000000 DUP2 MSTORE PUSH1 0x4 ADD PUSH2 0x291 SWAP1 PUSH2 0x1061 JUMP JUMPDEST PUSH1 0x40 MLOAD DUP1 SWAP2 SUB SWAP1 REVERT JUMPDEST PUSH2 0x2A3 DUP3 PUSH2 0x83C JUMP JUMPDEST ISZERO PUSH2 0x2E3 JUMPI PUSH1 0x40 MLOAD PUSH32 0x8C379A000000000000000000000000000000000000000000000000000000000 DUP2 MSTORE PUSH1 0x4 ADD PUSH2 0x2DA SWAP1 PUSH2 0x1021 JUMP JUMPDEST PUSH1 0x40 MLOAD DUP1 SWAP2 SUB SWAP1 REVERT JUMPDEST PUSH1 0x0 PUSH1 0x1 DUP1 DUP2 PUSH1 0x1 DUP2 SLOAD ADD DUP1 DUP3 SSTORE DUP1 SWAP2 POP POP SUB SWAP1 PUSH1 0x0 MSTORE PUSH1 0x20 PUSH1 0x0 KECCAK256 SWAP1 PUSH1 0x3 MUL ADD SWAP1 POP CALLER DUP2 PUSH1 0x0 ADD PUSH1 0x0 PUSH2 0x100 EXP DUP2 SLOAD DUP2 PUSH20 0xFFFFFFFFFFFFFFFFFFFFFFFFFFFFFFFFFFFFFFFF MUL NOT AND SWAP1 DUP4 PUSH20 0xFFFFFFFFFFFFFFFFFFFFFFFFFFFFFFFFFFFFFFFF AND MUL OR SWAP1 SSTORE POP PUSH1 0x1 DUP2 PUSH1 0x0 ADD PUSH1 0x14 PUSH2 0x100 EXP DUP2 SLOAD DUP2 PUSH1 0xFF MUL NOT AND SWAP1 DUP4 ISZERO ISZERO MUL OR SWAP1 SSTORE POP DUP3 DUP2 PUSH1 0x1 ADD SWAP1 DUP1 MLOAD SWAP1 PUSH1 0x20 ADD SWAP1 PUSH2 0x37E SWAP3 SWAP2 SWAP1 PUSH2 0xA1E JUMP JUMPDEST POP DUP1 PUSH1 0x2 ADD PUSH1 0x40 MLOAD DUP1 PUSH1 0x60 ADD PUSH1 0x40 MSTORE DUP1 CALLER PUSH20 0xFFFFFFFFFFFFFFFFFFFFFFFFFFFFFFFFFFFFFFFF AND DUP2 MSTORE PUSH1 0x20 ADD PUSH1 0x1 ISZERO ISZERO DUP2 MSTORE PUSH1 0x20 ADD DUP5 DUP2 MSTORE POP SWAP1 DUP1 PUSH1 0x1 DUP2 SLOAD ADD DUP1 DUP3 SSTORE DUP1 SWAP2 POP POP PUSH1 0x1 SWAP1 SUB SWAP1 PUSH1 0x0 MSTORE PUSH1 0x20 PUSH1 0x0 KECCAK256 SWAP1 PUSH1 0x2 MUL ADD PUSH1 0x0 SWAP1 SWAP2 SWAP1 SWAP2 SWAP1 SWAP2 POP PUSH1 0x0 DUP3 ADD MLOAD DUP2 PUSH1 0x0 ADD PUSH1 0x0 PUSH2 0x100 EXP DUP2 SLOAD DUP2 PUSH20 0xFFFFFFFFFFFFFFFFFFFFFFFFFFFFFFFFFFFFFFFF MUL NOT AND SWAP1 DUP4 PUSH20 0xFFFFFFFFFFFFFFFFFFFFFFFFFFFFFFFFFFFFFFFF AND MUL OR SWAP1 SSTORE POP PUSH1 0x20 DUP3 ADD MLOAD DUP2 PUSH1 0x0 ADD PUSH1 0x14 PUSH2 0x100 EXP DUP2 SLOAD DUP2 PUSH1 0xFF MUL NOT AND SWAP1 DUP4 ISZERO ISZERO MUL OR SWAP1 SSTORE POP PUSH1 0x40 DUP3 ADD MLOAD DUP2 PUSH1 0x1 ADD SWAP1 DUP1 MLOAD SWAP1 PUSH1 0x20 ADD SWAP1 PUSH2 0x463 SWAP3 SWAP2 SWAP1 PUSH2 0xA1E JUMP JUMPDEST POP POP POP POP POP POP JUMP JUMPDEST PUSH1 0x60 PUSH2 0x72D PUSH1 0x1 DUP4 DUP2 SLOAD DUP2 LT PUSH2 0x4AA JUMPI PUSH32 0x4E487B7100000000000000000000000000000000000000000000000000000000 PUSH1 0x0 MSTORE PUSH1 0x32 PUSH1 0x4 MSTORE PUSH1 0x24 PUSH1 0x0 REVERT JUMPDEST SWAP1 PUSH1 0x0 MSTORE PUSH1 0x20 PUSH1 0x0 KECCAK256 SWAP1 PUSH1 0x3 MUL ADD PUSH1 0x40 MLOAD DUP1 PUSH1 0x80 ADD PUSH1 0x40 MSTORE SWAP1 DUP2 PUSH1 0x0 DUP3 ADD PUSH1 0x0 SWAP1 SLOAD SWAP1 PUSH2 0x100 EXP SWAP1 DIV PUSH20 0xFFFFFFFFFFFFFFFFFFFFFFFFFFFFFFFFFFFFFFFF AND PUSH20 0xFFFFFFFFFFFFFFFFFFFFFFFFFFFFFFFFFFFFFFFF AND PUSH20 0xFFFFFFFFFFFFFFFFFFFFFFFFFFFFFFFFFFFFFFFF AND DUP2 MSTORE PUSH1 0x20 ADD PUSH1 0x0 DUP3 ADD PUSH1 0x14 SWAP1 SLOAD SWAP1 PUSH2 0x100 EXP SWAP1 DIV PUSH1 0xFF AND ISZERO ISZERO ISZERO ISZERO DUP2 MSTORE PUSH1 0x20 ADD PUSH1 0x1 DUP3 ADD DUP1 SLOAD PUSH2 0x544 SWAP1 PUSH2 0x11A8 JUMP JUMPDEST DUP1 PUSH1 0x1F ADD PUSH1 0x20 DUP1 SWAP2 DIV MUL PUSH1 0x20 ADD PUSH1 0x40 MLOAD SWAP1 DUP2 ADD PUSH1 0x40 MSTORE DUP1 SWAP3 SWAP2 SWAP1 DUP2 DUP2 MSTORE PUSH1 0x20 ADD DUP3 DUP1 SLOAD PUSH2 0x570 SWAP1 PUSH2 0x11A8 JUMP JUMPDEST DUP1 ISZERO PUSH2 0x5BD JUMPI DUP1 PUSH1 0x1F LT PUSH2 0x592 JUMPI PUSH2 0x100 DUP1 DUP4 SLOAD DIV MUL DUP4 MSTORE SWAP2 PUSH1 0x20 ADD SWAP2 PUSH2 0x5BD JUMP JUMPDEST DUP3 ADD SWAP2 SWAP1 PUSH1 0x0 MSTORE PUSH1 0x20 PUSH1 0x0 KECCAK256 SWAP1 JUMPDEST DUP2 SLOAD DUP2 MSTORE SWAP1 PUSH1 0x1 ADD SWAP1 PUSH1 0x20 ADD DUP1 DUP4 GT PUSH2 0x5A0 JUMPI DUP3 SWAP1 SUB PUSH1 0x1F AND DUP3 ADD SWAP2 JUMPDEST POP POP POP POP POP DUP2 MSTORE PUSH1 0x20 ADD PUSH1 0x2 DUP3 ADD DUP1 SLOAD DUP1 PUSH1 0x20 MUL PUSH1 0x20 ADD PUSH1 0x40 MLOAD SWAP1 DUP2 ADD PUSH1 0x40 MSTORE DUP1 SWAP3 SWAP2 SWAP1 DUP2 DUP2 MSTORE PUSH1 0x20 ADD PUSH1 0x0 SWAP1 JUMPDEST DUP3 DUP3 LT ISZERO PUSH2 0x720 JUMPI DUP4 DUP3 SWAP1 PUSH1 0x0 MSTORE PUSH1 0x20 PUSH1 0x0 KECCAK256 SWAP1 PUSH1 0x2 MUL ADD PUSH1 0x40 MLOAD DUP1 PUSH1 0x60 ADD PUSH1 0x40 MSTORE SWAP1 DUP2 PUSH1 0x0 DUP3 ADD PUSH1 0x0 SWAP1 SLOAD SWAP1 PUSH2 0x100 EXP SWAP1 DIV PUSH20 0xFFFFFFFFFFFFFFFFFFFFFFFFFFFFFFFFFFFFFFFF AND PUSH20 0xFFFFFFFFFFFFFFFFFFFFFFFFFFFFFFFFFFFFFFFF AND PUSH20 0xFFFFFFFFFFFFFFFFFFFFFFFFFFFFFFFFFFFFFFFF AND DUP2 MSTORE PUSH1 0x20 ADD PUSH1 0x0 DUP3 ADD PUSH1 0x14 SWAP1 SLOAD SWAP1 PUSH2 0x100 EXP SWAP1 DIV PUSH1 0xFF AND ISZERO ISZERO ISZERO ISZERO DUP2 MSTORE PUSH1 0x20 ADD PUSH1 0x1 DUP3 ADD DUP1 SLOAD PUSH2 0x68F SWAP1 PUSH2 0x11A8 JUMP JUMPDEST DUP1 PUSH1 0x1F ADD PUSH1 0x20 DUP1 SWAP2 DIV MUL PUSH1 0x20 ADD PUSH1 0x40 MLOAD SWAP1 DUP2 ADD PUSH1 0x40 MSTORE DUP1 SWAP3 SWAP2 SWAP1 DUP2 DUP2 MSTORE PUSH1 0x20 ADD DUP3 DUP1 SLOAD PUSH2 0x6BB SWAP1 PUSH2 0x11A8 JUMP JUMPDEST DUP1 ISZERO PUSH2 0x708 JUMPI DUP1 PUSH1 0x1F LT PUSH2 0x6DD JUMPI PUSH2 0x100 DUP1 DUP4 SLOAD DIV MUL DUP4 MSTORE SWAP2 PUSH1 0x20 ADD SWAP2 PUSH2 0x708 JUMP JUMPDEST DUP3 ADD SWAP2 SWAP1 PUSH1 0x0 MSTORE PUSH1 0x20 PUSH1 0x0 KECCAK256 SWAP1 JUMPDEST DUP2 SLOAD DUP2 MSTORE SWAP1 PUSH1 0x1 ADD SWAP1 PUSH1 0x20 ADD DUP1 DUP4 GT PUSH2 0x6EB JUMPI DUP3 SWAP1 SUB PUSH1 0x1F AND DUP3 ADD SWAP2 JUMPDEST POP POP POP POP POP DUP2 MSTORE POP POP DUP2 MSTORE PUSH1 0x20 ADD SWAP1 PUSH1 0x1 ADD SWAP1 PUSH2 0x5EB JUMP JUMPDEST POP POP POP POP DUP2 MSTORE POP POP PUSH2 0x917 JUMP JUMPDEST PUSH1 0x40 ADD MLOAD SWAP1 POP SWAP2 SWAP1 POP JUMP JUMPDEST PUSH1 0x0 DUP1 SLOAD SWAP1 PUSH2 0x100 EXP SWAP1 DIV PUSH1 0xFF AND DUP2 JUMP JUMPDEST POP POP JUMP JUMPDEST PUSH1 0x1 DUP2 DUP2 SLOAD DUP2 LT PUSH2 0x75D JUMPI PUSH1 0x0 DUP1 REVERT JUMPDEST SWAP1 PUSH1 0x0 MSTORE PUSH1 0x20 PUSH1 0x0 KECCAK256 SWAP1 PUSH1 0x3 MUL ADD PUSH1 0x0 SWAP2 POP SWAP1 POP DUP1 PUSH1 0x0 ADD PUSH1 0x0 SWAP1 SLOAD SWAP1 PUSH2 0x100 EXP SWAP1 DIV PUSH20 0xFFFFFFFFFFFFFFFFFFFFFFFFFFFFFFFFFFFFFFFF AND SWAP1 DUP1 PUSH1 0x0 ADD PUSH1 0x14 SWAP1 SLOAD SWAP1 PUSH2 0x100 EXP SWAP1 DIV PUSH1 0xFF AND SWAP1 DUP1 PUSH1 0x1 ADD DUP1 SLOAD PUSH2 0x7B9 SWAP1 PUSH2 0x11A8 JUMP JUMPDEST DUP1 PUSH1 0x1F ADD PUSH1 0x20 DUP1 SWAP2 DIV MUL PUSH1 0x20 ADD PUSH1 0x40 MLOAD SWAP1 DUP2 ADD PUSH1 0x40 MSTORE DUP1 SWAP3 SWAP2 SWAP1 DUP2 DUP2 MSTORE PUSH1 0x20 ADD DUP3 DUP1 SLOAD PUSH2 0x7E5 SWAP1 PUSH2 0x11A8 JUMP JUMPDEST DUP1 ISZERO PUSH2 0x832 JUMPI DUP1 PUSH1 0x1F LT PUSH2 0x807 JUMPI PUSH2 0x100 DUP1 DUP4 SLOAD DIV MUL DUP4 MSTORE SWAP2 PUSH1 0x20 ADD SWAP2 PUSH2 0x832 JUMP JUMPDEST DUP3 ADD SWAP2 SWAP1 PUSH1 0x0 MSTORE PUSH1 0x20 PUSH1 0x0 KECCAK256 SWAP1 JUMPDEST DUP2 SLOAD DUP2 MSTORE SWAP1 PUSH1 0x1 ADD SWAP1 PUSH1 0x20 ADD DUP1 DUP4 GT PUSH2 0x815 JUMPI DUP3 SWAP1 SUB PUSH1 0x1F AND DUP3 ADD SWAP2 JUMPDEST POP POP POP POP POP SWAP1 POP DUP4 JUMP JUMPDEST PUSH1 0x0 DUP1 PUSH1 0x0 SWAP1 POP JUMPDEST PUSH1 0x1 DUP1 SLOAD SWAP1 POP DUP2 LT ISZERO PUSH2 0x90C JUMPI DUP3 PUSH1 0x40 MLOAD PUSH1 0x20 ADD PUSH2 0x862 SWAP2 SWAP1 PUSH2 0xF3D JUMP JUMPDEST PUSH1 0x40 MLOAD PUSH1 0x20 DUP2 DUP4 SUB SUB DUP2 MSTORE SWAP1 PUSH1 0x40 MSTORE DUP1 MLOAD SWAP1 PUSH1 0x20 ADD KECCAK256 PUSH1 0x1 DUP3 DUP2 SLOAD DUP2 LT PUSH2 0x8B2 JUMPI PUSH32 0x4E487B7100000000000000000000000000000000000000000000000000000000 PUSH1 0x0 MSTORE PUSH1 0x32 PUSH1 0x4 MSTORE PUSH1 0x24 PUSH1 0x0 REVERT JUMPDEST SWAP1 PUSH1 0x0 MSTORE PUSH1 0x20 PUSH1 0x0 KECCAK256 SWAP1 PUSH1 0x3 MUL ADD PUSH1 0x1 ADD PUSH1 0x40 MLOAD PUSH1 0x20 ADD PUSH2 0x8D3 SWAP2 SWAP1 PUSH2 0xF54 JUMP JUMPDEST PUSH1 0x40 MLOAD PUSH1 0x20 DUP2 DUP4 SUB SUB DUP2 MSTORE SWAP1 PUSH1 0x40 MSTORE DUP1 MLOAD SWAP1 PUSH1 0x20 ADD KECCAK256 EQ ISZERO PUSH2 0x8F9 JUMPI PUSH1 0x1 SWAP2 POP POP PUSH2 0x912 JUMP JUMPDEST DUP1 DUP1 PUSH2 0x904 SWAP1 PUSH2 0x11DA JUMP JUMPDEST SWAP2 POP POP PUSH2 0x844 JUMP JUMPDEST POP PUSH1 0x0 SWAP1 POP JUMPDEST SWAP2 SWAP1 POP JUMP JUMPDEST PUSH2 0x91F PUSH2 0xAA4 JUMP JUMPDEST PUSH1 0x0 JUMPDEST DUP3 PUSH1 0x60 ADD MLOAD MLOAD DUP2 LT ISZERO PUSH2 0x9DD JUMPI DUP3 PUSH1 0x60 ADD MLOAD DUP2 DUP2 MLOAD DUP2 LT PUSH2 0x96C JUMPI PUSH32 0x4E487B7100000000000000000000000000000000000000000000000000000000 PUSH1 0x0 MSTORE PUSH1 0x32 PUSH1 0x4 MSTORE PUSH1 0x24 PUSH1 0x0 REVERT JUMPDEST PUSH1 0x20 MUL PUSH1 0x20 ADD ADD MLOAD PUSH1 0x20 ADD MLOAD ISZERO PUSH2 0x9CA JUMPI DUP3 PUSH1 0x60 ADD MLOAD DUP2 DUP2 MLOAD DUP2 LT PUSH2 0x9BA JUMPI PUSH32 0x4E487B7100000000000000000000000000000000000000000000000000000000 PUSH1 0x0 MSTORE PUSH1 0x32 PUSH1 0x4 MSTORE PUSH1 0x24 PUSH1 0x0 REVERT JUMPDEST PUSH1 0x20 MUL PUSH1 0x20 ADD ADD MLOAD SWAP2 POP POP PUSH2 0xA19 JUMP JUMPDEST DUP1 DUP1 PUSH2 0x9D5 SWAP1 PUSH2 0x11DA JUMP JUMPDEST SWAP2 POP POP PUSH2 0x922 JUMP JUMPDEST POP PUSH1 0x40 MLOAD PUSH32 0x8C379A000000000000000000000000000000000000000000000000000000000 DUP2 MSTORE PUSH1 0x4 ADD PUSH2 0xA10 SWAP1 PUSH2 0x1001 JUMP JUMPDEST PUSH1 0x40 MLOAD DUP1 SWAP2 SUB SWAP1 REVERT JUMPDEST SWAP2 SWAP1 POP JUMP JUMPDEST DUP3 DUP1 SLOAD PUSH2 0xA2A SWAP1 PUSH2 0x11A8 JUMP JUMPDEST SWAP1 PUSH1 0x0 MSTORE PUSH1 0x20 PUSH1 0x0 KECCAK256 SWAP1 PUSH1 0x1F ADD PUSH1 0x20 SWAP1 DIV DUP2 ADD SWAP3 DUP3 PUSH2 0xA4C JUMPI PUSH1 0x0 DUP6 SSTORE PUSH2 0xA93 JUMP JUMPDEST DUP3 PUSH1 0x1F LT PUSH2 0xA65 JUMPI DUP1 MLOAD PUSH1 0xFF NOT AND DUP4 DUP1 ADD OR DUP6 SSTORE PUSH2 0xA93 JUMP JUMPDEST DUP3 DUP1 ADD PUSH1 0x1 ADD DUP6 SSTORE DUP3 ISZERO PUSH2 0xA93 JUMPI SWAP2 DUP3 ADD JUMPDEST DUP3 DUP2 GT ISZERO PUSH2 0xA92 JUMPI DUP3 MLOAD DUP3 SSTORE SWAP2 PUSH1 0x20 ADD SWAP2 SWAP1 PUSH1 0x1 ADD SWAP1 PUSH2 0xA77 JUMP JUMPDEST JUMPDEST POP SWAP1 POP PUSH2 0xAA0 SWAP2 SWAP1 PUSH2 0xADD JUMP JUMPDEST POP SWAP1 JUMP JUMPDEST PUSH1 0x40 MLOAD DUP1 PUSH1 0x60 ADD PUSH1 0x40 MSTORE DUP1 PUSH1 0x0 PUSH20 0xFFFFFFFFFFFFFFFFFFFFFFFFFFFFFFFFFFFFFFFF AND DUP2 MSTORE PUSH1 0x20 ADD PUSH1 0x0 ISZERO ISZERO DUP2 MSTORE PUSH1 0x20 ADD PUSH1 0x60 DUP2 MSTORE POP SWAP1 JUMP JUMPDEST JUMPDEST DUP1 DUP3 GT ISZERO PUSH2 0xAF6 JUMPI PUSH1 0x0 DUP2 PUSH1 0x0 SWAP1 SSTORE POP PUSH1 0x1 ADD PUSH2 0xADE JUMP JUMPDEST POP SWAP1 JUMP JUMPDEST PUSH1 0x0 PUSH2 0xB0D PUSH2 0xB08 DUP5 PUSH2 0x10B2 JUMP JUMPDEST PUSH2 0x1081 JUMP JUMPDEST SWAP1 POP DUP3 DUP2 MSTORE PUSH1 0x20 DUP2 ADD DUP5 DUP5 DUP5 ADD GT ISZERO PUSH2 0xB25 JUMPI PUSH1 0x0 DUP1 REVERT JUMPDEST PUSH2 0xB30 DUP5 DUP3 DUP6 PUSH2 0x1166 JUMP JUMPDEST POP SWAP4 SWAP3 POP POP POP JUMP JUMPDEST PUSH1 0x0 DUP2 CALLDATALOAD SWAP1 POP PUSH2 0xB47 DUP2 PUSH2 0x12C1 JUMP JUMPDEST SWAP3 SWAP2 POP POP JUMP JUMPDEST PUSH1 0x0 DUP3 PUSH1 0x1F DUP4 ADD SLT PUSH2 0xB5E JUMPI PUSH1 0x0 DUP1 REVERT JUMPDEST DUP2 CALLDATALOAD PUSH2 0xB6E DUP5 DUP3 PUSH1 0x20 DUP7 ADD PUSH2 0xAFA JUMP JUMPDEST SWAP2 POP POP SWAP3 SWAP2 POP POP JUMP JUMPDEST PUSH1 0x0 DUP2 CALLDATALOAD SWAP1 POP PUSH2 0xB86 DUP2 PUSH2 0x12D8 JUMP JUMPDEST SWAP3 SWAP2 POP POP JUMP JUMPDEST PUSH1 0x0 PUSH1 0x20 DUP3 DUP5 SUB SLT ISZERO PUSH2 0xB9E JUMPI PUSH1 0x0 DUP1 REVERT JUMPDEST PUSH1 0x0 PUSH2 0xBAC DUP5 DUP3 DUP6 ADD PUSH2 0xB38 JUMP JUMPDEST SWAP2 POP POP SWAP3 SWAP2 POP POP JUMP JUMPDEST PUSH1 0x0 DUP1 PUSH1 0x40 DUP4 DUP6 SUB SLT ISZERO PUSH2 0xBC8 JUMPI PUSH1 0x0 DUP1 REVERT JUMPDEST PUSH1 0x0 DUP4 ADD CALLDATALOAD PUSH8 0xFFFFFFFFFFFFFFFF DUP2 GT ISZERO PUSH2 0xBE2 JUMPI PUSH1 0x0 DUP1 REVERT JUMPDEST PUSH2 0xBEE DUP6 DUP3 DUP7 ADD PUSH2 0xB4D JUMP JUMPDEST SWAP3 POP POP PUSH1 0x20 DUP4 ADD CALLDATALOAD PUSH8 0xFFFFFFFFFFFFFFFF DUP2 GT ISZERO PUSH2 0xC0B JUMPI PUSH1 0x0 DUP1 REVERT JUMPDEST PUSH2 0xC17 DUP6 DUP3 DUP7 ADD PUSH2 0xB4D JUMP JUMPDEST SWAP2 POP POP SWAP3 POP SWAP3 SWAP1 POP JUMP JUMPDEST PUSH1 0x0 PUSH1 0x20 DUP3 DUP5 SUB SLT ISZERO PUSH2 0xC33 JUMPI PUSH1 0x0 DUP1 REVERT JUMPDEST PUSH1 0x0 PUSH2 0xC41 DUP5 DUP3 DUP6 ADD PUSH2 0xB77 JUMP JUMPDEST SWAP2 POP POP SWAP3 SWAP2 POP POP JUMP JUMPDEST PUSH1 0x0 DUP1 PUSH1 0x40 DUP4 DUP6 SUB SLT ISZERO PUSH2 0xC5D JUMPI PUSH1 0x0 DUP1 REVERT JUMPDEST PUSH1 0x0 PUSH2 0xC6B DUP6 DUP3 DUP7 ADD PUSH2 0xB77 JUMP JUMPDEST SWAP3 POP POP PUSH1 0x20 DUP4 ADD CALLDATALOAD PUSH8 0xFFFFFFFFFFFFFFFF DUP2 GT ISZERO PUSH2 0xC88 JUMPI PUSH1 0x0 DUP1 REVERT JUMPDEST PUSH2 0xC94 DUP6 DUP3 DUP7 ADD PUSH2 0xB4D JUMP JUMPDEST SWAP2 POP POP SWAP3 POP SWAP3 SWAP1 POP JUMP JUMPDEST PUSH2 0xCA7 DUP2 PUSH2 0x111E JUMP JUMPDEST DUP3 MSTORE POP POP JUMP JUMPDEST PUSH2 0xCB6 DUP2 PUSH2 0x1130 JUMP JUMPDEST DUP3 MSTORE POP POP JUMP JUMPDEST PUSH1 0x0 PUSH2 0xCC7 DUP3 PUSH2 0x10F7 JUMP JUMPDEST PUSH2 0xCD1 DUP2 DUP6 PUSH2 0x1102 JUMP JUMPDEST SWAP4 POP PUSH2 0xCE1 DUP2 DUP6 PUSH1 0x20 DUP7 ADD PUSH2 0x1175 JUMP JUMPDEST PUSH2 0xCEA DUP2 PUSH2 0x12B0 JUMP JUMPDEST DUP5 ADD SWAP2 POP POP SWAP3 SWAP2 POP POP JUMP JUMPDEST PUSH1 0x0 PUSH2 0xD00 DUP3 PUSH2 0x10F7 JUMP JUMPDEST PUSH2 0xD0A DUP2 DUP6 PUSH2 0x1113 JUMP JUMPDEST SWAP4 POP PUSH2 0xD1A DUP2 DUP6 PUSH1 0x20 DUP7 ADD PUSH2 0x1175 JUMP JUMPDEST DUP1 DUP5 ADD SWAP2 POP POP SWAP3 SWAP2 POP POP JUMP JUMPDEST PUSH1 0x0 DUP2 SLOAD PUSH2 0xD33 DUP2 PUSH2 0x11A8 JUMP JUMPDEST PUSH2 0xD3D DUP2 DUP7 PUSH2 0x1113 JUMP JUMPDEST SWAP5 POP PUSH1 0x1 DUP3 AND PUSH1 0x0 DUP2 EQ PUSH2 0xD58 JUMPI PUSH1 0x1 DUP2 EQ PUSH2 0xD69 JUMPI PUSH2 0xD9C JUMP JUMPDEST PUSH1 0xFF NOT DUP4 AND DUP7 MSTORE DUP2 DUP7 ADD SWAP4 POP PUSH2 0xD9C JUMP JUMPDEST PUSH2 0xD72 DUP6 PUSH2 0x10E2 JUMP JUMPDEST PUSH1 0x0 JUMPDEST DUP4 DUP2 LT ISZERO PUSH2 0xD94 JUMPI DUP2 SLOAD DUP2 DUP10 ADD MSTORE PUSH1 0x1 DUP3 ADD SWAP2 POP PUSH1 0x20 DUP2 ADD SWAP1 POP PUSH2 0xD75 JUMP JUMPDEST DUP4 DUP9 ADD SWAP6 POP POP POP JUMPDEST POP POP POP SWAP3 SWAP2 POP POP JUMP JUMPDEST PUSH1 0x0 PUSH2 0xDB2 PUSH1 0x20 DUP4 PUSH2 0x1102 JUMP JUMPDEST SWAP2 POP PUSH32 0x4E656E68756D612076657273616F2076616C69646120656E636F6E7472616461 PUSH1 0x0 DUP4 ADD MSTORE PUSH1 0x20 DUP3 ADD SWAP1 POP SWAP2 SWAP1 POP JUMP JUMPDEST PUSH1 0x0 PUSH2 0xDF2 PUSH1 0x24 DUP4 PUSH2 0x1102 JUMP JUMPDEST SWAP2 POP PUSH32 0x556D6120706167696E6120636F6D206573746520746974756C6F206A61206578 PUSH1 0x0 DUP4 ADD MSTORE PUSH32 0x6973746500000000000000000000000000000000000000000000000000000000 PUSH1 0x20 DUP4 ADD MSTORE PUSH1 0x40 DUP3 ADD SWAP1 POP SWAP2 SWAP1 POP JUMP JUMPDEST PUSH1 0x0 PUSH2 0xE58 PUSH1 0x3D DUP4 PUSH2 0x1102 JUMP JUMPDEST SWAP2 POP PUSH32 0x536F6D656E7465206F20646F6E6F20646573746120426C6F636B706564696120 PUSH1 0x0 DUP4 ADD MSTORE PUSH32 0x706F646520616C7465726172206F20617472696275746F20617469766F000000 PUSH1 0x20 DUP4 ADD MSTORE PUSH1 0x40 DUP3 ADD SWAP1 POP SWAP2 SWAP1 POP JUMP JUMPDEST PUSH1 0x0 PUSH2 0xEBE PUSH1 0x47 DUP4 PUSH2 0x1102 JUMP JUMPDEST SWAP2 POP PUSH32 0x412061646963616F206465206E6F76617320706167696E617320736F20652070 PUSH1 0x0 DUP4 ADD MSTORE PUSH32 0x65726D6974696461207175616E646F206120426C6F636B706564696120657374 PUSH1 0x20 DUP4 ADD MSTORE PUSH32 0x6120617469766100000000000000000000000000000000000000000000000000 PUSH1 0x40 DUP4 ADD MSTORE PUSH1 0x60 DUP3 ADD SWAP1 POP SWAP2 SWAP1 POP JUMP JUMPDEST PUSH1 0x0 PUSH2 0xF49 DUP3 DUP5 PUSH2 0xCF5 JUMP JUMPDEST SWAP2 POP DUP2 SWAP1 POP SWAP3 SWAP2 POP POP JUMP JUMPDEST PUSH1 0x0 PUSH2 0xF60 DUP3 DUP5 PUSH2 0xD26 JUMP JUMPDEST SWAP2 POP DUP2 SWAP1 POP SWAP3 SWAP2 POP POP JUMP JUMPDEST PUSH1 0x0 PUSH1 0x20 DUP3 ADD SWAP1 POP PUSH2 0xF80 PUSH1 0x0 DUP4 ADD DUP5 PUSH2 0xC9E JUMP JUMPDEST SWAP3 SWAP2 POP POP JUMP JUMPDEST PUSH1 0x0 PUSH1 0x60 DUP3 ADD SWAP1 POP PUSH2 0xF9B PUSH1 0x0 DUP4 ADD DUP7 PUSH2 0xC9E JUMP JUMPDEST PUSH2 0xFA8 PUSH1 0x20 DUP4 ADD DUP6 PUSH2 0xCAD JUMP JUMPDEST DUP2 DUP2 SUB PUSH1 0x40 DUP4 ADD MSTORE PUSH2 0xFBA DUP2 DUP5 PUSH2 0xCBC JUMP JUMPDEST SWAP1 POP SWAP5 SWAP4 POP POP POP POP JUMP JUMPDEST PUSH1 0x0 PUSH1 0x20 DUP3 ADD SWAP1 POP PUSH2 0xFD9 PUSH1 0x0 DUP4 ADD DUP5 PUSH2 0xCAD JUMP JUMPDEST SWAP3 SWAP2 POP POP JUMP JUMPDEST PUSH1 0x0 PUSH1 0x20 DUP3 ADD SWAP1 POP DUP2 DUP2 SUB PUSH1 0x0 DUP4 ADD MSTORE PUSH2 0xFF9 DUP2 DUP5 PUSH2 0xCBC JUMP JUMPDEST SWAP1 POP SWAP3 SWAP2 POP POP JUMP JUMPDEST PUSH1 0x0 PUSH1 0x20 DUP3 ADD SWAP1 POP DUP2 DUP2 SUB PUSH1 0x0 DUP4 ADD MSTORE PUSH2 0x101A DUP2 PUSH2 0xDA5 JUMP JUMPDEST SWAP1 POP SWAP2 SWAP1 POP JUMP JUMPDEST PUSH1 0x0 PUSH1 0x20 DUP3 ADD SWAP1 POP DUP2 DUP2 SUB PUSH1 0x0 DUP4 ADD MSTORE PUSH2 0x103A DUP2 PUSH2 0xDE5 JUMP JUMPDEST SWAP1 POP SWAP2 SWAP1 POP JUMP JUMPDEST PUSH1 0x0 PUSH1 0x20 DUP3 ADD SWAP1 POP DUP2 DUP2 SUB PUSH1 0x0 DUP4 ADD MSTORE PUSH2 0x105A DUP2 PUSH2 0xE4B JUMP JUMPDEST SWAP1 POP SWAP2 SWAP1 POP JUMP JUMPDEST PUSH1 0x0 PUSH1 0x20 DUP3 ADD SWAP1 POP DUP2 DUP2 SUB PUSH1 0x0 DUP4 ADD MSTORE PUSH2 0x107A DUP2 PUSH2 0xEB1 JUMP JUMPDEST SWAP1 POP SWAP2 SWAP1 POP JUMP JUMPDEST PUSH1 0x0 PUSH1 0x40 MLOAD SWAP1 POP DUP2 DUP2 ADD DUP2 DUP2 LT PUSH8 0xFFFFFFFFFFFFFFFF DUP3 GT OR ISZERO PUSH2 0x10A8 JUMPI PUSH2 0x10A7 PUSH2 0x1281 JUMP JUMPDEST JUMPDEST DUP1 PUSH1 0x40 MSTORE POP SWAP2 SWAP1 POP JUMP JUMPDEST PUSH1 0x0 PUSH8 0xFFFFFFFFFFFFFFFF DUP3 GT ISZERO PUSH2 0x10CD JUMPI PUSH2 0x10CC PUSH2 0x1281 JUMP JUMPDEST JUMPDEST PUSH1 0x1F NOT PUSH1 0x1F DUP4 ADD AND SWAP1 POP PUSH1 0x20 DUP2 ADD SWAP1 POP SWAP2 SWAP1 POP JUMP JUMPDEST PUSH1 0x0 DUP2 SWAP1 POP DUP2 PUSH1 0x0 MSTORE PUSH1 0x20 PUSH1 0x0 KECCAK256 SWAP1 POP SWAP2 SWAP1 POP JUMP JUMPDEST PUSH1 0x0 DUP2 MLOAD SWAP1 POP SWAP2 SWAP1 POP JUMP JUMPDEST PUSH1 0x0 DUP3 DUP3 MSTORE PUSH1 0x20 DUP3 ADD SWAP1 POP SWAP3 SWAP2 POP POP JUMP JUMPDEST PUSH1 0x0 DUP2 SWAP1 POP SWAP3 SWAP2 POP POP JUMP JUMPDEST PUSH1 0x0 PUSH2 0x1129 DUP3 PUSH2 0x113C JUMP JUMPDEST SWAP1 POP SWAP2 SWAP1 POP JUMP JUMPDEST PUSH1 0x0 DUP2 ISZERO ISZERO SWAP1 POP SWAP2 SWAP1 POP JUMP JUMPDEST PUSH1 0x0 PUSH20 0xFFFFFFFFFFFFFFFFFFFFFFFFFFFFFFFFFFFFFFFF DUP3 AND SWAP1 POP SWAP2 SWAP1 POP JUMP JUMPDEST PUSH1 0x0 DUP2 SWAP1 POP SWAP2 SWAP1 POP JUMP JUMPDEST DUP3 DUP2 DUP4 CALLDATACOPY PUSH1 0x0 DUP4 DUP4 ADD MSTORE POP POP POP JUMP JUMPDEST PUSH1 0x0 JUMPDEST DUP4 DUP2 LT ISZERO PUSH2 0x1193 JUMPI DUP1 DUP3 ADD MLOAD DUP2 DUP5 ADD MSTORE PUSH1 0x20 DUP2 ADD SWAP1 POP PUSH2 0x1178 JUMP JUMPDEST DUP4 DUP2 GT ISZERO PUSH2 0x11A2 JUMPI PUSH1 0x0 DUP5 DUP5 ADD MSTORE JUMPDEST POP POP POP POP JUMP JUMPDEST PUSH1 0x0 PUSH1 0x2 DUP3 DIV SWAP1 POP PUSH1 0x1 DUP3 AND DUP1 PUSH2 0x11C0 JUMPI PUSH1 0x7F DUP3 AND SWAP2 POP JUMPDEST PUSH1 0x20 DUP3 LT DUP2 EQ ISZERO PUSH2 0x11D4 JUMPI PUSH2 0x11D3 PUSH2 0x1252 JUMP JUMPDEST JUMPDEST POP SWAP2 SWAP1 POP JUMP JUMPDEST PUSH1 0x0 PUSH2 0x11E5 DUP3 PUSH2 0x115C JUMP JUMPDEST SWAP2 POP PUSH32 0xFFFFFFFFFFFFFFFFFFFFFFFFFFFFFFFFFFFFFFFFFFFFFFFFFFFFFFFFFFFFFFFF DUP3 EQ ISZERO PUSH2 0x1218 JUMPI PUSH2 0x1217 PUSH2 0x1223 JUMP JUMPDEST JUMPDEST PUSH1 0x1 DUP3 ADD SWAP1 POP SWAP2 SWAP1 POP JUMP JUMPDEST PUSH32 0x4E487B7100000000000000000000000000000000000000000000000000000000 PUSH1 0x0 MSTORE PUSH1 0x11 PUSH1 0x4 MSTORE PUSH1 0x24 PUSH1 0x0 REVERT JUMPDEST PUSH32 0x4E487B7100000000000000000000000000000000000000000000000000000000 PUSH1 0x0 MSTORE PUSH1 0x22 PUSH1 0x4 MSTORE PUSH1 0x24 PUSH1 0x0 REVERT JUMPDEST PUSH32 0x4E487B7100000000000000000000000000000000000000000000000000000000 PUSH1 0x0 MSTORE PUSH1 0x41 PUSH1 0x4 MSTORE PUSH1 0x24 PUSH1 0x0 REVERT JUMPDEST PUSH1 0x0 PUSH1 0x1F NOT PUSH1 0x1F DUP4 ADD AND SWAP1 POP SWAP2 SWAP1 POP JUMP JUMPDEST PUSH2 0x12CA DUP2 PUSH2 0x1130 JUMP JUMPDEST DUP2 EQ PUSH2 0x12D5 JUMPI PUSH1 0x0 DUP1 REVERT JUMPDEST POP JUMP JUMPDEST PUSH2 0x12E1 DUP2 PUSH2 0x115C JUMP JUMPDEST DUP2 EQ PUSH2 0x12EC JUMPI PUSH1 0x0 DUP1 REVERT JUMPDEST POP JUMP INVALID LOG2 PUSH5 0x6970667358 0x22 SLT KECCAK256 0xAE DUP9 SDIV CALLCODE 0xB2 SWAP10 PUSH16 0xFEF6C06BE3FC3C63724E8464C8127A87 SELFDESTRUCT 0xBE SWAP13 OR SWAP3 0xBC EXTCODECOPY DUP10 0x26 PUSH5 0x736F6C6343 STOP ADDMOD STOP STOP CALLER "
				},
				"gasEstimates": {
					"creation": {
						"codeDepositCost": "980200",
						"executionCost": "42804",
						"totalCost": "1023004"
					},
					"external": {
						"adicionaNovaVercaoDesativadaAPaginaPorIndexPaginas(uint256,string)": "infinite",
						"ativaDesativaBlockpedia(bool)": "22222",
						"ativo()": "1190",
						"autor()": "1265",
						"criarPagina(string,string)": "infinite",
						"getVersaoValidaPorIndexPaginas(uint256)": "infinite",
						"paginas(uint256)": "infinite"
					},
					"internal": {
						"getVersaoValidaDeUmaPagina(struct Pagina memory)": "infinite",
						"tituloExiste(string memory)": "infinite"
					}
				},
				"methodIdentifiers": {
					"adicionaNovaVercaoDesativadaAPaginaPorIndexPaginas(uint256,string)": "d4d23a6e",
					"ativaDesativaBlockpedia(bool)": "1509d30c",
					"ativo()": "a18cc13b",
					"autor()": "0694952d",
					"criarPagina(string,string)": "1c18379a",
					"getVersaoValidaPorIndexPaginas(uint256)": "57ae2a89",
					"paginas(uint256)": "e7d4296a"
				}
			},
			"storageLayout": {
				"storage": [
					{
						"astId": 5,
						"contract": "blockpedia.sol:Blockpedia",
						"label": "ativo",
						"offset": 0,
						"slot": "0",
						"type": "t_bool"
					},
					{
						"astId": 7,
						"contract": "blockpedia.sol:Blockpedia",
						"label": "autor",
						"offset": 1,
						"slot": "0",
						"type": "t_address"
					},
					{
						"astId": 11,
						"contract": "blockpedia.sol:Blockpedia",
						"label": "paginas",
						"offset": 0,
						"slot": "1",
						"type": "t_array(t_struct(Pagina)219_storage)dyn_storage"
					}
				],
				"types": {
					"t_address": {
						"encoding": "inplace",
						"label": "address",
						"numberOfBytes": "20"
					},
					"t_array(t_struct(Pagina)219_storage)dyn_storage": {
						"base": "t_struct(Pagina)219_storage",
						"encoding": "dynamic_array",
						"label": "struct Pagina[]",
						"numberOfBytes": "32"
					},
					"t_array(t_struct(Versao)228_storage)dyn_storage": {
						"base": "t_struct(Versao)228_storage",
						"encoding": "dynamic_array",
						"label": "struct Versao[]",
						"numberOfBytes": "32"
					},
					"t_bool": {
						"encoding": "inplace",
						"label": "bool",
						"numberOfBytes": "1"
					},
					"t_string_storage": {
						"encoding": "bytes",
						"label": "string",
						"numberOfBytes": "32"
					},
					"t_struct(Pagina)219_storage": {
						"encoding": "inplace",
						"label": "struct Pagina",
						"members": [
							{
								"astId": 210,
								"contract": "blockpedia.sol:Blockpedia",
								"label": "autor",
								"offset": 0,
								"slot": "0",
								"type": "t_address"
							},
							{
								"astId": 212,
								"contract": "blockpedia.sol:Blockpedia",
								"label": "ativo",
								"offset": 20,
								"slot": "0",
								"type": "t_bool"
							},
							{
								"astId": 214,
								"contract": "blockpedia.sol:Blockpedia",
								"label": "titulo",
								"offset": 0,
								"slot": "1",
								"type": "t_string_storage"
							},
							{
								"astId": 218,
								"contract": "blockpedia.sol:Blockpedia",
								"label": "versoes",
								"offset": 0,
								"slot": "2",
								"type": "t_array(t_struct(Versao)228_storage)dyn_storage"
							}
						],
						"numberOfBytes": "96"
					},
					"t_struct(Versao)228_storage": {
						"encoding": "inplace",
						"label": "struct Versao",
						"members": [
							{
								"astId": 223,
								"contract": "blockpedia.sol:Blockpedia",
								"label": "autor",
								"offset": 0,
								"slot": "0",
								"type": "t_address"
							},
							{
								"astId": 225,
								"contract": "blockpedia.sol:Blockpedia",
								"label": "ativo",
								"offset": 20,
								"slot": "0",
								"type": "t_bool"
							},
							{
								"astId": 227,
								"contract": "blockpedia.sol:Blockpedia",
								"label": "conteudo",
								"offset": 0,
								"slot": "1",
								"type": "t_string_storage"
							}
						],
						"numberOfBytes": "64"
					}
				}
			},
			"userdoc": {
				"kind": "user",
				"methods": {},
				"version": 1
			}
		}
	}
}