{
	"blockpedia.sol": {
		"Blockpedia": {
			"abi": [
				{
					"inputs": [],
					"stateMutability": "nonpayable",
					"type": "constructor"
				},
				{
					"stateMutability": "payable",
					"type": "fallback"
				},
				{
					"inputs": [
						{
							"internalType": "uint256",
							"name": "_index",
							"type": "uint256"
						},
						{
							"internalType": "string",
							"name": "_conteudo",
							"type": "string"
						}
					],
					"name": "adicionaNovaVercaoDesativadaAPaginaPorIndexPaginas",
					"outputs": [],
					"stateMutability": "nonpayable",
					"type": "function"
				},
				{
					"inputs": [
						{
							"internalType": "bool",
							"name": "_ativo",
							"type": "bool"
						}
					],
					"name": "ativaDesativaBlockpedia",
					"outputs": [],
					"stateMutability": "nonpayable",
					"type": "function"
				},
				{
					"inputs": [
						{
							"internalType": "uint256",
							"name": "_indexPagina",
							"type": "uint256"
						}
					],
					"name": "ativaPaginaPorIndexPaginas",
					"outputs": [],
					"stateMutability": "nonpayable",
					"type": "function"
				},
				{
					"inputs": [
						{
							"internalType": "uint256",
							"name": "_indexPagina",
							"type": "uint256"
						},
						{
							"internalType": "uint256",
							"name": "_indexVersoes",
							"type": "uint256"
						}
					],
					"name": "ativaVersaoPorIndexVersoesEIndexPaginas",
					"outputs": [],
					"stateMutability": "nonpayable",
					"type": "function"
				},
				{
					"inputs": [],
					"name": "ativo",
					"outputs": [
						{
							"internalType": "bool",
							"name": "",
							"type": "bool"
						}
					],
					"stateMutability": "view",
					"type": "function"
				},
				{
					"inputs": [],
					"name": "autor",
					"outputs": [
						{
							"internalType": "address",
							"name": "",
							"type": "address"
						}
					],
					"stateMutability": "view",
					"type": "function"
				},
				{
					"inputs": [
						{
							"internalType": "string",
							"name": "_titulo",
							"type": "string"
						},
						{
							"internalType": "string",
							"name": "_conteudo",
							"type": "string"
						}
					],
					"name": "criarPagina",
					"outputs": [],
					"stateMutability": "nonpayable",
					"type": "function"
				},
				{
					"inputs": [],
					"name": "dataCriacao",
					"outputs": [
						{
							"internalType": "uint256",
							"name": "",
							"type": "uint256"
						}
					],
					"stateMutability": "view",
					"type": "function"
				},
				{
					"inputs": [
						{
							"internalType": "uint256",
							"name": "_indexPagina",
							"type": "uint256"
						}
					],
					"name": "desativaPaginaPorIndexPaginas",
					"outputs": [],
					"stateMutability": "nonpayable",
					"type": "function"
				},
				{
					"inputs": [],
					"name": "getAllDadosBlockpedia",
					"outputs": [
						{
							"internalType": "bool",
							"name": "",
							"type": "bool"
						},
						{
							"internalType": "address",
							"name": "",
							"type": "address"
						},
						{
							"internalType": "uint256",
							"name": "",
							"type": "uint256"
						},
						{
							"components": [
								{
									"internalType": "bool",
									"name": "ativo",
									"type": "bool"
								},
								{
									"internalType": "address",
									"name": "autor",
									"type": "address"
								},
								{
									"internalType": "uint256",
									"name": "dataCriacao",
									"type": "uint256"
								},
								{
									"internalType": "string",
									"name": "titulo",
									"type": "string"
								},
								{
									"components": [
										{
											"internalType": "bool",
											"name": "ativo",
											"type": "bool"
										},
										{
											"internalType": "address",
											"name": "autor",
											"type": "address"
										},
										{
											"internalType": "uint256",
											"name": "dataCriacao",
											"type": "uint256"
										},
										{
											"internalType": "string",
											"name": "conteudo",
											"type": "string"
										}
									],
									"internalType": "struct Blockpedia.Versao[]",
									"name": "versoes",
									"type": "tuple[]"
								}
							],
							"internalType": "struct Blockpedia.Pagina[]",
							"name": "",
							"type": "tuple[]"
						}
					],
					"stateMutability": "view",
					"type": "function"
				},
				{
					"inputs": [],
					"name": "getAllPaginasAtivas",
					"outputs": [
						{
							"components": [
								{
									"internalType": "bool",
									"name": "ativo",
									"type": "bool"
								},
								{
									"internalType": "address",
									"name": "autor",
									"type": "address"
								},
								{
									"internalType": "uint256",
									"name": "dataCriacao",
									"type": "uint256"
								},
								{
									"internalType": "string",
									"name": "titulo",
									"type": "string"
								},
								{
									"components": [
										{
											"internalType": "bool",
											"name": "ativo",
											"type": "bool"
										},
										{
											"internalType": "address",
											"name": "autor",
											"type": "address"
										},
										{
											"internalType": "uint256",
											"name": "dataCriacao",
											"type": "uint256"
										},
										{
											"internalType": "string",
											"name": "conteudo",
											"type": "string"
										}
									],
									"internalType": "struct Blockpedia.Versao[]",
									"name": "versoes",
									"type": "tuple[]"
								}
							],
							"internalType": "struct Blockpedia.Pagina[]",
							"name": "",
							"type": "tuple[]"
						}
					],
					"stateMutability": "view",
					"type": "function"
				},
				{
					"inputs": [],
					"name": "getAllPaginasAtivasSomenteComAsVersoesAtivas",
					"outputs": [
						{
							"components": [
								{
									"internalType": "bool",
									"name": "ativo",
									"type": "bool"
								},
								{
									"internalType": "address",
									"name": "autor",
									"type": "address"
								},
								{
									"internalType": "uint256",
									"name": "dataCriacao",
									"type": "uint256"
								},
								{
									"internalType": "string",
									"name": "titulo",
									"type": "string"
								},
								{
									"components": [
										{
											"internalType": "bool",
											"name": "ativo",
											"type": "bool"
										},
										{
											"internalType": "address",
											"name": "autor",
											"type": "address"
										},
										{
											"internalType": "uint256",
											"name": "dataCriacao",
											"type": "uint256"
										},
										{
											"internalType": "string",
											"name": "conteudo",
											"type": "string"
										}
									],
									"internalType": "struct Blockpedia.Versao[]",
									"name": "versoes",
									"type": "tuple[]"
								}
							],
							"internalType": "struct Blockpedia.Pagina[]",
							"name": "",
							"type": "tuple[]"
						}
					],
					"stateMutability": "view",
					"type": "function"
				},
				{
					"inputs": [],
					"name": "getAllPaginasComTodasVersoes",
					"outputs": [
						{
							"components": [
								{
									"internalType": "bool",
									"name": "ativo",
									"type": "bool"
								},
								{
									"internalType": "address",
									"name": "autor",
									"type": "address"
								},
								{
									"internalType": "uint256",
									"name": "dataCriacao",
									"type": "uint256"
								},
								{
									"internalType": "string",
									"name": "titulo",
									"type": "string"
								},
								{
									"components": [
										{
											"internalType": "bool",
											"name": "ativo",
											"type": "bool"
										},
										{
											"internalType": "address",
											"name": "autor",
											"type": "address"
										},
										{
											"internalType": "uint256",
											"name": "dataCriacao",
											"type": "uint256"
										},
										{
											"internalType": "string",
											"name": "conteudo",
											"type": "string"
										}
									],
									"internalType": "struct Blockpedia.Versao[]",
									"name": "versoes",
									"type": "tuple[]"
								}
							],
							"internalType": "struct Blockpedia.Pagina[]",
							"name": "",
							"type": "tuple[]"
						}
					],
					"stateMutability": "view",
					"type": "function"
				},
				{
					"inputs": [],
					"name": "getInformacoesBlockpedia",
					"outputs": [
						{
							"internalType": "bool",
							"name": "",
							"type": "bool"
						},
						{
							"internalType": "address",
							"name": "",
							"type": "address"
						},
						{
							"internalType": "uint256",
							"name": "",
							"type": "uint256"
						},
						{
							"internalType": "uint256",
							"name": "",
							"type": "uint256"
						}
					],
					"stateMutability": "view",
					"type": "function"
				},
				{
					"inputs": [
						{
							"internalType": "uint256",
							"name": "_indice",
							"type": "uint256"
						}
					],
					"name": "getPaginaComVersoes",
					"outputs": [
						{
							"components": [
								{
									"internalType": "bool",
									"name": "ativo",
									"type": "bool"
								},
								{
									"internalType": "address",
									"name": "autor",
									"type": "address"
								},
								{
									"internalType": "uint256",
									"name": "dataCriacao",
									"type": "uint256"
								},
								{
									"internalType": "string",
									"name": "titulo",
									"type": "string"
								},
								{
									"components": [
										{
											"internalType": "bool",
											"name": "ativo",
											"type": "bool"
										},
										{
											"internalType": "address",
											"name": "autor",
											"type": "address"
										},
										{
											"internalType": "uint256",
											"name": "dataCriacao",
											"type": "uint256"
										},
										{
											"internalType": "string",
											"name": "conteudo",
											"type": "string"
										}
									],
									"internalType": "struct Blockpedia.Versao[]",
									"name": "versoes",
									"type": "tuple[]"
								}
							],
							"internalType": "struct Blockpedia.Pagina",
							"name": "",
							"type": "tuple"
						}
					],
					"stateMutability": "view",
					"type": "function"
				},
				{
					"inputs": [
						{
							"internalType": "string",
							"name": "_titulo",
							"type": "string"
						}
					],
					"name": "getPaginasPorTitulo",
					"outputs": [
						{
							"internalType": "uint256[]",
							"name": "",
							"type": "uint256[]"
						}
					],
					"stateMutability": "view",
					"type": "function"
				},
				{
					"inputs": [
						{
							"components": [
								{
									"internalType": "bool",
									"name": "ativo",
									"type": "bool"
								},
								{
									"internalType": "address",
									"name": "autor",
									"type": "address"
								},
								{
									"internalType": "uint256",
									"name": "dataCriacao",
									"type": "uint256"
								},
								{
									"internalType": "string",
									"name": "titulo",
									"type": "string"
								},
								{
									"components": [
										{
											"internalType": "bool",
											"name": "ativo",
											"type": "bool"
										},
										{
											"internalType": "address",
											"name": "autor",
											"type": "address"
										},
										{
											"internalType": "uint256",
											"name": "dataCriacao",
											"type": "uint256"
										},
										{
											"internalType": "string",
											"name": "conteudo",
											"type": "string"
										}
									],
									"internalType": "struct Blockpedia.Versao[]",
									"name": "versoes",
									"type": "tuple[]"
								}
							],
							"internalType": "struct Blockpedia.Pagina",
							"name": "_pagina",
							"type": "tuple"
						}
					],
					"name": "getVersaoValidaDeUmaPagina",
					"outputs": [
						{
							"components": [
								{
									"internalType": "bool",
									"name": "ativo",
									"type": "bool"
								},
								{
									"internalType": "address",
									"name": "autor",
									"type": "address"
								},
								{
									"internalType": "uint256",
									"name": "dataCriacao",
									"type": "uint256"
								},
								{
									"internalType": "string",
									"name": "conteudo",
									"type": "string"
								}
							],
							"internalType": "struct Blockpedia.Versao",
							"name": "",
							"type": "tuple"
						}
					],
					"stateMutability": "pure",
					"type": "function"
				},
				{
					"inputs": [
						{
							"internalType": "uint256",
							"name": "",
							"type": "uint256"
						}
					],
					"name": "paginas",
					"outputs": [
						{
							"internalType": "bool",
							"name": "ativo",
							"type": "bool"
						},
						{
							"internalType": "address",
							"name": "autor",
							"type": "address"
						},
						{
							"internalType": "uint256",
							"name": "dataCriacao",
							"type": "uint256"
						},
						{
							"internalType": "string",
							"name": "titulo",
							"type": "string"
						}
					],
					"stateMutability": "view",
					"type": "function"
				},
				{
					"stateMutability": "payable",
					"type": "receive"
				}
			],
			"devdoc": {
				"kind": "dev",
				"methods": {},
				"version": 1
			},
			"evm": {
				"assembly": "    /* \"blockpedia.sol\":61:8273  contract Blockpedia\r... */\n  mstore(0x40, 0xc0)\n    /* \"blockpedia.sol\":109:113  true */\n  0x01\n    /* \"blockpedia.sol\":89:113  bool public ativo = true */\n  0x00\n  dup1\n  0x0100\n  exp\n  dup2\n  sload\n  dup2\n  0xff\n  mul\n  not\n  and\n  swap1\n  dup4\n  iszero\n  iszero\n  mul\n  or\n  swap1\n  sstore\n  pop\n    /* \"blockpedia.sol\":533:717  constructor()\r... */\n  callvalue\n  dup1\n  iszero\n  tag_1\n  jumpi\n  0x00\n  dup1\n  revert\ntag_1:\n  pop\n    /* \"blockpedia.sol\":571:581  msg.sender */\n  caller\n    /* \"blockpedia.sol\":563:581  autor = msg.sender */\n  0xffffffffffffffffffffffffffffffffffffffff\n  and\n  0x80\n  dup2\n  0xffffffffffffffffffffffffffffffffffffffff\n  and\n  0x60\n  shl\n  dup2\n  mstore\n  pop\n  pop\n    /* \"blockpedia.sol\":606:621  block.timestamp */\n  timestamp\n    /* \"blockpedia.sol\":592:621  dataCriacao = block.timestamp */\n  0xa0\n  dup2\n  dup2\n  mstore\n  pop\n  pop\n    /* \"blockpedia.sol\":632:709  criarPagina(\"Inicio\", \"Bem vindo a Blockpeida, a enciclopedia na blockchain\") */\n  tag_4\n  mload(0x40)\n  dup1\n  0x40\n  add\n  0x40\n  mstore\n  dup1\n  0x06\n  dup2\n  mstore\n  0x20\n  add\n  0x496e6963696f0000000000000000000000000000000000000000000000000000\n  dup2\n  mstore\n  pop\n  mload(0x40)\n  dup1\n  0x60\n  add\n  0x40\n  mstore\n  dup1\n  0x34\n  dup2\n  mstore\n  0x20\n  add\n  data_9002fc6039152390109ec5f732c53c58176ebaeec30c137dc0bb00ed96b81159\n  0x34\n  swap2\n  codecopy\n    /* \"blockpedia.sol\":632:643  criarPagina */\n  shl(0x20, tag_5)\n    /* \"blockpedia.sol\":632:709  criarPagina(\"Inicio\", \"Bem vindo a Blockpeida, a enciclopedia na blockchain\") */\n  0x20\n  shr\n  jump\t// in\ntag_4:\n    /* \"blockpedia.sol\":61:8273  contract Blockpedia\r... */\n  jump(tag_6)\n    /* \"blockpedia.sol\":3301:3801  function criarPagina(string memory _titulo, string memory _conteudo) public somenteSeAtivo \r... */\ntag_5:\n    /* \"blockpedia.sol\":8051:8056  ativo */\n  0x00\n  dup1\n  sload\n  swap1\n  0x0100\n  exp\n  swap1\n  div\n  0xff\n  and\n    /* \"blockpedia.sol\":8043:8113  require(ativo, \"A acao so e permitida quando a Blockpedia esta ativa\") */\n  tag_8\n  jumpi\n  mload(0x40)\n  0x08c379a000000000000000000000000000000000000000000000000000000000\n  dup2\n  mstore\n  0x04\n  add\n  tag_9\n  swap1\n  tag_10\n  jump\t// in\ntag_9:\n  mload(0x40)\n  dup1\n  swap2\n  sub\n  swap1\n  revert\ntag_8:\n    /* \"blockpedia.sol\":3418:3444  existeTituloAtivo(_titulo) */\n  tag_12\n    /* \"blockpedia.sol\":3436:3443  _titulo */\n  dup3\n    /* \"blockpedia.sol\":3418:3435  existeTituloAtivo */\n  shl(0x20, tag_13)\n    /* \"blockpedia.sol\":3418:3444  existeTituloAtivo(_titulo) */\n  0x20\n  shr\n  jump\t// in\ntag_12:\n    /* \"blockpedia.sol\":3417:3444  !existeTituloAtivo(_titulo) */\n  iszero\n    /* \"blockpedia.sol\":3409:3487  require(!existeTituloAtivo(_titulo), \"Ja existe pagina ativa com este titulo\") */\n  tag_14\n  jumpi\n  mload(0x40)\n  0x08c379a000000000000000000000000000000000000000000000000000000000\n  dup2\n  mstore\n  0x04\n  add\n  tag_15\n  swap1\n  tag_16\n  jump\t// in\ntag_15:\n  mload(0x40)\n  dup1\n  swap2\n  sub\n  swap1\n  revert\ntag_14:\n    /* \"blockpedia.sol\":3500:3525  Pagina storage novaPagina */\n  0x00\n    /* \"blockpedia.sol\":3528:3535  paginas */\n  0x01\n    /* \"blockpedia.sol\":3528:3542  paginas.push() */\n  dup1\n  dup2\n  0x01\n  dup2\n  sload\n  add\n  dup1\n  dup3\n  sstore\n  dup1\n  swap2\n  pop\n  pop\n  sub\n  swap1\n  0x00\n  mstore\n  keccak256(0x00, 0x20)\n  swap1\n  0x04\n  mul\n  add\n    /* \"blockpedia.sol\":3500:3542  Pagina storage novaPagina = paginas.push() */\n  swap1\n  pop\n    /* \"blockpedia.sol\":3572:3576  true */\n  0x01\n    /* \"blockpedia.sol\":3553:3563  novaPagina */\n  dup2\n    /* \"blockpedia.sol\":3553:3569  novaPagina.ativo */\n  0x00\n  add\n  0x00\n    /* \"blockpedia.sol\":3553:3576  novaPagina.ativo = true */\n  0x0100\n  exp\n  dup2\n  sload\n  dup2\n  0xff\n  mul\n  not\n  and\n  swap1\n  dup4\n  iszero\n  iszero\n  mul\n  or\n  swap1\n  sstore\n  pop\n    /* \"blockpedia.sol\":3606:3616  msg.sender */\n  caller\n    /* \"blockpedia.sol\":3587:3597  novaPagina */\n  dup2\n    /* \"blockpedia.sol\":3587:3603  novaPagina.autor */\n  0x00\n  add\n  0x01\n    /* \"blockpedia.sol\":3587:3616  novaPagina.autor = msg.sender */\n  0x0100\n  exp\n  dup2\n  sload\n  dup2\n  0xffffffffffffffffffffffffffffffffffffffff\n  mul\n  not\n  and\n  swap1\n  dup4\n  0xffffffffffffffffffffffffffffffffffffffff\n  and\n  mul\n  or\n  swap1\n  sstore\n  pop\n    /* \"blockpedia.sol\":3652:3667  block.timestamp */\n  timestamp\n    /* \"blockpedia.sol\":3627:3637  novaPagina */\n  dup2\n    /* \"blockpedia.sol\":3627:3649  novaPagina.dataCriacao */\n  0x01\n  add\n    /* \"blockpedia.sol\":3627:3667  novaPagina.dataCriacao = block.timestamp */\n  dup2\n  swap1\n  sstore\n  pop\n    /* \"blockpedia.sol\":3698:3705  _titulo */\n  dup3\n    /* \"blockpedia.sol\":3678:3688  novaPagina */\n  dup2\n    /* \"blockpedia.sol\":3678:3695  novaPagina.titulo */\n  0x02\n  add\n    /* \"blockpedia.sol\":3678:3705  novaPagina.titulo = _titulo */\n  swap1\n  dup1\n  mload\n  swap1\n  0x20\n  add\n  swap1\n  tag_18\n  swap3\n  swap2\n  swap1\n  tag_19\n  jump\t// in\ntag_18:\n  pop\n    /* \"blockpedia.sol\":3716:3726  novaPagina */\n  dup1\n    /* \"blockpedia.sol\":3716:3734  novaPagina.versoes */\n  0x03\n  add\n    /* \"blockpedia.sol\":3740:3792  Versao(true, msg.sender, block.timestamp, _conteudo) */\n  mload(0x40)\n  dup1\n  0x80\n  add\n  0x40\n  mstore\n  dup1\n    /* \"blockpedia.sol\":3747:3751  true */\n  0x01\n    /* \"blockpedia.sol\":3740:3792  Versao(true, msg.sender, block.timestamp, _conteudo) */\n  iszero\n  iszero\n  dup2\n  mstore\n  0x20\n  add\n    /* \"blockpedia.sol\":3753:3763  msg.sender */\n  caller\n    /* \"blockpedia.sol\":3740:3792  Versao(true, msg.sender, block.timestamp, _conteudo) */\n  0xffffffffffffffffffffffffffffffffffffffff\n  and\n  dup2\n  mstore\n  0x20\n  add\n    /* \"blockpedia.sol\":3765:3780  block.timestamp */\n  timestamp\n    /* \"blockpedia.sol\":3740:3792  Versao(true, msg.sender, block.timestamp, _conteudo) */\n  dup2\n  mstore\n  0x20\n  add\n    /* \"blockpedia.sol\":3782:3791  _conteudo */\n  dup5\n    /* \"blockpedia.sol\":3740:3792  Versao(true, msg.sender, block.timestamp, _conteudo) */\n  dup2\n  mstore\n  pop\n    /* \"blockpedia.sol\":3716:3793  novaPagina.versoes.push(Versao(true, msg.sender, block.timestamp, _conteudo)) */\n  swap1\n  dup1\n  0x01\n  dup2\n  sload\n  add\n  dup1\n  dup3\n  sstore\n  dup1\n  swap2\n  pop\n  pop\n  0x01\n  swap1\n  sub\n  swap1\n  0x00\n  mstore\n  keccak256(0x00, 0x20)\n  swap1\n  0x03\n  mul\n  add\n  0x00\n  swap1\n  swap2\n  swap1\n  swap2\n  swap1\n  swap2\n  pop\n  0x00\n  dup3\n  add\n  mload\n  dup2\n  0x00\n  add\n  exp(0x0100, 0x00)\n  dup2\n  sload\n  dup2\n  0xff\n  mul\n  not\n  and\n  swap1\n  dup4\n  iszero\n  iszero\n  mul\n  or\n  swap1\n  sstore\n  pop\n  0x20\n  dup3\n  add\n  mload\n  dup2\n  0x00\n  add\n  exp(0x0100, 0x01)\n  dup2\n  sload\n  dup2\n  0xffffffffffffffffffffffffffffffffffffffff\n  mul\n  not\n  and\n  swap1\n  dup4\n  0xffffffffffffffffffffffffffffffffffffffff\n  and\n  mul\n  or\n  swap1\n  sstore\n  pop\n  0x40\n  dup3\n  add\n  mload\n  dup2\n  0x01\n  add\n  sstore\n  0x60\n  dup3\n  add\n  mload\n  dup2\n  0x02\n  add\n  swap1\n  dup1\n  mload\n  swap1\n  0x20\n  add\n  swap1\n  tag_21\n  swap3\n  swap2\n  swap1\n  tag_19\n  jump\t// in\ntag_21:\n  pop\n  pop\n  pop\n    /* \"blockpedia.sol\":8124:8125  _ */\n  pop\n    /* \"blockpedia.sol\":3301:3801  function criarPagina(string memory _titulo, string memory _conteudo) public somenteSeAtivo \r... */\n  pop\n  pop\n  jump\t// out\n    /* \"blockpedia.sol\":4047:4368  function existeTituloAtivo(string memory _titulo) internal view returns (bool)\r... */\ntag_13:\n    /* \"blockpedia.sol\":4120:4124  bool */\n  0x00\n    /* \"blockpedia.sol\":4147:4153  uint i */\n  dup1\n    /* \"blockpedia.sol\":4156:4157  0 */\n  0x00\n    /* \"blockpedia.sol\":4147:4157  uint i = 0 */\n  swap1\n  pop\n    /* \"blockpedia.sol\":4142:4338  for (uint i = 0; i < paginas.length; i++)\r... */\ntag_23:\n    /* \"blockpedia.sol\":4163:4170  paginas */\n  0x01\n    /* \"blockpedia.sol\":4163:4177  paginas.length */\n  dup1\n  sload\n  swap1\n  pop\n    /* \"blockpedia.sol\":4159:4160  i */\n  dup2\n    /* \"blockpedia.sol\":4159:4177  i < paginas.length */\n  lt\n    /* \"blockpedia.sol\":4142:4338  for (uint i = 0; i < paginas.length; i++)\r... */\n  iszero\n  tag_24\n  jumpi\n    /* \"blockpedia.sol\":4212:4219  paginas */\n  0x01\n    /* \"blockpedia.sol\":4220:4221  i */\n  dup2\n    /* \"blockpedia.sol\":4212:4222  paginas[i] */\n  dup2\n  sload\n  dup2\n  lt\n  tag_26\n  jumpi\n  mstore(0x00, 0x4e487b7100000000000000000000000000000000000000000000000000000000)\n  mstore(0x04, 0x32)\n  revert(0x00, 0x24)\ntag_26:\n  swap1\n  0x00\n  mstore\n  keccak256(0x00, 0x20)\n  swap1\n  0x04\n  mul\n  add\n    /* \"blockpedia.sol\":4212:4228  paginas[i].ativo */\n  0x00\n  add\n  0x00\n  swap1\n  sload\n  swap1\n  0x0100\n  exp\n  swap1\n  div\n  0xff\n  and\n    /* \"blockpedia.sol\":4208:4326  if (paginas[i].ativo)\r... */\n  iszero\n  tag_28\n  jumpi\n    /* \"blockpedia.sol\":4251:4292  comparaString(paginas[i].titulo, _titulo) */\n  tag_29\n    /* \"blockpedia.sol\":4265:4272  paginas */\n  0x01\n    /* \"blockpedia.sol\":4273:4274  i */\n  dup3\n    /* \"blockpedia.sol\":4265:4275  paginas[i] */\n  dup2\n  sload\n  dup2\n  lt\n  tag_30\n  jumpi\n  mstore(0x00, 0x4e487b7100000000000000000000000000000000000000000000000000000000)\n  mstore(0x04, 0x32)\n  revert(0x00, 0x24)\ntag_30:\n  swap1\n  0x00\n  mstore\n  keccak256(0x00, 0x20)\n  swap1\n  0x04\n  mul\n  add\n    /* \"blockpedia.sol\":4265:4282  paginas[i].titulo */\n  0x02\n  add\n    /* \"blockpedia.sol\":4251:4292  comparaString(paginas[i].titulo, _titulo) */\n  dup1\n  sload\n  tag_32\n  swap1\n  tag_33\n  jump\t// in\ntag_32:\n  dup1\n  0x1f\n  add\n  0x20\n  dup1\n  swap2\n  div\n  mul\n  0x20\n  add\n  mload(0x40)\n  swap1\n  dup2\n  add\n  0x40\n  mstore\n  dup1\n  swap3\n  swap2\n  swap1\n  dup2\n  dup2\n  mstore\n  0x20\n  add\n  dup3\n  dup1\n  sload\n  tag_34\n  swap1\n  tag_33\n  jump\t// in\ntag_34:\n  dup1\n  iszero\n  tag_35\n  jumpi\n  dup1\n  0x1f\n  lt\n  tag_36\n  jumpi\n  0x0100\n  dup1\n  dup4\n  sload\n  div\n  mul\n  dup4\n  mstore\n  swap2\n  0x20\n  add\n  swap2\n  jump(tag_35)\ntag_36:\n  dup3\n  add\n  swap2\n  swap1\n  0x00\n  mstore\n  keccak256(0x00, 0x20)\n  swap1\ntag_37:\n  dup2\n  sload\n  dup2\n  mstore\n  swap1\n  0x01\n  add\n  swap1\n  0x20\n  add\n  dup1\n  dup4\n  gt\n  tag_37\n  jumpi\n  dup3\n  swap1\n  sub\n  0x1f\n  and\n  dup3\n  add\n  swap2\ntag_35:\n  pop\n  pop\n  pop\n  pop\n  pop\n    /* \"blockpedia.sol\":4284:4291  _titulo */\n  dup5\n    /* \"blockpedia.sol\":4251:4264  comparaString */\n  shl(0x20, tag_38)\n    /* \"blockpedia.sol\":4251:4292  comparaString(paginas[i].titulo, _titulo) */\n  0x20\n  shr\n  jump\t// in\ntag_29:\n    /* \"blockpedia.sol\":4247:4326  if (comparaString(paginas[i].titulo, _titulo))\r... */\n  iszero\n  tag_39\n  jumpi\n    /* \"blockpedia.sol\":4322:4326  true */\n  0x01\n    /* \"blockpedia.sol\":4315:4326  return true */\n  swap2\n  pop\n  pop\n  jump(tag_22)\n    /* \"blockpedia.sol\":4247:4326  if (comparaString(paginas[i].titulo, _titulo))\r... */\ntag_39:\n    /* \"blockpedia.sol\":4208:4326  if (paginas[i].ativo)\r... */\ntag_28:\n    /* \"blockpedia.sol\":4179:4182  i++ */\n  dup1\n  dup1\n  tag_40\n  swap1\n  tag_41\n  jump\t// in\ntag_40:\n  swap2\n  pop\n  pop\n    /* \"blockpedia.sol\":4142:4338  for (uint i = 0; i < paginas.length; i++)\r... */\n  jump(tag_23)\ntag_24:\n  pop\n    /* \"blockpedia.sol\":4355:4360  false */\n  0x00\n    /* \"blockpedia.sol\":4348:4360  return false */\n  swap1\n  pop\n    /* \"blockpedia.sol\":4047:4368  function existeTituloAtivo(string memory _titulo) internal view returns (bool)\r... */\ntag_22:\n  swap2\n  swap1\n  pop\n  jump\t// out\n    /* \"blockpedia.sol\":7523:7995  function comparaString(string memory _primeiraString, string memory _segundaString)internal pure returns(bool)\r... */\ntag_38:\n    /* \"blockpedia.sol\":7628:7632  bool */\n  0x00\n    /* \"blockpedia.sol\":7957:7971  _segundaString */\n  dup2\n    /* \"blockpedia.sol\":7940:7972  abi.encodePacked(_segundaString) */\n  add(0x20, mload(0x40))\n  tag_43\n  swap2\n  swap1\n  tag_44\n  jump\t// in\ntag_43:\n  mload(0x40)\n  0x20\n  dup2\n  dup4\n  sub\n  sub\n  dup2\n  mstore\n  swap1\n  0x40\n  mstore\n    /* \"blockpedia.sol\":7930:7973  keccak256(abi.encodePacked(_segundaString)) */\n  dup1\n  mload\n  swap1\n  0x20\n  add\n  keccak256\n    /* \"blockpedia.sol\":7909:7924  _primeiraString */\n  dup4\n    /* \"blockpedia.sol\":7892:7925  abi.encodePacked(_primeiraString) */\n  add(0x20, mload(0x40))\n  tag_45\n  swap2\n  swap1\n  tag_44\n  jump\t// in\ntag_45:\n  mload(0x40)\n  0x20\n  dup2\n  dup4\n  sub\n  sub\n  dup2\n  mstore\n  swap1\n  0x40\n  mstore\n    /* \"blockpedia.sol\":7882:7926  keccak256(abi.encodePacked(_primeiraString)) */\n  dup1\n  mload\n  swap1\n  0x20\n  add\n  keccak256\n    /* \"blockpedia.sol\":7882:7973  keccak256(abi.encodePacked(_primeiraString)) == keccak256(abi.encodePacked(_segundaString)) */\n  eq\n    /* \"blockpedia.sol\":7881:7987  (keccak256(abi.encodePacked(_primeiraString)) == keccak256(abi.encodePacked(_segundaString))) ? true:false */\n  tag_46\n  jumpi\n    /* \"blockpedia.sol\":7982:7987  false */\n  0x00\n    /* \"blockpedia.sol\":7881:7987  (keccak256(abi.encodePacked(_primeiraString)) == keccak256(abi.encodePacked(_segundaString))) ? true:false */\n  jump(tag_47)\ntag_46:\n    /* \"blockpedia.sol\":7977:7981  true */\n  0x01\n    /* \"blockpedia.sol\":7881:7987  (keccak256(abi.encodePacked(_primeiraString)) == keccak256(abi.encodePacked(_segundaString))) ? true:false */\ntag_47:\n    /* \"blockpedia.sol\":7874:7987  return (keccak256(abi.encodePacked(_primeiraString)) == keccak256(abi.encodePacked(_segundaString))) ? true:false */\n  swap1\n  pop\n    /* \"blockpedia.sol\":7523:7995  function comparaString(string memory _primeiraString, string memory _segundaString)internal pure returns(bool)\r... */\n  swap3\n  swap2\n  pop\n  pop\n  jump\t// out\n    /* \"blockpedia.sol\":61:8273  contract Blockpedia\r... */\ntag_19:\n  dup3\n  dup1\n  sload\n  tag_48\n  swap1\n  tag_33\n  jump\t// in\ntag_48:\n  swap1\n  0x00\n  mstore\n  keccak256(0x00, 0x20)\n  swap1\n  0x1f\n  add\n  0x20\n  swap1\n  div\n  dup2\n  add\n  swap3\n  dup3\n  tag_50\n  jumpi\n  0x00\n  dup6\n  sstore\n  jump(tag_49)\ntag_50:\n  dup3\n  0x1f\n  lt\n  tag_51\n  jumpi\n  dup1\n  mload\n  not(0xff)\n  and\n  dup4\n  dup1\n  add\n  or\n  dup6\n  sstore\n  jump(tag_49)\ntag_51:\n  dup3\n  dup1\n  add\n  0x01\n  add\n  dup6\n  sstore\n  dup3\n  iszero\n  tag_49\n  jumpi\n  swap2\n  dup3\n  add\ntag_52:\n  dup3\n  dup2\n  gt\n  iszero\n  tag_53\n  jumpi\n  dup3\n  mload\n  dup3\n  sstore\n  swap2\n  0x20\n  add\n  swap2\n  swap1\n  0x01\n  add\n  swap1\n  jump(tag_52)\ntag_53:\ntag_49:\n  pop\n  swap1\n  pop\n  tag_54\n  swap2\n  swap1\n  tag_55\n  jump\t// in\ntag_54:\n  pop\n  swap1\n  jump\t// out\ntag_55:\ntag_56:\n  dup1\n  dup3\n  gt\n  iszero\n  tag_57\n  jumpi\n  0x00\n  dup2\n  0x00\n  swap1\n  sstore\n  pop\n  0x01\n  add\n  jump(tag_56)\ntag_57:\n  pop\n  swap1\n  jump\t// out\n    /* \"#utility.yul\":7:384   */\ntag_59:\n  0x00\n    /* \"#utility.yul\":141:180   */\n  tag_61\n    /* \"#utility.yul\":174:179   */\n  dup3\n    /* \"#utility.yul\":141:180   */\n  tag_62\n  jump\t// in\ntag_61:\n    /* \"#utility.yul\":196:285   */\n  tag_63\n    /* \"#utility.yul\":278:284   */\n  dup2\n    /* \"#utility.yul\":273:276   */\n  dup6\n    /* \"#utility.yul\":196:285   */\n  tag_64\n  jump\t// in\ntag_63:\n    /* \"#utility.yul\":189:285   */\n  swap4\n  pop\n    /* \"#utility.yul\":294:346   */\n  tag_65\n    /* \"#utility.yul\":339:345   */\n  dup2\n    /* \"#utility.yul\":334:337   */\n  dup6\n    /* \"#utility.yul\":327:331   */\n  0x20\n    /* \"#utility.yul\":320:325   */\n  dup7\n    /* \"#utility.yul\":316:332   */\n  add\n    /* \"#utility.yul\":294:346   */\n  tag_66\n  jump\t// in\ntag_65:\n    /* \"#utility.yul\":371:377   */\n  dup1\n    /* \"#utility.yul\":366:369   */\n  dup5\n    /* \"#utility.yul\":362:378   */\n  add\n    /* \"#utility.yul\":355:378   */\n  swap2\n  pop\n    /* \"#utility.yul\":117:384   */\n  pop\n  swap3\n  swap2\n  pop\n  pop\n  jump\t// out\n    /* \"#utility.yul\":390:774   */\ntag_67:\n  0x00\n    /* \"#utility.yul\":553:620   */\n  tag_69\n    /* \"#utility.yul\":617:619   */\n  0x34\n    /* \"#utility.yul\":612:615   */\n  dup4\n    /* \"#utility.yul\":553:620   */\n  tag_70\n  jump\t// in\ntag_69:\n    /* \"#utility.yul\":546:620   */\n  swap2\n  pop\n    /* \"#utility.yul\":650:684   */\n  0x41206163616f20736f2065207065726d6974696461207175616e646f20612042\n    /* \"#utility.yul\":646:647   */\n  0x00\n    /* \"#utility.yul\":641:644   */\n  dup4\n    /* \"#utility.yul\":637:648   */\n  add\n    /* \"#utility.yul\":630:685   */\n  mstore\n    /* \"#utility.yul\":716:738   */\n  0x6c6f636b70656469612065737461206174697661000000000000000000000000\n    /* \"#utility.yul\":711:713   */\n  0x20\n    /* \"#utility.yul\":706:709   */\n  dup4\n    /* \"#utility.yul\":702:714   */\n  add\n    /* \"#utility.yul\":695:739   */\n  mstore\n    /* \"#utility.yul\":765:767   */\n  0x40\n    /* \"#utility.yul\":760:763   */\n  dup3\n    /* \"#utility.yul\":756:768   */\n  add\n    /* \"#utility.yul\":749:768   */\n  swap1\n  pop\n    /* \"#utility.yul\":536:774   */\n  swap2\n  swap1\n  pop\n  jump\t// out\n    /* \"#utility.yul\":780:1150   */\ntag_71:\n  0x00\n    /* \"#utility.yul\":943:1010   */\n  tag_73\n    /* \"#utility.yul\":1007:1009   */\n  0x26\n    /* \"#utility.yul\":1002:1005   */\n  dup4\n    /* \"#utility.yul\":943:1010   */\n  tag_70\n  jump\t// in\ntag_73:\n    /* \"#utility.yul\":936:1010   */\n  swap2\n  pop\n    /* \"#utility.yul\":1040:1074   */\n  0x4a612065786973746520706167696e6120617469766120636f6d206573746520\n    /* \"#utility.yul\":1036:1037   */\n  0x00\n    /* \"#utility.yul\":1031:1034   */\n  dup4\n    /* \"#utility.yul\":1027:1038   */\n  add\n    /* \"#utility.yul\":1020:1075   */\n  mstore\n    /* \"#utility.yul\":1106:1114   */\n  0x746974756c6f0000000000000000000000000000000000000000000000000000\n    /* \"#utility.yul\":1101:1103   */\n  0x20\n    /* \"#utility.yul\":1096:1099   */\n  dup4\n    /* \"#utility.yul\":1092:1104   */\n  add\n    /* \"#utility.yul\":1085:1115   */\n  mstore\n    /* \"#utility.yul\":1141:1143   */\n  0x40\n    /* \"#utility.yul\":1136:1139   */\n  dup3\n    /* \"#utility.yul\":1132:1144   */\n  add\n    /* \"#utility.yul\":1125:1144   */\n  swap1\n  pop\n    /* \"#utility.yul\":926:1150   */\n  swap2\n  swap1\n  pop\n  jump\t// out\n    /* \"#utility.yul\":1156:1431   */\ntag_44:\n  0x00\n    /* \"#utility.yul\":1310:1405   */\n  tag_75\n    /* \"#utility.yul\":1401:1404   */\n  dup3\n    /* \"#utility.yul\":1392:1398   */\n  dup5\n    /* \"#utility.yul\":1310:1405   */\n  tag_59\n  jump\t// in\ntag_75:\n    /* \"#utility.yul\":1303:1405   */\n  swap2\n  pop\n    /* \"#utility.yul\":1422:1425   */\n  dup2\n    /* \"#utility.yul\":1415:1425   */\n  swap1\n  pop\n    /* \"#utility.yul\":1292:1431   */\n  swap3\n  swap2\n  pop\n  pop\n  jump\t// out\n    /* \"#utility.yul\":1437:1856   */\ntag_10:\n  0x00\n    /* \"#utility.yul\":1641:1643   */\n  0x20\n    /* \"#utility.yul\":1630:1639   */\n  dup3\n    /* \"#utility.yul\":1626:1644   */\n  add\n    /* \"#utility.yul\":1618:1644   */\n  swap1\n  pop\n    /* \"#utility.yul\":1690:1699   */\n  dup2\n    /* \"#utility.yul\":1684:1688   */\n  dup2\n    /* \"#utility.yul\":1680:1700   */\n  sub\n    /* \"#utility.yul\":1676:1677   */\n  0x00\n    /* \"#utility.yul\":1665:1674   */\n  dup4\n    /* \"#utility.yul\":1661:1678   */\n  add\n    /* \"#utility.yul\":1654:1701   */\n  mstore\n    /* \"#utility.yul\":1718:1849   */\n  tag_77\n    /* \"#utility.yul\":1844:1848   */\n  dup2\n    /* \"#utility.yul\":1718:1849   */\n  tag_67\n  jump\t// in\ntag_77:\n    /* \"#utility.yul\":1710:1849   */\n  swap1\n  pop\n    /* \"#utility.yul\":1608:1856   */\n  swap2\n  swap1\n  pop\n  jump\t// out\n    /* \"#utility.yul\":1862:2281   */\ntag_16:\n  0x00\n    /* \"#utility.yul\":2066:2068   */\n  0x20\n    /* \"#utility.yul\":2055:2064   */\n  dup3\n    /* \"#utility.yul\":2051:2069   */\n  add\n    /* \"#utility.yul\":2043:2069   */\n  swap1\n  pop\n    /* \"#utility.yul\":2115:2124   */\n  dup2\n    /* \"#utility.yul\":2109:2113   */\n  dup2\n    /* \"#utility.yul\":2105:2125   */\n  sub\n    /* \"#utility.yul\":2101:2102   */\n  0x00\n    /* \"#utility.yul\":2090:2099   */\n  dup4\n    /* \"#utility.yul\":2086:2103   */\n  add\n    /* \"#utility.yul\":2079:2126   */\n  mstore\n    /* \"#utility.yul\":2143:2274   */\n  tag_79\n    /* \"#utility.yul\":2269:2273   */\n  dup2\n    /* \"#utility.yul\":2143:2274   */\n  tag_71\n  jump\t// in\ntag_79:\n    /* \"#utility.yul\":2135:2274   */\n  swap1\n  pop\n    /* \"#utility.yul\":2033:2281   */\n  swap2\n  swap1\n  pop\n  jump\t// out\n    /* \"#utility.yul\":2287:2386   */\ntag_62:\n  0x00\n    /* \"#utility.yul\":2373:2378   */\n  dup2\n    /* \"#utility.yul\":2367:2379   */\n  mload\n    /* \"#utility.yul\":2357:2379   */\n  swap1\n  pop\n    /* \"#utility.yul\":2346:2386   */\n  swap2\n  swap1\n  pop\n  jump\t// out\n    /* \"#utility.yul\":2392:2561   */\ntag_70:\n  0x00\n    /* \"#utility.yul\":2510:2516   */\n  dup3\n    /* \"#utility.yul\":2505:2508   */\n  dup3\n    /* \"#utility.yul\":2498:2517   */\n  mstore\n    /* \"#utility.yul\":2550:2554   */\n  0x20\n    /* \"#utility.yul\":2545:2548   */\n  dup3\n    /* \"#utility.yul\":2541:2555   */\n  add\n    /* \"#utility.yul\":2526:2555   */\n  swap1\n  pop\n    /* \"#utility.yul\":2488:2561   */\n  swap3\n  swap2\n  pop\n  pop\n  jump\t// out\n    /* \"#utility.yul\":2567:2715   */\ntag_64:\n  0x00\n    /* \"#utility.yul\":2706:2709   */\n  dup2\n    /* \"#utility.yul\":2691:2709   */\n  swap1\n  pop\n    /* \"#utility.yul\":2681:2715   */\n  swap3\n  swap2\n  pop\n  pop\n  jump\t// out\n    /* \"#utility.yul\":2721:2798   */\ntag_83:\n  0x00\n    /* \"#utility.yul\":2787:2792   */\n  dup2\n    /* \"#utility.yul\":2776:2792   */\n  swap1\n  pop\n    /* \"#utility.yul\":2766:2798   */\n  swap2\n  swap1\n  pop\n  jump\t// out\n    /* \"#utility.yul\":2804:3111   */\ntag_66:\n    /* \"#utility.yul\":2872:2873   */\n  0x00\n    /* \"#utility.yul\":2882:2995   */\ntag_86:\n    /* \"#utility.yul\":2896:2902   */\n  dup4\n    /* \"#utility.yul\":2893:2894   */\n  dup2\n    /* \"#utility.yul\":2890:2903   */\n  lt\n    /* \"#utility.yul\":2882:2995   */\n  iszero\n  tag_88\n  jumpi\n    /* \"#utility.yul\":2981:2982   */\n  dup1\n    /* \"#utility.yul\":2976:2979   */\n  dup3\n    /* \"#utility.yul\":2972:2983   */\n  add\n    /* \"#utility.yul\":2966:2984   */\n  mload\n    /* \"#utility.yul\":2962:2963   */\n  dup2\n    /* \"#utility.yul\":2957:2960   */\n  dup5\n    /* \"#utility.yul\":2953:2964   */\n  add\n    /* \"#utility.yul\":2946:2985   */\n  mstore\n    /* \"#utility.yul\":2918:2920   */\n  0x20\n    /* \"#utility.yul\":2915:2916   */\n  dup2\n    /* \"#utility.yul\":2911:2921   */\n  add\n    /* \"#utility.yul\":2906:2921   */\n  swap1\n  pop\n    /* \"#utility.yul\":2882:2995   */\n  jump(tag_86)\ntag_88:\n    /* \"#utility.yul\":3013:3019   */\n  dup4\n    /* \"#utility.yul\":3010:3011   */\n  dup2\n    /* \"#utility.yul\":3007:3020   */\n  gt\n    /* \"#utility.yul\":3004:3006   */\n  iszero\n  tag_89\n  jumpi\n    /* \"#utility.yul\":3093:3094   */\n  0x00\n    /* \"#utility.yul\":3084:3090   */\n  dup5\n    /* \"#utility.yul\":3079:3082   */\n  dup5\n    /* \"#utility.yul\":3075:3091   */\n  add\n    /* \"#utility.yul\":3068:3095   */\n  mstore\n    /* \"#utility.yul\":3004:3006   */\ntag_89:\n    /* \"#utility.yul\":2853:3111   */\n  pop\n  pop\n  pop\n  pop\n  jump\t// out\n    /* \"#utility.yul\":3117:3437   */\ntag_33:\n  0x00\n    /* \"#utility.yul\":3198:3199   */\n  0x02\n    /* \"#utility.yul\":3192:3196   */\n  dup3\n    /* \"#utility.yul\":3188:3200   */\n  div\n    /* \"#utility.yul\":3178:3200   */\n  swap1\n  pop\n    /* \"#utility.yul\":3245:3246   */\n  0x01\n    /* \"#utility.yul\":3239:3243   */\n  dup3\n    /* \"#utility.yul\":3235:3247   */\n  and\n    /* \"#utility.yul\":3266:3284   */\n  dup1\n    /* \"#utility.yul\":3256:3258   */\n  tag_91\n  jumpi\n    /* \"#utility.yul\":3322:3326   */\n  0x7f\n    /* \"#utility.yul\":3314:3320   */\n  dup3\n    /* \"#utility.yul\":3310:3327   */\n  and\n    /* \"#utility.yul\":3300:3327   */\n  swap2\n  pop\n    /* \"#utility.yul\":3256:3258   */\ntag_91:\n    /* \"#utility.yul\":3384:3386   */\n  0x20\n    /* \"#utility.yul\":3376:3382   */\n  dup3\n    /* \"#utility.yul\":3373:3387   */\n  lt\n    /* \"#utility.yul\":3353:3371   */\n  dup2\n    /* \"#utility.yul\":3350:3388   */\n  eq\n    /* \"#utility.yul\":3347:3349   */\n  iszero\n  tag_92\n  jumpi\n    /* \"#utility.yul\":3403:3421   */\n  tag_93\n  tag_94\n  jump\t// in\ntag_93:\n    /* \"#utility.yul\":3347:3349   */\ntag_92:\n    /* \"#utility.yul\":3168:3437   */\n  pop\n  swap2\n  swap1\n  pop\n  jump\t// out\n    /* \"#utility.yul\":3443:3676   */\ntag_41:\n  0x00\n    /* \"#utility.yul\":3505:3529   */\n  tag_96\n    /* \"#utility.yul\":3523:3528   */\n  dup3\n    /* \"#utility.yul\":3505:3529   */\n  tag_83\n  jump\t// in\ntag_96:\n    /* \"#utility.yul\":3496:3529   */\n  swap2\n  pop\n    /* \"#utility.yul\":3551:3617   */\n  0xffffffffffffffffffffffffffffffffffffffffffffffffffffffffffffffff\n    /* \"#utility.yul\":3544:3549   */\n  dup3\n    /* \"#utility.yul\":3541:3618   */\n  eq\n    /* \"#utility.yul\":3538:3540   */\n  iszero\n  tag_97\n  jumpi\n    /* \"#utility.yul\":3621:3639   */\n  tag_98\n  tag_99\n  jump\t// in\ntag_98:\n    /* \"#utility.yul\":3538:3540   */\ntag_97:\n    /* \"#utility.yul\":3668:3669   */\n  0x01\n    /* \"#utility.yul\":3661:3666   */\n  dup3\n    /* \"#utility.yul\":3657:3670   */\n  add\n    /* \"#utility.yul\":3650:3670   */\n  swap1\n  pop\n    /* \"#utility.yul\":3486:3676   */\n  swap2\n  swap1\n  pop\n  jump\t// out\n    /* \"#utility.yul\":3682:3862   */\ntag_99:\n    /* \"#utility.yul\":3730:3807   */\n  0x4e487b7100000000000000000000000000000000000000000000000000000000\n    /* \"#utility.yul\":3727:3728   */\n  0x00\n    /* \"#utility.yul\":3720:3808   */\n  mstore\n    /* \"#utility.yul\":3827:3831   */\n  0x11\n    /* \"#utility.yul\":3824:3825   */\n  0x04\n    /* \"#utility.yul\":3817:3832   */\n  mstore\n    /* \"#utility.yul\":3851:3855   */\n  0x24\n    /* \"#utility.yul\":3848:3849   */\n  0x00\n    /* \"#utility.yul\":3841:3856   */\n  revert\n    /* \"#utility.yul\":3868:4048   */\ntag_94:\n    /* \"#utility.yul\":3916:3993   */\n  0x4e487b7100000000000000000000000000000000000000000000000000000000\n    /* \"#utility.yul\":3913:3914   */\n  0x00\n    /* \"#utility.yul\":3906:3994   */\n  mstore\n    /* \"#utility.yul\":4013:4017   */\n  0x22\n    /* \"#utility.yul\":4010:4011   */\n  0x04\n    /* \"#utility.yul\":4003:4018   */\n  mstore\n    /* \"#utility.yul\":4037:4041   */\n  0x24\n    /* \"#utility.yul\":4034:4035   */\n  0x00\n    /* \"#utility.yul\":4027:4042   */\n  revert\n    /* \"blockpedia.sol\":61:8273  contract Blockpedia\r... */\ntag_6:\n  shr(0x60, mload(0x80))\n  mload(0xa0)\n  codecopy(0x00, dataOffset(sub_0), dataSize(sub_0))\n  0x00\n  assignImmutable(\"0xe4b1702d9298fee62dfeccc57d322a463ad55ca201256d01f62b45b2e1c21c10\")\n  0x00\n  assignImmutable(\"0xe455bf8ea6e7463a1046a0b52804526e119b4bf5136279614e0b1e8e296a4e2d\")\n  return(0x00, dataSize(sub_0))\nstop\ndata_9002fc6039152390109ec5f732c53c58176ebaeec30c137dc0bb00ed96b81159 42656d2076696e646f206120426c6f636b70656964612c206120656e6369636c6f7065646961206e6120626c6f636b636861696e\n\nsub_0: assembly {\n        /* \"blockpedia.sol\":61:8273  contract Blockpedia\r... */\n      mstore(0x40, 0x80)\n      jumpi(tag_1, lt(calldatasize, 0x04))\n      shr(0xe0, calldataload(0x00))\n      dup1\n      0x9980ed12\n      gt\n      tag_21\n      jumpi\n      dup1\n      0xb15820e8\n      gt\n      tag_22\n      jumpi\n      dup1\n      0xb15820e8\n      eq\n      tag_16\n      jumpi\n      dup1\n      0xd4d23a6e\n      eq\n      tag_17\n      jumpi\n      dup1\n      0xd616c9f0\n      eq\n      tag_18\n      jumpi\n      dup1\n      0xe7d4296a\n      eq\n      tag_19\n      jumpi\n      dup1\n      0xe976f43a\n      eq\n      tag_20\n      jumpi\n      jump(tag_2)\n    tag_22:\n      dup1\n      0x9980ed12\n      eq\n      tag_12\n      jumpi\n      dup1\n      0xa18cc13b\n      eq\n      tag_13\n      jumpi\n      dup1\n      0xa89107a9\n      eq\n      tag_14\n      jumpi\n      dup1\n      0xaa83581f\n      eq\n      tag_15\n      jumpi\n      jump(tag_2)\n    tag_21:\n      dup1\n      0x294d2e2c\n      gt\n      tag_23\n      jumpi\n      dup1\n      0x294d2e2c\n      eq\n      tag_7\n      jumpi\n      dup1\n      0x2e87ca2e\n      eq\n      tag_8\n      jumpi\n      dup1\n      0x6f70a52e\n      eq\n      tag_9\n      jumpi\n      dup1\n      0x72c1395c\n      eq\n      tag_10\n      jumpi\n      dup1\n      0x95be551a\n      eq\n      tag_11\n      jumpi\n      jump(tag_2)\n    tag_23:\n      dup1\n      0x041acb57\n      eq\n      tag_3\n      jumpi\n      dup1\n      0x0694952d\n      eq\n      tag_4\n      jumpi\n      dup1\n      0x1509d30c\n      eq\n      tag_5\n      jumpi\n      dup1\n      0x1c18379a\n      eq\n      tag_6\n      jumpi\n      jump(tag_2)\n    tag_1:\n      jumpi(tag_2, calldatasize)\n        /* \"blockpedia.sol\":8184:8192  revert() */\n      0x00\n      dup1\n      revert\n        /* \"blockpedia.sol\":61:8273  contract Blockpedia\r... */\n    tag_2:\n        /* \"blockpedia.sol\":8252:8260  revert() */\n      0x00\n      dup1\n      revert\n        /* \"blockpedia.sol\":2220:3092  function getAllPaginasAtivasSomenteComAsVersoesAtivas() public view returns (Pagina[] memory)\r... */\n    tag_3:\n      callvalue\n      dup1\n      iszero\n      tag_28\n      jumpi\n      0x00\n      dup1\n      revert\n    tag_28:\n      pop\n      tag_29\n      tag_30\n      jump\t// in\n    tag_29:\n      mload(0x40)\n      tag_31\n      swap2\n      swap1\n      tag_32\n      jump\t// in\n    tag_31:\n      mload(0x40)\n      dup1\n      swap2\n      sub\n      swap1\n      return\n        /* \"blockpedia.sol\":121:151  address public immutable autor */\n    tag_4:\n      callvalue\n      dup1\n      iszero\n      tag_33\n      jumpi\n      0x00\n      dup1\n      revert\n    tag_33:\n      pop\n      tag_34\n      tag_35\n      jump\t// in\n    tag_34:\n      mload(0x40)\n      tag_36\n      swap2\n      swap1\n      tag_37\n      jump\t// in\n    tag_36:\n      mload(0x40)\n      dup1\n      swap2\n      sub\n      swap1\n      return\n        /* \"blockpedia.sol\":3809:4039  function ativaDesativaBlockpedia(bool _ativo) public\r... */\n    tag_5:\n      callvalue\n      dup1\n      iszero\n      tag_38\n      jumpi\n      0x00\n      dup1\n      revert\n    tag_38:\n      pop\n      tag_39\n      0x04\n      dup1\n      calldatasize\n      sub\n      dup2\n      add\n      swap1\n      tag_40\n      swap2\n      swap1\n      tag_41\n      jump\t// in\n    tag_40:\n      tag_42\n      jump\t// in\n    tag_39:\n      stop\n        /* \"blockpedia.sol\":3301:3801  function criarPagina(string memory _titulo, string memory _conteudo) public somenteSeAtivo \r... */\n    tag_6:\n      callvalue\n      dup1\n      iszero\n      tag_43\n      jumpi\n      0x00\n      dup1\n      revert\n    tag_43:\n      pop\n      tag_44\n      0x04\n      dup1\n      calldatasize\n      sub\n      dup2\n      add\n      swap1\n      tag_45\n      swap2\n      swap1\n      tag_46\n      jump\t// in\n    tag_45:\n      tag_47\n      jump\t// in\n    tag_44:\n      stop\n        /* \"blockpedia.sol\":1075:1237  function getAllDadosBlockpedia() public view returns (bool, address, uint256, Pagina[] memory)\r... */\n    tag_7:\n      callvalue\n      dup1\n      iszero\n      tag_48\n      jumpi\n      0x00\n      dup1\n      revert\n    tag_48:\n      pop\n      tag_49\n      tag_50\n      jump\t// in\n    tag_49:\n      mload(0x40)\n      tag_51\n      swap5\n      swap4\n      swap3\n      swap2\n      swap1\n      tag_52\n      jump\t// in\n    tag_51:\n      mload(0x40)\n      dup1\n      swap2\n      sub\n      swap1\n      return\n        /* \"blockpedia.sol\":6802:7515  function getPaginasPorTitulo(string memory _titulo) public view returns (uint[] memory)\r... */\n    tag_8:\n      callvalue\n      dup1\n      iszero\n      tag_53\n      jumpi\n      0x00\n      dup1\n      revert\n    tag_53:\n      pop\n      tag_54\n      0x04\n      dup1\n      calldatasize\n      sub\n      dup2\n      add\n      swap1\n      tag_55\n      swap2\n      swap1\n      tag_56\n      jump\t// in\n    tag_55:\n      tag_57\n      jump\t// in\n    tag_54:\n      mload(0x40)\n      tag_58\n      swap2\n      swap1\n      tag_59\n      jump\t// in\n    tag_58:\n      mload(0x40)\n      dup1\n      swap2\n      sub\n      swap1\n      return\n        /* \"blockpedia.sol\":159:195  uint256 public immutable dataCriacao */\n    tag_9:\n      callvalue\n      dup1\n      iszero\n      tag_60\n      jumpi\n      0x00\n      dup1\n      revert\n    tag_60:\n      pop\n      tag_61\n      tag_62\n      jump\t// in\n    tag_61:\n      mload(0x40)\n      tag_63\n      swap2\n      swap1\n      tag_64\n      jump\t// in\n    tag_63:\n      mload(0x40)\n      dup1\n      swap2\n      sub\n      swap1\n      return\n        /* \"blockpedia.sol\":3100:3293  function getPaginaComVersoes(uint _indice) public view returns (Pagina memory) {\r... */\n    tag_10:\n      callvalue\n      dup1\n      iszero\n      tag_65\n      jumpi\n      0x00\n      dup1\n      revert\n    tag_65:\n      pop\n      tag_66\n      0x04\n      dup1\n      calldatasize\n      sub\n      dup2\n      add\n      swap1\n      tag_67\n      swap2\n      swap1\n      tag_68\n      jump\t// in\n    tag_67:\n      tag_69\n      jump\t// in\n    tag_66:\n      mload(0x40)\n      tag_70\n      swap2\n      swap1\n      tag_71\n      jump\t// in\n    tag_70:\n      mload(0x40)\n      dup1\n      swap2\n      sub\n      swap1\n      return\n        /* \"blockpedia.sol\":5169:6085  function ativaVersaoPorIndexVersoesEIndexPaginas(uint _indexPagina, uint _indexVersoes) public somenteSeAtivo\r... */\n    tag_11:\n      callvalue\n      dup1\n      iszero\n      tag_72\n      jumpi\n      0x00\n      dup1\n      revert\n    tag_72:\n      pop\n      tag_73\n      0x04\n      dup1\n      calldatasize\n      sub\n      dup2\n      add\n      swap1\n      tag_74\n      swap2\n      swap1\n      tag_75\n      jump\t// in\n    tag_74:\n      tag_76\n      jump\t// in\n    tag_73:\n      stop\n        /* \"blockpedia.sol\":725:1067  function getVersaoValidaDeUmaPagina(Pagina memory _pagina)public pure returns (Versao memory)\r... */\n    tag_12:\n      callvalue\n      dup1\n      iszero\n      tag_77\n      jumpi\n      0x00\n      dup1\n      revert\n    tag_77:\n      pop\n      tag_78\n      0x04\n      dup1\n      calldatasize\n      sub\n      dup2\n      add\n      swap1\n      tag_79\n      swap2\n      swap1\n      tag_80\n      jump\t// in\n    tag_79:\n      tag_81\n      jump\t// in\n    tag_78:\n      mload(0x40)\n      tag_82\n      swap2\n      swap1\n      tag_83\n      jump\t// in\n    tag_82:\n      mload(0x40)\n      dup1\n      swap2\n      sub\n      swap1\n      return\n        /* \"blockpedia.sol\":89:113  bool public ativo = true */\n    tag_13:\n      callvalue\n      dup1\n      iszero\n      tag_84\n      jumpi\n      0x00\n      dup1\n      revert\n    tag_84:\n      pop\n      tag_85\n      tag_86\n      jump\t// in\n    tag_85:\n      mload(0x40)\n      tag_87\n      swap2\n      swap1\n      tag_88\n      jump\t// in\n    tag_87:\n      mload(0x40)\n      dup1\n      swap2\n      sub\n      swap1\n      return\n        /* \"blockpedia.sol\":1535:2212  function getAllPaginasAtivas() public view returns (Pagina[] memory)\r... */\n    tag_14:\n      callvalue\n      dup1\n      iszero\n      tag_89\n      jumpi\n      0x00\n      dup1\n      revert\n    tag_89:\n      pop\n      tag_90\n      tag_91\n      jump\t// in\n    tag_90:\n      mload(0x40)\n      tag_92\n      swap2\n      swap1\n      tag_32\n      jump\t// in\n    tag_92:\n      mload(0x40)\n      dup1\n      swap2\n      sub\n      swap1\n      return\n        /* \"blockpedia.sol\":6389:6794  function ativaPaginaPorIndexPaginas(uint _indexPagina)public somenteSeAtivo\r... */\n    tag_15:\n      callvalue\n      dup1\n      iszero\n      tag_93\n      jumpi\n      0x00\n      dup1\n      revert\n    tag_93:\n      pop\n      tag_94\n      0x04\n      dup1\n      calldatasize\n      sub\n      dup2\n      add\n      swap1\n      tag_95\n      swap2\n      swap1\n      tag_68\n      jump\t// in\n    tag_95:\n      tag_96\n      jump\t// in\n    tag_94:\n      stop\n        /* \"blockpedia.sol\":1416:1527  function getAllPaginasComTodasVersoes() public view returns (Pagina[] memory) {\r... */\n    tag_16:\n      callvalue\n      dup1\n      iszero\n      tag_97\n      jumpi\n      0x00\n      dup1\n      revert\n    tag_97:\n      pop\n      tag_98\n      tag_99\n      jump\t// in\n    tag_98:\n      mload(0x40)\n      tag_100\n      swap2\n      swap1\n      tag_32\n      jump\t// in\n    tag_100:\n      mload(0x40)\n      dup1\n      swap2\n      sub\n      swap1\n      return\n        /* \"blockpedia.sol\":4640:5161  function adicionaNovaVercaoDesativadaAPaginaPorIndexPaginas(uint _index, string memory _conteudo) public somenteSeAtivo\r... */\n    tag_17:\n      callvalue\n      dup1\n      iszero\n      tag_101\n      jumpi\n      0x00\n      dup1\n      revert\n    tag_101:\n      pop\n      tag_102\n      0x04\n      dup1\n      calldatasize\n      sub\n      dup2\n      add\n      swap1\n      tag_103\n      swap2\n      swap1\n      tag_104\n      jump\t// in\n    tag_103:\n      tag_105\n      jump\t// in\n    tag_102:\n      stop\n        /* \"blockpedia.sol\":6093:6381  function desativaPaginaPorIndexPaginas(uint _indexPagina)public somenteSeAtivo\r... */\n    tag_18:\n      callvalue\n      dup1\n      iszero\n      tag_106\n      jumpi\n      0x00\n      dup1\n      revert\n    tag_106:\n      pop\n      tag_107\n      0x04\n      dup1\n      calldatasize\n      sub\n      dup2\n      add\n      swap1\n      tag_108\n      swap2\n      swap1\n      tag_68\n      jump\t// in\n    tag_108:\n      tag_109\n      jump\t// in\n    tag_107:\n      stop\n        /* \"blockpedia.sol\":202:225  Pagina[] public paginas */\n    tag_19:\n      callvalue\n      dup1\n      iszero\n      tag_110\n      jumpi\n      0x00\n      dup1\n      revert\n    tag_110:\n      pop\n      tag_111\n      0x04\n      dup1\n      calldatasize\n      sub\n      dup2\n      add\n      swap1\n      tag_112\n      swap2\n      swap1\n      tag_68\n      jump\t// in\n    tag_112:\n      tag_113\n      jump\t// in\n    tag_111:\n      mload(0x40)\n      tag_114\n      swap5\n      swap4\n      swap3\n      swap2\n      swap1\n      tag_115\n      jump\t// in\n    tag_114:\n      mload(0x40)\n      dup1\n      swap2\n      sub\n      swap1\n      return\n        /* \"blockpedia.sol\":1245:1408  function getInformacoesBlockpedia() public view returns(bool, address, uint256, uint256)\r... */\n    tag_20:\n      callvalue\n      dup1\n      iszero\n      tag_116\n      jumpi\n      0x00\n      dup1\n      revert\n    tag_116:\n      pop\n      tag_117\n      tag_118\n      jump\t// in\n    tag_117:\n      mload(0x40)\n      tag_119\n      swap5\n      swap4\n      swap3\n      swap2\n      swap1\n      tag_120\n      jump\t// in\n    tag_119:\n      mload(0x40)\n      dup1\n      swap2\n      sub\n      swap1\n      return\n        /* \"blockpedia.sol\":2220:3092  function getAllPaginasAtivasSomenteComAsVersoesAtivas() public view returns (Pagina[] memory)\r... */\n    tag_30:\n        /* \"blockpedia.sol\":2297:2312  Pagina[] memory */\n      0x60\n        /* \"blockpedia.sol\":2330:2359  Pagina[] memory paginasAtivas */\n      0x00\n        /* \"blockpedia.sol\":2362:2366  this */\n      address\n        /* \"blockpedia.sol\":2362:2386  this.getAllPaginasAtivas */\n      0xffffffffffffffffffffffffffffffffffffffff\n      and\n      0xa89107a9\n        /* \"blockpedia.sol\":2362:2388  this.getAllPaginasAtivas() */\n      mload(0x40)\n      dup2\n      0xffffffff\n      and\n      0xe0\n      shl\n      dup2\n      mstore\n      0x04\n      add\n      0x00\n      mload(0x40)\n      dup1\n      dup4\n      sub\n      dup2\n      dup7\n      dup1\n      extcodesize\n      iszero\n      dup1\n      iszero\n      tag_122\n      jumpi\n      0x00\n      dup1\n      revert\n    tag_122:\n      pop\n      gas\n      staticcall\n      iszero\n      dup1\n      iszero\n      tag_124\n      jumpi\n      returndatasize\n      0x00\n      dup1\n      returndatacopy\n      revert(0x00, returndatasize)\n    tag_124:\n      pop\n      pop\n      pop\n      pop\n      mload(0x40)\n      returndatasize\n      0x00\n      dup3\n      returndatacopy\n      returndatasize\n      not(0x1f)\n      0x1f\n      dup3\n      add\n      and\n      dup3\n      add\n      dup1\n      0x40\n      mstore\n      pop\n      dup2\n      add\n      swap1\n      tag_125\n      swap2\n      swap1\n      tag_126\n      jump\t// in\n    tag_125:\n        /* \"blockpedia.sol\":2330:2388  Pagina[] memory paginasAtivas = this.getAllPaginasAtivas() */\n      swap1\n      pop\n        /* \"blockpedia.sol\":2399:2445  Pagina[] memory paginasSomenteComVersoesAtivas */\n      0x00\n        /* \"blockpedia.sol\":2461:2474  paginasAtivas */\n      dup2\n        /* \"blockpedia.sol\":2461:2481  paginasAtivas.length */\n      mload\n        /* \"blockpedia.sol\":2448:2482  new Pagina[](paginasAtivas.length) */\n      0xffffffffffffffff\n      dup2\n      gt\n      iszero\n      tag_127\n      jumpi\n      mstore(0x00, 0x4e487b7100000000000000000000000000000000000000000000000000000000)\n      mstore(0x04, 0x41)\n      revert(0x00, 0x24)\n    tag_127:\n      mload(0x40)\n      swap1\n      dup1\n      dup3\n      mstore\n      dup1\n      0x20\n      mul\n      0x20\n      add\n      dup3\n      add\n      0x40\n      mstore\n      dup1\n      iszero\n      tag_128\n      jumpi\n      dup2\n      0x20\n      add\n    tag_129:\n      tag_130\n      tag_131\n      jump\t// in\n    tag_130:\n      dup2\n      mstore\n      0x20\n      add\n      swap1\n      0x01\n      swap1\n      sub\n      swap1\n      dup2\n      tag_129\n      jumpi\n      swap1\n      pop\n    tag_128:\n      pop\n        /* \"blockpedia.sol\":2399:2482  Pagina[] memory paginasSomenteComVersoesAtivas = new Pagina[](paginasAtivas.length) */\n      swap1\n      pop\n        /* \"blockpedia.sol\":2500:2509  uint256 i */\n      0x00\n        /* \"blockpedia.sol\":2495:3035  for (uint256 i = 0; i < paginasAtivas.length; i++) {\r... */\n    tag_132:\n        /* \"blockpedia.sol\":2519:2532  paginasAtivas */\n      dup3\n        /* \"blockpedia.sol\":2519:2539  paginasAtivas.length */\n      mload\n        /* \"blockpedia.sol\":2515:2516  i */\n      dup2\n        /* \"blockpedia.sol\":2515:2539  i < paginasAtivas.length */\n      lt\n        /* \"blockpedia.sol\":2495:3035  for (uint256 i = 0; i < paginasAtivas.length; i++) {\r... */\n      iszero\n      tag_133\n      jumpi\n        /* \"blockpedia.sol\":2561:2593  Versao[] memory versaoAtivaArray */\n      0x00\n        /* \"blockpedia.sol\":2609:2610  1 */\n      0x01\n        /* \"blockpedia.sol\":2596:2611  new Versao[](1) */\n      0xffffffffffffffff\n      dup2\n      gt\n      iszero\n      tag_135\n      jumpi\n      mstore(0x00, 0x4e487b7100000000000000000000000000000000000000000000000000000000)\n      mstore(0x04, 0x41)\n      revert(0x00, 0x24)\n    tag_135:\n      mload(0x40)\n      swap1\n      dup1\n      dup3\n      mstore\n      dup1\n      0x20\n      mul\n      0x20\n      add\n      dup3\n      add\n      0x40\n      mstore\n      dup1\n      iszero\n      tag_136\n      jumpi\n      dup2\n      0x20\n      add\n    tag_137:\n      tag_138\n      tag_139\n      jump\t// in\n    tag_138:\n      dup2\n      mstore\n      0x20\n      add\n      swap1\n      0x01\n      swap1\n      sub\n      swap1\n      dup2\n      tag_137\n      jumpi\n      swap1\n      pop\n    tag_136:\n      pop\n        /* \"blockpedia.sol\":2561:2611  Versao[] memory versaoAtivaArray = new Versao[](1) */\n      swap1\n      pop\n        /* \"blockpedia.sol\":2648:2652  this */\n      address\n        /* \"blockpedia.sol\":2648:2679  this.getVersaoValidaDeUmaPagina */\n      0xffffffffffffffffffffffffffffffffffffffff\n      and\n      0x9980ed12\n        /* \"blockpedia.sol\":2680:2693  paginasAtivas */\n      dup6\n        /* \"blockpedia.sol\":2694:2695  i */\n      dup5\n        /* \"blockpedia.sol\":2680:2696  paginasAtivas[i] */\n      dup2\n      mload\n      dup2\n      lt\n      tag_140\n      jumpi\n      mstore(0x00, 0x4e487b7100000000000000000000000000000000000000000000000000000000)\n      mstore(0x04, 0x32)\n      revert(0x00, 0x24)\n    tag_140:\n      0x20\n      mul\n      0x20\n      add\n      add\n      mload\n        /* \"blockpedia.sol\":2648:2697  this.getVersaoValidaDeUmaPagina(paginasAtivas[i]) */\n      mload(0x40)\n      dup3\n      0xffffffff\n      and\n      0xe0\n      shl\n      dup2\n      mstore\n      0x04\n      add\n      tag_141\n      swap2\n      swap1\n      tag_71\n      jump\t// in\n    tag_141:\n      0x00\n      mload(0x40)\n      dup1\n      dup4\n      sub\n      dup2\n      dup7\n      dup1\n      extcodesize\n      iszero\n      dup1\n      iszero\n      tag_142\n      jumpi\n      0x00\n      dup1\n      revert\n    tag_142:\n      pop\n      gas\n      staticcall\n      iszero\n      dup1\n      iszero\n      tag_144\n      jumpi\n      returndatasize\n      0x00\n      dup1\n      returndatacopy\n      revert(0x00, returndatasize)\n    tag_144:\n      pop\n      pop\n      pop\n      pop\n      mload(0x40)\n      returndatasize\n      0x00\n      dup3\n      returndatacopy\n      returndatasize\n      not(0x1f)\n      0x1f\n      dup3\n      add\n      and\n      dup3\n      add\n      dup1\n      0x40\n      mstore\n      pop\n      dup2\n      add\n      swap1\n      tag_145\n      swap2\n      swap1\n      tag_146\n      jump\t// in\n    tag_145:\n        /* \"blockpedia.sol\":2626:2642  versaoAtivaArray */\n      dup2\n        /* \"blockpedia.sol\":2643:2644  0 */\n      0x00\n        /* \"blockpedia.sol\":2626:2645  versaoAtivaArray[0] */\n      dup2\n      mload\n      dup2\n      lt\n      tag_147\n      jumpi\n      mstore(0x00, 0x4e487b7100000000000000000000000000000000000000000000000000000000)\n      mstore(0x04, 0x32)\n      revert(0x00, 0x24)\n    tag_147:\n      0x20\n      mul\n      0x20\n      add\n      add\n        /* \"blockpedia.sol\":2626:2697  versaoAtivaArray[0] = this.getVersaoValidaDeUmaPagina(paginasAtivas[i]) */\n      dup2\n      swap1\n      mstore\n      pop\n        /* \"blockpedia.sol\":2750:3023  Pagina({\r... */\n      mload(0x40)\n      dup1\n      0xa0\n      add\n      0x40\n      mstore\n      dup1\n        /* \"blockpedia.sol\":2783:2796  paginasAtivas */\n      dup6\n        /* \"blockpedia.sol\":2797:2798  i */\n      dup5\n        /* \"blockpedia.sol\":2783:2799  paginasAtivas[i] */\n      dup2\n      mload\n      dup2\n      lt\n      tag_148\n      jumpi\n      mstore(0x00, 0x4e487b7100000000000000000000000000000000000000000000000000000000)\n      mstore(0x04, 0x32)\n      revert(0x00, 0x24)\n    tag_148:\n      0x20\n      mul\n      0x20\n      add\n      add\n      mload\n        /* \"blockpedia.sol\":2783:2805  paginasAtivas[i].ativo */\n      0x00\n      add\n      mload\n        /* \"blockpedia.sol\":2750:3023  Pagina({\r... */\n      iszero\n      iszero\n      dup2\n      mstore\n      0x20\n      add\n        /* \"blockpedia.sol\":2831:2844  paginasAtivas */\n      dup6\n        /* \"blockpedia.sol\":2845:2846  i */\n      dup5\n        /* \"blockpedia.sol\":2831:2847  paginasAtivas[i] */\n      dup2\n      mload\n      dup2\n      lt\n      tag_149\n      jumpi\n      mstore(0x00, 0x4e487b7100000000000000000000000000000000000000000000000000000000)\n      mstore(0x04, 0x32)\n      revert(0x00, 0x24)\n    tag_149:\n      0x20\n      mul\n      0x20\n      add\n      add\n      mload\n        /* \"blockpedia.sol\":2831:2853  paginasAtivas[i].autor */\n      0x20\n      add\n      mload\n        /* \"blockpedia.sol\":2750:3023  Pagina({\r... */\n      0xffffffffffffffffffffffffffffffffffffffff\n      and\n      dup2\n      mstore\n      0x20\n      add\n        /* \"blockpedia.sol\":2885:2898  paginasAtivas */\n      dup6\n        /* \"blockpedia.sol\":2899:2900  i */\n      dup5\n        /* \"blockpedia.sol\":2885:2901  paginasAtivas[i] */\n      dup2\n      mload\n      dup2\n      lt\n      tag_150\n      jumpi\n      mstore(0x00, 0x4e487b7100000000000000000000000000000000000000000000000000000000)\n      mstore(0x04, 0x32)\n      revert(0x00, 0x24)\n    tag_150:\n      0x20\n      mul\n      0x20\n      add\n      add\n      mload\n        /* \"blockpedia.sol\":2885:2913  paginasAtivas[i].dataCriacao */\n      0x40\n      add\n      mload\n        /* \"blockpedia.sol\":2750:3023  Pagina({\r... */\n      dup2\n      mstore\n      0x20\n      add\n        /* \"blockpedia.sol\":2940:2953  paginasAtivas */\n      dup6\n        /* \"blockpedia.sol\":2954:2955  i */\n      dup5\n        /* \"blockpedia.sol\":2940:2956  paginasAtivas[i] */\n      dup2\n      mload\n      dup2\n      lt\n      tag_151\n      jumpi\n      mstore(0x00, 0x4e487b7100000000000000000000000000000000000000000000000000000000)\n      mstore(0x04, 0x32)\n      revert(0x00, 0x24)\n    tag_151:\n      0x20\n      mul\n      0x20\n      add\n      add\n      mload\n        /* \"blockpedia.sol\":2940:2963  paginasAtivas[i].titulo */\n      0x60\n      add\n      mload\n        /* \"blockpedia.sol\":2750:3023  Pagina({\r... */\n      dup2\n      mstore\n      0x20\n      add\n        /* \"blockpedia.sol\":2991:3007  versaoAtivaArray */\n      dup3\n        /* \"blockpedia.sol\":2750:3023  Pagina({\r... */\n      dup2\n      mstore\n      pop\n        /* \"blockpedia.sol\":2714:2744  paginasSomenteComVersoesAtivas */\n      dup4\n        /* \"blockpedia.sol\":2745:2746  i */\n      dup4\n        /* \"blockpedia.sol\":2714:2747  paginasSomenteComVersoesAtivas[i] */\n      dup2\n      mload\n      dup2\n      lt\n      tag_152\n      jumpi\n      mstore(0x00, 0x4e487b7100000000000000000000000000000000000000000000000000000000)\n      mstore(0x04, 0x32)\n      revert(0x00, 0x24)\n    tag_152:\n      0x20\n      mul\n      0x20\n      add\n      add\n        /* \"blockpedia.sol\":2714:3023  paginasSomenteComVersoesAtivas[i] = Pagina({\r... */\n      dup2\n      swap1\n      mstore\n      pop\n        /* \"blockpedia.sol\":2495:3035  for (uint256 i = 0; i < paginasAtivas.length; i++) {\r... */\n      pop\n        /* \"blockpedia.sol\":2541:2544  i++ */\n      dup1\n      dup1\n      tag_153\n      swap1\n      tag_154\n      jump\t// in\n    tag_153:\n      swap2\n      pop\n      pop\n        /* \"blockpedia.sol\":2495:3035  for (uint256 i = 0; i < paginasAtivas.length; i++) {\r... */\n      jump(tag_132)\n    tag_133:\n      pop\n        /* \"blockpedia.sol\":3054:3084  paginasSomenteComVersoesAtivas */\n      dup1\n        /* \"blockpedia.sol\":3047:3084  return paginasSomenteComVersoesAtivas */\n      swap3\n      pop\n      pop\n      pop\n        /* \"blockpedia.sol\":2220:3092  function getAllPaginasAtivasSomenteComAsVersoesAtivas() public view returns (Pagina[] memory)\r... */\n      swap1\n      jump\t// out\n        /* \"blockpedia.sol\":121:151  address public immutable autor */\n    tag_35:\n      immutable(\"0xe455bf8ea6e7463a1046a0b52804526e119b4bf5136279614e0b1e8e296a4e2d\")\n      dup2\n      jump\t// out\n        /* \"blockpedia.sol\":3809:4039  function ativaDesativaBlockpedia(bool _ativo) public\r... */\n    tag_42:\n        /* \"blockpedia.sol\":3900:3905  autor */\n      immutable(\"0xe455bf8ea6e7463a1046a0b52804526e119b4bf5136279614e0b1e8e296a4e2d\")\n        /* \"blockpedia.sol\":3886:3905  msg.sender == autor */\n      0xffffffffffffffffffffffffffffffffffffffff\n      and\n        /* \"blockpedia.sol\":3886:3896  msg.sender */\n      caller\n        /* \"blockpedia.sol\":3886:3905  msg.sender == autor */\n      0xffffffffffffffffffffffffffffffffffffffff\n      and\n      eq\n        /* \"blockpedia.sol\":3878:3970  require(msg.sender == autor,\"Somente o dono desta Blockpedia pode alterar o atributo ativo\") */\n      tag_156\n      jumpi\n      mload(0x40)\n      0x08c379a000000000000000000000000000000000000000000000000000000000\n      dup2\n      mstore\n      0x04\n      add\n      tag_157\n      swap1\n      tag_158\n      jump\t// in\n    tag_157:\n      mload(0x40)\n      dup1\n      swap2\n      sub\n      swap1\n      revert\n    tag_156:\n        /* \"blockpedia.sol\":3993:3999  _ativo */\n      dup1\n        /* \"blockpedia.sol\":3984:3999  ativo == _ativo */\n      iszero\n      iszero\n        /* \"blockpedia.sol\":3984:3989  ativo */\n      0x00\n      dup1\n      sload\n      swap1\n      0x0100\n      exp\n      swap1\n      div\n      0xff\n      and\n        /* \"blockpedia.sol\":3984:3999  ativo == _ativo */\n      iszero\n      iszero\n      eq\n        /* \"blockpedia.sol\":3981:4007  if(ativo == _ativo)return; */\n      iszero\n      tag_159\n      jumpi\n        /* \"blockpedia.sol\":4000:4007  return; */\n      jump(tag_155)\n        /* \"blockpedia.sol\":3981:4007  if(ativo == _ativo)return; */\n    tag_159:\n        /* \"blockpedia.sol\":4025:4031  _ativo */\n      dup1\n        /* \"blockpedia.sol\":4017:4022  ativo */\n      0x00\n      dup1\n        /* \"blockpedia.sol\":4017:4031  ativo = _ativo */\n      0x0100\n      exp\n      dup2\n      sload\n      dup2\n      0xff\n      mul\n      not\n      and\n      swap1\n      dup4\n      iszero\n      iszero\n      mul\n      or\n      swap1\n      sstore\n      pop\n        /* \"blockpedia.sol\":3809:4039  function ativaDesativaBlockpedia(bool _ativo) public\r... */\n    tag_155:\n      pop\n      jump\t// out\n        /* \"blockpedia.sol\":3301:3801  function criarPagina(string memory _titulo, string memory _conteudo) public somenteSeAtivo \r... */\n    tag_47:\n        /* \"blockpedia.sol\":8051:8056  ativo */\n      0x00\n      dup1\n      sload\n      swap1\n      0x0100\n      exp\n      swap1\n      div\n      0xff\n      and\n        /* \"blockpedia.sol\":8043:8113  require(ativo, \"A acao so e permitida quando a Blockpedia esta ativa\") */\n      tag_161\n      jumpi\n      mload(0x40)\n      0x08c379a000000000000000000000000000000000000000000000000000000000\n      dup2\n      mstore\n      0x04\n      add\n      tag_162\n      swap1\n      tag_163\n      jump\t// in\n    tag_162:\n      mload(0x40)\n      dup1\n      swap2\n      sub\n      swap1\n      revert\n    tag_161:\n        /* \"blockpedia.sol\":3418:3444  existeTituloAtivo(_titulo) */\n      tag_165\n        /* \"blockpedia.sol\":3436:3443  _titulo */\n      dup3\n        /* \"blockpedia.sol\":3418:3435  existeTituloAtivo */\n      tag_166\n        /* \"blockpedia.sol\":3418:3444  existeTituloAtivo(_titulo) */\n      jump\t// in\n    tag_165:\n        /* \"blockpedia.sol\":3417:3444  !existeTituloAtivo(_titulo) */\n      iszero\n        /* \"blockpedia.sol\":3409:3487  require(!existeTituloAtivo(_titulo), \"Ja existe pagina ativa com este titulo\") */\n      tag_167\n      jumpi\n      mload(0x40)\n      0x08c379a000000000000000000000000000000000000000000000000000000000\n      dup2\n      mstore\n      0x04\n      add\n      tag_168\n      swap1\n      tag_169\n      jump\t// in\n    tag_168:\n      mload(0x40)\n      dup1\n      swap2\n      sub\n      swap1\n      revert\n    tag_167:\n        /* \"blockpedia.sol\":3500:3525  Pagina storage novaPagina */\n      0x00\n        /* \"blockpedia.sol\":3528:3535  paginas */\n      0x01\n        /* \"blockpedia.sol\":3528:3542  paginas.push() */\n      dup1\n      dup2\n      0x01\n      dup2\n      sload\n      add\n      dup1\n      dup3\n      sstore\n      dup1\n      swap2\n      pop\n      pop\n      sub\n      swap1\n      0x00\n      mstore\n      keccak256(0x00, 0x20)\n      swap1\n      0x04\n      mul\n      add\n        /* \"blockpedia.sol\":3500:3542  Pagina storage novaPagina = paginas.push() */\n      swap1\n      pop\n        /* \"blockpedia.sol\":3572:3576  true */\n      0x01\n        /* \"blockpedia.sol\":3553:3563  novaPagina */\n      dup2\n        /* \"blockpedia.sol\":3553:3569  novaPagina.ativo */\n      0x00\n      add\n      0x00\n        /* \"blockpedia.sol\":3553:3576  novaPagina.ativo = true */\n      0x0100\n      exp\n      dup2\n      sload\n      dup2\n      0xff\n      mul\n      not\n      and\n      swap1\n      dup4\n      iszero\n      iszero\n      mul\n      or\n      swap1\n      sstore\n      pop\n        /* \"blockpedia.sol\":3606:3616  msg.sender */\n      caller\n        /* \"blockpedia.sol\":3587:3597  novaPagina */\n      dup2\n        /* \"blockpedia.sol\":3587:3603  novaPagina.autor */\n      0x00\n      add\n      0x01\n        /* \"blockpedia.sol\":3587:3616  novaPagina.autor = msg.sender */\n      0x0100\n      exp\n      dup2\n      sload\n      dup2\n      0xffffffffffffffffffffffffffffffffffffffff\n      mul\n      not\n      and\n      swap1\n      dup4\n      0xffffffffffffffffffffffffffffffffffffffff\n      and\n      mul\n      or\n      swap1\n      sstore\n      pop\n        /* \"blockpedia.sol\":3652:3667  block.timestamp */\n      timestamp\n        /* \"blockpedia.sol\":3627:3637  novaPagina */\n      dup2\n        /* \"blockpedia.sol\":3627:3649  novaPagina.dataCriacao */\n      0x01\n      add\n        /* \"blockpedia.sol\":3627:3667  novaPagina.dataCriacao = block.timestamp */\n      dup2\n      swap1\n      sstore\n      pop\n        /* \"blockpedia.sol\":3698:3705  _titulo */\n      dup3\n        /* \"blockpedia.sol\":3678:3688  novaPagina */\n      dup2\n        /* \"blockpedia.sol\":3678:3695  novaPagina.titulo */\n      0x02\n      add\n        /* \"blockpedia.sol\":3678:3705  novaPagina.titulo = _titulo */\n      swap1\n      dup1\n      mload\n      swap1\n      0x20\n      add\n      swap1\n      tag_171\n      swap3\n      swap2\n      swap1\n      tag_172\n      jump\t// in\n    tag_171:\n      pop\n        /* \"blockpedia.sol\":3716:3726  novaPagina */\n      dup1\n        /* \"blockpedia.sol\":3716:3734  novaPagina.versoes */\n      0x03\n      add\n        /* \"blockpedia.sol\":3740:3792  Versao(true, msg.sender, block.timestamp, _conteudo) */\n      mload(0x40)\n      dup1\n      0x80\n      add\n      0x40\n      mstore\n      dup1\n        /* \"blockpedia.sol\":3747:3751  true */\n      0x01\n        /* \"blockpedia.sol\":3740:3792  Versao(true, msg.sender, block.timestamp, _conteudo) */\n      iszero\n      iszero\n      dup2\n      mstore\n      0x20\n      add\n        /* \"blockpedia.sol\":3753:3763  msg.sender */\n      caller\n        /* \"blockpedia.sol\":3740:3792  Versao(true, msg.sender, block.timestamp, _conteudo) */\n      0xffffffffffffffffffffffffffffffffffffffff\n      and\n      dup2\n      mstore\n      0x20\n      add\n        /* \"blockpedia.sol\":3765:3780  block.timestamp */\n      timestamp\n        /* \"blockpedia.sol\":3740:3792  Versao(true, msg.sender, block.timestamp, _conteudo) */\n      dup2\n      mstore\n      0x20\n      add\n        /* \"blockpedia.sol\":3782:3791  _conteudo */\n      dup5\n        /* \"blockpedia.sol\":3740:3792  Versao(true, msg.sender, block.timestamp, _conteudo) */\n      dup2\n      mstore\n      pop\n        /* \"blockpedia.sol\":3716:3793  novaPagina.versoes.push(Versao(true, msg.sender, block.timestamp, _conteudo)) */\n      swap1\n      dup1\n      0x01\n      dup2\n      sload\n      add\n      dup1\n      dup3\n      sstore\n      dup1\n      swap2\n      pop\n      pop\n      0x01\n      swap1\n      sub\n      swap1\n      0x00\n      mstore\n      keccak256(0x00, 0x20)\n      swap1\n      0x03\n      mul\n      add\n      0x00\n      swap1\n      swap2\n      swap1\n      swap2\n      swap1\n      swap2\n      pop\n      0x00\n      dup3\n      add\n      mload\n      dup2\n      0x00\n      add\n      exp(0x0100, 0x00)\n      dup2\n      sload\n      dup2\n      0xff\n      mul\n      not\n      and\n      swap1\n      dup4\n      iszero\n      iszero\n      mul\n      or\n      swap1\n      sstore\n      pop\n      0x20\n      dup3\n      add\n      mload\n      dup2\n      0x00\n      add\n      exp(0x0100, 0x01)\n      dup2\n      sload\n      dup2\n      0xffffffffffffffffffffffffffffffffffffffff\n      mul\n      not\n      and\n      swap1\n      dup4\n      0xffffffffffffffffffffffffffffffffffffffff\n      and\n      mul\n      or\n      swap1\n      sstore\n      pop\n      0x40\n      dup3\n      add\n      mload\n      dup2\n      0x01\n      add\n      sstore\n      0x60\n      dup3\n      add\n      mload\n      dup2\n      0x02\n      add\n      swap1\n      dup1\n      mload\n      swap1\n      0x20\n      add\n      swap1\n      tag_174\n      swap3\n      swap2\n      swap1\n      tag_172\n      jump\t// in\n    tag_174:\n      pop\n      pop\n      pop\n        /* \"blockpedia.sol\":8124:8125  _ */\n      pop\n        /* \"blockpedia.sol\":3301:3801  function criarPagina(string memory _titulo, string memory _conteudo) public somenteSeAtivo \r... */\n      pop\n      pop\n      jump\t// out\n        /* \"blockpedia.sol\":1075:1237  function getAllDadosBlockpedia() public view returns (bool, address, uint256, Pagina[] memory)\r... */\n    tag_50:\n        /* \"blockpedia.sol\":1129:1133  bool */\n      0x00\n        /* \"blockpedia.sol\":1135:1142  address */\n      dup1\n        /* \"blockpedia.sol\":1144:1151  uint256 */\n      0x00\n        /* \"blockpedia.sol\":1153:1168  Pagina[] memory */\n      0x60\n        /* \"blockpedia.sol\":1194:1199  ativo */\n      0x00\n      dup1\n      sload\n      swap1\n      0x0100\n      exp\n      swap1\n      div\n      0xff\n      and\n        /* \"blockpedia.sol\":1201:1206  autor */\n      immutable(\"0xe455bf8ea6e7463a1046a0b52804526e119b4bf5136279614e0b1e8e296a4e2d\")\n        /* \"blockpedia.sol\":1208:1219  dataCriacao */\n      immutable(\"0xe4b1702d9298fee62dfeccc57d322a463ad55ca201256d01f62b45b2e1c21c10\")\n        /* \"blockpedia.sol\":1221:1228  paginas */\n      0x01\n        /* \"blockpedia.sol\":1186:1229  return (ativo, autor, dataCriacao, paginas) */\n      dup1\n      dup1\n      sload\n      dup1\n      0x20\n      mul\n      0x20\n      add\n      mload(0x40)\n      swap1\n      dup2\n      add\n      0x40\n      mstore\n      dup1\n      swap3\n      swap2\n      swap1\n      dup2\n      dup2\n      mstore\n      0x20\n      add\n      0x00\n      swap1\n    tag_176:\n      dup3\n      dup3\n      lt\n      iszero\n      tag_177\n      jumpi\n      dup4\n      dup3\n      swap1\n      0x00\n      mstore\n      keccak256(0x00, 0x20)\n      swap1\n      0x04\n      mul\n      add\n      mload(0x40)\n      dup1\n      0xa0\n      add\n      0x40\n      mstore\n      swap1\n      dup2\n      0x00\n      dup3\n      add\n      0x00\n      swap1\n      sload\n      swap1\n      0x0100\n      exp\n      swap1\n      div\n      0xff\n      and\n      iszero\n      iszero\n      iszero\n      iszero\n      dup2\n      mstore\n      0x20\n      add\n      0x00\n      dup3\n      add\n      0x01\n      swap1\n      sload\n      swap1\n      0x0100\n      exp\n      swap1\n      div\n      0xffffffffffffffffffffffffffffffffffffffff\n      and\n      0xffffffffffffffffffffffffffffffffffffffff\n      and\n      0xffffffffffffffffffffffffffffffffffffffff\n      and\n      dup2\n      mstore\n      0x20\n      add\n      0x01\n      dup3\n      add\n      sload\n      dup2\n      mstore\n      0x20\n      add\n      0x02\n      dup3\n      add\n      dup1\n      sload\n      tag_179\n      swap1\n      tag_180\n      jump\t// in\n    tag_179:\n      dup1\n      0x1f\n      add\n      0x20\n      dup1\n      swap2\n      div\n      mul\n      0x20\n      add\n      mload(0x40)\n      swap1\n      dup2\n      add\n      0x40\n      mstore\n      dup1\n      swap3\n      swap2\n      swap1\n      dup2\n      dup2\n      mstore\n      0x20\n      add\n      dup3\n      dup1\n      sload\n      tag_181\n      swap1\n      tag_180\n      jump\t// in\n    tag_181:\n      dup1\n      iszero\n      tag_182\n      jumpi\n      dup1\n      0x1f\n      lt\n      tag_183\n      jumpi\n      0x0100\n      dup1\n      dup4\n      sload\n      div\n      mul\n      dup4\n      mstore\n      swap2\n      0x20\n      add\n      swap2\n      jump(tag_182)\n    tag_183:\n      dup3\n      add\n      swap2\n      swap1\n      0x00\n      mstore\n      keccak256(0x00, 0x20)\n      swap1\n    tag_184:\n      dup2\n      sload\n      dup2\n      mstore\n      swap1\n      0x01\n      add\n      swap1\n      0x20\n      add\n      dup1\n      dup4\n      gt\n      tag_184\n      jumpi\n      dup3\n      swap1\n      sub\n      0x1f\n      and\n      dup3\n      add\n      swap2\n    tag_182:\n      pop\n      pop\n      pop\n      pop\n      pop\n      dup2\n      mstore\n      0x20\n      add\n      0x03\n      dup3\n      add\n      dup1\n      sload\n      dup1\n      0x20\n      mul\n      0x20\n      add\n      mload(0x40)\n      swap1\n      dup2\n      add\n      0x40\n      mstore\n      dup1\n      swap3\n      swap2\n      swap1\n      dup2\n      dup2\n      mstore\n      0x20\n      add\n      0x00\n      swap1\n    tag_185:\n      dup3\n      dup3\n      lt\n      iszero\n      tag_186\n      jumpi\n      dup4\n      dup3\n      swap1\n      0x00\n      mstore\n      keccak256(0x00, 0x20)\n      swap1\n      0x03\n      mul\n      add\n      mload(0x40)\n      dup1\n      0x80\n      add\n      0x40\n      mstore\n      swap1\n      dup2\n      0x00\n      dup3\n      add\n      0x00\n      swap1\n      sload\n      swap1\n      0x0100\n      exp\n      swap1\n      div\n      0xff\n      and\n      iszero\n      iszero\n      iszero\n      iszero\n      dup2\n      mstore\n      0x20\n      add\n      0x00\n      dup3\n      add\n      0x01\n      swap1\n      sload\n      swap1\n      0x0100\n      exp\n      swap1\n      div\n      0xffffffffffffffffffffffffffffffffffffffff\n      and\n      0xffffffffffffffffffffffffffffffffffffffff\n      and\n      0xffffffffffffffffffffffffffffffffffffffff\n      and\n      dup2\n      mstore\n      0x20\n      add\n      0x01\n      dup3\n      add\n      sload\n      dup2\n      mstore\n      0x20\n      add\n      0x02\n      dup3\n      add\n      dup1\n      sload\n      tag_188\n      swap1\n      tag_180\n      jump\t// in\n    tag_188:\n      dup1\n      0x1f\n      add\n      0x20\n      dup1\n      swap2\n      div\n      mul\n      0x20\n      add\n      mload(0x40)\n      swap1\n      dup2\n      add\n      0x40\n      mstore\n      dup1\n      swap3\n      swap2\n      swap1\n      dup2\n      dup2\n      mstore\n      0x20\n      add\n      dup3\n      dup1\n      sload\n      tag_189\n      swap1\n      tag_180\n      jump\t// in\n    tag_189:\n      dup1\n      iszero\n      tag_190\n      jumpi\n      dup1\n      0x1f\n      lt\n      tag_191\n      jumpi\n      0x0100\n      dup1\n      dup4\n      sload\n      div\n      mul\n      dup4\n      mstore\n      swap2\n      0x20\n      add\n      swap2\n      jump(tag_190)\n    tag_191:\n      dup3\n      add\n      swap2\n      swap1\n      0x00\n      mstore\n      keccak256(0x00, 0x20)\n      swap1\n    tag_192:\n      dup2\n      sload\n      dup2\n      mstore\n      swap1\n      0x01\n      add\n      swap1\n      0x20\n      add\n      dup1\n      dup4\n      gt\n      tag_192\n      jumpi\n      dup3\n      swap1\n      sub\n      0x1f\n      and\n      dup3\n      add\n      swap2\n    tag_190:\n      pop\n      pop\n      pop\n      pop\n      pop\n      dup2\n      mstore\n      pop\n      pop\n      dup2\n      mstore\n      0x20\n      add\n      swap1\n      0x01\n      add\n      swap1\n      jump(tag_185)\n    tag_186:\n      pop\n      pop\n      pop\n      pop\n      dup2\n      mstore\n      pop\n      pop\n      dup2\n      mstore\n      0x20\n      add\n      swap1\n      0x01\n      add\n      swap1\n      jump(tag_176)\n    tag_177:\n      pop\n      pop\n      pop\n      pop\n      swap1\n      pop\n      swap4\n      pop\n      swap4\n      pop\n      swap4\n      pop\n      swap4\n      pop\n        /* \"blockpedia.sol\":1075:1237  function getAllDadosBlockpedia() public view returns (bool, address, uint256, Pagina[] memory)\r... */\n      swap1\n      swap2\n      swap3\n      swap4\n      jump\t// out\n        /* \"blockpedia.sol\":6802:7515  function getPaginasPorTitulo(string memory _titulo) public view returns (uint[] memory)\r... */\n    tag_57:\n        /* \"blockpedia.sol\":6875:6888  uint[] memory */\n      0x60\n        /* \"blockpedia.sol\":6906:6943  uint[] memory indicesPaginasComTitulo */\n      0x00\n        /* \"blockpedia.sol\":6957:6964  paginas */\n      0x01\n        /* \"blockpedia.sol\":6957:6971  paginas.length */\n      dup1\n      sload\n      swap1\n      pop\n        /* \"blockpedia.sol\":6946:6972  new uint[](paginas.length) */\n      0xffffffffffffffff\n      dup2\n      gt\n      iszero\n      tag_194\n      jumpi\n      mstore(0x00, 0x4e487b7100000000000000000000000000000000000000000000000000000000)\n      mstore(0x04, 0x41)\n      revert(0x00, 0x24)\n    tag_194:\n      mload(0x40)\n      swap1\n      dup1\n      dup3\n      mstore\n      dup1\n      0x20\n      mul\n      0x20\n      add\n      dup3\n      add\n      0x40\n      mstore\n      dup1\n      iszero\n      tag_195\n      jumpi\n      dup2\n      0x20\n      add\n      0x20\n      dup3\n      mul\n      dup1\n      calldatasize\n      dup4\n      calldatacopy\n      dup1\n      dup3\n      add\n      swap2\n      pop\n      pop\n      swap1\n      pop\n    tag_195:\n      pop\n        /* \"blockpedia.sol\":6906:6972  uint[] memory indicesPaginasComTitulo = new uint[](paginas.length) */\n      swap1\n      pop\n        /* \"blockpedia.sol\":6983:6996  uint contador */\n      0x00\n        /* \"blockpedia.sol\":7018:7024  uint i */\n      dup1\n        /* \"blockpedia.sol\":7013:7251  for (uint i = 0; i < paginas.length; i++)\r... */\n    tag_196:\n        /* \"blockpedia.sol\":7034:7041  paginas */\n      0x01\n        /* \"blockpedia.sol\":7034:7048  paginas.length */\n      dup1\n      sload\n      swap1\n      pop\n        /* \"blockpedia.sol\":7030:7031  i */\n      dup2\n        /* \"blockpedia.sol\":7030:7048  i < paginas.length */\n      lt\n        /* \"blockpedia.sol\":7013:7251  for (uint i = 0; i < paginas.length; i++)\r... */\n      iszero\n      tag_197\n      jumpi\n        /* \"blockpedia.sol\":7083:7124  comparaString(paginas[i].titulo, _titulo) */\n      tag_199\n        /* \"blockpedia.sol\":7097:7104  paginas */\n      0x01\n        /* \"blockpedia.sol\":7105:7106  i */\n      dup3\n        /* \"blockpedia.sol\":7097:7107  paginas[i] */\n      dup2\n      sload\n      dup2\n      lt\n      tag_200\n      jumpi\n      mstore(0x00, 0x4e487b7100000000000000000000000000000000000000000000000000000000)\n      mstore(0x04, 0x32)\n      revert(0x00, 0x24)\n    tag_200:\n      swap1\n      0x00\n      mstore\n      keccak256(0x00, 0x20)\n      swap1\n      0x04\n      mul\n      add\n        /* \"blockpedia.sol\":7097:7114  paginas[i].titulo */\n      0x02\n      add\n        /* \"blockpedia.sol\":7083:7124  comparaString(paginas[i].titulo, _titulo) */\n      dup1\n      sload\n      tag_202\n      swap1\n      tag_180\n      jump\t// in\n    tag_202:\n      dup1\n      0x1f\n      add\n      0x20\n      dup1\n      swap2\n      div\n      mul\n      0x20\n      add\n      mload(0x40)\n      swap1\n      dup2\n      add\n      0x40\n      mstore\n      dup1\n      swap3\n      swap2\n      swap1\n      dup2\n      dup2\n      mstore\n      0x20\n      add\n      dup3\n      dup1\n      sload\n      tag_203\n      swap1\n      tag_180\n      jump\t// in\n    tag_203:\n      dup1\n      iszero\n      tag_204\n      jumpi\n      dup1\n      0x1f\n      lt\n      tag_205\n      jumpi\n      0x0100\n      dup1\n      dup4\n      sload\n      div\n      mul\n      dup4\n      mstore\n      swap2\n      0x20\n      add\n      swap2\n      jump(tag_204)\n    tag_205:\n      dup3\n      add\n      swap2\n      swap1\n      0x00\n      mstore\n      keccak256(0x00, 0x20)\n      swap1\n    tag_206:\n      dup2\n      sload\n      dup2\n      mstore\n      swap1\n      0x01\n      add\n      swap1\n      0x20\n      add\n      dup1\n      dup4\n      gt\n      tag_206\n      jumpi\n      dup3\n      swap1\n      sub\n      0x1f\n      and\n      dup3\n      add\n      swap2\n    tag_204:\n      pop\n      pop\n      pop\n      pop\n      pop\n        /* \"blockpedia.sol\":7116:7123  _titulo */\n      dup7\n        /* \"blockpedia.sol\":7083:7096  comparaString */\n      tag_207\n        /* \"blockpedia.sol\":7083:7124  comparaString(paginas[i].titulo, _titulo) */\n      jump\t// in\n    tag_199:\n        /* \"blockpedia.sol\":7079:7240  if (comparaString(paginas[i].titulo, _titulo))\r... */\n      iszero\n      tag_208\n      jumpi\n        /* \"blockpedia.sol\":7194:7195  i */\n      dup1\n        /* \"blockpedia.sol\":7158:7181  indicesPaginasComTitulo */\n      dup4\n        /* \"blockpedia.sol\":7182:7190  contador */\n      dup4\n        /* \"blockpedia.sol\":7158:7191  indicesPaginasComTitulo[contador] */\n      dup2\n      mload\n      dup2\n      lt\n      tag_209\n      jumpi\n      mstore(0x00, 0x4e487b7100000000000000000000000000000000000000000000000000000000)\n      mstore(0x04, 0x32)\n      revert(0x00, 0x24)\n    tag_209:\n      0x20\n      mul\n      0x20\n      add\n      add\n        /* \"blockpedia.sol\":7158:7195  indicesPaginasComTitulo[contador] = i */\n      dup2\n      dup2\n      mstore\n      pop\n      pop\n        /* \"blockpedia.sol\":7214:7224  contador++ */\n      dup2\n      dup1\n      tag_210\n      swap1\n      tag_154\n      jump\t// in\n    tag_210:\n      swap3\n      pop\n      pop\n        /* \"blockpedia.sol\":7079:7240  if (comparaString(paginas[i].titulo, _titulo))\r... */\n    tag_208:\n        /* \"blockpedia.sol\":7050:7053  i++ */\n      dup1\n      dup1\n      tag_211\n      swap1\n      tag_154\n      jump\t// in\n    tag_211:\n      swap2\n      pop\n      pop\n        /* \"blockpedia.sol\":7013:7251  for (uint i = 0; i < paginas.length; i++)\r... */\n      jump(tag_196)\n    tag_197:\n      pop\n        /* \"blockpedia.sol\":7315:7336  uint[] memory indices */\n      0x00\n        /* \"blockpedia.sol\":7350:7358  contador */\n      dup2\n        /* \"blockpedia.sol\":7339:7359  new uint[](contador) */\n      0xffffffffffffffff\n      dup2\n      gt\n      iszero\n      tag_212\n      jumpi\n      mstore(0x00, 0x4e487b7100000000000000000000000000000000000000000000000000000000)\n      mstore(0x04, 0x41)\n      revert(0x00, 0x24)\n    tag_212:\n      mload(0x40)\n      swap1\n      dup1\n      dup3\n      mstore\n      dup1\n      0x20\n      mul\n      0x20\n      add\n      dup3\n      add\n      0x40\n      mstore\n      dup1\n      iszero\n      tag_213\n      jumpi\n      dup2\n      0x20\n      add\n      0x20\n      dup3\n      mul\n      dup1\n      calldatasize\n      dup4\n      calldatacopy\n      dup1\n      dup3\n      add\n      swap2\n      pop\n      pop\n      swap1\n      pop\n    tag_213:\n      pop\n        /* \"blockpedia.sol\":7315:7359  uint[] memory indices = new uint[](contador) */\n      swap1\n      pop\n        /* \"blockpedia.sol\":7375:7381  uint j */\n      0x00\n        /* \"blockpedia.sol\":7370:7481  for (uint j = 0; j < contador; j++)\r... */\n    tag_214:\n        /* \"blockpedia.sol\":7391:7399  contador */\n      dup3\n        /* \"blockpedia.sol\":7387:7388  j */\n      dup2\n        /* \"blockpedia.sol\":7387:7399  j < contador */\n      lt\n        /* \"blockpedia.sol\":7370:7481  for (uint j = 0; j < contador; j++)\r... */\n      iszero\n      tag_215\n      jumpi\n        /* \"blockpedia.sol\":7443:7466  indicesPaginasComTitulo */\n      dup4\n        /* \"blockpedia.sol\":7467:7468  j */\n      dup2\n        /* \"blockpedia.sol\":7443:7469  indicesPaginasComTitulo[j] */\n      dup2\n      mload\n      dup2\n      lt\n      tag_217\n      jumpi\n      mstore(0x00, 0x4e487b7100000000000000000000000000000000000000000000000000000000)\n      mstore(0x04, 0x32)\n      revert(0x00, 0x24)\n    tag_217:\n      0x20\n      mul\n      0x20\n      add\n      add\n      mload\n        /* \"blockpedia.sol\":7430:7437  indices */\n      dup3\n        /* \"blockpedia.sol\":7438:7439  j */\n      dup3\n        /* \"blockpedia.sol\":7430:7440  indices[j] */\n      dup2\n      mload\n      dup2\n      lt\n      tag_218\n      jumpi\n      mstore(0x00, 0x4e487b7100000000000000000000000000000000000000000000000000000000)\n      mstore(0x04, 0x32)\n      revert(0x00, 0x24)\n    tag_218:\n      0x20\n      mul\n      0x20\n      add\n      add\n        /* \"blockpedia.sol\":7430:7469  indices[j] = indicesPaginasComTitulo[j] */\n      dup2\n      dup2\n      mstore\n      pop\n      pop\n        /* \"blockpedia.sol\":7401:7404  j++ */\n      dup1\n      dup1\n      tag_219\n      swap1\n      tag_154\n      jump\t// in\n    tag_219:\n      swap2\n      pop\n      pop\n        /* \"blockpedia.sol\":7370:7481  for (uint j = 0; j < contador; j++)\r... */\n      jump(tag_214)\n    tag_215:\n      pop\n        /* \"blockpedia.sol\":7500:7507  indices */\n      dup1\n        /* \"blockpedia.sol\":7493:7507  return indices */\n      swap4\n      pop\n      pop\n      pop\n      pop\n        /* \"blockpedia.sol\":6802:7515  function getPaginasPorTitulo(string memory _titulo) public view returns (uint[] memory)\r... */\n      swap2\n      swap1\n      pop\n      jump\t// out\n        /* \"blockpedia.sol\":159:195  uint256 public immutable dataCriacao */\n    tag_62:\n      immutable(\"0xe4b1702d9298fee62dfeccc57d322a463ad55ca201256d01f62b45b2e1c21c10\")\n      dup2\n      jump\t// out\n        /* \"blockpedia.sol\":3100:3293  function getPaginaComVersoes(uint _indice) public view returns (Pagina memory) {\r... */\n    tag_69:\n        /* \"blockpedia.sol\":3164:3177  Pagina memory */\n      tag_220\n      tag_131\n      jump\t// in\n    tag_220:\n        /* \"blockpedia.sol\":3208:3215  paginas */\n      0x01\n        /* \"blockpedia.sol\":3208:3222  paginas.length */\n      dup1\n      sload\n      swap1\n      pop\n        /* \"blockpedia.sol\":3198:3205  _indice */\n      dup3\n        /* \"blockpedia.sol\":3198:3222  _indice < paginas.length */\n      lt\n        /* \"blockpedia.sol\":3190:3249  require(_indice < paginas.length, \"Indice fora do alcance\") */\n      tag_222\n      jumpi\n      mload(0x40)\n      0x08c379a000000000000000000000000000000000000000000000000000000000\n      dup2\n      mstore\n      0x04\n      add\n      tag_223\n      swap1\n      tag_224\n      jump\t// in\n    tag_223:\n      mload(0x40)\n      dup1\n      swap2\n      sub\n      swap1\n      revert\n    tag_222:\n        /* \"blockpedia.sol\":3269:3276  paginas */\n      0x01\n        /* \"blockpedia.sol\":3277:3284  _indice */\n      dup3\n        /* \"blockpedia.sol\":3269:3285  paginas[_indice] */\n      dup2\n      sload\n      dup2\n      lt\n      tag_225\n      jumpi\n      mstore(0x00, 0x4e487b7100000000000000000000000000000000000000000000000000000000)\n      mstore(0x04, 0x32)\n      revert(0x00, 0x24)\n    tag_225:\n      swap1\n      0x00\n      mstore\n      keccak256(0x00, 0x20)\n      swap1\n      0x04\n      mul\n      add\n        /* \"blockpedia.sol\":3262:3285  return paginas[_indice] */\n      mload(0x40)\n      dup1\n      0xa0\n      add\n      0x40\n      mstore\n      swap1\n      dup2\n      0x00\n      dup3\n      add\n      0x00\n      swap1\n      sload\n      swap1\n      0x0100\n      exp\n      swap1\n      div\n      0xff\n      and\n      iszero\n      iszero\n      iszero\n      iszero\n      dup2\n      mstore\n      0x20\n      add\n      0x00\n      dup3\n      add\n      0x01\n      swap1\n      sload\n      swap1\n      0x0100\n      exp\n      swap1\n      div\n      0xffffffffffffffffffffffffffffffffffffffff\n      and\n      0xffffffffffffffffffffffffffffffffffffffff\n      and\n      0xffffffffffffffffffffffffffffffffffffffff\n      and\n      dup2\n      mstore\n      0x20\n      add\n      0x01\n      dup3\n      add\n      sload\n      dup2\n      mstore\n      0x20\n      add\n      0x02\n      dup3\n      add\n      dup1\n      sload\n      tag_227\n      swap1\n      tag_180\n      jump\t// in\n    tag_227:\n      dup1\n      0x1f\n      add\n      0x20\n      dup1\n      swap2\n      div\n      mul\n      0x20\n      add\n      mload(0x40)\n      swap1\n      dup2\n      add\n      0x40\n      mstore\n      dup1\n      swap3\n      swap2\n      swap1\n      dup2\n      dup2\n      mstore\n      0x20\n      add\n      dup3\n      dup1\n      sload\n      tag_228\n      swap1\n      tag_180\n      jump\t// in\n    tag_228:\n      dup1\n      iszero\n      tag_229\n      jumpi\n      dup1\n      0x1f\n      lt\n      tag_230\n      jumpi\n      0x0100\n      dup1\n      dup4\n      sload\n      div\n      mul\n      dup4\n      mstore\n      swap2\n      0x20\n      add\n      swap2\n      jump(tag_229)\n    tag_230:\n      dup3\n      add\n      swap2\n      swap1\n      0x00\n      mstore\n      keccak256(0x00, 0x20)\n      swap1\n    tag_231:\n      dup2\n      sload\n      dup2\n      mstore\n      swap1\n      0x01\n      add\n      swap1\n      0x20\n      add\n      dup1\n      dup4\n      gt\n      tag_231\n      jumpi\n      dup3\n      swap1\n      sub\n      0x1f\n      and\n      dup3\n      add\n      swap2\n    tag_229:\n      pop\n      pop\n      pop\n      pop\n      pop\n      dup2\n      mstore\n      0x20\n      add\n      0x03\n      dup3\n      add\n      dup1\n      sload\n      dup1\n      0x20\n      mul\n      0x20\n      add\n      mload(0x40)\n      swap1\n      dup2\n      add\n      0x40\n      mstore\n      dup1\n      swap3\n      swap2\n      swap1\n      dup2\n      dup2\n      mstore\n      0x20\n      add\n      0x00\n      swap1\n    tag_232:\n      dup3\n      dup3\n      lt\n      iszero\n      tag_233\n      jumpi\n      dup4\n      dup3\n      swap1\n      0x00\n      mstore\n      keccak256(0x00, 0x20)\n      swap1\n      0x03\n      mul\n      add\n      mload(0x40)\n      dup1\n      0x80\n      add\n      0x40\n      mstore\n      swap1\n      dup2\n      0x00\n      dup3\n      add\n      0x00\n      swap1\n      sload\n      swap1\n      0x0100\n      exp\n      swap1\n      div\n      0xff\n      and\n      iszero\n      iszero\n      iszero\n      iszero\n      dup2\n      mstore\n      0x20\n      add\n      0x00\n      dup3\n      add\n      0x01\n      swap1\n      sload\n      swap1\n      0x0100\n      exp\n      swap1\n      div\n      0xffffffffffffffffffffffffffffffffffffffff\n      and\n      0xffffffffffffffffffffffffffffffffffffffff\n      and\n      0xffffffffffffffffffffffffffffffffffffffff\n      and\n      dup2\n      mstore\n      0x20\n      add\n      0x01\n      dup3\n      add\n      sload\n      dup2\n      mstore\n      0x20\n      add\n      0x02\n      dup3\n      add\n      dup1\n      sload\n      tag_235\n      swap1\n      tag_180\n      jump\t// in\n    tag_235:\n      dup1\n      0x1f\n      add\n      0x20\n      dup1\n      swap2\n      div\n      mul\n      0x20\n      add\n      mload(0x40)\n      swap1\n      dup2\n      add\n      0x40\n      mstore\n      dup1\n      swap3\n      swap2\n      swap1\n      dup2\n      dup2\n      mstore\n      0x20\n      add\n      dup3\n      dup1\n      sload\n      tag_236\n      swap1\n      tag_180\n      jump\t// in\n    tag_236:\n      dup1\n      iszero\n      tag_237\n      jumpi\n      dup1\n      0x1f\n      lt\n      tag_238\n      jumpi\n      0x0100\n      dup1\n      dup4\n      sload\n      div\n      mul\n      dup4\n      mstore\n      swap2\n      0x20\n      add\n      swap2\n      jump(tag_237)\n    tag_238:\n      dup3\n      add\n      swap2\n      swap1\n      0x00\n      mstore\n      keccak256(0x00, 0x20)\n      swap1\n    tag_239:\n      dup2\n      sload\n      dup2\n      mstore\n      swap1\n      0x01\n      add\n      swap1\n      0x20\n      add\n      dup1\n      dup4\n      gt\n      tag_239\n      jumpi\n      dup3\n      swap1\n      sub\n      0x1f\n      and\n      dup3\n      add\n      swap2\n    tag_237:\n      pop\n      pop\n      pop\n      pop\n      pop\n      dup2\n      mstore\n      pop\n      pop\n      dup2\n      mstore\n      0x20\n      add\n      swap1\n      0x01\n      add\n      swap1\n      jump(tag_232)\n    tag_233:\n      pop\n      pop\n      pop\n      pop\n      dup2\n      mstore\n      pop\n      pop\n      swap1\n      pop\n        /* \"blockpedia.sol\":3100:3293  function getPaginaComVersoes(uint _indice) public view returns (Pagina memory) {\r... */\n      swap2\n      swap1\n      pop\n      jump\t// out\n        /* \"blockpedia.sol\":5169:6085  function ativaVersaoPorIndexVersoesEIndexPaginas(uint _indexPagina, uint _indexVersoes) public somenteSeAtivo\r... */\n    tag_76:\n        /* \"blockpedia.sol\":8051:8056  ativo */\n      0x00\n      dup1\n      sload\n      swap1\n      0x0100\n      exp\n      swap1\n      div\n      0xff\n      and\n        /* \"blockpedia.sol\":8043:8113  require(ativo, \"A acao so e permitida quando a Blockpedia esta ativa\") */\n      tag_241\n      jumpi\n      mload(0x40)\n      0x08c379a000000000000000000000000000000000000000000000000000000000\n      dup2\n      mstore\n      0x04\n      add\n      tag_242\n      swap1\n      tag_163\n      jump\t// in\n    tag_242:\n      mload(0x40)\n      dup1\n      swap2\n      sub\n      swap1\n      revert\n    tag_241:\n        /* \"blockpedia.sol\":5318:5325  paginas */\n      0x01\n        /* \"blockpedia.sol\":5318:5332  paginas.length */\n      dup1\n      sload\n      swap1\n      pop\n        /* \"blockpedia.sol\":5303:5315  _indexPagina */\n      dup3\n        /* \"blockpedia.sol\":5303:5332  _indexPagina < paginas.length */\n      lt\n        /* \"blockpedia.sol\":5295:5369  require(_indexPagina < paginas.length, \"Indice da pagina fora do alcance\") */\n      tag_244\n      jumpi\n      mload(0x40)\n      0x08c379a000000000000000000000000000000000000000000000000000000000\n      dup2\n      mstore\n      0x04\n      add\n      tag_245\n      swap1\n      tag_246\n      jump\t// in\n    tag_245:\n      mload(0x40)\n      dup1\n      swap2\n      sub\n      swap1\n      revert\n    tag_244:\n        /* \"blockpedia.sol\":5388:5395  paginas */\n      0x01\n        /* \"blockpedia.sol\":5396:5408  _indexPagina */\n      dup3\n        /* \"blockpedia.sol\":5388:5409  paginas[_indexPagina] */\n      dup2\n      sload\n      dup2\n      lt\n      tag_247\n      jumpi\n      mstore(0x00, 0x4e487b7100000000000000000000000000000000000000000000000000000000)\n      mstore(0x04, 0x32)\n      revert(0x00, 0x24)\n    tag_247:\n      swap1\n      0x00\n      mstore\n      keccak256(0x00, 0x20)\n      swap1\n      0x04\n      mul\n      add\n        /* \"blockpedia.sol\":5388:5415  paginas[_indexPagina].ativo */\n      0x00\n      add\n      0x00\n      swap1\n      sload\n      swap1\n      0x0100\n      exp\n      swap1\n      div\n      0xff\n      and\n        /* \"blockpedia.sol\":5380:5483  require(paginas[_indexPagina].ativo, \"A alteracao de versao so e permitida quando a pagina esta ativa\") */\n      tag_249\n      jumpi\n      mload(0x40)\n      0x08c379a000000000000000000000000000000000000000000000000000000000\n      dup2\n      mstore\n      0x04\n      add\n      tag_250\n      swap1\n      tag_251\n      jump\t// in\n    tag_250:\n      mload(0x40)\n      dup1\n      swap2\n      sub\n      swap1\n      revert\n    tag_249:\n        /* \"blockpedia.sol\":5518:5525  paginas */\n      0x01\n        /* \"blockpedia.sol\":5526:5538  _indexPagina */\n      dup3\n        /* \"blockpedia.sol\":5518:5539  paginas[_indexPagina] */\n      dup2\n      sload\n      dup2\n      lt\n      tag_252\n      jumpi\n      mstore(0x00, 0x4e487b7100000000000000000000000000000000000000000000000000000000)\n      mstore(0x04, 0x32)\n      revert(0x00, 0x24)\n    tag_252:\n      swap1\n      0x00\n      mstore\n      keccak256(0x00, 0x20)\n      swap1\n      0x04\n      mul\n      add\n        /* \"blockpedia.sol\":5518:5547  paginas[_indexPagina].versoes */\n      0x03\n      add\n        /* \"blockpedia.sol\":5518:5554  paginas[_indexPagina].versoes.length */\n      dup1\n      sload\n      swap1\n      pop\n        /* \"blockpedia.sol\":5502:5515  _indexVersoes */\n      dup2\n        /* \"blockpedia.sol\":5502:5554  _indexVersoes < paginas[_indexPagina].versoes.length */\n      lt\n        /* \"blockpedia.sol\":5494:5591  require(_indexVersoes < paginas[_indexPagina].versoes.length, \"Indice da versao fora do alcance\") */\n      tag_254\n      jumpi\n      mload(0x40)\n      0x08c379a000000000000000000000000000000000000000000000000000000000\n      dup2\n      mstore\n      0x04\n      add\n      tag_255\n      swap1\n      tag_256\n      jump\t// in\n    tag_255:\n      mload(0x40)\n      dup1\n      swap2\n      sub\n      swap1\n      revert\n    tag_254:\n        /* \"blockpedia.sol\":5607:5614  paginas */\n      0x01\n        /* \"blockpedia.sol\":5615:5627  _indexPagina */\n      dup3\n        /* \"blockpedia.sol\":5607:5628  paginas[_indexPagina] */\n      dup2\n      sload\n      dup2\n      lt\n      tag_257\n      jumpi\n      mstore(0x00, 0x4e487b7100000000000000000000000000000000000000000000000000000000)\n      mstore(0x04, 0x32)\n      revert(0x00, 0x24)\n    tag_257:\n      swap1\n      0x00\n      mstore\n      keccak256(0x00, 0x20)\n      swap1\n      0x04\n      mul\n      add\n        /* \"blockpedia.sol\":5607:5636  paginas[_indexPagina].versoes */\n      0x03\n      add\n        /* \"blockpedia.sol\":5637:5650  _indexVersoes */\n      dup2\n        /* \"blockpedia.sol\":5607:5651  paginas[_indexPagina].versoes[_indexVersoes] */\n      dup2\n      sload\n      dup2\n      lt\n      tag_259\n      jumpi\n      mstore(0x00, 0x4e487b7100000000000000000000000000000000000000000000000000000000)\n      mstore(0x04, 0x32)\n      revert(0x00, 0x24)\n    tag_259:\n      swap1\n      0x00\n      mstore\n      keccak256(0x00, 0x20)\n      swap1\n      0x03\n      mul\n      add\n        /* \"blockpedia.sol\":5607:5657  paginas[_indexPagina].versoes[_indexVersoes].ativo */\n      0x00\n      add\n      0x00\n      swap1\n      sload\n      swap1\n      0x0100\n      exp\n      swap1\n      div\n      0xff\n      and\n        /* \"blockpedia.sol\":5604:5679  if(paginas[_indexPagina].versoes[_indexVersoes].ativo)\r... */\n      iszero\n      tag_261\n      jumpi\n        /* \"blockpedia.sol\":5672:5679  return; */\n      jump(tag_243)\n        /* \"blockpedia.sol\":5604:5679  if(paginas[_indexPagina].versoes[_indexVersoes].ativo)\r... */\n    tag_261:\n        /* \"blockpedia.sol\":5696:5702  uint i */\n      0x00\n        /* \"blockpedia.sol\":5705:5712  paginas */\n      0x01\n        /* \"blockpedia.sol\":5713:5725  _indexPagina */\n      dup4\n        /* \"blockpedia.sol\":5705:5726  paginas[_indexPagina] */\n      dup2\n      sload\n      dup2\n      lt\n      tag_265\n      jumpi\n      mstore(0x00, 0x4e487b7100000000000000000000000000000000000000000000000000000000)\n      mstore(0x04, 0x32)\n      revert(0x00, 0x24)\n    tag_265:\n      swap1\n      0x00\n      mstore\n      keccak256(0x00, 0x20)\n      swap1\n      0x04\n      mul\n      add\n        /* \"blockpedia.sol\":5705:5734  paginas[_indexPagina].versoes */\n      0x03\n      add\n        /* \"blockpedia.sol\":5705:5741  paginas[_indexPagina].versoes.length */\n      dup1\n      sload\n      swap1\n      pop\n        /* \"blockpedia.sol\":5696:5741  uint i = paginas[_indexPagina].versoes.length */\n      swap1\n      pop\n        /* \"blockpedia.sol\":5691:6008  for (uint i = paginas[_indexPagina].versoes.length; i > 0; i--)\r... */\n    tag_262:\n        /* \"blockpedia.sol\":5747:5748  0 */\n      0x00\n        /* \"blockpedia.sol\":5743:5744  i */\n      dup2\n        /* \"blockpedia.sol\":5743:5748  i > 0 */\n      gt\n        /* \"blockpedia.sol\":5691:6008  for (uint i = paginas[_indexPagina].versoes.length; i > 0; i--)\r... */\n      iszero\n      tag_263\n      jumpi\n        /* \"blockpedia.sol\":5779:5794  uint indexAtual */\n      0x00\n        /* \"blockpedia.sol\":5801:5802  1 */\n      0x01\n        /* \"blockpedia.sol\":5797:5798  i */\n      dup3\n        /* \"blockpedia.sol\":5797:5802  i - 1 */\n      tag_267\n      swap2\n      swap1\n      tag_268\n      jump\t// in\n    tag_267:\n        /* \"blockpedia.sol\":5779:5802  uint indexAtual = i - 1 */\n      swap1\n      pop\n        /* \"blockpedia.sol\":5821:5828  paginas */\n      0x01\n        /* \"blockpedia.sol\":5829:5841  _indexPagina */\n      dup5\n        /* \"blockpedia.sol\":5821:5842  paginas[_indexPagina] */\n      dup2\n      sload\n      dup2\n      lt\n      tag_269\n      jumpi\n      mstore(0x00, 0x4e487b7100000000000000000000000000000000000000000000000000000000)\n      mstore(0x04, 0x32)\n      revert(0x00, 0x24)\n    tag_269:\n      swap1\n      0x00\n      mstore\n      keccak256(0x00, 0x20)\n      swap1\n      0x04\n      mul\n      add\n        /* \"blockpedia.sol\":5821:5850  paginas[_indexPagina].versoes */\n      0x03\n      add\n        /* \"blockpedia.sol\":5851:5861  indexAtual */\n      dup2\n        /* \"blockpedia.sol\":5821:5862  paginas[_indexPagina].versoes[indexAtual] */\n      dup2\n      sload\n      dup2\n      lt\n      tag_271\n      jumpi\n      mstore(0x00, 0x4e487b7100000000000000000000000000000000000000000000000000000000)\n      mstore(0x04, 0x32)\n      revert(0x00, 0x24)\n    tag_271:\n      swap1\n      0x00\n      mstore\n      keccak256(0x00, 0x20)\n      swap1\n      0x03\n      mul\n      add\n        /* \"blockpedia.sol\":5821:5868  paginas[_indexPagina].versoes[indexAtual].ativo */\n      0x00\n      add\n      0x00\n      swap1\n      sload\n      swap1\n      0x0100\n      exp\n      swap1\n      div\n      0xff\n      and\n        /* \"blockpedia.sol\":5817:5997  if (paginas[_indexPagina].versoes[indexAtual].ativo)\r... */\n      iszero\n      tag_273\n      jumpi\n        /* \"blockpedia.sol\":5952:5957  false */\n      0x00\n        /* \"blockpedia.sol\":5902:5909  paginas */\n      0x01\n        /* \"blockpedia.sol\":5910:5922  _indexPagina */\n      dup6\n        /* \"blockpedia.sol\":5902:5923  paginas[_indexPagina] */\n      dup2\n      sload\n      dup2\n      lt\n      tag_274\n      jumpi\n      mstore(0x00, 0x4e487b7100000000000000000000000000000000000000000000000000000000)\n      mstore(0x04, 0x32)\n      revert(0x00, 0x24)\n    tag_274:\n      swap1\n      0x00\n      mstore\n      keccak256(0x00, 0x20)\n      swap1\n      0x04\n      mul\n      add\n        /* \"blockpedia.sol\":5902:5931  paginas[_indexPagina].versoes */\n      0x03\n      add\n        /* \"blockpedia.sol\":5932:5942  indexAtual */\n      dup3\n        /* \"blockpedia.sol\":5902:5943  paginas[_indexPagina].versoes[indexAtual] */\n      dup2\n      sload\n      dup2\n      lt\n      tag_276\n      jumpi\n      mstore(0x00, 0x4e487b7100000000000000000000000000000000000000000000000000000000)\n      mstore(0x04, 0x32)\n      revert(0x00, 0x24)\n    tag_276:\n      swap1\n      0x00\n      mstore\n      keccak256(0x00, 0x20)\n      swap1\n      0x03\n      mul\n      add\n        /* \"blockpedia.sol\":5902:5949  paginas[_indexPagina].versoes[indexAtual].ativo */\n      0x00\n      add\n      0x00\n        /* \"blockpedia.sol\":5902:5957  paginas[_indexPagina].versoes[indexAtual].ativo = false */\n      0x0100\n      exp\n      dup2\n      sload\n      dup2\n      0xff\n      mul\n      not\n      and\n      swap1\n      dup4\n      iszero\n      iszero\n      mul\n      or\n      swap1\n      sstore\n      pop\n        /* \"blockpedia.sol\":5976:5981  break */\n      pop\n      jump(tag_263)\n        /* \"blockpedia.sol\":5817:5997  if (paginas[_indexPagina].versoes[indexAtual].ativo)\r... */\n    tag_273:\n        /* \"blockpedia.sol\":5691:6008  for (uint i = paginas[_indexPagina].versoes.length; i > 0; i--)\r... */\n      pop\n        /* \"blockpedia.sol\":5750:5753  i-- */\n      dup1\n      dup1\n      tag_278\n      swap1\n      tag_279\n      jump\t// in\n    tag_278:\n      swap2\n      pop\n      pop\n        /* \"blockpedia.sol\":5691:6008  for (uint i = paginas[_indexPagina].versoes.length; i > 0; i--)\r... */\n      jump(tag_262)\n    tag_263:\n      pop\n        /* \"blockpedia.sol\":6073:6077  true */\n      0x01\n        /* \"blockpedia.sol\":6020:6027  paginas */\n      dup1\n        /* \"blockpedia.sol\":6028:6040  _indexPagina */\n      dup4\n        /* \"blockpedia.sol\":6020:6041  paginas[_indexPagina] */\n      dup2\n      sload\n      dup2\n      lt\n      tag_280\n      jumpi\n      mstore(0x00, 0x4e487b7100000000000000000000000000000000000000000000000000000000)\n      mstore(0x04, 0x32)\n      revert(0x00, 0x24)\n    tag_280:\n      swap1\n      0x00\n      mstore\n      keccak256(0x00, 0x20)\n      swap1\n      0x04\n      mul\n      add\n        /* \"blockpedia.sol\":6020:6049  paginas[_indexPagina].versoes */\n      0x03\n      add\n        /* \"blockpedia.sol\":6050:6063  _indexVersoes */\n      dup3\n        /* \"blockpedia.sol\":6020:6064  paginas[_indexPagina].versoes[_indexVersoes] */\n      dup2\n      sload\n      dup2\n      lt\n      tag_282\n      jumpi\n      mstore(0x00, 0x4e487b7100000000000000000000000000000000000000000000000000000000)\n      mstore(0x04, 0x32)\n      revert(0x00, 0x24)\n    tag_282:\n      swap1\n      0x00\n      mstore\n      keccak256(0x00, 0x20)\n      swap1\n      0x03\n      mul\n      add\n        /* \"blockpedia.sol\":6020:6070  paginas[_indexPagina].versoes[_indexVersoes].ativo */\n      0x00\n      add\n      0x00\n        /* \"blockpedia.sol\":6020:6077  paginas[_indexPagina].versoes[_indexVersoes].ativo = true */\n      0x0100\n      exp\n      dup2\n      sload\n      dup2\n      0xff\n      mul\n      not\n      and\n      swap1\n      dup4\n      iszero\n      iszero\n      mul\n      or\n      swap1\n      sstore\n      pop\n        /* \"blockpedia.sol\":8124:8125  _ */\n    tag_243:\n        /* \"blockpedia.sol\":5169:6085  function ativaVersaoPorIndexVersoesEIndexPaginas(uint _indexPagina, uint _indexVersoes) public somenteSeAtivo\r... */\n      pop\n      pop\n      jump\t// out\n        /* \"blockpedia.sol\":725:1067  function getVersaoValidaDeUmaPagina(Pagina memory _pagina)public pure returns (Versao memory)\r... */\n    tag_81:\n        /* \"blockpedia.sol\":804:817  Versao memory */\n      tag_284\n      tag_139\n      jump\t// in\n    tag_284:\n        /* \"blockpedia.sol\":839:845  uint i */\n      0x00\n        /* \"blockpedia.sol\":835:991  for(uint i = 0; i < _pagina.versoes.length; i++)\r... */\n    tag_286:\n        /* \"blockpedia.sol\":855:862  _pagina */\n      dup3\n        /* \"blockpedia.sol\":855:870  _pagina.versoes */\n      0x80\n      add\n      mload\n        /* \"blockpedia.sol\":855:877  _pagina.versoes.length */\n      mload\n        /* \"blockpedia.sol\":851:852  i */\n      dup2\n        /* \"blockpedia.sol\":851:877  i < _pagina.versoes.length */\n      lt\n        /* \"blockpedia.sol\":835:991  for(uint i = 0; i < _pagina.versoes.length; i++)\r... */\n      iszero\n      tag_287\n      jumpi\n        /* \"blockpedia.sol\":911:918  _pagina */\n      dup3\n        /* \"blockpedia.sol\":911:926  _pagina.versoes */\n      0x80\n      add\n      mload\n        /* \"blockpedia.sol\":927:928  i */\n      dup2\n        /* \"blockpedia.sol\":911:929  _pagina.versoes[i] */\n      dup2\n      mload\n      dup2\n      lt\n      tag_289\n      jumpi\n      mstore(0x00, 0x4e487b7100000000000000000000000000000000000000000000000000000000)\n      mstore(0x04, 0x32)\n      revert(0x00, 0x24)\n    tag_289:\n      0x20\n      mul\n      0x20\n      add\n      add\n      mload\n        /* \"blockpedia.sol\":911:935  _pagina.versoes[i].ativo */\n      0x00\n      add\n      mload\n        /* \"blockpedia.sol\":908:979  if(_pagina.versoes[i].ativo)\r... */\n      iszero\n      tag_290\n      jumpi\n        /* \"blockpedia.sol\":961:968  _pagina */\n      dup3\n        /* \"blockpedia.sol\":961:976  _pagina.versoes */\n      0x80\n      add\n      mload\n        /* \"blockpedia.sol\":977:978  i */\n      dup2\n        /* \"blockpedia.sol\":961:979  _pagina.versoes[i] */\n      dup2\n      mload\n      dup2\n      lt\n      tag_291\n      jumpi\n      mstore(0x00, 0x4e487b7100000000000000000000000000000000000000000000000000000000)\n      mstore(0x04, 0x32)\n      revert(0x00, 0x24)\n    tag_291:\n      0x20\n      mul\n      0x20\n      add\n      add\n      mload\n        /* \"blockpedia.sol\":954:979  return _pagina.versoes[i] */\n      swap2\n      pop\n      pop\n      jump(tag_285)\n        /* \"blockpedia.sol\":908:979  if(_pagina.versoes[i].ativo)\r... */\n    tag_290:\n        /* \"blockpedia.sol\":879:882  i++ */\n      dup1\n      dup1\n      tag_292\n      swap1\n      tag_154\n      jump\t// in\n    tag_292:\n      swap2\n      pop\n      pop\n        /* \"blockpedia.sol\":835:991  for(uint i = 0; i < _pagina.versoes.length; i++)\r... */\n      jump(tag_286)\n    tag_287:\n      pop\n        /* \"blockpedia.sol\":1001:1059  revert(\"Nenhuma vercao ativa encontrada para esta pagina\") */\n      mload(0x40)\n      0x08c379a000000000000000000000000000000000000000000000000000000000\n      dup2\n      mstore\n      0x04\n      add\n      tag_293\n      swap1\n      tag_294\n      jump\t// in\n    tag_293:\n      mload(0x40)\n      dup1\n      swap2\n      sub\n      swap1\n      revert\n        /* \"blockpedia.sol\":725:1067  function getVersaoValidaDeUmaPagina(Pagina memory _pagina)public pure returns (Versao memory)\r... */\n    tag_285:\n      swap2\n      swap1\n      pop\n      jump\t// out\n        /* \"blockpedia.sol\":89:113  bool public ativo = true */\n    tag_86:\n      0x00\n      dup1\n      sload\n      swap1\n      0x0100\n      exp\n      swap1\n      div\n      0xff\n      and\n      dup2\n      jump\t// out\n        /* \"blockpedia.sol\":1535:2212  function getAllPaginasAtivas() public view returns (Pagina[] memory)\r... */\n    tag_91:\n        /* \"blockpedia.sol\":1587:1602  Pagina[] memory */\n      0x60\n        /* \"blockpedia.sol\":1620:1642  uint256 contadorAtivas */\n      0x00\n        /* \"blockpedia.sol\":1699:1708  uint256 i */\n      dup1\n        /* \"blockpedia.sol\":1694:1781  for (uint256 i = 0; i < paginas.length; i++) { if (paginas[i].ativo) contadorAtivas++;} */\n    tag_296:\n        /* \"blockpedia.sol\":1718:1725  paginas */\n      0x01\n        /* \"blockpedia.sol\":1718:1732  paginas.length */\n      dup1\n      sload\n      swap1\n      pop\n        /* \"blockpedia.sol\":1714:1715  i */\n      dup2\n        /* \"blockpedia.sol\":1714:1732  i < paginas.length */\n      lt\n        /* \"blockpedia.sol\":1694:1781  for (uint256 i = 0; i < paginas.length; i++) { if (paginas[i].ativo) contadorAtivas++;} */\n      iszero\n      tag_297\n      jumpi\n        /* \"blockpedia.sol\":1745:1752  paginas */\n      0x01\n        /* \"blockpedia.sol\":1753:1754  i */\n      dup2\n        /* \"blockpedia.sol\":1745:1755  paginas[i] */\n      dup2\n      sload\n      dup2\n      lt\n      tag_299\n      jumpi\n      mstore(0x00, 0x4e487b7100000000000000000000000000000000000000000000000000000000)\n      mstore(0x04, 0x32)\n      revert(0x00, 0x24)\n    tag_299:\n      swap1\n      0x00\n      mstore\n      keccak256(0x00, 0x20)\n      swap1\n      0x04\n      mul\n      add\n        /* \"blockpedia.sol\":1745:1761  paginas[i].ativo */\n      0x00\n      add\n      0x00\n      swap1\n      sload\n      swap1\n      0x0100\n      exp\n      swap1\n      div\n      0xff\n      and\n        /* \"blockpedia.sol\":1741:1779  if (paginas[i].ativo) contadorAtivas++ */\n      iszero\n      tag_301\n      jumpi\n        /* \"blockpedia.sol\":1763:1779  contadorAtivas++ */\n      dup2\n      dup1\n      tag_302\n      swap1\n      tag_154\n      jump\t// in\n    tag_302:\n      swap3\n      pop\n      pop\n        /* \"blockpedia.sol\":1741:1779  if (paginas[i].ativo) contadorAtivas++ */\n    tag_301:\n        /* \"blockpedia.sol\":1734:1737  i++ */\n      dup1\n      dup1\n      tag_303\n      swap1\n      tag_154\n      jump\t// in\n    tag_303:\n      swap2\n      pop\n      pop\n        /* \"blockpedia.sol\":1694:1781  for (uint256 i = 0; i < paginas.length; i++) { if (paginas[i].ativo) contadorAtivas++;} */\n      jump(tag_296)\n    tag_297:\n      pop\n        /* \"blockpedia.sol\":1848:1877  Pagina[] memory paginasAtivas */\n      0x00\n        /* \"blockpedia.sol\":1893:1907  contadorAtivas */\n      dup2\n        /* \"blockpedia.sol\":1880:1908  new Pagina[](contadorAtivas) */\n      0xffffffffffffffff\n      dup2\n      gt\n      iszero\n      tag_304\n      jumpi\n      mstore(0x00, 0x4e487b7100000000000000000000000000000000000000000000000000000000)\n      mstore(0x04, 0x41)\n      revert(0x00, 0x24)\n    tag_304:\n      mload(0x40)\n      swap1\n      dup1\n      dup3\n      mstore\n      dup1\n      0x20\n      mul\n      0x20\n      add\n      dup3\n      add\n      0x40\n      mstore\n      dup1\n      iszero\n      tag_305\n      jumpi\n      dup2\n      0x20\n      add\n    tag_306:\n      tag_307\n      tag_131\n      jump\t// in\n    tag_307:\n      dup2\n      mstore\n      0x20\n      add\n      swap1\n      0x01\n      swap1\n      sub\n      swap1\n      dup2\n      tag_306\n      jumpi\n      swap1\n      pop\n    tag_305:\n      pop\n        /* \"blockpedia.sol\":1848:1908  Pagina[] memory paginasAtivas = new Pagina[](contadorAtivas) */\n      swap1\n      pop\n        /* \"blockpedia.sol\":1919:1928  uint256 j */\n      0x00\n        /* \"blockpedia.sol\":1998:2007  uint256 i */\n      dup1\n        /* \"blockpedia.sol\":1993:2172  for (uint256 i = 0; i < paginas.length; i++) {\r... */\n    tag_308:\n        /* \"blockpedia.sol\":2017:2024  paginas */\n      0x01\n        /* \"blockpedia.sol\":2017:2031  paginas.length */\n      dup1\n      sload\n      swap1\n      pop\n        /* \"blockpedia.sol\":2013:2014  i */\n      dup2\n        /* \"blockpedia.sol\":2013:2031  i < paginas.length */\n      lt\n        /* \"blockpedia.sol\":1993:2172  for (uint256 i = 0; i < paginas.length; i++) {\r... */\n      iszero\n      tag_309\n      jumpi\n        /* \"blockpedia.sol\":2057:2064  paginas */\n      0x01\n        /* \"blockpedia.sol\":2065:2066  i */\n      dup2\n        /* \"blockpedia.sol\":2057:2067  paginas[i] */\n      dup2\n      sload\n      dup2\n      lt\n      tag_311\n      jumpi\n      mstore(0x00, 0x4e487b7100000000000000000000000000000000000000000000000000000000)\n      mstore(0x04, 0x32)\n      revert(0x00, 0x24)\n    tag_311:\n      swap1\n      0x00\n      mstore\n      keccak256(0x00, 0x20)\n      swap1\n      0x04\n      mul\n      add\n        /* \"blockpedia.sol\":2057:2073  paginas[i].ativo */\n      0x00\n      add\n      0x00\n      swap1\n      sload\n      swap1\n      0x0100\n      exp\n      swap1\n      div\n      0xff\n      and\n        /* \"blockpedia.sol\":2053:2161  if (paginas[i].ativo) {\r... */\n      iszero\n      tag_313\n      jumpi\n        /* \"blockpedia.sol\":2113:2120  paginas */\n      0x01\n        /* \"blockpedia.sol\":2121:2122  i */\n      dup2\n        /* \"blockpedia.sol\":2113:2123  paginas[i] */\n      dup2\n      sload\n      dup2\n      lt\n      tag_314\n      jumpi\n      mstore(0x00, 0x4e487b7100000000000000000000000000000000000000000000000000000000)\n      mstore(0x04, 0x32)\n      revert(0x00, 0x24)\n    tag_314:\n      swap1\n      0x00\n      mstore\n      keccak256(0x00, 0x20)\n      swap1\n      0x04\n      mul\n      add\n        /* \"blockpedia.sol\":2094:2123  paginasAtivas[j] = paginas[i] */\n      mload(0x40)\n      dup1\n      0xa0\n      add\n      0x40\n      mstore\n      swap1\n      dup2\n      0x00\n      dup3\n      add\n      0x00\n      swap1\n      sload\n      swap1\n      0x0100\n      exp\n      swap1\n      div\n      0xff\n      and\n      iszero\n      iszero\n      iszero\n      iszero\n      dup2\n      mstore\n      0x20\n      add\n      0x00\n      dup3\n      add\n      0x01\n      swap1\n      sload\n      swap1\n      0x0100\n      exp\n      swap1\n      div\n      0xffffffffffffffffffffffffffffffffffffffff\n      and\n      0xffffffffffffffffffffffffffffffffffffffff\n      and\n      0xffffffffffffffffffffffffffffffffffffffff\n      and\n      dup2\n      mstore\n      0x20\n      add\n      0x01\n      dup3\n      add\n      sload\n      dup2\n      mstore\n      0x20\n      add\n      0x02\n      dup3\n      add\n      dup1\n      sload\n      tag_316\n      swap1\n      tag_180\n      jump\t// in\n    tag_316:\n      dup1\n      0x1f\n      add\n      0x20\n      dup1\n      swap2\n      div\n      mul\n      0x20\n      add\n      mload(0x40)\n      swap1\n      dup2\n      add\n      0x40\n      mstore\n      dup1\n      swap3\n      swap2\n      swap1\n      dup2\n      dup2\n      mstore\n      0x20\n      add\n      dup3\n      dup1\n      sload\n      tag_317\n      swap1\n      tag_180\n      jump\t// in\n    tag_317:\n      dup1\n      iszero\n      tag_318\n      jumpi\n      dup1\n      0x1f\n      lt\n      tag_319\n      jumpi\n      0x0100\n      dup1\n      dup4\n      sload\n      div\n      mul\n      dup4\n      mstore\n      swap2\n      0x20\n      add\n      swap2\n      jump(tag_318)\n    tag_319:\n      dup3\n      add\n      swap2\n      swap1\n      0x00\n      mstore\n      keccak256(0x00, 0x20)\n      swap1\n    tag_320:\n      dup2\n      sload\n      dup2\n      mstore\n      swap1\n      0x01\n      add\n      swap1\n      0x20\n      add\n      dup1\n      dup4\n      gt\n      tag_320\n      jumpi\n      dup3\n      swap1\n      sub\n      0x1f\n      and\n      dup3\n      add\n      swap2\n    tag_318:\n      pop\n      pop\n      pop\n      pop\n      pop\n      dup2\n      mstore\n      0x20\n      add\n      0x03\n      dup3\n      add\n      dup1\n      sload\n      dup1\n      0x20\n      mul\n      0x20\n      add\n      mload(0x40)\n      swap1\n      dup2\n      add\n      0x40\n      mstore\n      dup1\n      swap3\n      swap2\n      swap1\n      dup2\n      dup2\n      mstore\n      0x20\n      add\n      0x00\n      swap1\n    tag_321:\n      dup3\n      dup3\n      lt\n      iszero\n      tag_322\n      jumpi\n      dup4\n      dup3\n      swap1\n      0x00\n      mstore\n      keccak256(0x00, 0x20)\n      swap1\n      0x03\n      mul\n      add\n      mload(0x40)\n      dup1\n      0x80\n      add\n      0x40\n      mstore\n      swap1\n      dup2\n      0x00\n      dup3\n      add\n      0x00\n      swap1\n      sload\n      swap1\n      0x0100\n      exp\n      swap1\n      div\n      0xff\n      and\n      iszero\n      iszero\n      iszero\n      iszero\n      dup2\n      mstore\n      0x20\n      add\n      0x00\n      dup3\n      add\n      0x01\n      swap1\n      sload\n      swap1\n      0x0100\n      exp\n      swap1\n      div\n      0xffffffffffffffffffffffffffffffffffffffff\n      and\n      0xffffffffffffffffffffffffffffffffffffffff\n      and\n      0xffffffffffffffffffffffffffffffffffffffff\n      and\n      dup2\n      mstore\n      0x20\n      add\n      0x01\n      dup3\n      add\n      sload\n      dup2\n      mstore\n      0x20\n      add\n      0x02\n      dup3\n      add\n      dup1\n      sload\n      tag_324\n      swap1\n      tag_180\n      jump\t// in\n    tag_324:\n      dup1\n      0x1f\n      add\n      0x20\n      dup1\n      swap2\n      div\n      mul\n      0x20\n      add\n      mload(0x40)\n      swap1\n      dup2\n      add\n      0x40\n      mstore\n      dup1\n      swap3\n      swap2\n      swap1\n      dup2\n      dup2\n      mstore\n      0x20\n      add\n      dup3\n      dup1\n      sload\n      tag_325\n      swap1\n      tag_180\n      jump\t// in\n    tag_325:\n      dup1\n      iszero\n      tag_326\n      jumpi\n      dup1\n      0x1f\n      lt\n      tag_327\n      jumpi\n      0x0100\n      dup1\n      dup4\n      sload\n      div\n      mul\n      dup4\n      mstore\n      swap2\n      0x20\n      add\n      swap2\n      jump(tag_326)\n    tag_327:\n      dup3\n      add\n      swap2\n      swap1\n      0x00\n      mstore\n      keccak256(0x00, 0x20)\n      swap1\n    tag_328:\n      dup2\n      sload\n      dup2\n      mstore\n      swap1\n      0x01\n      add\n      swap1\n      0x20\n      add\n      dup1\n      dup4\n      gt\n      tag_328\n      jumpi\n      dup3\n      swap1\n      sub\n      0x1f\n      and\n      dup3\n      add\n      swap2\n    tag_326:\n      pop\n      pop\n      pop\n      pop\n      pop\n      dup2\n      mstore\n      pop\n      pop\n      dup2\n      mstore\n      0x20\n      add\n      swap1\n      0x01\n      add\n      swap1\n      jump(tag_321)\n    tag_322:\n      pop\n      pop\n      pop\n      pop\n      dup2\n      mstore\n      pop\n      pop\n        /* \"blockpedia.sol\":2094:2107  paginasAtivas */\n      dup4\n        /* \"blockpedia.sol\":2108:2109  j */\n      dup4\n        /* \"blockpedia.sol\":2094:2110  paginasAtivas[j] */\n      dup2\n      mload\n      dup2\n      lt\n      tag_329\n      jumpi\n      mstore(0x00, 0x4e487b7100000000000000000000000000000000000000000000000000000000)\n      mstore(0x04, 0x32)\n      revert(0x00, 0x24)\n    tag_329:\n      0x20\n      mul\n      0x20\n      add\n      add\n        /* \"blockpedia.sol\":2094:2123  paginasAtivas[j] = paginas[i] */\n      dup2\n      swap1\n      mstore\n      pop\n        /* \"blockpedia.sol\":2142:2145  j++ */\n      dup2\n      dup1\n      tag_330\n      swap1\n      tag_154\n      jump\t// in\n    tag_330:\n      swap3\n      pop\n      pop\n        /* \"blockpedia.sol\":2053:2161  if (paginas[i].ativo) {\r... */\n    tag_313:\n        /* \"blockpedia.sol\":2033:2036  i++ */\n      dup1\n      dup1\n      tag_331\n      swap1\n      tag_154\n      jump\t// in\n    tag_331:\n      swap2\n      pop\n      pop\n        /* \"blockpedia.sol\":1993:2172  for (uint256 i = 0; i < paginas.length; i++) {\r... */\n      jump(tag_308)\n    tag_309:\n      pop\n        /* \"blockpedia.sol\":2191:2204  paginasAtivas */\n      dup2\n        /* \"blockpedia.sol\":2184:2204  return paginasAtivas */\n      swap4\n      pop\n      pop\n      pop\n      pop\n        /* \"blockpedia.sol\":1535:2212  function getAllPaginasAtivas() public view returns (Pagina[] memory)\r... */\n      swap1\n      jump\t// out\n        /* \"blockpedia.sol\":6389:6794  function ativaPaginaPorIndexPaginas(uint _indexPagina)public somenteSeAtivo\r... */\n    tag_96:\n        /* \"blockpedia.sol\":8051:8056  ativo */\n      0x00\n      dup1\n      sload\n      swap1\n      0x0100\n      exp\n      swap1\n      div\n      0xff\n      and\n        /* \"blockpedia.sol\":8043:8113  require(ativo, \"A acao so e permitida quando a Blockpedia esta ativa\") */\n      tag_333\n      jumpi\n      mload(0x40)\n      0x08c379a000000000000000000000000000000000000000000000000000000000\n      dup2\n      mstore\n      0x04\n      add\n      tag_334\n      swap1\n      tag_163\n      jump\t// in\n    tag_334:\n      mload(0x40)\n      dup1\n      swap2\n      sub\n      swap1\n      revert\n    tag_333:\n        /* \"blockpedia.sol\":6504:6511  paginas */\n      0x01\n        /* \"blockpedia.sol\":6504:6518  paginas.length */\n      dup1\n      sload\n      swap1\n      pop\n        /* \"blockpedia.sol\":6489:6501  _indexPagina */\n      dup2\n        /* \"blockpedia.sol\":6489:6518  _indexPagina < paginas.length */\n      lt\n        /* \"blockpedia.sol\":6481:6555  require(_indexPagina < paginas.length, \"Indice da pagina fora do alcance\") */\n      tag_336\n      jumpi\n      mload(0x40)\n      0x08c379a000000000000000000000000000000000000000000000000000000000\n      dup2\n      mstore\n      0x04\n      add\n      tag_337\n      swap1\n      tag_246\n      jump\t// in\n    tag_337:\n      mload(0x40)\n      dup1\n      swap2\n      sub\n      swap1\n      revert\n    tag_336:\n        /* \"blockpedia.sol\":6575:6622  existeTituloAtivo(paginas[_indexPagina].titulo) */\n      tag_338\n        /* \"blockpedia.sol\":6593:6600  paginas */\n      0x01\n        /* \"blockpedia.sol\":6601:6613  _indexPagina */\n      dup3\n        /* \"blockpedia.sol\":6593:6614  paginas[_indexPagina] */\n      dup2\n      sload\n      dup2\n      lt\n      tag_339\n      jumpi\n      mstore(0x00, 0x4e487b7100000000000000000000000000000000000000000000000000000000)\n      mstore(0x04, 0x32)\n      revert(0x00, 0x24)\n    tag_339:\n      swap1\n      0x00\n      mstore\n      keccak256(0x00, 0x20)\n      swap1\n      0x04\n      mul\n      add\n        /* \"blockpedia.sol\":6593:6621  paginas[_indexPagina].titulo */\n      0x02\n      add\n        /* \"blockpedia.sol\":6575:6622  existeTituloAtivo(paginas[_indexPagina].titulo) */\n      dup1\n      sload\n      tag_341\n      swap1\n      tag_180\n      jump\t// in\n    tag_341:\n      dup1\n      0x1f\n      add\n      0x20\n      dup1\n      swap2\n      div\n      mul\n      0x20\n      add\n      mload(0x40)\n      swap1\n      dup2\n      add\n      0x40\n      mstore\n      dup1\n      swap3\n      swap2\n      swap1\n      dup2\n      dup2\n      mstore\n      0x20\n      add\n      dup3\n      dup1\n      sload\n      tag_342\n      swap1\n      tag_180\n      jump\t// in\n    tag_342:\n      dup1\n      iszero\n      tag_343\n      jumpi\n      dup1\n      0x1f\n      lt\n      tag_344\n      jumpi\n      0x0100\n      dup1\n      dup4\n      sload\n      div\n      mul\n      dup4\n      mstore\n      swap2\n      0x20\n      add\n      swap2\n      jump(tag_343)\n    tag_344:\n      dup3\n      add\n      swap2\n      swap1\n      0x00\n      mstore\n      keccak256(0x00, 0x20)\n      swap1\n    tag_345:\n      dup2\n      sload\n      dup2\n      mstore\n      swap1\n      0x01\n      add\n      swap1\n      0x20\n      add\n      dup1\n      dup4\n      gt\n      tag_345\n      jumpi\n      dup3\n      swap1\n      sub\n      0x1f\n      and\n      dup3\n      add\n      swap2\n    tag_343:\n      pop\n      pop\n      pop\n      pop\n      pop\n        /* \"blockpedia.sol\":6575:6592  existeTituloAtivo */\n      tag_166\n        /* \"blockpedia.sol\":6575:6622  existeTituloAtivo(paginas[_indexPagina].titulo) */\n      jump\t// in\n    tag_338:\n        /* \"blockpedia.sol\":6574:6622  !existeTituloAtivo(paginas[_indexPagina].titulo) */\n      iszero\n        /* \"blockpedia.sol\":6566:6665  require(!existeTituloAtivo(paginas[_indexPagina].titulo), \"Ja existe pagina ativa com este titulo\") */\n      tag_346\n      jumpi\n      mload(0x40)\n      0x08c379a000000000000000000000000000000000000000000000000000000000\n      dup2\n      mstore\n      0x04\n      add\n      tag_347\n      swap1\n      tag_169\n      jump\t// in\n    tag_347:\n      mload(0x40)\n      dup1\n      swap2\n      sub\n      swap1\n      revert\n    tag_346:\n        /* \"blockpedia.sol\":6681:6688  paginas */\n      0x01\n        /* \"blockpedia.sol\":6689:6701  _indexPagina */\n      dup2\n        /* \"blockpedia.sol\":6681:6702  paginas[_indexPagina] */\n      dup2\n      sload\n      dup2\n      lt\n      tag_348\n      jumpi\n      mstore(0x00, 0x4e487b7100000000000000000000000000000000000000000000000000000000)\n      mstore(0x04, 0x32)\n      revert(0x00, 0x24)\n    tag_348:\n      swap1\n      0x00\n      mstore\n      keccak256(0x00, 0x20)\n      swap1\n      0x04\n      mul\n      add\n        /* \"blockpedia.sol\":6681:6708  paginas[_indexPagina].ativo */\n      0x00\n      add\n      0x00\n      swap1\n      sload\n      swap1\n      0x0100\n      exp\n      swap1\n      div\n      0xff\n      and\n        /* \"blockpedia.sol\":6678:6730  if(paginas[_indexPagina].ativo)\r... */\n      iszero\n      tag_350\n      jumpi\n        /* \"blockpedia.sol\":6723:6730  return; */\n      jump(tag_335)\n        /* \"blockpedia.sol\":6678:6730  if(paginas[_indexPagina].ativo)\r... */\n    tag_350:\n        /* \"blockpedia.sol\":6782:6786  true */\n      0x01\n        /* \"blockpedia.sol\":6754:6761  paginas */\n      dup1\n        /* \"blockpedia.sol\":6762:6774  _indexPagina */\n      dup3\n        /* \"blockpedia.sol\":6754:6775  paginas[_indexPagina] */\n      dup2\n      sload\n      dup2\n      lt\n      tag_351\n      jumpi\n      mstore(0x00, 0x4e487b7100000000000000000000000000000000000000000000000000000000)\n      mstore(0x04, 0x32)\n      revert(0x00, 0x24)\n    tag_351:\n      swap1\n      0x00\n      mstore\n      keccak256(0x00, 0x20)\n      swap1\n      0x04\n      mul\n      add\n        /* \"blockpedia.sol\":6754:6781  paginas[_indexPagina].ativo */\n      0x00\n      add\n      0x00\n        /* \"blockpedia.sol\":6754:6786  paginas[_indexPagina].ativo=true */\n      0x0100\n      exp\n      dup2\n      sload\n      dup2\n      0xff\n      mul\n      not\n      and\n      swap1\n      dup4\n      iszero\n      iszero\n      mul\n      or\n      swap1\n      sstore\n      pop\n        /* \"blockpedia.sol\":8124:8125  _ */\n    tag_335:\n        /* \"blockpedia.sol\":6389:6794  function ativaPaginaPorIndexPaginas(uint _indexPagina)public somenteSeAtivo\r... */\n      pop\n      jump\t// out\n        /* \"blockpedia.sol\":1416:1527  function getAllPaginasComTodasVersoes() public view returns (Pagina[] memory) {\r... */\n    tag_99:\n        /* \"blockpedia.sol\":1477:1492  Pagina[] memory */\n      0x60\n        /* \"blockpedia.sol\":1512:1519  paginas */\n      0x01\n        /* \"blockpedia.sol\":1505:1519  return paginas */\n      dup1\n      sload\n      dup1\n      0x20\n      mul\n      0x20\n      add\n      mload(0x40)\n      swap1\n      dup2\n      add\n      0x40\n      mstore\n      dup1\n      swap3\n      swap2\n      swap1\n      dup2\n      dup2\n      mstore\n      0x20\n      add\n      0x00\n      swap1\n    tag_354:\n      dup3\n      dup3\n      lt\n      iszero\n      tag_355\n      jumpi\n      dup4\n      dup3\n      swap1\n      0x00\n      mstore\n      keccak256(0x00, 0x20)\n      swap1\n      0x04\n      mul\n      add\n      mload(0x40)\n      dup1\n      0xa0\n      add\n      0x40\n      mstore\n      swap1\n      dup2\n      0x00\n      dup3\n      add\n      0x00\n      swap1\n      sload\n      swap1\n      0x0100\n      exp\n      swap1\n      div\n      0xff\n      and\n      iszero\n      iszero\n      iszero\n      iszero\n      dup2\n      mstore\n      0x20\n      add\n      0x00\n      dup3\n      add\n      0x01\n      swap1\n      sload\n      swap1\n      0x0100\n      exp\n      swap1\n      div\n      0xffffffffffffffffffffffffffffffffffffffff\n      and\n      0xffffffffffffffffffffffffffffffffffffffff\n      and\n      0xffffffffffffffffffffffffffffffffffffffff\n      and\n      dup2\n      mstore\n      0x20\n      add\n      0x01\n      dup3\n      add\n      sload\n      dup2\n      mstore\n      0x20\n      add\n      0x02\n      dup3\n      add\n      dup1\n      sload\n      tag_357\n      swap1\n      tag_180\n      jump\t// in\n    tag_357:\n      dup1\n      0x1f\n      add\n      0x20\n      dup1\n      swap2\n      div\n      mul\n      0x20\n      add\n      mload(0x40)\n      swap1\n      dup2\n      add\n      0x40\n      mstore\n      dup1\n      swap3\n      swap2\n      swap1\n      dup2\n      dup2\n      mstore\n      0x20\n      add\n      dup3\n      dup1\n      sload\n      tag_358\n      swap1\n      tag_180\n      jump\t// in\n    tag_358:\n      dup1\n      iszero\n      tag_359\n      jumpi\n      dup1\n      0x1f\n      lt\n      tag_360\n      jumpi\n      0x0100\n      dup1\n      dup4\n      sload\n      div\n      mul\n      dup4\n      mstore\n      swap2\n      0x20\n      add\n      swap2\n      jump(tag_359)\n    tag_360:\n      dup3\n      add\n      swap2\n      swap1\n      0x00\n      mstore\n      keccak256(0x00, 0x20)\n      swap1\n    tag_361:\n      dup2\n      sload\n      dup2\n      mstore\n      swap1\n      0x01\n      add\n      swap1\n      0x20\n      add\n      dup1\n      dup4\n      gt\n      tag_361\n      jumpi\n      dup3\n      swap1\n      sub\n      0x1f\n      and\n      dup3\n      add\n      swap2\n    tag_359:\n      pop\n      pop\n      pop\n      pop\n      pop\n      dup2\n      mstore\n      0x20\n      add\n      0x03\n      dup3\n      add\n      dup1\n      sload\n      dup1\n      0x20\n      mul\n      0x20\n      add\n      mload(0x40)\n      swap1\n      dup2\n      add\n      0x40\n      mstore\n      dup1\n      swap3\n      swap2\n      swap1\n      dup2\n      dup2\n      mstore\n      0x20\n      add\n      0x00\n      swap1\n    tag_362:\n      dup3\n      dup3\n      lt\n      iszero\n      tag_363\n      jumpi\n      dup4\n      dup3\n      swap1\n      0x00\n      mstore\n      keccak256(0x00, 0x20)\n      swap1\n      0x03\n      mul\n      add\n      mload(0x40)\n      dup1\n      0x80\n      add\n      0x40\n      mstore\n      swap1\n      dup2\n      0x00\n      dup3\n      add\n      0x00\n      swap1\n      sload\n      swap1\n      0x0100\n      exp\n      swap1\n      div\n      0xff\n      and\n      iszero\n      iszero\n      iszero\n      iszero\n      dup2\n      mstore\n      0x20\n      add\n      0x00\n      dup3\n      add\n      0x01\n      swap1\n      sload\n      swap1\n      0x0100\n      exp\n      swap1\n      div\n      0xffffffffffffffffffffffffffffffffffffffff\n      and\n      0xffffffffffffffffffffffffffffffffffffffff\n      and\n      0xffffffffffffffffffffffffffffffffffffffff\n      and\n      dup2\n      mstore\n      0x20\n      add\n      0x01\n      dup3\n      add\n      sload\n      dup2\n      mstore\n      0x20\n      add\n      0x02\n      dup3\n      add\n      dup1\n      sload\n      tag_365\n      swap1\n      tag_180\n      jump\t// in\n    tag_365:\n      dup1\n      0x1f\n      add\n      0x20\n      dup1\n      swap2\n      div\n      mul\n      0x20\n      add\n      mload(0x40)\n      swap1\n      dup2\n      add\n      0x40\n      mstore\n      dup1\n      swap3\n      swap2\n      swap1\n      dup2\n      dup2\n      mstore\n      0x20\n      add\n      dup3\n      dup1\n      sload\n      tag_366\n      swap1\n      tag_180\n      jump\t// in\n    tag_366:\n      dup1\n      iszero\n      tag_367\n      jumpi\n      dup1\n      0x1f\n      lt\n      tag_368\n      jumpi\n      0x0100\n      dup1\n      dup4\n      sload\n      div\n      mul\n      dup4\n      mstore\n      swap2\n      0x20\n      add\n      swap2\n      jump(tag_367)\n    tag_368:\n      dup3\n      add\n      swap2\n      swap1\n      0x00\n      mstore\n      keccak256(0x00, 0x20)\n      swap1\n    tag_369:\n      dup2\n      sload\n      dup2\n      mstore\n      swap1\n      0x01\n      add\n      swap1\n      0x20\n      add\n      dup1\n      dup4\n      gt\n      tag_369\n      jumpi\n      dup3\n      swap1\n      sub\n      0x1f\n      and\n      dup3\n      add\n      swap2\n    tag_367:\n      pop\n      pop\n      pop\n      pop\n      pop\n      dup2\n      mstore\n      pop\n      pop\n      dup2\n      mstore\n      0x20\n      add\n      swap1\n      0x01\n      add\n      swap1\n      jump(tag_362)\n    tag_363:\n      pop\n      pop\n      pop\n      pop\n      dup2\n      mstore\n      pop\n      pop\n      dup2\n      mstore\n      0x20\n      add\n      swap1\n      0x01\n      add\n      swap1\n      jump(tag_354)\n    tag_355:\n      pop\n      pop\n      pop\n      pop\n      swap1\n      pop\n        /* \"blockpedia.sol\":1416:1527  function getAllPaginasComTodasVersoes() public view returns (Pagina[] memory) {\r... */\n      swap1\n      jump\t// out\n        /* \"blockpedia.sol\":4640:5161  function adicionaNovaVercaoDesativadaAPaginaPorIndexPaginas(uint _index, string memory _conteudo) public somenteSeAtivo\r... */\n    tag_105:\n        /* \"blockpedia.sol\":8051:8056  ativo */\n      0x00\n      dup1\n      sload\n      swap1\n      0x0100\n      exp\n      swap1\n      div\n      0xff\n      and\n        /* \"blockpedia.sol\":8043:8113  require(ativo, \"A acao so e permitida quando a Blockpedia esta ativa\") */\n      tag_371\n      jumpi\n      mload(0x40)\n      0x08c379a000000000000000000000000000000000000000000000000000000000\n      dup2\n      mstore\n      0x04\n      add\n      tag_372\n      swap1\n      tag_163\n      jump\t// in\n    tag_372:\n      mload(0x40)\n      dup1\n      swap2\n      sub\n      swap1\n      revert\n    tag_371:\n        /* \"blockpedia.sol\":4793:4800  paginas */\n      0x01\n        /* \"blockpedia.sol\":4793:4807  paginas.length */\n      dup1\n      sload\n      swap1\n      pop\n        /* \"blockpedia.sol\":4784:4790  _index */\n      dup3\n        /* \"blockpedia.sol\":4784:4807  _index < paginas.length */\n      lt\n        /* \"blockpedia.sol\":4776:4834  require(_index < paginas.length, \"Indice fora do alcance\") */\n      tag_374\n      jumpi\n      mload(0x40)\n      0x08c379a000000000000000000000000000000000000000000000000000000000\n      dup2\n      mstore\n      0x04\n      add\n      tag_375\n      swap1\n      tag_224\n      jump\t// in\n    tag_375:\n      mload(0x40)\n      dup1\n      swap2\n      sub\n      swap1\n      revert\n    tag_374:\n        /* \"blockpedia.sol\":4853:4860  paginas */\n      0x01\n        /* \"blockpedia.sol\":4861:4867  _index */\n      dup3\n        /* \"blockpedia.sol\":4853:4868  paginas[_index] */\n      dup2\n      sload\n      dup2\n      lt\n      tag_376\n      jumpi\n      mstore(0x00, 0x4e487b7100000000000000000000000000000000000000000000000000000000)\n      mstore(0x04, 0x32)\n      revert(0x00, 0x24)\n    tag_376:\n      swap1\n      0x00\n      mstore\n      keccak256(0x00, 0x20)\n      swap1\n      0x04\n      mul\n      add\n        /* \"blockpedia.sol\":4853:4874  paginas[_index].ativo */\n      0x00\n      add\n      0x00\n      swap1\n      sload\n      swap1\n      0x0100\n      exp\n      swap1\n      div\n      0xff\n      and\n        /* \"blockpedia.sol\":4845:4946  require(paginas[_index].ativo, \"A adicao de novas vercoes so e permitida quando a pagina esta ativa\") */\n      tag_378\n      jumpi\n      mload(0x40)\n      0x08c379a000000000000000000000000000000000000000000000000000000000\n      dup2\n      mstore\n      0x04\n      add\n      tag_379\n      swap1\n      tag_380\n      jump\t// in\n    tag_379:\n      mload(0x40)\n      dup1\n      swap2\n      sub\n      swap1\n      revert\n    tag_378:\n        /* \"blockpedia.sol\":4967:4974  paginas */\n      0x01\n        /* \"blockpedia.sol\":4975:4981  _index */\n      dup3\n        /* \"blockpedia.sol\":4967:4982  paginas[_index] */\n      dup2\n      sload\n      dup2\n      lt\n      tag_381\n      jumpi\n      mstore(0x00, 0x4e487b7100000000000000000000000000000000000000000000000000000000)\n      mstore(0x04, 0x32)\n      revert(0x00, 0x24)\n    tag_381:\n      swap1\n      0x00\n      mstore\n      keccak256(0x00, 0x20)\n      swap1\n      0x04\n      mul\n      add\n        /* \"blockpedia.sol\":4967:4990  paginas[_index].versoes */\n      0x03\n      add\n        /* \"blockpedia.sol\":4996:5152  Versao({\r... */\n      mload(0x40)\n      dup1\n      0x80\n      add\n      0x40\n      mstore\n      dup1\n        /* \"blockpedia.sol\":5025:5030  false */\n      0x00\n        /* \"blockpedia.sol\":4996:5152  Versao({\r... */\n      iszero\n      iszero\n      dup2\n      mstore\n      0x20\n      add\n        /* \"blockpedia.sol\":5052:5062  msg.sender */\n      caller\n        /* \"blockpedia.sol\":4996:5152  Versao({\r... */\n      0xffffffffffffffffffffffffffffffffffffffff\n      and\n      dup2\n      mstore\n      0x20\n      add\n        /* \"blockpedia.sol\":5091:5106  block.timestamp */\n      timestamp\n        /* \"blockpedia.sol\":4996:5152  Versao({\r... */\n      dup2\n      mstore\n      0x20\n      add\n        /* \"blockpedia.sol\":5131:5140  _conteudo */\n      dup4\n        /* \"blockpedia.sol\":4996:5152  Versao({\r... */\n      dup2\n      mstore\n      pop\n        /* \"blockpedia.sol\":4967:5153  paginas[_index].versoes.push(Versao({\r... */\n      swap1\n      dup1\n      0x01\n      dup2\n      sload\n      add\n      dup1\n      dup3\n      sstore\n      dup1\n      swap2\n      pop\n      pop\n      0x01\n      swap1\n      sub\n      swap1\n      0x00\n      mstore\n      keccak256(0x00, 0x20)\n      swap1\n      0x03\n      mul\n      add\n      0x00\n      swap1\n      swap2\n      swap1\n      swap2\n      swap1\n      swap2\n      pop\n      0x00\n      dup3\n      add\n      mload\n      dup2\n      0x00\n      add\n      exp(0x0100, 0x00)\n      dup2\n      sload\n      dup2\n      0xff\n      mul\n      not\n      and\n      swap1\n      dup4\n      iszero\n      iszero\n      mul\n      or\n      swap1\n      sstore\n      pop\n      0x20\n      dup3\n      add\n      mload\n      dup2\n      0x00\n      add\n      exp(0x0100, 0x01)\n      dup2\n      sload\n      dup2\n      0xffffffffffffffffffffffffffffffffffffffff\n      mul\n      not\n      and\n      swap1\n      dup4\n      0xffffffffffffffffffffffffffffffffffffffff\n      and\n      mul\n      or\n      swap1\n      sstore\n      pop\n      0x40\n      dup3\n      add\n      mload\n      dup2\n      0x01\n      add\n      sstore\n      0x60\n      dup3\n      add\n      mload\n      dup2\n      0x02\n      add\n      swap1\n      dup1\n      mload\n      swap1\n      0x20\n      add\n      swap1\n      tag_384\n      swap3\n      swap2\n      swap1\n      tag_172\n      jump\t// in\n    tag_384:\n      pop\n      pop\n      pop\n        /* \"blockpedia.sol\":4640:5161  function adicionaNovaVercaoDesativadaAPaginaPorIndexPaginas(uint _index, string memory _conteudo) public somenteSeAtivo\r... */\n      pop\n      pop\n      jump\t// out\n        /* \"blockpedia.sol\":6093:6381  function desativaPaginaPorIndexPaginas(uint _indexPagina)public somenteSeAtivo\r... */\n    tag_109:\n        /* \"blockpedia.sol\":8051:8056  ativo */\n      0x00\n      dup1\n      sload\n      swap1\n      0x0100\n      exp\n      swap1\n      div\n      0xff\n      and\n        /* \"blockpedia.sol\":8043:8113  require(ativo, \"A acao so e permitida quando a Blockpedia esta ativa\") */\n      tag_386\n      jumpi\n      mload(0x40)\n      0x08c379a000000000000000000000000000000000000000000000000000000000\n      dup2\n      mstore\n      0x04\n      add\n      tag_387\n      swap1\n      tag_163\n      jump\t// in\n    tag_387:\n      mload(0x40)\n      dup1\n      swap2\n      sub\n      swap1\n      revert\n    tag_386:\n        /* \"blockpedia.sol\":6211:6218  paginas */\n      0x01\n        /* \"blockpedia.sol\":6211:6225  paginas.length */\n      dup1\n      sload\n      swap1\n      pop\n        /* \"blockpedia.sol\":6196:6208  _indexPagina */\n      dup2\n        /* \"blockpedia.sol\":6196:6225  _indexPagina < paginas.length */\n      lt\n        /* \"blockpedia.sol\":6188:6262  require(_indexPagina < paginas.length, \"Indice da pagina fora do alcance\") */\n      tag_389\n      jumpi\n      mload(0x40)\n      0x08c379a000000000000000000000000000000000000000000000000000000000\n      dup2\n      mstore\n      0x04\n      add\n      tag_390\n      swap1\n      tag_246\n      jump\t// in\n    tag_390:\n      mload(0x40)\n      dup1\n      swap2\n      sub\n      swap1\n      revert\n    tag_389:\n        /* \"blockpedia.sol\":6279:6286  paginas */\n      0x01\n        /* \"blockpedia.sol\":6287:6299  _indexPagina */\n      dup2\n        /* \"blockpedia.sol\":6279:6300  paginas[_indexPagina] */\n      dup2\n      sload\n      dup2\n      lt\n      tag_391\n      jumpi\n      mstore(0x00, 0x4e487b7100000000000000000000000000000000000000000000000000000000)\n      mstore(0x04, 0x32)\n      revert(0x00, 0x24)\n    tag_391:\n      swap1\n      0x00\n      mstore\n      keccak256(0x00, 0x20)\n      swap1\n      0x04\n      mul\n      add\n        /* \"blockpedia.sol\":6279:6306  paginas[_indexPagina].ativo */\n      0x00\n      add\n      0x00\n      swap1\n      sload\n      swap1\n      0x0100\n      exp\n      swap1\n      div\n      0xff\n      and\n        /* \"blockpedia.sol\":6275:6328  if(!paginas[_indexPagina].ativo)\r... */\n      tag_393\n      jumpi\n        /* \"blockpedia.sol\":6321:6328  return; */\n      jump(tag_388)\n        /* \"blockpedia.sol\":6275:6328  if(!paginas[_indexPagina].ativo)\r... */\n    tag_393:\n        /* \"blockpedia.sol\":6368:6373  false */\n      0x00\n        /* \"blockpedia.sol\":6340:6347  paginas */\n      0x01\n        /* \"blockpedia.sol\":6348:6360  _indexPagina */\n      dup3\n        /* \"blockpedia.sol\":6340:6361  paginas[_indexPagina] */\n      dup2\n      sload\n      dup2\n      lt\n      tag_394\n      jumpi\n      mstore(0x00, 0x4e487b7100000000000000000000000000000000000000000000000000000000)\n      mstore(0x04, 0x32)\n      revert(0x00, 0x24)\n    tag_394:\n      swap1\n      0x00\n      mstore\n      keccak256(0x00, 0x20)\n      swap1\n      0x04\n      mul\n      add\n        /* \"blockpedia.sol\":6340:6367  paginas[_indexPagina].ativo */\n      0x00\n      add\n      0x00\n        /* \"blockpedia.sol\":6340:6373  paginas[_indexPagina].ativo=false */\n      0x0100\n      exp\n      dup2\n      sload\n      dup2\n      0xff\n      mul\n      not\n      and\n      swap1\n      dup4\n      iszero\n      iszero\n      mul\n      or\n      swap1\n      sstore\n      pop\n        /* \"blockpedia.sol\":8124:8125  _ */\n    tag_388:\n        /* \"blockpedia.sol\":6093:6381  function desativaPaginaPorIndexPaginas(uint _indexPagina)public somenteSeAtivo\r... */\n      pop\n      jump\t// out\n        /* \"blockpedia.sol\":202:225  Pagina[] public paginas */\n    tag_113:\n      0x01\n      dup2\n      dup2\n      sload\n      dup2\n      lt\n      tag_396\n      jumpi\n      0x00\n      dup1\n      revert\n    tag_396:\n      swap1\n      0x00\n      mstore\n      keccak256(0x00, 0x20)\n      swap1\n      0x04\n      mul\n      add\n      0x00\n      swap2\n      pop\n      swap1\n      pop\n      dup1\n      0x00\n      add\n      0x00\n      swap1\n      sload\n      swap1\n      0x0100\n      exp\n      swap1\n      div\n      0xff\n      and\n      swap1\n      dup1\n      0x00\n      add\n      0x01\n      swap1\n      sload\n      swap1\n      0x0100\n      exp\n      swap1\n      div\n      0xffffffffffffffffffffffffffffffffffffffff\n      and\n      swap1\n      dup1\n      0x01\n      add\n      sload\n      swap1\n      dup1\n      0x02\n      add\n      dup1\n      sload\n      tag_398\n      swap1\n      tag_180\n      jump\t// in\n    tag_398:\n      dup1\n      0x1f\n      add\n      0x20\n      dup1\n      swap2\n      div\n      mul\n      0x20\n      add\n      mload(0x40)\n      swap1\n      dup2\n      add\n      0x40\n      mstore\n      dup1\n      swap3\n      swap2\n      swap1\n      dup2\n      dup2\n      mstore\n      0x20\n      add\n      dup3\n      dup1\n      sload\n      tag_399\n      swap1\n      tag_180\n      jump\t// in\n    tag_399:\n      dup1\n      iszero\n      tag_400\n      jumpi\n      dup1\n      0x1f\n      lt\n      tag_401\n      jumpi\n      0x0100\n      dup1\n      dup4\n      sload\n      div\n      mul\n      dup4\n      mstore\n      swap2\n      0x20\n      add\n      swap2\n      jump(tag_400)\n    tag_401:\n      dup3\n      add\n      swap2\n      swap1\n      0x00\n      mstore\n      keccak256(0x00, 0x20)\n      swap1\n    tag_402:\n      dup2\n      sload\n      dup2\n      mstore\n      swap1\n      0x01\n      add\n      swap1\n      0x20\n      add\n      dup1\n      dup4\n      gt\n      tag_402\n      jumpi\n      dup3\n      swap1\n      sub\n      0x1f\n      and\n      dup3\n      add\n      swap2\n    tag_400:\n      pop\n      pop\n      pop\n      pop\n      pop\n      swap1\n      pop\n      dup5\n      jump\t// out\n        /* \"blockpedia.sol\":1245:1408  function getInformacoesBlockpedia() public view returns(bool, address, uint256, uint256)\r... */\n    tag_118:\n        /* \"blockpedia.sol\":1301:1305  bool */\n      0x00\n        /* \"blockpedia.sol\":1307:1314  address */\n      dup1\n        /* \"blockpedia.sol\":1316:1323  uint256 */\n      0x00\n        /* \"blockpedia.sol\":1325:1332  uint256 */\n      dup1\n        /* \"blockpedia.sol\":1358:1363  ativo */\n      0x00\n      dup1\n      sload\n      swap1\n      0x0100\n      exp\n      swap1\n      div\n      0xff\n      and\n        /* \"blockpedia.sol\":1365:1370  autor */\n      immutable(\"0xe455bf8ea6e7463a1046a0b52804526e119b4bf5136279614e0b1e8e296a4e2d\")\n        /* \"blockpedia.sol\":1372:1383  dataCriacao */\n      immutable(\"0xe4b1702d9298fee62dfeccc57d322a463ad55ca201256d01f62b45b2e1c21c10\")\n        /* \"blockpedia.sol\":1385:1392  paginas */\n      0x01\n        /* \"blockpedia.sol\":1385:1399  paginas.length */\n      dup1\n      sload\n      swap1\n      pop\n        /* \"blockpedia.sol\":1350:1400  return (ativo, autor, dataCriacao, paginas.length) */\n      swap4\n      pop\n      swap4\n      pop\n      swap4\n      pop\n      swap4\n      pop\n        /* \"blockpedia.sol\":1245:1408  function getInformacoesBlockpedia() public view returns(bool, address, uint256, uint256)\r... */\n      swap1\n      swap2\n      swap3\n      swap4\n      jump\t// out\n        /* \"blockpedia.sol\":4047:4368  function existeTituloAtivo(string memory _titulo) internal view returns (bool)\r... */\n    tag_166:\n        /* \"blockpedia.sol\":4120:4124  bool */\n      0x00\n        /* \"blockpedia.sol\":4147:4153  uint i */\n      dup1\n        /* \"blockpedia.sol\":4156:4157  0 */\n      0x00\n        /* \"blockpedia.sol\":4147:4157  uint i = 0 */\n      swap1\n      pop\n        /* \"blockpedia.sol\":4142:4338  for (uint i = 0; i < paginas.length; i++)\r... */\n    tag_405:\n        /* \"blockpedia.sol\":4163:4170  paginas */\n      0x01\n        /* \"blockpedia.sol\":4163:4177  paginas.length */\n      dup1\n      sload\n      swap1\n      pop\n        /* \"blockpedia.sol\":4159:4160  i */\n      dup2\n        /* \"blockpedia.sol\":4159:4177  i < paginas.length */\n      lt\n        /* \"blockpedia.sol\":4142:4338  for (uint i = 0; i < paginas.length; i++)\r... */\n      iszero\n      tag_406\n      jumpi\n        /* \"blockpedia.sol\":4212:4219  paginas */\n      0x01\n        /* \"blockpedia.sol\":4220:4221  i */\n      dup2\n        /* \"blockpedia.sol\":4212:4222  paginas[i] */\n      dup2\n      sload\n      dup2\n      lt\n      tag_408\n      jumpi\n      mstore(0x00, 0x4e487b7100000000000000000000000000000000000000000000000000000000)\n      mstore(0x04, 0x32)\n      revert(0x00, 0x24)\n    tag_408:\n      swap1\n      0x00\n      mstore\n      keccak256(0x00, 0x20)\n      swap1\n      0x04\n      mul\n      add\n        /* \"blockpedia.sol\":4212:4228  paginas[i].ativo */\n      0x00\n      add\n      0x00\n      swap1\n      sload\n      swap1\n      0x0100\n      exp\n      swap1\n      div\n      0xff\n      and\n        /* \"blockpedia.sol\":4208:4326  if (paginas[i].ativo)\r... */\n      iszero\n      tag_410\n      jumpi\n        /* \"blockpedia.sol\":4251:4292  comparaString(paginas[i].titulo, _titulo) */\n      tag_411\n        /* \"blockpedia.sol\":4265:4272  paginas */\n      0x01\n        /* \"blockpedia.sol\":4273:4274  i */\n      dup3\n        /* \"blockpedia.sol\":4265:4275  paginas[i] */\n      dup2\n      sload\n      dup2\n      lt\n      tag_412\n      jumpi\n      mstore(0x00, 0x4e487b7100000000000000000000000000000000000000000000000000000000)\n      mstore(0x04, 0x32)\n      revert(0x00, 0x24)\n    tag_412:\n      swap1\n      0x00\n      mstore\n      keccak256(0x00, 0x20)\n      swap1\n      0x04\n      mul\n      add\n        /* \"blockpedia.sol\":4265:4282  paginas[i].titulo */\n      0x02\n      add\n        /* \"blockpedia.sol\":4251:4292  comparaString(paginas[i].titulo, _titulo) */\n      dup1\n      sload\n      tag_414\n      swap1\n      tag_180\n      jump\t// in\n    tag_414:\n      dup1\n      0x1f\n      add\n      0x20\n      dup1\n      swap2\n      div\n      mul\n      0x20\n      add\n      mload(0x40)\n      swap1\n      dup2\n      add\n      0x40\n      mstore\n      dup1\n      swap3\n      swap2\n      swap1\n      dup2\n      dup2\n      mstore\n      0x20\n      add\n      dup3\n      dup1\n      sload\n      tag_415\n      swap1\n      tag_180\n      jump\t// in\n    tag_415:\n      dup1\n      iszero\n      tag_416\n      jumpi\n      dup1\n      0x1f\n      lt\n      tag_417\n      jumpi\n      0x0100\n      dup1\n      dup4\n      sload\n      div\n      mul\n      dup4\n      mstore\n      swap2\n      0x20\n      add\n      swap2\n      jump(tag_416)\n    tag_417:\n      dup3\n      add\n      swap2\n      swap1\n      0x00\n      mstore\n      keccak256(0x00, 0x20)\n      swap1\n    tag_418:\n      dup2\n      sload\n      dup2\n      mstore\n      swap1\n      0x01\n      add\n      swap1\n      0x20\n      add\n      dup1\n      dup4\n      gt\n      tag_418\n      jumpi\n      dup3\n      swap1\n      sub\n      0x1f\n      and\n      dup3\n      add\n      swap2\n    tag_416:\n      pop\n      pop\n      pop\n      pop\n      pop\n        /* \"blockpedia.sol\":4284:4291  _titulo */\n      dup5\n        /* \"blockpedia.sol\":4251:4264  comparaString */\n      tag_207\n        /* \"blockpedia.sol\":4251:4292  comparaString(paginas[i].titulo, _titulo) */\n      jump\t// in\n    tag_411:\n        /* \"blockpedia.sol\":4247:4326  if (comparaString(paginas[i].titulo, _titulo))\r... */\n      iszero\n      tag_419\n      jumpi\n        /* \"blockpedia.sol\":4322:4326  true */\n      0x01\n        /* \"blockpedia.sol\":4315:4326  return true */\n      swap2\n      pop\n      pop\n      jump(tag_404)\n        /* \"blockpedia.sol\":4247:4326  if (comparaString(paginas[i].titulo, _titulo))\r... */\n    tag_419:\n        /* \"blockpedia.sol\":4208:4326  if (paginas[i].ativo)\r... */\n    tag_410:\n        /* \"blockpedia.sol\":4179:4182  i++ */\n      dup1\n      dup1\n      tag_420\n      swap1\n      tag_154\n      jump\t// in\n    tag_420:\n      swap2\n      pop\n      pop\n        /* \"blockpedia.sol\":4142:4338  for (uint i = 0; i < paginas.length; i++)\r... */\n      jump(tag_405)\n    tag_406:\n      pop\n        /* \"blockpedia.sol\":4355:4360  false */\n      0x00\n        /* \"blockpedia.sol\":4348:4360  return false */\n      swap1\n      pop\n        /* \"blockpedia.sol\":4047:4368  function existeTituloAtivo(string memory _titulo) internal view returns (bool)\r... */\n    tag_404:\n      swap2\n      swap1\n      pop\n      jump\t// out\n        /* \"blockpedia.sol\":7523:7995  function comparaString(string memory _primeiraString, string memory _segundaString)internal pure returns(bool)\r... */\n    tag_207:\n        /* \"blockpedia.sol\":7628:7632  bool */\n      0x00\n        /* \"blockpedia.sol\":7957:7971  _segundaString */\n      dup2\n        /* \"blockpedia.sol\":7940:7972  abi.encodePacked(_segundaString) */\n      add(0x20, mload(0x40))\n      tag_422\n      swap2\n      swap1\n      tag_423\n      jump\t// in\n    tag_422:\n      mload(0x40)\n      0x20\n      dup2\n      dup4\n      sub\n      sub\n      dup2\n      mstore\n      swap1\n      0x40\n      mstore\n        /* \"blockpedia.sol\":7930:7973  keccak256(abi.encodePacked(_segundaString)) */\n      dup1\n      mload\n      swap1\n      0x20\n      add\n      keccak256\n        /* \"blockpedia.sol\":7909:7924  _primeiraString */\n      dup4\n        /* \"blockpedia.sol\":7892:7925  abi.encodePacked(_primeiraString) */\n      add(0x20, mload(0x40))\n      tag_424\n      swap2\n      swap1\n      tag_423\n      jump\t// in\n    tag_424:\n      mload(0x40)\n      0x20\n      dup2\n      dup4\n      sub\n      sub\n      dup2\n      mstore\n      swap1\n      0x40\n      mstore\n        /* \"blockpedia.sol\":7882:7926  keccak256(abi.encodePacked(_primeiraString)) */\n      dup1\n      mload\n      swap1\n      0x20\n      add\n      keccak256\n        /* \"blockpedia.sol\":7882:7973  keccak256(abi.encodePacked(_primeiraString)) == keccak256(abi.encodePacked(_segundaString)) */\n      eq\n        /* \"blockpedia.sol\":7881:7987  (keccak256(abi.encodePacked(_primeiraString)) == keccak256(abi.encodePacked(_segundaString))) ? true:false */\n      tag_425\n      jumpi\n        /* \"blockpedia.sol\":7982:7987  false */\n      0x00\n        /* \"blockpedia.sol\":7881:7987  (keccak256(abi.encodePacked(_primeiraString)) == keccak256(abi.encodePacked(_segundaString))) ? true:false */\n      jump(tag_426)\n    tag_425:\n        /* \"blockpedia.sol\":7977:7981  true */\n      0x01\n        /* \"blockpedia.sol\":7881:7987  (keccak256(abi.encodePacked(_primeiraString)) == keccak256(abi.encodePacked(_segundaString))) ? true:false */\n    tag_426:\n        /* \"blockpedia.sol\":7874:7987  return (keccak256(abi.encodePacked(_primeiraString)) == keccak256(abi.encodePacked(_segundaString))) ? true:false */\n      swap1\n      pop\n        /* \"blockpedia.sol\":7523:7995  function comparaString(string memory _primeiraString, string memory _segundaString)internal pure returns(bool)\r... */\n      swap3\n      swap2\n      pop\n      pop\n      jump\t// out\n    tag_131:\n      mload(0x40)\n      dup1\n      0xa0\n      add\n      0x40\n      mstore\n      dup1\n      iszero(iszero(0x00))\n      dup2\n      mstore\n      0x20\n      add\n      and(0xffffffffffffffffffffffffffffffffffffffff, 0x00)\n      dup2\n      mstore\n      0x20\n      add\n      0x00\n      dup2\n      mstore\n      0x20\n      add\n      0x60\n      dup2\n      mstore\n      0x20\n      add\n      0x60\n      dup2\n      mstore\n      pop\n      swap1\n      jump\t// out\n    tag_139:\n      mload(0x40)\n      dup1\n      0x80\n      add\n      0x40\n      mstore\n      dup1\n      iszero(iszero(0x00))\n      dup2\n      mstore\n      0x20\n      add\n      and(0xffffffffffffffffffffffffffffffffffffffff, 0x00)\n      dup2\n      mstore\n      0x20\n      add\n      0x00\n      dup2\n      mstore\n      0x20\n      add\n      0x60\n      dup2\n      mstore\n      pop\n      swap1\n      jump\t// out\n    tag_172:\n      dup3\n      dup1\n      sload\n      tag_427\n      swap1\n      tag_180\n      jump\t// in\n    tag_427:\n      swap1\n      0x00\n      mstore\n      keccak256(0x00, 0x20)\n      swap1\n      0x1f\n      add\n      0x20\n      swap1\n      div\n      dup2\n      add\n      swap3\n      dup3\n      tag_429\n      jumpi\n      0x00\n      dup6\n      sstore\n      jump(tag_428)\n    tag_429:\n      dup3\n      0x1f\n      lt\n      tag_430\n      jumpi\n      dup1\n      mload\n      not(0xff)\n      and\n      dup4\n      dup1\n      add\n      or\n      dup6\n      sstore\n      jump(tag_428)\n    tag_430:\n      dup3\n      dup1\n      add\n      0x01\n      add\n      dup6\n      sstore\n      dup3\n      iszero\n      tag_428\n      jumpi\n      swap2\n      dup3\n      add\n    tag_431:\n      dup3\n      dup2\n      gt\n      iszero\n      tag_432\n      jumpi\n      dup3\n      mload\n      dup3\n      sstore\n      swap2\n      0x20\n      add\n      swap2\n      swap1\n      0x01\n      add\n      swap1\n      jump(tag_431)\n    tag_432:\n    tag_428:\n      pop\n      swap1\n      pop\n      tag_433\n      swap2\n      swap1\n      tag_434\n      jump\t// in\n    tag_433:\n      pop\n      swap1\n      jump\t// out\n    tag_434:\n    tag_435:\n      dup1\n      dup3\n      gt\n      iszero\n      tag_436\n      jumpi\n      0x00\n      dup2\n      0x00\n      swap1\n      sstore\n      pop\n      0x01\n      add\n      jump(tag_435)\n    tag_436:\n      pop\n      swap1\n      jump\t// out\n        /* \"#utility.yul\":41:707   */\n    tag_438:\n      0x00\n        /* \"#utility.yul\":195:297   */\n      tag_440\n        /* \"#utility.yul\":210:296   */\n      tag_441\n        /* \"#utility.yul\":289:295   */\n      dup5\n        /* \"#utility.yul\":210:296   */\n      tag_442\n      jump\t// in\n    tag_441:\n        /* \"#utility.yul\":195:297   */\n      tag_443\n      jump\t// in\n    tag_440:\n        /* \"#utility.yul\":186:297   */\n      swap1\n      pop\n        /* \"#utility.yul\":317:322   */\n      dup1\n        /* \"#utility.yul\":345:351   */\n      dup4\n        /* \"#utility.yul\":338:343   */\n      dup3\n        /* \"#utility.yul\":331:352   */\n      mstore\n        /* \"#utility.yul\":371:375   */\n      0x20\n        /* \"#utility.yul\":364:369   */\n      dup3\n        /* \"#utility.yul\":360:376   */\n      add\n        /* \"#utility.yul\":353:376   */\n      swap1\n      pop\n        /* \"#utility.yul\":396:402   */\n      dup3\n        /* \"#utility.yul\":427:428   */\n      0x00\n        /* \"#utility.yul\":412:701   */\n    tag_444:\n        /* \"#utility.yul\":437:443   */\n      dup6\n        /* \"#utility.yul\":434:435   */\n      dup2\n        /* \"#utility.yul\":431:444   */\n      lt\n        /* \"#utility.yul\":412:701   */\n      iszero\n      tag_446\n      jumpi\n        /* \"#utility.yul\":522:525   */\n      dup2\n        /* \"#utility.yul\":516:526   */\n      mload\n        /* \"#utility.yul\":508:514   */\n      dup6\n        /* \"#utility.yul\":504:527   */\n      add\n        /* \"#utility.yul\":552:622   */\n      tag_447\n        /* \"#utility.yul\":618:621   */\n      dup9\n        /* \"#utility.yul\":606:616   */\n      dup3\n        /* \"#utility.yul\":552:622   */\n      tag_448\n      jump\t// in\n    tag_447:\n        /* \"#utility.yul\":547:550   */\n      dup5\n        /* \"#utility.yul\":540:623   */\n      mstore\n        /* \"#utility.yul\":652:656   */\n      0x20\n        /* \"#utility.yul\":647:650   */\n      dup5\n        /* \"#utility.yul\":643:657   */\n      add\n        /* \"#utility.yul\":636:657   */\n      swap4\n      pop\n        /* \"#utility.yul\":686:690   */\n      0x20\n        /* \"#utility.yul\":681:684   */\n      dup4\n        /* \"#utility.yul\":677:691   */\n      add\n        /* \"#utility.yul\":670:691   */\n      swap3\n      pop\n        /* \"#utility.yul\":472:701   */\n      pop\n        /* \"#utility.yul\":459:460   */\n      0x01\n        /* \"#utility.yul\":456:457   */\n      dup2\n        /* \"#utility.yul\":452:461   */\n      add\n        /* \"#utility.yul\":447:461   */\n      swap1\n      pop\n        /* \"#utility.yul\":412:701   */\n      jump(tag_444)\n    tag_446:\n        /* \"#utility.yul\":416:430   */\n      pop\n        /* \"#utility.yul\":176:707   */\n      pop\n      pop\n      swap4\n      swap3\n      pop\n      pop\n      pop\n      jump\t// out\n        /* \"#utility.yul\":747:1398   */\n    tag_449:\n      0x00\n        /* \"#utility.yul\":890:992   */\n      tag_451\n        /* \"#utility.yul\":905:991   */\n      tag_452\n        /* \"#utility.yul\":984:990   */\n      dup5\n        /* \"#utility.yul\":905:991   */\n      tag_453\n      jump\t// in\n    tag_452:\n        /* \"#utility.yul\":890:992   */\n      tag_443\n      jump\t// in\n    tag_451:\n        /* \"#utility.yul\":881:992   */\n      swap1\n      pop\n        /* \"#utility.yul\":1012:1017   */\n      dup1\n        /* \"#utility.yul\":1040:1046   */\n      dup4\n        /* \"#utility.yul\":1033:1038   */\n      dup3\n        /* \"#utility.yul\":1026:1047   */\n      mstore\n        /* \"#utility.yul\":1066:1070   */\n      0x20\n        /* \"#utility.yul\":1059:1064   */\n      dup3\n        /* \"#utility.yul\":1055:1071   */\n      add\n        /* \"#utility.yul\":1048:1071   */\n      swap1\n      pop\n        /* \"#utility.yul\":1091:1097   */\n      dup3\n        /* \"#utility.yul\":1122:1123   */\n      0x00\n        /* \"#utility.yul\":1107:1392   */\n    tag_454:\n        /* \"#utility.yul\":1132:1138   */\n      dup6\n        /* \"#utility.yul\":1129:1130   */\n      dup2\n        /* \"#utility.yul\":1126:1139   */\n      lt\n        /* \"#utility.yul\":1107:1392   */\n      iszero\n      tag_456\n      jumpi\n        /* \"#utility.yul\":1224:1227   */\n      dup2\n        /* \"#utility.yul\":1211:1228   */\n      calldataload\n        /* \"#utility.yul\":1203:1209   */\n      dup6\n        /* \"#utility.yul\":1199:1229   */\n      add\n        /* \"#utility.yul\":1254:1313   */\n      tag_457\n        /* \"#utility.yul\":1309:1312   */\n      dup9\n        /* \"#utility.yul\":1297:1307   */\n      dup3\n        /* \"#utility.yul\":1254:1313   */\n      tag_458\n      jump\t// in\n    tag_457:\n        /* \"#utility.yul\":1249:1252   */\n      dup5\n        /* \"#utility.yul\":1242:1314   */\n      mstore\n        /* \"#utility.yul\":1343:1347   */\n      0x20\n        /* \"#utility.yul\":1338:1341   */\n      dup5\n        /* \"#utility.yul\":1334:1348   */\n      add\n        /* \"#utility.yul\":1327:1348   */\n      swap4\n      pop\n        /* \"#utility.yul\":1377:1381   */\n      0x20\n        /* \"#utility.yul\":1372:1375   */\n      dup4\n        /* \"#utility.yul\":1368:1382   */\n      add\n        /* \"#utility.yul\":1361:1382   */\n      swap3\n      pop\n        /* \"#utility.yul\":1167:1392   */\n      pop\n        /* \"#utility.yul\":1154:1155   */\n      0x01\n        /* \"#utility.yul\":1151:1152   */\n      dup2\n        /* \"#utility.yul\":1147:1156   */\n      add\n        /* \"#utility.yul\":1142:1156   */\n      swap1\n      pop\n        /* \"#utility.yul\":1107:1392   */\n      jump(tag_454)\n    tag_456:\n        /* \"#utility.yul\":1111:1125   */\n      pop\n        /* \"#utility.yul\":871:1398   */\n      pop\n      pop\n      swap4\n      swap3\n      pop\n      pop\n      pop\n      jump\t// out\n        /* \"#utility.yul\":1438:2104   */\n    tag_459:\n      0x00\n        /* \"#utility.yul\":1592:1694   */\n      tag_461\n        /* \"#utility.yul\":1607:1693   */\n      tag_462\n        /* \"#utility.yul\":1686:1692   */\n      dup5\n        /* \"#utility.yul\":1607:1693   */\n      tag_453\n      jump\t// in\n    tag_462:\n        /* \"#utility.yul\":1592:1694   */\n      tag_443\n      jump\t// in\n    tag_461:\n        /* \"#utility.yul\":1583:1694   */\n      swap1\n      pop\n        /* \"#utility.yul\":1714:1719   */\n      dup1\n        /* \"#utility.yul\":1742:1748   */\n      dup4\n        /* \"#utility.yul\":1735:1740   */\n      dup3\n        /* \"#utility.yul\":1728:1749   */\n      mstore\n        /* \"#utility.yul\":1768:1772   */\n      0x20\n        /* \"#utility.yul\":1761:1766   */\n      dup3\n        /* \"#utility.yul\":1757:1773   */\n      add\n        /* \"#utility.yul\":1750:1773   */\n      swap1\n      pop\n        /* \"#utility.yul\":1793:1799   */\n      dup3\n        /* \"#utility.yul\":1824:1825   */\n      0x00\n        /* \"#utility.yul\":1809:2098   */\n    tag_463:\n        /* \"#utility.yul\":1834:1840   */\n      dup6\n        /* \"#utility.yul\":1831:1832   */\n      dup2\n        /* \"#utility.yul\":1828:1841   */\n      lt\n        /* \"#utility.yul\":1809:2098   */\n      iszero\n      tag_465\n      jumpi\n        /* \"#utility.yul\":1919:1922   */\n      dup2\n        /* \"#utility.yul\":1913:1923   */\n      mload\n        /* \"#utility.yul\":1905:1911   */\n      dup6\n        /* \"#utility.yul\":1901:1924   */\n      add\n        /* \"#utility.yul\":1949:2019   */\n      tag_466\n        /* \"#utility.yul\":2015:2018   */\n      dup9\n        /* \"#utility.yul\":2003:2013   */\n      dup3\n        /* \"#utility.yul\":1949:2019   */\n      tag_467\n      jump\t// in\n    tag_466:\n        /* \"#utility.yul\":1944:1947   */\n      dup5\n        /* \"#utility.yul\":1937:2020   */\n      mstore\n        /* \"#utility.yul\":2049:2053   */\n      0x20\n        /* \"#utility.yul\":2044:2047   */\n      dup5\n        /* \"#utility.yul\":2040:2054   */\n      add\n        /* \"#utility.yul\":2033:2054   */\n      swap4\n      pop\n        /* \"#utility.yul\":2083:2087   */\n      0x20\n        /* \"#utility.yul\":2078:2081   */\n      dup4\n        /* \"#utility.yul\":2074:2088   */\n      add\n        /* \"#utility.yul\":2067:2088   */\n      swap3\n      pop\n        /* \"#utility.yul\":1869:2098   */\n      pop\n        /* \"#utility.yul\":1856:1857   */\n      0x01\n        /* \"#utility.yul\":1853:1854   */\n      dup2\n        /* \"#utility.yul\":1849:1858   */\n      add\n        /* \"#utility.yul\":1844:1858   */\n      swap1\n      pop\n        /* \"#utility.yul\":1809:2098   */\n      jump(tag_463)\n    tag_465:\n        /* \"#utility.yul\":1813:1827   */\n      pop\n        /* \"#utility.yul\":1573:2104   */\n      pop\n      pop\n      swap4\n      swap3\n      pop\n      pop\n      pop\n      jump\t// out\n        /* \"#utility.yul\":2110:2454   */\n    tag_468:\n      0x00\n        /* \"#utility.yul\":2213:2278   */\n      tag_470\n        /* \"#utility.yul\":2228:2277   */\n      tag_471\n        /* \"#utility.yul\":2270:2276   */\n      dup5\n        /* \"#utility.yul\":2228:2277   */\n      tag_472\n      jump\t// in\n    tag_471:\n        /* \"#utility.yul\":2213:2278   */\n      tag_443\n      jump\t// in\n    tag_470:\n        /* \"#utility.yul\":2204:2278   */\n      swap1\n      pop\n        /* \"#utility.yul\":2301:2307   */\n      dup3\n        /* \"#utility.yul\":2294:2299   */\n      dup2\n        /* \"#utility.yul\":2287:2308   */\n      mstore\n        /* \"#utility.yul\":2339:2343   */\n      0x20\n        /* \"#utility.yul\":2332:2337   */\n      dup2\n        /* \"#utility.yul\":2328:2344   */\n      add\n        /* \"#utility.yul\":2377:2380   */\n      dup5\n        /* \"#utility.yul\":2368:2374   */\n      dup5\n        /* \"#utility.yul\":2363:2366   */\n      dup5\n        /* \"#utility.yul\":2359:2375   */\n      add\n        /* \"#utility.yul\":2356:2381   */\n      gt\n        /* \"#utility.yul\":2353:2355   */\n      iszero\n      tag_473\n      jumpi\n        /* \"#utility.yul\":2394:2395   */\n      0x00\n        /* \"#utility.yul\":2391:2392   */\n      dup1\n        /* \"#utility.yul\":2384:2396   */\n      revert\n        /* \"#utility.yul\":2353:2355   */\n    tag_473:\n        /* \"#utility.yul\":2407:2448   */\n      tag_474\n        /* \"#utility.yul\":2441:2447   */\n      dup5\n        /* \"#utility.yul\":2436:2439   */\n      dup3\n        /* \"#utility.yul\":2431:2434   */\n      dup6\n        /* \"#utility.yul\":2407:2448   */\n      tag_475\n      jump\t// in\n    tag_474:\n        /* \"#utility.yul\":2194:2454   */\n      pop\n      swap4\n      swap3\n      pop\n      pop\n      pop\n      jump\t// out\n        /* \"#utility.yul\":2460:2813   */\n    tag_476:\n      0x00\n        /* \"#utility.yul\":2574:2639   */\n      tag_478\n        /* \"#utility.yul\":2589:2638   */\n      tag_479\n        /* \"#utility.yul\":2631:2637   */\n      dup5\n        /* \"#utility.yul\":2589:2638   */\n      tag_472\n      jump\t// in\n    tag_479:\n        /* \"#utility.yul\":2574:2639   */\n      tag_443\n      jump\t// in\n    tag_478:\n        /* \"#utility.yul\":2565:2639   */\n      swap1\n      pop\n        /* \"#utility.yul\":2662:2668   */\n      dup3\n        /* \"#utility.yul\":2655:2660   */\n      dup2\n        /* \"#utility.yul\":2648:2669   */\n      mstore\n        /* \"#utility.yul\":2700:2704   */\n      0x20\n        /* \"#utility.yul\":2693:2698   */\n      dup2\n        /* \"#utility.yul\":2689:2705   */\n      add\n        /* \"#utility.yul\":2738:2741   */\n      dup5\n        /* \"#utility.yul\":2729:2735   */\n      dup5\n        /* \"#utility.yul\":2724:2727   */\n      dup5\n        /* \"#utility.yul\":2720:2736   */\n      add\n        /* \"#utility.yul\":2717:2742   */\n      gt\n        /* \"#utility.yul\":2714:2716   */\n      iszero\n      tag_480\n      jumpi\n        /* \"#utility.yul\":2755:2756   */\n      0x00\n        /* \"#utility.yul\":2752:2753   */\n      dup1\n        /* \"#utility.yul\":2745:2757   */\n      revert\n        /* \"#utility.yul\":2714:2716   */\n    tag_480:\n        /* \"#utility.yul\":2768:2807   */\n      tag_481\n        /* \"#utility.yul\":2800:2806   */\n      dup5\n        /* \"#utility.yul\":2795:2798   */\n      dup3\n        /* \"#utility.yul\":2790:2793   */\n      dup6\n        /* \"#utility.yul\":2768:2807   */\n      tag_482\n      jump\t// in\n    tag_481:\n        /* \"#utility.yul\":2555:2813   */\n      pop\n      swap4\n      swap3\n      pop\n      pop\n      pop\n      jump\t// out\n        /* \"#utility.yul\":2819:2958   */\n    tag_483:\n      0x00\n        /* \"#utility.yul\":2903:2909   */\n      dup2\n        /* \"#utility.yul\":2890:2910   */\n      calldataload\n        /* \"#utility.yul\":2881:2910   */\n      swap1\n      pop\n        /* \"#utility.yul\":2919:2952   */\n      tag_485\n        /* \"#utility.yul\":2946:2951   */\n      dup2\n        /* \"#utility.yul\":2919:2952   */\n      tag_486\n      jump\t// in\n    tag_485:\n        /* \"#utility.yul\":2871:2958   */\n      swap3\n      swap2\n      pop\n      pop\n      jump\t// out\n        /* \"#utility.yul\":2964:3107   */\n    tag_487:\n      0x00\n        /* \"#utility.yul\":3052:3058   */\n      dup2\n        /* \"#utility.yul\":3046:3059   */\n      mload\n        /* \"#utility.yul\":3037:3059   */\n      swap1\n      pop\n        /* \"#utility.yul\":3068:3101   */\n      tag_489\n        /* \"#utility.yul\":3095:3100   */\n      dup2\n        /* \"#utility.yul\":3068:3101   */\n      tag_486\n      jump\t// in\n    tag_489:\n        /* \"#utility.yul\":3027:3107   */\n      swap3\n      swap2\n      pop\n      pop\n      jump\t// out\n        /* \"#utility.yul\":3147:3509   */\n    tag_490:\n      0x00\n        /* \"#utility.yul\":3300:3303   */\n      dup3\n        /* \"#utility.yul\":3293:3297   */\n      0x1f\n        /* \"#utility.yul\":3285:3291   */\n      dup4\n        /* \"#utility.yul\":3281:3298   */\n      add\n        /* \"#utility.yul\":3277:3304   */\n      slt\n        /* \"#utility.yul\":3267:3269   */\n      tag_492\n      jumpi\n        /* \"#utility.yul\":3318:3319   */\n      0x00\n        /* \"#utility.yul\":3315:3316   */\n      dup1\n        /* \"#utility.yul\":3308:3320   */\n      revert\n        /* \"#utility.yul\":3267:3269   */\n    tag_492:\n        /* \"#utility.yul\":3351:3357   */\n      dup2\n        /* \"#utility.yul\":3345:3358   */\n      mload\n        /* \"#utility.yul\":3376:3503   */\n      tag_493\n        /* \"#utility.yul\":3499:3502   */\n      dup5\n        /* \"#utility.yul\":3491:3497   */\n      dup3\n        /* \"#utility.yul\":3484:3488   */\n      0x20\n        /* \"#utility.yul\":3476:3482   */\n      dup7\n        /* \"#utility.yul\":3472:3489   */\n      add\n        /* \"#utility.yul\":3376:3503   */\n      tag_438\n      jump\t// in\n    tag_493:\n        /* \"#utility.yul\":3367:3503   */\n      swap2\n      pop\n        /* \"#utility.yul\":3257:3509   */\n      pop\n      swap3\n      swap2\n      pop\n      pop\n      jump\t// out\n        /* \"#utility.yul\":3549:3896   */\n    tag_494:\n      0x00\n        /* \"#utility.yul\":3691:3694   */\n      dup3\n        /* \"#utility.yul\":3684:3688   */\n      0x1f\n        /* \"#utility.yul\":3676:3682   */\n      dup4\n        /* \"#utility.yul\":3672:3689   */\n      add\n        /* \"#utility.yul\":3668:3695   */\n      slt\n        /* \"#utility.yul\":3658:3660   */\n      tag_496\n      jumpi\n        /* \"#utility.yul\":3709:3710   */\n      0x00\n        /* \"#utility.yul\":3706:3707   */\n      dup1\n        /* \"#utility.yul\":3699:3711   */\n      revert\n        /* \"#utility.yul\":3658:3660   */\n    tag_496:\n        /* \"#utility.yul\":3749:3755   */\n      dup2\n        /* \"#utility.yul\":3736:3756   */\n      calldataload\n        /* \"#utility.yul\":3774:3890   */\n      tag_497\n        /* \"#utility.yul\":3886:3889   */\n      dup5\n        /* \"#utility.yul\":3878:3884   */\n      dup3\n        /* \"#utility.yul\":3871:3875   */\n      0x20\n        /* \"#utility.yul\":3863:3869   */\n      dup7\n        /* \"#utility.yul\":3859:3876   */\n      add\n        /* \"#utility.yul\":3774:3890   */\n      tag_449\n      jump\t// in\n    tag_497:\n        /* \"#utility.yul\":3765:3890   */\n      swap2\n      pop\n        /* \"#utility.yul\":3648:3896   */\n      pop\n      swap3\n      swap2\n      pop\n      pop\n      jump\t// out\n        /* \"#utility.yul\":3936:4298   */\n    tag_498:\n      0x00\n        /* \"#utility.yul\":4089:4092   */\n      dup3\n        /* \"#utility.yul\":4082:4086   */\n      0x1f\n        /* \"#utility.yul\":4074:4080   */\n      dup4\n        /* \"#utility.yul\":4070:4087   */\n      add\n        /* \"#utility.yul\":4066:4093   */\n      slt\n        /* \"#utility.yul\":4056:4058   */\n      tag_500\n      jumpi\n        /* \"#utility.yul\":4107:4108   */\n      0x00\n        /* \"#utility.yul\":4104:4105   */\n      dup1\n        /* \"#utility.yul\":4097:4109   */\n      revert\n        /* \"#utility.yul\":4056:4058   */\n    tag_500:\n        /* \"#utility.yul\":4140:4146   */\n      dup2\n        /* \"#utility.yul\":4134:4147   */\n      mload\n        /* \"#utility.yul\":4165:4292   */\n      tag_501\n        /* \"#utility.yul\":4288:4291   */\n      dup5\n        /* \"#utility.yul\":4280:4286   */\n      dup3\n        /* \"#utility.yul\":4273:4277   */\n      0x20\n        /* \"#utility.yul\":4265:4271   */\n      dup7\n        /* \"#utility.yul\":4261:4278   */\n      add\n        /* \"#utility.yul\":4165:4292   */\n      tag_459\n      jump\t// in\n    tag_501:\n        /* \"#utility.yul\":4156:4292   */\n      swap2\n      pop\n        /* \"#utility.yul\":4046:4298   */\n      pop\n      swap3\n      swap2\n      pop\n      pop\n      jump\t// out\n        /* \"#utility.yul\":4304:4437   */\n    tag_502:\n      0x00\n        /* \"#utility.yul\":4385:4391   */\n      dup2\n        /* \"#utility.yul\":4372:4392   */\n      calldataload\n        /* \"#utility.yul\":4363:4392   */\n      swap1\n      pop\n        /* \"#utility.yul\":4401:4431   */\n      tag_504\n        /* \"#utility.yul\":4425:4430   */\n      dup2\n        /* \"#utility.yul\":4401:4431   */\n      tag_505\n      jump\t// in\n    tag_504:\n        /* \"#utility.yul\":4353:4437   */\n      swap3\n      swap2\n      pop\n      pop\n      jump\t// out\n        /* \"#utility.yul\":4443:4580   */\n    tag_506:\n      0x00\n        /* \"#utility.yul\":4528:4534   */\n      dup2\n        /* \"#utility.yul\":4522:4535   */\n      mload\n        /* \"#utility.yul\":4513:4535   */\n      swap1\n      pop\n        /* \"#utility.yul\":4544:4574   */\n      tag_508\n        /* \"#utility.yul\":4568:4573   */\n      dup2\n        /* \"#utility.yul\":4544:4574   */\n      tag_505\n      jump\t// in\n    tag_508:\n        /* \"#utility.yul\":4503:4580   */\n      swap3\n      swap2\n      pop\n      pop\n      jump\t// out\n        /* \"#utility.yul\":4600:4873   */\n    tag_509:\n      0x00\n        /* \"#utility.yul\":4705:4708   */\n      dup3\n        /* \"#utility.yul\":4698:4702   */\n      0x1f\n        /* \"#utility.yul\":4690:4696   */\n      dup4\n        /* \"#utility.yul\":4686:4703   */\n      add\n        /* \"#utility.yul\":4682:4709   */\n      slt\n        /* \"#utility.yul\":4672:4674   */\n      tag_511\n      jumpi\n        /* \"#utility.yul\":4723:4724   */\n      0x00\n        /* \"#utility.yul\":4720:4721   */\n      dup1\n        /* \"#utility.yul\":4713:4725   */\n      revert\n        /* \"#utility.yul\":4672:4674   */\n    tag_511:\n        /* \"#utility.yul\":4763:4769   */\n      dup2\n        /* \"#utility.yul\":4750:4770   */\n      calldataload\n        /* \"#utility.yul\":4788:4867   */\n      tag_512\n        /* \"#utility.yul\":4863:4866   */\n      dup5\n        /* \"#utility.yul\":4855:4861   */\n      dup3\n        /* \"#utility.yul\":4848:4852   */\n      0x20\n        /* \"#utility.yul\":4840:4846   */\n      dup7\n        /* \"#utility.yul\":4836:4853   */\n      add\n        /* \"#utility.yul\":4788:4867   */\n      tag_468\n      jump\t// in\n    tag_512:\n        /* \"#utility.yul\":4779:4867   */\n      swap2\n      pop\n        /* \"#utility.yul\":4662:4873   */\n      pop\n      swap3\n      swap2\n      pop\n      pop\n      jump\t// out\n        /* \"#utility.yul\":4893:5181   */\n    tag_513:\n      0x00\n        /* \"#utility.yul\":5009:5012   */\n      dup3\n        /* \"#utility.yul\":5002:5006   */\n      0x1f\n        /* \"#utility.yul\":4994:5000   */\n      dup4\n        /* \"#utility.yul\":4990:5007   */\n      add\n        /* \"#utility.yul\":4986:5013   */\n      slt\n        /* \"#utility.yul\":4976:4978   */\n      tag_515\n      jumpi\n        /* \"#utility.yul\":5027:5028   */\n      0x00\n        /* \"#utility.yul\":5024:5025   */\n      dup1\n        /* \"#utility.yul\":5017:5029   */\n      revert\n        /* \"#utility.yul\":4976:4978   */\n    tag_515:\n        /* \"#utility.yul\":5060:5066   */\n      dup2\n        /* \"#utility.yul\":5054:5067   */\n      mload\n        /* \"#utility.yul\":5085:5175   */\n      tag_516\n        /* \"#utility.yul\":5171:5174   */\n      dup5\n        /* \"#utility.yul\":5163:5169   */\n      dup3\n        /* \"#utility.yul\":5156:5160   */\n      0x20\n        /* \"#utility.yul\":5148:5154   */\n      dup7\n        /* \"#utility.yul\":5144:5161   */\n      add\n        /* \"#utility.yul\":5085:5175   */\n      tag_476\n      jump\t// in\n    tag_516:\n        /* \"#utility.yul\":5076:5175   */\n      swap2\n      pop\n        /* \"#utility.yul\":4966:5181   */\n      pop\n      swap3\n      swap2\n      pop\n      pop\n      jump\t// out\n        /* \"#utility.yul\":5219:6460   */\n    tag_517:\n      0x00\n        /* \"#utility.yul\":5334:5338   */\n      0xa0\n        /* \"#utility.yul\":5322:5331   */\n      dup3\n        /* \"#utility.yul\":5317:5320   */\n      dup5\n        /* \"#utility.yul\":5313:5332   */\n      sub\n        /* \"#utility.yul\":5309:5339   */\n      slt\n        /* \"#utility.yul\":5306:5308   */\n      iszero\n      tag_519\n      jumpi\n        /* \"#utility.yul\":5352:5353   */\n      0x00\n        /* \"#utility.yul\":5349:5350   */\n      dup1\n        /* \"#utility.yul\":5342:5354   */\n      revert\n        /* \"#utility.yul\":5306:5308   */\n    tag_519:\n        /* \"#utility.yul\":5374:5394   */\n      tag_520\n        /* \"#utility.yul\":5389:5393   */\n      0xa0\n        /* \"#utility.yul\":5374:5394   */\n      tag_443\n      jump\t// in\n    tag_520:\n        /* \"#utility.yul\":5365:5394   */\n      swap1\n      pop\n        /* \"#utility.yul\":5454:5455   */\n      0x00\n        /* \"#utility.yul\":5494:5540   */\n      tag_521\n        /* \"#utility.yul\":5536:5539   */\n      dup5\n        /* \"#utility.yul\":5527:5533   */\n      dup3\n        /* \"#utility.yul\":5516:5525   */\n      dup6\n        /* \"#utility.yul\":5512:5534   */\n      add\n        /* \"#utility.yul\":5494:5540   */\n      tag_502\n      jump\t// in\n    tag_521:\n        /* \"#utility.yul\":5487:5491   */\n      0x00\n        /* \"#utility.yul\":5480:5485   */\n      dup4\n        /* \"#utility.yul\":5476:5492   */\n      add\n        /* \"#utility.yul\":5469:5541   */\n      mstore\n        /* \"#utility.yul\":5404:5552   */\n      pop\n        /* \"#utility.yul\":5612:5614   */\n      0x20\n        /* \"#utility.yul\":5653:5702   */\n      tag_522\n        /* \"#utility.yul\":5698:5701   */\n      dup5\n        /* \"#utility.yul\":5689:5695   */\n      dup3\n        /* \"#utility.yul\":5678:5687   */\n      dup6\n        /* \"#utility.yul\":5674:5696   */\n      add\n        /* \"#utility.yul\":5653:5702   */\n      tag_483\n      jump\t// in\n    tag_522:\n        /* \"#utility.yul\":5646:5650   */\n      0x20\n        /* \"#utility.yul\":5639:5644   */\n      dup4\n        /* \"#utility.yul\":5635:5651   */\n      add\n        /* \"#utility.yul\":5628:5703   */\n      mstore\n        /* \"#utility.yul\":5562:5714   */\n      pop\n        /* \"#utility.yul\":5780:5782   */\n      0x40\n        /* \"#utility.yul\":5821:5870   */\n      tag_523\n        /* \"#utility.yul\":5866:5869   */\n      dup5\n        /* \"#utility.yul\":5857:5863   */\n      dup3\n        /* \"#utility.yul\":5846:5855   */\n      dup6\n        /* \"#utility.yul\":5842:5864   */\n      add\n        /* \"#utility.yul\":5821:5870   */\n      tag_524\n      jump\t// in\n    tag_523:\n        /* \"#utility.yul\":5814:5818   */\n      0x40\n        /* \"#utility.yul\":5807:5812   */\n      dup4\n        /* \"#utility.yul\":5803:5819   */\n      add\n        /* \"#utility.yul\":5796:5871   */\n      mstore\n        /* \"#utility.yul\":5724:5882   */\n      pop\n        /* \"#utility.yul\":5971:5973   */\n      0x60\n        /* \"#utility.yul\":5960:5969   */\n      dup3\n        /* \"#utility.yul\":5956:5974   */\n      add\n        /* \"#utility.yul\":5943:5975   */\n      calldataload\n        /* \"#utility.yul\":6002:6020   */\n      0xffffffffffffffff\n        /* \"#utility.yul\":5994:6000   */\n      dup2\n        /* \"#utility.yul\":5991:6021   */\n      gt\n        /* \"#utility.yul\":5988:5990   */\n      iszero\n      tag_525\n      jumpi\n        /* \"#utility.yul\":6034:6035   */\n      0x00\n        /* \"#utility.yul\":6031:6032   */\n      dup1\n        /* \"#utility.yul\":6024:6036   */\n      revert\n        /* \"#utility.yul\":5988:5990   */\n    tag_525:\n        /* \"#utility.yul\":6077:6136   */\n      tag_526\n        /* \"#utility.yul\":6132:6135   */\n      dup5\n        /* \"#utility.yul\":6123:6129   */\n      dup3\n        /* \"#utility.yul\":6112:6121   */\n      dup6\n        /* \"#utility.yul\":6108:6130   */\n      add\n        /* \"#utility.yul\":6077:6136   */\n      tag_509\n      jump\t// in\n    tag_526:\n        /* \"#utility.yul\":6070:6074   */\n      0x60\n        /* \"#utility.yul\":6063:6068   */\n      dup4\n        /* \"#utility.yul\":6059:6075   */\n      add\n        /* \"#utility.yul\":6052:6137   */\n      mstore\n        /* \"#utility.yul\":5892:6148   */\n      pop\n        /* \"#utility.yul\":6238:6241   */\n      0x80\n        /* \"#utility.yul\":6227:6236   */\n      dup3\n        /* \"#utility.yul\":6223:6242   */\n      add\n        /* \"#utility.yul\":6210:6243   */\n      calldataload\n        /* \"#utility.yul\":6270:6288   */\n      0xffffffffffffffff\n        /* \"#utility.yul\":6262:6268   */\n      dup2\n        /* \"#utility.yul\":6259:6289   */\n      gt\n        /* \"#utility.yul\":6256:6258   */\n      iszero\n      tag_527\n      jumpi\n        /* \"#utility.yul\":6302:6303   */\n      0x00\n        /* \"#utility.yul\":6299:6300   */\n      dup1\n        /* \"#utility.yul\":6292:6304   */\n      revert\n        /* \"#utility.yul\":6256:6258   */\n    tag_527:\n        /* \"#utility.yul\":6345:6441   */\n      tag_528\n        /* \"#utility.yul\":6437:6440   */\n      dup5\n        /* \"#utility.yul\":6428:6434   */\n      dup3\n        /* \"#utility.yul\":6417:6426   */\n      dup6\n        /* \"#utility.yul\":6413:6435   */\n      add\n        /* \"#utility.yul\":6345:6441   */\n      tag_494\n      jump\t// in\n    tag_528:\n        /* \"#utility.yul\":6338:6342   */\n      0x80\n        /* \"#utility.yul\":6331:6336   */\n      dup4\n        /* \"#utility.yul\":6327:6343   */\n      add\n        /* \"#utility.yul\":6320:6442   */\n      mstore\n        /* \"#utility.yul\":6158:6453   */\n      pop\n        /* \"#utility.yul\":5296:6460   */\n      swap3\n      swap2\n      pop\n      pop\n      jump\t// out\n        /* \"#utility.yul\":6498:7791   */\n    tag_448:\n      0x00\n        /* \"#utility.yul\":6624:6628   */\n      0xa0\n        /* \"#utility.yul\":6612:6621   */\n      dup3\n        /* \"#utility.yul\":6607:6610   */\n      dup5\n        /* \"#utility.yul\":6603:6622   */\n      sub\n        /* \"#utility.yul\":6599:6629   */\n      slt\n        /* \"#utility.yul\":6596:6598   */\n      iszero\n      tag_530\n      jumpi\n        /* \"#utility.yul\":6642:6643   */\n      0x00\n        /* \"#utility.yul\":6639:6640   */\n      dup1\n        /* \"#utility.yul\":6632:6644   */\n      revert\n        /* \"#utility.yul\":6596:6598   */\n    tag_530:\n        /* \"#utility.yul\":6664:6684   */\n      tag_531\n        /* \"#utility.yul\":6679:6683   */\n      0xa0\n        /* \"#utility.yul\":6664:6684   */\n      tag_443\n      jump\t// in\n    tag_531:\n        /* \"#utility.yul\":6655:6684   */\n      swap1\n      pop\n        /* \"#utility.yul\":6744:6745   */\n      0x00\n        /* \"#utility.yul\":6784:6841   */\n      tag_532\n        /* \"#utility.yul\":6837:6840   */\n      dup5\n        /* \"#utility.yul\":6828:6834   */\n      dup3\n        /* \"#utility.yul\":6817:6826   */\n      dup6\n        /* \"#utility.yul\":6813:6835   */\n      add\n        /* \"#utility.yul\":6784:6841   */\n      tag_506\n      jump\t// in\n    tag_532:\n        /* \"#utility.yul\":6777:6781   */\n      0x00\n        /* \"#utility.yul\":6770:6775   */\n      dup4\n        /* \"#utility.yul\":6766:6782   */\n      add\n        /* \"#utility.yul\":6759:6842   */\n      mstore\n        /* \"#utility.yul\":6694:6853   */\n      pop\n        /* \"#utility.yul\":6913:6915   */\n      0x20\n        /* \"#utility.yul\":6954:7014   */\n      tag_533\n        /* \"#utility.yul\":7010:7013   */\n      dup5\n        /* \"#utility.yul\":7001:7007   */\n      dup3\n        /* \"#utility.yul\":6990:6999   */\n      dup6\n        /* \"#utility.yul\":6986:7008   */\n      add\n        /* \"#utility.yul\":6954:7014   */\n      tag_487\n      jump\t// in\n    tag_533:\n        /* \"#utility.yul\":6947:6951   */\n      0x20\n        /* \"#utility.yul\":6940:6945   */\n      dup4\n        /* \"#utility.yul\":6936:6952   */\n      add\n        /* \"#utility.yul\":6929:7015   */\n      mstore\n        /* \"#utility.yul\":6863:7026   */\n      pop\n        /* \"#utility.yul\":7092:7094   */\n      0x40\n        /* \"#utility.yul\":7133:7193   */\n      tag_534\n        /* \"#utility.yul\":7189:7192   */\n      dup5\n        /* \"#utility.yul\":7180:7186   */\n      dup3\n        /* \"#utility.yul\":7169:7178   */\n      dup6\n        /* \"#utility.yul\":7165:7187   */\n      add\n        /* \"#utility.yul\":7133:7193   */\n      tag_535\n      jump\t// in\n    tag_534:\n        /* \"#utility.yul\":7126:7130   */\n      0x40\n        /* \"#utility.yul\":7119:7124   */\n      dup4\n        /* \"#utility.yul\":7115:7131   */\n      add\n        /* \"#utility.yul\":7108:7194   */\n      mstore\n        /* \"#utility.yul\":7036:7205   */\n      pop\n        /* \"#utility.yul\":7287:7289   */\n      0x60\n        /* \"#utility.yul\":7276:7285   */\n      dup3\n        /* \"#utility.yul\":7272:7290   */\n      add\n        /* \"#utility.yul\":7266:7291   */\n      mload\n        /* \"#utility.yul\":7318:7336   */\n      0xffffffffffffffff\n        /* \"#utility.yul\":7310:7316   */\n      dup2\n        /* \"#utility.yul\":7307:7337   */\n      gt\n        /* \"#utility.yul\":7304:7306   */\n      iszero\n      tag_536\n      jumpi\n        /* \"#utility.yul\":7350:7351   */\n      0x00\n        /* \"#utility.yul\":7347:7348   */\n      dup1\n        /* \"#utility.yul\":7340:7352   */\n      revert\n        /* \"#utility.yul\":7304:7306   */\n    tag_536:\n        /* \"#utility.yul\":7393:7463   */\n      tag_537\n        /* \"#utility.yul\":7459:7462   */\n      dup5\n        /* \"#utility.yul\":7450:7456   */\n      dup3\n        /* \"#utility.yul\":7439:7448   */\n      dup6\n        /* \"#utility.yul\":7435:7457   */\n      add\n        /* \"#utility.yul\":7393:7463   */\n      tag_513\n      jump\t// in\n    tag_537:\n        /* \"#utility.yul\":7386:7390   */\n      0x60\n        /* \"#utility.yul\":7379:7384   */\n      dup4\n        /* \"#utility.yul\":7375:7391   */\n      add\n        /* \"#utility.yul\":7368:7464   */\n      mstore\n        /* \"#utility.yul\":7215:7475   */\n      pop\n        /* \"#utility.yul\":7558:7561   */\n      0x80\n        /* \"#utility.yul\":7547:7556   */\n      dup3\n        /* \"#utility.yul\":7543:7562   */\n      add\n        /* \"#utility.yul\":7537:7563   */\n      mload\n        /* \"#utility.yul\":7590:7608   */\n      0xffffffffffffffff\n        /* \"#utility.yul\":7582:7588   */\n      dup2\n        /* \"#utility.yul\":7579:7609   */\n      gt\n        /* \"#utility.yul\":7576:7578   */\n      iszero\n      tag_538\n      jumpi\n        /* \"#utility.yul\":7622:7623   */\n      0x00\n        /* \"#utility.yul\":7619:7620   */\n      dup1\n        /* \"#utility.yul\":7612:7624   */\n      revert\n        /* \"#utility.yul\":7576:7578   */\n    tag_538:\n        /* \"#utility.yul\":7665:7772   */\n      tag_539\n        /* \"#utility.yul\":7768:7771   */\n      dup5\n        /* \"#utility.yul\":7759:7765   */\n      dup3\n        /* \"#utility.yul\":7748:7757   */\n      dup6\n        /* \"#utility.yul\":7744:7766   */\n      add\n        /* \"#utility.yul\":7665:7772   */\n      tag_498\n      jump\t// in\n    tag_539:\n        /* \"#utility.yul\":7658:7662   */\n      0x80\n        /* \"#utility.yul\":7651:7656   */\n      dup4\n        /* \"#utility.yul\":7647:7663   */\n      add\n        /* \"#utility.yul\":7640:7773   */\n      mstore\n        /* \"#utility.yul\":7485:7784   */\n      pop\n        /* \"#utility.yul\":6586:7791   */\n      swap3\n      swap2\n      pop\n      pop\n      jump\t// out\n        /* \"#utility.yul\":7829:8767   */\n    tag_458:\n      0x00\n        /* \"#utility.yul\":7944:7948   */\n      0x80\n        /* \"#utility.yul\":7932:7941   */\n      dup3\n        /* \"#utility.yul\":7927:7930   */\n      dup5\n        /* \"#utility.yul\":7923:7942   */\n      sub\n        /* \"#utility.yul\":7919:7949   */\n      slt\n        /* \"#utility.yul\":7916:7918   */\n      iszero\n      tag_541\n      jumpi\n        /* \"#utility.yul\":7962:7963   */\n      0x00\n        /* \"#utility.yul\":7959:7960   */\n      dup1\n        /* \"#utility.yul\":7952:7964   */\n      revert\n        /* \"#utility.yul\":7916:7918   */\n    tag_541:\n        /* \"#utility.yul\":7984:8004   */\n      tag_542\n        /* \"#utility.yul\":7999:8003   */\n      0x80\n        /* \"#utility.yul\":7984:8004   */\n      tag_443\n      jump\t// in\n    tag_542:\n        /* \"#utility.yul\":7975:8004   */\n      swap1\n      pop\n        /* \"#utility.yul\":8064:8065   */\n      0x00\n        /* \"#utility.yul\":8104:8150   */\n      tag_543\n        /* \"#utility.yul\":8146:8149   */\n      dup5\n        /* \"#utility.yul\":8137:8143   */\n      dup3\n        /* \"#utility.yul\":8126:8135   */\n      dup6\n        /* \"#utility.yul\":8122:8144   */\n      add\n        /* \"#utility.yul\":8104:8150   */\n      tag_502\n      jump\t// in\n    tag_543:\n        /* \"#utility.yul\":8097:8101   */\n      0x00\n        /* \"#utility.yul\":8090:8095   */\n      dup4\n        /* \"#utility.yul\":8086:8102   */\n      add\n        /* \"#utility.yul\":8079:8151   */\n      mstore\n        /* \"#utility.yul\":8014:8162   */\n      pop\n        /* \"#utility.yul\":8222:8224   */\n      0x20\n        /* \"#utility.yul\":8263:8312   */\n      tag_544\n        /* \"#utility.yul\":8308:8311   */\n      dup5\n        /* \"#utility.yul\":8299:8305   */\n      dup3\n        /* \"#utility.yul\":8288:8297   */\n      dup6\n        /* \"#utility.yul\":8284:8306   */\n      add\n        /* \"#utility.yul\":8263:8312   */\n      tag_483\n      jump\t// in\n    tag_544:\n        /* \"#utility.yul\":8256:8260   */\n      0x20\n        /* \"#utility.yul\":8249:8254   */\n      dup4\n        /* \"#utility.yul\":8245:8261   */\n      add\n        /* \"#utility.yul\":8238:8313   */\n      mstore\n        /* \"#utility.yul\":8172:8324   */\n      pop\n        /* \"#utility.yul\":8390:8392   */\n      0x40\n        /* \"#utility.yul\":8431:8480   */\n      tag_545\n        /* \"#utility.yul\":8476:8479   */\n      dup5\n        /* \"#utility.yul\":8467:8473   */\n      dup3\n        /* \"#utility.yul\":8456:8465   */\n      dup6\n        /* \"#utility.yul\":8452:8474   */\n      add\n        /* \"#utility.yul\":8431:8480   */\n      tag_524\n      jump\t// in\n    tag_545:\n        /* \"#utility.yul\":8424:8428   */\n      0x40\n        /* \"#utility.yul\":8417:8422   */\n      dup4\n        /* \"#utility.yul\":8413:8429   */\n      add\n        /* \"#utility.yul\":8406:8481   */\n      mstore\n        /* \"#utility.yul\":8334:8492   */\n      pop\n        /* \"#utility.yul\":8583:8585   */\n      0x60\n        /* \"#utility.yul\":8572:8581   */\n      dup3\n        /* \"#utility.yul\":8568:8586   */\n      add\n        /* \"#utility.yul\":8555:8587   */\n      calldataload\n        /* \"#utility.yul\":8614:8632   */\n      0xffffffffffffffff\n        /* \"#utility.yul\":8606:8612   */\n      dup2\n        /* \"#utility.yul\":8603:8633   */\n      gt\n        /* \"#utility.yul\":8600:8602   */\n      iszero\n      tag_546\n      jumpi\n        /* \"#utility.yul\":8646:8647   */\n      0x00\n        /* \"#utility.yul\":8643:8644   */\n      dup1\n        /* \"#utility.yul\":8636:8648   */\n      revert\n        /* \"#utility.yul\":8600:8602   */\n    tag_546:\n        /* \"#utility.yul\":8689:8748   */\n      tag_547\n        /* \"#utility.yul\":8744:8747   */\n      dup5\n        /* \"#utility.yul\":8735:8741   */\n      dup3\n        /* \"#utility.yul\":8724:8733   */\n      dup6\n        /* \"#utility.yul\":8720:8742   */\n      add\n        /* \"#utility.yul\":8689:8748   */\n      tag_509\n      jump\t// in\n    tag_547:\n        /* \"#utility.yul\":8682:8686   */\n      0x60\n        /* \"#utility.yul\":8675:8680   */\n      dup4\n        /* \"#utility.yul\":8671:8687   */\n      add\n        /* \"#utility.yul\":8664:8749   */\n      mstore\n        /* \"#utility.yul\":8502:8760   */\n      pop\n        /* \"#utility.yul\":7906:8767   */\n      swap3\n      swap2\n      pop\n      pop\n      jump\t// out\n        /* \"#utility.yul\":8805:9791   */\n    tag_467:\n      0x00\n        /* \"#utility.yul\":8931:8935   */\n      0x80\n        /* \"#utility.yul\":8919:8928   */\n      dup3\n        /* \"#utility.yul\":8914:8917   */\n      dup5\n        /* \"#utility.yul\":8910:8929   */\n      sub\n        /* \"#utility.yul\":8906:8936   */\n      slt\n        /* \"#utility.yul\":8903:8905   */\n      iszero\n      tag_549\n      jumpi\n        /* \"#utility.yul\":8949:8950   */\n      0x00\n        /* \"#utility.yul\":8946:8947   */\n      dup1\n        /* \"#utility.yul\":8939:8951   */\n      revert\n        /* \"#utility.yul\":8903:8905   */\n    tag_549:\n        /* \"#utility.yul\":8971:8991   */\n      tag_550\n        /* \"#utility.yul\":8986:8990   */\n      0x80\n        /* \"#utility.yul\":8971:8991   */\n      tag_443\n      jump\t// in\n    tag_550:\n        /* \"#utility.yul\":8962:8991   */\n      swap1\n      pop\n        /* \"#utility.yul\":9051:9052   */\n      0x00\n        /* \"#utility.yul\":9091:9148   */\n      tag_551\n        /* \"#utility.yul\":9144:9147   */\n      dup5\n        /* \"#utility.yul\":9135:9141   */\n      dup3\n        /* \"#utility.yul\":9124:9133   */\n      dup6\n        /* \"#utility.yul\":9120:9142   */\n      add\n        /* \"#utility.yul\":9091:9148   */\n      tag_506\n      jump\t// in\n    tag_551:\n        /* \"#utility.yul\":9084:9088   */\n      0x00\n        /* \"#utility.yul\":9077:9082   */\n      dup4\n        /* \"#utility.yul\":9073:9089   */\n      add\n        /* \"#utility.yul\":9066:9149   */\n      mstore\n        /* \"#utility.yul\":9001:9160   */\n      pop\n        /* \"#utility.yul\":9220:9222   */\n      0x20\n        /* \"#utility.yul\":9261:9321   */\n      tag_552\n        /* \"#utility.yul\":9317:9320   */\n      dup5\n        /* \"#utility.yul\":9308:9314   */\n      dup3\n        /* \"#utility.yul\":9297:9306   */\n      dup6\n        /* \"#utility.yul\":9293:9315   */\n      add\n        /* \"#utility.yul\":9261:9321   */\n      tag_487\n      jump\t// in\n    tag_552:\n        /* \"#utility.yul\":9254:9258   */\n      0x20\n        /* \"#utility.yul\":9247:9252   */\n      dup4\n        /* \"#utility.yul\":9243:9259   */\n      add\n        /* \"#utility.yul\":9236:9322   */\n      mstore\n        /* \"#utility.yul\":9170:9333   */\n      pop\n        /* \"#utility.yul\":9399:9401   */\n      0x40\n        /* \"#utility.yul\":9440:9500   */\n      tag_553\n        /* \"#utility.yul\":9496:9499   */\n      dup5\n        /* \"#utility.yul\":9487:9493   */\n      dup3\n        /* \"#utility.yul\":9476:9485   */\n      dup6\n        /* \"#utility.yul\":9472:9494   */\n      add\n        /* \"#utility.yul\":9440:9500   */\n      tag_535\n      jump\t// in\n    tag_553:\n        /* \"#utility.yul\":9433:9437   */\n      0x40\n        /* \"#utility.yul\":9426:9431   */\n      dup4\n        /* \"#utility.yul\":9422:9438   */\n      add\n        /* \"#utility.yul\":9415:9501   */\n      mstore\n        /* \"#utility.yul\":9343:9512   */\n      pop\n        /* \"#utility.yul\":9596:9598   */\n      0x60\n        /* \"#utility.yul\":9585:9594   */\n      dup3\n        /* \"#utility.yul\":9581:9599   */\n      add\n        /* \"#utility.yul\":9575:9600   */\n      mload\n        /* \"#utility.yul\":9627:9645   */\n      0xffffffffffffffff\n        /* \"#utility.yul\":9619:9625   */\n      dup2\n        /* \"#utility.yul\":9616:9646   */\n      gt\n        /* \"#utility.yul\":9613:9615   */\n      iszero\n      tag_554\n      jumpi\n        /* \"#utility.yul\":9659:9660   */\n      0x00\n        /* \"#utility.yul\":9656:9657   */\n      dup1\n        /* \"#utility.yul\":9649:9661   */\n      revert\n        /* \"#utility.yul\":9613:9615   */\n    tag_554:\n        /* \"#utility.yul\":9702:9772   */\n      tag_555\n        /* \"#utility.yul\":9768:9771   */\n      dup5\n        /* \"#utility.yul\":9759:9765   */\n      dup3\n        /* \"#utility.yul\":9748:9757   */\n      dup6\n        /* \"#utility.yul\":9744:9766   */\n      add\n        /* \"#utility.yul\":9702:9772   */\n      tag_513\n      jump\t// in\n    tag_555:\n        /* \"#utility.yul\":9695:9699   */\n      0x60\n        /* \"#utility.yul\":9688:9693   */\n      dup4\n        /* \"#utility.yul\":9684:9700   */\n      add\n        /* \"#utility.yul\":9677:9773   */\n      mstore\n        /* \"#utility.yul\":9522:9784   */\n      pop\n        /* \"#utility.yul\":8893:9791   */\n      swap3\n      swap2\n      pop\n      pop\n      jump\t// out\n        /* \"#utility.yul\":9797:9936   */\n    tag_524:\n      0x00\n        /* \"#utility.yul\":9881:9887   */\n      dup2\n        /* \"#utility.yul\":9868:9888   */\n      calldataload\n        /* \"#utility.yul\":9859:9888   */\n      swap1\n      pop\n        /* \"#utility.yul\":9897:9930   */\n      tag_557\n        /* \"#utility.yul\":9924:9929   */\n      dup2\n        /* \"#utility.yul\":9897:9930   */\n      tag_558\n      jump\t// in\n    tag_557:\n        /* \"#utility.yul\":9849:9936   */\n      swap3\n      swap2\n      pop\n      pop\n      jump\t// out\n        /* \"#utility.yul\":9942:10085   */\n    tag_535:\n      0x00\n        /* \"#utility.yul\":10030:10036   */\n      dup2\n        /* \"#utility.yul\":10024:10037   */\n      mload\n        /* \"#utility.yul\":10015:10037   */\n      swap1\n      pop\n        /* \"#utility.yul\":10046:10079   */\n      tag_560\n        /* \"#utility.yul\":10073:10078   */\n      dup2\n        /* \"#utility.yul\":10046:10079   */\n      tag_558\n      jump\t// in\n    tag_560:\n        /* \"#utility.yul\":10005:10085   */\n      swap3\n      swap2\n      pop\n      pop\n      jump\t// out\n        /* \"#utility.yul\":10091:10555   */\n    tag_126:\n      0x00\n        /* \"#utility.yul\":10257:10259   */\n      0x20\n        /* \"#utility.yul\":10245:10254   */\n      dup3\n        /* \"#utility.yul\":10236:10243   */\n      dup5\n        /* \"#utility.yul\":10232:10255   */\n      sub\n        /* \"#utility.yul\":10228:10260   */\n      slt\n        /* \"#utility.yul\":10225:10227   */\n      iszero\n      tag_562\n      jumpi\n        /* \"#utility.yul\":10273:10274   */\n      0x00\n        /* \"#utility.yul\":10270:10271   */\n      dup1\n        /* \"#utility.yul\":10263:10275   */\n      revert\n        /* \"#utility.yul\":10225:10227   */\n    tag_562:\n        /* \"#utility.yul\":10337:10338   */\n      0x00\n        /* \"#utility.yul\":10326:10335   */\n      dup3\n        /* \"#utility.yul\":10322:10339   */\n      add\n        /* \"#utility.yul\":10316:10340   */\n      mload\n        /* \"#utility.yul\":10367:10385   */\n      0xffffffffffffffff\n        /* \"#utility.yul\":10359:10365   */\n      dup2\n        /* \"#utility.yul\":10356:10386   */\n      gt\n        /* \"#utility.yul\":10353:10355   */\n      iszero\n      tag_563\n      jumpi\n        /* \"#utility.yul\":10399:10400   */\n      0x00\n        /* \"#utility.yul\":10396:10397   */\n      dup1\n        /* \"#utility.yul\":10389:10401   */\n      revert\n        /* \"#utility.yul\":10353:10355   */\n    tag_563:\n        /* \"#utility.yul\":10427:10538   */\n      tag_564\n        /* \"#utility.yul\":10530:10537   */\n      dup5\n        /* \"#utility.yul\":10521:10527   */\n      dup3\n        /* \"#utility.yul\":10510:10519   */\n      dup6\n        /* \"#utility.yul\":10506:10528   */\n      add\n        /* \"#utility.yul\":10427:10538   */\n      tag_490\n      jump\t// in\n    tag_564:\n        /* \"#utility.yul\":10417:10538   */\n      swap2\n      pop\n        /* \"#utility.yul\":10287:10548   */\n      pop\n        /* \"#utility.yul\":10215:10555   */\n      swap3\n      swap2\n      pop\n      pop\n      jump\t// out\n        /* \"#utility.yul\":10561:10817   */\n    tag_41:\n      0x00\n        /* \"#utility.yul\":10666:10668   */\n      0x20\n        /* \"#utility.yul\":10654:10663   */\n      dup3\n        /* \"#utility.yul\":10645:10652   */\n      dup5\n        /* \"#utility.yul\":10641:10664   */\n      sub\n        /* \"#utility.yul\":10637:10669   */\n      slt\n        /* \"#utility.yul\":10634:10636   */\n      iszero\n      tag_566\n      jumpi\n        /* \"#utility.yul\":10682:10683   */\n      0x00\n        /* \"#utility.yul\":10679:10680   */\n      dup1\n        /* \"#utility.yul\":10672:10684   */\n      revert\n        /* \"#utility.yul\":10634:10636   */\n    tag_566:\n        /* \"#utility.yul\":10725:10726   */\n      0x00\n        /* \"#utility.yul\":10750:10800   */\n      tag_567\n        /* \"#utility.yul\":10792:10799   */\n      dup5\n        /* \"#utility.yul\":10783:10789   */\n      dup3\n        /* \"#utility.yul\":10772:10781   */\n      dup6\n        /* \"#utility.yul\":10768:10790   */\n      add\n        /* \"#utility.yul\":10750:10800   */\n      tag_502\n      jump\t// in\n    tag_567:\n        /* \"#utility.yul\":10740:10800   */\n      swap2\n      pop\n        /* \"#utility.yul\":10696:10810   */\n      pop\n        /* \"#utility.yul\":10624:10817   */\n      swap3\n      swap2\n      pop\n      pop\n      jump\t// out\n        /* \"#utility.yul\":10823:11198   */\n    tag_56:\n      0x00\n        /* \"#utility.yul\":10941:10943   */\n      0x20\n        /* \"#utility.yul\":10929:10938   */\n      dup3\n        /* \"#utility.yul\":10920:10927   */\n      dup5\n        /* \"#utility.yul\":10916:10939   */\n      sub\n        /* \"#utility.yul\":10912:10944   */\n      slt\n        /* \"#utility.yul\":10909:10911   */\n      iszero\n      tag_569\n      jumpi\n        /* \"#utility.yul\":10957:10958   */\n      0x00\n        /* \"#utility.yul\":10954:10955   */\n      dup1\n        /* \"#utility.yul\":10947:10959   */\n      revert\n        /* \"#utility.yul\":10909:10911   */\n    tag_569:\n        /* \"#utility.yul\":11028:11029   */\n      0x00\n        /* \"#utility.yul\":11017:11026   */\n      dup3\n        /* \"#utility.yul\":11013:11030   */\n      add\n        /* \"#utility.yul\":11000:11031   */\n      calldataload\n        /* \"#utility.yul\":11058:11076   */\n      0xffffffffffffffff\n        /* \"#utility.yul\":11050:11056   */\n      dup2\n        /* \"#utility.yul\":11047:11077   */\n      gt\n        /* \"#utility.yul\":11044:11046   */\n      iszero\n      tag_570\n      jumpi\n        /* \"#utility.yul\":11090:11091   */\n      0x00\n        /* \"#utility.yul\":11087:11088   */\n      dup1\n        /* \"#utility.yul\":11080:11092   */\n      revert\n        /* \"#utility.yul\":11044:11046   */\n    tag_570:\n        /* \"#utility.yul\":11118:11181   */\n      tag_571\n        /* \"#utility.yul\":11173:11180   */\n      dup5\n        /* \"#utility.yul\":11164:11170   */\n      dup3\n        /* \"#utility.yul\":11153:11162   */\n      dup6\n        /* \"#utility.yul\":11149:11171   */\n      add\n        /* \"#utility.yul\":11118:11181   */\n      tag_509\n      jump\t// in\n    tag_571:\n        /* \"#utility.yul\":11108:11181   */\n      swap2\n      pop\n        /* \"#utility.yul\":10971:11191   */\n      pop\n        /* \"#utility.yul\":10899:11198   */\n      swap3\n      swap2\n      pop\n      pop\n      jump\t// out\n        /* \"#utility.yul\":11204:11837   */\n    tag_46:\n      0x00\n      dup1\n        /* \"#utility.yul\":11349:11351   */\n      0x40\n        /* \"#utility.yul\":11337:11346   */\n      dup4\n        /* \"#utility.yul\":11328:11335   */\n      dup6\n        /* \"#utility.yul\":11324:11347   */\n      sub\n        /* \"#utility.yul\":11320:11352   */\n      slt\n        /* \"#utility.yul\":11317:11319   */\n      iszero\n      tag_573\n      jumpi\n        /* \"#utility.yul\":11365:11366   */\n      0x00\n        /* \"#utility.yul\":11362:11363   */\n      dup1\n        /* \"#utility.yul\":11355:11367   */\n      revert\n        /* \"#utility.yul\":11317:11319   */\n    tag_573:\n        /* \"#utility.yul\":11436:11437   */\n      0x00\n        /* \"#utility.yul\":11425:11434   */\n      dup4\n        /* \"#utility.yul\":11421:11438   */\n      add\n        /* \"#utility.yul\":11408:11439   */\n      calldataload\n        /* \"#utility.yul\":11466:11484   */\n      0xffffffffffffffff\n        /* \"#utility.yul\":11458:11464   */\n      dup2\n        /* \"#utility.yul\":11455:11485   */\n      gt\n        /* \"#utility.yul\":11452:11454   */\n      iszero\n      tag_574\n      jumpi\n        /* \"#utility.yul\":11498:11499   */\n      0x00\n        /* \"#utility.yul\":11495:11496   */\n      dup1\n        /* \"#utility.yul\":11488:11500   */\n      revert\n        /* \"#utility.yul\":11452:11454   */\n    tag_574:\n        /* \"#utility.yul\":11526:11589   */\n      tag_575\n        /* \"#utility.yul\":11581:11588   */\n      dup6\n        /* \"#utility.yul\":11572:11578   */\n      dup3\n        /* \"#utility.yul\":11561:11570   */\n      dup7\n        /* \"#utility.yul\":11557:11579   */\n      add\n        /* \"#utility.yul\":11526:11589   */\n      tag_509\n      jump\t// in\n    tag_575:\n        /* \"#utility.yul\":11516:11589   */\n      swap3\n      pop\n        /* \"#utility.yul\":11379:11599   */\n      pop\n        /* \"#utility.yul\":11666:11668   */\n      0x20\n        /* \"#utility.yul\":11655:11664   */\n      dup4\n        /* \"#utility.yul\":11651:11669   */\n      add\n        /* \"#utility.yul\":11638:11670   */\n      calldataload\n        /* \"#utility.yul\":11697:11715   */\n      0xffffffffffffffff\n        /* \"#utility.yul\":11689:11695   */\n      dup2\n        /* \"#utility.yul\":11686:11716   */\n      gt\n        /* \"#utility.yul\":11683:11685   */\n      iszero\n      tag_576\n      jumpi\n        /* \"#utility.yul\":11729:11730   */\n      0x00\n        /* \"#utility.yul\":11726:11727   */\n      dup1\n        /* \"#utility.yul\":11719:11731   */\n      revert\n        /* \"#utility.yul\":11683:11685   */\n    tag_576:\n        /* \"#utility.yul\":11757:11820   */\n      tag_577\n        /* \"#utility.yul\":11812:11819   */\n      dup6\n        /* \"#utility.yul\":11803:11809   */\n      dup3\n        /* \"#utility.yul\":11792:11801   */\n      dup7\n        /* \"#utility.yul\":11788:11810   */\n      add\n        /* \"#utility.yul\":11757:11820   */\n      tag_509\n      jump\t// in\n    tag_577:\n        /* \"#utility.yul\":11747:11820   */\n      swap2\n      pop\n        /* \"#utility.yul\":11609:11830   */\n      pop\n        /* \"#utility.yul\":11307:11837   */\n      swap3\n      pop\n      swap3\n      swap1\n      pop\n      jump\t// out\n        /* \"#utility.yul\":11843:12242   */\n    tag_80:\n      0x00\n        /* \"#utility.yul\":11973:11975   */\n      0x20\n        /* \"#utility.yul\":11961:11970   */\n      dup3\n        /* \"#utility.yul\":11952:11959   */\n      dup5\n        /* \"#utility.yul\":11948:11971   */\n      sub\n        /* \"#utility.yul\":11944:11976   */\n      slt\n        /* \"#utility.yul\":11941:11943   */\n      iszero\n      tag_579\n      jumpi\n        /* \"#utility.yul\":11989:11990   */\n      0x00\n        /* \"#utility.yul\":11986:11987   */\n      dup1\n        /* \"#utility.yul\":11979:11991   */\n      revert\n        /* \"#utility.yul\":11941:11943   */\n    tag_579:\n        /* \"#utility.yul\":12060:12061   */\n      0x00\n        /* \"#utility.yul\":12049:12058   */\n      dup3\n        /* \"#utility.yul\":12045:12062   */\n      add\n        /* \"#utility.yul\":12032:12063   */\n      calldataload\n        /* \"#utility.yul\":12090:12108   */\n      0xffffffffffffffff\n        /* \"#utility.yul\":12082:12088   */\n      dup2\n        /* \"#utility.yul\":12079:12109   */\n      gt\n        /* \"#utility.yul\":12076:12078   */\n      iszero\n      tag_580\n      jumpi\n        /* \"#utility.yul\":12122:12123   */\n      0x00\n        /* \"#utility.yul\":12119:12120   */\n      dup1\n        /* \"#utility.yul\":12112:12124   */\n      revert\n        /* \"#utility.yul\":12076:12078   */\n    tag_580:\n        /* \"#utility.yul\":12150:12225   */\n      tag_581\n        /* \"#utility.yul\":12217:12224   */\n      dup5\n        /* \"#utility.yul\":12208:12214   */\n      dup3\n        /* \"#utility.yul\":12197:12206   */\n      dup6\n        /* \"#utility.yul\":12193:12215   */\n      add\n        /* \"#utility.yul\":12150:12225   */\n      tag_517\n      jump\t// in\n    tag_581:\n        /* \"#utility.yul\":12140:12225   */\n      swap2\n      pop\n        /* \"#utility.yul\":12003:12235   */\n      pop\n        /* \"#utility.yul\":11931:12242   */\n      swap3\n      swap2\n      pop\n      pop\n      jump\t// out\n        /* \"#utility.yul\":12248:12662   */\n    tag_146:\n      0x00\n        /* \"#utility.yul\":12389:12391   */\n      0x20\n        /* \"#utility.yul\":12377:12386   */\n      dup3\n        /* \"#utility.yul\":12368:12375   */\n      dup5\n        /* \"#utility.yul\":12364:12387   */\n      sub\n        /* \"#utility.yul\":12360:12392   */\n      slt\n        /* \"#utility.yul\":12357:12359   */\n      iszero\n      tag_583\n      jumpi\n        /* \"#utility.yul\":12405:12406   */\n      0x00\n        /* \"#utility.yul\":12402:12403   */\n      dup1\n        /* \"#utility.yul\":12395:12407   */\n      revert\n        /* \"#utility.yul\":12357:12359   */\n    tag_583:\n        /* \"#utility.yul\":12469:12470   */\n      0x00\n        /* \"#utility.yul\":12458:12467   */\n      dup3\n        /* \"#utility.yul\":12454:12471   */\n      add\n        /* \"#utility.yul\":12448:12472   */\n      mload\n        /* \"#utility.yul\":12499:12517   */\n      0xffffffffffffffff\n        /* \"#utility.yul\":12491:12497   */\n      dup2\n        /* \"#utility.yul\":12488:12518   */\n      gt\n        /* \"#utility.yul\":12485:12487   */\n      iszero\n      tag_584\n      jumpi\n        /* \"#utility.yul\":12531:12532   */\n      0x00\n        /* \"#utility.yul\":12528:12529   */\n      dup1\n        /* \"#utility.yul\":12521:12533   */\n      revert\n        /* \"#utility.yul\":12485:12487   */\n    tag_584:\n        /* \"#utility.yul\":12559:12645   */\n      tag_585\n        /* \"#utility.yul\":12637:12644   */\n      dup5\n        /* \"#utility.yul\":12628:12634   */\n      dup3\n        /* \"#utility.yul\":12617:12626   */\n      dup6\n        /* \"#utility.yul\":12613:12635   */\n      add\n        /* \"#utility.yul\":12559:12645   */\n      tag_467\n      jump\t// in\n    tag_585:\n        /* \"#utility.yul\":12549:12645   */\n      swap2\n      pop\n        /* \"#utility.yul\":12419:12655   */\n      pop\n        /* \"#utility.yul\":12347:12662   */\n      swap3\n      swap2\n      pop\n      pop\n      jump\t// out\n        /* \"#utility.yul\":12668:12930   */\n    tag_68:\n      0x00\n        /* \"#utility.yul\":12776:12778   */\n      0x20\n        /* \"#utility.yul\":12764:12773   */\n      dup3\n        /* \"#utility.yul\":12755:12762   */\n      dup5\n        /* \"#utility.yul\":12751:12774   */\n      sub\n        /* \"#utility.yul\":12747:12779   */\n      slt\n        /* \"#utility.yul\":12744:12746   */\n      iszero\n      tag_587\n      jumpi\n        /* \"#utility.yul\":12792:12793   */\n      0x00\n        /* \"#utility.yul\":12789:12790   */\n      dup1\n        /* \"#utility.yul\":12782:12794   */\n      revert\n        /* \"#utility.yul\":12744:12746   */\n    tag_587:\n        /* \"#utility.yul\":12835:12836   */\n      0x00\n        /* \"#utility.yul\":12860:12913   */\n      tag_588\n        /* \"#utility.yul\":12905:12912   */\n      dup5\n        /* \"#utility.yul\":12896:12902   */\n      dup3\n        /* \"#utility.yul\":12885:12894   */\n      dup6\n        /* \"#utility.yul\":12881:12903   */\n      add\n        /* \"#utility.yul\":12860:12913   */\n      tag_524\n      jump\t// in\n    tag_588:\n        /* \"#utility.yul\":12850:12913   */\n      swap2\n      pop\n        /* \"#utility.yul\":12806:12923   */\n      pop\n        /* \"#utility.yul\":12734:12930   */\n      swap3\n      swap2\n      pop\n      pop\n      jump\t// out\n        /* \"#utility.yul\":12936:13456   */\n    tag_104:\n      0x00\n      dup1\n        /* \"#utility.yul\":13071:13073   */\n      0x40\n        /* \"#utility.yul\":13059:13068   */\n      dup4\n        /* \"#utility.yul\":13050:13057   */\n      dup6\n        /* \"#utility.yul\":13046:13069   */\n      sub\n        /* \"#utility.yul\":13042:13074   */\n      slt\n        /* \"#utility.yul\":13039:13041   */\n      iszero\n      tag_590\n      jumpi\n        /* \"#utility.yul\":13087:13088   */\n      0x00\n        /* \"#utility.yul\":13084:13085   */\n      dup1\n        /* \"#utility.yul\":13077:13089   */\n      revert\n        /* \"#utility.yul\":13039:13041   */\n    tag_590:\n        /* \"#utility.yul\":13130:13131   */\n      0x00\n        /* \"#utility.yul\":13155:13208   */\n      tag_591\n        /* \"#utility.yul\":13200:13207   */\n      dup6\n        /* \"#utility.yul\":13191:13197   */\n      dup3\n        /* \"#utility.yul\":13180:13189   */\n      dup7\n        /* \"#utility.yul\":13176:13198   */\n      add\n        /* \"#utility.yul\":13155:13208   */\n      tag_524\n      jump\t// in\n    tag_591:\n        /* \"#utility.yul\":13145:13208   */\n      swap3\n      pop\n        /* \"#utility.yul\":13101:13218   */\n      pop\n        /* \"#utility.yul\":13285:13287   */\n      0x20\n        /* \"#utility.yul\":13274:13283   */\n      dup4\n        /* \"#utility.yul\":13270:13288   */\n      add\n        /* \"#utility.yul\":13257:13289   */\n      calldataload\n        /* \"#utility.yul\":13316:13334   */\n      0xffffffffffffffff\n        /* \"#utility.yul\":13308:13314   */\n      dup2\n        /* \"#utility.yul\":13305:13335   */\n      gt\n        /* \"#utility.yul\":13302:13304   */\n      iszero\n      tag_592\n      jumpi\n        /* \"#utility.yul\":13348:13349   */\n      0x00\n        /* \"#utility.yul\":13345:13346   */\n      dup1\n        /* \"#utility.yul\":13338:13350   */\n      revert\n        /* \"#utility.yul\":13302:13304   */\n    tag_592:\n        /* \"#utility.yul\":13376:13439   */\n      tag_593\n        /* \"#utility.yul\":13431:13438   */\n      dup6\n        /* \"#utility.yul\":13422:13428   */\n      dup3\n        /* \"#utility.yul\":13411:13420   */\n      dup7\n        /* \"#utility.yul\":13407:13429   */\n      add\n        /* \"#utility.yul\":13376:13439   */\n      tag_509\n      jump\t// in\n    tag_593:\n        /* \"#utility.yul\":13366:13439   */\n      swap2\n      pop\n        /* \"#utility.yul\":13228:13449   */\n      pop\n        /* \"#utility.yul\":13029:13456   */\n      swap3\n      pop\n      swap3\n      swap1\n      pop\n      jump\t// out\n        /* \"#utility.yul\":13462:13869   */\n    tag_75:\n      0x00\n      dup1\n        /* \"#utility.yul\":13587:13589   */\n      0x40\n        /* \"#utility.yul\":13575:13584   */\n      dup4\n        /* \"#utility.yul\":13566:13573   */\n      dup6\n        /* \"#utility.yul\":13562:13585   */\n      sub\n        /* \"#utility.yul\":13558:13590   */\n      slt\n        /* \"#utility.yul\":13555:13557   */\n      iszero\n      tag_595\n      jumpi\n        /* \"#utility.yul\":13603:13604   */\n      0x00\n        /* \"#utility.yul\":13600:13601   */\n      dup1\n        /* \"#utility.yul\":13593:13605   */\n      revert\n        /* \"#utility.yul\":13555:13557   */\n    tag_595:\n        /* \"#utility.yul\":13646:13647   */\n      0x00\n        /* \"#utility.yul\":13671:13724   */\n      tag_596\n        /* \"#utility.yul\":13716:13723   */\n      dup6\n        /* \"#utility.yul\":13707:13713   */\n      dup3\n        /* \"#utility.yul\":13696:13705   */\n      dup7\n        /* \"#utility.yul\":13692:13714   */\n      add\n        /* \"#utility.yul\":13671:13724   */\n      tag_524\n      jump\t// in\n    tag_596:\n        /* \"#utility.yul\":13661:13724   */\n      swap3\n      pop\n        /* \"#utility.yul\":13617:13734   */\n      pop\n        /* \"#utility.yul\":13773:13775   */\n      0x20\n        /* \"#utility.yul\":13799:13852   */\n      tag_597\n        /* \"#utility.yul\":13844:13851   */\n      dup6\n        /* \"#utility.yul\":13835:13841   */\n      dup3\n        /* \"#utility.yul\":13824:13833   */\n      dup7\n        /* \"#utility.yul\":13820:13842   */\n      add\n        /* \"#utility.yul\":13799:13852   */\n      tag_524\n      jump\t// in\n    tag_597:\n        /* \"#utility.yul\":13789:13852   */\n      swap2\n      pop\n        /* \"#utility.yul\":13744:13862   */\n      pop\n        /* \"#utility.yul\":13545:13869   */\n      swap3\n      pop\n      swap3\n      swap1\n      pop\n      jump\t// out\n        /* \"#utility.yul\":13875:14119   */\n    tag_598:\n      0x00\n        /* \"#utility.yul\":14023:14113   */\n      tag_600\n        /* \"#utility.yul\":14109:14112   */\n      dup4\n        /* \"#utility.yul\":14101:14107   */\n      dup4\n        /* \"#utility.yul\":14023:14113   */\n      tag_601\n      jump\t// in\n    tag_600:\n        /* \"#utility.yul\":14009:14113   */\n      swap1\n      pop\n        /* \"#utility.yul\":13999:14119   */\n      swap3\n      swap2\n      pop\n      pop\n      jump\t// out\n        /* \"#utility.yul\":14125:14369   */\n    tag_602:\n      0x00\n        /* \"#utility.yul\":14273:14363   */\n      tag_604\n        /* \"#utility.yul\":14359:14362   */\n      dup4\n        /* \"#utility.yul\":14351:14357   */\n      dup4\n        /* \"#utility.yul\":14273:14363   */\n      tag_605\n      jump\t// in\n    tag_604:\n        /* \"#utility.yul\":14259:14363   */\n      swap1\n      pop\n        /* \"#utility.yul\":14249:14369   */\n      swap3\n      swap2\n      pop\n      pop\n      jump\t// out\n        /* \"#utility.yul\":14375:14554   */\n    tag_606:\n      0x00\n        /* \"#utility.yul\":14465:14511   */\n      tag_608\n        /* \"#utility.yul\":14507:14510   */\n      dup4\n        /* \"#utility.yul\":14499:14505   */\n      dup4\n        /* \"#utility.yul\":14465:14511   */\n      tag_609\n      jump\t// in\n    tag_608:\n        /* \"#utility.yul\":14543:14547   */\n      0x20\n        /* \"#utility.yul\":14538:14541   */\n      dup4\n        /* \"#utility.yul\":14534:14548   */\n      add\n        /* \"#utility.yul\":14520:14548   */\n      swap1\n      pop\n        /* \"#utility.yul\":14455:14554   */\n      swap3\n      swap2\n      pop\n      pop\n      jump\t// out\n        /* \"#utility.yul\":14560:14668   */\n    tag_610:\n        /* \"#utility.yul\":14637:14661   */\n      tag_612\n        /* \"#utility.yul\":14655:14660   */\n      dup2\n        /* \"#utility.yul\":14637:14661   */\n      tag_613\n      jump\t// in\n    tag_612:\n        /* \"#utility.yul\":14632:14635   */\n      dup3\n        /* \"#utility.yul\":14625:14662   */\n      mstore\n        /* \"#utility.yul\":14615:14668   */\n      pop\n      pop\n      jump\t// out\n        /* \"#utility.yul\":14674:14792   */\n    tag_614:\n        /* \"#utility.yul\":14761:14785   */\n      tag_616\n        /* \"#utility.yul\":14779:14784   */\n      dup2\n        /* \"#utility.yul\":14761:14785   */\n      tag_613\n      jump\t// in\n    tag_616:\n        /* \"#utility.yul\":14756:14759   */\n      dup3\n        /* \"#utility.yul\":14749:14786   */\n      mstore\n        /* \"#utility.yul\":14739:14792   */\n      pop\n      pop\n      jump\t// out\n        /* \"#utility.yul\":14862:15949   */\n    tag_617:\n      0x00\n        /* \"#utility.yul\":15054:15130   */\n      tag_619\n        /* \"#utility.yul\":15124:15129   */\n      dup3\n        /* \"#utility.yul\":15054:15130   */\n      tag_620\n      jump\t// in\n    tag_619:\n        /* \"#utility.yul\":15146:15254   */\n      tag_621\n        /* \"#utility.yul\":15247:15253   */\n      dup2\n        /* \"#utility.yul\":15242:15245   */\n      dup6\n        /* \"#utility.yul\":15146:15254   */\n      tag_622\n      jump\t// in\n    tag_621:\n        /* \"#utility.yul\":15139:15254   */\n      swap4\n      pop\n        /* \"#utility.yul\":15280:15283   */\n      dup4\n        /* \"#utility.yul\":15325:15329   */\n      0x20\n        /* \"#utility.yul\":15317:15323   */\n      dup3\n        /* \"#utility.yul\":15313:15330   */\n      mul\n        /* \"#utility.yul\":15308:15311   */\n      dup6\n        /* \"#utility.yul\":15304:15331   */\n      add\n        /* \"#utility.yul\":15355:15433   */\n      tag_623\n        /* \"#utility.yul\":15427:15432   */\n      dup6\n        /* \"#utility.yul\":15355:15433   */\n      tag_624\n      jump\t// in\n    tag_623:\n        /* \"#utility.yul\":15456:15463   */\n      dup1\n        /* \"#utility.yul\":15487:15488   */\n      0x00\n        /* \"#utility.yul\":15472:15904   */\n    tag_625:\n        /* \"#utility.yul\":15497:15503   */\n      dup6\n        /* \"#utility.yul\":15494:15495   */\n      dup2\n        /* \"#utility.yul\":15491:15504   */\n      lt\n        /* \"#utility.yul\":15472:15904   */\n      iszero\n      tag_627\n      jumpi\n        /* \"#utility.yul\":15568:15577   */\n      dup5\n        /* \"#utility.yul\":15562:15566   */\n      dup5\n        /* \"#utility.yul\":15558:15578   */\n      sub\n        /* \"#utility.yul\":15553:15556   */\n      dup10\n        /* \"#utility.yul\":15546:15579   */\n      mstore\n        /* \"#utility.yul\":15619:15625   */\n      dup2\n        /* \"#utility.yul\":15613:15626   */\n      mload\n        /* \"#utility.yul\":15647:15755   */\n      tag_628\n        /* \"#utility.yul\":15750:15754   */\n      dup6\n        /* \"#utility.yul\":15735:15748   */\n      dup3\n        /* \"#utility.yul\":15647:15755   */\n      tag_598\n      jump\t// in\n    tag_628:\n        /* \"#utility.yul\":15639:15755   */\n      swap5\n      pop\n        /* \"#utility.yul\":15778:15860   */\n      tag_629\n        /* \"#utility.yul\":15853:15859   */\n      dup4\n        /* \"#utility.yul\":15778:15860   */\n      tag_630\n      jump\t// in\n    tag_629:\n        /* \"#utility.yul\":15768:15860   */\n      swap3\n      pop\n        /* \"#utility.yul\":15889:15893   */\n      0x20\n        /* \"#utility.yul\":15884:15887   */\n      dup11\n        /* \"#utility.yul\":15880:15894   */\n      add\n        /* \"#utility.yul\":15873:15894   */\n      swap10\n      pop\n        /* \"#utility.yul\":15532:15904   */\n      pop\n        /* \"#utility.yul\":15519:15520   */\n      0x01\n        /* \"#utility.yul\":15516:15517   */\n      dup2\n        /* \"#utility.yul\":15512:15521   */\n      add\n        /* \"#utility.yul\":15507:15521   */\n      swap1\n      pop\n        /* \"#utility.yul\":15472:15904   */\n      jump(tag_625)\n    tag_627:\n        /* \"#utility.yul\":15476:15490   */\n      pop\n        /* \"#utility.yul\":15920:15924   */\n      dup3\n        /* \"#utility.yul\":15913:15924   */\n      swap8\n      pop\n        /* \"#utility.yul\":15940:15943   */\n      dup8\n        /* \"#utility.yul\":15933:15943   */\n      swap6\n      pop\n        /* \"#utility.yul\":15030:15949   */\n      pop\n      pop\n      pop\n      pop\n      pop\n      swap3\n      swap2\n      pop\n      pop\n      jump\t// out\n        /* \"#utility.yul\":16019:17086   */\n    tag_631:\n      0x00\n        /* \"#utility.yul\":16201:16277   */\n      tag_633\n        /* \"#utility.yul\":16271:16276   */\n      dup3\n        /* \"#utility.yul\":16201:16277   */\n      tag_634\n      jump\t// in\n    tag_633:\n        /* \"#utility.yul\":16293:16391   */\n      tag_635\n        /* \"#utility.yul\":16384:16390   */\n      dup2\n        /* \"#utility.yul\":16379:16382   */\n      dup6\n        /* \"#utility.yul\":16293:16391   */\n      tag_636\n      jump\t// in\n    tag_635:\n        /* \"#utility.yul\":16286:16391   */\n      swap4\n      pop\n        /* \"#utility.yul\":16417:16420   */\n      dup4\n        /* \"#utility.yul\":16462:16466   */\n      0x20\n        /* \"#utility.yul\":16454:16460   */\n      dup3\n        /* \"#utility.yul\":16450:16467   */\n      mul\n        /* \"#utility.yul\":16445:16448   */\n      dup6\n        /* \"#utility.yul\":16441:16468   */\n      add\n        /* \"#utility.yul\":16492:16570   */\n      tag_637\n        /* \"#utility.yul\":16564:16569   */\n      dup6\n        /* \"#utility.yul\":16492:16570   */\n      tag_638\n      jump\t// in\n    tag_637:\n        /* \"#utility.yul\":16593:16600   */\n      dup1\n        /* \"#utility.yul\":16624:16625   */\n      0x00\n        /* \"#utility.yul\":16609:17041   */\n    tag_639:\n        /* \"#utility.yul\":16634:16640   */\n      dup6\n        /* \"#utility.yul\":16631:16632   */\n      dup2\n        /* \"#utility.yul\":16628:16641   */\n      lt\n        /* \"#utility.yul\":16609:17041   */\n      iszero\n      tag_641\n      jumpi\n        /* \"#utility.yul\":16705:16714   */\n      dup5\n        /* \"#utility.yul\":16699:16703   */\n      dup5\n        /* \"#utility.yul\":16695:16715   */\n      sub\n        /* \"#utility.yul\":16690:16693   */\n      dup10\n        /* \"#utility.yul\":16683:16716   */\n      mstore\n        /* \"#utility.yul\":16756:16762   */\n      dup2\n        /* \"#utility.yul\":16750:16763   */\n      mload\n        /* \"#utility.yul\":16784:16892   */\n      tag_642\n        /* \"#utility.yul\":16887:16891   */\n      dup6\n        /* \"#utility.yul\":16872:16885   */\n      dup3\n        /* \"#utility.yul\":16784:16892   */\n      tag_602\n      jump\t// in\n    tag_642:\n        /* \"#utility.yul\":16776:16892   */\n      swap5\n      pop\n        /* \"#utility.yul\":16915:16997   */\n      tag_643\n        /* \"#utility.yul\":16990:16996   */\n      dup4\n        /* \"#utility.yul\":16915:16997   */\n      tag_644\n      jump\t// in\n    tag_643:\n        /* \"#utility.yul\":16905:16997   */\n      swap3\n      pop\n        /* \"#utility.yul\":17026:17030   */\n      0x20\n        /* \"#utility.yul\":17021:17024   */\n      dup11\n        /* \"#utility.yul\":17017:17031   */\n      add\n        /* \"#utility.yul\":17010:17031   */\n      swap10\n      pop\n        /* \"#utility.yul\":16669:17041   */\n      pop\n        /* \"#utility.yul\":16656:16657   */\n      0x01\n        /* \"#utility.yul\":16653:16654   */\n      dup2\n        /* \"#utility.yul\":16649:16658   */\n      add\n        /* \"#utility.yul\":16644:16658   */\n      swap1\n      pop\n        /* \"#utility.yul\":16609:17041   */\n      jump(tag_639)\n    tag_641:\n        /* \"#utility.yul\":16613:16627   */\n      pop\n        /* \"#utility.yul\":17057:17061   */\n      dup3\n        /* \"#utility.yul\":17050:17061   */\n      swap8\n      pop\n        /* \"#utility.yul\":17077:17080   */\n      dup8\n        /* \"#utility.yul\":17070:17080   */\n      swap6\n      pop\n        /* \"#utility.yul\":16177:17086   */\n      pop\n      pop\n      pop\n      pop\n      pop\n      swap3\n      swap2\n      pop\n      pop\n      jump\t// out\n        /* \"#utility.yul\":17122:17854   */\n    tag_645:\n      0x00\n        /* \"#utility.yul\":17270:17324   */\n      tag_647\n        /* \"#utility.yul\":17318:17323   */\n      dup3\n        /* \"#utility.yul\":17270:17324   */\n      tag_648\n      jump\t// in\n    tag_647:\n        /* \"#utility.yul\":17340:17426   */\n      tag_649\n        /* \"#utility.yul\":17419:17425   */\n      dup2\n        /* \"#utility.yul\":17414:17417   */\n      dup6\n        /* \"#utility.yul\":17340:17426   */\n      tag_650\n      jump\t// in\n    tag_649:\n        /* \"#utility.yul\":17333:17426   */\n      swap4\n      pop\n        /* \"#utility.yul\":17450:17506   */\n      tag_651\n        /* \"#utility.yul\":17500:17505   */\n      dup4\n        /* \"#utility.yul\":17450:17506   */\n      tag_652\n      jump\t// in\n    tag_651:\n        /* \"#utility.yul\":17529:17536   */\n      dup1\n        /* \"#utility.yul\":17560:17561   */\n      0x00\n        /* \"#utility.yul\":17545:17829   */\n    tag_653:\n        /* \"#utility.yul\":17570:17576   */\n      dup4\n        /* \"#utility.yul\":17567:17568   */\n      dup2\n        /* \"#utility.yul\":17564:17577   */\n      lt\n        /* \"#utility.yul\":17545:17829   */\n      iszero\n      tag_655\n      jumpi\n        /* \"#utility.yul\":17646:17652   */\n      dup2\n        /* \"#utility.yul\":17640:17653   */\n      mload\n        /* \"#utility.yul\":17673:17736   */\n      tag_656\n        /* \"#utility.yul\":17732:17735   */\n      dup9\n        /* \"#utility.yul\":17717:17730   */\n      dup3\n        /* \"#utility.yul\":17673:17736   */\n      tag_606\n      jump\t// in\n    tag_656:\n        /* \"#utility.yul\":17666:17736   */\n      swap8\n      pop\n        /* \"#utility.yul\":17759:17819   */\n      tag_657\n        /* \"#utility.yul\":17812:17818   */\n      dup4\n        /* \"#utility.yul\":17759:17819   */\n      tag_658\n      jump\t// in\n    tag_657:\n        /* \"#utility.yul\":17749:17819   */\n      swap3\n      pop\n        /* \"#utility.yul\":17605:17829   */\n      pop\n        /* \"#utility.yul\":17592:17593   */\n      0x01\n        /* \"#utility.yul\":17589:17590   */\n      dup2\n        /* \"#utility.yul\":17585:17594   */\n      add\n        /* \"#utility.yul\":17580:17594   */\n      swap1\n      pop\n        /* \"#utility.yul\":17545:17829   */\n      jump(tag_653)\n    tag_655:\n        /* \"#utility.yul\":17549:17563   */\n      pop\n        /* \"#utility.yul\":17845:17848   */\n      dup6\n        /* \"#utility.yul\":17838:17848   */\n      swap4\n      pop\n        /* \"#utility.yul\":17246:17854   */\n      pop\n      pop\n      pop\n      swap3\n      swap2\n      pop\n      pop\n      jump\t// out\n        /* \"#utility.yul\":17860:17959   */\n    tag_659:\n        /* \"#utility.yul\":17931:17952   */\n      tag_661\n        /* \"#utility.yul\":17946:17951   */\n      dup2\n        /* \"#utility.yul\":17931:17952   */\n      tag_662\n      jump\t// in\n    tag_661:\n        /* \"#utility.yul\":17926:17929   */\n      dup3\n        /* \"#utility.yul\":17919:17953   */\n      mstore\n        /* \"#utility.yul\":17909:17959   */\n      pop\n      pop\n      jump\t// out\n        /* \"#utility.yul\":17965:18074   */\n    tag_663:\n        /* \"#utility.yul\":18046:18067   */\n      tag_665\n        /* \"#utility.yul\":18061:18066   */\n      dup2\n        /* \"#utility.yul\":18046:18067   */\n      tag_662\n      jump\t// in\n    tag_665:\n        /* \"#utility.yul\":18041:18044   */\n      dup3\n        /* \"#utility.yul\":18034:18068   */\n      mstore\n        /* \"#utility.yul\":18024:18074   */\n      pop\n      pop\n      jump\t// out\n        /* \"#utility.yul\":18080:18424   */\n    tag_666:\n      0x00\n        /* \"#utility.yul\":18186:18225   */\n      tag_668\n        /* \"#utility.yul\":18219:18224   */\n      dup3\n        /* \"#utility.yul\":18186:18225   */\n      tag_669\n      jump\t// in\n    tag_668:\n        /* \"#utility.yul\":18241:18302   */\n      tag_670\n        /* \"#utility.yul\":18295:18301   */\n      dup2\n        /* \"#utility.yul\":18290:18293   */\n      dup6\n        /* \"#utility.yul\":18241:18302   */\n      tag_671\n      jump\t// in\n    tag_670:\n        /* \"#utility.yul\":18234:18302   */\n      swap4\n      pop\n        /* \"#utility.yul\":18311:18363   */\n      tag_672\n        /* \"#utility.yul\":18356:18362   */\n      dup2\n        /* \"#utility.yul\":18351:18354   */\n      dup6\n        /* \"#utility.yul\":18344:18348   */\n      0x20\n        /* \"#utility.yul\":18337:18342   */\n      dup7\n        /* \"#utility.yul\":18333:18349   */\n      add\n        /* \"#utility.yul\":18311:18363   */\n      tag_482\n      jump\t// in\n    tag_672:\n        /* \"#utility.yul\":18388:18417   */\n      tag_673\n        /* \"#utility.yul\":18410:18416   */\n      dup2\n        /* \"#utility.yul\":18388:18417   */\n      tag_674\n      jump\t// in\n    tag_673:\n        /* \"#utility.yul\":18383:18386   */\n      dup5\n        /* \"#utility.yul\":18379:18418   */\n      add\n        /* \"#utility.yul\":18372:18418   */\n      swap2\n      pop\n        /* \"#utility.yul\":18162:18424   */\n      pop\n      swap3\n      swap2\n      pop\n      pop\n      jump\t// out\n        /* \"#utility.yul\":18430:18794   */\n    tag_675:\n      0x00\n        /* \"#utility.yul\":18546:18585   */\n      tag_677\n        /* \"#utility.yul\":18579:18584   */\n      dup3\n        /* \"#utility.yul\":18546:18585   */\n      tag_669\n      jump\t// in\n    tag_677:\n        /* \"#utility.yul\":18601:18672   */\n      tag_678\n        /* \"#utility.yul\":18665:18671   */\n      dup2\n        /* \"#utility.yul\":18660:18663   */\n      dup6\n        /* \"#utility.yul\":18601:18672   */\n      tag_679\n      jump\t// in\n    tag_678:\n        /* \"#utility.yul\":18594:18672   */\n      swap4\n      pop\n        /* \"#utility.yul\":18681:18733   */\n      tag_680\n        /* \"#utility.yul\":18726:18732   */\n      dup2\n        /* \"#utility.yul\":18721:18724   */\n      dup6\n        /* \"#utility.yul\":18714:18718   */\n      0x20\n        /* \"#utility.yul\":18707:18712   */\n      dup7\n        /* \"#utility.yul\":18703:18719   */\n      add\n        /* \"#utility.yul\":18681:18733   */\n      tag_482\n      jump\t// in\n    tag_680:\n        /* \"#utility.yul\":18758:18787   */\n      tag_681\n        /* \"#utility.yul\":18780:18786   */\n      dup2\n        /* \"#utility.yul\":18758:18787   */\n      tag_674\n      jump\t// in\n    tag_681:\n        /* \"#utility.yul\":18753:18756   */\n      dup5\n        /* \"#utility.yul\":18749:18788   */\n      add\n        /* \"#utility.yul\":18742:18788   */\n      swap2\n      pop\n        /* \"#utility.yul\":18522:18794   */\n      pop\n      swap3\n      swap2\n      pop\n      pop\n      jump\t// out\n        /* \"#utility.yul\":18800:19177   */\n    tag_682:\n      0x00\n        /* \"#utility.yul\":18934:18973   */\n      tag_684\n        /* \"#utility.yul\":18967:18972   */\n      dup3\n        /* \"#utility.yul\":18934:18973   */\n      tag_669\n      jump\t// in\n    tag_684:\n        /* \"#utility.yul\":18989:19078   */\n      tag_685\n        /* \"#utility.yul\":19071:19077   */\n      dup2\n        /* \"#utility.yul\":19066:19069   */\n      dup6\n        /* \"#utility.yul\":18989:19078   */\n      tag_686\n      jump\t// in\n    tag_685:\n        /* \"#utility.yul\":18982:19078   */\n      swap4\n      pop\n        /* \"#utility.yul\":19087:19139   */\n      tag_687\n        /* \"#utility.yul\":19132:19138   */\n      dup2\n        /* \"#utility.yul\":19127:19130   */\n      dup6\n        /* \"#utility.yul\":19120:19124   */\n      0x20\n        /* \"#utility.yul\":19113:19118   */\n      dup7\n        /* \"#utility.yul\":19109:19125   */\n      add\n        /* \"#utility.yul\":19087:19139   */\n      tag_482\n      jump\t// in\n    tag_687:\n        /* \"#utility.yul\":19164:19170   */\n      dup1\n        /* \"#utility.yul\":19159:19162   */\n      dup5\n        /* \"#utility.yul\":19155:19171   */\n      add\n        /* \"#utility.yul\":19148:19171   */\n      swap2\n      pop\n        /* \"#utility.yul\":18910:19177   */\n      pop\n      swap3\n      swap2\n      pop\n      pop\n      jump\t// out\n        /* \"#utility.yul\":19183:19563   */\n    tag_688:\n      0x00\n        /* \"#utility.yul\":19346:19413   */\n      tag_690\n        /* \"#utility.yul\":19410:19412   */\n      0x30\n        /* \"#utility.yul\":19405:19408   */\n      dup4\n        /* \"#utility.yul\":19346:19413   */\n      tag_679\n      jump\t// in\n    tag_690:\n        /* \"#utility.yul\":19339:19413   */\n      swap2\n      pop\n        /* \"#utility.yul\":19443:19477   */\n      0x4e656e68756d612076657263616f20617469766120656e636f6e747261646120\n        /* \"#utility.yul\":19439:19440   */\n      0x00\n        /* \"#utility.yul\":19434:19437   */\n      dup4\n        /* \"#utility.yul\":19430:19441   */\n      add\n        /* \"#utility.yul\":19423:19478   */\n      mstore\n        /* \"#utility.yul\":19509:19527   */\n      0x70617261206573746120706167696e6100000000000000000000000000000000\n        /* \"#utility.yul\":19504:19506   */\n      0x20\n        /* \"#utility.yul\":19499:19502   */\n      dup4\n        /* \"#utility.yul\":19495:19507   */\n      add\n        /* \"#utility.yul\":19488:19528   */\n      mstore\n        /* \"#utility.yul\":19554:19556   */\n      0x40\n        /* \"#utility.yul\":19549:19552   */\n      dup3\n        /* \"#utility.yul\":19545:19557   */\n      add\n        /* \"#utility.yul\":19538:19557   */\n      swap1\n      pop\n        /* \"#utility.yul\":19329:19563   */\n      swap2\n      swap1\n      pop\n      jump\t// out\n        /* \"#utility.yul\":19569:20002   */\n    tag_691:\n      0x00\n        /* \"#utility.yul\":19732:19799   */\n      tag_693\n        /* \"#utility.yul\":19796:19798   */\n      0x43\n        /* \"#utility.yul\":19791:19794   */\n      dup4\n        /* \"#utility.yul\":19732:19799   */\n      tag_679\n      jump\t// in\n    tag_693:\n        /* \"#utility.yul\":19725:19799   */\n      swap2\n      pop\n        /* \"#utility.yul\":19829:19863   */\n      0x412061646963616f206465206e6f76617320766572636f657320736f20652070\n        /* \"#utility.yul\":19825:19826   */\n      0x00\n        /* \"#utility.yul\":19820:19823   */\n      dup4\n        /* \"#utility.yul\":19816:19827   */\n      add\n        /* \"#utility.yul\":19809:19864   */\n      mstore\n        /* \"#utility.yul\":19895:19929   */\n      0x65726d6974696461207175616e646f206120706167696e612065737461206174\n        /* \"#utility.yul\":19890:19892   */\n      0x20\n        /* \"#utility.yul\":19885:19888   */\n      dup4\n        /* \"#utility.yul\":19881:19893   */\n      add\n        /* \"#utility.yul\":19874:19930   */\n      mstore\n        /* \"#utility.yul\":19961:19966   */\n      0x6976610000000000000000000000000000000000000000000000000000000000\n        /* \"#utility.yul\":19956:19958   */\n      0x40\n        /* \"#utility.yul\":19951:19954   */\n      dup4\n        /* \"#utility.yul\":19947:19959   */\n      add\n        /* \"#utility.yul\":19940:19967   */\n      mstore\n        /* \"#utility.yul\":19993:19995   */\n      0x60\n        /* \"#utility.yul\":19988:19991   */\n      dup3\n        /* \"#utility.yul\":19984:19996   */\n      add\n        /* \"#utility.yul\":19977:19996   */\n      swap1\n      pop\n        /* \"#utility.yul\":19715:20002   */\n      swap2\n      swap1\n      pop\n      jump\t// out\n        /* \"#utility.yul\":20008:20403   */\n    tag_694:\n      0x00\n        /* \"#utility.yul\":20171:20238   */\n      tag_696\n        /* \"#utility.yul\":20235:20237   */\n      0x3f\n        /* \"#utility.yul\":20230:20233   */\n      dup4\n        /* \"#utility.yul\":20171:20238   */\n      tag_679\n      jump\t// in\n    tag_696:\n        /* \"#utility.yul\":20164:20238   */\n      swap2\n      pop\n        /* \"#utility.yul\":20268:20302   */\n      0x4120616c7465726163616f2064652076657273616f20736f2065207065726d69\n        /* \"#utility.yul\":20264:20265   */\n      0x00\n        /* \"#utility.yul\":20259:20262   */\n      dup4\n        /* \"#utility.yul\":20255:20266   */\n      add\n        /* \"#utility.yul\":20248:20303   */\n      mstore\n        /* \"#utility.yul\":20334:20367   */\n      0x74696461207175616e646f206120706167696e61206573746120617469766100\n        /* \"#utility.yul\":20329:20331   */\n      0x20\n        /* \"#utility.yul\":20324:20327   */\n      dup4\n        /* \"#utility.yul\":20320:20332   */\n      add\n        /* \"#utility.yul\":20313:20368   */\n      mstore\n        /* \"#utility.yul\":20394:20396   */\n      0x40\n        /* \"#utility.yul\":20389:20392   */\n      dup3\n        /* \"#utility.yul\":20385:20397   */\n      add\n        /* \"#utility.yul\":20378:20397   */\n      swap1\n      pop\n        /* \"#utility.yul\":20154:20403   */\n      swap2\n      swap1\n      pop\n      jump\t// out\n        /* \"#utility.yul\":20409:20729   */\n    tag_697:\n      0x00\n        /* \"#utility.yul\":20572:20639   */\n      tag_699\n        /* \"#utility.yul\":20636:20638   */\n      0x16\n        /* \"#utility.yul\":20631:20634   */\n      dup4\n        /* \"#utility.yul\":20572:20639   */\n      tag_679\n      jump\t// in\n    tag_699:\n        /* \"#utility.yul\":20565:20639   */\n      swap2\n      pop\n        /* \"#utility.yul\":20669:20693   */\n      0x496e6469636520666f726120646f20616c63616e636500000000000000000000\n        /* \"#utility.yul\":20665:20666   */\n      0x00\n        /* \"#utility.yul\":20660:20663   */\n      dup4\n        /* \"#utility.yul\":20656:20667   */\n      add\n        /* \"#utility.yul\":20649:20694   */\n      mstore\n        /* \"#utility.yul\":20720:20722   */\n      0x20\n        /* \"#utility.yul\":20715:20718   */\n      dup3\n        /* \"#utility.yul\":20711:20723   */\n      add\n        /* \"#utility.yul\":20704:20723   */\n      swap1\n      pop\n        /* \"#utility.yul\":20555:20729   */\n      swap2\n      swap1\n      pop\n      jump\t// out\n        /* \"#utility.yul\":20735:21065   */\n    tag_700:\n      0x00\n        /* \"#utility.yul\":20898:20965   */\n      tag_702\n        /* \"#utility.yul\":20962:20964   */\n      0x20\n        /* \"#utility.yul\":20957:20960   */\n      dup4\n        /* \"#utility.yul\":20898:20965   */\n      tag_679\n      jump\t// in\n    tag_702:\n        /* \"#utility.yul\":20891:20965   */\n      swap2\n      pop\n        /* \"#utility.yul\":20995:21029   */\n      0x496e646963652064612076657273616f20666f726120646f20616c63616e6365\n        /* \"#utility.yul\":20991:20992   */\n      0x00\n        /* \"#utility.yul\":20986:20989   */\n      dup4\n        /* \"#utility.yul\":20982:20993   */\n      add\n        /* \"#utility.yul\":20975:21030   */\n      mstore\n        /* \"#utility.yul\":21056:21058   */\n      0x20\n        /* \"#utility.yul\":21051:21054   */\n      dup3\n        /* \"#utility.yul\":21047:21059   */\n      add\n        /* \"#utility.yul\":21040:21059   */\n      swap1\n      pop\n        /* \"#utility.yul\":20881:21065   */\n      swap2\n      swap1\n      pop\n      jump\t// out\n        /* \"#utility.yul\":21071:21455   */\n    tag_703:\n      0x00\n        /* \"#utility.yul\":21234:21301   */\n      tag_705\n        /* \"#utility.yul\":21298:21300   */\n      0x34\n        /* \"#utility.yul\":21293:21296   */\n      dup4\n        /* \"#utility.yul\":21234:21301   */\n      tag_679\n      jump\t// in\n    tag_705:\n        /* \"#utility.yul\":21227:21301   */\n      swap2\n      pop\n        /* \"#utility.yul\":21331:21365   */\n      0x41206163616f20736f2065207065726d6974696461207175616e646f20612042\n        /* \"#utility.yul\":21327:21328   */\n      0x00\n        /* \"#utility.yul\":21322:21325   */\n      dup4\n        /* \"#utility.yul\":21318:21329   */\n      add\n        /* \"#utility.yul\":21311:21366   */\n      mstore\n        /* \"#utility.yul\":21397:21419   */\n      0x6c6f636b70656469612065737461206174697661000000000000000000000000\n        /* \"#utility.yul\":21392:21394   */\n      0x20\n        /* \"#utility.yul\":21387:21390   */\n      dup4\n        /* \"#utility.yul\":21383:21395   */\n      add\n        /* \"#utility.yul\":21376:21420   */\n      mstore\n        /* \"#utility.yul\":21446:21448   */\n      0x40\n        /* \"#utility.yul\":21441:21444   */\n      dup3\n        /* \"#utility.yul\":21437:21449   */\n      add\n        /* \"#utility.yul\":21430:21449   */\n      swap1\n      pop\n        /* \"#utility.yul\":21217:21455   */\n      swap2\n      swap1\n      pop\n      jump\t// out\n        /* \"#utility.yul\":21461:21831   */\n    tag_706:\n      0x00\n        /* \"#utility.yul\":21624:21691   */\n      tag_708\n        /* \"#utility.yul\":21688:21690   */\n      0x26\n        /* \"#utility.yul\":21683:21686   */\n      dup4\n        /* \"#utility.yul\":21624:21691   */\n      tag_679\n      jump\t// in\n    tag_708:\n        /* \"#utility.yul\":21617:21691   */\n      swap2\n      pop\n        /* \"#utility.yul\":21721:21755   */\n      0x4a612065786973746520706167696e6120617469766120636f6d206573746520\n        /* \"#utility.yul\":21717:21718   */\n      0x00\n        /* \"#utility.yul\":21712:21715   */\n      dup4\n        /* \"#utility.yul\":21708:21719   */\n      add\n        /* \"#utility.yul\":21701:21756   */\n      mstore\n        /* \"#utility.yul\":21787:21795   */\n      0x746974756c6f0000000000000000000000000000000000000000000000000000\n        /* \"#utility.yul\":21782:21784   */\n      0x20\n        /* \"#utility.yul\":21777:21780   */\n      dup4\n        /* \"#utility.yul\":21773:21785   */\n      add\n        /* \"#utility.yul\":21766:21796   */\n      mstore\n        /* \"#utility.yul\":21822:21824   */\n      0x40\n        /* \"#utility.yul\":21817:21820   */\n      dup3\n        /* \"#utility.yul\":21813:21825   */\n      add\n        /* \"#utility.yul\":21806:21825   */\n      swap1\n      pop\n        /* \"#utility.yul\":21607:21831   */\n      swap2\n      swap1\n      pop\n      jump\t// out\n        /* \"#utility.yul\":21837:22167   */\n    tag_709:\n      0x00\n        /* \"#utility.yul\":22000:22067   */\n      tag_711\n        /* \"#utility.yul\":22064:22066   */\n      0x20\n        /* \"#utility.yul\":22059:22062   */\n      dup4\n        /* \"#utility.yul\":22000:22067   */\n      tag_679\n      jump\t// in\n    tag_711:\n        /* \"#utility.yul\":21993:22067   */\n      swap2\n      pop\n        /* \"#utility.yul\":22097:22131   */\n      0x496e6469636520646120706167696e6120666f726120646f20616c63616e6365\n        /* \"#utility.yul\":22093:22094   */\n      0x00\n        /* \"#utility.yul\":22088:22091   */\n      dup4\n        /* \"#utility.yul\":22084:22095   */\n      add\n        /* \"#utility.yul\":22077:22132   */\n      mstore\n        /* \"#utility.yul\":22158:22160   */\n      0x20\n        /* \"#utility.yul\":22153:22156   */\n      dup3\n        /* \"#utility.yul\":22149:22161   */\n      add\n        /* \"#utility.yul\":22142:22161   */\n      swap1\n      pop\n        /* \"#utility.yul\":21983:22167   */\n      swap2\n      swap1\n      pop\n      jump\t// out\n        /* \"#utility.yul\":22173:22566   */\n    tag_712:\n      0x00\n        /* \"#utility.yul\":22336:22403   */\n      tag_714\n        /* \"#utility.yul\":22400:22402   */\n      0x3d\n        /* \"#utility.yul\":22395:22398   */\n      dup4\n        /* \"#utility.yul\":22336:22403   */\n      tag_679\n      jump\t// in\n    tag_714:\n        /* \"#utility.yul\":22329:22403   */\n      swap2\n      pop\n        /* \"#utility.yul\":22433:22467   */\n      0x536f6d656e7465206f20646f6e6f20646573746120426c6f636b706564696120\n        /* \"#utility.yul\":22429:22430   */\n      0x00\n        /* \"#utility.yul\":22424:22427   */\n      dup4\n        /* \"#utility.yul\":22420:22431   */\n      add\n        /* \"#utility.yul\":22413:22468   */\n      mstore\n        /* \"#utility.yul\":22499:22530   */\n      0x706f646520616c7465726172206f20617472696275746f20617469766f000000\n        /* \"#utility.yul\":22494:22496   */\n      0x20\n        /* \"#utility.yul\":22489:22492   */\n      dup4\n        /* \"#utility.yul\":22485:22497   */\n      add\n        /* \"#utility.yul\":22478:22531   */\n      mstore\n        /* \"#utility.yul\":22557:22559   */\n      0x40\n        /* \"#utility.yul\":22552:22555   */\n      dup3\n        /* \"#utility.yul\":22548:22560   */\n      add\n        /* \"#utility.yul\":22541:22560   */\n      swap1\n      pop\n        /* \"#utility.yul\":22319:22566   */\n      swap2\n      swap1\n      pop\n      jump\t// out\n        /* \"#utility.yul\":22632:23897   */\n    tag_601:\n      0x00\n        /* \"#utility.yul\":22771:22775   */\n      0xa0\n        /* \"#utility.yul\":22766:22769   */\n      dup4\n        /* \"#utility.yul\":22762:22776   */\n      add\n        /* \"#utility.yul\":22859:22863   */\n      0x00\n        /* \"#utility.yul\":22852:22857   */\n      dup4\n        /* \"#utility.yul\":22848:22864   */\n      add\n        /* \"#utility.yul\":22842:22865   */\n      mload\n        /* \"#utility.yul\":22878:22935   */\n      tag_716\n        /* \"#utility.yul\":22929:22933   */\n      0x00\n        /* \"#utility.yul\":22924:22927   */\n      dup7\n        /* \"#utility.yul\":22920:22934   */\n      add\n        /* \"#utility.yul\":22906:22918   */\n      dup3\n        /* \"#utility.yul\":22878:22935   */\n      tag_659\n      jump\t// in\n    tag_716:\n        /* \"#utility.yul\":22786:22945   */\n      pop\n        /* \"#utility.yul\":23028:23032   */\n      0x20\n        /* \"#utility.yul\":23021:23026   */\n      dup4\n        /* \"#utility.yul\":23017:23033   */\n      add\n        /* \"#utility.yul\":23011:23034   */\n      mload\n        /* \"#utility.yul\":23047:23110   */\n      tag_717\n        /* \"#utility.yul\":23104:23108   */\n      0x20\n        /* \"#utility.yul\":23099:23102   */\n      dup7\n        /* \"#utility.yul\":23095:23109   */\n      add\n        /* \"#utility.yul\":23081:23093   */\n      dup3\n        /* \"#utility.yul\":23047:23110   */\n      tag_610\n      jump\t// in\n    tag_717:\n        /* \"#utility.yul\":22955:23120   */\n      pop\n        /* \"#utility.yul\":23209:23213   */\n      0x40\n        /* \"#utility.yul\":23202:23207   */\n      dup4\n        /* \"#utility.yul\":23198:23214   */\n      add\n        /* \"#utility.yul\":23192:23215   */\n      mload\n        /* \"#utility.yul\":23228:23291   */\n      tag_718\n        /* \"#utility.yul\":23285:23289   */\n      0x40\n        /* \"#utility.yul\":23280:23283   */\n      dup7\n        /* \"#utility.yul\":23276:23290   */\n      add\n        /* \"#utility.yul\":23262:23274   */\n      dup3\n        /* \"#utility.yul\":23228:23291   */\n      tag_609\n      jump\t// in\n    tag_718:\n        /* \"#utility.yul\":23130:23301   */\n      pop\n        /* \"#utility.yul\":23385:23389   */\n      0x60\n        /* \"#utility.yul\":23378:23383   */\n      dup4\n        /* \"#utility.yul\":23374:23390   */\n      add\n        /* \"#utility.yul\":23368:23391   */\n      mload\n        /* \"#utility.yul\":23438:23441   */\n      dup5\n        /* \"#utility.yul\":23432:23436   */\n      dup3\n        /* \"#utility.yul\":23428:23442   */\n      sub\n        /* \"#utility.yul\":23421:23425   */\n      0x60\n        /* \"#utility.yul\":23416:23419   */\n      dup7\n        /* \"#utility.yul\":23412:23426   */\n      add\n        /* \"#utility.yul\":23405:23443   */\n      mstore\n        /* \"#utility.yul\":23464:23537   */\n      tag_719\n        /* \"#utility.yul\":23532:23536   */\n      dup3\n        /* \"#utility.yul\":23518:23530   */\n      dup3\n        /* \"#utility.yul\":23464:23537   */\n      tag_666\n      jump\t// in\n    tag_719:\n        /* \"#utility.yul\":23456:23537   */\n      swap2\n      pop\n        /* \"#utility.yul\":23311:23548   */\n      pop\n        /* \"#utility.yul\":23633:23637   */\n      0x80\n        /* \"#utility.yul\":23626:23631   */\n      dup4\n        /* \"#utility.yul\":23622:23638   */\n      add\n        /* \"#utility.yul\":23616:23639   */\n      mload\n        /* \"#utility.yul\":23686:23689   */\n      dup5\n        /* \"#utility.yul\":23680:23684   */\n      dup3\n        /* \"#utility.yul\":23676:23690   */\n      sub\n        /* \"#utility.yul\":23669:23673   */\n      0x80\n        /* \"#utility.yul\":23664:23667   */\n      dup7\n        /* \"#utility.yul\":23660:23674   */\n      add\n        /* \"#utility.yul\":23653:23691   */\n      mstore\n        /* \"#utility.yul\":23712:23859   */\n      tag_720\n        /* \"#utility.yul\":23854:23858   */\n      dup3\n        /* \"#utility.yul\":23840:23852   */\n      dup3\n        /* \"#utility.yul\":23712:23859   */\n      tag_631\n      jump\t// in\n    tag_720:\n        /* \"#utility.yul\":23704:23859   */\n      swap2\n      pop\n        /* \"#utility.yul\":23558:23870   */\n      pop\n        /* \"#utility.yul\":23887:23891   */\n      dup1\n        /* \"#utility.yul\":23880:23891   */\n      swap2\n      pop\n        /* \"#utility.yul\":22740:23897   */\n      pop\n      swap3\n      swap2\n      pop\n      pop\n      jump\t// out\n        /* \"#utility.yul\":23963:25238   */\n    tag_721:\n      0x00\n        /* \"#utility.yul\":24112:24116   */\n      0xa0\n        /* \"#utility.yul\":24107:24110   */\n      dup4\n        /* \"#utility.yul\":24103:24117   */\n      add\n        /* \"#utility.yul\":24200:24204   */\n      0x00\n        /* \"#utility.yul\":24193:24198   */\n      dup4\n        /* \"#utility.yul\":24189:24205   */\n      add\n        /* \"#utility.yul\":24183:24206   */\n      mload\n        /* \"#utility.yul\":24219:24276   */\n      tag_723\n        /* \"#utility.yul\":24270:24274   */\n      0x00\n        /* \"#utility.yul\":24265:24268   */\n      dup7\n        /* \"#utility.yul\":24261:24275   */\n      add\n        /* \"#utility.yul\":24247:24259   */\n      dup3\n        /* \"#utility.yul\":24219:24276   */\n      tag_659\n      jump\t// in\n    tag_723:\n        /* \"#utility.yul\":24127:24286   */\n      pop\n        /* \"#utility.yul\":24369:24373   */\n      0x20\n        /* \"#utility.yul\":24362:24367   */\n      dup4\n        /* \"#utility.yul\":24358:24374   */\n      add\n        /* \"#utility.yul\":24352:24375   */\n      mload\n        /* \"#utility.yul\":24388:24451   */\n      tag_724\n        /* \"#utility.yul\":24445:24449   */\n      0x20\n        /* \"#utility.yul\":24440:24443   */\n      dup7\n        /* \"#utility.yul\":24436:24450   */\n      add\n        /* \"#utility.yul\":24422:24434   */\n      dup3\n        /* \"#utility.yul\":24388:24451   */\n      tag_610\n      jump\t// in\n    tag_724:\n        /* \"#utility.yul\":24296:24461   */\n      pop\n        /* \"#utility.yul\":24550:24554   */\n      0x40\n        /* \"#utility.yul\":24543:24548   */\n      dup4\n        /* \"#utility.yul\":24539:24555   */\n      add\n        /* \"#utility.yul\":24533:24556   */\n      mload\n        /* \"#utility.yul\":24569:24632   */\n      tag_725\n        /* \"#utility.yul\":24626:24630   */\n      0x40\n        /* \"#utility.yul\":24621:24624   */\n      dup7\n        /* \"#utility.yul\":24617:24631   */\n      add\n        /* \"#utility.yul\":24603:24615   */\n      dup3\n        /* \"#utility.yul\":24569:24632   */\n      tag_609\n      jump\t// in\n    tag_725:\n        /* \"#utility.yul\":24471:24642   */\n      pop\n        /* \"#utility.yul\":24726:24730   */\n      0x60\n        /* \"#utility.yul\":24719:24724   */\n      dup4\n        /* \"#utility.yul\":24715:24731   */\n      add\n        /* \"#utility.yul\":24709:24732   */\n      mload\n        /* \"#utility.yul\":24779:24782   */\n      dup5\n        /* \"#utility.yul\":24773:24777   */\n      dup3\n        /* \"#utility.yul\":24769:24783   */\n      sub\n        /* \"#utility.yul\":24762:24766   */\n      0x60\n        /* \"#utility.yul\":24757:24760   */\n      dup7\n        /* \"#utility.yul\":24753:24767   */\n      add\n        /* \"#utility.yul\":24746:24784   */\n      mstore\n        /* \"#utility.yul\":24805:24878   */\n      tag_726\n        /* \"#utility.yul\":24873:24877   */\n      dup3\n        /* \"#utility.yul\":24859:24871   */\n      dup3\n        /* \"#utility.yul\":24805:24878   */\n      tag_666\n      jump\t// in\n    tag_726:\n        /* \"#utility.yul\":24797:24878   */\n      swap2\n      pop\n        /* \"#utility.yul\":24652:24889   */\n      pop\n        /* \"#utility.yul\":24974:24978   */\n      0x80\n        /* \"#utility.yul\":24967:24972   */\n      dup4\n        /* \"#utility.yul\":24963:24979   */\n      add\n        /* \"#utility.yul\":24957:24980   */\n      mload\n        /* \"#utility.yul\":25027:25030   */\n      dup5\n        /* \"#utility.yul\":25021:25025   */\n      dup3\n        /* \"#utility.yul\":25017:25031   */\n      sub\n        /* \"#utility.yul\":25010:25014   */\n      0x80\n        /* \"#utility.yul\":25005:25008   */\n      dup7\n        /* \"#utility.yul\":25001:25015   */\n      add\n        /* \"#utility.yul\":24994:25032   */\n      mstore\n        /* \"#utility.yul\":25053:25200   */\n      tag_727\n        /* \"#utility.yul\":25195:25199   */\n      dup3\n        /* \"#utility.yul\":25181:25193   */\n      dup3\n        /* \"#utility.yul\":25053:25200   */\n      tag_631\n      jump\t// in\n    tag_727:\n        /* \"#utility.yul\":25045:25200   */\n      swap2\n      pop\n        /* \"#utility.yul\":24899:25211   */\n      pop\n        /* \"#utility.yul\":25228:25232   */\n      dup1\n        /* \"#utility.yul\":25221:25232   */\n      swap2\n      pop\n        /* \"#utility.yul\":24081:25238   */\n      pop\n      swap3\n      swap2\n      pop\n      pop\n      jump\t// out\n        /* \"#utility.yul\":25304:26249   */\n    tag_605:\n      0x00\n        /* \"#utility.yul\":25443:25447   */\n      0x80\n        /* \"#utility.yul\":25438:25441   */\n      dup4\n        /* \"#utility.yul\":25434:25448   */\n      add\n        /* \"#utility.yul\":25531:25535   */\n      0x00\n        /* \"#utility.yul\":25524:25529   */\n      dup4\n        /* \"#utility.yul\":25520:25536   */\n      add\n        /* \"#utility.yul\":25514:25537   */\n      mload\n        /* \"#utility.yul\":25550:25607   */\n      tag_729\n        /* \"#utility.yul\":25601:25605   */\n      0x00\n        /* \"#utility.yul\":25596:25599   */\n      dup7\n        /* \"#utility.yul\":25592:25606   */\n      add\n        /* \"#utility.yul\":25578:25590   */\n      dup3\n        /* \"#utility.yul\":25550:25607   */\n      tag_659\n      jump\t// in\n    tag_729:\n        /* \"#utility.yul\":25458:25617   */\n      pop\n        /* \"#utility.yul\":25700:25704   */\n      0x20\n        /* \"#utility.yul\":25693:25698   */\n      dup4\n        /* \"#utility.yul\":25689:25705   */\n      add\n        /* \"#utility.yul\":25683:25706   */\n      mload\n        /* \"#utility.yul\":25719:25782   */\n      tag_730\n        /* \"#utility.yul\":25776:25780   */\n      0x20\n        /* \"#utility.yul\":25771:25774   */\n      dup7\n        /* \"#utility.yul\":25767:25781   */\n      add\n        /* \"#utility.yul\":25753:25765   */\n      dup3\n        /* \"#utility.yul\":25719:25782   */\n      tag_610\n      jump\t// in\n    tag_730:\n        /* \"#utility.yul\":25627:25792   */\n      pop\n        /* \"#utility.yul\":25881:25885   */\n      0x40\n        /* \"#utility.yul\":25874:25879   */\n      dup4\n        /* \"#utility.yul\":25870:25886   */\n      add\n        /* \"#utility.yul\":25864:25887   */\n      mload\n        /* \"#utility.yul\":25900:25963   */\n      tag_731\n        /* \"#utility.yul\":25957:25961   */\n      0x40\n        /* \"#utility.yul\":25952:25955   */\n      dup7\n        /* \"#utility.yul\":25948:25962   */\n      add\n        /* \"#utility.yul\":25934:25946   */\n      dup3\n        /* \"#utility.yul\":25900:25963   */\n      tag_609\n      jump\t// in\n    tag_731:\n        /* \"#utility.yul\":25802:25973   */\n      pop\n        /* \"#utility.yul\":26059:26063   */\n      0x60\n        /* \"#utility.yul\":26052:26057   */\n      dup4\n        /* \"#utility.yul\":26048:26064   */\n      add\n        /* \"#utility.yul\":26042:26065   */\n      mload\n        /* \"#utility.yul\":26112:26115   */\n      dup5\n        /* \"#utility.yul\":26106:26110   */\n      dup3\n        /* \"#utility.yul\":26102:26116   */\n      sub\n        /* \"#utility.yul\":26095:26099   */\n      0x60\n        /* \"#utility.yul\":26090:26093   */\n      dup7\n        /* \"#utility.yul\":26086:26100   */\n      add\n        /* \"#utility.yul\":26079:26117   */\n      mstore\n        /* \"#utility.yul\":26138:26211   */\n      tag_732\n        /* \"#utility.yul\":26206:26210   */\n      dup3\n        /* \"#utility.yul\":26192:26204   */\n      dup3\n        /* \"#utility.yul\":26138:26211   */\n      tag_666\n      jump\t// in\n    tag_732:\n        /* \"#utility.yul\":26130:26211   */\n      swap2\n      pop\n        /* \"#utility.yul\":25983:26222   */\n      pop\n        /* \"#utility.yul\":26239:26243   */\n      dup1\n        /* \"#utility.yul\":26232:26243   */\n      swap2\n      pop\n        /* \"#utility.yul\":25412:26249   */\n      pop\n      swap3\n      swap2\n      pop\n      pop\n      jump\t// out\n        /* \"#utility.yul\":26315:27270   */\n    tag_733:\n      0x00\n        /* \"#utility.yul\":26464:26468   */\n      0x80\n        /* \"#utility.yul\":26459:26462   */\n      dup4\n        /* \"#utility.yul\":26455:26469   */\n      add\n        /* \"#utility.yul\":26552:26556   */\n      0x00\n        /* \"#utility.yul\":26545:26550   */\n      dup4\n        /* \"#utility.yul\":26541:26557   */\n      add\n        /* \"#utility.yul\":26535:26558   */\n      mload\n        /* \"#utility.yul\":26571:26628   */\n      tag_735\n        /* \"#utility.yul\":26622:26626   */\n      0x00\n        /* \"#utility.yul\":26617:26620   */\n      dup7\n        /* \"#utility.yul\":26613:26627   */\n      add\n        /* \"#utility.yul\":26599:26611   */\n      dup3\n        /* \"#utility.yul\":26571:26628   */\n      tag_659\n      jump\t// in\n    tag_735:\n        /* \"#utility.yul\":26479:26638   */\n      pop\n        /* \"#utility.yul\":26721:26725   */\n      0x20\n        /* \"#utility.yul\":26714:26719   */\n      dup4\n        /* \"#utility.yul\":26710:26726   */\n      add\n        /* \"#utility.yul\":26704:26727   */\n      mload\n        /* \"#utility.yul\":26740:26803   */\n      tag_736\n        /* \"#utility.yul\":26797:26801   */\n      0x20\n        /* \"#utility.yul\":26792:26795   */\n      dup7\n        /* \"#utility.yul\":26788:26802   */\n      add\n        /* \"#utility.yul\":26774:26786   */\n      dup3\n        /* \"#utility.yul\":26740:26803   */\n      tag_610\n      jump\t// in\n    tag_736:\n        /* \"#utility.yul\":26648:26813   */\n      pop\n        /* \"#utility.yul\":26902:26906   */\n      0x40\n        /* \"#utility.yul\":26895:26900   */\n      dup4\n        /* \"#utility.yul\":26891:26907   */\n      add\n        /* \"#utility.yul\":26885:26908   */\n      mload\n        /* \"#utility.yul\":26921:26984   */\n      tag_737\n        /* \"#utility.yul\":26978:26982   */\n      0x40\n        /* \"#utility.yul\":26973:26976   */\n      dup7\n        /* \"#utility.yul\":26969:26983   */\n      add\n        /* \"#utility.yul\":26955:26967   */\n      dup3\n        /* \"#utility.yul\":26921:26984   */\n      tag_609\n      jump\t// in\n    tag_737:\n        /* \"#utility.yul\":26823:26994   */\n      pop\n        /* \"#utility.yul\":27080:27084   */\n      0x60\n        /* \"#utility.yul\":27073:27078   */\n      dup4\n        /* \"#utility.yul\":27069:27085   */\n      add\n        /* \"#utility.yul\":27063:27086   */\n      mload\n        /* \"#utility.yul\":27133:27136   */\n      dup5\n        /* \"#utility.yul\":27127:27131   */\n      dup3\n        /* \"#utility.yul\":27123:27137   */\n      sub\n        /* \"#utility.yul\":27116:27120   */\n      0x60\n        /* \"#utility.yul\":27111:27114   */\n      dup7\n        /* \"#utility.yul\":27107:27121   */\n      add\n        /* \"#utility.yul\":27100:27138   */\n      mstore\n        /* \"#utility.yul\":27159:27232   */\n      tag_738\n        /* \"#utility.yul\":27227:27231   */\n      dup3\n        /* \"#utility.yul\":27213:27225   */\n      dup3\n        /* \"#utility.yul\":27159:27232   */\n      tag_666\n      jump\t// in\n    tag_738:\n        /* \"#utility.yul\":27151:27232   */\n      swap2\n      pop\n        /* \"#utility.yul\":27004:27243   */\n      pop\n        /* \"#utility.yul\":27260:27264   */\n      dup1\n        /* \"#utility.yul\":27253:27264   */\n      swap2\n      pop\n        /* \"#utility.yul\":26433:27270   */\n      pop\n      swap3\n      swap2\n      pop\n      pop\n      jump\t// out\n        /* \"#utility.yul\":27276:27384   */\n    tag_609:\n        /* \"#utility.yul\":27353:27377   */\n      tag_740\n        /* \"#utility.yul\":27371:27376   */\n      dup2\n        /* \"#utility.yul\":27353:27377   */\n      tag_741\n      jump\t// in\n    tag_740:\n        /* \"#utility.yul\":27348:27351   */\n      dup3\n        /* \"#utility.yul\":27341:27378   */\n      mstore\n        /* \"#utility.yul\":27331:27384   */\n      pop\n      pop\n      jump\t// out\n        /* \"#utility.yul\":27390:27508   */\n    tag_742:\n        /* \"#utility.yul\":27477:27501   */\n      tag_744\n        /* \"#utility.yul\":27495:27500   */\n      dup2\n        /* \"#utility.yul\":27477:27501   */\n      tag_741\n      jump\t// in\n    tag_744:\n        /* \"#utility.yul\":27472:27475   */\n      dup3\n        /* \"#utility.yul\":27465:27502   */\n      mstore\n        /* \"#utility.yul\":27455:27508   */\n      pop\n      pop\n      jump\t// out\n        /* \"#utility.yul\":27514:27789   */\n    tag_423:\n      0x00\n        /* \"#utility.yul\":27668:27763   */\n      tag_746\n        /* \"#utility.yul\":27759:27762   */\n      dup3\n        /* \"#utility.yul\":27750:27756   */\n      dup5\n        /* \"#utility.yul\":27668:27763   */\n      tag_682\n      jump\t// in\n    tag_746:\n        /* \"#utility.yul\":27661:27763   */\n      swap2\n      pop\n        /* \"#utility.yul\":27780:27783   */\n      dup2\n        /* \"#utility.yul\":27773:27783   */\n      swap1\n      pop\n        /* \"#utility.yul\":27650:27789   */\n      swap3\n      swap2\n      pop\n      pop\n      jump\t// out\n        /* \"#utility.yul\":27795:28017   */\n    tag_37:\n      0x00\n        /* \"#utility.yul\":27926:27928   */\n      0x20\n        /* \"#utility.yul\":27915:27924   */\n      dup3\n        /* \"#utility.yul\":27911:27929   */\n      add\n        /* \"#utility.yul\":27903:27929   */\n      swap1\n      pop\n        /* \"#utility.yul\":27939:28010   */\n      tag_748\n        /* \"#utility.yul\":28007:28008   */\n      0x00\n        /* \"#utility.yul\":27996:28005   */\n      dup4\n        /* \"#utility.yul\":27992:28009   */\n      add\n        /* \"#utility.yul\":27983:27989   */\n      dup5\n        /* \"#utility.yul\":27939:28010   */\n      tag_614\n      jump\t// in\n    tag_748:\n        /* \"#utility.yul\":27893:28017   */\n      swap3\n      swap2\n      pop\n      pop\n      jump\t// out\n        /* \"#utility.yul\":28023:28484   */\n    tag_32:\n      0x00\n        /* \"#utility.yul\":28248:28250   */\n      0x20\n        /* \"#utility.yul\":28237:28246   */\n      dup3\n        /* \"#utility.yul\":28233:28251   */\n      add\n        /* \"#utility.yul\":28225:28251   */\n      swap1\n      pop\n        /* \"#utility.yul\":28297:28306   */\n      dup2\n        /* \"#utility.yul\":28291:28295   */\n      dup2\n        /* \"#utility.yul\":28287:28307   */\n      sub\n        /* \"#utility.yul\":28283:28284   */\n      0x00\n        /* \"#utility.yul\":28272:28281   */\n      dup4\n        /* \"#utility.yul\":28268:28285   */\n      add\n        /* \"#utility.yul\":28261:28308   */\n      mstore\n        /* \"#utility.yul\":28325:28477   */\n      tag_750\n        /* \"#utility.yul\":28472:28476   */\n      dup2\n        /* \"#utility.yul\":28463:28469   */\n      dup5\n        /* \"#utility.yul\":28325:28477   */\n      tag_617\n      jump\t// in\n    tag_750:\n        /* \"#utility.yul\":28317:28477   */\n      swap1\n      pop\n        /* \"#utility.yul\":28215:28484   */\n      swap3\n      swap2\n      pop\n      pop\n      jump\t// out\n        /* \"#utility.yul\":28490:28863   */\n    tag_59:\n      0x00\n        /* \"#utility.yul\":28671:28673   */\n      0x20\n        /* \"#utility.yul\":28660:28669   */\n      dup3\n        /* \"#utility.yul\":28656:28674   */\n      add\n        /* \"#utility.yul\":28648:28674   */\n      swap1\n      pop\n        /* \"#utility.yul\":28720:28729   */\n      dup2\n        /* \"#utility.yul\":28714:28718   */\n      dup2\n        /* \"#utility.yul\":28710:28730   */\n      sub\n        /* \"#utility.yul\":28706:28707   */\n      0x00\n        /* \"#utility.yul\":28695:28704   */\n      dup4\n        /* \"#utility.yul\":28691:28708   */\n      add\n        /* \"#utility.yul\":28684:28731   */\n      mstore\n        /* \"#utility.yul\":28748:28856   */\n      tag_752\n        /* \"#utility.yul\":28851:28855   */\n      dup2\n        /* \"#utility.yul\":28842:28848   */\n      dup5\n        /* \"#utility.yul\":28748:28856   */\n      tag_645\n      jump\t// in\n    tag_752:\n        /* \"#utility.yul\":28740:28856   */\n      swap1\n      pop\n        /* \"#utility.yul\":28638:28863   */\n      swap3\n      swap2\n      pop\n      pop\n      jump\t// out\n        /* \"#utility.yul\":28869:29079   */\n    tag_88:\n      0x00\n        /* \"#utility.yul\":28994:28996   */\n      0x20\n        /* \"#utility.yul\":28983:28992   */\n      dup3\n        /* \"#utility.yul\":28979:28997   */\n      add\n        /* \"#utility.yul\":28971:28997   */\n      swap1\n      pop\n        /* \"#utility.yul\":29007:29072   */\n      tag_754\n        /* \"#utility.yul\":29069:29070   */\n      0x00\n        /* \"#utility.yul\":29058:29067   */\n      dup4\n        /* \"#utility.yul\":29054:29071   */\n      add\n        /* \"#utility.yul\":29045:29051   */\n      dup5\n        /* \"#utility.yul\":29007:29072   */\n      tag_663\n      jump\t// in\n    tag_754:\n        /* \"#utility.yul\":28961:29079   */\n      swap3\n      swap2\n      pop\n      pop\n      jump\t// out\n        /* \"#utility.yul\":29085:29865   */\n    tag_52:\n      0x00\n        /* \"#utility.yul\":29388:29391   */\n      0x80\n        /* \"#utility.yul\":29377:29386   */\n      dup3\n        /* \"#utility.yul\":29373:29392   */\n      add\n        /* \"#utility.yul\":29365:29392   */\n      swap1\n      pop\n        /* \"#utility.yul\":29402:29467   */\n      tag_756\n        /* \"#utility.yul\":29464:29465   */\n      0x00\n        /* \"#utility.yul\":29453:29462   */\n      dup4\n        /* \"#utility.yul\":29449:29466   */\n      add\n        /* \"#utility.yul\":29440:29446   */\n      dup8\n        /* \"#utility.yul\":29402:29467   */\n      tag_663\n      jump\t// in\n    tag_756:\n        /* \"#utility.yul\":29477:29549   */\n      tag_757\n        /* \"#utility.yul\":29545:29547   */\n      0x20\n        /* \"#utility.yul\":29534:29543   */\n      dup4\n        /* \"#utility.yul\":29530:29548   */\n      add\n        /* \"#utility.yul\":29521:29527   */\n      dup7\n        /* \"#utility.yul\":29477:29549   */\n      tag_614\n      jump\t// in\n    tag_757:\n        /* \"#utility.yul\":29559:29631   */\n      tag_758\n        /* \"#utility.yul\":29627:29629   */\n      0x40\n        /* \"#utility.yul\":29616:29625   */\n      dup4\n        /* \"#utility.yul\":29612:29630   */\n      add\n        /* \"#utility.yul\":29603:29609   */\n      dup6\n        /* \"#utility.yul\":29559:29631   */\n      tag_742\n      jump\t// in\n    tag_758:\n        /* \"#utility.yul\":29678:29687   */\n      dup2\n        /* \"#utility.yul\":29672:29676   */\n      dup2\n        /* \"#utility.yul\":29668:29688   */\n      sub\n        /* \"#utility.yul\":29663:29665   */\n      0x60\n        /* \"#utility.yul\":29652:29661   */\n      dup4\n        /* \"#utility.yul\":29648:29666   */\n      add\n        /* \"#utility.yul\":29641:29689   */\n      mstore\n        /* \"#utility.yul\":29706:29858   */\n      tag_759\n        /* \"#utility.yul\":29853:29857   */\n      dup2\n        /* \"#utility.yul\":29844:29850   */\n      dup5\n        /* \"#utility.yul\":29706:29858   */\n      tag_617\n      jump\t// in\n    tag_759:\n        /* \"#utility.yul\":29698:29858   */\n      swap1\n      pop\n        /* \"#utility.yul\":29355:29865   */\n      swap6\n      swap5\n      pop\n      pop\n      pop\n      pop\n      pop\n      jump\t// out\n        /* \"#utility.yul\":29871:30503   */\n    tag_115:\n      0x00\n        /* \"#utility.yul\":30100:30103   */\n      0x80\n        /* \"#utility.yul\":30089:30098   */\n      dup3\n        /* \"#utility.yul\":30085:30104   */\n      add\n        /* \"#utility.yul\":30077:30104   */\n      swap1\n      pop\n        /* \"#utility.yul\":30114:30179   */\n      tag_761\n        /* \"#utility.yul\":30176:30177   */\n      0x00\n        /* \"#utility.yul\":30165:30174   */\n      dup4\n        /* \"#utility.yul\":30161:30178   */\n      add\n        /* \"#utility.yul\":30152:30158   */\n      dup8\n        /* \"#utility.yul\":30114:30179   */\n      tag_663\n      jump\t// in\n    tag_761:\n        /* \"#utility.yul\":30189:30261   */\n      tag_762\n        /* \"#utility.yul\":30257:30259   */\n      0x20\n        /* \"#utility.yul\":30246:30255   */\n      dup4\n        /* \"#utility.yul\":30242:30260   */\n      add\n        /* \"#utility.yul\":30233:30239   */\n      dup7\n        /* \"#utility.yul\":30189:30261   */\n      tag_614\n      jump\t// in\n    tag_762:\n        /* \"#utility.yul\":30271:30343   */\n      tag_763\n        /* \"#utility.yul\":30339:30341   */\n      0x40\n        /* \"#utility.yul\":30328:30337   */\n      dup4\n        /* \"#utility.yul\":30324:30342   */\n      add\n        /* \"#utility.yul\":30315:30321   */\n      dup6\n        /* \"#utility.yul\":30271:30343   */\n      tag_742\n      jump\t// in\n    tag_763:\n        /* \"#utility.yul\":30390:30399   */\n      dup2\n        /* \"#utility.yul\":30384:30388   */\n      dup2\n        /* \"#utility.yul\":30380:30400   */\n      sub\n        /* \"#utility.yul\":30375:30377   */\n      0x60\n        /* \"#utility.yul\":30364:30373   */\n      dup4\n        /* \"#utility.yul\":30360:30378   */\n      add\n        /* \"#utility.yul\":30353:30401   */\n      mstore\n        /* \"#utility.yul\":30418:30496   */\n      tag_764\n        /* \"#utility.yul\":30491:30495   */\n      dup2\n        /* \"#utility.yul\":30482:30488   */\n      dup5\n        /* \"#utility.yul\":30418:30496   */\n      tag_675\n      jump\t// in\n    tag_764:\n        /* \"#utility.yul\":30410:30496   */\n      swap1\n      pop\n        /* \"#utility.yul\":30067:30503   */\n      swap6\n      swap5\n      pop\n      pop\n      pop\n      pop\n      pop\n      jump\t// out\n        /* \"#utility.yul\":30509:31050   */\n    tag_120:\n      0x00\n        /* \"#utility.yul\":30718:30721   */\n      0x80\n        /* \"#utility.yul\":30707:30716   */\n      dup3\n        /* \"#utility.yul\":30703:30722   */\n      add\n        /* \"#utility.yul\":30695:30722   */\n      swap1\n      pop\n        /* \"#utility.yul\":30732:30797   */\n      tag_766\n        /* \"#utility.yul\":30794:30795   */\n      0x00\n        /* \"#utility.yul\":30783:30792   */\n      dup4\n        /* \"#utility.yul\":30779:30796   */\n      add\n        /* \"#utility.yul\":30770:30776   */\n      dup8\n        /* \"#utility.yul\":30732:30797   */\n      tag_663\n      jump\t// in\n    tag_766:\n        /* \"#utility.yul\":30807:30879   */\n      tag_767\n        /* \"#utility.yul\":30875:30877   */\n      0x20\n        /* \"#utility.yul\":30864:30873   */\n      dup4\n        /* \"#utility.yul\":30860:30878   */\n      add\n        /* \"#utility.yul\":30851:30857   */\n      dup7\n        /* \"#utility.yul\":30807:30879   */\n      tag_614\n      jump\t// in\n    tag_767:\n        /* \"#utility.yul\":30889:30961   */\n      tag_768\n        /* \"#utility.yul\":30957:30959   */\n      0x40\n        /* \"#utility.yul\":30946:30955   */\n      dup4\n        /* \"#utility.yul\":30942:30960   */\n      add\n        /* \"#utility.yul\":30933:30939   */\n      dup6\n        /* \"#utility.yul\":30889:30961   */\n      tag_742\n      jump\t// in\n    tag_768:\n        /* \"#utility.yul\":30971:31043   */\n      tag_769\n        /* \"#utility.yul\":31039:31041   */\n      0x60\n        /* \"#utility.yul\":31028:31037   */\n      dup4\n        /* \"#utility.yul\":31024:31042   */\n      add\n        /* \"#utility.yul\":31015:31021   */\n      dup5\n        /* \"#utility.yul\":30971:31043   */\n      tag_742\n      jump\t// in\n    tag_769:\n        /* \"#utility.yul\":30685:31050   */\n      swap6\n      swap5\n      pop\n      pop\n      pop\n      pop\n      pop\n      jump\t// out\n        /* \"#utility.yul\":31056:31475   */\n    tag_294:\n      0x00\n        /* \"#utility.yul\":31260:31262   */\n      0x20\n        /* \"#utility.yul\":31249:31258   */\n      dup3\n        /* \"#utility.yul\":31245:31263   */\n      add\n        /* \"#utility.yul\":31237:31263   */\n      swap1\n      pop\n        /* \"#utility.yul\":31309:31318   */\n      dup2\n        /* \"#utility.yul\":31303:31307   */\n      dup2\n        /* \"#utility.yul\":31299:31319   */\n      sub\n        /* \"#utility.yul\":31295:31296   */\n      0x00\n        /* \"#utility.yul\":31284:31293   */\n      dup4\n        /* \"#utility.yul\":31280:31297   */\n      add\n        /* \"#utility.yul\":31273:31320   */\n      mstore\n        /* \"#utility.yul\":31337:31468   */\n      tag_771\n        /* \"#utility.yul\":31463:31467   */\n      dup2\n        /* \"#utility.yul\":31337:31468   */\n      tag_688\n      jump\t// in\n    tag_771:\n        /* \"#utility.yul\":31329:31468   */\n      swap1\n      pop\n        /* \"#utility.yul\":31227:31475   */\n      swap2\n      swap1\n      pop\n      jump\t// out\n        /* \"#utility.yul\":31481:31900   */\n    tag_380:\n      0x00\n        /* \"#utility.yul\":31685:31687   */\n      0x20\n        /* \"#utility.yul\":31674:31683   */\n      dup3\n        /* \"#utility.yul\":31670:31688   */\n      add\n        /* \"#utility.yul\":31662:31688   */\n      swap1\n      pop\n        /* \"#utility.yul\":31734:31743   */\n      dup2\n        /* \"#utility.yul\":31728:31732   */\n      dup2\n        /* \"#utility.yul\":31724:31744   */\n      sub\n        /* \"#utility.yul\":31720:31721   */\n      0x00\n        /* \"#utility.yul\":31709:31718   */\n      dup4\n        /* \"#utility.yul\":31705:31722   */\n      add\n        /* \"#utility.yul\":31698:31745   */\n      mstore\n        /* \"#utility.yul\":31762:31893   */\n      tag_773\n        /* \"#utility.yul\":31888:31892   */\n      dup2\n        /* \"#utility.yul\":31762:31893   */\n      tag_691\n      jump\t// in\n    tag_773:\n        /* \"#utility.yul\":31754:31893   */\n      swap1\n      pop\n        /* \"#utility.yul\":31652:31900   */\n      swap2\n      swap1\n      pop\n      jump\t// out\n        /* \"#utility.yul\":31906:32325   */\n    tag_251:\n      0x00\n        /* \"#utility.yul\":32110:32112   */\n      0x20\n        /* \"#utility.yul\":32099:32108   */\n      dup3\n        /* \"#utility.yul\":32095:32113   */\n      add\n        /* \"#utility.yul\":32087:32113   */\n      swap1\n      pop\n        /* \"#utility.yul\":32159:32168   */\n      dup2\n        /* \"#utility.yul\":32153:32157   */\n      dup2\n        /* \"#utility.yul\":32149:32169   */\n      sub\n        /* \"#utility.yul\":32145:32146   */\n      0x00\n        /* \"#utility.yul\":32134:32143   */\n      dup4\n        /* \"#utility.yul\":32130:32147   */\n      add\n        /* \"#utility.yul\":32123:32170   */\n      mstore\n        /* \"#utility.yul\":32187:32318   */\n      tag_775\n        /* \"#utility.yul\":32313:32317   */\n      dup2\n        /* \"#utility.yul\":32187:32318   */\n      tag_694\n      jump\t// in\n    tag_775:\n        /* \"#utility.yul\":32179:32318   */\n      swap1\n      pop\n        /* \"#utility.yul\":32077:32325   */\n      swap2\n      swap1\n      pop\n      jump\t// out\n        /* \"#utility.yul\":32331:32750   */\n    tag_224:\n      0x00\n        /* \"#utility.yul\":32535:32537   */\n      0x20\n        /* \"#utility.yul\":32524:32533   */\n      dup3\n        /* \"#utility.yul\":32520:32538   */\n      add\n        /* \"#utility.yul\":32512:32538   */\n      swap1\n      pop\n        /* \"#utility.yul\":32584:32593   */\n      dup2\n        /* \"#utility.yul\":32578:32582   */\n      dup2\n        /* \"#utility.yul\":32574:32594   */\n      sub\n        /* \"#utility.yul\":32570:32571   */\n      0x00\n        /* \"#utility.yul\":32559:32568   */\n      dup4\n        /* \"#utility.yul\":32555:32572   */\n      add\n        /* \"#utility.yul\":32548:32595   */\n      mstore\n        /* \"#utility.yul\":32612:32743   */\n      tag_777\n        /* \"#utility.yul\":32738:32742   */\n      dup2\n        /* \"#utility.yul\":32612:32743   */\n      tag_697\n      jump\t// in\n    tag_777:\n        /* \"#utility.yul\":32604:32743   */\n      swap1\n      pop\n        /* \"#utility.yul\":32502:32750   */\n      swap2\n      swap1\n      pop\n      jump\t// out\n        /* \"#utility.yul\":32756:33175   */\n    tag_256:\n      0x00\n        /* \"#utility.yul\":32960:32962   */\n      0x20\n        /* \"#utility.yul\":32949:32958   */\n      dup3\n        /* \"#utility.yul\":32945:32963   */\n      add\n        /* \"#utility.yul\":32937:32963   */\n      swap1\n      pop\n        /* \"#utility.yul\":33009:33018   */\n      dup2\n        /* \"#utility.yul\":33003:33007   */\n      dup2\n        /* \"#utility.yul\":32999:33019   */\n      sub\n        /* \"#utility.yul\":32995:32996   */\n      0x00\n        /* \"#utility.yul\":32984:32993   */\n      dup4\n        /* \"#utility.yul\":32980:32997   */\n      add\n        /* \"#utility.yul\":32973:33020   */\n      mstore\n        /* \"#utility.yul\":33037:33168   */\n      tag_779\n        /* \"#utility.yul\":33163:33167   */\n      dup2\n        /* \"#utility.yul\":33037:33168   */\n      tag_700\n      jump\t// in\n    tag_779:\n        /* \"#utility.yul\":33029:33168   */\n      swap1\n      pop\n        /* \"#utility.yul\":32927:33175   */\n      swap2\n      swap1\n      pop\n      jump\t// out\n        /* \"#utility.yul\":33181:33600   */\n    tag_163:\n      0x00\n        /* \"#utility.yul\":33385:33387   */\n      0x20\n        /* \"#utility.yul\":33374:33383   */\n      dup3\n        /* \"#utility.yul\":33370:33388   */\n      add\n        /* \"#utility.yul\":33362:33388   */\n      swap1\n      pop\n        /* \"#utility.yul\":33434:33443   */\n      dup2\n        /* \"#utility.yul\":33428:33432   */\n      dup2\n        /* \"#utility.yul\":33424:33444   */\n      sub\n        /* \"#utility.yul\":33420:33421   */\n      0x00\n        /* \"#utility.yul\":33409:33418   */\n      dup4\n        /* \"#utility.yul\":33405:33422   */\n      add\n        /* \"#utility.yul\":33398:33445   */\n      mstore\n        /* \"#utility.yul\":33462:33593   */\n      tag_781\n        /* \"#utility.yul\":33588:33592   */\n      dup2\n        /* \"#utility.yul\":33462:33593   */\n      tag_703\n      jump\t// in\n    tag_781:\n        /* \"#utility.yul\":33454:33593   */\n      swap1\n      pop\n        /* \"#utility.yul\":33352:33600   */\n      swap2\n      swap1\n      pop\n      jump\t// out\n        /* \"#utility.yul\":33606:34025   */\n    tag_169:\n      0x00\n        /* \"#utility.yul\":33810:33812   */\n      0x20\n        /* \"#utility.yul\":33799:33808   */\n      dup3\n        /* \"#utility.yul\":33795:33813   */\n      add\n        /* \"#utility.yul\":33787:33813   */\n      swap1\n      pop\n        /* \"#utility.yul\":33859:33868   */\n      dup2\n        /* \"#utility.yul\":33853:33857   */\n      dup2\n        /* \"#utility.yul\":33849:33869   */\n      sub\n        /* \"#utility.yul\":33845:33846   */\n      0x00\n        /* \"#utility.yul\":33834:33843   */\n      dup4\n        /* \"#utility.yul\":33830:33847   */\n      add\n        /* \"#utility.yul\":33823:33870   */\n      mstore\n        /* \"#utility.yul\":33887:34018   */\n      tag_783\n        /* \"#utility.yul\":34013:34017   */\n      dup2\n        /* \"#utility.yul\":33887:34018   */\n      tag_706\n      jump\t// in\n    tag_783:\n        /* \"#utility.yul\":33879:34018   */\n      swap1\n      pop\n        /* \"#utility.yul\":33777:34025   */\n      swap2\n      swap1\n      pop\n      jump\t// out\n        /* \"#utility.yul\":34031:34450   */\n    tag_246:\n      0x00\n        /* \"#utility.yul\":34235:34237   */\n      0x20\n        /* \"#utility.yul\":34224:34233   */\n      dup3\n        /* \"#utility.yul\":34220:34238   */\n      add\n        /* \"#utility.yul\":34212:34238   */\n      swap1\n      pop\n        /* \"#utility.yul\":34284:34293   */\n      dup2\n        /* \"#utility.yul\":34278:34282   */\n      dup2\n        /* \"#utility.yul\":34274:34294   */\n      sub\n        /* \"#utility.yul\":34270:34271   */\n      0x00\n        /* \"#utility.yul\":34259:34268   */\n      dup4\n        /* \"#utility.yul\":34255:34272   */\n      add\n        /* \"#utility.yul\":34248:34295   */\n      mstore\n        /* \"#utility.yul\":34312:34443   */\n      tag_785\n        /* \"#utility.yul\":34438:34442   */\n      dup2\n        /* \"#utility.yul\":34312:34443   */\n      tag_709\n      jump\t// in\n    tag_785:\n        /* \"#utility.yul\":34304:34443   */\n      swap1\n      pop\n        /* \"#utility.yul\":34202:34450   */\n      swap2\n      swap1\n      pop\n      jump\t// out\n        /* \"#utility.yul\":34456:34875   */\n    tag_158:\n      0x00\n        /* \"#utility.yul\":34660:34662   */\n      0x20\n        /* \"#utility.yul\":34649:34658   */\n      dup3\n        /* \"#utility.yul\":34645:34663   */\n      add\n        /* \"#utility.yul\":34637:34663   */\n      swap1\n      pop\n        /* \"#utility.yul\":34709:34718   */\n      dup2\n        /* \"#utility.yul\":34703:34707   */\n      dup2\n        /* \"#utility.yul\":34699:34719   */\n      sub\n        /* \"#utility.yul\":34695:34696   */\n      0x00\n        /* \"#utility.yul\":34684:34693   */\n      dup4\n        /* \"#utility.yul\":34680:34697   */\n      add\n        /* \"#utility.yul\":34673:34720   */\n      mstore\n        /* \"#utility.yul\":34737:34868   */\n      tag_787\n        /* \"#utility.yul\":34863:34867   */\n      dup2\n        /* \"#utility.yul\":34737:34868   */\n      tag_712\n      jump\t// in\n    tag_787:\n        /* \"#utility.yul\":34729:34868   */\n      swap1\n      pop\n        /* \"#utility.yul\":34627:34875   */\n      swap2\n      swap1\n      pop\n      jump\t// out\n        /* \"#utility.yul\":34881:35242   */\n    tag_71:\n      0x00\n        /* \"#utility.yul\":35056:35058   */\n      0x20\n        /* \"#utility.yul\":35045:35054   */\n      dup3\n        /* \"#utility.yul\":35041:35059   */\n      add\n        /* \"#utility.yul\":35033:35059   */\n      swap1\n      pop\n        /* \"#utility.yul\":35105:35114   */\n      dup2\n        /* \"#utility.yul\":35099:35103   */\n      dup2\n        /* \"#utility.yul\":35095:35115   */\n      sub\n        /* \"#utility.yul\":35091:35092   */\n      0x00\n        /* \"#utility.yul\":35080:35089   */\n      dup4\n        /* \"#utility.yul\":35076:35093   */\n      add\n        /* \"#utility.yul\":35069:35116   */\n      mstore\n        /* \"#utility.yul\":35133:35235   */\n      tag_789\n        /* \"#utility.yul\":35230:35234   */\n      dup2\n        /* \"#utility.yul\":35221:35227   */\n      dup5\n        /* \"#utility.yul\":35133:35235   */\n      tag_721\n      jump\t// in\n    tag_789:\n        /* \"#utility.yul\":35125:35235   */\n      swap1\n      pop\n        /* \"#utility.yul\":35023:35242   */\n      swap3\n      swap2\n      pop\n      pop\n      jump\t// out\n        /* \"#utility.yul\":35248:35609   */\n    tag_83:\n      0x00\n        /* \"#utility.yul\":35423:35425   */\n      0x20\n        /* \"#utility.yul\":35412:35421   */\n      dup3\n        /* \"#utility.yul\":35408:35426   */\n      add\n        /* \"#utility.yul\":35400:35426   */\n      swap1\n      pop\n        /* \"#utility.yul\":35472:35481   */\n      dup2\n        /* \"#utility.yul\":35466:35470   */\n      dup2\n        /* \"#utility.yul\":35462:35482   */\n      sub\n        /* \"#utility.yul\":35458:35459   */\n      0x00\n        /* \"#utility.yul\":35447:35456   */\n      dup4\n        /* \"#utility.yul\":35443:35460   */\n      add\n        /* \"#utility.yul\":35436:35483   */\n      mstore\n        /* \"#utility.yul\":35500:35602   */\n      tag_791\n        /* \"#utility.yul\":35597:35601   */\n      dup2\n        /* \"#utility.yul\":35588:35594   */\n      dup5\n        /* \"#utility.yul\":35500:35602   */\n      tag_733\n      jump\t// in\n    tag_791:\n        /* \"#utility.yul\":35492:35602   */\n      swap1\n      pop\n        /* \"#utility.yul\":35390:35609   */\n      swap3\n      swap2\n      pop\n      pop\n      jump\t// out\n        /* \"#utility.yul\":35615:35837   */\n    tag_64:\n      0x00\n        /* \"#utility.yul\":35746:35748   */\n      0x20\n        /* \"#utility.yul\":35735:35744   */\n      dup3\n        /* \"#utility.yul\":35731:35749   */\n      add\n        /* \"#utility.yul\":35723:35749   */\n      swap1\n      pop\n        /* \"#utility.yul\":35759:35830   */\n      tag_793\n        /* \"#utility.yul\":35827:35828   */\n      0x00\n        /* \"#utility.yul\":35816:35825   */\n      dup4\n        /* \"#utility.yul\":35812:35829   */\n      add\n        /* \"#utility.yul\":35803:35809   */\n      dup5\n        /* \"#utility.yul\":35759:35830   */\n      tag_742\n      jump\t// in\n    tag_793:\n        /* \"#utility.yul\":35713:35837   */\n      swap3\n      swap2\n      pop\n      pop\n      jump\t// out\n        /* \"#utility.yul\":35843:36126   */\n    tag_443:\n      0x00\n        /* \"#utility.yul\":35909:35911   */\n      0x40\n        /* \"#utility.yul\":35903:35912   */\n      mload\n        /* \"#utility.yul\":35893:35912   */\n      swap1\n      pop\n        /* \"#utility.yul\":35951:35955   */\n      dup2\n        /* \"#utility.yul\":35943:35949   */\n      dup2\n        /* \"#utility.yul\":35939:35956   */\n      add\n        /* \"#utility.yul\":36058:36064   */\n      dup2\n        /* \"#utility.yul\":36046:36056   */\n      dup2\n        /* \"#utility.yul\":36043:36065   */\n      lt\n        /* \"#utility.yul\":36022:36040   */\n      0xffffffffffffffff\n        /* \"#utility.yul\":36010:36020   */\n      dup3\n        /* \"#utility.yul\":36007:36041   */\n      gt\n        /* \"#utility.yul\":36004:36066   */\n      or\n        /* \"#utility.yul\":36001:36003   */\n      iszero\n      tag_795\n      jumpi\n        /* \"#utility.yul\":36069:36087   */\n      tag_796\n      tag_797\n      jump\t// in\n    tag_796:\n        /* \"#utility.yul\":36001:36003   */\n    tag_795:\n        /* \"#utility.yul\":36109:36119   */\n      dup1\n        /* \"#utility.yul\":36105:36107   */\n      0x40\n        /* \"#utility.yul\":36098:36120   */\n      mstore\n        /* \"#utility.yul\":35883:36126   */\n      pop\n      swap2\n      swap1\n      pop\n      jump\t// out\n        /* \"#utility.yul\":36132:36465   */\n    tag_442:\n      0x00\n        /* \"#utility.yul\":36321:36339   */\n      0xffffffffffffffff\n        /* \"#utility.yul\":36313:36319   */\n      dup3\n        /* \"#utility.yul\":36310:36340   */\n      gt\n        /* \"#utility.yul\":36307:36309   */\n      iszero\n      tag_799\n      jumpi\n        /* \"#utility.yul\":36343:36361   */\n      tag_800\n      tag_797\n      jump\t// in\n    tag_800:\n        /* \"#utility.yul\":36307:36309   */\n    tag_799:\n        /* \"#utility.yul\":36393:36397   */\n      0x20\n        /* \"#utility.yul\":36385:36391   */\n      dup3\n        /* \"#utility.yul\":36381:36398   */\n      mul\n        /* \"#utility.yul\":36373:36398   */\n      swap1\n      pop\n        /* \"#utility.yul\":36453:36457   */\n      0x20\n        /* \"#utility.yul\":36447:36451   */\n      dup2\n        /* \"#utility.yul\":36443:36458   */\n      add\n        /* \"#utility.yul\":36435:36458   */\n      swap1\n      pop\n        /* \"#utility.yul\":36236:36465   */\n      swap2\n      swap1\n      pop\n      jump\t// out\n        /* \"#utility.yul\":36471:36804   */\n    tag_453:\n      0x00\n        /* \"#utility.yul\":36660:36678   */\n      0xffffffffffffffff\n        /* \"#utility.yul\":36652:36658   */\n      dup3\n        /* \"#utility.yul\":36649:36679   */\n      gt\n        /* \"#utility.yul\":36646:36648   */\n      iszero\n      tag_802\n      jumpi\n        /* \"#utility.yul\":36682:36700   */\n      tag_803\n      tag_797\n      jump\t// in\n    tag_803:\n        /* \"#utility.yul\":36646:36648   */\n    tag_802:\n        /* \"#utility.yul\":36732:36736   */\n      0x20\n        /* \"#utility.yul\":36724:36730   */\n      dup3\n        /* \"#utility.yul\":36720:36737   */\n      mul\n        /* \"#utility.yul\":36712:36737   */\n      swap1\n      pop\n        /* \"#utility.yul\":36792:36796   */\n      0x20\n        /* \"#utility.yul\":36786:36790   */\n      dup2\n        /* \"#utility.yul\":36782:36797   */\n      add\n        /* \"#utility.yul\":36774:36797   */\n      swap1\n      pop\n        /* \"#utility.yul\":36575:36804   */\n      swap2\n      swap1\n      pop\n      jump\t// out\n        /* \"#utility.yul\":36810:37142   */\n    tag_472:\n      0x00\n        /* \"#utility.yul\":36962:36980   */\n      0xffffffffffffffff\n        /* \"#utility.yul\":36954:36960   */\n      dup3\n        /* \"#utility.yul\":36951:36981   */\n      gt\n        /* \"#utility.yul\":36948:36950   */\n      iszero\n      tag_805\n      jumpi\n        /* \"#utility.yul\":36984:37002   */\n      tag_806\n      tag_797\n      jump\t// in\n    tag_806:\n        /* \"#utility.yul\":36948:36950   */\n    tag_805:\n        /* \"#utility.yul\":37069:37073   */\n      0x1f\n        /* \"#utility.yul\":37065:37074   */\n      not\n        /* \"#utility.yul\":37058:37062   */\n      0x1f\n        /* \"#utility.yul\":37050:37056   */\n      dup4\n        /* \"#utility.yul\":37046:37063   */\n      add\n        /* \"#utility.yul\":37042:37075   */\n      and\n        /* \"#utility.yul\":37034:37075   */\n      swap1\n      pop\n        /* \"#utility.yul\":37130:37134   */\n      0x20\n        /* \"#utility.yul\":37124:37128   */\n      dup2\n        /* \"#utility.yul\":37120:37135   */\n      add\n        /* \"#utility.yul\":37112:37135   */\n      swap1\n      pop\n        /* \"#utility.yul\":36877:37142   */\n      swap2\n      swap1\n      pop\n      jump\t// out\n        /* \"#utility.yul\":37148:37302   */\n    tag_624:\n      0x00\n        /* \"#utility.yul\":37260:37263   */\n      dup2\n        /* \"#utility.yul\":37252:37263   */\n      swap1\n      pop\n        /* \"#utility.yul\":37290:37294   */\n      0x20\n        /* \"#utility.yul\":37285:37288   */\n      dup3\n        /* \"#utility.yul\":37281:37295   */\n      add\n        /* \"#utility.yul\":37273:37295   */\n      swap1\n      pop\n        /* \"#utility.yul\":37242:37302   */\n      swap2\n      swap1\n      pop\n      jump\t// out\n        /* \"#utility.yul\":37308:37462   */\n    tag_638:\n      0x00\n        /* \"#utility.yul\":37420:37423   */\n      dup2\n        /* \"#utility.yul\":37412:37423   */\n      swap1\n      pop\n        /* \"#utility.yul\":37450:37454   */\n      0x20\n        /* \"#utility.yul\":37445:37448   */\n      dup3\n        /* \"#utility.yul\":37441:37455   */\n      add\n        /* \"#utility.yul\":37433:37455   */\n      swap1\n      pop\n        /* \"#utility.yul\":37402:37462   */\n      swap2\n      swap1\n      pop\n      jump\t// out\n        /* \"#utility.yul\":37468:37600   */\n    tag_652:\n      0x00\n        /* \"#utility.yul\":37558:37561   */\n      dup2\n        /* \"#utility.yul\":37550:37561   */\n      swap1\n      pop\n        /* \"#utility.yul\":37588:37592   */\n      0x20\n        /* \"#utility.yul\":37583:37586   */\n      dup3\n        /* \"#utility.yul\":37579:37593   */\n      add\n        /* \"#utility.yul\":37571:37593   */\n      swap1\n      pop\n        /* \"#utility.yul\":37540:37600   */\n      swap2\n      swap1\n      pop\n      jump\t// out\n        /* \"#utility.yul\":37606:37742   */\n    tag_620:\n      0x00\n        /* \"#utility.yul\":37729:37734   */\n      dup2\n        /* \"#utility.yul\":37723:37735   */\n      mload\n        /* \"#utility.yul\":37713:37735   */\n      swap1\n      pop\n        /* \"#utility.yul\":37702:37742   */\n      swap2\n      swap1\n      pop\n      jump\t// out\n        /* \"#utility.yul\":37748:37884   */\n    tag_634:\n      0x00\n        /* \"#utility.yul\":37871:37876   */\n      dup2\n        /* \"#utility.yul\":37865:37877   */\n      mload\n        /* \"#utility.yul\":37855:37877   */\n      swap1\n      pop\n        /* \"#utility.yul\":37844:37884   */\n      swap2\n      swap1\n      pop\n      jump\t// out\n        /* \"#utility.yul\":37890:38004   */\n    tag_648:\n      0x00\n        /* \"#utility.yul\":37991:37996   */\n      dup2\n        /* \"#utility.yul\":37985:37997   */\n      mload\n        /* \"#utility.yul\":37975:37997   */\n      swap1\n      pop\n        /* \"#utility.yul\":37964:38004   */\n      swap2\n      swap1\n      pop\n      jump\t// out\n        /* \"#utility.yul\":38010:38109   */\n    tag_669:\n      0x00\n        /* \"#utility.yul\":38096:38101   */\n      dup2\n        /* \"#utility.yul\":38090:38102   */\n      mload\n        /* \"#utility.yul\":38080:38102   */\n      swap1\n      pop\n        /* \"#utility.yul\":38069:38109   */\n      swap2\n      swap1\n      pop\n      jump\t// out\n        /* \"#utility.yul\":38115:38250   */\n    tag_630:\n      0x00\n        /* \"#utility.yul\":38239:38243   */\n      0x20\n        /* \"#utility.yul\":38234:38237   */\n      dup3\n        /* \"#utility.yul\":38230:38244   */\n      add\n        /* \"#utility.yul\":38222:38244   */\n      swap1\n      pop\n        /* \"#utility.yul\":38212:38250   */\n      swap2\n      swap1\n      pop\n      jump\t// out\n        /* \"#utility.yul\":38256:38391   */\n    tag_644:\n      0x00\n        /* \"#utility.yul\":38380:38384   */\n      0x20\n        /* \"#utility.yul\":38375:38378   */\n      dup3\n        /* \"#utility.yul\":38371:38385   */\n      add\n        /* \"#utility.yul\":38363:38385   */\n      swap1\n      pop\n        /* \"#utility.yul\":38353:38391   */\n      swap2\n      swap1\n      pop\n      jump\t// out\n        /* \"#utility.yul\":38397:38510   */\n    tag_658:\n      0x00\n        /* \"#utility.yul\":38499:38503   */\n      0x20\n        /* \"#utility.yul\":38494:38497   */\n      dup3\n        /* \"#utility.yul\":38490:38504   */\n      add\n        /* \"#utility.yul\":38482:38504   */\n      swap1\n      pop\n        /* \"#utility.yul\":38472:38510   */\n      swap2\n      swap1\n      pop\n      jump\t// out\n        /* \"#utility.yul\":38516:38722   */\n    tag_622:\n      0x00\n        /* \"#utility.yul\":38671:38677   */\n      dup3\n        /* \"#utility.yul\":38666:38669   */\n      dup3\n        /* \"#utility.yul\":38659:38678   */\n      mstore\n        /* \"#utility.yul\":38711:38715   */\n      0x20\n        /* \"#utility.yul\":38706:38709   */\n      dup3\n        /* \"#utility.yul\":38702:38716   */\n      add\n        /* \"#utility.yul\":38687:38716   */\n      swap1\n      pop\n        /* \"#utility.yul\":38649:38722   */\n      swap3\n      swap2\n      pop\n      pop\n      jump\t// out\n        /* \"#utility.yul\":38728:38924   */\n    tag_636:\n      0x00\n        /* \"#utility.yul\":38873:38879   */\n      dup3\n        /* \"#utility.yul\":38868:38871   */\n      dup3\n        /* \"#utility.yul\":38861:38880   */\n      mstore\n        /* \"#utility.yul\":38913:38917   */\n      0x20\n        /* \"#utility.yul\":38908:38911   */\n      dup3\n        /* \"#utility.yul\":38904:38918   */\n      add\n        /* \"#utility.yul\":38889:38918   */\n      swap1\n      pop\n        /* \"#utility.yul\":38851:38924   */\n      swap3\n      swap2\n      pop\n      pop\n      jump\t// out\n        /* \"#utility.yul\":38930:39114   */\n    tag_650:\n      0x00\n        /* \"#utility.yul\":39063:39069   */\n      dup3\n        /* \"#utility.yul\":39058:39061   */\n      dup3\n        /* \"#utility.yul\":39051:39070   */\n      mstore\n        /* \"#utility.yul\":39103:39107   */\n      0x20\n        /* \"#utility.yul\":39098:39101   */\n      dup3\n        /* \"#utility.yul\":39094:39108   */\n      add\n        /* \"#utility.yul\":39079:39108   */\n      swap1\n      pop\n        /* \"#utility.yul\":39041:39114   */\n      swap3\n      swap2\n      pop\n      pop\n      jump\t// out\n        /* \"#utility.yul\":39120:39279   */\n    tag_671:\n      0x00\n        /* \"#utility.yul\":39228:39234   */\n      dup3\n        /* \"#utility.yul\":39223:39226   */\n      dup3\n        /* \"#utility.yul\":39216:39235   */\n      mstore\n        /* \"#utility.yul\":39268:39272   */\n      0x20\n        /* \"#utility.yul\":39263:39266   */\n      dup3\n        /* \"#utility.yul\":39259:39273   */\n      add\n        /* \"#utility.yul\":39244:39273   */\n      swap1\n      pop\n        /* \"#utility.yul\":39206:39279   */\n      swap3\n      swap2\n      pop\n      pop\n      jump\t// out\n        /* \"#utility.yul\":39285:39454   */\n    tag_679:\n      0x00\n        /* \"#utility.yul\":39403:39409   */\n      dup3\n        /* \"#utility.yul\":39398:39401   */\n      dup3\n        /* \"#utility.yul\":39391:39410   */\n      mstore\n        /* \"#utility.yul\":39443:39447   */\n      0x20\n        /* \"#utility.yul\":39438:39441   */\n      dup3\n        /* \"#utility.yul\":39434:39448   */\n      add\n        /* \"#utility.yul\":39419:39448   */\n      swap1\n      pop\n        /* \"#utility.yul\":39381:39454   */\n      swap3\n      swap2\n      pop\n      pop\n      jump\t// out\n        /* \"#utility.yul\":39460:39608   */\n    tag_686:\n      0x00\n        /* \"#utility.yul\":39599:39602   */\n      dup2\n        /* \"#utility.yul\":39584:39602   */\n      swap1\n      pop\n        /* \"#utility.yul\":39574:39608   */\n      swap3\n      swap2\n      pop\n      pop\n      jump\t// out\n        /* \"#utility.yul\":39614:39805   */\n    tag_268:\n      0x00\n        /* \"#utility.yul\":39674:39694   */\n      tag_824\n        /* \"#utility.yul\":39692:39693   */\n      dup3\n        /* \"#utility.yul\":39674:39694   */\n      tag_741\n      jump\t// in\n    tag_824:\n        /* \"#utility.yul\":39669:39694   */\n      swap2\n      pop\n        /* \"#utility.yul\":39708:39728   */\n      tag_825\n        /* \"#utility.yul\":39726:39727   */\n      dup4\n        /* \"#utility.yul\":39708:39728   */\n      tag_741\n      jump\t// in\n    tag_825:\n        /* \"#utility.yul\":39703:39728   */\n      swap3\n      pop\n        /* \"#utility.yul\":39747:39748   */\n      dup3\n        /* \"#utility.yul\":39744:39745   */\n      dup3\n        /* \"#utility.yul\":39741:39749   */\n      lt\n        /* \"#utility.yul\":39738:39740   */\n      iszero\n      tag_826\n      jumpi\n        /* \"#utility.yul\":39752:39770   */\n      tag_827\n      tag_828\n      jump\t// in\n    tag_827:\n        /* \"#utility.yul\":39738:39740   */\n    tag_826:\n        /* \"#utility.yul\":39797:39798   */\n      dup3\n        /* \"#utility.yul\":39794:39795   */\n      dup3\n        /* \"#utility.yul\":39790:39799   */\n      sub\n        /* \"#utility.yul\":39782:39799   */\n      swap1\n      pop\n        /* \"#utility.yul\":39659:39805   */\n      swap3\n      swap2\n      pop\n      pop\n      jump\t// out\n        /* \"#utility.yul\":39811:39907   */\n    tag_613:\n      0x00\n        /* \"#utility.yul\":39877:39901   */\n      tag_830\n        /* \"#utility.yul\":39895:39900   */\n      dup3\n        /* \"#utility.yul\":39877:39901   */\n      tag_831\n      jump\t// in\n    tag_830:\n        /* \"#utility.yul\":39866:39901   */\n      swap1\n      pop\n        /* \"#utility.yul\":39856:39907   */\n      swap2\n      swap1\n      pop\n      jump\t// out\n        /* \"#utility.yul\":39913:40003   */\n    tag_662:\n      0x00\n        /* \"#utility.yul\":39990:39995   */\n      dup2\n        /* \"#utility.yul\":39983:39996   */\n      iszero\n        /* \"#utility.yul\":39976:39997   */\n      iszero\n        /* \"#utility.yul\":39965:39997   */\n      swap1\n      pop\n        /* \"#utility.yul\":39955:40003   */\n      swap2\n      swap1\n      pop\n      jump\t// out\n        /* \"#utility.yul\":40009:40135   */\n    tag_831:\n      0x00\n        /* \"#utility.yul\":40086:40128   */\n      0xffffffffffffffffffffffffffffffffffffffff\n        /* \"#utility.yul\":40079:40084   */\n      dup3\n        /* \"#utility.yul\":40075:40129   */\n      and\n        /* \"#utility.yul\":40064:40129   */\n      swap1\n      pop\n        /* \"#utility.yul\":40054:40135   */\n      swap2\n      swap1\n      pop\n      jump\t// out\n        /* \"#utility.yul\":40141:40218   */\n    tag_741:\n      0x00\n        /* \"#utility.yul\":40207:40212   */\n      dup2\n        /* \"#utility.yul\":40196:40212   */\n      swap1\n      pop\n        /* \"#utility.yul\":40186:40218   */\n      swap2\n      swap1\n      pop\n      jump\t// out\n        /* \"#utility.yul\":40224:40378   */\n    tag_475:\n        /* \"#utility.yul\":40308:40314   */\n      dup3\n        /* \"#utility.yul\":40303:40306   */\n      dup2\n        /* \"#utility.yul\":40298:40301   */\n      dup4\n        /* \"#utility.yul\":40285:40315   */\n      calldatacopy\n        /* \"#utility.yul\":40370:40371   */\n      0x00\n        /* \"#utility.yul\":40361:40367   */\n      dup4\n        /* \"#utility.yul\":40356:40359   */\n      dup4\n        /* \"#utility.yul\":40352:40368   */\n      add\n        /* \"#utility.yul\":40345:40372   */\n      mstore\n        /* \"#utility.yul\":40275:40378   */\n      pop\n      pop\n      pop\n      jump\t// out\n        /* \"#utility.yul\":40384:40691   */\n    tag_482:\n        /* \"#utility.yul\":40452:40453   */\n      0x00\n        /* \"#utility.yul\":40462:40575   */\n    tag_837:\n        /* \"#utility.yul\":40476:40482   */\n      dup4\n        /* \"#utility.yul\":40473:40474   */\n      dup2\n        /* \"#utility.yul\":40470:40483   */\n      lt\n        /* \"#utility.yul\":40462:40575   */\n      iszero\n      tag_839\n      jumpi\n        /* \"#utility.yul\":40561:40562   */\n      dup1\n        /* \"#utility.yul\":40556:40559   */\n      dup3\n        /* \"#utility.yul\":40552:40563   */\n      add\n        /* \"#utility.yul\":40546:40564   */\n      mload\n        /* \"#utility.yul\":40542:40543   */\n      dup2\n        /* \"#utility.yul\":40537:40540   */\n      dup5\n        /* \"#utility.yul\":40533:40544   */\n      add\n        /* \"#utility.yul\":40526:40565   */\n      mstore\n        /* \"#utility.yul\":40498:40500   */\n      0x20\n        /* \"#utility.yul\":40495:40496   */\n      dup2\n        /* \"#utility.yul\":40491:40501   */\n      add\n        /* \"#utility.yul\":40486:40501   */\n      swap1\n      pop\n        /* \"#utility.yul\":40462:40575   */\n      jump(tag_837)\n    tag_839:\n        /* \"#utility.yul\":40593:40599   */\n      dup4\n        /* \"#utility.yul\":40590:40591   */\n      dup2\n        /* \"#utility.yul\":40587:40600   */\n      gt\n        /* \"#utility.yul\":40584:40586   */\n      iszero\n      tag_840\n      jumpi\n        /* \"#utility.yul\":40673:40674   */\n      0x00\n        /* \"#utility.yul\":40664:40670   */\n      dup5\n        /* \"#utility.yul\":40659:40662   */\n      dup5\n        /* \"#utility.yul\":40655:40671   */\n      add\n        /* \"#utility.yul\":40648:40675   */\n      mstore\n        /* \"#utility.yul\":40584:40586   */\n    tag_840:\n        /* \"#utility.yul\":40433:40691   */\n      pop\n      pop\n      pop\n      pop\n      jump\t// out\n        /* \"#utility.yul\":40697:40868   */\n    tag_279:\n      0x00\n        /* \"#utility.yul\":40759:40783   */\n      tag_842\n        /* \"#utility.yul\":40777:40782   */\n      dup3\n        /* \"#utility.yul\":40759:40783   */\n      tag_741\n      jump\t// in\n    tag_842:\n        /* \"#utility.yul\":40750:40783   */\n      swap2\n      pop\n        /* \"#utility.yul\":40805:40809   */\n      0x00\n        /* \"#utility.yul\":40798:40803   */\n      dup3\n        /* \"#utility.yul\":40795:40810   */\n      eq\n        /* \"#utility.yul\":40792:40794   */\n      iszero\n      tag_843\n      jumpi\n        /* \"#utility.yul\":40813:40831   */\n      tag_844\n      tag_828\n      jump\t// in\n    tag_844:\n        /* \"#utility.yul\":40792:40794   */\n    tag_843:\n        /* \"#utility.yul\":40860:40861   */\n      0x01\n        /* \"#utility.yul\":40853:40858   */\n      dup3\n        /* \"#utility.yul\":40849:40862   */\n      sub\n        /* \"#utility.yul\":40842:40862   */\n      swap1\n      pop\n        /* \"#utility.yul\":40740:40868   */\n      swap2\n      swap1\n      pop\n      jump\t// out\n        /* \"#utility.yul\":40874:41194   */\n    tag_180:\n      0x00\n        /* \"#utility.yul\":40955:40956   */\n      0x02\n        /* \"#utility.yul\":40949:40953   */\n      dup3\n        /* \"#utility.yul\":40945:40957   */\n      div\n        /* \"#utility.yul\":40935:40957   */\n      swap1\n      pop\n        /* \"#utility.yul\":41002:41003   */\n      0x01\n        /* \"#utility.yul\":40996:41000   */\n      dup3\n        /* \"#utility.yul\":40992:41004   */\n      and\n        /* \"#utility.yul\":41023:41041   */\n      dup1\n        /* \"#utility.yul\":41013:41015   */\n      tag_846\n      jumpi\n        /* \"#utility.yul\":41079:41083   */\n      0x7f\n        /* \"#utility.yul\":41071:41077   */\n      dup3\n        /* \"#utility.yul\":41067:41084   */\n      and\n        /* \"#utility.yul\":41057:41084   */\n      swap2\n      pop\n        /* \"#utility.yul\":41013:41015   */\n    tag_846:\n        /* \"#utility.yul\":41141:41143   */\n      0x20\n        /* \"#utility.yul\":41133:41139   */\n      dup3\n        /* \"#utility.yul\":41130:41144   */\n      lt\n        /* \"#utility.yul\":41110:41128   */\n      dup2\n        /* \"#utility.yul\":41107:41145   */\n      eq\n        /* \"#utility.yul\":41104:41106   */\n      iszero\n      tag_847\n      jumpi\n        /* \"#utility.yul\":41160:41178   */\n      tag_848\n      tag_849\n      jump\t// in\n    tag_848:\n        /* \"#utility.yul\":41104:41106   */\n    tag_847:\n        /* \"#utility.yul\":40925:41194   */\n      pop\n      swap2\n      swap1\n      pop\n      jump\t// out\n        /* \"#utility.yul\":41200:41433   */\n    tag_154:\n      0x00\n        /* \"#utility.yul\":41262:41286   */\n      tag_851\n        /* \"#utility.yul\":41280:41285   */\n      dup3\n        /* \"#utility.yul\":41262:41286   */\n      tag_741\n      jump\t// in\n    tag_851:\n        /* \"#utility.yul\":41253:41286   */\n      swap2\n      pop\n        /* \"#utility.yul\":41308:41374   */\n      0xffffffffffffffffffffffffffffffffffffffffffffffffffffffffffffffff\n        /* \"#utility.yul\":41301:41306   */\n      dup3\n        /* \"#utility.yul\":41298:41375   */\n      eq\n        /* \"#utility.yul\":41295:41297   */\n      iszero\n      tag_852\n      jumpi\n        /* \"#utility.yul\":41378:41396   */\n      tag_853\n      tag_828\n      jump\t// in\n    tag_853:\n        /* \"#utility.yul\":41295:41297   */\n    tag_852:\n        /* \"#utility.yul\":41425:41426   */\n      0x01\n        /* \"#utility.yul\":41418:41423   */\n      dup3\n        /* \"#utility.yul\":41414:41427   */\n      add\n        /* \"#utility.yul\":41407:41427   */\n      swap1\n      pop\n        /* \"#utility.yul\":41243:41433   */\n      swap2\n      swap1\n      pop\n      jump\t// out\n        /* \"#utility.yul\":41439:41619   */\n    tag_828:\n        /* \"#utility.yul\":41487:41564   */\n      0x4e487b7100000000000000000000000000000000000000000000000000000000\n        /* \"#utility.yul\":41484:41485   */\n      0x00\n        /* \"#utility.yul\":41477:41565   */\n      mstore\n        /* \"#utility.yul\":41584:41588   */\n      0x11\n        /* \"#utility.yul\":41581:41582   */\n      0x04\n        /* \"#utility.yul\":41574:41589   */\n      mstore\n        /* \"#utility.yul\":41608:41612   */\n      0x24\n        /* \"#utility.yul\":41605:41606   */\n      0x00\n        /* \"#utility.yul\":41598:41613   */\n      revert\n        /* \"#utility.yul\":41625:41805   */\n    tag_849:\n        /* \"#utility.yul\":41673:41750   */\n      0x4e487b7100000000000000000000000000000000000000000000000000000000\n        /* \"#utility.yul\":41670:41671   */\n      0x00\n        /* \"#utility.yul\":41663:41751   */\n      mstore\n        /* \"#utility.yul\":41770:41774   */\n      0x22\n        /* \"#utility.yul\":41767:41768   */\n      0x04\n        /* \"#utility.yul\":41760:41775   */\n      mstore\n        /* \"#utility.yul\":41794:41798   */\n      0x24\n        /* \"#utility.yul\":41791:41792   */\n      0x00\n        /* \"#utility.yul\":41784:41799   */\n      revert\n        /* \"#utility.yul\":41811:41991   */\n    tag_797:\n        /* \"#utility.yul\":41859:41936   */\n      0x4e487b7100000000000000000000000000000000000000000000000000000000\n        /* \"#utility.yul\":41856:41857   */\n      0x00\n        /* \"#utility.yul\":41849:41937   */\n      mstore\n        /* \"#utility.yul\":41956:41960   */\n      0x41\n        /* \"#utility.yul\":41953:41954   */\n      0x04\n        /* \"#utility.yul\":41946:41961   */\n      mstore\n        /* \"#utility.yul\":41980:41984   */\n      0x24\n        /* \"#utility.yul\":41977:41978   */\n      0x00\n        /* \"#utility.yul\":41970:41985   */\n      revert\n        /* \"#utility.yul\":41997:42099   */\n    tag_674:\n      0x00\n        /* \"#utility.yul\":42089:42091   */\n      0x1f\n        /* \"#utility.yul\":42085:42092   */\n      not\n        /* \"#utility.yul\":42080:42082   */\n      0x1f\n        /* \"#utility.yul\":42073:42078   */\n      dup4\n        /* \"#utility.yul\":42069:42083   */\n      add\n        /* \"#utility.yul\":42065:42093   */\n      and\n        /* \"#utility.yul\":42055:42093   */\n      swap1\n      pop\n        /* \"#utility.yul\":42045:42099   */\n      swap2\n      swap1\n      pop\n      jump\t// out\n        /* \"#utility.yul\":42105:42227   */\n    tag_486:\n        /* \"#utility.yul\":42178:42202   */\n      tag_859\n        /* \"#utility.yul\":42196:42201   */\n      dup2\n        /* \"#utility.yul\":42178:42202   */\n      tag_613\n      jump\t// in\n    tag_859:\n        /* \"#utility.yul\":42171:42176   */\n      dup2\n        /* \"#utility.yul\":42168:42203   */\n      eq\n        /* \"#utility.yul\":42158:42160   */\n      tag_860\n      jumpi\n        /* \"#utility.yul\":42217:42218   */\n      0x00\n        /* \"#utility.yul\":42214:42215   */\n      dup1\n        /* \"#utility.yul\":42207:42219   */\n      revert\n        /* \"#utility.yul\":42158:42160   */\n    tag_860:\n        /* \"#utility.yul\":42148:42227   */\n      pop\n      jump\t// out\n        /* \"#utility.yul\":42233:42349   */\n    tag_505:\n        /* \"#utility.yul\":42303:42324   */\n      tag_862\n        /* \"#utility.yul\":42318:42323   */\n      dup2\n        /* \"#utility.yul\":42303:42324   */\n      tag_662\n      jump\t// in\n    tag_862:\n        /* \"#utility.yul\":42296:42301   */\n      dup2\n        /* \"#utility.yul\":42293:42325   */\n      eq\n        /* \"#utility.yul\":42283:42285   */\n      tag_863\n      jumpi\n        /* \"#utility.yul\":42339:42340   */\n      0x00\n        /* \"#utility.yul\":42336:42337   */\n      dup1\n        /* \"#utility.yul\":42329:42341   */\n      revert\n        /* \"#utility.yul\":42283:42285   */\n    tag_863:\n        /* \"#utility.yul\":42273:42349   */\n      pop\n      jump\t// out\n        /* \"#utility.yul\":42355:42477   */\n    tag_558:\n        /* \"#utility.yul\":42428:42452   */\n      tag_865\n        /* \"#utility.yul\":42446:42451   */\n      dup2\n        /* \"#utility.yul\":42428:42452   */\n      tag_741\n      jump\t// in\n    tag_865:\n        /* \"#utility.yul\":42421:42426   */\n      dup2\n        /* \"#utility.yul\":42418:42453   */\n      eq\n        /* \"#utility.yul\":42408:42410   */\n      tag_866\n      jumpi\n        /* \"#utility.yul\":42467:42468   */\n      0x00\n        /* \"#utility.yul\":42464:42465   */\n      dup1\n        /* \"#utility.yul\":42457:42469   */\n      revert\n        /* \"#utility.yul\":42408:42410   */\n    tag_866:\n        /* \"#utility.yul\":42398:42477   */\n      pop\n      jump\t// out\n\n    auxdata: 0xa264697066735822122049abca91beb280009011b8a37b217b67f2db90f5bf0094b59b90721e3badd5cd64736f6c63430008000033\n}\n",
				"bytecode": {
					"linkReferences": {},
					"object": "60c060405260016000806101000a81548160ff0219169083151502179055503480156200002b57600080fd5b503373ffffffffffffffffffffffffffffffffffffffff1660808173ffffffffffffffffffffffffffffffffffffffff1660601b815250504260a08181525050620000cb6040518060400160405280600681526020017f496e6963696f000000000000000000000000000000000000000000000000000081525060405180606001604052806034815260200162004cc860349139620000d160201b60201c565b6200087b565b60008054906101000a900460ff1662000121576040517f08c379a00000000000000000000000000000000000000000000000000000000081526004016200011890620006ee565b60405180910390fd5b62000132826200031a60201b60201c565b1562000175576040517f08c379a00000000000000000000000000000000000000000000000000000000081526004016200016c9062000710565b60405180910390fd5b600060018081600181540180825580915050039060005260206000209060040201905060018160000160006101000a81548160ff021916908315150217905550338160000160016101000a81548173ffffffffffffffffffffffffffffffffffffffff021916908373ffffffffffffffffffffffffffffffffffffffff160217905550428160010181905550828160020190805190602001906200021b9291906200051e565b508060030160405180608001604052806001151581526020013373ffffffffffffffffffffffffffffffffffffffff16815260200142815260200184815250908060018154018082558091505060019003906000526020600020906003020160009091909190915060008201518160000160006101000a81548160ff02191690831515021790555060208201518160000160016101000a81548173ffffffffffffffffffffffffffffffffffffffff021916908373ffffffffffffffffffffffffffffffffffffffff160217905550604082015181600101556060820151816002019080519060200190620003129291906200051e565b505050505050565b600080600090505b600180549050811015620004a657600181815481106200036b577f4e487b7100000000000000000000000000000000000000000000000000000000600052603260045260246000fd5b906000526020600020906004020160000160009054906101000a900460ff161562000490576200047e60018281548110620003cf577f4e487b7100000000000000000000000000000000000000000000000000000000600052603260045260246000fd5b90600052602060002090600402016002018054620003ed9062000799565b80601f01602080910402602001604051908101604052809291908181526020018280546200041b9062000799565b80156200046c5780601f1062000440576101008083540402835291602001916200046c565b820191906000526020600020905b8154815290600101906020018083116200044e57829003601f168201915b505050505084620004b160201b60201c565b156200048f576001915050620004ac565b5b80806200049d90620007cf565b91505062000322565b50600090505b919050565b600081604051602001620004c69190620006d5565b6040516020818303038152906040528051906020012083604051602001620004ef9190620006d5565b60405160208183030381529060405280519060200120146200051357600062000516565b60015b905092915050565b8280546200052c9062000799565b90600052602060002090601f0160209004810192826200055057600085556200059c565b82601f106200056b57805160ff19168380011785556200059c565b828001600101855582156200059c579182015b828111156200059b5782518255916020019190600101906200057e565b5b509050620005ab9190620005af565b5090565b5b80821115620005ca576000816000905550600101620005b0565b5090565b6000620005db8262000732565b620005e781856200074e565b9350620005f981856020860162000763565b80840191505092915050565b6000620006146034836200073d565b91507f41206163616f20736f2065207065726d6974696461207175616e646f2061204260008301527f6c6f636b706564696120657374612061746976610000000000000000000000006020830152604082019050919050565b60006200067c6026836200073d565b91507f4a612065786973746520706167696e6120617469766120636f6d20657374652060008301527f746974756c6f00000000000000000000000000000000000000000000000000006020830152604082019050919050565b6000620006e38284620005ce565b915081905092915050565b60006020820190508181036000830152620007098162000605565b9050919050565b600060208201905081810360008301526200072b816200066d565b9050919050565b600081519050919050565b600082825260208201905092915050565b600081905092915050565b6000819050919050565b60005b838110156200078357808201518184015260208101905062000766565b8381111562000793576000848401525b50505050565b60006002820490506001821680620007b257607f821691505b60208210811415620007c957620007c86200084c565b5b50919050565b6000620007dc8262000759565b91507fffffffffffffffffffffffffffffffffffffffffffffffffffffffffffffffff8214156200081257620008116200081d565b5b600182019050919050565b7f4e487b7100000000000000000000000000000000000000000000000000000000600052601160045260246000fd5b7f4e487b7100000000000000000000000000000000000000000000000000000000600052602260045260246000fd5b60805160601c60a051614401620008c760003960008181610c19015281816112150152612a6e0152600081816108bf015281816108e301528181610bf80152612a4d01526144016000f3fe60806040526004361061010d5760003560e01c80639980ed1211610095578063b15820e811610064578063b15820e81461037c578063d4d23a6e146103a7578063d616c9f0146103d0578063e7d4296a146103f9578063e976f43a1461043957610117565b80639980ed12146102c0578063a18cc13b146102fd578063a89107a914610328578063aa83581f1461035357610117565b8063294d2e2c116100dc578063294d2e2c146101c45780632e87ca2e146101f25780636f70a52e1461022f57806372c1395c1461025a57806395be551a1461029757610117565b8063041acb571461011c5780630694952d146101475780631509d30c146101725780631c18379a1461019b57610117565b3661011757600080fd5b600080fd5b34801561012857600080fd5b50610131610467565b60405161013e9190613d2e565b60405180910390f35b34801561015357600080fd5b5061015c6108bd565b6040516101699190613d13565b60405180910390f35b34801561017e57600080fd5b506101996004803603810190610194919061335c565b6108e1565b005b3480156101a757600080fd5b506101c260048036038101906101bd91906133c6565b6109aa565b005b3480156101d057600080fd5b506101d9610be1565b6040516101e99493929190613d8d565b60405180910390f35b3480156101fe57600080fd5b5061021960048036038101906102149190613385565b610f1a565b6040516102269190613d50565b60405180910390f35b34801561023b57600080fd5b50610244611213565b6040516102519190613fce565b60405180910390f35b34801561026657600080fd5b50610281600480360381019061027c91906134b4565b611237565b60405161028e9190613f8a565b60405180910390f35b3480156102a357600080fd5b506102be60048036038101906102b99190613531565b611559565b005b3480156102cc57600080fd5b506102e760048036038101906102e29190613432565b611a4f565b6040516102f49190613fac565b60405180910390f35b34801561030957600080fd5b50610312611b56565b60405161031f9190613d72565b60405180910390f35b34801561033457600080fd5b5061033d611b67565b60405161034a9190613d2e565b60405180910390f35b34801561035f57600080fd5b5061037a600480360381019061037591906134b4565b612024565b005b34801561038857600080fd5b5061039161229e565b60405161039e9190613d2e565b60405180910390f35b3480156103b357600080fd5b506103ce60048036038101906103c991906134dd565b612576565b005b3480156103dc57600080fd5b506103f760048036038101906103f291906134b4565b6127e4565b005b34801561040557600080fd5b50610420600480360381019061041b91906134b4565b612942565b6040516104309493929190613dd9565b60405180910390f35b34801561044557600080fd5b5061044e612a37565b60405161045e9493929190613e25565b60405180910390f35b606060003073ffffffffffffffffffffffffffffffffffffffff1663a89107a96040518163ffffffff1660e01b815260040160006040518083038186803b1580156104b157600080fd5b505afa1580156104c5573d6000803e3d6000fd5b505050506040513d6000823e3d601f19601f820116820180604052508101906104ee919061331b565b90506000815167ffffffffffffffff811115610533577f4e487b7100000000000000000000000000000000000000000000000000000000600052604160045260246000fd5b60405190808252806020026020018201604052801561056c57816020015b610559612c86565b8152602001906001900390816105515790505b50905060005b82518110156108b4576000600167ffffffffffffffff8111156105be577f4e487b7100000000000000000000000000000000000000000000000000000000600052604160045260246000fd5b6040519080825280602002602001820160405280156105f757816020015b6105e4612ccd565b8152602001906001900390816105dc5790505b5090503073ffffffffffffffffffffffffffffffffffffffff16639980ed1285848151811061064f577f4e487b7100000000000000000000000000000000000000000000000000000000600052603260045260246000fd5b60200260200101516040518263ffffffff1660e01b81526004016106739190613f8a565b60006040518083038186803b15801561068b57600080fd5b505afa15801561069f573d6000803e3d6000fd5b505050506040513d6000823e3d601f19601f820116820180604052508101906106c89190613473565b81600081518110610702577f4e487b7100000000000000000000000000000000000000000000000000000000600052603260045260246000fd5b60200260200101819052506040518060a00160405280858481518110610751577f4e487b7100000000000000000000000000000000000000000000000000000000600052603260045260246000fd5b6020026020010151600001511515815260200185848151811061079d577f4e487b7100000000000000000000000000000000000000000000000000000000600052603260045260246000fd5b60200260200101516020015173ffffffffffffffffffffffffffffffffffffffff1681526020018584815181106107fd577f4e487b7100000000000000000000000000000000000000000000000000000000600052603260045260246000fd5b6020026020010151604001518152602001858481518110610847577f4e487b7100000000000000000000000000000000000000000000000000000000600052603260045260246000fd5b602002602001015160600151815260200182815250838381518110610895577f4e487b7100000000000000000000000000000000000000000000000000000000600052603260045260246000fd5b60200260200101819052505080806108ac9061429f565b915050610572565b50809250505090565b7f000000000000000000000000000000000000000000000000000000000000000081565b7f000000000000000000000000000000000000000000000000000000000000000073ffffffffffffffffffffffffffffffffffffffff163373ffffffffffffffffffffffffffffffffffffffff161461096f576040517f08c379a000000000000000000000000000000000000000000000000000000000815260040161096690613f6a565b60405180910390fd5b80151560008054906101000a900460ff161515141561098d576109a7565b806000806101000a81548160ff0219169083151502179055505b50565b60008054906101000a900460ff166109f7576040517f08c379a00000000000000000000000000000000000000000000000000000000081526004016109ee90613f0a565b60405180910390fd5b610a0082612aa1565b15610a40576040517f08c379a0000000000000000000000000000000000000000000000000000000008152600401610a3790613f2a565b60405180910390fd5b600060018081600181540180825580915050039060005260206000209060040201905060018160000160006101000a81548160ff021916908315150217905550338160000160016101000a81548173ffffffffffffffffffffffffffffffffffffffff021916908373ffffffffffffffffffffffffffffffffffffffff16021790555042816001018190555082816002019080519060200190610ae4929190612d0d565b508060030160405180608001604052806001151581526020013373ffffffffffffffffffffffffffffffffffffffff16815260200142815260200184815250908060018154018082558091505060019003906000526020600020906003020160009091909190915060008201518160000160006101000a81548160ff02191690831515021790555060208201518160000160016101000a81548173ffffffffffffffffffffffffffffffffffffffff021916908373ffffffffffffffffffffffffffffffffffffffff160217905550604082015181600101556060820151816002019080519060200190610bd9929190612d0d565b505050505050565b6000806000606060008054906101000a900460ff167f00000000000000000000000000000000000000000000000000000000000000007f0000000000000000000000000000000000000000000000000000000000000000600180805480602002602001604051908101604052809291908181526020016000905b82821015610f0657838290600052602060002090600402016040518060a00160405290816000820160009054906101000a900460ff161515151581526020016000820160019054906101000a900473ffffffffffffffffffffffffffffffffffffffff1673ffffffffffffffffffffffffffffffffffffffff1673ffffffffffffffffffffffffffffffffffffffff16815260200160018201548152602001600282018054610d099061426d565b80601f0160208091040260200160405190810160405280929190818152602001828054610d359061426d565b8015610d825780601f10610d5757610100808354040283529160200191610d82565b820191906000526020600020905b815481529060010190602001808311610d6557829003601f168201915b5050505050815260200160038201805480602002602001604051908101604052809291908181526020016000905b82821015610eef57838290600052602060002090600302016040518060800160405290816000820160009054906101000a900460ff161515151581526020016000820160019054906101000a900473ffffffffffffffffffffffffffffffffffffffff1673ffffffffffffffffffffffffffffffffffffffff1673ffffffffffffffffffffffffffffffffffffffff16815260200160018201548152602001600282018054610e5e9061426d565b80601f0160208091040260200160405190810160405280929190818152602001828054610e8a9061426d565b8015610ed75780601f10610eac57610100808354040283529160200191610ed7565b820191906000526020600020905b815481529060010190602001808311610eba57829003601f168201915b50505050508152505081526020019060010190610db0565b505050508152505081526020019060010190610c5b565b505050509050935093509350935090919293565b6060600060018054905067ffffffffffffffff811115610f63577f4e487b7100000000000000000000000000000000000000000000000000000000600052604160045260246000fd5b604051908082528060200260200182016040528015610f915781602001602082028036833780820191505090505b5090506000805b6001805490508110156110ef5761108260018281548110610fe2577f4e487b7100000000000000000000000000000000000000000000000000000000600052603260045260246000fd5b90600052602060002090600402016002018054610ffe9061426d565b80601f016020809104026020016040519081016040528092919081815260200182805461102a9061426d565b80156110775780601f1061104c57610100808354040283529160200191611077565b820191906000526020600020905b81548152906001019060200180831161105a57829003601f168201915b505050505086612c1f565b156110dc57808383815181106110c1577f4e487b7100000000000000000000000000000000000000000000000000000000600052603260045260246000fd5b60200260200101818152505081806110d89061429f565b9250505b80806110e79061429f565b915050610f98565b5060008167ffffffffffffffff811115611132577f4e487b7100000000000000000000000000000000000000000000000000000000600052604160045260246000fd5b6040519080825280602002602001820160405280156111605781602001602082028036833780820191505090505b50905060005b82811015611207578381815181106111a7577f4e487b7100000000000000000000000000000000000000000000000000000000600052603260045260246000fd5b60200260200101518282815181106111e8577f4e487b7100000000000000000000000000000000000000000000000000000000600052603260045260246000fd5b60200260200101818152505080806111ff9061429f565b915050611166565b50809350505050919050565b7f000000000000000000000000000000000000000000000000000000000000000081565b61123f612c86565b6001805490508210611286576040517f08c379a000000000000000000000000000000000000000000000000000000000815260040161127d90613eca565b60405180910390fd5b600182815481106112c0577f4e487b7100000000000000000000000000000000000000000000000000000000600052603260045260246000fd5b90600052602060002090600402016040518060a00160405290816000820160009054906101000a900460ff161515151581526020016000820160019054906101000a900473ffffffffffffffffffffffffffffffffffffffff1673ffffffffffffffffffffffffffffffffffffffff1673ffffffffffffffffffffffffffffffffffffffff168152602001600182015481526020016002820180546113649061426d565b80601f01602080910402602001604051908101604052809291908181526020018280546113909061426d565b80156113dd5780601f106113b2576101008083540402835291602001916113dd565b820191906000526020600020905b8154815290600101906020018083116113c057829003601f168201915b5050505050815260200160038201805480602002602001604051908101604052809291908181526020016000905b8282101561154a57838290600052602060002090600302016040518060800160405290816000820160009054906101000a900460ff161515151581526020016000820160019054906101000a900473ffffffffffffffffffffffffffffffffffffffff1673ffffffffffffffffffffffffffffffffffffffff1673ffffffffffffffffffffffffffffffffffffffff168152602001600182015481526020016002820180546114b99061426d565b80601f01602080910402602001604051908101604052809291908181526020018280546114e59061426d565b80156115325780601f1061150757610100808354040283529160200191611532565b820191906000526020600020905b81548152906001019060200180831161151557829003601f168201915b5050505050815250508152602001906001019061140b565b50505050815250509050919050565b60008054906101000a900460ff166115a6576040517f08c379a000000000000000000000000000000000000000000000000000000000815260040161159d90613f0a565b60405180910390fd5b60018054905082106115ed576040517f08c379a00000000000000000000000000000000000000000000000000000000081526004016115e490613f4a565b60405180910390fd5b60018281548110611627577f4e487b7100000000000000000000000000000000000000000000000000000000600052603260045260246000fd5b906000526020600020906004020160000160009054906101000a900460ff16611685576040517f08c379a000000000000000000000000000000000000000000000000000000000815260040161167c90613eaa565b60405180910390fd5b600182815481106116bf577f4e487b7100000000000000000000000000000000000000000000000000000000600052603260045260246000fd5b9060005260206000209060040201600301805490508110611715576040517f08c379a000000000000000000000000000000000000000000000000000000000815260040161170c90613eea565b60405180910390fd5b6001828154811061174f577f4e487b7100000000000000000000000000000000000000000000000000000000600052603260045260246000fd5b90600052602060002090600402016003018181548110611798577f4e487b7100000000000000000000000000000000000000000000000000000000600052603260045260246000fd5b906000526020600020906003020160000160009054906101000a900460ff16156117c157611a4b565b6000600183815481106117fd577f4e487b7100000000000000000000000000000000000000000000000000000000600052603260045260246000fd5b90600052602060002090600402016003018054905090505b600081111561199d57600060018261182d9190614185565b905060018481548110611869577f4e487b7100000000000000000000000000000000000000000000000000000000600052603260045260246000fd5b906000526020600020906004020160030181815481106118b2577f4e487b7100000000000000000000000000000000000000000000000000000000600052603260045260246000fd5b906000526020600020906003020160000160009054906101000a900460ff161561198957600060018581548110611912577f4e487b7100000000000000000000000000000000000000000000000000000000600052603260045260246000fd5b9060005260206000209060040201600301828154811061195b577f4e487b7100000000000000000000000000000000000000000000000000000000600052603260045260246000fd5b906000526020600020906003020160000160006101000a81548160ff0219169083151502179055505061199d565b50808061199590614243565b915050611815565b5060018083815481106119d9577f4e487b7100000000000000000000000000000000000000000000000000000000600052603260045260246000fd5b90600052602060002090600402016003018281548110611a22577f4e487b7100000000000000000000000000000000000000000000000000000000600052603260045260246000fd5b906000526020600020906003020160000160006101000a81548160ff0219169083151502179055505b5050565b611a57612ccd565b60005b826080015151811015611b155782608001518181518110611aa4577f4e487b7100000000000000000000000000000000000000000000000000000000600052603260045260246000fd5b60200260200101516000015115611b025782608001518181518110611af2577f4e487b7100000000000000000000000000000000000000000000000000000000600052603260045260246000fd5b6020026020010151915050611b51565b8080611b0d9061429f565b915050611a5a565b506040517f08c379a0000000000000000000000000000000000000000000000000000000008152600401611b4890613e6a565b60405180910390fd5b919050565b60008054906101000a900460ff1681565b60606000805b600180549050811015611bfa5760018181548110611bb4577f4e487b7100000000000000000000000000000000000000000000000000000000600052603260045260246000fd5b906000526020600020906004020160000160009054906101000a900460ff1615611be7578180611be39061429f565b9250505b8080611bf29061429f565b915050611b6d565b5060008167ffffffffffffffff811115611c3d577f4e487b7100000000000000000000000000000000000000000000000000000000600052604160045260246000fd5b604051908082528060200260200182016040528015611c7657816020015b611c63612c86565b815260200190600190039081611c5b5790505b5090506000805b60018054905081101561201a5760018181548110611cc4577f4e487b7100000000000000000000000000000000000000000000000000000000600052603260045260246000fd5b906000526020600020906004020160000160009054906101000a900460ff16156120075760018181548110611d22577f4e487b7100000000000000000000000000000000000000000000000000000000600052603260045260246000fd5b90600052602060002090600402016040518060a00160405290816000820160009054906101000a900460ff161515151581526020016000820160019054906101000a900473ffffffffffffffffffffffffffffffffffffffff1673ffffffffffffffffffffffffffffffffffffffff1673ffffffffffffffffffffffffffffffffffffffff16815260200160018201548152602001600282018054611dc69061426d565b80601f0160208091040260200160405190810160405280929190818152602001828054611df29061426d565b8015611e3f5780601f10611e1457610100808354040283529160200191611e3f565b820191906000526020600020905b815481529060010190602001808311611e2257829003601f168201915b5050505050815260200160038201805480602002602001604051908101604052809291908181526020016000905b82821015611fac57838290600052602060002090600302016040518060800160405290816000820160009054906101000a900460ff161515151581526020016000820160019054906101000a900473ffffffffffffffffffffffffffffffffffffffff1673ffffffffffffffffffffffffffffffffffffffff1673ffffffffffffffffffffffffffffffffffffffff16815260200160018201548152602001600282018054611f1b9061426d565b80601f0160208091040260200160405190810160405280929190818152602001828054611f479061426d565b8015611f945780601f10611f6957610100808354040283529160200191611f94565b820191906000526020600020905b815481529060010190602001808311611f7757829003601f168201915b50505050508152505081526020019060010190611e6d565b5050505081525050838381518110611fed577f4e487b7100000000000000000000000000000000000000000000000000000000600052603260045260246000fd5b602002602001018190525081806120039061429f565b9250505b80806120129061429f565b915050611c7d565b5081935050505090565b60008054906101000a900460ff16612071576040517f08c379a000000000000000000000000000000000000000000000000000000000815260040161206890613f0a565b60405180910390fd5b60018054905081106120b8576040517f08c379a00000000000000000000000000000000000000000000000000000000081526004016120af90613f4a565b60405180910390fd5b612194600182815481106120f5577f4e487b7100000000000000000000000000000000000000000000000000000000600052603260045260246000fd5b906000526020600020906004020160020180546121119061426d565b80601f016020809104026020016040519081016040528092919081815260200182805461213d9061426d565b801561218a5780601f1061215f5761010080835404028352916020019161218a565b820191906000526020600020905b81548152906001019060200180831161216d57829003601f168201915b5050505050612aa1565b156121d4576040517f08c379a00000000000000000000000000000000000000000000000000000000081526004016121cb90613f2a565b60405180910390fd5b6001818154811061220e577f4e487b7100000000000000000000000000000000000000000000000000000000600052603260045260246000fd5b906000526020600020906004020160000160009054906101000a900460ff16156122375761229b565b6001808281548110612272577f4e487b7100000000000000000000000000000000000000000000000000000000600052603260045260246000fd5b906000526020600020906004020160000160006101000a81548160ff0219169083151502179055505b50565b60606001805480602002602001604051908101604052809291908181526020016000905b8282101561256d57838290600052602060002090600402016040518060a00160405290816000820160009054906101000a900460ff161515151581526020016000820160019054906101000a900473ffffffffffffffffffffffffffffffffffffffff1673ffffffffffffffffffffffffffffffffffffffff1673ffffffffffffffffffffffffffffffffffffffff168152602001600182015481526020016002820180546123709061426d565b80601f016020809104026020016040519081016040528092919081815260200182805461239c9061426d565b80156123e95780601f106123be576101008083540402835291602001916123e9565b820191906000526020600020905b8154815290600101906020018083116123cc57829003601f168201915b5050505050815260200160038201805480602002602001604051908101604052809291908181526020016000905b8282101561255657838290600052602060002090600302016040518060800160405290816000820160009054906101000a900460ff161515151581526020016000820160019054906101000a900473ffffffffffffffffffffffffffffffffffffffff1673ffffffffffffffffffffffffffffffffffffffff1673ffffffffffffffffffffffffffffffffffffffff168152602001600182015481526020016002820180546124c59061426d565b80601f01602080910402602001604051908101604052809291908181526020018280546124f19061426d565b801561253e5780601f106125135761010080835404028352916020019161253e565b820191906000526020600020905b81548152906001019060200180831161252157829003601f168201915b50505050508152505081526020019060010190612417565b5050505081525050815260200190600101906122c2565b50505050905090565b60008054906101000a900460ff166125c3576040517f08c379a00000000000000000000000000000000000000000000000000000000081526004016125ba90613f0a565b60405180910390fd5b600180549050821061260a576040517f08c379a000000000000000000000000000000000000000000000000000000000815260040161260190613eca565b60405180910390fd5b60018281548110612644577f4e487b7100000000000000000000000000000000000000000000000000000000600052603260045260246000fd5b906000526020600020906004020160000160009054906101000a900460ff166126a2576040517f08c379a000000000000000000000000000000000000000000000000000000000815260040161269990613e8a565b60405180910390fd5b600182815481106126dc577f4e487b7100000000000000000000000000000000000000000000000000000000600052603260045260246000fd5b906000526020600020906004020160030160405180608001604052806000151581526020013373ffffffffffffffffffffffffffffffffffffffff16815260200142815260200183815250908060018154018082558091505060019003906000526020600020906003020160009091909190915060008201518160000160006101000a81548160ff02191690831515021790555060208201518160000160016101000a81548173ffffffffffffffffffffffffffffffffffffffff021916908373ffffffffffffffffffffffffffffffffffffffff1602179055506040820151816001015560608201518160020190805190602001906127dd929190612d0d565b5050505050565b60008054906101000a900460ff16612831576040517f08c379a000000000000000000000000000000000000000000000000000000000815260040161282890613f0a565b60405180910390fd5b6001805490508110612878576040517f08c379a000000000000000000000000000000000000000000000000000000000815260040161286f90613f4a565b60405180910390fd5b600181815481106128b2577f4e487b7100000000000000000000000000000000000000000000000000000000600052603260045260246000fd5b906000526020600020906004020160000160009054906101000a900460ff166128da5761293f565b600060018281548110612916577f4e487b7100000000000000000000000000000000000000000000000000000000600052603260045260246000fd5b906000526020600020906004020160000160006101000a81548160ff0219169083151502179055505b50565b6001818154811061295257600080fd5b90600052602060002090600402016000915090508060000160009054906101000a900460ff16908060000160019054906101000a900473ffffffffffffffffffffffffffffffffffffffff16908060010154908060020180546129b49061426d565b80601f01602080910402602001604051908101604052809291908181526020018280546129e09061426d565b8015612a2d5780601f10612a0257610100808354040283529160200191612a2d565b820191906000526020600020905b815481529060010190602001808311612a1057829003601f168201915b5050505050905084565b60008060008060008054906101000a900460ff167f00000000000000000000000000000000000000000000000000000000000000007f0000000000000000000000000000000000000000000000000000000000000000600180549050935093509350935090919293565b600080600090505b600180549050811015612c145760018181548110612af0577f4e487b7100000000000000000000000000000000000000000000000000000000600052603260045260246000fd5b906000526020600020906004020160000160009054906101000a900460ff1615612c0157612bf160018281548110612b51577f4e487b7100000000000000000000000000000000000000000000000000000000600052603260045260246000fd5b90600052602060002090600402016002018054612b6d9061426d565b80601f0160208091040260200160405190810160405280929190818152602001828054612b999061426d565b8015612be65780601f10612bbb57610100808354040283529160200191612be6565b820191906000526020600020905b815481529060010190602001808311612bc957829003601f168201915b505050505084612c1f565b15612c00576001915050612c1a565b5b8080612c0c9061429f565b915050612aa9565b50600090505b919050565b600081604051602001612c329190613cfc565b6040516020818303038152906040528051906020012083604051602001612c599190613cfc565b6040516020818303038152906040528051906020012014612c7b576000612c7e565b60015b905092915050565b6040518060a00160405280600015158152602001600073ffffffffffffffffffffffffffffffffffffffff1681526020016000815260200160608152602001606081525090565b6040518060800160405280600015158152602001600073ffffffffffffffffffffffffffffffffffffffff16815260200160008152602001606081525090565b828054612d199061426d565b90600052602060002090601f016020900481019282612d3b5760008555612d82565b82601f10612d5457805160ff1916838001178555612d82565b82800160010185558215612d82579182015b82811115612d81578251825591602001919060010190612d66565b5b509050612d8f9190612d93565b5090565b5b80821115612dac576000816000905550600101612d94565b5090565b6000612dc3612dbe8461401a565b613fe9565b9050808382526020820190508260005b85811015612e035781518501612de98882613121565b845260208401935060208301925050600181019050612dd3565b5050509392505050565b6000612e20612e1b84614046565b613fe9565b9050808382526020820190508260005b85811015612e605781358501612e4688826131d9565b845260208401935060208301925050600181019050612e30565b5050509392505050565b6000612e7d612e7884614046565b613fe9565b9050808382526020820190508260005b85811015612ebd5781518501612ea38882613265565b845260208401935060208301925050600181019050612e8d565b5050509392505050565b6000612eda612ed584614072565b613fe9565b905082815260208101848484011115612ef257600080fd5b612efd848285614201565b509392505050565b6000612f18612f1384614072565b613fe9565b905082815260208101848484011115612f3057600080fd5b612f3b848285614210565b509392505050565b600081359050612f5281614386565b92915050565b600081519050612f6781614386565b92915050565b600082601f830112612f7e57600080fd5b8151612f8e848260208601612db0565b91505092915050565b600082601f830112612fa857600080fd5b8135612fb8848260208601612e0d565b91505092915050565b600082601f830112612fd257600080fd5b8151612fe2848260208601612e6a565b91505092915050565b600081359050612ffa8161439d565b92915050565b60008151905061300f8161439d565b92915050565b600082601f83011261302657600080fd5b8135613036848260208601612ec7565b91505092915050565b600082601f83011261305057600080fd5b8151613060848260208601612f05565b91505092915050565b600060a0828403121561307b57600080fd5b61308560a0613fe9565b9050600061309584828501612feb565b60008301525060206130a984828501612f43565b60208301525060406130bd848285016132f1565b604083015250606082013567ffffffffffffffff8111156130dd57600080fd5b6130e984828501613015565b606083015250608082013567ffffffffffffffff81111561310957600080fd5b61311584828501612f97565b60808301525092915050565b600060a0828403121561313357600080fd5b61313d60a0613fe9565b9050600061314d84828501613000565b600083015250602061316184828501612f58565b602083015250604061317584828501613306565b604083015250606082015167ffffffffffffffff81111561319557600080fd5b6131a18482850161303f565b606083015250608082015167ffffffffffffffff8111156131c157600080fd5b6131cd84828501612fc1565b60808301525092915050565b6000608082840312156131eb57600080fd5b6131f56080613fe9565b9050600061320584828501612feb565b600083015250602061321984828501612f43565b602083015250604061322d848285016132f1565b604083015250606082013567ffffffffffffffff81111561324d57600080fd5b61325984828501613015565b60608301525092915050565b60006080828403121561327757600080fd5b6132816080613fe9565b9050600061329184828501613000565b60008301525060206132a584828501612f58565b60208301525060406132b984828501613306565b604083015250606082015167ffffffffffffffff8111156132d957600080fd5b6132e58482850161303f565b60608301525092915050565b600081359050613300816143b4565b92915050565b600081519050613315816143b4565b92915050565b60006020828403121561332d57600080fd5b600082015167ffffffffffffffff81111561334757600080fd5b61335384828501612f6d565b91505092915050565b60006020828403121561336e57600080fd5b600061337c84828501612feb565b91505092915050565b60006020828403121561339757600080fd5b600082013567ffffffffffffffff8111156133b157600080fd5b6133bd84828501613015565b91505092915050565b600080604083850312156133d957600080fd5b600083013567ffffffffffffffff8111156133f357600080fd5b6133ff85828601613015565b925050602083013567ffffffffffffffff81111561341c57600080fd5b61342885828601613015565b9150509250929050565b60006020828403121561344457600080fd5b600082013567ffffffffffffffff81111561345e57600080fd5b61346a84828501613069565b91505092915050565b60006020828403121561348557600080fd5b600082015167ffffffffffffffff81111561349f57600080fd5b6134ab84828501613265565b91505092915050565b6000602082840312156134c657600080fd5b60006134d4848285016132f1565b91505092915050565b600080604083850312156134f057600080fd5b60006134fe858286016132f1565b925050602083013567ffffffffffffffff81111561351b57600080fd5b61352785828601613015565b9150509250929050565b6000806040838503121561354457600080fd5b6000613552858286016132f1565b9250506020613563858286016132f1565b9150509250929050565b60006135798383613b1e565b905092915050565b600061358d8383613c18565b905092915050565b60006135a18383613cde565b60208301905092915050565b6135b6816141b9565b82525050565b6135c5816141b9565b82525050565b60006135d6826140d2565b6135e08185614125565b9350836020820285016135f2856140a2565b8060005b8581101561362e578484038952815161360f858261356d565b945061361a836140fe565b925060208a019950506001810190506135f6565b50829750879550505050505092915050565b600061364b826140dd565b6136558185614136565b935083602082028501613667856140b2565b8060005b858110156136a357848403895281516136848582613581565b945061368f8361410b565b925060208a0199505060018101905061366b565b50829750879550505050505092915050565b60006136c0826140e8565b6136ca8185614147565b93506136d5836140c2565b8060005b838110156137065781516136ed8882613595565b97506136f883614118565b9250506001810190506136d9565b5085935050505092915050565b61371c816141cb565b82525050565b61372b816141cb565b82525050565b600061373c826140f3565b6137468185614158565b9350613756818560208601614210565b61375f81614375565b840191505092915050565b6000613775826140f3565b61377f8185614169565b935061378f818560208601614210565b61379881614375565b840191505092915050565b60006137ae826140f3565b6137b8818561417a565b93506137c8818560208601614210565b80840191505092915050565b60006137e1603083614169565b91507f4e656e68756d612076657263616f20617469766120656e636f6e74726164612060008301527f70617261206573746120706167696e61000000000000000000000000000000006020830152604082019050919050565b6000613847604383614169565b91507f412061646963616f206465206e6f76617320766572636f657320736f2065207060008301527f65726d6974696461207175616e646f206120706167696e61206573746120617460208301527f69766100000000000000000000000000000000000000000000000000000000006040830152606082019050919050565b60006138d3603f83614169565b91507f4120616c7465726163616f2064652076657273616f20736f2065207065726d6960008301527f74696461207175616e646f206120706167696e612065737461206174697661006020830152604082019050919050565b6000613939601683614169565b91507f496e6469636520666f726120646f20616c63616e6365000000000000000000006000830152602082019050919050565b6000613979602083614169565b91507f496e646963652064612076657273616f20666f726120646f20616c63616e63656000830152602082019050919050565b60006139b9603483614169565b91507f41206163616f20736f2065207065726d6974696461207175616e646f2061204260008301527f6c6f636b706564696120657374612061746976610000000000000000000000006020830152604082019050919050565b6000613a1f602683614169565b91507f4a612065786973746520706167696e6120617469766120636f6d20657374652060008301527f746974756c6f00000000000000000000000000000000000000000000000000006020830152604082019050919050565b6000613a85602083614169565b91507f496e6469636520646120706167696e6120666f726120646f20616c63616e63656000830152602082019050919050565b6000613ac5603d83614169565b91507f536f6d656e7465206f20646f6e6f20646573746120426c6f636b70656469612060008301527f706f646520616c7465726172206f20617472696275746f20617469766f0000006020830152604082019050919050565b600060a083016000830151613b366000860182613713565b506020830151613b4960208601826135ad565b506040830151613b5c6040860182613cde565b5060608301518482036060860152613b748282613731565b91505060808301518482036080860152613b8e8282613640565b9150508091505092915050565b600060a083016000830151613bb36000860182613713565b506020830151613bc660208601826135ad565b506040830151613bd96040860182613cde565b5060608301518482036060860152613bf18282613731565b91505060808301518482036080860152613c0b8282613640565b9150508091505092915050565b6000608083016000830151613c306000860182613713565b506020830151613c4360208601826135ad565b506040830151613c566040860182613cde565b5060608301518482036060860152613c6e8282613731565b9150508091505092915050565b6000608083016000830151613c936000860182613713565b506020830151613ca660208601826135ad565b506040830151613cb96040860182613cde565b5060608301518482036060860152613cd18282613731565b9150508091505092915050565b613ce7816141f7565b82525050565b613cf6816141f7565b82525050565b6000613d0882846137a3565b915081905092915050565b6000602082019050613d2860008301846135bc565b92915050565b60006020820190508181036000830152613d4881846135cb565b905092915050565b60006020820190508181036000830152613d6a81846136b5565b905092915050565b6000602082019050613d876000830184613722565b92915050565b6000608082019050613da26000830187613722565b613daf60208301866135bc565b613dbc6040830185613ced565b8181036060830152613dce81846135cb565b905095945050505050565b6000608082019050613dee6000830187613722565b613dfb60208301866135bc565b613e086040830185613ced565b8181036060830152613e1a818461376a565b905095945050505050565b6000608082019050613e3a6000830187613722565b613e4760208301866135bc565b613e546040830185613ced565b613e616060830184613ced565b95945050505050565b60006020820190508181036000830152613e83816137d4565b9050919050565b60006020820190508181036000830152613ea38161383a565b9050919050565b60006020820190508181036000830152613ec3816138c6565b9050919050565b60006020820190508181036000830152613ee38161392c565b9050919050565b60006020820190508181036000830152613f038161396c565b9050919050565b60006020820190508181036000830152613f23816139ac565b9050919050565b60006020820190508181036000830152613f4381613a12565b9050919050565b60006020820190508181036000830152613f6381613a78565b9050919050565b60006020820190508181036000830152613f8381613ab8565b9050919050565b60006020820190508181036000830152613fa48184613b9b565b905092915050565b60006020820190508181036000830152613fc68184613c7b565b905092915050565b6000602082019050613fe36000830184613ced565b92915050565b6000604051905081810181811067ffffffffffffffff821117156140105761400f614346565b5b8060405250919050565b600067ffffffffffffffff82111561403557614034614346565b5b602082029050602081019050919050565b600067ffffffffffffffff82111561406157614060614346565b5b602082029050602081019050919050565b600067ffffffffffffffff82111561408d5761408c614346565b5b601f19601f8301169050602081019050919050565b6000819050602082019050919050565b6000819050602082019050919050565b6000819050602082019050919050565b600081519050919050565b600081519050919050565b600081519050919050565b600081519050919050565b6000602082019050919050565b6000602082019050919050565b6000602082019050919050565b600082825260208201905092915050565b600082825260208201905092915050565b600082825260208201905092915050565b600082825260208201905092915050565b600082825260208201905092915050565b600081905092915050565b6000614190826141f7565b915061419b836141f7565b9250828210156141ae576141ad6142e8565b5b828203905092915050565b60006141c4826141d7565b9050919050565b60008115159050919050565b600073ffffffffffffffffffffffffffffffffffffffff82169050919050565b6000819050919050565b82818337600083830152505050565b60005b8381101561422e578082015181840152602081019050614213565b8381111561423d576000848401525b50505050565b600061424e826141f7565b91506000821415614262576142616142e8565b5b600182039050919050565b6000600282049050600182168061428557607f821691505b6020821081141561429957614298614317565b5b50919050565b60006142aa826141f7565b91507fffffffffffffffffffffffffffffffffffffffffffffffffffffffffffffffff8214156142dd576142dc6142e8565b5b600182019050919050565b7f4e487b7100000000000000000000000000000000000000000000000000000000600052601160045260246000fd5b7f4e487b7100000000000000000000000000000000000000000000000000000000600052602260045260246000fd5b7f4e487b7100000000000000000000000000000000000000000000000000000000600052604160045260246000fd5b6000601f19601f8301169050919050565b61438f816141b9565b811461439a57600080fd5b50565b6143a6816141cb565b81146143b157600080fd5b50565b6143bd816141f7565b81146143c857600080fd5b5056fea264697066735822122049abca91beb280009011b8a37b217b67f2db90f5bf0094b59b90721e3badd5cd64736f6c6343000800003342656d2076696e646f206120426c6f636b70656964612c206120656e6369636c6f7065646961206e6120626c6f636b636861696e",
					"opcodes": "PUSH1 0xC0 PUSH1 0x40 MSTORE PUSH1 0x1 PUSH1 0x0 DUP1 PUSH2 0x100 EXP DUP2 SLOAD DUP2 PUSH1 0xFF MUL NOT AND SWAP1 DUP4 ISZERO ISZERO MUL OR SWAP1 SSTORE POP CALLVALUE DUP1 ISZERO PUSH3 0x2B JUMPI PUSH1 0x0 DUP1 REVERT JUMPDEST POP CALLER PUSH20 0xFFFFFFFFFFFFFFFFFFFFFFFFFFFFFFFFFFFFFFFF AND PUSH1 0x80 DUP2 PUSH20 0xFFFFFFFFFFFFFFFFFFFFFFFFFFFFFFFFFFFFFFFF AND PUSH1 0x60 SHL DUP2 MSTORE POP POP TIMESTAMP PUSH1 0xA0 DUP2 DUP2 MSTORE POP POP PUSH3 0xCB PUSH1 0x40 MLOAD DUP1 PUSH1 0x40 ADD PUSH1 0x40 MSTORE DUP1 PUSH1 0x6 DUP2 MSTORE PUSH1 0x20 ADD PUSH32 0x496E6963696F0000000000000000000000000000000000000000000000000000 DUP2 MSTORE POP PUSH1 0x40 MLOAD DUP1 PUSH1 0x60 ADD PUSH1 0x40 MSTORE DUP1 PUSH1 0x34 DUP2 MSTORE PUSH1 0x20 ADD PUSH3 0x4CC8 PUSH1 0x34 SWAP2 CODECOPY PUSH3 0xD1 PUSH1 0x20 SHL PUSH1 0x20 SHR JUMP JUMPDEST PUSH3 0x87B JUMP JUMPDEST PUSH1 0x0 DUP1 SLOAD SWAP1 PUSH2 0x100 EXP SWAP1 DIV PUSH1 0xFF AND PUSH3 0x121 JUMPI PUSH1 0x40 MLOAD PUSH32 0x8C379A000000000000000000000000000000000000000000000000000000000 DUP2 MSTORE PUSH1 0x4 ADD PUSH3 0x118 SWAP1 PUSH3 0x6EE JUMP JUMPDEST PUSH1 0x40 MLOAD DUP1 SWAP2 SUB SWAP1 REVERT JUMPDEST PUSH3 0x132 DUP3 PUSH3 0x31A PUSH1 0x20 SHL PUSH1 0x20 SHR JUMP JUMPDEST ISZERO PUSH3 0x175 JUMPI PUSH1 0x40 MLOAD PUSH32 0x8C379A000000000000000000000000000000000000000000000000000000000 DUP2 MSTORE PUSH1 0x4 ADD PUSH3 0x16C SWAP1 PUSH3 0x710 JUMP JUMPDEST PUSH1 0x40 MLOAD DUP1 SWAP2 SUB SWAP1 REVERT JUMPDEST PUSH1 0x0 PUSH1 0x1 DUP1 DUP2 PUSH1 0x1 DUP2 SLOAD ADD DUP1 DUP3 SSTORE DUP1 SWAP2 POP POP SUB SWAP1 PUSH1 0x0 MSTORE PUSH1 0x20 PUSH1 0x0 KECCAK256 SWAP1 PUSH1 0x4 MUL ADD SWAP1 POP PUSH1 0x1 DUP2 PUSH1 0x0 ADD PUSH1 0x0 PUSH2 0x100 EXP DUP2 SLOAD DUP2 PUSH1 0xFF MUL NOT AND SWAP1 DUP4 ISZERO ISZERO MUL OR SWAP1 SSTORE POP CALLER DUP2 PUSH1 0x0 ADD PUSH1 0x1 PUSH2 0x100 EXP DUP2 SLOAD DUP2 PUSH20 0xFFFFFFFFFFFFFFFFFFFFFFFFFFFFFFFFFFFFFFFF MUL NOT AND SWAP1 DUP4 PUSH20 0xFFFFFFFFFFFFFFFFFFFFFFFFFFFFFFFFFFFFFFFF AND MUL OR SWAP1 SSTORE POP TIMESTAMP DUP2 PUSH1 0x1 ADD DUP2 SWAP1 SSTORE POP DUP3 DUP2 PUSH1 0x2 ADD SWAP1 DUP1 MLOAD SWAP1 PUSH1 0x20 ADD SWAP1 PUSH3 0x21B SWAP3 SWAP2 SWAP1 PUSH3 0x51E JUMP JUMPDEST POP DUP1 PUSH1 0x3 ADD PUSH1 0x40 MLOAD DUP1 PUSH1 0x80 ADD PUSH1 0x40 MSTORE DUP1 PUSH1 0x1 ISZERO ISZERO DUP2 MSTORE PUSH1 0x20 ADD CALLER PUSH20 0xFFFFFFFFFFFFFFFFFFFFFFFFFFFFFFFFFFFFFFFF AND DUP2 MSTORE PUSH1 0x20 ADD TIMESTAMP DUP2 MSTORE PUSH1 0x20 ADD DUP5 DUP2 MSTORE POP SWAP1 DUP1 PUSH1 0x1 DUP2 SLOAD ADD DUP1 DUP3 SSTORE DUP1 SWAP2 POP POP PUSH1 0x1 SWAP1 SUB SWAP1 PUSH1 0x0 MSTORE PUSH1 0x20 PUSH1 0x0 KECCAK256 SWAP1 PUSH1 0x3 MUL ADD PUSH1 0x0 SWAP1 SWAP2 SWAP1 SWAP2 SWAP1 SWAP2 POP PUSH1 0x0 DUP3 ADD MLOAD DUP2 PUSH1 0x0 ADD PUSH1 0x0 PUSH2 0x100 EXP DUP2 SLOAD DUP2 PUSH1 0xFF MUL NOT AND SWAP1 DUP4 ISZERO ISZERO MUL OR SWAP1 SSTORE POP PUSH1 0x20 DUP3 ADD MLOAD DUP2 PUSH1 0x0 ADD PUSH1 0x1 PUSH2 0x100 EXP DUP2 SLOAD DUP2 PUSH20 0xFFFFFFFFFFFFFFFFFFFFFFFFFFFFFFFFFFFFFFFF MUL NOT AND SWAP1 DUP4 PUSH20 0xFFFFFFFFFFFFFFFFFFFFFFFFFFFFFFFFFFFFFFFF AND MUL OR SWAP1 SSTORE POP PUSH1 0x40 DUP3 ADD MLOAD DUP2 PUSH1 0x1 ADD SSTORE PUSH1 0x60 DUP3 ADD MLOAD DUP2 PUSH1 0x2 ADD SWAP1 DUP1 MLOAD SWAP1 PUSH1 0x20 ADD SWAP1 PUSH3 0x312 SWAP3 SWAP2 SWAP1 PUSH3 0x51E JUMP JUMPDEST POP POP POP POP POP POP JUMP JUMPDEST PUSH1 0x0 DUP1 PUSH1 0x0 SWAP1 POP JUMPDEST PUSH1 0x1 DUP1 SLOAD SWAP1 POP DUP2 LT ISZERO PUSH3 0x4A6 JUMPI PUSH1 0x1 DUP2 DUP2 SLOAD DUP2 LT PUSH3 0x36B JUMPI PUSH32 0x4E487B7100000000000000000000000000000000000000000000000000000000 PUSH1 0x0 MSTORE PUSH1 0x32 PUSH1 0x4 MSTORE PUSH1 0x24 PUSH1 0x0 REVERT JUMPDEST SWAP1 PUSH1 0x0 MSTORE PUSH1 0x20 PUSH1 0x0 KECCAK256 SWAP1 PUSH1 0x4 MUL ADD PUSH1 0x0 ADD PUSH1 0x0 SWAP1 SLOAD SWAP1 PUSH2 0x100 EXP SWAP1 DIV PUSH1 0xFF AND ISZERO PUSH3 0x490 JUMPI PUSH3 0x47E PUSH1 0x1 DUP3 DUP2 SLOAD DUP2 LT PUSH3 0x3CF JUMPI PUSH32 0x4E487B7100000000000000000000000000000000000000000000000000000000 PUSH1 0x0 MSTORE PUSH1 0x32 PUSH1 0x4 MSTORE PUSH1 0x24 PUSH1 0x0 REVERT JUMPDEST SWAP1 PUSH1 0x0 MSTORE PUSH1 0x20 PUSH1 0x0 KECCAK256 SWAP1 PUSH1 0x4 MUL ADD PUSH1 0x2 ADD DUP1 SLOAD PUSH3 0x3ED SWAP1 PUSH3 0x799 JUMP JUMPDEST DUP1 PUSH1 0x1F ADD PUSH1 0x20 DUP1 SWAP2 DIV MUL PUSH1 0x20 ADD PUSH1 0x40 MLOAD SWAP1 DUP2 ADD PUSH1 0x40 MSTORE DUP1 SWAP3 SWAP2 SWAP1 DUP2 DUP2 MSTORE PUSH1 0x20 ADD DUP3 DUP1 SLOAD PUSH3 0x41B SWAP1 PUSH3 0x799 JUMP JUMPDEST DUP1 ISZERO PUSH3 0x46C JUMPI DUP1 PUSH1 0x1F LT PUSH3 0x440 JUMPI PUSH2 0x100 DUP1 DUP4 SLOAD DIV MUL DUP4 MSTORE SWAP2 PUSH1 0x20 ADD SWAP2 PUSH3 0x46C JUMP JUMPDEST DUP3 ADD SWAP2 SWAP1 PUSH1 0x0 MSTORE PUSH1 0x20 PUSH1 0x0 KECCAK256 SWAP1 JUMPDEST DUP2 SLOAD DUP2 MSTORE SWAP1 PUSH1 0x1 ADD SWAP1 PUSH1 0x20 ADD DUP1 DUP4 GT PUSH3 0x44E JUMPI DUP3 SWAP1 SUB PUSH1 0x1F AND DUP3 ADD SWAP2 JUMPDEST POP POP POP POP POP DUP5 PUSH3 0x4B1 PUSH1 0x20 SHL PUSH1 0x20 SHR JUMP JUMPDEST ISZERO PUSH3 0x48F JUMPI PUSH1 0x1 SWAP2 POP POP PUSH3 0x4AC JUMP JUMPDEST JUMPDEST DUP1 DUP1 PUSH3 0x49D SWAP1 PUSH3 0x7CF JUMP JUMPDEST SWAP2 POP POP PUSH3 0x322 JUMP JUMPDEST POP PUSH1 0x0 SWAP1 POP JUMPDEST SWAP2 SWAP1 POP JUMP JUMPDEST PUSH1 0x0 DUP2 PUSH1 0x40 MLOAD PUSH1 0x20 ADD PUSH3 0x4C6 SWAP2 SWAP1 PUSH3 0x6D5 JUMP JUMPDEST PUSH1 0x40 MLOAD PUSH1 0x20 DUP2 DUP4 SUB SUB DUP2 MSTORE SWAP1 PUSH1 0x40 MSTORE DUP1 MLOAD SWAP1 PUSH1 0x20 ADD KECCAK256 DUP4 PUSH1 0x40 MLOAD PUSH1 0x20 ADD PUSH3 0x4EF SWAP2 SWAP1 PUSH3 0x6D5 JUMP JUMPDEST PUSH1 0x40 MLOAD PUSH1 0x20 DUP2 DUP4 SUB SUB DUP2 MSTORE SWAP1 PUSH1 0x40 MSTORE DUP1 MLOAD SWAP1 PUSH1 0x20 ADD KECCAK256 EQ PUSH3 0x513 JUMPI PUSH1 0x0 PUSH3 0x516 JUMP JUMPDEST PUSH1 0x1 JUMPDEST SWAP1 POP SWAP3 SWAP2 POP POP JUMP JUMPDEST DUP3 DUP1 SLOAD PUSH3 0x52C SWAP1 PUSH3 0x799 JUMP JUMPDEST SWAP1 PUSH1 0x0 MSTORE PUSH1 0x20 PUSH1 0x0 KECCAK256 SWAP1 PUSH1 0x1F ADD PUSH1 0x20 SWAP1 DIV DUP2 ADD SWAP3 DUP3 PUSH3 0x550 JUMPI PUSH1 0x0 DUP6 SSTORE PUSH3 0x59C JUMP JUMPDEST DUP3 PUSH1 0x1F LT PUSH3 0x56B JUMPI DUP1 MLOAD PUSH1 0xFF NOT AND DUP4 DUP1 ADD OR DUP6 SSTORE PUSH3 0x59C JUMP JUMPDEST DUP3 DUP1 ADD PUSH1 0x1 ADD DUP6 SSTORE DUP3 ISZERO PUSH3 0x59C JUMPI SWAP2 DUP3 ADD JUMPDEST DUP3 DUP2 GT ISZERO PUSH3 0x59B JUMPI DUP3 MLOAD DUP3 SSTORE SWAP2 PUSH1 0x20 ADD SWAP2 SWAP1 PUSH1 0x1 ADD SWAP1 PUSH3 0x57E JUMP JUMPDEST JUMPDEST POP SWAP1 POP PUSH3 0x5AB SWAP2 SWAP1 PUSH3 0x5AF JUMP JUMPDEST POP SWAP1 JUMP JUMPDEST JUMPDEST DUP1 DUP3 GT ISZERO PUSH3 0x5CA JUMPI PUSH1 0x0 DUP2 PUSH1 0x0 SWAP1 SSTORE POP PUSH1 0x1 ADD PUSH3 0x5B0 JUMP JUMPDEST POP SWAP1 JUMP JUMPDEST PUSH1 0x0 PUSH3 0x5DB DUP3 PUSH3 0x732 JUMP JUMPDEST PUSH3 0x5E7 DUP2 DUP6 PUSH3 0x74E JUMP JUMPDEST SWAP4 POP PUSH3 0x5F9 DUP2 DUP6 PUSH1 0x20 DUP7 ADD PUSH3 0x763 JUMP JUMPDEST DUP1 DUP5 ADD SWAP2 POP POP SWAP3 SWAP2 POP POP JUMP JUMPDEST PUSH1 0x0 PUSH3 0x614 PUSH1 0x34 DUP4 PUSH3 0x73D JUMP JUMPDEST SWAP2 POP PUSH32 0x41206163616F20736F2065207065726D6974696461207175616E646F20612042 PUSH1 0x0 DUP4 ADD MSTORE PUSH32 0x6C6F636B70656469612065737461206174697661000000000000000000000000 PUSH1 0x20 DUP4 ADD MSTORE PUSH1 0x40 DUP3 ADD SWAP1 POP SWAP2 SWAP1 POP JUMP JUMPDEST PUSH1 0x0 PUSH3 0x67C PUSH1 0x26 DUP4 PUSH3 0x73D JUMP JUMPDEST SWAP2 POP PUSH32 0x4A612065786973746520706167696E6120617469766120636F6D206573746520 PUSH1 0x0 DUP4 ADD MSTORE PUSH32 0x746974756C6F0000000000000000000000000000000000000000000000000000 PUSH1 0x20 DUP4 ADD MSTORE PUSH1 0x40 DUP3 ADD SWAP1 POP SWAP2 SWAP1 POP JUMP JUMPDEST PUSH1 0x0 PUSH3 0x6E3 DUP3 DUP5 PUSH3 0x5CE JUMP JUMPDEST SWAP2 POP DUP2 SWAP1 POP SWAP3 SWAP2 POP POP JUMP JUMPDEST PUSH1 0x0 PUSH1 0x20 DUP3 ADD SWAP1 POP DUP2 DUP2 SUB PUSH1 0x0 DUP4 ADD MSTORE PUSH3 0x709 DUP2 PUSH3 0x605 JUMP JUMPDEST SWAP1 POP SWAP2 SWAP1 POP JUMP JUMPDEST PUSH1 0x0 PUSH1 0x20 DUP3 ADD SWAP1 POP DUP2 DUP2 SUB PUSH1 0x0 DUP4 ADD MSTORE PUSH3 0x72B DUP2 PUSH3 0x66D JUMP JUMPDEST SWAP1 POP SWAP2 SWAP1 POP JUMP JUMPDEST PUSH1 0x0 DUP2 MLOAD SWAP1 POP SWAP2 SWAP1 POP JUMP JUMPDEST PUSH1 0x0 DUP3 DUP3 MSTORE PUSH1 0x20 DUP3 ADD SWAP1 POP SWAP3 SWAP2 POP POP JUMP JUMPDEST PUSH1 0x0 DUP2 SWAP1 POP SWAP3 SWAP2 POP POP JUMP JUMPDEST PUSH1 0x0 DUP2 SWAP1 POP SWAP2 SWAP1 POP JUMP JUMPDEST PUSH1 0x0 JUMPDEST DUP4 DUP2 LT ISZERO PUSH3 0x783 JUMPI DUP1 DUP3 ADD MLOAD DUP2 DUP5 ADD MSTORE PUSH1 0x20 DUP2 ADD SWAP1 POP PUSH3 0x766 JUMP JUMPDEST DUP4 DUP2 GT ISZERO PUSH3 0x793 JUMPI PUSH1 0x0 DUP5 DUP5 ADD MSTORE JUMPDEST POP POP POP POP JUMP JUMPDEST PUSH1 0x0 PUSH1 0x2 DUP3 DIV SWAP1 POP PUSH1 0x1 DUP3 AND DUP1 PUSH3 0x7B2 JUMPI PUSH1 0x7F DUP3 AND SWAP2 POP JUMPDEST PUSH1 0x20 DUP3 LT DUP2 EQ ISZERO PUSH3 0x7C9 JUMPI PUSH3 0x7C8 PUSH3 0x84C JUMP JUMPDEST JUMPDEST POP SWAP2 SWAP1 POP JUMP JUMPDEST PUSH1 0x0 PUSH3 0x7DC DUP3 PUSH3 0x759 JUMP JUMPDEST SWAP2 POP PUSH32 0xFFFFFFFFFFFFFFFFFFFFFFFFFFFFFFFFFFFFFFFFFFFFFFFFFFFFFFFFFFFFFFFF DUP3 EQ ISZERO PUSH3 0x812 JUMPI PUSH3 0x811 PUSH3 0x81D JUMP JUMPDEST JUMPDEST PUSH1 0x1 DUP3 ADD SWAP1 POP SWAP2 SWAP1 POP JUMP JUMPDEST PUSH32 0x4E487B7100000000000000000000000000000000000000000000000000000000 PUSH1 0x0 MSTORE PUSH1 0x11 PUSH1 0x4 MSTORE PUSH1 0x24 PUSH1 0x0 REVERT JUMPDEST PUSH32 0x4E487B7100000000000000000000000000000000000000000000000000000000 PUSH1 0x0 MSTORE PUSH1 0x22 PUSH1 0x4 MSTORE PUSH1 0x24 PUSH1 0x0 REVERT JUMPDEST PUSH1 0x80 MLOAD PUSH1 0x60 SHR PUSH1 0xA0 MLOAD PUSH2 0x4401 PUSH3 0x8C7 PUSH1 0x0 CODECOPY PUSH1 0x0 DUP2 DUP2 PUSH2 0xC19 ADD MSTORE DUP2 DUP2 PUSH2 0x1215 ADD MSTORE PUSH2 0x2A6E ADD MSTORE PUSH1 0x0 DUP2 DUP2 PUSH2 0x8BF ADD MSTORE DUP2 DUP2 PUSH2 0x8E3 ADD MSTORE DUP2 DUP2 PUSH2 0xBF8 ADD MSTORE PUSH2 0x2A4D ADD MSTORE PUSH2 0x4401 PUSH1 0x0 RETURN INVALID PUSH1 0x80 PUSH1 0x40 MSTORE PUSH1 0x4 CALLDATASIZE LT PUSH2 0x10D JUMPI PUSH1 0x0 CALLDATALOAD PUSH1 0xE0 SHR DUP1 PUSH4 0x9980ED12 GT PUSH2 0x95 JUMPI DUP1 PUSH4 0xB15820E8 GT PUSH2 0x64 JUMPI DUP1 PUSH4 0xB15820E8 EQ PUSH2 0x37C JUMPI DUP1 PUSH4 0xD4D23A6E EQ PUSH2 0x3A7 JUMPI DUP1 PUSH4 0xD616C9F0 EQ PUSH2 0x3D0 JUMPI DUP1 PUSH4 0xE7D4296A EQ PUSH2 0x3F9 JUMPI DUP1 PUSH4 0xE976F43A EQ PUSH2 0x439 JUMPI PUSH2 0x117 JUMP JUMPDEST DUP1 PUSH4 0x9980ED12 EQ PUSH2 0x2C0 JUMPI DUP1 PUSH4 0xA18CC13B EQ PUSH2 0x2FD JUMPI DUP1 PUSH4 0xA89107A9 EQ PUSH2 0x328 JUMPI DUP1 PUSH4 0xAA83581F EQ PUSH2 0x353 JUMPI PUSH2 0x117 JUMP JUMPDEST DUP1 PUSH4 0x294D2E2C GT PUSH2 0xDC JUMPI DUP1 PUSH4 0x294D2E2C EQ PUSH2 0x1C4 JUMPI DUP1 PUSH4 0x2E87CA2E EQ PUSH2 0x1F2 JUMPI DUP1 PUSH4 0x6F70A52E EQ PUSH2 0x22F JUMPI DUP1 PUSH4 0x72C1395C EQ PUSH2 0x25A JUMPI DUP1 PUSH4 0x95BE551A EQ PUSH2 0x297 JUMPI PUSH2 0x117 JUMP JUMPDEST DUP1 PUSH4 0x41ACB57 EQ PUSH2 0x11C JUMPI DUP1 PUSH4 0x694952D EQ PUSH2 0x147 JUMPI DUP1 PUSH4 0x1509D30C EQ PUSH2 0x172 JUMPI DUP1 PUSH4 0x1C18379A EQ PUSH2 0x19B JUMPI PUSH2 0x117 JUMP JUMPDEST CALLDATASIZE PUSH2 0x117 JUMPI PUSH1 0x0 DUP1 REVERT JUMPDEST PUSH1 0x0 DUP1 REVERT JUMPDEST CALLVALUE DUP1 ISZERO PUSH2 0x128 JUMPI PUSH1 0x0 DUP1 REVERT JUMPDEST POP PUSH2 0x131 PUSH2 0x467 JUMP JUMPDEST PUSH1 0x40 MLOAD PUSH2 0x13E SWAP2 SWAP1 PUSH2 0x3D2E JUMP JUMPDEST PUSH1 0x40 MLOAD DUP1 SWAP2 SUB SWAP1 RETURN JUMPDEST CALLVALUE DUP1 ISZERO PUSH2 0x153 JUMPI PUSH1 0x0 DUP1 REVERT JUMPDEST POP PUSH2 0x15C PUSH2 0x8BD JUMP JUMPDEST PUSH1 0x40 MLOAD PUSH2 0x169 SWAP2 SWAP1 PUSH2 0x3D13 JUMP JUMPDEST PUSH1 0x40 MLOAD DUP1 SWAP2 SUB SWAP1 RETURN JUMPDEST CALLVALUE DUP1 ISZERO PUSH2 0x17E JUMPI PUSH1 0x0 DUP1 REVERT JUMPDEST POP PUSH2 0x199 PUSH1 0x4 DUP1 CALLDATASIZE SUB DUP2 ADD SWAP1 PUSH2 0x194 SWAP2 SWAP1 PUSH2 0x335C JUMP JUMPDEST PUSH2 0x8E1 JUMP JUMPDEST STOP JUMPDEST CALLVALUE DUP1 ISZERO PUSH2 0x1A7 JUMPI PUSH1 0x0 DUP1 REVERT JUMPDEST POP PUSH2 0x1C2 PUSH1 0x4 DUP1 CALLDATASIZE SUB DUP2 ADD SWAP1 PUSH2 0x1BD SWAP2 SWAP1 PUSH2 0x33C6 JUMP JUMPDEST PUSH2 0x9AA JUMP JUMPDEST STOP JUMPDEST CALLVALUE DUP1 ISZERO PUSH2 0x1D0 JUMPI PUSH1 0x0 DUP1 REVERT JUMPDEST POP PUSH2 0x1D9 PUSH2 0xBE1 JUMP JUMPDEST PUSH1 0x40 MLOAD PUSH2 0x1E9 SWAP5 SWAP4 SWAP3 SWAP2 SWAP1 PUSH2 0x3D8D JUMP JUMPDEST PUSH1 0x40 MLOAD DUP1 SWAP2 SUB SWAP1 RETURN JUMPDEST CALLVALUE DUP1 ISZERO PUSH2 0x1FE JUMPI PUSH1 0x0 DUP1 REVERT JUMPDEST POP PUSH2 0x219 PUSH1 0x4 DUP1 CALLDATASIZE SUB DUP2 ADD SWAP1 PUSH2 0x214 SWAP2 SWAP1 PUSH2 0x3385 JUMP JUMPDEST PUSH2 0xF1A JUMP JUMPDEST PUSH1 0x40 MLOAD PUSH2 0x226 SWAP2 SWAP1 PUSH2 0x3D50 JUMP JUMPDEST PUSH1 0x40 MLOAD DUP1 SWAP2 SUB SWAP1 RETURN JUMPDEST CALLVALUE DUP1 ISZERO PUSH2 0x23B JUMPI PUSH1 0x0 DUP1 REVERT JUMPDEST POP PUSH2 0x244 PUSH2 0x1213 JUMP JUMPDEST PUSH1 0x40 MLOAD PUSH2 0x251 SWAP2 SWAP1 PUSH2 0x3FCE JUMP JUMPDEST PUSH1 0x40 MLOAD DUP1 SWAP2 SUB SWAP1 RETURN JUMPDEST CALLVALUE DUP1 ISZERO PUSH2 0x266 JUMPI PUSH1 0x0 DUP1 REVERT JUMPDEST POP PUSH2 0x281 PUSH1 0x4 DUP1 CALLDATASIZE SUB DUP2 ADD SWAP1 PUSH2 0x27C SWAP2 SWAP1 PUSH2 0x34B4 JUMP JUMPDEST PUSH2 0x1237 JUMP JUMPDEST PUSH1 0x40 MLOAD PUSH2 0x28E SWAP2 SWAP1 PUSH2 0x3F8A JUMP JUMPDEST PUSH1 0x40 MLOAD DUP1 SWAP2 SUB SWAP1 RETURN JUMPDEST CALLVALUE DUP1 ISZERO PUSH2 0x2A3 JUMPI PUSH1 0x0 DUP1 REVERT JUMPDEST POP PUSH2 0x2BE PUSH1 0x4 DUP1 CALLDATASIZE SUB DUP2 ADD SWAP1 PUSH2 0x2B9 SWAP2 SWAP1 PUSH2 0x3531 JUMP JUMPDEST PUSH2 0x1559 JUMP JUMPDEST STOP JUMPDEST CALLVALUE DUP1 ISZERO PUSH2 0x2CC JUMPI PUSH1 0x0 DUP1 REVERT JUMPDEST POP PUSH2 0x2E7 PUSH1 0x4 DUP1 CALLDATASIZE SUB DUP2 ADD SWAP1 PUSH2 0x2E2 SWAP2 SWAP1 PUSH2 0x3432 JUMP JUMPDEST PUSH2 0x1A4F JUMP JUMPDEST PUSH1 0x40 MLOAD PUSH2 0x2F4 SWAP2 SWAP1 PUSH2 0x3FAC JUMP JUMPDEST PUSH1 0x40 MLOAD DUP1 SWAP2 SUB SWAP1 RETURN JUMPDEST CALLVALUE DUP1 ISZERO PUSH2 0x309 JUMPI PUSH1 0x0 DUP1 REVERT JUMPDEST POP PUSH2 0x312 PUSH2 0x1B56 JUMP JUMPDEST PUSH1 0x40 MLOAD PUSH2 0x31F SWAP2 SWAP1 PUSH2 0x3D72 JUMP JUMPDEST PUSH1 0x40 MLOAD DUP1 SWAP2 SUB SWAP1 RETURN JUMPDEST CALLVALUE DUP1 ISZERO PUSH2 0x334 JUMPI PUSH1 0x0 DUP1 REVERT JUMPDEST POP PUSH2 0x33D PUSH2 0x1B67 JUMP JUMPDEST PUSH1 0x40 MLOAD PUSH2 0x34A SWAP2 SWAP1 PUSH2 0x3D2E JUMP JUMPDEST PUSH1 0x40 MLOAD DUP1 SWAP2 SUB SWAP1 RETURN JUMPDEST CALLVALUE DUP1 ISZERO PUSH2 0x35F JUMPI PUSH1 0x0 DUP1 REVERT JUMPDEST POP PUSH2 0x37A PUSH1 0x4 DUP1 CALLDATASIZE SUB DUP2 ADD SWAP1 PUSH2 0x375 SWAP2 SWAP1 PUSH2 0x34B4 JUMP JUMPDEST PUSH2 0x2024 JUMP JUMPDEST STOP JUMPDEST CALLVALUE DUP1 ISZERO PUSH2 0x388 JUMPI PUSH1 0x0 DUP1 REVERT JUMPDEST POP PUSH2 0x391 PUSH2 0x229E JUMP JUMPDEST PUSH1 0x40 MLOAD PUSH2 0x39E SWAP2 SWAP1 PUSH2 0x3D2E JUMP JUMPDEST PUSH1 0x40 MLOAD DUP1 SWAP2 SUB SWAP1 RETURN JUMPDEST CALLVALUE DUP1 ISZERO PUSH2 0x3B3 JUMPI PUSH1 0x0 DUP1 REVERT JUMPDEST POP PUSH2 0x3CE PUSH1 0x4 DUP1 CALLDATASIZE SUB DUP2 ADD SWAP1 PUSH2 0x3C9 SWAP2 SWAP1 PUSH2 0x34DD JUMP JUMPDEST PUSH2 0x2576 JUMP JUMPDEST STOP JUMPDEST CALLVALUE DUP1 ISZERO PUSH2 0x3DC JUMPI PUSH1 0x0 DUP1 REVERT JUMPDEST POP PUSH2 0x3F7 PUSH1 0x4 DUP1 CALLDATASIZE SUB DUP2 ADD SWAP1 PUSH2 0x3F2 SWAP2 SWAP1 PUSH2 0x34B4 JUMP JUMPDEST PUSH2 0x27E4 JUMP JUMPDEST STOP JUMPDEST CALLVALUE DUP1 ISZERO PUSH2 0x405 JUMPI PUSH1 0x0 DUP1 REVERT JUMPDEST POP PUSH2 0x420 PUSH1 0x4 DUP1 CALLDATASIZE SUB DUP2 ADD SWAP1 PUSH2 0x41B SWAP2 SWAP1 PUSH2 0x34B4 JUMP JUMPDEST PUSH2 0x2942 JUMP JUMPDEST PUSH1 0x40 MLOAD PUSH2 0x430 SWAP5 SWAP4 SWAP3 SWAP2 SWAP1 PUSH2 0x3DD9 JUMP JUMPDEST PUSH1 0x40 MLOAD DUP1 SWAP2 SUB SWAP1 RETURN JUMPDEST CALLVALUE DUP1 ISZERO PUSH2 0x445 JUMPI PUSH1 0x0 DUP1 REVERT JUMPDEST POP PUSH2 0x44E PUSH2 0x2A37 JUMP JUMPDEST PUSH1 0x40 MLOAD PUSH2 0x45E SWAP5 SWAP4 SWAP3 SWAP2 SWAP1 PUSH2 0x3E25 JUMP JUMPDEST PUSH1 0x40 MLOAD DUP1 SWAP2 SUB SWAP1 RETURN JUMPDEST PUSH1 0x60 PUSH1 0x0 ADDRESS PUSH20 0xFFFFFFFFFFFFFFFFFFFFFFFFFFFFFFFFFFFFFFFF AND PUSH4 0xA89107A9 PUSH1 0x40 MLOAD DUP2 PUSH4 0xFFFFFFFF AND PUSH1 0xE0 SHL DUP2 MSTORE PUSH1 0x4 ADD PUSH1 0x0 PUSH1 0x40 MLOAD DUP1 DUP4 SUB DUP2 DUP7 DUP1 EXTCODESIZE ISZERO DUP1 ISZERO PUSH2 0x4B1 JUMPI PUSH1 0x0 DUP1 REVERT JUMPDEST POP GAS STATICCALL ISZERO DUP1 ISZERO PUSH2 0x4C5 JUMPI RETURNDATASIZE PUSH1 0x0 DUP1 RETURNDATACOPY RETURNDATASIZE PUSH1 0x0 REVERT JUMPDEST POP POP POP POP PUSH1 0x40 MLOAD RETURNDATASIZE PUSH1 0x0 DUP3 RETURNDATACOPY RETURNDATASIZE PUSH1 0x1F NOT PUSH1 0x1F DUP3 ADD AND DUP3 ADD DUP1 PUSH1 0x40 MSTORE POP DUP2 ADD SWAP1 PUSH2 0x4EE SWAP2 SWAP1 PUSH2 0x331B JUMP JUMPDEST SWAP1 POP PUSH1 0x0 DUP2 MLOAD PUSH8 0xFFFFFFFFFFFFFFFF DUP2 GT ISZERO PUSH2 0x533 JUMPI PUSH32 0x4E487B7100000000000000000000000000000000000000000000000000000000 PUSH1 0x0 MSTORE PUSH1 0x41 PUSH1 0x4 MSTORE PUSH1 0x24 PUSH1 0x0 REVERT JUMPDEST PUSH1 0x40 MLOAD SWAP1 DUP1 DUP3 MSTORE DUP1 PUSH1 0x20 MUL PUSH1 0x20 ADD DUP3 ADD PUSH1 0x40 MSTORE DUP1 ISZERO PUSH2 0x56C JUMPI DUP2 PUSH1 0x20 ADD JUMPDEST PUSH2 0x559 PUSH2 0x2C86 JUMP JUMPDEST DUP2 MSTORE PUSH1 0x20 ADD SWAP1 PUSH1 0x1 SWAP1 SUB SWAP1 DUP2 PUSH2 0x551 JUMPI SWAP1 POP JUMPDEST POP SWAP1 POP PUSH1 0x0 JUMPDEST DUP3 MLOAD DUP2 LT ISZERO PUSH2 0x8B4 JUMPI PUSH1 0x0 PUSH1 0x1 PUSH8 0xFFFFFFFFFFFFFFFF DUP2 GT ISZERO PUSH2 0x5BE JUMPI PUSH32 0x4E487B7100000000000000000000000000000000000000000000000000000000 PUSH1 0x0 MSTORE PUSH1 0x41 PUSH1 0x4 MSTORE PUSH1 0x24 PUSH1 0x0 REVERT JUMPDEST PUSH1 0x40 MLOAD SWAP1 DUP1 DUP3 MSTORE DUP1 PUSH1 0x20 MUL PUSH1 0x20 ADD DUP3 ADD PUSH1 0x40 MSTORE DUP1 ISZERO PUSH2 0x5F7 JUMPI DUP2 PUSH1 0x20 ADD JUMPDEST PUSH2 0x5E4 PUSH2 0x2CCD JUMP JUMPDEST DUP2 MSTORE PUSH1 0x20 ADD SWAP1 PUSH1 0x1 SWAP1 SUB SWAP1 DUP2 PUSH2 0x5DC JUMPI SWAP1 POP JUMPDEST POP SWAP1 POP ADDRESS PUSH20 0xFFFFFFFFFFFFFFFFFFFFFFFFFFFFFFFFFFFFFFFF AND PUSH4 0x9980ED12 DUP6 DUP5 DUP2 MLOAD DUP2 LT PUSH2 0x64F JUMPI PUSH32 0x4E487B7100000000000000000000000000000000000000000000000000000000 PUSH1 0x0 MSTORE PUSH1 0x32 PUSH1 0x4 MSTORE PUSH1 0x24 PUSH1 0x0 REVERT JUMPDEST PUSH1 0x20 MUL PUSH1 0x20 ADD ADD MLOAD PUSH1 0x40 MLOAD DUP3 PUSH4 0xFFFFFFFF AND PUSH1 0xE0 SHL DUP2 MSTORE PUSH1 0x4 ADD PUSH2 0x673 SWAP2 SWAP1 PUSH2 0x3F8A JUMP JUMPDEST PUSH1 0x0 PUSH1 0x40 MLOAD DUP1 DUP4 SUB DUP2 DUP7 DUP1 EXTCODESIZE ISZERO DUP1 ISZERO PUSH2 0x68B JUMPI PUSH1 0x0 DUP1 REVERT JUMPDEST POP GAS STATICCALL ISZERO DUP1 ISZERO PUSH2 0x69F JUMPI RETURNDATASIZE PUSH1 0x0 DUP1 RETURNDATACOPY RETURNDATASIZE PUSH1 0x0 REVERT JUMPDEST POP POP POP POP PUSH1 0x40 MLOAD RETURNDATASIZE PUSH1 0x0 DUP3 RETURNDATACOPY RETURNDATASIZE PUSH1 0x1F NOT PUSH1 0x1F DUP3 ADD AND DUP3 ADD DUP1 PUSH1 0x40 MSTORE POP DUP2 ADD SWAP1 PUSH2 0x6C8 SWAP2 SWAP1 PUSH2 0x3473 JUMP JUMPDEST DUP2 PUSH1 0x0 DUP2 MLOAD DUP2 LT PUSH2 0x702 JUMPI PUSH32 0x4E487B7100000000000000000000000000000000000000000000000000000000 PUSH1 0x0 MSTORE PUSH1 0x32 PUSH1 0x4 MSTORE PUSH1 0x24 PUSH1 0x0 REVERT JUMPDEST PUSH1 0x20 MUL PUSH1 0x20 ADD ADD DUP2 SWAP1 MSTORE POP PUSH1 0x40 MLOAD DUP1 PUSH1 0xA0 ADD PUSH1 0x40 MSTORE DUP1 DUP6 DUP5 DUP2 MLOAD DUP2 LT PUSH2 0x751 JUMPI PUSH32 0x4E487B7100000000000000000000000000000000000000000000000000000000 PUSH1 0x0 MSTORE PUSH1 0x32 PUSH1 0x4 MSTORE PUSH1 0x24 PUSH1 0x0 REVERT JUMPDEST PUSH1 0x20 MUL PUSH1 0x20 ADD ADD MLOAD PUSH1 0x0 ADD MLOAD ISZERO ISZERO DUP2 MSTORE PUSH1 0x20 ADD DUP6 DUP5 DUP2 MLOAD DUP2 LT PUSH2 0x79D JUMPI PUSH32 0x4E487B7100000000000000000000000000000000000000000000000000000000 PUSH1 0x0 MSTORE PUSH1 0x32 PUSH1 0x4 MSTORE PUSH1 0x24 PUSH1 0x0 REVERT JUMPDEST PUSH1 0x20 MUL PUSH1 0x20 ADD ADD MLOAD PUSH1 0x20 ADD MLOAD PUSH20 0xFFFFFFFFFFFFFFFFFFFFFFFFFFFFFFFFFFFFFFFF AND DUP2 MSTORE PUSH1 0x20 ADD DUP6 DUP5 DUP2 MLOAD DUP2 LT PUSH2 0x7FD JUMPI PUSH32 0x4E487B7100000000000000000000000000000000000000000000000000000000 PUSH1 0x0 MSTORE PUSH1 0x32 PUSH1 0x4 MSTORE PUSH1 0x24 PUSH1 0x0 REVERT JUMPDEST PUSH1 0x20 MUL PUSH1 0x20 ADD ADD MLOAD PUSH1 0x40 ADD MLOAD DUP2 MSTORE PUSH1 0x20 ADD DUP6 DUP5 DUP2 MLOAD DUP2 LT PUSH2 0x847 JUMPI PUSH32 0x4E487B7100000000000000000000000000000000000000000000000000000000 PUSH1 0x0 MSTORE PUSH1 0x32 PUSH1 0x4 MSTORE PUSH1 0x24 PUSH1 0x0 REVERT JUMPDEST PUSH1 0x20 MUL PUSH1 0x20 ADD ADD MLOAD PUSH1 0x60 ADD MLOAD DUP2 MSTORE PUSH1 0x20 ADD DUP3 DUP2 MSTORE POP DUP4 DUP4 DUP2 MLOAD DUP2 LT PUSH2 0x895 JUMPI PUSH32 0x4E487B7100000000000000000000000000000000000000000000000000000000 PUSH1 0x0 MSTORE PUSH1 0x32 PUSH1 0x4 MSTORE PUSH1 0x24 PUSH1 0x0 REVERT JUMPDEST PUSH1 0x20 MUL PUSH1 0x20 ADD ADD DUP2 SWAP1 MSTORE POP POP DUP1 DUP1 PUSH2 0x8AC SWAP1 PUSH2 0x429F JUMP JUMPDEST SWAP2 POP POP PUSH2 0x572 JUMP JUMPDEST POP DUP1 SWAP3 POP POP POP SWAP1 JUMP JUMPDEST PUSH32 0x0 DUP2 JUMP JUMPDEST PUSH32 0x0 PUSH20 0xFFFFFFFFFFFFFFFFFFFFFFFFFFFFFFFFFFFFFFFF AND CALLER PUSH20 0xFFFFFFFFFFFFFFFFFFFFFFFFFFFFFFFFFFFFFFFF AND EQ PUSH2 0x96F JUMPI PUSH1 0x40 MLOAD PUSH32 0x8C379A000000000000000000000000000000000000000000000000000000000 DUP2 MSTORE PUSH1 0x4 ADD PUSH2 0x966 SWAP1 PUSH2 0x3F6A JUMP JUMPDEST PUSH1 0x40 MLOAD DUP1 SWAP2 SUB SWAP1 REVERT JUMPDEST DUP1 ISZERO ISZERO PUSH1 0x0 DUP1 SLOAD SWAP1 PUSH2 0x100 EXP SWAP1 DIV PUSH1 0xFF AND ISZERO ISZERO EQ ISZERO PUSH2 0x98D JUMPI PUSH2 0x9A7 JUMP JUMPDEST DUP1 PUSH1 0x0 DUP1 PUSH2 0x100 EXP DUP2 SLOAD DUP2 PUSH1 0xFF MUL NOT AND SWAP1 DUP4 ISZERO ISZERO MUL OR SWAP1 SSTORE POP JUMPDEST POP JUMP JUMPDEST PUSH1 0x0 DUP1 SLOAD SWAP1 PUSH2 0x100 EXP SWAP1 DIV PUSH1 0xFF AND PUSH2 0x9F7 JUMPI PUSH1 0x40 MLOAD PUSH32 0x8C379A000000000000000000000000000000000000000000000000000000000 DUP2 MSTORE PUSH1 0x4 ADD PUSH2 0x9EE SWAP1 PUSH2 0x3F0A JUMP JUMPDEST PUSH1 0x40 MLOAD DUP1 SWAP2 SUB SWAP1 REVERT JUMPDEST PUSH2 0xA00 DUP3 PUSH2 0x2AA1 JUMP JUMPDEST ISZERO PUSH2 0xA40 JUMPI PUSH1 0x40 MLOAD PUSH32 0x8C379A000000000000000000000000000000000000000000000000000000000 DUP2 MSTORE PUSH1 0x4 ADD PUSH2 0xA37 SWAP1 PUSH2 0x3F2A JUMP JUMPDEST PUSH1 0x40 MLOAD DUP1 SWAP2 SUB SWAP1 REVERT JUMPDEST PUSH1 0x0 PUSH1 0x1 DUP1 DUP2 PUSH1 0x1 DUP2 SLOAD ADD DUP1 DUP3 SSTORE DUP1 SWAP2 POP POP SUB SWAP1 PUSH1 0x0 MSTORE PUSH1 0x20 PUSH1 0x0 KECCAK256 SWAP1 PUSH1 0x4 MUL ADD SWAP1 POP PUSH1 0x1 DUP2 PUSH1 0x0 ADD PUSH1 0x0 PUSH2 0x100 EXP DUP2 SLOAD DUP2 PUSH1 0xFF MUL NOT AND SWAP1 DUP4 ISZERO ISZERO MUL OR SWAP1 SSTORE POP CALLER DUP2 PUSH1 0x0 ADD PUSH1 0x1 PUSH2 0x100 EXP DUP2 SLOAD DUP2 PUSH20 0xFFFFFFFFFFFFFFFFFFFFFFFFFFFFFFFFFFFFFFFF MUL NOT AND SWAP1 DUP4 PUSH20 0xFFFFFFFFFFFFFFFFFFFFFFFFFFFFFFFFFFFFFFFF AND MUL OR SWAP1 SSTORE POP TIMESTAMP DUP2 PUSH1 0x1 ADD DUP2 SWAP1 SSTORE POP DUP3 DUP2 PUSH1 0x2 ADD SWAP1 DUP1 MLOAD SWAP1 PUSH1 0x20 ADD SWAP1 PUSH2 0xAE4 SWAP3 SWAP2 SWAP1 PUSH2 0x2D0D JUMP JUMPDEST POP DUP1 PUSH1 0x3 ADD PUSH1 0x40 MLOAD DUP1 PUSH1 0x80 ADD PUSH1 0x40 MSTORE DUP1 PUSH1 0x1 ISZERO ISZERO DUP2 MSTORE PUSH1 0x20 ADD CALLER PUSH20 0xFFFFFFFFFFFFFFFFFFFFFFFFFFFFFFFFFFFFFFFF AND DUP2 MSTORE PUSH1 0x20 ADD TIMESTAMP DUP2 MSTORE PUSH1 0x20 ADD DUP5 DUP2 MSTORE POP SWAP1 DUP1 PUSH1 0x1 DUP2 SLOAD ADD DUP1 DUP3 SSTORE DUP1 SWAP2 POP POP PUSH1 0x1 SWAP1 SUB SWAP1 PUSH1 0x0 MSTORE PUSH1 0x20 PUSH1 0x0 KECCAK256 SWAP1 PUSH1 0x3 MUL ADD PUSH1 0x0 SWAP1 SWAP2 SWAP1 SWAP2 SWAP1 SWAP2 POP PUSH1 0x0 DUP3 ADD MLOAD DUP2 PUSH1 0x0 ADD PUSH1 0x0 PUSH2 0x100 EXP DUP2 SLOAD DUP2 PUSH1 0xFF MUL NOT AND SWAP1 DUP4 ISZERO ISZERO MUL OR SWAP1 SSTORE POP PUSH1 0x20 DUP3 ADD MLOAD DUP2 PUSH1 0x0 ADD PUSH1 0x1 PUSH2 0x100 EXP DUP2 SLOAD DUP2 PUSH20 0xFFFFFFFFFFFFFFFFFFFFFFFFFFFFFFFFFFFFFFFF MUL NOT AND SWAP1 DUP4 PUSH20 0xFFFFFFFFFFFFFFFFFFFFFFFFFFFFFFFFFFFFFFFF AND MUL OR SWAP1 SSTORE POP PUSH1 0x40 DUP3 ADD MLOAD DUP2 PUSH1 0x1 ADD SSTORE PUSH1 0x60 DUP3 ADD MLOAD DUP2 PUSH1 0x2 ADD SWAP1 DUP1 MLOAD SWAP1 PUSH1 0x20 ADD SWAP1 PUSH2 0xBD9 SWAP3 SWAP2 SWAP1 PUSH2 0x2D0D JUMP JUMPDEST POP POP POP POP POP POP JUMP JUMPDEST PUSH1 0x0 DUP1 PUSH1 0x0 PUSH1 0x60 PUSH1 0x0 DUP1 SLOAD SWAP1 PUSH2 0x100 EXP SWAP1 DIV PUSH1 0xFF AND PUSH32 0x0 PUSH32 0x0 PUSH1 0x1 DUP1 DUP1 SLOAD DUP1 PUSH1 0x20 MUL PUSH1 0x20 ADD PUSH1 0x40 MLOAD SWAP1 DUP2 ADD PUSH1 0x40 MSTORE DUP1 SWAP3 SWAP2 SWAP1 DUP2 DUP2 MSTORE PUSH1 0x20 ADD PUSH1 0x0 SWAP1 JUMPDEST DUP3 DUP3 LT ISZERO PUSH2 0xF06 JUMPI DUP4 DUP3 SWAP1 PUSH1 0x0 MSTORE PUSH1 0x20 PUSH1 0x0 KECCAK256 SWAP1 PUSH1 0x4 MUL ADD PUSH1 0x40 MLOAD DUP1 PUSH1 0xA0 ADD PUSH1 0x40 MSTORE SWAP1 DUP2 PUSH1 0x0 DUP3 ADD PUSH1 0x0 SWAP1 SLOAD SWAP1 PUSH2 0x100 EXP SWAP1 DIV PUSH1 0xFF AND ISZERO ISZERO ISZERO ISZERO DUP2 MSTORE PUSH1 0x20 ADD PUSH1 0x0 DUP3 ADD PUSH1 0x1 SWAP1 SLOAD SWAP1 PUSH2 0x100 EXP SWAP1 DIV PUSH20 0xFFFFFFFFFFFFFFFFFFFFFFFFFFFFFFFFFFFFFFFF AND PUSH20 0xFFFFFFFFFFFFFFFFFFFFFFFFFFFFFFFFFFFFFFFF AND PUSH20 0xFFFFFFFFFFFFFFFFFFFFFFFFFFFFFFFFFFFFFFFF AND DUP2 MSTORE PUSH1 0x20 ADD PUSH1 0x1 DUP3 ADD SLOAD DUP2 MSTORE PUSH1 0x20 ADD PUSH1 0x2 DUP3 ADD DUP1 SLOAD PUSH2 0xD09 SWAP1 PUSH2 0x426D JUMP JUMPDEST DUP1 PUSH1 0x1F ADD PUSH1 0x20 DUP1 SWAP2 DIV MUL PUSH1 0x20 ADD PUSH1 0x40 MLOAD SWAP1 DUP2 ADD PUSH1 0x40 MSTORE DUP1 SWAP3 SWAP2 SWAP1 DUP2 DUP2 MSTORE PUSH1 0x20 ADD DUP3 DUP1 SLOAD PUSH2 0xD35 SWAP1 PUSH2 0x426D JUMP JUMPDEST DUP1 ISZERO PUSH2 0xD82 JUMPI DUP1 PUSH1 0x1F LT PUSH2 0xD57 JUMPI PUSH2 0x100 DUP1 DUP4 SLOAD DIV MUL DUP4 MSTORE SWAP2 PUSH1 0x20 ADD SWAP2 PUSH2 0xD82 JUMP JUMPDEST DUP3 ADD SWAP2 SWAP1 PUSH1 0x0 MSTORE PUSH1 0x20 PUSH1 0x0 KECCAK256 SWAP1 JUMPDEST DUP2 SLOAD DUP2 MSTORE SWAP1 PUSH1 0x1 ADD SWAP1 PUSH1 0x20 ADD DUP1 DUP4 GT PUSH2 0xD65 JUMPI DUP3 SWAP1 SUB PUSH1 0x1F AND DUP3 ADD SWAP2 JUMPDEST POP POP POP POP POP DUP2 MSTORE PUSH1 0x20 ADD PUSH1 0x3 DUP3 ADD DUP1 SLOAD DUP1 PUSH1 0x20 MUL PUSH1 0x20 ADD PUSH1 0x40 MLOAD SWAP1 DUP2 ADD PUSH1 0x40 MSTORE DUP1 SWAP3 SWAP2 SWAP1 DUP2 DUP2 MSTORE PUSH1 0x20 ADD PUSH1 0x0 SWAP1 JUMPDEST DUP3 DUP3 LT ISZERO PUSH2 0xEEF JUMPI DUP4 DUP3 SWAP1 PUSH1 0x0 MSTORE PUSH1 0x20 PUSH1 0x0 KECCAK256 SWAP1 PUSH1 0x3 MUL ADD PUSH1 0x40 MLOAD DUP1 PUSH1 0x80 ADD PUSH1 0x40 MSTORE SWAP1 DUP2 PUSH1 0x0 DUP3 ADD PUSH1 0x0 SWAP1 SLOAD SWAP1 PUSH2 0x100 EXP SWAP1 DIV PUSH1 0xFF AND ISZERO ISZERO ISZERO ISZERO DUP2 MSTORE PUSH1 0x20 ADD PUSH1 0x0 DUP3 ADD PUSH1 0x1 SWAP1 SLOAD SWAP1 PUSH2 0x100 EXP SWAP1 DIV PUSH20 0xFFFFFFFFFFFFFFFFFFFFFFFFFFFFFFFFFFFFFFFF AND PUSH20 0xFFFFFFFFFFFFFFFFFFFFFFFFFFFFFFFFFFFFFFFF AND PUSH20 0xFFFFFFFFFFFFFFFFFFFFFFFFFFFFFFFFFFFFFFFF AND DUP2 MSTORE PUSH1 0x20 ADD PUSH1 0x1 DUP3 ADD SLOAD DUP2 MSTORE PUSH1 0x20 ADD PUSH1 0x2 DUP3 ADD DUP1 SLOAD PUSH2 0xE5E SWAP1 PUSH2 0x426D JUMP JUMPDEST DUP1 PUSH1 0x1F ADD PUSH1 0x20 DUP1 SWAP2 DIV MUL PUSH1 0x20 ADD PUSH1 0x40 MLOAD SWAP1 DUP2 ADD PUSH1 0x40 MSTORE DUP1 SWAP3 SWAP2 SWAP1 DUP2 DUP2 MSTORE PUSH1 0x20 ADD DUP3 DUP1 SLOAD PUSH2 0xE8A SWAP1 PUSH2 0x426D JUMP JUMPDEST DUP1 ISZERO PUSH2 0xED7 JUMPI DUP1 PUSH1 0x1F LT PUSH2 0xEAC JUMPI PUSH2 0x100 DUP1 DUP4 SLOAD DIV MUL DUP4 MSTORE SWAP2 PUSH1 0x20 ADD SWAP2 PUSH2 0xED7 JUMP JUMPDEST DUP3 ADD SWAP2 SWAP1 PUSH1 0x0 MSTORE PUSH1 0x20 PUSH1 0x0 KECCAK256 SWAP1 JUMPDEST DUP2 SLOAD DUP2 MSTORE SWAP1 PUSH1 0x1 ADD SWAP1 PUSH1 0x20 ADD DUP1 DUP4 GT PUSH2 0xEBA JUMPI DUP3 SWAP1 SUB PUSH1 0x1F AND DUP3 ADD SWAP2 JUMPDEST POP POP POP POP POP DUP2 MSTORE POP POP DUP2 MSTORE PUSH1 0x20 ADD SWAP1 PUSH1 0x1 ADD SWAP1 PUSH2 0xDB0 JUMP JUMPDEST POP POP POP POP DUP2 MSTORE POP POP DUP2 MSTORE PUSH1 0x20 ADD SWAP1 PUSH1 0x1 ADD SWAP1 PUSH2 0xC5B JUMP JUMPDEST POP POP POP POP SWAP1 POP SWAP4 POP SWAP4 POP SWAP4 POP SWAP4 POP SWAP1 SWAP2 SWAP3 SWAP4 JUMP JUMPDEST PUSH1 0x60 PUSH1 0x0 PUSH1 0x1 DUP1 SLOAD SWAP1 POP PUSH8 0xFFFFFFFFFFFFFFFF DUP2 GT ISZERO PUSH2 0xF63 JUMPI PUSH32 0x4E487B7100000000000000000000000000000000000000000000000000000000 PUSH1 0x0 MSTORE PUSH1 0x41 PUSH1 0x4 MSTORE PUSH1 0x24 PUSH1 0x0 REVERT JUMPDEST PUSH1 0x40 MLOAD SWAP1 DUP1 DUP3 MSTORE DUP1 PUSH1 0x20 MUL PUSH1 0x20 ADD DUP3 ADD PUSH1 0x40 MSTORE DUP1 ISZERO PUSH2 0xF91 JUMPI DUP2 PUSH1 0x20 ADD PUSH1 0x20 DUP3 MUL DUP1 CALLDATASIZE DUP4 CALLDATACOPY DUP1 DUP3 ADD SWAP2 POP POP SWAP1 POP JUMPDEST POP SWAP1 POP PUSH1 0x0 DUP1 JUMPDEST PUSH1 0x1 DUP1 SLOAD SWAP1 POP DUP2 LT ISZERO PUSH2 0x10EF JUMPI PUSH2 0x1082 PUSH1 0x1 DUP3 DUP2 SLOAD DUP2 LT PUSH2 0xFE2 JUMPI PUSH32 0x4E487B7100000000000000000000000000000000000000000000000000000000 PUSH1 0x0 MSTORE PUSH1 0x32 PUSH1 0x4 MSTORE PUSH1 0x24 PUSH1 0x0 REVERT JUMPDEST SWAP1 PUSH1 0x0 MSTORE PUSH1 0x20 PUSH1 0x0 KECCAK256 SWAP1 PUSH1 0x4 MUL ADD PUSH1 0x2 ADD DUP1 SLOAD PUSH2 0xFFE SWAP1 PUSH2 0x426D JUMP JUMPDEST DUP1 PUSH1 0x1F ADD PUSH1 0x20 DUP1 SWAP2 DIV MUL PUSH1 0x20 ADD PUSH1 0x40 MLOAD SWAP1 DUP2 ADD PUSH1 0x40 MSTORE DUP1 SWAP3 SWAP2 SWAP1 DUP2 DUP2 MSTORE PUSH1 0x20 ADD DUP3 DUP1 SLOAD PUSH2 0x102A SWAP1 PUSH2 0x426D JUMP JUMPDEST DUP1 ISZERO PUSH2 0x1077 JUMPI DUP1 PUSH1 0x1F LT PUSH2 0x104C JUMPI PUSH2 0x100 DUP1 DUP4 SLOAD DIV MUL DUP4 MSTORE SWAP2 PUSH1 0x20 ADD SWAP2 PUSH2 0x1077 JUMP JUMPDEST DUP3 ADD SWAP2 SWAP1 PUSH1 0x0 MSTORE PUSH1 0x20 PUSH1 0x0 KECCAK256 SWAP1 JUMPDEST DUP2 SLOAD DUP2 MSTORE SWAP1 PUSH1 0x1 ADD SWAP1 PUSH1 0x20 ADD DUP1 DUP4 GT PUSH2 0x105A JUMPI DUP3 SWAP1 SUB PUSH1 0x1F AND DUP3 ADD SWAP2 JUMPDEST POP POP POP POP POP DUP7 PUSH2 0x2C1F JUMP JUMPDEST ISZERO PUSH2 0x10DC JUMPI DUP1 DUP4 DUP4 DUP2 MLOAD DUP2 LT PUSH2 0x10C1 JUMPI PUSH32 0x4E487B7100000000000000000000000000000000000000000000000000000000 PUSH1 0x0 MSTORE PUSH1 0x32 PUSH1 0x4 MSTORE PUSH1 0x24 PUSH1 0x0 REVERT JUMPDEST PUSH1 0x20 MUL PUSH1 0x20 ADD ADD DUP2 DUP2 MSTORE POP POP DUP2 DUP1 PUSH2 0x10D8 SWAP1 PUSH2 0x429F JUMP JUMPDEST SWAP3 POP POP JUMPDEST DUP1 DUP1 PUSH2 0x10E7 SWAP1 PUSH2 0x429F JUMP JUMPDEST SWAP2 POP POP PUSH2 0xF98 JUMP JUMPDEST POP PUSH1 0x0 DUP2 PUSH8 0xFFFFFFFFFFFFFFFF DUP2 GT ISZERO PUSH2 0x1132 JUMPI PUSH32 0x4E487B7100000000000000000000000000000000000000000000000000000000 PUSH1 0x0 MSTORE PUSH1 0x41 PUSH1 0x4 MSTORE PUSH1 0x24 PUSH1 0x0 REVERT JUMPDEST PUSH1 0x40 MLOAD SWAP1 DUP1 DUP3 MSTORE DUP1 PUSH1 0x20 MUL PUSH1 0x20 ADD DUP3 ADD PUSH1 0x40 MSTORE DUP1 ISZERO PUSH2 0x1160 JUMPI DUP2 PUSH1 0x20 ADD PUSH1 0x20 DUP3 MUL DUP1 CALLDATASIZE DUP4 CALLDATACOPY DUP1 DUP3 ADD SWAP2 POP POP SWAP1 POP JUMPDEST POP SWAP1 POP PUSH1 0x0 JUMPDEST DUP3 DUP2 LT ISZERO PUSH2 0x1207 JUMPI DUP4 DUP2 DUP2 MLOAD DUP2 LT PUSH2 0x11A7 JUMPI PUSH32 0x4E487B7100000000000000000000000000000000000000000000000000000000 PUSH1 0x0 MSTORE PUSH1 0x32 PUSH1 0x4 MSTORE PUSH1 0x24 PUSH1 0x0 REVERT JUMPDEST PUSH1 0x20 MUL PUSH1 0x20 ADD ADD MLOAD DUP3 DUP3 DUP2 MLOAD DUP2 LT PUSH2 0x11E8 JUMPI PUSH32 0x4E487B7100000000000000000000000000000000000000000000000000000000 PUSH1 0x0 MSTORE PUSH1 0x32 PUSH1 0x4 MSTORE PUSH1 0x24 PUSH1 0x0 REVERT JUMPDEST PUSH1 0x20 MUL PUSH1 0x20 ADD ADD DUP2 DUP2 MSTORE POP POP DUP1 DUP1 PUSH2 0x11FF SWAP1 PUSH2 0x429F JUMP JUMPDEST SWAP2 POP POP PUSH2 0x1166 JUMP JUMPDEST POP DUP1 SWAP4 POP POP POP POP SWAP2 SWAP1 POP JUMP JUMPDEST PUSH32 0x0 DUP2 JUMP JUMPDEST PUSH2 0x123F PUSH2 0x2C86 JUMP JUMPDEST PUSH1 0x1 DUP1 SLOAD SWAP1 POP DUP3 LT PUSH2 0x1286 JUMPI PUSH1 0x40 MLOAD PUSH32 0x8C379A000000000000000000000000000000000000000000000000000000000 DUP2 MSTORE PUSH1 0x4 ADD PUSH2 0x127D SWAP1 PUSH2 0x3ECA JUMP JUMPDEST PUSH1 0x40 MLOAD DUP1 SWAP2 SUB SWAP1 REVERT JUMPDEST PUSH1 0x1 DUP3 DUP2 SLOAD DUP2 LT PUSH2 0x12C0 JUMPI PUSH32 0x4E487B7100000000000000000000000000000000000000000000000000000000 PUSH1 0x0 MSTORE PUSH1 0x32 PUSH1 0x4 MSTORE PUSH1 0x24 PUSH1 0x0 REVERT JUMPDEST SWAP1 PUSH1 0x0 MSTORE PUSH1 0x20 PUSH1 0x0 KECCAK256 SWAP1 PUSH1 0x4 MUL ADD PUSH1 0x40 MLOAD DUP1 PUSH1 0xA0 ADD PUSH1 0x40 MSTORE SWAP1 DUP2 PUSH1 0x0 DUP3 ADD PUSH1 0x0 SWAP1 SLOAD SWAP1 PUSH2 0x100 EXP SWAP1 DIV PUSH1 0xFF AND ISZERO ISZERO ISZERO ISZERO DUP2 MSTORE PUSH1 0x20 ADD PUSH1 0x0 DUP3 ADD PUSH1 0x1 SWAP1 SLOAD SWAP1 PUSH2 0x100 EXP SWAP1 DIV PUSH20 0xFFFFFFFFFFFFFFFFFFFFFFFFFFFFFFFFFFFFFFFF AND PUSH20 0xFFFFFFFFFFFFFFFFFFFFFFFFFFFFFFFFFFFFFFFF AND PUSH20 0xFFFFFFFFFFFFFFFFFFFFFFFFFFFFFFFFFFFFFFFF AND DUP2 MSTORE PUSH1 0x20 ADD PUSH1 0x1 DUP3 ADD SLOAD DUP2 MSTORE PUSH1 0x20 ADD PUSH1 0x2 DUP3 ADD DUP1 SLOAD PUSH2 0x1364 SWAP1 PUSH2 0x426D JUMP JUMPDEST DUP1 PUSH1 0x1F ADD PUSH1 0x20 DUP1 SWAP2 DIV MUL PUSH1 0x20 ADD PUSH1 0x40 MLOAD SWAP1 DUP2 ADD PUSH1 0x40 MSTORE DUP1 SWAP3 SWAP2 SWAP1 DUP2 DUP2 MSTORE PUSH1 0x20 ADD DUP3 DUP1 SLOAD PUSH2 0x1390 SWAP1 PUSH2 0x426D JUMP JUMPDEST DUP1 ISZERO PUSH2 0x13DD JUMPI DUP1 PUSH1 0x1F LT PUSH2 0x13B2 JUMPI PUSH2 0x100 DUP1 DUP4 SLOAD DIV MUL DUP4 MSTORE SWAP2 PUSH1 0x20 ADD SWAP2 PUSH2 0x13DD JUMP JUMPDEST DUP3 ADD SWAP2 SWAP1 PUSH1 0x0 MSTORE PUSH1 0x20 PUSH1 0x0 KECCAK256 SWAP1 JUMPDEST DUP2 SLOAD DUP2 MSTORE SWAP1 PUSH1 0x1 ADD SWAP1 PUSH1 0x20 ADD DUP1 DUP4 GT PUSH2 0x13C0 JUMPI DUP3 SWAP1 SUB PUSH1 0x1F AND DUP3 ADD SWAP2 JUMPDEST POP POP POP POP POP DUP2 MSTORE PUSH1 0x20 ADD PUSH1 0x3 DUP3 ADD DUP1 SLOAD DUP1 PUSH1 0x20 MUL PUSH1 0x20 ADD PUSH1 0x40 MLOAD SWAP1 DUP2 ADD PUSH1 0x40 MSTORE DUP1 SWAP3 SWAP2 SWAP1 DUP2 DUP2 MSTORE PUSH1 0x20 ADD PUSH1 0x0 SWAP1 JUMPDEST DUP3 DUP3 LT ISZERO PUSH2 0x154A JUMPI DUP4 DUP3 SWAP1 PUSH1 0x0 MSTORE PUSH1 0x20 PUSH1 0x0 KECCAK256 SWAP1 PUSH1 0x3 MUL ADD PUSH1 0x40 MLOAD DUP1 PUSH1 0x80 ADD PUSH1 0x40 MSTORE SWAP1 DUP2 PUSH1 0x0 DUP3 ADD PUSH1 0x0 SWAP1 SLOAD SWAP1 PUSH2 0x100 EXP SWAP1 DIV PUSH1 0xFF AND ISZERO ISZERO ISZERO ISZERO DUP2 MSTORE PUSH1 0x20 ADD PUSH1 0x0 DUP3 ADD PUSH1 0x1 SWAP1 SLOAD SWAP1 PUSH2 0x100 EXP SWAP1 DIV PUSH20 0xFFFFFFFFFFFFFFFFFFFFFFFFFFFFFFFFFFFFFFFF AND PUSH20 0xFFFFFFFFFFFFFFFFFFFFFFFFFFFFFFFFFFFFFFFF AND PUSH20 0xFFFFFFFFFFFFFFFFFFFFFFFFFFFFFFFFFFFFFFFF AND DUP2 MSTORE PUSH1 0x20 ADD PUSH1 0x1 DUP3 ADD SLOAD DUP2 MSTORE PUSH1 0x20 ADD PUSH1 0x2 DUP3 ADD DUP1 SLOAD PUSH2 0x14B9 SWAP1 PUSH2 0x426D JUMP JUMPDEST DUP1 PUSH1 0x1F ADD PUSH1 0x20 DUP1 SWAP2 DIV MUL PUSH1 0x20 ADD PUSH1 0x40 MLOAD SWAP1 DUP2 ADD PUSH1 0x40 MSTORE DUP1 SWAP3 SWAP2 SWAP1 DUP2 DUP2 MSTORE PUSH1 0x20 ADD DUP3 DUP1 SLOAD PUSH2 0x14E5 SWAP1 PUSH2 0x426D JUMP JUMPDEST DUP1 ISZERO PUSH2 0x1532 JUMPI DUP1 PUSH1 0x1F LT PUSH2 0x1507 JUMPI PUSH2 0x100 DUP1 DUP4 SLOAD DIV MUL DUP4 MSTORE SWAP2 PUSH1 0x20 ADD SWAP2 PUSH2 0x1532 JUMP JUMPDEST DUP3 ADD SWAP2 SWAP1 PUSH1 0x0 MSTORE PUSH1 0x20 PUSH1 0x0 KECCAK256 SWAP1 JUMPDEST DUP2 SLOAD DUP2 MSTORE SWAP1 PUSH1 0x1 ADD SWAP1 PUSH1 0x20 ADD DUP1 DUP4 GT PUSH2 0x1515 JUMPI DUP3 SWAP1 SUB PUSH1 0x1F AND DUP3 ADD SWAP2 JUMPDEST POP POP POP POP POP DUP2 MSTORE POP POP DUP2 MSTORE PUSH1 0x20 ADD SWAP1 PUSH1 0x1 ADD SWAP1 PUSH2 0x140B JUMP JUMPDEST POP POP POP POP DUP2 MSTORE POP POP SWAP1 POP SWAP2 SWAP1 POP JUMP JUMPDEST PUSH1 0x0 DUP1 SLOAD SWAP1 PUSH2 0x100 EXP SWAP1 DIV PUSH1 0xFF AND PUSH2 0x15A6 JUMPI PUSH1 0x40 MLOAD PUSH32 0x8C379A000000000000000000000000000000000000000000000000000000000 DUP2 MSTORE PUSH1 0x4 ADD PUSH2 0x159D SWAP1 PUSH2 0x3F0A JUMP JUMPDEST PUSH1 0x40 MLOAD DUP1 SWAP2 SUB SWAP1 REVERT JUMPDEST PUSH1 0x1 DUP1 SLOAD SWAP1 POP DUP3 LT PUSH2 0x15ED JUMPI PUSH1 0x40 MLOAD PUSH32 0x8C379A000000000000000000000000000000000000000000000000000000000 DUP2 MSTORE PUSH1 0x4 ADD PUSH2 0x15E4 SWAP1 PUSH2 0x3F4A JUMP JUMPDEST PUSH1 0x40 MLOAD DUP1 SWAP2 SUB SWAP1 REVERT JUMPDEST PUSH1 0x1 DUP3 DUP2 SLOAD DUP2 LT PUSH2 0x1627 JUMPI PUSH32 0x4E487B7100000000000000000000000000000000000000000000000000000000 PUSH1 0x0 MSTORE PUSH1 0x32 PUSH1 0x4 MSTORE PUSH1 0x24 PUSH1 0x0 REVERT JUMPDEST SWAP1 PUSH1 0x0 MSTORE PUSH1 0x20 PUSH1 0x0 KECCAK256 SWAP1 PUSH1 0x4 MUL ADD PUSH1 0x0 ADD PUSH1 0x0 SWAP1 SLOAD SWAP1 PUSH2 0x100 EXP SWAP1 DIV PUSH1 0xFF AND PUSH2 0x1685 JUMPI PUSH1 0x40 MLOAD PUSH32 0x8C379A000000000000000000000000000000000000000000000000000000000 DUP2 MSTORE PUSH1 0x4 ADD PUSH2 0x167C SWAP1 PUSH2 0x3EAA JUMP JUMPDEST PUSH1 0x40 MLOAD DUP1 SWAP2 SUB SWAP1 REVERT JUMPDEST PUSH1 0x1 DUP3 DUP2 SLOAD DUP2 LT PUSH2 0x16BF JUMPI PUSH32 0x4E487B7100000000000000000000000000000000000000000000000000000000 PUSH1 0x0 MSTORE PUSH1 0x32 PUSH1 0x4 MSTORE PUSH1 0x24 PUSH1 0x0 REVERT JUMPDEST SWAP1 PUSH1 0x0 MSTORE PUSH1 0x20 PUSH1 0x0 KECCAK256 SWAP1 PUSH1 0x4 MUL ADD PUSH1 0x3 ADD DUP1 SLOAD SWAP1 POP DUP2 LT PUSH2 0x1715 JUMPI PUSH1 0x40 MLOAD PUSH32 0x8C379A000000000000000000000000000000000000000000000000000000000 DUP2 MSTORE PUSH1 0x4 ADD PUSH2 0x170C SWAP1 PUSH2 0x3EEA JUMP JUMPDEST PUSH1 0x40 MLOAD DUP1 SWAP2 SUB SWAP1 REVERT JUMPDEST PUSH1 0x1 DUP3 DUP2 SLOAD DUP2 LT PUSH2 0x174F JUMPI PUSH32 0x4E487B7100000000000000000000000000000000000000000000000000000000 PUSH1 0x0 MSTORE PUSH1 0x32 PUSH1 0x4 MSTORE PUSH1 0x24 PUSH1 0x0 REVERT JUMPDEST SWAP1 PUSH1 0x0 MSTORE PUSH1 0x20 PUSH1 0x0 KECCAK256 SWAP1 PUSH1 0x4 MUL ADD PUSH1 0x3 ADD DUP2 DUP2 SLOAD DUP2 LT PUSH2 0x1798 JUMPI PUSH32 0x4E487B7100000000000000000000000000000000000000000000000000000000 PUSH1 0x0 MSTORE PUSH1 0x32 PUSH1 0x4 MSTORE PUSH1 0x24 PUSH1 0x0 REVERT JUMPDEST SWAP1 PUSH1 0x0 MSTORE PUSH1 0x20 PUSH1 0x0 KECCAK256 SWAP1 PUSH1 0x3 MUL ADD PUSH1 0x0 ADD PUSH1 0x0 SWAP1 SLOAD SWAP1 PUSH2 0x100 EXP SWAP1 DIV PUSH1 0xFF AND ISZERO PUSH2 0x17C1 JUMPI PUSH2 0x1A4B JUMP JUMPDEST PUSH1 0x0 PUSH1 0x1 DUP4 DUP2 SLOAD DUP2 LT PUSH2 0x17FD JUMPI PUSH32 0x4E487B7100000000000000000000000000000000000000000000000000000000 PUSH1 0x0 MSTORE PUSH1 0x32 PUSH1 0x4 MSTORE PUSH1 0x24 PUSH1 0x0 REVERT JUMPDEST SWAP1 PUSH1 0x0 MSTORE PUSH1 0x20 PUSH1 0x0 KECCAK256 SWAP1 PUSH1 0x4 MUL ADD PUSH1 0x3 ADD DUP1 SLOAD SWAP1 POP SWAP1 POP JUMPDEST PUSH1 0x0 DUP2 GT ISZERO PUSH2 0x199D JUMPI PUSH1 0x0 PUSH1 0x1 DUP3 PUSH2 0x182D SWAP2 SWAP1 PUSH2 0x4185 JUMP JUMPDEST SWAP1 POP PUSH1 0x1 DUP5 DUP2 SLOAD DUP2 LT PUSH2 0x1869 JUMPI PUSH32 0x4E487B7100000000000000000000000000000000000000000000000000000000 PUSH1 0x0 MSTORE PUSH1 0x32 PUSH1 0x4 MSTORE PUSH1 0x24 PUSH1 0x0 REVERT JUMPDEST SWAP1 PUSH1 0x0 MSTORE PUSH1 0x20 PUSH1 0x0 KECCAK256 SWAP1 PUSH1 0x4 MUL ADD PUSH1 0x3 ADD DUP2 DUP2 SLOAD DUP2 LT PUSH2 0x18B2 JUMPI PUSH32 0x4E487B7100000000000000000000000000000000000000000000000000000000 PUSH1 0x0 MSTORE PUSH1 0x32 PUSH1 0x4 MSTORE PUSH1 0x24 PUSH1 0x0 REVERT JUMPDEST SWAP1 PUSH1 0x0 MSTORE PUSH1 0x20 PUSH1 0x0 KECCAK256 SWAP1 PUSH1 0x3 MUL ADD PUSH1 0x0 ADD PUSH1 0x0 SWAP1 SLOAD SWAP1 PUSH2 0x100 EXP SWAP1 DIV PUSH1 0xFF AND ISZERO PUSH2 0x1989 JUMPI PUSH1 0x0 PUSH1 0x1 DUP6 DUP2 SLOAD DUP2 LT PUSH2 0x1912 JUMPI PUSH32 0x4E487B7100000000000000000000000000000000000000000000000000000000 PUSH1 0x0 MSTORE PUSH1 0x32 PUSH1 0x4 MSTORE PUSH1 0x24 PUSH1 0x0 REVERT JUMPDEST SWAP1 PUSH1 0x0 MSTORE PUSH1 0x20 PUSH1 0x0 KECCAK256 SWAP1 PUSH1 0x4 MUL ADD PUSH1 0x3 ADD DUP3 DUP2 SLOAD DUP2 LT PUSH2 0x195B JUMPI PUSH32 0x4E487B7100000000000000000000000000000000000000000000000000000000 PUSH1 0x0 MSTORE PUSH1 0x32 PUSH1 0x4 MSTORE PUSH1 0x24 PUSH1 0x0 REVERT JUMPDEST SWAP1 PUSH1 0x0 MSTORE PUSH1 0x20 PUSH1 0x0 KECCAK256 SWAP1 PUSH1 0x3 MUL ADD PUSH1 0x0 ADD PUSH1 0x0 PUSH2 0x100 EXP DUP2 SLOAD DUP2 PUSH1 0xFF MUL NOT AND SWAP1 DUP4 ISZERO ISZERO MUL OR SWAP1 SSTORE POP POP PUSH2 0x199D JUMP JUMPDEST POP DUP1 DUP1 PUSH2 0x1995 SWAP1 PUSH2 0x4243 JUMP JUMPDEST SWAP2 POP POP PUSH2 0x1815 JUMP JUMPDEST POP PUSH1 0x1 DUP1 DUP4 DUP2 SLOAD DUP2 LT PUSH2 0x19D9 JUMPI PUSH32 0x4E487B7100000000000000000000000000000000000000000000000000000000 PUSH1 0x0 MSTORE PUSH1 0x32 PUSH1 0x4 MSTORE PUSH1 0x24 PUSH1 0x0 REVERT JUMPDEST SWAP1 PUSH1 0x0 MSTORE PUSH1 0x20 PUSH1 0x0 KECCAK256 SWAP1 PUSH1 0x4 MUL ADD PUSH1 0x3 ADD DUP3 DUP2 SLOAD DUP2 LT PUSH2 0x1A22 JUMPI PUSH32 0x4E487B7100000000000000000000000000000000000000000000000000000000 PUSH1 0x0 MSTORE PUSH1 0x32 PUSH1 0x4 MSTORE PUSH1 0x24 PUSH1 0x0 REVERT JUMPDEST SWAP1 PUSH1 0x0 MSTORE PUSH1 0x20 PUSH1 0x0 KECCAK256 SWAP1 PUSH1 0x3 MUL ADD PUSH1 0x0 ADD PUSH1 0x0 PUSH2 0x100 EXP DUP2 SLOAD DUP2 PUSH1 0xFF MUL NOT AND SWAP1 DUP4 ISZERO ISZERO MUL OR SWAP1 SSTORE POP JUMPDEST POP POP JUMP JUMPDEST PUSH2 0x1A57 PUSH2 0x2CCD JUMP JUMPDEST PUSH1 0x0 JUMPDEST DUP3 PUSH1 0x80 ADD MLOAD MLOAD DUP2 LT ISZERO PUSH2 0x1B15 JUMPI DUP3 PUSH1 0x80 ADD MLOAD DUP2 DUP2 MLOAD DUP2 LT PUSH2 0x1AA4 JUMPI PUSH32 0x4E487B7100000000000000000000000000000000000000000000000000000000 PUSH1 0x0 MSTORE PUSH1 0x32 PUSH1 0x4 MSTORE PUSH1 0x24 PUSH1 0x0 REVERT JUMPDEST PUSH1 0x20 MUL PUSH1 0x20 ADD ADD MLOAD PUSH1 0x0 ADD MLOAD ISZERO PUSH2 0x1B02 JUMPI DUP3 PUSH1 0x80 ADD MLOAD DUP2 DUP2 MLOAD DUP2 LT PUSH2 0x1AF2 JUMPI PUSH32 0x4E487B7100000000000000000000000000000000000000000000000000000000 PUSH1 0x0 MSTORE PUSH1 0x32 PUSH1 0x4 MSTORE PUSH1 0x24 PUSH1 0x0 REVERT JUMPDEST PUSH1 0x20 MUL PUSH1 0x20 ADD ADD MLOAD SWAP2 POP POP PUSH2 0x1B51 JUMP JUMPDEST DUP1 DUP1 PUSH2 0x1B0D SWAP1 PUSH2 0x429F JUMP JUMPDEST SWAP2 POP POP PUSH2 0x1A5A JUMP JUMPDEST POP PUSH1 0x40 MLOAD PUSH32 0x8C379A000000000000000000000000000000000000000000000000000000000 DUP2 MSTORE PUSH1 0x4 ADD PUSH2 0x1B48 SWAP1 PUSH2 0x3E6A JUMP JUMPDEST PUSH1 0x40 MLOAD DUP1 SWAP2 SUB SWAP1 REVERT JUMPDEST SWAP2 SWAP1 POP JUMP JUMPDEST PUSH1 0x0 DUP1 SLOAD SWAP1 PUSH2 0x100 EXP SWAP1 DIV PUSH1 0xFF AND DUP2 JUMP JUMPDEST PUSH1 0x60 PUSH1 0x0 DUP1 JUMPDEST PUSH1 0x1 DUP1 SLOAD SWAP1 POP DUP2 LT ISZERO PUSH2 0x1BFA JUMPI PUSH1 0x1 DUP2 DUP2 SLOAD DUP2 LT PUSH2 0x1BB4 JUMPI PUSH32 0x4E487B7100000000000000000000000000000000000000000000000000000000 PUSH1 0x0 MSTORE PUSH1 0x32 PUSH1 0x4 MSTORE PUSH1 0x24 PUSH1 0x0 REVERT JUMPDEST SWAP1 PUSH1 0x0 MSTORE PUSH1 0x20 PUSH1 0x0 KECCAK256 SWAP1 PUSH1 0x4 MUL ADD PUSH1 0x0 ADD PUSH1 0x0 SWAP1 SLOAD SWAP1 PUSH2 0x100 EXP SWAP1 DIV PUSH1 0xFF AND ISZERO PUSH2 0x1BE7 JUMPI DUP2 DUP1 PUSH2 0x1BE3 SWAP1 PUSH2 0x429F JUMP JUMPDEST SWAP3 POP POP JUMPDEST DUP1 DUP1 PUSH2 0x1BF2 SWAP1 PUSH2 0x429F JUMP JUMPDEST SWAP2 POP POP PUSH2 0x1B6D JUMP JUMPDEST POP PUSH1 0x0 DUP2 PUSH8 0xFFFFFFFFFFFFFFFF DUP2 GT ISZERO PUSH2 0x1C3D JUMPI PUSH32 0x4E487B7100000000000000000000000000000000000000000000000000000000 PUSH1 0x0 MSTORE PUSH1 0x41 PUSH1 0x4 MSTORE PUSH1 0x24 PUSH1 0x0 REVERT JUMPDEST PUSH1 0x40 MLOAD SWAP1 DUP1 DUP3 MSTORE DUP1 PUSH1 0x20 MUL PUSH1 0x20 ADD DUP3 ADD PUSH1 0x40 MSTORE DUP1 ISZERO PUSH2 0x1C76 JUMPI DUP2 PUSH1 0x20 ADD JUMPDEST PUSH2 0x1C63 PUSH2 0x2C86 JUMP JUMPDEST DUP2 MSTORE PUSH1 0x20 ADD SWAP1 PUSH1 0x1 SWAP1 SUB SWAP1 DUP2 PUSH2 0x1C5B JUMPI SWAP1 POP JUMPDEST POP SWAP1 POP PUSH1 0x0 DUP1 JUMPDEST PUSH1 0x1 DUP1 SLOAD SWAP1 POP DUP2 LT ISZERO PUSH2 0x201A JUMPI PUSH1 0x1 DUP2 DUP2 SLOAD DUP2 LT PUSH2 0x1CC4 JUMPI PUSH32 0x4E487B7100000000000000000000000000000000000000000000000000000000 PUSH1 0x0 MSTORE PUSH1 0x32 PUSH1 0x4 MSTORE PUSH1 0x24 PUSH1 0x0 REVERT JUMPDEST SWAP1 PUSH1 0x0 MSTORE PUSH1 0x20 PUSH1 0x0 KECCAK256 SWAP1 PUSH1 0x4 MUL ADD PUSH1 0x0 ADD PUSH1 0x0 SWAP1 SLOAD SWAP1 PUSH2 0x100 EXP SWAP1 DIV PUSH1 0xFF AND ISZERO PUSH2 0x2007 JUMPI PUSH1 0x1 DUP2 DUP2 SLOAD DUP2 LT PUSH2 0x1D22 JUMPI PUSH32 0x4E487B7100000000000000000000000000000000000000000000000000000000 PUSH1 0x0 MSTORE PUSH1 0x32 PUSH1 0x4 MSTORE PUSH1 0x24 PUSH1 0x0 REVERT JUMPDEST SWAP1 PUSH1 0x0 MSTORE PUSH1 0x20 PUSH1 0x0 KECCAK256 SWAP1 PUSH1 0x4 MUL ADD PUSH1 0x40 MLOAD DUP1 PUSH1 0xA0 ADD PUSH1 0x40 MSTORE SWAP1 DUP2 PUSH1 0x0 DUP3 ADD PUSH1 0x0 SWAP1 SLOAD SWAP1 PUSH2 0x100 EXP SWAP1 DIV PUSH1 0xFF AND ISZERO ISZERO ISZERO ISZERO DUP2 MSTORE PUSH1 0x20 ADD PUSH1 0x0 DUP3 ADD PUSH1 0x1 SWAP1 SLOAD SWAP1 PUSH2 0x100 EXP SWAP1 DIV PUSH20 0xFFFFFFFFFFFFFFFFFFFFFFFFFFFFFFFFFFFFFFFF AND PUSH20 0xFFFFFFFFFFFFFFFFFFFFFFFFFFFFFFFFFFFFFFFF AND PUSH20 0xFFFFFFFFFFFFFFFFFFFFFFFFFFFFFFFFFFFFFFFF AND DUP2 MSTORE PUSH1 0x20 ADD PUSH1 0x1 DUP3 ADD SLOAD DUP2 MSTORE PUSH1 0x20 ADD PUSH1 0x2 DUP3 ADD DUP1 SLOAD PUSH2 0x1DC6 SWAP1 PUSH2 0x426D JUMP JUMPDEST DUP1 PUSH1 0x1F ADD PUSH1 0x20 DUP1 SWAP2 DIV MUL PUSH1 0x20 ADD PUSH1 0x40 MLOAD SWAP1 DUP2 ADD PUSH1 0x40 MSTORE DUP1 SWAP3 SWAP2 SWAP1 DUP2 DUP2 MSTORE PUSH1 0x20 ADD DUP3 DUP1 SLOAD PUSH2 0x1DF2 SWAP1 PUSH2 0x426D JUMP JUMPDEST DUP1 ISZERO PUSH2 0x1E3F JUMPI DUP1 PUSH1 0x1F LT PUSH2 0x1E14 JUMPI PUSH2 0x100 DUP1 DUP4 SLOAD DIV MUL DUP4 MSTORE SWAP2 PUSH1 0x20 ADD SWAP2 PUSH2 0x1E3F JUMP JUMPDEST DUP3 ADD SWAP2 SWAP1 PUSH1 0x0 MSTORE PUSH1 0x20 PUSH1 0x0 KECCAK256 SWAP1 JUMPDEST DUP2 SLOAD DUP2 MSTORE SWAP1 PUSH1 0x1 ADD SWAP1 PUSH1 0x20 ADD DUP1 DUP4 GT PUSH2 0x1E22 JUMPI DUP3 SWAP1 SUB PUSH1 0x1F AND DUP3 ADD SWAP2 JUMPDEST POP POP POP POP POP DUP2 MSTORE PUSH1 0x20 ADD PUSH1 0x3 DUP3 ADD DUP1 SLOAD DUP1 PUSH1 0x20 MUL PUSH1 0x20 ADD PUSH1 0x40 MLOAD SWAP1 DUP2 ADD PUSH1 0x40 MSTORE DUP1 SWAP3 SWAP2 SWAP1 DUP2 DUP2 MSTORE PUSH1 0x20 ADD PUSH1 0x0 SWAP1 JUMPDEST DUP3 DUP3 LT ISZERO PUSH2 0x1FAC JUMPI DUP4 DUP3 SWAP1 PUSH1 0x0 MSTORE PUSH1 0x20 PUSH1 0x0 KECCAK256 SWAP1 PUSH1 0x3 MUL ADD PUSH1 0x40 MLOAD DUP1 PUSH1 0x80 ADD PUSH1 0x40 MSTORE SWAP1 DUP2 PUSH1 0x0 DUP3 ADD PUSH1 0x0 SWAP1 SLOAD SWAP1 PUSH2 0x100 EXP SWAP1 DIV PUSH1 0xFF AND ISZERO ISZERO ISZERO ISZERO DUP2 MSTORE PUSH1 0x20 ADD PUSH1 0x0 DUP3 ADD PUSH1 0x1 SWAP1 SLOAD SWAP1 PUSH2 0x100 EXP SWAP1 DIV PUSH20 0xFFFFFFFFFFFFFFFFFFFFFFFFFFFFFFFFFFFFFFFF AND PUSH20 0xFFFFFFFFFFFFFFFFFFFFFFFFFFFFFFFFFFFFFFFF AND PUSH20 0xFFFFFFFFFFFFFFFFFFFFFFFFFFFFFFFFFFFFFFFF AND DUP2 MSTORE PUSH1 0x20 ADD PUSH1 0x1 DUP3 ADD SLOAD DUP2 MSTORE PUSH1 0x20 ADD PUSH1 0x2 DUP3 ADD DUP1 SLOAD PUSH2 0x1F1B SWAP1 PUSH2 0x426D JUMP JUMPDEST DUP1 PUSH1 0x1F ADD PUSH1 0x20 DUP1 SWAP2 DIV MUL PUSH1 0x20 ADD PUSH1 0x40 MLOAD SWAP1 DUP2 ADD PUSH1 0x40 MSTORE DUP1 SWAP3 SWAP2 SWAP1 DUP2 DUP2 MSTORE PUSH1 0x20 ADD DUP3 DUP1 SLOAD PUSH2 0x1F47 SWAP1 PUSH2 0x426D JUMP JUMPDEST DUP1 ISZERO PUSH2 0x1F94 JUMPI DUP1 PUSH1 0x1F LT PUSH2 0x1F69 JUMPI PUSH2 0x100 DUP1 DUP4 SLOAD DIV MUL DUP4 MSTORE SWAP2 PUSH1 0x20 ADD SWAP2 PUSH2 0x1F94 JUMP JUMPDEST DUP3 ADD SWAP2 SWAP1 PUSH1 0x0 MSTORE PUSH1 0x20 PUSH1 0x0 KECCAK256 SWAP1 JUMPDEST DUP2 SLOAD DUP2 MSTORE SWAP1 PUSH1 0x1 ADD SWAP1 PUSH1 0x20 ADD DUP1 DUP4 GT PUSH2 0x1F77 JUMPI DUP3 SWAP1 SUB PUSH1 0x1F AND DUP3 ADD SWAP2 JUMPDEST POP POP POP POP POP DUP2 MSTORE POP POP DUP2 MSTORE PUSH1 0x20 ADD SWAP1 PUSH1 0x1 ADD SWAP1 PUSH2 0x1E6D JUMP JUMPDEST POP POP POP POP DUP2 MSTORE POP POP DUP4 DUP4 DUP2 MLOAD DUP2 LT PUSH2 0x1FED JUMPI PUSH32 0x4E487B7100000000000000000000000000000000000000000000000000000000 PUSH1 0x0 MSTORE PUSH1 0x32 PUSH1 0x4 MSTORE PUSH1 0x24 PUSH1 0x0 REVERT JUMPDEST PUSH1 0x20 MUL PUSH1 0x20 ADD ADD DUP2 SWAP1 MSTORE POP DUP2 DUP1 PUSH2 0x2003 SWAP1 PUSH2 0x429F JUMP JUMPDEST SWAP3 POP POP JUMPDEST DUP1 DUP1 PUSH2 0x2012 SWAP1 PUSH2 0x429F JUMP JUMPDEST SWAP2 POP POP PUSH2 0x1C7D JUMP JUMPDEST POP DUP2 SWAP4 POP POP POP POP SWAP1 JUMP JUMPDEST PUSH1 0x0 DUP1 SLOAD SWAP1 PUSH2 0x100 EXP SWAP1 DIV PUSH1 0xFF AND PUSH2 0x2071 JUMPI PUSH1 0x40 MLOAD PUSH32 0x8C379A000000000000000000000000000000000000000000000000000000000 DUP2 MSTORE PUSH1 0x4 ADD PUSH2 0x2068 SWAP1 PUSH2 0x3F0A JUMP JUMPDEST PUSH1 0x40 MLOAD DUP1 SWAP2 SUB SWAP1 REVERT JUMPDEST PUSH1 0x1 DUP1 SLOAD SWAP1 POP DUP2 LT PUSH2 0x20B8 JUMPI PUSH1 0x40 MLOAD PUSH32 0x8C379A000000000000000000000000000000000000000000000000000000000 DUP2 MSTORE PUSH1 0x4 ADD PUSH2 0x20AF SWAP1 PUSH2 0x3F4A JUMP JUMPDEST PUSH1 0x40 MLOAD DUP1 SWAP2 SUB SWAP1 REVERT JUMPDEST PUSH2 0x2194 PUSH1 0x1 DUP3 DUP2 SLOAD DUP2 LT PUSH2 0x20F5 JUMPI PUSH32 0x4E487B7100000000000000000000000000000000000000000000000000000000 PUSH1 0x0 MSTORE PUSH1 0x32 PUSH1 0x4 MSTORE PUSH1 0x24 PUSH1 0x0 REVERT JUMPDEST SWAP1 PUSH1 0x0 MSTORE PUSH1 0x20 PUSH1 0x0 KECCAK256 SWAP1 PUSH1 0x4 MUL ADD PUSH1 0x2 ADD DUP1 SLOAD PUSH2 0x2111 SWAP1 PUSH2 0x426D JUMP JUMPDEST DUP1 PUSH1 0x1F ADD PUSH1 0x20 DUP1 SWAP2 DIV MUL PUSH1 0x20 ADD PUSH1 0x40 MLOAD SWAP1 DUP2 ADD PUSH1 0x40 MSTORE DUP1 SWAP3 SWAP2 SWAP1 DUP2 DUP2 MSTORE PUSH1 0x20 ADD DUP3 DUP1 SLOAD PUSH2 0x213D SWAP1 PUSH2 0x426D JUMP JUMPDEST DUP1 ISZERO PUSH2 0x218A JUMPI DUP1 PUSH1 0x1F LT PUSH2 0x215F JUMPI PUSH2 0x100 DUP1 DUP4 SLOAD DIV MUL DUP4 MSTORE SWAP2 PUSH1 0x20 ADD SWAP2 PUSH2 0x218A JUMP JUMPDEST DUP3 ADD SWAP2 SWAP1 PUSH1 0x0 MSTORE PUSH1 0x20 PUSH1 0x0 KECCAK256 SWAP1 JUMPDEST DUP2 SLOAD DUP2 MSTORE SWAP1 PUSH1 0x1 ADD SWAP1 PUSH1 0x20 ADD DUP1 DUP4 GT PUSH2 0x216D JUMPI DUP3 SWAP1 SUB PUSH1 0x1F AND DUP3 ADD SWAP2 JUMPDEST POP POP POP POP POP PUSH2 0x2AA1 JUMP JUMPDEST ISZERO PUSH2 0x21D4 JUMPI PUSH1 0x40 MLOAD PUSH32 0x8C379A000000000000000000000000000000000000000000000000000000000 DUP2 MSTORE PUSH1 0x4 ADD PUSH2 0x21CB SWAP1 PUSH2 0x3F2A JUMP JUMPDEST PUSH1 0x40 MLOAD DUP1 SWAP2 SUB SWAP1 REVERT JUMPDEST PUSH1 0x1 DUP2 DUP2 SLOAD DUP2 LT PUSH2 0x220E JUMPI PUSH32 0x4E487B7100000000000000000000000000000000000000000000000000000000 PUSH1 0x0 MSTORE PUSH1 0x32 PUSH1 0x4 MSTORE PUSH1 0x24 PUSH1 0x0 REVERT JUMPDEST SWAP1 PUSH1 0x0 MSTORE PUSH1 0x20 PUSH1 0x0 KECCAK256 SWAP1 PUSH1 0x4 MUL ADD PUSH1 0x0 ADD PUSH1 0x0 SWAP1 SLOAD SWAP1 PUSH2 0x100 EXP SWAP1 DIV PUSH1 0xFF AND ISZERO PUSH2 0x2237 JUMPI PUSH2 0x229B JUMP JUMPDEST PUSH1 0x1 DUP1 DUP3 DUP2 SLOAD DUP2 LT PUSH2 0x2272 JUMPI PUSH32 0x4E487B7100000000000000000000000000000000000000000000000000000000 PUSH1 0x0 MSTORE PUSH1 0x32 PUSH1 0x4 MSTORE PUSH1 0x24 PUSH1 0x0 REVERT JUMPDEST SWAP1 PUSH1 0x0 MSTORE PUSH1 0x20 PUSH1 0x0 KECCAK256 SWAP1 PUSH1 0x4 MUL ADD PUSH1 0x0 ADD PUSH1 0x0 PUSH2 0x100 EXP DUP2 SLOAD DUP2 PUSH1 0xFF MUL NOT AND SWAP1 DUP4 ISZERO ISZERO MUL OR SWAP1 SSTORE POP JUMPDEST POP JUMP JUMPDEST PUSH1 0x60 PUSH1 0x1 DUP1 SLOAD DUP1 PUSH1 0x20 MUL PUSH1 0x20 ADD PUSH1 0x40 MLOAD SWAP1 DUP2 ADD PUSH1 0x40 MSTORE DUP1 SWAP3 SWAP2 SWAP1 DUP2 DUP2 MSTORE PUSH1 0x20 ADD PUSH1 0x0 SWAP1 JUMPDEST DUP3 DUP3 LT ISZERO PUSH2 0x256D JUMPI DUP4 DUP3 SWAP1 PUSH1 0x0 MSTORE PUSH1 0x20 PUSH1 0x0 KECCAK256 SWAP1 PUSH1 0x4 MUL ADD PUSH1 0x40 MLOAD DUP1 PUSH1 0xA0 ADD PUSH1 0x40 MSTORE SWAP1 DUP2 PUSH1 0x0 DUP3 ADD PUSH1 0x0 SWAP1 SLOAD SWAP1 PUSH2 0x100 EXP SWAP1 DIV PUSH1 0xFF AND ISZERO ISZERO ISZERO ISZERO DUP2 MSTORE PUSH1 0x20 ADD PUSH1 0x0 DUP3 ADD PUSH1 0x1 SWAP1 SLOAD SWAP1 PUSH2 0x100 EXP SWAP1 DIV PUSH20 0xFFFFFFFFFFFFFFFFFFFFFFFFFFFFFFFFFFFFFFFF AND PUSH20 0xFFFFFFFFFFFFFFFFFFFFFFFFFFFFFFFFFFFFFFFF AND PUSH20 0xFFFFFFFFFFFFFFFFFFFFFFFFFFFFFFFFFFFFFFFF AND DUP2 MSTORE PUSH1 0x20 ADD PUSH1 0x1 DUP3 ADD SLOAD DUP2 MSTORE PUSH1 0x20 ADD PUSH1 0x2 DUP3 ADD DUP1 SLOAD PUSH2 0x2370 SWAP1 PUSH2 0x426D JUMP JUMPDEST DUP1 PUSH1 0x1F ADD PUSH1 0x20 DUP1 SWAP2 DIV MUL PUSH1 0x20 ADD PUSH1 0x40 MLOAD SWAP1 DUP2 ADD PUSH1 0x40 MSTORE DUP1 SWAP3 SWAP2 SWAP1 DUP2 DUP2 MSTORE PUSH1 0x20 ADD DUP3 DUP1 SLOAD PUSH2 0x239C SWAP1 PUSH2 0x426D JUMP JUMPDEST DUP1 ISZERO PUSH2 0x23E9 JUMPI DUP1 PUSH1 0x1F LT PUSH2 0x23BE JUMPI PUSH2 0x100 DUP1 DUP4 SLOAD DIV MUL DUP4 MSTORE SWAP2 PUSH1 0x20 ADD SWAP2 PUSH2 0x23E9 JUMP JUMPDEST DUP3 ADD SWAP2 SWAP1 PUSH1 0x0 MSTORE PUSH1 0x20 PUSH1 0x0 KECCAK256 SWAP1 JUMPDEST DUP2 SLOAD DUP2 MSTORE SWAP1 PUSH1 0x1 ADD SWAP1 PUSH1 0x20 ADD DUP1 DUP4 GT PUSH2 0x23CC JUMPI DUP3 SWAP1 SUB PUSH1 0x1F AND DUP3 ADD SWAP2 JUMPDEST POP POP POP POP POP DUP2 MSTORE PUSH1 0x20 ADD PUSH1 0x3 DUP3 ADD DUP1 SLOAD DUP1 PUSH1 0x20 MUL PUSH1 0x20 ADD PUSH1 0x40 MLOAD SWAP1 DUP2 ADD PUSH1 0x40 MSTORE DUP1 SWAP3 SWAP2 SWAP1 DUP2 DUP2 MSTORE PUSH1 0x20 ADD PUSH1 0x0 SWAP1 JUMPDEST DUP3 DUP3 LT ISZERO PUSH2 0x2556 JUMPI DUP4 DUP3 SWAP1 PUSH1 0x0 MSTORE PUSH1 0x20 PUSH1 0x0 KECCAK256 SWAP1 PUSH1 0x3 MUL ADD PUSH1 0x40 MLOAD DUP1 PUSH1 0x80 ADD PUSH1 0x40 MSTORE SWAP1 DUP2 PUSH1 0x0 DUP3 ADD PUSH1 0x0 SWAP1 SLOAD SWAP1 PUSH2 0x100 EXP SWAP1 DIV PUSH1 0xFF AND ISZERO ISZERO ISZERO ISZERO DUP2 MSTORE PUSH1 0x20 ADD PUSH1 0x0 DUP3 ADD PUSH1 0x1 SWAP1 SLOAD SWAP1 PUSH2 0x100 EXP SWAP1 DIV PUSH20 0xFFFFFFFFFFFFFFFFFFFFFFFFFFFFFFFFFFFFFFFF AND PUSH20 0xFFFFFFFFFFFFFFFFFFFFFFFFFFFFFFFFFFFFFFFF AND PUSH20 0xFFFFFFFFFFFFFFFFFFFFFFFFFFFFFFFFFFFFFFFF AND DUP2 MSTORE PUSH1 0x20 ADD PUSH1 0x1 DUP3 ADD SLOAD DUP2 MSTORE PUSH1 0x20 ADD PUSH1 0x2 DUP3 ADD DUP1 SLOAD PUSH2 0x24C5 SWAP1 PUSH2 0x426D JUMP JUMPDEST DUP1 PUSH1 0x1F ADD PUSH1 0x20 DUP1 SWAP2 DIV MUL PUSH1 0x20 ADD PUSH1 0x40 MLOAD SWAP1 DUP2 ADD PUSH1 0x40 MSTORE DUP1 SWAP3 SWAP2 SWAP1 DUP2 DUP2 MSTORE PUSH1 0x20 ADD DUP3 DUP1 SLOAD PUSH2 0x24F1 SWAP1 PUSH2 0x426D JUMP JUMPDEST DUP1 ISZERO PUSH2 0x253E JUMPI DUP1 PUSH1 0x1F LT PUSH2 0x2513 JUMPI PUSH2 0x100 DUP1 DUP4 SLOAD DIV MUL DUP4 MSTORE SWAP2 PUSH1 0x20 ADD SWAP2 PUSH2 0x253E JUMP JUMPDEST DUP3 ADD SWAP2 SWAP1 PUSH1 0x0 MSTORE PUSH1 0x20 PUSH1 0x0 KECCAK256 SWAP1 JUMPDEST DUP2 SLOAD DUP2 MSTORE SWAP1 PUSH1 0x1 ADD SWAP1 PUSH1 0x20 ADD DUP1 DUP4 GT PUSH2 0x2521 JUMPI DUP3 SWAP1 SUB PUSH1 0x1F AND DUP3 ADD SWAP2 JUMPDEST POP POP POP POP POP DUP2 MSTORE POP POP DUP2 MSTORE PUSH1 0x20 ADD SWAP1 PUSH1 0x1 ADD SWAP1 PUSH2 0x2417 JUMP JUMPDEST POP POP POP POP DUP2 MSTORE POP POP DUP2 MSTORE PUSH1 0x20 ADD SWAP1 PUSH1 0x1 ADD SWAP1 PUSH2 0x22C2 JUMP JUMPDEST POP POP POP POP SWAP1 POP SWAP1 JUMP JUMPDEST PUSH1 0x0 DUP1 SLOAD SWAP1 PUSH2 0x100 EXP SWAP1 DIV PUSH1 0xFF AND PUSH2 0x25C3 JUMPI PUSH1 0x40 MLOAD PUSH32 0x8C379A000000000000000000000000000000000000000000000000000000000 DUP2 MSTORE PUSH1 0x4 ADD PUSH2 0x25BA SWAP1 PUSH2 0x3F0A JUMP JUMPDEST PUSH1 0x40 MLOAD DUP1 SWAP2 SUB SWAP1 REVERT JUMPDEST PUSH1 0x1 DUP1 SLOAD SWAP1 POP DUP3 LT PUSH2 0x260A JUMPI PUSH1 0x40 MLOAD PUSH32 0x8C379A000000000000000000000000000000000000000000000000000000000 DUP2 MSTORE PUSH1 0x4 ADD PUSH2 0x2601 SWAP1 PUSH2 0x3ECA JUMP JUMPDEST PUSH1 0x40 MLOAD DUP1 SWAP2 SUB SWAP1 REVERT JUMPDEST PUSH1 0x1 DUP3 DUP2 SLOAD DUP2 LT PUSH2 0x2644 JUMPI PUSH32 0x4E487B7100000000000000000000000000000000000000000000000000000000 PUSH1 0x0 MSTORE PUSH1 0x32 PUSH1 0x4 MSTORE PUSH1 0x24 PUSH1 0x0 REVERT JUMPDEST SWAP1 PUSH1 0x0 MSTORE PUSH1 0x20 PUSH1 0x0 KECCAK256 SWAP1 PUSH1 0x4 MUL ADD PUSH1 0x0 ADD PUSH1 0x0 SWAP1 SLOAD SWAP1 PUSH2 0x100 EXP SWAP1 DIV PUSH1 0xFF AND PUSH2 0x26A2 JUMPI PUSH1 0x40 MLOAD PUSH32 0x8C379A000000000000000000000000000000000000000000000000000000000 DUP2 MSTORE PUSH1 0x4 ADD PUSH2 0x2699 SWAP1 PUSH2 0x3E8A JUMP JUMPDEST PUSH1 0x40 MLOAD DUP1 SWAP2 SUB SWAP1 REVERT JUMPDEST PUSH1 0x1 DUP3 DUP2 SLOAD DUP2 LT PUSH2 0x26DC JUMPI PUSH32 0x4E487B7100000000000000000000000000000000000000000000000000000000 PUSH1 0x0 MSTORE PUSH1 0x32 PUSH1 0x4 MSTORE PUSH1 0x24 PUSH1 0x0 REVERT JUMPDEST SWAP1 PUSH1 0x0 MSTORE PUSH1 0x20 PUSH1 0x0 KECCAK256 SWAP1 PUSH1 0x4 MUL ADD PUSH1 0x3 ADD PUSH1 0x40 MLOAD DUP1 PUSH1 0x80 ADD PUSH1 0x40 MSTORE DUP1 PUSH1 0x0 ISZERO ISZERO DUP2 MSTORE PUSH1 0x20 ADD CALLER PUSH20 0xFFFFFFFFFFFFFFFFFFFFFFFFFFFFFFFFFFFFFFFF AND DUP2 MSTORE PUSH1 0x20 ADD TIMESTAMP DUP2 MSTORE PUSH1 0x20 ADD DUP4 DUP2 MSTORE POP SWAP1 DUP1 PUSH1 0x1 DUP2 SLOAD ADD DUP1 DUP3 SSTORE DUP1 SWAP2 POP POP PUSH1 0x1 SWAP1 SUB SWAP1 PUSH1 0x0 MSTORE PUSH1 0x20 PUSH1 0x0 KECCAK256 SWAP1 PUSH1 0x3 MUL ADD PUSH1 0x0 SWAP1 SWAP2 SWAP1 SWAP2 SWAP1 SWAP2 POP PUSH1 0x0 DUP3 ADD MLOAD DUP2 PUSH1 0x0 ADD PUSH1 0x0 PUSH2 0x100 EXP DUP2 SLOAD DUP2 PUSH1 0xFF MUL NOT AND SWAP1 DUP4 ISZERO ISZERO MUL OR SWAP1 SSTORE POP PUSH1 0x20 DUP3 ADD MLOAD DUP2 PUSH1 0x0 ADD PUSH1 0x1 PUSH2 0x100 EXP DUP2 SLOAD DUP2 PUSH20 0xFFFFFFFFFFFFFFFFFFFFFFFFFFFFFFFFFFFFFFFF MUL NOT AND SWAP1 DUP4 PUSH20 0xFFFFFFFFFFFFFFFFFFFFFFFFFFFFFFFFFFFFFFFF AND MUL OR SWAP1 SSTORE POP PUSH1 0x40 DUP3 ADD MLOAD DUP2 PUSH1 0x1 ADD SSTORE PUSH1 0x60 DUP3 ADD MLOAD DUP2 PUSH1 0x2 ADD SWAP1 DUP1 MLOAD SWAP1 PUSH1 0x20 ADD SWAP1 PUSH2 0x27DD SWAP3 SWAP2 SWAP1 PUSH2 0x2D0D JUMP JUMPDEST POP POP POP POP POP JUMP JUMPDEST PUSH1 0x0 DUP1 SLOAD SWAP1 PUSH2 0x100 EXP SWAP1 DIV PUSH1 0xFF AND PUSH2 0x2831 JUMPI PUSH1 0x40 MLOAD PUSH32 0x8C379A000000000000000000000000000000000000000000000000000000000 DUP2 MSTORE PUSH1 0x4 ADD PUSH2 0x2828 SWAP1 PUSH2 0x3F0A JUMP JUMPDEST PUSH1 0x40 MLOAD DUP1 SWAP2 SUB SWAP1 REVERT JUMPDEST PUSH1 0x1 DUP1 SLOAD SWAP1 POP DUP2 LT PUSH2 0x2878 JUMPI PUSH1 0x40 MLOAD PUSH32 0x8C379A000000000000000000000000000000000000000000000000000000000 DUP2 MSTORE PUSH1 0x4 ADD PUSH2 0x286F SWAP1 PUSH2 0x3F4A JUMP JUMPDEST PUSH1 0x40 MLOAD DUP1 SWAP2 SUB SWAP1 REVERT JUMPDEST PUSH1 0x1 DUP2 DUP2 SLOAD DUP2 LT PUSH2 0x28B2 JUMPI PUSH32 0x4E487B7100000000000000000000000000000000000000000000000000000000 PUSH1 0x0 MSTORE PUSH1 0x32 PUSH1 0x4 MSTORE PUSH1 0x24 PUSH1 0x0 REVERT JUMPDEST SWAP1 PUSH1 0x0 MSTORE PUSH1 0x20 PUSH1 0x0 KECCAK256 SWAP1 PUSH1 0x4 MUL ADD PUSH1 0x0 ADD PUSH1 0x0 SWAP1 SLOAD SWAP1 PUSH2 0x100 EXP SWAP1 DIV PUSH1 0xFF AND PUSH2 0x28DA JUMPI PUSH2 0x293F JUMP JUMPDEST PUSH1 0x0 PUSH1 0x1 DUP3 DUP2 SLOAD DUP2 LT PUSH2 0x2916 JUMPI PUSH32 0x4E487B7100000000000000000000000000000000000000000000000000000000 PUSH1 0x0 MSTORE PUSH1 0x32 PUSH1 0x4 MSTORE PUSH1 0x24 PUSH1 0x0 REVERT JUMPDEST SWAP1 PUSH1 0x0 MSTORE PUSH1 0x20 PUSH1 0x0 KECCAK256 SWAP1 PUSH1 0x4 MUL ADD PUSH1 0x0 ADD PUSH1 0x0 PUSH2 0x100 EXP DUP2 SLOAD DUP2 PUSH1 0xFF MUL NOT AND SWAP1 DUP4 ISZERO ISZERO MUL OR SWAP1 SSTORE POP JUMPDEST POP JUMP JUMPDEST PUSH1 0x1 DUP2 DUP2 SLOAD DUP2 LT PUSH2 0x2952 JUMPI PUSH1 0x0 DUP1 REVERT JUMPDEST SWAP1 PUSH1 0x0 MSTORE PUSH1 0x20 PUSH1 0x0 KECCAK256 SWAP1 PUSH1 0x4 MUL ADD PUSH1 0x0 SWAP2 POP SWAP1 POP DUP1 PUSH1 0x0 ADD PUSH1 0x0 SWAP1 SLOAD SWAP1 PUSH2 0x100 EXP SWAP1 DIV PUSH1 0xFF AND SWAP1 DUP1 PUSH1 0x0 ADD PUSH1 0x1 SWAP1 SLOAD SWAP1 PUSH2 0x100 EXP SWAP1 DIV PUSH20 0xFFFFFFFFFFFFFFFFFFFFFFFFFFFFFFFFFFFFFFFF AND SWAP1 DUP1 PUSH1 0x1 ADD SLOAD SWAP1 DUP1 PUSH1 0x2 ADD DUP1 SLOAD PUSH2 0x29B4 SWAP1 PUSH2 0x426D JUMP JUMPDEST DUP1 PUSH1 0x1F ADD PUSH1 0x20 DUP1 SWAP2 DIV MUL PUSH1 0x20 ADD PUSH1 0x40 MLOAD SWAP1 DUP2 ADD PUSH1 0x40 MSTORE DUP1 SWAP3 SWAP2 SWAP1 DUP2 DUP2 MSTORE PUSH1 0x20 ADD DUP3 DUP1 SLOAD PUSH2 0x29E0 SWAP1 PUSH2 0x426D JUMP JUMPDEST DUP1 ISZERO PUSH2 0x2A2D JUMPI DUP1 PUSH1 0x1F LT PUSH2 0x2A02 JUMPI PUSH2 0x100 DUP1 DUP4 SLOAD DIV MUL DUP4 MSTORE SWAP2 PUSH1 0x20 ADD SWAP2 PUSH2 0x2A2D JUMP JUMPDEST DUP3 ADD SWAP2 SWAP1 PUSH1 0x0 MSTORE PUSH1 0x20 PUSH1 0x0 KECCAK256 SWAP1 JUMPDEST DUP2 SLOAD DUP2 MSTORE SWAP1 PUSH1 0x1 ADD SWAP1 PUSH1 0x20 ADD DUP1 DUP4 GT PUSH2 0x2A10 JUMPI DUP3 SWAP1 SUB PUSH1 0x1F AND DUP3 ADD SWAP2 JUMPDEST POP POP POP POP POP SWAP1 POP DUP5 JUMP JUMPDEST PUSH1 0x0 DUP1 PUSH1 0x0 DUP1 PUSH1 0x0 DUP1 SLOAD SWAP1 PUSH2 0x100 EXP SWAP1 DIV PUSH1 0xFF AND PUSH32 0x0 PUSH32 0x0 PUSH1 0x1 DUP1 SLOAD SWAP1 POP SWAP4 POP SWAP4 POP SWAP4 POP SWAP4 POP SWAP1 SWAP2 SWAP3 SWAP4 JUMP JUMPDEST PUSH1 0x0 DUP1 PUSH1 0x0 SWAP1 POP JUMPDEST PUSH1 0x1 DUP1 SLOAD SWAP1 POP DUP2 LT ISZERO PUSH2 0x2C14 JUMPI PUSH1 0x1 DUP2 DUP2 SLOAD DUP2 LT PUSH2 0x2AF0 JUMPI PUSH32 0x4E487B7100000000000000000000000000000000000000000000000000000000 PUSH1 0x0 MSTORE PUSH1 0x32 PUSH1 0x4 MSTORE PUSH1 0x24 PUSH1 0x0 REVERT JUMPDEST SWAP1 PUSH1 0x0 MSTORE PUSH1 0x20 PUSH1 0x0 KECCAK256 SWAP1 PUSH1 0x4 MUL ADD PUSH1 0x0 ADD PUSH1 0x0 SWAP1 SLOAD SWAP1 PUSH2 0x100 EXP SWAP1 DIV PUSH1 0xFF AND ISZERO PUSH2 0x2C01 JUMPI PUSH2 0x2BF1 PUSH1 0x1 DUP3 DUP2 SLOAD DUP2 LT PUSH2 0x2B51 JUMPI PUSH32 0x4E487B7100000000000000000000000000000000000000000000000000000000 PUSH1 0x0 MSTORE PUSH1 0x32 PUSH1 0x4 MSTORE PUSH1 0x24 PUSH1 0x0 REVERT JUMPDEST SWAP1 PUSH1 0x0 MSTORE PUSH1 0x20 PUSH1 0x0 KECCAK256 SWAP1 PUSH1 0x4 MUL ADD PUSH1 0x2 ADD DUP1 SLOAD PUSH2 0x2B6D SWAP1 PUSH2 0x426D JUMP JUMPDEST DUP1 PUSH1 0x1F ADD PUSH1 0x20 DUP1 SWAP2 DIV MUL PUSH1 0x20 ADD PUSH1 0x40 MLOAD SWAP1 DUP2 ADD PUSH1 0x40 MSTORE DUP1 SWAP3 SWAP2 SWAP1 DUP2 DUP2 MSTORE PUSH1 0x20 ADD DUP3 DUP1 SLOAD PUSH2 0x2B99 SWAP1 PUSH2 0x426D JUMP JUMPDEST DUP1 ISZERO PUSH2 0x2BE6 JUMPI DUP1 PUSH1 0x1F LT PUSH2 0x2BBB JUMPI PUSH2 0x100 DUP1 DUP4 SLOAD DIV MUL DUP4 MSTORE SWAP2 PUSH1 0x20 ADD SWAP2 PUSH2 0x2BE6 JUMP JUMPDEST DUP3 ADD SWAP2 SWAP1 PUSH1 0x0 MSTORE PUSH1 0x20 PUSH1 0x0 KECCAK256 SWAP1 JUMPDEST DUP2 SLOAD DUP2 MSTORE SWAP1 PUSH1 0x1 ADD SWAP1 PUSH1 0x20 ADD DUP1 DUP4 GT PUSH2 0x2BC9 JUMPI DUP3 SWAP1 SUB PUSH1 0x1F AND DUP3 ADD SWAP2 JUMPDEST POP POP POP POP POP DUP5 PUSH2 0x2C1F JUMP JUMPDEST ISZERO PUSH2 0x2C00 JUMPI PUSH1 0x1 SWAP2 POP POP PUSH2 0x2C1A JUMP JUMPDEST JUMPDEST DUP1 DUP1 PUSH2 0x2C0C SWAP1 PUSH2 0x429F JUMP JUMPDEST SWAP2 POP POP PUSH2 0x2AA9 JUMP JUMPDEST POP PUSH1 0x0 SWAP1 POP JUMPDEST SWAP2 SWAP1 POP JUMP JUMPDEST PUSH1 0x0 DUP2 PUSH1 0x40 MLOAD PUSH1 0x20 ADD PUSH2 0x2C32 SWAP2 SWAP1 PUSH2 0x3CFC JUMP JUMPDEST PUSH1 0x40 MLOAD PUSH1 0x20 DUP2 DUP4 SUB SUB DUP2 MSTORE SWAP1 PUSH1 0x40 MSTORE DUP1 MLOAD SWAP1 PUSH1 0x20 ADD KECCAK256 DUP4 PUSH1 0x40 MLOAD PUSH1 0x20 ADD PUSH2 0x2C59 SWAP2 SWAP1 PUSH2 0x3CFC JUMP JUMPDEST PUSH1 0x40 MLOAD PUSH1 0x20 DUP2 DUP4 SUB SUB DUP2 MSTORE SWAP1 PUSH1 0x40 MSTORE DUP1 MLOAD SWAP1 PUSH1 0x20 ADD KECCAK256 EQ PUSH2 0x2C7B JUMPI PUSH1 0x0 PUSH2 0x2C7E JUMP JUMPDEST PUSH1 0x1 JUMPDEST SWAP1 POP SWAP3 SWAP2 POP POP JUMP JUMPDEST PUSH1 0x40 MLOAD DUP1 PUSH1 0xA0 ADD PUSH1 0x40 MSTORE DUP1 PUSH1 0x0 ISZERO ISZERO DUP2 MSTORE PUSH1 0x20 ADD PUSH1 0x0 PUSH20 0xFFFFFFFFFFFFFFFFFFFFFFFFFFFFFFFFFFFFFFFF AND DUP2 MSTORE PUSH1 0x20 ADD PUSH1 0x0 DUP2 MSTORE PUSH1 0x20 ADD PUSH1 0x60 DUP2 MSTORE PUSH1 0x20 ADD PUSH1 0x60 DUP2 MSTORE POP SWAP1 JUMP JUMPDEST PUSH1 0x40 MLOAD DUP1 PUSH1 0x80 ADD PUSH1 0x40 MSTORE DUP1 PUSH1 0x0 ISZERO ISZERO DUP2 MSTORE PUSH1 0x20 ADD PUSH1 0x0 PUSH20 0xFFFFFFFFFFFFFFFFFFFFFFFFFFFFFFFFFFFFFFFF AND DUP2 MSTORE PUSH1 0x20 ADD PUSH1 0x0 DUP2 MSTORE PUSH1 0x20 ADD PUSH1 0x60 DUP2 MSTORE POP SWAP1 JUMP JUMPDEST DUP3 DUP1 SLOAD PUSH2 0x2D19 SWAP1 PUSH2 0x426D JUMP JUMPDEST SWAP1 PUSH1 0x0 MSTORE PUSH1 0x20 PUSH1 0x0 KECCAK256 SWAP1 PUSH1 0x1F ADD PUSH1 0x20 SWAP1 DIV DUP2 ADD SWAP3 DUP3 PUSH2 0x2D3B JUMPI PUSH1 0x0 DUP6 SSTORE PUSH2 0x2D82 JUMP JUMPDEST DUP3 PUSH1 0x1F LT PUSH2 0x2D54 JUMPI DUP1 MLOAD PUSH1 0xFF NOT AND DUP4 DUP1 ADD OR DUP6 SSTORE PUSH2 0x2D82 JUMP JUMPDEST DUP3 DUP1 ADD PUSH1 0x1 ADD DUP6 SSTORE DUP3 ISZERO PUSH2 0x2D82 JUMPI SWAP2 DUP3 ADD JUMPDEST DUP3 DUP2 GT ISZERO PUSH2 0x2D81 JUMPI DUP3 MLOAD DUP3 SSTORE SWAP2 PUSH1 0x20 ADD SWAP2 SWAP1 PUSH1 0x1 ADD SWAP1 PUSH2 0x2D66 JUMP JUMPDEST JUMPDEST POP SWAP1 POP PUSH2 0x2D8F SWAP2 SWAP1 PUSH2 0x2D93 JUMP JUMPDEST POP SWAP1 JUMP JUMPDEST JUMPDEST DUP1 DUP3 GT ISZERO PUSH2 0x2DAC JUMPI PUSH1 0x0 DUP2 PUSH1 0x0 SWAP1 SSTORE POP PUSH1 0x1 ADD PUSH2 0x2D94 JUMP JUMPDEST POP SWAP1 JUMP JUMPDEST PUSH1 0x0 PUSH2 0x2DC3 PUSH2 0x2DBE DUP5 PUSH2 0x401A JUMP JUMPDEST PUSH2 0x3FE9 JUMP JUMPDEST SWAP1 POP DUP1 DUP4 DUP3 MSTORE PUSH1 0x20 DUP3 ADD SWAP1 POP DUP3 PUSH1 0x0 JUMPDEST DUP6 DUP2 LT ISZERO PUSH2 0x2E03 JUMPI DUP2 MLOAD DUP6 ADD PUSH2 0x2DE9 DUP9 DUP3 PUSH2 0x3121 JUMP JUMPDEST DUP5 MSTORE PUSH1 0x20 DUP5 ADD SWAP4 POP PUSH1 0x20 DUP4 ADD SWAP3 POP POP PUSH1 0x1 DUP2 ADD SWAP1 POP PUSH2 0x2DD3 JUMP JUMPDEST POP POP POP SWAP4 SWAP3 POP POP POP JUMP JUMPDEST PUSH1 0x0 PUSH2 0x2E20 PUSH2 0x2E1B DUP5 PUSH2 0x4046 JUMP JUMPDEST PUSH2 0x3FE9 JUMP JUMPDEST SWAP1 POP DUP1 DUP4 DUP3 MSTORE PUSH1 0x20 DUP3 ADD SWAP1 POP DUP3 PUSH1 0x0 JUMPDEST DUP6 DUP2 LT ISZERO PUSH2 0x2E60 JUMPI DUP2 CALLDATALOAD DUP6 ADD PUSH2 0x2E46 DUP9 DUP3 PUSH2 0x31D9 JUMP JUMPDEST DUP5 MSTORE PUSH1 0x20 DUP5 ADD SWAP4 POP PUSH1 0x20 DUP4 ADD SWAP3 POP POP PUSH1 0x1 DUP2 ADD SWAP1 POP PUSH2 0x2E30 JUMP JUMPDEST POP POP POP SWAP4 SWAP3 POP POP POP JUMP JUMPDEST PUSH1 0x0 PUSH2 0x2E7D PUSH2 0x2E78 DUP5 PUSH2 0x4046 JUMP JUMPDEST PUSH2 0x3FE9 JUMP JUMPDEST SWAP1 POP DUP1 DUP4 DUP3 MSTORE PUSH1 0x20 DUP3 ADD SWAP1 POP DUP3 PUSH1 0x0 JUMPDEST DUP6 DUP2 LT ISZERO PUSH2 0x2EBD JUMPI DUP2 MLOAD DUP6 ADD PUSH2 0x2EA3 DUP9 DUP3 PUSH2 0x3265 JUMP JUMPDEST DUP5 MSTORE PUSH1 0x20 DUP5 ADD SWAP4 POP PUSH1 0x20 DUP4 ADD SWAP3 POP POP PUSH1 0x1 DUP2 ADD SWAP1 POP PUSH2 0x2E8D JUMP JUMPDEST POP POP POP SWAP4 SWAP3 POP POP POP JUMP JUMPDEST PUSH1 0x0 PUSH2 0x2EDA PUSH2 0x2ED5 DUP5 PUSH2 0x4072 JUMP JUMPDEST PUSH2 0x3FE9 JUMP JUMPDEST SWAP1 POP DUP3 DUP2 MSTORE PUSH1 0x20 DUP2 ADD DUP5 DUP5 DUP5 ADD GT ISZERO PUSH2 0x2EF2 JUMPI PUSH1 0x0 DUP1 REVERT JUMPDEST PUSH2 0x2EFD DUP5 DUP3 DUP6 PUSH2 0x4201 JUMP JUMPDEST POP SWAP4 SWAP3 POP POP POP JUMP JUMPDEST PUSH1 0x0 PUSH2 0x2F18 PUSH2 0x2F13 DUP5 PUSH2 0x4072 JUMP JUMPDEST PUSH2 0x3FE9 JUMP JUMPDEST SWAP1 POP DUP3 DUP2 MSTORE PUSH1 0x20 DUP2 ADD DUP5 DUP5 DUP5 ADD GT ISZERO PUSH2 0x2F30 JUMPI PUSH1 0x0 DUP1 REVERT JUMPDEST PUSH2 0x2F3B DUP5 DUP3 DUP6 PUSH2 0x4210 JUMP JUMPDEST POP SWAP4 SWAP3 POP POP POP JUMP JUMPDEST PUSH1 0x0 DUP2 CALLDATALOAD SWAP1 POP PUSH2 0x2F52 DUP2 PUSH2 0x4386 JUMP JUMPDEST SWAP3 SWAP2 POP POP JUMP JUMPDEST PUSH1 0x0 DUP2 MLOAD SWAP1 POP PUSH2 0x2F67 DUP2 PUSH2 0x4386 JUMP JUMPDEST SWAP3 SWAP2 POP POP JUMP JUMPDEST PUSH1 0x0 DUP3 PUSH1 0x1F DUP4 ADD SLT PUSH2 0x2F7E JUMPI PUSH1 0x0 DUP1 REVERT JUMPDEST DUP2 MLOAD PUSH2 0x2F8E DUP5 DUP3 PUSH1 0x20 DUP7 ADD PUSH2 0x2DB0 JUMP JUMPDEST SWAP2 POP POP SWAP3 SWAP2 POP POP JUMP JUMPDEST PUSH1 0x0 DUP3 PUSH1 0x1F DUP4 ADD SLT PUSH2 0x2FA8 JUMPI PUSH1 0x0 DUP1 REVERT JUMPDEST DUP2 CALLDATALOAD PUSH2 0x2FB8 DUP5 DUP3 PUSH1 0x20 DUP7 ADD PUSH2 0x2E0D JUMP JUMPDEST SWAP2 POP POP SWAP3 SWAP2 POP POP JUMP JUMPDEST PUSH1 0x0 DUP3 PUSH1 0x1F DUP4 ADD SLT PUSH2 0x2FD2 JUMPI PUSH1 0x0 DUP1 REVERT JUMPDEST DUP2 MLOAD PUSH2 0x2FE2 DUP5 DUP3 PUSH1 0x20 DUP7 ADD PUSH2 0x2E6A JUMP JUMPDEST SWAP2 POP POP SWAP3 SWAP2 POP POP JUMP JUMPDEST PUSH1 0x0 DUP2 CALLDATALOAD SWAP1 POP PUSH2 0x2FFA DUP2 PUSH2 0x439D JUMP JUMPDEST SWAP3 SWAP2 POP POP JUMP JUMPDEST PUSH1 0x0 DUP2 MLOAD SWAP1 POP PUSH2 0x300F DUP2 PUSH2 0x439D JUMP JUMPDEST SWAP3 SWAP2 POP POP JUMP JUMPDEST PUSH1 0x0 DUP3 PUSH1 0x1F DUP4 ADD SLT PUSH2 0x3026 JUMPI PUSH1 0x0 DUP1 REVERT JUMPDEST DUP2 CALLDATALOAD PUSH2 0x3036 DUP5 DUP3 PUSH1 0x20 DUP7 ADD PUSH2 0x2EC7 JUMP JUMPDEST SWAP2 POP POP SWAP3 SWAP2 POP POP JUMP JUMPDEST PUSH1 0x0 DUP3 PUSH1 0x1F DUP4 ADD SLT PUSH2 0x3050 JUMPI PUSH1 0x0 DUP1 REVERT JUMPDEST DUP2 MLOAD PUSH2 0x3060 DUP5 DUP3 PUSH1 0x20 DUP7 ADD PUSH2 0x2F05 JUMP JUMPDEST SWAP2 POP POP SWAP3 SWAP2 POP POP JUMP JUMPDEST PUSH1 0x0 PUSH1 0xA0 DUP3 DUP5 SUB SLT ISZERO PUSH2 0x307B JUMPI PUSH1 0x0 DUP1 REVERT JUMPDEST PUSH2 0x3085 PUSH1 0xA0 PUSH2 0x3FE9 JUMP JUMPDEST SWAP1 POP PUSH1 0x0 PUSH2 0x3095 DUP5 DUP3 DUP6 ADD PUSH2 0x2FEB JUMP JUMPDEST PUSH1 0x0 DUP4 ADD MSTORE POP PUSH1 0x20 PUSH2 0x30A9 DUP5 DUP3 DUP6 ADD PUSH2 0x2F43 JUMP JUMPDEST PUSH1 0x20 DUP4 ADD MSTORE POP PUSH1 0x40 PUSH2 0x30BD DUP5 DUP3 DUP6 ADD PUSH2 0x32F1 JUMP JUMPDEST PUSH1 0x40 DUP4 ADD MSTORE POP PUSH1 0x60 DUP3 ADD CALLDATALOAD PUSH8 0xFFFFFFFFFFFFFFFF DUP2 GT ISZERO PUSH2 0x30DD JUMPI PUSH1 0x0 DUP1 REVERT JUMPDEST PUSH2 0x30E9 DUP5 DUP3 DUP6 ADD PUSH2 0x3015 JUMP JUMPDEST PUSH1 0x60 DUP4 ADD MSTORE POP PUSH1 0x80 DUP3 ADD CALLDATALOAD PUSH8 0xFFFFFFFFFFFFFFFF DUP2 GT ISZERO PUSH2 0x3109 JUMPI PUSH1 0x0 DUP1 REVERT JUMPDEST PUSH2 0x3115 DUP5 DUP3 DUP6 ADD PUSH2 0x2F97 JUMP JUMPDEST PUSH1 0x80 DUP4 ADD MSTORE POP SWAP3 SWAP2 POP POP JUMP JUMPDEST PUSH1 0x0 PUSH1 0xA0 DUP3 DUP5 SUB SLT ISZERO PUSH2 0x3133 JUMPI PUSH1 0x0 DUP1 REVERT JUMPDEST PUSH2 0x313D PUSH1 0xA0 PUSH2 0x3FE9 JUMP JUMPDEST SWAP1 POP PUSH1 0x0 PUSH2 0x314D DUP5 DUP3 DUP6 ADD PUSH2 0x3000 JUMP JUMPDEST PUSH1 0x0 DUP4 ADD MSTORE POP PUSH1 0x20 PUSH2 0x3161 DUP5 DUP3 DUP6 ADD PUSH2 0x2F58 JUMP JUMPDEST PUSH1 0x20 DUP4 ADD MSTORE POP PUSH1 0x40 PUSH2 0x3175 DUP5 DUP3 DUP6 ADD PUSH2 0x3306 JUMP JUMPDEST PUSH1 0x40 DUP4 ADD MSTORE POP PUSH1 0x60 DUP3 ADD MLOAD PUSH8 0xFFFFFFFFFFFFFFFF DUP2 GT ISZERO PUSH2 0x3195 JUMPI PUSH1 0x0 DUP1 REVERT JUMPDEST PUSH2 0x31A1 DUP5 DUP3 DUP6 ADD PUSH2 0x303F JUMP JUMPDEST PUSH1 0x60 DUP4 ADD MSTORE POP PUSH1 0x80 DUP3 ADD MLOAD PUSH8 0xFFFFFFFFFFFFFFFF DUP2 GT ISZERO PUSH2 0x31C1 JUMPI PUSH1 0x0 DUP1 REVERT JUMPDEST PUSH2 0x31CD DUP5 DUP3 DUP6 ADD PUSH2 0x2FC1 JUMP JUMPDEST PUSH1 0x80 DUP4 ADD MSTORE POP SWAP3 SWAP2 POP POP JUMP JUMPDEST PUSH1 0x0 PUSH1 0x80 DUP3 DUP5 SUB SLT ISZERO PUSH2 0x31EB JUMPI PUSH1 0x0 DUP1 REVERT JUMPDEST PUSH2 0x31F5 PUSH1 0x80 PUSH2 0x3FE9 JUMP JUMPDEST SWAP1 POP PUSH1 0x0 PUSH2 0x3205 DUP5 DUP3 DUP6 ADD PUSH2 0x2FEB JUMP JUMPDEST PUSH1 0x0 DUP4 ADD MSTORE POP PUSH1 0x20 PUSH2 0x3219 DUP5 DUP3 DUP6 ADD PUSH2 0x2F43 JUMP JUMPDEST PUSH1 0x20 DUP4 ADD MSTORE POP PUSH1 0x40 PUSH2 0x322D DUP5 DUP3 DUP6 ADD PUSH2 0x32F1 JUMP JUMPDEST PUSH1 0x40 DUP4 ADD MSTORE POP PUSH1 0x60 DUP3 ADD CALLDATALOAD PUSH8 0xFFFFFFFFFFFFFFFF DUP2 GT ISZERO PUSH2 0x324D JUMPI PUSH1 0x0 DUP1 REVERT JUMPDEST PUSH2 0x3259 DUP5 DUP3 DUP6 ADD PUSH2 0x3015 JUMP JUMPDEST PUSH1 0x60 DUP4 ADD MSTORE POP SWAP3 SWAP2 POP POP JUMP JUMPDEST PUSH1 0x0 PUSH1 0x80 DUP3 DUP5 SUB SLT ISZERO PUSH2 0x3277 JUMPI PUSH1 0x0 DUP1 REVERT JUMPDEST PUSH2 0x3281 PUSH1 0x80 PUSH2 0x3FE9 JUMP JUMPDEST SWAP1 POP PUSH1 0x0 PUSH2 0x3291 DUP5 DUP3 DUP6 ADD PUSH2 0x3000 JUMP JUMPDEST PUSH1 0x0 DUP4 ADD MSTORE POP PUSH1 0x20 PUSH2 0x32A5 DUP5 DUP3 DUP6 ADD PUSH2 0x2F58 JUMP JUMPDEST PUSH1 0x20 DUP4 ADD MSTORE POP PUSH1 0x40 PUSH2 0x32B9 DUP5 DUP3 DUP6 ADD PUSH2 0x3306 JUMP JUMPDEST PUSH1 0x40 DUP4 ADD MSTORE POP PUSH1 0x60 DUP3 ADD MLOAD PUSH8 0xFFFFFFFFFFFFFFFF DUP2 GT ISZERO PUSH2 0x32D9 JUMPI PUSH1 0x0 DUP1 REVERT JUMPDEST PUSH2 0x32E5 DUP5 DUP3 DUP6 ADD PUSH2 0x303F JUMP JUMPDEST PUSH1 0x60 DUP4 ADD MSTORE POP SWAP3 SWAP2 POP POP JUMP JUMPDEST PUSH1 0x0 DUP2 CALLDATALOAD SWAP1 POP PUSH2 0x3300 DUP2 PUSH2 0x43B4 JUMP JUMPDEST SWAP3 SWAP2 POP POP JUMP JUMPDEST PUSH1 0x0 DUP2 MLOAD SWAP1 POP PUSH2 0x3315 DUP2 PUSH2 0x43B4 JUMP JUMPDEST SWAP3 SWAP2 POP POP JUMP JUMPDEST PUSH1 0x0 PUSH1 0x20 DUP3 DUP5 SUB SLT ISZERO PUSH2 0x332D JUMPI PUSH1 0x0 DUP1 REVERT JUMPDEST PUSH1 0x0 DUP3 ADD MLOAD PUSH8 0xFFFFFFFFFFFFFFFF DUP2 GT ISZERO PUSH2 0x3347 JUMPI PUSH1 0x0 DUP1 REVERT JUMPDEST PUSH2 0x3353 DUP5 DUP3 DUP6 ADD PUSH2 0x2F6D JUMP JUMPDEST SWAP2 POP POP SWAP3 SWAP2 POP POP JUMP JUMPDEST PUSH1 0x0 PUSH1 0x20 DUP3 DUP5 SUB SLT ISZERO PUSH2 0x336E JUMPI PUSH1 0x0 DUP1 REVERT JUMPDEST PUSH1 0x0 PUSH2 0x337C DUP5 DUP3 DUP6 ADD PUSH2 0x2FEB JUMP JUMPDEST SWAP2 POP POP SWAP3 SWAP2 POP POP JUMP JUMPDEST PUSH1 0x0 PUSH1 0x20 DUP3 DUP5 SUB SLT ISZERO PUSH2 0x3397 JUMPI PUSH1 0x0 DUP1 REVERT JUMPDEST PUSH1 0x0 DUP3 ADD CALLDATALOAD PUSH8 0xFFFFFFFFFFFFFFFF DUP2 GT ISZERO PUSH2 0x33B1 JUMPI PUSH1 0x0 DUP1 REVERT JUMPDEST PUSH2 0x33BD DUP5 DUP3 DUP6 ADD PUSH2 0x3015 JUMP JUMPDEST SWAP2 POP POP SWAP3 SWAP2 POP POP JUMP JUMPDEST PUSH1 0x0 DUP1 PUSH1 0x40 DUP4 DUP6 SUB SLT ISZERO PUSH2 0x33D9 JUMPI PUSH1 0x0 DUP1 REVERT JUMPDEST PUSH1 0x0 DUP4 ADD CALLDATALOAD PUSH8 0xFFFFFFFFFFFFFFFF DUP2 GT ISZERO PUSH2 0x33F3 JUMPI PUSH1 0x0 DUP1 REVERT JUMPDEST PUSH2 0x33FF DUP6 DUP3 DUP7 ADD PUSH2 0x3015 JUMP JUMPDEST SWAP3 POP POP PUSH1 0x20 DUP4 ADD CALLDATALOAD PUSH8 0xFFFFFFFFFFFFFFFF DUP2 GT ISZERO PUSH2 0x341C JUMPI PUSH1 0x0 DUP1 REVERT JUMPDEST PUSH2 0x3428 DUP6 DUP3 DUP7 ADD PUSH2 0x3015 JUMP JUMPDEST SWAP2 POP POP SWAP3 POP SWAP3 SWAP1 POP JUMP JUMPDEST PUSH1 0x0 PUSH1 0x20 DUP3 DUP5 SUB SLT ISZERO PUSH2 0x3444 JUMPI PUSH1 0x0 DUP1 REVERT JUMPDEST PUSH1 0x0 DUP3 ADD CALLDATALOAD PUSH8 0xFFFFFFFFFFFFFFFF DUP2 GT ISZERO PUSH2 0x345E JUMPI PUSH1 0x0 DUP1 REVERT JUMPDEST PUSH2 0x346A DUP5 DUP3 DUP6 ADD PUSH2 0x3069 JUMP JUMPDEST SWAP2 POP POP SWAP3 SWAP2 POP POP JUMP JUMPDEST PUSH1 0x0 PUSH1 0x20 DUP3 DUP5 SUB SLT ISZERO PUSH2 0x3485 JUMPI PUSH1 0x0 DUP1 REVERT JUMPDEST PUSH1 0x0 DUP3 ADD MLOAD PUSH8 0xFFFFFFFFFFFFFFFF DUP2 GT ISZERO PUSH2 0x349F JUMPI PUSH1 0x0 DUP1 REVERT JUMPDEST PUSH2 0x34AB DUP5 DUP3 DUP6 ADD PUSH2 0x3265 JUMP JUMPDEST SWAP2 POP POP SWAP3 SWAP2 POP POP JUMP JUMPDEST PUSH1 0x0 PUSH1 0x20 DUP3 DUP5 SUB SLT ISZERO PUSH2 0x34C6 JUMPI PUSH1 0x0 DUP1 REVERT JUMPDEST PUSH1 0x0 PUSH2 0x34D4 DUP5 DUP3 DUP6 ADD PUSH2 0x32F1 JUMP JUMPDEST SWAP2 POP POP SWAP3 SWAP2 POP POP JUMP JUMPDEST PUSH1 0x0 DUP1 PUSH1 0x40 DUP4 DUP6 SUB SLT ISZERO PUSH2 0x34F0 JUMPI PUSH1 0x0 DUP1 REVERT JUMPDEST PUSH1 0x0 PUSH2 0x34FE DUP6 DUP3 DUP7 ADD PUSH2 0x32F1 JUMP JUMPDEST SWAP3 POP POP PUSH1 0x20 DUP4 ADD CALLDATALOAD PUSH8 0xFFFFFFFFFFFFFFFF DUP2 GT ISZERO PUSH2 0x351B JUMPI PUSH1 0x0 DUP1 REVERT JUMPDEST PUSH2 0x3527 DUP6 DUP3 DUP7 ADD PUSH2 0x3015 JUMP JUMPDEST SWAP2 POP POP SWAP3 POP SWAP3 SWAP1 POP JUMP JUMPDEST PUSH1 0x0 DUP1 PUSH1 0x40 DUP4 DUP6 SUB SLT ISZERO PUSH2 0x3544 JUMPI PUSH1 0x0 DUP1 REVERT JUMPDEST PUSH1 0x0 PUSH2 0x3552 DUP6 DUP3 DUP7 ADD PUSH2 0x32F1 JUMP JUMPDEST SWAP3 POP POP PUSH1 0x20 PUSH2 0x3563 DUP6 DUP3 DUP7 ADD PUSH2 0x32F1 JUMP JUMPDEST SWAP2 POP POP SWAP3 POP SWAP3 SWAP1 POP JUMP JUMPDEST PUSH1 0x0 PUSH2 0x3579 DUP4 DUP4 PUSH2 0x3B1E JUMP JUMPDEST SWAP1 POP SWAP3 SWAP2 POP POP JUMP JUMPDEST PUSH1 0x0 PUSH2 0x358D DUP4 DUP4 PUSH2 0x3C18 JUMP JUMPDEST SWAP1 POP SWAP3 SWAP2 POP POP JUMP JUMPDEST PUSH1 0x0 PUSH2 0x35A1 DUP4 DUP4 PUSH2 0x3CDE JUMP JUMPDEST PUSH1 0x20 DUP4 ADD SWAP1 POP SWAP3 SWAP2 POP POP JUMP JUMPDEST PUSH2 0x35B6 DUP2 PUSH2 0x41B9 JUMP JUMPDEST DUP3 MSTORE POP POP JUMP JUMPDEST PUSH2 0x35C5 DUP2 PUSH2 0x41B9 JUMP JUMPDEST DUP3 MSTORE POP POP JUMP JUMPDEST PUSH1 0x0 PUSH2 0x35D6 DUP3 PUSH2 0x40D2 JUMP JUMPDEST PUSH2 0x35E0 DUP2 DUP6 PUSH2 0x4125 JUMP JUMPDEST SWAP4 POP DUP4 PUSH1 0x20 DUP3 MUL DUP6 ADD PUSH2 0x35F2 DUP6 PUSH2 0x40A2 JUMP JUMPDEST DUP1 PUSH1 0x0 JUMPDEST DUP6 DUP2 LT ISZERO PUSH2 0x362E JUMPI DUP5 DUP5 SUB DUP10 MSTORE DUP2 MLOAD PUSH2 0x360F DUP6 DUP3 PUSH2 0x356D JUMP JUMPDEST SWAP5 POP PUSH2 0x361A DUP4 PUSH2 0x40FE JUMP JUMPDEST SWAP3 POP PUSH1 0x20 DUP11 ADD SWAP10 POP POP PUSH1 0x1 DUP2 ADD SWAP1 POP PUSH2 0x35F6 JUMP JUMPDEST POP DUP3 SWAP8 POP DUP8 SWAP6 POP POP POP POP POP POP SWAP3 SWAP2 POP POP JUMP JUMPDEST PUSH1 0x0 PUSH2 0x364B DUP3 PUSH2 0x40DD JUMP JUMPDEST PUSH2 0x3655 DUP2 DUP6 PUSH2 0x4136 JUMP JUMPDEST SWAP4 POP DUP4 PUSH1 0x20 DUP3 MUL DUP6 ADD PUSH2 0x3667 DUP6 PUSH2 0x40B2 JUMP JUMPDEST DUP1 PUSH1 0x0 JUMPDEST DUP6 DUP2 LT ISZERO PUSH2 0x36A3 JUMPI DUP5 DUP5 SUB DUP10 MSTORE DUP2 MLOAD PUSH2 0x3684 DUP6 DUP3 PUSH2 0x3581 JUMP JUMPDEST SWAP5 POP PUSH2 0x368F DUP4 PUSH2 0x410B JUMP JUMPDEST SWAP3 POP PUSH1 0x20 DUP11 ADD SWAP10 POP POP PUSH1 0x1 DUP2 ADD SWAP1 POP PUSH2 0x366B JUMP JUMPDEST POP DUP3 SWAP8 POP DUP8 SWAP6 POP POP POP POP POP POP SWAP3 SWAP2 POP POP JUMP JUMPDEST PUSH1 0x0 PUSH2 0x36C0 DUP3 PUSH2 0x40E8 JUMP JUMPDEST PUSH2 0x36CA DUP2 DUP6 PUSH2 0x4147 JUMP JUMPDEST SWAP4 POP PUSH2 0x36D5 DUP4 PUSH2 0x40C2 JUMP JUMPDEST DUP1 PUSH1 0x0 JUMPDEST DUP4 DUP2 LT ISZERO PUSH2 0x3706 JUMPI DUP2 MLOAD PUSH2 0x36ED DUP9 DUP3 PUSH2 0x3595 JUMP JUMPDEST SWAP8 POP PUSH2 0x36F8 DUP4 PUSH2 0x4118 JUMP JUMPDEST SWAP3 POP POP PUSH1 0x1 DUP2 ADD SWAP1 POP PUSH2 0x36D9 JUMP JUMPDEST POP DUP6 SWAP4 POP POP POP POP SWAP3 SWAP2 POP POP JUMP JUMPDEST PUSH2 0x371C DUP2 PUSH2 0x41CB JUMP JUMPDEST DUP3 MSTORE POP POP JUMP JUMPDEST PUSH2 0x372B DUP2 PUSH2 0x41CB JUMP JUMPDEST DUP3 MSTORE POP POP JUMP JUMPDEST PUSH1 0x0 PUSH2 0x373C DUP3 PUSH2 0x40F3 JUMP JUMPDEST PUSH2 0x3746 DUP2 DUP6 PUSH2 0x4158 JUMP JUMPDEST SWAP4 POP PUSH2 0x3756 DUP2 DUP6 PUSH1 0x20 DUP7 ADD PUSH2 0x4210 JUMP JUMPDEST PUSH2 0x375F DUP2 PUSH2 0x4375 JUMP JUMPDEST DUP5 ADD SWAP2 POP POP SWAP3 SWAP2 POP POP JUMP JUMPDEST PUSH1 0x0 PUSH2 0x3775 DUP3 PUSH2 0x40F3 JUMP JUMPDEST PUSH2 0x377F DUP2 DUP6 PUSH2 0x4169 JUMP JUMPDEST SWAP4 POP PUSH2 0x378F DUP2 DUP6 PUSH1 0x20 DUP7 ADD PUSH2 0x4210 JUMP JUMPDEST PUSH2 0x3798 DUP2 PUSH2 0x4375 JUMP JUMPDEST DUP5 ADD SWAP2 POP POP SWAP3 SWAP2 POP POP JUMP JUMPDEST PUSH1 0x0 PUSH2 0x37AE DUP3 PUSH2 0x40F3 JUMP JUMPDEST PUSH2 0x37B8 DUP2 DUP6 PUSH2 0x417A JUMP JUMPDEST SWAP4 POP PUSH2 0x37C8 DUP2 DUP6 PUSH1 0x20 DUP7 ADD PUSH2 0x4210 JUMP JUMPDEST DUP1 DUP5 ADD SWAP2 POP POP SWAP3 SWAP2 POP POP JUMP JUMPDEST PUSH1 0x0 PUSH2 0x37E1 PUSH1 0x30 DUP4 PUSH2 0x4169 JUMP JUMPDEST SWAP2 POP PUSH32 0x4E656E68756D612076657263616F20617469766120656E636F6E747261646120 PUSH1 0x0 DUP4 ADD MSTORE PUSH32 0x70617261206573746120706167696E6100000000000000000000000000000000 PUSH1 0x20 DUP4 ADD MSTORE PUSH1 0x40 DUP3 ADD SWAP1 POP SWAP2 SWAP1 POP JUMP JUMPDEST PUSH1 0x0 PUSH2 0x3847 PUSH1 0x43 DUP4 PUSH2 0x4169 JUMP JUMPDEST SWAP2 POP PUSH32 0x412061646963616F206465206E6F76617320766572636F657320736F20652070 PUSH1 0x0 DUP4 ADD MSTORE PUSH32 0x65726D6974696461207175616E646F206120706167696E612065737461206174 PUSH1 0x20 DUP4 ADD MSTORE PUSH32 0x6976610000000000000000000000000000000000000000000000000000000000 PUSH1 0x40 DUP4 ADD MSTORE PUSH1 0x60 DUP3 ADD SWAP1 POP SWAP2 SWAP1 POP JUMP JUMPDEST PUSH1 0x0 PUSH2 0x38D3 PUSH1 0x3F DUP4 PUSH2 0x4169 JUMP JUMPDEST SWAP2 POP PUSH32 0x4120616C7465726163616F2064652076657273616F20736F2065207065726D69 PUSH1 0x0 DUP4 ADD MSTORE PUSH32 0x74696461207175616E646F206120706167696E61206573746120617469766100 PUSH1 0x20 DUP4 ADD MSTORE PUSH1 0x40 DUP3 ADD SWAP1 POP SWAP2 SWAP1 POP JUMP JUMPDEST PUSH1 0x0 PUSH2 0x3939 PUSH1 0x16 DUP4 PUSH2 0x4169 JUMP JUMPDEST SWAP2 POP PUSH32 0x496E6469636520666F726120646F20616C63616E636500000000000000000000 PUSH1 0x0 DUP4 ADD MSTORE PUSH1 0x20 DUP3 ADD SWAP1 POP SWAP2 SWAP1 POP JUMP JUMPDEST PUSH1 0x0 PUSH2 0x3979 PUSH1 0x20 DUP4 PUSH2 0x4169 JUMP JUMPDEST SWAP2 POP PUSH32 0x496E646963652064612076657273616F20666F726120646F20616C63616E6365 PUSH1 0x0 DUP4 ADD MSTORE PUSH1 0x20 DUP3 ADD SWAP1 POP SWAP2 SWAP1 POP JUMP JUMPDEST PUSH1 0x0 PUSH2 0x39B9 PUSH1 0x34 DUP4 PUSH2 0x4169 JUMP JUMPDEST SWAP2 POP PUSH32 0x41206163616F20736F2065207065726D6974696461207175616E646F20612042 PUSH1 0x0 DUP4 ADD MSTORE PUSH32 0x6C6F636B70656469612065737461206174697661000000000000000000000000 PUSH1 0x20 DUP4 ADD MSTORE PUSH1 0x40 DUP3 ADD SWAP1 POP SWAP2 SWAP1 POP JUMP JUMPDEST PUSH1 0x0 PUSH2 0x3A1F PUSH1 0x26 DUP4 PUSH2 0x4169 JUMP JUMPDEST SWAP2 POP PUSH32 0x4A612065786973746520706167696E6120617469766120636F6D206573746520 PUSH1 0x0 DUP4 ADD MSTORE PUSH32 0x746974756C6F0000000000000000000000000000000000000000000000000000 PUSH1 0x20 DUP4 ADD MSTORE PUSH1 0x40 DUP3 ADD SWAP1 POP SWAP2 SWAP1 POP JUMP JUMPDEST PUSH1 0x0 PUSH2 0x3A85 PUSH1 0x20 DUP4 PUSH2 0x4169 JUMP JUMPDEST SWAP2 POP PUSH32 0x496E6469636520646120706167696E6120666F726120646F20616C63616E6365 PUSH1 0x0 DUP4 ADD MSTORE PUSH1 0x20 DUP3 ADD SWAP1 POP SWAP2 SWAP1 POP JUMP JUMPDEST PUSH1 0x0 PUSH2 0x3AC5 PUSH1 0x3D DUP4 PUSH2 0x4169 JUMP JUMPDEST SWAP2 POP PUSH32 0x536F6D656E7465206F20646F6E6F20646573746120426C6F636B706564696120 PUSH1 0x0 DUP4 ADD MSTORE PUSH32 0x706F646520616C7465726172206F20617472696275746F20617469766F000000 PUSH1 0x20 DUP4 ADD MSTORE PUSH1 0x40 DUP3 ADD SWAP1 POP SWAP2 SWAP1 POP JUMP JUMPDEST PUSH1 0x0 PUSH1 0xA0 DUP4 ADD PUSH1 0x0 DUP4 ADD MLOAD PUSH2 0x3B36 PUSH1 0x0 DUP7 ADD DUP3 PUSH2 0x3713 JUMP JUMPDEST POP PUSH1 0x20 DUP4 ADD MLOAD PUSH2 0x3B49 PUSH1 0x20 DUP7 ADD DUP3 PUSH2 0x35AD JUMP JUMPDEST POP PUSH1 0x40 DUP4 ADD MLOAD PUSH2 0x3B5C PUSH1 0x40 DUP7 ADD DUP3 PUSH2 0x3CDE JUMP JUMPDEST POP PUSH1 0x60 DUP4 ADD MLOAD DUP5 DUP3 SUB PUSH1 0x60 DUP7 ADD MSTORE PUSH2 0x3B74 DUP3 DUP3 PUSH2 0x3731 JUMP JUMPDEST SWAP2 POP POP PUSH1 0x80 DUP4 ADD MLOAD DUP5 DUP3 SUB PUSH1 0x80 DUP7 ADD MSTORE PUSH2 0x3B8E DUP3 DUP3 PUSH2 0x3640 JUMP JUMPDEST SWAP2 POP POP DUP1 SWAP2 POP POP SWAP3 SWAP2 POP POP JUMP JUMPDEST PUSH1 0x0 PUSH1 0xA0 DUP4 ADD PUSH1 0x0 DUP4 ADD MLOAD PUSH2 0x3BB3 PUSH1 0x0 DUP7 ADD DUP3 PUSH2 0x3713 JUMP JUMPDEST POP PUSH1 0x20 DUP4 ADD MLOAD PUSH2 0x3BC6 PUSH1 0x20 DUP7 ADD DUP3 PUSH2 0x35AD JUMP JUMPDEST POP PUSH1 0x40 DUP4 ADD MLOAD PUSH2 0x3BD9 PUSH1 0x40 DUP7 ADD DUP3 PUSH2 0x3CDE JUMP JUMPDEST POP PUSH1 0x60 DUP4 ADD MLOAD DUP5 DUP3 SUB PUSH1 0x60 DUP7 ADD MSTORE PUSH2 0x3BF1 DUP3 DUP3 PUSH2 0x3731 JUMP JUMPDEST SWAP2 POP POP PUSH1 0x80 DUP4 ADD MLOAD DUP5 DUP3 SUB PUSH1 0x80 DUP7 ADD MSTORE PUSH2 0x3C0B DUP3 DUP3 PUSH2 0x3640 JUMP JUMPDEST SWAP2 POP POP DUP1 SWAP2 POP POP SWAP3 SWAP2 POP POP JUMP JUMPDEST PUSH1 0x0 PUSH1 0x80 DUP4 ADD PUSH1 0x0 DUP4 ADD MLOAD PUSH2 0x3C30 PUSH1 0x0 DUP7 ADD DUP3 PUSH2 0x3713 JUMP JUMPDEST POP PUSH1 0x20 DUP4 ADD MLOAD PUSH2 0x3C43 PUSH1 0x20 DUP7 ADD DUP3 PUSH2 0x35AD JUMP JUMPDEST POP PUSH1 0x40 DUP4 ADD MLOAD PUSH2 0x3C56 PUSH1 0x40 DUP7 ADD DUP3 PUSH2 0x3CDE JUMP JUMPDEST POP PUSH1 0x60 DUP4 ADD MLOAD DUP5 DUP3 SUB PUSH1 0x60 DUP7 ADD MSTORE PUSH2 0x3C6E DUP3 DUP3 PUSH2 0x3731 JUMP JUMPDEST SWAP2 POP POP DUP1 SWAP2 POP POP SWAP3 SWAP2 POP POP JUMP JUMPDEST PUSH1 0x0 PUSH1 0x80 DUP4 ADD PUSH1 0x0 DUP4 ADD MLOAD PUSH2 0x3C93 PUSH1 0x0 DUP7 ADD DUP3 PUSH2 0x3713 JUMP JUMPDEST POP PUSH1 0x20 DUP4 ADD MLOAD PUSH2 0x3CA6 PUSH1 0x20 DUP7 ADD DUP3 PUSH2 0x35AD JUMP JUMPDEST POP PUSH1 0x40 DUP4 ADD MLOAD PUSH2 0x3CB9 PUSH1 0x40 DUP7 ADD DUP3 PUSH2 0x3CDE JUMP JUMPDEST POP PUSH1 0x60 DUP4 ADD MLOAD DUP5 DUP3 SUB PUSH1 0x60 DUP7 ADD MSTORE PUSH2 0x3CD1 DUP3 DUP3 PUSH2 0x3731 JUMP JUMPDEST SWAP2 POP POP DUP1 SWAP2 POP POP SWAP3 SWAP2 POP POP JUMP JUMPDEST PUSH2 0x3CE7 DUP2 PUSH2 0x41F7 JUMP JUMPDEST DUP3 MSTORE POP POP JUMP JUMPDEST PUSH2 0x3CF6 DUP2 PUSH2 0x41F7 JUMP JUMPDEST DUP3 MSTORE POP POP JUMP JUMPDEST PUSH1 0x0 PUSH2 0x3D08 DUP3 DUP5 PUSH2 0x37A3 JUMP JUMPDEST SWAP2 POP DUP2 SWAP1 POP SWAP3 SWAP2 POP POP JUMP JUMPDEST PUSH1 0x0 PUSH1 0x20 DUP3 ADD SWAP1 POP PUSH2 0x3D28 PUSH1 0x0 DUP4 ADD DUP5 PUSH2 0x35BC JUMP JUMPDEST SWAP3 SWAP2 POP POP JUMP JUMPDEST PUSH1 0x0 PUSH1 0x20 DUP3 ADD SWAP1 POP DUP2 DUP2 SUB PUSH1 0x0 DUP4 ADD MSTORE PUSH2 0x3D48 DUP2 DUP5 PUSH2 0x35CB JUMP JUMPDEST SWAP1 POP SWAP3 SWAP2 POP POP JUMP JUMPDEST PUSH1 0x0 PUSH1 0x20 DUP3 ADD SWAP1 POP DUP2 DUP2 SUB PUSH1 0x0 DUP4 ADD MSTORE PUSH2 0x3D6A DUP2 DUP5 PUSH2 0x36B5 JUMP JUMPDEST SWAP1 POP SWAP3 SWAP2 POP POP JUMP JUMPDEST PUSH1 0x0 PUSH1 0x20 DUP3 ADD SWAP1 POP PUSH2 0x3D87 PUSH1 0x0 DUP4 ADD DUP5 PUSH2 0x3722 JUMP JUMPDEST SWAP3 SWAP2 POP POP JUMP JUMPDEST PUSH1 0x0 PUSH1 0x80 DUP3 ADD SWAP1 POP PUSH2 0x3DA2 PUSH1 0x0 DUP4 ADD DUP8 PUSH2 0x3722 JUMP JUMPDEST PUSH2 0x3DAF PUSH1 0x20 DUP4 ADD DUP7 PUSH2 0x35BC JUMP JUMPDEST PUSH2 0x3DBC PUSH1 0x40 DUP4 ADD DUP6 PUSH2 0x3CED JUMP JUMPDEST DUP2 DUP2 SUB PUSH1 0x60 DUP4 ADD MSTORE PUSH2 0x3DCE DUP2 DUP5 PUSH2 0x35CB JUMP JUMPDEST SWAP1 POP SWAP6 SWAP5 POP POP POP POP POP JUMP JUMPDEST PUSH1 0x0 PUSH1 0x80 DUP3 ADD SWAP1 POP PUSH2 0x3DEE PUSH1 0x0 DUP4 ADD DUP8 PUSH2 0x3722 JUMP JUMPDEST PUSH2 0x3DFB PUSH1 0x20 DUP4 ADD DUP7 PUSH2 0x35BC JUMP JUMPDEST PUSH2 0x3E08 PUSH1 0x40 DUP4 ADD DUP6 PUSH2 0x3CED JUMP JUMPDEST DUP2 DUP2 SUB PUSH1 0x60 DUP4 ADD MSTORE PUSH2 0x3E1A DUP2 DUP5 PUSH2 0x376A JUMP JUMPDEST SWAP1 POP SWAP6 SWAP5 POP POP POP POP POP JUMP JUMPDEST PUSH1 0x0 PUSH1 0x80 DUP3 ADD SWAP1 POP PUSH2 0x3E3A PUSH1 0x0 DUP4 ADD DUP8 PUSH2 0x3722 JUMP JUMPDEST PUSH2 0x3E47 PUSH1 0x20 DUP4 ADD DUP7 PUSH2 0x35BC JUMP JUMPDEST PUSH2 0x3E54 PUSH1 0x40 DUP4 ADD DUP6 PUSH2 0x3CED JUMP JUMPDEST PUSH2 0x3E61 PUSH1 0x60 DUP4 ADD DUP5 PUSH2 0x3CED JUMP JUMPDEST SWAP6 SWAP5 POP POP POP POP POP JUMP JUMPDEST PUSH1 0x0 PUSH1 0x20 DUP3 ADD SWAP1 POP DUP2 DUP2 SUB PUSH1 0x0 DUP4 ADD MSTORE PUSH2 0x3E83 DUP2 PUSH2 0x37D4 JUMP JUMPDEST SWAP1 POP SWAP2 SWAP1 POP JUMP JUMPDEST PUSH1 0x0 PUSH1 0x20 DUP3 ADD SWAP1 POP DUP2 DUP2 SUB PUSH1 0x0 DUP4 ADD MSTORE PUSH2 0x3EA3 DUP2 PUSH2 0x383A JUMP JUMPDEST SWAP1 POP SWAP2 SWAP1 POP JUMP JUMPDEST PUSH1 0x0 PUSH1 0x20 DUP3 ADD SWAP1 POP DUP2 DUP2 SUB PUSH1 0x0 DUP4 ADD MSTORE PUSH2 0x3EC3 DUP2 PUSH2 0x38C6 JUMP JUMPDEST SWAP1 POP SWAP2 SWAP1 POP JUMP JUMPDEST PUSH1 0x0 PUSH1 0x20 DUP3 ADD SWAP1 POP DUP2 DUP2 SUB PUSH1 0x0 DUP4 ADD MSTORE PUSH2 0x3EE3 DUP2 PUSH2 0x392C JUMP JUMPDEST SWAP1 POP SWAP2 SWAP1 POP JUMP JUMPDEST PUSH1 0x0 PUSH1 0x20 DUP3 ADD SWAP1 POP DUP2 DUP2 SUB PUSH1 0x0 DUP4 ADD MSTORE PUSH2 0x3F03 DUP2 PUSH2 0x396C JUMP JUMPDEST SWAP1 POP SWAP2 SWAP1 POP JUMP JUMPDEST PUSH1 0x0 PUSH1 0x20 DUP3 ADD SWAP1 POP DUP2 DUP2 SUB PUSH1 0x0 DUP4 ADD MSTORE PUSH2 0x3F23 DUP2 PUSH2 0x39AC JUMP JUMPDEST SWAP1 POP SWAP2 SWAP1 POP JUMP JUMPDEST PUSH1 0x0 PUSH1 0x20 DUP3 ADD SWAP1 POP DUP2 DUP2 SUB PUSH1 0x0 DUP4 ADD MSTORE PUSH2 0x3F43 DUP2 PUSH2 0x3A12 JUMP JUMPDEST SWAP1 POP SWAP2 SWAP1 POP JUMP JUMPDEST PUSH1 0x0 PUSH1 0x20 DUP3 ADD SWAP1 POP DUP2 DUP2 SUB PUSH1 0x0 DUP4 ADD MSTORE PUSH2 0x3F63 DUP2 PUSH2 0x3A78 JUMP JUMPDEST SWAP1 POP SWAP2 SWAP1 POP JUMP JUMPDEST PUSH1 0x0 PUSH1 0x20 DUP3 ADD SWAP1 POP DUP2 DUP2 SUB PUSH1 0x0 DUP4 ADD MSTORE PUSH2 0x3F83 DUP2 PUSH2 0x3AB8 JUMP JUMPDEST SWAP1 POP SWAP2 SWAP1 POP JUMP JUMPDEST PUSH1 0x0 PUSH1 0x20 DUP3 ADD SWAP1 POP DUP2 DUP2 SUB PUSH1 0x0 DUP4 ADD MSTORE PUSH2 0x3FA4 DUP2 DUP5 PUSH2 0x3B9B JUMP JUMPDEST SWAP1 POP SWAP3 SWAP2 POP POP JUMP JUMPDEST PUSH1 0x0 PUSH1 0x20 DUP3 ADD SWAP1 POP DUP2 DUP2 SUB PUSH1 0x0 DUP4 ADD MSTORE PUSH2 0x3FC6 DUP2 DUP5 PUSH2 0x3C7B JUMP JUMPDEST SWAP1 POP SWAP3 SWAP2 POP POP JUMP JUMPDEST PUSH1 0x0 PUSH1 0x20 DUP3 ADD SWAP1 POP PUSH2 0x3FE3 PUSH1 0x0 DUP4 ADD DUP5 PUSH2 0x3CED JUMP JUMPDEST SWAP3 SWAP2 POP POP JUMP JUMPDEST PUSH1 0x0 PUSH1 0x40 MLOAD SWAP1 POP DUP2 DUP2 ADD DUP2 DUP2 LT PUSH8 0xFFFFFFFFFFFFFFFF DUP3 GT OR ISZERO PUSH2 0x4010 JUMPI PUSH2 0x400F PUSH2 0x4346 JUMP JUMPDEST JUMPDEST DUP1 PUSH1 0x40 MSTORE POP SWAP2 SWAP1 POP JUMP JUMPDEST PUSH1 0x0 PUSH8 0xFFFFFFFFFFFFFFFF DUP3 GT ISZERO PUSH2 0x4035 JUMPI PUSH2 0x4034 PUSH2 0x4346 JUMP JUMPDEST JUMPDEST PUSH1 0x20 DUP3 MUL SWAP1 POP PUSH1 0x20 DUP2 ADD SWAP1 POP SWAP2 SWAP1 POP JUMP JUMPDEST PUSH1 0x0 PUSH8 0xFFFFFFFFFFFFFFFF DUP3 GT ISZERO PUSH2 0x4061 JUMPI PUSH2 0x4060 PUSH2 0x4346 JUMP JUMPDEST JUMPDEST PUSH1 0x20 DUP3 MUL SWAP1 POP PUSH1 0x20 DUP2 ADD SWAP1 POP SWAP2 SWAP1 POP JUMP JUMPDEST PUSH1 0x0 PUSH8 0xFFFFFFFFFFFFFFFF DUP3 GT ISZERO PUSH2 0x408D JUMPI PUSH2 0x408C PUSH2 0x4346 JUMP JUMPDEST JUMPDEST PUSH1 0x1F NOT PUSH1 0x1F DUP4 ADD AND SWAP1 POP PUSH1 0x20 DUP2 ADD SWAP1 POP SWAP2 SWAP1 POP JUMP JUMPDEST PUSH1 0x0 DUP2 SWAP1 POP PUSH1 0x20 DUP3 ADD SWAP1 POP SWAP2 SWAP1 POP JUMP JUMPDEST PUSH1 0x0 DUP2 SWAP1 POP PUSH1 0x20 DUP3 ADD SWAP1 POP SWAP2 SWAP1 POP JUMP JUMPDEST PUSH1 0x0 DUP2 SWAP1 POP PUSH1 0x20 DUP3 ADD SWAP1 POP SWAP2 SWAP1 POP JUMP JUMPDEST PUSH1 0x0 DUP2 MLOAD SWAP1 POP SWAP2 SWAP1 POP JUMP JUMPDEST PUSH1 0x0 DUP2 MLOAD SWAP1 POP SWAP2 SWAP1 POP JUMP JUMPDEST PUSH1 0x0 DUP2 MLOAD SWAP1 POP SWAP2 SWAP1 POP JUMP JUMPDEST PUSH1 0x0 DUP2 MLOAD SWAP1 POP SWAP2 SWAP1 POP JUMP JUMPDEST PUSH1 0x0 PUSH1 0x20 DUP3 ADD SWAP1 POP SWAP2 SWAP1 POP JUMP JUMPDEST PUSH1 0x0 PUSH1 0x20 DUP3 ADD SWAP1 POP SWAP2 SWAP1 POP JUMP JUMPDEST PUSH1 0x0 PUSH1 0x20 DUP3 ADD SWAP1 POP SWAP2 SWAP1 POP JUMP JUMPDEST PUSH1 0x0 DUP3 DUP3 MSTORE PUSH1 0x20 DUP3 ADD SWAP1 POP SWAP3 SWAP2 POP POP JUMP JUMPDEST PUSH1 0x0 DUP3 DUP3 MSTORE PUSH1 0x20 DUP3 ADD SWAP1 POP SWAP3 SWAP2 POP POP JUMP JUMPDEST PUSH1 0x0 DUP3 DUP3 MSTORE PUSH1 0x20 DUP3 ADD SWAP1 POP SWAP3 SWAP2 POP POP JUMP JUMPDEST PUSH1 0x0 DUP3 DUP3 MSTORE PUSH1 0x20 DUP3 ADD SWAP1 POP SWAP3 SWAP2 POP POP JUMP JUMPDEST PUSH1 0x0 DUP3 DUP3 MSTORE PUSH1 0x20 DUP3 ADD SWAP1 POP SWAP3 SWAP2 POP POP JUMP JUMPDEST PUSH1 0x0 DUP2 SWAP1 POP SWAP3 SWAP2 POP POP JUMP JUMPDEST PUSH1 0x0 PUSH2 0x4190 DUP3 PUSH2 0x41F7 JUMP JUMPDEST SWAP2 POP PUSH2 0x419B DUP4 PUSH2 0x41F7 JUMP JUMPDEST SWAP3 POP DUP3 DUP3 LT ISZERO PUSH2 0x41AE JUMPI PUSH2 0x41AD PUSH2 0x42E8 JUMP JUMPDEST JUMPDEST DUP3 DUP3 SUB SWAP1 POP SWAP3 SWAP2 POP POP JUMP JUMPDEST PUSH1 0x0 PUSH2 0x41C4 DUP3 PUSH2 0x41D7 JUMP JUMPDEST SWAP1 POP SWAP2 SWAP1 POP JUMP JUMPDEST PUSH1 0x0 DUP2 ISZERO ISZERO SWAP1 POP SWAP2 SWAP1 POP JUMP JUMPDEST PUSH1 0x0 PUSH20 0xFFFFFFFFFFFFFFFFFFFFFFFFFFFFFFFFFFFFFFFF DUP3 AND SWAP1 POP SWAP2 SWAP1 POP JUMP JUMPDEST PUSH1 0x0 DUP2 SWAP1 POP SWAP2 SWAP1 POP JUMP JUMPDEST DUP3 DUP2 DUP4 CALLDATACOPY PUSH1 0x0 DUP4 DUP4 ADD MSTORE POP POP POP JUMP JUMPDEST PUSH1 0x0 JUMPDEST DUP4 DUP2 LT ISZERO PUSH2 0x422E JUMPI DUP1 DUP3 ADD MLOAD DUP2 DUP5 ADD MSTORE PUSH1 0x20 DUP2 ADD SWAP1 POP PUSH2 0x4213 JUMP JUMPDEST DUP4 DUP2 GT ISZERO PUSH2 0x423D JUMPI PUSH1 0x0 DUP5 DUP5 ADD MSTORE JUMPDEST POP POP POP POP JUMP JUMPDEST PUSH1 0x0 PUSH2 0x424E DUP3 PUSH2 0x41F7 JUMP JUMPDEST SWAP2 POP PUSH1 0x0 DUP3 EQ ISZERO PUSH2 0x4262 JUMPI PUSH2 0x4261 PUSH2 0x42E8 JUMP JUMPDEST JUMPDEST PUSH1 0x1 DUP3 SUB SWAP1 POP SWAP2 SWAP1 POP JUMP JUMPDEST PUSH1 0x0 PUSH1 0x2 DUP3 DIV SWAP1 POP PUSH1 0x1 DUP3 AND DUP1 PUSH2 0x4285 JUMPI PUSH1 0x7F DUP3 AND SWAP2 POP JUMPDEST PUSH1 0x20 DUP3 LT DUP2 EQ ISZERO PUSH2 0x4299 JUMPI PUSH2 0x4298 PUSH2 0x4317 JUMP JUMPDEST JUMPDEST POP SWAP2 SWAP1 POP JUMP JUMPDEST PUSH1 0x0 PUSH2 0x42AA DUP3 PUSH2 0x41F7 JUMP JUMPDEST SWAP2 POP PUSH32 0xFFFFFFFFFFFFFFFFFFFFFFFFFFFFFFFFFFFFFFFFFFFFFFFFFFFFFFFFFFFFFFFF DUP3 EQ ISZERO PUSH2 0x42DD JUMPI PUSH2 0x42DC PUSH2 0x42E8 JUMP JUMPDEST JUMPDEST PUSH1 0x1 DUP3 ADD SWAP1 POP SWAP2 SWAP1 POP JUMP JUMPDEST PUSH32 0x4E487B7100000000000000000000000000000000000000000000000000000000 PUSH1 0x0 MSTORE PUSH1 0x11 PUSH1 0x4 MSTORE PUSH1 0x24 PUSH1 0x0 REVERT JUMPDEST PUSH32 0x4E487B7100000000000000000000000000000000000000000000000000000000 PUSH1 0x0 MSTORE PUSH1 0x22 PUSH1 0x4 MSTORE PUSH1 0x24 PUSH1 0x0 REVERT JUMPDEST PUSH32 0x4E487B7100000000000000000000000000000000000000000000000000000000 PUSH1 0x0 MSTORE PUSH1 0x41 PUSH1 0x4 MSTORE PUSH1 0x24 PUSH1 0x0 REVERT JUMPDEST PUSH1 0x0 PUSH1 0x1F NOT PUSH1 0x1F DUP4 ADD AND SWAP1 POP SWAP2 SWAP1 POP JUMP JUMPDEST PUSH2 0x438F DUP2 PUSH2 0x41B9 JUMP JUMPDEST DUP2 EQ PUSH2 0x439A JUMPI PUSH1 0x0 DUP1 REVERT JUMPDEST POP JUMP JUMPDEST PUSH2 0x43A6 DUP2 PUSH2 0x41CB JUMP JUMPDEST DUP2 EQ PUSH2 0x43B1 JUMPI PUSH1 0x0 DUP1 REVERT JUMPDEST POP JUMP JUMPDEST PUSH2 0x43BD DUP2 PUSH2 0x41F7 JUMP JUMPDEST DUP2 EQ PUSH2 0x43C8 JUMPI PUSH1 0x0 DUP1 REVERT JUMPDEST POP JUMP INVALID LOG2 PUSH5 0x6970667358 0x22 SLT KECCAK256 0x49 0xAB 0xCA SWAP2 0xBE 0xB2 DUP1 STOP SWAP1 GT 0xB8 LOG3 PUSH28 0x217B67F2DB90F5BF0094B59B90721E3BADD5CD64736F6C6343000800 STOP CALLER TIMESTAMP PUSH6 0x6D2076696E64 PUSH16 0x206120426C6F636B70656964612C2061 KECCAK256 PUSH6 0x6E6369636C6F PUSH17 0x65646961206E6120626C6F636B63686169 PUSH15 0x0 "
				},
				"gasEstimates": {
					"creation": {
						"codeDepositCost": "3481800",
						"executionCost": "infinite",
						"totalCost": "infinite"
					},
					"external": {
						"": "203",
						"adicionaNovaVercaoDesativadaAPaginaPorIndexPaginas(uint256,string)": "infinite",
						"ativaDesativaBlockpedia(bool)": "infinite",
						"ativaPaginaPorIndexPaginas(uint256)": "infinite",
						"ativaVersaoPorIndexVersoesEIndexPaginas(uint256,uint256)": "infinite",
						"ativo()": "1213",
						"autor()": "infinite",
						"criarPagina(string,string)": "infinite",
						"dataCriacao()": "infinite",
						"desativaPaginaPorIndexPaginas(uint256)": "25668",
						"getAllDadosBlockpedia()": "infinite",
						"getAllPaginasAtivas()": "infinite",
						"getAllPaginasAtivasSomenteComAsVersoesAtivas()": "infinite",
						"getAllPaginasComTodasVersoes()": "infinite",
						"getInformacoesBlockpedia()": "infinite",
						"getPaginaComVersoes(uint256)": "infinite",
						"getPaginasPorTitulo(string)": "infinite",
						"getVersaoValidaDeUmaPagina((bool,address,uint256,string,(bool,address,uint256,string)[]))": "infinite",
						"paginas(uint256)": "infinite"
					},
					"internal": {
						"comparaString(string memory,string memory)": "infinite",
						"existeTituloAtivo(string memory)": "infinite",
						"getConteudoVersaoValidaPorIndexPaginas(uint256)": "infinite"
					}
				},
				"methodIdentifiers": {
					"adicionaNovaVercaoDesativadaAPaginaPorIndexPaginas(uint256,string)": "d4d23a6e",
					"ativaDesativaBlockpedia(bool)": "1509d30c",
					"ativaPaginaPorIndexPaginas(uint256)": "aa83581f",
					"ativaVersaoPorIndexVersoesEIndexPaginas(uint256,uint256)": "95be551a",
					"ativo()": "a18cc13b",
					"autor()": "0694952d",
					"criarPagina(string,string)": "1c18379a",
					"dataCriacao()": "6f70a52e",
					"desativaPaginaPorIndexPaginas(uint256)": "d616c9f0",
					"getAllDadosBlockpedia()": "294d2e2c",
					"getAllPaginasAtivas()": "a89107a9",
					"getAllPaginasAtivasSomenteComAsVersoesAtivas()": "041acb57",
					"getAllPaginasComTodasVersoes()": "b15820e8",
					"getInformacoesBlockpedia()": "e976f43a",
					"getPaginaComVersoes(uint256)": "72c1395c",
					"getPaginasPorTitulo(string)": "2e87ca2e",
					"getVersaoValidaDeUmaPagina((bool,address,uint256,string,(bool,address,uint256,string)[]))": "9980ed12",
					"paginas(uint256)": "e7d4296a"
				}
			},
			"storageLayout": {
				"storage": [
					{
						"astId": 4,
						"contract": "blockpedia.sol:Blockpedia",
						"label": "ativo",
						"offset": 0,
						"slot": "0",
						"type": "t_bool"
					},
					{
						"astId": 12,
						"contract": "blockpedia.sol:Blockpedia",
						"label": "paginas",
						"offset": 0,
						"slot": "1",
						"type": "t_array(t_struct(Pagina)25_storage)dyn_storage"
					}
				],
				"types": {
					"t_address": {
						"encoding": "inplace",
						"label": "address",
						"numberOfBytes": "20"
					},
					"t_array(t_struct(Pagina)25_storage)dyn_storage": {
						"base": "t_struct(Pagina)25_storage",
						"encoding": "dynamic_array",
						"label": "struct Blockpedia.Pagina[]",
						"numberOfBytes": "32"
					},
					"t_array(t_struct(Versao)34_storage)dyn_storage": {
						"base": "t_struct(Versao)34_storage",
						"encoding": "dynamic_array",
						"label": "struct Blockpedia.Versao[]",
						"numberOfBytes": "32"
					},
					"t_bool": {
						"encoding": "inplace",
						"label": "bool",
						"numberOfBytes": "1"
					},
					"t_string_storage": {
						"encoding": "bytes",
						"label": "string",
						"numberOfBytes": "32"
					},
					"t_struct(Pagina)25_storage": {
						"encoding": "inplace",
						"label": "struct Blockpedia.Pagina",
						"members": [
							{
								"astId": 14,
								"contract": "blockpedia.sol:Blockpedia",
								"label": "ativo",
								"offset": 0,
								"slot": "0",
								"type": "t_bool"
							},
							{
								"astId": 16,
								"contract": "blockpedia.sol:Blockpedia",
								"label": "autor",
								"offset": 1,
								"slot": "0",
								"type": "t_address"
							},
							{
								"astId": 18,
								"contract": "blockpedia.sol:Blockpedia",
								"label": "dataCriacao",
								"offset": 0,
								"slot": "1",
								"type": "t_uint256"
							},
							{
								"astId": 20,
								"contract": "blockpedia.sol:Blockpedia",
								"label": "titulo",
								"offset": 0,
								"slot": "2",
								"type": "t_string_storage"
							},
							{
								"astId": 24,
								"contract": "blockpedia.sol:Blockpedia",
								"label": "versoes",
								"offset": 0,
								"slot": "3",
								"type": "t_array(t_struct(Versao)34_storage)dyn_storage"
							}
						],
						"numberOfBytes": "128"
					},
					"t_struct(Versao)34_storage": {
						"encoding": "inplace",
						"label": "struct Blockpedia.Versao",
						"members": [
							{
								"astId": 27,
								"contract": "blockpedia.sol:Blockpedia",
								"label": "ativo",
								"offset": 0,
								"slot": "0",
								"type": "t_bool"
							},
							{
								"astId": 29,
								"contract": "blockpedia.sol:Blockpedia",
								"label": "autor",
								"offset": 1,
								"slot": "0",
								"type": "t_address"
							},
							{
								"astId": 31,
								"contract": "blockpedia.sol:Blockpedia",
								"label": "dataCriacao",
								"offset": 0,
								"slot": "1",
								"type": "t_uint256"
							},
							{
								"astId": 33,
								"contract": "blockpedia.sol:Blockpedia",
								"label": "conteudo",
								"offset": 0,
								"slot": "2",
								"type": "t_string_storage"
							}
						],
						"numberOfBytes": "96"
					},
					"t_uint256": {
						"encoding": "inplace",
						"label": "uint256",
						"numberOfBytes": "32"
					}
				}
			},
			"userdoc": {
				"kind": "user",
				"methods": {},
				"version": 1
			}
		}
	}
}